{
	"contracts/Todo.sol": {
		"TodoList": {
			"abi": [
				{
					"inputs": [],
					"stateMutability": "nonpayable",
					"type": "constructor"
				},
				{
					"anonymous": false,
					"inputs": [
						{
							"indexed": false,
							"internalType": "uint8",
							"name": "index",
							"type": "uint8"
						},
						{
							"indexed": false,
							"internalType": "enum TodoList.Status",
							"name": "status",
							"type": "uint8"
						}
					],
					"name": "TodoCompleted",
					"type": "event"
				},
				{
					"anonymous": false,
					"inputs": [
						{
							"indexed": false,
							"internalType": "string",
							"name": "title",
							"type": "string"
						},
						{
							"indexed": false,
							"internalType": "enum TodoList.Status",
							"name": "status",
							"type": "uint8"
						}
					],
					"name": "TodoCreated",
					"type": "event"
				},
				{
					"anonymous": false,
					"inputs": [
						{
							"indexed": false,
							"internalType": "uint8",
							"name": "index",
							"type": "uint8"
						}
					],
					"name": "TodoDeleted",
					"type": "event"
				},
				{
					"anonymous": false,
					"inputs": [],
					"name": "TodoDeleted",
					"type": "event"
				},
				{
					"anonymous": false,
					"inputs": [
						{
							"indexed": false,
							"internalType": "string",
							"name": "title",
							"type": "string"
						},
						{
							"indexed": false,
							"internalType": "enum TodoList.Status",
							"name": "status",
							"type": "uint8"
						}
					],
					"name": "TodoUpdated",
					"type": "event"
				},
				{
					"inputs": [
						{
							"internalType": "string",
							"name": "_title",
							"type": "string"
						},
						{
							"internalType": "string",
							"name": "_desc",
							"type": "string"
						}
					],
					"name": "createTodo",
					"outputs": [
						{
							"internalType": "bool",
							"name": "",
							"type": "bool"
						}
					],
					"stateMutability": "nonpayable",
					"type": "function"
				},
				{
					"inputs": [
						{
							"internalType": "uint16",
							"name": "_index",
							"type": "uint16"
						}
					],
					"name": "deleteTodo",
					"outputs": [],
					"stateMutability": "nonpayable",
					"type": "function"
				},
				{
					"inputs": [],
					"name": "getAllTodo",
					"outputs": [
						{
							"components": [
								{
									"internalType": "string",
									"name": "title",
									"type": "string"
								},
								{
									"internalType": "string",
									"name": "description",
									"type": "string"
								},
								{
									"internalType": "enum TodoList.Status",
									"name": "status",
									"type": "uint8"
								}
							],
							"internalType": "struct TodoList.Todo[]",
							"name": "",
							"type": "tuple[]"
						}
					],
					"stateMutability": "view",
					"type": "function"
				},
				{
					"inputs": [
						{
							"internalType": "uint16",
							"name": "_index",
							"type": "uint16"
						}
					],
					"name": "getTodo",
					"outputs": [
						{
							"internalType": "string",
							"name": "",
							"type": "string"
						},
						{
							"internalType": "string",
							"name": "",
							"type": "string"
						},
						{
							"internalType": "enum TodoList.Status",
							"name": "",
							"type": "uint8"
						}
					],
					"stateMutability": "view",
					"type": "function"
				},
				{
					"inputs": [],
					"name": "owner",
					"outputs": [
						{
							"internalType": "address",
							"name": "",
							"type": "address"
						}
					],
					"stateMutability": "view",
					"type": "function"
				},
				{
					"inputs": [
						{
							"internalType": "uint16",
							"name": "_index",
							"type": "uint16"
						}
					],
					"name": "todoComplete",
					"outputs": [
						{
							"internalType": "bool",
							"name": "",
							"type": "bool"
						}
					],
					"stateMutability": "nonpayable",
					"type": "function"
				},
				{
					"inputs": [
						{
							"internalType": "uint256",
							"name": "",
							"type": "uint256"
						}
					],
					"name": "todos",
					"outputs": [
						{
							"internalType": "string",
							"name": "title",
							"type": "string"
						},
						{
							"internalType": "string",
							"name": "description",
							"type": "string"
						},
						{
							"internalType": "enum TodoList.Status",
							"name": "status",
							"type": "uint8"
						}
					],
					"stateMutability": "view",
					"type": "function"
				},
				{
					"inputs": [
						{
							"internalType": "uint8",
							"name": "_index",
							"type": "uint8"
						},
						{
							"internalType": "string",
							"name": "_title",
							"type": "string"
						},
						{
							"internalType": "string",
							"name": "_desc",
							"type": "string"
						}
					],
					"name": "updateTodo",
					"outputs": [
						{
							"internalType": "bool",
							"name": "",
							"type": "bool"
						}
					],
					"stateMutability": "nonpayable",
					"type": "function"
				}
			],
			"devdoc": {
				"kind": "dev",
				"methods": {},
				"version": 1
			},
			"evm": {
				"assembly": "    /* \"contracts/Todo.sol\":61:2714  contract TodoList {... */\n  mstore(0x40, 0x80)\n    /* \"contracts/Todo.sol\":339:390  constructor() {... */\n  callvalue\n  dup1\n  iszero\n  tag_1\n  jumpi\n  0x00\n  dup1\n  revert\ntag_1:\n  pop\n    /* \"contracts/Todo.sol\":372:382  msg.sender */\n  caller\n    /* \"contracts/Todo.sol\":364:369  owner */\n  0x00\n  dup1\n    /* \"contracts/Todo.sol\":364:382  owner = msg.sender */\n  0x0100\n  exp\n  dup2\n  sload\n  dup2\n  0xffffffffffffffffffffffffffffffffffffffff\n  mul\n  not\n  and\n  swap1\n  dup4\n  0xffffffffffffffffffffffffffffffffffffffff\n  and\n  mul\n  or\n  swap1\n  sstore\n  pop\n    /* \"contracts/Todo.sol\":61:2714  contract TodoList {... */\n  dataSize(sub_0)\n  dup1\n  dataOffset(sub_0)\n  0x00\n  codecopy\n  0x00\n  return\nstop\n\nsub_0: assembly {\n        /* \"contracts/Todo.sol\":61:2714  contract TodoList {... */\n      mstore(0x40, 0x80)\n      callvalue\n      dup1\n      iszero\n      tag_1\n      jumpi\n      0x00\n      dup1\n      revert\n    tag_1:\n      pop\n      jumpi(tag_2, lt(calldatasize, 0x04))\n      shr(0xe0, calldataload(0x00))\n      dup1\n      0x982abb89\n      gt\n      tag_11\n      jumpi\n      dup1\n      0x982abb89\n      eq\n      tag_7\n      jumpi\n      dup1\n      0xb12080fa\n      eq\n      tag_8\n      jumpi\n      dup1\n      0xbc8bc2b4\n      eq\n      tag_9\n      jumpi\n      dup1\n      0xe9505164\n      eq\n      tag_10\n      jumpi\n      jump(tag_2)\n    tag_11:\n      dup1\n      0x16b0fac8\n      eq\n      tag_3\n      jumpi\n      dup1\n      0x3380b99f\n      eq\n      tag_4\n      jumpi\n      dup1\n      0x3c734648\n      eq\n      tag_5\n      jumpi\n      dup1\n      0x8da5cb5b\n      eq\n      tag_6\n      jumpi\n    tag_2:\n      0x00\n      dup1\n      revert\n        /* \"contracts/Todo.sol\":2193:2403  function deleteTodo(uint16 _index) public {... */\n    tag_3:\n      tag_12\n      0x04\n      dup1\n      calldatasize\n      sub\n      dup2\n      add\n      swap1\n      tag_13\n      swap2\n      swap1\n      tag_14\n      jump\t// in\n    tag_13:\n      tag_15\n      jump\t// in\n    tag_12:\n      stop\n        /* \"contracts/Todo.sol\":859:1263  function createTodo(string memory _title, string memory _desc)... */\n    tag_4:\n      tag_16\n      0x04\n      dup1\n      calldatasize\n      sub\n      dup2\n      add\n      swap1\n      tag_17\n      swap2\n      swap1\n      tag_18\n      jump\t// in\n    tag_17:\n      tag_19\n      jump\t// in\n    tag_16:\n      mload(0x40)\n      tag_20\n      swap2\n      swap1\n      tag_21\n      jump\t// in\n    tag_20:\n      mload(0x40)\n      dup1\n      swap2\n      sub\n      swap1\n      return\n        /* \"contracts/Todo.sol\":1735:2088  function getTodo(uint16 _index)... */\n    tag_5:\n      tag_22\n      0x04\n      dup1\n      calldatasize\n      sub\n      dup2\n      add\n      swap1\n      tag_23\n      swap2\n      swap1\n      tag_14\n      jump\t// in\n    tag_23:\n      tag_24\n      jump\t// in\n    tag_22:\n      mload(0x40)\n      tag_25\n      swap4\n      swap3\n      swap2\n      swap1\n      tag_26\n      jump\t// in\n    tag_25:\n      mload(0x40)\n      dup1\n      swap2\n      sub\n      swap1\n      return\n        /* \"contracts/Todo.sol\":86:106  address public owner */\n    tag_6:\n      tag_27\n      tag_28\n      jump\t// in\n    tag_27:\n      mload(0x40)\n      tag_29\n      swap2\n      swap1\n      tag_30\n      jump\t// in\n    tag_29:\n      mload(0x40)\n      dup1\n      swap2\n      sub\n      swap1\n      return\n        /* \"contracts/Todo.sol\":2096:2185  function getAllTodo() public view returns (Todo[] memory) {... */\n    tag_7:\n      tag_31\n      tag_32\n      jump\t// in\n    tag_31:\n      mload(0x40)\n      tag_33\n      swap2\n      swap1\n      tag_34\n      jump\t// in\n    tag_33:\n      mload(0x40)\n      dup1\n      swap2\n      sub\n      swap1\n      return\n        /* \"contracts/Todo.sol\":2411:2711  function todoComplete(uint16 _index)... */\n    tag_8:\n      tag_35\n      0x04\n      dup1\n      calldatasize\n      sub\n      dup2\n      add\n      swap1\n      tag_36\n      swap2\n      swap1\n      tag_14\n      jump\t// in\n    tag_36:\n      tag_37\n      jump\t// in\n    tag_35:\n      mload(0x40)\n      tag_38\n      swap2\n      swap1\n      tag_21\n      jump\t// in\n    tag_38:\n      mload(0x40)\n      dup1\n      swap2\n      sub\n      swap1\n      return\n        /* \"contracts/Todo.sol\":311:330  Todo[] public todos */\n    tag_9:\n      tag_39\n      0x04\n      dup1\n      calldatasize\n      sub\n      dup2\n      add\n      swap1\n      tag_40\n      swap2\n      swap1\n      tag_41\n      jump\t// in\n    tag_40:\n      tag_42\n      jump\t// in\n    tag_39:\n      mload(0x40)\n      tag_43\n      swap4\n      swap3\n      swap2\n      swap1\n      tag_26\n      jump\t// in\n    tag_43:\n      mload(0x40)\n      dup1\n      swap2\n      sub\n      swap1\n      return\n        /* \"contracts/Todo.sol\":1271:1727  function updateTodo(... */\n    tag_10:\n      tag_44\n      0x04\n      dup1\n      calldatasize\n      sub\n      dup2\n      add\n      swap1\n      tag_45\n      swap2\n      swap1\n      tag_46\n      jump\t// in\n    tag_45:\n      tag_47\n      jump\t// in\n    tag_44:\n      mload(0x40)\n      tag_48\n      swap2\n      swap1\n      tag_21\n      jump\t// in\n    tag_48:\n      mload(0x40)\n      dup1\n      swap2\n      sub\n      swap1\n      return\n        /* \"contracts/Todo.sol\":2193:2403  function deleteTodo(uint16 _index) public {... */\n    tag_15:\n        /* \"contracts/Todo.sol\":2263:2268  todos */\n      0x01\n        /* \"contracts/Todo.sol\":2263:2275  todos.length */\n      dup1\n      sload\n      swap1\n      pop\n        /* \"contracts/Todo.sol\":2254:2260  _index */\n      dup2\n        /* \"contracts/Todo.sol\":2254:2275  _index < todos.length */\n      0xffff\n      and\n      lt\n        /* \"contracts/Todo.sol\":2246:2292  require(_index < todos.length, \"Out of bound\") */\n      tag_50\n      jumpi\n      mload(0x40)\n      0x08c379a000000000000000000000000000000000000000000000000000000000\n      dup2\n      mstore\n      0x04\n      add\n      tag_51\n      swap1\n      tag_52\n      jump\t// in\n    tag_51:\n      mload(0x40)\n      dup1\n      swap2\n      sub\n      swap1\n      revert\n    tag_50:\n        /* \"contracts/Todo.sol\":2319:2324  todos */\n      0x01\n        /* \"contracts/Todo.sol\":2340:2341  1 */\n      dup1\n        /* \"contracts/Todo.sol\":2325:2330  todos */\n      dup1\n        /* \"contracts/Todo.sol\":2325:2337  todos.length */\n      dup1\n      sload\n      swap1\n      pop\n        /* \"contracts/Todo.sol\":2325:2341  todos.length - 1 */\n      tag_53\n      swap2\n      swap1\n      tag_54\n      jump\t// in\n    tag_53:\n        /* \"contracts/Todo.sol\":2319:2342  todos[todos.length - 1] */\n      dup2\n      sload\n      dup2\n      lt\n      tag_55\n      jumpi\n      tag_56\n      tag_57\n      jump\t// in\n    tag_56:\n    tag_55:\n      swap1\n      0x00\n      mstore\n      keccak256(0x00, 0x20)\n      swap1\n      0x03\n      mul\n      add\n        /* \"contracts/Todo.sol\":2303:2308  todos */\n      0x01\n        /* \"contracts/Todo.sol\":2309:2315  _index */\n      dup3\n        /* \"contracts/Todo.sol\":2303:2316  todos[_index] */\n      0xffff\n      and\n      dup2\n      sload\n      dup2\n      lt\n      tag_59\n      jumpi\n      tag_60\n      tag_57\n      jump\t// in\n    tag_60:\n    tag_59:\n      swap1\n      0x00\n      mstore\n      keccak256(0x00, 0x20)\n      swap1\n      0x03\n      mul\n      add\n        /* \"contracts/Todo.sol\":2303:2342  todos[_index] = todos[todos.length - 1] */\n      0x00\n      dup3\n      add\n      dup2\n      0x00\n      add\n      swap1\n      dup2\n      tag_62\n      swap2\n      swap1\n      tag_63\n      jump\t// in\n    tag_62:\n      pop\n      0x01\n      dup3\n      add\n      dup2\n      0x01\n      add\n      swap1\n      dup2\n      tag_64\n      swap2\n      swap1\n      tag_63\n      jump\t// in\n    tag_64:\n      pop\n      0x02\n      dup3\n      add\n      0x00\n      swap1\n      sload\n      swap1\n      0x0100\n      exp\n      swap1\n      div\n      0xff\n      and\n      dup2\n      0x02\n      add\n      exp(0x0100, 0x00)\n      dup2\n      sload\n      dup2\n      0xff\n      mul\n      not\n      and\n      swap1\n      dup4\n      0x03\n      dup2\n      gt\n      iszero\n      tag_65\n      jumpi\n      tag_66\n      tag_67\n      jump\t// in\n    tag_66:\n    tag_65:\n      mul\n      or\n      swap1\n      sstore\n      pop\n      swap1\n      pop\n      pop\n        /* \"contracts/Todo.sol\":2353:2358  todos */\n      0x01\n        /* \"contracts/Todo.sol\":2353:2364  todos.pop() */\n      dup1\n      sload\n      dup1\n      tag_68\n      jumpi\n      tag_69\n      tag_70\n      jump\t// in\n    tag_69:\n    tag_68:\n      0x01\n      swap1\n      sub\n      dup2\n      dup2\n      swap1\n      0x00\n      mstore\n      keccak256(0x00, 0x20)\n      swap1\n      0x03\n      mul\n      add\n      0x00\n      dup1\n      dup3\n      add\n      0x00\n      tag_72\n      swap2\n      swap1\n      tag_73\n      jump\t// in\n    tag_72:\n      0x01\n      dup3\n      add\n      0x00\n      tag_74\n      swap2\n      swap1\n      tag_73\n      jump\t// in\n    tag_74:\n      0x02\n      dup3\n      add\n      exp(0x0100, 0x00)\n      dup2\n      sload\n      swap1\n      0xff\n      mul\n      not\n      and\n      swap1\n      sstore\n      pop\n      pop\n      swap1\n      sstore\n        /* \"contracts/Todo.sol\":2382:2395  TodoDeleted() */\n      0x9218efb8b01b35364f271f424251d4ac0ee6008fc366226e9c2338bd15ebf616\n      mload(0x40)\n      mload(0x40)\n      dup1\n      swap2\n      sub\n      swap1\n      log1\n        /* \"contracts/Todo.sol\":2193:2403  function deleteTodo(uint16 _index) public {... */\n      pop\n      jump\t// out\n        /* \"contracts/Todo.sol\":859:1263  function createTodo(string memory _title, string memory _desc)... */\n    tag_19:\n        /* \"contracts/Todo.sol\":999:1003  bool */\n      0x00\n        /* \"contracts/Todo.sol\":452:457  owner */\n      dup1\n      0x00\n      swap1\n      sload\n      swap1\n      0x0100\n      exp\n      swap1\n      div\n      0xffffffffffffffffffffffffffffffffffffffff\n      and\n        /* \"contracts/Todo.sol\":438:457  msg.sender == owner */\n      0xffffffffffffffffffffffffffffffffffffffff\n      and\n        /* \"contracts/Todo.sol\":438:448  msg.sender */\n      caller\n        /* \"contracts/Todo.sol\":438:457  msg.sender == owner */\n      0xffffffffffffffffffffffffffffffffffffffff\n      and\n      eq\n        /* \"contracts/Todo.sol\":430:480  require(msg.sender == owner, \"You're not allowed\") */\n      tag_76\n      jumpi\n      mload(0x40)\n      0x08c379a000000000000000000000000000000000000000000000000000000000\n      dup2\n      mstore\n      0x04\n      add\n      tag_77\n      swap1\n      tag_78\n      jump\t// in\n    tag_77:\n      mload(0x40)\n      dup1\n      swap2\n      sub\n      swap1\n      revert\n    tag_76:\n        /* \"contracts/Todo.sol\":573:574  0 */\n      0x00\n        /* \"contracts/Todo.sol\":551:575  msg.sender != address(0) */\n      0xffffffffffffffffffffffffffffffffffffffff\n      and\n        /* \"contracts/Todo.sol\":551:561  msg.sender */\n      caller\n        /* \"contracts/Todo.sol\":551:575  msg.sender != address(0) */\n      0xffffffffffffffffffffffffffffffffffffffff\n      and\n      sub\n        /* \"contracts/Todo.sol\":543:604  require(msg.sender != address(0), \"Zero Address not allowed\") */\n      tag_80\n      jumpi\n      mload(0x40)\n      0x08c379a000000000000000000000000000000000000000000000000000000000\n      dup2\n      mstore\n      0x04\n      add\n      tag_81\n      swap1\n      tag_82\n      jump\t// in\n    tag_81:\n      mload(0x40)\n      dup1\n      swap2\n      sub\n      swap1\n      revert\n    tag_80:\n        /* \"contracts/Todo.sol\":1021:1039  Todo memory mytodo */\n      tag_84\n      tag_85\n      jump\t// in\n    tag_84:\n        /* \"contracts/Todo.sol\":1065:1071  _title */\n      dup4\n        /* \"contracts/Todo.sol\":1050:1056  mytodo */\n      dup2\n        /* \"contracts/Todo.sol\":1050:1062  mytodo.title */\n      0x00\n      add\n        /* \"contracts/Todo.sol\":1050:1071  mytodo.title = _title */\n      dup2\n      swap1\n      mstore\n      pop\n        /* \"contracts/Todo.sol\":1103:1108  _desc */\n      dup3\n        /* \"contracts/Todo.sol\":1082:1088  mytodo */\n      dup2\n        /* \"contracts/Todo.sol\":1082:1100  mytodo.description */\n      0x20\n      add\n        /* \"contracts/Todo.sol\":1082:1108  mytodo.description = _desc */\n      dup2\n      swap1\n      mstore\n      pop\n        /* \"contracts/Todo.sol\":1135:1149  Status.Created */\n      0x01\n        /* \"contracts/Todo.sol\":1119:1125  mytodo */\n      dup2\n        /* \"contracts/Todo.sol\":1119:1132  mytodo.status */\n      0x40\n      add\n        /* \"contracts/Todo.sol\":1119:1149  mytodo.status = Status.Created */\n      swap1\n      0x03\n      dup2\n      gt\n      iszero\n      tag_86\n      jumpi\n      tag_87\n      tag_67\n      jump\t// in\n    tag_87:\n    tag_86:\n      swap1\n      dup2\n      0x03\n      dup2\n      gt\n      iszero\n      tag_88\n      jumpi\n      tag_89\n      tag_67\n      jump\t// in\n    tag_89:\n    tag_88:\n      dup2\n      mstore\n      pop\n      pop\n        /* \"contracts/Todo.sol\":1162:1167  todos */\n      0x01\n        /* \"contracts/Todo.sol\":1173:1179  mytodo */\n      dup2\n        /* \"contracts/Todo.sol\":1162:1180  todos.push(mytodo) */\n      swap1\n      dup1\n      0x01\n      dup2\n      sload\n      add\n      dup1\n      dup3\n      sstore\n      dup1\n      swap2\n      pop\n      pop\n      0x01\n      swap1\n      sub\n      swap1\n      0x00\n      mstore\n      keccak256(0x00, 0x20)\n      swap1\n      0x03\n      mul\n      add\n      0x00\n      swap1\n      swap2\n      swap1\n      swap2\n      swap1\n      swap2\n      pop\n      0x00\n      dup3\n      add\n      mload\n      dup2\n      0x00\n      add\n      swap1\n      dup2\n      tag_91\n      swap2\n      swap1\n      tag_92\n      jump\t// in\n    tag_91:\n      pop\n      0x20\n      dup3\n      add\n      mload\n      dup2\n      0x01\n      add\n      swap1\n      dup2\n      tag_93\n      swap2\n      swap1\n      tag_92\n      jump\t// in\n    tag_93:\n      pop\n      0x40\n      dup3\n      add\n      mload\n      dup2\n      0x02\n      add\n      exp(0x0100, 0x00)\n      dup2\n      sload\n      dup2\n      0xff\n      mul\n      not\n      and\n      swap1\n      dup4\n      0x03\n      dup2\n      gt\n      iszero\n      tag_94\n      jumpi\n      tag_95\n      tag_67\n      jump\t// in\n    tag_95:\n    tag_94:\n      mul\n      or\n      swap1\n      sstore\n      pop\n      pop\n      pop\n        /* \"contracts/Todo.sol\":1198:1233  TodoCreated(_title, Status.Created) */\n      0xb24501745f85fff88cc582df1223bf671a1234ab872711ffaa7eb8bd56fe311e\n        /* \"contracts/Todo.sol\":1210:1216  _title */\n      dup5\n        /* \"contracts/Todo.sol\":1218:1232  Status.Created */\n      0x01\n        /* \"contracts/Todo.sol\":1198:1233  TodoCreated(_title, Status.Created) */\n      mload(0x40)\n      tag_96\n      swap3\n      swap2\n      swap1\n      tag_97\n      jump\t// in\n    tag_96:\n      mload(0x40)\n      dup1\n      swap2\n      sub\n      swap1\n      log1\n        /* \"contracts/Todo.sol\":1251:1255  true */\n      0x01\n        /* \"contracts/Todo.sol\":1244:1255  return true */\n      swap2\n      pop\n      pop\n        /* \"contracts/Todo.sol\":859:1263  function createTodo(string memory _title, string memory _desc)... */\n      swap3\n      swap2\n      pop\n      pop\n      jump\t// out\n        /* \"contracts/Todo.sol\":1735:2088  function getTodo(uint16 _index)... */\n    tag_24:\n        /* \"contracts/Todo.sol\":1831:1844  string memory */\n      0x60\n        /* \"contracts/Todo.sol\":1859:1872  string memory */\n      dup1\n        /* \"contracts/Todo.sol\":1887:1893  Status */\n      0x00\n        /* \"contracts/Todo.sol\":1938:1943  todos */\n      0x01\n        /* \"contracts/Todo.sol\":1938:1950  todos.length */\n      dup1\n      sload\n      swap1\n      pop\n        /* \"contracts/Todo.sol\":1929:1935  _index */\n      dup5\n        /* \"contracts/Todo.sol\":1929:1950  _index < todos.length */\n      0xffff\n      and\n      lt\n        /* \"contracts/Todo.sol\":1921:1967  require(_index < todos.length, \"Out of bound\") */\n      tag_99\n      jumpi\n      mload(0x40)\n      0x08c379a000000000000000000000000000000000000000000000000000000000\n      dup2\n      mstore\n      0x04\n      add\n      tag_100\n      swap1\n      tag_52\n      jump\t// in\n    tag_100:\n      mload(0x40)\n      dup1\n      swap2\n      sub\n      swap1\n      revert\n    tag_99:\n        /* \"contracts/Todo.sol\":1978:1997  Todo storage mytodo */\n      0x00\n        /* \"contracts/Todo.sol\":2000:2005  todos */\n      0x01\n        /* \"contracts/Todo.sol\":2006:2012  _index */\n      dup6\n        /* \"contracts/Todo.sol\":2000:2013  todos[_index] */\n      0xffff\n      and\n      dup2\n      sload\n      dup2\n      lt\n      tag_101\n      jumpi\n      tag_102\n      tag_57\n      jump\t// in\n    tag_102:\n    tag_101:\n      swap1\n      0x00\n      mstore\n      keccak256(0x00, 0x20)\n      swap1\n      0x03\n      mul\n      add\n        /* \"contracts/Todo.sol\":1978:2013  Todo storage mytodo = todos[_index] */\n      swap1\n      pop\n        /* \"contracts/Todo.sol\":2032:2038  mytodo */\n      dup1\n        /* \"contracts/Todo.sol\":2032:2044  mytodo.title */\n      0x00\n      add\n        /* \"contracts/Todo.sol\":2046:2052  mytodo */\n      dup2\n        /* \"contracts/Todo.sol\":2046:2064  mytodo.description */\n      0x01\n      add\n        /* \"contracts/Todo.sol\":2066:2072  mytodo */\n      dup3\n        /* \"contracts/Todo.sol\":2066:2079  mytodo.status */\n      0x02\n      add\n      0x00\n      swap1\n      sload\n      swap1\n      0x0100\n      exp\n      swap1\n      div\n      0xff\n      and\n        /* \"contracts/Todo.sol\":2024:2080  return (mytodo.title, mytodo.description, mytodo.status) */\n      dup3\n      dup1\n      sload\n      tag_104\n      swap1\n      tag_105\n      jump\t// in\n    tag_104:\n      dup1\n      0x1f\n      add\n      0x20\n      dup1\n      swap2\n      div\n      mul\n      0x20\n      add\n      mload(0x40)\n      swap1\n      dup2\n      add\n      0x40\n      mstore\n      dup1\n      swap3\n      swap2\n      swap1\n      dup2\n      dup2\n      mstore\n      0x20\n      add\n      dup3\n      dup1\n      sload\n      tag_106\n      swap1\n      tag_105\n      jump\t// in\n    tag_106:\n      dup1\n      iszero\n      tag_107\n      jumpi\n      dup1\n      0x1f\n      lt\n      tag_108\n      jumpi\n      0x0100\n      dup1\n      dup4\n      sload\n      div\n      mul\n      dup4\n      mstore\n      swap2\n      0x20\n      add\n      swap2\n      jump(tag_107)\n    tag_108:\n      dup3\n      add\n      swap2\n      swap1\n      0x00\n      mstore\n      keccak256(0x00, 0x20)\n      swap1\n    tag_109:\n      dup2\n      sload\n      dup2\n      mstore\n      swap1\n      0x01\n      add\n      swap1\n      0x20\n      add\n      dup1\n      dup4\n      gt\n      tag_109\n      jumpi\n      dup3\n      swap1\n      sub\n      0x1f\n      and\n      dup3\n      add\n      swap2\n    tag_107:\n      pop\n      pop\n      pop\n      pop\n      pop\n      swap3\n      pop\n      dup2\n      dup1\n      sload\n      tag_110\n      swap1\n      tag_105\n      jump\t// in\n    tag_110:\n      dup1\n      0x1f\n      add\n      0x20\n      dup1\n      swap2\n      div\n      mul\n      0x20\n      add\n      mload(0x40)\n      swap1\n      dup2\n      add\n      0x40\n      mstore\n      dup1\n      swap3\n      swap2\n      swap1\n      dup2\n      dup2\n      mstore\n      0x20\n      add\n      dup3\n      dup1\n      sload\n      tag_111\n      swap1\n      tag_105\n      jump\t// in\n    tag_111:\n      dup1\n      iszero\n      tag_112\n      jumpi\n      dup1\n      0x1f\n      lt\n      tag_113\n      jumpi\n      0x0100\n      dup1\n      dup4\n      sload\n      div\n      mul\n      dup4\n      mstore\n      swap2\n      0x20\n      add\n      swap2\n      jump(tag_112)\n    tag_113:\n      dup3\n      add\n      swap2\n      swap1\n      0x00\n      mstore\n      keccak256(0x00, 0x20)\n      swap1\n    tag_114:\n      dup2\n      sload\n      dup2\n      mstore\n      swap1\n      0x01\n      add\n      swap1\n      0x20\n      add\n      dup1\n      dup4\n      gt\n      tag_114\n      jumpi\n      dup3\n      swap1\n      sub\n      0x1f\n      and\n      dup3\n      add\n      swap2\n    tag_112:\n      pop\n      pop\n      pop\n      pop\n      pop\n      swap2\n      pop\n      swap4\n      pop\n      swap4\n      pop\n      swap4\n      pop\n      pop\n        /* \"contracts/Todo.sol\":1735:2088  function getTodo(uint16 _index)... */\n      swap2\n      swap4\n      swap1\n      swap3\n      pop\n      jump\t// out\n        /* \"contracts/Todo.sol\":86:106  address public owner */\n    tag_28:\n      0x00\n      dup1\n      sload\n      swap1\n      0x0100\n      exp\n      swap1\n      div\n      0xffffffffffffffffffffffffffffffffffffffff\n      and\n      dup2\n      jump\t// out\n        /* \"contracts/Todo.sol\":2096:2185  function getAllTodo() public view returns (Todo[] memory) {... */\n    tag_32:\n        /* \"contracts/Todo.sol\":2139:2152  Todo[] memory */\n      0x60\n        /* \"contracts/Todo.sol\":2172:2177  todos */\n      0x01\n        /* \"contracts/Todo.sol\":2165:2177  return todos */\n      dup1\n      sload\n      dup1\n      0x20\n      mul\n      0x20\n      add\n      mload(0x40)\n      swap1\n      dup2\n      add\n      0x40\n      mstore\n      dup1\n      swap3\n      swap2\n      swap1\n      dup2\n      dup2\n      mstore\n      0x20\n      add\n      0x00\n      swap1\n    tag_116:\n      dup3\n      dup3\n      lt\n      iszero\n      tag_117\n      jumpi\n      dup4\n      dup3\n      swap1\n      0x00\n      mstore\n      keccak256(0x00, 0x20)\n      swap1\n      0x03\n      mul\n      add\n      mload(0x40)\n      dup1\n      0x60\n      add\n      0x40\n      mstore\n      swap1\n      dup2\n      0x00\n      dup3\n      add\n      dup1\n      sload\n      tag_119\n      swap1\n      tag_105\n      jump\t// in\n    tag_119:\n      dup1\n      0x1f\n      add\n      0x20\n      dup1\n      swap2\n      div\n      mul\n      0x20\n      add\n      mload(0x40)\n      swap1\n      dup2\n      add\n      0x40\n      mstore\n      dup1\n      swap3\n      swap2\n      swap1\n      dup2\n      dup2\n      mstore\n      0x20\n      add\n      dup3\n      dup1\n      sload\n      tag_120\n      swap1\n      tag_105\n      jump\t// in\n    tag_120:\n      dup1\n      iszero\n      tag_121\n      jumpi\n      dup1\n      0x1f\n      lt\n      tag_122\n      jumpi\n      0x0100\n      dup1\n      dup4\n      sload\n      div\n      mul\n      dup4\n      mstore\n      swap2\n      0x20\n      add\n      swap2\n      jump(tag_121)\n    tag_122:\n      dup3\n      add\n      swap2\n      swap1\n      0x00\n      mstore\n      keccak256(0x00, 0x20)\n      swap1\n    tag_123:\n      dup2\n      sload\n      dup2\n      mstore\n      swap1\n      0x01\n      add\n      swap1\n      0x20\n      add\n      dup1\n      dup4\n      gt\n      tag_123\n      jumpi\n      dup3\n      swap1\n      sub\n      0x1f\n      and\n      dup3\n      add\n      swap2\n    tag_121:\n      pop\n      pop\n      pop\n      pop\n      pop\n      dup2\n      mstore\n      0x20\n      add\n      0x01\n      dup3\n      add\n      dup1\n      sload\n      tag_124\n      swap1\n      tag_105\n      jump\t// in\n    tag_124:\n      dup1\n      0x1f\n      add\n      0x20\n      dup1\n      swap2\n      div\n      mul\n      0x20\n      add\n      mload(0x40)\n      swap1\n      dup2\n      add\n      0x40\n      mstore\n      dup1\n      swap3\n      swap2\n      swap1\n      dup2\n      dup2\n      mstore\n      0x20\n      add\n      dup3\n      dup1\n      sload\n      tag_125\n      swap1\n      tag_105\n      jump\t// in\n    tag_125:\n      dup1\n      iszero\n      tag_126\n      jumpi\n      dup1\n      0x1f\n      lt\n      tag_127\n      jumpi\n      0x0100\n      dup1\n      dup4\n      sload\n      div\n      mul\n      dup4\n      mstore\n      swap2\n      0x20\n      add\n      swap2\n      jump(tag_126)\n    tag_127:\n      dup3\n      add\n      swap2\n      swap1\n      0x00\n      mstore\n      keccak256(0x00, 0x20)\n      swap1\n    tag_128:\n      dup2\n      sload\n      dup2\n      mstore\n      swap1\n      0x01\n      add\n      swap1\n      0x20\n      add\n      dup1\n      dup4\n      gt\n      tag_128\n      jumpi\n      dup3\n      swap1\n      sub\n      0x1f\n      and\n      dup3\n      add\n      swap2\n    tag_126:\n      pop\n      pop\n      pop\n      pop\n      pop\n      dup2\n      mstore\n      0x20\n      add\n      0x02\n      dup3\n      add\n      0x00\n      swap1\n      sload\n      swap1\n      0x0100\n      exp\n      swap1\n      div\n      0xff\n      and\n      0x03\n      dup2\n      gt\n      iszero\n      tag_129\n      jumpi\n      tag_130\n      tag_67\n      jump\t// in\n    tag_130:\n    tag_129:\n      0x03\n      dup2\n      gt\n      iszero\n      tag_131\n      jumpi\n      tag_132\n      tag_67\n      jump\t// in\n    tag_132:\n    tag_131:\n      dup2\n      mstore\n      pop\n      pop\n      dup2\n      mstore\n      0x20\n      add\n      swap1\n      0x01\n      add\n      swap1\n      jump(tag_116)\n    tag_117:\n      pop\n      pop\n      pop\n      pop\n      swap1\n      pop\n        /* \"contracts/Todo.sol\":2096:2185  function getAllTodo() public view returns (Todo[] memory) {... */\n      swap1\n      jump\t// out\n        /* \"contracts/Todo.sol\":2411:2711  function todoComplete(uint16 _index)... */\n    tag_37:\n        /* \"contracts/Todo.sol\":2523:2527  bool */\n      0x00\n        /* \"contracts/Todo.sol\":452:457  owner */\n      dup1\n      0x00\n      swap1\n      sload\n      swap1\n      0x0100\n      exp\n      swap1\n      div\n      0xffffffffffffffffffffffffffffffffffffffff\n      and\n        /* \"contracts/Todo.sol\":438:457  msg.sender == owner */\n      0xffffffffffffffffffffffffffffffffffffffff\n      and\n        /* \"contracts/Todo.sol\":438:448  msg.sender */\n      caller\n        /* \"contracts/Todo.sol\":438:457  msg.sender == owner */\n      0xffffffffffffffffffffffffffffffffffffffff\n      and\n      eq\n        /* \"contracts/Todo.sol\":430:480  require(msg.sender == owner, \"You're not allowed\") */\n      tag_134\n      jumpi\n      mload(0x40)\n      0x08c379a000000000000000000000000000000000000000000000000000000000\n      dup2\n      mstore\n      0x04\n      add\n      tag_135\n      swap1\n      tag_78\n      jump\t// in\n    tag_135:\n      mload(0x40)\n      dup1\n      swap2\n      sub\n      swap1\n      revert\n    tag_134:\n        /* \"contracts/Todo.sol\":573:574  0 */\n      0x00\n        /* \"contracts/Todo.sol\":551:575  msg.sender != address(0) */\n      0xffffffffffffffffffffffffffffffffffffffff\n      and\n        /* \"contracts/Todo.sol\":551:561  msg.sender */\n      caller\n        /* \"contracts/Todo.sol\":551:575  msg.sender != address(0) */\n      0xffffffffffffffffffffffffffffffffffffffff\n      and\n      sub\n        /* \"contracts/Todo.sol\":543:604  require(msg.sender != address(0), \"Zero Address not allowed\") */\n      tag_137\n      jumpi\n      mload(0x40)\n      0x08c379a000000000000000000000000000000000000000000000000000000000\n      dup2\n      mstore\n      0x04\n      add\n      tag_138\n      swap1\n      tag_82\n      jump\t// in\n    tag_138:\n      mload(0x40)\n      dup1\n      swap2\n      sub\n      swap1\n      revert\n    tag_137:\n        /* \"contracts/Todo.sol\":2562:2567  todos */\n      0x01\n        /* \"contracts/Todo.sol\":2562:2574  todos.length */\n      dup1\n      sload\n      swap1\n      pop\n        /* \"contracts/Todo.sol\":2553:2559  _index */\n      dup3\n        /* \"contracts/Todo.sol\":2553:2574  _index < todos.length */\n      0xffff\n      and\n      lt\n        /* \"contracts/Todo.sol\":2545:2591  require(_index < todos.length, \"Out of bound\") */\n      tag_140\n      jumpi\n      mload(0x40)\n      0x08c379a000000000000000000000000000000000000000000000000000000000\n      dup2\n      mstore\n      0x04\n      add\n      tag_141\n      swap1\n      tag_52\n      jump\t// in\n    tag_141:\n      mload(0x40)\n      dup1\n      swap2\n      sub\n      swap1\n      revert\n    tag_140:\n        /* \"contracts/Todo.sol\":2604:2623  Todo storage mytodo */\n      0x00\n        /* \"contracts/Todo.sol\":2626:2631  todos */\n      0x01\n        /* \"contracts/Todo.sol\":2632:2638  _index */\n      dup4\n        /* \"contracts/Todo.sol\":2626:2639  todos[_index] */\n      0xffff\n      and\n      dup2\n      sload\n      dup2\n      lt\n      tag_142\n      jumpi\n      tag_143\n      tag_57\n      jump\t// in\n    tag_143:\n    tag_142:\n      swap1\n      0x00\n      mstore\n      keccak256(0x00, 0x20)\n      swap1\n      0x03\n      mul\n      add\n        /* \"contracts/Todo.sol\":2604:2639  Todo storage mytodo = todos[_index] */\n      swap1\n      pop\n        /* \"contracts/Todo.sol\":2668:2679  Status.Done */\n      0x03\n        /* \"contracts/Todo.sol\":2652:2658  mytodo */\n      dup2\n        /* \"contracts/Todo.sol\":2652:2665  mytodo.status */\n      0x02\n      add\n      0x00\n        /* \"contracts/Todo.sol\":2652:2679  mytodo.status = Status.Done */\n      0x0100\n      exp\n      dup2\n      sload\n      dup2\n      0xff\n      mul\n      not\n      and\n      swap1\n      dup4\n      0x03\n      dup2\n      gt\n      iszero\n      tag_145\n      jumpi\n      tag_146\n      tag_67\n      jump\t// in\n    tag_146:\n    tag_145:\n      mul\n      or\n      swap1\n      sstore\n      pop\n        /* \"contracts/Todo.sol\":2699:2703  true */\n      0x01\n        /* \"contracts/Todo.sol\":2692:2703  return true */\n      swap2\n      pop\n      pop\n        /* \"contracts/Todo.sol\":2411:2711  function todoComplete(uint16 _index)... */\n      swap2\n      swap1\n      pop\n      jump\t// out\n        /* \"contracts/Todo.sol\":311:330  Todo[] public todos */\n    tag_42:\n      0x01\n      dup2\n      dup2\n      sload\n      dup2\n      lt\n      tag_147\n      jumpi\n      0x00\n      dup1\n      revert\n    tag_147:\n      swap1\n      0x00\n      mstore\n      keccak256(0x00, 0x20)\n      swap1\n      0x03\n      mul\n      add\n      0x00\n      swap2\n      pop\n      swap1\n      pop\n      dup1\n      0x00\n      add\n      dup1\n      sload\n      tag_149\n      swap1\n      tag_105\n      jump\t// in\n    tag_149:\n      dup1\n      0x1f\n      add\n      0x20\n      dup1\n      swap2\n      div\n      mul\n      0x20\n      add\n      mload(0x40)\n      swap1\n      dup2\n      add\n      0x40\n      mstore\n      dup1\n      swap3\n      swap2\n      swap1\n      dup2\n      dup2\n      mstore\n      0x20\n      add\n      dup3\n      dup1\n      sload\n      tag_150\n      swap1\n      tag_105\n      jump\t// in\n    tag_150:\n      dup1\n      iszero\n      tag_151\n      jumpi\n      dup1\n      0x1f\n      lt\n      tag_152\n      jumpi\n      0x0100\n      dup1\n      dup4\n      sload\n      div\n      mul\n      dup4\n      mstore\n      swap2\n      0x20\n      add\n      swap2\n      jump(tag_151)\n    tag_152:\n      dup3\n      add\n      swap2\n      swap1\n      0x00\n      mstore\n      keccak256(0x00, 0x20)\n      swap1\n    tag_153:\n      dup2\n      sload\n      dup2\n      mstore\n      swap1\n      0x01\n      add\n      swap1\n      0x20\n      add\n      dup1\n      dup4\n      gt\n      tag_153\n      jumpi\n      dup3\n      swap1\n      sub\n      0x1f\n      and\n      dup3\n      add\n      swap2\n    tag_151:\n      pop\n      pop\n      pop\n      pop\n      pop\n      swap1\n      dup1\n      0x01\n      add\n      dup1\n      sload\n      tag_154\n      swap1\n      tag_105\n      jump\t// in\n    tag_154:\n      dup1\n      0x1f\n      add\n      0x20\n      dup1\n      swap2\n      div\n      mul\n      0x20\n      add\n      mload(0x40)\n      swap1\n      dup2\n      add\n      0x40\n      mstore\n      dup1\n      swap3\n      swap2\n      swap1\n      dup2\n      dup2\n      mstore\n      0x20\n      add\n      dup3\n      dup1\n      sload\n      tag_155\n      swap1\n      tag_105\n      jump\t// in\n    tag_155:\n      dup1\n      iszero\n      tag_156\n      jumpi\n      dup1\n      0x1f\n      lt\n      tag_157\n      jumpi\n      0x0100\n      dup1\n      dup4\n      sload\n      div\n      mul\n      dup4\n      mstore\n      swap2\n      0x20\n      add\n      swap2\n      jump(tag_156)\n    tag_157:\n      dup3\n      add\n      swap2\n      swap1\n      0x00\n      mstore\n      keccak256(0x00, 0x20)\n      swap1\n    tag_158:\n      dup2\n      sload\n      dup2\n      mstore\n      swap1\n      0x01\n      add\n      swap1\n      0x20\n      add\n      dup1\n      dup4\n      gt\n      tag_158\n      jumpi\n      dup3\n      swap1\n      sub\n      0x1f\n      and\n      dup3\n      add\n      swap2\n    tag_156:\n      pop\n      pop\n      pop\n      pop\n      pop\n      swap1\n      dup1\n      0x02\n      add\n      0x00\n      swap1\n      sload\n      swap1\n      0x0100\n      exp\n      swap1\n      div\n      0xff\n      and\n      swap1\n      pop\n      dup4\n      jump\t// out\n        /* \"contracts/Todo.sol\":1271:1727  function updateTodo(... */\n    tag_47:\n        /* \"contracts/Todo.sol\":1423:1427  bool */\n      0x00\n        /* \"contracts/Todo.sol\":452:457  owner */\n      dup1\n      0x00\n      swap1\n      sload\n      swap1\n      0x0100\n      exp\n      swap1\n      div\n      0xffffffffffffffffffffffffffffffffffffffff\n      and\n        /* \"contracts/Todo.sol\":438:457  msg.sender == owner */\n      0xffffffffffffffffffffffffffffffffffffffff\n      and\n        /* \"contracts/Todo.sol\":438:448  msg.sender */\n      caller\n        /* \"contracts/Todo.sol\":438:457  msg.sender == owner */\n      0xffffffffffffffffffffffffffffffffffffffff\n      and\n      eq\n        /* \"contracts/Todo.sol\":430:480  require(msg.sender == owner, \"You're not allowed\") */\n      tag_160\n      jumpi\n      mload(0x40)\n      0x08c379a000000000000000000000000000000000000000000000000000000000\n      dup2\n      mstore\n      0x04\n      add\n      tag_161\n      swap1\n      tag_78\n      jump\t// in\n    tag_161:\n      mload(0x40)\n      dup1\n      swap2\n      sub\n      swap1\n      revert\n    tag_160:\n        /* \"contracts/Todo.sol\":573:574  0 */\n      0x00\n        /* \"contracts/Todo.sol\":551:575  msg.sender != address(0) */\n      0xffffffffffffffffffffffffffffffffffffffff\n      and\n        /* \"contracts/Todo.sol\":551:561  msg.sender */\n      caller\n        /* \"contracts/Todo.sol\":551:575  msg.sender != address(0) */\n      0xffffffffffffffffffffffffffffffffffffffff\n      and\n      sub\n        /* \"contracts/Todo.sol\":543:604  require(msg.sender != address(0), \"Zero Address not allowed\") */\n      tag_163\n      jumpi\n      mload(0x40)\n      0x08c379a000000000000000000000000000000000000000000000000000000000\n      dup2\n      mstore\n      0x04\n      add\n      tag_164\n      swap1\n      tag_82\n      jump\t// in\n    tag_164:\n      mload(0x40)\n      dup1\n      swap2\n      sub\n      swap1\n      revert\n    tag_163:\n        /* \"contracts/Todo.sol\":1457:1462  todos */\n      0x01\n        /* \"contracts/Todo.sol\":1457:1469  todos.length */\n      dup1\n      sload\n      swap1\n      pop\n        /* \"contracts/Todo.sol\":1448:1454  _index */\n      dup5\n        /* \"contracts/Todo.sol\":1448:1469  _index < todos.length */\n      0xff\n      and\n      lt\n        /* \"contracts/Todo.sol\":1440:1486  require(_index < todos.length, \"Out of bound\") */\n      tag_166\n      jumpi\n      mload(0x40)\n      0x08c379a000000000000000000000000000000000000000000000000000000000\n      dup2\n      mstore\n      0x04\n      add\n      tag_167\n      swap1\n      tag_52\n      jump\t// in\n    tag_167:\n      mload(0x40)\n      dup1\n      swap2\n      sub\n      swap1\n      revert\n    tag_166:\n        /* \"contracts/Todo.sol\":1499:1518  Todo storage mytodo */\n      0x00\n        /* \"contracts/Todo.sol\":1521:1526  todos */\n      0x01\n        /* \"contracts/Todo.sol\":1527:1533  _index */\n      dup6\n        /* \"contracts/Todo.sol\":1521:1534  todos[_index] */\n      0xff\n      and\n      dup2\n      sload\n      dup2\n      lt\n      tag_168\n      jumpi\n      tag_169\n      tag_57\n      jump\t// in\n    tag_169:\n    tag_168:\n      swap1\n      0x00\n      mstore\n      keccak256(0x00, 0x20)\n      swap1\n      0x03\n      mul\n      add\n        /* \"contracts/Todo.sol\":1499:1534  Todo storage mytodo = todos[_index] */\n      swap1\n      pop\n        /* \"contracts/Todo.sol\":1560:1566  _title */\n      dup4\n        /* \"contracts/Todo.sol\":1545:1551  mytodo */\n      dup2\n        /* \"contracts/Todo.sol\":1545:1557  mytodo.title */\n      0x00\n      add\n        /* \"contracts/Todo.sol\":1545:1566  mytodo.title = _title */\n      swap1\n      dup2\n      tag_171\n      swap2\n      swap1\n      tag_92\n      jump\t// in\n    tag_171:\n      pop\n        /* \"contracts/Todo.sol\":1598:1603  _desc */\n      dup3\n        /* \"contracts/Todo.sol\":1577:1583  mytodo */\n      dup2\n        /* \"contracts/Todo.sol\":1577:1595  mytodo.description */\n      0x01\n      add\n        /* \"contracts/Todo.sol\":1577:1603  mytodo.description = _desc */\n      swap1\n      dup2\n      tag_172\n      swap2\n      swap1\n      tag_92\n      jump\t// in\n    tag_172:\n      pop\n        /* \"contracts/Todo.sol\":1630:1643  Status.Edited */\n      0x02\n        /* \"contracts/Todo.sol\":1614:1620  mytodo */\n      dup2\n        /* \"contracts/Todo.sol\":1614:1627  mytodo.status */\n      0x02\n      add\n      0x00\n        /* \"contracts/Todo.sol\":1614:1643  mytodo.status = Status.Edited */\n      0x0100\n      exp\n      dup2\n      sload\n      dup2\n      0xff\n      mul\n      not\n      and\n      swap1\n      dup4\n      0x03\n      dup2\n      gt\n      iszero\n      tag_173\n      jumpi\n      tag_174\n      tag_67\n      jump\t// in\n    tag_174:\n    tag_173:\n      mul\n      or\n      swap1\n      sstore\n      pop\n        /* \"contracts/Todo.sol\":1661:1695  TodoCreated(_title, Status.Edited) */\n      0xb24501745f85fff88cc582df1223bf671a1234ab872711ffaa7eb8bd56fe311e\n        /* \"contracts/Todo.sol\":1673:1679  _title */\n      dup5\n        /* \"contracts/Todo.sol\":1681:1694  Status.Edited */\n      0x02\n        /* \"contracts/Todo.sol\":1661:1695  TodoCreated(_title, Status.Edited) */\n      mload(0x40)\n      tag_175\n      swap3\n      swap2\n      swap1\n      tag_97\n      jump\t// in\n    tag_175:\n      mload(0x40)\n      dup1\n      swap2\n      sub\n      swap1\n      log1\n        /* \"contracts/Todo.sol\":1715:1719  true */\n      0x01\n        /* \"contracts/Todo.sol\":1708:1719  return true */\n      swap2\n      pop\n      pop\n        /* \"contracts/Todo.sol\":1271:1727  function updateTodo(... */\n      swap4\n      swap3\n      pop\n      pop\n      pop\n      jump\t// out\n    tag_73:\n      pop\n      dup1\n      sload\n      tag_176\n      swap1\n      tag_105\n      jump\t// in\n    tag_176:\n      0x00\n      dup3\n      sstore\n      dup1\n      0x1f\n      lt\n      tag_178\n      jumpi\n      pop\n      jump(tag_177)\n    tag_178:\n      0x1f\n      add\n      0x20\n      swap1\n      div\n      swap1\n      0x00\n      mstore\n      keccak256(0x00, 0x20)\n      swap1\n      dup2\n      add\n      swap1\n      tag_179\n      swap2\n      swap1\n      tag_180\n      jump\t// in\n    tag_179:\n    tag_177:\n      pop\n      jump\t// out\n    tag_85:\n      mload(0x40)\n      dup1\n      0x60\n      add\n      0x40\n      mstore\n      dup1\n      0x60\n      dup2\n      mstore\n      0x20\n      add\n      0x60\n      dup2\n      mstore\n      0x20\n      add\n      0x00\n      0x03\n      dup2\n      gt\n      iszero\n      tag_181\n      jumpi\n      tag_182\n      tag_67\n      jump\t// in\n    tag_182:\n    tag_181:\n      dup2\n      mstore\n      pop\n      swap1\n      jump\t// out\n    tag_180:\n    tag_183:\n      dup1\n      dup3\n      gt\n      iszero\n      tag_184\n      jumpi\n      0x00\n      dup2\n      0x00\n      swap1\n      sstore\n      pop\n      0x01\n      add\n      jump(tag_183)\n    tag_184:\n      pop\n      swap1\n      jump\t// out\n        /* \"#utility.yul\":7:82   */\n    tag_185:\n        /* \"#utility.yul\":40:46   */\n      0x00\n        /* \"#utility.yul\":73:75   */\n      0x40\n        /* \"#utility.yul\":67:76   */\n      mload\n        /* \"#utility.yul\":57:76   */\n      swap1\n      pop\n        /* \"#utility.yul\":7:82   */\n      swap1\n      jump\t// out\n        /* \"#utility.yul\":88:205   */\n    tag_186:\n        /* \"#utility.yul\":197:198   */\n      0x00\n        /* \"#utility.yul\":194:195   */\n      dup1\n        /* \"#utility.yul\":187:199   */\n      revert\n        /* \"#utility.yul\":211:328   */\n    tag_187:\n        /* \"#utility.yul\":320:321   */\n      0x00\n        /* \"#utility.yul\":317:318   */\n      dup1\n        /* \"#utility.yul\":310:322   */\n      revert\n        /* \"#utility.yul\":334:423   */\n    tag_188:\n        /* \"#utility.yul\":370:377   */\n      0x00\n        /* \"#utility.yul\":410:416   */\n      0xffff\n        /* \"#utility.yul\":403:408   */\n      dup3\n        /* \"#utility.yul\":399:417   */\n      and\n        /* \"#utility.yul\":388:417   */\n      swap1\n      pop\n        /* \"#utility.yul\":334:423   */\n      swap2\n      swap1\n      pop\n      jump\t// out\n        /* \"#utility.yul\":429:549   */\n    tag_189:\n        /* \"#utility.yul\":501:524   */\n      tag_260\n        /* \"#utility.yul\":518:523   */\n      dup2\n        /* \"#utility.yul\":501:524   */\n      tag_188\n      jump\t// in\n    tag_260:\n        /* \"#utility.yul\":494:499   */\n      dup2\n        /* \"#utility.yul\":491:525   */\n      eq\n        /* \"#utility.yul\":481:543   */\n      tag_261\n      jumpi\n        /* \"#utility.yul\":539:540   */\n      0x00\n        /* \"#utility.yul\":536:537   */\n      dup1\n        /* \"#utility.yul\":529:541   */\n      revert\n        /* \"#utility.yul\":481:543   */\n    tag_261:\n        /* \"#utility.yul\":429:549   */\n      pop\n      jump\t// out\n        /* \"#utility.yul\":555:692   */\n    tag_190:\n        /* \"#utility.yul\":600:605   */\n      0x00\n        /* \"#utility.yul\":638:644   */\n      dup2\n        /* \"#utility.yul\":625:645   */\n      calldataload\n        /* \"#utility.yul\":616:645   */\n      swap1\n      pop\n        /* \"#utility.yul\":654:686   */\n      tag_263\n        /* \"#utility.yul\":680:685   */\n      dup2\n        /* \"#utility.yul\":654:686   */\n      tag_189\n      jump\t// in\n    tag_263:\n        /* \"#utility.yul\":555:692   */\n      swap3\n      swap2\n      pop\n      pop\n      jump\t// out\n        /* \"#utility.yul\":698:1025   */\n    tag_14:\n        /* \"#utility.yul\":756:762   */\n      0x00\n        /* \"#utility.yul\":805:807   */\n      0x20\n        /* \"#utility.yul\":793:802   */\n      dup3\n        /* \"#utility.yul\":784:791   */\n      dup5\n        /* \"#utility.yul\":780:803   */\n      sub\n        /* \"#utility.yul\":776:808   */\n      slt\n        /* \"#utility.yul\":773:892   */\n      iszero\n      tag_265\n      jumpi\n        /* \"#utility.yul\":811:890   */\n      tag_266\n      tag_186\n      jump\t// in\n    tag_266:\n        /* \"#utility.yul\":773:892   */\n    tag_265:\n        /* \"#utility.yul\":931:932   */\n      0x00\n        /* \"#utility.yul\":956:1008   */\n      tag_267\n        /* \"#utility.yul\":1000:1007   */\n      dup5\n        /* \"#utility.yul\":991:997   */\n      dup3\n        /* \"#utility.yul\":980:989   */\n      dup6\n        /* \"#utility.yul\":976:998   */\n      add\n        /* \"#utility.yul\":956:1008   */\n      tag_190\n      jump\t// in\n    tag_267:\n        /* \"#utility.yul\":946:1008   */\n      swap2\n      pop\n        /* \"#utility.yul\":902:1018   */\n      pop\n        /* \"#utility.yul\":698:1025   */\n      swap3\n      swap2\n      pop\n      pop\n      jump\t// out\n        /* \"#utility.yul\":1031:1148   */\n    tag_191:\n        /* \"#utility.yul\":1140:1141   */\n      0x00\n        /* \"#utility.yul\":1137:1138   */\n      dup1\n        /* \"#utility.yul\":1130:1142   */\n      revert\n        /* \"#utility.yul\":1154:1271   */\n    tag_192:\n        /* \"#utility.yul\":1263:1264   */\n      0x00\n        /* \"#utility.yul\":1260:1261   */\n      dup1\n        /* \"#utility.yul\":1253:1265   */\n      revert\n        /* \"#utility.yul\":1277:1379   */\n    tag_193:\n        /* \"#utility.yul\":1318:1324   */\n      0x00\n        /* \"#utility.yul\":1369:1371   */\n      0x1f\n        /* \"#utility.yul\":1365:1372   */\n      not\n        /* \"#utility.yul\":1360:1362   */\n      0x1f\n        /* \"#utility.yul\":1353:1358   */\n      dup4\n        /* \"#utility.yul\":1349:1363   */\n      add\n        /* \"#utility.yul\":1345:1373   */\n      and\n        /* \"#utility.yul\":1335:1373   */\n      swap1\n      pop\n        /* \"#utility.yul\":1277:1379   */\n      swap2\n      swap1\n      pop\n      jump\t// out\n        /* \"#utility.yul\":1385:1565   */\n    tag_194:\n        /* \"#utility.yul\":1433:1510   */\n      0x4e487b7100000000000000000000000000000000000000000000000000000000\n        /* \"#utility.yul\":1430:1431   */\n      0x00\n        /* \"#utility.yul\":1423:1511   */\n      mstore\n        /* \"#utility.yul\":1530:1534   */\n      0x41\n        /* \"#utility.yul\":1527:1528   */\n      0x04\n        /* \"#utility.yul\":1520:1535   */\n      mstore\n        /* \"#utility.yul\":1554:1558   */\n      0x24\n        /* \"#utility.yul\":1551:1552   */\n      0x00\n        /* \"#utility.yul\":1544:1559   */\n      revert\n        /* \"#utility.yul\":1571:1852   */\n    tag_195:\n        /* \"#utility.yul\":1654:1681   */\n      tag_273\n        /* \"#utility.yul\":1676:1680   */\n      dup3\n        /* \"#utility.yul\":1654:1681   */\n      tag_193\n      jump\t// in\n    tag_273:\n        /* \"#utility.yul\":1646:1652   */\n      dup2\n        /* \"#utility.yul\":1642:1682   */\n      add\n        /* \"#utility.yul\":1784:1790   */\n      dup2\n        /* \"#utility.yul\":1772:1782   */\n      dup2\n        /* \"#utility.yul\":1769:1791   */\n      lt\n        /* \"#utility.yul\":1748:1766   */\n      0xffffffffffffffff\n        /* \"#utility.yul\":1736:1746   */\n      dup3\n        /* \"#utility.yul\":1733:1767   */\n      gt\n        /* \"#utility.yul\":1730:1792   */\n      or\n        /* \"#utility.yul\":1727:1815   */\n      iszero\n      tag_274\n      jumpi\n        /* \"#utility.yul\":1795:1813   */\n      tag_275\n      tag_194\n      jump\t// in\n    tag_275:\n        /* \"#utility.yul\":1727:1815   */\n    tag_274:\n        /* \"#utility.yul\":1835:1845   */\n      dup1\n        /* \"#utility.yul\":1831:1833   */\n      0x40\n        /* \"#utility.yul\":1824:1846   */\n      mstore\n        /* \"#utility.yul\":1614:1852   */\n      pop\n        /* \"#utility.yul\":1571:1852   */\n      pop\n      pop\n      jump\t// out\n        /* \"#utility.yul\":1858:1987   */\n    tag_196:\n        /* \"#utility.yul\":1892:1898   */\n      0x00\n        /* \"#utility.yul\":1919:1939   */\n      tag_277\n      tag_185\n      jump\t// in\n    tag_277:\n        /* \"#utility.yul\":1909:1939   */\n      swap1\n      pop\n        /* \"#utility.yul\":1948:1981   */\n      tag_278\n        /* \"#utility.yul\":1976:1980   */\n      dup3\n        /* \"#utility.yul\":1968:1974   */\n      dup3\n        /* \"#utility.yul\":1948:1981   */\n      tag_195\n      jump\t// in\n    tag_278:\n        /* \"#utility.yul\":1858:1987   */\n      swap2\n      swap1\n      pop\n      jump\t// out\n        /* \"#utility.yul\":1993:2301   */\n    tag_197:\n        /* \"#utility.yul\":2055:2059   */\n      0x00\n        /* \"#utility.yul\":2145:2163   */\n      0xffffffffffffffff\n        /* \"#utility.yul\":2137:2143   */\n      dup3\n        /* \"#utility.yul\":2134:2164   */\n      gt\n        /* \"#utility.yul\":2131:2187   */\n      iszero\n      tag_280\n      jumpi\n        /* \"#utility.yul\":2167:2185   */\n      tag_281\n      tag_194\n      jump\t// in\n    tag_281:\n        /* \"#utility.yul\":2131:2187   */\n    tag_280:\n        /* \"#utility.yul\":2205:2234   */\n      tag_282\n        /* \"#utility.yul\":2227:2233   */\n      dup3\n        /* \"#utility.yul\":2205:2234   */\n      tag_193\n      jump\t// in\n    tag_282:\n        /* \"#utility.yul\":2197:2234   */\n      swap1\n      pop\n        /* \"#utility.yul\":2289:2293   */\n      0x20\n        /* \"#utility.yul\":2283:2287   */\n      dup2\n        /* \"#utility.yul\":2279:2294   */\n      add\n        /* \"#utility.yul\":2271:2294   */\n      swap1\n      pop\n        /* \"#utility.yul\":1993:2301   */\n      swap2\n      swap1\n      pop\n      jump\t// out\n        /* \"#utility.yul\":2307:2455   */\n    tag_198:\n        /* \"#utility.yul\":2405:2411   */\n      dup3\n        /* \"#utility.yul\":2400:2403   */\n      dup2\n        /* \"#utility.yul\":2395:2398   */\n      dup4\n        /* \"#utility.yul\":2382:2412   */\n      calldatacopy\n        /* \"#utility.yul\":2446:2447   */\n      0x00\n        /* \"#utility.yul\":2437:2443   */\n      dup4\n        /* \"#utility.yul\":2432:2435   */\n      dup4\n        /* \"#utility.yul\":2428:2444   */\n      add\n        /* \"#utility.yul\":2421:2448   */\n      mstore\n        /* \"#utility.yul\":2307:2455   */\n      pop\n      pop\n      pop\n      jump\t// out\n        /* \"#utility.yul\":2461:2886   */\n    tag_199:\n        /* \"#utility.yul\":2539:2544   */\n      0x00\n        /* \"#utility.yul\":2564:2630   */\n      tag_285\n        /* \"#utility.yul\":2580:2629   */\n      tag_286\n        /* \"#utility.yul\":2622:2628   */\n      dup5\n        /* \"#utility.yul\":2580:2629   */\n      tag_197\n      jump\t// in\n    tag_286:\n        /* \"#utility.yul\":2564:2630   */\n      tag_196\n      jump\t// in\n    tag_285:\n        /* \"#utility.yul\":2555:2630   */\n      swap1\n      pop\n        /* \"#utility.yul\":2653:2659   */\n      dup3\n        /* \"#utility.yul\":2646:2651   */\n      dup2\n        /* \"#utility.yul\":2639:2660   */\n      mstore\n        /* \"#utility.yul\":2691:2695   */\n      0x20\n        /* \"#utility.yul\":2684:2689   */\n      dup2\n        /* \"#utility.yul\":2680:2696   */\n      add\n        /* \"#utility.yul\":2729:2732   */\n      dup5\n        /* \"#utility.yul\":2720:2726   */\n      dup5\n        /* \"#utility.yul\":2715:2718   */\n      dup5\n        /* \"#utility.yul\":2711:2727   */\n      add\n        /* \"#utility.yul\":2708:2733   */\n      gt\n        /* \"#utility.yul\":2705:2817   */\n      iszero\n      tag_287\n      jumpi\n        /* \"#utility.yul\":2736:2815   */\n      tag_288\n      tag_192\n      jump\t// in\n    tag_288:\n        /* \"#utility.yul\":2705:2817   */\n    tag_287:\n        /* \"#utility.yul\":2826:2880   */\n      tag_289\n        /* \"#utility.yul\":2873:2879   */\n      dup5\n        /* \"#utility.yul\":2868:2871   */\n      dup3\n        /* \"#utility.yul\":2863:2866   */\n      dup6\n        /* \"#utility.yul\":2826:2880   */\n      tag_198\n      jump\t// in\n    tag_289:\n        /* \"#utility.yul\":2545:2886   */\n      pop\n        /* \"#utility.yul\":2461:2886   */\n      swap4\n      swap3\n      pop\n      pop\n      pop\n      jump\t// out\n        /* \"#utility.yul\":2906:3246   */\n    tag_200:\n        /* \"#utility.yul\":2962:2967   */\n      0x00\n        /* \"#utility.yul\":3011:3014   */\n      dup3\n        /* \"#utility.yul\":3004:3008   */\n      0x1f\n        /* \"#utility.yul\":2996:3002   */\n      dup4\n        /* \"#utility.yul\":2992:3009   */\n      add\n        /* \"#utility.yul\":2988:3015   */\n      slt\n        /* \"#utility.yul\":2978:3100   */\n      tag_291\n      jumpi\n        /* \"#utility.yul\":3019:3098   */\n      tag_292\n      tag_191\n      jump\t// in\n    tag_292:\n        /* \"#utility.yul\":2978:3100   */\n    tag_291:\n        /* \"#utility.yul\":3136:3142   */\n      dup2\n        /* \"#utility.yul\":3123:3143   */\n      calldataload\n        /* \"#utility.yul\":3161:3240   */\n      tag_293\n        /* \"#utility.yul\":3236:3239   */\n      dup5\n        /* \"#utility.yul\":3228:3234   */\n      dup3\n        /* \"#utility.yul\":3221:3225   */\n      0x20\n        /* \"#utility.yul\":3213:3219   */\n      dup7\n        /* \"#utility.yul\":3209:3226   */\n      add\n        /* \"#utility.yul\":3161:3240   */\n      tag_199\n      jump\t// in\n    tag_293:\n        /* \"#utility.yul\":3152:3240   */\n      swap2\n      pop\n        /* \"#utility.yul\":2968:3246   */\n      pop\n        /* \"#utility.yul\":2906:3246   */\n      swap3\n      swap2\n      pop\n      pop\n      jump\t// out\n        /* \"#utility.yul\":3252:4086   */\n    tag_18:\n        /* \"#utility.yul\":3340:3346   */\n      0x00\n        /* \"#utility.yul\":3348:3354   */\n      dup1\n        /* \"#utility.yul\":3397:3399   */\n      0x40\n        /* \"#utility.yul\":3385:3394   */\n      dup4\n        /* \"#utility.yul\":3376:3383   */\n      dup6\n        /* \"#utility.yul\":3372:3395   */\n      sub\n        /* \"#utility.yul\":3368:3400   */\n      slt\n        /* \"#utility.yul\":3365:3484   */\n      iszero\n      tag_295\n      jumpi\n        /* \"#utility.yul\":3403:3482   */\n      tag_296\n      tag_186\n      jump\t// in\n    tag_296:\n        /* \"#utility.yul\":3365:3484   */\n    tag_295:\n        /* \"#utility.yul\":3551:3552   */\n      0x00\n        /* \"#utility.yul\":3540:3549   */\n      dup4\n        /* \"#utility.yul\":3536:3553   */\n      add\n        /* \"#utility.yul\":3523:3554   */\n      calldataload\n        /* \"#utility.yul\":3581:3599   */\n      0xffffffffffffffff\n        /* \"#utility.yul\":3573:3579   */\n      dup2\n        /* \"#utility.yul\":3570:3600   */\n      gt\n        /* \"#utility.yul\":3567:3684   */\n      iszero\n      tag_297\n      jumpi\n        /* \"#utility.yul\":3603:3682   */\n      tag_298\n      tag_187\n      jump\t// in\n    tag_298:\n        /* \"#utility.yul\":3567:3684   */\n    tag_297:\n        /* \"#utility.yul\":3708:3771   */\n      tag_299\n        /* \"#utility.yul\":3763:3770   */\n      dup6\n        /* \"#utility.yul\":3754:3760   */\n      dup3\n        /* \"#utility.yul\":3743:3752   */\n      dup7\n        /* \"#utility.yul\":3739:3761   */\n      add\n        /* \"#utility.yul\":3708:3771   */\n      tag_200\n      jump\t// in\n    tag_299:\n        /* \"#utility.yul\":3698:3771   */\n      swap3\n      pop\n        /* \"#utility.yul\":3494:3781   */\n      pop\n        /* \"#utility.yul\":3848:3850   */\n      0x20\n        /* \"#utility.yul\":3837:3846   */\n      dup4\n        /* \"#utility.yul\":3833:3851   */\n      add\n        /* \"#utility.yul\":3820:3852   */\n      calldataload\n        /* \"#utility.yul\":3879:3897   */\n      0xffffffffffffffff\n        /* \"#utility.yul\":3871:3877   */\n      dup2\n        /* \"#utility.yul\":3868:3898   */\n      gt\n        /* \"#utility.yul\":3865:3982   */\n      iszero\n      tag_300\n      jumpi\n        /* \"#utility.yul\":3901:3980   */\n      tag_301\n      tag_187\n      jump\t// in\n    tag_301:\n        /* \"#utility.yul\":3865:3982   */\n    tag_300:\n        /* \"#utility.yul\":4006:4069   */\n      tag_302\n        /* \"#utility.yul\":4061:4068   */\n      dup6\n        /* \"#utility.yul\":4052:4058   */\n      dup3\n        /* \"#utility.yul\":4041:4050   */\n      dup7\n        /* \"#utility.yul\":4037:4059   */\n      add\n        /* \"#utility.yul\":4006:4069   */\n      tag_200\n      jump\t// in\n    tag_302:\n        /* \"#utility.yul\":3996:4069   */\n      swap2\n      pop\n        /* \"#utility.yul\":3791:4079   */\n      pop\n        /* \"#utility.yul\":3252:4086   */\n      swap3\n      pop\n      swap3\n      swap1\n      pop\n      jump\t// out\n        /* \"#utility.yul\":4092:4182   */\n    tag_201:\n        /* \"#utility.yul\":4126:4133   */\n      0x00\n        /* \"#utility.yul\":4169:4174   */\n      dup2\n        /* \"#utility.yul\":4162:4175   */\n      iszero\n        /* \"#utility.yul\":4155:4176   */\n      iszero\n        /* \"#utility.yul\":4144:4176   */\n      swap1\n      pop\n        /* \"#utility.yul\":4092:4182   */\n      swap2\n      swap1\n      pop\n      jump\t// out\n        /* \"#utility.yul\":4188:4297   */\n    tag_202:\n        /* \"#utility.yul\":4269:4290   */\n      tag_305\n        /* \"#utility.yul\":4284:4289   */\n      dup2\n        /* \"#utility.yul\":4269:4290   */\n      tag_201\n      jump\t// in\n    tag_305:\n        /* \"#utility.yul\":4264:4267   */\n      dup3\n        /* \"#utility.yul\":4257:4291   */\n      mstore\n        /* \"#utility.yul\":4188:4297   */\n      pop\n      pop\n      jump\t// out\n        /* \"#utility.yul\":4303:4513   */\n    tag_21:\n        /* \"#utility.yul\":4390:4394   */\n      0x00\n        /* \"#utility.yul\":4428:4430   */\n      0x20\n        /* \"#utility.yul\":4417:4426   */\n      dup3\n        /* \"#utility.yul\":4413:4431   */\n      add\n        /* \"#utility.yul\":4405:4431   */\n      swap1\n      pop\n        /* \"#utility.yul\":4441:4506   */\n      tag_307\n        /* \"#utility.yul\":4503:4504   */\n      0x00\n        /* \"#utility.yul\":4492:4501   */\n      dup4\n        /* \"#utility.yul\":4488:4505   */\n      add\n        /* \"#utility.yul\":4479:4485   */\n      dup5\n        /* \"#utility.yul\":4441:4506   */\n      tag_202\n      jump\t// in\n    tag_307:\n        /* \"#utility.yul\":4303:4513   */\n      swap3\n      swap2\n      pop\n      pop\n      jump\t// out\n        /* \"#utility.yul\":4519:4618   */\n    tag_203:\n        /* \"#utility.yul\":4571:4577   */\n      0x00\n        /* \"#utility.yul\":4605:4610   */\n      dup2\n        /* \"#utility.yul\":4599:4611   */\n      mload\n        /* \"#utility.yul\":4589:4611   */\n      swap1\n      pop\n        /* \"#utility.yul\":4519:4618   */\n      swap2\n      swap1\n      pop\n      jump\t// out\n        /* \"#utility.yul\":4624:4793   */\n    tag_204:\n        /* \"#utility.yul\":4708:4719   */\n      0x00\n        /* \"#utility.yul\":4742:4748   */\n      dup3\n        /* \"#utility.yul\":4737:4740   */\n      dup3\n        /* \"#utility.yul\":4730:4749   */\n      mstore\n        /* \"#utility.yul\":4782:4786   */\n      0x20\n        /* \"#utility.yul\":4777:4780   */\n      dup3\n        /* \"#utility.yul\":4773:4787   */\n      add\n        /* \"#utility.yul\":4758:4787   */\n      swap1\n      pop\n        /* \"#utility.yul\":4624:4793   */\n      swap3\n      swap2\n      pop\n      pop\n      jump\t// out\n        /* \"#utility.yul\":4799:4938   */\n    tag_205:\n        /* \"#utility.yul\":4888:4894   */\n      dup3\n        /* \"#utility.yul\":4883:4886   */\n      dup2\n        /* \"#utility.yul\":4878:4881   */\n      dup4\n        /* \"#utility.yul\":4872:4895   */\n      mcopy\n        /* \"#utility.yul\":4929:4930   */\n      0x00\n        /* \"#utility.yul\":4920:4926   */\n      dup4\n        /* \"#utility.yul\":4915:4918   */\n      dup4\n        /* \"#utility.yul\":4911:4927   */\n      add\n        /* \"#utility.yul\":4904:4931   */\n      mstore\n        /* \"#utility.yul\":4799:4938   */\n      pop\n      pop\n      pop\n      jump\t// out\n        /* \"#utility.yul\":4944:5321   */\n    tag_206:\n        /* \"#utility.yul\":5032:5035   */\n      0x00\n        /* \"#utility.yul\":5060:5099   */\n      tag_312\n        /* \"#utility.yul\":5093:5098   */\n      dup3\n        /* \"#utility.yul\":5060:5099   */\n      tag_203\n      jump\t// in\n    tag_312:\n        /* \"#utility.yul\":5115:5186   */\n      tag_313\n        /* \"#utility.yul\":5179:5185   */\n      dup2\n        /* \"#utility.yul\":5174:5177   */\n      dup6\n        /* \"#utility.yul\":5115:5186   */\n      tag_204\n      jump\t// in\n    tag_313:\n        /* \"#utility.yul\":5108:5186   */\n      swap4\n      pop\n        /* \"#utility.yul\":5195:5260   */\n      tag_314\n        /* \"#utility.yul\":5253:5259   */\n      dup2\n        /* \"#utility.yul\":5248:5251   */\n      dup6\n        /* \"#utility.yul\":5241:5245   */\n      0x20\n        /* \"#utility.yul\":5234:5239   */\n      dup7\n        /* \"#utility.yul\":5230:5246   */\n      add\n        /* \"#utility.yul\":5195:5260   */\n      tag_205\n      jump\t// in\n    tag_314:\n        /* \"#utility.yul\":5285:5314   */\n      tag_315\n        /* \"#utility.yul\":5307:5313   */\n      dup2\n        /* \"#utility.yul\":5285:5314   */\n      tag_193\n      jump\t// in\n    tag_315:\n        /* \"#utility.yul\":5280:5283   */\n      dup5\n        /* \"#utility.yul\":5276:5315   */\n      add\n        /* \"#utility.yul\":5269:5315   */\n      swap2\n      pop\n        /* \"#utility.yul\":5036:5321   */\n      pop\n        /* \"#utility.yul\":4944:5321   */\n      swap3\n      swap2\n      pop\n      pop\n      jump\t// out\n        /* \"#utility.yul\":5327:5507   */\n    tag_67:\n        /* \"#utility.yul\":5375:5452   */\n      0x4e487b7100000000000000000000000000000000000000000000000000000000\n        /* \"#utility.yul\":5372:5373   */\n      0x00\n        /* \"#utility.yul\":5365:5453   */\n      mstore\n        /* \"#utility.yul\":5472:5476   */\n      0x21\n        /* \"#utility.yul\":5469:5470   */\n      0x04\n        /* \"#utility.yul\":5462:5477   */\n      mstore\n        /* \"#utility.yul\":5496:5500   */\n      0x24\n        /* \"#utility.yul\":5493:5494   */\n      0x00\n        /* \"#utility.yul\":5486:5501   */\n      revert\n        /* \"#utility.yul\":5513:5626   */\n    tag_207:\n        /* \"#utility.yul\":5594:5595   */\n      0x04\n        /* \"#utility.yul\":5587:5592   */\n      dup2\n        /* \"#utility.yul\":5584:5596   */\n      lt\n        /* \"#utility.yul\":5574:5620   */\n      tag_318\n      jumpi\n        /* \"#utility.yul\":5600:5618   */\n      tag_319\n      tag_67\n      jump\t// in\n    tag_319:\n        /* \"#utility.yul\":5574:5620   */\n    tag_318:\n        /* \"#utility.yul\":5513:5626   */\n      pop\n      jump\t// out\n        /* \"#utility.yul\":5632:5759   */\n    tag_208:\n        /* \"#utility.yul\":5677:5684   */\n      0x00\n        /* \"#utility.yul\":5706:5711   */\n      dup2\n        /* \"#utility.yul\":5695:5711   */\n      swap1\n      pop\n        /* \"#utility.yul\":5712:5753   */\n      tag_321\n        /* \"#utility.yul\":5747:5752   */\n      dup3\n        /* \"#utility.yul\":5712:5753   */\n      tag_207\n      jump\t// in\n    tag_321:\n        /* \"#utility.yul\":5632:5759   */\n      swap2\n      swap1\n      pop\n      jump\t// out\n        /* \"#utility.yul\":5765:5892   */\n    tag_209:\n        /* \"#utility.yul\":5821:5830   */\n      0x00\n        /* \"#utility.yul\":5854:5886   */\n      tag_323\n        /* \"#utility.yul\":5880:5885   */\n      dup3\n        /* \"#utility.yul\":5854:5886   */\n      tag_208\n      jump\t// in\n    tag_323:\n        /* \"#utility.yul\":5841:5886   */\n      swap1\n      pop\n        /* \"#utility.yul\":5765:5892   */\n      swap2\n      swap1\n      pop\n      jump\t// out\n        /* \"#utility.yul\":5898:6041   */\n    tag_210:\n        /* \"#utility.yul\":5991:6034   */\n      tag_325\n        /* \"#utility.yul\":6028:6033   */\n      dup2\n        /* \"#utility.yul\":5991:6034   */\n      tag_209\n      jump\t// in\n    tag_325:\n        /* \"#utility.yul\":5986:5989   */\n      dup3\n        /* \"#utility.yul\":5979:6035   */\n      mstore\n        /* \"#utility.yul\":5898:6041   */\n      pop\n      pop\n      jump\t// out\n        /* \"#utility.yul\":6047:6683   */\n    tag_26:\n        /* \"#utility.yul\":6242:6246   */\n      0x00\n        /* \"#utility.yul\":6280:6282   */\n      0x60\n        /* \"#utility.yul\":6269:6278   */\n      dup3\n        /* \"#utility.yul\":6265:6283   */\n      add\n        /* \"#utility.yul\":6257:6283   */\n      swap1\n      pop\n        /* \"#utility.yul\":6329:6338   */\n      dup2\n        /* \"#utility.yul\":6323:6327   */\n      dup2\n        /* \"#utility.yul\":6319:6339   */\n      sub\n        /* \"#utility.yul\":6315:6316   */\n      0x00\n        /* \"#utility.yul\":6304:6313   */\n      dup4\n        /* \"#utility.yul\":6300:6317   */\n      add\n        /* \"#utility.yul\":6293:6340   */\n      mstore\n        /* \"#utility.yul\":6357:6435   */\n      tag_327\n        /* \"#utility.yul\":6430:6434   */\n      dup2\n        /* \"#utility.yul\":6421:6427   */\n      dup7\n        /* \"#utility.yul\":6357:6435   */\n      tag_206\n      jump\t// in\n    tag_327:\n        /* \"#utility.yul\":6349:6435   */\n      swap1\n      pop\n        /* \"#utility.yul\":6482:6491   */\n      dup2\n        /* \"#utility.yul\":6476:6480   */\n      dup2\n        /* \"#utility.yul\":6472:6492   */\n      sub\n        /* \"#utility.yul\":6467:6469   */\n      0x20\n        /* \"#utility.yul\":6456:6465   */\n      dup4\n        /* \"#utility.yul\":6452:6470   */\n      add\n        /* \"#utility.yul\":6445:6493   */\n      mstore\n        /* \"#utility.yul\":6510:6588   */\n      tag_328\n        /* \"#utility.yul\":6583:6587   */\n      dup2\n        /* \"#utility.yul\":6574:6580   */\n      dup6\n        /* \"#utility.yul\":6510:6588   */\n      tag_206\n      jump\t// in\n    tag_328:\n        /* \"#utility.yul\":6502:6588   */\n      swap1\n      pop\n        /* \"#utility.yul\":6598:6676   */\n      tag_329\n        /* \"#utility.yul\":6672:6674   */\n      0x40\n        /* \"#utility.yul\":6661:6670   */\n      dup4\n        /* \"#utility.yul\":6657:6675   */\n      add\n        /* \"#utility.yul\":6648:6654   */\n      dup5\n        /* \"#utility.yul\":6598:6676   */\n      tag_210\n      jump\t// in\n    tag_329:\n        /* \"#utility.yul\":6047:6683   */\n      swap5\n      swap4\n      pop\n      pop\n      pop\n      pop\n      jump\t// out\n        /* \"#utility.yul\":6689:6815   */\n    tag_211:\n        /* \"#utility.yul\":6726:6733   */\n      0x00\n        /* \"#utility.yul\":6766:6808   */\n      0xffffffffffffffffffffffffffffffffffffffff\n        /* \"#utility.yul\":6759:6764   */\n      dup3\n        /* \"#utility.yul\":6755:6809   */\n      and\n        /* \"#utility.yul\":6744:6809   */\n      swap1\n      pop\n        /* \"#utility.yul\":6689:6815   */\n      swap2\n      swap1\n      pop\n      jump\t// out\n        /* \"#utility.yul\":6821:6917   */\n    tag_212:\n        /* \"#utility.yul\":6858:6865   */\n      0x00\n        /* \"#utility.yul\":6887:6911   */\n      tag_332\n        /* \"#utility.yul\":6905:6910   */\n      dup3\n        /* \"#utility.yul\":6887:6911   */\n      tag_211\n      jump\t// in\n    tag_332:\n        /* \"#utility.yul\":6876:6911   */\n      swap1\n      pop\n        /* \"#utility.yul\":6821:6917   */\n      swap2\n      swap1\n      pop\n      jump\t// out\n        /* \"#utility.yul\":6923:7041   */\n    tag_213:\n        /* \"#utility.yul\":7010:7034   */\n      tag_334\n        /* \"#utility.yul\":7028:7033   */\n      dup2\n        /* \"#utility.yul\":7010:7034   */\n      tag_212\n      jump\t// in\n    tag_334:\n        /* \"#utility.yul\":7005:7008   */\n      dup3\n        /* \"#utility.yul\":6998:7035   */\n      mstore\n        /* \"#utility.yul\":6923:7041   */\n      pop\n      pop\n      jump\t// out\n        /* \"#utility.yul\":7047:7269   */\n    tag_30:\n        /* \"#utility.yul\":7140:7144   */\n      0x00\n        /* \"#utility.yul\":7178:7180   */\n      0x20\n        /* \"#utility.yul\":7167:7176   */\n      dup3\n        /* \"#utility.yul\":7163:7181   */\n      add\n        /* \"#utility.yul\":7155:7181   */\n      swap1\n      pop\n        /* \"#utility.yul\":7191:7262   */\n      tag_336\n        /* \"#utility.yul\":7259:7260   */\n      0x00\n        /* \"#utility.yul\":7248:7257   */\n      dup4\n        /* \"#utility.yul\":7244:7261   */\n      add\n        /* \"#utility.yul\":7235:7241   */\n      dup5\n        /* \"#utility.yul\":7191:7262   */\n      tag_213\n      jump\t// in\n    tag_336:\n        /* \"#utility.yul\":7047:7269   */\n      swap3\n      swap2\n      pop\n      pop\n      jump\t// out\n        /* \"#utility.yul\":7275:7409   */\n    tag_214:\n        /* \"#utility.yul\":7362:7368   */\n      0x00\n        /* \"#utility.yul\":7396:7401   */\n      dup2\n        /* \"#utility.yul\":7390:7402   */\n      mload\n        /* \"#utility.yul\":7380:7402   */\n      swap1\n      pop\n        /* \"#utility.yul\":7275:7409   */\n      swap2\n      swap1\n      pop\n      jump\t// out\n        /* \"#utility.yul\":7415:7619   */\n    tag_215:\n        /* \"#utility.yul\":7534:7545   */\n      0x00\n        /* \"#utility.yul\":7568:7574   */\n      dup3\n        /* \"#utility.yul\":7563:7566   */\n      dup3\n        /* \"#utility.yul\":7556:7575   */\n      mstore\n        /* \"#utility.yul\":7608:7612   */\n      0x20\n        /* \"#utility.yul\":7603:7606   */\n      dup3\n        /* \"#utility.yul\":7599:7613   */\n      add\n        /* \"#utility.yul\":7584:7613   */\n      swap1\n      pop\n        /* \"#utility.yul\":7415:7619   */\n      swap3\n      swap2\n      pop\n      pop\n      jump\t// out\n        /* \"#utility.yul\":7625:7777   */\n    tag_216:\n        /* \"#utility.yul\":7712:7716   */\n      0x00\n        /* \"#utility.yul\":7735:7738   */\n      dup2\n        /* \"#utility.yul\":7727:7738   */\n      swap1\n      pop\n        /* \"#utility.yul\":7765:7769   */\n      0x20\n        /* \"#utility.yul\":7760:7763   */\n      dup3\n        /* \"#utility.yul\":7756:7770   */\n      add\n        /* \"#utility.yul\":7748:7770   */\n      swap1\n      pop\n        /* \"#utility.yul\":7625:7777   */\n      swap2\n      swap1\n      pop\n      jump\t// out\n        /* \"#utility.yul\":7783:7942   */\n    tag_217:\n        /* \"#utility.yul\":7857:7868   */\n      0x00\n        /* \"#utility.yul\":7891:7897   */\n      dup3\n        /* \"#utility.yul\":7886:7889   */\n      dup3\n        /* \"#utility.yul\":7879:7898   */\n      mstore\n        /* \"#utility.yul\":7931:7935   */\n      0x20\n        /* \"#utility.yul\":7926:7929   */\n      dup3\n        /* \"#utility.yul\":7922:7936   */\n      add\n        /* \"#utility.yul\":7907:7936   */\n      swap1\n      pop\n        /* \"#utility.yul\":7783:7942   */\n      swap3\n      swap2\n      pop\n      pop\n      jump\t// out\n        /* \"#utility.yul\":7948:8305   */\n    tag_218:\n        /* \"#utility.yul\":8026:8029   */\n      0x00\n        /* \"#utility.yul\":8054:8093   */\n      tag_342\n        /* \"#utility.yul\":8087:8092   */\n      dup3\n        /* \"#utility.yul\":8054:8093   */\n      tag_203\n      jump\t// in\n    tag_342:\n        /* \"#utility.yul\":8109:8170   */\n      tag_343\n        /* \"#utility.yul\":8163:8169   */\n      dup2\n        /* \"#utility.yul\":8158:8161   */\n      dup6\n        /* \"#utility.yul\":8109:8170   */\n      tag_217\n      jump\t// in\n    tag_343:\n        /* \"#utility.yul\":8102:8170   */\n      swap4\n      pop\n        /* \"#utility.yul\":8179:8244   */\n      tag_344\n        /* \"#utility.yul\":8237:8243   */\n      dup2\n        /* \"#utility.yul\":8232:8235   */\n      dup6\n        /* \"#utility.yul\":8225:8229   */\n      0x20\n        /* \"#utility.yul\":8218:8223   */\n      dup7\n        /* \"#utility.yul\":8214:8230   */\n      add\n        /* \"#utility.yul\":8179:8244   */\n      tag_205\n      jump\t// in\n    tag_344:\n        /* \"#utility.yul\":8269:8298   */\n      tag_345\n        /* \"#utility.yul\":8291:8297   */\n      dup2\n        /* \"#utility.yul\":8269:8298   */\n      tag_193\n      jump\t// in\n    tag_345:\n        /* \"#utility.yul\":8264:8267   */\n      dup5\n        /* \"#utility.yul\":8260:8299   */\n      add\n        /* \"#utility.yul\":8253:8299   */\n      swap2\n      pop\n        /* \"#utility.yul\":8030:8305   */\n      pop\n        /* \"#utility.yul\":7948:8305   */\n      swap3\n      swap2\n      pop\n      pop\n      jump\t// out\n        /* \"#utility.yul\":8311:8444   */\n    tag_219:\n        /* \"#utility.yul\":8394:8437   */\n      tag_347\n        /* \"#utility.yul\":8431:8436   */\n      dup2\n        /* \"#utility.yul\":8394:8437   */\n      tag_209\n      jump\t// in\n    tag_347:\n        /* \"#utility.yul\":8389:8392   */\n      dup3\n        /* \"#utility.yul\":8382:8438   */\n      mstore\n        /* \"#utility.yul\":8311:8444   */\n      pop\n      pop\n      jump\t// out\n        /* \"#utility.yul\":8502:9349   */\n    tag_220:\n        /* \"#utility.yul\":8601:8604   */\n      0x00\n        /* \"#utility.yul\":8637:8641   */\n      0x60\n        /* \"#utility.yul\":8632:8635   */\n      dup4\n        /* \"#utility.yul\":8628:8642   */\n      add\n        /* \"#utility.yul\":8725:8729   */\n      0x00\n        /* \"#utility.yul\":8718:8723   */\n      dup4\n        /* \"#utility.yul\":8714:8730   */\n      add\n        /* \"#utility.yul\":8708:8731   */\n      mload\n        /* \"#utility.yul\":8778:8781   */\n      dup5\n        /* \"#utility.yul\":8772:8776   */\n      dup3\n        /* \"#utility.yul\":8768:8782   */\n      sub\n        /* \"#utility.yul\":8761:8765   */\n      0x00\n        /* \"#utility.yul\":8756:8759   */\n      dup7\n        /* \"#utility.yul\":8752:8766   */\n      add\n        /* \"#utility.yul\":8745:8783   */\n      mstore\n        /* \"#utility.yul\":8804:8877   */\n      tag_349\n        /* \"#utility.yul\":8872:8876   */\n      dup3\n        /* \"#utility.yul\":8858:8870   */\n      dup3\n        /* \"#utility.yul\":8804:8877   */\n      tag_218\n      jump\t// in\n    tag_349:\n        /* \"#utility.yul\":8796:8877   */\n      swap2\n      pop\n        /* \"#utility.yul\":8652:8888   */\n      pop\n        /* \"#utility.yul\":8977:8981   */\n      0x20\n        /* \"#utility.yul\":8970:8975   */\n      dup4\n        /* \"#utility.yul\":8966:8982   */\n      add\n        /* \"#utility.yul\":8960:8983   */\n      mload\n        /* \"#utility.yul\":9030:9033   */\n      dup5\n        /* \"#utility.yul\":9024:9028   */\n      dup3\n        /* \"#utility.yul\":9020:9034   */\n      sub\n        /* \"#utility.yul\":9013:9017   */\n      0x20\n        /* \"#utility.yul\":9008:9011   */\n      dup7\n        /* \"#utility.yul\":9004:9018   */\n      add\n        /* \"#utility.yul\":8997:9035   */\n      mstore\n        /* \"#utility.yul\":9056:9129   */\n      tag_350\n        /* \"#utility.yul\":9124:9128   */\n      dup3\n        /* \"#utility.yul\":9110:9122   */\n      dup3\n        /* \"#utility.yul\":9056:9129   */\n      tag_218\n      jump\t// in\n    tag_350:\n        /* \"#utility.yul\":9048:9129   */\n      swap2\n      pop\n        /* \"#utility.yul\":8898:9140   */\n      pop\n        /* \"#utility.yul\":9224:9228   */\n      0x40\n        /* \"#utility.yul\":9217:9222   */\n      dup4\n        /* \"#utility.yul\":9213:9229   */\n      add\n        /* \"#utility.yul\":9207:9230   */\n      mload\n        /* \"#utility.yul\":9243:9312   */\n      tag_351\n        /* \"#utility.yul\":9306:9310   */\n      0x40\n        /* \"#utility.yul\":9301:9304   */\n      dup7\n        /* \"#utility.yul\":9297:9311   */\n      add\n        /* \"#utility.yul\":9283:9295   */\n      dup3\n        /* \"#utility.yul\":9243:9312   */\n      tag_219\n      jump\t// in\n    tag_351:\n        /* \"#utility.yul\":9150:9322   */\n      pop\n        /* \"#utility.yul\":9339:9343   */\n      dup1\n        /* \"#utility.yul\":9332:9343   */\n      swap2\n      pop\n        /* \"#utility.yul\":8606:9349   */\n      pop\n        /* \"#utility.yul\":8502:9349   */\n      swap3\n      swap2\n      pop\n      pop\n      jump\t// out\n        /* \"#utility.yul\":9355:9591   */\n    tag_221:\n        /* \"#utility.yul\":9464:9474   */\n      0x00\n        /* \"#utility.yul\":9499:9585   */\n      tag_353\n        /* \"#utility.yul\":9581:9584   */\n      dup4\n        /* \"#utility.yul\":9573:9579   */\n      dup4\n        /* \"#utility.yul\":9499:9585   */\n      tag_220\n      jump\t// in\n    tag_353:\n        /* \"#utility.yul\":9485:9585   */\n      swap1\n      pop\n        /* \"#utility.yul\":9355:9591   */\n      swap3\n      swap2\n      pop\n      pop\n      jump\t// out\n        /* \"#utility.yul\":9597:9730   */\n    tag_222:\n        /* \"#utility.yul\":9687:9691   */\n      0x00\n        /* \"#utility.yul\":9719:9723   */\n      0x20\n        /* \"#utility.yul\":9714:9717   */\n      dup3\n        /* \"#utility.yul\":9710:9724   */\n      add\n        /* \"#utility.yul\":9702:9724   */\n      swap1\n      pop\n        /* \"#utility.yul\":9597:9730   */\n      swap2\n      swap1\n      pop\n      jump\t// out\n        /* \"#utility.yul\":9792:10863   */\n    tag_223:\n        /* \"#utility.yul\":9951:9954   */\n      0x00\n        /* \"#utility.yul\":9980:10054   */\n      tag_356\n        /* \"#utility.yul\":10048:10053   */\n      dup3\n        /* \"#utility.yul\":9980:10054   */\n      tag_214\n      jump\t// in\n    tag_356:\n        /* \"#utility.yul\":10070:10176   */\n      tag_357\n        /* \"#utility.yul\":10169:10175   */\n      dup2\n        /* \"#utility.yul\":10164:10167   */\n      dup6\n        /* \"#utility.yul\":10070:10176   */\n      tag_215\n      jump\t// in\n    tag_357:\n        /* \"#utility.yul\":10063:10176   */\n      swap4\n      pop\n        /* \"#utility.yul\":10202:10205   */\n      dup4\n        /* \"#utility.yul\":10247:10251   */\n      0x20\n        /* \"#utility.yul\":10239:10245   */\n      dup3\n        /* \"#utility.yul\":10235:10252   */\n      mul\n        /* \"#utility.yul\":10230:10233   */\n      dup6\n        /* \"#utility.yul\":10226:10253   */\n      add\n        /* \"#utility.yul\":10277:10353   */\n      tag_358\n        /* \"#utility.yul\":10347:10352   */\n      dup6\n        /* \"#utility.yul\":10277:10353   */\n      tag_216\n      jump\t// in\n    tag_358:\n        /* \"#utility.yul\":10376:10383   */\n      dup1\n        /* \"#utility.yul\":10407:10408   */\n      0x00\n        /* \"#utility.yul\":10392:10818   */\n    tag_359:\n        /* \"#utility.yul\":10417:10423   */\n      dup6\n        /* \"#utility.yul\":10414:10415   */\n      dup2\n        /* \"#utility.yul\":10411:10424   */\n      lt\n        /* \"#utility.yul\":10392:10818   */\n      iszero\n      tag_361\n      jumpi\n        /* \"#utility.yul\":10488:10497   */\n      dup5\n        /* \"#utility.yul\":10482:10486   */\n      dup5\n        /* \"#utility.yul\":10478:10498   */\n      sub\n        /* \"#utility.yul\":10473:10476   */\n      dup10\n        /* \"#utility.yul\":10466:10499   */\n      mstore\n        /* \"#utility.yul\":10539:10545   */\n      dup2\n        /* \"#utility.yul\":10533:10546   */\n      mload\n        /* \"#utility.yul\":10567:10671   */\n      tag_362\n        /* \"#utility.yul\":10666:10670   */\n      dup6\n        /* \"#utility.yul\":10651:10664   */\n      dup3\n        /* \"#utility.yul\":10567:10671   */\n      tag_221\n      jump\t// in\n    tag_362:\n        /* \"#utility.yul\":10559:10671   */\n      swap5\n      pop\n        /* \"#utility.yul\":10694:10774   */\n      tag_363\n        /* \"#utility.yul\":10767:10773   */\n      dup4\n        /* \"#utility.yul\":10694:10774   */\n      tag_222\n      jump\t// in\n    tag_363:\n        /* \"#utility.yul\":10684:10774   */\n      swap3\n      pop\n        /* \"#utility.yul\":10803:10807   */\n      0x20\n        /* \"#utility.yul\":10798:10801   */\n      dup11\n        /* \"#utility.yul\":10794:10808   */\n      add\n        /* \"#utility.yul\":10787:10808   */\n      swap10\n      pop\n        /* \"#utility.yul\":10452:10818   */\n      pop\n        /* \"#utility.yul\":10439:10440   */\n      0x01\n        /* \"#utility.yul\":10436:10437   */\n      dup2\n        /* \"#utility.yul\":10432:10441   */\n      add\n        /* \"#utility.yul\":10427:10441   */\n      swap1\n      pop\n        /* \"#utility.yul\":10392:10818   */\n      jump(tag_359)\n    tag_361:\n        /* \"#utility.yul\":10396:10410   */\n      pop\n        /* \"#utility.yul\":10834:10838   */\n      dup3\n        /* \"#utility.yul\":10827:10838   */\n      swap8\n      pop\n        /* \"#utility.yul\":10854:10857   */\n      dup8\n        /* \"#utility.yul\":10847:10857   */\n      swap6\n      pop\n        /* \"#utility.yul\":9956:10863   */\n      pop\n      pop\n      pop\n      pop\n      pop\n        /* \"#utility.yul\":9792:10863   */\n      swap3\n      swap2\n      pop\n      pop\n      jump\t// out\n        /* \"#utility.yul\":10869:11322   */\n    tag_34:\n        /* \"#utility.yul\":11052:11056   */\n      0x00\n        /* \"#utility.yul\":11090:11092   */\n      0x20\n        /* \"#utility.yul\":11079:11088   */\n      dup3\n        /* \"#utility.yul\":11075:11093   */\n      add\n        /* \"#utility.yul\":11067:11093   */\n      swap1\n      pop\n        /* \"#utility.yul\":11139:11148   */\n      dup2\n        /* \"#utility.yul\":11133:11137   */\n      dup2\n        /* \"#utility.yul\":11129:11149   */\n      sub\n        /* \"#utility.yul\":11125:11126   */\n      0x00\n        /* \"#utility.yul\":11114:11123   */\n      dup4\n        /* \"#utility.yul\":11110:11127   */\n      add\n        /* \"#utility.yul\":11103:11150   */\n      mstore\n        /* \"#utility.yul\":11167:11315   */\n      tag_365\n        /* \"#utility.yul\":11310:11314   */\n      dup2\n        /* \"#utility.yul\":11301:11307   */\n      dup5\n        /* \"#utility.yul\":11167:11315   */\n      tag_223\n      jump\t// in\n    tag_365:\n        /* \"#utility.yul\":11159:11315   */\n      swap1\n      pop\n        /* \"#utility.yul\":10869:11322   */\n      swap3\n      swap2\n      pop\n      pop\n      jump\t// out\n        /* \"#utility.yul\":11328:11405   */\n    tag_224:\n        /* \"#utility.yul\":11365:11372   */\n      0x00\n        /* \"#utility.yul\":11394:11399   */\n      dup2\n        /* \"#utility.yul\":11383:11399   */\n      swap1\n      pop\n        /* \"#utility.yul\":11328:11405   */\n      swap2\n      swap1\n      pop\n      jump\t// out\n        /* \"#utility.yul\":11411:11533   */\n    tag_225:\n        /* \"#utility.yul\":11484:11508   */\n      tag_368\n        /* \"#utility.yul\":11502:11507   */\n      dup2\n        /* \"#utility.yul\":11484:11508   */\n      tag_224\n      jump\t// in\n    tag_368:\n        /* \"#utility.yul\":11477:11482   */\n      dup2\n        /* \"#utility.yul\":11474:11509   */\n      eq\n        /* \"#utility.yul\":11464:11527   */\n      tag_369\n      jumpi\n        /* \"#utility.yul\":11523:11524   */\n      0x00\n        /* \"#utility.yul\":11520:11521   */\n      dup1\n        /* \"#utility.yul\":11513:11525   */\n      revert\n        /* \"#utility.yul\":11464:11527   */\n    tag_369:\n        /* \"#utility.yul\":11411:11533   */\n      pop\n      jump\t// out\n        /* \"#utility.yul\":11539:11678   */\n    tag_226:\n        /* \"#utility.yul\":11585:11590   */\n      0x00\n        /* \"#utility.yul\":11623:11629   */\n      dup2\n        /* \"#utility.yul\":11610:11630   */\n      calldataload\n        /* \"#utility.yul\":11601:11630   */\n      swap1\n      pop\n        /* \"#utility.yul\":11639:11672   */\n      tag_371\n        /* \"#utility.yul\":11666:11671   */\n      dup2\n        /* \"#utility.yul\":11639:11672   */\n      tag_225\n      jump\t// in\n    tag_371:\n        /* \"#utility.yul\":11539:11678   */\n      swap3\n      swap2\n      pop\n      pop\n      jump\t// out\n        /* \"#utility.yul\":11684:12013   */\n    tag_41:\n        /* \"#utility.yul\":11743:11749   */\n      0x00\n        /* \"#utility.yul\":11792:11794   */\n      0x20\n        /* \"#utility.yul\":11780:11789   */\n      dup3\n        /* \"#utility.yul\":11771:11778   */\n      dup5\n        /* \"#utility.yul\":11767:11790   */\n      sub\n        /* \"#utility.yul\":11763:11795   */\n      slt\n        /* \"#utility.yul\":11760:11879   */\n      iszero\n      tag_373\n      jumpi\n        /* \"#utility.yul\":11798:11877   */\n      tag_374\n      tag_186\n      jump\t// in\n    tag_374:\n        /* \"#utility.yul\":11760:11879   */\n    tag_373:\n        /* \"#utility.yul\":11918:11919   */\n      0x00\n        /* \"#utility.yul\":11943:11996   */\n      tag_375\n        /* \"#utility.yul\":11988:11995   */\n      dup5\n        /* \"#utility.yul\":11979:11985   */\n      dup3\n        /* \"#utility.yul\":11968:11977   */\n      dup6\n        /* \"#utility.yul\":11964:11986   */\n      add\n        /* \"#utility.yul\":11943:11996   */\n      tag_226\n      jump\t// in\n    tag_375:\n        /* \"#utility.yul\":11933:11996   */\n      swap2\n      pop\n        /* \"#utility.yul\":11889:12006   */\n      pop\n        /* \"#utility.yul\":11684:12013   */\n      swap3\n      swap2\n      pop\n      pop\n      jump\t// out\n        /* \"#utility.yul\":12019:12105   */\n    tag_227:\n        /* \"#utility.yul\":12054:12061   */\n      0x00\n        /* \"#utility.yul\":12094:12098   */\n      0xff\n        /* \"#utility.yul\":12087:12092   */\n      dup3\n        /* \"#utility.yul\":12083:12099   */\n      and\n        /* \"#utility.yul\":12072:12099   */\n      swap1\n      pop\n        /* \"#utility.yul\":12019:12105   */\n      swap2\n      swap1\n      pop\n      jump\t// out\n        /* \"#utility.yul\":12111:12229   */\n    tag_228:\n        /* \"#utility.yul\":12182:12204   */\n      tag_378\n        /* \"#utility.yul\":12198:12203   */\n      dup2\n        /* \"#utility.yul\":12182:12204   */\n      tag_227\n      jump\t// in\n    tag_378:\n        /* \"#utility.yul\":12175:12180   */\n      dup2\n        /* \"#utility.yul\":12172:12205   */\n      eq\n        /* \"#utility.yul\":12162:12223   */\n      tag_379\n      jumpi\n        /* \"#utility.yul\":12219:12220   */\n      0x00\n        /* \"#utility.yul\":12216:12217   */\n      dup1\n        /* \"#utility.yul\":12209:12221   */\n      revert\n        /* \"#utility.yul\":12162:12223   */\n    tag_379:\n        /* \"#utility.yul\":12111:12229   */\n      pop\n      jump\t// out\n        /* \"#utility.yul\":12235:12370   */\n    tag_229:\n        /* \"#utility.yul\":12279:12284   */\n      0x00\n        /* \"#utility.yul\":12317:12323   */\n      dup2\n        /* \"#utility.yul\":12304:12324   */\n      calldataload\n        /* \"#utility.yul\":12295:12324   */\n      swap1\n      pop\n        /* \"#utility.yul\":12333:12364   */\n      tag_381\n        /* \"#utility.yul\":12358:12363   */\n      dup2\n        /* \"#utility.yul\":12333:12364   */\n      tag_228\n      jump\t// in\n    tag_381:\n        /* \"#utility.yul\":12235:12370   */\n      swap3\n      swap2\n      pop\n      pop\n      jump\t// out\n        /* \"#utility.yul\":12376:13351   */\n    tag_46:\n        /* \"#utility.yul\":12471:12477   */\n      0x00\n        /* \"#utility.yul\":12479:12485   */\n      dup1\n        /* \"#utility.yul\":12487:12493   */\n      0x00\n        /* \"#utility.yul\":12536:12538   */\n      0x60\n        /* \"#utility.yul\":12524:12533   */\n      dup5\n        /* \"#utility.yul\":12515:12522   */\n      dup7\n        /* \"#utility.yul\":12511:12534   */\n      sub\n        /* \"#utility.yul\":12507:12539   */\n      slt\n        /* \"#utility.yul\":12504:12623   */\n      iszero\n      tag_383\n      jumpi\n        /* \"#utility.yul\":12542:12621   */\n      tag_384\n      tag_186\n      jump\t// in\n    tag_384:\n        /* \"#utility.yul\":12504:12623   */\n    tag_383:\n        /* \"#utility.yul\":12662:12663   */\n      0x00\n        /* \"#utility.yul\":12687:12738   */\n      tag_385\n        /* \"#utility.yul\":12730:12737   */\n      dup7\n        /* \"#utility.yul\":12721:12727   */\n      dup3\n        /* \"#utility.yul\":12710:12719   */\n      dup8\n        /* \"#utility.yul\":12706:12728   */\n      add\n        /* \"#utility.yul\":12687:12738   */\n      tag_229\n      jump\t// in\n    tag_385:\n        /* \"#utility.yul\":12677:12738   */\n      swap4\n      pop\n        /* \"#utility.yul\":12633:12748   */\n      pop\n        /* \"#utility.yul\":12815:12817   */\n      0x20\n        /* \"#utility.yul\":12804:12813   */\n      dup5\n        /* \"#utility.yul\":12800:12818   */\n      add\n        /* \"#utility.yul\":12787:12819   */\n      calldataload\n        /* \"#utility.yul\":12846:12864   */\n      0xffffffffffffffff\n        /* \"#utility.yul\":12838:12844   */\n      dup2\n        /* \"#utility.yul\":12835:12865   */\n      gt\n        /* \"#utility.yul\":12832:12949   */\n      iszero\n      tag_386\n      jumpi\n        /* \"#utility.yul\":12868:12947   */\n      tag_387\n      tag_187\n      jump\t// in\n    tag_387:\n        /* \"#utility.yul\":12832:12949   */\n    tag_386:\n        /* \"#utility.yul\":12973:13036   */\n      tag_388\n        /* \"#utility.yul\":13028:13035   */\n      dup7\n        /* \"#utility.yul\":13019:13025   */\n      dup3\n        /* \"#utility.yul\":13008:13017   */\n      dup8\n        /* \"#utility.yul\":13004:13026   */\n      add\n        /* \"#utility.yul\":12973:13036   */\n      tag_200\n      jump\t// in\n    tag_388:\n        /* \"#utility.yul\":12963:13036   */\n      swap3\n      pop\n        /* \"#utility.yul\":12758:13046   */\n      pop\n        /* \"#utility.yul\":13113:13115   */\n      0x40\n        /* \"#utility.yul\":13102:13111   */\n      dup5\n        /* \"#utility.yul\":13098:13116   */\n      add\n        /* \"#utility.yul\":13085:13117   */\n      calldataload\n        /* \"#utility.yul\":13144:13162   */\n      0xffffffffffffffff\n        /* \"#utility.yul\":13136:13142   */\n      dup2\n        /* \"#utility.yul\":13133:13163   */\n      gt\n        /* \"#utility.yul\":13130:13247   */\n      iszero\n      tag_389\n      jumpi\n        /* \"#utility.yul\":13166:13245   */\n      tag_390\n      tag_187\n      jump\t// in\n    tag_390:\n        /* \"#utility.yul\":13130:13247   */\n    tag_389:\n        /* \"#utility.yul\":13271:13334   */\n      tag_391\n        /* \"#utility.yul\":13326:13333   */\n      dup7\n        /* \"#utility.yul\":13317:13323   */\n      dup3\n        /* \"#utility.yul\":13306:13315   */\n      dup8\n        /* \"#utility.yul\":13302:13324   */\n      add\n        /* \"#utility.yul\":13271:13334   */\n      tag_200\n      jump\t// in\n    tag_391:\n        /* \"#utility.yul\":13261:13334   */\n      swap2\n      pop\n        /* \"#utility.yul\":13056:13344   */\n      pop\n        /* \"#utility.yul\":12376:13351   */\n      swap3\n      pop\n      swap3\n      pop\n      swap3\n      jump\t// out\n        /* \"#utility.yul\":13357:13519   */\n    tag_230:\n        /* \"#utility.yul\":13497:13511   */\n      0x4f7574206f6620626f756e640000000000000000000000000000000000000000\n        /* \"#utility.yul\":13493:13494   */\n      0x00\n        /* \"#utility.yul\":13485:13491   */\n      dup3\n        /* \"#utility.yul\":13481:13495   */\n      add\n        /* \"#utility.yul\":13474:13512   */\n      mstore\n        /* \"#utility.yul\":13357:13519   */\n      pop\n      jump\t// out\n        /* \"#utility.yul\":13525:13891   */\n    tag_231:\n        /* \"#utility.yul\":13667:13670   */\n      0x00\n        /* \"#utility.yul\":13688:13755   */\n      tag_394\n        /* \"#utility.yul\":13752:13754   */\n      0x0c\n        /* \"#utility.yul\":13747:13750   */\n      dup4\n        /* \"#utility.yul\":13688:13755   */\n      tag_204\n      jump\t// in\n    tag_394:\n        /* \"#utility.yul\":13681:13755   */\n      swap2\n      pop\n        /* \"#utility.yul\":13764:13857   */\n      tag_395\n        /* \"#utility.yul\":13853:13856   */\n      dup3\n        /* \"#utility.yul\":13764:13857   */\n      tag_230\n      jump\t// in\n    tag_395:\n        /* \"#utility.yul\":13882:13884   */\n      0x20\n        /* \"#utility.yul\":13877:13880   */\n      dup3\n        /* \"#utility.yul\":13873:13885   */\n      add\n        /* \"#utility.yul\":13866:13885   */\n      swap1\n      pop\n        /* \"#utility.yul\":13525:13891   */\n      swap2\n      swap1\n      pop\n      jump\t// out\n        /* \"#utility.yul\":13897:14316   */\n    tag_52:\n        /* \"#utility.yul\":14063:14067   */\n      0x00\n        /* \"#utility.yul\":14101:14103   */\n      0x20\n        /* \"#utility.yul\":14090:14099   */\n      dup3\n        /* \"#utility.yul\":14086:14104   */\n      add\n        /* \"#utility.yul\":14078:14104   */\n      swap1\n      pop\n        /* \"#utility.yul\":14150:14159   */\n      dup2\n        /* \"#utility.yul\":14144:14148   */\n      dup2\n        /* \"#utility.yul\":14140:14160   */\n      sub\n        /* \"#utility.yul\":14136:14137   */\n      0x00\n        /* \"#utility.yul\":14125:14134   */\n      dup4\n        /* \"#utility.yul\":14121:14138   */\n      add\n        /* \"#utility.yul\":14114:14161   */\n      mstore\n        /* \"#utility.yul\":14178:14309   */\n      tag_397\n        /* \"#utility.yul\":14304:14308   */\n      dup2\n        /* \"#utility.yul\":14178:14309   */\n      tag_231\n      jump\t// in\n    tag_397:\n        /* \"#utility.yul\":14170:14309   */\n      swap1\n      pop\n        /* \"#utility.yul\":13897:14316   */\n      swap2\n      swap1\n      pop\n      jump\t// out\n        /* \"#utility.yul\":14322:14502   */\n    tag_232:\n        /* \"#utility.yul\":14370:14447   */\n      0x4e487b7100000000000000000000000000000000000000000000000000000000\n        /* \"#utility.yul\":14367:14368   */\n      0x00\n        /* \"#utility.yul\":14360:14448   */\n      mstore\n        /* \"#utility.yul\":14467:14471   */\n      0x11\n        /* \"#utility.yul\":14464:14465   */\n      0x04\n        /* \"#utility.yul\":14457:14472   */\n      mstore\n        /* \"#utility.yul\":14491:14495   */\n      0x24\n        /* \"#utility.yul\":14488:14489   */\n      0x00\n        /* \"#utility.yul\":14481:14496   */\n      revert\n        /* \"#utility.yul\":14508:14702   */\n    tag_54:\n        /* \"#utility.yul\":14548:14552   */\n      0x00\n        /* \"#utility.yul\":14568:14588   */\n      tag_400\n        /* \"#utility.yul\":14586:14587   */\n      dup3\n        /* \"#utility.yul\":14568:14588   */\n      tag_224\n      jump\t// in\n    tag_400:\n        /* \"#utility.yul\":14563:14588   */\n      swap2\n      pop\n        /* \"#utility.yul\":14602:14622   */\n      tag_401\n        /* \"#utility.yul\":14620:14621   */\n      dup4\n        /* \"#utility.yul\":14602:14622   */\n      tag_224\n      jump\t// in\n    tag_401:\n        /* \"#utility.yul\":14597:14622   */\n      swap3\n      pop\n        /* \"#utility.yul\":14646:14647   */\n      dup3\n        /* \"#utility.yul\":14643:14644   */\n      dup3\n        /* \"#utility.yul\":14639:14648   */\n      sub\n        /* \"#utility.yul\":14631:14648   */\n      swap1\n      pop\n        /* \"#utility.yul\":14670:14671   */\n      dup2\n        /* \"#utility.yul\":14664:14668   */\n      dup2\n        /* \"#utility.yul\":14661:14672   */\n      gt\n        /* \"#utility.yul\":14658:14695   */\n      iszero\n      tag_402\n      jumpi\n        /* \"#utility.yul\":14675:14693   */\n      tag_403\n      tag_232\n      jump\t// in\n    tag_403:\n        /* \"#utility.yul\":14658:14695   */\n    tag_402:\n        /* \"#utility.yul\":14508:14702   */\n      swap3\n      swap2\n      pop\n      pop\n      jump\t// out\n        /* \"#utility.yul\":14708:14888   */\n    tag_57:\n        /* \"#utility.yul\":14756:14833   */\n      0x4e487b7100000000000000000000000000000000000000000000000000000000\n        /* \"#utility.yul\":14753:14754   */\n      0x00\n        /* \"#utility.yul\":14746:14834   */\n      mstore\n        /* \"#utility.yul\":14853:14857   */\n      0x32\n        /* \"#utility.yul\":14850:14851   */\n      0x04\n        /* \"#utility.yul\":14843:14858   */\n      mstore\n        /* \"#utility.yul\":14877:14881   */\n      0x24\n        /* \"#utility.yul\":14874:14875   */\n      0x00\n        /* \"#utility.yul\":14867:14882   */\n      revert\n        /* \"#utility.yul\":14894:15074   */\n    tag_233:\n        /* \"#utility.yul\":14942:15019   */\n      0x4e487b7100000000000000000000000000000000000000000000000000000000\n        /* \"#utility.yul\":14939:14940   */\n      0x00\n        /* \"#utility.yul\":14932:15020   */\n      mstore\n        /* \"#utility.yul\":15039:15043   */\n      0x22\n        /* \"#utility.yul\":15036:15037   */\n      0x04\n        /* \"#utility.yul\":15029:15044   */\n      mstore\n        /* \"#utility.yul\":15063:15067   */\n      0x24\n        /* \"#utility.yul\":15060:15061   */\n      0x00\n        /* \"#utility.yul\":15053:15068   */\n      revert\n        /* \"#utility.yul\":15080:15400   */\n    tag_105:\n        /* \"#utility.yul\":15124:15130   */\n      0x00\n        /* \"#utility.yul\":15161:15162   */\n      0x02\n        /* \"#utility.yul\":15155:15159   */\n      dup3\n        /* \"#utility.yul\":15151:15163   */\n      div\n        /* \"#utility.yul\":15141:15163   */\n      swap1\n      pop\n        /* \"#utility.yul\":15208:15209   */\n      0x01\n        /* \"#utility.yul\":15202:15206   */\n      dup3\n        /* \"#utility.yul\":15198:15210   */\n      and\n        /* \"#utility.yul\":15229:15247   */\n      dup1\n        /* \"#utility.yul\":15219:15300   */\n      tag_407\n      jumpi\n        /* \"#utility.yul\":15285:15289   */\n      0x7f\n        /* \"#utility.yul\":15277:15283   */\n      dup3\n        /* \"#utility.yul\":15273:15290   */\n      and\n        /* \"#utility.yul\":15263:15290   */\n      swap2\n      pop\n        /* \"#utility.yul\":15219:15300   */\n    tag_407:\n        /* \"#utility.yul\":15347:15349   */\n      0x20\n        /* \"#utility.yul\":15339:15345   */\n      dup3\n        /* \"#utility.yul\":15336:15350   */\n      lt\n        /* \"#utility.yul\":15316:15334   */\n      dup2\n        /* \"#utility.yul\":15313:15351   */\n      sub\n        /* \"#utility.yul\":15310:15394   */\n      tag_408\n      jumpi\n        /* \"#utility.yul\":15366:15384   */\n      tag_409\n      tag_233\n      jump\t// in\n    tag_409:\n        /* \"#utility.yul\":15310:15394   */\n    tag_408:\n        /* \"#utility.yul\":15131:15400   */\n      pop\n        /* \"#utility.yul\":15080:15400   */\n      swap2\n      swap1\n      pop\n      jump\t// out\n        /* \"#utility.yul\":15406:15555   */\n    tag_234:\n        /* \"#utility.yul\":15455:15461   */\n      0x00\n        /* \"#utility.yul\":15489:15494   */\n      dup2\n        /* \"#utility.yul\":15483:15495   */\n      sload\n        /* \"#utility.yul\":15473:15495   */\n      swap1\n      pop\n        /* \"#utility.yul\":15515:15548   */\n      tag_411\n        /* \"#utility.yul\":15541:15547   */\n      dup2\n        /* \"#utility.yul\":15515:15548   */\n      tag_105\n      jump\t// in\n    tag_411:\n        /* \"#utility.yul\":15505:15548   */\n      swap1\n      pop\n        /* \"#utility.yul\":15406:15555   */\n      swap2\n      swap1\n      pop\n      jump\t// out\n        /* \"#utility.yul\":15561:15702   */\n    tag_235:\n        /* \"#utility.yul\":15610:15614   */\n      0x00\n        /* \"#utility.yul\":15633:15636   */\n      dup2\n        /* \"#utility.yul\":15625:15636   */\n      swap1\n      pop\n        /* \"#utility.yul\":15656:15659   */\n      dup2\n        /* \"#utility.yul\":15653:15654   */\n      0x00\n        /* \"#utility.yul\":15646:15660   */\n      mstore\n        /* \"#utility.yul\":15690:15694   */\n      0x20\n        /* \"#utility.yul\":15687:15688   */\n      0x00\n        /* \"#utility.yul\":15677:15695   */\n      keccak256\n        /* \"#utility.yul\":15669:15695   */\n      swap1\n      pop\n        /* \"#utility.yul\":15561:15702   */\n      swap2\n      swap1\n      pop\n      jump\t// out\n        /* \"#utility.yul\":15708:15801   */\n    tag_236:\n        /* \"#utility.yul\":15745:15751   */\n      0x00\n        /* \"#utility.yul\":15792:15794   */\n      0x20\n        /* \"#utility.yul\":15787:15789   */\n      0x1f\n        /* \"#utility.yul\":15780:15785   */\n      dup4\n        /* \"#utility.yul\":15776:15790   */\n      add\n        /* \"#utility.yul\":15772:15795   */\n      div\n        /* \"#utility.yul\":15762:15795   */\n      swap1\n      pop\n        /* \"#utility.yul\":15708:15801   */\n      swap2\n      swap1\n      pop\n      jump\t// out\n        /* \"#utility.yul\":15807:15914   */\n    tag_237:\n        /* \"#utility.yul\":15851:15859   */\n      0x00\n        /* \"#utility.yul\":15901:15906   */\n      dup3\n        /* \"#utility.yul\":15895:15899   */\n      dup3\n        /* \"#utility.yul\":15891:15907   */\n      shl\n        /* \"#utility.yul\":15870:15907   */\n      swap1\n      pop\n        /* \"#utility.yul\":15807:15914   */\n      swap3\n      swap2\n      pop\n      pop\n      jump\t// out\n        /* \"#utility.yul\":15920:16313   */\n    tag_238:\n        /* \"#utility.yul\":15989:15995   */\n      0x00\n        /* \"#utility.yul\":16039:16040   */\n      0x08\n        /* \"#utility.yul\":16027:16037   */\n      dup4\n        /* \"#utility.yul\":16023:16041   */\n      mul\n        /* \"#utility.yul\":16062:16159   */\n      tag_416\n        /* \"#utility.yul\":16092:16158   */\n      0xffffffffffffffffffffffffffffffffffffffffffffffffffffffffffffffff\n        /* \"#utility.yul\":16081:16090   */\n      dup3\n        /* \"#utility.yul\":16062:16159   */\n      tag_237\n      jump\t// in\n    tag_416:\n        /* \"#utility.yul\":16180:16219   */\n      tag_417\n        /* \"#utility.yul\":16210:16218   */\n      dup7\n        /* \"#utility.yul\":16199:16208   */\n      dup4\n        /* \"#utility.yul\":16180:16219   */\n      tag_237\n      jump\t// in\n    tag_417:\n        /* \"#utility.yul\":16168:16219   */\n      swap6\n      pop\n        /* \"#utility.yul\":16252:16256   */\n      dup1\n        /* \"#utility.yul\":16248:16257   */\n      not\n        /* \"#utility.yul\":16241:16246   */\n      dup5\n        /* \"#utility.yul\":16237:16258   */\n      and\n        /* \"#utility.yul\":16228:16258   */\n      swap4\n      pop\n        /* \"#utility.yul\":16301:16305   */\n      dup1\n        /* \"#utility.yul\":16291:16299   */\n      dup7\n        /* \"#utility.yul\":16287:16306   */\n      and\n        /* \"#utility.yul\":16280:16285   */\n      dup5\n        /* \"#utility.yul\":16277:16307   */\n      or\n        /* \"#utility.yul\":16267:16307   */\n      swap3\n      pop\n        /* \"#utility.yul\":15996:16313   */\n      pop\n      pop\n        /* \"#utility.yul\":15920:16313   */\n      swap4\n      swap3\n      pop\n      pop\n      pop\n      jump\t// out\n        /* \"#utility.yul\":16319:16379   */\n    tag_239:\n        /* \"#utility.yul\":16347:16350   */\n      0x00\n        /* \"#utility.yul\":16368:16373   */\n      dup2\n        /* \"#utility.yul\":16361:16373   */\n      swap1\n      pop\n        /* \"#utility.yul\":16319:16379   */\n      swap2\n      swap1\n      pop\n      jump\t// out\n        /* \"#utility.yul\":16385:16527   */\n    tag_240:\n        /* \"#utility.yul\":16435:16444   */\n      0x00\n        /* \"#utility.yul\":16468:16521   */\n      tag_420\n        /* \"#utility.yul\":16486:16520   */\n      tag_421\n        /* \"#utility.yul\":16495:16519   */\n      tag_422\n        /* \"#utility.yul\":16513:16518   */\n      dup5\n        /* \"#utility.yul\":16495:16519   */\n      tag_224\n      jump\t// in\n    tag_422:\n        /* \"#utility.yul\":16486:16520   */\n      tag_239\n      jump\t// in\n    tag_421:\n        /* \"#utility.yul\":16468:16521   */\n      tag_224\n      jump\t// in\n    tag_420:\n        /* \"#utility.yul\":16455:16521   */\n      swap1\n      pop\n        /* \"#utility.yul\":16385:16527   */\n      swap2\n      swap1\n      pop\n      jump\t// out\n        /* \"#utility.yul\":16533:16608   */\n    tag_241:\n        /* \"#utility.yul\":16576:16579   */\n      0x00\n        /* \"#utility.yul\":16597:16602   */\n      dup2\n        /* \"#utility.yul\":16590:16602   */\n      swap1\n      pop\n        /* \"#utility.yul\":16533:16608   */\n      swap2\n      swap1\n      pop\n      jump\t// out\n        /* \"#utility.yul\":16614:16883   */\n    tag_242:\n        /* \"#utility.yul\":16724:16763   */\n      tag_425\n        /* \"#utility.yul\":16755:16762   */\n      dup4\n        /* \"#utility.yul\":16724:16763   */\n      tag_240\n      jump\t// in\n    tag_425:\n        /* \"#utility.yul\":16785:16876   */\n      tag_426\n        /* \"#utility.yul\":16834:16875   */\n      tag_427\n        /* \"#utility.yul\":16858:16874   */\n      dup3\n        /* \"#utility.yul\":16834:16875   */\n      tag_241\n      jump\t// in\n    tag_427:\n        /* \"#utility.yul\":16826:16832   */\n      dup5\n        /* \"#utility.yul\":16819:16823   */\n      dup5\n        /* \"#utility.yul\":16813:16824   */\n      sload\n        /* \"#utility.yul\":16785:16876   */\n      tag_238\n      jump\t// in\n    tag_426:\n        /* \"#utility.yul\":16779:16783   */\n      dup3\n        /* \"#utility.yul\":16772:16877   */\n      sstore\n        /* \"#utility.yul\":16690:16883   */\n      pop\n        /* \"#utility.yul\":16614:16883   */\n      pop\n      pop\n      pop\n      jump\t// out\n        /* \"#utility.yul\":16889:16962   */\n    tag_243:\n        /* \"#utility.yul\":16934:16937   */\n      0x00\n        /* \"#utility.yul\":16889:16962   */\n      swap1\n      jump\t// out\n        /* \"#utility.yul\":16968:17157   */\n    tag_244:\n        /* \"#utility.yul\":17045:17077   */\n      tag_430\n      tag_243\n      jump\t// in\n    tag_430:\n        /* \"#utility.yul\":17086:17151   */\n      tag_431\n        /* \"#utility.yul\":17144:17150   */\n      dup2\n        /* \"#utility.yul\":17136:17142   */\n      dup5\n        /* \"#utility.yul\":17130:17134   */\n      dup5\n        /* \"#utility.yul\":17086:17151   */\n      tag_242\n      jump\t// in\n    tag_431:\n        /* \"#utility.yul\":17021:17157   */\n      pop\n        /* \"#utility.yul\":16968:17157   */\n      pop\n      pop\n      jump\t// out\n        /* \"#utility.yul\":17163:17349   */\n    tag_245:\n        /* \"#utility.yul\":17223:17343   */\n    tag_433:\n        /* \"#utility.yul\":17240:17243   */\n      dup2\n        /* \"#utility.yul\":17233:17238   */\n      dup2\n        /* \"#utility.yul\":17230:17244   */\n      lt\n        /* \"#utility.yul\":17223:17343   */\n      iszero\n      tag_435\n      jumpi\n        /* \"#utility.yul\":17294:17333   */\n      tag_436\n        /* \"#utility.yul\":17331:17332   */\n      0x00\n        /* \"#utility.yul\":17324:17329   */\n      dup3\n        /* \"#utility.yul\":17294:17333   */\n      tag_244\n      jump\t// in\n    tag_436:\n        /* \"#utility.yul\":17267:17268   */\n      0x01\n        /* \"#utility.yul\":17260:17265   */\n      dup2\n        /* \"#utility.yul\":17256:17269   */\n      add\n        /* \"#utility.yul\":17247:17269   */\n      swap1\n      pop\n        /* \"#utility.yul\":17223:17343   */\n      jump(tag_433)\n    tag_435:\n        /* \"#utility.yul\":17163:17349   */\n      pop\n      pop\n      jump\t// out\n        /* \"#utility.yul\":17355:17898   */\n    tag_246:\n        /* \"#utility.yul\":17456:17458   */\n      0x1f\n        /* \"#utility.yul\":17451:17454   */\n      dup3\n        /* \"#utility.yul\":17448:17459   */\n      gt\n        /* \"#utility.yul\":17445:17891   */\n      iszero\n      tag_438\n      jumpi\n        /* \"#utility.yul\":17490:17528   */\n      tag_439\n        /* \"#utility.yul\":17522:17527   */\n      dup2\n        /* \"#utility.yul\":17490:17528   */\n      tag_235\n      jump\t// in\n    tag_439:\n        /* \"#utility.yul\":17574:17603   */\n      tag_440\n        /* \"#utility.yul\":17592:17602   */\n      dup5\n        /* \"#utility.yul\":17574:17603   */\n      tag_236\n      jump\t// in\n    tag_440:\n        /* \"#utility.yul\":17564:17572   */\n      dup2\n        /* \"#utility.yul\":17560:17604   */\n      add\n        /* \"#utility.yul\":17757:17759   */\n      0x20\n        /* \"#utility.yul\":17745:17755   */\n      dup6\n        /* \"#utility.yul\":17742:17760   */\n      lt\n        /* \"#utility.yul\":17739:17788   */\n      iszero\n      tag_441\n      jumpi\n        /* \"#utility.yul\":17778:17786   */\n      dup2\n        /* \"#utility.yul\":17763:17786   */\n      swap1\n      pop\n        /* \"#utility.yul\":17739:17788   */\n    tag_441:\n        /* \"#utility.yul\":17801:17881   */\n      tag_442\n        /* \"#utility.yul\":17857:17879   */\n      tag_443\n        /* \"#utility.yul\":17875:17878   */\n      dup6\n        /* \"#utility.yul\":17857:17879   */\n      tag_236\n      jump\t// in\n    tag_443:\n        /* \"#utility.yul\":17847:17855   */\n      dup4\n        /* \"#utility.yul\":17843:17880   */\n      add\n        /* \"#utility.yul\":17830:17841   */\n      dup3\n        /* \"#utility.yul\":17801:17881   */\n      tag_245\n      jump\t// in\n    tag_442:\n        /* \"#utility.yul\":17460:17891   */\n      pop\n      pop\n        /* \"#utility.yul\":17445:17891   */\n    tag_438:\n        /* \"#utility.yul\":17355:17898   */\n      pop\n      pop\n      pop\n      jump\t// out\n        /* \"#utility.yul\":17904:18021   */\n    tag_247:\n        /* \"#utility.yul\":17958:17966   */\n      0x00\n        /* \"#utility.yul\":18008:18013   */\n      dup3\n        /* \"#utility.yul\":18002:18006   */\n      dup3\n        /* \"#utility.yul\":17998:18014   */\n      shr\n        /* \"#utility.yul\":17977:18014   */\n      swap1\n      pop\n        /* \"#utility.yul\":17904:18021   */\n      swap3\n      swap2\n      pop\n      pop\n      jump\t// out\n        /* \"#utility.yul\":18027:18196   */\n    tag_248:\n        /* \"#utility.yul\":18071:18077   */\n      0x00\n        /* \"#utility.yul\":18104:18155   */\n      tag_446\n        /* \"#utility.yul\":18152:18153   */\n      0x00\n        /* \"#utility.yul\":18148:18154   */\n      not\n        /* \"#utility.yul\":18140:18145   */\n      dup5\n        /* \"#utility.yul\":18137:18138   */\n      0x08\n        /* \"#utility.yul\":18133:18146   */\n      mul\n        /* \"#utility.yul\":18104:18155   */\n      tag_247\n      jump\t// in\n    tag_446:\n        /* \"#utility.yul\":18100:18156   */\n      not\n        /* \"#utility.yul\":18185:18189   */\n      dup1\n        /* \"#utility.yul\":18179:18183   */\n      dup4\n        /* \"#utility.yul\":18175:18190   */\n      and\n        /* \"#utility.yul\":18165:18190   */\n      swap2\n      pop\n        /* \"#utility.yul\":18078:18196   */\n      pop\n        /* \"#utility.yul\":18027:18196   */\n      swap3\n      swap2\n      pop\n      pop\n      jump\t// out\n        /* \"#utility.yul\":18201:18496   */\n    tag_249:\n        /* \"#utility.yul\":18277:18281   */\n      0x00\n        /* \"#utility.yul\":18423:18452   */\n      tag_448\n        /* \"#utility.yul\":18448:18451   */\n      dup4\n        /* \"#utility.yul\":18442:18446   */\n      dup4\n        /* \"#utility.yul\":18423:18452   */\n      tag_248\n      jump\t// in\n    tag_448:\n        /* \"#utility.yul\":18415:18452   */\n      swap2\n      pop\n        /* \"#utility.yul\":18485:18488   */\n      dup3\n        /* \"#utility.yul\":18482:18483   */\n      0x02\n        /* \"#utility.yul\":18478:18489   */\n      mul\n        /* \"#utility.yul\":18472:18476   */\n      dup3\n        /* \"#utility.yul\":18469:18490   */\n      or\n        /* \"#utility.yul\":18461:18490   */\n      swap1\n      pop\n        /* \"#utility.yul\":18201:18496   */\n      swap3\n      swap2\n      pop\n      pop\n      jump\t// out\n        /* \"#utility.yul\":18501:19952   */\n    tag_63:\n        /* \"#utility.yul\":18612:18615   */\n      dup2\n        /* \"#utility.yul\":18606:18610   */\n      dup2\n        /* \"#utility.yul\":18603:18616   */\n      sub\n        /* \"#utility.yul\":18600:18626   */\n      tag_450\n      jumpi\n        /* \"#utility.yul\":18619:18624   */\n      pop\n      pop\n      jump(tag_449)\n        /* \"#utility.yul\":18600:18626   */\n    tag_450:\n        /* \"#utility.yul\":18650:18684   */\n      tag_451\n        /* \"#utility.yul\":18680:18683   */\n      dup3\n        /* \"#utility.yul\":18650:18684   */\n      tag_234\n      jump\t// in\n    tag_451:\n        /* \"#utility.yul\":18749:18767   */\n      0xffffffffffffffff\n        /* \"#utility.yul\":18741:18747   */\n      dup2\n        /* \"#utility.yul\":18738:18768   */\n      gt\n        /* \"#utility.yul\":18735:18791   */\n      iszero\n      tag_452\n      jumpi\n        /* \"#utility.yul\":18771:18789   */\n      tag_453\n      tag_194\n      jump\t// in\n    tag_453:\n        /* \"#utility.yul\":18735:18791   */\n    tag_452:\n        /* \"#utility.yul\":18815:18853   */\n      tag_454\n        /* \"#utility.yul\":18847:18851   */\n      dup3\n        /* \"#utility.yul\":18841:18852   */\n      sload\n        /* \"#utility.yul\":18815:18853   */\n      tag_105\n      jump\t// in\n    tag_454:\n        /* \"#utility.yul\":18900:18967   */\n      tag_455\n        /* \"#utility.yul\":18960:18966   */\n      dup3\n        /* \"#utility.yul\":18952:18958   */\n      dup3\n        /* \"#utility.yul\":18946:18950   */\n      dup6\n        /* \"#utility.yul\":18900:18967   */\n      tag_246\n      jump\t// in\n    tag_455:\n        /* \"#utility.yul\":18994:18995   */\n      0x00\n        /* \"#utility.yul\":19023:19025   */\n      0x1f\n        /* \"#utility.yul\":19015:19021   */\n      dup4\n        /* \"#utility.yul\":19012:19026   */\n      gt\n        /* \"#utility.yul\":19040:19041   */\n      0x01\n        /* \"#utility.yul\":19035:19707   */\n      dup2\n      eq\n      tag_457\n      jumpi\n        /* \"#utility.yul\":19751:19752   */\n      0x00\n        /* \"#utility.yul\":19768:19774   */\n      dup5\n        /* \"#utility.yul\":19765:19842   */\n      iszero\n      tag_458\n      jumpi\n        /* \"#utility.yul\":19817:19826   */\n      dup3\n        /* \"#utility.yul\":19812:19815   */\n      dup8\n        /* \"#utility.yul\":19808:19827   */\n      add\n        /* \"#utility.yul\":19802:19828   */\n      sload\n        /* \"#utility.yul\":19793:19828   */\n      swap1\n      pop\n        /* \"#utility.yul\":19765:19842   */\n    tag_458:\n        /* \"#utility.yul\":19868:19935   */\n      tag_459\n        /* \"#utility.yul\":19928:19934   */\n      dup6\n        /* \"#utility.yul\":19921:19926   */\n      dup3\n        /* \"#utility.yul\":19868:19935   */\n      tag_249\n      jump\t// in\n    tag_459:\n        /* \"#utility.yul\":19862:19866   */\n      dup7\n        /* \"#utility.yul\":19855:19936   */\n      sstore\n        /* \"#utility.yul\":19724:19946   */\n      pop\n        /* \"#utility.yul\":19005:19946   */\n      jump(tag_456)\n        /* \"#utility.yul\":19035:19707   */\n    tag_457:\n        /* \"#utility.yul\":19087:19091   */\n      0x1f\n        /* \"#utility.yul\":19083:19092   */\n      not\n        /* \"#utility.yul\":19075:19081   */\n      dup5\n        /* \"#utility.yul\":19071:19093   */\n      and\n        /* \"#utility.yul\":19113:19149   */\n      tag_460\n        /* \"#utility.yul\":19145:19148   */\n      dup8\n        /* \"#utility.yul\":19113:19149   */\n      tag_235\n      jump\t// in\n    tag_460:\n        /* \"#utility.yul\":19106:19149   */\n      swap7\n      pop\n        /* \"#utility.yul\":19176:19213   */\n      tag_461\n        /* \"#utility.yul\":19208:19212   */\n      dup7\n        /* \"#utility.yul\":19176:19213   */\n      tag_235\n      jump\t// in\n    tag_461:\n        /* \"#utility.yul\":19235:19236   */\n      0x00\n        /* \"#utility.yul\":19249:19456   */\n    tag_462:\n        /* \"#utility.yul\":19263:19270   */\n      dup3\n        /* \"#utility.yul\":19260:19261   */\n      dup2\n        /* \"#utility.yul\":19257:19271   */\n      lt\n        /* \"#utility.yul\":19249:19456   */\n      iszero\n      tag_464\n      jumpi\n        /* \"#utility.yul\":19342:19351   */\n      dup5\n        /* \"#utility.yul\":19337:19340   */\n      dup10\n        /* \"#utility.yul\":19333:19352   */\n      add\n        /* \"#utility.yul\":19327:19353   */\n      sload\n        /* \"#utility.yul\":19319:19325   */\n      dup3\n        /* \"#utility.yul\":19312:19354   */\n      sstore\n        /* \"#utility.yul\":19393:19394   */\n      0x01\n        /* \"#utility.yul\":19385:19391   */\n      dup3\n        /* \"#utility.yul\":19381:19395   */\n      add\n        /* \"#utility.yul\":19371:19395   */\n      swap2\n      pop\n        /* \"#utility.yul\":19440:19441   */\n      0x01\n        /* \"#utility.yul\":19429:19438   */\n      dup6\n        /* \"#utility.yul\":19425:19442   */\n      add\n        /* \"#utility.yul\":19412:19442   */\n      swap5\n      pop\n        /* \"#utility.yul\":19286:19290   */\n      0x20\n        /* \"#utility.yul\":19283:19284   */\n      dup2\n        /* \"#utility.yul\":19279:19291   */\n      add\n        /* \"#utility.yul\":19274:19291   */\n      swap1\n      pop\n        /* \"#utility.yul\":19249:19456   */\n      jump(tag_462)\n    tag_464:\n        /* \"#utility.yul\":19484:19490   */\n      dup7\n        /* \"#utility.yul\":19475:19482   */\n      dup4\n        /* \"#utility.yul\":19472:19491   */\n      lt\n        /* \"#utility.yul\":19469:19648   */\n      iszero\n      tag_465\n      jumpi\n        /* \"#utility.yul\":19542:19551   */\n      dup5\n        /* \"#utility.yul\":19537:19540   */\n      dup10\n        /* \"#utility.yul\":19533:19552   */\n      add\n        /* \"#utility.yul\":19527:19553   */\n      sload\n        /* \"#utility.yul\":19585:19633   */\n      tag_466\n        /* \"#utility.yul\":19627:19631   */\n      0x1f\n        /* \"#utility.yul\":19619:19625   */\n      dup10\n        /* \"#utility.yul\":19615:19632   */\n      and\n        /* \"#utility.yul\":19604:19613   */\n      dup3\n        /* \"#utility.yul\":19585:19633   */\n      tag_248\n      jump\t// in\n    tag_466:\n        /* \"#utility.yul\":19577:19583   */\n      dup4\n        /* \"#utility.yul\":19570:19634   */\n      sstore\n        /* \"#utility.yul\":19492:19648   */\n      pop\n        /* \"#utility.yul\":19469:19648   */\n    tag_465:\n        /* \"#utility.yul\":19694:19695   */\n      0x01\n        /* \"#utility.yul\":19690:19691   */\n      0x02\n        /* \"#utility.yul\":19682:19688   */\n      dup9\n        /* \"#utility.yul\":19678:19692   */\n      mul\n        /* \"#utility.yul\":19674:19696   */\n      add\n        /* \"#utility.yul\":19668:19672   */\n      dup9\n        /* \"#utility.yul\":19661:19697   */\n      sstore\n        /* \"#utility.yul\":19042:19707   */\n      pop\n      pop\n      pop\n        /* \"#utility.yul\":19005:19946   */\n    tag_456:\n      pop\n        /* \"#utility.yul\":18590:19952   */\n      pop\n      pop\n      pop\n        /* \"#utility.yul\":18501:19952   */\n      pop\n      pop\n    tag_449:\n      jump\t// out\n        /* \"#utility.yul\":19958:20138   */\n    tag_70:\n        /* \"#utility.yul\":20006:20083   */\n      0x4e487b7100000000000000000000000000000000000000000000000000000000\n        /* \"#utility.yul\":20003:20004   */\n      0x00\n        /* \"#utility.yul\":19996:20084   */\n      mstore\n        /* \"#utility.yul\":20103:20107   */\n      0x31\n        /* \"#utility.yul\":20100:20101   */\n      0x04\n        /* \"#utility.yul\":20093:20108   */\n      mstore\n        /* \"#utility.yul\":20127:20131   */\n      0x24\n        /* \"#utility.yul\":20124:20125   */\n      0x00\n        /* \"#utility.yul\":20117:20132   */\n      revert\n        /* \"#utility.yul\":20144:20312   */\n    tag_250:\n        /* \"#utility.yul\":20284:20304   */\n      0x596f75277265206e6f7420616c6c6f7765640000000000000000000000000000\n        /* \"#utility.yul\":20280:20281   */\n      0x00\n        /* \"#utility.yul\":20272:20278   */\n      dup3\n        /* \"#utility.yul\":20268:20282   */\n      add\n        /* \"#utility.yul\":20261:20305   */\n      mstore\n        /* \"#utility.yul\":20144:20312   */\n      pop\n      jump\t// out\n        /* \"#utility.yul\":20318:20684   */\n    tag_251:\n        /* \"#utility.yul\":20460:20463   */\n      0x00\n        /* \"#utility.yul\":20481:20548   */\n      tag_470\n        /* \"#utility.yul\":20545:20547   */\n      0x12\n        /* \"#utility.yul\":20540:20543   */\n      dup4\n        /* \"#utility.yul\":20481:20548   */\n      tag_204\n      jump\t// in\n    tag_470:\n        /* \"#utility.yul\":20474:20548   */\n      swap2\n      pop\n        /* \"#utility.yul\":20557:20650   */\n      tag_471\n        /* \"#utility.yul\":20646:20649   */\n      dup3\n        /* \"#utility.yul\":20557:20650   */\n      tag_250\n      jump\t// in\n    tag_471:\n        /* \"#utility.yul\":20675:20677   */\n      0x20\n        /* \"#utility.yul\":20670:20673   */\n      dup3\n        /* \"#utility.yul\":20666:20678   */\n      add\n        /* \"#utility.yul\":20659:20678   */\n      swap1\n      pop\n        /* \"#utility.yul\":20318:20684   */\n      swap2\n      swap1\n      pop\n      jump\t// out\n        /* \"#utility.yul\":20690:21109   */\n    tag_78:\n        /* \"#utility.yul\":20856:20860   */\n      0x00\n        /* \"#utility.yul\":20894:20896   */\n      0x20\n        /* \"#utility.yul\":20883:20892   */\n      dup3\n        /* \"#utility.yul\":20879:20897   */\n      add\n        /* \"#utility.yul\":20871:20897   */\n      swap1\n      pop\n        /* \"#utility.yul\":20943:20952   */\n      dup2\n        /* \"#utility.yul\":20937:20941   */\n      dup2\n        /* \"#utility.yul\":20933:20953   */\n      sub\n        /* \"#utility.yul\":20929:20930   */\n      0x00\n        /* \"#utility.yul\":20918:20927   */\n      dup4\n        /* \"#utility.yul\":20914:20931   */\n      add\n        /* \"#utility.yul\":20907:20954   */\n      mstore\n        /* \"#utility.yul\":20971:21102   */\n      tag_473\n        /* \"#utility.yul\":21097:21101   */\n      dup2\n        /* \"#utility.yul\":20971:21102   */\n      tag_251\n      jump\t// in\n    tag_473:\n        /* \"#utility.yul\":20963:21102   */\n      swap1\n      pop\n        /* \"#utility.yul\":20690:21109   */\n      swap2\n      swap1\n      pop\n      jump\t// out\n        /* \"#utility.yul\":21115:21289   */\n    tag_252:\n        /* \"#utility.yul\":21255:21281   */\n      0x5a65726f2041646472657373206e6f7420616c6c6f7765640000000000000000\n        /* \"#utility.yul\":21251:21252   */\n      0x00\n        /* \"#utility.yul\":21243:21249   */\n      dup3\n        /* \"#utility.yul\":21239:21253   */\n      add\n        /* \"#utility.yul\":21232:21282   */\n      mstore\n        /* \"#utility.yul\":21115:21289   */\n      pop\n      jump\t// out\n        /* \"#utility.yul\":21295:21661   */\n    tag_253:\n        /* \"#utility.yul\":21437:21440   */\n      0x00\n        /* \"#utility.yul\":21458:21525   */\n      tag_476\n        /* \"#utility.yul\":21522:21524   */\n      0x18\n        /* \"#utility.yul\":21517:21520   */\n      dup4\n        /* \"#utility.yul\":21458:21525   */\n      tag_204\n      jump\t// in\n    tag_476:\n        /* \"#utility.yul\":21451:21525   */\n      swap2\n      pop\n        /* \"#utility.yul\":21534:21627   */\n      tag_477\n        /* \"#utility.yul\":21623:21626   */\n      dup3\n        /* \"#utility.yul\":21534:21627   */\n      tag_252\n      jump\t// in\n    tag_477:\n        /* \"#utility.yul\":21652:21654   */\n      0x20\n        /* \"#utility.yul\":21647:21650   */\n      dup3\n        /* \"#utility.yul\":21643:21655   */\n      add\n        /* \"#utility.yul\":21636:21655   */\n      swap1\n      pop\n        /* \"#utility.yul\":21295:21661   */\n      swap2\n      swap1\n      pop\n      jump\t// out\n        /* \"#utility.yul\":21667:22086   */\n    tag_82:\n        /* \"#utility.yul\":21833:21837   */\n      0x00\n        /* \"#utility.yul\":21871:21873   */\n      0x20\n        /* \"#utility.yul\":21860:21869   */\n      dup3\n        /* \"#utility.yul\":21856:21874   */\n      add\n        /* \"#utility.yul\":21848:21874   */\n      swap1\n      pop\n        /* \"#utility.yul\":21920:21929   */\n      dup2\n        /* \"#utility.yul\":21914:21918   */\n      dup2\n        /* \"#utility.yul\":21910:21930   */\n      sub\n        /* \"#utility.yul\":21906:21907   */\n      0x00\n        /* \"#utility.yul\":21895:21904   */\n      dup4\n        /* \"#utility.yul\":21891:21908   */\n      add\n        /* \"#utility.yul\":21884:21931   */\n      mstore\n        /* \"#utility.yul\":21948:22079   */\n      tag_479\n        /* \"#utility.yul\":22074:22078   */\n      dup2\n        /* \"#utility.yul\":21948:22079   */\n      tag_253\n      jump\t// in\n    tag_479:\n        /* \"#utility.yul\":21940:22079   */\n      swap1\n      pop\n        /* \"#utility.yul\":21667:22086   */\n      swap2\n      swap1\n      pop\n      jump\t// out\n        /* \"#utility.yul\":22092:23487   */\n    tag_92:\n        /* \"#utility.yul\":22209:22246   */\n      tag_481\n        /* \"#utility.yul\":22242:22245   */\n      dup3\n        /* \"#utility.yul\":22209:22246   */\n      tag_203\n      jump\t// in\n    tag_481:\n        /* \"#utility.yul\":22311:22329   */\n      0xffffffffffffffff\n        /* \"#utility.yul\":22303:22309   */\n      dup2\n        /* \"#utility.yul\":22300:22330   */\n      gt\n        /* \"#utility.yul\":22297:22353   */\n      iszero\n      tag_482\n      jumpi\n        /* \"#utility.yul\":22333:22351   */\n      tag_483\n      tag_194\n      jump\t// in\n    tag_483:\n        /* \"#utility.yul\":22297:22353   */\n    tag_482:\n        /* \"#utility.yul\":22377:22415   */\n      tag_484\n        /* \"#utility.yul\":22409:22413   */\n      dup3\n        /* \"#utility.yul\":22403:22414   */\n      sload\n        /* \"#utility.yul\":22377:22415   */\n      tag_105\n      jump\t// in\n    tag_484:\n        /* \"#utility.yul\":22462:22529   */\n      tag_485\n        /* \"#utility.yul\":22522:22528   */\n      dup3\n        /* \"#utility.yul\":22514:22520   */\n      dup3\n        /* \"#utility.yul\":22508:22512   */\n      dup6\n        /* \"#utility.yul\":22462:22529   */\n      tag_246\n      jump\t// in\n    tag_485:\n        /* \"#utility.yul\":22556:22557   */\n      0x00\n        /* \"#utility.yul\":22580:22584   */\n      0x20\n        /* \"#utility.yul\":22567:22584   */\n      swap1\n      pop\n        /* \"#utility.yul\":22612:22614   */\n      0x1f\n        /* \"#utility.yul\":22604:22610   */\n      dup4\n        /* \"#utility.yul\":22601:22615   */\n      gt\n        /* \"#utility.yul\":22629:22630   */\n      0x01\n        /* \"#utility.yul\":22624:23242   */\n      dup2\n      eq\n      tag_487\n      jumpi\n        /* \"#utility.yul\":23286:23287   */\n      0x00\n        /* \"#utility.yul\":23303:23309   */\n      dup5\n        /* \"#utility.yul\":23300:23377   */\n      iszero\n      tag_488\n      jumpi\n        /* \"#utility.yul\":23352:23361   */\n      dup3\n        /* \"#utility.yul\":23347:23350   */\n      dup8\n        /* \"#utility.yul\":23343:23362   */\n      add\n        /* \"#utility.yul\":23337:23363   */\n      mload\n        /* \"#utility.yul\":23328:23363   */\n      swap1\n      pop\n        /* \"#utility.yul\":23300:23377   */\n    tag_488:\n        /* \"#utility.yul\":23403:23470   */\n      tag_489\n        /* \"#utility.yul\":23463:23469   */\n      dup6\n        /* \"#utility.yul\":23456:23461   */\n      dup3\n        /* \"#utility.yul\":23403:23470   */\n      tag_249\n      jump\t// in\n    tag_489:\n        /* \"#utility.yul\":23397:23401   */\n      dup7\n        /* \"#utility.yul\":23390:23471   */\n      sstore\n        /* \"#utility.yul\":23259:23481   */\n      pop\n        /* \"#utility.yul\":22594:23481   */\n      jump(tag_486)\n        /* \"#utility.yul\":22624:23242   */\n    tag_487:\n        /* \"#utility.yul\":22676:22680   */\n      0x1f\n        /* \"#utility.yul\":22672:22681   */\n      not\n        /* \"#utility.yul\":22664:22670   */\n      dup5\n        /* \"#utility.yul\":22660:22682   */\n      and\n        /* \"#utility.yul\":22710:22747   */\n      tag_490\n        /* \"#utility.yul\":22742:22746   */\n      dup7\n        /* \"#utility.yul\":22710:22747   */\n      tag_235\n      jump\t// in\n    tag_490:\n        /* \"#utility.yul\":22769:22770   */\n      0x00\n        /* \"#utility.yul\":22783:22991   */\n    tag_491:\n        /* \"#utility.yul\":22797:22804   */\n      dup3\n        /* \"#utility.yul\":22794:22795   */\n      dup2\n        /* \"#utility.yul\":22791:22805   */\n      lt\n        /* \"#utility.yul\":22783:22991   */\n      iszero\n      tag_493\n      jumpi\n        /* \"#utility.yul\":22876:22885   */\n      dup5\n        /* \"#utility.yul\":22871:22874   */\n      dup10\n        /* \"#utility.yul\":22867:22886   */\n      add\n        /* \"#utility.yul\":22861:22887   */\n      mload\n        /* \"#utility.yul\":22853:22859   */\n      dup3\n        /* \"#utility.yul\":22846:22888   */\n      sstore\n        /* \"#utility.yul\":22927:22928   */\n      0x01\n        /* \"#utility.yul\":22919:22925   */\n      dup3\n        /* \"#utility.yul\":22915:22929   */\n      add\n        /* \"#utility.yul\":22905:22929   */\n      swap2\n      pop\n        /* \"#utility.yul\":22974:22976   */\n      0x20\n        /* \"#utility.yul\":22963:22972   */\n      dup6\n        /* \"#utility.yul\":22959:22977   */\n      add\n        /* \"#utility.yul\":22946:22977   */\n      swap5\n      pop\n        /* \"#utility.yul\":22820:22824   */\n      0x20\n        /* \"#utility.yul\":22817:22818   */\n      dup2\n        /* \"#utility.yul\":22813:22825   */\n      add\n        /* \"#utility.yul\":22808:22825   */\n      swap1\n      pop\n        /* \"#utility.yul\":22783:22991   */\n      jump(tag_491)\n    tag_493:\n        /* \"#utility.yul\":23019:23025   */\n      dup7\n        /* \"#utility.yul\":23010:23017   */\n      dup4\n        /* \"#utility.yul\":23007:23026   */\n      lt\n        /* \"#utility.yul\":23004:23183   */\n      iszero\n      tag_494\n      jumpi\n        /* \"#utility.yul\":23077:23086   */\n      dup5\n        /* \"#utility.yul\":23072:23075   */\n      dup10\n        /* \"#utility.yul\":23068:23087   */\n      add\n        /* \"#utility.yul\":23062:23088   */\n      mload\n        /* \"#utility.yul\":23120:23168   */\n      tag_495\n        /* \"#utility.yul\":23162:23166   */\n      0x1f\n        /* \"#utility.yul\":23154:23160   */\n      dup10\n        /* \"#utility.yul\":23150:23167   */\n      and\n        /* \"#utility.yul\":23139:23148   */\n      dup3\n        /* \"#utility.yul\":23120:23168   */\n      tag_248\n      jump\t// in\n    tag_495:\n        /* \"#utility.yul\":23112:23118   */\n      dup4\n        /* \"#utility.yul\":23105:23169   */\n      sstore\n        /* \"#utility.yul\":23027:23183   */\n      pop\n        /* \"#utility.yul\":23004:23183   */\n    tag_494:\n        /* \"#utility.yul\":23229:23230   */\n      0x01\n        /* \"#utility.yul\":23225:23226   */\n      0x02\n        /* \"#utility.yul\":23217:23223   */\n      dup9\n        /* \"#utility.yul\":23213:23227   */\n      mul\n        /* \"#utility.yul\":23209:23231   */\n      add\n        /* \"#utility.yul\":23203:23207   */\n      dup9\n        /* \"#utility.yul\":23196:23232   */\n      sstore\n        /* \"#utility.yul\":22631:23242   */\n      pop\n      pop\n      pop\n        /* \"#utility.yul\":22594:23481   */\n    tag_486:\n      pop\n        /* \"#utility.yul\":22184:23487   */\n      pop\n      pop\n      pop\n        /* \"#utility.yul\":22092:23487   */\n      pop\n      pop\n      jump\t// out\n        /* \"#utility.yul\":23493:23928   */\n    tag_97:\n        /* \"#utility.yul\":23640:23644   */\n      0x00\n        /* \"#utility.yul\":23678:23680   */\n      0x40\n        /* \"#utility.yul\":23667:23676   */\n      dup3\n        /* \"#utility.yul\":23663:23681   */\n      add\n        /* \"#utility.yul\":23655:23681   */\n      swap1\n      pop\n        /* \"#utility.yul\":23727:23736   */\n      dup2\n        /* \"#utility.yul\":23721:23725   */\n      dup2\n        /* \"#utility.yul\":23717:23737   */\n      sub\n        /* \"#utility.yul\":23713:23714   */\n      0x00\n        /* \"#utility.yul\":23702:23711   */\n      dup4\n        /* \"#utility.yul\":23698:23715   */\n      add\n        /* \"#utility.yul\":23691:23738   */\n      mstore\n        /* \"#utility.yul\":23755:23833   */\n      tag_497\n        /* \"#utility.yul\":23828:23832   */\n      dup2\n        /* \"#utility.yul\":23819:23825   */\n      dup6\n        /* \"#utility.yul\":23755:23833   */\n      tag_206\n      jump\t// in\n    tag_497:\n        /* \"#utility.yul\":23747:23833   */\n      swap1\n      pop\n        /* \"#utility.yul\":23843:23921   */\n      tag_498\n        /* \"#utility.yul\":23917:23919   */\n      0x20\n        /* \"#utility.yul\":23906:23915   */\n      dup4\n        /* \"#utility.yul\":23902:23920   */\n      add\n        /* \"#utility.yul\":23893:23899   */\n      dup5\n        /* \"#utility.yul\":23843:23921   */\n      tag_210\n      jump\t// in\n    tag_498:\n        /* \"#utility.yul\":23493:23928   */\n      swap4\n      swap3\n      pop\n      pop\n      pop\n      jump\t// out\n\n    auxdata: 0xa2646970667358221220ceaa110b56206f7ac527c4ff30ce7f21f1683c3e77d3e81a78fa4b46b8eda36d64736f6c634300081a0033\n}\n",
				"bytecode": {
					"linkReferences": {},
					"object": "6080604052348015600e575f80fd5b50335f806101000a81548173ffffffffffffffffffffffffffffffffffffffff021916908373ffffffffffffffffffffffffffffffffffffffff160217905550611af98061005b5f395ff3fe608060405234801561000f575f80fd5b5060043610610086575f3560e01c8063982abb8911610059578063982abb8914610126578063b12080fa14610144578063bc8bc2b414610174578063e9505164146101a657610086565b806316b0fac81461008a5780633380b99f146100a65780633c734648146100d65780638da5cb5b14610108575b5f80fd5b6100a4600480360381019061009f9190610ec0565b6101d6565b005b6100c060048036038101906100bb9190611027565b610362565b6040516100cd91906110b7565b60405180910390f35b6100f060048036038101906100eb9190610ec0565b610572565b6040516100ff939291906111a3565b60405180910390f35b610110610722565b60405161011d9190611225565b60405180910390f35b61012e610745565b60405161013b91906113a4565b60405180910390f35b61015e60048036038101906101599190610ec0565b6108fa565b60405161016b91906110b7565b60405180910390f35b61018e600480360381019061018991906113f7565b610a9f565b60405161019d939291906111a3565b60405180910390f35b6101c060048036038101906101bb9190611458565b610bec565b6040516101cd91906110b7565b60405180910390f35b6001805490508161ffff1610610221576040517f08c379a00000000000000000000000000000000000000000000000000000000081526004016102189061152a565b60405180910390fd5b60018080805490506102339190611575565b81548110610244576102436115a8565b5b905f5260205f20906003020160018261ffff1681548110610268576102676115a8565b5b905f5260205f2090600302015f8201815f01908161028691906117e4565b506001820181600101908161029b91906117e4565b50600282015f9054906101000a900460ff16816002015f6101000a81548160ff021916908360038111156102d2576102d1611130565b5b021790555090505060018054806102ec576102eb6118c9565b5b600190038181905f5260205f2090600302015f8082015f61030d9190610dee565b600182015f61031c9190610dee565b600282015f6101000a81549060ff0219169055505090557f9218efb8b01b35364f271f424251d4ac0ee6008fc366226e9c2338bd15ebf61660405160405180910390a150565b5f805f9054906101000a900473ffffffffffffffffffffffffffffffffffffffff1673ffffffffffffffffffffffffffffffffffffffff163373ffffffffffffffffffffffffffffffffffffffff16146103f1576040517f08c379a00000000000000000000000000000000000000000000000000000000081526004016103e890611940565b60405180910390fd5b5f73ffffffffffffffffffffffffffffffffffffffff163373ffffffffffffffffffffffffffffffffffffffff160361045f576040517f08c379a0000000000000000000000000000000000000000000000000000000008152600401610456906119a8565b60405180910390fd5b610467610e2b565b83815f018190525082816020018190525060018160400190600381111561049157610490611130565b5b908160038111156104a5576104a4611130565b5b81525050600181908060018154018082558091505060019003905f5260205f2090600302015f909190919091505f820151815f0190816104e591906119c6565b5060208201518160010190816104fb91906119c6565b506040820151816002015f6101000a81548160ff0219169083600381111561052657610525611130565b5b021790555050507fb24501745f85fff88cc582df1223bf671a1234ab872711ffaa7eb8bd56fe311e84600160405161055f929190611a95565b60405180910390a1600191505092915050565b6060805f6001805490508461ffff16106105c1576040517f08c379a00000000000000000000000000000000000000000000000000000000081526004016105b89061152a565b60405180910390fd5b5f60018561ffff16815481106105da576105d96115a8565b5b905f5260205f2090600302019050805f0181600101826002015f9054906101000a900460ff1682805461060c90611602565b80601f016020809104026020016040519081016040528092919081815260200182805461063890611602565b80156106835780601f1061065a57610100808354040283529160200191610683565b820191905f5260205f20905b81548152906001019060200180831161066657829003601f168201915b5050505050925081805461069690611602565b80601f01602080910402602001604051908101604052809291908181526020018280546106c290611602565b801561070d5780601f106106e45761010080835404028352916020019161070d565b820191905f5260205f20905b8154815290600101906020018083116106f057829003601f168201915b50505050509150935093509350509193909250565b5f8054906101000a900473ffffffffffffffffffffffffffffffffffffffff1681565b60606001805480602002602001604051908101604052809291908181526020015f905b828210156108f1578382905f5260205f2090600302016040518060600160405290815f8201805461079890611602565b80601f01602080910402602001604051908101604052809291908181526020018280546107c490611602565b801561080f5780601f106107e65761010080835404028352916020019161080f565b820191905f5260205f20905b8154815290600101906020018083116107f257829003601f168201915b5050505050815260200160018201805461082890611602565b80601f016020809104026020016040519081016040528092919081815260200182805461085490611602565b801561089f5780601f106108765761010080835404028352916020019161089f565b820191905f5260205f20905b81548152906001019060200180831161088257829003601f168201915b50505050508152602001600282015f9054906101000a900460ff1660038111156108cc576108cb611130565b5b60038111156108de576108dd611130565b5b8152505081526020019060010190610768565b50505050905090565b5f805f9054906101000a900473ffffffffffffffffffffffffffffffffffffffff1673ffffffffffffffffffffffffffffffffffffffff163373ffffffffffffffffffffffffffffffffffffffff1614610989576040517f08c379a000000000000000000000000000000000000000000000000000000000815260040161098090611940565b60405180910390fd5b5f73ffffffffffffffffffffffffffffffffffffffff163373ffffffffffffffffffffffffffffffffffffffff16036109f7576040517f08c379a00000000000000000000000000000000000000000000000000000000081526004016109ee906119a8565b60405180910390fd5b6001805490508261ffff1610610a42576040517f08c379a0000000000000000000000000000000000000000000000000000000008152600401610a399061152a565b60405180910390fd5b5f60018361ffff1681548110610a5b57610a5a6115a8565b5b905f5260205f20906003020190506003816002015f6101000a81548160ff02191690836003811115610a9057610a8f611130565b5b02179055506001915050919050565b60018181548110610aae575f80fd5b905f5260205f2090600302015f91509050805f018054610acd90611602565b80601f0160208091040260200160405190810160405280929190818152602001828054610af990611602565b8015610b445780601f10610b1b57610100808354040283529160200191610b44565b820191905f5260205f20905b815481529060010190602001808311610b2757829003601f168201915b505050505090806001018054610b5990611602565b80601f0160208091040260200160405190810160405280929190818152602001828054610b8590611602565b8015610bd05780601f10610ba757610100808354040283529160200191610bd0565b820191905f5260205f20905b815481529060010190602001808311610bb357829003601f168201915b505050505090806002015f9054906101000a900460ff16905083565b5f805f9054906101000a900473ffffffffffffffffffffffffffffffffffffffff1673ffffffffffffffffffffffffffffffffffffffff163373ffffffffffffffffffffffffffffffffffffffff1614610c7b576040517f08c379a0000000000000000000000000000000000000000000000000000000008152600401610c7290611940565b60405180910390fd5b5f73ffffffffffffffffffffffffffffffffffffffff163373ffffffffffffffffffffffffffffffffffffffff1603610ce9576040517f08c379a0000000000000000000000000000000000000000000000000000000008152600401610ce0906119a8565b60405180910390fd5b6001805490508460ff1610610d33576040517f08c379a0000000000000000000000000000000000000000000000000000000008152600401610d2a9061152a565b60405180910390fd5b5f60018560ff1681548110610d4b57610d4a6115a8565b5b905f5260205f209060030201905083815f019081610d6991906119c6565b5082816001019081610d7b91906119c6565b506002816002015f6101000a81548160ff02191690836003811115610da357610da2611130565b5b02179055507fb24501745f85fff88cc582df1223bf671a1234ab872711ffaa7eb8bd56fe311e846002604051610dda929190611a95565b60405180910390a160019150509392505050565b508054610dfa90611602565b5f825580601f10610e0b5750610e28565b601f0160209004905f5260205f2090810190610e279190610e5d565b5b50565b604051806060016040528060608152602001606081526020015f6003811115610e5757610e56611130565b5b81525090565b5b80821115610e74575f815f905550600101610e5e565b5090565b5f604051905090565b5f80fd5b5f80fd5b5f61ffff82169050919050565b610e9f81610e89565b8114610ea9575f80fd5b50565b5f81359050610eba81610e96565b92915050565b5f60208284031215610ed557610ed4610e81565b5b5f610ee284828501610eac565b91505092915050565b5f80fd5b5f80fd5b5f601f19601f8301169050919050565b7f4e487b71000000000000000000000000000000000000000000000000000000005f52604160045260245ffd5b610f3982610ef3565b810181811067ffffffffffffffff82111715610f5857610f57610f03565b5b80604052505050565b5f610f6a610e78565b9050610f768282610f30565b919050565b5f67ffffffffffffffff821115610f9557610f94610f03565b5b610f9e82610ef3565b9050602081019050919050565b828183375f83830152505050565b5f610fcb610fc684610f7b565b610f61565b905082815260208101848484011115610fe757610fe6610eef565b5b610ff2848285610fab565b509392505050565b5f82601f83011261100e5761100d610eeb565b5b813561101e848260208601610fb9565b91505092915050565b5f806040838503121561103d5761103c610e81565b5b5f83013567ffffffffffffffff81111561105a57611059610e85565b5b61106685828601610ffa565b925050602083013567ffffffffffffffff81111561108757611086610e85565b5b61109385828601610ffa565b9150509250929050565b5f8115159050919050565b6110b18161109d565b82525050565b5f6020820190506110ca5f8301846110a8565b92915050565b5f81519050919050565b5f82825260208201905092915050565b8281835e5f83830152505050565b5f611102826110d0565b61110c81856110da565b935061111c8185602086016110ea565b61112581610ef3565b840191505092915050565b7f4e487b71000000000000000000000000000000000000000000000000000000005f52602160045260245ffd5b6004811061116e5761116d611130565b5b50565b5f81905061117e8261115d565b919050565b5f61118d82611171565b9050919050565b61119d81611183565b82525050565b5f6060820190508181035f8301526111bb81866110f8565b905081810360208301526111cf81856110f8565b90506111de6040830184611194565b949350505050565b5f73ffffffffffffffffffffffffffffffffffffffff82169050919050565b5f61120f826111e6565b9050919050565b61121f81611205565b82525050565b5f6020820190506112385f830184611216565b92915050565b5f81519050919050565b5f82825260208201905092915050565b5f819050602082019050919050565b5f82825260208201905092915050565b5f611281826110d0565b61128b8185611267565b935061129b8185602086016110ea565b6112a481610ef3565b840191505092915050565b6112b881611183565b82525050565b5f606083015f8301518482035f8601526112d88282611277565b915050602083015184820360208601526112f28282611277565b915050604083015161130760408601826112af565b508091505092915050565b5f61131d83836112be565b905092915050565b5f602082019050919050565b5f61133b8261123e565b6113458185611248565b93508360208202850161135785611258565b805f5b8581101561139257848403895281516113738582611312565b945061137e83611325565b925060208a0199505060018101905061135a565b50829750879550505050505092915050565b5f6020820190508181035f8301526113bc8184611331565b905092915050565b5f819050919050565b6113d6816113c4565b81146113e0575f80fd5b50565b5f813590506113f1816113cd565b92915050565b5f6020828403121561140c5761140b610e81565b5b5f611419848285016113e3565b91505092915050565b5f60ff82169050919050565b61143781611422565b8114611441575f80fd5b50565b5f813590506114528161142e565b92915050565b5f805f6060848603121561146f5761146e610e81565b5b5f61147c86828701611444565b935050602084013567ffffffffffffffff81111561149d5761149c610e85565b5b6114a986828701610ffa565b925050604084013567ffffffffffffffff8111156114ca576114c9610e85565b5b6114d686828701610ffa565b9150509250925092565b7f4f7574206f6620626f756e6400000000000000000000000000000000000000005f82015250565b5f611514600c836110da565b915061151f826114e0565b602082019050919050565b5f6020820190508181035f83015261154181611508565b9050919050565b7f4e487b71000000000000000000000000000000000000000000000000000000005f52601160045260245ffd5b5f61157f826113c4565b915061158a836113c4565b92508282039050818111156115a2576115a1611548565b5b92915050565b7f4e487b71000000000000000000000000000000000000000000000000000000005f52603260045260245ffd5b7f4e487b71000000000000000000000000000000000000000000000000000000005f52602260045260245ffd5b5f600282049050600182168061161957607f821691505b60208210810361162c5761162b6115d5565b5b50919050565b5f8154905061164081611602565b9050919050565b5f819050815f5260205f209050919050565b5f6020601f8301049050919050565b5f82821b905092915050565b5f600883026116a37fffffffffffffffffffffffffffffffffffffffffffffffffffffffffffffffff82611668565b6116ad8683611668565b95508019841693508086168417925050509392505050565b5f819050919050565b5f6116e86116e36116de846113c4565b6116c5565b6113c4565b9050919050565b5f819050919050565b611701836116ce565b61171561170d826116ef565b848454611674565b825550505050565b5f90565b61172961171d565b6117348184846116f8565b505050565b5b818110156117575761174c5f82611721565b60018101905061173a565b5050565b601f82111561179c5761176d81611647565b61177684611659565b81016020851015611785578190505b61179961179185611659565b830182611739565b50505b505050565b5f82821c905092915050565b5f6117bc5f19846008026117a1565b1980831691505092915050565b5f6117d483836117ad565b9150826002028217905092915050565b8181036117f25750506118c7565b6117fb82611632565b67ffffffffffffffff81111561181457611813610f03565b5b61181e8254611602565b61182982828561175b565b5f601f831160018114611856575f8415611844578287015490505b61184e85826117c9565b8655506118c0565b601f19841661186487611647565b965061186f86611647565b5f5b8281101561189657848901548255600182019150600185019450602081019050611871565b868310156118b357848901546118af601f8916826117ad565b8355505b6001600288020188555050505b5050505050505b565b7f4e487b71000000000000000000000000000000000000000000000000000000005f52603160045260245ffd5b7f596f75277265206e6f7420616c6c6f77656400000000000000000000000000005f82015250565b5f61192a6012836110da565b9150611935826118f6565b602082019050919050565b5f6020820190508181035f8301526119578161191e565b9050919050565b7f5a65726f2041646472657373206e6f7420616c6c6f77656400000000000000005f82015250565b5f6119926018836110da565b915061199d8261195e565b602082019050919050565b5f6020820190508181035f8301526119bf81611986565b9050919050565b6119cf826110d0565b67ffffffffffffffff8111156119e8576119e7610f03565b5b6119f28254611602565b6119fd82828561175b565b5f60209050601f831160018114611a2e575f8415611a1c578287015190505b611a2685826117c9565b865550611a8d565b601f198416611a3c86611647565b5f5b82811015611a6357848901518255600182019150602085019450602081019050611a3e565b86831015611a805784890151611a7c601f8916826117ad565b8355505b6001600288020188555050505b505050505050565b5f6040820190508181035f830152611aad81856110f8565b9050611abc6020830184611194565b939250505056fea2646970667358221220ceaa110b56206f7ac527c4ff30ce7f21f1683c3e77d3e81a78fa4b46b8eda36d64736f6c634300081a0033",
					"opcodes": "PUSH1 0x80 PUSH1 0x40 MSTORE CALLVALUE DUP1 ISZERO PUSH1 0xE JUMPI PUSH0 DUP1 REVERT JUMPDEST POP CALLER PUSH0 DUP1 PUSH2 0x100 EXP DUP2 SLOAD DUP2 PUSH20 0xFFFFFFFFFFFFFFFFFFFFFFFFFFFFFFFFFFFFFFFF MUL NOT AND SWAP1 DUP4 PUSH20 0xFFFFFFFFFFFFFFFFFFFFFFFFFFFFFFFFFFFFFFFF AND MUL OR SWAP1 SSTORE POP PUSH2 0x1AF9 DUP1 PUSH2 0x5B PUSH0 CODECOPY PUSH0 RETURN INVALID PUSH1 0x80 PUSH1 0x40 MSTORE CALLVALUE DUP1 ISZERO PUSH2 0xF JUMPI PUSH0 DUP1 REVERT JUMPDEST POP PUSH1 0x4 CALLDATASIZE LT PUSH2 0x86 JUMPI PUSH0 CALLDATALOAD PUSH1 0xE0 SHR DUP1 PUSH4 0x982ABB89 GT PUSH2 0x59 JUMPI DUP1 PUSH4 0x982ABB89 EQ PUSH2 0x126 JUMPI DUP1 PUSH4 0xB12080FA EQ PUSH2 0x144 JUMPI DUP1 PUSH4 0xBC8BC2B4 EQ PUSH2 0x174 JUMPI DUP1 PUSH4 0xE9505164 EQ PUSH2 0x1A6 JUMPI PUSH2 0x86 JUMP JUMPDEST DUP1 PUSH4 0x16B0FAC8 EQ PUSH2 0x8A JUMPI DUP1 PUSH4 0x3380B99F EQ PUSH2 0xA6 JUMPI DUP1 PUSH4 0x3C734648 EQ PUSH2 0xD6 JUMPI DUP1 PUSH4 0x8DA5CB5B EQ PUSH2 0x108 JUMPI JUMPDEST PUSH0 DUP1 REVERT JUMPDEST PUSH2 0xA4 PUSH1 0x4 DUP1 CALLDATASIZE SUB DUP2 ADD SWAP1 PUSH2 0x9F SWAP2 SWAP1 PUSH2 0xEC0 JUMP JUMPDEST PUSH2 0x1D6 JUMP JUMPDEST STOP JUMPDEST PUSH2 0xC0 PUSH1 0x4 DUP1 CALLDATASIZE SUB DUP2 ADD SWAP1 PUSH2 0xBB SWAP2 SWAP1 PUSH2 0x1027 JUMP JUMPDEST PUSH2 0x362 JUMP JUMPDEST PUSH1 0x40 MLOAD PUSH2 0xCD SWAP2 SWAP1 PUSH2 0x10B7 JUMP JUMPDEST PUSH1 0x40 MLOAD DUP1 SWAP2 SUB SWAP1 RETURN JUMPDEST PUSH2 0xF0 PUSH1 0x4 DUP1 CALLDATASIZE SUB DUP2 ADD SWAP1 PUSH2 0xEB SWAP2 SWAP1 PUSH2 0xEC0 JUMP JUMPDEST PUSH2 0x572 JUMP JUMPDEST PUSH1 0x40 MLOAD PUSH2 0xFF SWAP4 SWAP3 SWAP2 SWAP1 PUSH2 0x11A3 JUMP JUMPDEST PUSH1 0x40 MLOAD DUP1 SWAP2 SUB SWAP1 RETURN JUMPDEST PUSH2 0x110 PUSH2 0x722 JUMP JUMPDEST PUSH1 0x40 MLOAD PUSH2 0x11D SWAP2 SWAP1 PUSH2 0x1225 JUMP JUMPDEST PUSH1 0x40 MLOAD DUP1 SWAP2 SUB SWAP1 RETURN JUMPDEST PUSH2 0x12E PUSH2 0x745 JUMP JUMPDEST PUSH1 0x40 MLOAD PUSH2 0x13B SWAP2 SWAP1 PUSH2 0x13A4 JUMP JUMPDEST PUSH1 0x40 MLOAD DUP1 SWAP2 SUB SWAP1 RETURN JUMPDEST PUSH2 0x15E PUSH1 0x4 DUP1 CALLDATASIZE SUB DUP2 ADD SWAP1 PUSH2 0x159 SWAP2 SWAP1 PUSH2 0xEC0 JUMP JUMPDEST PUSH2 0x8FA JUMP JUMPDEST PUSH1 0x40 MLOAD PUSH2 0x16B SWAP2 SWAP1 PUSH2 0x10B7 JUMP JUMPDEST PUSH1 0x40 MLOAD DUP1 SWAP2 SUB SWAP1 RETURN JUMPDEST PUSH2 0x18E PUSH1 0x4 DUP1 CALLDATASIZE SUB DUP2 ADD SWAP1 PUSH2 0x189 SWAP2 SWAP1 PUSH2 0x13F7 JUMP JUMPDEST PUSH2 0xA9F JUMP JUMPDEST PUSH1 0x40 MLOAD PUSH2 0x19D SWAP4 SWAP3 SWAP2 SWAP1 PUSH2 0x11A3 JUMP JUMPDEST PUSH1 0x40 MLOAD DUP1 SWAP2 SUB SWAP1 RETURN JUMPDEST PUSH2 0x1C0 PUSH1 0x4 DUP1 CALLDATASIZE SUB DUP2 ADD SWAP1 PUSH2 0x1BB SWAP2 SWAP1 PUSH2 0x1458 JUMP JUMPDEST PUSH2 0xBEC JUMP JUMPDEST PUSH1 0x40 MLOAD PUSH2 0x1CD SWAP2 SWAP1 PUSH2 0x10B7 JUMP JUMPDEST PUSH1 0x40 MLOAD DUP1 SWAP2 SUB SWAP1 RETURN JUMPDEST PUSH1 0x1 DUP1 SLOAD SWAP1 POP DUP2 PUSH2 0xFFFF AND LT PUSH2 0x221 JUMPI PUSH1 0x40 MLOAD PUSH32 0x8C379A000000000000000000000000000000000000000000000000000000000 DUP2 MSTORE PUSH1 0x4 ADD PUSH2 0x218 SWAP1 PUSH2 0x152A JUMP JUMPDEST PUSH1 0x40 MLOAD DUP1 SWAP2 SUB SWAP1 REVERT JUMPDEST PUSH1 0x1 DUP1 DUP1 DUP1 SLOAD SWAP1 POP PUSH2 0x233 SWAP2 SWAP1 PUSH2 0x1575 JUMP JUMPDEST DUP2 SLOAD DUP2 LT PUSH2 0x244 JUMPI PUSH2 0x243 PUSH2 0x15A8 JUMP JUMPDEST JUMPDEST SWAP1 PUSH0 MSTORE PUSH1 0x20 PUSH0 KECCAK256 SWAP1 PUSH1 0x3 MUL ADD PUSH1 0x1 DUP3 PUSH2 0xFFFF AND DUP2 SLOAD DUP2 LT PUSH2 0x268 JUMPI PUSH2 0x267 PUSH2 0x15A8 JUMP JUMPDEST JUMPDEST SWAP1 PUSH0 MSTORE PUSH1 0x20 PUSH0 KECCAK256 SWAP1 PUSH1 0x3 MUL ADD PUSH0 DUP3 ADD DUP2 PUSH0 ADD SWAP1 DUP2 PUSH2 0x286 SWAP2 SWAP1 PUSH2 0x17E4 JUMP JUMPDEST POP PUSH1 0x1 DUP3 ADD DUP2 PUSH1 0x1 ADD SWAP1 DUP2 PUSH2 0x29B SWAP2 SWAP1 PUSH2 0x17E4 JUMP JUMPDEST POP PUSH1 0x2 DUP3 ADD PUSH0 SWAP1 SLOAD SWAP1 PUSH2 0x100 EXP SWAP1 DIV PUSH1 0xFF AND DUP2 PUSH1 0x2 ADD PUSH0 PUSH2 0x100 EXP DUP2 SLOAD DUP2 PUSH1 0xFF MUL NOT AND SWAP1 DUP4 PUSH1 0x3 DUP2 GT ISZERO PUSH2 0x2D2 JUMPI PUSH2 0x2D1 PUSH2 0x1130 JUMP JUMPDEST JUMPDEST MUL OR SWAP1 SSTORE POP SWAP1 POP POP PUSH1 0x1 DUP1 SLOAD DUP1 PUSH2 0x2EC JUMPI PUSH2 0x2EB PUSH2 0x18C9 JUMP JUMPDEST JUMPDEST PUSH1 0x1 SWAP1 SUB DUP2 DUP2 SWAP1 PUSH0 MSTORE PUSH1 0x20 PUSH0 KECCAK256 SWAP1 PUSH1 0x3 MUL ADD PUSH0 DUP1 DUP3 ADD PUSH0 PUSH2 0x30D SWAP2 SWAP1 PUSH2 0xDEE JUMP JUMPDEST PUSH1 0x1 DUP3 ADD PUSH0 PUSH2 0x31C SWAP2 SWAP1 PUSH2 0xDEE JUMP JUMPDEST PUSH1 0x2 DUP3 ADD PUSH0 PUSH2 0x100 EXP DUP2 SLOAD SWAP1 PUSH1 0xFF MUL NOT AND SWAP1 SSTORE POP POP SWAP1 SSTORE PUSH32 0x9218EFB8B01B35364F271F424251D4AC0EE6008FC366226E9C2338BD15EBF616 PUSH1 0x40 MLOAD PUSH1 0x40 MLOAD DUP1 SWAP2 SUB SWAP1 LOG1 POP JUMP JUMPDEST PUSH0 DUP1 PUSH0 SWAP1 SLOAD SWAP1 PUSH2 0x100 EXP SWAP1 DIV PUSH20 0xFFFFFFFFFFFFFFFFFFFFFFFFFFFFFFFFFFFFFFFF AND PUSH20 0xFFFFFFFFFFFFFFFFFFFFFFFFFFFFFFFFFFFFFFFF AND CALLER PUSH20 0xFFFFFFFFFFFFFFFFFFFFFFFFFFFFFFFFFFFFFFFF AND EQ PUSH2 0x3F1 JUMPI PUSH1 0x40 MLOAD PUSH32 0x8C379A000000000000000000000000000000000000000000000000000000000 DUP2 MSTORE PUSH1 0x4 ADD PUSH2 0x3E8 SWAP1 PUSH2 0x1940 JUMP JUMPDEST PUSH1 0x40 MLOAD DUP1 SWAP2 SUB SWAP1 REVERT JUMPDEST PUSH0 PUSH20 0xFFFFFFFFFFFFFFFFFFFFFFFFFFFFFFFFFFFFFFFF AND CALLER PUSH20 0xFFFFFFFFFFFFFFFFFFFFFFFFFFFFFFFFFFFFFFFF AND SUB PUSH2 0x45F JUMPI PUSH1 0x40 MLOAD PUSH32 0x8C379A000000000000000000000000000000000000000000000000000000000 DUP2 MSTORE PUSH1 0x4 ADD PUSH2 0x456 SWAP1 PUSH2 0x19A8 JUMP JUMPDEST PUSH1 0x40 MLOAD DUP1 SWAP2 SUB SWAP1 REVERT JUMPDEST PUSH2 0x467 PUSH2 0xE2B JUMP JUMPDEST DUP4 DUP2 PUSH0 ADD DUP2 SWAP1 MSTORE POP DUP3 DUP2 PUSH1 0x20 ADD DUP2 SWAP1 MSTORE POP PUSH1 0x1 DUP2 PUSH1 0x40 ADD SWAP1 PUSH1 0x3 DUP2 GT ISZERO PUSH2 0x491 JUMPI PUSH2 0x490 PUSH2 0x1130 JUMP JUMPDEST JUMPDEST SWAP1 DUP2 PUSH1 0x3 DUP2 GT ISZERO PUSH2 0x4A5 JUMPI PUSH2 0x4A4 PUSH2 0x1130 JUMP JUMPDEST JUMPDEST DUP2 MSTORE POP POP PUSH1 0x1 DUP2 SWAP1 DUP1 PUSH1 0x1 DUP2 SLOAD ADD DUP1 DUP3 SSTORE DUP1 SWAP2 POP POP PUSH1 0x1 SWAP1 SUB SWAP1 PUSH0 MSTORE PUSH1 0x20 PUSH0 KECCAK256 SWAP1 PUSH1 0x3 MUL ADD PUSH0 SWAP1 SWAP2 SWAP1 SWAP2 SWAP1 SWAP2 POP PUSH0 DUP3 ADD MLOAD DUP2 PUSH0 ADD SWAP1 DUP2 PUSH2 0x4E5 SWAP2 SWAP1 PUSH2 0x19C6 JUMP JUMPDEST POP PUSH1 0x20 DUP3 ADD MLOAD DUP2 PUSH1 0x1 ADD SWAP1 DUP2 PUSH2 0x4FB SWAP2 SWAP1 PUSH2 0x19C6 JUMP JUMPDEST POP PUSH1 0x40 DUP3 ADD MLOAD DUP2 PUSH1 0x2 ADD PUSH0 PUSH2 0x100 EXP DUP2 SLOAD DUP2 PUSH1 0xFF MUL NOT AND SWAP1 DUP4 PUSH1 0x3 DUP2 GT ISZERO PUSH2 0x526 JUMPI PUSH2 0x525 PUSH2 0x1130 JUMP JUMPDEST JUMPDEST MUL OR SWAP1 SSTORE POP POP POP PUSH32 0xB24501745F85FFF88CC582DF1223BF671A1234AB872711FFAA7EB8BD56FE311E DUP5 PUSH1 0x1 PUSH1 0x40 MLOAD PUSH2 0x55F SWAP3 SWAP2 SWAP1 PUSH2 0x1A95 JUMP JUMPDEST PUSH1 0x40 MLOAD DUP1 SWAP2 SUB SWAP1 LOG1 PUSH1 0x1 SWAP2 POP POP SWAP3 SWAP2 POP POP JUMP JUMPDEST PUSH1 0x60 DUP1 PUSH0 PUSH1 0x1 DUP1 SLOAD SWAP1 POP DUP5 PUSH2 0xFFFF AND LT PUSH2 0x5C1 JUMPI PUSH1 0x40 MLOAD PUSH32 0x8C379A000000000000000000000000000000000000000000000000000000000 DUP2 MSTORE PUSH1 0x4 ADD PUSH2 0x5B8 SWAP1 PUSH2 0x152A JUMP JUMPDEST PUSH1 0x40 MLOAD DUP1 SWAP2 SUB SWAP1 REVERT JUMPDEST PUSH0 PUSH1 0x1 DUP6 PUSH2 0xFFFF AND DUP2 SLOAD DUP2 LT PUSH2 0x5DA JUMPI PUSH2 0x5D9 PUSH2 0x15A8 JUMP JUMPDEST JUMPDEST SWAP1 PUSH0 MSTORE PUSH1 0x20 PUSH0 KECCAK256 SWAP1 PUSH1 0x3 MUL ADD SWAP1 POP DUP1 PUSH0 ADD DUP2 PUSH1 0x1 ADD DUP3 PUSH1 0x2 ADD PUSH0 SWAP1 SLOAD SWAP1 PUSH2 0x100 EXP SWAP1 DIV PUSH1 0xFF AND DUP3 DUP1 SLOAD PUSH2 0x60C SWAP1 PUSH2 0x1602 JUMP JUMPDEST DUP1 PUSH1 0x1F ADD PUSH1 0x20 DUP1 SWAP2 DIV MUL PUSH1 0x20 ADD PUSH1 0x40 MLOAD SWAP1 DUP2 ADD PUSH1 0x40 MSTORE DUP1 SWAP3 SWAP2 SWAP1 DUP2 DUP2 MSTORE PUSH1 0x20 ADD DUP3 DUP1 SLOAD PUSH2 0x638 SWAP1 PUSH2 0x1602 JUMP JUMPDEST DUP1 ISZERO PUSH2 0x683 JUMPI DUP1 PUSH1 0x1F LT PUSH2 0x65A JUMPI PUSH2 0x100 DUP1 DUP4 SLOAD DIV MUL DUP4 MSTORE SWAP2 PUSH1 0x20 ADD SWAP2 PUSH2 0x683 JUMP JUMPDEST DUP3 ADD SWAP2 SWAP1 PUSH0 MSTORE PUSH1 0x20 PUSH0 KECCAK256 SWAP1 JUMPDEST DUP2 SLOAD DUP2 MSTORE SWAP1 PUSH1 0x1 ADD SWAP1 PUSH1 0x20 ADD DUP1 DUP4 GT PUSH2 0x666 JUMPI DUP3 SWAP1 SUB PUSH1 0x1F AND DUP3 ADD SWAP2 JUMPDEST POP POP POP POP POP SWAP3 POP DUP2 DUP1 SLOAD PUSH2 0x696 SWAP1 PUSH2 0x1602 JUMP JUMPDEST DUP1 PUSH1 0x1F ADD PUSH1 0x20 DUP1 SWAP2 DIV MUL PUSH1 0x20 ADD PUSH1 0x40 MLOAD SWAP1 DUP2 ADD PUSH1 0x40 MSTORE DUP1 SWAP3 SWAP2 SWAP1 DUP2 DUP2 MSTORE PUSH1 0x20 ADD DUP3 DUP1 SLOAD PUSH2 0x6C2 SWAP1 PUSH2 0x1602 JUMP JUMPDEST DUP1 ISZERO PUSH2 0x70D JUMPI DUP1 PUSH1 0x1F LT PUSH2 0x6E4 JUMPI PUSH2 0x100 DUP1 DUP4 SLOAD DIV MUL DUP4 MSTORE SWAP2 PUSH1 0x20 ADD SWAP2 PUSH2 0x70D JUMP JUMPDEST DUP3 ADD SWAP2 SWAP1 PUSH0 MSTORE PUSH1 0x20 PUSH0 KECCAK256 SWAP1 JUMPDEST DUP2 SLOAD DUP2 MSTORE SWAP1 PUSH1 0x1 ADD SWAP1 PUSH1 0x20 ADD DUP1 DUP4 GT PUSH2 0x6F0 JUMPI DUP3 SWAP1 SUB PUSH1 0x1F AND DUP3 ADD SWAP2 JUMPDEST POP POP POP POP POP SWAP2 POP SWAP4 POP SWAP4 POP SWAP4 POP POP SWAP2 SWAP4 SWAP1 SWAP3 POP JUMP JUMPDEST PUSH0 DUP1 SLOAD SWAP1 PUSH2 0x100 EXP SWAP1 DIV PUSH20 0xFFFFFFFFFFFFFFFFFFFFFFFFFFFFFFFFFFFFFFFF AND DUP2 JUMP JUMPDEST PUSH1 0x60 PUSH1 0x1 DUP1 SLOAD DUP1 PUSH1 0x20 MUL PUSH1 0x20 ADD PUSH1 0x40 MLOAD SWAP1 DUP2 ADD PUSH1 0x40 MSTORE DUP1 SWAP3 SWAP2 SWAP1 DUP2 DUP2 MSTORE PUSH1 0x20 ADD PUSH0 SWAP1 JUMPDEST DUP3 DUP3 LT ISZERO PUSH2 0x8F1 JUMPI DUP4 DUP3 SWAP1 PUSH0 MSTORE PUSH1 0x20 PUSH0 KECCAK256 SWAP1 PUSH1 0x3 MUL ADD PUSH1 0x40 MLOAD DUP1 PUSH1 0x60 ADD PUSH1 0x40 MSTORE SWAP1 DUP2 PUSH0 DUP3 ADD DUP1 SLOAD PUSH2 0x798 SWAP1 PUSH2 0x1602 JUMP JUMPDEST DUP1 PUSH1 0x1F ADD PUSH1 0x20 DUP1 SWAP2 DIV MUL PUSH1 0x20 ADD PUSH1 0x40 MLOAD SWAP1 DUP2 ADD PUSH1 0x40 MSTORE DUP1 SWAP3 SWAP2 SWAP1 DUP2 DUP2 MSTORE PUSH1 0x20 ADD DUP3 DUP1 SLOAD PUSH2 0x7C4 SWAP1 PUSH2 0x1602 JUMP JUMPDEST DUP1 ISZERO PUSH2 0x80F JUMPI DUP1 PUSH1 0x1F LT PUSH2 0x7E6 JUMPI PUSH2 0x100 DUP1 DUP4 SLOAD DIV MUL DUP4 MSTORE SWAP2 PUSH1 0x20 ADD SWAP2 PUSH2 0x80F JUMP JUMPDEST DUP3 ADD SWAP2 SWAP1 PUSH0 MSTORE PUSH1 0x20 PUSH0 KECCAK256 SWAP1 JUMPDEST DUP2 SLOAD DUP2 MSTORE SWAP1 PUSH1 0x1 ADD SWAP1 PUSH1 0x20 ADD DUP1 DUP4 GT PUSH2 0x7F2 JUMPI DUP3 SWAP1 SUB PUSH1 0x1F AND DUP3 ADD SWAP2 JUMPDEST POP POP POP POP POP DUP2 MSTORE PUSH1 0x20 ADD PUSH1 0x1 DUP3 ADD DUP1 SLOAD PUSH2 0x828 SWAP1 PUSH2 0x1602 JUMP JUMPDEST DUP1 PUSH1 0x1F ADD PUSH1 0x20 DUP1 SWAP2 DIV MUL PUSH1 0x20 ADD PUSH1 0x40 MLOAD SWAP1 DUP2 ADD PUSH1 0x40 MSTORE DUP1 SWAP3 SWAP2 SWAP1 DUP2 DUP2 MSTORE PUSH1 0x20 ADD DUP3 DUP1 SLOAD PUSH2 0x854 SWAP1 PUSH2 0x1602 JUMP JUMPDEST DUP1 ISZERO PUSH2 0x89F JUMPI DUP1 PUSH1 0x1F LT PUSH2 0x876 JUMPI PUSH2 0x100 DUP1 DUP4 SLOAD DIV MUL DUP4 MSTORE SWAP2 PUSH1 0x20 ADD SWAP2 PUSH2 0x89F JUMP JUMPDEST DUP3 ADD SWAP2 SWAP1 PUSH0 MSTORE PUSH1 0x20 PUSH0 KECCAK256 SWAP1 JUMPDEST DUP2 SLOAD DUP2 MSTORE SWAP1 PUSH1 0x1 ADD SWAP1 PUSH1 0x20 ADD DUP1 DUP4 GT PUSH2 0x882 JUMPI DUP3 SWAP1 SUB PUSH1 0x1F AND DUP3 ADD SWAP2 JUMPDEST POP POP POP POP POP DUP2 MSTORE PUSH1 0x20 ADD PUSH1 0x2 DUP3 ADD PUSH0 SWAP1 SLOAD SWAP1 PUSH2 0x100 EXP SWAP1 DIV PUSH1 0xFF AND PUSH1 0x3 DUP2 GT ISZERO PUSH2 0x8CC JUMPI PUSH2 0x8CB PUSH2 0x1130 JUMP JUMPDEST JUMPDEST PUSH1 0x3 DUP2 GT ISZERO PUSH2 0x8DE JUMPI PUSH2 0x8DD PUSH2 0x1130 JUMP JUMPDEST JUMPDEST DUP2 MSTORE POP POP DUP2 MSTORE PUSH1 0x20 ADD SWAP1 PUSH1 0x1 ADD SWAP1 PUSH2 0x768 JUMP JUMPDEST POP POP POP POP SWAP1 POP SWAP1 JUMP JUMPDEST PUSH0 DUP1 PUSH0 SWAP1 SLOAD SWAP1 PUSH2 0x100 EXP SWAP1 DIV PUSH20 0xFFFFFFFFFFFFFFFFFFFFFFFFFFFFFFFFFFFFFFFF AND PUSH20 0xFFFFFFFFFFFFFFFFFFFFFFFFFFFFFFFFFFFFFFFF AND CALLER PUSH20 0xFFFFFFFFFFFFFFFFFFFFFFFFFFFFFFFFFFFFFFFF AND EQ PUSH2 0x989 JUMPI PUSH1 0x40 MLOAD PUSH32 0x8C379A000000000000000000000000000000000000000000000000000000000 DUP2 MSTORE PUSH1 0x4 ADD PUSH2 0x980 SWAP1 PUSH2 0x1940 JUMP JUMPDEST PUSH1 0x40 MLOAD DUP1 SWAP2 SUB SWAP1 REVERT JUMPDEST PUSH0 PUSH20 0xFFFFFFFFFFFFFFFFFFFFFFFFFFFFFFFFFFFFFFFF AND CALLER PUSH20 0xFFFFFFFFFFFFFFFFFFFFFFFFFFFFFFFFFFFFFFFF AND SUB PUSH2 0x9F7 JUMPI PUSH1 0x40 MLOAD PUSH32 0x8C379A000000000000000000000000000000000000000000000000000000000 DUP2 MSTORE PUSH1 0x4 ADD PUSH2 0x9EE SWAP1 PUSH2 0x19A8 JUMP JUMPDEST PUSH1 0x40 MLOAD DUP1 SWAP2 SUB SWAP1 REVERT JUMPDEST PUSH1 0x1 DUP1 SLOAD SWAP1 POP DUP3 PUSH2 0xFFFF AND LT PUSH2 0xA42 JUMPI PUSH1 0x40 MLOAD PUSH32 0x8C379A000000000000000000000000000000000000000000000000000000000 DUP2 MSTORE PUSH1 0x4 ADD PUSH2 0xA39 SWAP1 PUSH2 0x152A JUMP JUMPDEST PUSH1 0x40 MLOAD DUP1 SWAP2 SUB SWAP1 REVERT JUMPDEST PUSH0 PUSH1 0x1 DUP4 PUSH2 0xFFFF AND DUP2 SLOAD DUP2 LT PUSH2 0xA5B JUMPI PUSH2 0xA5A PUSH2 0x15A8 JUMP JUMPDEST JUMPDEST SWAP1 PUSH0 MSTORE PUSH1 0x20 PUSH0 KECCAK256 SWAP1 PUSH1 0x3 MUL ADD SWAP1 POP PUSH1 0x3 DUP2 PUSH1 0x2 ADD PUSH0 PUSH2 0x100 EXP DUP2 SLOAD DUP2 PUSH1 0xFF MUL NOT AND SWAP1 DUP4 PUSH1 0x3 DUP2 GT ISZERO PUSH2 0xA90 JUMPI PUSH2 0xA8F PUSH2 0x1130 JUMP JUMPDEST JUMPDEST MUL OR SWAP1 SSTORE POP PUSH1 0x1 SWAP2 POP POP SWAP2 SWAP1 POP JUMP JUMPDEST PUSH1 0x1 DUP2 DUP2 SLOAD DUP2 LT PUSH2 0xAAE JUMPI PUSH0 DUP1 REVERT JUMPDEST SWAP1 PUSH0 MSTORE PUSH1 0x20 PUSH0 KECCAK256 SWAP1 PUSH1 0x3 MUL ADD PUSH0 SWAP2 POP SWAP1 POP DUP1 PUSH0 ADD DUP1 SLOAD PUSH2 0xACD SWAP1 PUSH2 0x1602 JUMP JUMPDEST DUP1 PUSH1 0x1F ADD PUSH1 0x20 DUP1 SWAP2 DIV MUL PUSH1 0x20 ADD PUSH1 0x40 MLOAD SWAP1 DUP2 ADD PUSH1 0x40 MSTORE DUP1 SWAP3 SWAP2 SWAP1 DUP2 DUP2 MSTORE PUSH1 0x20 ADD DUP3 DUP1 SLOAD PUSH2 0xAF9 SWAP1 PUSH2 0x1602 JUMP JUMPDEST DUP1 ISZERO PUSH2 0xB44 JUMPI DUP1 PUSH1 0x1F LT PUSH2 0xB1B JUMPI PUSH2 0x100 DUP1 DUP4 SLOAD DIV MUL DUP4 MSTORE SWAP2 PUSH1 0x20 ADD SWAP2 PUSH2 0xB44 JUMP JUMPDEST DUP3 ADD SWAP2 SWAP1 PUSH0 MSTORE PUSH1 0x20 PUSH0 KECCAK256 SWAP1 JUMPDEST DUP2 SLOAD DUP2 MSTORE SWAP1 PUSH1 0x1 ADD SWAP1 PUSH1 0x20 ADD DUP1 DUP4 GT PUSH2 0xB27 JUMPI DUP3 SWAP1 SUB PUSH1 0x1F AND DUP3 ADD SWAP2 JUMPDEST POP POP POP POP POP SWAP1 DUP1 PUSH1 0x1 ADD DUP1 SLOAD PUSH2 0xB59 SWAP1 PUSH2 0x1602 JUMP JUMPDEST DUP1 PUSH1 0x1F ADD PUSH1 0x20 DUP1 SWAP2 DIV MUL PUSH1 0x20 ADD PUSH1 0x40 MLOAD SWAP1 DUP2 ADD PUSH1 0x40 MSTORE DUP1 SWAP3 SWAP2 SWAP1 DUP2 DUP2 MSTORE PUSH1 0x20 ADD DUP3 DUP1 SLOAD PUSH2 0xB85 SWAP1 PUSH2 0x1602 JUMP JUMPDEST DUP1 ISZERO PUSH2 0xBD0 JUMPI DUP1 PUSH1 0x1F LT PUSH2 0xBA7 JUMPI PUSH2 0x100 DUP1 DUP4 SLOAD DIV MUL DUP4 MSTORE SWAP2 PUSH1 0x20 ADD SWAP2 PUSH2 0xBD0 JUMP JUMPDEST DUP3 ADD SWAP2 SWAP1 PUSH0 MSTORE PUSH1 0x20 PUSH0 KECCAK256 SWAP1 JUMPDEST DUP2 SLOAD DUP2 MSTORE SWAP1 PUSH1 0x1 ADD SWAP1 PUSH1 0x20 ADD DUP1 DUP4 GT PUSH2 0xBB3 JUMPI DUP3 SWAP1 SUB PUSH1 0x1F AND DUP3 ADD SWAP2 JUMPDEST POP POP POP POP POP SWAP1 DUP1 PUSH1 0x2 ADD PUSH0 SWAP1 SLOAD SWAP1 PUSH2 0x100 EXP SWAP1 DIV PUSH1 0xFF AND SWAP1 POP DUP4 JUMP JUMPDEST PUSH0 DUP1 PUSH0 SWAP1 SLOAD SWAP1 PUSH2 0x100 EXP SWAP1 DIV PUSH20 0xFFFFFFFFFFFFFFFFFFFFFFFFFFFFFFFFFFFFFFFF AND PUSH20 0xFFFFFFFFFFFFFFFFFFFFFFFFFFFFFFFFFFFFFFFF AND CALLER PUSH20 0xFFFFFFFFFFFFFFFFFFFFFFFFFFFFFFFFFFFFFFFF AND EQ PUSH2 0xC7B JUMPI PUSH1 0x40 MLOAD PUSH32 0x8C379A000000000000000000000000000000000000000000000000000000000 DUP2 MSTORE PUSH1 0x4 ADD PUSH2 0xC72 SWAP1 PUSH2 0x1940 JUMP JUMPDEST PUSH1 0x40 MLOAD DUP1 SWAP2 SUB SWAP1 REVERT JUMPDEST PUSH0 PUSH20 0xFFFFFFFFFFFFFFFFFFFFFFFFFFFFFFFFFFFFFFFF AND CALLER PUSH20 0xFFFFFFFFFFFFFFFFFFFFFFFFFFFFFFFFFFFFFFFF AND SUB PUSH2 0xCE9 JUMPI PUSH1 0x40 MLOAD PUSH32 0x8C379A000000000000000000000000000000000000000000000000000000000 DUP2 MSTORE PUSH1 0x4 ADD PUSH2 0xCE0 SWAP1 PUSH2 0x19A8 JUMP JUMPDEST PUSH1 0x40 MLOAD DUP1 SWAP2 SUB SWAP1 REVERT JUMPDEST PUSH1 0x1 DUP1 SLOAD SWAP1 POP DUP5 PUSH1 0xFF AND LT PUSH2 0xD33 JUMPI PUSH1 0x40 MLOAD PUSH32 0x8C379A000000000000000000000000000000000000000000000000000000000 DUP2 MSTORE PUSH1 0x4 ADD PUSH2 0xD2A SWAP1 PUSH2 0x152A JUMP JUMPDEST PUSH1 0x40 MLOAD DUP1 SWAP2 SUB SWAP1 REVERT JUMPDEST PUSH0 PUSH1 0x1 DUP6 PUSH1 0xFF AND DUP2 SLOAD DUP2 LT PUSH2 0xD4B JUMPI PUSH2 0xD4A PUSH2 0x15A8 JUMP JUMPDEST JUMPDEST SWAP1 PUSH0 MSTORE PUSH1 0x20 PUSH0 KECCAK256 SWAP1 PUSH1 0x3 MUL ADD SWAP1 POP DUP4 DUP2 PUSH0 ADD SWAP1 DUP2 PUSH2 0xD69 SWAP2 SWAP1 PUSH2 0x19C6 JUMP JUMPDEST POP DUP3 DUP2 PUSH1 0x1 ADD SWAP1 DUP2 PUSH2 0xD7B SWAP2 SWAP1 PUSH2 0x19C6 JUMP JUMPDEST POP PUSH1 0x2 DUP2 PUSH1 0x2 ADD PUSH0 PUSH2 0x100 EXP DUP2 SLOAD DUP2 PUSH1 0xFF MUL NOT AND SWAP1 DUP4 PUSH1 0x3 DUP2 GT ISZERO PUSH2 0xDA3 JUMPI PUSH2 0xDA2 PUSH2 0x1130 JUMP JUMPDEST JUMPDEST MUL OR SWAP1 SSTORE POP PUSH32 0xB24501745F85FFF88CC582DF1223BF671A1234AB872711FFAA7EB8BD56FE311E DUP5 PUSH1 0x2 PUSH1 0x40 MLOAD PUSH2 0xDDA SWAP3 SWAP2 SWAP1 PUSH2 0x1A95 JUMP JUMPDEST PUSH1 0x40 MLOAD DUP1 SWAP2 SUB SWAP1 LOG1 PUSH1 0x1 SWAP2 POP POP SWAP4 SWAP3 POP POP POP JUMP JUMPDEST POP DUP1 SLOAD PUSH2 0xDFA SWAP1 PUSH2 0x1602 JUMP JUMPDEST PUSH0 DUP3 SSTORE DUP1 PUSH1 0x1F LT PUSH2 0xE0B JUMPI POP PUSH2 0xE28 JUMP JUMPDEST PUSH1 0x1F ADD PUSH1 0x20 SWAP1 DIV SWAP1 PUSH0 MSTORE PUSH1 0x20 PUSH0 KECCAK256 SWAP1 DUP2 ADD SWAP1 PUSH2 0xE27 SWAP2 SWAP1 PUSH2 0xE5D JUMP JUMPDEST JUMPDEST POP JUMP JUMPDEST PUSH1 0x40 MLOAD DUP1 PUSH1 0x60 ADD PUSH1 0x40 MSTORE DUP1 PUSH1 0x60 DUP2 MSTORE PUSH1 0x20 ADD PUSH1 0x60 DUP2 MSTORE PUSH1 0x20 ADD PUSH0 PUSH1 0x3 DUP2 GT ISZERO PUSH2 0xE57 JUMPI PUSH2 0xE56 PUSH2 0x1130 JUMP JUMPDEST JUMPDEST DUP2 MSTORE POP SWAP1 JUMP JUMPDEST JUMPDEST DUP1 DUP3 GT ISZERO PUSH2 0xE74 JUMPI PUSH0 DUP2 PUSH0 SWAP1 SSTORE POP PUSH1 0x1 ADD PUSH2 0xE5E JUMP JUMPDEST POP SWAP1 JUMP JUMPDEST PUSH0 PUSH1 0x40 MLOAD SWAP1 POP SWAP1 JUMP JUMPDEST PUSH0 DUP1 REVERT JUMPDEST PUSH0 DUP1 REVERT JUMPDEST PUSH0 PUSH2 0xFFFF DUP3 AND SWAP1 POP SWAP2 SWAP1 POP JUMP JUMPDEST PUSH2 0xE9F DUP2 PUSH2 0xE89 JUMP JUMPDEST DUP2 EQ PUSH2 0xEA9 JUMPI PUSH0 DUP1 REVERT JUMPDEST POP JUMP JUMPDEST PUSH0 DUP2 CALLDATALOAD SWAP1 POP PUSH2 0xEBA DUP2 PUSH2 0xE96 JUMP JUMPDEST SWAP3 SWAP2 POP POP JUMP JUMPDEST PUSH0 PUSH1 0x20 DUP3 DUP5 SUB SLT ISZERO PUSH2 0xED5 JUMPI PUSH2 0xED4 PUSH2 0xE81 JUMP JUMPDEST JUMPDEST PUSH0 PUSH2 0xEE2 DUP5 DUP3 DUP6 ADD PUSH2 0xEAC JUMP JUMPDEST SWAP2 POP POP SWAP3 SWAP2 POP POP JUMP JUMPDEST PUSH0 DUP1 REVERT JUMPDEST PUSH0 DUP1 REVERT JUMPDEST PUSH0 PUSH1 0x1F NOT PUSH1 0x1F DUP4 ADD AND SWAP1 POP SWAP2 SWAP1 POP JUMP JUMPDEST PUSH32 0x4E487B7100000000000000000000000000000000000000000000000000000000 PUSH0 MSTORE PUSH1 0x41 PUSH1 0x4 MSTORE PUSH1 0x24 PUSH0 REVERT JUMPDEST PUSH2 0xF39 DUP3 PUSH2 0xEF3 JUMP JUMPDEST DUP2 ADD DUP2 DUP2 LT PUSH8 0xFFFFFFFFFFFFFFFF DUP3 GT OR ISZERO PUSH2 0xF58 JUMPI PUSH2 0xF57 PUSH2 0xF03 JUMP JUMPDEST JUMPDEST DUP1 PUSH1 0x40 MSTORE POP POP POP JUMP JUMPDEST PUSH0 PUSH2 0xF6A PUSH2 0xE78 JUMP JUMPDEST SWAP1 POP PUSH2 0xF76 DUP3 DUP3 PUSH2 0xF30 JUMP JUMPDEST SWAP2 SWAP1 POP JUMP JUMPDEST PUSH0 PUSH8 0xFFFFFFFFFFFFFFFF DUP3 GT ISZERO PUSH2 0xF95 JUMPI PUSH2 0xF94 PUSH2 0xF03 JUMP JUMPDEST JUMPDEST PUSH2 0xF9E DUP3 PUSH2 0xEF3 JUMP JUMPDEST SWAP1 POP PUSH1 0x20 DUP2 ADD SWAP1 POP SWAP2 SWAP1 POP JUMP JUMPDEST DUP3 DUP2 DUP4 CALLDATACOPY PUSH0 DUP4 DUP4 ADD MSTORE POP POP POP JUMP JUMPDEST PUSH0 PUSH2 0xFCB PUSH2 0xFC6 DUP5 PUSH2 0xF7B JUMP JUMPDEST PUSH2 0xF61 JUMP JUMPDEST SWAP1 POP DUP3 DUP2 MSTORE PUSH1 0x20 DUP2 ADD DUP5 DUP5 DUP5 ADD GT ISZERO PUSH2 0xFE7 JUMPI PUSH2 0xFE6 PUSH2 0xEEF JUMP JUMPDEST JUMPDEST PUSH2 0xFF2 DUP5 DUP3 DUP6 PUSH2 0xFAB JUMP JUMPDEST POP SWAP4 SWAP3 POP POP POP JUMP JUMPDEST PUSH0 DUP3 PUSH1 0x1F DUP4 ADD SLT PUSH2 0x100E JUMPI PUSH2 0x100D PUSH2 0xEEB JUMP JUMPDEST JUMPDEST DUP2 CALLDATALOAD PUSH2 0x101E DUP5 DUP3 PUSH1 0x20 DUP7 ADD PUSH2 0xFB9 JUMP JUMPDEST SWAP2 POP POP SWAP3 SWAP2 POP POP JUMP JUMPDEST PUSH0 DUP1 PUSH1 0x40 DUP4 DUP6 SUB SLT ISZERO PUSH2 0x103D JUMPI PUSH2 0x103C PUSH2 0xE81 JUMP JUMPDEST JUMPDEST PUSH0 DUP4 ADD CALLDATALOAD PUSH8 0xFFFFFFFFFFFFFFFF DUP2 GT ISZERO PUSH2 0x105A JUMPI PUSH2 0x1059 PUSH2 0xE85 JUMP JUMPDEST JUMPDEST PUSH2 0x1066 DUP6 DUP3 DUP7 ADD PUSH2 0xFFA JUMP JUMPDEST SWAP3 POP POP PUSH1 0x20 DUP4 ADD CALLDATALOAD PUSH8 0xFFFFFFFFFFFFFFFF DUP2 GT ISZERO PUSH2 0x1087 JUMPI PUSH2 0x1086 PUSH2 0xE85 JUMP JUMPDEST JUMPDEST PUSH2 0x1093 DUP6 DUP3 DUP7 ADD PUSH2 0xFFA JUMP JUMPDEST SWAP2 POP POP SWAP3 POP SWAP3 SWAP1 POP JUMP JUMPDEST PUSH0 DUP2 ISZERO ISZERO SWAP1 POP SWAP2 SWAP1 POP JUMP JUMPDEST PUSH2 0x10B1 DUP2 PUSH2 0x109D JUMP JUMPDEST DUP3 MSTORE POP POP JUMP JUMPDEST PUSH0 PUSH1 0x20 DUP3 ADD SWAP1 POP PUSH2 0x10CA PUSH0 DUP4 ADD DUP5 PUSH2 0x10A8 JUMP JUMPDEST SWAP3 SWAP2 POP POP JUMP JUMPDEST PUSH0 DUP2 MLOAD SWAP1 POP SWAP2 SWAP1 POP JUMP JUMPDEST PUSH0 DUP3 DUP3 MSTORE PUSH1 0x20 DUP3 ADD SWAP1 POP SWAP3 SWAP2 POP POP JUMP JUMPDEST DUP3 DUP2 DUP4 MCOPY PUSH0 DUP4 DUP4 ADD MSTORE POP POP POP JUMP JUMPDEST PUSH0 PUSH2 0x1102 DUP3 PUSH2 0x10D0 JUMP JUMPDEST PUSH2 0x110C DUP2 DUP6 PUSH2 0x10DA JUMP JUMPDEST SWAP4 POP PUSH2 0x111C DUP2 DUP6 PUSH1 0x20 DUP7 ADD PUSH2 0x10EA JUMP JUMPDEST PUSH2 0x1125 DUP2 PUSH2 0xEF3 JUMP JUMPDEST DUP5 ADD SWAP2 POP POP SWAP3 SWAP2 POP POP JUMP JUMPDEST PUSH32 0x4E487B7100000000000000000000000000000000000000000000000000000000 PUSH0 MSTORE PUSH1 0x21 PUSH1 0x4 MSTORE PUSH1 0x24 PUSH0 REVERT JUMPDEST PUSH1 0x4 DUP2 LT PUSH2 0x116E JUMPI PUSH2 0x116D PUSH2 0x1130 JUMP JUMPDEST JUMPDEST POP JUMP JUMPDEST PUSH0 DUP2 SWAP1 POP PUSH2 0x117E DUP3 PUSH2 0x115D JUMP JUMPDEST SWAP2 SWAP1 POP JUMP JUMPDEST PUSH0 PUSH2 0x118D DUP3 PUSH2 0x1171 JUMP JUMPDEST SWAP1 POP SWAP2 SWAP1 POP JUMP JUMPDEST PUSH2 0x119D DUP2 PUSH2 0x1183 JUMP JUMPDEST DUP3 MSTORE POP POP JUMP JUMPDEST PUSH0 PUSH1 0x60 DUP3 ADD SWAP1 POP DUP2 DUP2 SUB PUSH0 DUP4 ADD MSTORE PUSH2 0x11BB DUP2 DUP7 PUSH2 0x10F8 JUMP JUMPDEST SWAP1 POP DUP2 DUP2 SUB PUSH1 0x20 DUP4 ADD MSTORE PUSH2 0x11CF DUP2 DUP6 PUSH2 0x10F8 JUMP JUMPDEST SWAP1 POP PUSH2 0x11DE PUSH1 0x40 DUP4 ADD DUP5 PUSH2 0x1194 JUMP JUMPDEST SWAP5 SWAP4 POP POP POP POP JUMP JUMPDEST PUSH0 PUSH20 0xFFFFFFFFFFFFFFFFFFFFFFFFFFFFFFFFFFFFFFFF DUP3 AND SWAP1 POP SWAP2 SWAP1 POP JUMP JUMPDEST PUSH0 PUSH2 0x120F DUP3 PUSH2 0x11E6 JUMP JUMPDEST SWAP1 POP SWAP2 SWAP1 POP JUMP JUMPDEST PUSH2 0x121F DUP2 PUSH2 0x1205 JUMP JUMPDEST DUP3 MSTORE POP POP JUMP JUMPDEST PUSH0 PUSH1 0x20 DUP3 ADD SWAP1 POP PUSH2 0x1238 PUSH0 DUP4 ADD DUP5 PUSH2 0x1216 JUMP JUMPDEST SWAP3 SWAP2 POP POP JUMP JUMPDEST PUSH0 DUP2 MLOAD SWAP1 POP SWAP2 SWAP1 POP JUMP JUMPDEST PUSH0 DUP3 DUP3 MSTORE PUSH1 0x20 DUP3 ADD SWAP1 POP SWAP3 SWAP2 POP POP JUMP JUMPDEST PUSH0 DUP2 SWAP1 POP PUSH1 0x20 DUP3 ADD SWAP1 POP SWAP2 SWAP1 POP JUMP JUMPDEST PUSH0 DUP3 DUP3 MSTORE PUSH1 0x20 DUP3 ADD SWAP1 POP SWAP3 SWAP2 POP POP JUMP JUMPDEST PUSH0 PUSH2 0x1281 DUP3 PUSH2 0x10D0 JUMP JUMPDEST PUSH2 0x128B DUP2 DUP6 PUSH2 0x1267 JUMP JUMPDEST SWAP4 POP PUSH2 0x129B DUP2 DUP6 PUSH1 0x20 DUP7 ADD PUSH2 0x10EA JUMP JUMPDEST PUSH2 0x12A4 DUP2 PUSH2 0xEF3 JUMP JUMPDEST DUP5 ADD SWAP2 POP POP SWAP3 SWAP2 POP POP JUMP JUMPDEST PUSH2 0x12B8 DUP2 PUSH2 0x1183 JUMP JUMPDEST DUP3 MSTORE POP POP JUMP JUMPDEST PUSH0 PUSH1 0x60 DUP4 ADD PUSH0 DUP4 ADD MLOAD DUP5 DUP3 SUB PUSH0 DUP7 ADD MSTORE PUSH2 0x12D8 DUP3 DUP3 PUSH2 0x1277 JUMP JUMPDEST SWAP2 POP POP PUSH1 0x20 DUP4 ADD MLOAD DUP5 DUP3 SUB PUSH1 0x20 DUP7 ADD MSTORE PUSH2 0x12F2 DUP3 DUP3 PUSH2 0x1277 JUMP JUMPDEST SWAP2 POP POP PUSH1 0x40 DUP4 ADD MLOAD PUSH2 0x1307 PUSH1 0x40 DUP7 ADD DUP3 PUSH2 0x12AF JUMP JUMPDEST POP DUP1 SWAP2 POP POP SWAP3 SWAP2 POP POP JUMP JUMPDEST PUSH0 PUSH2 0x131D DUP4 DUP4 PUSH2 0x12BE JUMP JUMPDEST SWAP1 POP SWAP3 SWAP2 POP POP JUMP JUMPDEST PUSH0 PUSH1 0x20 DUP3 ADD SWAP1 POP SWAP2 SWAP1 POP JUMP JUMPDEST PUSH0 PUSH2 0x133B DUP3 PUSH2 0x123E JUMP JUMPDEST PUSH2 0x1345 DUP2 DUP6 PUSH2 0x1248 JUMP JUMPDEST SWAP4 POP DUP4 PUSH1 0x20 DUP3 MUL DUP6 ADD PUSH2 0x1357 DUP6 PUSH2 0x1258 JUMP JUMPDEST DUP1 PUSH0 JUMPDEST DUP6 DUP2 LT ISZERO PUSH2 0x1392 JUMPI DUP5 DUP5 SUB DUP10 MSTORE DUP2 MLOAD PUSH2 0x1373 DUP6 DUP3 PUSH2 0x1312 JUMP JUMPDEST SWAP5 POP PUSH2 0x137E DUP4 PUSH2 0x1325 JUMP JUMPDEST SWAP3 POP PUSH1 0x20 DUP11 ADD SWAP10 POP POP PUSH1 0x1 DUP2 ADD SWAP1 POP PUSH2 0x135A JUMP JUMPDEST POP DUP3 SWAP8 POP DUP8 SWAP6 POP POP POP POP POP POP SWAP3 SWAP2 POP POP JUMP JUMPDEST PUSH0 PUSH1 0x20 DUP3 ADD SWAP1 POP DUP2 DUP2 SUB PUSH0 DUP4 ADD MSTORE PUSH2 0x13BC DUP2 DUP5 PUSH2 0x1331 JUMP JUMPDEST SWAP1 POP SWAP3 SWAP2 POP POP JUMP JUMPDEST PUSH0 DUP2 SWAP1 POP SWAP2 SWAP1 POP JUMP JUMPDEST PUSH2 0x13D6 DUP2 PUSH2 0x13C4 JUMP JUMPDEST DUP2 EQ PUSH2 0x13E0 JUMPI PUSH0 DUP1 REVERT JUMPDEST POP JUMP JUMPDEST PUSH0 DUP2 CALLDATALOAD SWAP1 POP PUSH2 0x13F1 DUP2 PUSH2 0x13CD JUMP JUMPDEST SWAP3 SWAP2 POP POP JUMP JUMPDEST PUSH0 PUSH1 0x20 DUP3 DUP5 SUB SLT ISZERO PUSH2 0x140C JUMPI PUSH2 0x140B PUSH2 0xE81 JUMP JUMPDEST JUMPDEST PUSH0 PUSH2 0x1419 DUP5 DUP3 DUP6 ADD PUSH2 0x13E3 JUMP JUMPDEST SWAP2 POP POP SWAP3 SWAP2 POP POP JUMP JUMPDEST PUSH0 PUSH1 0xFF DUP3 AND SWAP1 POP SWAP2 SWAP1 POP JUMP JUMPDEST PUSH2 0x1437 DUP2 PUSH2 0x1422 JUMP JUMPDEST DUP2 EQ PUSH2 0x1441 JUMPI PUSH0 DUP1 REVERT JUMPDEST POP JUMP JUMPDEST PUSH0 DUP2 CALLDATALOAD SWAP1 POP PUSH2 0x1452 DUP2 PUSH2 0x142E JUMP JUMPDEST SWAP3 SWAP2 POP POP JUMP JUMPDEST PUSH0 DUP1 PUSH0 PUSH1 0x60 DUP5 DUP7 SUB SLT ISZERO PUSH2 0x146F JUMPI PUSH2 0x146E PUSH2 0xE81 JUMP JUMPDEST JUMPDEST PUSH0 PUSH2 0x147C DUP7 DUP3 DUP8 ADD PUSH2 0x1444 JUMP JUMPDEST SWAP4 POP POP PUSH1 0x20 DUP5 ADD CALLDATALOAD PUSH8 0xFFFFFFFFFFFFFFFF DUP2 GT ISZERO PUSH2 0x149D JUMPI PUSH2 0x149C PUSH2 0xE85 JUMP JUMPDEST JUMPDEST PUSH2 0x14A9 DUP7 DUP3 DUP8 ADD PUSH2 0xFFA JUMP JUMPDEST SWAP3 POP POP PUSH1 0x40 DUP5 ADD CALLDATALOAD PUSH8 0xFFFFFFFFFFFFFFFF DUP2 GT ISZERO PUSH2 0x14CA JUMPI PUSH2 0x14C9 PUSH2 0xE85 JUMP JUMPDEST JUMPDEST PUSH2 0x14D6 DUP7 DUP3 DUP8 ADD PUSH2 0xFFA JUMP JUMPDEST SWAP2 POP POP SWAP3 POP SWAP3 POP SWAP3 JUMP JUMPDEST PUSH32 0x4F7574206F6620626F756E640000000000000000000000000000000000000000 PUSH0 DUP3 ADD MSTORE POP JUMP JUMPDEST PUSH0 PUSH2 0x1514 PUSH1 0xC DUP4 PUSH2 0x10DA JUMP JUMPDEST SWAP2 POP PUSH2 0x151F DUP3 PUSH2 0x14E0 JUMP JUMPDEST PUSH1 0x20 DUP3 ADD SWAP1 POP SWAP2 SWAP1 POP JUMP JUMPDEST PUSH0 PUSH1 0x20 DUP3 ADD SWAP1 POP DUP2 DUP2 SUB PUSH0 DUP4 ADD MSTORE PUSH2 0x1541 DUP2 PUSH2 0x1508 JUMP JUMPDEST SWAP1 POP SWAP2 SWAP1 POP JUMP JUMPDEST PUSH32 0x4E487B7100000000000000000000000000000000000000000000000000000000 PUSH0 MSTORE PUSH1 0x11 PUSH1 0x4 MSTORE PUSH1 0x24 PUSH0 REVERT JUMPDEST PUSH0 PUSH2 0x157F DUP3 PUSH2 0x13C4 JUMP JUMPDEST SWAP2 POP PUSH2 0x158A DUP4 PUSH2 0x13C4 JUMP JUMPDEST SWAP3 POP DUP3 DUP3 SUB SWAP1 POP DUP2 DUP2 GT ISZERO PUSH2 0x15A2 JUMPI PUSH2 0x15A1 PUSH2 0x1548 JUMP JUMPDEST JUMPDEST SWAP3 SWAP2 POP POP JUMP JUMPDEST PUSH32 0x4E487B7100000000000000000000000000000000000000000000000000000000 PUSH0 MSTORE PUSH1 0x32 PUSH1 0x4 MSTORE PUSH1 0x24 PUSH0 REVERT JUMPDEST PUSH32 0x4E487B7100000000000000000000000000000000000000000000000000000000 PUSH0 MSTORE PUSH1 0x22 PUSH1 0x4 MSTORE PUSH1 0x24 PUSH0 REVERT JUMPDEST PUSH0 PUSH1 0x2 DUP3 DIV SWAP1 POP PUSH1 0x1 DUP3 AND DUP1 PUSH2 0x1619 JUMPI PUSH1 0x7F DUP3 AND SWAP2 POP JUMPDEST PUSH1 0x20 DUP3 LT DUP2 SUB PUSH2 0x162C JUMPI PUSH2 0x162B PUSH2 0x15D5 JUMP JUMPDEST JUMPDEST POP SWAP2 SWAP1 POP JUMP JUMPDEST PUSH0 DUP2 SLOAD SWAP1 POP PUSH2 0x1640 DUP2 PUSH2 0x1602 JUMP JUMPDEST SWAP1 POP SWAP2 SWAP1 POP JUMP JUMPDEST PUSH0 DUP2 SWAP1 POP DUP2 PUSH0 MSTORE PUSH1 0x20 PUSH0 KECCAK256 SWAP1 POP SWAP2 SWAP1 POP JUMP JUMPDEST PUSH0 PUSH1 0x20 PUSH1 0x1F DUP4 ADD DIV SWAP1 POP SWAP2 SWAP1 POP JUMP JUMPDEST PUSH0 DUP3 DUP3 SHL SWAP1 POP SWAP3 SWAP2 POP POP JUMP JUMPDEST PUSH0 PUSH1 0x8 DUP4 MUL PUSH2 0x16A3 PUSH32 0xFFFFFFFFFFFFFFFFFFFFFFFFFFFFFFFFFFFFFFFFFFFFFFFFFFFFFFFFFFFFFFFF DUP3 PUSH2 0x1668 JUMP JUMPDEST PUSH2 0x16AD DUP7 DUP4 PUSH2 0x1668 JUMP JUMPDEST SWAP6 POP DUP1 NOT DUP5 AND SWAP4 POP DUP1 DUP7 AND DUP5 OR SWAP3 POP POP POP SWAP4 SWAP3 POP POP POP JUMP JUMPDEST PUSH0 DUP2 SWAP1 POP SWAP2 SWAP1 POP JUMP JUMPDEST PUSH0 PUSH2 0x16E8 PUSH2 0x16E3 PUSH2 0x16DE DUP5 PUSH2 0x13C4 JUMP JUMPDEST PUSH2 0x16C5 JUMP JUMPDEST PUSH2 0x13C4 JUMP JUMPDEST SWAP1 POP SWAP2 SWAP1 POP JUMP JUMPDEST PUSH0 DUP2 SWAP1 POP SWAP2 SWAP1 POP JUMP JUMPDEST PUSH2 0x1701 DUP4 PUSH2 0x16CE JUMP JUMPDEST PUSH2 0x1715 PUSH2 0x170D DUP3 PUSH2 0x16EF JUMP JUMPDEST DUP5 DUP5 SLOAD PUSH2 0x1674 JUMP JUMPDEST DUP3 SSTORE POP POP POP POP JUMP JUMPDEST PUSH0 SWAP1 JUMP JUMPDEST PUSH2 0x1729 PUSH2 0x171D JUMP JUMPDEST PUSH2 0x1734 DUP2 DUP5 DUP5 PUSH2 0x16F8 JUMP JUMPDEST POP POP POP JUMP JUMPDEST JUMPDEST DUP2 DUP2 LT ISZERO PUSH2 0x1757 JUMPI PUSH2 0x174C PUSH0 DUP3 PUSH2 0x1721 JUMP JUMPDEST PUSH1 0x1 DUP2 ADD SWAP1 POP PUSH2 0x173A JUMP JUMPDEST POP POP JUMP JUMPDEST PUSH1 0x1F DUP3 GT ISZERO PUSH2 0x179C JUMPI PUSH2 0x176D DUP2 PUSH2 0x1647 JUMP JUMPDEST PUSH2 0x1776 DUP5 PUSH2 0x1659 JUMP JUMPDEST DUP2 ADD PUSH1 0x20 DUP6 LT ISZERO PUSH2 0x1785 JUMPI DUP2 SWAP1 POP JUMPDEST PUSH2 0x1799 PUSH2 0x1791 DUP6 PUSH2 0x1659 JUMP JUMPDEST DUP4 ADD DUP3 PUSH2 0x1739 JUMP JUMPDEST POP POP JUMPDEST POP POP POP JUMP JUMPDEST PUSH0 DUP3 DUP3 SHR SWAP1 POP SWAP3 SWAP2 POP POP JUMP JUMPDEST PUSH0 PUSH2 0x17BC PUSH0 NOT DUP5 PUSH1 0x8 MUL PUSH2 0x17A1 JUMP JUMPDEST NOT DUP1 DUP4 AND SWAP2 POP POP SWAP3 SWAP2 POP POP JUMP JUMPDEST PUSH0 PUSH2 0x17D4 DUP4 DUP4 PUSH2 0x17AD JUMP JUMPDEST SWAP2 POP DUP3 PUSH1 0x2 MUL DUP3 OR SWAP1 POP SWAP3 SWAP2 POP POP JUMP JUMPDEST DUP2 DUP2 SUB PUSH2 0x17F2 JUMPI POP POP PUSH2 0x18C7 JUMP JUMPDEST PUSH2 0x17FB DUP3 PUSH2 0x1632 JUMP JUMPDEST PUSH8 0xFFFFFFFFFFFFFFFF DUP2 GT ISZERO PUSH2 0x1814 JUMPI PUSH2 0x1813 PUSH2 0xF03 JUMP JUMPDEST JUMPDEST PUSH2 0x181E DUP3 SLOAD PUSH2 0x1602 JUMP JUMPDEST PUSH2 0x1829 DUP3 DUP3 DUP6 PUSH2 0x175B JUMP JUMPDEST PUSH0 PUSH1 0x1F DUP4 GT PUSH1 0x1 DUP2 EQ PUSH2 0x1856 JUMPI PUSH0 DUP5 ISZERO PUSH2 0x1844 JUMPI DUP3 DUP8 ADD SLOAD SWAP1 POP JUMPDEST PUSH2 0x184E DUP6 DUP3 PUSH2 0x17C9 JUMP JUMPDEST DUP7 SSTORE POP PUSH2 0x18C0 JUMP JUMPDEST PUSH1 0x1F NOT DUP5 AND PUSH2 0x1864 DUP8 PUSH2 0x1647 JUMP JUMPDEST SWAP7 POP PUSH2 0x186F DUP7 PUSH2 0x1647 JUMP JUMPDEST PUSH0 JUMPDEST DUP3 DUP2 LT ISZERO PUSH2 0x1896 JUMPI DUP5 DUP10 ADD SLOAD DUP3 SSTORE PUSH1 0x1 DUP3 ADD SWAP2 POP PUSH1 0x1 DUP6 ADD SWAP5 POP PUSH1 0x20 DUP2 ADD SWAP1 POP PUSH2 0x1871 JUMP JUMPDEST DUP7 DUP4 LT ISZERO PUSH2 0x18B3 JUMPI DUP5 DUP10 ADD SLOAD PUSH2 0x18AF PUSH1 0x1F DUP10 AND DUP3 PUSH2 0x17AD JUMP JUMPDEST DUP4 SSTORE POP JUMPDEST PUSH1 0x1 PUSH1 0x2 DUP9 MUL ADD DUP9 SSTORE POP POP POP JUMPDEST POP POP POP POP POP POP JUMPDEST JUMP JUMPDEST PUSH32 0x4E487B7100000000000000000000000000000000000000000000000000000000 PUSH0 MSTORE PUSH1 0x31 PUSH1 0x4 MSTORE PUSH1 0x24 PUSH0 REVERT JUMPDEST PUSH32 0x596F75277265206E6F7420616C6C6F7765640000000000000000000000000000 PUSH0 DUP3 ADD MSTORE POP JUMP JUMPDEST PUSH0 PUSH2 0x192A PUSH1 0x12 DUP4 PUSH2 0x10DA JUMP JUMPDEST SWAP2 POP PUSH2 0x1935 DUP3 PUSH2 0x18F6 JUMP JUMPDEST PUSH1 0x20 DUP3 ADD SWAP1 POP SWAP2 SWAP1 POP JUMP JUMPDEST PUSH0 PUSH1 0x20 DUP3 ADD SWAP1 POP DUP2 DUP2 SUB PUSH0 DUP4 ADD MSTORE PUSH2 0x1957 DUP2 PUSH2 0x191E JUMP JUMPDEST SWAP1 POP SWAP2 SWAP1 POP JUMP JUMPDEST PUSH32 0x5A65726F2041646472657373206E6F7420616C6C6F7765640000000000000000 PUSH0 DUP3 ADD MSTORE POP JUMP JUMPDEST PUSH0 PUSH2 0x1992 PUSH1 0x18 DUP4 PUSH2 0x10DA JUMP JUMPDEST SWAP2 POP PUSH2 0x199D DUP3 PUSH2 0x195E JUMP JUMPDEST PUSH1 0x20 DUP3 ADD SWAP1 POP SWAP2 SWAP1 POP JUMP JUMPDEST PUSH0 PUSH1 0x20 DUP3 ADD SWAP1 POP DUP2 DUP2 SUB PUSH0 DUP4 ADD MSTORE PUSH2 0x19BF DUP2 PUSH2 0x1986 JUMP JUMPDEST SWAP1 POP SWAP2 SWAP1 POP JUMP JUMPDEST PUSH2 0x19CF DUP3 PUSH2 0x10D0 JUMP JUMPDEST PUSH8 0xFFFFFFFFFFFFFFFF DUP2 GT ISZERO PUSH2 0x19E8 JUMPI PUSH2 0x19E7 PUSH2 0xF03 JUMP JUMPDEST JUMPDEST PUSH2 0x19F2 DUP3 SLOAD PUSH2 0x1602 JUMP JUMPDEST PUSH2 0x19FD DUP3 DUP3 DUP6 PUSH2 0x175B JUMP JUMPDEST PUSH0 PUSH1 0x20 SWAP1 POP PUSH1 0x1F DUP4 GT PUSH1 0x1 DUP2 EQ PUSH2 0x1A2E JUMPI PUSH0 DUP5 ISZERO PUSH2 0x1A1C JUMPI DUP3 DUP8 ADD MLOAD SWAP1 POP JUMPDEST PUSH2 0x1A26 DUP6 DUP3 PUSH2 0x17C9 JUMP JUMPDEST DUP7 SSTORE POP PUSH2 0x1A8D JUMP JUMPDEST PUSH1 0x1F NOT DUP5 AND PUSH2 0x1A3C DUP7 PUSH2 0x1647 JUMP JUMPDEST PUSH0 JUMPDEST DUP3 DUP2 LT ISZERO PUSH2 0x1A63 JUMPI DUP5 DUP10 ADD MLOAD DUP3 SSTORE PUSH1 0x1 DUP3 ADD SWAP2 POP PUSH1 0x20 DUP6 ADD SWAP5 POP PUSH1 0x20 DUP2 ADD SWAP1 POP PUSH2 0x1A3E JUMP JUMPDEST DUP7 DUP4 LT ISZERO PUSH2 0x1A80 JUMPI DUP5 DUP10 ADD MLOAD PUSH2 0x1A7C PUSH1 0x1F DUP10 AND DUP3 PUSH2 0x17AD JUMP JUMPDEST DUP4 SSTORE POP JUMPDEST PUSH1 0x1 PUSH1 0x2 DUP9 MUL ADD DUP9 SSTORE POP POP POP JUMPDEST POP POP POP POP POP POP JUMP JUMPDEST PUSH0 PUSH1 0x40 DUP3 ADD SWAP1 POP DUP2 DUP2 SUB PUSH0 DUP4 ADD MSTORE PUSH2 0x1AAD DUP2 DUP6 PUSH2 0x10F8 JUMP JUMPDEST SWAP1 POP PUSH2 0x1ABC PUSH1 0x20 DUP4 ADD DUP5 PUSH2 0x1194 JUMP JUMPDEST SWAP4 SWAP3 POP POP POP JUMP INVALID LOG2 PUSH5 0x6970667358 0x22 SLT KECCAK256 0xCE 0xAA GT SIGNEXTEND JUMP KECCAK256 PUSH16 0x7AC527C4FF30CE7F21F1683C3E77D3E8 BYTE PUSH25 0xFA4B46B8EDA36D64736F6C634300081A003300000000000000 "
				},
				"gasEstimates": {
					"creation": {
						"codeDepositCost": "1381000",
						"executionCost": "25701",
						"totalCost": "1406701"
					},
					"external": {
						"createTodo(string,string)": "infinite",
						"deleteTodo(uint16)": "infinite",
						"getAllTodo()": "infinite",
						"getTodo(uint16)": "infinite",
						"owner()": "2572",
						"todoComplete(uint16)": "31465",
						"todos(uint256)": "infinite",
						"updateTodo(uint8,string,string)": "infinite"
					}
				},
				"methodIdentifiers": {
					"createTodo(string,string)": "3380b99f",
					"deleteTodo(uint16)": "16b0fac8",
					"getAllTodo()": "982abb89",
					"getTodo(uint16)": "3c734648",
					"owner()": "8da5cb5b",
					"todoComplete(uint16)": "b12080fa",
					"todos(uint256)": "bc8bc2b4",
					"updateTodo(uint8,string,string)": "e9505164"
				}
			},
			"storageLayout": {
				"storage": [
					{
						"astId": 3,
						"contract": "contracts/Todo.sol:TodoList",
						"label": "owner",
						"offset": 0,
						"slot": "0",
						"type": "t_address"
					},
					{
						"astId": 20,
						"contract": "contracts/Todo.sol:TodoList",
						"label": "todos",
						"offset": 0,
						"slot": "1",
						"type": "t_array(t_struct(Todo)16_storage)dyn_storage"
					}
				],
				"types": {
					"t_address": {
						"encoding": "inplace",
						"label": "address",
						"numberOfBytes": "20"
					},
					"t_array(t_struct(Todo)16_storage)dyn_storage": {
						"base": "t_struct(Todo)16_storage",
						"encoding": "dynamic_array",
						"label": "struct TodoList.Todo[]",
						"numberOfBytes": "32"
					},
					"t_enum(Status)8": {
						"encoding": "inplace",
						"label": "enum TodoList.Status",
						"numberOfBytes": "1"
					},
					"t_string_storage": {
						"encoding": "bytes",
						"label": "string",
						"numberOfBytes": "32"
					},
					"t_struct(Todo)16_storage": {
						"encoding": "inplace",
						"label": "struct TodoList.Todo",
						"members": [
							{
								"astId": 10,
								"contract": "contracts/Todo.sol:TodoList",
								"label": "title",
								"offset": 0,
								"slot": "0",
								"type": "t_string_storage"
							},
							{
								"astId": 12,
								"contract": "contracts/Todo.sol:TodoList",
								"label": "description",
								"offset": 0,
								"slot": "1",
								"type": "t_string_storage"
							},
							{
								"astId": 15,
								"contract": "contracts/Todo.sol:TodoList",
								"label": "status",
								"offset": 0,
								"slot": "2",
								"type": "t_enum(Status)8"
							}
						],
						"numberOfBytes": "96"
					}
				}
			},
			"userdoc": {
				"kind": "user",
				"methods": {},
				"version": 1
			}
		}
	}
}