{
	"contracts/Stake.sol": {
		"stakeXFI": {
			"abi": [
				{
					"inputs": [
						{
							"internalType": "address",
							"name": "_xfiAddress",
							"type": "address"
						},
						{
							"internalType": "address",
							"name": "_mpxAddress",
							"type": "address"
						}
					],
					"stateMutability": "nonpayable",
					"type": "constructor"
				},
				{
					"anonymous": false,
					"inputs": [
						{
							"indexed": true,
							"internalType": "address",
							"name": "staker",
							"type": "address"
						},
						{
							"indexed": false,
							"internalType": "uint256",
							"name": "amount",
							"type": "uint256"
						},
						{
							"indexed": true,
							"internalType": "uint256",
							"name": "startTime",
							"type": "uint256"
						}
					],
					"name": "DepositSuccessful",
					"type": "event"
				},
				{
					"anonymous": false,
					"inputs": [
						{
							"indexed": true,
							"internalType": "address",
							"name": "previousOwner",
							"type": "address"
						},
						{
							"indexed": true,
							"internalType": "address",
							"name": "newOwner",
							"type": "address"
						}
					],
					"name": "OwnershipTransfered",
					"type": "event"
				},
				{
					"anonymous": false,
					"inputs": [
						{
							"indexed": true,
							"internalType": "address",
							"name": "staker",
							"type": "address"
						},
						{
							"indexed": false,
							"internalType": "uint256",
							"name": "amount",
							"type": "uint256"
						},
						{
							"indexed": true,
							"internalType": "uint256",
							"name": "reward",
							"type": "uint256"
						}
					],
					"name": "WithdrawalSuccessful",
					"type": "event"
				},
				{
					"inputs": [],
					"name": "MPXContract",
					"outputs": [
						{
							"internalType": "contract IERC20",
							"name": "",
							"type": "address"
						}
					],
					"stateMutability": "view",
					"type": "function"
				},
				{
					"inputs": [],
					"name": "XFIContract",
					"outputs": [
						{
							"internalType": "contract IERC20",
							"name": "",
							"type": "address"
						}
					],
					"stateMutability": "view",
					"type": "function"
				},
				{
					"inputs": [],
					"name": "claimOwnership",
					"outputs": [],
					"stateMutability": "nonpayable",
					"type": "function"
				},
				{
					"inputs": [],
					"name": "getContractMPXBalance",
					"outputs": [
						{
							"internalType": "uint256",
							"name": "",
							"type": "uint256"
						}
					],
					"stateMutability": "view",
					"type": "function"
				},
				{
					"inputs": [],
					"name": "getContractXFIBalance",
					"outputs": [
						{
							"internalType": "uint256",
							"name": "",
							"type": "uint256"
						}
					],
					"stateMutability": "view",
					"type": "function"
				},
				{
					"inputs": [
						{
							"internalType": "uint8",
							"name": "_index",
							"type": "uint8"
						}
					],
					"name": "getStakerInfo",
					"outputs": [
						{
							"components": [
								{
									"internalType": "uint256",
									"name": "amount",
									"type": "uint256"
								},
								{
									"internalType": "uint256",
									"name": "startTime",
									"type": "uint256"
								},
								{
									"internalType": "uint256",
									"name": "duration",
									"type": "uint256"
								},
								{
									"internalType": "bool",
									"name": "hasWithdraw",
									"type": "bool"
								}
							],
							"internalType": "struct stakeXFI.Staking",
							"name": "",
							"type": "tuple"
						}
					],
					"stateMutability": "view",
					"type": "function"
				},
				{
					"inputs": [
						{
							"internalType": "uint256",
							"name": "_amount",
							"type": "uint256"
						},
						{
							"internalType": "uint256",
							"name": "_duration",
							"type": "uint256"
						}
					],
					"name": "stake",
					"outputs": [],
					"stateMutability": "nonpayable",
					"type": "function"
				},
				{
					"inputs": [
						{
							"internalType": "address",
							"name": "_newOwner",
							"type": "address"
						}
					],
					"name": "transferOwnership",
					"outputs": [],
					"stateMutability": "nonpayable",
					"type": "function"
				},
				{
					"inputs": [
						{
							"internalType": "uint256",
							"name": "_index",
							"type": "uint256"
						}
					],
					"name": "withdrawStake",
					"outputs": [
						{
							"internalType": "bool",
							"name": "",
							"type": "bool"
						}
					],
					"stateMutability": "nonpayable",
					"type": "function"
				}
			],
			"devdoc": {
				"kind": "dev",
				"methods": {},
				"version": 1
			},
			"evm": {
				"assembly": "    /* \"contracts/Stake.sol\":87:4657  contract stakeXFI{... */\n  mstore(0x40, 0xc0)\n    /* \"contracts/Stake.sol\":310:326  1_000 * (10**18) */\n  0x3635c9adc5dea00000\n    /* \"contracts/Stake.sol\":269:326  uint256 immutable MINIMUM_STAKE_AMOUNT = 1_000 * (10**18) */\n  0x80\n  swap1\n  dup2\n  mstore\n  pop\n    /* \"contracts/Stake.sol\":374:392  100_000 * (10**18) */\n  0x152d02c7e14af6800000\n    /* \"contracts/Stake.sol\":333:392  uint256 immutable MAXIMUM_STAKE_AMOUNT = 100_000 * (10**18) */\n  0xa0\n  swap1\n  dup2\n  mstore\n  pop\n    /* \"contracts/Stake.sol\":651:839  constructor(address _xfiAddress, address _mpxAddress){... */\n  callvalue\n  dup1\n  iszero\n  tag_1\n  jumpi\n  revert(0x00, 0x00)\ntag_1:\n  pop\n  mload(0x40)\n  sub(codesize, bytecodeSize)\n  dup1\n  bytecodeSize\n  dup4\n  codecopy\n  dup2\n  dup2\n  add\n  0x40\n  mstore\n  dup2\n  add\n  swap1\n  tag_2\n  swap2\n  swap1\n  tag_3\n  jump\t// in\ntag_2:\n    /* \"contracts/Stake.sol\":736:747  _xfiAddress */\n  dup2\n    /* \"contracts/Stake.sol\":715:726  XFIContract */\n  0x00\n  0x00\n    /* \"contracts/Stake.sol\":715:748  XFIContract = IERC20(_xfiAddress) */\n  0x0100\n  exp\n  dup2\n  sload\n  dup2\n  0xffffffffffffffffffffffffffffffffffffffff\n  mul\n  not\n  and\n  swap1\n  dup4\n  0xffffffffffffffffffffffffffffffffffffffff\n  and\n  mul\n  or\n  swap1\n  sstore\n  pop\n    /* \"contracts/Stake.sol\":780:791  _mpxAddress */\n  dup1\n    /* \"contracts/Stake.sol\":759:770  MPXContract */\n  0x01\n  0x00\n    /* \"contracts/Stake.sol\":759:792  MPXContract = IERC20(_mpxAddress) */\n  0x0100\n  exp\n  dup2\n  sload\n  dup2\n  0xffffffffffffffffffffffffffffffffffffffff\n  mul\n  not\n  and\n  swap1\n  dup4\n  0xffffffffffffffffffffffffffffffffffffffff\n  and\n  mul\n  or\n  swap1\n  sstore\n  pop\n    /* \"contracts/Stake.sol\":821:831  msg.sender */\n  caller\n    /* \"contracts/Stake.sol\":813:818  owner */\n  0x02\n  0x00\n    /* \"contracts/Stake.sol\":813:831  owner = msg.sender */\n  0x0100\n  exp\n  dup2\n  sload\n  dup2\n  0xffffffffffffffffffffffffffffffffffffffff\n  mul\n  not\n  and\n  swap1\n  dup4\n  0xffffffffffffffffffffffffffffffffffffffff\n  and\n  mul\n  or\n  swap1\n  sstore\n  pop\n    /* \"contracts/Stake.sol\":651:839  constructor(address _xfiAddress, address _mpxAddress){... */\n  pop\n  pop\n    /* \"contracts/Stake.sol\":87:4657  contract stakeXFI{... */\n  jump(tag_6)\n    /* \"#utility.yul\":88:205   */\ntag_8:\n    /* \"#utility.yul\":197:198   */\n  0x00\n    /* \"#utility.yul\":194:195   */\n  0x00\n    /* \"#utility.yul\":187:199   */\n  revert\n    /* \"#utility.yul\":334:460   */\ntag_10:\n    /* \"#utility.yul\":371:378   */\n  0x00\n    /* \"#utility.yul\":411:453   */\n  0xffffffffffffffffffffffffffffffffffffffff\n    /* \"#utility.yul\":404:409   */\n  dup3\n    /* \"#utility.yul\":400:454   */\n  and\n    /* \"#utility.yul\":389:454   */\n  swap1\n  pop\n    /* \"#utility.yul\":334:460   */\n  swap2\n  swap1\n  pop\n  jump\t// out\n    /* \"#utility.yul\":466:562   */\ntag_11:\n    /* \"#utility.yul\":503:510   */\n  0x00\n    /* \"#utility.yul\":532:556   */\n  tag_20\n    /* \"#utility.yul\":550:555   */\n  dup3\n    /* \"#utility.yul\":532:556   */\n  tag_10\n  jump\t// in\ntag_20:\n    /* \"#utility.yul\":521:556   */\n  swap1\n  pop\n    /* \"#utility.yul\":466:562   */\n  swap2\n  swap1\n  pop\n  jump\t// out\n    /* \"#utility.yul\":568:690   */\ntag_12:\n    /* \"#utility.yul\":641:665   */\n  tag_22\n    /* \"#utility.yul\":659:664   */\n  dup2\n    /* \"#utility.yul\":641:665   */\n  tag_11\n  jump\t// in\ntag_22:\n    /* \"#utility.yul\":634:639   */\n  dup2\n    /* \"#utility.yul\":631:666   */\n  eq\n    /* \"#utility.yul\":621:684   */\n  tag_23\n  jumpi\n    /* \"#utility.yul\":680:681   */\n  0x00\n    /* \"#utility.yul\":677:678   */\n  0x00\n    /* \"#utility.yul\":670:682   */\n  revert\n    /* \"#utility.yul\":621:684   */\ntag_23:\n    /* \"#utility.yul\":568:690   */\n  pop\n  jump\t// out\n    /* \"#utility.yul\":696:839   */\ntag_13:\n    /* \"#utility.yul\":753:758   */\n  0x00\n    /* \"#utility.yul\":784:790   */\n  dup2\n    /* \"#utility.yul\":778:791   */\n  mload\n    /* \"#utility.yul\":769:791   */\n  swap1\n  pop\n    /* \"#utility.yul\":800:833   */\n  tag_25\n    /* \"#utility.yul\":827:832   */\n  dup2\n    /* \"#utility.yul\":800:833   */\n  tag_12\n  jump\t// in\ntag_25:\n    /* \"#utility.yul\":696:839   */\n  swap3\n  swap2\n  pop\n  pop\n  jump\t// out\n    /* \"#utility.yul\":845:1352   */\ntag_3:\n    /* \"#utility.yul\":924:930   */\n  0x00\n    /* \"#utility.yul\":932:938   */\n  0x00\n    /* \"#utility.yul\":981:983   */\n  0x40\n    /* \"#utility.yul\":969:978   */\n  dup4\n    /* \"#utility.yul\":960:967   */\n  dup6\n    /* \"#utility.yul\":956:979   */\n  sub\n    /* \"#utility.yul\":952:984   */\n  slt\n    /* \"#utility.yul\":949:1068   */\n  iszero\n  tag_27\n  jumpi\n    /* \"#utility.yul\":987:1066   */\n  tag_28\n  tag_8\n  jump\t// in\ntag_28:\n    /* \"#utility.yul\":949:1068   */\ntag_27:\n    /* \"#utility.yul\":1107:1108   */\n  0x00\n    /* \"#utility.yul\":1132:1196   */\n  tag_29\n    /* \"#utility.yul\":1188:1195   */\n  dup6\n    /* \"#utility.yul\":1179:1185   */\n  dup3\n    /* \"#utility.yul\":1168:1177   */\n  dup7\n    /* \"#utility.yul\":1164:1186   */\n  add\n    /* \"#utility.yul\":1132:1196   */\n  tag_13\n  jump\t// in\ntag_29:\n    /* \"#utility.yul\":1122:1196   */\n  swap3\n  pop\n    /* \"#utility.yul\":1078:1206   */\n  pop\n    /* \"#utility.yul\":1245:1247   */\n  0x20\n    /* \"#utility.yul\":1271:1335   */\n  tag_30\n    /* \"#utility.yul\":1327:1334   */\n  dup6\n    /* \"#utility.yul\":1318:1324   */\n  dup3\n    /* \"#utility.yul\":1307:1316   */\n  dup7\n    /* \"#utility.yul\":1303:1325   */\n  add\n    /* \"#utility.yul\":1271:1335   */\n  tag_13\n  jump\t// in\ntag_30:\n    /* \"#utility.yul\":1261:1335   */\n  swap2\n  pop\n    /* \"#utility.yul\":1216:1345   */\n  pop\n    /* \"#utility.yul\":845:1352   */\n  swap3\n  pop\n  swap3\n  swap1\n  pop\n  jump\t// out\n    /* \"contracts/Stake.sol\":87:4657  contract stakeXFI{... */\ntag_6:\n  mload(0x80)\n  mload(0xa0)\n  codecopy(0x00, dataOffset(sub_0), dataSize(sub_0))\n  0x00\n  assignImmutable(\"0xc41c8390c0da0418b7667ee0df6c246c26c4be6c0618368dce5a916e8008b0db\")\n  0x00\n  assignImmutable(\"0x4393e7114eb674248a1480712950c28cb06e118e040859a2eafa3ca8a6dfbd69\")\n  return(0x00, dataSize(sub_0))\nstop\n\nsub_0: assembly {\n        /* \"contracts/Stake.sol\":87:4657  contract stakeXFI{... */\n      mstore(0x40, 0x80)\n      callvalue\n      dup1\n      iszero\n      tag_1\n      jumpi\n      revert(0x00, 0x00)\n    tag_1:\n      pop\n      jumpi(tag_2, lt(calldatasize, 0x04))\n      shr(0xe0, calldataload(0x00))\n      dup1\n      0x7b0472f0\n      gt\n      tag_12\n      jumpi\n      dup1\n      0x7b0472f0\n      eq\n      tag_7\n      jumpi\n      dup1\n      0x9be2f4ed\n      eq\n      tag_8\n      jumpi\n      dup1\n      0xdede8ef6\n      eq\n      tag_9\n      jumpi\n      dup1\n      0xefbabd91\n      eq\n      tag_10\n      jumpi\n      dup1\n      0xf2fde38b\n      eq\n      tag_11\n      jumpi\n      jump(tag_2)\n    tag_12:\n      dup1\n      0x25d5971f\n      eq\n      tag_3\n      jumpi\n      dup1\n      0x4e71e0c8\n      eq\n      tag_4\n      jumpi\n      dup1\n      0x6d6e31f7\n      eq\n      tag_5\n      jumpi\n      dup1\n      0x74b28101\n      eq\n      tag_6\n      jumpi\n    tag_2:\n      revert(0x00, 0x00)\n        /* \"contracts/Stake.sol\":2300:3180  function withdrawStake(uint256 _index) external reentrancyGuard returns (bool){... */\n    tag_3:\n      tag_13\n      0x04\n      dup1\n      calldatasize\n      sub\n      dup2\n      add\n      swap1\n      tag_14\n      swap2\n      swap1\n      tag_15\n      jump\t// in\n    tag_14:\n      tag_16\n      jump\t// in\n    tag_13:\n      mload(0x40)\n      tag_17\n      swap2\n      swap1\n      tag_18\n      jump\t// in\n    tag_17:\n      mload(0x40)\n      dup1\n      swap2\n      sub\n      swap1\n      return\n        /* \"contracts/Stake.sol\":4043:4343  function claimOwnership() external {... */\n    tag_4:\n      tag_19\n      tag_20\n      jump\t// in\n    tag_19:\n      stop\n        /* \"contracts/Stake.sol\":3188:3507  function getStakerInfo(uint8 _index) external view returns(Staking memory){... */\n    tag_5:\n      tag_21\n      0x04\n      dup1\n      calldatasize\n      sub\n      dup2\n      add\n      swap1\n      tag_22\n      swap2\n      swap1\n      tag_23\n      jump\t// in\n    tag_22:\n      tag_24\n      jump\t// in\n    tag_21:\n      mload(0x40)\n      tag_25\n      swap2\n      swap1\n      tag_26\n      jump\t// in\n    tag_25:\n      mload(0x40)\n      dup1\n      swap2\n      sub\n      swap1\n      return\n        /* \"contracts/Stake.sol\":111:136  IERC20 public XFIContract */\n    tag_6:\n      tag_27\n      tag_28\n      jump\t// in\n    tag_27:\n      mload(0x40)\n      tag_29\n      swap2\n      swap1\n      tag_30\n      jump\t// in\n    tag_29:\n      mload(0x40)\n      dup1\n      swap2\n      sub\n      swap1\n      return\n        /* \"contracts/Stake.sol\":1389:2290  function stake(uint256 _amount, uint256 _duration) external reentrancyGuard {... */\n    tag_7:\n      tag_31\n      0x04\n      dup1\n      calldatasize\n      sub\n      dup2\n      add\n      swap1\n      tag_32\n      swap2\n      swap1\n      tag_33\n      jump\t// in\n    tag_32:\n      tag_34\n      jump\t// in\n    tag_31:\n      stop\n        /* \"contracts/Stake.sol\":143:168  IERC20 public MPXContract */\n    tag_8:\n      tag_35\n      tag_36\n      jump\t// in\n    tag_35:\n      mload(0x40)\n      tag_37\n      swap2\n      swap1\n      tag_30\n      jump\t// in\n    tag_37:\n      mload(0x40)\n      dup1\n      swap2\n      sub\n      swap1\n      return\n        /* \"contracts/Stake.sol\":3515:3679  function getContractXFIBalance() external onlyOwner view returns (uint256){... */\n    tag_9:\n      tag_38\n      tag_39\n      jump\t// in\n    tag_38:\n      mload(0x40)\n      tag_40\n      swap2\n      swap1\n      tag_41\n      jump\t// in\n    tag_40:\n      mload(0x40)\n      dup1\n      swap2\n      sub\n      swap1\n      return\n        /* \"contracts/Stake.sol\":3687:3851  function getContractMPXBalance() external onlyOwner view returns (uint256){... */\n    tag_10:\n      tag_42\n      tag_43\n      jump\t// in\n    tag_42:\n      mload(0x40)\n      tag_44\n      swap2\n      swap1\n      tag_41\n      jump\t// in\n    tag_44:\n      mload(0x40)\n      dup1\n      swap2\n      sub\n      swap1\n      return\n        /* \"contracts/Stake.sol\":3859:4035  function transferOwnership(address _newOwner) external onlyOwner{... */\n    tag_11:\n      tag_45\n      0x04\n      dup1\n      calldatasize\n      sub\n      dup2\n      add\n      swap1\n      tag_46\n      swap2\n      swap1\n      tag_47\n      jump\t// in\n    tag_46:\n      tag_48\n      jump\t// in\n    tag_45:\n      stop\n        /* \"contracts/Stake.sol\":2300:3180  function withdrawStake(uint256 _index) external reentrancyGuard returns (bool){... */\n    tag_16:\n        /* \"contracts/Stake.sol\":2373:2377  bool */\n      0x00\n        /* \"contracts/Stake.sol\":1278:1284  locked */\n      0x03\n      0x14\n      swap1\n      sload\n      swap1\n      0x0100\n      exp\n      swap1\n      div\n      0xff\n      and\n        /* \"contracts/Stake.sol\":1277:1284  !locked */\n      iszero\n        /* \"contracts/Stake.sol\":1269:1312  require(!locked, \"Not allowed to re_enter\") */\n      tag_50\n      jumpi\n      mload(0x40)\n      0x08c379a000000000000000000000000000000000000000000000000000000000\n      dup2\n      mstore\n      0x04\n      add\n      tag_51\n      swap1\n      tag_52\n      jump\t// in\n    tag_51:\n      mload(0x40)\n      dup1\n      swap2\n      sub\n      swap1\n      revert\n    tag_50:\n        /* \"contracts/Stake.sol\":1332:1336  true */\n      0x01\n        /* \"contracts/Stake.sol\":1323:1329  locked */\n      0x03\n      0x14\n        /* \"contracts/Stake.sol\":1323:1336  locked = true */\n      0x0100\n      exp\n      dup2\n      sload\n      dup2\n      0xff\n      mul\n      not\n      and\n      swap1\n      dup4\n      iszero\n      iszero\n      mul\n      or\n      swap1\n      sstore\n      pop\n        /* \"contracts/Stake.sol\":2419:2420  0 */\n      0x00\n        /* \"contracts/Stake.sol\":2397:2421  msg.sender != address(0) */\n      0xffffffffffffffffffffffffffffffffffffffff\n      and\n        /* \"contracts/Stake.sol\":2397:2407  msg.sender */\n      caller\n        /* \"contracts/Stake.sol\":2397:2421  msg.sender != address(0) */\n      0xffffffffffffffffffffffffffffffffffffffff\n      and\n      sub\n        /* \"contracts/Stake.sol\":2389:2450  require(msg.sender != address(0), \"Zero address not allowed\") */\n      tag_54\n      jumpi\n      mload(0x40)\n      0x08c379a000000000000000000000000000000000000000000000000000000000\n      dup2\n      mstore\n      0x04\n      add\n      tag_55\n      swap1\n      tag_56\n      jump\t// in\n    tag_55:\n      mload(0x40)\n      dup1\n      swap2\n      sub\n      swap1\n      revert\n    tag_54:\n        /* \"contracts/Stake.sol\":2480:2487  stakers */\n      0x04\n        /* \"contracts/Stake.sol\":2480:2499  stakers[msg.sender] */\n      0x00\n        /* \"contracts/Stake.sol\":2488:2498  msg.sender */\n      caller\n        /* \"contracts/Stake.sol\":2480:2499  stakers[msg.sender] */\n      0xffffffffffffffffffffffffffffffffffffffff\n      and\n      0xffffffffffffffffffffffffffffffffffffffff\n      and\n      dup2\n      mstore\n      0x20\n      add\n      swap1\n      dup2\n      mstore\n      0x20\n      add\n      0x00\n      keccak256\n        /* \"contracts/Stake.sol\":2480:2506  stakers[msg.sender].length */\n      dup1\n      sload\n      swap1\n      pop\n        /* \"contracts/Stake.sol\":2471:2477  _index */\n      dup3\n        /* \"contracts/Stake.sol\":2471:2506  _index < stakers[msg.sender].length */\n      lt\n        /* \"contracts/Stake.sol\":2463:2523  require(_index < stakers[msg.sender].length, \"Out of range\") */\n      tag_57\n      jumpi\n      mload(0x40)\n      0x08c379a000000000000000000000000000000000000000000000000000000000\n      dup2\n      mstore\n      0x04\n      add\n      tag_58\n      swap1\n      tag_59\n      jump\t// in\n    tag_58:\n      mload(0x40)\n      dup1\n      swap2\n      sub\n      swap1\n      revert\n    tag_57:\n        /* \"contracts/Stake.sol\":2536:2559  Staking storage staking */\n      0x00\n        /* \"contracts/Stake.sol\":2562:2569  stakers */\n      0x04\n        /* \"contracts/Stake.sol\":2562:2581  stakers[msg.sender] */\n      0x00\n        /* \"contracts/Stake.sol\":2570:2580  msg.sender */\n      caller\n        /* \"contracts/Stake.sol\":2562:2581  stakers[msg.sender] */\n      0xffffffffffffffffffffffffffffffffffffffff\n      and\n      0xffffffffffffffffffffffffffffffffffffffff\n      and\n      dup2\n      mstore\n      0x20\n      add\n      swap1\n      dup2\n      mstore\n      0x20\n      add\n      0x00\n      keccak256\n        /* \"contracts/Stake.sol\":2582:2588  _index */\n      dup4\n        /* \"contracts/Stake.sol\":2562:2589  stakers[msg.sender][_index] */\n      dup2\n      sload\n      dup2\n      lt\n      tag_60\n      jumpi\n      tag_61\n      tag_62\n      jump\t// in\n    tag_61:\n    tag_60:\n      swap1\n      0x00\n      mstore\n      keccak256(0x00, 0x20)\n      swap1\n      0x04\n      mul\n      add\n        /* \"contracts/Stake.sol\":2536:2589  Staking storage staking = stakers[msg.sender][_index] */\n      swap1\n      pop\n        /* \"contracts/Stake.sol\":2628:2635  staking */\n      dup1\n        /* \"contracts/Stake.sol\":2628:2644  staking.duration */\n      0x02\n      add\n      sload\n        /* \"contracts/Stake.sol\":2610:2625  block.timestamp */\n      timestamp\n        /* \"contracts/Stake.sol\":2610:2644  block.timestamp > staking.duration */\n      gt\n        /* \"contracts/Stake.sol\":2602:2661  require(block.timestamp > staking.duration, \"Not yet time\") */\n      tag_64\n      jumpi\n      mload(0x40)\n      0x08c379a000000000000000000000000000000000000000000000000000000000\n      dup2\n      mstore\n      0x04\n      add\n      tag_65\n      swap1\n      tag_66\n      jump\t// in\n    tag_65:\n      mload(0x40)\n      dup1\n      swap2\n      sub\n      swap1\n      revert\n    tag_64:\n        /* \"contracts/Stake.sol\":2674:2695  uint256 amountStaked_ */\n      0x00\n        /* \"contracts/Stake.sol\":2698:2705  staking */\n      dup2\n        /* \"contracts/Stake.sol\":2698:2712  staking.amount */\n      0x00\n      add\n      sload\n        /* \"contracts/Stake.sol\":2674:2712  uint256 amountStaked_ = staking.amount */\n      swap1\n      pop\n        /* \"contracts/Stake.sol\":2724:2745  uint256 rewardAmount_ */\n      0x00\n        /* \"contracts/Stake.sol\":2748:2814  calculateReward(block.timestamp, staking.duration, staking.amount) */\n      tag_67\n        /* \"contracts/Stake.sol\":2764:2779  block.timestamp */\n      timestamp\n        /* \"contracts/Stake.sol\":2781:2788  staking */\n      dup5\n        /* \"contracts/Stake.sol\":2781:2797  staking.duration */\n      0x02\n      add\n      sload\n        /* \"contracts/Stake.sol\":2799:2806  staking */\n      dup6\n        /* \"contracts/Stake.sol\":2799:2813  staking.amount */\n      0x00\n      add\n      sload\n        /* \"contracts/Stake.sol\":2748:2763  calculateReward */\n      tag_68\n        /* \"contracts/Stake.sol\":2748:2814  calculateReward(block.timestamp, staking.duration, staking.amount) */\n      jump\t// in\n    tag_67:\n        /* \"contracts/Stake.sol\":2724:2814  uint256 rewardAmount_ = calculateReward(block.timestamp, staking.duration, staking.amount) */\n      swap1\n      pop\n        /* \"contracts/Stake.sol\":2850:2854  true */\n      0x01\n        /* \"contracts/Stake.sol\":2828:2835  staking */\n      dup4\n        /* \"contracts/Stake.sol\":2828:2847  staking.hasWithdraw */\n      0x03\n      add\n      0x00\n        /* \"contracts/Stake.sol\":2828:2854  staking.hasWithdraw = true */\n      0x0100\n      exp\n      dup2\n      sload\n      dup2\n      0xff\n      mul\n      not\n      and\n      swap1\n      dup4\n      iszero\n      iszero\n      mul\n      or\n      swap1\n      sstore\n      pop\n        /* \"contracts/Stake.sol\":2882:2883  0 */\n      0x00\n        /* \"contracts/Stake.sol\":2865:2872  staking */\n      dup4\n        /* \"contracts/Stake.sol\":2865:2879  staking.amount */\n      0x00\n      add\n        /* \"contracts/Stake.sol\":2865:2883  staking.amount = 0 */\n      dup2\n      swap1\n      sstore\n      pop\n        /* \"contracts/Stake.sol\":2914:2915  0 */\n      0x00\n        /* \"contracts/Stake.sol\":2894:2901  staking */\n      dup4\n        /* \"contracts/Stake.sol\":2894:2911  staking.startTime */\n      0x01\n      add\n        /* \"contracts/Stake.sol\":2894:2915  staking.startTime = 0 */\n      dup2\n      swap1\n      sstore\n      pop\n        /* \"contracts/Stake.sol\":2945:2946  0 */\n      0x00\n        /* \"contracts/Stake.sol\":2926:2933  staking */\n      dup4\n        /* \"contracts/Stake.sol\":2926:2942  staking.duration */\n      0x02\n      add\n        /* \"contracts/Stake.sol\":2926:2946  staking.duration = 0 */\n      dup2\n      swap1\n      sstore\n      pop\n        /* \"contracts/Stake.sol\":2959:2970  XFIContract */\n      0x00\n      0x00\n      swap1\n      sload\n      swap1\n      0x0100\n      exp\n      swap1\n      div\n      0xffffffffffffffffffffffffffffffffffffffff\n      and\n        /* \"contracts/Stake.sol\":2959:2979  XFIContract.transfer */\n      0xffffffffffffffffffffffffffffffffffffffff\n      and\n      0xa9059cbb\n        /* \"contracts/Stake.sol\":2980:2990  msg.sender */\n      caller\n        /* \"contracts/Stake.sol\":2992:3005  amountStaked_ */\n      dup5\n        /* \"contracts/Stake.sol\":2959:3006  XFIContract.transfer(msg.sender, amountStaked_) */\n      mload(0x40)\n      dup4\n      0xffffffff\n      and\n      0xe0\n      shl\n      dup2\n      mstore\n      0x04\n      add\n      tag_69\n      swap3\n      swap2\n      swap1\n      tag_70\n      jump\t// in\n    tag_69:\n      0x20\n      mload(0x40)\n      dup1\n      dup4\n      sub\n      dup2\n      0x00\n      dup8\n      gas\n      call\n      iszero\n      dup1\n      iszero\n      tag_72\n      jumpi\n      returndatacopy(0x00, 0x00, returndatasize)\n      revert(0x00, returndatasize)\n    tag_72:\n      pop\n      pop\n      pop\n      pop\n      mload(0x40)\n      returndatasize\n      not(0x1f)\n      0x1f\n      dup3\n      add\n      and\n      dup3\n      add\n      dup1\n      0x40\n      mstore\n      pop\n      dup2\n      add\n      swap1\n      tag_73\n      swap2\n      swap1\n      tag_74\n      jump\t// in\n    tag_73:\n      pop\n        /* \"contracts/Stake.sol\":3017:3028  MPXContract */\n      0x01\n      0x00\n      swap1\n      sload\n      swap1\n      0x0100\n      exp\n      swap1\n      div\n      0xffffffffffffffffffffffffffffffffffffffff\n      and\n        /* \"contracts/Stake.sol\":3017:3037  MPXContract.transfer */\n      0xffffffffffffffffffffffffffffffffffffffff\n      and\n      0xa9059cbb\n        /* \"contracts/Stake.sol\":3038:3048  msg.sender */\n      caller\n        /* \"contracts/Stake.sol\":3050:3063  rewardAmount_ */\n      dup4\n        /* \"contracts/Stake.sol\":3017:3064  MPXContract.transfer(msg.sender, rewardAmount_) */\n      mload(0x40)\n      dup4\n      0xffffffff\n      and\n      0xe0\n      shl\n      dup2\n      mstore\n      0x04\n      add\n      tag_75\n      swap3\n      swap2\n      swap1\n      tag_70\n      jump\t// in\n    tag_75:\n      0x20\n      mload(0x40)\n      dup1\n      dup4\n      sub\n      dup2\n      0x00\n      dup8\n      gas\n      call\n      iszero\n      dup1\n      iszero\n      tag_77\n      jumpi\n      returndatacopy(0x00, 0x00, returndatasize)\n      revert(0x00, returndatasize)\n    tag_77:\n      pop\n      pop\n      pop\n      pop\n      mload(0x40)\n      returndatasize\n      not(0x1f)\n      0x1f\n      dup3\n      add\n      and\n      dup3\n      add\n      dup1\n      0x40\n      mstore\n      pop\n      dup2\n      add\n      swap1\n      tag_78\n      swap2\n      swap1\n      tag_74\n      jump\t// in\n    tag_78:\n      pop\n        /* \"contracts/Stake.sol\":3132:3145  rewardAmount_ */\n      dup1\n        /* \"contracts/Stake.sol\":3104:3114  msg.sender */\n      caller\n        /* \"contracts/Stake.sol\":3082:3146  WithdrawalSuccessful((msg.sender), amountStaked_, rewardAmount_) */\n      0xffffffffffffffffffffffffffffffffffffffff\n      and\n      0xfb59733a8f0bd43414922fb86c6ffdd090e44935074086318980ca89221acc56\n        /* \"contracts/Stake.sol\":3117:3130  amountStaked_ */\n      dup5\n        /* \"contracts/Stake.sol\":3082:3146  WithdrawalSuccessful((msg.sender), amountStaked_, rewardAmount_) */\n      mload(0x40)\n      tag_79\n      swap2\n      swap1\n      tag_41\n      jump\t// in\n    tag_79:\n      mload(0x40)\n      dup1\n      swap2\n      sub\n      swap1\n      log3\n        /* \"contracts/Stake.sol\":3166:3170  true */\n      0x01\n        /* \"contracts/Stake.sol\":3159:3170  return true */\n      swap4\n      pop\n      pop\n      pop\n      pop\n        /* \"contracts/Stake.sol\":1368:1373  false */\n      0x00\n        /* \"contracts/Stake.sol\":1359:1365  locked */\n      0x03\n      0x14\n        /* \"contracts/Stake.sol\":1359:1373  locked = false */\n      0x0100\n      exp\n      dup2\n      sload\n      dup2\n      0xff\n      mul\n      not\n      and\n      swap1\n      dup4\n      iszero\n      iszero\n      mul\n      or\n      swap1\n      sstore\n      pop\n        /* \"contracts/Stake.sol\":2300:3180  function withdrawStake(uint256 _index) external reentrancyGuard returns (bool){... */\n      swap2\n      swap1\n      pop\n      jump\t// out\n        /* \"contracts/Stake.sol\":4043:4343  function claimOwnership() external {... */\n    tag_20:\n        /* \"contracts/Stake.sol\":4119:4120  0 */\n      0x00\n        /* \"contracts/Stake.sol\":4097:4121  msg.sender != address(0) */\n      0xffffffffffffffffffffffffffffffffffffffff\n      and\n        /* \"contracts/Stake.sol\":4097:4107  msg.sender */\n      caller\n        /* \"contracts/Stake.sol\":4097:4121  msg.sender != address(0) */\n      0xffffffffffffffffffffffffffffffffffffffff\n      and\n      sub\n        /* \"contracts/Stake.sol\":4089:4150  require(msg.sender != address(0), \"Zero address not allowed\") */\n      tag_81\n      jumpi\n      mload(0x40)\n      0x08c379a000000000000000000000000000000000000000000000000000000000\n      dup2\n      mstore\n      0x04\n      add\n      tag_82\n      swap1\n      tag_56\n      jump\t// in\n    tag_82:\n      mload(0x40)\n      dup1\n      swap2\n      sub\n      swap1\n      revert\n    tag_81:\n        /* \"contracts/Stake.sol\":4183:4191  newOwner */\n      0x03\n      0x00\n      swap1\n      sload\n      swap1\n      0x0100\n      exp\n      swap1\n      div\n      0xffffffffffffffffffffffffffffffffffffffff\n      and\n        /* \"contracts/Stake.sol\":4169:4191  msg.sender == newOwner */\n      0xffffffffffffffffffffffffffffffffffffffff\n      and\n        /* \"contracts/Stake.sol\":4169:4179  msg.sender */\n      caller\n        /* \"contracts/Stake.sol\":4169:4191  msg.sender == newOwner */\n      0xffffffffffffffffffffffffffffffffffffffff\n      and\n      eq\n        /* \"contracts/Stake.sol\":4161:4209  require(msg.sender == newOwner, \"Not your turn\") */\n      tag_83\n      jumpi\n      mload(0x40)\n      0x08c379a000000000000000000000000000000000000000000000000000000000\n      dup2\n      mstore\n      0x04\n      add\n      tag_84\n      swap1\n      tag_85\n      jump\t// in\n    tag_84:\n      mload(0x40)\n      dup1\n      swap2\n      sub\n      swap1\n      revert\n    tag_83:\n        /* \"contracts/Stake.sol\":4254:4262  newOwner */\n      0x03\n      0x00\n      swap1\n      sload\n      swap1\n      0x0100\n      exp\n      swap1\n      div\n      0xffffffffffffffffffffffffffffffffffffffff\n      and\n        /* \"contracts/Stake.sol\":4227:4263  OwnershipTransfered(owner, newOwner) */\n      0xffffffffffffffffffffffffffffffffffffffff\n      and\n        /* \"contracts/Stake.sol\":4247:4252  owner */\n      0x02\n      0x00\n      swap1\n      sload\n      swap1\n      0x0100\n      exp\n      swap1\n      div\n      0xffffffffffffffffffffffffffffffffffffffff\n      and\n        /* \"contracts/Stake.sol\":4227:4263  OwnershipTransfered(owner, newOwner) */\n      0xffffffffffffffffffffffffffffffffffffffff\n      and\n      0x0d18b5fd22306e373229b9439188228edca81207d1667f604daf6cef8aa3ee67\n      mload(0x40)\n      mload(0x40)\n      dup1\n      swap2\n      sub\n      swap1\n      log3\n        /* \"contracts/Stake.sol\":4284:4292  newOwner */\n      0x03\n      0x00\n      swap1\n      sload\n      swap1\n      0x0100\n      exp\n      swap1\n      div\n      0xffffffffffffffffffffffffffffffffffffffff\n      and\n        /* \"contracts/Stake.sol\":4276:4281  owner */\n      0x02\n      0x00\n        /* \"contracts/Stake.sol\":4276:4292  owner = newOwner */\n      0x0100\n      exp\n      dup2\n      sload\n      dup2\n      0xffffffffffffffffffffffffffffffffffffffff\n      mul\n      not\n      and\n      swap1\n      dup4\n      0xffffffffffffffffffffffffffffffffffffffff\n      and\n      mul\n      or\n      swap1\n      sstore\n      pop\n        /* \"contracts/Stake.sol\":4322:4323  0 */\n      0x00\n        /* \"contracts/Stake.sol\":4303:4311  newOwner */\n      0x03\n      0x00\n        /* \"contracts/Stake.sol\":4303:4324  newOwner = address(0) */\n      0x0100\n      exp\n      dup2\n      sload\n      dup2\n      0xffffffffffffffffffffffffffffffffffffffff\n      mul\n      not\n      and\n      swap1\n      dup4\n      0xffffffffffffffffffffffffffffffffffffffff\n      and\n      mul\n      or\n      swap1\n      sstore\n      pop\n        /* \"contracts/Stake.sol\":4043:4343  function claimOwnership() external {... */\n      jump\t// out\n        /* \"contracts/Stake.sol\":3188:3507  function getStakerInfo(uint8 _index) external view returns(Staking memory){... */\n    tag_24:\n        /* \"contracts/Stake.sol\":3247:3261  Staking memory */\n      tag_86\n      tag_87\n      jump\t// in\n    tag_86:\n        /* \"contracts/Stake.sol\":3303:3304  0 */\n      0x00\n        /* \"contracts/Stake.sol\":3281:3305  msg.sender != address(0) */\n      0xffffffffffffffffffffffffffffffffffffffff\n      and\n        /* \"contracts/Stake.sol\":3281:3291  msg.sender */\n      caller\n        /* \"contracts/Stake.sol\":3281:3305  msg.sender != address(0) */\n      0xffffffffffffffffffffffffffffffffffffffff\n      and\n      sub\n        /* \"contracts/Stake.sol\":3273:3334  require(msg.sender != address(0), \"Zero address not allowed\") */\n      tag_89\n      jumpi\n      mload(0x40)\n      0x08c379a000000000000000000000000000000000000000000000000000000000\n      dup2\n      mstore\n      0x04\n      add\n      tag_90\n      swap1\n      tag_56\n      jump\t// in\n    tag_90:\n      mload(0x40)\n      dup1\n      swap2\n      sub\n      swap1\n      revert\n    tag_89:\n        /* \"contracts/Stake.sol\":3364:3371  stakers */\n      0x04\n        /* \"contracts/Stake.sol\":3364:3383  stakers[msg.sender] */\n      0x00\n        /* \"contracts/Stake.sol\":3372:3382  msg.sender */\n      caller\n        /* \"contracts/Stake.sol\":3364:3383  stakers[msg.sender] */\n      0xffffffffffffffffffffffffffffffffffffffff\n      and\n      0xffffffffffffffffffffffffffffffffffffffff\n      and\n      dup2\n      mstore\n      0x20\n      add\n      swap1\n      dup2\n      mstore\n      0x20\n      add\n      0x00\n      keccak256\n        /* \"contracts/Stake.sol\":3364:3390  stakers[msg.sender].length */\n      dup1\n      sload\n      swap1\n      pop\n        /* \"contracts/Stake.sol\":3355:3361  _index */\n      dup3\n        /* \"contracts/Stake.sol\":3355:3390  _index < stakers[msg.sender].length */\n      0xff\n      and\n      lt\n        /* \"contracts/Stake.sol\":3347:3407  require(_index < stakers[msg.sender].length, \"Out of range\") */\n      tag_91\n      jumpi\n      mload(0x40)\n      0x08c379a000000000000000000000000000000000000000000000000000000000\n      dup2\n      mstore\n      0x04\n      add\n      tag_92\n      swap1\n      tag_59\n      jump\t// in\n    tag_92:\n      mload(0x40)\n      dup1\n      swap2\n      sub\n      swap1\n      revert\n    tag_91:\n        /* \"contracts/Stake.sol\":3420:3442  Staking memory staking */\n      0x00\n        /* \"contracts/Stake.sol\":3445:3452  stakers */\n      0x04\n        /* \"contracts/Stake.sol\":3445:3464  stakers[msg.sender] */\n      0x00\n        /* \"contracts/Stake.sol\":3453:3463  msg.sender */\n      caller\n        /* \"contracts/Stake.sol\":3445:3464  stakers[msg.sender] */\n      0xffffffffffffffffffffffffffffffffffffffff\n      and\n      0xffffffffffffffffffffffffffffffffffffffff\n      and\n      dup2\n      mstore\n      0x20\n      add\n      swap1\n      dup2\n      mstore\n      0x20\n      add\n      0x00\n      keccak256\n        /* \"contracts/Stake.sol\":3465:3471  _index */\n      dup4\n        /* \"contracts/Stake.sol\":3445:3472  stakers[msg.sender][_index] */\n      0xff\n      and\n      dup2\n      sload\n      dup2\n      lt\n      tag_93\n      jumpi\n      tag_94\n      tag_62\n      jump\t// in\n    tag_94:\n    tag_93:\n      swap1\n      0x00\n      mstore\n      keccak256(0x00, 0x20)\n      swap1\n      0x04\n      mul\n      add\n        /* \"contracts/Stake.sol\":3420:3472  Staking memory staking = stakers[msg.sender][_index] */\n      mload(0x40)\n      dup1\n      0x80\n      add\n      0x40\n      mstore\n      swap1\n      dup2\n      0x00\n      dup3\n      add\n      sload\n      dup2\n      mstore\n      0x20\n      add\n      0x01\n      dup3\n      add\n      sload\n      dup2\n      mstore\n      0x20\n      add\n      0x02\n      dup3\n      add\n      sload\n      dup2\n      mstore\n      0x20\n      add\n      0x03\n      dup3\n      add\n      0x00\n      swap1\n      sload\n      swap1\n      0x0100\n      exp\n      swap1\n      div\n      0xff\n      and\n      iszero\n      iszero\n      iszero\n      iszero\n      dup2\n      mstore\n      pop\n      pop\n      swap1\n      pop\n        /* \"contracts/Stake.sol\":3490:3497  staking */\n      dup1\n        /* \"contracts/Stake.sol\":3483:3497  return staking */\n      swap2\n      pop\n      pop\n        /* \"contracts/Stake.sol\":3188:3507  function getStakerInfo(uint8 _index) external view returns(Staking memory){... */\n      swap2\n      swap1\n      pop\n      jump\t// out\n        /* \"contracts/Stake.sol\":111:136  IERC20 public XFIContract */\n    tag_28:\n      0x00\n      0x00\n      swap1\n      sload\n      swap1\n      0x0100\n      exp\n      swap1\n      div\n      0xffffffffffffffffffffffffffffffffffffffff\n      and\n      dup2\n      jump\t// out\n        /* \"contracts/Stake.sol\":1389:2290  function stake(uint256 _amount, uint256 _duration) external reentrancyGuard {... */\n    tag_34:\n        /* \"contracts/Stake.sol\":1278:1284  locked */\n      0x03\n      0x14\n      swap1\n      sload\n      swap1\n      0x0100\n      exp\n      swap1\n      div\n      0xff\n      and\n        /* \"contracts/Stake.sol\":1277:1284  !locked */\n      iszero\n        /* \"contracts/Stake.sol\":1269:1312  require(!locked, \"Not allowed to re_enter\") */\n      tag_97\n      jumpi\n      mload(0x40)\n      0x08c379a000000000000000000000000000000000000000000000000000000000\n      dup2\n      mstore\n      0x04\n      add\n      tag_98\n      swap1\n      tag_52\n      jump\t// in\n    tag_98:\n      mload(0x40)\n      dup1\n      swap2\n      sub\n      swap1\n      revert\n    tag_97:\n        /* \"contracts/Stake.sol\":1332:1336  true */\n      0x01\n        /* \"contracts/Stake.sol\":1323:1329  locked */\n      0x03\n      0x14\n        /* \"contracts/Stake.sol\":1323:1336  locked = true */\n      0x0100\n      exp\n      dup2\n      sload\n      dup2\n      0xff\n      mul\n      not\n      and\n      swap1\n      dup4\n      iszero\n      iszero\n      mul\n      or\n      swap1\n      sstore\n      pop\n        /* \"contracts/Stake.sol\":1506:1507  0 */\n      0x00\n        /* \"contracts/Stake.sol\":1484:1508  msg.sender != address(0) */\n      0xffffffffffffffffffffffffffffffffffffffff\n      and\n        /* \"contracts/Stake.sol\":1484:1494  msg.sender */\n      caller\n        /* \"contracts/Stake.sol\":1484:1508  msg.sender != address(0) */\n      0xffffffffffffffffffffffffffffffffffffffff\n      and\n      sub\n        /* \"contracts/Stake.sol\":1476:1537  require(msg.sender != address(0), \"Zero address not allowed\") */\n      tag_100\n      jumpi\n      mload(0x40)\n      0x08c379a000000000000000000000000000000000000000000000000000000000\n      dup2\n      mstore\n      0x04\n      add\n      tag_101\n      swap1\n      tag_56\n      jump\t// in\n    tag_101:\n      mload(0x40)\n      dup1\n      swap2\n      sub\n      swap1\n      revert\n    tag_100:\n        /* \"contracts/Stake.sol\":1569:1589  MINIMUM_STAKE_AMOUNT */\n      immutable(\"0x4393e7114eb674248a1480712950c28cb06e118e040859a2eafa3ca8a6dfbd69\")\n        /* \"contracts/Stake.sol\":1558:1565  _amount */\n      dup3\n        /* \"contracts/Stake.sol\":1558:1589  _amount >= MINIMUM_STAKE_AMOUNT */\n      lt\n      iszero\n        /* \"contracts/Stake.sol\":1558:1624  _amount >= MINIMUM_STAKE_AMOUNT && _amount <= MAXIMUM_STAKE_AMOUNT */\n      dup1\n      iszero\n      tag_102\n      jumpi\n      pop\n        /* \"contracts/Stake.sol\":1604:1624  MAXIMUM_STAKE_AMOUNT */\n      immutable(\"0xc41c8390c0da0418b7667ee0df6c246c26c4be6c0618368dce5a916e8008b0db\")\n        /* \"contracts/Stake.sol\":1593:1600  _amount */\n      dup3\n        /* \"contracts/Stake.sol\":1593:1624  _amount <= MAXIMUM_STAKE_AMOUNT */\n      gt\n      iszero\n        /* \"contracts/Stake.sol\":1558:1624  _amount >= MINIMUM_STAKE_AMOUNT && _amount <= MAXIMUM_STAKE_AMOUNT */\n    tag_102:\n        /* \"contracts/Stake.sol\":1550:1651  require(_amount >= MINIMUM_STAKE_AMOUNT && _amount <= MAXIMUM_STAKE_AMOUNT, \"Amount is out of range\") */\n      tag_103\n      jumpi\n      mload(0x40)\n      0x08c379a000000000000000000000000000000000000000000000000000000000\n      dup2\n      mstore\n      0x04\n      add\n      tag_104\n      swap1\n      tag_105\n      jump\t// in\n    tag_104:\n      mload(0x40)\n      dup1\n      swap2\n      sub\n      swap1\n      revert\n    tag_103:\n        /* \"contracts/Stake.sol\":1684:1685  0 */\n      0x00\n        /* \"contracts/Stake.sol\":1672:1681  _duration */\n      dup2\n        /* \"contracts/Stake.sol\":1672:1685  _duration > 0 */\n      gt\n        /* \"contracts/Stake.sol\":1664:1711  require(_duration > 0, \"Duration is too short\") */\n      tag_106\n      jumpi\n      mload(0x40)\n      0x08c379a000000000000000000000000000000000000000000000000000000000\n      dup2\n      mstore\n      0x04\n      add\n      tag_107\n      swap1\n      tag_108\n      jump\t// in\n    tag_107:\n      mload(0x40)\n      dup1\n      swap2\n      sub\n      swap1\n      revert\n    tag_106:\n        /* \"contracts/Stake.sol\":1769:1776  _amount */\n      dup2\n        /* \"contracts/Stake.sol\":1732:1743  XFIContract */\n      0x00\n      0x00\n      swap1\n      sload\n      swap1\n      0x0100\n      exp\n      swap1\n      div\n      0xffffffffffffffffffffffffffffffffffffffff\n      and\n        /* \"contracts/Stake.sol\":1732:1753  XFIContract.balanceOf */\n      0xffffffffffffffffffffffffffffffffffffffff\n      and\n      0x70a08231\n        /* \"contracts/Stake.sol\":1754:1764  msg.sender */\n      caller\n        /* \"contracts/Stake.sol\":1732:1765  XFIContract.balanceOf(msg.sender) */\n      mload(0x40)\n      dup3\n      0xffffffff\n      and\n      0xe0\n      shl\n      dup2\n      mstore\n      0x04\n      add\n      tag_109\n      swap2\n      swap1\n      tag_110\n      jump\t// in\n    tag_109:\n      0x20\n      mload(0x40)\n      dup1\n      dup4\n      sub\n      dup2\n      dup7\n      gas\n      staticcall\n      iszero\n      dup1\n      iszero\n      tag_112\n      jumpi\n      returndatacopy(0x00, 0x00, returndatasize)\n      revert(0x00, returndatasize)\n    tag_112:\n      pop\n      pop\n      pop\n      pop\n      mload(0x40)\n      returndatasize\n      not(0x1f)\n      0x1f\n      dup3\n      add\n      and\n      dup3\n      add\n      dup1\n      0x40\n      mstore\n      pop\n      dup2\n      add\n      swap1\n      tag_113\n      swap2\n      swap1\n      tag_114\n      jump\t// in\n    tag_113:\n        /* \"contracts/Stake.sol\":1732:1776  XFIContract.balanceOf(msg.sender) >= _amount */\n      lt\n      iszero\n        /* \"contracts/Stake.sol\":1724:1802  require(XFIContract.balanceOf(msg.sender) >= _amount, \"You don't have enough\") */\n      tag_115\n      jumpi\n      mload(0x40)\n      0x08c379a000000000000000000000000000000000000000000000000000000000\n      dup2\n      mstore\n      0x04\n      add\n      tag_116\n      swap1\n      tag_117\n      jump\t// in\n    tag_116:\n      mload(0x40)\n      dup1\n      swap2\n      sub\n      swap1\n      revert\n    tag_115:\n        /* \"contracts/Stake.sol\":1875:1882  _amount */\n      dup2\n        /* \"contracts/Stake.sol\":1823:1834  XFIContract */\n      0x00\n      0x00\n      swap1\n      sload\n      swap1\n      0x0100\n      exp\n      swap1\n      div\n      0xffffffffffffffffffffffffffffffffffffffff\n      and\n        /* \"contracts/Stake.sol\":1823:1844  XFIContract.allowance */\n      0xffffffffffffffffffffffffffffffffffffffff\n      and\n      0xdd62ed3e\n        /* \"contracts/Stake.sol\":1845:1855  msg.sender */\n      caller\n        /* \"contracts/Stake.sol\":1865:1869  this */\n      address\n        /* \"contracts/Stake.sol\":1823:1871  XFIContract.allowance(msg.sender, address(this)) */\n      mload(0x40)\n      dup4\n      0xffffffff\n      and\n      0xe0\n      shl\n      dup2\n      mstore\n      0x04\n      add\n      tag_118\n      swap3\n      swap2\n      swap1\n      tag_119\n      jump\t// in\n    tag_118:\n      0x20\n      mload(0x40)\n      dup1\n      dup4\n      sub\n      dup2\n      dup7\n      gas\n      staticcall\n      iszero\n      dup1\n      iszero\n      tag_121\n      jumpi\n      returndatacopy(0x00, 0x00, returndatasize)\n      revert(0x00, returndatasize)\n    tag_121:\n      pop\n      pop\n      pop\n      pop\n      mload(0x40)\n      returndatasize\n      not(0x1f)\n      0x1f\n      dup3\n      add\n      and\n      dup3\n      add\n      dup1\n      0x40\n      mstore\n      pop\n      dup2\n      add\n      swap1\n      tag_122\n      swap2\n      swap1\n      tag_114\n      jump\t// in\n    tag_122:\n        /* \"contracts/Stake.sol\":1823:1882  XFIContract.allowance(msg.sender, address(this)) >= _amount */\n      lt\n      iszero\n        /* \"contracts/Stake.sol\":1815:1915  require(XFIContract.allowance(msg.sender, address(this)) >= _amount, \"Amount allowed is not enough\") */\n      tag_123\n      jumpi\n      mload(0x40)\n      0x08c379a000000000000000000000000000000000000000000000000000000000\n      dup2\n      mstore\n      0x04\n      add\n      tag_124\n      swap1\n      tag_125\n      jump\t// in\n    tag_124:\n      mload(0x40)\n      dup1\n      swap2\n      sub\n      swap1\n      revert\n    tag_123:\n        /* \"contracts/Stake.sol\":1928:1939  XFIContract */\n      0x00\n      0x00\n      swap1\n      sload\n      swap1\n      0x0100\n      exp\n      swap1\n      div\n      0xffffffffffffffffffffffffffffffffffffffff\n      and\n        /* \"contracts/Stake.sol\":1928:1952  XFIContract.transferFrom */\n      0xffffffffffffffffffffffffffffffffffffffff\n      and\n      0x23b872dd\n        /* \"contracts/Stake.sol\":1953:1963  msg.sender */\n      caller\n        /* \"contracts/Stake.sol\":1973:1977  this */\n      address\n        /* \"contracts/Stake.sol\":1980:1987  _amount */\n      dup6\n        /* \"contracts/Stake.sol\":1928:1988  XFIContract.transferFrom(msg.sender, address(this), _amount) */\n      mload(0x40)\n      dup5\n      0xffffffff\n      and\n      0xe0\n      shl\n      dup2\n      mstore\n      0x04\n      add\n      tag_126\n      swap4\n      swap3\n      swap2\n      swap1\n      tag_127\n      jump\t// in\n    tag_126:\n      0x20\n      mload(0x40)\n      dup1\n      dup4\n      sub\n      dup2\n      0x00\n      dup8\n      gas\n      call\n      iszero\n      dup1\n      iszero\n      tag_129\n      jumpi\n      returndatacopy(0x00, 0x00, returndatasize)\n      revert(0x00, returndatasize)\n    tag_129:\n      pop\n      pop\n      pop\n      pop\n      mload(0x40)\n      returndatasize\n      not(0x1f)\n      0x1f\n      dup3\n      add\n      and\n      dup3\n      add\n      dup1\n      0x40\n      mstore\n      pop\n      dup2\n      add\n      swap1\n      tag_130\n      swap2\n      swap1\n      tag_74\n      jump\t// in\n    tag_130:\n      pop\n        /* \"contracts/Stake.sol\":2003:2025  Staking memory staking */\n      tag_131\n      tag_87\n      jump\t// in\n    tag_131:\n        /* \"contracts/Stake.sol\":2053:2060  _amount */\n      dup3\n        /* \"contracts/Stake.sol\":2036:2043  staking */\n      dup2\n        /* \"contracts/Stake.sol\":2036:2050  staking.amount */\n      0x00\n      add\n        /* \"contracts/Stake.sol\":2036:2060  staking.amount = _amount */\n      dup2\n      dup2\n      mstore\n      pop\n      pop\n        /* \"contracts/Stake.sol\":2108:2117  _duration */\n      dup2\n        /* \"contracts/Stake.sol\":2090:2105  block.timestamp */\n      timestamp\n        /* \"contracts/Stake.sol\":2090:2117  block.timestamp + _duration */\n      tag_132\n      swap2\n      swap1\n      tag_133\n      jump\t// in\n    tag_132:\n        /* \"contracts/Stake.sol\":2071:2078  staking */\n      dup2\n        /* \"contracts/Stake.sol\":2071:2087  staking.duration */\n      0x40\n      add\n        /* \"contracts/Stake.sol\":2071:2117  staking.duration = block.timestamp + _duration */\n      dup2\n      dup2\n      mstore\n      pop\n      pop\n        /* \"contracts/Stake.sol\":2148:2163  block.timestamp */\n      timestamp\n        /* \"contracts/Stake.sol\":2128:2135  staking */\n      dup2\n        /* \"contracts/Stake.sol\":2128:2145  staking.startTime */\n      0x20\n      add\n        /* \"contracts/Stake.sol\":2128:2163  staking.startTime = block.timestamp */\n      dup2\n      dup2\n      mstore\n      pop\n      pop\n        /* \"contracts/Stake.sol\":2176:2183  stakers */\n      0x04\n        /* \"contracts/Stake.sol\":2176:2195  stakers[msg.sender] */\n      0x00\n        /* \"contracts/Stake.sol\":2184:2194  msg.sender */\n      caller\n        /* \"contracts/Stake.sol\":2176:2195  stakers[msg.sender] */\n      0xffffffffffffffffffffffffffffffffffffffff\n      and\n      0xffffffffffffffffffffffffffffffffffffffff\n      and\n      dup2\n      mstore\n      0x20\n      add\n      swap1\n      dup2\n      mstore\n      0x20\n      add\n      0x00\n      keccak256\n        /* \"contracts/Stake.sol\":2201:2208  staking */\n      dup2\n        /* \"contracts/Stake.sol\":2176:2209  stakers[msg.sender].push(staking) */\n      swap1\n      dup1\n      0x01\n      dup2\n      sload\n      add\n      dup1\n      dup3\n      sstore\n      dup1\n      swap2\n      pop\n      pop\n      0x01\n      swap1\n      sub\n      swap1\n      0x00\n      mstore\n      keccak256(0x00, 0x20)\n      swap1\n      0x04\n      mul\n      add\n      0x00\n      swap1\n      swap2\n      swap1\n      swap2\n      swap1\n      swap2\n      pop\n      0x00\n      dup3\n      add\n      mload\n      dup2\n      0x00\n      add\n      sstore\n      0x20\n      dup3\n      add\n      mload\n      dup2\n      0x01\n      add\n      sstore\n      0x40\n      dup3\n      add\n      mload\n      dup2\n      0x02\n      add\n      sstore\n      0x60\n      dup3\n      add\n      mload\n      dup2\n      0x03\n      add\n      exp(0x0100, 0x00)\n      dup2\n      sload\n      dup2\n      0xff\n      mul\n      not\n      and\n      swap1\n      dup4\n      iszero\n      iszero\n      mul\n      or\n      swap1\n      sstore\n      pop\n      pop\n      pop\n        /* \"contracts/Stake.sol\":2266:2281  block.timestamp */\n      timestamp\n        /* \"contracts/Stake.sol\":2245:2255  msg.sender */\n      caller\n        /* \"contracts/Stake.sol\":2227:2282  DepositSuccessful(msg.sender, _amount, block.timestamp) */\n      0xffffffffffffffffffffffffffffffffffffffff\n      and\n      0x61bb8b82654398e0bdd4e0d489b5e9104b6840211fd89f7264264c96589051fd\n        /* \"contracts/Stake.sol\":2257:2264  _amount */\n      dup6\n        /* \"contracts/Stake.sol\":2227:2282  DepositSuccessful(msg.sender, _amount, block.timestamp) */\n      mload(0x40)\n      tag_135\n      swap2\n      swap1\n      tag_41\n      jump\t// in\n    tag_135:\n      mload(0x40)\n      dup1\n      swap2\n      sub\n      swap1\n      log3\n        /* \"contracts/Stake.sol\":1465:2290  {... */\n      pop\n        /* \"contracts/Stake.sol\":1368:1373  false */\n      0x00\n        /* \"contracts/Stake.sol\":1359:1365  locked */\n      0x03\n      0x14\n        /* \"contracts/Stake.sol\":1359:1373  locked = false */\n      0x0100\n      exp\n      dup2\n      sload\n      dup2\n      0xff\n      mul\n      not\n      and\n      swap1\n      dup4\n      iszero\n      iszero\n      mul\n      or\n      swap1\n      sstore\n      pop\n        /* \"contracts/Stake.sol\":1389:2290  function stake(uint256 _amount, uint256 _duration) external reentrancyGuard {... */\n      pop\n      pop\n      jump\t// out\n        /* \"contracts/Stake.sol\":143:168  IERC20 public MPXContract */\n    tag_36:\n      0x01\n      0x00\n      swap1\n      sload\n      swap1\n      0x0100\n      exp\n      swap1\n      div\n      0xffffffffffffffffffffffffffffffffffffffff\n      and\n      dup2\n      jump\t// out\n        /* \"contracts/Stake.sol\":3515:3679  function getContractXFIBalance() external onlyOwner view returns (uint256){... */\n    tag_39:\n        /* \"contracts/Stake.sol\":3581:3588  uint256 */\n      0x00\n        /* \"contracts/Stake.sol\":1185:1190  owner */\n      0x02\n      0x00\n      swap1\n      sload\n      swap1\n      0x0100\n      exp\n      swap1\n      div\n      0xffffffffffffffffffffffffffffffffffffffff\n      and\n        /* \"contracts/Stake.sol\":1171:1190  msg.sender == owner */\n      0xffffffffffffffffffffffffffffffffffffffff\n      and\n        /* \"contracts/Stake.sol\":1171:1181  msg.sender */\n      caller\n        /* \"contracts/Stake.sol\":1171:1190  msg.sender == owner */\n      0xffffffffffffffffffffffffffffffffffffffff\n      and\n      eq\n        /* \"contracts/Stake.sol\":1163:1204  require(msg.sender == owner, \"No Access\") */\n      tag_137\n      jumpi\n      mload(0x40)\n      0x08c379a000000000000000000000000000000000000000000000000000000000\n      dup2\n      mstore\n      0x04\n      add\n      tag_138\n      swap1\n      tag_139\n      jump\t// in\n    tag_138:\n      mload(0x40)\n      dup1\n      swap2\n      sub\n      swap1\n      revert\n    tag_137:\n        /* \"contracts/Stake.sol\":3600:3611  uint256 bal */\n      0x00\n        /* \"contracts/Stake.sol\":3614:3625  XFIContract */\n      0x00\n      0x00\n      swap1\n      sload\n      swap1\n      0x0100\n      exp\n      swap1\n      div\n      0xffffffffffffffffffffffffffffffffffffffff\n      and\n        /* \"contracts/Stake.sol\":3614:3635  XFIContract.balanceOf */\n      0xffffffffffffffffffffffffffffffffffffffff\n      and\n      0x70a08231\n        /* \"contracts/Stake.sol\":3644:3648  this */\n      address\n        /* \"contracts/Stake.sol\":3614:3650  XFIContract.balanceOf(address(this)) */\n      mload(0x40)\n      dup3\n      0xffffffff\n      and\n      0xe0\n      shl\n      dup2\n      mstore\n      0x04\n      add\n      tag_141\n      swap2\n      swap1\n      tag_110\n      jump\t// in\n    tag_141:\n      0x20\n      mload(0x40)\n      dup1\n      dup4\n      sub\n      dup2\n      dup7\n      gas\n      staticcall\n      iszero\n      dup1\n      iszero\n      tag_143\n      jumpi\n      returndatacopy(0x00, 0x00, returndatasize)\n      revert(0x00, returndatasize)\n    tag_143:\n      pop\n      pop\n      pop\n      pop\n      mload(0x40)\n      returndatasize\n      not(0x1f)\n      0x1f\n      dup3\n      add\n      and\n      dup3\n      add\n      dup1\n      0x40\n      mstore\n      pop\n      dup2\n      add\n      swap1\n      tag_144\n      swap2\n      swap1\n      tag_114\n      jump\t// in\n    tag_144:\n        /* \"contracts/Stake.sol\":3600:3650  uint256 bal = XFIContract.balanceOf(address(this)) */\n      swap1\n      pop\n        /* \"contracts/Stake.sol\":3668:3671  bal */\n      dup1\n        /* \"contracts/Stake.sol\":3661:3671  return bal */\n      swap2\n      pop\n      pop\n        /* \"contracts/Stake.sol\":3515:3679  function getContractXFIBalance() external onlyOwner view returns (uint256){... */\n      swap1\n      jump\t// out\n        /* \"contracts/Stake.sol\":3687:3851  function getContractMPXBalance() external onlyOwner view returns (uint256){... */\n    tag_43:\n        /* \"contracts/Stake.sol\":3753:3760  uint256 */\n      0x00\n        /* \"contracts/Stake.sol\":1185:1190  owner */\n      0x02\n      0x00\n      swap1\n      sload\n      swap1\n      0x0100\n      exp\n      swap1\n      div\n      0xffffffffffffffffffffffffffffffffffffffff\n      and\n        /* \"contracts/Stake.sol\":1171:1190  msg.sender == owner */\n      0xffffffffffffffffffffffffffffffffffffffff\n      and\n        /* \"contracts/Stake.sol\":1171:1181  msg.sender */\n      caller\n        /* \"contracts/Stake.sol\":1171:1190  msg.sender == owner */\n      0xffffffffffffffffffffffffffffffffffffffff\n      and\n      eq\n        /* \"contracts/Stake.sol\":1163:1204  require(msg.sender == owner, \"No Access\") */\n      tag_146\n      jumpi\n      mload(0x40)\n      0x08c379a000000000000000000000000000000000000000000000000000000000\n      dup2\n      mstore\n      0x04\n      add\n      tag_147\n      swap1\n      tag_139\n      jump\t// in\n    tag_147:\n      mload(0x40)\n      dup1\n      swap2\n      sub\n      swap1\n      revert\n    tag_146:\n        /* \"contracts/Stake.sol\":3772:3783  uint256 bal */\n      0x00\n        /* \"contracts/Stake.sol\":3786:3797  MPXContract */\n      0x01\n      0x00\n      swap1\n      sload\n      swap1\n      0x0100\n      exp\n      swap1\n      div\n      0xffffffffffffffffffffffffffffffffffffffff\n      and\n        /* \"contracts/Stake.sol\":3786:3807  MPXContract.balanceOf */\n      0xffffffffffffffffffffffffffffffffffffffff\n      and\n      0x70a08231\n        /* \"contracts/Stake.sol\":3816:3820  this */\n      address\n        /* \"contracts/Stake.sol\":3786:3822  MPXContract.balanceOf(address(this)) */\n      mload(0x40)\n      dup3\n      0xffffffff\n      and\n      0xe0\n      shl\n      dup2\n      mstore\n      0x04\n      add\n      tag_149\n      swap2\n      swap1\n      tag_110\n      jump\t// in\n    tag_149:\n      0x20\n      mload(0x40)\n      dup1\n      dup4\n      sub\n      dup2\n      dup7\n      gas\n      staticcall\n      iszero\n      dup1\n      iszero\n      tag_151\n      jumpi\n      returndatacopy(0x00, 0x00, returndatasize)\n      revert(0x00, returndatasize)\n    tag_151:\n      pop\n      pop\n      pop\n      pop\n      mload(0x40)\n      returndatasize\n      not(0x1f)\n      0x1f\n      dup3\n      add\n      and\n      dup3\n      add\n      dup1\n      0x40\n      mstore\n      pop\n      dup2\n      add\n      swap1\n      tag_152\n      swap2\n      swap1\n      tag_114\n      jump\t// in\n    tag_152:\n        /* \"contracts/Stake.sol\":3772:3822  uint256 bal = MPXContract.balanceOf(address(this)) */\n      swap1\n      pop\n        /* \"contracts/Stake.sol\":3840:3843  bal */\n      dup1\n        /* \"contracts/Stake.sol\":3833:3843  return bal */\n      swap2\n      pop\n      pop\n        /* \"contracts/Stake.sol\":3687:3851  function getContractMPXBalance() external onlyOwner view returns (uint256){... */\n      swap1\n      jump\t// out\n        /* \"contracts/Stake.sol\":3859:4035  function transferOwnership(address _newOwner) external onlyOwner{... */\n    tag_48:\n        /* \"contracts/Stake.sol\":1185:1190  owner */\n      0x02\n      0x00\n      swap1\n      sload\n      swap1\n      0x0100\n      exp\n      swap1\n      div\n      0xffffffffffffffffffffffffffffffffffffffff\n      and\n        /* \"contracts/Stake.sol\":1171:1190  msg.sender == owner */\n      0xffffffffffffffffffffffffffffffffffffffff\n      and\n        /* \"contracts/Stake.sol\":1171:1181  msg.sender */\n      caller\n        /* \"contracts/Stake.sol\":1171:1190  msg.sender == owner */\n      0xffffffffffffffffffffffffffffffffffffffff\n      and\n      eq\n        /* \"contracts/Stake.sol\":1163:1204  require(msg.sender == owner, \"No Access\") */\n      tag_154\n      jumpi\n      mload(0x40)\n      0x08c379a000000000000000000000000000000000000000000000000000000000\n      dup2\n      mstore\n      0x04\n      add\n      tag_155\n      swap1\n      tag_139\n      jump\t// in\n    tag_155:\n      mload(0x40)\n      dup1\n      swap2\n      sub\n      swap1\n      revert\n    tag_154:\n        /* \"contracts/Stake.sol\":3963:3964  0 */\n      0x00\n        /* \"contracts/Stake.sol\":3942:3965  _newOwner != address(0) */\n      0xffffffffffffffffffffffffffffffffffffffff\n      and\n        /* \"contracts/Stake.sol\":3942:3951  _newOwner */\n      dup2\n        /* \"contracts/Stake.sol\":3942:3965  _newOwner != address(0) */\n      0xffffffffffffffffffffffffffffffffffffffff\n      and\n      sub\n        /* \"contracts/Stake.sol\":3934:3994  require(_newOwner != address(0), \"Zero address not allowed\") */\n      tag_157\n      jumpi\n      mload(0x40)\n      0x08c379a000000000000000000000000000000000000000000000000000000000\n      dup2\n      mstore\n      0x04\n      add\n      tag_158\n      swap1\n      tag_56\n      jump\t// in\n    tag_158:\n      mload(0x40)\n      dup1\n      swap2\n      sub\n      swap1\n      revert\n    tag_157:\n        /* \"contracts/Stake.sol\":4018:4027  _newOwner */\n      dup1\n        /* \"contracts/Stake.sol\":4007:4015  newOwner */\n      0x03\n      0x00\n        /* \"contracts/Stake.sol\":4007:4027  newOwner = _newOwner */\n      0x0100\n      exp\n      dup2\n      sload\n      dup2\n      0xffffffffffffffffffffffffffffffffffffffff\n      mul\n      not\n      and\n      swap1\n      dup4\n      0xffffffffffffffffffffffffffffffffffffffff\n      and\n      mul\n      or\n      swap1\n      sstore\n      pop\n        /* \"contracts/Stake.sol\":3859:4035  function transferOwnership(address _newOwner) external onlyOwner{... */\n      pop\n      jump\t// out\n        /* \"contracts/Stake.sol\":4351:4651  function calculateReward(uint256 _startTime, uint256 _endTime, uint256 _amount) private pure returns(uint256){... */\n    tag_68:\n        /* \"contracts/Stake.sol\":4452:4459  uint256 */\n      0x00\n        /* \"contracts/Stake.sol\":4471:4492  uint256 stakeDuration */\n      0x00\n        /* \"contracts/Stake.sol\":4506:4516  _startTime */\n      dup5\n        /* \"contracts/Stake.sol\":4495:4503  _endTime */\n      dup5\n        /* \"contracts/Stake.sol\":4495:4516  _endTime - _startTime */\n      tag_160\n      swap2\n      swap1\n      tag_161\n      jump\t// in\n    tag_160:\n        /* \"contracts/Stake.sol\":4471:4516  uint256 stakeDuration = _endTime - _startTime */\n      swap1\n      pop\n        /* \"contracts/Stake.sol\":4529:4548  uint256 totalReward */\n      0x00\n        /* \"contracts/Stake.sol\":4600:4605  10e11 */\n      0xe8d4a51000\n        /* \"contracts/Stake.sol\":4583:4596  stakeDuration */\n      dup3\n        /* \"contracts/Stake.sol\":4573:4580  _amount */\n      dup6\n        /* \"contracts/Stake.sol\":437:446  1_000_000 */\n      0x0f4240\n        /* \"contracts/Stake.sol\":4553:4580  REWARD_PER_SECOND * _amount */\n      0xffffffff\n      and\n      tag_162\n      swap2\n      swap1\n      tag_163\n      jump\t// in\n    tag_162:\n        /* \"contracts/Stake.sol\":4553:4596  REWARD_PER_SECOND * _amount * stakeDuration */\n      tag_164\n      swap2\n      swap1\n      tag_163\n      jump\t// in\n    tag_164:\n        /* \"contracts/Stake.sol\":4551:4605  ( REWARD_PER_SECOND * _amount * stakeDuration) / 10e11 */\n      tag_165\n      swap2\n      swap1\n      tag_166\n      jump\t// in\n    tag_165:\n        /* \"contracts/Stake.sol\":4529:4605  uint256 totalReward = ( REWARD_PER_SECOND * _amount * stakeDuration) / 10e11 */\n      swap1\n      pop\n        /* \"contracts/Stake.sol\":4628:4639  totalReward */\n      dup1\n        /* \"contracts/Stake.sol\":4621:4639  return totalReward */\n      swap3\n      pop\n      pop\n      pop\n        /* \"contracts/Stake.sol\":4351:4651  function calculateReward(uint256 _startTime, uint256 _endTime, uint256 _amount) private pure returns(uint256){... */\n      swap4\n      swap3\n      pop\n      pop\n      pop\n      jump\t// out\n    tag_87:\n      mload(0x40)\n      dup1\n      0x80\n      add\n      0x40\n      mstore\n      dup1\n      0x00\n      dup2\n      mstore\n      0x20\n      add\n      0x00\n      dup2\n      mstore\n      0x20\n      add\n      0x00\n      dup2\n      mstore\n      0x20\n      add\n      iszero(iszero(0x00))\n      dup2\n      mstore\n      pop\n      swap1\n      jump\t// out\n        /* \"#utility.yul\":88:205   */\n    tag_168:\n        /* \"#utility.yul\":197:198   */\n      0x00\n        /* \"#utility.yul\":194:195   */\n      0x00\n        /* \"#utility.yul\":187:199   */\n      revert\n        /* \"#utility.yul\":334:411   */\n    tag_170:\n        /* \"#utility.yul\":371:378   */\n      0x00\n        /* \"#utility.yul\":400:405   */\n      dup2\n        /* \"#utility.yul\":389:405   */\n      swap1\n      pop\n        /* \"#utility.yul\":334:411   */\n      swap2\n      swap1\n      pop\n      jump\t// out\n        /* \"#utility.yul\":417:539   */\n    tag_171:\n        /* \"#utility.yul\":490:514   */\n      tag_224\n        /* \"#utility.yul\":508:513   */\n      dup2\n        /* \"#utility.yul\":490:514   */\n      tag_170\n      jump\t// in\n    tag_224:\n        /* \"#utility.yul\":483:488   */\n      dup2\n        /* \"#utility.yul\":480:515   */\n      eq\n        /* \"#utility.yul\":470:533   */\n      tag_225\n      jumpi\n        /* \"#utility.yul\":529:530   */\n      0x00\n        /* \"#utility.yul\":526:527   */\n      0x00\n        /* \"#utility.yul\":519:531   */\n      revert\n        /* \"#utility.yul\":470:533   */\n    tag_225:\n        /* \"#utility.yul\":417:539   */\n      pop\n      jump\t// out\n        /* \"#utility.yul\":545:684   */\n    tag_172:\n        /* \"#utility.yul\":591:596   */\n      0x00\n        /* \"#utility.yul\":629:635   */\n      dup2\n        /* \"#utility.yul\":616:636   */\n      calldataload\n        /* \"#utility.yul\":607:636   */\n      swap1\n      pop\n        /* \"#utility.yul\":645:678   */\n      tag_227\n        /* \"#utility.yul\":672:677   */\n      dup2\n        /* \"#utility.yul\":645:678   */\n      tag_171\n      jump\t// in\n    tag_227:\n        /* \"#utility.yul\":545:684   */\n      swap3\n      swap2\n      pop\n      pop\n      jump\t// out\n        /* \"#utility.yul\":690:1019   */\n    tag_15:\n        /* \"#utility.yul\":749:755   */\n      0x00\n        /* \"#utility.yul\":798:800   */\n      0x20\n        /* \"#utility.yul\":786:795   */\n      dup3\n        /* \"#utility.yul\":777:784   */\n      dup5\n        /* \"#utility.yul\":773:796   */\n      sub\n        /* \"#utility.yul\":769:801   */\n      slt\n        /* \"#utility.yul\":766:885   */\n      iszero\n      tag_229\n      jumpi\n        /* \"#utility.yul\":804:883   */\n      tag_230\n      tag_168\n      jump\t// in\n    tag_230:\n        /* \"#utility.yul\":766:885   */\n    tag_229:\n        /* \"#utility.yul\":924:925   */\n      0x00\n        /* \"#utility.yul\":949:1002   */\n      tag_231\n        /* \"#utility.yul\":994:1001   */\n      dup5\n        /* \"#utility.yul\":985:991   */\n      dup3\n        /* \"#utility.yul\":974:983   */\n      dup6\n        /* \"#utility.yul\":970:992   */\n      add\n        /* \"#utility.yul\":949:1002   */\n      tag_172\n      jump\t// in\n    tag_231:\n        /* \"#utility.yul\":939:1002   */\n      swap2\n      pop\n        /* \"#utility.yul\":895:1012   */\n      pop\n        /* \"#utility.yul\":690:1019   */\n      swap3\n      swap2\n      pop\n      pop\n      jump\t// out\n        /* \"#utility.yul\":1025:1115   */\n    tag_173:\n        /* \"#utility.yul\":1059:1066   */\n      0x00\n        /* \"#utility.yul\":1102:1107   */\n      dup2\n        /* \"#utility.yul\":1095:1108   */\n      iszero\n        /* \"#utility.yul\":1088:1109   */\n      iszero\n        /* \"#utility.yul\":1077:1109   */\n      swap1\n      pop\n        /* \"#utility.yul\":1025:1115   */\n      swap2\n      swap1\n      pop\n      jump\t// out\n        /* \"#utility.yul\":1121:1230   */\n    tag_174:\n        /* \"#utility.yul\":1202:1223   */\n      tag_234\n        /* \"#utility.yul\":1217:1222   */\n      dup2\n        /* \"#utility.yul\":1202:1223   */\n      tag_173\n      jump\t// in\n    tag_234:\n        /* \"#utility.yul\":1197:1200   */\n      dup3\n        /* \"#utility.yul\":1190:1224   */\n      mstore\n        /* \"#utility.yul\":1121:1230   */\n      pop\n      pop\n      jump\t// out\n        /* \"#utility.yul\":1236:1446   */\n    tag_18:\n        /* \"#utility.yul\":1323:1327   */\n      0x00\n        /* \"#utility.yul\":1361:1363   */\n      0x20\n        /* \"#utility.yul\":1350:1359   */\n      dup3\n        /* \"#utility.yul\":1346:1364   */\n      add\n        /* \"#utility.yul\":1338:1364   */\n      swap1\n      pop\n        /* \"#utility.yul\":1374:1439   */\n      tag_236\n        /* \"#utility.yul\":1436:1437   */\n      0x00\n        /* \"#utility.yul\":1425:1434   */\n      dup4\n        /* \"#utility.yul\":1421:1438   */\n      add\n        /* \"#utility.yul\":1412:1418   */\n      dup5\n        /* \"#utility.yul\":1374:1439   */\n      tag_174\n      jump\t// in\n    tag_236:\n        /* \"#utility.yul\":1236:1446   */\n      swap3\n      swap2\n      pop\n      pop\n      jump\t// out\n        /* \"#utility.yul\":1452:1538   */\n    tag_175:\n        /* \"#utility.yul\":1487:1494   */\n      0x00\n        /* \"#utility.yul\":1527:1531   */\n      0xff\n        /* \"#utility.yul\":1520:1525   */\n      dup3\n        /* \"#utility.yul\":1516:1532   */\n      and\n        /* \"#utility.yul\":1505:1532   */\n      swap1\n      pop\n        /* \"#utility.yul\":1452:1538   */\n      swap2\n      swap1\n      pop\n      jump\t// out\n        /* \"#utility.yul\":1544:1662   */\n    tag_176:\n        /* \"#utility.yul\":1615:1637   */\n      tag_239\n        /* \"#utility.yul\":1631:1636   */\n      dup2\n        /* \"#utility.yul\":1615:1637   */\n      tag_175\n      jump\t// in\n    tag_239:\n        /* \"#utility.yul\":1608:1613   */\n      dup2\n        /* \"#utility.yul\":1605:1638   */\n      eq\n        /* \"#utility.yul\":1595:1656   */\n      tag_240\n      jumpi\n        /* \"#utility.yul\":1652:1653   */\n      0x00\n        /* \"#utility.yul\":1649:1650   */\n      0x00\n        /* \"#utility.yul\":1642:1654   */\n      revert\n        /* \"#utility.yul\":1595:1656   */\n    tag_240:\n        /* \"#utility.yul\":1544:1662   */\n      pop\n      jump\t// out\n        /* \"#utility.yul\":1668:1803   */\n    tag_177:\n        /* \"#utility.yul\":1712:1717   */\n      0x00\n        /* \"#utility.yul\":1750:1756   */\n      dup2\n        /* \"#utility.yul\":1737:1757   */\n      calldataload\n        /* \"#utility.yul\":1728:1757   */\n      swap1\n      pop\n        /* \"#utility.yul\":1766:1797   */\n      tag_242\n        /* \"#utility.yul\":1791:1796   */\n      dup2\n        /* \"#utility.yul\":1766:1797   */\n      tag_176\n      jump\t// in\n    tag_242:\n        /* \"#utility.yul\":1668:1803   */\n      swap3\n      swap2\n      pop\n      pop\n      jump\t// out\n        /* \"#utility.yul\":1809:2134   */\n    tag_23:\n        /* \"#utility.yul\":1866:1872   */\n      0x00\n        /* \"#utility.yul\":1915:1917   */\n      0x20\n        /* \"#utility.yul\":1903:1912   */\n      dup3\n        /* \"#utility.yul\":1894:1901   */\n      dup5\n        /* \"#utility.yul\":1890:1913   */\n      sub\n        /* \"#utility.yul\":1886:1918   */\n      slt\n        /* \"#utility.yul\":1883:2002   */\n      iszero\n      tag_244\n      jumpi\n        /* \"#utility.yul\":1921:2000   */\n      tag_245\n      tag_168\n      jump\t// in\n    tag_245:\n        /* \"#utility.yul\":1883:2002   */\n    tag_244:\n        /* \"#utility.yul\":2041:2042   */\n      0x00\n        /* \"#utility.yul\":2066:2117   */\n      tag_246\n        /* \"#utility.yul\":2109:2116   */\n      dup5\n        /* \"#utility.yul\":2100:2106   */\n      dup3\n        /* \"#utility.yul\":2089:2098   */\n      dup6\n        /* \"#utility.yul\":2085:2107   */\n      add\n        /* \"#utility.yul\":2066:2117   */\n      tag_177\n      jump\t// in\n    tag_246:\n        /* \"#utility.yul\":2056:2117   */\n      swap2\n      pop\n        /* \"#utility.yul\":2012:2127   */\n      pop\n        /* \"#utility.yul\":1809:2134   */\n      swap3\n      swap2\n      pop\n      pop\n      jump\t// out\n        /* \"#utility.yul\":2140:2248   */\n    tag_178:\n        /* \"#utility.yul\":2217:2241   */\n      tag_248\n        /* \"#utility.yul\":2235:2240   */\n      dup2\n        /* \"#utility.yul\":2217:2241   */\n      tag_170\n      jump\t// in\n    tag_248:\n        /* \"#utility.yul\":2212:2215   */\n      dup3\n        /* \"#utility.yul\":2205:2242   */\n      mstore\n        /* \"#utility.yul\":2140:2248   */\n      pop\n      pop\n      jump\t// out\n        /* \"#utility.yul\":2254:2353   */\n    tag_179:\n        /* \"#utility.yul\":2325:2346   */\n      tag_250\n        /* \"#utility.yul\":2340:2345   */\n      dup2\n        /* \"#utility.yul\":2325:2346   */\n      tag_173\n      jump\t// in\n    tag_250:\n        /* \"#utility.yul\":2320:2323   */\n      dup3\n        /* \"#utility.yul\":2313:2347   */\n      mstore\n        /* \"#utility.yul\":2254:2353   */\n      pop\n      pop\n      jump\t// out\n        /* \"#utility.yul\":2417:3282   */\n    tag_180:\n        /* \"#utility.yul\":2562:2566   */\n      0x80\n        /* \"#utility.yul\":2557:2560   */\n      dup3\n        /* \"#utility.yul\":2553:2567   */\n      add\n        /* \"#utility.yul\":2651:2655   */\n      0x00\n        /* \"#utility.yul\":2644:2649   */\n      dup3\n        /* \"#utility.yul\":2640:2656   */\n      add\n        /* \"#utility.yul\":2634:2657   */\n      mload\n        /* \"#utility.yul\":2670:2733   */\n      tag_252\n        /* \"#utility.yul\":2727:2731   */\n      0x00\n        /* \"#utility.yul\":2722:2725   */\n      dup6\n        /* \"#utility.yul\":2718:2732   */\n      add\n        /* \"#utility.yul\":2704:2716   */\n      dup3\n        /* \"#utility.yul\":2670:2733   */\n      tag_178\n      jump\t// in\n    tag_252:\n        /* \"#utility.yul\":2577:2743   */\n      pop\n        /* \"#utility.yul\":2830:2834   */\n      0x20\n        /* \"#utility.yul\":2823:2828   */\n      dup3\n        /* \"#utility.yul\":2819:2835   */\n      add\n        /* \"#utility.yul\":2813:2836   */\n      mload\n        /* \"#utility.yul\":2849:2912   */\n      tag_253\n        /* \"#utility.yul\":2906:2910   */\n      0x20\n        /* \"#utility.yul\":2901:2904   */\n      dup6\n        /* \"#utility.yul\":2897:2911   */\n      add\n        /* \"#utility.yul\":2883:2895   */\n      dup3\n        /* \"#utility.yul\":2849:2912   */\n      tag_178\n      jump\t// in\n    tag_253:\n        /* \"#utility.yul\":2753:2922   */\n      pop\n        /* \"#utility.yul\":3008:3012   */\n      0x40\n        /* \"#utility.yul\":3001:3006   */\n      dup3\n        /* \"#utility.yul\":2997:3013   */\n      add\n        /* \"#utility.yul\":2991:3014   */\n      mload\n        /* \"#utility.yul\":3027:3090   */\n      tag_254\n        /* \"#utility.yul\":3084:3088   */\n      0x40\n        /* \"#utility.yul\":3079:3082   */\n      dup6\n        /* \"#utility.yul\":3075:3089   */\n      add\n        /* \"#utility.yul\":3061:3073   */\n      dup3\n        /* \"#utility.yul\":3027:3090   */\n      tag_178\n      jump\t// in\n    tag_254:\n        /* \"#utility.yul\":2932:3100   */\n      pop\n        /* \"#utility.yul\":3189:3193   */\n      0x60\n        /* \"#utility.yul\":3182:3187   */\n      dup3\n        /* \"#utility.yul\":3178:3194   */\n      add\n        /* \"#utility.yul\":3172:3195   */\n      mload\n        /* \"#utility.yul\":3208:3265   */\n      tag_255\n        /* \"#utility.yul\":3259:3263   */\n      0x60\n        /* \"#utility.yul\":3254:3257   */\n      dup6\n        /* \"#utility.yul\":3250:3264   */\n      add\n        /* \"#utility.yul\":3236:3248   */\n      dup3\n        /* \"#utility.yul\":3208:3265   */\n      tag_179\n      jump\t// in\n    tag_255:\n        /* \"#utility.yul\":3110:3275   */\n      pop\n        /* \"#utility.yul\":2531:3282   */\n      pop\n        /* \"#utility.yul\":2417:3282   */\n      pop\n      pop\n      jump\t// out\n        /* \"#utility.yul\":3288:3607   */\n    tag_26:\n        /* \"#utility.yul\":3429:3433   */\n      0x00\n        /* \"#utility.yul\":3467:3470   */\n      0x80\n        /* \"#utility.yul\":3456:3465   */\n      dup3\n        /* \"#utility.yul\":3452:3471   */\n      add\n        /* \"#utility.yul\":3444:3471   */\n      swap1\n      pop\n        /* \"#utility.yul\":3481:3600   */\n      tag_257\n        /* \"#utility.yul\":3597:3598   */\n      0x00\n        /* \"#utility.yul\":3586:3595   */\n      dup4\n        /* \"#utility.yul\":3582:3599   */\n      add\n        /* \"#utility.yul\":3573:3579   */\n      dup5\n        /* \"#utility.yul\":3481:3600   */\n      tag_180\n      jump\t// in\n    tag_257:\n        /* \"#utility.yul\":3288:3607   */\n      swap3\n      swap2\n      pop\n      pop\n      jump\t// out\n        /* \"#utility.yul\":3613:3739   */\n    tag_181:\n        /* \"#utility.yul\":3650:3657   */\n      0x00\n        /* \"#utility.yul\":3690:3732   */\n      0xffffffffffffffffffffffffffffffffffffffff\n        /* \"#utility.yul\":3683:3688   */\n      dup3\n        /* \"#utility.yul\":3679:3733   */\n      and\n        /* \"#utility.yul\":3668:3733   */\n      swap1\n      pop\n        /* \"#utility.yul\":3613:3739   */\n      swap2\n      swap1\n      pop\n      jump\t// out\n        /* \"#utility.yul\":3745:3805   */\n    tag_182:\n        /* \"#utility.yul\":3773:3776   */\n      0x00\n        /* \"#utility.yul\":3794:3799   */\n      dup2\n        /* \"#utility.yul\":3787:3799   */\n      swap1\n      pop\n        /* \"#utility.yul\":3745:3805   */\n      swap2\n      swap1\n      pop\n      jump\t// out\n        /* \"#utility.yul\":3811:3953   */\n    tag_183:\n        /* \"#utility.yul\":3861:3870   */\n      0x00\n        /* \"#utility.yul\":3894:3947   */\n      tag_261\n        /* \"#utility.yul\":3912:3946   */\n      tag_262\n        /* \"#utility.yul\":3921:3945   */\n      tag_263\n        /* \"#utility.yul\":3939:3944   */\n      dup5\n        /* \"#utility.yul\":3921:3945   */\n      tag_181\n      jump\t// in\n    tag_263:\n        /* \"#utility.yul\":3912:3946   */\n      tag_182\n      jump\t// in\n    tag_262:\n        /* \"#utility.yul\":3894:3947   */\n      tag_181\n      jump\t// in\n    tag_261:\n        /* \"#utility.yul\":3881:3947   */\n      swap1\n      pop\n        /* \"#utility.yul\":3811:3953   */\n      swap2\n      swap1\n      pop\n      jump\t// out\n        /* \"#utility.yul\":3959:4085   */\n    tag_184:\n        /* \"#utility.yul\":4009:4018   */\n      0x00\n        /* \"#utility.yul\":4042:4079   */\n      tag_265\n        /* \"#utility.yul\":4073:4078   */\n      dup3\n        /* \"#utility.yul\":4042:4079   */\n      tag_183\n      jump\t// in\n    tag_265:\n        /* \"#utility.yul\":4029:4079   */\n      swap1\n      pop\n        /* \"#utility.yul\":3959:4085   */\n      swap2\n      swap1\n      pop\n      jump\t// out\n        /* \"#utility.yul\":4091:4230   */\n    tag_185:\n        /* \"#utility.yul\":4154:4163   */\n      0x00\n        /* \"#utility.yul\":4187:4224   */\n      tag_267\n        /* \"#utility.yul\":4218:4223   */\n      dup3\n        /* \"#utility.yul\":4187:4224   */\n      tag_184\n      jump\t// in\n    tag_267:\n        /* \"#utility.yul\":4174:4224   */\n      swap1\n      pop\n        /* \"#utility.yul\":4091:4230   */\n      swap2\n      swap1\n      pop\n      jump\t// out\n        /* \"#utility.yul\":4236:4393   */\n    tag_186:\n        /* \"#utility.yul\":4336:4386   */\n      tag_269\n        /* \"#utility.yul\":4380:4385   */\n      dup2\n        /* \"#utility.yul\":4336:4386   */\n      tag_185\n      jump\t// in\n    tag_269:\n        /* \"#utility.yul\":4331:4334   */\n      dup3\n        /* \"#utility.yul\":4324:4387   */\n      mstore\n        /* \"#utility.yul\":4236:4393   */\n      pop\n      pop\n      jump\t// out\n        /* \"#utility.yul\":4399:4647   */\n    tag_30:\n        /* \"#utility.yul\":4505:4509   */\n      0x00\n        /* \"#utility.yul\":4543:4545   */\n      0x20\n        /* \"#utility.yul\":4532:4541   */\n      dup3\n        /* \"#utility.yul\":4528:4546   */\n      add\n        /* \"#utility.yul\":4520:4546   */\n      swap1\n      pop\n        /* \"#utility.yul\":4556:4640   */\n      tag_271\n        /* \"#utility.yul\":4637:4638   */\n      0x00\n        /* \"#utility.yul\":4626:4635   */\n      dup4\n        /* \"#utility.yul\":4622:4639   */\n      add\n        /* \"#utility.yul\":4613:4619   */\n      dup5\n        /* \"#utility.yul\":4556:4640   */\n      tag_186\n      jump\t// in\n    tag_271:\n        /* \"#utility.yul\":4399:4647   */\n      swap3\n      swap2\n      pop\n      pop\n      jump\t// out\n        /* \"#utility.yul\":4653:5127   */\n    tag_33:\n        /* \"#utility.yul\":4721:4727   */\n      0x00\n        /* \"#utility.yul\":4729:4735   */\n      0x00\n        /* \"#utility.yul\":4778:4780   */\n      0x40\n        /* \"#utility.yul\":4766:4775   */\n      dup4\n        /* \"#utility.yul\":4757:4764   */\n      dup6\n        /* \"#utility.yul\":4753:4776   */\n      sub\n        /* \"#utility.yul\":4749:4781   */\n      slt\n        /* \"#utility.yul\":4746:4865   */\n      iszero\n      tag_273\n      jumpi\n        /* \"#utility.yul\":4784:4863   */\n      tag_274\n      tag_168\n      jump\t// in\n    tag_274:\n        /* \"#utility.yul\":4746:4865   */\n    tag_273:\n        /* \"#utility.yul\":4904:4905   */\n      0x00\n        /* \"#utility.yul\":4929:4982   */\n      tag_275\n        /* \"#utility.yul\":4974:4981   */\n      dup6\n        /* \"#utility.yul\":4965:4971   */\n      dup3\n        /* \"#utility.yul\":4954:4963   */\n      dup7\n        /* \"#utility.yul\":4950:4972   */\n      add\n        /* \"#utility.yul\":4929:4982   */\n      tag_172\n      jump\t// in\n    tag_275:\n        /* \"#utility.yul\":4919:4982   */\n      swap3\n      pop\n        /* \"#utility.yul\":4875:4992   */\n      pop\n        /* \"#utility.yul\":5031:5033   */\n      0x20\n        /* \"#utility.yul\":5057:5110   */\n      tag_276\n        /* \"#utility.yul\":5102:5109   */\n      dup6\n        /* \"#utility.yul\":5093:5099   */\n      dup3\n        /* \"#utility.yul\":5082:5091   */\n      dup7\n        /* \"#utility.yul\":5078:5100   */\n      add\n        /* \"#utility.yul\":5057:5110   */\n      tag_172\n      jump\t// in\n    tag_276:\n        /* \"#utility.yul\":5047:5110   */\n      swap2\n      pop\n        /* \"#utility.yul\":5002:5120   */\n      pop\n        /* \"#utility.yul\":4653:5127   */\n      swap3\n      pop\n      swap3\n      swap1\n      pop\n      jump\t// out\n        /* \"#utility.yul\":5133:5251   */\n    tag_187:\n        /* \"#utility.yul\":5220:5244   */\n      tag_278\n        /* \"#utility.yul\":5238:5243   */\n      dup2\n        /* \"#utility.yul\":5220:5244   */\n      tag_170\n      jump\t// in\n    tag_278:\n        /* \"#utility.yul\":5215:5218   */\n      dup3\n        /* \"#utility.yul\":5208:5245   */\n      mstore\n        /* \"#utility.yul\":5133:5251   */\n      pop\n      pop\n      jump\t// out\n        /* \"#utility.yul\":5257:5479   */\n    tag_41:\n        /* \"#utility.yul\":5350:5354   */\n      0x00\n        /* \"#utility.yul\":5388:5390   */\n      0x20\n        /* \"#utility.yul\":5377:5386   */\n      dup3\n        /* \"#utility.yul\":5373:5391   */\n      add\n        /* \"#utility.yul\":5365:5391   */\n      swap1\n      pop\n        /* \"#utility.yul\":5401:5472   */\n      tag_280\n        /* \"#utility.yul\":5469:5470   */\n      0x00\n        /* \"#utility.yul\":5458:5467   */\n      dup4\n        /* \"#utility.yul\":5454:5471   */\n      add\n        /* \"#utility.yul\":5445:5451   */\n      dup5\n        /* \"#utility.yul\":5401:5472   */\n      tag_187\n      jump\t// in\n    tag_280:\n        /* \"#utility.yul\":5257:5479   */\n      swap3\n      swap2\n      pop\n      pop\n      jump\t// out\n        /* \"#utility.yul\":5485:5581   */\n    tag_188:\n        /* \"#utility.yul\":5522:5529   */\n      0x00\n        /* \"#utility.yul\":5551:5575   */\n      tag_282\n        /* \"#utility.yul\":5569:5574   */\n      dup3\n        /* \"#utility.yul\":5551:5575   */\n      tag_181\n      jump\t// in\n    tag_282:\n        /* \"#utility.yul\":5540:5575   */\n      swap1\n      pop\n        /* \"#utility.yul\":5485:5581   */\n      swap2\n      swap1\n      pop\n      jump\t// out\n        /* \"#utility.yul\":5587:5709   */\n    tag_189:\n        /* \"#utility.yul\":5660:5684   */\n      tag_284\n        /* \"#utility.yul\":5678:5683   */\n      dup2\n        /* \"#utility.yul\":5660:5684   */\n      tag_188\n      jump\t// in\n    tag_284:\n        /* \"#utility.yul\":5653:5658   */\n      dup2\n        /* \"#utility.yul\":5650:5685   */\n      eq\n        /* \"#utility.yul\":5640:5703   */\n      tag_285\n      jumpi\n        /* \"#utility.yul\":5699:5700   */\n      0x00\n        /* \"#utility.yul\":5696:5697   */\n      0x00\n        /* \"#utility.yul\":5689:5701   */\n      revert\n        /* \"#utility.yul\":5640:5703   */\n    tag_285:\n        /* \"#utility.yul\":5587:5709   */\n      pop\n      jump\t// out\n        /* \"#utility.yul\":5715:5854   */\n    tag_190:\n        /* \"#utility.yul\":5761:5766   */\n      0x00\n        /* \"#utility.yul\":5799:5805   */\n      dup2\n        /* \"#utility.yul\":5786:5806   */\n      calldataload\n        /* \"#utility.yul\":5777:5806   */\n      swap1\n      pop\n        /* \"#utility.yul\":5815:5848   */\n      tag_287\n        /* \"#utility.yul\":5842:5847   */\n      dup2\n        /* \"#utility.yul\":5815:5848   */\n      tag_189\n      jump\t// in\n    tag_287:\n        /* \"#utility.yul\":5715:5854   */\n      swap3\n      swap2\n      pop\n      pop\n      jump\t// out\n        /* \"#utility.yul\":5860:6189   */\n    tag_47:\n        /* \"#utility.yul\":5919:5925   */\n      0x00\n        /* \"#utility.yul\":5968:5970   */\n      0x20\n        /* \"#utility.yul\":5956:5965   */\n      dup3\n        /* \"#utility.yul\":5947:5954   */\n      dup5\n        /* \"#utility.yul\":5943:5966   */\n      sub\n        /* \"#utility.yul\":5939:5971   */\n      slt\n        /* \"#utility.yul\":5936:6055   */\n      iszero\n      tag_289\n      jumpi\n        /* \"#utility.yul\":5974:6053   */\n      tag_290\n      tag_168\n      jump\t// in\n    tag_290:\n        /* \"#utility.yul\":5936:6055   */\n    tag_289:\n        /* \"#utility.yul\":6094:6095   */\n      0x00\n        /* \"#utility.yul\":6119:6172   */\n      tag_291\n        /* \"#utility.yul\":6164:6171   */\n      dup5\n        /* \"#utility.yul\":6155:6161   */\n      dup3\n        /* \"#utility.yul\":6144:6153   */\n      dup6\n        /* \"#utility.yul\":6140:6162   */\n      add\n        /* \"#utility.yul\":6119:6172   */\n      tag_190\n      jump\t// in\n    tag_291:\n        /* \"#utility.yul\":6109:6172   */\n      swap2\n      pop\n        /* \"#utility.yul\":6065:6182   */\n      pop\n        /* \"#utility.yul\":5860:6189   */\n      swap3\n      swap2\n      pop\n      pop\n      jump\t// out\n        /* \"#utility.yul\":6195:6364   */\n    tag_191:\n        /* \"#utility.yul\":6279:6290   */\n      0x00\n        /* \"#utility.yul\":6313:6319   */\n      dup3\n        /* \"#utility.yul\":6308:6311   */\n      dup3\n        /* \"#utility.yul\":6301:6320   */\n      mstore\n        /* \"#utility.yul\":6353:6357   */\n      0x20\n        /* \"#utility.yul\":6348:6351   */\n      dup3\n        /* \"#utility.yul\":6344:6358   */\n      add\n        /* \"#utility.yul\":6329:6358   */\n      swap1\n      pop\n        /* \"#utility.yul\":6195:6364   */\n      swap3\n      swap2\n      pop\n      pop\n      jump\t// out\n        /* \"#utility.yul\":6370:6543   */\n    tag_192:\n        /* \"#utility.yul\":6510:6535   */\n      0x4e6f7420616c6c6f77656420746f2072655f656e746572000000000000000000\n        /* \"#utility.yul\":6506:6507   */\n      0x00\n        /* \"#utility.yul\":6498:6504   */\n      dup3\n        /* \"#utility.yul\":6494:6508   */\n      add\n        /* \"#utility.yul\":6487:6536   */\n      mstore\n        /* \"#utility.yul\":6370:6543   */\n      pop\n      jump\t// out\n        /* \"#utility.yul\":6549:6915   */\n    tag_193:\n        /* \"#utility.yul\":6691:6694   */\n      0x00\n        /* \"#utility.yul\":6712:6779   */\n      tag_295\n        /* \"#utility.yul\":6776:6778   */\n      0x17\n        /* \"#utility.yul\":6771:6774   */\n      dup4\n        /* \"#utility.yul\":6712:6779   */\n      tag_191\n      jump\t// in\n    tag_295:\n        /* \"#utility.yul\":6705:6779   */\n      swap2\n      pop\n        /* \"#utility.yul\":6788:6881   */\n      tag_296\n        /* \"#utility.yul\":6877:6880   */\n      dup3\n        /* \"#utility.yul\":6788:6881   */\n      tag_192\n      jump\t// in\n    tag_296:\n        /* \"#utility.yul\":6906:6908   */\n      0x20\n        /* \"#utility.yul\":6901:6904   */\n      dup3\n        /* \"#utility.yul\":6897:6909   */\n      add\n        /* \"#utility.yul\":6890:6909   */\n      swap1\n      pop\n        /* \"#utility.yul\":6549:6915   */\n      swap2\n      swap1\n      pop\n      jump\t// out\n        /* \"#utility.yul\":6921:7340   */\n    tag_52:\n        /* \"#utility.yul\":7087:7091   */\n      0x00\n        /* \"#utility.yul\":7125:7127   */\n      0x20\n        /* \"#utility.yul\":7114:7123   */\n      dup3\n        /* \"#utility.yul\":7110:7128   */\n      add\n        /* \"#utility.yul\":7102:7128   */\n      swap1\n      pop\n        /* \"#utility.yul\":7174:7183   */\n      dup2\n        /* \"#utility.yul\":7168:7172   */\n      dup2\n        /* \"#utility.yul\":7164:7184   */\n      sub\n        /* \"#utility.yul\":7160:7161   */\n      0x00\n        /* \"#utility.yul\":7149:7158   */\n      dup4\n        /* \"#utility.yul\":7145:7162   */\n      add\n        /* \"#utility.yul\":7138:7185   */\n      mstore\n        /* \"#utility.yul\":7202:7333   */\n      tag_298\n        /* \"#utility.yul\":7328:7332   */\n      dup2\n        /* \"#utility.yul\":7202:7333   */\n      tag_193\n      jump\t// in\n    tag_298:\n        /* \"#utility.yul\":7194:7333   */\n      swap1\n      pop\n        /* \"#utility.yul\":6921:7340   */\n      swap2\n      swap1\n      pop\n      jump\t// out\n        /* \"#utility.yul\":7346:7520   */\n    tag_194:\n        /* \"#utility.yul\":7486:7512   */\n      0x5a65726f2061646472657373206e6f7420616c6c6f7765640000000000000000\n        /* \"#utility.yul\":7482:7483   */\n      0x00\n        /* \"#utility.yul\":7474:7480   */\n      dup3\n        /* \"#utility.yul\":7470:7484   */\n      add\n        /* \"#utility.yul\":7463:7513   */\n      mstore\n        /* \"#utility.yul\":7346:7520   */\n      pop\n      jump\t// out\n        /* \"#utility.yul\":7526:7892   */\n    tag_195:\n        /* \"#utility.yul\":7668:7671   */\n      0x00\n        /* \"#utility.yul\":7689:7756   */\n      tag_301\n        /* \"#utility.yul\":7753:7755   */\n      0x18\n        /* \"#utility.yul\":7748:7751   */\n      dup4\n        /* \"#utility.yul\":7689:7756   */\n      tag_191\n      jump\t// in\n    tag_301:\n        /* \"#utility.yul\":7682:7756   */\n      swap2\n      pop\n        /* \"#utility.yul\":7765:7858   */\n      tag_302\n        /* \"#utility.yul\":7854:7857   */\n      dup3\n        /* \"#utility.yul\":7765:7858   */\n      tag_194\n      jump\t// in\n    tag_302:\n        /* \"#utility.yul\":7883:7885   */\n      0x20\n        /* \"#utility.yul\":7878:7881   */\n      dup3\n        /* \"#utility.yul\":7874:7886   */\n      add\n        /* \"#utility.yul\":7867:7886   */\n      swap1\n      pop\n        /* \"#utility.yul\":7526:7892   */\n      swap2\n      swap1\n      pop\n      jump\t// out\n        /* \"#utility.yul\":7898:8317   */\n    tag_56:\n        /* \"#utility.yul\":8064:8068   */\n      0x00\n        /* \"#utility.yul\":8102:8104   */\n      0x20\n        /* \"#utility.yul\":8091:8100   */\n      dup3\n        /* \"#utility.yul\":8087:8105   */\n      add\n        /* \"#utility.yul\":8079:8105   */\n      swap1\n      pop\n        /* \"#utility.yul\":8151:8160   */\n      dup2\n        /* \"#utility.yul\":8145:8149   */\n      dup2\n        /* \"#utility.yul\":8141:8161   */\n      sub\n        /* \"#utility.yul\":8137:8138   */\n      0x00\n        /* \"#utility.yul\":8126:8135   */\n      dup4\n        /* \"#utility.yul\":8122:8139   */\n      add\n        /* \"#utility.yul\":8115:8162   */\n      mstore\n        /* \"#utility.yul\":8179:8310   */\n      tag_304\n        /* \"#utility.yul\":8305:8309   */\n      dup2\n        /* \"#utility.yul\":8179:8310   */\n      tag_195\n      jump\t// in\n    tag_304:\n        /* \"#utility.yul\":8171:8310   */\n      swap1\n      pop\n        /* \"#utility.yul\":7898:8317   */\n      swap2\n      swap1\n      pop\n      jump\t// out\n        /* \"#utility.yul\":8323:8485   */\n    tag_196:\n        /* \"#utility.yul\":8463:8477   */\n      0x4f7574206f662072616e67650000000000000000000000000000000000000000\n        /* \"#utility.yul\":8459:8460   */\n      0x00\n        /* \"#utility.yul\":8451:8457   */\n      dup3\n        /* \"#utility.yul\":8447:8461   */\n      add\n        /* \"#utility.yul\":8440:8478   */\n      mstore\n        /* \"#utility.yul\":8323:8485   */\n      pop\n      jump\t// out\n        /* \"#utility.yul\":8491:8857   */\n    tag_197:\n        /* \"#utility.yul\":8633:8636   */\n      0x00\n        /* \"#utility.yul\":8654:8721   */\n      tag_307\n        /* \"#utility.yul\":8718:8720   */\n      0x0c\n        /* \"#utility.yul\":8713:8716   */\n      dup4\n        /* \"#utility.yul\":8654:8721   */\n      tag_191\n      jump\t// in\n    tag_307:\n        /* \"#utility.yul\":8647:8721   */\n      swap2\n      pop\n        /* \"#utility.yul\":8730:8823   */\n      tag_308\n        /* \"#utility.yul\":8819:8822   */\n      dup3\n        /* \"#utility.yul\":8730:8823   */\n      tag_196\n      jump\t// in\n    tag_308:\n        /* \"#utility.yul\":8848:8850   */\n      0x20\n        /* \"#utility.yul\":8843:8846   */\n      dup3\n        /* \"#utility.yul\":8839:8851   */\n      add\n        /* \"#utility.yul\":8832:8851   */\n      swap1\n      pop\n        /* \"#utility.yul\":8491:8857   */\n      swap2\n      swap1\n      pop\n      jump\t// out\n        /* \"#utility.yul\":8863:9282   */\n    tag_59:\n        /* \"#utility.yul\":9029:9033   */\n      0x00\n        /* \"#utility.yul\":9067:9069   */\n      0x20\n        /* \"#utility.yul\":9056:9065   */\n      dup3\n        /* \"#utility.yul\":9052:9070   */\n      add\n        /* \"#utility.yul\":9044:9070   */\n      swap1\n      pop\n        /* \"#utility.yul\":9116:9125   */\n      dup2\n        /* \"#utility.yul\":9110:9114   */\n      dup2\n        /* \"#utility.yul\":9106:9126   */\n      sub\n        /* \"#utility.yul\":9102:9103   */\n      0x00\n        /* \"#utility.yul\":9091:9100   */\n      dup4\n        /* \"#utility.yul\":9087:9104   */\n      add\n        /* \"#utility.yul\":9080:9127   */\n      mstore\n        /* \"#utility.yul\":9144:9275   */\n      tag_310\n        /* \"#utility.yul\":9270:9274   */\n      dup2\n        /* \"#utility.yul\":9144:9275   */\n      tag_197\n      jump\t// in\n    tag_310:\n        /* \"#utility.yul\":9136:9275   */\n      swap1\n      pop\n        /* \"#utility.yul\":8863:9282   */\n      swap2\n      swap1\n      pop\n      jump\t// out\n        /* \"#utility.yul\":9288:9468   */\n    tag_62:\n        /* \"#utility.yul\":9336:9413   */\n      0x4e487b7100000000000000000000000000000000000000000000000000000000\n        /* \"#utility.yul\":9333:9334   */\n      0x00\n        /* \"#utility.yul\":9326:9414   */\n      mstore\n        /* \"#utility.yul\":9433:9437   */\n      0x32\n        /* \"#utility.yul\":9430:9431   */\n      0x04\n        /* \"#utility.yul\":9423:9438   */\n      mstore\n        /* \"#utility.yul\":9457:9461   */\n      0x24\n        /* \"#utility.yul\":9454:9455   */\n      0x00\n        /* \"#utility.yul\":9447:9462   */\n      revert\n        /* \"#utility.yul\":9474:9636   */\n    tag_198:\n        /* \"#utility.yul\":9614:9628   */\n      0x4e6f74207965742074696d650000000000000000000000000000000000000000\n        /* \"#utility.yul\":9610:9611   */\n      0x00\n        /* \"#utility.yul\":9602:9608   */\n      dup3\n        /* \"#utility.yul\":9598:9612   */\n      add\n        /* \"#utility.yul\":9591:9629   */\n      mstore\n        /* \"#utility.yul\":9474:9636   */\n      pop\n      jump\t// out\n        /* \"#utility.yul\":9642:10008   */\n    tag_199:\n        /* \"#utility.yul\":9784:9787   */\n      0x00\n        /* \"#utility.yul\":9805:9872   */\n      tag_314\n        /* \"#utility.yul\":9869:9871   */\n      0x0c\n        /* \"#utility.yul\":9864:9867   */\n      dup4\n        /* \"#utility.yul\":9805:9872   */\n      tag_191\n      jump\t// in\n    tag_314:\n        /* \"#utility.yul\":9798:9872   */\n      swap2\n      pop\n        /* \"#utility.yul\":9881:9974   */\n      tag_315\n        /* \"#utility.yul\":9970:9973   */\n      dup3\n        /* \"#utility.yul\":9881:9974   */\n      tag_198\n      jump\t// in\n    tag_315:\n        /* \"#utility.yul\":9999:10001   */\n      0x20\n        /* \"#utility.yul\":9994:9997   */\n      dup3\n        /* \"#utility.yul\":9990:10002   */\n      add\n        /* \"#utility.yul\":9983:10002   */\n      swap1\n      pop\n        /* \"#utility.yul\":9642:10008   */\n      swap2\n      swap1\n      pop\n      jump\t// out\n        /* \"#utility.yul\":10014:10433   */\n    tag_66:\n        /* \"#utility.yul\":10180:10184   */\n      0x00\n        /* \"#utility.yul\":10218:10220   */\n      0x20\n        /* \"#utility.yul\":10207:10216   */\n      dup3\n        /* \"#utility.yul\":10203:10221   */\n      add\n        /* \"#utility.yul\":10195:10221   */\n      swap1\n      pop\n        /* \"#utility.yul\":10267:10276   */\n      dup2\n        /* \"#utility.yul\":10261:10265   */\n      dup2\n        /* \"#utility.yul\":10257:10277   */\n      sub\n        /* \"#utility.yul\":10253:10254   */\n      0x00\n        /* \"#utility.yul\":10242:10251   */\n      dup4\n        /* \"#utility.yul\":10238:10255   */\n      add\n        /* \"#utility.yul\":10231:10278   */\n      mstore\n        /* \"#utility.yul\":10295:10426   */\n      tag_317\n        /* \"#utility.yul\":10421:10425   */\n      dup2\n        /* \"#utility.yul\":10295:10426   */\n      tag_199\n      jump\t// in\n    tag_317:\n        /* \"#utility.yul\":10287:10426   */\n      swap1\n      pop\n        /* \"#utility.yul\":10014:10433   */\n      swap2\n      swap1\n      pop\n      jump\t// out\n        /* \"#utility.yul\":10439:10557   */\n    tag_200:\n        /* \"#utility.yul\":10526:10550   */\n      tag_319\n        /* \"#utility.yul\":10544:10549   */\n      dup2\n        /* \"#utility.yul\":10526:10550   */\n      tag_188\n      jump\t// in\n    tag_319:\n        /* \"#utility.yul\":10521:10524   */\n      dup3\n        /* \"#utility.yul\":10514:10551   */\n      mstore\n        /* \"#utility.yul\":10439:10557   */\n      pop\n      pop\n      jump\t// out\n        /* \"#utility.yul\":10563:10895   */\n    tag_70:\n        /* \"#utility.yul\":10684:10688   */\n      0x00\n        /* \"#utility.yul\":10722:10724   */\n      0x40\n        /* \"#utility.yul\":10711:10720   */\n      dup3\n        /* \"#utility.yul\":10707:10725   */\n      add\n        /* \"#utility.yul\":10699:10725   */\n      swap1\n      pop\n        /* \"#utility.yul\":10735:10806   */\n      tag_321\n        /* \"#utility.yul\":10803:10804   */\n      0x00\n        /* \"#utility.yul\":10792:10801   */\n      dup4\n        /* \"#utility.yul\":10788:10805   */\n      add\n        /* \"#utility.yul\":10779:10785   */\n      dup6\n        /* \"#utility.yul\":10735:10806   */\n      tag_200\n      jump\t// in\n    tag_321:\n        /* \"#utility.yul\":10816:10888   */\n      tag_322\n        /* \"#utility.yul\":10884:10886   */\n      0x20\n        /* \"#utility.yul\":10873:10882   */\n      dup4\n        /* \"#utility.yul\":10869:10887   */\n      add\n        /* \"#utility.yul\":10860:10866   */\n      dup5\n        /* \"#utility.yul\":10816:10888   */\n      tag_187\n      jump\t// in\n    tag_322:\n        /* \"#utility.yul\":10563:10895   */\n      swap4\n      swap3\n      pop\n      pop\n      pop\n      jump\t// out\n        /* \"#utility.yul\":10901:11017   */\n    tag_201:\n        /* \"#utility.yul\":10971:10992   */\n      tag_324\n        /* \"#utility.yul\":10986:10991   */\n      dup2\n        /* \"#utility.yul\":10971:10992   */\n      tag_173\n      jump\t// in\n    tag_324:\n        /* \"#utility.yul\":10964:10969   */\n      dup2\n        /* \"#utility.yul\":10961:10993   */\n      eq\n        /* \"#utility.yul\":10951:11011   */\n      tag_325\n      jumpi\n        /* \"#utility.yul\":11007:11008   */\n      0x00\n        /* \"#utility.yul\":11004:11005   */\n      0x00\n        /* \"#utility.yul\":10997:11009   */\n      revert\n        /* \"#utility.yul\":10951:11011   */\n    tag_325:\n        /* \"#utility.yul\":10901:11017   */\n      pop\n      jump\t// out\n        /* \"#utility.yul\":11023:11160   */\n    tag_202:\n        /* \"#utility.yul\":11077:11082   */\n      0x00\n        /* \"#utility.yul\":11108:11114   */\n      dup2\n        /* \"#utility.yul\":11102:11115   */\n      mload\n        /* \"#utility.yul\":11093:11115   */\n      swap1\n      pop\n        /* \"#utility.yul\":11124:11154   */\n      tag_327\n        /* \"#utility.yul\":11148:11153   */\n      dup2\n        /* \"#utility.yul\":11124:11154   */\n      tag_201\n      jump\t// in\n    tag_327:\n        /* \"#utility.yul\":11023:11160   */\n      swap3\n      swap2\n      pop\n      pop\n      jump\t// out\n        /* \"#utility.yul\":11166:11511   */\n    tag_74:\n        /* \"#utility.yul\":11233:11239   */\n      0x00\n        /* \"#utility.yul\":11282:11284   */\n      0x20\n        /* \"#utility.yul\":11270:11279   */\n      dup3\n        /* \"#utility.yul\":11261:11268   */\n      dup5\n        /* \"#utility.yul\":11257:11280   */\n      sub\n        /* \"#utility.yul\":11253:11285   */\n      slt\n        /* \"#utility.yul\":11250:11369   */\n      iszero\n      tag_329\n      jumpi\n        /* \"#utility.yul\":11288:11367   */\n      tag_330\n      tag_168\n      jump\t// in\n    tag_330:\n        /* \"#utility.yul\":11250:11369   */\n    tag_329:\n        /* \"#utility.yul\":11408:11409   */\n      0x00\n        /* \"#utility.yul\":11433:11494   */\n      tag_331\n        /* \"#utility.yul\":11486:11493   */\n      dup5\n        /* \"#utility.yul\":11477:11483   */\n      dup3\n        /* \"#utility.yul\":11466:11475   */\n      dup6\n        /* \"#utility.yul\":11462:11484   */\n      add\n        /* \"#utility.yul\":11433:11494   */\n      tag_202\n      jump\t// in\n    tag_331:\n        /* \"#utility.yul\":11423:11494   */\n      swap2\n      pop\n        /* \"#utility.yul\":11379:11504   */\n      pop\n        /* \"#utility.yul\":11166:11511   */\n      swap3\n      swap2\n      pop\n      pop\n      jump\t// out\n        /* \"#utility.yul\":11517:11680   */\n    tag_203:\n        /* \"#utility.yul\":11657:11672   */\n      0x4e6f7420796f7572207475726e00000000000000000000000000000000000000\n        /* \"#utility.yul\":11653:11654   */\n      0x00\n        /* \"#utility.yul\":11645:11651   */\n      dup3\n        /* \"#utility.yul\":11641:11655   */\n      add\n        /* \"#utility.yul\":11634:11673   */\n      mstore\n        /* \"#utility.yul\":11517:11680   */\n      pop\n      jump\t// out\n        /* \"#utility.yul\":11686:12052   */\n    tag_204:\n        /* \"#utility.yul\":11828:11831   */\n      0x00\n        /* \"#utility.yul\":11849:11916   */\n      tag_334\n        /* \"#utility.yul\":11913:11915   */\n      0x0d\n        /* \"#utility.yul\":11908:11911   */\n      dup4\n        /* \"#utility.yul\":11849:11916   */\n      tag_191\n      jump\t// in\n    tag_334:\n        /* \"#utility.yul\":11842:11916   */\n      swap2\n      pop\n        /* \"#utility.yul\":11925:12018   */\n      tag_335\n        /* \"#utility.yul\":12014:12017   */\n      dup3\n        /* \"#utility.yul\":11925:12018   */\n      tag_203\n      jump\t// in\n    tag_335:\n        /* \"#utility.yul\":12043:12045   */\n      0x20\n        /* \"#utility.yul\":12038:12041   */\n      dup3\n        /* \"#utility.yul\":12034:12046   */\n      add\n        /* \"#utility.yul\":12027:12046   */\n      swap1\n      pop\n        /* \"#utility.yul\":11686:12052   */\n      swap2\n      swap1\n      pop\n      jump\t// out\n        /* \"#utility.yul\":12058:12477   */\n    tag_85:\n        /* \"#utility.yul\":12224:12228   */\n      0x00\n        /* \"#utility.yul\":12262:12264   */\n      0x20\n        /* \"#utility.yul\":12251:12260   */\n      dup3\n        /* \"#utility.yul\":12247:12265   */\n      add\n        /* \"#utility.yul\":12239:12265   */\n      swap1\n      pop\n        /* \"#utility.yul\":12311:12320   */\n      dup2\n        /* \"#utility.yul\":12305:12309   */\n      dup2\n        /* \"#utility.yul\":12301:12321   */\n      sub\n        /* \"#utility.yul\":12297:12298   */\n      0x00\n        /* \"#utility.yul\":12286:12295   */\n      dup4\n        /* \"#utility.yul\":12282:12299   */\n      add\n        /* \"#utility.yul\":12275:12322   */\n      mstore\n        /* \"#utility.yul\":12339:12470   */\n      tag_337\n        /* \"#utility.yul\":12465:12469   */\n      dup2\n        /* \"#utility.yul\":12339:12470   */\n      tag_204\n      jump\t// in\n    tag_337:\n        /* \"#utility.yul\":12331:12470   */\n      swap1\n      pop\n        /* \"#utility.yul\":12058:12477   */\n      swap2\n      swap1\n      pop\n      jump\t// out\n        /* \"#utility.yul\":12483:12655   */\n    tag_205:\n        /* \"#utility.yul\":12623:12647   */\n      0x416d6f756e74206973206f7574206f662072616e676500000000000000000000\n        /* \"#utility.yul\":12619:12620   */\n      0x00\n        /* \"#utility.yul\":12611:12617   */\n      dup3\n        /* \"#utility.yul\":12607:12621   */\n      add\n        /* \"#utility.yul\":12600:12648   */\n      mstore\n        /* \"#utility.yul\":12483:12655   */\n      pop\n      jump\t// out\n        /* \"#utility.yul\":12661:13027   */\n    tag_206:\n        /* \"#utility.yul\":12803:12806   */\n      0x00\n        /* \"#utility.yul\":12824:12891   */\n      tag_340\n        /* \"#utility.yul\":12888:12890   */\n      0x16\n        /* \"#utility.yul\":12883:12886   */\n      dup4\n        /* \"#utility.yul\":12824:12891   */\n      tag_191\n      jump\t// in\n    tag_340:\n        /* \"#utility.yul\":12817:12891   */\n      swap2\n      pop\n        /* \"#utility.yul\":12900:12993   */\n      tag_341\n        /* \"#utility.yul\":12989:12992   */\n      dup3\n        /* \"#utility.yul\":12900:12993   */\n      tag_205\n      jump\t// in\n    tag_341:\n        /* \"#utility.yul\":13018:13020   */\n      0x20\n        /* \"#utility.yul\":13013:13016   */\n      dup3\n        /* \"#utility.yul\":13009:13021   */\n      add\n        /* \"#utility.yul\":13002:13021   */\n      swap1\n      pop\n        /* \"#utility.yul\":12661:13027   */\n      swap2\n      swap1\n      pop\n      jump\t// out\n        /* \"#utility.yul\":13033:13452   */\n    tag_105:\n        /* \"#utility.yul\":13199:13203   */\n      0x00\n        /* \"#utility.yul\":13237:13239   */\n      0x20\n        /* \"#utility.yul\":13226:13235   */\n      dup3\n        /* \"#utility.yul\":13222:13240   */\n      add\n        /* \"#utility.yul\":13214:13240   */\n      swap1\n      pop\n        /* \"#utility.yul\":13286:13295   */\n      dup2\n        /* \"#utility.yul\":13280:13284   */\n      dup2\n        /* \"#utility.yul\":13276:13296   */\n      sub\n        /* \"#utility.yul\":13272:13273   */\n      0x00\n        /* \"#utility.yul\":13261:13270   */\n      dup4\n        /* \"#utility.yul\":13257:13274   */\n      add\n        /* \"#utility.yul\":13250:13297   */\n      mstore\n        /* \"#utility.yul\":13314:13445   */\n      tag_343\n        /* \"#utility.yul\":13440:13444   */\n      dup2\n        /* \"#utility.yul\":13314:13445   */\n      tag_206\n      jump\t// in\n    tag_343:\n        /* \"#utility.yul\":13306:13445   */\n      swap1\n      pop\n        /* \"#utility.yul\":13033:13452   */\n      swap2\n      swap1\n      pop\n      jump\t// out\n        /* \"#utility.yul\":13458:13629   */\n    tag_207:\n        /* \"#utility.yul\":13598:13621   */\n      0x4475726174696f6e20697320746f6f2073686f72740000000000000000000000\n        /* \"#utility.yul\":13594:13595   */\n      0x00\n        /* \"#utility.yul\":13586:13592   */\n      dup3\n        /* \"#utility.yul\":13582:13596   */\n      add\n        /* \"#utility.yul\":13575:13622   */\n      mstore\n        /* \"#utility.yul\":13458:13629   */\n      pop\n      jump\t// out\n        /* \"#utility.yul\":13635:14001   */\n    tag_208:\n        /* \"#utility.yul\":13777:13780   */\n      0x00\n        /* \"#utility.yul\":13798:13865   */\n      tag_346\n        /* \"#utility.yul\":13862:13864   */\n      0x15\n        /* \"#utility.yul\":13857:13860   */\n      dup4\n        /* \"#utility.yul\":13798:13865   */\n      tag_191\n      jump\t// in\n    tag_346:\n        /* \"#utility.yul\":13791:13865   */\n      swap2\n      pop\n        /* \"#utility.yul\":13874:13967   */\n      tag_347\n        /* \"#utility.yul\":13963:13966   */\n      dup3\n        /* \"#utility.yul\":13874:13967   */\n      tag_207\n      jump\t// in\n    tag_347:\n        /* \"#utility.yul\":13992:13994   */\n      0x20\n        /* \"#utility.yul\":13987:13990   */\n      dup3\n        /* \"#utility.yul\":13983:13995   */\n      add\n        /* \"#utility.yul\":13976:13995   */\n      swap1\n      pop\n        /* \"#utility.yul\":13635:14001   */\n      swap2\n      swap1\n      pop\n      jump\t// out\n        /* \"#utility.yul\":14007:14426   */\n    tag_108:\n        /* \"#utility.yul\":14173:14177   */\n      0x00\n        /* \"#utility.yul\":14211:14213   */\n      0x20\n        /* \"#utility.yul\":14200:14209   */\n      dup3\n        /* \"#utility.yul\":14196:14214   */\n      add\n        /* \"#utility.yul\":14188:14214   */\n      swap1\n      pop\n        /* \"#utility.yul\":14260:14269   */\n      dup2\n        /* \"#utility.yul\":14254:14258   */\n      dup2\n        /* \"#utility.yul\":14250:14270   */\n      sub\n        /* \"#utility.yul\":14246:14247   */\n      0x00\n        /* \"#utility.yul\":14235:14244   */\n      dup4\n        /* \"#utility.yul\":14231:14248   */\n      add\n        /* \"#utility.yul\":14224:14271   */\n      mstore\n        /* \"#utility.yul\":14288:14419   */\n      tag_349\n        /* \"#utility.yul\":14414:14418   */\n      dup2\n        /* \"#utility.yul\":14288:14419   */\n      tag_208\n      jump\t// in\n    tag_349:\n        /* \"#utility.yul\":14280:14419   */\n      swap1\n      pop\n        /* \"#utility.yul\":14007:14426   */\n      swap2\n      swap1\n      pop\n      jump\t// out\n        /* \"#utility.yul\":14432:14654   */\n    tag_110:\n        /* \"#utility.yul\":14525:14529   */\n      0x00\n        /* \"#utility.yul\":14563:14565   */\n      0x20\n        /* \"#utility.yul\":14552:14561   */\n      dup3\n        /* \"#utility.yul\":14548:14566   */\n      add\n        /* \"#utility.yul\":14540:14566   */\n      swap1\n      pop\n        /* \"#utility.yul\":14576:14647   */\n      tag_351\n        /* \"#utility.yul\":14644:14645   */\n      0x00\n        /* \"#utility.yul\":14633:14642   */\n      dup4\n        /* \"#utility.yul\":14629:14646   */\n      add\n        /* \"#utility.yul\":14620:14626   */\n      dup5\n        /* \"#utility.yul\":14576:14647   */\n      tag_200\n      jump\t// in\n    tag_351:\n        /* \"#utility.yul\":14432:14654   */\n      swap3\n      swap2\n      pop\n      pop\n      jump\t// out\n        /* \"#utility.yul\":14660:14803   */\n    tag_209:\n        /* \"#utility.yul\":14717:14722   */\n      0x00\n        /* \"#utility.yul\":14748:14754   */\n      dup2\n        /* \"#utility.yul\":14742:14755   */\n      mload\n        /* \"#utility.yul\":14733:14755   */\n      swap1\n      pop\n        /* \"#utility.yul\":14764:14797   */\n      tag_353\n        /* \"#utility.yul\":14791:14796   */\n      dup2\n        /* \"#utility.yul\":14764:14797   */\n      tag_171\n      jump\t// in\n    tag_353:\n        /* \"#utility.yul\":14660:14803   */\n      swap3\n      swap2\n      pop\n      pop\n      jump\t// out\n        /* \"#utility.yul\":14809:15160   */\n    tag_114:\n        /* \"#utility.yul\":14879:14885   */\n      0x00\n        /* \"#utility.yul\":14928:14930   */\n      0x20\n        /* \"#utility.yul\":14916:14925   */\n      dup3\n        /* \"#utility.yul\":14907:14914   */\n      dup5\n        /* \"#utility.yul\":14903:14926   */\n      sub\n        /* \"#utility.yul\":14899:14931   */\n      slt\n        /* \"#utility.yul\":14896:15015   */\n      iszero\n      tag_355\n      jumpi\n        /* \"#utility.yul\":14934:15013   */\n      tag_356\n      tag_168\n      jump\t// in\n    tag_356:\n        /* \"#utility.yul\":14896:15015   */\n    tag_355:\n        /* \"#utility.yul\":15054:15055   */\n      0x00\n        /* \"#utility.yul\":15079:15143   */\n      tag_357\n        /* \"#utility.yul\":15135:15142   */\n      dup5\n        /* \"#utility.yul\":15126:15132   */\n      dup3\n        /* \"#utility.yul\":15115:15124   */\n      dup6\n        /* \"#utility.yul\":15111:15133   */\n      add\n        /* \"#utility.yul\":15079:15143   */\n      tag_209\n      jump\t// in\n    tag_357:\n        /* \"#utility.yul\":15069:15143   */\n      swap2\n      pop\n        /* \"#utility.yul\":15025:15153   */\n      pop\n        /* \"#utility.yul\":14809:15160   */\n      swap3\n      swap2\n      pop\n      pop\n      jump\t// out\n        /* \"#utility.yul\":15166:15337   */\n    tag_210:\n        /* \"#utility.yul\":15306:15329   */\n      0x596f7520646f6e2774206861766520656e6f7567680000000000000000000000\n        /* \"#utility.yul\":15302:15303   */\n      0x00\n        /* \"#utility.yul\":15294:15300   */\n      dup3\n        /* \"#utility.yul\":15290:15304   */\n      add\n        /* \"#utility.yul\":15283:15330   */\n      mstore\n        /* \"#utility.yul\":15166:15337   */\n      pop\n      jump\t// out\n        /* \"#utility.yul\":15343:15709   */\n    tag_211:\n        /* \"#utility.yul\":15485:15488   */\n      0x00\n        /* \"#utility.yul\":15506:15573   */\n      tag_360\n        /* \"#utility.yul\":15570:15572   */\n      0x15\n        /* \"#utility.yul\":15565:15568   */\n      dup4\n        /* \"#utility.yul\":15506:15573   */\n      tag_191\n      jump\t// in\n    tag_360:\n        /* \"#utility.yul\":15499:15573   */\n      swap2\n      pop\n        /* \"#utility.yul\":15582:15675   */\n      tag_361\n        /* \"#utility.yul\":15671:15674   */\n      dup3\n        /* \"#utility.yul\":15582:15675   */\n      tag_210\n      jump\t// in\n    tag_361:\n        /* \"#utility.yul\":15700:15702   */\n      0x20\n        /* \"#utility.yul\":15695:15698   */\n      dup3\n        /* \"#utility.yul\":15691:15703   */\n      add\n        /* \"#utility.yul\":15684:15703   */\n      swap1\n      pop\n        /* \"#utility.yul\":15343:15709   */\n      swap2\n      swap1\n      pop\n      jump\t// out\n        /* \"#utility.yul\":15715:16134   */\n    tag_117:\n        /* \"#utility.yul\":15881:15885   */\n      0x00\n        /* \"#utility.yul\":15919:15921   */\n      0x20\n        /* \"#utility.yul\":15908:15917   */\n      dup3\n        /* \"#utility.yul\":15904:15922   */\n      add\n        /* \"#utility.yul\":15896:15922   */\n      swap1\n      pop\n        /* \"#utility.yul\":15968:15977   */\n      dup2\n        /* \"#utility.yul\":15962:15966   */\n      dup2\n        /* \"#utility.yul\":15958:15978   */\n      sub\n        /* \"#utility.yul\":15954:15955   */\n      0x00\n        /* \"#utility.yul\":15943:15952   */\n      dup4\n        /* \"#utility.yul\":15939:15956   */\n      add\n        /* \"#utility.yul\":15932:15979   */\n      mstore\n        /* \"#utility.yul\":15996:16127   */\n      tag_363\n        /* \"#utility.yul\":16122:16126   */\n      dup2\n        /* \"#utility.yul\":15996:16127   */\n      tag_211\n      jump\t// in\n    tag_363:\n        /* \"#utility.yul\":15988:16127   */\n      swap1\n      pop\n        /* \"#utility.yul\":15715:16134   */\n      swap2\n      swap1\n      pop\n      jump\t// out\n        /* \"#utility.yul\":16140:16472   */\n    tag_119:\n        /* \"#utility.yul\":16261:16265   */\n      0x00\n        /* \"#utility.yul\":16299:16301   */\n      0x40\n        /* \"#utility.yul\":16288:16297   */\n      dup3\n        /* \"#utility.yul\":16284:16302   */\n      add\n        /* \"#utility.yul\":16276:16302   */\n      swap1\n      pop\n        /* \"#utility.yul\":16312:16383   */\n      tag_365\n        /* \"#utility.yul\":16380:16381   */\n      0x00\n        /* \"#utility.yul\":16369:16378   */\n      dup4\n        /* \"#utility.yul\":16365:16382   */\n      add\n        /* \"#utility.yul\":16356:16362   */\n      dup6\n        /* \"#utility.yul\":16312:16383   */\n      tag_200\n      jump\t// in\n    tag_365:\n        /* \"#utility.yul\":16393:16465   */\n      tag_366\n        /* \"#utility.yul\":16461:16463   */\n      0x20\n        /* \"#utility.yul\":16450:16459   */\n      dup4\n        /* \"#utility.yul\":16446:16464   */\n      add\n        /* \"#utility.yul\":16437:16443   */\n      dup5\n        /* \"#utility.yul\":16393:16465   */\n      tag_200\n      jump\t// in\n    tag_366:\n        /* \"#utility.yul\":16140:16472   */\n      swap4\n      swap3\n      pop\n      pop\n      pop\n      jump\t// out\n        /* \"#utility.yul\":16478:16656   */\n    tag_212:\n        /* \"#utility.yul\":16618:16648   */\n      0x416d6f756e7420616c6c6f776564206973206e6f7420656e6f75676800000000\n        /* \"#utility.yul\":16614:16615   */\n      0x00\n        /* \"#utility.yul\":16606:16612   */\n      dup3\n        /* \"#utility.yul\":16602:16616   */\n      add\n        /* \"#utility.yul\":16595:16649   */\n      mstore\n        /* \"#utility.yul\":16478:16656   */\n      pop\n      jump\t// out\n        /* \"#utility.yul\":16662:17028   */\n    tag_213:\n        /* \"#utility.yul\":16804:16807   */\n      0x00\n        /* \"#utility.yul\":16825:16892   */\n      tag_369\n        /* \"#utility.yul\":16889:16891   */\n      0x1c\n        /* \"#utility.yul\":16884:16887   */\n      dup4\n        /* \"#utility.yul\":16825:16892   */\n      tag_191\n      jump\t// in\n    tag_369:\n        /* \"#utility.yul\":16818:16892   */\n      swap2\n      pop\n        /* \"#utility.yul\":16901:16994   */\n      tag_370\n        /* \"#utility.yul\":16990:16993   */\n      dup3\n        /* \"#utility.yul\":16901:16994   */\n      tag_212\n      jump\t// in\n    tag_370:\n        /* \"#utility.yul\":17019:17021   */\n      0x20\n        /* \"#utility.yul\":17014:17017   */\n      dup3\n        /* \"#utility.yul\":17010:17022   */\n      add\n        /* \"#utility.yul\":17003:17022   */\n      swap1\n      pop\n        /* \"#utility.yul\":16662:17028   */\n      swap2\n      swap1\n      pop\n      jump\t// out\n        /* \"#utility.yul\":17034:17453   */\n    tag_125:\n        /* \"#utility.yul\":17200:17204   */\n      0x00\n        /* \"#utility.yul\":17238:17240   */\n      0x20\n        /* \"#utility.yul\":17227:17236   */\n      dup3\n        /* \"#utility.yul\":17223:17241   */\n      add\n        /* \"#utility.yul\":17215:17241   */\n      swap1\n      pop\n        /* \"#utility.yul\":17287:17296   */\n      dup2\n        /* \"#utility.yul\":17281:17285   */\n      dup2\n        /* \"#utility.yul\":17277:17297   */\n      sub\n        /* \"#utility.yul\":17273:17274   */\n      0x00\n        /* \"#utility.yul\":17262:17271   */\n      dup4\n        /* \"#utility.yul\":17258:17275   */\n      add\n        /* \"#utility.yul\":17251:17298   */\n      mstore\n        /* \"#utility.yul\":17315:17446   */\n      tag_372\n        /* \"#utility.yul\":17441:17445   */\n      dup2\n        /* \"#utility.yul\":17315:17446   */\n      tag_213\n      jump\t// in\n    tag_372:\n        /* \"#utility.yul\":17307:17446   */\n      swap1\n      pop\n        /* \"#utility.yul\":17034:17453   */\n      swap2\n      swap1\n      pop\n      jump\t// out\n        /* \"#utility.yul\":17459:17901   */\n    tag_127:\n        /* \"#utility.yul\":17608:17612   */\n      0x00\n        /* \"#utility.yul\":17646:17648   */\n      0x60\n        /* \"#utility.yul\":17635:17644   */\n      dup3\n        /* \"#utility.yul\":17631:17649   */\n      add\n        /* \"#utility.yul\":17623:17649   */\n      swap1\n      pop\n        /* \"#utility.yul\":17659:17730   */\n      tag_374\n        /* \"#utility.yul\":17727:17728   */\n      0x00\n        /* \"#utility.yul\":17716:17725   */\n      dup4\n        /* \"#utility.yul\":17712:17729   */\n      add\n        /* \"#utility.yul\":17703:17709   */\n      dup7\n        /* \"#utility.yul\":17659:17730   */\n      tag_200\n      jump\t// in\n    tag_374:\n        /* \"#utility.yul\":17740:17812   */\n      tag_375\n        /* \"#utility.yul\":17808:17810   */\n      0x20\n        /* \"#utility.yul\":17797:17806   */\n      dup4\n        /* \"#utility.yul\":17793:17811   */\n      add\n        /* \"#utility.yul\":17784:17790   */\n      dup6\n        /* \"#utility.yul\":17740:17812   */\n      tag_200\n      jump\t// in\n    tag_375:\n        /* \"#utility.yul\":17822:17894   */\n      tag_376\n        /* \"#utility.yul\":17890:17892   */\n      0x40\n        /* \"#utility.yul\":17879:17888   */\n      dup4\n        /* \"#utility.yul\":17875:17893   */\n      add\n        /* \"#utility.yul\":17866:17872   */\n      dup5\n        /* \"#utility.yul\":17822:17894   */\n      tag_187\n      jump\t// in\n    tag_376:\n        /* \"#utility.yul\":17459:17901   */\n      swap5\n      swap4\n      pop\n      pop\n      pop\n      pop\n      jump\t// out\n        /* \"#utility.yul\":17907:18087   */\n    tag_214:\n        /* \"#utility.yul\":17955:18032   */\n      0x4e487b7100000000000000000000000000000000000000000000000000000000\n        /* \"#utility.yul\":17952:17953   */\n      0x00\n        /* \"#utility.yul\":17945:18033   */\n      mstore\n        /* \"#utility.yul\":18052:18056   */\n      0x11\n        /* \"#utility.yul\":18049:18050   */\n      0x04\n        /* \"#utility.yul\":18042:18057   */\n      mstore\n        /* \"#utility.yul\":18076:18080   */\n      0x24\n        /* \"#utility.yul\":18073:18074   */\n      0x00\n        /* \"#utility.yul\":18066:18081   */\n      revert\n        /* \"#utility.yul\":18093:18284   */\n    tag_133:\n        /* \"#utility.yul\":18133:18136   */\n      0x00\n        /* \"#utility.yul\":18152:18172   */\n      tag_379\n        /* \"#utility.yul\":18170:18171   */\n      dup3\n        /* \"#utility.yul\":18152:18172   */\n      tag_170\n      jump\t// in\n    tag_379:\n        /* \"#utility.yul\":18147:18172   */\n      swap2\n      pop\n        /* \"#utility.yul\":18186:18206   */\n      tag_380\n        /* \"#utility.yul\":18204:18205   */\n      dup4\n        /* \"#utility.yul\":18186:18206   */\n      tag_170\n      jump\t// in\n    tag_380:\n        /* \"#utility.yul\":18181:18206   */\n      swap3\n      pop\n        /* \"#utility.yul\":18229:18230   */\n      dup3\n        /* \"#utility.yul\":18226:18227   */\n      dup3\n        /* \"#utility.yul\":18222:18231   */\n      add\n        /* \"#utility.yul\":18215:18231   */\n      swap1\n      pop\n        /* \"#utility.yul\":18250:18253   */\n      dup1\n        /* \"#utility.yul\":18247:18248   */\n      dup3\n        /* \"#utility.yul\":18244:18254   */\n      gt\n        /* \"#utility.yul\":18241:18277   */\n      iszero\n      tag_381\n      jumpi\n        /* \"#utility.yul\":18257:18275   */\n      tag_382\n      tag_214\n      jump\t// in\n    tag_382:\n        /* \"#utility.yul\":18241:18277   */\n    tag_381:\n        /* \"#utility.yul\":18093:18284   */\n      swap3\n      swap2\n      pop\n      pop\n      jump\t// out\n        /* \"#utility.yul\":18290:18449   */\n    tag_215:\n        /* \"#utility.yul\":18430:18441   */\n      0x4e6f204163636573730000000000000000000000000000000000000000000000\n        /* \"#utility.yul\":18426:18427   */\n      0x00\n        /* \"#utility.yul\":18418:18424   */\n      dup3\n        /* \"#utility.yul\":18414:18428   */\n      add\n        /* \"#utility.yul\":18407:18442   */\n      mstore\n        /* \"#utility.yul\":18290:18449   */\n      pop\n      jump\t// out\n        /* \"#utility.yul\":18455:18820   */\n    tag_216:\n        /* \"#utility.yul\":18597:18600   */\n      0x00\n        /* \"#utility.yul\":18618:18684   */\n      tag_385\n        /* \"#utility.yul\":18682:18683   */\n      0x09\n        /* \"#utility.yul\":18677:18680   */\n      dup4\n        /* \"#utility.yul\":18618:18684   */\n      tag_191\n      jump\t// in\n    tag_385:\n        /* \"#utility.yul\":18611:18684   */\n      swap2\n      pop\n        /* \"#utility.yul\":18693:18786   */\n      tag_386\n        /* \"#utility.yul\":18782:18785   */\n      dup3\n        /* \"#utility.yul\":18693:18786   */\n      tag_215\n      jump\t// in\n    tag_386:\n        /* \"#utility.yul\":18811:18813   */\n      0x20\n        /* \"#utility.yul\":18806:18809   */\n      dup3\n        /* \"#utility.yul\":18802:18814   */\n      add\n        /* \"#utility.yul\":18795:18814   */\n      swap1\n      pop\n        /* \"#utility.yul\":18455:18820   */\n      swap2\n      swap1\n      pop\n      jump\t// out\n        /* \"#utility.yul\":18826:19245   */\n    tag_139:\n        /* \"#utility.yul\":18992:18996   */\n      0x00\n        /* \"#utility.yul\":19030:19032   */\n      0x20\n        /* \"#utility.yul\":19019:19028   */\n      dup3\n        /* \"#utility.yul\":19015:19033   */\n      add\n        /* \"#utility.yul\":19007:19033   */\n      swap1\n      pop\n        /* \"#utility.yul\":19079:19088   */\n      dup2\n        /* \"#utility.yul\":19073:19077   */\n      dup2\n        /* \"#utility.yul\":19069:19089   */\n      sub\n        /* \"#utility.yul\":19065:19066   */\n      0x00\n        /* \"#utility.yul\":19054:19063   */\n      dup4\n        /* \"#utility.yul\":19050:19067   */\n      add\n        /* \"#utility.yul\":19043:19090   */\n      mstore\n        /* \"#utility.yul\":19107:19238   */\n      tag_388\n        /* \"#utility.yul\":19233:19237   */\n      dup2\n        /* \"#utility.yul\":19107:19238   */\n      tag_216\n      jump\t// in\n    tag_388:\n        /* \"#utility.yul\":19099:19238   */\n      swap1\n      pop\n        /* \"#utility.yul\":18826:19245   */\n      swap2\n      swap1\n      pop\n      jump\t// out\n        /* \"#utility.yul\":19251:19445   */\n    tag_161:\n        /* \"#utility.yul\":19291:19295   */\n      0x00\n        /* \"#utility.yul\":19311:19331   */\n      tag_390\n        /* \"#utility.yul\":19329:19330   */\n      dup3\n        /* \"#utility.yul\":19311:19331   */\n      tag_170\n      jump\t// in\n    tag_390:\n        /* \"#utility.yul\":19306:19331   */\n      swap2\n      pop\n        /* \"#utility.yul\":19345:19365   */\n      tag_391\n        /* \"#utility.yul\":19363:19364   */\n      dup4\n        /* \"#utility.yul\":19345:19365   */\n      tag_170\n      jump\t// in\n    tag_391:\n        /* \"#utility.yul\":19340:19365   */\n      swap3\n      pop\n        /* \"#utility.yul\":19389:19390   */\n      dup3\n        /* \"#utility.yul\":19386:19387   */\n      dup3\n        /* \"#utility.yul\":19382:19391   */\n      sub\n        /* \"#utility.yul\":19374:19391   */\n      swap1\n      pop\n        /* \"#utility.yul\":19413:19414   */\n      dup2\n        /* \"#utility.yul\":19407:19411   */\n      dup2\n        /* \"#utility.yul\":19404:19415   */\n      gt\n        /* \"#utility.yul\":19401:19438   */\n      iszero\n      tag_392\n      jumpi\n        /* \"#utility.yul\":19418:19436   */\n      tag_393\n      tag_214\n      jump\t// in\n    tag_393:\n        /* \"#utility.yul\":19401:19438   */\n    tag_392:\n        /* \"#utility.yul\":19251:19445   */\n      swap3\n      swap2\n      pop\n      pop\n      jump\t// out\n        /* \"#utility.yul\":19451:19861   */\n    tag_163:\n        /* \"#utility.yul\":19491:19498   */\n      0x00\n        /* \"#utility.yul\":19514:19534   */\n      tag_395\n        /* \"#utility.yul\":19532:19533   */\n      dup3\n        /* \"#utility.yul\":19514:19534   */\n      tag_170\n      jump\t// in\n    tag_395:\n        /* \"#utility.yul\":19509:19534   */\n      swap2\n      pop\n        /* \"#utility.yul\":19548:19568   */\n      tag_396\n        /* \"#utility.yul\":19566:19567   */\n      dup4\n        /* \"#utility.yul\":19548:19568   */\n      tag_170\n      jump\t// in\n    tag_396:\n        /* \"#utility.yul\":19543:19568   */\n      swap3\n      pop\n        /* \"#utility.yul\":19603:19604   */\n      dup3\n        /* \"#utility.yul\":19600:19601   */\n      dup3\n        /* \"#utility.yul\":19596:19605   */\n      mul\n        /* \"#utility.yul\":19625:19655   */\n      tag_397\n        /* \"#utility.yul\":19643:19654   */\n      dup2\n        /* \"#utility.yul\":19625:19655   */\n      tag_170\n      jump\t// in\n    tag_397:\n        /* \"#utility.yul\":19614:19655   */\n      swap2\n      pop\n        /* \"#utility.yul\":19804:19805   */\n      dup3\n        /* \"#utility.yul\":19795:19802   */\n      dup3\n        /* \"#utility.yul\":19791:19806   */\n      div\n        /* \"#utility.yul\":19788:19789   */\n      dup5\n        /* \"#utility.yul\":19785:19807   */\n      eq\n        /* \"#utility.yul\":19765:19766   */\n      dup4\n        /* \"#utility.yul\":19758:19767   */\n      iszero\n        /* \"#utility.yul\":19738:19821   */\n      or\n        /* \"#utility.yul\":19715:19854   */\n      tag_398\n      jumpi\n        /* \"#utility.yul\":19834:19852   */\n      tag_399\n      tag_214\n      jump\t// in\n    tag_399:\n        /* \"#utility.yul\":19715:19854   */\n    tag_398:\n        /* \"#utility.yul\":19499:19861   */\n      pop\n        /* \"#utility.yul\":19451:19861   */\n      swap3\n      swap2\n      pop\n      pop\n      jump\t// out\n        /* \"#utility.yul\":19867:20047   */\n    tag_217:\n        /* \"#utility.yul\":19915:19992   */\n      0x4e487b7100000000000000000000000000000000000000000000000000000000\n        /* \"#utility.yul\":19912:19913   */\n      0x00\n        /* \"#utility.yul\":19905:19993   */\n      mstore\n        /* \"#utility.yul\":20012:20016   */\n      0x12\n        /* \"#utility.yul\":20009:20010   */\n      0x04\n        /* \"#utility.yul\":20002:20017   */\n      mstore\n        /* \"#utility.yul\":20036:20040   */\n      0x24\n        /* \"#utility.yul\":20033:20034   */\n      0x00\n        /* \"#utility.yul\":20026:20041   */\n      revert\n        /* \"#utility.yul\":20053:20238   */\n    tag_166:\n        /* \"#utility.yul\":20093:20094   */\n      0x00\n        /* \"#utility.yul\":20110:20130   */\n      tag_402\n        /* \"#utility.yul\":20128:20129   */\n      dup3\n        /* \"#utility.yul\":20110:20130   */\n      tag_170\n      jump\t// in\n    tag_402:\n        /* \"#utility.yul\":20105:20130   */\n      swap2\n      pop\n        /* \"#utility.yul\":20144:20164   */\n      tag_403\n        /* \"#utility.yul\":20162:20163   */\n      dup4\n        /* \"#utility.yul\":20144:20164   */\n      tag_170\n      jump\t// in\n    tag_403:\n        /* \"#utility.yul\":20139:20164   */\n      swap3\n      pop\n        /* \"#utility.yul\":20183:20184   */\n      dup3\n        /* \"#utility.yul\":20173:20208   */\n      tag_404\n      jumpi\n        /* \"#utility.yul\":20188:20206   */\n      tag_405\n      tag_217\n      jump\t// in\n    tag_405:\n        /* \"#utility.yul\":20173:20208   */\n    tag_404:\n        /* \"#utility.yul\":20230:20231   */\n      dup3\n        /* \"#utility.yul\":20227:20228   */\n      dup3\n        /* \"#utility.yul\":20223:20232   */\n      div\n        /* \"#utility.yul\":20218:20232   */\n      swap1\n      pop\n        /* \"#utility.yul\":20053:20238   */\n      swap3\n      swap2\n      pop\n      pop\n      jump\t// out\n\n    auxdata: 0xa2646970667358221220eec6970d1d38b7a3a281f1e5152523b341692bcb650b6aa1ea3e5748a59fdac064736f6c634300081b0033\n}\n",
				"bytecode": {
					"linkReferences": {},
					"object": "60c0604052683635c9adc5dea0000060809081525069152d02c7e14af680000060a090815250348015610030575f5ffd5b50604051611ed9380380611ed983398181016040528101906100529190610176565b815f5f6101000a81548173ffffffffffffffffffffffffffffffffffffffff021916908373ffffffffffffffffffffffffffffffffffffffff1602179055508060015f6101000a81548173ffffffffffffffffffffffffffffffffffffffff021916908373ffffffffffffffffffffffffffffffffffffffff1602179055503360025f6101000a81548173ffffffffffffffffffffffffffffffffffffffff021916908373ffffffffffffffffffffffffffffffffffffffff16021790555050506101b4565b5f5ffd5b5f73ffffffffffffffffffffffffffffffffffffffff82169050919050565b5f6101458261011c565b9050919050565b6101558161013b565b811461015f575f5ffd5b50565b5f815190506101708161014c565b92915050565b5f5f6040838503121561018c5761018b610118565b5b5f61019985828601610162565b92505060206101aa85828601610162565b9150509250929050565b60805160a051611d046101d55f395f610abc01525f610a910152611d045ff3fe608060405234801561000f575f5ffd5b5060043610610091575f3560e01c80637b0472f0116100645780637b0472f01461011d5780639be2f4ed14610139578063dede8ef614610157578063efbabd9114610175578063f2fde38b1461019357610091565b806325d5971f146100955780634e71e0c8146100c55780636d6e31f7146100cf57806374b28101146100ff575b5f5ffd5b6100af60048036038101906100aa9190611369565b6101af565b6040516100bc91906113ae565b60405180910390f35b6100cd6105af565b005b6100e960048036038101906100e491906113fd565b6107eb565b6040516100f69190611499565b60405180910390f35b610107610992565b604051610114919061152c565b60405180910390f35b61013760048036038101906101329190611545565b6109b6565b005b610141610ef3565b60405161014e919061152c565b60405180910390f35b61015f610f18565b60405161016c9190611592565b60405180910390f35b61017d61104a565b60405161018a9190611592565b60405180910390f35b6101ad60048036038101906101a891906115e6565b61117d565b005b5f600360149054906101000a900460ff1615610200576040517f08c379a00000000000000000000000000000000000000000000000000000000081526004016101f79061166b565b60405180910390fd5b6001600360146101000a81548160ff0219169083151502179055505f73ffffffffffffffffffffffffffffffffffffffff163373ffffffffffffffffffffffffffffffffffffffff1603610289576040517f08c379a0000000000000000000000000000000000000000000000000000000008152600401610280906116d3565b60405180910390fd5b60045f3373ffffffffffffffffffffffffffffffffffffffff1673ffffffffffffffffffffffffffffffffffffffff1681526020019081526020015f2080549050821061030b576040517f08c379a00000000000000000000000000000000000000000000000000000000081526004016103029061173b565b60405180910390fd5b5f60045f3373ffffffffffffffffffffffffffffffffffffffff1673ffffffffffffffffffffffffffffffffffffffff1681526020019081526020015f20838154811061035b5761035a611759565b5b905f5260205f2090600402019050806002015442116103af576040517f08c379a00000000000000000000000000000000000000000000000000000000081526004016103a6906117d0565b60405180910390fd5b5f815f015490505f6103c9428460020154855f01546112bd565b90506001836003015f6101000a81548160ff0219169083151502179055505f835f01819055505f83600101819055505f83600201819055505f5f9054906101000a900473ffffffffffffffffffffffffffffffffffffffff1673ffffffffffffffffffffffffffffffffffffffff1663a9059cbb33846040518363ffffffff1660e01b815260040161045c9291906117fd565b6020604051808303815f875af1158015610478573d5f5f3e3d5ffd5b505050506040513d601f19601f8201168201806040525081019061049c919061184e565b5060015f9054906101000a900473ffffffffffffffffffffffffffffffffffffffff1673ffffffffffffffffffffffffffffffffffffffff1663a9059cbb33836040518363ffffffff1660e01b81526004016104f99291906117fd565b6020604051808303815f875af1158015610515573d5f5f3e3d5ffd5b505050506040513d601f19601f82011682018060405250810190610539919061184e565b50803373ffffffffffffffffffffffffffffffffffffffff167ffb59733a8f0bd43414922fb86c6ffdd090e44935074086318980ca89221acc56846040516105819190611592565b60405180910390a3600193505050505f600360146101000a81548160ff021916908315150217905550919050565b5f73ffffffffffffffffffffffffffffffffffffffff163373ffffffffffffffffffffffffffffffffffffffff160361061d576040517f08c379a0000000000000000000000000000000000000000000000000000000008152600401610614906116d3565b60405180910390fd5b60035f9054906101000a900473ffffffffffffffffffffffffffffffffffffffff1673ffffffffffffffffffffffffffffffffffffffff163373ffffffffffffffffffffffffffffffffffffffff16146106ac576040517f08c379a00000000000000000000000000000000000000000000000000000000081526004016106a3906118c3565b60405180910390fd5b60035f9054906101000a900473ffffffffffffffffffffffffffffffffffffffff1673ffffffffffffffffffffffffffffffffffffffff1660025f9054906101000a900473ffffffffffffffffffffffffffffffffffffffff1673ffffffffffffffffffffffffffffffffffffffff167f0d18b5fd22306e373229b9439188228edca81207d1667f604daf6cef8aa3ee6760405160405180910390a360035f9054906101000a900473ffffffffffffffffffffffffffffffffffffffff1660025f6101000a81548173ffffffffffffffffffffffffffffffffffffffff021916908373ffffffffffffffffffffffffffffffffffffffff1602179055505f60035f6101000a81548173ffffffffffffffffffffffffffffffffffffffff021916908373ffffffffffffffffffffffffffffffffffffffff160217905550565b6107f361130c565b5f73ffffffffffffffffffffffffffffffffffffffff163373ffffffffffffffffffffffffffffffffffffffff1603610861576040517f08c379a0000000000000000000000000000000000000000000000000000000008152600401610858906116d3565b60405180910390fd5b60045f3373ffffffffffffffffffffffffffffffffffffffff1673ffffffffffffffffffffffffffffffffffffffff1681526020019081526020015f20805490508260ff16106108e6576040517f08c379a00000000000000000000000000000000000000000000000000000000081526004016108dd9061173b565b60405180910390fd5b5f60045f3373ffffffffffffffffffffffffffffffffffffffff1673ffffffffffffffffffffffffffffffffffffffff1681526020019081526020015f208360ff168154811061093957610938611759565b5b905f5260205f2090600402016040518060800160405290815f82015481526020016001820154815260200160028201548152602001600382015f9054906101000a900460ff161515151581525050905080915050919050565b5f5f9054906101000a900473ffffffffffffffffffffffffffffffffffffffff1681565b600360149054906101000a900460ff1615610a06576040517f08c379a00000000000000000000000000000000000000000000000000000000081526004016109fd9061166b565b60405180910390fd5b6001600360146101000a81548160ff0219169083151502179055505f73ffffffffffffffffffffffffffffffffffffffff163373ffffffffffffffffffffffffffffffffffffffff1603610a8f576040517f08c379a0000000000000000000000000000000000000000000000000000000008152600401610a86906116d3565b60405180910390fd5b7f00000000000000000000000000000000000000000000000000000000000000008210158015610adf57507f00000000000000000000000000000000000000000000000000000000000000008211155b610b1e576040517f08c379a0000000000000000000000000000000000000000000000000000000008152600401610b159061192b565b60405180910390fd5b5f8111610b60576040517f08c379a0000000000000000000000000000000000000000000000000000000008152600401610b5790611993565b60405180910390fd5b815f5f9054906101000a900473ffffffffffffffffffffffffffffffffffffffff1673ffffffffffffffffffffffffffffffffffffffff166370a08231336040518263ffffffff1660e01b8152600401610bba91906119b1565b602060405180830381865afa158015610bd5573d5f5f3e3d5ffd5b505050506040513d601f19601f82011682018060405250810190610bf991906119de565b1015610c3a576040517f08c379a0000000000000000000000000000000000000000000000000000000008152600401610c3190611a53565b60405180910390fd5b815f5f9054906101000a900473ffffffffffffffffffffffffffffffffffffffff1673ffffffffffffffffffffffffffffffffffffffff1663dd62ed3e33306040518363ffffffff1660e01b8152600401610c96929190611a71565b602060405180830381865afa158015610cb1573d5f5f3e3d5ffd5b505050506040513d601f19601f82011682018060405250810190610cd591906119de565b1015610d16576040517f08c379a0000000000000000000000000000000000000000000000000000000008152600401610d0d90611ae2565b60405180910390fd5b5f5f9054906101000a900473ffffffffffffffffffffffffffffffffffffffff1673ffffffffffffffffffffffffffffffffffffffff166323b872dd3330856040518463ffffffff1660e01b8152600401610d7393929190611b00565b6020604051808303815f875af1158015610d8f573d5f5f3e3d5ffd5b505050506040513d601f19601f82011682018060405250810190610db3919061184e565b50610dbc61130c565b82815f0181815250508142610dd19190611b62565b8160400181815250504281602001818152505060045f3373ffffffffffffffffffffffffffffffffffffffff1673ffffffffffffffffffffffffffffffffffffffff1681526020019081526020015f2081908060018154018082558091505060019003905f5260205f2090600402015f909190919091505f820151815f015560208201518160010155604082015181600201556060820151816003015f6101000a81548160ff0219169083151502179055505050423373ffffffffffffffffffffffffffffffffffffffff167f61bb8b82654398e0bdd4e0d489b5e9104b6840211fd89f7264264c96589051fd85604051610ecc9190611592565b60405180910390a3505f600360146101000a81548160ff0219169083151502179055505050565b60015f9054906101000a900473ffffffffffffffffffffffffffffffffffffffff1681565b5f60025f9054906101000a900473ffffffffffffffffffffffffffffffffffffffff1673ffffffffffffffffffffffffffffffffffffffff163373ffffffffffffffffffffffffffffffffffffffff1614610fa8576040517f08c379a0000000000000000000000000000000000000000000000000000000008152600401610f9f90611bdf565b60405180910390fd5b5f5f5f9054906101000a900473ffffffffffffffffffffffffffffffffffffffff1673ffffffffffffffffffffffffffffffffffffffff166370a08231306040518263ffffffff1660e01b815260040161100291906119b1565b602060405180830381865afa15801561101d573d5f5f3e3d5ffd5b505050506040513d601f19601f8201168201806040525081019061104191906119de565b90508091505090565b5f60025f9054906101000a900473ffffffffffffffffffffffffffffffffffffffff1673ffffffffffffffffffffffffffffffffffffffff163373ffffffffffffffffffffffffffffffffffffffff16146110da576040517f08c379a00000000000000000000000000000000000000000000000000000000081526004016110d190611bdf565b60405180910390fd5b5f60015f9054906101000a900473ffffffffffffffffffffffffffffffffffffffff1673ffffffffffffffffffffffffffffffffffffffff166370a08231306040518263ffffffff1660e01b815260040161113591906119b1565b602060405180830381865afa158015611150573d5f5f3e3d5ffd5b505050506040513d601f19601f8201168201806040525081019061117491906119de565b90508091505090565b60025f9054906101000a900473ffffffffffffffffffffffffffffffffffffffff1673ffffffffffffffffffffffffffffffffffffffff163373ffffffffffffffffffffffffffffffffffffffff161461120c576040517f08c379a000000000000000000000000000000000000000000000000000000000815260040161120390611bdf565b60405180910390fd5b5f73ffffffffffffffffffffffffffffffffffffffff168173ffffffffffffffffffffffffffffffffffffffff160361127a576040517f08c379a0000000000000000000000000000000000000000000000000000000008152600401611271906116d3565b60405180910390fd5b8060035f6101000a81548173ffffffffffffffffffffffffffffffffffffffff021916908373ffffffffffffffffffffffffffffffffffffffff16021790555050565b5f5f84846112cb9190611bfd565b90505f64e8d4a510008285620f424063ffffffff166112ea9190611c30565b6112f49190611c30565b6112fe9190611c9e565b905080925050509392505050565b60405180608001604052805f81526020015f81526020015f81526020015f151581525090565b5f5ffd5b5f819050919050565b61134881611336565b8114611352575f5ffd5b50565b5f813590506113638161133f565b92915050565b5f6020828403121561137e5761137d611332565b5b5f61138b84828501611355565b91505092915050565b5f8115159050919050565b6113a881611394565b82525050565b5f6020820190506113c15f83018461139f565b92915050565b5f60ff82169050919050565b6113dc816113c7565b81146113e6575f5ffd5b50565b5f813590506113f7816113d3565b92915050565b5f6020828403121561141257611411611332565b5b5f61141f848285016113e9565b91505092915050565b61143181611336565b82525050565b61144081611394565b82525050565b608082015f82015161145a5f850182611428565b50602082015161146d6020850182611428565b5060408201516114806040850182611428565b5060608201516114936060850182611437565b50505050565b5f6080820190506114ac5f830184611446565b92915050565b5f73ffffffffffffffffffffffffffffffffffffffff82169050919050565b5f819050919050565b5f6114f46114ef6114ea846114b2565b6114d1565b6114b2565b9050919050565b5f611505826114da565b9050919050565b5f611516826114fb565b9050919050565b6115268161150c565b82525050565b5f60208201905061153f5f83018461151d565b92915050565b5f5f6040838503121561155b5761155a611332565b5b5f61156885828601611355565b925050602061157985828601611355565b9150509250929050565b61158c81611336565b82525050565b5f6020820190506115a55f830184611583565b92915050565b5f6115b5826114b2565b9050919050565b6115c5816115ab565b81146115cf575f5ffd5b50565b5f813590506115e0816115bc565b92915050565b5f602082840312156115fb576115fa611332565b5b5f611608848285016115d2565b91505092915050565b5f82825260208201905092915050565b7f4e6f7420616c6c6f77656420746f2072655f656e7465720000000000000000005f82015250565b5f611655601783611611565b915061166082611621565b602082019050919050565b5f6020820190508181035f83015261168281611649565b9050919050565b7f5a65726f2061646472657373206e6f7420616c6c6f77656400000000000000005f82015250565b5f6116bd601883611611565b91506116c882611689565b602082019050919050565b5f6020820190508181035f8301526116ea816116b1565b9050919050565b7f4f7574206f662072616e676500000000000000000000000000000000000000005f82015250565b5f611725600c83611611565b9150611730826116f1565b602082019050919050565b5f6020820190508181035f83015261175281611719565b9050919050565b7f4e487b71000000000000000000000000000000000000000000000000000000005f52603260045260245ffd5b7f4e6f74207965742074696d6500000000000000000000000000000000000000005f82015250565b5f6117ba600c83611611565b91506117c582611786565b602082019050919050565b5f6020820190508181035f8301526117e7816117ae565b9050919050565b6117f7816115ab565b82525050565b5f6040820190506118105f8301856117ee565b61181d6020830184611583565b9392505050565b61182d81611394565b8114611837575f5ffd5b50565b5f8151905061184881611824565b92915050565b5f6020828403121561186357611862611332565b5b5f6118708482850161183a565b91505092915050565b7f4e6f7420796f7572207475726e000000000000000000000000000000000000005f82015250565b5f6118ad600d83611611565b91506118b882611879565b602082019050919050565b5f6020820190508181035f8301526118da816118a1565b9050919050565b7f416d6f756e74206973206f7574206f662072616e6765000000000000000000005f82015250565b5f611915601683611611565b9150611920826118e1565b602082019050919050565b5f6020820190508181035f83015261194281611909565b9050919050565b7f4475726174696f6e20697320746f6f2073686f727400000000000000000000005f82015250565b5f61197d601583611611565b915061198882611949565b602082019050919050565b5f6020820190508181035f8301526119aa81611971565b9050919050565b5f6020820190506119c45f8301846117ee565b92915050565b5f815190506119d88161133f565b92915050565b5f602082840312156119f3576119f2611332565b5b5f611a00848285016119ca565b91505092915050565b7f596f7520646f6e2774206861766520656e6f75676800000000000000000000005f82015250565b5f611a3d601583611611565b9150611a4882611a09565b602082019050919050565b5f6020820190508181035f830152611a6a81611a31565b9050919050565b5f604082019050611a845f8301856117ee565b611a9160208301846117ee565b9392505050565b7f416d6f756e7420616c6c6f776564206973206e6f7420656e6f756768000000005f82015250565b5f611acc601c83611611565b9150611ad782611a98565b602082019050919050565b5f6020820190508181035f830152611af981611ac0565b9050919050565b5f606082019050611b135f8301866117ee565b611b2060208301856117ee565b611b2d6040830184611583565b949350505050565b7f4e487b71000000000000000000000000000000000000000000000000000000005f52601160045260245ffd5b5f611b6c82611336565b9150611b7783611336565b9250828201905080821115611b8f57611b8e611b35565b5b92915050565b7f4e6f2041636365737300000000000000000000000000000000000000000000005f82015250565b5f611bc9600983611611565b9150611bd482611b95565b602082019050919050565b5f6020820190508181035f830152611bf681611bbd565b9050919050565b5f611c0782611336565b9150611c1283611336565b9250828203905081811115611c2a57611c29611b35565b5b92915050565b5f611c3a82611336565b9150611c4583611336565b9250828202611c5381611336565b91508282048414831517611c6a57611c69611b35565b5b5092915050565b7f4e487b71000000000000000000000000000000000000000000000000000000005f52601260045260245ffd5b5f611ca882611336565b9150611cb383611336565b925082611cc357611cc2611c71565b5b82820490509291505056fea2646970667358221220eec6970d1d38b7a3a281f1e5152523b341692bcb650b6aa1ea3e5748a59fdac064736f6c634300081b0033",
					"opcodes": "PUSH1 0xC0 PUSH1 0x40 MSTORE PUSH9 0x3635C9ADC5DEA00000 PUSH1 0x80 SWAP1 DUP2 MSTORE POP PUSH10 0x152D02C7E14AF6800000 PUSH1 0xA0 SWAP1 DUP2 MSTORE POP CALLVALUE DUP1 ISZERO PUSH2 0x30 JUMPI PUSH0 PUSH0 REVERT JUMPDEST POP PUSH1 0x40 MLOAD PUSH2 0x1ED9 CODESIZE SUB DUP1 PUSH2 0x1ED9 DUP4 CODECOPY DUP2 DUP2 ADD PUSH1 0x40 MSTORE DUP2 ADD SWAP1 PUSH2 0x52 SWAP2 SWAP1 PUSH2 0x176 JUMP JUMPDEST DUP2 PUSH0 PUSH0 PUSH2 0x100 EXP DUP2 SLOAD DUP2 PUSH20 0xFFFFFFFFFFFFFFFFFFFFFFFFFFFFFFFFFFFFFFFF MUL NOT AND SWAP1 DUP4 PUSH20 0xFFFFFFFFFFFFFFFFFFFFFFFFFFFFFFFFFFFFFFFF AND MUL OR SWAP1 SSTORE POP DUP1 PUSH1 0x1 PUSH0 PUSH2 0x100 EXP DUP2 SLOAD DUP2 PUSH20 0xFFFFFFFFFFFFFFFFFFFFFFFFFFFFFFFFFFFFFFFF MUL NOT AND SWAP1 DUP4 PUSH20 0xFFFFFFFFFFFFFFFFFFFFFFFFFFFFFFFFFFFFFFFF AND MUL OR SWAP1 SSTORE POP CALLER PUSH1 0x2 PUSH0 PUSH2 0x100 EXP DUP2 SLOAD DUP2 PUSH20 0xFFFFFFFFFFFFFFFFFFFFFFFFFFFFFFFFFFFFFFFF MUL NOT AND SWAP1 DUP4 PUSH20 0xFFFFFFFFFFFFFFFFFFFFFFFFFFFFFFFFFFFFFFFF AND MUL OR SWAP1 SSTORE POP POP POP PUSH2 0x1B4 JUMP JUMPDEST PUSH0 PUSH0 REVERT JUMPDEST PUSH0 PUSH20 0xFFFFFFFFFFFFFFFFFFFFFFFFFFFFFFFFFFFFFFFF DUP3 AND SWAP1 POP SWAP2 SWAP1 POP JUMP JUMPDEST PUSH0 PUSH2 0x145 DUP3 PUSH2 0x11C JUMP JUMPDEST SWAP1 POP SWAP2 SWAP1 POP JUMP JUMPDEST PUSH2 0x155 DUP2 PUSH2 0x13B JUMP JUMPDEST DUP2 EQ PUSH2 0x15F JUMPI PUSH0 PUSH0 REVERT JUMPDEST POP JUMP JUMPDEST PUSH0 DUP2 MLOAD SWAP1 POP PUSH2 0x170 DUP2 PUSH2 0x14C JUMP JUMPDEST SWAP3 SWAP2 POP POP JUMP JUMPDEST PUSH0 PUSH0 PUSH1 0x40 DUP4 DUP6 SUB SLT ISZERO PUSH2 0x18C JUMPI PUSH2 0x18B PUSH2 0x118 JUMP JUMPDEST JUMPDEST PUSH0 PUSH2 0x199 DUP6 DUP3 DUP7 ADD PUSH2 0x162 JUMP JUMPDEST SWAP3 POP POP PUSH1 0x20 PUSH2 0x1AA DUP6 DUP3 DUP7 ADD PUSH2 0x162 JUMP JUMPDEST SWAP2 POP POP SWAP3 POP SWAP3 SWAP1 POP JUMP JUMPDEST PUSH1 0x80 MLOAD PUSH1 0xA0 MLOAD PUSH2 0x1D04 PUSH2 0x1D5 PUSH0 CODECOPY PUSH0 PUSH2 0xABC ADD MSTORE PUSH0 PUSH2 0xA91 ADD MSTORE PUSH2 0x1D04 PUSH0 RETURN INVALID PUSH1 0x80 PUSH1 0x40 MSTORE CALLVALUE DUP1 ISZERO PUSH2 0xF JUMPI PUSH0 PUSH0 REVERT JUMPDEST POP PUSH1 0x4 CALLDATASIZE LT PUSH2 0x91 JUMPI PUSH0 CALLDATALOAD PUSH1 0xE0 SHR DUP1 PUSH4 0x7B0472F0 GT PUSH2 0x64 JUMPI DUP1 PUSH4 0x7B0472F0 EQ PUSH2 0x11D JUMPI DUP1 PUSH4 0x9BE2F4ED EQ PUSH2 0x139 JUMPI DUP1 PUSH4 0xDEDE8EF6 EQ PUSH2 0x157 JUMPI DUP1 PUSH4 0xEFBABD91 EQ PUSH2 0x175 JUMPI DUP1 PUSH4 0xF2FDE38B EQ PUSH2 0x193 JUMPI PUSH2 0x91 JUMP JUMPDEST DUP1 PUSH4 0x25D5971F EQ PUSH2 0x95 JUMPI DUP1 PUSH4 0x4E71E0C8 EQ PUSH2 0xC5 JUMPI DUP1 PUSH4 0x6D6E31F7 EQ PUSH2 0xCF JUMPI DUP1 PUSH4 0x74B28101 EQ PUSH2 0xFF JUMPI JUMPDEST PUSH0 PUSH0 REVERT JUMPDEST PUSH2 0xAF PUSH1 0x4 DUP1 CALLDATASIZE SUB DUP2 ADD SWAP1 PUSH2 0xAA SWAP2 SWAP1 PUSH2 0x1369 JUMP JUMPDEST PUSH2 0x1AF JUMP JUMPDEST PUSH1 0x40 MLOAD PUSH2 0xBC SWAP2 SWAP1 PUSH2 0x13AE JUMP JUMPDEST PUSH1 0x40 MLOAD DUP1 SWAP2 SUB SWAP1 RETURN JUMPDEST PUSH2 0xCD PUSH2 0x5AF JUMP JUMPDEST STOP JUMPDEST PUSH2 0xE9 PUSH1 0x4 DUP1 CALLDATASIZE SUB DUP2 ADD SWAP1 PUSH2 0xE4 SWAP2 SWAP1 PUSH2 0x13FD JUMP JUMPDEST PUSH2 0x7EB JUMP JUMPDEST PUSH1 0x40 MLOAD PUSH2 0xF6 SWAP2 SWAP1 PUSH2 0x1499 JUMP JUMPDEST PUSH1 0x40 MLOAD DUP1 SWAP2 SUB SWAP1 RETURN JUMPDEST PUSH2 0x107 PUSH2 0x992 JUMP JUMPDEST PUSH1 0x40 MLOAD PUSH2 0x114 SWAP2 SWAP1 PUSH2 0x152C JUMP JUMPDEST PUSH1 0x40 MLOAD DUP1 SWAP2 SUB SWAP1 RETURN JUMPDEST PUSH2 0x137 PUSH1 0x4 DUP1 CALLDATASIZE SUB DUP2 ADD SWAP1 PUSH2 0x132 SWAP2 SWAP1 PUSH2 0x1545 JUMP JUMPDEST PUSH2 0x9B6 JUMP JUMPDEST STOP JUMPDEST PUSH2 0x141 PUSH2 0xEF3 JUMP JUMPDEST PUSH1 0x40 MLOAD PUSH2 0x14E SWAP2 SWAP1 PUSH2 0x152C JUMP JUMPDEST PUSH1 0x40 MLOAD DUP1 SWAP2 SUB SWAP1 RETURN JUMPDEST PUSH2 0x15F PUSH2 0xF18 JUMP JUMPDEST PUSH1 0x40 MLOAD PUSH2 0x16C SWAP2 SWAP1 PUSH2 0x1592 JUMP JUMPDEST PUSH1 0x40 MLOAD DUP1 SWAP2 SUB SWAP1 RETURN JUMPDEST PUSH2 0x17D PUSH2 0x104A JUMP JUMPDEST PUSH1 0x40 MLOAD PUSH2 0x18A SWAP2 SWAP1 PUSH2 0x1592 JUMP JUMPDEST PUSH1 0x40 MLOAD DUP1 SWAP2 SUB SWAP1 RETURN JUMPDEST PUSH2 0x1AD PUSH1 0x4 DUP1 CALLDATASIZE SUB DUP2 ADD SWAP1 PUSH2 0x1A8 SWAP2 SWAP1 PUSH2 0x15E6 JUMP JUMPDEST PUSH2 0x117D JUMP JUMPDEST STOP JUMPDEST PUSH0 PUSH1 0x3 PUSH1 0x14 SWAP1 SLOAD SWAP1 PUSH2 0x100 EXP SWAP1 DIV PUSH1 0xFF AND ISZERO PUSH2 0x200 JUMPI PUSH1 0x40 MLOAD PUSH32 0x8C379A000000000000000000000000000000000000000000000000000000000 DUP2 MSTORE PUSH1 0x4 ADD PUSH2 0x1F7 SWAP1 PUSH2 0x166B JUMP JUMPDEST PUSH1 0x40 MLOAD DUP1 SWAP2 SUB SWAP1 REVERT JUMPDEST PUSH1 0x1 PUSH1 0x3 PUSH1 0x14 PUSH2 0x100 EXP DUP2 SLOAD DUP2 PUSH1 0xFF MUL NOT AND SWAP1 DUP4 ISZERO ISZERO MUL OR SWAP1 SSTORE POP PUSH0 PUSH20 0xFFFFFFFFFFFFFFFFFFFFFFFFFFFFFFFFFFFFFFFF AND CALLER PUSH20 0xFFFFFFFFFFFFFFFFFFFFFFFFFFFFFFFFFFFFFFFF AND SUB PUSH2 0x289 JUMPI PUSH1 0x40 MLOAD PUSH32 0x8C379A000000000000000000000000000000000000000000000000000000000 DUP2 MSTORE PUSH1 0x4 ADD PUSH2 0x280 SWAP1 PUSH2 0x16D3 JUMP JUMPDEST PUSH1 0x40 MLOAD DUP1 SWAP2 SUB SWAP1 REVERT JUMPDEST PUSH1 0x4 PUSH0 CALLER PUSH20 0xFFFFFFFFFFFFFFFFFFFFFFFFFFFFFFFFFFFFFFFF AND PUSH20 0xFFFFFFFFFFFFFFFFFFFFFFFFFFFFFFFFFFFFFFFF AND DUP2 MSTORE PUSH1 0x20 ADD SWAP1 DUP2 MSTORE PUSH1 0x20 ADD PUSH0 KECCAK256 DUP1 SLOAD SWAP1 POP DUP3 LT PUSH2 0x30B JUMPI PUSH1 0x40 MLOAD PUSH32 0x8C379A000000000000000000000000000000000000000000000000000000000 DUP2 MSTORE PUSH1 0x4 ADD PUSH2 0x302 SWAP1 PUSH2 0x173B JUMP JUMPDEST PUSH1 0x40 MLOAD DUP1 SWAP2 SUB SWAP1 REVERT JUMPDEST PUSH0 PUSH1 0x4 PUSH0 CALLER PUSH20 0xFFFFFFFFFFFFFFFFFFFFFFFFFFFFFFFFFFFFFFFF AND PUSH20 0xFFFFFFFFFFFFFFFFFFFFFFFFFFFFFFFFFFFFFFFF AND DUP2 MSTORE PUSH1 0x20 ADD SWAP1 DUP2 MSTORE PUSH1 0x20 ADD PUSH0 KECCAK256 DUP4 DUP2 SLOAD DUP2 LT PUSH2 0x35B JUMPI PUSH2 0x35A PUSH2 0x1759 JUMP JUMPDEST JUMPDEST SWAP1 PUSH0 MSTORE PUSH1 0x20 PUSH0 KECCAK256 SWAP1 PUSH1 0x4 MUL ADD SWAP1 POP DUP1 PUSH1 0x2 ADD SLOAD TIMESTAMP GT PUSH2 0x3AF JUMPI PUSH1 0x40 MLOAD PUSH32 0x8C379A000000000000000000000000000000000000000000000000000000000 DUP2 MSTORE PUSH1 0x4 ADD PUSH2 0x3A6 SWAP1 PUSH2 0x17D0 JUMP JUMPDEST PUSH1 0x40 MLOAD DUP1 SWAP2 SUB SWAP1 REVERT JUMPDEST PUSH0 DUP2 PUSH0 ADD SLOAD SWAP1 POP PUSH0 PUSH2 0x3C9 TIMESTAMP DUP5 PUSH1 0x2 ADD SLOAD DUP6 PUSH0 ADD SLOAD PUSH2 0x12BD JUMP JUMPDEST SWAP1 POP PUSH1 0x1 DUP4 PUSH1 0x3 ADD PUSH0 PUSH2 0x100 EXP DUP2 SLOAD DUP2 PUSH1 0xFF MUL NOT AND SWAP1 DUP4 ISZERO ISZERO MUL OR SWAP1 SSTORE POP PUSH0 DUP4 PUSH0 ADD DUP2 SWAP1 SSTORE POP PUSH0 DUP4 PUSH1 0x1 ADD DUP2 SWAP1 SSTORE POP PUSH0 DUP4 PUSH1 0x2 ADD DUP2 SWAP1 SSTORE POP PUSH0 PUSH0 SWAP1 SLOAD SWAP1 PUSH2 0x100 EXP SWAP1 DIV PUSH20 0xFFFFFFFFFFFFFFFFFFFFFFFFFFFFFFFFFFFFFFFF AND PUSH20 0xFFFFFFFFFFFFFFFFFFFFFFFFFFFFFFFFFFFFFFFF AND PUSH4 0xA9059CBB CALLER DUP5 PUSH1 0x40 MLOAD DUP4 PUSH4 0xFFFFFFFF AND PUSH1 0xE0 SHL DUP2 MSTORE PUSH1 0x4 ADD PUSH2 0x45C SWAP3 SWAP2 SWAP1 PUSH2 0x17FD JUMP JUMPDEST PUSH1 0x20 PUSH1 0x40 MLOAD DUP1 DUP4 SUB DUP2 PUSH0 DUP8 GAS CALL ISZERO DUP1 ISZERO PUSH2 0x478 JUMPI RETURNDATASIZE PUSH0 PUSH0 RETURNDATACOPY RETURNDATASIZE PUSH0 REVERT JUMPDEST POP POP POP POP PUSH1 0x40 MLOAD RETURNDATASIZE PUSH1 0x1F NOT PUSH1 0x1F DUP3 ADD AND DUP3 ADD DUP1 PUSH1 0x40 MSTORE POP DUP2 ADD SWAP1 PUSH2 0x49C SWAP2 SWAP1 PUSH2 0x184E JUMP JUMPDEST POP PUSH1 0x1 PUSH0 SWAP1 SLOAD SWAP1 PUSH2 0x100 EXP SWAP1 DIV PUSH20 0xFFFFFFFFFFFFFFFFFFFFFFFFFFFFFFFFFFFFFFFF AND PUSH20 0xFFFFFFFFFFFFFFFFFFFFFFFFFFFFFFFFFFFFFFFF AND PUSH4 0xA9059CBB CALLER DUP4 PUSH1 0x40 MLOAD DUP4 PUSH4 0xFFFFFFFF AND PUSH1 0xE0 SHL DUP2 MSTORE PUSH1 0x4 ADD PUSH2 0x4F9 SWAP3 SWAP2 SWAP1 PUSH2 0x17FD JUMP JUMPDEST PUSH1 0x20 PUSH1 0x40 MLOAD DUP1 DUP4 SUB DUP2 PUSH0 DUP8 GAS CALL ISZERO DUP1 ISZERO PUSH2 0x515 JUMPI RETURNDATASIZE PUSH0 PUSH0 RETURNDATACOPY RETURNDATASIZE PUSH0 REVERT JUMPDEST POP POP POP POP PUSH1 0x40 MLOAD RETURNDATASIZE PUSH1 0x1F NOT PUSH1 0x1F DUP3 ADD AND DUP3 ADD DUP1 PUSH1 0x40 MSTORE POP DUP2 ADD SWAP1 PUSH2 0x539 SWAP2 SWAP1 PUSH2 0x184E JUMP JUMPDEST POP DUP1 CALLER PUSH20 0xFFFFFFFFFFFFFFFFFFFFFFFFFFFFFFFFFFFFFFFF AND PUSH32 0xFB59733A8F0BD43414922FB86C6FFDD090E44935074086318980CA89221ACC56 DUP5 PUSH1 0x40 MLOAD PUSH2 0x581 SWAP2 SWAP1 PUSH2 0x1592 JUMP JUMPDEST PUSH1 0x40 MLOAD DUP1 SWAP2 SUB SWAP1 LOG3 PUSH1 0x1 SWAP4 POP POP POP POP PUSH0 PUSH1 0x3 PUSH1 0x14 PUSH2 0x100 EXP DUP2 SLOAD DUP2 PUSH1 0xFF MUL NOT AND SWAP1 DUP4 ISZERO ISZERO MUL OR SWAP1 SSTORE POP SWAP2 SWAP1 POP JUMP JUMPDEST PUSH0 PUSH20 0xFFFFFFFFFFFFFFFFFFFFFFFFFFFFFFFFFFFFFFFF AND CALLER PUSH20 0xFFFFFFFFFFFFFFFFFFFFFFFFFFFFFFFFFFFFFFFF AND SUB PUSH2 0x61D JUMPI PUSH1 0x40 MLOAD PUSH32 0x8C379A000000000000000000000000000000000000000000000000000000000 DUP2 MSTORE PUSH1 0x4 ADD PUSH2 0x614 SWAP1 PUSH2 0x16D3 JUMP JUMPDEST PUSH1 0x40 MLOAD DUP1 SWAP2 SUB SWAP1 REVERT JUMPDEST PUSH1 0x3 PUSH0 SWAP1 SLOAD SWAP1 PUSH2 0x100 EXP SWAP1 DIV PUSH20 0xFFFFFFFFFFFFFFFFFFFFFFFFFFFFFFFFFFFFFFFF AND PUSH20 0xFFFFFFFFFFFFFFFFFFFFFFFFFFFFFFFFFFFFFFFF AND CALLER PUSH20 0xFFFFFFFFFFFFFFFFFFFFFFFFFFFFFFFFFFFFFFFF AND EQ PUSH2 0x6AC JUMPI PUSH1 0x40 MLOAD PUSH32 0x8C379A000000000000000000000000000000000000000000000000000000000 DUP2 MSTORE PUSH1 0x4 ADD PUSH2 0x6A3 SWAP1 PUSH2 0x18C3 JUMP JUMPDEST PUSH1 0x40 MLOAD DUP1 SWAP2 SUB SWAP1 REVERT JUMPDEST PUSH1 0x3 PUSH0 SWAP1 SLOAD SWAP1 PUSH2 0x100 EXP SWAP1 DIV PUSH20 0xFFFFFFFFFFFFFFFFFFFFFFFFFFFFFFFFFFFFFFFF AND PUSH20 0xFFFFFFFFFFFFFFFFFFFFFFFFFFFFFFFFFFFFFFFF AND PUSH1 0x2 PUSH0 SWAP1 SLOAD SWAP1 PUSH2 0x100 EXP SWAP1 DIV PUSH20 0xFFFFFFFFFFFFFFFFFFFFFFFFFFFFFFFFFFFFFFFF AND PUSH20 0xFFFFFFFFFFFFFFFFFFFFFFFFFFFFFFFFFFFFFFFF AND PUSH32 0xD18B5FD22306E373229B9439188228EDCA81207D1667F604DAF6CEF8AA3EE67 PUSH1 0x40 MLOAD PUSH1 0x40 MLOAD DUP1 SWAP2 SUB SWAP1 LOG3 PUSH1 0x3 PUSH0 SWAP1 SLOAD SWAP1 PUSH2 0x100 EXP SWAP1 DIV PUSH20 0xFFFFFFFFFFFFFFFFFFFFFFFFFFFFFFFFFFFFFFFF AND PUSH1 0x2 PUSH0 PUSH2 0x100 EXP DUP2 SLOAD DUP2 PUSH20 0xFFFFFFFFFFFFFFFFFFFFFFFFFFFFFFFFFFFFFFFF MUL NOT AND SWAP1 DUP4 PUSH20 0xFFFFFFFFFFFFFFFFFFFFFFFFFFFFFFFFFFFFFFFF AND MUL OR SWAP1 SSTORE POP PUSH0 PUSH1 0x3 PUSH0 PUSH2 0x100 EXP DUP2 SLOAD DUP2 PUSH20 0xFFFFFFFFFFFFFFFFFFFFFFFFFFFFFFFFFFFFFFFF MUL NOT AND SWAP1 DUP4 PUSH20 0xFFFFFFFFFFFFFFFFFFFFFFFFFFFFFFFFFFFFFFFF AND MUL OR SWAP1 SSTORE POP JUMP JUMPDEST PUSH2 0x7F3 PUSH2 0x130C JUMP JUMPDEST PUSH0 PUSH20 0xFFFFFFFFFFFFFFFFFFFFFFFFFFFFFFFFFFFFFFFF AND CALLER PUSH20 0xFFFFFFFFFFFFFFFFFFFFFFFFFFFFFFFFFFFFFFFF AND SUB PUSH2 0x861 JUMPI PUSH1 0x40 MLOAD PUSH32 0x8C379A000000000000000000000000000000000000000000000000000000000 DUP2 MSTORE PUSH1 0x4 ADD PUSH2 0x858 SWAP1 PUSH2 0x16D3 JUMP JUMPDEST PUSH1 0x40 MLOAD DUP1 SWAP2 SUB SWAP1 REVERT JUMPDEST PUSH1 0x4 PUSH0 CALLER PUSH20 0xFFFFFFFFFFFFFFFFFFFFFFFFFFFFFFFFFFFFFFFF AND PUSH20 0xFFFFFFFFFFFFFFFFFFFFFFFFFFFFFFFFFFFFFFFF AND DUP2 MSTORE PUSH1 0x20 ADD SWAP1 DUP2 MSTORE PUSH1 0x20 ADD PUSH0 KECCAK256 DUP1 SLOAD SWAP1 POP DUP3 PUSH1 0xFF AND LT PUSH2 0x8E6 JUMPI PUSH1 0x40 MLOAD PUSH32 0x8C379A000000000000000000000000000000000000000000000000000000000 DUP2 MSTORE PUSH1 0x4 ADD PUSH2 0x8DD SWAP1 PUSH2 0x173B JUMP JUMPDEST PUSH1 0x40 MLOAD DUP1 SWAP2 SUB SWAP1 REVERT JUMPDEST PUSH0 PUSH1 0x4 PUSH0 CALLER PUSH20 0xFFFFFFFFFFFFFFFFFFFFFFFFFFFFFFFFFFFFFFFF AND PUSH20 0xFFFFFFFFFFFFFFFFFFFFFFFFFFFFFFFFFFFFFFFF AND DUP2 MSTORE PUSH1 0x20 ADD SWAP1 DUP2 MSTORE PUSH1 0x20 ADD PUSH0 KECCAK256 DUP4 PUSH1 0xFF AND DUP2 SLOAD DUP2 LT PUSH2 0x939 JUMPI PUSH2 0x938 PUSH2 0x1759 JUMP JUMPDEST JUMPDEST SWAP1 PUSH0 MSTORE PUSH1 0x20 PUSH0 KECCAK256 SWAP1 PUSH1 0x4 MUL ADD PUSH1 0x40 MLOAD DUP1 PUSH1 0x80 ADD PUSH1 0x40 MSTORE SWAP1 DUP2 PUSH0 DUP3 ADD SLOAD DUP2 MSTORE PUSH1 0x20 ADD PUSH1 0x1 DUP3 ADD SLOAD DUP2 MSTORE PUSH1 0x20 ADD PUSH1 0x2 DUP3 ADD SLOAD DUP2 MSTORE PUSH1 0x20 ADD PUSH1 0x3 DUP3 ADD PUSH0 SWAP1 SLOAD SWAP1 PUSH2 0x100 EXP SWAP1 DIV PUSH1 0xFF AND ISZERO ISZERO ISZERO ISZERO DUP2 MSTORE POP POP SWAP1 POP DUP1 SWAP2 POP POP SWAP2 SWAP1 POP JUMP JUMPDEST PUSH0 PUSH0 SWAP1 SLOAD SWAP1 PUSH2 0x100 EXP SWAP1 DIV PUSH20 0xFFFFFFFFFFFFFFFFFFFFFFFFFFFFFFFFFFFFFFFF AND DUP2 JUMP JUMPDEST PUSH1 0x3 PUSH1 0x14 SWAP1 SLOAD SWAP1 PUSH2 0x100 EXP SWAP1 DIV PUSH1 0xFF AND ISZERO PUSH2 0xA06 JUMPI PUSH1 0x40 MLOAD PUSH32 0x8C379A000000000000000000000000000000000000000000000000000000000 DUP2 MSTORE PUSH1 0x4 ADD PUSH2 0x9FD SWAP1 PUSH2 0x166B JUMP JUMPDEST PUSH1 0x40 MLOAD DUP1 SWAP2 SUB SWAP1 REVERT JUMPDEST PUSH1 0x1 PUSH1 0x3 PUSH1 0x14 PUSH2 0x100 EXP DUP2 SLOAD DUP2 PUSH1 0xFF MUL NOT AND SWAP1 DUP4 ISZERO ISZERO MUL OR SWAP1 SSTORE POP PUSH0 PUSH20 0xFFFFFFFFFFFFFFFFFFFFFFFFFFFFFFFFFFFFFFFF AND CALLER PUSH20 0xFFFFFFFFFFFFFFFFFFFFFFFFFFFFFFFFFFFFFFFF AND SUB PUSH2 0xA8F JUMPI PUSH1 0x40 MLOAD PUSH32 0x8C379A000000000000000000000000000000000000000000000000000000000 DUP2 MSTORE PUSH1 0x4 ADD PUSH2 0xA86 SWAP1 PUSH2 0x16D3 JUMP JUMPDEST PUSH1 0x40 MLOAD DUP1 SWAP2 SUB SWAP1 REVERT JUMPDEST PUSH32 0x0 DUP3 LT ISZERO DUP1 ISZERO PUSH2 0xADF JUMPI POP PUSH32 0x0 DUP3 GT ISZERO JUMPDEST PUSH2 0xB1E JUMPI PUSH1 0x40 MLOAD PUSH32 0x8C379A000000000000000000000000000000000000000000000000000000000 DUP2 MSTORE PUSH1 0x4 ADD PUSH2 0xB15 SWAP1 PUSH2 0x192B JUMP JUMPDEST PUSH1 0x40 MLOAD DUP1 SWAP2 SUB SWAP1 REVERT JUMPDEST PUSH0 DUP2 GT PUSH2 0xB60 JUMPI PUSH1 0x40 MLOAD PUSH32 0x8C379A000000000000000000000000000000000000000000000000000000000 DUP2 MSTORE PUSH1 0x4 ADD PUSH2 0xB57 SWAP1 PUSH2 0x1993 JUMP JUMPDEST PUSH1 0x40 MLOAD DUP1 SWAP2 SUB SWAP1 REVERT JUMPDEST DUP2 PUSH0 PUSH0 SWAP1 SLOAD SWAP1 PUSH2 0x100 EXP SWAP1 DIV PUSH20 0xFFFFFFFFFFFFFFFFFFFFFFFFFFFFFFFFFFFFFFFF AND PUSH20 0xFFFFFFFFFFFFFFFFFFFFFFFFFFFFFFFFFFFFFFFF AND PUSH4 0x70A08231 CALLER PUSH1 0x40 MLOAD DUP3 PUSH4 0xFFFFFFFF AND PUSH1 0xE0 SHL DUP2 MSTORE PUSH1 0x4 ADD PUSH2 0xBBA SWAP2 SWAP1 PUSH2 0x19B1 JUMP JUMPDEST PUSH1 0x20 PUSH1 0x40 MLOAD DUP1 DUP4 SUB DUP2 DUP7 GAS STATICCALL ISZERO DUP1 ISZERO PUSH2 0xBD5 JUMPI RETURNDATASIZE PUSH0 PUSH0 RETURNDATACOPY RETURNDATASIZE PUSH0 REVERT JUMPDEST POP POP POP POP PUSH1 0x40 MLOAD RETURNDATASIZE PUSH1 0x1F NOT PUSH1 0x1F DUP3 ADD AND DUP3 ADD DUP1 PUSH1 0x40 MSTORE POP DUP2 ADD SWAP1 PUSH2 0xBF9 SWAP2 SWAP1 PUSH2 0x19DE JUMP JUMPDEST LT ISZERO PUSH2 0xC3A JUMPI PUSH1 0x40 MLOAD PUSH32 0x8C379A000000000000000000000000000000000000000000000000000000000 DUP2 MSTORE PUSH1 0x4 ADD PUSH2 0xC31 SWAP1 PUSH2 0x1A53 JUMP JUMPDEST PUSH1 0x40 MLOAD DUP1 SWAP2 SUB SWAP1 REVERT JUMPDEST DUP2 PUSH0 PUSH0 SWAP1 SLOAD SWAP1 PUSH2 0x100 EXP SWAP1 DIV PUSH20 0xFFFFFFFFFFFFFFFFFFFFFFFFFFFFFFFFFFFFFFFF AND PUSH20 0xFFFFFFFFFFFFFFFFFFFFFFFFFFFFFFFFFFFFFFFF AND PUSH4 0xDD62ED3E CALLER ADDRESS PUSH1 0x40 MLOAD DUP4 PUSH4 0xFFFFFFFF AND PUSH1 0xE0 SHL DUP2 MSTORE PUSH1 0x4 ADD PUSH2 0xC96 SWAP3 SWAP2 SWAP1 PUSH2 0x1A71 JUMP JUMPDEST PUSH1 0x20 PUSH1 0x40 MLOAD DUP1 DUP4 SUB DUP2 DUP7 GAS STATICCALL ISZERO DUP1 ISZERO PUSH2 0xCB1 JUMPI RETURNDATASIZE PUSH0 PUSH0 RETURNDATACOPY RETURNDATASIZE PUSH0 REVERT JUMPDEST POP POP POP POP PUSH1 0x40 MLOAD RETURNDATASIZE PUSH1 0x1F NOT PUSH1 0x1F DUP3 ADD AND DUP3 ADD DUP1 PUSH1 0x40 MSTORE POP DUP2 ADD SWAP1 PUSH2 0xCD5 SWAP2 SWAP1 PUSH2 0x19DE JUMP JUMPDEST LT ISZERO PUSH2 0xD16 JUMPI PUSH1 0x40 MLOAD PUSH32 0x8C379A000000000000000000000000000000000000000000000000000000000 DUP2 MSTORE PUSH1 0x4 ADD PUSH2 0xD0D SWAP1 PUSH2 0x1AE2 JUMP JUMPDEST PUSH1 0x40 MLOAD DUP1 SWAP2 SUB SWAP1 REVERT JUMPDEST PUSH0 PUSH0 SWAP1 SLOAD SWAP1 PUSH2 0x100 EXP SWAP1 DIV PUSH20 0xFFFFFFFFFFFFFFFFFFFFFFFFFFFFFFFFFFFFFFFF AND PUSH20 0xFFFFFFFFFFFFFFFFFFFFFFFFFFFFFFFFFFFFFFFF AND PUSH4 0x23B872DD CALLER ADDRESS DUP6 PUSH1 0x40 MLOAD DUP5 PUSH4 0xFFFFFFFF AND PUSH1 0xE0 SHL DUP2 MSTORE PUSH1 0x4 ADD PUSH2 0xD73 SWAP4 SWAP3 SWAP2 SWAP1 PUSH2 0x1B00 JUMP JUMPDEST PUSH1 0x20 PUSH1 0x40 MLOAD DUP1 DUP4 SUB DUP2 PUSH0 DUP8 GAS CALL ISZERO DUP1 ISZERO PUSH2 0xD8F JUMPI RETURNDATASIZE PUSH0 PUSH0 RETURNDATACOPY RETURNDATASIZE PUSH0 REVERT JUMPDEST POP POP POP POP PUSH1 0x40 MLOAD RETURNDATASIZE PUSH1 0x1F NOT PUSH1 0x1F DUP3 ADD AND DUP3 ADD DUP1 PUSH1 0x40 MSTORE POP DUP2 ADD SWAP1 PUSH2 0xDB3 SWAP2 SWAP1 PUSH2 0x184E JUMP JUMPDEST POP PUSH2 0xDBC PUSH2 0x130C JUMP JUMPDEST DUP3 DUP2 PUSH0 ADD DUP2 DUP2 MSTORE POP POP DUP2 TIMESTAMP PUSH2 0xDD1 SWAP2 SWAP1 PUSH2 0x1B62 JUMP JUMPDEST DUP2 PUSH1 0x40 ADD DUP2 DUP2 MSTORE POP POP TIMESTAMP DUP2 PUSH1 0x20 ADD DUP2 DUP2 MSTORE POP POP PUSH1 0x4 PUSH0 CALLER PUSH20 0xFFFFFFFFFFFFFFFFFFFFFFFFFFFFFFFFFFFFFFFF AND PUSH20 0xFFFFFFFFFFFFFFFFFFFFFFFFFFFFFFFFFFFFFFFF AND DUP2 MSTORE PUSH1 0x20 ADD SWAP1 DUP2 MSTORE PUSH1 0x20 ADD PUSH0 KECCAK256 DUP2 SWAP1 DUP1 PUSH1 0x1 DUP2 SLOAD ADD DUP1 DUP3 SSTORE DUP1 SWAP2 POP POP PUSH1 0x1 SWAP1 SUB SWAP1 PUSH0 MSTORE PUSH1 0x20 PUSH0 KECCAK256 SWAP1 PUSH1 0x4 MUL ADD PUSH0 SWAP1 SWAP2 SWAP1 SWAP2 SWAP1 SWAP2 POP PUSH0 DUP3 ADD MLOAD DUP2 PUSH0 ADD SSTORE PUSH1 0x20 DUP3 ADD MLOAD DUP2 PUSH1 0x1 ADD SSTORE PUSH1 0x40 DUP3 ADD MLOAD DUP2 PUSH1 0x2 ADD SSTORE PUSH1 0x60 DUP3 ADD MLOAD DUP2 PUSH1 0x3 ADD PUSH0 PUSH2 0x100 EXP DUP2 SLOAD DUP2 PUSH1 0xFF MUL NOT AND SWAP1 DUP4 ISZERO ISZERO MUL OR SWAP1 SSTORE POP POP POP TIMESTAMP CALLER PUSH20 0xFFFFFFFFFFFFFFFFFFFFFFFFFFFFFFFFFFFFFFFF AND PUSH32 0x61BB8B82654398E0BDD4E0D489B5E9104B6840211FD89F7264264C96589051FD DUP6 PUSH1 0x40 MLOAD PUSH2 0xECC SWAP2 SWAP1 PUSH2 0x1592 JUMP JUMPDEST PUSH1 0x40 MLOAD DUP1 SWAP2 SUB SWAP1 LOG3 POP PUSH0 PUSH1 0x3 PUSH1 0x14 PUSH2 0x100 EXP DUP2 SLOAD DUP2 PUSH1 0xFF MUL NOT AND SWAP1 DUP4 ISZERO ISZERO MUL OR SWAP1 SSTORE POP POP POP JUMP JUMPDEST PUSH1 0x1 PUSH0 SWAP1 SLOAD SWAP1 PUSH2 0x100 EXP SWAP1 DIV PUSH20 0xFFFFFFFFFFFFFFFFFFFFFFFFFFFFFFFFFFFFFFFF AND DUP2 JUMP JUMPDEST PUSH0 PUSH1 0x2 PUSH0 SWAP1 SLOAD SWAP1 PUSH2 0x100 EXP SWAP1 DIV PUSH20 0xFFFFFFFFFFFFFFFFFFFFFFFFFFFFFFFFFFFFFFFF AND PUSH20 0xFFFFFFFFFFFFFFFFFFFFFFFFFFFFFFFFFFFFFFFF AND CALLER PUSH20 0xFFFFFFFFFFFFFFFFFFFFFFFFFFFFFFFFFFFFFFFF AND EQ PUSH2 0xFA8 JUMPI PUSH1 0x40 MLOAD PUSH32 0x8C379A000000000000000000000000000000000000000000000000000000000 DUP2 MSTORE PUSH1 0x4 ADD PUSH2 0xF9F SWAP1 PUSH2 0x1BDF JUMP JUMPDEST PUSH1 0x40 MLOAD DUP1 SWAP2 SUB SWAP1 REVERT JUMPDEST PUSH0 PUSH0 PUSH0 SWAP1 SLOAD SWAP1 PUSH2 0x100 EXP SWAP1 DIV PUSH20 0xFFFFFFFFFFFFFFFFFFFFFFFFFFFFFFFFFFFFFFFF AND PUSH20 0xFFFFFFFFFFFFFFFFFFFFFFFFFFFFFFFFFFFFFFFF AND PUSH4 0x70A08231 ADDRESS PUSH1 0x40 MLOAD DUP3 PUSH4 0xFFFFFFFF AND PUSH1 0xE0 SHL DUP2 MSTORE PUSH1 0x4 ADD PUSH2 0x1002 SWAP2 SWAP1 PUSH2 0x19B1 JUMP JUMPDEST PUSH1 0x20 PUSH1 0x40 MLOAD DUP1 DUP4 SUB DUP2 DUP7 GAS STATICCALL ISZERO DUP1 ISZERO PUSH2 0x101D JUMPI RETURNDATASIZE PUSH0 PUSH0 RETURNDATACOPY RETURNDATASIZE PUSH0 REVERT JUMPDEST POP POP POP POP PUSH1 0x40 MLOAD RETURNDATASIZE PUSH1 0x1F NOT PUSH1 0x1F DUP3 ADD AND DUP3 ADD DUP1 PUSH1 0x40 MSTORE POP DUP2 ADD SWAP1 PUSH2 0x1041 SWAP2 SWAP1 PUSH2 0x19DE JUMP JUMPDEST SWAP1 POP DUP1 SWAP2 POP POP SWAP1 JUMP JUMPDEST PUSH0 PUSH1 0x2 PUSH0 SWAP1 SLOAD SWAP1 PUSH2 0x100 EXP SWAP1 DIV PUSH20 0xFFFFFFFFFFFFFFFFFFFFFFFFFFFFFFFFFFFFFFFF AND PUSH20 0xFFFFFFFFFFFFFFFFFFFFFFFFFFFFFFFFFFFFFFFF AND CALLER PUSH20 0xFFFFFFFFFFFFFFFFFFFFFFFFFFFFFFFFFFFFFFFF AND EQ PUSH2 0x10DA JUMPI PUSH1 0x40 MLOAD PUSH32 0x8C379A000000000000000000000000000000000000000000000000000000000 DUP2 MSTORE PUSH1 0x4 ADD PUSH2 0x10D1 SWAP1 PUSH2 0x1BDF JUMP JUMPDEST PUSH1 0x40 MLOAD DUP1 SWAP2 SUB SWAP1 REVERT JUMPDEST PUSH0 PUSH1 0x1 PUSH0 SWAP1 SLOAD SWAP1 PUSH2 0x100 EXP SWAP1 DIV PUSH20 0xFFFFFFFFFFFFFFFFFFFFFFFFFFFFFFFFFFFFFFFF AND PUSH20 0xFFFFFFFFFFFFFFFFFFFFFFFFFFFFFFFFFFFFFFFF AND PUSH4 0x70A08231 ADDRESS PUSH1 0x40 MLOAD DUP3 PUSH4 0xFFFFFFFF AND PUSH1 0xE0 SHL DUP2 MSTORE PUSH1 0x4 ADD PUSH2 0x1135 SWAP2 SWAP1 PUSH2 0x19B1 JUMP JUMPDEST PUSH1 0x20 PUSH1 0x40 MLOAD DUP1 DUP4 SUB DUP2 DUP7 GAS STATICCALL ISZERO DUP1 ISZERO PUSH2 0x1150 JUMPI RETURNDATASIZE PUSH0 PUSH0 RETURNDATACOPY RETURNDATASIZE PUSH0 REVERT JUMPDEST POP POP POP POP PUSH1 0x40 MLOAD RETURNDATASIZE PUSH1 0x1F NOT PUSH1 0x1F DUP3 ADD AND DUP3 ADD DUP1 PUSH1 0x40 MSTORE POP DUP2 ADD SWAP1 PUSH2 0x1174 SWAP2 SWAP1 PUSH2 0x19DE JUMP JUMPDEST SWAP1 POP DUP1 SWAP2 POP POP SWAP1 JUMP JUMPDEST PUSH1 0x2 PUSH0 SWAP1 SLOAD SWAP1 PUSH2 0x100 EXP SWAP1 DIV PUSH20 0xFFFFFFFFFFFFFFFFFFFFFFFFFFFFFFFFFFFFFFFF AND PUSH20 0xFFFFFFFFFFFFFFFFFFFFFFFFFFFFFFFFFFFFFFFF AND CALLER PUSH20 0xFFFFFFFFFFFFFFFFFFFFFFFFFFFFFFFFFFFFFFFF AND EQ PUSH2 0x120C JUMPI PUSH1 0x40 MLOAD PUSH32 0x8C379A000000000000000000000000000000000000000000000000000000000 DUP2 MSTORE PUSH1 0x4 ADD PUSH2 0x1203 SWAP1 PUSH2 0x1BDF JUMP JUMPDEST PUSH1 0x40 MLOAD DUP1 SWAP2 SUB SWAP1 REVERT JUMPDEST PUSH0 PUSH20 0xFFFFFFFFFFFFFFFFFFFFFFFFFFFFFFFFFFFFFFFF AND DUP2 PUSH20 0xFFFFFFFFFFFFFFFFFFFFFFFFFFFFFFFFFFFFFFFF AND SUB PUSH2 0x127A JUMPI PUSH1 0x40 MLOAD PUSH32 0x8C379A000000000000000000000000000000000000000000000000000000000 DUP2 MSTORE PUSH1 0x4 ADD PUSH2 0x1271 SWAP1 PUSH2 0x16D3 JUMP JUMPDEST PUSH1 0x40 MLOAD DUP1 SWAP2 SUB SWAP1 REVERT JUMPDEST DUP1 PUSH1 0x3 PUSH0 PUSH2 0x100 EXP DUP2 SLOAD DUP2 PUSH20 0xFFFFFFFFFFFFFFFFFFFFFFFFFFFFFFFFFFFFFFFF MUL NOT AND SWAP1 DUP4 PUSH20 0xFFFFFFFFFFFFFFFFFFFFFFFFFFFFFFFFFFFFFFFF AND MUL OR SWAP1 SSTORE POP POP JUMP JUMPDEST PUSH0 PUSH0 DUP5 DUP5 PUSH2 0x12CB SWAP2 SWAP1 PUSH2 0x1BFD JUMP JUMPDEST SWAP1 POP PUSH0 PUSH5 0xE8D4A51000 DUP3 DUP6 PUSH3 0xF4240 PUSH4 0xFFFFFFFF AND PUSH2 0x12EA SWAP2 SWAP1 PUSH2 0x1C30 JUMP JUMPDEST PUSH2 0x12F4 SWAP2 SWAP1 PUSH2 0x1C30 JUMP JUMPDEST PUSH2 0x12FE SWAP2 SWAP1 PUSH2 0x1C9E JUMP JUMPDEST SWAP1 POP DUP1 SWAP3 POP POP POP SWAP4 SWAP3 POP POP POP JUMP JUMPDEST PUSH1 0x40 MLOAD DUP1 PUSH1 0x80 ADD PUSH1 0x40 MSTORE DUP1 PUSH0 DUP2 MSTORE PUSH1 0x20 ADD PUSH0 DUP2 MSTORE PUSH1 0x20 ADD PUSH0 DUP2 MSTORE PUSH1 0x20 ADD PUSH0 ISZERO ISZERO DUP2 MSTORE POP SWAP1 JUMP JUMPDEST PUSH0 PUSH0 REVERT JUMPDEST PUSH0 DUP2 SWAP1 POP SWAP2 SWAP1 POP JUMP JUMPDEST PUSH2 0x1348 DUP2 PUSH2 0x1336 JUMP JUMPDEST DUP2 EQ PUSH2 0x1352 JUMPI PUSH0 PUSH0 REVERT JUMPDEST POP JUMP JUMPDEST PUSH0 DUP2 CALLDATALOAD SWAP1 POP PUSH2 0x1363 DUP2 PUSH2 0x133F JUMP JUMPDEST SWAP3 SWAP2 POP POP JUMP JUMPDEST PUSH0 PUSH1 0x20 DUP3 DUP5 SUB SLT ISZERO PUSH2 0x137E JUMPI PUSH2 0x137D PUSH2 0x1332 JUMP JUMPDEST JUMPDEST PUSH0 PUSH2 0x138B DUP5 DUP3 DUP6 ADD PUSH2 0x1355 JUMP JUMPDEST SWAP2 POP POP SWAP3 SWAP2 POP POP JUMP JUMPDEST PUSH0 DUP2 ISZERO ISZERO SWAP1 POP SWAP2 SWAP1 POP JUMP JUMPDEST PUSH2 0x13A8 DUP2 PUSH2 0x1394 JUMP JUMPDEST DUP3 MSTORE POP POP JUMP JUMPDEST PUSH0 PUSH1 0x20 DUP3 ADD SWAP1 POP PUSH2 0x13C1 PUSH0 DUP4 ADD DUP5 PUSH2 0x139F JUMP JUMPDEST SWAP3 SWAP2 POP POP JUMP JUMPDEST PUSH0 PUSH1 0xFF DUP3 AND SWAP1 POP SWAP2 SWAP1 POP JUMP JUMPDEST PUSH2 0x13DC DUP2 PUSH2 0x13C7 JUMP JUMPDEST DUP2 EQ PUSH2 0x13E6 JUMPI PUSH0 PUSH0 REVERT JUMPDEST POP JUMP JUMPDEST PUSH0 DUP2 CALLDATALOAD SWAP1 POP PUSH2 0x13F7 DUP2 PUSH2 0x13D3 JUMP JUMPDEST SWAP3 SWAP2 POP POP JUMP JUMPDEST PUSH0 PUSH1 0x20 DUP3 DUP5 SUB SLT ISZERO PUSH2 0x1412 JUMPI PUSH2 0x1411 PUSH2 0x1332 JUMP JUMPDEST JUMPDEST PUSH0 PUSH2 0x141F DUP5 DUP3 DUP6 ADD PUSH2 0x13E9 JUMP JUMPDEST SWAP2 POP POP SWAP3 SWAP2 POP POP JUMP JUMPDEST PUSH2 0x1431 DUP2 PUSH2 0x1336 JUMP JUMPDEST DUP3 MSTORE POP POP JUMP JUMPDEST PUSH2 0x1440 DUP2 PUSH2 0x1394 JUMP JUMPDEST DUP3 MSTORE POP POP JUMP JUMPDEST PUSH1 0x80 DUP3 ADD PUSH0 DUP3 ADD MLOAD PUSH2 0x145A PUSH0 DUP6 ADD DUP3 PUSH2 0x1428 JUMP JUMPDEST POP PUSH1 0x20 DUP3 ADD MLOAD PUSH2 0x146D PUSH1 0x20 DUP6 ADD DUP3 PUSH2 0x1428 JUMP JUMPDEST POP PUSH1 0x40 DUP3 ADD MLOAD PUSH2 0x1480 PUSH1 0x40 DUP6 ADD DUP3 PUSH2 0x1428 JUMP JUMPDEST POP PUSH1 0x60 DUP3 ADD MLOAD PUSH2 0x1493 PUSH1 0x60 DUP6 ADD DUP3 PUSH2 0x1437 JUMP JUMPDEST POP POP POP POP JUMP JUMPDEST PUSH0 PUSH1 0x80 DUP3 ADD SWAP1 POP PUSH2 0x14AC PUSH0 DUP4 ADD DUP5 PUSH2 0x1446 JUMP JUMPDEST SWAP3 SWAP2 POP POP JUMP JUMPDEST PUSH0 PUSH20 0xFFFFFFFFFFFFFFFFFFFFFFFFFFFFFFFFFFFFFFFF DUP3 AND SWAP1 POP SWAP2 SWAP1 POP JUMP JUMPDEST PUSH0 DUP2 SWAP1 POP SWAP2 SWAP1 POP JUMP JUMPDEST PUSH0 PUSH2 0x14F4 PUSH2 0x14EF PUSH2 0x14EA DUP5 PUSH2 0x14B2 JUMP JUMPDEST PUSH2 0x14D1 JUMP JUMPDEST PUSH2 0x14B2 JUMP JUMPDEST SWAP1 POP SWAP2 SWAP1 POP JUMP JUMPDEST PUSH0 PUSH2 0x1505 DUP3 PUSH2 0x14DA JUMP JUMPDEST SWAP1 POP SWAP2 SWAP1 POP JUMP JUMPDEST PUSH0 PUSH2 0x1516 DUP3 PUSH2 0x14FB JUMP JUMPDEST SWAP1 POP SWAP2 SWAP1 POP JUMP JUMPDEST PUSH2 0x1526 DUP2 PUSH2 0x150C JUMP JUMPDEST DUP3 MSTORE POP POP JUMP JUMPDEST PUSH0 PUSH1 0x20 DUP3 ADD SWAP1 POP PUSH2 0x153F PUSH0 DUP4 ADD DUP5 PUSH2 0x151D JUMP JUMPDEST SWAP3 SWAP2 POP POP JUMP JUMPDEST PUSH0 PUSH0 PUSH1 0x40 DUP4 DUP6 SUB SLT ISZERO PUSH2 0x155B JUMPI PUSH2 0x155A PUSH2 0x1332 JUMP JUMPDEST JUMPDEST PUSH0 PUSH2 0x1568 DUP6 DUP3 DUP7 ADD PUSH2 0x1355 JUMP JUMPDEST SWAP3 POP POP PUSH1 0x20 PUSH2 0x1579 DUP6 DUP3 DUP7 ADD PUSH2 0x1355 JUMP JUMPDEST SWAP2 POP POP SWAP3 POP SWAP3 SWAP1 POP JUMP JUMPDEST PUSH2 0x158C DUP2 PUSH2 0x1336 JUMP JUMPDEST DUP3 MSTORE POP POP JUMP JUMPDEST PUSH0 PUSH1 0x20 DUP3 ADD SWAP1 POP PUSH2 0x15A5 PUSH0 DUP4 ADD DUP5 PUSH2 0x1583 JUMP JUMPDEST SWAP3 SWAP2 POP POP JUMP JUMPDEST PUSH0 PUSH2 0x15B5 DUP3 PUSH2 0x14B2 JUMP JUMPDEST SWAP1 POP SWAP2 SWAP1 POP JUMP JUMPDEST PUSH2 0x15C5 DUP2 PUSH2 0x15AB JUMP JUMPDEST DUP2 EQ PUSH2 0x15CF JUMPI PUSH0 PUSH0 REVERT JUMPDEST POP JUMP JUMPDEST PUSH0 DUP2 CALLDATALOAD SWAP1 POP PUSH2 0x15E0 DUP2 PUSH2 0x15BC JUMP JUMPDEST SWAP3 SWAP2 POP POP JUMP JUMPDEST PUSH0 PUSH1 0x20 DUP3 DUP5 SUB SLT ISZERO PUSH2 0x15FB JUMPI PUSH2 0x15FA PUSH2 0x1332 JUMP JUMPDEST JUMPDEST PUSH0 PUSH2 0x1608 DUP5 DUP3 DUP6 ADD PUSH2 0x15D2 JUMP JUMPDEST SWAP2 POP POP SWAP3 SWAP2 POP POP JUMP JUMPDEST PUSH0 DUP3 DUP3 MSTORE PUSH1 0x20 DUP3 ADD SWAP1 POP SWAP3 SWAP2 POP POP JUMP JUMPDEST PUSH32 0x4E6F7420616C6C6F77656420746F2072655F656E746572000000000000000000 PUSH0 DUP3 ADD MSTORE POP JUMP JUMPDEST PUSH0 PUSH2 0x1655 PUSH1 0x17 DUP4 PUSH2 0x1611 JUMP JUMPDEST SWAP2 POP PUSH2 0x1660 DUP3 PUSH2 0x1621 JUMP JUMPDEST PUSH1 0x20 DUP3 ADD SWAP1 POP SWAP2 SWAP1 POP JUMP JUMPDEST PUSH0 PUSH1 0x20 DUP3 ADD SWAP1 POP DUP2 DUP2 SUB PUSH0 DUP4 ADD MSTORE PUSH2 0x1682 DUP2 PUSH2 0x1649 JUMP JUMPDEST SWAP1 POP SWAP2 SWAP1 POP JUMP JUMPDEST PUSH32 0x5A65726F2061646472657373206E6F7420616C6C6F7765640000000000000000 PUSH0 DUP3 ADD MSTORE POP JUMP JUMPDEST PUSH0 PUSH2 0x16BD PUSH1 0x18 DUP4 PUSH2 0x1611 JUMP JUMPDEST SWAP2 POP PUSH2 0x16C8 DUP3 PUSH2 0x1689 JUMP JUMPDEST PUSH1 0x20 DUP3 ADD SWAP1 POP SWAP2 SWAP1 POP JUMP JUMPDEST PUSH0 PUSH1 0x20 DUP3 ADD SWAP1 POP DUP2 DUP2 SUB PUSH0 DUP4 ADD MSTORE PUSH2 0x16EA DUP2 PUSH2 0x16B1 JUMP JUMPDEST SWAP1 POP SWAP2 SWAP1 POP JUMP JUMPDEST PUSH32 0x4F7574206F662072616E67650000000000000000000000000000000000000000 PUSH0 DUP3 ADD MSTORE POP JUMP JUMPDEST PUSH0 PUSH2 0x1725 PUSH1 0xC DUP4 PUSH2 0x1611 JUMP JUMPDEST SWAP2 POP PUSH2 0x1730 DUP3 PUSH2 0x16F1 JUMP JUMPDEST PUSH1 0x20 DUP3 ADD SWAP1 POP SWAP2 SWAP1 POP JUMP JUMPDEST PUSH0 PUSH1 0x20 DUP3 ADD SWAP1 POP DUP2 DUP2 SUB PUSH0 DUP4 ADD MSTORE PUSH2 0x1752 DUP2 PUSH2 0x1719 JUMP JUMPDEST SWAP1 POP SWAP2 SWAP1 POP JUMP JUMPDEST PUSH32 0x4E487B7100000000000000000000000000000000000000000000000000000000 PUSH0 MSTORE PUSH1 0x32 PUSH1 0x4 MSTORE PUSH1 0x24 PUSH0 REVERT JUMPDEST PUSH32 0x4E6F74207965742074696D650000000000000000000000000000000000000000 PUSH0 DUP3 ADD MSTORE POP JUMP JUMPDEST PUSH0 PUSH2 0x17BA PUSH1 0xC DUP4 PUSH2 0x1611 JUMP JUMPDEST SWAP2 POP PUSH2 0x17C5 DUP3 PUSH2 0x1786 JUMP JUMPDEST PUSH1 0x20 DUP3 ADD SWAP1 POP SWAP2 SWAP1 POP JUMP JUMPDEST PUSH0 PUSH1 0x20 DUP3 ADD SWAP1 POP DUP2 DUP2 SUB PUSH0 DUP4 ADD MSTORE PUSH2 0x17E7 DUP2 PUSH2 0x17AE JUMP JUMPDEST SWAP1 POP SWAP2 SWAP1 POP JUMP JUMPDEST PUSH2 0x17F7 DUP2 PUSH2 0x15AB JUMP JUMPDEST DUP3 MSTORE POP POP JUMP JUMPDEST PUSH0 PUSH1 0x40 DUP3 ADD SWAP1 POP PUSH2 0x1810 PUSH0 DUP4 ADD DUP6 PUSH2 0x17EE JUMP JUMPDEST PUSH2 0x181D PUSH1 0x20 DUP4 ADD DUP5 PUSH2 0x1583 JUMP JUMPDEST SWAP4 SWAP3 POP POP POP JUMP JUMPDEST PUSH2 0x182D DUP2 PUSH2 0x1394 JUMP JUMPDEST DUP2 EQ PUSH2 0x1837 JUMPI PUSH0 PUSH0 REVERT JUMPDEST POP JUMP JUMPDEST PUSH0 DUP2 MLOAD SWAP1 POP PUSH2 0x1848 DUP2 PUSH2 0x1824 JUMP JUMPDEST SWAP3 SWAP2 POP POP JUMP JUMPDEST PUSH0 PUSH1 0x20 DUP3 DUP5 SUB SLT ISZERO PUSH2 0x1863 JUMPI PUSH2 0x1862 PUSH2 0x1332 JUMP JUMPDEST JUMPDEST PUSH0 PUSH2 0x1870 DUP5 DUP3 DUP6 ADD PUSH2 0x183A JUMP JUMPDEST SWAP2 POP POP SWAP3 SWAP2 POP POP JUMP JUMPDEST PUSH32 0x4E6F7420796F7572207475726E00000000000000000000000000000000000000 PUSH0 DUP3 ADD MSTORE POP JUMP JUMPDEST PUSH0 PUSH2 0x18AD PUSH1 0xD DUP4 PUSH2 0x1611 JUMP JUMPDEST SWAP2 POP PUSH2 0x18B8 DUP3 PUSH2 0x1879 JUMP JUMPDEST PUSH1 0x20 DUP3 ADD SWAP1 POP SWAP2 SWAP1 POP JUMP JUMPDEST PUSH0 PUSH1 0x20 DUP3 ADD SWAP1 POP DUP2 DUP2 SUB PUSH0 DUP4 ADD MSTORE PUSH2 0x18DA DUP2 PUSH2 0x18A1 JUMP JUMPDEST SWAP1 POP SWAP2 SWAP1 POP JUMP JUMPDEST PUSH32 0x416D6F756E74206973206F7574206F662072616E676500000000000000000000 PUSH0 DUP3 ADD MSTORE POP JUMP JUMPDEST PUSH0 PUSH2 0x1915 PUSH1 0x16 DUP4 PUSH2 0x1611 JUMP JUMPDEST SWAP2 POP PUSH2 0x1920 DUP3 PUSH2 0x18E1 JUMP JUMPDEST PUSH1 0x20 DUP3 ADD SWAP1 POP SWAP2 SWAP1 POP JUMP JUMPDEST PUSH0 PUSH1 0x20 DUP3 ADD SWAP1 POP DUP2 DUP2 SUB PUSH0 DUP4 ADD MSTORE PUSH2 0x1942 DUP2 PUSH2 0x1909 JUMP JUMPDEST SWAP1 POP SWAP2 SWAP1 POP JUMP JUMPDEST PUSH32 0x4475726174696F6E20697320746F6F2073686F72740000000000000000000000 PUSH0 DUP3 ADD MSTORE POP JUMP JUMPDEST PUSH0 PUSH2 0x197D PUSH1 0x15 DUP4 PUSH2 0x1611 JUMP JUMPDEST SWAP2 POP PUSH2 0x1988 DUP3 PUSH2 0x1949 JUMP JUMPDEST PUSH1 0x20 DUP3 ADD SWAP1 POP SWAP2 SWAP1 POP JUMP JUMPDEST PUSH0 PUSH1 0x20 DUP3 ADD SWAP1 POP DUP2 DUP2 SUB PUSH0 DUP4 ADD MSTORE PUSH2 0x19AA DUP2 PUSH2 0x1971 JUMP JUMPDEST SWAP1 POP SWAP2 SWAP1 POP JUMP JUMPDEST PUSH0 PUSH1 0x20 DUP3 ADD SWAP1 POP PUSH2 0x19C4 PUSH0 DUP4 ADD DUP5 PUSH2 0x17EE JUMP JUMPDEST SWAP3 SWAP2 POP POP JUMP JUMPDEST PUSH0 DUP2 MLOAD SWAP1 POP PUSH2 0x19D8 DUP2 PUSH2 0x133F JUMP JUMPDEST SWAP3 SWAP2 POP POP JUMP JUMPDEST PUSH0 PUSH1 0x20 DUP3 DUP5 SUB SLT ISZERO PUSH2 0x19F3 JUMPI PUSH2 0x19F2 PUSH2 0x1332 JUMP JUMPDEST JUMPDEST PUSH0 PUSH2 0x1A00 DUP5 DUP3 DUP6 ADD PUSH2 0x19CA JUMP JUMPDEST SWAP2 POP POP SWAP3 SWAP2 POP POP JUMP JUMPDEST PUSH32 0x596F7520646F6E2774206861766520656E6F7567680000000000000000000000 PUSH0 DUP3 ADD MSTORE POP JUMP JUMPDEST PUSH0 PUSH2 0x1A3D PUSH1 0x15 DUP4 PUSH2 0x1611 JUMP JUMPDEST SWAP2 POP PUSH2 0x1A48 DUP3 PUSH2 0x1A09 JUMP JUMPDEST PUSH1 0x20 DUP3 ADD SWAP1 POP SWAP2 SWAP1 POP JUMP JUMPDEST PUSH0 PUSH1 0x20 DUP3 ADD SWAP1 POP DUP2 DUP2 SUB PUSH0 DUP4 ADD MSTORE PUSH2 0x1A6A DUP2 PUSH2 0x1A31 JUMP JUMPDEST SWAP1 POP SWAP2 SWAP1 POP JUMP JUMPDEST PUSH0 PUSH1 0x40 DUP3 ADD SWAP1 POP PUSH2 0x1A84 PUSH0 DUP4 ADD DUP6 PUSH2 0x17EE JUMP JUMPDEST PUSH2 0x1A91 PUSH1 0x20 DUP4 ADD DUP5 PUSH2 0x17EE JUMP JUMPDEST SWAP4 SWAP3 POP POP POP JUMP JUMPDEST PUSH32 0x416D6F756E7420616C6C6F776564206973206E6F7420656E6F75676800000000 PUSH0 DUP3 ADD MSTORE POP JUMP JUMPDEST PUSH0 PUSH2 0x1ACC PUSH1 0x1C DUP4 PUSH2 0x1611 JUMP JUMPDEST SWAP2 POP PUSH2 0x1AD7 DUP3 PUSH2 0x1A98 JUMP JUMPDEST PUSH1 0x20 DUP3 ADD SWAP1 POP SWAP2 SWAP1 POP JUMP JUMPDEST PUSH0 PUSH1 0x20 DUP3 ADD SWAP1 POP DUP2 DUP2 SUB PUSH0 DUP4 ADD MSTORE PUSH2 0x1AF9 DUP2 PUSH2 0x1AC0 JUMP JUMPDEST SWAP1 POP SWAP2 SWAP1 POP JUMP JUMPDEST PUSH0 PUSH1 0x60 DUP3 ADD SWAP1 POP PUSH2 0x1B13 PUSH0 DUP4 ADD DUP7 PUSH2 0x17EE JUMP JUMPDEST PUSH2 0x1B20 PUSH1 0x20 DUP4 ADD DUP6 PUSH2 0x17EE JUMP JUMPDEST PUSH2 0x1B2D PUSH1 0x40 DUP4 ADD DUP5 PUSH2 0x1583 JUMP JUMPDEST SWAP5 SWAP4 POP POP POP POP JUMP JUMPDEST PUSH32 0x4E487B7100000000000000000000000000000000000000000000000000000000 PUSH0 MSTORE PUSH1 0x11 PUSH1 0x4 MSTORE PUSH1 0x24 PUSH0 REVERT JUMPDEST PUSH0 PUSH2 0x1B6C DUP3 PUSH2 0x1336 JUMP JUMPDEST SWAP2 POP PUSH2 0x1B77 DUP4 PUSH2 0x1336 JUMP JUMPDEST SWAP3 POP DUP3 DUP3 ADD SWAP1 POP DUP1 DUP3 GT ISZERO PUSH2 0x1B8F JUMPI PUSH2 0x1B8E PUSH2 0x1B35 JUMP JUMPDEST JUMPDEST SWAP3 SWAP2 POP POP JUMP JUMPDEST PUSH32 0x4E6F204163636573730000000000000000000000000000000000000000000000 PUSH0 DUP3 ADD MSTORE POP JUMP JUMPDEST PUSH0 PUSH2 0x1BC9 PUSH1 0x9 DUP4 PUSH2 0x1611 JUMP JUMPDEST SWAP2 POP PUSH2 0x1BD4 DUP3 PUSH2 0x1B95 JUMP JUMPDEST PUSH1 0x20 DUP3 ADD SWAP1 POP SWAP2 SWAP1 POP JUMP JUMPDEST PUSH0 PUSH1 0x20 DUP3 ADD SWAP1 POP DUP2 DUP2 SUB PUSH0 DUP4 ADD MSTORE PUSH2 0x1BF6 DUP2 PUSH2 0x1BBD JUMP JUMPDEST SWAP1 POP SWAP2 SWAP1 POP JUMP JUMPDEST PUSH0 PUSH2 0x1C07 DUP3 PUSH2 0x1336 JUMP JUMPDEST SWAP2 POP PUSH2 0x1C12 DUP4 PUSH2 0x1336 JUMP JUMPDEST SWAP3 POP DUP3 DUP3 SUB SWAP1 POP DUP2 DUP2 GT ISZERO PUSH2 0x1C2A JUMPI PUSH2 0x1C29 PUSH2 0x1B35 JUMP JUMPDEST JUMPDEST SWAP3 SWAP2 POP POP JUMP JUMPDEST PUSH0 PUSH2 0x1C3A DUP3 PUSH2 0x1336 JUMP JUMPDEST SWAP2 POP PUSH2 0x1C45 DUP4 PUSH2 0x1336 JUMP JUMPDEST SWAP3 POP DUP3 DUP3 MUL PUSH2 0x1C53 DUP2 PUSH2 0x1336 JUMP JUMPDEST SWAP2 POP DUP3 DUP3 DIV DUP5 EQ DUP4 ISZERO OR PUSH2 0x1C6A JUMPI PUSH2 0x1C69 PUSH2 0x1B35 JUMP JUMPDEST JUMPDEST POP SWAP3 SWAP2 POP POP JUMP JUMPDEST PUSH32 0x4E487B7100000000000000000000000000000000000000000000000000000000 PUSH0 MSTORE PUSH1 0x12 PUSH1 0x4 MSTORE PUSH1 0x24 PUSH0 REVERT JUMPDEST PUSH0 PUSH2 0x1CA8 DUP3 PUSH2 0x1336 JUMP JUMPDEST SWAP2 POP PUSH2 0x1CB3 DUP4 PUSH2 0x1336 JUMP JUMPDEST SWAP3 POP DUP3 PUSH2 0x1CC3 JUMPI PUSH2 0x1CC2 PUSH2 0x1C71 JUMP JUMPDEST JUMPDEST DUP3 DUP3 DIV SWAP1 POP SWAP3 SWAP2 POP POP JUMP INVALID LOG2 PUSH5 0x6970667358 0x22 SLT KECCAK256 0xEE 0xC6 SWAP8 0xD SAR CODESIZE 0xB7 LOG3 LOG2 DUP2 CALL 0xE5 ISZERO 0x25 0x23 0xB3 COINBASE PUSH10 0x2BCB650B6AA1EA3E5748 0xA5 SWAP16 0xDA 0xC0 PUSH5 0x736F6C6343 STOP ADDMOD SHL STOP CALLER "
				},
				"gasEstimates": {
					"creation": {
						"codeDepositCost": "1485600",
						"executionCost": "infinite",
						"totalCost": "infinite"
					},
					"external": {
						"MPXContract()": "infinite",
						"XFIContract()": "infinite",
						"claimOwnership()": "58849",
						"getContractMPXBalance()": "infinite",
						"getContractXFIBalance()": "infinite",
						"getStakerInfo(uint8)": "infinite",
						"stake(uint256,uint256)": "infinite",
						"transferOwnership(address)": "27006",
						"withdrawStake(uint256)": "infinite"
					},
					"internal": {
						"calculateReward(uint256,uint256,uint256)": "infinite"
					}
				},
				"methodIdentifiers": {
					"MPXContract()": "9be2f4ed",
					"XFIContract()": "74b28101",
					"claimOwnership()": "4e71e0c8",
					"getContractMPXBalance()": "efbabd91",
					"getContractXFIBalance()": "dede8ef6",
					"getStakerInfo(uint8)": "6d6e31f7",
					"stake(uint256,uint256)": "7b0472f0",
					"transferOwnership(address)": "f2fde38b",
					"withdrawStake(uint256)": "25d5971f"
				}
			},
			"storageLayout": {
				"storage": [
					{
						"astId": 74,
						"contract": "contracts/Stake.sol:stakeXFI",
						"label": "XFIContract",
						"offset": 0,
						"slot": "0",
						"type": "t_contract(IERC20)68"
					},
					{
						"astId": 77,
						"contract": "contracts/Stake.sol:stakeXFI",
						"label": "MPXContract",
						"offset": 0,
						"slot": "1",
						"type": "t_contract(IERC20)68"
					},
					{
						"astId": 79,
						"contract": "contracts/Stake.sol:stakeXFI",
						"label": "owner",
						"offset": 0,
						"slot": "2",
						"type": "t_address"
					},
					{
						"astId": 81,
						"contract": "contracts/Stake.sol:stakeXFI",
						"label": "newOwner",
						"offset": 0,
						"slot": "3",
						"type": "t_address"
					},
					{
						"astId": 83,
						"contract": "contracts/Stake.sol:stakeXFI",
						"label": "locked",
						"offset": 20,
						"slot": "3",
						"type": "t_bool"
					},
					{
						"astId": 117,
						"contract": "contracts/Stake.sol:stakeXFI",
						"label": "stakers",
						"offset": 0,
						"slot": "4",
						"type": "t_mapping(t_address,t_array(t_struct(Staking)111_storage)dyn_storage)"
					}
				],
				"types": {
					"t_address": {
						"encoding": "inplace",
						"label": "address",
						"numberOfBytes": "20"
					},
					"t_array(t_struct(Staking)111_storage)dyn_storage": {
						"base": "t_struct(Staking)111_storage",
						"encoding": "dynamic_array",
						"label": "struct stakeXFI.Staking[]",
						"numberOfBytes": "32"
					},
					"t_bool": {
						"encoding": "inplace",
						"label": "bool",
						"numberOfBytes": "1"
					},
					"t_contract(IERC20)68": {
						"encoding": "inplace",
						"label": "contract IERC20",
						"numberOfBytes": "20"
					},
					"t_mapping(t_address,t_array(t_struct(Staking)111_storage)dyn_storage)": {
						"encoding": "mapping",
						"key": "t_address",
						"label": "mapping(address => struct stakeXFI.Staking[])",
						"numberOfBytes": "32",
						"value": "t_array(t_struct(Staking)111_storage)dyn_storage"
					},
					"t_struct(Staking)111_storage": {
						"encoding": "inplace",
						"label": "struct stakeXFI.Staking",
						"members": [
							{
								"astId": 104,
								"contract": "contracts/Stake.sol:stakeXFI",
								"label": "amount",
								"offset": 0,
								"slot": "0",
								"type": "t_uint256"
							},
							{
								"astId": 106,
								"contract": "contracts/Stake.sol:stakeXFI",
								"label": "startTime",
								"offset": 0,
								"slot": "1",
								"type": "t_uint256"
							},
							{
								"astId": 108,
								"contract": "contracts/Stake.sol:stakeXFI",
								"label": "duration",
								"offset": 0,
								"slot": "2",
								"type": "t_uint256"
							},
							{
								"astId": 110,
								"contract": "contracts/Stake.sol:stakeXFI",
								"label": "hasWithdraw",
								"offset": 0,
								"slot": "3",
								"type": "t_bool"
							}
						],
						"numberOfBytes": "128"
					},
					"t_uint256": {
						"encoding": "inplace",
						"label": "uint256",
						"numberOfBytes": "32"
					}
				}
			},
			"userdoc": {
				"kind": "user",
				"methods": {},
				"version": 1
			}
		}
	}
}