{
	"contracts/ProposalVote.sol": {
		"ProposalVote": {
			"abi": [
				{
					"anonymous": false,
					"inputs": [
						{
							"indexed": true,
							"internalType": "string",
							"name": "name",
							"type": "string"
						},
						{
							"indexed": false,
							"internalType": "uint16",
							"name": "count",
							"type": "uint16"
						}
					],
					"name": "ProposalActive",
					"type": "event"
				},
				{
					"anonymous": false,
					"inputs": [
						{
							"indexed": true,
							"internalType": "string",
							"name": "name",
							"type": "string"
						},
						{
							"indexed": false,
							"internalType": "uint16",
							"name": "count",
							"type": "uint16"
						}
					],
					"name": "ProposalApproved",
					"type": "event"
				},
				{
					"anonymous": false,
					"inputs": [
						{
							"indexed": true,
							"internalType": "string",
							"name": "name",
							"type": "string"
						},
						{
							"indexed": false,
							"internalType": "uint16",
							"name": "quorum",
							"type": "uint16"
						}
					],
					"name": "ProposalCreated",
					"type": "event"
				},
				{
					"inputs": [
						{
							"internalType": "string",
							"name": "_name",
							"type": "string"
						},
						{
							"internalType": "string",
							"name": "_desc",
							"type": "string"
						},
						{
							"internalType": "uint16",
							"name": "_quorum",
							"type": "uint16"
						}
					],
					"name": "createProposal",
					"outputs": [],
					"stateMutability": "nonpayable",
					"type": "function"
				},
				{
					"inputs": [],
					"name": "getAllProposals",
					"outputs": [
						{
							"components": [
								{
									"internalType": "string",
									"name": "name",
									"type": "string"
								},
								{
									"internalType": "string",
									"name": "description",
									"type": "string"
								},
								{
									"internalType": "uint16",
									"name": "voteCount",
									"type": "uint16"
								},
								{
									"internalType": "address[]",
									"name": "voters",
									"type": "address[]"
								},
								{
									"internalType": "uint16",
									"name": "quorum",
									"type": "uint16"
								},
								{
									"internalType": "enum ProposalVote.PropsStatus",
									"name": "status",
									"type": "uint8"
								}
							],
							"internalType": "struct ProposalVote.Proposal[]",
							"name": "",
							"type": "tuple[]"
						}
					],
					"stateMutability": "view",
					"type": "function"
				},
				{
					"inputs": [
						{
							"internalType": "uint8",
							"name": "_index",
							"type": "uint8"
						}
					],
					"name": "getProposal",
					"outputs": [
						{
							"internalType": "string",
							"name": "name_",
							"type": "string"
						},
						{
							"internalType": "string",
							"name": "desc_",
							"type": "string"
						},
						{
							"internalType": "uint16",
							"name": "count_",
							"type": "uint16"
						},
						{
							"internalType": "address[]",
							"name": "voters_",
							"type": "address[]"
						},
						{
							"internalType": "uint16",
							"name": "quorum_",
							"type": "uint16"
						},
						{
							"internalType": "enum ProposalVote.PropsStatus",
							"name": "status_",
							"type": "uint8"
						}
					],
					"stateMutability": "view",
					"type": "function"
				},
				{
					"inputs": [
						{
							"internalType": "uint256",
							"name": "",
							"type": "uint256"
						}
					],
					"name": "proposals",
					"outputs": [
						{
							"internalType": "string",
							"name": "name",
							"type": "string"
						},
						{
							"internalType": "string",
							"name": "description",
							"type": "string"
						},
						{
							"internalType": "uint16",
							"name": "voteCount",
							"type": "uint16"
						},
						{
							"internalType": "uint16",
							"name": "quorum",
							"type": "uint16"
						},
						{
							"internalType": "enum ProposalVote.PropsStatus",
							"name": "status",
							"type": "uint8"
						}
					],
					"stateMutability": "view",
					"type": "function"
				},
				{
					"inputs": [
						{
							"internalType": "uint8",
							"name": "_index",
							"type": "uint8"
						}
					],
					"name": "voteOnProposal",
					"outputs": [],
					"stateMutability": "nonpayable",
					"type": "function"
				}
			],
			"devdoc": {
				"kind": "dev",
				"methods": {},
				"version": 1
			},
			"evm": {
				"assembly": "    /* \"contracts/ProposalVote.sol\":58:3143  contract ProposalVote {... */\n  mstore(0x40, 0x80)\n  callvalue\n  dup1\n  iszero\n  tag_1\n  jumpi\n  revert(0x00, 0x00)\ntag_1:\n  pop\n  dataSize(sub_0)\n  dup1\n  dataOffset(sub_0)\n  0x00\n  codecopy\n  0x00\n  return\nstop\n\nsub_0: assembly {\n        /* \"contracts/ProposalVote.sol\":58:3143  contract ProposalVote {... */\n      mstore(0x40, 0x80)\n      callvalue\n      dup1\n      iszero\n      tag_1\n      jumpi\n      revert(0x00, 0x00)\n    tag_1:\n      pop\n      jumpi(tag_2, lt(calldatasize, 0x04))\n      shr(0xe0, calldataload(0x00))\n      dup1\n      0x013cf08b\n      eq\n      tag_3\n      jumpi\n      dup1\n      0x5521e3bf\n      eq\n      tag_4\n      jumpi\n      dup1\n      0xbcf2e026\n      eq\n      tag_5\n      jumpi\n      dup1\n      0xcceb68f5\n      eq\n      tag_6\n      jumpi\n      dup1\n      0xdac001fe\n      eq\n      tag_7\n      jumpi\n    tag_2:\n      revert(0x00, 0x00)\n        /* \"contracts/ProposalVote.sol\":420:447  Proposal[] public proposals */\n    tag_3:\n      tag_8\n      0x04\n      dup1\n      calldatasize\n      sub\n      dup2\n      add\n      swap1\n      tag_9\n      swap2\n      swap1\n      tag_10\n      jump\t// in\n    tag_9:\n      tag_11\n      jump\t// in\n    tag_8:\n      mload(0x40)\n      tag_12\n      swap6\n      swap5\n      swap4\n      swap3\n      swap2\n      swap1\n      tag_13\n      jump\t// in\n    tag_12:\n      mload(0x40)\n      dup1\n      swap2\n      sub\n      swap1\n      return\n        /* \"contracts/ProposalVote.sol\":1174:2275  function voteOnProposal(uint8 _index) external {... */\n    tag_4:\n      tag_14\n      0x04\n      dup1\n      calldatasize\n      sub\n      dup2\n      add\n      swap1\n      tag_15\n      swap2\n      swap1\n      tag_16\n      jump\t// in\n    tag_15:\n      tag_17\n      jump\t// in\n    tag_14:\n      stop\n        /* \"contracts/ProposalVote.sol\":656:1168  function createProposal(... */\n    tag_5:\n      tag_18\n      0x04\n      dup1\n      calldatasize\n      sub\n      dup2\n      add\n      swap1\n      tag_19\n      swap2\n      swap1\n      tag_20\n      jump\t// in\n    tag_19:\n      tag_21\n      jump\t// in\n    tag_18:\n      stop\n        /* \"contracts/ProposalVote.sol\":2281:2383  function getAllProposals() external view returns (Proposal[] memory) {... */\n    tag_6:\n      tag_22\n      tag_23\n      jump\t// in\n    tag_22:\n      mload(0x40)\n      tag_24\n      swap2\n      swap1\n      tag_25\n      jump\t// in\n    tag_24:\n      mload(0x40)\n      dup1\n      swap2\n      sub\n      swap1\n      return\n        /* \"contracts/ProposalVote.sol\":2389:3141  function getProposal(uint8 _index)... */\n    tag_7:\n      tag_26\n      0x04\n      dup1\n      calldatasize\n      sub\n      dup2\n      add\n      swap1\n      tag_27\n      swap2\n      swap1\n      tag_16\n      jump\t// in\n    tag_27:\n      tag_28\n      jump\t// in\n    tag_26:\n      mload(0x40)\n      tag_29\n      swap7\n      swap6\n      swap5\n      swap4\n      swap3\n      swap2\n      swap1\n      tag_30\n      jump\t// in\n    tag_29:\n      mload(0x40)\n      dup1\n      swap2\n      sub\n      swap1\n      return\n        /* \"contracts/ProposalVote.sol\":420:447  Proposal[] public proposals */\n    tag_11:\n      0x01\n      dup2\n      dup2\n      sload\n      dup2\n      lt\n      tag_31\n      jumpi\n      0x00\n      dup1\n      revert\n    tag_31:\n      swap1\n      0x00\n      mstore\n      keccak256(0x00, 0x20)\n      swap1\n      0x05\n      mul\n      add\n      0x00\n      swap2\n      pop\n      swap1\n      pop\n      dup1\n      0x00\n      add\n      dup1\n      sload\n      tag_33\n      swap1\n      tag_34\n      jump\t// in\n    tag_33:\n      dup1\n      0x1f\n      add\n      0x20\n      dup1\n      swap2\n      div\n      mul\n      0x20\n      add\n      mload(0x40)\n      swap1\n      dup2\n      add\n      0x40\n      mstore\n      dup1\n      swap3\n      swap2\n      swap1\n      dup2\n      dup2\n      mstore\n      0x20\n      add\n      dup3\n      dup1\n      sload\n      tag_35\n      swap1\n      tag_34\n      jump\t// in\n    tag_35:\n      dup1\n      iszero\n      tag_36\n      jumpi\n      dup1\n      0x1f\n      lt\n      tag_37\n      jumpi\n      0x0100\n      dup1\n      dup4\n      sload\n      div\n      mul\n      dup4\n      mstore\n      swap2\n      0x20\n      add\n      swap2\n      jump(tag_36)\n    tag_37:\n      dup3\n      add\n      swap2\n      swap1\n      0x00\n      mstore\n      keccak256(0x00, 0x20)\n      swap1\n    tag_38:\n      dup2\n      sload\n      dup2\n      mstore\n      swap1\n      0x01\n      add\n      swap1\n      0x20\n      add\n      dup1\n      dup4\n      gt\n      tag_38\n      jumpi\n      dup3\n      swap1\n      sub\n      0x1f\n      and\n      dup3\n      add\n      swap2\n    tag_36:\n      pop\n      pop\n      pop\n      pop\n      pop\n      swap1\n      dup1\n      0x01\n      add\n      dup1\n      sload\n      tag_39\n      swap1\n      tag_34\n      jump\t// in\n    tag_39:\n      dup1\n      0x1f\n      add\n      0x20\n      dup1\n      swap2\n      div\n      mul\n      0x20\n      add\n      mload(0x40)\n      swap1\n      dup2\n      add\n      0x40\n      mstore\n      dup1\n      swap3\n      swap2\n      swap1\n      dup2\n      dup2\n      mstore\n      0x20\n      add\n      dup3\n      dup1\n      sload\n      tag_40\n      swap1\n      tag_34\n      jump\t// in\n    tag_40:\n      dup1\n      iszero\n      tag_41\n      jumpi\n      dup1\n      0x1f\n      lt\n      tag_42\n      jumpi\n      0x0100\n      dup1\n      dup4\n      sload\n      div\n      mul\n      dup4\n      mstore\n      swap2\n      0x20\n      add\n      swap2\n      jump(tag_41)\n    tag_42:\n      dup3\n      add\n      swap2\n      swap1\n      0x00\n      mstore\n      keccak256(0x00, 0x20)\n      swap1\n    tag_43:\n      dup2\n      sload\n      dup2\n      mstore\n      swap1\n      0x01\n      add\n      swap1\n      0x20\n      add\n      dup1\n      dup4\n      gt\n      tag_43\n      jumpi\n      dup3\n      swap1\n      sub\n      0x1f\n      and\n      dup3\n      add\n      swap2\n    tag_41:\n      pop\n      pop\n      pop\n      pop\n      pop\n      swap1\n      dup1\n      0x02\n      add\n      0x00\n      swap1\n      sload\n      swap1\n      0x0100\n      exp\n      swap1\n      div\n      0xffff\n      and\n      swap1\n      dup1\n      0x04\n      add\n      0x00\n      swap1\n      sload\n      swap1\n      0x0100\n      exp\n      swap1\n      div\n      0xffff\n      and\n      swap1\n      dup1\n      0x04\n      add\n      0x02\n      swap1\n      sload\n      swap1\n      0x0100\n      exp\n      swap1\n      div\n      0xff\n      and\n      swap1\n      pop\n      dup6\n      jump\t// out\n        /* \"contracts/ProposalVote.sol\":1174:2275  function voteOnProposal(uint8 _index) external {... */\n    tag_17:\n        /* \"contracts/ProposalVote.sol\":1285:1286  0 */\n      0x00\n        /* \"contracts/ProposalVote.sol\":1263:1287  msg.sender != address(0) */\n      0xffffffffffffffffffffffffffffffffffffffff\n      and\n        /* \"contracts/ProposalVote.sol\":1263:1273  msg.sender */\n      caller\n        /* \"contracts/ProposalVote.sol\":1263:1287  msg.sender != address(0) */\n      0xffffffffffffffffffffffffffffffffffffffff\n      and\n      sub\n        /* \"contracts/ProposalVote.sol\":1255:1319  require(msg.sender != address(0), \"Zero address is not allowed\") */\n      tag_45\n      jumpi\n      mload(0x40)\n      0x08c379a000000000000000000000000000000000000000000000000000000000\n      dup2\n      mstore\n      0x04\n      add\n      tag_46\n      swap1\n      tag_47\n      jump\t// in\n    tag_46:\n      mload(0x40)\n      dup1\n      swap2\n      sub\n      swap1\n      revert\n    tag_45:\n        /* \"contracts/ProposalVote.sol\":1346:1355  proposals */\n      0x01\n        /* \"contracts/ProposalVote.sol\":1346:1362  proposals.length */\n      dup1\n      sload\n      swap1\n      pop\n        /* \"contracts/ProposalVote.sol\":1337:1343  _index */\n      dup2\n        /* \"contracts/ProposalVote.sol\":1337:1362  _index < proposals.length */\n      0xff\n      and\n      lt\n        /* \"contracts/ProposalVote.sol\":1329:1388  require(_index < proposals.length, \"Index is out of bound\") */\n      tag_48\n      jumpi\n      mload(0x40)\n      0x08c379a000000000000000000000000000000000000000000000000000000000\n      dup2\n      mstore\n      0x04\n      add\n      tag_49\n      swap1\n      tag_50\n      jump\t// in\n    tag_49:\n      mload(0x40)\n      dup1\n      swap2\n      sub\n      swap1\n      revert\n    tag_48:\n        /* \"contracts/ProposalVote.sol\":1407:1415  hasVoted */\n      0x00\n        /* \"contracts/ProposalVote.sol\":1407:1427  hasVoted[msg.sender] */\n      0x00\n        /* \"contracts/ProposalVote.sol\":1416:1426  msg.sender */\n      caller\n        /* \"contracts/ProposalVote.sol\":1407:1427  hasVoted[msg.sender] */\n      0xffffffffffffffffffffffffffffffffffffffff\n      and\n      0xffffffffffffffffffffffffffffffffffffffff\n      and\n      dup2\n      mstore\n      0x20\n      add\n      swap1\n      dup2\n      mstore\n      0x20\n      add\n      0x00\n      keccak256\n        /* \"contracts/ProposalVote.sol\":1407:1435  hasVoted[msg.sender][_index] */\n      0x00\n        /* \"contracts/ProposalVote.sol\":1428:1434  _index */\n      dup3\n        /* \"contracts/ProposalVote.sol\":1407:1435  hasVoted[msg.sender][_index] */\n      0xff\n      and\n      0xff\n      and\n      dup2\n      mstore\n      0x20\n      add\n      swap1\n      dup2\n      mstore\n      0x20\n      add\n      0x00\n      keccak256\n      0x00\n      swap1\n      sload\n      swap1\n      0x0100\n      exp\n      swap1\n      div\n      0xff\n      and\n        /* \"contracts/ProposalVote.sol\":1406:1435  !hasVoted[msg.sender][_index] */\n      iszero\n        /* \"contracts/ProposalVote.sol\":1398:1462  require(!hasVoted[msg.sender][_index], \"You have voted already\") */\n      tag_51\n      jumpi\n      mload(0x40)\n      0x08c379a000000000000000000000000000000000000000000000000000000000\n      dup2\n      mstore\n      0x04\n      add\n      tag_52\n      swap1\n      tag_53\n      jump\t// in\n    tag_52:\n      mload(0x40)\n      dup1\n      swap2\n      sub\n      swap1\n      revert\n    tag_51:\n        /* \"contracts/ProposalVote.sol\":1473:1505  Proposal storage currentProposal */\n      0x00\n        /* \"contracts/ProposalVote.sol\":1508:1517  proposals */\n      0x01\n        /* \"contracts/ProposalVote.sol\":1518:1524  _index */\n      dup3\n        /* \"contracts/ProposalVote.sol\":1508:1525  proposals[_index] */\n      0xff\n      and\n      dup2\n      sload\n      dup2\n      lt\n      tag_54\n      jumpi\n      tag_55\n      tag_56\n      jump\t// in\n    tag_55:\n    tag_54:\n      swap1\n      0x00\n      mstore\n      keccak256(0x00, 0x20)\n      swap1\n      0x05\n      mul\n      add\n        /* \"contracts/ProposalVote.sol\":1473:1525  Proposal storage currentProposal = proposals[_index] */\n      swap1\n      pop\n        /* \"contracts/ProposalVote.sol\":1582:1602  PropsStatus.Accepted */\n      0x03\n        /* \"contracts/ProposalVote.sol\":1556:1602  currentProposal.status != PropsStatus.Accepted */\n      dup1\n      dup2\n      gt\n      iszero\n      tag_58\n      jumpi\n      tag_59\n      tag_60\n      jump\t// in\n    tag_59:\n    tag_58:\n        /* \"contracts/ProposalVote.sol\":1556:1571  currentProposal */\n      dup2\n        /* \"contracts/ProposalVote.sol\":1556:1578  currentProposal.status */\n      0x04\n      add\n      0x02\n      swap1\n      sload\n      swap1\n      0x0100\n      exp\n      swap1\n      div\n      0xff\n      and\n        /* \"contracts/ProposalVote.sol\":1556:1602  currentProposal.status != PropsStatus.Accepted */\n      0x03\n      dup2\n      gt\n      iszero\n      tag_61\n      jumpi\n      tag_62\n      tag_60\n      jump\t// in\n    tag_62:\n    tag_61:\n      sub\n        /* \"contracts/ProposalVote.sol\":1535:1667  require(... */\n      tag_63\n      jumpi\n      mload(0x40)\n      0x08c379a000000000000000000000000000000000000000000000000000000000\n      dup2\n      mstore\n      0x04\n      add\n      tag_64\n      swap1\n      tag_65\n      jump\t// in\n    tag_64:\n      mload(0x40)\n      dup1\n      swap2\n      sub\n      swap1\n      revert\n    tag_63:\n        /* \"contracts/ProposalVote.sol\":1706:1707  1 */\n      0x01\n        /* \"contracts/ProposalVote.sol\":1677:1692  currentProposal */\n      dup2\n        /* \"contracts/ProposalVote.sol\":1677:1702  currentProposal.voteCount */\n      0x02\n      add\n      0x00\n        /* \"contracts/ProposalVote.sol\":1677:1707  currentProposal.voteCount += 1 */\n      dup3\n      dup3\n      dup3\n      swap1\n      sload\n      swap1\n      0x0100\n      exp\n      swap1\n      div\n      0xffff\n      and\n      tag_66\n      swap2\n      swap1\n      tag_67\n      jump\t// in\n    tag_66:\n      swap3\n      pop\n      0x0100\n      exp\n      dup2\n      sload\n      dup2\n      0xffff\n      mul\n      not\n      and\n      swap1\n      dup4\n      0xffff\n      and\n      mul\n      or\n      swap1\n      sstore\n      pop\n        /* \"contracts/ProposalVote.sol\":1717:1732  currentProposal */\n      dup1\n        /* \"contracts/ProposalVote.sol\":1717:1739  currentProposal.voters */\n      0x03\n      add\n        /* \"contracts/ProposalVote.sol\":1745:1755  msg.sender */\n      caller\n        /* \"contracts/ProposalVote.sol\":1717:1756  currentProposal.voters.push(msg.sender) */\n      swap1\n      dup1\n      0x01\n      dup2\n      sload\n      add\n      dup1\n      dup3\n      sstore\n      dup1\n      swap2\n      pop\n      pop\n      0x01\n      swap1\n      sub\n      swap1\n      0x00\n      mstore\n      keccak256(0x00, 0x20)\n      add\n      0x00\n      swap1\n      swap2\n      swap1\n      swap2\n      swap1\n      swap2\n      0x0100\n      exp\n      dup2\n      sload\n      dup2\n      0xffffffffffffffffffffffffffffffffffffffff\n      mul\n      not\n      and\n      swap1\n      dup4\n      0xffffffffffffffffffffffffffffffffffffffff\n      and\n      mul\n      or\n      swap1\n      sstore\n      pop\n        /* \"contracts/ProposalVote.sol\":1791:1810  PropsStatus.Pending */\n      0x02\n        /* \"contracts/ProposalVote.sol\":1766:1781  currentProposal */\n      dup2\n        /* \"contracts/ProposalVote.sol\":1766:1788  currentProposal.status */\n      0x04\n      add\n      0x02\n        /* \"contracts/ProposalVote.sol\":1766:1810  currentProposal.status = PropsStatus.Pending */\n      0x0100\n      exp\n      dup2\n      sload\n      dup2\n      0xff\n      mul\n      not\n      and\n      swap1\n      dup4\n      0x03\n      dup2\n      gt\n      iszero\n      tag_69\n      jumpi\n      tag_70\n      tag_60\n      jump\t// in\n    tag_70:\n    tag_69:\n      mul\n      or\n      swap1\n      sstore\n      pop\n        /* \"contracts/ProposalVote.sol\":1852:1856  true */\n      0x01\n        /* \"contracts/ProposalVote.sol\":1821:1829  hasVoted */\n      0x00\n        /* \"contracts/ProposalVote.sol\":1821:1841  hasVoted[msg.sender] */\n      0x00\n        /* \"contracts/ProposalVote.sol\":1830:1840  msg.sender */\n      caller\n        /* \"contracts/ProposalVote.sol\":1821:1841  hasVoted[msg.sender] */\n      0xffffffffffffffffffffffffffffffffffffffff\n      and\n      0xffffffffffffffffffffffffffffffffffffffff\n      and\n      dup2\n      mstore\n      0x20\n      add\n      swap1\n      dup2\n      mstore\n      0x20\n      add\n      0x00\n      keccak256\n        /* \"contracts/ProposalVote.sol\":1821:1849  hasVoted[msg.sender][_index] */\n      0x00\n        /* \"contracts/ProposalVote.sol\":1842:1848  _index */\n      dup5\n        /* \"contracts/ProposalVote.sol\":1821:1849  hasVoted[msg.sender][_index] */\n      0xff\n      and\n      0xff\n      and\n      dup2\n      mstore\n      0x20\n      add\n      swap1\n      dup2\n      mstore\n      0x20\n      add\n      0x00\n      keccak256\n      0x00\n        /* \"contracts/ProposalVote.sol\":1821:1856  hasVoted[msg.sender][_index] = true */\n      0x0100\n      exp\n      dup2\n      sload\n      dup2\n      0xff\n      mul\n      not\n      and\n      swap1\n      dup4\n      iszero\n      iszero\n      mul\n      or\n      swap1\n      sstore\n      pop\n        /* \"contracts/ProposalVote.sol\":1900:1915  currentProposal */\n      dup1\n        /* \"contracts/ProposalVote.sol\":1900:1922  currentProposal.quorum */\n      0x04\n      add\n      0x00\n      swap1\n      sload\n      swap1\n      0x0100\n      exp\n      swap1\n      div\n      0xffff\n      and\n        /* \"contracts/ProposalVote.sol\":1871:1922  currentProposal.voteCount >= currentProposal.quorum */\n      0xffff\n      and\n        /* \"contracts/ProposalVote.sol\":1871:1886  currentProposal */\n      dup2\n        /* \"contracts/ProposalVote.sol\":1871:1896  currentProposal.voteCount */\n      0x02\n      add\n      0x00\n      swap1\n      sload\n      swap1\n      0x0100\n      exp\n      swap1\n      div\n      0xffff\n      and\n        /* \"contracts/ProposalVote.sol\":1871:1922  currentProposal.voteCount >= currentProposal.quorum */\n      0xffff\n      and\n      lt\n        /* \"contracts/ProposalVote.sol\":1867:2269  if (currentProposal.voteCount >= currentProposal.quorum) {... */\n      tag_71\n      jumpi\n        /* \"contracts/ProposalVote.sol\":1963:1983  PropsStatus.Accepted */\n      0x03\n        /* \"contracts/ProposalVote.sol\":1938:1953  currentProposal */\n      dup2\n        /* \"contracts/ProposalVote.sol\":1938:1960  currentProposal.status */\n      0x04\n      add\n      0x02\n        /* \"contracts/ProposalVote.sol\":1938:1983  currentProposal.status = PropsStatus.Accepted */\n      0x0100\n      exp\n      dup2\n      sload\n      dup2\n      0xff\n      mul\n      not\n      and\n      swap1\n      dup4\n      0x03\n      dup2\n      gt\n      iszero\n      tag_72\n      jumpi\n      tag_73\n      tag_60\n      jump\t// in\n    tag_73:\n    tag_72:\n      mul\n      or\n      swap1\n      sstore\n      pop\n        /* \"contracts/ProposalVote.sol\":2036:2051  currentProposal */\n      dup1\n        /* \"contracts/ProposalVote.sol\":2036:2056  currentProposal.name */\n      0x00\n      add\n        /* \"contracts/ProposalVote.sol\":2002:2113  ProposalApproved(... */\n      mload(0x40)\n      tag_74\n      swap2\n      swap1\n      tag_75\n      jump\t// in\n    tag_74:\n      mload(0x40)\n      dup1\n      swap2\n      sub\n      swap1\n      keccak256\n      0xf905f773c0a2b3d406f07062a5f684e9a9e9ee94a78543e4d7e3032a343fe128\n        /* \"contracts/ProposalVote.sol\":2074:2089  currentProposal */\n      dup3\n        /* \"contracts/ProposalVote.sol\":2074:2099  currentProposal.voteCount */\n      0x02\n      add\n      0x00\n      swap1\n      sload\n      swap1\n      0x0100\n      exp\n      swap1\n      div\n      0xffff\n      and\n        /* \"contracts/ProposalVote.sol\":2002:2113  ProposalApproved(... */\n      mload(0x40)\n      tag_76\n      swap2\n      swap1\n      tag_77\n      jump\t// in\n    tag_76:\n      mload(0x40)\n      dup1\n      swap2\n      sub\n      swap1\n      log2\n        /* \"contracts/ProposalVote.sol\":1867:2269  if (currentProposal.voteCount >= currentProposal.quorum) {... */\n      jump(tag_78)\n    tag_71:\n        /* \"contracts/ProposalVote.sol\":2181:2196  currentProposal */\n      dup1\n        /* \"contracts/ProposalVote.sol\":2181:2201  currentProposal.name */\n      0x00\n      add\n        /* \"contracts/ProposalVote.sol\":2149:2258  ProposalActive(... */\n      mload(0x40)\n      tag_79\n      swap2\n      swap1\n      tag_75\n      jump\t// in\n    tag_79:\n      mload(0x40)\n      dup1\n      swap2\n      sub\n      swap1\n      keccak256\n      0x68f5acd04b88bca43c904950734810e6d43b1f13f00da9e450355cad273543\n        /* \"contracts/ProposalVote.sol\":2219:2234  currentProposal */\n      dup3\n        /* \"contracts/ProposalVote.sol\":2219:2244  currentProposal.voteCount */\n      0x02\n      add\n      0x00\n      swap1\n      sload\n      swap1\n      0x0100\n      exp\n      swap1\n      div\n      0xffff\n      and\n        /* \"contracts/ProposalVote.sol\":2149:2258  ProposalActive(... */\n      mload(0x40)\n      tag_80\n      swap2\n      swap1\n      tag_77\n      jump\t// in\n    tag_80:\n      mload(0x40)\n      dup1\n      swap2\n      sub\n      swap1\n      log2\n        /* \"contracts/ProposalVote.sol\":1867:2269  if (currentProposal.voteCount >= currentProposal.quorum) {... */\n    tag_78:\n        /* \"contracts/ProposalVote.sol\":1221:2275  {... */\n      pop\n        /* \"contracts/ProposalVote.sol\":1174:2275  function voteOnProposal(uint8 _index) external {... */\n      pop\n      jump\t// out\n        /* \"contracts/ProposalVote.sol\":656:1168  function createProposal(... */\n    tag_21:\n        /* \"contracts/ProposalVote.sol\":841:842  0 */\n      0x00\n        /* \"contracts/ProposalVote.sol\":819:843  msg.sender != address(0) */\n      0xffffffffffffffffffffffffffffffffffffffff\n      and\n        /* \"contracts/ProposalVote.sol\":819:829  msg.sender */\n      caller\n        /* \"contracts/ProposalVote.sol\":819:843  msg.sender != address(0) */\n      0xffffffffffffffffffffffffffffffffffffffff\n      and\n      sub\n        /* \"contracts/ProposalVote.sol\":811:875  require(msg.sender != address(0), \"Zero address is not allowed\") */\n      tag_82\n      jumpi\n      mload(0x40)\n      0x08c379a000000000000000000000000000000000000000000000000000000000\n      dup2\n      mstore\n      0x04\n      add\n      tag_83\n      swap1\n      tag_47\n      jump\t// in\n    tag_83:\n      mload(0x40)\n      dup1\n      swap2\n      sub\n      swap1\n      revert\n    tag_82:\n        /* \"contracts/ProposalVote.sol\":886:913  Proposal memory newProposal */\n      tag_84\n      tag_85\n      jump\t// in\n    tag_84:\n        /* \"contracts/ProposalVote.sol\":942:947  _name */\n      dup4\n        /* \"contracts/ProposalVote.sol\":923:934  newProposal */\n      dup2\n        /* \"contracts/ProposalVote.sol\":923:939  newProposal.name */\n      0x00\n      add\n        /* \"contracts/ProposalVote.sol\":923:947  newProposal.name = _name */\n      dup2\n      swap1\n      mstore\n      pop\n        /* \"contracts/ProposalVote.sol\":983:988  _desc */\n      dup3\n        /* \"contracts/ProposalVote.sol\":957:968  newProposal */\n      dup2\n        /* \"contracts/ProposalVote.sol\":957:980  newProposal.description */\n      0x20\n      add\n        /* \"contracts/ProposalVote.sol\":957:988  newProposal.description = _desc */\n      dup2\n      swap1\n      mstore\n      pop\n        /* \"contracts/ProposalVote.sol\":1019:1026  _quorum */\n      dup2\n        /* \"contracts/ProposalVote.sol\":998:1009  newProposal */\n      dup2\n        /* \"contracts/ProposalVote.sol\":998:1016  newProposal.quorum */\n      0x80\n      add\n        /* \"contracts/ProposalVote.sol\":998:1026  newProposal.quorum = _quorum */\n      swap1\n      0xffff\n      and\n      swap1\n      dup2\n      0xffff\n      and\n      dup2\n      mstore\n      pop\n      pop\n        /* \"contracts/ProposalVote.sol\":1057:1076  PropsStatus.Created */\n      0x01\n        /* \"contracts/ProposalVote.sol\":1036:1047  newProposal */\n      dup2\n        /* \"contracts/ProposalVote.sol\":1036:1054  newProposal.status */\n      0xa0\n      add\n        /* \"contracts/ProposalVote.sol\":1036:1076  newProposal.status = PropsStatus.Created */\n      swap1\n      0x03\n      dup2\n      gt\n      iszero\n      tag_86\n      jumpi\n      tag_87\n      tag_60\n      jump\t// in\n    tag_87:\n    tag_86:\n      swap1\n      dup2\n      0x03\n      dup2\n      gt\n      iszero\n      tag_88\n      jumpi\n      tag_89\n      tag_60\n      jump\t// in\n    tag_89:\n    tag_88:\n      dup2\n      mstore\n      pop\n      pop\n        /* \"contracts/ProposalVote.sol\":1087:1096  proposals */\n      0x01\n        /* \"contracts/ProposalVote.sol\":1102:1113  newProposal */\n      dup2\n        /* \"contracts/ProposalVote.sol\":1087:1114  proposals.push(newProposal) */\n      swap1\n      dup1\n      0x01\n      dup2\n      sload\n      add\n      dup1\n      dup3\n      sstore\n      dup1\n      swap2\n      pop\n      pop\n      0x01\n      swap1\n      sub\n      swap1\n      0x00\n      mstore\n      keccak256(0x00, 0x20)\n      swap1\n      0x05\n      mul\n      add\n      0x00\n      swap1\n      swap2\n      swap1\n      swap2\n      swap1\n      swap2\n      pop\n      0x00\n      dup3\n      add\n      mload\n      dup2\n      0x00\n      add\n      swap1\n      dup2\n      tag_91\n      swap2\n      swap1\n      tag_92\n      jump\t// in\n    tag_91:\n      pop\n      0x20\n      dup3\n      add\n      mload\n      dup2\n      0x01\n      add\n      swap1\n      dup2\n      tag_93\n      swap2\n      swap1\n      tag_92\n      jump\t// in\n    tag_93:\n      pop\n      0x40\n      dup3\n      add\n      mload\n      dup2\n      0x02\n      add\n      exp(0x0100, 0x00)\n      dup2\n      sload\n      dup2\n      0xffff\n      mul\n      not\n      and\n      swap1\n      dup4\n      0xffff\n      and\n      mul\n      or\n      swap1\n      sstore\n      pop\n      0x60\n      dup3\n      add\n      mload\n      dup2\n      0x03\n      add\n      swap1\n      dup1\n      mload\n      swap1\n      0x20\n      add\n      swap1\n      tag_94\n      swap3\n      swap2\n      swap1\n      tag_95\n      jump\t// in\n    tag_94:\n      pop\n      0x80\n      dup3\n      add\n      mload\n      dup2\n      0x04\n      add\n      exp(0x0100, 0x00)\n      dup2\n      sload\n      dup2\n      0xffff\n      mul\n      not\n      and\n      swap1\n      dup4\n      0xffff\n      and\n      mul\n      or\n      swap1\n      sstore\n      pop\n      0xa0\n      dup3\n      add\n      mload\n      dup2\n      0x04\n      add\n      exp(0x0100, 0x02)\n      dup2\n      sload\n      dup2\n      0xff\n      mul\n      not\n      and\n      swap1\n      dup4\n      0x03\n      dup2\n      gt\n      iszero\n      tag_96\n      jumpi\n      tag_97\n      tag_60\n      jump\t// in\n    tag_97:\n    tag_96:\n      mul\n      or\n      swap1\n      sstore\n      pop\n      pop\n      pop\n        /* \"contracts/ProposalVote.sol\":1146:1151  _name */\n      dup4\n        /* \"contracts/ProposalVote.sol\":1130:1161  ProposalCreated(_name, _quorum) */\n      mload(0x40)\n      tag_98\n      swap2\n      swap1\n      tag_99\n      jump\t// in\n    tag_98:\n      mload(0x40)\n      dup1\n      swap2\n      sub\n      swap1\n      keccak256\n      0xd676bd5a867d12796d6ef62a604d07c83bdce30aaf9471431d7772e1ba09e222\n        /* \"contracts/ProposalVote.sol\":1153:1160  _quorum */\n      dup4\n        /* \"contracts/ProposalVote.sol\":1130:1161  ProposalCreated(_name, _quorum) */\n      mload(0x40)\n      tag_100\n      swap2\n      swap1\n      tag_77\n      jump\t// in\n    tag_100:\n      mload(0x40)\n      dup1\n      swap2\n      sub\n      swap1\n      log2\n        /* \"contracts/ProposalVote.sol\":777:1168  {... */\n      pop\n        /* \"contracts/ProposalVote.sol\":656:1168  function createProposal(... */\n      pop\n      pop\n      pop\n      jump\t// out\n        /* \"contracts/ProposalVote.sol\":2281:2383  function getAllProposals() external view returns (Proposal[] memory) {... */\n    tag_23:\n        /* \"contracts/ProposalVote.sol\":2331:2348  Proposal[] memory */\n      0x60\n        /* \"contracts/ProposalVote.sol\":2367:2376  proposals */\n      0x01\n        /* \"contracts/ProposalVote.sol\":2360:2376  return proposals */\n      dup1\n      sload\n      dup1\n      0x20\n      mul\n      0x20\n      add\n      mload(0x40)\n      swap1\n      dup2\n      add\n      0x40\n      mstore\n      dup1\n      swap3\n      swap2\n      swap1\n      dup2\n      dup2\n      mstore\n      0x20\n      add\n      0x00\n      swap1\n    tag_102:\n      dup3\n      dup3\n      lt\n      iszero\n      tag_103\n      jumpi\n      dup4\n      dup3\n      swap1\n      0x00\n      mstore\n      keccak256(0x00, 0x20)\n      swap1\n      0x05\n      mul\n      add\n      mload(0x40)\n      dup1\n      0xc0\n      add\n      0x40\n      mstore\n      swap1\n      dup2\n      0x00\n      dup3\n      add\n      dup1\n      sload\n      tag_105\n      swap1\n      tag_34\n      jump\t// in\n    tag_105:\n      dup1\n      0x1f\n      add\n      0x20\n      dup1\n      swap2\n      div\n      mul\n      0x20\n      add\n      mload(0x40)\n      swap1\n      dup2\n      add\n      0x40\n      mstore\n      dup1\n      swap3\n      swap2\n      swap1\n      dup2\n      dup2\n      mstore\n      0x20\n      add\n      dup3\n      dup1\n      sload\n      tag_106\n      swap1\n      tag_34\n      jump\t// in\n    tag_106:\n      dup1\n      iszero\n      tag_107\n      jumpi\n      dup1\n      0x1f\n      lt\n      tag_108\n      jumpi\n      0x0100\n      dup1\n      dup4\n      sload\n      div\n      mul\n      dup4\n      mstore\n      swap2\n      0x20\n      add\n      swap2\n      jump(tag_107)\n    tag_108:\n      dup3\n      add\n      swap2\n      swap1\n      0x00\n      mstore\n      keccak256(0x00, 0x20)\n      swap1\n    tag_109:\n      dup2\n      sload\n      dup2\n      mstore\n      swap1\n      0x01\n      add\n      swap1\n      0x20\n      add\n      dup1\n      dup4\n      gt\n      tag_109\n      jumpi\n      dup3\n      swap1\n      sub\n      0x1f\n      and\n      dup3\n      add\n      swap2\n    tag_107:\n      pop\n      pop\n      pop\n      pop\n      pop\n      dup2\n      mstore\n      0x20\n      add\n      0x01\n      dup3\n      add\n      dup1\n      sload\n      tag_110\n      swap1\n      tag_34\n      jump\t// in\n    tag_110:\n      dup1\n      0x1f\n      add\n      0x20\n      dup1\n      swap2\n      div\n      mul\n      0x20\n      add\n      mload(0x40)\n      swap1\n      dup2\n      add\n      0x40\n      mstore\n      dup1\n      swap3\n      swap2\n      swap1\n      dup2\n      dup2\n      mstore\n      0x20\n      add\n      dup3\n      dup1\n      sload\n      tag_111\n      swap1\n      tag_34\n      jump\t// in\n    tag_111:\n      dup1\n      iszero\n      tag_112\n      jumpi\n      dup1\n      0x1f\n      lt\n      tag_113\n      jumpi\n      0x0100\n      dup1\n      dup4\n      sload\n      div\n      mul\n      dup4\n      mstore\n      swap2\n      0x20\n      add\n      swap2\n      jump(tag_112)\n    tag_113:\n      dup3\n      add\n      swap2\n      swap1\n      0x00\n      mstore\n      keccak256(0x00, 0x20)\n      swap1\n    tag_114:\n      dup2\n      sload\n      dup2\n      mstore\n      swap1\n      0x01\n      add\n      swap1\n      0x20\n      add\n      dup1\n      dup4\n      gt\n      tag_114\n      jumpi\n      dup3\n      swap1\n      sub\n      0x1f\n      and\n      dup3\n      add\n      swap2\n    tag_112:\n      pop\n      pop\n      pop\n      pop\n      pop\n      dup2\n      mstore\n      0x20\n      add\n      0x02\n      dup3\n      add\n      0x00\n      swap1\n      sload\n      swap1\n      0x0100\n      exp\n      swap1\n      div\n      0xffff\n      and\n      0xffff\n      and\n      0xffff\n      and\n      dup2\n      mstore\n      0x20\n      add\n      0x03\n      dup3\n      add\n      dup1\n      sload\n      dup1\n      0x20\n      mul\n      0x20\n      add\n      mload(0x40)\n      swap1\n      dup2\n      add\n      0x40\n      mstore\n      dup1\n      swap3\n      swap2\n      swap1\n      dup2\n      dup2\n      mstore\n      0x20\n      add\n      dup3\n      dup1\n      sload\n      dup1\n      iszero\n      tag_115\n      jumpi\n      0x20\n      mul\n      dup3\n      add\n      swap2\n      swap1\n      0x00\n      mstore\n      keccak256(0x00, 0x20)\n      swap1\n    tag_116:\n      dup2\n      0x00\n      swap1\n      sload\n      swap1\n      0x0100\n      exp\n      swap1\n      div\n      0xffffffffffffffffffffffffffffffffffffffff\n      and\n      0xffffffffffffffffffffffffffffffffffffffff\n      and\n      dup2\n      mstore\n      0x20\n      add\n      swap1\n      0x01\n      add\n      swap1\n      dup1\n      dup4\n      gt\n      tag_116\n      jumpi\n    tag_115:\n      pop\n      pop\n      pop\n      pop\n      pop\n      dup2\n      mstore\n      0x20\n      add\n      0x04\n      dup3\n      add\n      0x00\n      swap1\n      sload\n      swap1\n      0x0100\n      exp\n      swap1\n      div\n      0xffff\n      and\n      0xffff\n      and\n      0xffff\n      and\n      dup2\n      mstore\n      0x20\n      add\n      0x04\n      dup3\n      add\n      0x02\n      swap1\n      sload\n      swap1\n      0x0100\n      exp\n      swap1\n      div\n      0xff\n      and\n      0x03\n      dup2\n      gt\n      iszero\n      tag_117\n      jumpi\n      tag_118\n      tag_60\n      jump\t// in\n    tag_118:\n    tag_117:\n      0x03\n      dup2\n      gt\n      iszero\n      tag_119\n      jumpi\n      tag_120\n      tag_60\n      jump\t// in\n    tag_120:\n    tag_119:\n      dup2\n      mstore\n      pop\n      pop\n      dup2\n      mstore\n      0x20\n      add\n      swap1\n      0x01\n      add\n      swap1\n      jump(tag_102)\n    tag_103:\n      pop\n      pop\n      pop\n      pop\n      swap1\n      pop\n        /* \"contracts/ProposalVote.sol\":2281:2383  function getAllProposals() external view returns (Proposal[] memory) {... */\n      swap1\n      jump\t// out\n        /* \"contracts/ProposalVote.sol\":2389:3141  function getProposal(uint8 _index)... */\n    tag_28:\n        /* \"contracts/ProposalVote.sol\":2484:2503  string memory name_ */\n      0x60\n        /* \"contracts/ProposalVote.sol\":2517:2536  string memory desc_ */\n      dup1\n        /* \"contracts/ProposalVote.sol\":2550:2563  uint16 count_ */\n      0x00\n        /* \"contracts/ProposalVote.sol\":2577:2601  address[] memory voters_ */\n      0x60\n        /* \"contracts/ProposalVote.sol\":2615:2629  uint16 quorum_ */\n      0x00\n        /* \"contracts/ProposalVote.sol\":2643:2662  PropsStatus status_ */\n      0x00\n        /* \"contracts/ProposalVote.sol\":2717:2718  0 */\n      0x00\n        /* \"contracts/ProposalVote.sol\":2695:2719  msg.sender != address(0) */\n      0xffffffffffffffffffffffffffffffffffffffff\n      and\n        /* \"contracts/ProposalVote.sol\":2695:2705  msg.sender */\n      caller\n        /* \"contracts/ProposalVote.sol\":2695:2719  msg.sender != address(0) */\n      0xffffffffffffffffffffffffffffffffffffffff\n      and\n      sub\n        /* \"contracts/ProposalVote.sol\":2687:2751  require(msg.sender != address(0), \"Zero address is not allowed\") */\n      tag_122\n      jumpi\n      mload(0x40)\n      0x08c379a000000000000000000000000000000000000000000000000000000000\n      dup2\n      mstore\n      0x04\n      add\n      tag_123\n      swap1\n      tag_47\n      jump\t// in\n    tag_123:\n      mload(0x40)\n      dup1\n      swap2\n      sub\n      swap1\n      revert\n    tag_122:\n        /* \"contracts/ProposalVote.sol\":2778:2787  proposals */\n      0x01\n        /* \"contracts/ProposalVote.sol\":2778:2794  proposals.length */\n      dup1\n      sload\n      swap1\n      pop\n        /* \"contracts/ProposalVote.sol\":2769:2775  _index */\n      dup8\n        /* \"contracts/ProposalVote.sol\":2769:2794  _index < proposals.length */\n      0xff\n      and\n      lt\n        /* \"contracts/ProposalVote.sol\":2761:2820  require(_index < proposals.length, \"Index is out of bound\") */\n      tag_124\n      jumpi\n      mload(0x40)\n      0x08c379a000000000000000000000000000000000000000000000000000000000\n      dup2\n      mstore\n      0x04\n      add\n      tag_125\n      swap1\n      tag_50\n      jump\t// in\n    tag_125:\n      mload(0x40)\n      dup1\n      swap2\n      sub\n      swap1\n      revert\n    tag_124:\n        /* \"contracts/ProposalVote.sol\":2830:2861  Proposal memory currentProposal */\n      0x00\n        /* \"contracts/ProposalVote.sol\":2864:2873  proposals */\n      0x01\n        /* \"contracts/ProposalVote.sol\":2874:2880  _index */\n      dup9\n        /* \"contracts/ProposalVote.sol\":2864:2881  proposals[_index] */\n      0xff\n      and\n      dup2\n      sload\n      dup2\n      lt\n      tag_126\n      jumpi\n      tag_127\n      tag_56\n      jump\t// in\n    tag_127:\n    tag_126:\n      swap1\n      0x00\n      mstore\n      keccak256(0x00, 0x20)\n      swap1\n      0x05\n      mul\n      add\n        /* \"contracts/ProposalVote.sol\":2830:2881  Proposal memory currentProposal = proposals[_index] */\n      mload(0x40)\n      dup1\n      0xc0\n      add\n      0x40\n      mstore\n      swap1\n      dup2\n      0x00\n      dup3\n      add\n      dup1\n      sload\n      tag_129\n      swap1\n      tag_34\n      jump\t// in\n    tag_129:\n      dup1\n      0x1f\n      add\n      0x20\n      dup1\n      swap2\n      div\n      mul\n      0x20\n      add\n      mload(0x40)\n      swap1\n      dup2\n      add\n      0x40\n      mstore\n      dup1\n      swap3\n      swap2\n      swap1\n      dup2\n      dup2\n      mstore\n      0x20\n      add\n      dup3\n      dup1\n      sload\n      tag_130\n      swap1\n      tag_34\n      jump\t// in\n    tag_130:\n      dup1\n      iszero\n      tag_131\n      jumpi\n      dup1\n      0x1f\n      lt\n      tag_132\n      jumpi\n      0x0100\n      dup1\n      dup4\n      sload\n      div\n      mul\n      dup4\n      mstore\n      swap2\n      0x20\n      add\n      swap2\n      jump(tag_131)\n    tag_132:\n      dup3\n      add\n      swap2\n      swap1\n      0x00\n      mstore\n      keccak256(0x00, 0x20)\n      swap1\n    tag_133:\n      dup2\n      sload\n      dup2\n      mstore\n      swap1\n      0x01\n      add\n      swap1\n      0x20\n      add\n      dup1\n      dup4\n      gt\n      tag_133\n      jumpi\n      dup3\n      swap1\n      sub\n      0x1f\n      and\n      dup3\n      add\n      swap2\n    tag_131:\n      pop\n      pop\n      pop\n      pop\n      pop\n      dup2\n      mstore\n      0x20\n      add\n      0x01\n      dup3\n      add\n      dup1\n      sload\n      tag_134\n      swap1\n      tag_34\n      jump\t// in\n    tag_134:\n      dup1\n      0x1f\n      add\n      0x20\n      dup1\n      swap2\n      div\n      mul\n      0x20\n      add\n      mload(0x40)\n      swap1\n      dup2\n      add\n      0x40\n      mstore\n      dup1\n      swap3\n      swap2\n      swap1\n      dup2\n      dup2\n      mstore\n      0x20\n      add\n      dup3\n      dup1\n      sload\n      tag_135\n      swap1\n      tag_34\n      jump\t// in\n    tag_135:\n      dup1\n      iszero\n      tag_136\n      jumpi\n      dup1\n      0x1f\n      lt\n      tag_137\n      jumpi\n      0x0100\n      dup1\n      dup4\n      sload\n      div\n      mul\n      dup4\n      mstore\n      swap2\n      0x20\n      add\n      swap2\n      jump(tag_136)\n    tag_137:\n      dup3\n      add\n      swap2\n      swap1\n      0x00\n      mstore\n      keccak256(0x00, 0x20)\n      swap1\n    tag_138:\n      dup2\n      sload\n      dup2\n      mstore\n      swap1\n      0x01\n      add\n      swap1\n      0x20\n      add\n      dup1\n      dup4\n      gt\n      tag_138\n      jumpi\n      dup3\n      swap1\n      sub\n      0x1f\n      and\n      dup3\n      add\n      swap2\n    tag_136:\n      pop\n      pop\n      pop\n      pop\n      pop\n      dup2\n      mstore\n      0x20\n      add\n      0x02\n      dup3\n      add\n      0x00\n      swap1\n      sload\n      swap1\n      0x0100\n      exp\n      swap1\n      div\n      0xffff\n      and\n      0xffff\n      and\n      0xffff\n      and\n      dup2\n      mstore\n      0x20\n      add\n      0x03\n      dup3\n      add\n      dup1\n      sload\n      dup1\n      0x20\n      mul\n      0x20\n      add\n      mload(0x40)\n      swap1\n      dup2\n      add\n      0x40\n      mstore\n      dup1\n      swap3\n      swap2\n      swap1\n      dup2\n      dup2\n      mstore\n      0x20\n      add\n      dup3\n      dup1\n      sload\n      dup1\n      iszero\n      tag_139\n      jumpi\n      0x20\n      mul\n      dup3\n      add\n      swap2\n      swap1\n      0x00\n      mstore\n      keccak256(0x00, 0x20)\n      swap1\n    tag_140:\n      dup2\n      0x00\n      swap1\n      sload\n      swap1\n      0x0100\n      exp\n      swap1\n      div\n      0xffffffffffffffffffffffffffffffffffffffff\n      and\n      0xffffffffffffffffffffffffffffffffffffffff\n      and\n      dup2\n      mstore\n      0x20\n      add\n      swap1\n      0x01\n      add\n      swap1\n      dup1\n      dup4\n      gt\n      tag_140\n      jumpi\n    tag_139:\n      pop\n      pop\n      pop\n      pop\n      pop\n      dup2\n      mstore\n      0x20\n      add\n      0x04\n      dup3\n      add\n      0x00\n      swap1\n      sload\n      swap1\n      0x0100\n      exp\n      swap1\n      div\n      0xffff\n      and\n      0xffff\n      and\n      0xffff\n      and\n      dup2\n      mstore\n      0x20\n      add\n      0x04\n      dup3\n      add\n      0x02\n      swap1\n      sload\n      swap1\n      0x0100\n      exp\n      swap1\n      div\n      0xff\n      and\n      0x03\n      dup2\n      gt\n      iszero\n      tag_141\n      jumpi\n      tag_142\n      tag_60\n      jump\t// in\n    tag_142:\n    tag_141:\n      0x03\n      dup2\n      gt\n      iszero\n      tag_143\n      jumpi\n      tag_144\n      tag_60\n      jump\t// in\n    tag_144:\n    tag_143:\n      dup2\n      mstore\n      pop\n      pop\n      swap1\n      pop\n        /* \"contracts/ProposalVote.sol\":2899:2914  currentProposal */\n      dup1\n        /* \"contracts/ProposalVote.sol\":2899:2919  currentProposal.name */\n      0x00\n      add\n      mload\n        /* \"contracts/ProposalVote.sol\":2891:2919  name_ = currentProposal.name */\n      swap7\n      pop\n        /* \"contracts/ProposalVote.sol\":2937:2952  currentProposal */\n      dup1\n        /* \"contracts/ProposalVote.sol\":2937:2964  currentProposal.description */\n      0x20\n      add\n      mload\n        /* \"contracts/ProposalVote.sol\":2929:2964  desc_ = currentProposal.description */\n      swap6\n      pop\n        /* \"contracts/ProposalVote.sol\":2983:2998  currentProposal */\n      dup1\n        /* \"contracts/ProposalVote.sol\":2983:3008  currentProposal.voteCount */\n      0x40\n      add\n      mload\n        /* \"contracts/ProposalVote.sol\":2974:3008  count_ = currentProposal.voteCount */\n      swap5\n      pop\n        /* \"contracts/ProposalVote.sol\":3028:3043  currentProposal */\n      dup1\n        /* \"contracts/ProposalVote.sol\":3028:3050  currentProposal.voters */\n      0x60\n      add\n      mload\n        /* \"contracts/ProposalVote.sol\":3018:3050  voters_ = currentProposal.voters */\n      swap4\n      pop\n        /* \"contracts/ProposalVote.sol\":3070:3085  currentProposal */\n      dup1\n        /* \"contracts/ProposalVote.sol\":3070:3092  currentProposal.quorum */\n      0x80\n      add\n      mload\n        /* \"contracts/ProposalVote.sol\":3060:3092  quorum_ = currentProposal.quorum */\n      swap3\n      pop\n        /* \"contracts/ProposalVote.sol\":3112:3127  currentProposal */\n      dup1\n        /* \"contracts/ProposalVote.sol\":3112:3134  currentProposal.status */\n      0xa0\n      add\n      mload\n        /* \"contracts/ProposalVote.sol\":3102:3134  status_ = currentProposal.status */\n      swap2\n      pop\n        /* \"contracts/ProposalVote.sol\":2677:3141  {... */\n      pop\n        /* \"contracts/ProposalVote.sol\":2389:3141  function getProposal(uint8 _index)... */\n      swap2\n      swap4\n      swap6\n      pop\n      swap2\n      swap4\n      swap6\n      jump\t// out\n    tag_85:\n      mload(0x40)\n      dup1\n      0xc0\n      add\n      0x40\n      mstore\n      dup1\n      0x60\n      dup2\n      mstore\n      0x20\n      add\n      0x60\n      dup2\n      mstore\n      0x20\n      add\n      and(0xffff, 0x00)\n      dup2\n      mstore\n      0x20\n      add\n      0x60\n      dup2\n      mstore\n      0x20\n      add\n      and(0xffff, 0x00)\n      dup2\n      mstore\n      0x20\n      add\n      0x00\n      0x03\n      dup2\n      gt\n      iszero\n      tag_145\n      jumpi\n      tag_146\n      tag_60\n      jump\t// in\n    tag_146:\n    tag_145:\n      dup2\n      mstore\n      pop\n      swap1\n      jump\t// out\n    tag_95:\n      dup3\n      dup1\n      sload\n      dup3\n      dup3\n      sstore\n      swap1\n      0x00\n      mstore\n      keccak256(0x00, 0x20)\n      swap1\n      dup2\n      add\n      swap3\n      dup3\n      iszero\n      tag_147\n      jumpi\n      swap2\n      0x20\n      mul\n      dup3\n      add\n    tag_148:\n      dup3\n      dup2\n      gt\n      iszero\n      tag_149\n      jumpi\n      dup3\n      mload\n      dup3\n      exp(0x0100, 0x00)\n      dup2\n      sload\n      dup2\n      0xffffffffffffffffffffffffffffffffffffffff\n      mul\n      not\n      and\n      swap1\n      dup4\n      0xffffffffffffffffffffffffffffffffffffffff\n      and\n      mul\n      or\n      swap1\n      sstore\n      pop\n      swap2\n      0x20\n      add\n      swap2\n      swap1\n      0x01\n      add\n      swap1\n      jump(tag_148)\n    tag_149:\n    tag_147:\n      pop\n      swap1\n      pop\n      tag_150\n      swap2\n      swap1\n      tag_151\n      jump\t// in\n    tag_150:\n      pop\n      swap1\n      jump\t// out\n    tag_151:\n    tag_152:\n      dup1\n      dup3\n      gt\n      iszero\n      tag_153\n      jumpi\n      0x00\n      dup2\n      0x00\n      swap1\n      sstore\n      pop\n      0x01\n      add\n      jump(tag_152)\n    tag_153:\n      pop\n      swap1\n      jump\t// out\n        /* \"#utility.yul\":7:82   */\n    tag_154:\n        /* \"#utility.yul\":40:46   */\n      0x00\n        /* \"#utility.yul\":73:75   */\n      0x40\n        /* \"#utility.yul\":67:76   */\n      mload\n        /* \"#utility.yul\":57:76   */\n      swap1\n      pop\n        /* \"#utility.yul\":7:82   */\n      swap1\n      jump\t// out\n        /* \"#utility.yul\":88:205   */\n    tag_155:\n        /* \"#utility.yul\":197:198   */\n      0x00\n        /* \"#utility.yul\":194:195   */\n      0x00\n        /* \"#utility.yul\":187:199   */\n      revert\n        /* \"#utility.yul\":211:328   */\n    tag_156:\n        /* \"#utility.yul\":320:321   */\n      0x00\n        /* \"#utility.yul\":317:318   */\n      0x00\n        /* \"#utility.yul\":310:322   */\n      revert\n        /* \"#utility.yul\":334:411   */\n    tag_157:\n        /* \"#utility.yul\":371:378   */\n      0x00\n        /* \"#utility.yul\":400:405   */\n      dup2\n        /* \"#utility.yul\":389:405   */\n      swap1\n      pop\n        /* \"#utility.yul\":334:411   */\n      swap2\n      swap1\n      pop\n      jump\t// out\n        /* \"#utility.yul\":417:539   */\n    tag_158:\n        /* \"#utility.yul\":490:514   */\n      tag_241\n        /* \"#utility.yul\":508:513   */\n      dup2\n        /* \"#utility.yul\":490:514   */\n      tag_157\n      jump\t// in\n    tag_241:\n        /* \"#utility.yul\":483:488   */\n      dup2\n        /* \"#utility.yul\":480:515   */\n      eq\n        /* \"#utility.yul\":470:533   */\n      tag_242\n      jumpi\n        /* \"#utility.yul\":529:530   */\n      0x00\n        /* \"#utility.yul\":526:527   */\n      0x00\n        /* \"#utility.yul\":519:531   */\n      revert\n        /* \"#utility.yul\":470:533   */\n    tag_242:\n        /* \"#utility.yul\":417:539   */\n      pop\n      jump\t// out\n        /* \"#utility.yul\":545:684   */\n    tag_159:\n        /* \"#utility.yul\":591:596   */\n      0x00\n        /* \"#utility.yul\":629:635   */\n      dup2\n        /* \"#utility.yul\":616:636   */\n      calldataload\n        /* \"#utility.yul\":607:636   */\n      swap1\n      pop\n        /* \"#utility.yul\":645:678   */\n      tag_244\n        /* \"#utility.yul\":672:677   */\n      dup2\n        /* \"#utility.yul\":645:678   */\n      tag_158\n      jump\t// in\n    tag_244:\n        /* \"#utility.yul\":545:684   */\n      swap3\n      swap2\n      pop\n      pop\n      jump\t// out\n        /* \"#utility.yul\":690:1019   */\n    tag_10:\n        /* \"#utility.yul\":749:755   */\n      0x00\n        /* \"#utility.yul\":798:800   */\n      0x20\n        /* \"#utility.yul\":786:795   */\n      dup3\n        /* \"#utility.yul\":777:784   */\n      dup5\n        /* \"#utility.yul\":773:796   */\n      sub\n        /* \"#utility.yul\":769:801   */\n      slt\n        /* \"#utility.yul\":766:885   */\n      iszero\n      tag_246\n      jumpi\n        /* \"#utility.yul\":804:883   */\n      tag_247\n      tag_155\n      jump\t// in\n    tag_247:\n        /* \"#utility.yul\":766:885   */\n    tag_246:\n        /* \"#utility.yul\":924:925   */\n      0x00\n        /* \"#utility.yul\":949:1002   */\n      tag_248\n        /* \"#utility.yul\":994:1001   */\n      dup5\n        /* \"#utility.yul\":985:991   */\n      dup3\n        /* \"#utility.yul\":974:983   */\n      dup6\n        /* \"#utility.yul\":970:992   */\n      add\n        /* \"#utility.yul\":949:1002   */\n      tag_159\n      jump\t// in\n    tag_248:\n        /* \"#utility.yul\":939:1002   */\n      swap2\n      pop\n        /* \"#utility.yul\":895:1012   */\n      pop\n        /* \"#utility.yul\":690:1019   */\n      swap3\n      swap2\n      pop\n      pop\n      jump\t// out\n        /* \"#utility.yul\":1025:1124   */\n    tag_160:\n        /* \"#utility.yul\":1077:1083   */\n      0x00\n        /* \"#utility.yul\":1111:1116   */\n      dup2\n        /* \"#utility.yul\":1105:1117   */\n      mload\n        /* \"#utility.yul\":1095:1117   */\n      swap1\n      pop\n        /* \"#utility.yul\":1025:1124   */\n      swap2\n      swap1\n      pop\n      jump\t// out\n        /* \"#utility.yul\":1130:1299   */\n    tag_161:\n        /* \"#utility.yul\":1214:1225   */\n      0x00\n        /* \"#utility.yul\":1248:1254   */\n      dup3\n        /* \"#utility.yul\":1243:1246   */\n      dup3\n        /* \"#utility.yul\":1236:1255   */\n      mstore\n        /* \"#utility.yul\":1288:1292   */\n      0x20\n        /* \"#utility.yul\":1283:1286   */\n      dup3\n        /* \"#utility.yul\":1279:1293   */\n      add\n        /* \"#utility.yul\":1264:1293   */\n      swap1\n      pop\n        /* \"#utility.yul\":1130:1299   */\n      swap3\n      swap2\n      pop\n      pop\n      jump\t// out\n        /* \"#utility.yul\":1305:1444   */\n    tag_162:\n        /* \"#utility.yul\":1394:1400   */\n      dup3\n        /* \"#utility.yul\":1389:1392   */\n      dup2\n        /* \"#utility.yul\":1384:1387   */\n      dup4\n        /* \"#utility.yul\":1378:1401   */\n      mcopy\n        /* \"#utility.yul\":1435:1436   */\n      0x00\n        /* \"#utility.yul\":1426:1432   */\n      dup4\n        /* \"#utility.yul\":1421:1424   */\n      dup4\n        /* \"#utility.yul\":1417:1433   */\n      add\n        /* \"#utility.yul\":1410:1437   */\n      mstore\n        /* \"#utility.yul\":1305:1444   */\n      pop\n      pop\n      pop\n      jump\t// out\n        /* \"#utility.yul\":1450:1552   */\n    tag_163:\n        /* \"#utility.yul\":1491:1497   */\n      0x00\n        /* \"#utility.yul\":1542:1544   */\n      0x1f\n        /* \"#utility.yul\":1538:1545   */\n      not\n        /* \"#utility.yul\":1533:1535   */\n      0x1f\n        /* \"#utility.yul\":1526:1531   */\n      dup4\n        /* \"#utility.yul\":1522:1536   */\n      add\n        /* \"#utility.yul\":1518:1546   */\n      and\n        /* \"#utility.yul\":1508:1546   */\n      swap1\n      pop\n        /* \"#utility.yul\":1450:1552   */\n      swap2\n      swap1\n      pop\n      jump\t// out\n        /* \"#utility.yul\":1558:1935   */\n    tag_164:\n        /* \"#utility.yul\":1646:1649   */\n      0x00\n        /* \"#utility.yul\":1674:1713   */\n      tag_254\n        /* \"#utility.yul\":1707:1712   */\n      dup3\n        /* \"#utility.yul\":1674:1713   */\n      tag_160\n      jump\t// in\n    tag_254:\n        /* \"#utility.yul\":1729:1800   */\n      tag_255\n        /* \"#utility.yul\":1793:1799   */\n      dup2\n        /* \"#utility.yul\":1788:1791   */\n      dup6\n        /* \"#utility.yul\":1729:1800   */\n      tag_161\n      jump\t// in\n    tag_255:\n        /* \"#utility.yul\":1722:1800   */\n      swap4\n      pop\n        /* \"#utility.yul\":1809:1874   */\n      tag_256\n        /* \"#utility.yul\":1867:1873   */\n      dup2\n        /* \"#utility.yul\":1862:1865   */\n      dup6\n        /* \"#utility.yul\":1855:1859   */\n      0x20\n        /* \"#utility.yul\":1848:1853   */\n      dup7\n        /* \"#utility.yul\":1844:1860   */\n      add\n        /* \"#utility.yul\":1809:1874   */\n      tag_162\n      jump\t// in\n    tag_256:\n        /* \"#utility.yul\":1899:1928   */\n      tag_257\n        /* \"#utility.yul\":1921:1927   */\n      dup2\n        /* \"#utility.yul\":1899:1928   */\n      tag_163\n      jump\t// in\n    tag_257:\n        /* \"#utility.yul\":1894:1897   */\n      dup5\n        /* \"#utility.yul\":1890:1929   */\n      add\n        /* \"#utility.yul\":1883:1929   */\n      swap2\n      pop\n        /* \"#utility.yul\":1650:1935   */\n      pop\n        /* \"#utility.yul\":1558:1935   */\n      swap3\n      swap2\n      pop\n      pop\n      jump\t// out\n        /* \"#utility.yul\":1941:2030   */\n    tag_165:\n        /* \"#utility.yul\":1977:1984   */\n      0x00\n        /* \"#utility.yul\":2017:2023   */\n      0xffff\n        /* \"#utility.yul\":2010:2015   */\n      dup3\n        /* \"#utility.yul\":2006:2024   */\n      and\n        /* \"#utility.yul\":1995:2024   */\n      swap1\n      pop\n        /* \"#utility.yul\":1941:2030   */\n      swap2\n      swap1\n      pop\n      jump\t// out\n        /* \"#utility.yul\":2036:2151   */\n    tag_166:\n        /* \"#utility.yul\":2121:2144   */\n      tag_260\n        /* \"#utility.yul\":2138:2143   */\n      dup2\n        /* \"#utility.yul\":2121:2144   */\n      tag_165\n      jump\t// in\n    tag_260:\n        /* \"#utility.yul\":2116:2119   */\n      dup3\n        /* \"#utility.yul\":2109:2145   */\n      mstore\n        /* \"#utility.yul\":2036:2151   */\n      pop\n      pop\n      jump\t// out\n        /* \"#utility.yul\":2157:2337   */\n    tag_60:\n        /* \"#utility.yul\":2205:2282   */\n      0x4e487b7100000000000000000000000000000000000000000000000000000000\n        /* \"#utility.yul\":2202:2203   */\n      0x00\n        /* \"#utility.yul\":2195:2283   */\n      mstore\n        /* \"#utility.yul\":2302:2306   */\n      0x21\n        /* \"#utility.yul\":2299:2300   */\n      0x04\n        /* \"#utility.yul\":2292:2307   */\n      mstore\n        /* \"#utility.yul\":2326:2330   */\n      0x24\n        /* \"#utility.yul\":2323:2324   */\n      0x00\n        /* \"#utility.yul\":2316:2331   */\n      revert\n        /* \"#utility.yul\":2343:2461   */\n    tag_167:\n        /* \"#utility.yul\":2429:2430   */\n      0x04\n        /* \"#utility.yul\":2422:2427   */\n      dup2\n        /* \"#utility.yul\":2419:2431   */\n      lt\n        /* \"#utility.yul\":2409:2455   */\n      tag_263\n      jumpi\n        /* \"#utility.yul\":2435:2453   */\n      tag_264\n      tag_60\n      jump\t// in\n    tag_264:\n        /* \"#utility.yul\":2409:2455   */\n    tag_263:\n        /* \"#utility.yul\":2343:2461   */\n      pop\n      jump\t// out\n        /* \"#utility.yul\":2467:2604   */\n    tag_168:\n        /* \"#utility.yul\":2517:2524   */\n      0x00\n        /* \"#utility.yul\":2546:2551   */\n      dup2\n        /* \"#utility.yul\":2535:2551   */\n      swap1\n      pop\n        /* \"#utility.yul\":2552:2598   */\n      tag_266\n        /* \"#utility.yul\":2592:2597   */\n      dup3\n        /* \"#utility.yul\":2552:2598   */\n      tag_167\n      jump\t// in\n    tag_266:\n        /* \"#utility.yul\":2467:2604   */\n      swap2\n      swap1\n      pop\n      jump\t// out\n        /* \"#utility.yul\":2610:2747   */\n    tag_169:\n        /* \"#utility.yul\":2671:2680   */\n      0x00\n        /* \"#utility.yul\":2704:2741   */\n      tag_268\n        /* \"#utility.yul\":2735:2740   */\n      dup3\n        /* \"#utility.yul\":2704:2741   */\n      tag_168\n      jump\t// in\n    tag_268:\n        /* \"#utility.yul\":2691:2741   */\n      swap1\n      pop\n        /* \"#utility.yul\":2610:2747   */\n      swap2\n      swap1\n      pop\n      jump\t// out\n        /* \"#utility.yul\":2753:2906   */\n    tag_170:\n        /* \"#utility.yul\":2851:2899   */\n      tag_270\n        /* \"#utility.yul\":2893:2898   */\n      dup2\n        /* \"#utility.yul\":2851:2899   */\n      tag_169\n      jump\t// in\n    tag_270:\n        /* \"#utility.yul\":2846:2849   */\n      dup3\n        /* \"#utility.yul\":2839:2900   */\n      mstore\n        /* \"#utility.yul\":2753:2906   */\n      pop\n      pop\n      jump\t// out\n        /* \"#utility.yul\":2912:3772   */\n    tag_13:\n        /* \"#utility.yul\":3164:3168   */\n      0x00\n        /* \"#utility.yul\":3202:3205   */\n      0xa0\n        /* \"#utility.yul\":3191:3200   */\n      dup3\n        /* \"#utility.yul\":3187:3206   */\n      add\n        /* \"#utility.yul\":3179:3206   */\n      swap1\n      pop\n        /* \"#utility.yul\":3252:3261   */\n      dup2\n        /* \"#utility.yul\":3246:3250   */\n      dup2\n        /* \"#utility.yul\":3242:3262   */\n      sub\n        /* \"#utility.yul\":3238:3239   */\n      0x00\n        /* \"#utility.yul\":3227:3236   */\n      dup4\n        /* \"#utility.yul\":3223:3240   */\n      add\n        /* \"#utility.yul\":3216:3263   */\n      mstore\n        /* \"#utility.yul\":3280:3358   */\n      tag_272\n        /* \"#utility.yul\":3353:3357   */\n      dup2\n        /* \"#utility.yul\":3344:3350   */\n      dup9\n        /* \"#utility.yul\":3280:3358   */\n      tag_164\n      jump\t// in\n    tag_272:\n        /* \"#utility.yul\":3272:3358   */\n      swap1\n      pop\n        /* \"#utility.yul\":3405:3414   */\n      dup2\n        /* \"#utility.yul\":3399:3403   */\n      dup2\n        /* \"#utility.yul\":3395:3415   */\n      sub\n        /* \"#utility.yul\":3390:3392   */\n      0x20\n        /* \"#utility.yul\":3379:3388   */\n      dup4\n        /* \"#utility.yul\":3375:3393   */\n      add\n        /* \"#utility.yul\":3368:3416   */\n      mstore\n        /* \"#utility.yul\":3433:3511   */\n      tag_273\n        /* \"#utility.yul\":3506:3510   */\n      dup2\n        /* \"#utility.yul\":3497:3503   */\n      dup8\n        /* \"#utility.yul\":3433:3511   */\n      tag_164\n      jump\t// in\n    tag_273:\n        /* \"#utility.yul\":3425:3511   */\n      swap1\n      pop\n        /* \"#utility.yul\":3521:3591   */\n      tag_274\n        /* \"#utility.yul\":3587:3589   */\n      0x40\n        /* \"#utility.yul\":3576:3585   */\n      dup4\n        /* \"#utility.yul\":3572:3590   */\n      add\n        /* \"#utility.yul\":3563:3569   */\n      dup7\n        /* \"#utility.yul\":3521:3591   */\n      tag_166\n      jump\t// in\n    tag_274:\n        /* \"#utility.yul\":3601:3671   */\n      tag_275\n        /* \"#utility.yul\":3667:3669   */\n      0x60\n        /* \"#utility.yul\":3656:3665   */\n      dup4\n        /* \"#utility.yul\":3652:3670   */\n      add\n        /* \"#utility.yul\":3643:3649   */\n      dup6\n        /* \"#utility.yul\":3601:3671   */\n      tag_166\n      jump\t// in\n    tag_275:\n        /* \"#utility.yul\":3681:3765   */\n      tag_276\n        /* \"#utility.yul\":3760:3763   */\n      0x80\n        /* \"#utility.yul\":3749:3758   */\n      dup4\n        /* \"#utility.yul\":3745:3764   */\n      add\n        /* \"#utility.yul\":3736:3742   */\n      dup5\n        /* \"#utility.yul\":3681:3765   */\n      tag_170\n      jump\t// in\n    tag_276:\n        /* \"#utility.yul\":2912:3772   */\n      swap7\n      swap6\n      pop\n      pop\n      pop\n      pop\n      pop\n      pop\n      jump\t// out\n        /* \"#utility.yul\":3778:3864   */\n    tag_171:\n        /* \"#utility.yul\":3813:3820   */\n      0x00\n        /* \"#utility.yul\":3853:3857   */\n      0xff\n        /* \"#utility.yul\":3846:3851   */\n      dup3\n        /* \"#utility.yul\":3842:3858   */\n      and\n        /* \"#utility.yul\":3831:3858   */\n      swap1\n      pop\n        /* \"#utility.yul\":3778:3864   */\n      swap2\n      swap1\n      pop\n      jump\t// out\n        /* \"#utility.yul\":3870:3988   */\n    tag_172:\n        /* \"#utility.yul\":3941:3963   */\n      tag_279\n        /* \"#utility.yul\":3957:3962   */\n      dup2\n        /* \"#utility.yul\":3941:3963   */\n      tag_171\n      jump\t// in\n    tag_279:\n        /* \"#utility.yul\":3934:3939   */\n      dup2\n        /* \"#utility.yul\":3931:3964   */\n      eq\n        /* \"#utility.yul\":3921:3982   */\n      tag_280\n      jumpi\n        /* \"#utility.yul\":3978:3979   */\n      0x00\n        /* \"#utility.yul\":3975:3976   */\n      0x00\n        /* \"#utility.yul\":3968:3980   */\n      revert\n        /* \"#utility.yul\":3921:3982   */\n    tag_280:\n        /* \"#utility.yul\":3870:3988   */\n      pop\n      jump\t// out\n        /* \"#utility.yul\":3994:4129   */\n    tag_173:\n        /* \"#utility.yul\":4038:4043   */\n      0x00\n        /* \"#utility.yul\":4076:4082   */\n      dup2\n        /* \"#utility.yul\":4063:4083   */\n      calldataload\n        /* \"#utility.yul\":4054:4083   */\n      swap1\n      pop\n        /* \"#utility.yul\":4092:4123   */\n      tag_282\n        /* \"#utility.yul\":4117:4122   */\n      dup2\n        /* \"#utility.yul\":4092:4123   */\n      tag_172\n      jump\t// in\n    tag_282:\n        /* \"#utility.yul\":3994:4129   */\n      swap3\n      swap2\n      pop\n      pop\n      jump\t// out\n        /* \"#utility.yul\":4135:4460   */\n    tag_16:\n        /* \"#utility.yul\":4192:4198   */\n      0x00\n        /* \"#utility.yul\":4241:4243   */\n      0x20\n        /* \"#utility.yul\":4229:4238   */\n      dup3\n        /* \"#utility.yul\":4220:4227   */\n      dup5\n        /* \"#utility.yul\":4216:4239   */\n      sub\n        /* \"#utility.yul\":4212:4244   */\n      slt\n        /* \"#utility.yul\":4209:4328   */\n      iszero\n      tag_284\n      jumpi\n        /* \"#utility.yul\":4247:4326   */\n      tag_285\n      tag_155\n      jump\t// in\n    tag_285:\n        /* \"#utility.yul\":4209:4328   */\n    tag_284:\n        /* \"#utility.yul\":4367:4368   */\n      0x00\n        /* \"#utility.yul\":4392:4443   */\n      tag_286\n        /* \"#utility.yul\":4435:4442   */\n      dup5\n        /* \"#utility.yul\":4426:4432   */\n      dup3\n        /* \"#utility.yul\":4415:4424   */\n      dup6\n        /* \"#utility.yul\":4411:4433   */\n      add\n        /* \"#utility.yul\":4392:4443   */\n      tag_173\n      jump\t// in\n    tag_286:\n        /* \"#utility.yul\":4382:4443   */\n      swap2\n      pop\n        /* \"#utility.yul\":4338:4453   */\n      pop\n        /* \"#utility.yul\":4135:4460   */\n      swap3\n      swap2\n      pop\n      pop\n      jump\t// out\n        /* \"#utility.yul\":4466:4583   */\n    tag_174:\n        /* \"#utility.yul\":4575:4576   */\n      0x00\n        /* \"#utility.yul\":4572:4573   */\n      0x00\n        /* \"#utility.yul\":4565:4577   */\n      revert\n        /* \"#utility.yul\":4589:4706   */\n    tag_175:\n        /* \"#utility.yul\":4698:4699   */\n      0x00\n        /* \"#utility.yul\":4695:4696   */\n      0x00\n        /* \"#utility.yul\":4688:4700   */\n      revert\n        /* \"#utility.yul\":4712:4892   */\n    tag_176:\n        /* \"#utility.yul\":4760:4837   */\n      0x4e487b7100000000000000000000000000000000000000000000000000000000\n        /* \"#utility.yul\":4757:4758   */\n      0x00\n        /* \"#utility.yul\":4750:4838   */\n      mstore\n        /* \"#utility.yul\":4857:4861   */\n      0x41\n        /* \"#utility.yul\":4854:4855   */\n      0x04\n        /* \"#utility.yul\":4847:4862   */\n      mstore\n        /* \"#utility.yul\":4881:4885   */\n      0x24\n        /* \"#utility.yul\":4878:4879   */\n      0x00\n        /* \"#utility.yul\":4871:4886   */\n      revert\n        /* \"#utility.yul\":4898:5179   */\n    tag_177:\n        /* \"#utility.yul\":4981:5008   */\n      tag_291\n        /* \"#utility.yul\":5003:5007   */\n      dup3\n        /* \"#utility.yul\":4981:5008   */\n      tag_163\n      jump\t// in\n    tag_291:\n        /* \"#utility.yul\":4973:4979   */\n      dup2\n        /* \"#utility.yul\":4969:5009   */\n      add\n        /* \"#utility.yul\":5111:5117   */\n      dup2\n        /* \"#utility.yul\":5099:5109   */\n      dup2\n        /* \"#utility.yul\":5096:5118   */\n      lt\n        /* \"#utility.yul\":5075:5093   */\n      0xffffffffffffffff\n        /* \"#utility.yul\":5063:5073   */\n      dup3\n        /* \"#utility.yul\":5060:5094   */\n      gt\n        /* \"#utility.yul\":5057:5119   */\n      or\n        /* \"#utility.yul\":5054:5142   */\n      iszero\n      tag_292\n      jumpi\n        /* \"#utility.yul\":5122:5140   */\n      tag_293\n      tag_176\n      jump\t// in\n    tag_293:\n        /* \"#utility.yul\":5054:5142   */\n    tag_292:\n        /* \"#utility.yul\":5162:5172   */\n      dup1\n        /* \"#utility.yul\":5158:5160   */\n      0x40\n        /* \"#utility.yul\":5151:5173   */\n      mstore\n        /* \"#utility.yul\":4941:5179   */\n      pop\n        /* \"#utility.yul\":4898:5179   */\n      pop\n      pop\n      jump\t// out\n        /* \"#utility.yul\":5185:5314   */\n    tag_178:\n        /* \"#utility.yul\":5219:5225   */\n      0x00\n        /* \"#utility.yul\":5246:5266   */\n      tag_295\n      tag_154\n      jump\t// in\n    tag_295:\n        /* \"#utility.yul\":5236:5266   */\n      swap1\n      pop\n        /* \"#utility.yul\":5275:5308   */\n      tag_296\n        /* \"#utility.yul\":5303:5307   */\n      dup3\n        /* \"#utility.yul\":5295:5301   */\n      dup3\n        /* \"#utility.yul\":5275:5308   */\n      tag_177\n      jump\t// in\n    tag_296:\n        /* \"#utility.yul\":5185:5314   */\n      swap2\n      swap1\n      pop\n      jump\t// out\n        /* \"#utility.yul\":5320:5628   */\n    tag_179:\n        /* \"#utility.yul\":5382:5386   */\n      0x00\n        /* \"#utility.yul\":5472:5490   */\n      0xffffffffffffffff\n        /* \"#utility.yul\":5464:5470   */\n      dup3\n        /* \"#utility.yul\":5461:5491   */\n      gt\n        /* \"#utility.yul\":5458:5514   */\n      iszero\n      tag_298\n      jumpi\n        /* \"#utility.yul\":5494:5512   */\n      tag_299\n      tag_176\n      jump\t// in\n    tag_299:\n        /* \"#utility.yul\":5458:5514   */\n    tag_298:\n        /* \"#utility.yul\":5532:5561   */\n      tag_300\n        /* \"#utility.yul\":5554:5560   */\n      dup3\n        /* \"#utility.yul\":5532:5561   */\n      tag_163\n      jump\t// in\n    tag_300:\n        /* \"#utility.yul\":5524:5561   */\n      swap1\n      pop\n        /* \"#utility.yul\":5616:5620   */\n      0x20\n        /* \"#utility.yul\":5610:5614   */\n      dup2\n        /* \"#utility.yul\":5606:5621   */\n      add\n        /* \"#utility.yul\":5598:5621   */\n      swap1\n      pop\n        /* \"#utility.yul\":5320:5628   */\n      swap2\n      swap1\n      pop\n      jump\t// out\n        /* \"#utility.yul\":5634:5782   */\n    tag_180:\n        /* \"#utility.yul\":5732:5738   */\n      dup3\n        /* \"#utility.yul\":5727:5730   */\n      dup2\n        /* \"#utility.yul\":5722:5725   */\n      dup4\n        /* \"#utility.yul\":5709:5739   */\n      calldatacopy\n        /* \"#utility.yul\":5773:5774   */\n      0x00\n        /* \"#utility.yul\":5764:5770   */\n      dup4\n        /* \"#utility.yul\":5759:5762   */\n      dup4\n        /* \"#utility.yul\":5755:5771   */\n      add\n        /* \"#utility.yul\":5748:5775   */\n      mstore\n        /* \"#utility.yul\":5634:5782   */\n      pop\n      pop\n      pop\n      jump\t// out\n        /* \"#utility.yul\":5788:6213   */\n    tag_181:\n        /* \"#utility.yul\":5866:5871   */\n      0x00\n        /* \"#utility.yul\":5891:5957   */\n      tag_303\n        /* \"#utility.yul\":5907:5956   */\n      tag_304\n        /* \"#utility.yul\":5949:5955   */\n      dup5\n        /* \"#utility.yul\":5907:5956   */\n      tag_179\n      jump\t// in\n    tag_304:\n        /* \"#utility.yul\":5891:5957   */\n      tag_178\n      jump\t// in\n    tag_303:\n        /* \"#utility.yul\":5882:5957   */\n      swap1\n      pop\n        /* \"#utility.yul\":5980:5986   */\n      dup3\n        /* \"#utility.yul\":5973:5978   */\n      dup2\n        /* \"#utility.yul\":5966:5987   */\n      mstore\n        /* \"#utility.yul\":6018:6022   */\n      0x20\n        /* \"#utility.yul\":6011:6016   */\n      dup2\n        /* \"#utility.yul\":6007:6023   */\n      add\n        /* \"#utility.yul\":6056:6059   */\n      dup5\n        /* \"#utility.yul\":6047:6053   */\n      dup5\n        /* \"#utility.yul\":6042:6045   */\n      dup5\n        /* \"#utility.yul\":6038:6054   */\n      add\n        /* \"#utility.yul\":6035:6060   */\n      gt\n        /* \"#utility.yul\":6032:6144   */\n      iszero\n      tag_305\n      jumpi\n        /* \"#utility.yul\":6063:6142   */\n      tag_306\n      tag_175\n      jump\t// in\n    tag_306:\n        /* \"#utility.yul\":6032:6144   */\n    tag_305:\n        /* \"#utility.yul\":6153:6207   */\n      tag_307\n        /* \"#utility.yul\":6200:6206   */\n      dup5\n        /* \"#utility.yul\":6195:6198   */\n      dup3\n        /* \"#utility.yul\":6190:6193   */\n      dup6\n        /* \"#utility.yul\":6153:6207   */\n      tag_180\n      jump\t// in\n    tag_307:\n        /* \"#utility.yul\":5872:6213   */\n      pop\n        /* \"#utility.yul\":5788:6213   */\n      swap4\n      swap3\n      pop\n      pop\n      pop\n      jump\t// out\n        /* \"#utility.yul\":6233:6573   */\n    tag_182:\n        /* \"#utility.yul\":6289:6294   */\n      0x00\n        /* \"#utility.yul\":6338:6341   */\n      dup3\n        /* \"#utility.yul\":6331:6335   */\n      0x1f\n        /* \"#utility.yul\":6323:6329   */\n      dup4\n        /* \"#utility.yul\":6319:6336   */\n      add\n        /* \"#utility.yul\":6315:6342   */\n      slt\n        /* \"#utility.yul\":6305:6427   */\n      tag_309\n      jumpi\n        /* \"#utility.yul\":6346:6425   */\n      tag_310\n      tag_174\n      jump\t// in\n    tag_310:\n        /* \"#utility.yul\":6305:6427   */\n    tag_309:\n        /* \"#utility.yul\":6463:6469   */\n      dup2\n        /* \"#utility.yul\":6450:6470   */\n      calldataload\n        /* \"#utility.yul\":6488:6567   */\n      tag_311\n        /* \"#utility.yul\":6563:6566   */\n      dup5\n        /* \"#utility.yul\":6555:6561   */\n      dup3\n        /* \"#utility.yul\":6548:6552   */\n      0x20\n        /* \"#utility.yul\":6540:6546   */\n      dup7\n        /* \"#utility.yul\":6536:6553   */\n      add\n        /* \"#utility.yul\":6488:6567   */\n      tag_181\n      jump\t// in\n    tag_311:\n        /* \"#utility.yul\":6479:6567   */\n      swap2\n      pop\n        /* \"#utility.yul\":6295:6573   */\n      pop\n        /* \"#utility.yul\":6233:6573   */\n      swap3\n      swap2\n      pop\n      pop\n      jump\t// out\n        /* \"#utility.yul\":6579:6699   */\n    tag_183:\n        /* \"#utility.yul\":6651:6674   */\n      tag_313\n        /* \"#utility.yul\":6668:6673   */\n      dup2\n        /* \"#utility.yul\":6651:6674   */\n      tag_165\n      jump\t// in\n    tag_313:\n        /* \"#utility.yul\":6644:6649   */\n      dup2\n        /* \"#utility.yul\":6641:6675   */\n      eq\n        /* \"#utility.yul\":6631:6693   */\n      tag_314\n      jumpi\n        /* \"#utility.yul\":6689:6690   */\n      0x00\n        /* \"#utility.yul\":6686:6687   */\n      0x00\n        /* \"#utility.yul\":6679:6691   */\n      revert\n        /* \"#utility.yul\":6631:6693   */\n    tag_314:\n        /* \"#utility.yul\":6579:6699   */\n      pop\n      jump\t// out\n        /* \"#utility.yul\":6705:6842   */\n    tag_184:\n        /* \"#utility.yul\":6750:6755   */\n      0x00\n        /* \"#utility.yul\":6788:6794   */\n      dup2\n        /* \"#utility.yul\":6775:6795   */\n      calldataload\n        /* \"#utility.yul\":6766:6795   */\n      swap1\n      pop\n        /* \"#utility.yul\":6804:6836   */\n      tag_316\n        /* \"#utility.yul\":6830:6835   */\n      dup2\n        /* \"#utility.yul\":6804:6836   */\n      tag_183\n      jump\t// in\n    tag_316:\n        /* \"#utility.yul\":6705:6842   */\n      swap3\n      swap2\n      pop\n      pop\n      jump\t// out\n        /* \"#utility.yul\":6848:7825   */\n    tag_20:\n        /* \"#utility.yul\":6944:6950   */\n      0x00\n        /* \"#utility.yul\":6952:6958   */\n      0x00\n        /* \"#utility.yul\":6960:6966   */\n      0x00\n        /* \"#utility.yul\":7009:7011   */\n      0x60\n        /* \"#utility.yul\":6997:7006   */\n      dup5\n        /* \"#utility.yul\":6988:6995   */\n      dup7\n        /* \"#utility.yul\":6984:7007   */\n      sub\n        /* \"#utility.yul\":6980:7012   */\n      slt\n        /* \"#utility.yul\":6977:7096   */\n      iszero\n      tag_318\n      jumpi\n        /* \"#utility.yul\":7015:7094   */\n      tag_319\n      tag_155\n      jump\t// in\n    tag_319:\n        /* \"#utility.yul\":6977:7096   */\n    tag_318:\n        /* \"#utility.yul\":7163:7164   */\n      0x00\n        /* \"#utility.yul\":7152:7161   */\n      dup5\n        /* \"#utility.yul\":7148:7165   */\n      add\n        /* \"#utility.yul\":7135:7166   */\n      calldataload\n        /* \"#utility.yul\":7193:7211   */\n      0xffffffffffffffff\n        /* \"#utility.yul\":7185:7191   */\n      dup2\n        /* \"#utility.yul\":7182:7212   */\n      gt\n        /* \"#utility.yul\":7179:7296   */\n      iszero\n      tag_320\n      jumpi\n        /* \"#utility.yul\":7215:7294   */\n      tag_321\n      tag_156\n      jump\t// in\n    tag_321:\n        /* \"#utility.yul\":7179:7296   */\n    tag_320:\n        /* \"#utility.yul\":7320:7383   */\n      tag_322\n        /* \"#utility.yul\":7375:7382   */\n      dup7\n        /* \"#utility.yul\":7366:7372   */\n      dup3\n        /* \"#utility.yul\":7355:7364   */\n      dup8\n        /* \"#utility.yul\":7351:7373   */\n      add\n        /* \"#utility.yul\":7320:7383   */\n      tag_182\n      jump\t// in\n    tag_322:\n        /* \"#utility.yul\":7310:7383   */\n      swap4\n      pop\n        /* \"#utility.yul\":7106:7393   */\n      pop\n        /* \"#utility.yul\":7460:7462   */\n      0x20\n        /* \"#utility.yul\":7449:7458   */\n      dup5\n        /* \"#utility.yul\":7445:7463   */\n      add\n        /* \"#utility.yul\":7432:7464   */\n      calldataload\n        /* \"#utility.yul\":7491:7509   */\n      0xffffffffffffffff\n        /* \"#utility.yul\":7483:7489   */\n      dup2\n        /* \"#utility.yul\":7480:7510   */\n      gt\n        /* \"#utility.yul\":7477:7594   */\n      iszero\n      tag_323\n      jumpi\n        /* \"#utility.yul\":7513:7592   */\n      tag_324\n      tag_156\n      jump\t// in\n    tag_324:\n        /* \"#utility.yul\":7477:7594   */\n    tag_323:\n        /* \"#utility.yul\":7618:7681   */\n      tag_325\n        /* \"#utility.yul\":7673:7680   */\n      dup7\n        /* \"#utility.yul\":7664:7670   */\n      dup3\n        /* \"#utility.yul\":7653:7662   */\n      dup8\n        /* \"#utility.yul\":7649:7671   */\n      add\n        /* \"#utility.yul\":7618:7681   */\n      tag_182\n      jump\t// in\n    tag_325:\n        /* \"#utility.yul\":7608:7681   */\n      swap3\n      pop\n        /* \"#utility.yul\":7403:7691   */\n      pop\n        /* \"#utility.yul\":7730:7732   */\n      0x40\n        /* \"#utility.yul\":7756:7808   */\n      tag_326\n        /* \"#utility.yul\":7800:7807   */\n      dup7\n        /* \"#utility.yul\":7791:7797   */\n      dup3\n        /* \"#utility.yul\":7780:7789   */\n      dup8\n        /* \"#utility.yul\":7776:7798   */\n      add\n        /* \"#utility.yul\":7756:7808   */\n      tag_184\n      jump\t// in\n    tag_326:\n        /* \"#utility.yul\":7746:7808   */\n      swap2\n      pop\n        /* \"#utility.yul\":7701:7818   */\n      pop\n        /* \"#utility.yul\":6848:7825   */\n      swap3\n      pop\n      swap3\n      pop\n      swap3\n      jump\t// out\n        /* \"#utility.yul\":7831:7969   */\n    tag_185:\n        /* \"#utility.yul\":7922:7928   */\n      0x00\n        /* \"#utility.yul\":7956:7961   */\n      dup2\n        /* \"#utility.yul\":7950:7962   */\n      mload\n        /* \"#utility.yul\":7940:7962   */\n      swap1\n      pop\n        /* \"#utility.yul\":7831:7969   */\n      swap2\n      swap1\n      pop\n      jump\t// out\n        /* \"#utility.yul\":7975:8183   */\n    tag_186:\n        /* \"#utility.yul\":8098:8109   */\n      0x00\n        /* \"#utility.yul\":8132:8138   */\n      dup3\n        /* \"#utility.yul\":8127:8130   */\n      dup3\n        /* \"#utility.yul\":8120:8139   */\n      mstore\n        /* \"#utility.yul\":8172:8176   */\n      0x20\n        /* \"#utility.yul\":8167:8170   */\n      dup3\n        /* \"#utility.yul\":8163:8177   */\n      add\n        /* \"#utility.yul\":8148:8177   */\n      swap1\n      pop\n        /* \"#utility.yul\":7975:8183   */\n      swap3\n      swap2\n      pop\n      pop\n      jump\t// out\n        /* \"#utility.yul\":8189:8345   */\n    tag_187:\n        /* \"#utility.yul\":8280:8284   */\n      0x00\n        /* \"#utility.yul\":8303:8306   */\n      dup2\n        /* \"#utility.yul\":8295:8306   */\n      swap1\n      pop\n        /* \"#utility.yul\":8333:8337   */\n      0x20\n        /* \"#utility.yul\":8328:8331   */\n      dup3\n        /* \"#utility.yul\":8324:8338   */\n      add\n        /* \"#utility.yul\":8316:8338   */\n      swap1\n      pop\n        /* \"#utility.yul\":8189:8345   */\n      swap2\n      swap1\n      pop\n      jump\t// out\n        /* \"#utility.yul\":8351:8510   */\n    tag_188:\n        /* \"#utility.yul\":8425:8436   */\n      0x00\n        /* \"#utility.yul\":8459:8465   */\n      dup3\n        /* \"#utility.yul\":8454:8457   */\n      dup3\n        /* \"#utility.yul\":8447:8466   */\n      mstore\n        /* \"#utility.yul\":8499:8503   */\n      0x20\n        /* \"#utility.yul\":8494:8497   */\n      dup3\n        /* \"#utility.yul\":8490:8504   */\n      add\n        /* \"#utility.yul\":8475:8504   */\n      swap1\n      pop\n        /* \"#utility.yul\":8351:8510   */\n      swap3\n      swap2\n      pop\n      pop\n      jump\t// out\n        /* \"#utility.yul\":8516:8873   */\n    tag_189:\n        /* \"#utility.yul\":8594:8597   */\n      0x00\n        /* \"#utility.yul\":8622:8661   */\n      tag_332\n        /* \"#utility.yul\":8655:8660   */\n      dup3\n        /* \"#utility.yul\":8622:8661   */\n      tag_160\n      jump\t// in\n    tag_332:\n        /* \"#utility.yul\":8677:8738   */\n      tag_333\n        /* \"#utility.yul\":8731:8737   */\n      dup2\n        /* \"#utility.yul\":8726:8729   */\n      dup6\n        /* \"#utility.yul\":8677:8738   */\n      tag_188\n      jump\t// in\n    tag_333:\n        /* \"#utility.yul\":8670:8738   */\n      swap4\n      pop\n        /* \"#utility.yul\":8747:8812   */\n      tag_334\n        /* \"#utility.yul\":8805:8811   */\n      dup2\n        /* \"#utility.yul\":8800:8803   */\n      dup6\n        /* \"#utility.yul\":8793:8797   */\n      0x20\n        /* \"#utility.yul\":8786:8791   */\n      dup7\n        /* \"#utility.yul\":8782:8798   */\n      add\n        /* \"#utility.yul\":8747:8812   */\n      tag_162\n      jump\t// in\n    tag_334:\n        /* \"#utility.yul\":8837:8866   */\n      tag_335\n        /* \"#utility.yul\":8859:8865   */\n      dup2\n        /* \"#utility.yul\":8837:8866   */\n      tag_163\n      jump\t// in\n    tag_335:\n        /* \"#utility.yul\":8832:8835   */\n      dup5\n        /* \"#utility.yul\":8828:8867   */\n      add\n        /* \"#utility.yul\":8821:8867   */\n      swap2\n      pop\n        /* \"#utility.yul\":8598:8873   */\n      pop\n        /* \"#utility.yul\":8516:8873   */\n      swap3\n      swap2\n      pop\n      pop\n      jump\t// out\n        /* \"#utility.yul\":8879:8984   */\n    tag_190:\n        /* \"#utility.yul\":8954:8977   */\n      tag_337\n        /* \"#utility.yul\":8971:8976   */\n      dup2\n        /* \"#utility.yul\":8954:8977   */\n      tag_165\n      jump\t// in\n    tag_337:\n        /* \"#utility.yul\":8949:8952   */\n      dup3\n        /* \"#utility.yul\":8942:8978   */\n      mstore\n        /* \"#utility.yul\":8879:8984   */\n      pop\n      pop\n      jump\t// out\n        /* \"#utility.yul\":8990:9104   */\n    tag_191:\n        /* \"#utility.yul\":9057:9063   */\n      0x00\n        /* \"#utility.yul\":9091:9096   */\n      dup2\n        /* \"#utility.yul\":9085:9097   */\n      mload\n        /* \"#utility.yul\":9075:9097   */\n      swap1\n      pop\n        /* \"#utility.yul\":8990:9104   */\n      swap2\n      swap1\n      pop\n      jump\t// out\n        /* \"#utility.yul\":9110:9284   */\n    tag_192:\n        /* \"#utility.yul\":9199:9210   */\n      0x00\n        /* \"#utility.yul\":9233:9239   */\n      dup3\n        /* \"#utility.yul\":9228:9231   */\n      dup3\n        /* \"#utility.yul\":9221:9240   */\n      mstore\n        /* \"#utility.yul\":9273:9277   */\n      0x20\n        /* \"#utility.yul\":9268:9271   */\n      dup3\n        /* \"#utility.yul\":9264:9278   */\n      add\n        /* \"#utility.yul\":9249:9278   */\n      swap1\n      pop\n        /* \"#utility.yul\":9110:9284   */\n      swap3\n      swap2\n      pop\n      pop\n      jump\t// out\n        /* \"#utility.yul\":9290:9422   */\n    tag_193:\n        /* \"#utility.yul\":9357:9361   */\n      0x00\n        /* \"#utility.yul\":9380:9383   */\n      dup2\n        /* \"#utility.yul\":9372:9383   */\n      swap1\n      pop\n        /* \"#utility.yul\":9410:9414   */\n      0x20\n        /* \"#utility.yul\":9405:9408   */\n      dup3\n        /* \"#utility.yul\":9401:9415   */\n      add\n        /* \"#utility.yul\":9393:9415   */\n      swap1\n      pop\n        /* \"#utility.yul\":9290:9422   */\n      swap2\n      swap1\n      pop\n      jump\t// out\n        /* \"#utility.yul\":9428:9554   */\n    tag_194:\n        /* \"#utility.yul\":9465:9472   */\n      0x00\n        /* \"#utility.yul\":9505:9547   */\n      0xffffffffffffffffffffffffffffffffffffffff\n        /* \"#utility.yul\":9498:9503   */\n      dup3\n        /* \"#utility.yul\":9494:9548   */\n      and\n        /* \"#utility.yul\":9483:9548   */\n      swap1\n      pop\n        /* \"#utility.yul\":9428:9554   */\n      swap2\n      swap1\n      pop\n      jump\t// out\n        /* \"#utility.yul\":9560:9656   */\n    tag_195:\n        /* \"#utility.yul\":9597:9604   */\n      0x00\n        /* \"#utility.yul\":9626:9650   */\n      tag_343\n        /* \"#utility.yul\":9644:9649   */\n      dup3\n        /* \"#utility.yul\":9626:9650   */\n      tag_194\n      jump\t// in\n    tag_343:\n        /* \"#utility.yul\":9615:9650   */\n      swap1\n      pop\n        /* \"#utility.yul\":9560:9656   */\n      swap2\n      swap1\n      pop\n      jump\t// out\n        /* \"#utility.yul\":9662:9770   */\n    tag_196:\n        /* \"#utility.yul\":9739:9763   */\n      tag_345\n        /* \"#utility.yul\":9757:9762   */\n      dup2\n        /* \"#utility.yul\":9739:9763   */\n      tag_195\n      jump\t// in\n    tag_345:\n        /* \"#utility.yul\":9734:9737   */\n      dup3\n        /* \"#utility.yul\":9727:9764   */\n      mstore\n        /* \"#utility.yul\":9662:9770   */\n      pop\n      pop\n      jump\t// out\n        /* \"#utility.yul\":9776:9955   */\n    tag_197:\n        /* \"#utility.yul\":9845:9855   */\n      0x00\n        /* \"#utility.yul\":9866:9912   */\n      tag_347\n        /* \"#utility.yul\":9908:9911   */\n      dup4\n        /* \"#utility.yul\":9900:9906   */\n      dup4\n        /* \"#utility.yul\":9866:9912   */\n      tag_196\n      jump\t// in\n    tag_347:\n        /* \"#utility.yul\":9944:9948   */\n      0x20\n        /* \"#utility.yul\":9939:9942   */\n      dup4\n        /* \"#utility.yul\":9935:9949   */\n      add\n        /* \"#utility.yul\":9921:9949   */\n      swap1\n      pop\n        /* \"#utility.yul\":9776:9955   */\n      swap3\n      swap2\n      pop\n      pop\n      jump\t// out\n        /* \"#utility.yul\":9961:10074   */\n    tag_198:\n        /* \"#utility.yul\":10031:10035   */\n      0x00\n        /* \"#utility.yul\":10063:10067   */\n      0x20\n        /* \"#utility.yul\":10058:10061   */\n      dup3\n        /* \"#utility.yul\":10054:10068   */\n      add\n        /* \"#utility.yul\":10046:10068   */\n      swap1\n      pop\n        /* \"#utility.yul\":9961:10074   */\n      swap2\n      swap1\n      pop\n      jump\t// out\n        /* \"#utility.yul\":10110:10822   */\n    tag_199:\n        /* \"#utility.yul\":10219:10222   */\n      0x00\n        /* \"#utility.yul\":10248:10302   */\n      tag_350\n        /* \"#utility.yul\":10296:10301   */\n      dup3\n        /* \"#utility.yul\":10248:10302   */\n      tag_191\n      jump\t// in\n    tag_350:\n        /* \"#utility.yul\":10318:10394   */\n      tag_351\n        /* \"#utility.yul\":10387:10393   */\n      dup2\n        /* \"#utility.yul\":10382:10385   */\n      dup6\n        /* \"#utility.yul\":10318:10394   */\n      tag_192\n      jump\t// in\n    tag_351:\n        /* \"#utility.yul\":10311:10394   */\n      swap4\n      pop\n        /* \"#utility.yul\":10418:10474   */\n      tag_352\n        /* \"#utility.yul\":10468:10473   */\n      dup4\n        /* \"#utility.yul\":10418:10474   */\n      tag_193\n      jump\t// in\n    tag_352:\n        /* \"#utility.yul\":10497:10504   */\n      dup1\n        /* \"#utility.yul\":10528:10529   */\n      0x00\n        /* \"#utility.yul\":10513:10797   */\n    tag_353:\n        /* \"#utility.yul\":10538:10544   */\n      dup4\n        /* \"#utility.yul\":10535:10536   */\n      dup2\n        /* \"#utility.yul\":10532:10545   */\n      lt\n        /* \"#utility.yul\":10513:10797   */\n      iszero\n      tag_355\n      jumpi\n        /* \"#utility.yul\":10614:10620   */\n      dup2\n        /* \"#utility.yul\":10608:10621   */\n      mload\n        /* \"#utility.yul\":10641:10704   */\n      tag_356\n        /* \"#utility.yul\":10700:10703   */\n      dup9\n        /* \"#utility.yul\":10685:10698   */\n      dup3\n        /* \"#utility.yul\":10641:10704   */\n      tag_197\n      jump\t// in\n    tag_356:\n        /* \"#utility.yul\":10634:10704   */\n      swap8\n      pop\n        /* \"#utility.yul\":10727:10787   */\n      tag_357\n        /* \"#utility.yul\":10780:10786   */\n      dup4\n        /* \"#utility.yul\":10727:10787   */\n      tag_198\n      jump\t// in\n    tag_357:\n        /* \"#utility.yul\":10717:10787   */\n      swap3\n      pop\n        /* \"#utility.yul\":10573:10797   */\n      pop\n        /* \"#utility.yul\":10560:10561   */\n      0x01\n        /* \"#utility.yul\":10557:10558   */\n      dup2\n        /* \"#utility.yul\":10553:10562   */\n      add\n        /* \"#utility.yul\":10548:10562   */\n      swap1\n      pop\n        /* \"#utility.yul\":10513:10797   */\n      jump(tag_353)\n    tag_355:\n        /* \"#utility.yul\":10517:10531   */\n      pop\n        /* \"#utility.yul\":10813:10816   */\n      dup6\n        /* \"#utility.yul\":10806:10816   */\n      swap4\n      pop\n        /* \"#utility.yul\":10224:10822   */\n      pop\n      pop\n      pop\n        /* \"#utility.yul\":10110:10822   */\n      swap3\n      swap2\n      pop\n      pop\n      jump\t// out\n        /* \"#utility.yul\":10828:10971   */\n    tag_200:\n        /* \"#utility.yul\":10916:10964   */\n      tag_359\n        /* \"#utility.yul\":10958:10963   */\n      dup2\n        /* \"#utility.yul\":10916:10964   */\n      tag_169\n      jump\t// in\n    tag_359:\n        /* \"#utility.yul\":10911:10914   */\n      dup3\n        /* \"#utility.yul\":10904:10965   */\n      mstore\n        /* \"#utility.yul\":10828:10971   */\n      pop\n      pop\n      jump\t// out\n        /* \"#utility.yul\":11045:12532   */\n    tag_201:\n        /* \"#utility.yul\":11152:11155   */\n      0x00\n        /* \"#utility.yul\":11188:11192   */\n      0xc0\n        /* \"#utility.yul\":11183:11186   */\n      dup4\n        /* \"#utility.yul\":11179:11193   */\n      add\n        /* \"#utility.yul\":11275:11279   */\n      0x00\n        /* \"#utility.yul\":11268:11273   */\n      dup4\n        /* \"#utility.yul\":11264:11280   */\n      add\n        /* \"#utility.yul\":11258:11281   */\n      mload\n        /* \"#utility.yul\":11328:11331   */\n      dup5\n        /* \"#utility.yul\":11322:11326   */\n      dup3\n        /* \"#utility.yul\":11318:11332   */\n      sub\n        /* \"#utility.yul\":11311:11315   */\n      0x00\n        /* \"#utility.yul\":11306:11309   */\n      dup7\n        /* \"#utility.yul\":11302:11316   */\n      add\n        /* \"#utility.yul\":11295:11333   */\n      mstore\n        /* \"#utility.yul\":11354:11427   */\n      tag_361\n        /* \"#utility.yul\":11422:11426   */\n      dup3\n        /* \"#utility.yul\":11408:11420   */\n      dup3\n        /* \"#utility.yul\":11354:11427   */\n      tag_189\n      jump\t// in\n    tag_361:\n        /* \"#utility.yul\":11346:11427   */\n      swap2\n      pop\n        /* \"#utility.yul\":11203:11438   */\n      pop\n        /* \"#utility.yul\":11527:11531   */\n      0x20\n        /* \"#utility.yul\":11520:11525   */\n      dup4\n        /* \"#utility.yul\":11516:11532   */\n      add\n        /* \"#utility.yul\":11510:11533   */\n      mload\n        /* \"#utility.yul\":11580:11583   */\n      dup5\n        /* \"#utility.yul\":11574:11578   */\n      dup3\n        /* \"#utility.yul\":11570:11584   */\n      sub\n        /* \"#utility.yul\":11563:11567   */\n      0x20\n        /* \"#utility.yul\":11558:11561   */\n      dup7\n        /* \"#utility.yul\":11554:11568   */\n      add\n        /* \"#utility.yul\":11547:11585   */\n      mstore\n        /* \"#utility.yul\":11606:11679   */\n      tag_362\n        /* \"#utility.yul\":11674:11678   */\n      dup3\n        /* \"#utility.yul\":11660:11672   */\n      dup3\n        /* \"#utility.yul\":11606:11679   */\n      tag_189\n      jump\t// in\n    tag_362:\n        /* \"#utility.yul\":11598:11679   */\n      swap2\n      pop\n        /* \"#utility.yul\":11448:11690   */\n      pop\n        /* \"#utility.yul\":11777:11781   */\n      0x40\n        /* \"#utility.yul\":11770:11775   */\n      dup4\n        /* \"#utility.yul\":11766:11782   */\n      add\n        /* \"#utility.yul\":11760:11783   */\n      mload\n        /* \"#utility.yul\":11796:11857   */\n      tag_363\n        /* \"#utility.yul\":11851:11855   */\n      0x40\n        /* \"#utility.yul\":11846:11849   */\n      dup7\n        /* \"#utility.yul\":11842:11856   */\n      add\n        /* \"#utility.yul\":11828:11840   */\n      dup3\n        /* \"#utility.yul\":11796:11857   */\n      tag_190\n      jump\t// in\n    tag_363:\n        /* \"#utility.yul\":11700:11867   */\n      pop\n        /* \"#utility.yul\":11951:11955   */\n      0x60\n        /* \"#utility.yul\":11944:11949   */\n      dup4\n        /* \"#utility.yul\":11940:11956   */\n      add\n        /* \"#utility.yul\":11934:11957   */\n      mload\n        /* \"#utility.yul\":12004:12007   */\n      dup5\n        /* \"#utility.yul\":11998:12002   */\n      dup3\n        /* \"#utility.yul\":11994:12008   */\n      sub\n        /* \"#utility.yul\":11987:11991   */\n      0x60\n        /* \"#utility.yul\":11982:11985   */\n      dup7\n        /* \"#utility.yul\":11978:11992   */\n      add\n        /* \"#utility.yul\":11971:12009   */\n      mstore\n        /* \"#utility.yul\":12030:12133   */\n      tag_364\n        /* \"#utility.yul\":12128:12132   */\n      dup3\n        /* \"#utility.yul\":12114:12126   */\n      dup3\n        /* \"#utility.yul\":12030:12133   */\n      tag_199\n      jump\t// in\n    tag_364:\n        /* \"#utility.yul\":12022:12133   */\n      swap2\n      pop\n        /* \"#utility.yul\":11877:12144   */\n      pop\n        /* \"#utility.yul\":12228:12232   */\n      0x80\n        /* \"#utility.yul\":12221:12226   */\n      dup4\n        /* \"#utility.yul\":12217:12233   */\n      add\n        /* \"#utility.yul\":12211:12234   */\n      mload\n        /* \"#utility.yul\":12247:12308   */\n      tag_365\n        /* \"#utility.yul\":12302:12306   */\n      0x80\n        /* \"#utility.yul\":12297:12300   */\n      dup7\n        /* \"#utility.yul\":12293:12307   */\n      add\n        /* \"#utility.yul\":12279:12291   */\n      dup3\n        /* \"#utility.yul\":12247:12308   */\n      tag_190\n      jump\t// in\n    tag_365:\n        /* \"#utility.yul\":12154:12318   */\n      pop\n        /* \"#utility.yul\":12402:12406   */\n      0xa0\n        /* \"#utility.yul\":12395:12400   */\n      dup4\n        /* \"#utility.yul\":12391:12407   */\n      add\n        /* \"#utility.yul\":12385:12408   */\n      mload\n        /* \"#utility.yul\":12421:12495   */\n      tag_366\n        /* \"#utility.yul\":12489:12493   */\n      0xa0\n        /* \"#utility.yul\":12484:12487   */\n      dup7\n        /* \"#utility.yul\":12480:12494   */\n      add\n        /* \"#utility.yul\":12466:12478   */\n      dup3\n        /* \"#utility.yul\":12421:12495   */\n      tag_200\n      jump\t// in\n    tag_366:\n        /* \"#utility.yul\":12328:12505   */\n      pop\n        /* \"#utility.yul\":12522:12526   */\n      dup1\n        /* \"#utility.yul\":12515:12526   */\n      swap2\n      pop\n        /* \"#utility.yul\":11157:12532   */\n      pop\n        /* \"#utility.yul\":11045:12532   */\n      swap3\n      swap2\n      pop\n      pop\n      jump\t// out\n        /* \"#utility.yul\":12538:12790   */\n    tag_202:\n        /* \"#utility.yul\":12655:12665   */\n      0x00\n        /* \"#utility.yul\":12690:12784   */\n      tag_368\n        /* \"#utility.yul\":12780:12783   */\n      dup4\n        /* \"#utility.yul\":12772:12778   */\n      dup4\n        /* \"#utility.yul\":12690:12784   */\n      tag_201\n      jump\t// in\n    tag_368:\n        /* \"#utility.yul\":12676:12784   */\n      swap1\n      pop\n        /* \"#utility.yul\":12538:12790   */\n      swap3\n      swap2\n      pop\n      pop\n      jump\t// out\n        /* \"#utility.yul\":12796:12933   */\n    tag_203:\n        /* \"#utility.yul\":12890:12894   */\n      0x00\n        /* \"#utility.yul\":12922:12926   */\n      0x20\n        /* \"#utility.yul\":12917:12920   */\n      dup3\n        /* \"#utility.yul\":12913:12927   */\n      add\n        /* \"#utility.yul\":12905:12927   */\n      swap1\n      pop\n        /* \"#utility.yul\":12796:12933   */\n      swap2\n      swap1\n      pop\n      jump\t// out\n        /* \"#utility.yul\":13011:14114   */\n    tag_204:\n        /* \"#utility.yul\":13178:13181   */\n      0x00\n        /* \"#utility.yul\":13207:13285   */\n      tag_371\n        /* \"#utility.yul\":13279:13284   */\n      dup3\n        /* \"#utility.yul\":13207:13285   */\n      tag_185\n      jump\t// in\n    tag_371:\n        /* \"#utility.yul\":13301:13411   */\n      tag_372\n        /* \"#utility.yul\":13404:13410   */\n      dup2\n        /* \"#utility.yul\":13399:13402   */\n      dup6\n        /* \"#utility.yul\":13301:13411   */\n      tag_186\n      jump\t// in\n    tag_372:\n        /* \"#utility.yul\":13294:13411   */\n      swap4\n      pop\n        /* \"#utility.yul\":13437:13440   */\n      dup4\n        /* \"#utility.yul\":13482:13486   */\n      0x20\n        /* \"#utility.yul\":13474:13480   */\n      dup3\n        /* \"#utility.yul\":13470:13487   */\n      mul\n        /* \"#utility.yul\":13465:13468   */\n      dup6\n        /* \"#utility.yul\":13461:13488   */\n      add\n        /* \"#utility.yul\":13512:13592   */\n      tag_373\n        /* \"#utility.yul\":13586:13591   */\n      dup6\n        /* \"#utility.yul\":13512:13592   */\n      tag_187\n      jump\t// in\n    tag_373:\n        /* \"#utility.yul\":13615:13622   */\n      dup1\n        /* \"#utility.yul\":13646:13647   */\n      0x00\n        /* \"#utility.yul\":13631:14069   */\n    tag_374:\n        /* \"#utility.yul\":13656:13662   */\n      dup6\n        /* \"#utility.yul\":13653:13654   */\n      dup2\n        /* \"#utility.yul\":13650:13663   */\n      lt\n        /* \"#utility.yul\":13631:14069   */\n      iszero\n      tag_376\n      jumpi\n        /* \"#utility.yul\":13727:13736   */\n      dup5\n        /* \"#utility.yul\":13721:13725   */\n      dup5\n        /* \"#utility.yul\":13717:13737   */\n      sub\n        /* \"#utility.yul\":13712:13715   */\n      dup10\n        /* \"#utility.yul\":13705:13738   */\n      mstore\n        /* \"#utility.yul\":13778:13784   */\n      dup2\n        /* \"#utility.yul\":13772:13785   */\n      mload\n        /* \"#utility.yul\":13806:13918   */\n      tag_377\n        /* \"#utility.yul\":13913:13917   */\n      dup6\n        /* \"#utility.yul\":13898:13911   */\n      dup3\n        /* \"#utility.yul\":13806:13918   */\n      tag_202\n      jump\t// in\n    tag_377:\n        /* \"#utility.yul\":13798:13918   */\n      swap5\n      pop\n        /* \"#utility.yul\":13941:14025   */\n      tag_378\n        /* \"#utility.yul\":14018:14024   */\n      dup4\n        /* \"#utility.yul\":13941:14025   */\n      tag_203\n      jump\t// in\n    tag_378:\n        /* \"#utility.yul\":13931:14025   */\n      swap3\n      pop\n        /* \"#utility.yul\":14054:14058   */\n      0x20\n        /* \"#utility.yul\":14049:14052   */\n      dup11\n        /* \"#utility.yul\":14045:14059   */\n      add\n        /* \"#utility.yul\":14038:14059   */\n      swap10\n      pop\n        /* \"#utility.yul\":13691:14069   */\n      pop\n        /* \"#utility.yul\":13678:13679   */\n      0x01\n        /* \"#utility.yul\":13675:13676   */\n      dup2\n        /* \"#utility.yul\":13671:13680   */\n      add\n        /* \"#utility.yul\":13666:13680   */\n      swap1\n      pop\n        /* \"#utility.yul\":13631:14069   */\n      jump(tag_374)\n    tag_376:\n        /* \"#utility.yul\":13635:13649   */\n      pop\n        /* \"#utility.yul\":14085:14089   */\n      dup3\n        /* \"#utility.yul\":14078:14089   */\n      swap8\n      pop\n        /* \"#utility.yul\":14105:14108   */\n      dup8\n        /* \"#utility.yul\":14098:14108   */\n      swap6\n      pop\n        /* \"#utility.yul\":13183:14114   */\n      pop\n      pop\n      pop\n      pop\n      pop\n        /* \"#utility.yul\":13011:14114   */\n      swap3\n      swap2\n      pop\n      pop\n      jump\t// out\n        /* \"#utility.yul\":14120:14589   */\n    tag_25:\n        /* \"#utility.yul\":14311:14315   */\n      0x00\n        /* \"#utility.yul\":14349:14351   */\n      0x20\n        /* \"#utility.yul\":14338:14347   */\n      dup3\n        /* \"#utility.yul\":14334:14352   */\n      add\n        /* \"#utility.yul\":14326:14352   */\n      swap1\n      pop\n        /* \"#utility.yul\":14398:14407   */\n      dup2\n        /* \"#utility.yul\":14392:14396   */\n      dup2\n        /* \"#utility.yul\":14388:14408   */\n      sub\n        /* \"#utility.yul\":14384:14385   */\n      0x00\n        /* \"#utility.yul\":14373:14382   */\n      dup4\n        /* \"#utility.yul\":14369:14386   */\n      add\n        /* \"#utility.yul\":14362:14409   */\n      mstore\n        /* \"#utility.yul\":14426:14582   */\n      tag_380\n        /* \"#utility.yul\":14577:14581   */\n      dup2\n        /* \"#utility.yul\":14568:14574   */\n      dup5\n        /* \"#utility.yul\":14426:14582   */\n      tag_204\n      jump\t// in\n    tag_380:\n        /* \"#utility.yul\":14418:14582   */\n      swap1\n      pop\n        /* \"#utility.yul\":14120:14589   */\n      swap3\n      swap2\n      pop\n      pop\n      jump\t// out\n        /* \"#utility.yul\":14595:14779   */\n    tag_205:\n        /* \"#utility.yul\":14694:14705   */\n      0x00\n        /* \"#utility.yul\":14728:14734   */\n      dup3\n        /* \"#utility.yul\":14723:14726   */\n      dup3\n        /* \"#utility.yul\":14716:14735   */\n      mstore\n        /* \"#utility.yul\":14768:14772   */\n      0x20\n        /* \"#utility.yul\":14763:14766   */\n      dup3\n        /* \"#utility.yul\":14759:14773   */\n      add\n        /* \"#utility.yul\":14744:14773   */\n      swap1\n      pop\n        /* \"#utility.yul\":14595:14779   */\n      swap3\n      swap2\n      pop\n      pop\n      jump\t// out\n        /* \"#utility.yul\":14815:15547   */\n    tag_206:\n        /* \"#utility.yul\":14934:14937   */\n      0x00\n        /* \"#utility.yul\":14963:15017   */\n      tag_383\n        /* \"#utility.yul\":15011:15016   */\n      dup3\n        /* \"#utility.yul\":14963:15017   */\n      tag_191\n      jump\t// in\n    tag_383:\n        /* \"#utility.yul\":15033:15119   */\n      tag_384\n        /* \"#utility.yul\":15112:15118   */\n      dup2\n        /* \"#utility.yul\":15107:15110   */\n      dup6\n        /* \"#utility.yul\":15033:15119   */\n      tag_205\n      jump\t// in\n    tag_384:\n        /* \"#utility.yul\":15026:15119   */\n      swap4\n      pop\n        /* \"#utility.yul\":15143:15199   */\n      tag_385\n        /* \"#utility.yul\":15193:15198   */\n      dup4\n        /* \"#utility.yul\":15143:15199   */\n      tag_193\n      jump\t// in\n    tag_385:\n        /* \"#utility.yul\":15222:15229   */\n      dup1\n        /* \"#utility.yul\":15253:15254   */\n      0x00\n        /* \"#utility.yul\":15238:15522   */\n    tag_386:\n        /* \"#utility.yul\":15263:15269   */\n      dup4\n        /* \"#utility.yul\":15260:15261   */\n      dup2\n        /* \"#utility.yul\":15257:15270   */\n      lt\n        /* \"#utility.yul\":15238:15522   */\n      iszero\n      tag_388\n      jumpi\n        /* \"#utility.yul\":15339:15345   */\n      dup2\n        /* \"#utility.yul\":15333:15346   */\n      mload\n        /* \"#utility.yul\":15366:15429   */\n      tag_389\n        /* \"#utility.yul\":15425:15428   */\n      dup9\n        /* \"#utility.yul\":15410:15423   */\n      dup3\n        /* \"#utility.yul\":15366:15429   */\n      tag_197\n      jump\t// in\n    tag_389:\n        /* \"#utility.yul\":15359:15429   */\n      swap8\n      pop\n        /* \"#utility.yul\":15452:15512   */\n      tag_390\n        /* \"#utility.yul\":15505:15511   */\n      dup4\n        /* \"#utility.yul\":15452:15512   */\n      tag_198\n      jump\t// in\n    tag_390:\n        /* \"#utility.yul\":15442:15512   */\n      swap3\n      pop\n        /* \"#utility.yul\":15298:15522   */\n      pop\n        /* \"#utility.yul\":15285:15286   */\n      0x01\n        /* \"#utility.yul\":15282:15283   */\n      dup2\n        /* \"#utility.yul\":15278:15287   */\n      add\n        /* \"#utility.yul\":15273:15287   */\n      swap1\n      pop\n        /* \"#utility.yul\":15238:15522   */\n      jump(tag_386)\n    tag_388:\n        /* \"#utility.yul\":15242:15256   */\n      pop\n        /* \"#utility.yul\":15538:15541   */\n      dup6\n        /* \"#utility.yul\":15531:15541   */\n      swap4\n      pop\n        /* \"#utility.yul\":14939:15547   */\n      pop\n      pop\n      pop\n        /* \"#utility.yul\":14815:15547   */\n      swap3\n      swap2\n      pop\n      pop\n      jump\t// out\n        /* \"#utility.yul\":15553:16675   */\n    tag_30:\n        /* \"#utility.yul\":15883:15887   */\n      0x00\n        /* \"#utility.yul\":15921:15924   */\n      0xc0\n        /* \"#utility.yul\":15910:15919   */\n      dup3\n        /* \"#utility.yul\":15906:15925   */\n      add\n        /* \"#utility.yul\":15898:15925   */\n      swap1\n      pop\n        /* \"#utility.yul\":15971:15980   */\n      dup2\n        /* \"#utility.yul\":15965:15969   */\n      dup2\n        /* \"#utility.yul\":15961:15981   */\n      sub\n        /* \"#utility.yul\":15957:15958   */\n      0x00\n        /* \"#utility.yul\":15946:15955   */\n      dup4\n        /* \"#utility.yul\":15942:15959   */\n      add\n        /* \"#utility.yul\":15935:15982   */\n      mstore\n        /* \"#utility.yul\":15999:16077   */\n      tag_392\n        /* \"#utility.yul\":16072:16076   */\n      dup2\n        /* \"#utility.yul\":16063:16069   */\n      dup10\n        /* \"#utility.yul\":15999:16077   */\n      tag_164\n      jump\t// in\n    tag_392:\n        /* \"#utility.yul\":15991:16077   */\n      swap1\n      pop\n        /* \"#utility.yul\":16124:16133   */\n      dup2\n        /* \"#utility.yul\":16118:16122   */\n      dup2\n        /* \"#utility.yul\":16114:16134   */\n      sub\n        /* \"#utility.yul\":16109:16111   */\n      0x20\n        /* \"#utility.yul\":16098:16107   */\n      dup4\n        /* \"#utility.yul\":16094:16112   */\n      add\n        /* \"#utility.yul\":16087:16135   */\n      mstore\n        /* \"#utility.yul\":16152:16230   */\n      tag_393\n        /* \"#utility.yul\":16225:16229   */\n      dup2\n        /* \"#utility.yul\":16216:16222   */\n      dup9\n        /* \"#utility.yul\":16152:16230   */\n      tag_164\n      jump\t// in\n    tag_393:\n        /* \"#utility.yul\":16144:16230   */\n      swap1\n      pop\n        /* \"#utility.yul\":16240:16310   */\n      tag_394\n        /* \"#utility.yul\":16306:16308   */\n      0x40\n        /* \"#utility.yul\":16295:16304   */\n      dup4\n        /* \"#utility.yul\":16291:16309   */\n      add\n        /* \"#utility.yul\":16282:16288   */\n      dup8\n        /* \"#utility.yul\":16240:16310   */\n      tag_166\n      jump\t// in\n    tag_394:\n        /* \"#utility.yul\":16357:16366   */\n      dup2\n        /* \"#utility.yul\":16351:16355   */\n      dup2\n        /* \"#utility.yul\":16347:16367   */\n      sub\n        /* \"#utility.yul\":16342:16344   */\n      0x60\n        /* \"#utility.yul\":16331:16340   */\n      dup4\n        /* \"#utility.yul\":16327:16345   */\n      add\n        /* \"#utility.yul\":16320:16368   */\n      mstore\n        /* \"#utility.yul\":16385:16493   */\n      tag_395\n        /* \"#utility.yul\":16488:16492   */\n      dup2\n        /* \"#utility.yul\":16479:16485   */\n      dup7\n        /* \"#utility.yul\":16385:16493   */\n      tag_206\n      jump\t// in\n    tag_395:\n        /* \"#utility.yul\":16377:16493   */\n      swap1\n      pop\n        /* \"#utility.yul\":16503:16574   */\n      tag_396\n        /* \"#utility.yul\":16569:16572   */\n      0x80\n        /* \"#utility.yul\":16558:16567   */\n      dup4\n        /* \"#utility.yul\":16554:16573   */\n      add\n        /* \"#utility.yul\":16545:16551   */\n      dup6\n        /* \"#utility.yul\":16503:16574   */\n      tag_166\n      jump\t// in\n    tag_396:\n        /* \"#utility.yul\":16584:16668   */\n      tag_397\n        /* \"#utility.yul\":16663:16666   */\n      0xa0\n        /* \"#utility.yul\":16652:16661   */\n      dup4\n        /* \"#utility.yul\":16648:16667   */\n      add\n        /* \"#utility.yul\":16639:16645   */\n      dup5\n        /* \"#utility.yul\":16584:16668   */\n      tag_170\n      jump\t// in\n    tag_397:\n        /* \"#utility.yul\":15553:16675   */\n      swap8\n      swap7\n      pop\n      pop\n      pop\n      pop\n      pop\n      pop\n      pop\n      jump\t// out\n        /* \"#utility.yul\":16681:16861   */\n    tag_207:\n        /* \"#utility.yul\":16729:16806   */\n      0x4e487b7100000000000000000000000000000000000000000000000000000000\n        /* \"#utility.yul\":16726:16727   */\n      0x00\n        /* \"#utility.yul\":16719:16807   */\n      mstore\n        /* \"#utility.yul\":16826:16830   */\n      0x22\n        /* \"#utility.yul\":16823:16824   */\n      0x04\n        /* \"#utility.yul\":16816:16831   */\n      mstore\n        /* \"#utility.yul\":16850:16854   */\n      0x24\n        /* \"#utility.yul\":16847:16848   */\n      0x00\n        /* \"#utility.yul\":16840:16855   */\n      revert\n        /* \"#utility.yul\":16867:17187   */\n    tag_34:\n        /* \"#utility.yul\":16911:16917   */\n      0x00\n        /* \"#utility.yul\":16948:16949   */\n      0x02\n        /* \"#utility.yul\":16942:16946   */\n      dup3\n        /* \"#utility.yul\":16938:16950   */\n      div\n        /* \"#utility.yul\":16928:16950   */\n      swap1\n      pop\n        /* \"#utility.yul\":16995:16996   */\n      0x01\n        /* \"#utility.yul\":16989:16993   */\n      dup3\n        /* \"#utility.yul\":16985:16997   */\n      and\n        /* \"#utility.yul\":17016:17034   */\n      dup1\n        /* \"#utility.yul\":17006:17087   */\n      tag_400\n      jumpi\n        /* \"#utility.yul\":17072:17076   */\n      0x7f\n        /* \"#utility.yul\":17064:17070   */\n      dup3\n        /* \"#utility.yul\":17060:17077   */\n      and\n        /* \"#utility.yul\":17050:17077   */\n      swap2\n      pop\n        /* \"#utility.yul\":17006:17087   */\n    tag_400:\n        /* \"#utility.yul\":17134:17136   */\n      0x20\n        /* \"#utility.yul\":17126:17132   */\n      dup3\n        /* \"#utility.yul\":17123:17137   */\n      lt\n        /* \"#utility.yul\":17103:17121   */\n      dup2\n        /* \"#utility.yul\":17100:17138   */\n      sub\n        /* \"#utility.yul\":17097:17181   */\n      tag_401\n      jumpi\n        /* \"#utility.yul\":17153:17171   */\n      tag_402\n      tag_207\n      jump\t// in\n    tag_402:\n        /* \"#utility.yul\":17097:17181   */\n    tag_401:\n        /* \"#utility.yul\":16918:17187   */\n      pop\n        /* \"#utility.yul\":16867:17187   */\n      swap2\n      swap1\n      pop\n      jump\t// out\n        /* \"#utility.yul\":17193:17370   */\n    tag_208:\n        /* \"#utility.yul\":17333:17362   */\n      0x5a65726f2061646472657373206973206e6f7420616c6c6f7765640000000000\n        /* \"#utility.yul\":17329:17330   */\n      0x00\n        /* \"#utility.yul\":17321:17327   */\n      dup3\n        /* \"#utility.yul\":17317:17331   */\n      add\n        /* \"#utility.yul\":17310:17363   */\n      mstore\n        /* \"#utility.yul\":17193:17370   */\n      pop\n      jump\t// out\n        /* \"#utility.yul\":17376:17742   */\n    tag_209:\n        /* \"#utility.yul\":17518:17521   */\n      0x00\n        /* \"#utility.yul\":17539:17606   */\n      tag_405\n        /* \"#utility.yul\":17603:17605   */\n      0x1b\n        /* \"#utility.yul\":17598:17601   */\n      dup4\n        /* \"#utility.yul\":17539:17606   */\n      tag_161\n      jump\t// in\n    tag_405:\n        /* \"#utility.yul\":17532:17606   */\n      swap2\n      pop\n        /* \"#utility.yul\":17615:17708   */\n      tag_406\n        /* \"#utility.yul\":17704:17707   */\n      dup3\n        /* \"#utility.yul\":17615:17708   */\n      tag_208\n      jump\t// in\n    tag_406:\n        /* \"#utility.yul\":17733:17735   */\n      0x20\n        /* \"#utility.yul\":17728:17731   */\n      dup3\n        /* \"#utility.yul\":17724:17736   */\n      add\n        /* \"#utility.yul\":17717:17736   */\n      swap1\n      pop\n        /* \"#utility.yul\":17376:17742   */\n      swap2\n      swap1\n      pop\n      jump\t// out\n        /* \"#utility.yul\":17748:18167   */\n    tag_47:\n        /* \"#utility.yul\":17914:17918   */\n      0x00\n        /* \"#utility.yul\":17952:17954   */\n      0x20\n        /* \"#utility.yul\":17941:17950   */\n      dup3\n        /* \"#utility.yul\":17937:17955   */\n      add\n        /* \"#utility.yul\":17929:17955   */\n      swap1\n      pop\n        /* \"#utility.yul\":18001:18010   */\n      dup2\n        /* \"#utility.yul\":17995:17999   */\n      dup2\n        /* \"#utility.yul\":17991:18011   */\n      sub\n        /* \"#utility.yul\":17987:17988   */\n      0x00\n        /* \"#utility.yul\":17976:17985   */\n      dup4\n        /* \"#utility.yul\":17972:17989   */\n      add\n        /* \"#utility.yul\":17965:18012   */\n      mstore\n        /* \"#utility.yul\":18029:18160   */\n      tag_408\n        /* \"#utility.yul\":18155:18159   */\n      dup2\n        /* \"#utility.yul\":18029:18160   */\n      tag_209\n      jump\t// in\n    tag_408:\n        /* \"#utility.yul\":18021:18160   */\n      swap1\n      pop\n        /* \"#utility.yul\":17748:18167   */\n      swap2\n      swap1\n      pop\n      jump\t// out\n        /* \"#utility.yul\":18173:18344   */\n    tag_210:\n        /* \"#utility.yul\":18313:18336   */\n      0x496e646578206973206f7574206f6620626f756e640000000000000000000000\n        /* \"#utility.yul\":18309:18310   */\n      0x00\n        /* \"#utility.yul\":18301:18307   */\n      dup3\n        /* \"#utility.yul\":18297:18311   */\n      add\n        /* \"#utility.yul\":18290:18337   */\n      mstore\n        /* \"#utility.yul\":18173:18344   */\n      pop\n      jump\t// out\n        /* \"#utility.yul\":18350:18716   */\n    tag_211:\n        /* \"#utility.yul\":18492:18495   */\n      0x00\n        /* \"#utility.yul\":18513:18580   */\n      tag_411\n        /* \"#utility.yul\":18577:18579   */\n      0x15\n        /* \"#utility.yul\":18572:18575   */\n      dup4\n        /* \"#utility.yul\":18513:18580   */\n      tag_161\n      jump\t// in\n    tag_411:\n        /* \"#utility.yul\":18506:18580   */\n      swap2\n      pop\n        /* \"#utility.yul\":18589:18682   */\n      tag_412\n        /* \"#utility.yul\":18678:18681   */\n      dup3\n        /* \"#utility.yul\":18589:18682   */\n      tag_210\n      jump\t// in\n    tag_412:\n        /* \"#utility.yul\":18707:18709   */\n      0x20\n        /* \"#utility.yul\":18702:18705   */\n      dup3\n        /* \"#utility.yul\":18698:18710   */\n      add\n        /* \"#utility.yul\":18691:18710   */\n      swap1\n      pop\n        /* \"#utility.yul\":18350:18716   */\n      swap2\n      swap1\n      pop\n      jump\t// out\n        /* \"#utility.yul\":18722:19141   */\n    tag_50:\n        /* \"#utility.yul\":18888:18892   */\n      0x00\n        /* \"#utility.yul\":18926:18928   */\n      0x20\n        /* \"#utility.yul\":18915:18924   */\n      dup3\n        /* \"#utility.yul\":18911:18929   */\n      add\n        /* \"#utility.yul\":18903:18929   */\n      swap1\n      pop\n        /* \"#utility.yul\":18975:18984   */\n      dup2\n        /* \"#utility.yul\":18969:18973   */\n      dup2\n        /* \"#utility.yul\":18965:18985   */\n      sub\n        /* \"#utility.yul\":18961:18962   */\n      0x00\n        /* \"#utility.yul\":18950:18959   */\n      dup4\n        /* \"#utility.yul\":18946:18963   */\n      add\n        /* \"#utility.yul\":18939:18986   */\n      mstore\n        /* \"#utility.yul\":19003:19134   */\n      tag_414\n        /* \"#utility.yul\":19129:19133   */\n      dup2\n        /* \"#utility.yul\":19003:19134   */\n      tag_211\n      jump\t// in\n    tag_414:\n        /* \"#utility.yul\":18995:19134   */\n      swap1\n      pop\n        /* \"#utility.yul\":18722:19141   */\n      swap2\n      swap1\n      pop\n      jump\t// out\n        /* \"#utility.yul\":19147:19319   */\n    tag_212:\n        /* \"#utility.yul\":19287:19311   */\n      0x596f75206861766520766f74656420616c726561647900000000000000000000\n        /* \"#utility.yul\":19283:19284   */\n      0x00\n        /* \"#utility.yul\":19275:19281   */\n      dup3\n        /* \"#utility.yul\":19271:19285   */\n      add\n        /* \"#utility.yul\":19264:19312   */\n      mstore\n        /* \"#utility.yul\":19147:19319   */\n      pop\n      jump\t// out\n        /* \"#utility.yul\":19325:19691   */\n    tag_213:\n        /* \"#utility.yul\":19467:19470   */\n      0x00\n        /* \"#utility.yul\":19488:19555   */\n      tag_417\n        /* \"#utility.yul\":19552:19554   */\n      0x16\n        /* \"#utility.yul\":19547:19550   */\n      dup4\n        /* \"#utility.yul\":19488:19555   */\n      tag_161\n      jump\t// in\n    tag_417:\n        /* \"#utility.yul\":19481:19555   */\n      swap2\n      pop\n        /* \"#utility.yul\":19564:19657   */\n      tag_418\n        /* \"#utility.yul\":19653:19656   */\n      dup3\n        /* \"#utility.yul\":19564:19657   */\n      tag_212\n      jump\t// in\n    tag_418:\n        /* \"#utility.yul\":19682:19684   */\n      0x20\n        /* \"#utility.yul\":19677:19680   */\n      dup3\n        /* \"#utility.yul\":19673:19685   */\n      add\n        /* \"#utility.yul\":19666:19685   */\n      swap1\n      pop\n        /* \"#utility.yul\":19325:19691   */\n      swap2\n      swap1\n      pop\n      jump\t// out\n        /* \"#utility.yul\":19697:20116   */\n    tag_53:\n        /* \"#utility.yul\":19863:19867   */\n      0x00\n        /* \"#utility.yul\":19901:19903   */\n      0x20\n        /* \"#utility.yul\":19890:19899   */\n      dup3\n        /* \"#utility.yul\":19886:19904   */\n      add\n        /* \"#utility.yul\":19878:19904   */\n      swap1\n      pop\n        /* \"#utility.yul\":19950:19959   */\n      dup2\n        /* \"#utility.yul\":19944:19948   */\n      dup2\n        /* \"#utility.yul\":19940:19960   */\n      sub\n        /* \"#utility.yul\":19936:19937   */\n      0x00\n        /* \"#utility.yul\":19925:19934   */\n      dup4\n        /* \"#utility.yul\":19921:19938   */\n      add\n        /* \"#utility.yul\":19914:19961   */\n      mstore\n        /* \"#utility.yul\":19978:20109   */\n      tag_420\n        /* \"#utility.yul\":20104:20108   */\n      dup2\n        /* \"#utility.yul\":19978:20109   */\n      tag_213\n      jump\t// in\n    tag_420:\n        /* \"#utility.yul\":19970:20109   */\n      swap1\n      pop\n        /* \"#utility.yul\":19697:20116   */\n      swap2\n      swap1\n      pop\n      jump\t// out\n        /* \"#utility.yul\":20122:20302   */\n    tag_56:\n        /* \"#utility.yul\":20170:20247   */\n      0x4e487b7100000000000000000000000000000000000000000000000000000000\n        /* \"#utility.yul\":20167:20168   */\n      0x00\n        /* \"#utility.yul\":20160:20248   */\n      mstore\n        /* \"#utility.yul\":20267:20271   */\n      0x32\n        /* \"#utility.yul\":20264:20265   */\n      0x04\n        /* \"#utility.yul\":20257:20272   */\n      mstore\n        /* \"#utility.yul\":20291:20295   */\n      0x24\n        /* \"#utility.yul\":20288:20289   */\n      0x00\n        /* \"#utility.yul\":20281:20296   */\n      revert\n        /* \"#utility.yul\":20308:20534   */\n    tag_214:\n        /* \"#utility.yul\":20448:20482   */\n      0x546869732070726f706f73616c20686173206265656e20616363657074656420\n        /* \"#utility.yul\":20444:20445   */\n      0x00\n        /* \"#utility.yul\":20436:20442   */\n      dup3\n        /* \"#utility.yul\":20432:20446   */\n      add\n        /* \"#utility.yul\":20425:20483   */\n      mstore\n        /* \"#utility.yul\":20517:20526   */\n      0x616c726561647900000000000000000000000000000000000000000000000000\n        /* \"#utility.yul\":20512:20514   */\n      0x20\n        /* \"#utility.yul\":20504:20510   */\n      dup3\n        /* \"#utility.yul\":20500:20515   */\n      add\n        /* \"#utility.yul\":20493:20527   */\n      mstore\n        /* \"#utility.yul\":20308:20534   */\n      pop\n      jump\t// out\n        /* \"#utility.yul\":20540:20906   */\n    tag_215:\n        /* \"#utility.yul\":20682:20685   */\n      0x00\n        /* \"#utility.yul\":20703:20770   */\n      tag_424\n        /* \"#utility.yul\":20767:20769   */\n      0x27\n        /* \"#utility.yul\":20762:20765   */\n      dup4\n        /* \"#utility.yul\":20703:20770   */\n      tag_161\n      jump\t// in\n    tag_424:\n        /* \"#utility.yul\":20696:20770   */\n      swap2\n      pop\n        /* \"#utility.yul\":20779:20872   */\n      tag_425\n        /* \"#utility.yul\":20868:20871   */\n      dup3\n        /* \"#utility.yul\":20779:20872   */\n      tag_214\n      jump\t// in\n    tag_425:\n        /* \"#utility.yul\":20897:20899   */\n      0x40\n        /* \"#utility.yul\":20892:20895   */\n      dup3\n        /* \"#utility.yul\":20888:20900   */\n      add\n        /* \"#utility.yul\":20881:20900   */\n      swap1\n      pop\n        /* \"#utility.yul\":20540:20906   */\n      swap2\n      swap1\n      pop\n      jump\t// out\n        /* \"#utility.yul\":20912:21331   */\n    tag_65:\n        /* \"#utility.yul\":21078:21082   */\n      0x00\n        /* \"#utility.yul\":21116:21118   */\n      0x20\n        /* \"#utility.yul\":21105:21114   */\n      dup3\n        /* \"#utility.yul\":21101:21119   */\n      add\n        /* \"#utility.yul\":21093:21119   */\n      swap1\n      pop\n        /* \"#utility.yul\":21165:21174   */\n      dup2\n        /* \"#utility.yul\":21159:21163   */\n      dup2\n        /* \"#utility.yul\":21155:21175   */\n      sub\n        /* \"#utility.yul\":21151:21152   */\n      0x00\n        /* \"#utility.yul\":21140:21149   */\n      dup4\n        /* \"#utility.yul\":21136:21153   */\n      add\n        /* \"#utility.yul\":21129:21176   */\n      mstore\n        /* \"#utility.yul\":21193:21324   */\n      tag_427\n        /* \"#utility.yul\":21319:21323   */\n      dup2\n        /* \"#utility.yul\":21193:21324   */\n      tag_215\n      jump\t// in\n    tag_427:\n        /* \"#utility.yul\":21185:21324   */\n      swap1\n      pop\n        /* \"#utility.yul\":20912:21331   */\n      swap2\n      swap1\n      pop\n      jump\t// out\n        /* \"#utility.yul\":21337:21517   */\n    tag_216:\n        /* \"#utility.yul\":21385:21462   */\n      0x4e487b7100000000000000000000000000000000000000000000000000000000\n        /* \"#utility.yul\":21382:21383   */\n      0x00\n        /* \"#utility.yul\":21375:21463   */\n      mstore\n        /* \"#utility.yul\":21482:21486   */\n      0x11\n        /* \"#utility.yul\":21479:21480   */\n      0x04\n        /* \"#utility.yul\":21472:21487   */\n      mstore\n        /* \"#utility.yul\":21506:21510   */\n      0x24\n        /* \"#utility.yul\":21503:21504   */\n      0x00\n        /* \"#utility.yul\":21496:21511   */\n      revert\n        /* \"#utility.yul\":21523:21716   */\n    tag_67:\n        /* \"#utility.yul\":21562:21565   */\n      0x00\n        /* \"#utility.yul\":21581:21600   */\n      tag_430\n        /* \"#utility.yul\":21598:21599   */\n      dup3\n        /* \"#utility.yul\":21581:21600   */\n      tag_165\n      jump\t// in\n    tag_430:\n        /* \"#utility.yul\":21576:21600   */\n      swap2\n      pop\n        /* \"#utility.yul\":21614:21633   */\n      tag_431\n        /* \"#utility.yul\":21631:21632   */\n      dup4\n        /* \"#utility.yul\":21614:21633   */\n      tag_165\n      jump\t// in\n    tag_431:\n        /* \"#utility.yul\":21609:21633   */\n      swap3\n      pop\n        /* \"#utility.yul\":21656:21657   */\n      dup3\n        /* \"#utility.yul\":21653:21654   */\n      dup3\n        /* \"#utility.yul\":21649:21658   */\n      add\n        /* \"#utility.yul\":21642:21658   */\n      swap1\n      pop\n        /* \"#utility.yul\":21679:21685   */\n      0xffff\n        /* \"#utility.yul\":21674:21677   */\n      dup2\n        /* \"#utility.yul\":21671:21686   */\n      gt\n        /* \"#utility.yul\":21668:21709   */\n      iszero\n      tag_432\n      jumpi\n        /* \"#utility.yul\":21689:21707   */\n      tag_433\n      tag_216\n      jump\t// in\n    tag_433:\n        /* \"#utility.yul\":21668:21709   */\n    tag_432:\n        /* \"#utility.yul\":21523:21716   */\n      swap3\n      swap2\n      pop\n      pop\n      jump\t// out\n        /* \"#utility.yul\":21722:21870   */\n    tag_217:\n        /* \"#utility.yul\":21824:21835   */\n      0x00\n        /* \"#utility.yul\":21861:21864   */\n      dup2\n        /* \"#utility.yul\":21846:21864   */\n      swap1\n      pop\n        /* \"#utility.yul\":21722:21870   */\n      swap3\n      swap2\n      pop\n      pop\n      jump\t// out\n        /* \"#utility.yul\":21876:22017   */\n    tag_218:\n        /* \"#utility.yul\":21925:21929   */\n      0x00\n        /* \"#utility.yul\":21948:21951   */\n      dup2\n        /* \"#utility.yul\":21940:21951   */\n      swap1\n      pop\n        /* \"#utility.yul\":21971:21974   */\n      dup2\n        /* \"#utility.yul\":21968:21969   */\n      0x00\n        /* \"#utility.yul\":21961:21975   */\n      mstore\n        /* \"#utility.yul\":22005:22009   */\n      0x20\n        /* \"#utility.yul\":22002:22003   */\n      0x00\n        /* \"#utility.yul\":21992:22010   */\n      keccak256\n        /* \"#utility.yul\":21984:22010   */\n      swap1\n      pop\n        /* \"#utility.yul\":21876:22017   */\n      swap2\n      swap1\n      pop\n      jump\t// out\n        /* \"#utility.yul\":22047:22921   */\n    tag_219:\n        /* \"#utility.yul\":22150:22153   */\n      0x00\n        /* \"#utility.yul\":22187:22192   */\n      dup2\n        /* \"#utility.yul\":22181:22193   */\n      sload\n        /* \"#utility.yul\":22216:22252   */\n      tag_437\n        /* \"#utility.yul\":22242:22251   */\n      dup2\n        /* \"#utility.yul\":22216:22252   */\n      tag_34\n      jump\t// in\n    tag_437:\n        /* \"#utility.yul\":22268:22357   */\n      tag_438\n        /* \"#utility.yul\":22350:22356   */\n      dup2\n        /* \"#utility.yul\":22345:22348   */\n      dup7\n        /* \"#utility.yul\":22268:22357   */\n      tag_217\n      jump\t// in\n    tag_438:\n        /* \"#utility.yul\":22261:22357   */\n      swap5\n      pop\n        /* \"#utility.yul\":22388:22389   */\n      0x01\n        /* \"#utility.yul\":22377:22386   */\n      dup3\n        /* \"#utility.yul\":22373:22390   */\n      and\n        /* \"#utility.yul\":22404:22405   */\n      0x00\n        /* \"#utility.yul\":22399:22565   */\n      dup2\n      eq\n      tag_440\n      jumpi\n        /* \"#utility.yul\":22579:22580   */\n      0x01\n        /* \"#utility.yul\":22574:22915   */\n      dup2\n      eq\n      tag_441\n      jumpi\n        /* \"#utility.yul\":22366:22915   */\n      jump(tag_439)\n        /* \"#utility.yul\":22399:22565   */\n    tag_440:\n        /* \"#utility.yul\":22483:22487   */\n      0xff\n        /* \"#utility.yul\":22479:22488   */\n      not\n        /* \"#utility.yul\":22468:22477   */\n      dup4\n        /* \"#utility.yul\":22464:22489   */\n      and\n        /* \"#utility.yul\":22459:22462   */\n      dup7\n        /* \"#utility.yul\":22452:22490   */\n      mstore\n        /* \"#utility.yul\":22545:22551   */\n      dup2\n        /* \"#utility.yul\":22538:22552   */\n      iszero\n        /* \"#utility.yul\":22531:22553   */\n      iszero\n        /* \"#utility.yul\":22523:22529   */\n      dup3\n        /* \"#utility.yul\":22519:22554   */\n      mul\n        /* \"#utility.yul\":22514:22517   */\n      dup7\n        /* \"#utility.yul\":22510:22555   */\n      add\n        /* \"#utility.yul\":22503:22555   */\n      swap4\n      pop\n        /* \"#utility.yul\":22399:22565   */\n      jump(tag_439)\n        /* \"#utility.yul\":22574:22915   */\n    tag_441:\n        /* \"#utility.yul\":22641:22679   */\n      tag_442\n        /* \"#utility.yul\":22673:22678   */\n      dup6\n        /* \"#utility.yul\":22641:22679   */\n      tag_218\n      jump\t// in\n    tag_442:\n        /* \"#utility.yul\":22701:22702   */\n      0x00\n        /* \"#utility.yul\":22715:22869   */\n    tag_443:\n        /* \"#utility.yul\":22729:22735   */\n      dup4\n        /* \"#utility.yul\":22726:22727   */\n      dup2\n        /* \"#utility.yul\":22723:22736   */\n      lt\n        /* \"#utility.yul\":22715:22869   */\n      iszero\n      tag_445\n      jumpi\n        /* \"#utility.yul\":22803:22810   */\n      dup2\n        /* \"#utility.yul\":22797:22811   */\n      sload\n        /* \"#utility.yul\":22793:22794   */\n      dup2\n        /* \"#utility.yul\":22788:22791   */\n      dup10\n        /* \"#utility.yul\":22784:22795   */\n      add\n        /* \"#utility.yul\":22777:22812   */\n      mstore\n        /* \"#utility.yul\":22853:22854   */\n      0x01\n        /* \"#utility.yul\":22844:22851   */\n      dup3\n        /* \"#utility.yul\":22840:22855   */\n      add\n        /* \"#utility.yul\":22829:22855   */\n      swap2\n      pop\n        /* \"#utility.yul\":22751:22755   */\n      0x20\n        /* \"#utility.yul\":22748:22749   */\n      dup2\n        /* \"#utility.yul\":22744:22756   */\n      add\n        /* \"#utility.yul\":22739:22756   */\n      swap1\n      pop\n        /* \"#utility.yul\":22715:22869   */\n      jump(tag_443)\n    tag_445:\n        /* \"#utility.yul\":22898:22904   */\n      dup4\n        /* \"#utility.yul\":22893:22896   */\n      dup9\n        /* \"#utility.yul\":22889:22905   */\n      add\n        /* \"#utility.yul\":22882:22905   */\n      swap6\n      pop\n        /* \"#utility.yul\":22581:22915   */\n      pop\n      pop\n        /* \"#utility.yul\":22366:22915   */\n    tag_439:\n      pop\n        /* \"#utility.yul\":22154:22921   */\n      pop\n      pop\n        /* \"#utility.yul\":22047:22921   */\n      swap3\n      swap2\n      pop\n      pop\n      jump\t// out\n        /* \"#utility.yul\":22927:23196   */\n    tag_75:\n        /* \"#utility.yul\":23056:23059   */\n      0x00\n        /* \"#utility.yul\":23078:23170   */\n      tag_447\n        /* \"#utility.yul\":23166:23169   */\n      dup3\n        /* \"#utility.yul\":23157:23163   */\n      dup5\n        /* \"#utility.yul\":23078:23170   */\n      tag_219\n      jump\t// in\n    tag_447:\n        /* \"#utility.yul\":23071:23170   */\n      swap2\n      pop\n        /* \"#utility.yul\":23187:23190   */\n      dup2\n        /* \"#utility.yul\":23180:23190   */\n      swap1\n      pop\n        /* \"#utility.yul\":22927:23196   */\n      swap3\n      swap2\n      pop\n      pop\n      jump\t// out\n        /* \"#utility.yul\":23202:23420   */\n    tag_77:\n        /* \"#utility.yul\":23293:23297   */\n      0x00\n        /* \"#utility.yul\":23331:23333   */\n      0x20\n        /* \"#utility.yul\":23320:23329   */\n      dup3\n        /* \"#utility.yul\":23316:23334   */\n      add\n        /* \"#utility.yul\":23308:23334   */\n      swap1\n      pop\n        /* \"#utility.yul\":23344:23413   */\n      tag_449\n        /* \"#utility.yul\":23410:23411   */\n      0x00\n        /* \"#utility.yul\":23399:23408   */\n      dup4\n        /* \"#utility.yul\":23395:23412   */\n      add\n        /* \"#utility.yul\":23386:23392   */\n      dup5\n        /* \"#utility.yul\":23344:23413   */\n      tag_166\n      jump\t// in\n    tag_449:\n        /* \"#utility.yul\":23202:23420   */\n      swap3\n      swap2\n      pop\n      pop\n      jump\t// out\n        /* \"#utility.yul\":23426:23519   */\n    tag_220:\n        /* \"#utility.yul\":23463:23469   */\n      0x00\n        /* \"#utility.yul\":23510:23512   */\n      0x20\n        /* \"#utility.yul\":23505:23507   */\n      0x1f\n        /* \"#utility.yul\":23498:23503   */\n      dup4\n        /* \"#utility.yul\":23494:23508   */\n      add\n        /* \"#utility.yul\":23490:23513   */\n      div\n        /* \"#utility.yul\":23480:23513   */\n      swap1\n      pop\n        /* \"#utility.yul\":23426:23519   */\n      swap2\n      swap1\n      pop\n      jump\t// out\n        /* \"#utility.yul\":23525:23632   */\n    tag_221:\n        /* \"#utility.yul\":23569:23577   */\n      0x00\n        /* \"#utility.yul\":23619:23624   */\n      dup3\n        /* \"#utility.yul\":23613:23617   */\n      dup3\n        /* \"#utility.yul\":23609:23625   */\n      shl\n        /* \"#utility.yul\":23588:23625   */\n      swap1\n      pop\n        /* \"#utility.yul\":23525:23632   */\n      swap3\n      swap2\n      pop\n      pop\n      jump\t// out\n        /* \"#utility.yul\":23638:24031   */\n    tag_222:\n        /* \"#utility.yul\":23707:23713   */\n      0x00\n        /* \"#utility.yul\":23757:23758   */\n      0x08\n        /* \"#utility.yul\":23745:23755   */\n      dup4\n        /* \"#utility.yul\":23741:23759   */\n      mul\n        /* \"#utility.yul\":23780:23877   */\n      tag_453\n        /* \"#utility.yul\":23810:23876   */\n      0xffffffffffffffffffffffffffffffffffffffffffffffffffffffffffffffff\n        /* \"#utility.yul\":23799:23808   */\n      dup3\n        /* \"#utility.yul\":23780:23877   */\n      tag_221\n      jump\t// in\n    tag_453:\n        /* \"#utility.yul\":23898:23937   */\n      tag_454\n        /* \"#utility.yul\":23928:23936   */\n      dup7\n        /* \"#utility.yul\":23917:23926   */\n      dup4\n        /* \"#utility.yul\":23898:23937   */\n      tag_221\n      jump\t// in\n    tag_454:\n        /* \"#utility.yul\":23886:23937   */\n      swap6\n      pop\n        /* \"#utility.yul\":23970:23974   */\n      dup1\n        /* \"#utility.yul\":23966:23975   */\n      not\n        /* \"#utility.yul\":23959:23964   */\n      dup5\n        /* \"#utility.yul\":23955:23976   */\n      and\n        /* \"#utility.yul\":23946:23976   */\n      swap4\n      pop\n        /* \"#utility.yul\":24019:24023   */\n      dup1\n        /* \"#utility.yul\":24009:24017   */\n      dup7\n        /* \"#utility.yul\":24005:24024   */\n      and\n        /* \"#utility.yul\":23998:24003   */\n      dup5\n        /* \"#utility.yul\":23995:24025   */\n      or\n        /* \"#utility.yul\":23985:24025   */\n      swap3\n      pop\n        /* \"#utility.yul\":23714:24031   */\n      pop\n      pop\n        /* \"#utility.yul\":23638:24031   */\n      swap4\n      swap3\n      pop\n      pop\n      pop\n      jump\t// out\n        /* \"#utility.yul\":24037:24097   */\n    tag_223:\n        /* \"#utility.yul\":24065:24068   */\n      0x00\n        /* \"#utility.yul\":24086:24091   */\n      dup2\n        /* \"#utility.yul\":24079:24091   */\n      swap1\n      pop\n        /* \"#utility.yul\":24037:24097   */\n      swap2\n      swap1\n      pop\n      jump\t// out\n        /* \"#utility.yul\":24103:24245   */\n    tag_224:\n        /* \"#utility.yul\":24153:24162   */\n      0x00\n        /* \"#utility.yul\":24186:24239   */\n      tag_457\n        /* \"#utility.yul\":24204:24238   */\n      tag_458\n        /* \"#utility.yul\":24213:24237   */\n      tag_459\n        /* \"#utility.yul\":24231:24236   */\n      dup5\n        /* \"#utility.yul\":24213:24237   */\n      tag_157\n      jump\t// in\n    tag_459:\n        /* \"#utility.yul\":24204:24238   */\n      tag_223\n      jump\t// in\n    tag_458:\n        /* \"#utility.yul\":24186:24239   */\n      tag_157\n      jump\t// in\n    tag_457:\n        /* \"#utility.yul\":24173:24239   */\n      swap1\n      pop\n        /* \"#utility.yul\":24103:24245   */\n      swap2\n      swap1\n      pop\n      jump\t// out\n        /* \"#utility.yul\":24251:24326   */\n    tag_225:\n        /* \"#utility.yul\":24294:24297   */\n      0x00\n        /* \"#utility.yul\":24315:24320   */\n      dup2\n        /* \"#utility.yul\":24308:24320   */\n      swap1\n      pop\n        /* \"#utility.yul\":24251:24326   */\n      swap2\n      swap1\n      pop\n      jump\t// out\n        /* \"#utility.yul\":24332:24601   */\n    tag_226:\n        /* \"#utility.yul\":24442:24481   */\n      tag_462\n        /* \"#utility.yul\":24473:24480   */\n      dup4\n        /* \"#utility.yul\":24442:24481   */\n      tag_224\n      jump\t// in\n    tag_462:\n        /* \"#utility.yul\":24503:24594   */\n      tag_463\n        /* \"#utility.yul\":24552:24593   */\n      tag_464\n        /* \"#utility.yul\":24576:24592   */\n      dup3\n        /* \"#utility.yul\":24552:24593   */\n      tag_225\n      jump\t// in\n    tag_464:\n        /* \"#utility.yul\":24544:24550   */\n      dup5\n        /* \"#utility.yul\":24537:24541   */\n      dup5\n        /* \"#utility.yul\":24531:24542   */\n      sload\n        /* \"#utility.yul\":24503:24594   */\n      tag_222\n      jump\t// in\n    tag_463:\n        /* \"#utility.yul\":24497:24501   */\n      dup3\n        /* \"#utility.yul\":24490:24595   */\n      sstore\n        /* \"#utility.yul\":24408:24601   */\n      pop\n        /* \"#utility.yul\":24332:24601   */\n      pop\n      pop\n      pop\n      jump\t// out\n        /* \"#utility.yul\":24607:24680   */\n    tag_227:\n        /* \"#utility.yul\":24652:24655   */\n      0x00\n        /* \"#utility.yul\":24673:24674   */\n      0x00\n        /* \"#utility.yul\":24666:24674   */\n      swap1\n      pop\n        /* \"#utility.yul\":24607:24680   */\n      swap1\n      jump\t// out\n        /* \"#utility.yul\":24686:24875   */\n    tag_228:\n        /* \"#utility.yul\":24763:24795   */\n      tag_467\n      tag_227\n      jump\t// in\n    tag_467:\n        /* \"#utility.yul\":24804:24869   */\n      tag_468\n        /* \"#utility.yul\":24862:24868   */\n      dup2\n        /* \"#utility.yul\":24854:24860   */\n      dup5\n        /* \"#utility.yul\":24848:24852   */\n      dup5\n        /* \"#utility.yul\":24804:24869   */\n      tag_226\n      jump\t// in\n    tag_468:\n        /* \"#utility.yul\":24739:24875   */\n      pop\n        /* \"#utility.yul\":24686:24875   */\n      pop\n      pop\n      jump\t// out\n        /* \"#utility.yul\":24881:25067   */\n    tag_229:\n        /* \"#utility.yul\":24941:25061   */\n    tag_470:\n        /* \"#utility.yul\":24958:24961   */\n      dup2\n        /* \"#utility.yul\":24951:24956   */\n      dup2\n        /* \"#utility.yul\":24948:24962   */\n      lt\n        /* \"#utility.yul\":24941:25061   */\n      iszero\n      tag_472\n      jumpi\n        /* \"#utility.yul\":25012:25051   */\n      tag_473\n        /* \"#utility.yul\":25049:25050   */\n      0x00\n        /* \"#utility.yul\":25042:25047   */\n      dup3\n        /* \"#utility.yul\":25012:25051   */\n      tag_228\n      jump\t// in\n    tag_473:\n        /* \"#utility.yul\":24985:24986   */\n      0x01\n        /* \"#utility.yul\":24978:24983   */\n      dup2\n        /* \"#utility.yul\":24974:24987   */\n      add\n        /* \"#utility.yul\":24965:24987   */\n      swap1\n      pop\n        /* \"#utility.yul\":24941:25061   */\n      jump(tag_470)\n    tag_472:\n        /* \"#utility.yul\":24881:25067   */\n      pop\n      pop\n      jump\t// out\n        /* \"#utility.yul\":25073:25616   */\n    tag_230:\n        /* \"#utility.yul\":25174:25176   */\n      0x1f\n        /* \"#utility.yul\":25169:25172   */\n      dup3\n        /* \"#utility.yul\":25166:25177   */\n      gt\n        /* \"#utility.yul\":25163:25609   */\n      iszero\n      tag_475\n      jumpi\n        /* \"#utility.yul\":25208:25246   */\n      tag_476\n        /* \"#utility.yul\":25240:25245   */\n      dup2\n        /* \"#utility.yul\":25208:25246   */\n      tag_218\n      jump\t// in\n    tag_476:\n        /* \"#utility.yul\":25292:25321   */\n      tag_477\n        /* \"#utility.yul\":25310:25320   */\n      dup5\n        /* \"#utility.yul\":25292:25321   */\n      tag_220\n      jump\t// in\n    tag_477:\n        /* \"#utility.yul\":25282:25290   */\n      dup2\n        /* \"#utility.yul\":25278:25322   */\n      add\n        /* \"#utility.yul\":25475:25477   */\n      0x20\n        /* \"#utility.yul\":25463:25473   */\n      dup6\n        /* \"#utility.yul\":25460:25478   */\n      lt\n        /* \"#utility.yul\":25457:25506   */\n      iszero\n      tag_478\n      jumpi\n        /* \"#utility.yul\":25496:25504   */\n      dup2\n        /* \"#utility.yul\":25481:25504   */\n      swap1\n      pop\n        /* \"#utility.yul\":25457:25506   */\n    tag_478:\n        /* \"#utility.yul\":25519:25599   */\n      tag_479\n        /* \"#utility.yul\":25575:25597   */\n      tag_480\n        /* \"#utility.yul\":25593:25596   */\n      dup6\n        /* \"#utility.yul\":25575:25597   */\n      tag_220\n      jump\t// in\n    tag_480:\n        /* \"#utility.yul\":25565:25573   */\n      dup4\n        /* \"#utility.yul\":25561:25598   */\n      add\n        /* \"#utility.yul\":25548:25559   */\n      dup3\n        /* \"#utility.yul\":25519:25599   */\n      tag_229\n      jump\t// in\n    tag_479:\n        /* \"#utility.yul\":25178:25609   */\n      pop\n      pop\n        /* \"#utility.yul\":25163:25609   */\n    tag_475:\n        /* \"#utility.yul\":25073:25616   */\n      pop\n      pop\n      pop\n      jump\t// out\n        /* \"#utility.yul\":25622:25739   */\n    tag_231:\n        /* \"#utility.yul\":25676:25684   */\n      0x00\n        /* \"#utility.yul\":25726:25731   */\n      dup3\n        /* \"#utility.yul\":25720:25724   */\n      dup3\n        /* \"#utility.yul\":25716:25732   */\n      shr\n        /* \"#utility.yul\":25695:25732   */\n      swap1\n      pop\n        /* \"#utility.yul\":25622:25739   */\n      swap3\n      swap2\n      pop\n      pop\n      jump\t// out\n        /* \"#utility.yul\":25745:25914   */\n    tag_232:\n        /* \"#utility.yul\":25789:25795   */\n      0x00\n        /* \"#utility.yul\":25822:25873   */\n      tag_483\n        /* \"#utility.yul\":25870:25871   */\n      0x00\n        /* \"#utility.yul\":25866:25872   */\n      not\n        /* \"#utility.yul\":25858:25863   */\n      dup5\n        /* \"#utility.yul\":25855:25856   */\n      0x08\n        /* \"#utility.yul\":25851:25864   */\n      mul\n        /* \"#utility.yul\":25822:25873   */\n      tag_231\n      jump\t// in\n    tag_483:\n        /* \"#utility.yul\":25818:25874   */\n      not\n        /* \"#utility.yul\":25903:25907   */\n      dup1\n        /* \"#utility.yul\":25897:25901   */\n      dup4\n        /* \"#utility.yul\":25893:25908   */\n      and\n        /* \"#utility.yul\":25883:25908   */\n      swap2\n      pop\n        /* \"#utility.yul\":25796:25914   */\n      pop\n        /* \"#utility.yul\":25745:25914   */\n      swap3\n      swap2\n      pop\n      pop\n      jump\t// out\n        /* \"#utility.yul\":25919:26214   */\n    tag_233:\n        /* \"#utility.yul\":25995:25999   */\n      0x00\n        /* \"#utility.yul\":26141:26170   */\n      tag_485\n        /* \"#utility.yul\":26166:26169   */\n      dup4\n        /* \"#utility.yul\":26160:26164   */\n      dup4\n        /* \"#utility.yul\":26141:26170   */\n      tag_232\n      jump\t// in\n    tag_485:\n        /* \"#utility.yul\":26133:26170   */\n      swap2\n      pop\n        /* \"#utility.yul\":26203:26206   */\n      dup3\n        /* \"#utility.yul\":26200:26201   */\n      0x02\n        /* \"#utility.yul\":26196:26207   */\n      mul\n        /* \"#utility.yul\":26190:26194   */\n      dup3\n        /* \"#utility.yul\":26187:26208   */\n      or\n        /* \"#utility.yul\":26179:26208   */\n      swap1\n      pop\n        /* \"#utility.yul\":25919:26214   */\n      swap3\n      swap2\n      pop\n      pop\n      jump\t// out\n        /* \"#utility.yul\":26219:27614   */\n    tag_92:\n        /* \"#utility.yul\":26336:26373   */\n      tag_487\n        /* \"#utility.yul\":26369:26372   */\n      dup3\n        /* \"#utility.yul\":26336:26373   */\n      tag_160\n      jump\t// in\n    tag_487:\n        /* \"#utility.yul\":26438:26456   */\n      0xffffffffffffffff\n        /* \"#utility.yul\":26430:26436   */\n      dup2\n        /* \"#utility.yul\":26427:26457   */\n      gt\n        /* \"#utility.yul\":26424:26480   */\n      iszero\n      tag_488\n      jumpi\n        /* \"#utility.yul\":26460:26478   */\n      tag_489\n      tag_176\n      jump\t// in\n    tag_489:\n        /* \"#utility.yul\":26424:26480   */\n    tag_488:\n        /* \"#utility.yul\":26504:26542   */\n      tag_490\n        /* \"#utility.yul\":26536:26540   */\n      dup3\n        /* \"#utility.yul\":26530:26541   */\n      sload\n        /* \"#utility.yul\":26504:26542   */\n      tag_34\n      jump\t// in\n    tag_490:\n        /* \"#utility.yul\":26589:26656   */\n      tag_491\n        /* \"#utility.yul\":26649:26655   */\n      dup3\n        /* \"#utility.yul\":26641:26647   */\n      dup3\n        /* \"#utility.yul\":26635:26639   */\n      dup6\n        /* \"#utility.yul\":26589:26656   */\n      tag_230\n      jump\t// in\n    tag_491:\n        /* \"#utility.yul\":26683:26684   */\n      0x00\n        /* \"#utility.yul\":26707:26711   */\n      0x20\n        /* \"#utility.yul\":26694:26711   */\n      swap1\n      pop\n        /* \"#utility.yul\":26739:26741   */\n      0x1f\n        /* \"#utility.yul\":26731:26737   */\n      dup4\n        /* \"#utility.yul\":26728:26742   */\n      gt\n        /* \"#utility.yul\":26756:26757   */\n      0x01\n        /* \"#utility.yul\":26751:27369   */\n      dup2\n      eq\n      tag_493\n      jumpi\n        /* \"#utility.yul\":27413:27414   */\n      0x00\n        /* \"#utility.yul\":27430:27436   */\n      dup5\n        /* \"#utility.yul\":27427:27504   */\n      iszero\n      tag_494\n      jumpi\n        /* \"#utility.yul\":27479:27488   */\n      dup3\n        /* \"#utility.yul\":27474:27477   */\n      dup8\n        /* \"#utility.yul\":27470:27489   */\n      add\n        /* \"#utility.yul\":27464:27490   */\n      mload\n        /* \"#utility.yul\":27455:27490   */\n      swap1\n      pop\n        /* \"#utility.yul\":27427:27504   */\n    tag_494:\n        /* \"#utility.yul\":27530:27597   */\n      tag_495\n        /* \"#utility.yul\":27590:27596   */\n      dup6\n        /* \"#utility.yul\":27583:27588   */\n      dup3\n        /* \"#utility.yul\":27530:27597   */\n      tag_233\n      jump\t// in\n    tag_495:\n        /* \"#utility.yul\":27524:27528   */\n      dup7\n        /* \"#utility.yul\":27517:27598   */\n      sstore\n        /* \"#utility.yul\":27386:27608   */\n      pop\n        /* \"#utility.yul\":26721:27608   */\n      jump(tag_492)\n        /* \"#utility.yul\":26751:27369   */\n    tag_493:\n        /* \"#utility.yul\":26803:26807   */\n      0x1f\n        /* \"#utility.yul\":26799:26808   */\n      not\n        /* \"#utility.yul\":26791:26797   */\n      dup5\n        /* \"#utility.yul\":26787:26809   */\n      and\n        /* \"#utility.yul\":26837:26874   */\n      tag_496\n        /* \"#utility.yul\":26869:26873   */\n      dup7\n        /* \"#utility.yul\":26837:26874   */\n      tag_218\n      jump\t// in\n    tag_496:\n        /* \"#utility.yul\":26896:26897   */\n      0x00\n        /* \"#utility.yul\":26910:27118   */\n    tag_497:\n        /* \"#utility.yul\":26924:26931   */\n      dup3\n        /* \"#utility.yul\":26921:26922   */\n      dup2\n        /* \"#utility.yul\":26918:26932   */\n      lt\n        /* \"#utility.yul\":26910:27118   */\n      iszero\n      tag_499\n      jumpi\n        /* \"#utility.yul\":27003:27012   */\n      dup5\n        /* \"#utility.yul\":26998:27001   */\n      dup10\n        /* \"#utility.yul\":26994:27013   */\n      add\n        /* \"#utility.yul\":26988:27014   */\n      mload\n        /* \"#utility.yul\":26980:26986   */\n      dup3\n        /* \"#utility.yul\":26973:27015   */\n      sstore\n        /* \"#utility.yul\":27054:27055   */\n      0x01\n        /* \"#utility.yul\":27046:27052   */\n      dup3\n        /* \"#utility.yul\":27042:27056   */\n      add\n        /* \"#utility.yul\":27032:27056   */\n      swap2\n      pop\n        /* \"#utility.yul\":27101:27103   */\n      0x20\n        /* \"#utility.yul\":27090:27099   */\n      dup6\n        /* \"#utility.yul\":27086:27104   */\n      add\n        /* \"#utility.yul\":27073:27104   */\n      swap5\n      pop\n        /* \"#utility.yul\":26947:26951   */\n      0x20\n        /* \"#utility.yul\":26944:26945   */\n      dup2\n        /* \"#utility.yul\":26940:26952   */\n      add\n        /* \"#utility.yul\":26935:26952   */\n      swap1\n      pop\n        /* \"#utility.yul\":26910:27118   */\n      jump(tag_497)\n    tag_499:\n        /* \"#utility.yul\":27146:27152   */\n      dup7\n        /* \"#utility.yul\":27137:27144   */\n      dup4\n        /* \"#utility.yul\":27134:27153   */\n      lt\n        /* \"#utility.yul\":27131:27310   */\n      iszero\n      tag_500\n      jumpi\n        /* \"#utility.yul\":27204:27213   */\n      dup5\n        /* \"#utility.yul\":27199:27202   */\n      dup10\n        /* \"#utility.yul\":27195:27214   */\n      add\n        /* \"#utility.yul\":27189:27215   */\n      mload\n        /* \"#utility.yul\":27247:27295   */\n      tag_501\n        /* \"#utility.yul\":27289:27293   */\n      0x1f\n        /* \"#utility.yul\":27281:27287   */\n      dup10\n        /* \"#utility.yul\":27277:27294   */\n      and\n        /* \"#utility.yul\":27266:27275   */\n      dup3\n        /* \"#utility.yul\":27247:27295   */\n      tag_232\n      jump\t// in\n    tag_501:\n        /* \"#utility.yul\":27239:27245   */\n      dup4\n        /* \"#utility.yul\":27232:27296   */\n      sstore\n        /* \"#utility.yul\":27154:27310   */\n      pop\n        /* \"#utility.yul\":27131:27310   */\n    tag_500:\n        /* \"#utility.yul\":27356:27357   */\n      0x01\n        /* \"#utility.yul\":27352:27353   */\n      0x02\n        /* \"#utility.yul\":27344:27350   */\n      dup9\n        /* \"#utility.yul\":27340:27354   */\n      mul\n        /* \"#utility.yul\":27336:27358   */\n      add\n        /* \"#utility.yul\":27330:27334   */\n      dup9\n        /* \"#utility.yul\":27323:27359   */\n      sstore\n        /* \"#utility.yul\":26758:27369   */\n      pop\n      pop\n      pop\n        /* \"#utility.yul\":26721:27608   */\n    tag_492:\n      pop\n        /* \"#utility.yul\":26311:27614   */\n      pop\n      pop\n      pop\n        /* \"#utility.yul\":26219:27614   */\n      pop\n      pop\n      jump\t// out\n        /* \"#utility.yul\":27620:28010   */\n    tag_234:\n        /* \"#utility.yul\":27726:27729   */\n      0x00\n        /* \"#utility.yul\":27754:27793   */\n      tag_503\n        /* \"#utility.yul\":27787:27792   */\n      dup3\n        /* \"#utility.yul\":27754:27793   */\n      tag_160\n      jump\t// in\n    tag_503:\n        /* \"#utility.yul\":27809:27898   */\n      tag_504\n        /* \"#utility.yul\":27891:27897   */\n      dup2\n        /* \"#utility.yul\":27886:27889   */\n      dup6\n        /* \"#utility.yul\":27809:27898   */\n      tag_217\n      jump\t// in\n    tag_504:\n        /* \"#utility.yul\":27802:27898   */\n      swap4\n      pop\n        /* \"#utility.yul\":27907:27972   */\n      tag_505\n        /* \"#utility.yul\":27965:27971   */\n      dup2\n        /* \"#utility.yul\":27960:27963   */\n      dup6\n        /* \"#utility.yul\":27953:27957   */\n      0x20\n        /* \"#utility.yul\":27946:27951   */\n      dup7\n        /* \"#utility.yul\":27942:27958   */\n      add\n        /* \"#utility.yul\":27907:27972   */\n      tag_162\n      jump\t// in\n    tag_505:\n        /* \"#utility.yul\":27997:28003   */\n      dup1\n        /* \"#utility.yul\":27992:27995   */\n      dup5\n        /* \"#utility.yul\":27988:28004   */\n      add\n        /* \"#utility.yul\":27981:28004   */\n      swap2\n      pop\n        /* \"#utility.yul\":27730:28010   */\n      pop\n        /* \"#utility.yul\":27620:28010   */\n      swap3\n      swap2\n      pop\n      pop\n      jump\t// out\n        /* \"#utility.yul\":28016:28291   */\n    tag_99:\n        /* \"#utility.yul\":28148:28151   */\n      0x00\n        /* \"#utility.yul\":28170:28265   */\n      tag_507\n        /* \"#utility.yul\":28261:28264   */\n      dup3\n        /* \"#utility.yul\":28252:28258   */\n      dup5\n        /* \"#utility.yul\":28170:28265   */\n      tag_234\n      jump\t// in\n    tag_507:\n        /* \"#utility.yul\":28163:28265   */\n      swap2\n      pop\n        /* \"#utility.yul\":28282:28285   */\n      dup2\n        /* \"#utility.yul\":28275:28285   */\n      swap1\n      pop\n        /* \"#utility.yul\":28016:28291   */\n      swap3\n      swap2\n      pop\n      pop\n      jump\t// out\n\n    auxdata: 0xa2646970667358221220652a5770255ab7c4324079f3bf7623884a49a3aab0bf9def690e6614136df57c64736f6c634300081c0033\n}\n",
				"bytecode": {
					"linkReferences": {},
					"object": "6080604052348015600e575f5ffd5b50611d918061001c5f395ff3fe608060405234801561000f575f5ffd5b5060043610610055575f3560e01c8063013cf08b146100595780635521e3bf1461008d578063bcf2e026146100a9578063cceb68f5146100c5578063dac001fe146100e3575b5f5ffd5b610073600480360381019061006e9190610fd7565b610118565b604051610084959493929190611101565b60405180910390f35b6100a760048036038101906100a29190611196565b61028c565b005b6100c360048036038101906100be9190611317565b6106d9565b005b6100cd6108de565b6040516100da919061163b565b60405180910390f35b6100fd60048036038101906100f89190611196565b610b5d565b60405161010f969594939291906116c7565b60405180910390f35b60018181548110610127575f80fd5b905f5260205f2090600502015f91509050805f01805461014690611768565b80601f016020809104026020016040519081016040528092919081815260200182805461017290611768565b80156101bd5780601f10610194576101008083540402835291602001916101bd565b820191905f5260205f20905b8154815290600101906020018083116101a057829003601f168201915b5050505050908060010180546101d290611768565b80601f01602080910402602001604051908101604052809291908181526020018280546101fe90611768565b80156102495780601f1061022057610100808354040283529160200191610249565b820191905f5260205f20905b81548152906001019060200180831161022c57829003601f168201915b505050505090806002015f9054906101000a900461ffff1690806004015f9054906101000a900461ffff16908060040160029054906101000a900460ff16905085565b5f73ffffffffffffffffffffffffffffffffffffffff163373ffffffffffffffffffffffffffffffffffffffff16036102fa576040517f08c379a00000000000000000000000000000000000000000000000000000000081526004016102f1906117e2565b60405180910390fd5b6001805490508160ff1610610344576040517f08c379a000000000000000000000000000000000000000000000000000000000815260040161033b9061184a565b60405180910390fd5b5f5f3373ffffffffffffffffffffffffffffffffffffffff1673ffffffffffffffffffffffffffffffffffffffff1681526020019081526020015f205f8260ff1660ff1681526020019081526020015f205f9054906101000a900460ff16156103e2576040517f08c379a00000000000000000000000000000000000000000000000000000000081526004016103d9906118b2565b60405180910390fd5b5f60018260ff16815481106103fa576103f96118d0565b5b905f5260205f209060050201905060038081111561041b5761041a61108e565b5b8160040160029054906101000a900460ff16600381111561043f5761043e61108e565b5b0361047f576040517f08c379a00000000000000000000000000000000000000000000000000000000081526004016104769061196d565b60405180910390fd5b6001816002015f8282829054906101000a900461ffff166104a091906119b8565b92506101000a81548161ffff021916908361ffff1602179055508060030133908060018154018082558091505060019003905f5260205f20015f9091909190916101000a81548173ffffffffffffffffffffffffffffffffffffffff021916908373ffffffffffffffffffffffffffffffffffffffff16021790555060028160040160026101000a81548160ff021916908360038111156105445761054361108e565b5b021790555060015f5f3373ffffffffffffffffffffffffffffffffffffffff1673ffffffffffffffffffffffffffffffffffffffff1681526020019081526020015f205f8460ff1660ff1681526020019081526020015f205f6101000a81548160ff021916908315150217905550806004015f9054906101000a900461ffff1661ffff16816002015f9054906101000a900461ffff1661ffff16106106755760038160040160026101000a81548160ff0219169083600381111561060b5761060a61108e565b5b0217905550805f016040516106209190611a89565b60405180910390207ff905f773c0a2b3d406f07062a5f684e9a9e9ee94a78543e4d7e3032a343fe128826002015f9054906101000a900461ffff166040516106689190611a9f565b60405180910390a26106d5565b805f016040516106859190611a89565b60405180910390207e68f5acd04b88bca43c904950734810e6d43b1f13f00da9e450355cad273543826002015f9054906101000a900461ffff166040516106cc9190611a9f565b60405180910390a25b5050565b5f73ffffffffffffffffffffffffffffffffffffffff163373ffffffffffffffffffffffffffffffffffffffff1603610747576040517f08c379a000000000000000000000000000000000000000000000000000000000815260040161073e906117e2565b60405180910390fd5b61074f610ea4565b83815f018190525082816020018190525081816080019061ffff16908161ffff168152505060018160a00190600381111561078d5761078c61108e565b5b908160038111156107a1576107a061108e565b5b81525050600181908060018154018082558091505060019003905f5260205f2090600502015f909190919091505f820151815f0190816107e19190611c46565b5060208201518160010190816107f79190611c46565b506040820151816002015f6101000a81548161ffff021916908361ffff1602179055506060820151816003019080519060200190610836929190610ef1565b506080820151816004015f6101000a81548161ffff021916908361ffff16021790555060a08201518160040160026101000a81548160ff021916908360038111156108845761088361108e565b5b02179055505050836040516108999190611d45565b60405180910390207fd676bd5a867d12796d6ef62a604d07c83bdce30aaf9471431d7772e1ba09e222836040516108d09190611a9f565b60405180910390a250505050565b60606001805480602002602001604051908101604052809291908181526020015f905b82821015610b54578382905f5260205f2090600502016040518060c00160405290815f8201805461093190611768565b80601f016020809104026020016040519081016040528092919081815260200182805461095d90611768565b80156109a85780601f1061097f576101008083540402835291602001916109a8565b820191905f5260205f20905b81548152906001019060200180831161098b57829003601f168201915b505050505081526020016001820180546109c190611768565b80601f01602080910402602001604051908101604052809291908181526020018280546109ed90611768565b8015610a385780601f10610a0f57610100808354040283529160200191610a38565b820191905f5260205f20905b815481529060010190602001808311610a1b57829003601f168201915b50505050508152602001600282015f9054906101000a900461ffff1661ffff1661ffff16815260200160038201805480602002602001604051908101604052809291908181526020018280548015610ae257602002820191905f5260205f20905b815f9054906101000a900473ffffffffffffffffffffffffffffffffffffffff1673ffffffffffffffffffffffffffffffffffffffff1681526020019060010190808311610a99575b50505050508152602001600482015f9054906101000a900461ffff1661ffff1661ffff1681526020016004820160029054906101000a900460ff166003811115610b2f57610b2e61108e565b5b6003811115610b4157610b4061108e565b5b8152505081526020019060010190610901565b50505050905090565b6060805f60605f5f5f73ffffffffffffffffffffffffffffffffffffffff163373ffffffffffffffffffffffffffffffffffffffff1603610bd3576040517f08c379a0000000000000000000000000000000000000000000000000000000008152600401610bca906117e2565b60405180910390fd5b6001805490508760ff1610610c1d576040517f08c379a0000000000000000000000000000000000000000000000000000000008152600401610c149061184a565b60405180910390fd5b5f60018860ff1681548110610c3557610c346118d0565b5b905f5260205f2090600502016040518060c00160405290815f82018054610c5b90611768565b80601f0160208091040260200160405190810160405280929190818152602001828054610c8790611768565b8015610cd25780601f10610ca957610100808354040283529160200191610cd2565b820191905f5260205f20905b815481529060010190602001808311610cb557829003601f168201915b50505050508152602001600182018054610ceb90611768565b80601f0160208091040260200160405190810160405280929190818152602001828054610d1790611768565b8015610d625780601f10610d3957610100808354040283529160200191610d62565b820191905f5260205f20905b815481529060010190602001808311610d4557829003601f168201915b50505050508152602001600282015f9054906101000a900461ffff1661ffff1661ffff16815260200160038201805480602002602001604051908101604052809291908181526020018280548015610e0c57602002820191905f5260205f20905b815f9054906101000a900473ffffffffffffffffffffffffffffffffffffffff1673ffffffffffffffffffffffffffffffffffffffff1681526020019060010190808311610dc3575b50505050508152602001600482015f9054906101000a900461ffff1661ffff1661ffff1681526020016004820160029054906101000a900460ff166003811115610e5957610e5861108e565b5b6003811115610e6b57610e6a61108e565b5b815250509050805f01519650806020015195508060400151945080606001519350806080015192508060a0015191505091939550919395565b6040518060c0016040528060608152602001606081526020015f61ffff168152602001606081526020015f61ffff1681526020015f6003811115610eeb57610eea61108e565b5b81525090565b828054828255905f5260205f20908101928215610f67579160200282015b82811115610f66578251825f6101000a81548173ffffffffffffffffffffffffffffffffffffffff021916908373ffffffffffffffffffffffffffffffffffffffff16021790555091602001919060010190610f0f565b5b509050610f749190610f78565b5090565b5b80821115610f8f575f815f905550600101610f79565b5090565b5f604051905090565b5f5ffd5b5f5ffd5b5f819050919050565b610fb681610fa4565b8114610fc0575f5ffd5b50565b5f81359050610fd181610fad565b92915050565b5f60208284031215610fec57610feb610f9c565b5b5f610ff984828501610fc3565b91505092915050565b5f81519050919050565b5f82825260208201905092915050565b8281835e5f83830152505050565b5f601f19601f8301169050919050565b5f61104482611002565b61104e818561100c565b935061105e81856020860161101c565b6110678161102a565b840191505092915050565b5f61ffff82169050919050565b61108881611072565b82525050565b7f4e487b71000000000000000000000000000000000000000000000000000000005f52602160045260245ffd5b600481106110cc576110cb61108e565b5b50565b5f8190506110dc826110bb565b919050565b5f6110eb826110cf565b9050919050565b6110fb816110e1565b82525050565b5f60a0820190508181035f830152611119818861103a565b9050818103602083015261112d818761103a565b905061113c604083018661107f565b611149606083018561107f565b61115660808301846110f2565b9695505050505050565b5f60ff82169050919050565b61117581611160565b811461117f575f5ffd5b50565b5f813590506111908161116c565b92915050565b5f602082840312156111ab576111aa610f9c565b5b5f6111b884828501611182565b91505092915050565b5f5ffd5b5f5ffd5b7f4e487b71000000000000000000000000000000000000000000000000000000005f52604160045260245ffd5b6111ff8261102a565b810181811067ffffffffffffffff8211171561121e5761121d6111c9565b5b80604052505050565b5f611230610f93565b905061123c82826111f6565b919050565b5f67ffffffffffffffff82111561125b5761125a6111c9565b5b6112648261102a565b9050602081019050919050565b828183375f83830152505050565b5f61129161128c84611241565b611227565b9050828152602081018484840111156112ad576112ac6111c5565b5b6112b8848285611271565b509392505050565b5f82601f8301126112d4576112d36111c1565b5b81356112e484826020860161127f565b91505092915050565b6112f681611072565b8114611300575f5ffd5b50565b5f81359050611311816112ed565b92915050565b5f5f5f6060848603121561132e5761132d610f9c565b5b5f84013567ffffffffffffffff81111561134b5761134a610fa0565b5b611357868287016112c0565b935050602084013567ffffffffffffffff81111561137857611377610fa0565b5b611384868287016112c0565b925050604061139586828701611303565b9150509250925092565b5f81519050919050565b5f82825260208201905092915050565b5f819050602082019050919050565b5f82825260208201905092915050565b5f6113e282611002565b6113ec81856113c8565b93506113fc81856020860161101c565b6114058161102a565b840191505092915050565b61141981611072565b82525050565b5f81519050919050565b5f82825260208201905092915050565b5f819050602082019050919050565b5f73ffffffffffffffffffffffffffffffffffffffff82169050919050565b5f61147182611448565b9050919050565b61148181611467565b82525050565b5f6114928383611478565b60208301905092915050565b5f602082019050919050565b5f6114b48261141f565b6114be8185611429565b93506114c983611439565b805f5b838110156114f95781516114e08882611487565b97506114eb8361149e565b9250506001810190506114cc565b5085935050505092915050565b61150f816110e1565b82525050565b5f60c083015f8301518482035f86015261152f82826113d8565b9150506020830151848203602086015261154982826113d8565b915050604083015161155e6040860182611410565b506060830151848203606086015261157682826114aa565b915050608083015161158b6080860182611410565b5060a083015161159e60a0860182611506565b508091505092915050565b5f6115b48383611515565b905092915050565b5f602082019050919050565b5f6115d28261139f565b6115dc81856113a9565b9350836020820285016115ee856113b9565b805f5b85811015611629578484038952815161160a85826115a9565b9450611615836115bc565b925060208a019950506001810190506115f1565b50829750879550505050505092915050565b5f6020820190508181035f83015261165381846115c8565b905092915050565b5f82825260208201905092915050565b5f6116758261141f565b61167f818561165b565b935061168a83611439565b805f5b838110156116ba5781516116a18882611487565b97506116ac8361149e565b92505060018101905061168d565b5085935050505092915050565b5f60c0820190508181035f8301526116df818961103a565b905081810360208301526116f3818861103a565b9050611702604083018761107f565b8181036060830152611714818661166b565b9050611723608083018561107f565b61173060a08301846110f2565b979650505050505050565b7f4e487b71000000000000000000000000000000000000000000000000000000005f52602260045260245ffd5b5f600282049050600182168061177f57607f821691505b6020821081036117925761179161173b565b5b50919050565b7f5a65726f2061646472657373206973206e6f7420616c6c6f77656400000000005f82015250565b5f6117cc601b8361100c565b91506117d782611798565b602082019050919050565b5f6020820190508181035f8301526117f9816117c0565b9050919050565b7f496e646578206973206f7574206f6620626f756e6400000000000000000000005f82015250565b5f61183460158361100c565b915061183f82611800565b602082019050919050565b5f6020820190508181035f83015261186181611828565b9050919050565b7f596f75206861766520766f74656420616c7265616479000000000000000000005f82015250565b5f61189c60168361100c565b91506118a782611868565b602082019050919050565b5f6020820190508181035f8301526118c981611890565b9050919050565b7f4e487b71000000000000000000000000000000000000000000000000000000005f52603260045260245ffd5b7f546869732070726f706f73616c20686173206265656e206163636570746564205f8201527f616c726561647900000000000000000000000000000000000000000000000000602082015250565b5f61195760278361100c565b9150611962826118fd565b604082019050919050565b5f6020820190508181035f8301526119848161194b565b9050919050565b7f4e487b71000000000000000000000000000000000000000000000000000000005f52601160045260245ffd5b5f6119c282611072565b91506119cd83611072565b9250828201905061ffff8111156119e7576119e661198b565b5b92915050565b5f81905092915050565b5f819050815f5260205f209050919050565b5f8154611a1581611768565b611a1f81866119ed565b9450600182165f8114611a395760018114611a4e57611a80565b60ff1983168652811515820286019350611a80565b611a57856119f7565b5f5b83811015611a7857815481890152600182019150602081019050611a59565b838801955050505b50505092915050565b5f611a948284611a09565b915081905092915050565b5f602082019050611ab25f83018461107f565b92915050565b5f6020601f8301049050919050565b5f82821b905092915050565b5f60088302611b027fffffffffffffffffffffffffffffffffffffffffffffffffffffffffffffffff82611ac7565b611b0c8683611ac7565b95508019841693508086168417925050509392505050565b5f819050919050565b5f611b47611b42611b3d84610fa4565b611b24565b610fa4565b9050919050565b5f819050919050565b611b6083611b2d565b611b74611b6c82611b4e565b848454611ad3565b825550505050565b5f5f905090565b611b8b611b7c565b611b96818484611b57565b505050565b5b81811015611bb957611bae5f82611b83565b600181019050611b9c565b5050565b601f821115611bfe57611bcf816119f7565b611bd884611ab8565b81016020851015611be7578190505b611bfb611bf385611ab8565b830182611b9b565b50505b505050565b5f82821c905092915050565b5f611c1e5f1984600802611c03565b1980831691505092915050565b5f611c368383611c0f565b9150826002028217905092915050565b611c4f82611002565b67ffffffffffffffff811115611c6857611c676111c9565b5b611c728254611768565b611c7d828285611bbd565b5f60209050601f831160018114611cae575f8415611c9c578287015190505b611ca68582611c2b565b865550611d0d565b601f198416611cbc866119f7565b5f5b82811015611ce357848901518255600182019150602085019450602081019050611cbe565b86831015611d005784890151611cfc601f891682611c0f565b8355505b6001600288020188555050505b505050505050565b5f611d1f82611002565b611d2981856119ed565b9350611d3981856020860161101c565b80840191505092915050565b5f611d508284611d15565b91508190509291505056fea2646970667358221220652a5770255ab7c4324079f3bf7623884a49a3aab0bf9def690e6614136df57c64736f6c634300081c0033",
					"opcodes": "PUSH1 0x80 PUSH1 0x40 MSTORE CALLVALUE DUP1 ISZERO PUSH1 0xE JUMPI PUSH0 PUSH0 REVERT JUMPDEST POP PUSH2 0x1D91 DUP1 PUSH2 0x1C PUSH0 CODECOPY PUSH0 RETURN INVALID PUSH1 0x80 PUSH1 0x40 MSTORE CALLVALUE DUP1 ISZERO PUSH2 0xF JUMPI PUSH0 PUSH0 REVERT JUMPDEST POP PUSH1 0x4 CALLDATASIZE LT PUSH2 0x55 JUMPI PUSH0 CALLDATALOAD PUSH1 0xE0 SHR DUP1 PUSH4 0x13CF08B EQ PUSH2 0x59 JUMPI DUP1 PUSH4 0x5521E3BF EQ PUSH2 0x8D JUMPI DUP1 PUSH4 0xBCF2E026 EQ PUSH2 0xA9 JUMPI DUP1 PUSH4 0xCCEB68F5 EQ PUSH2 0xC5 JUMPI DUP1 PUSH4 0xDAC001FE EQ PUSH2 0xE3 JUMPI JUMPDEST PUSH0 PUSH0 REVERT JUMPDEST PUSH2 0x73 PUSH1 0x4 DUP1 CALLDATASIZE SUB DUP2 ADD SWAP1 PUSH2 0x6E SWAP2 SWAP1 PUSH2 0xFD7 JUMP JUMPDEST PUSH2 0x118 JUMP JUMPDEST PUSH1 0x40 MLOAD PUSH2 0x84 SWAP6 SWAP5 SWAP4 SWAP3 SWAP2 SWAP1 PUSH2 0x1101 JUMP JUMPDEST PUSH1 0x40 MLOAD DUP1 SWAP2 SUB SWAP1 RETURN JUMPDEST PUSH2 0xA7 PUSH1 0x4 DUP1 CALLDATASIZE SUB DUP2 ADD SWAP1 PUSH2 0xA2 SWAP2 SWAP1 PUSH2 0x1196 JUMP JUMPDEST PUSH2 0x28C JUMP JUMPDEST STOP JUMPDEST PUSH2 0xC3 PUSH1 0x4 DUP1 CALLDATASIZE SUB DUP2 ADD SWAP1 PUSH2 0xBE SWAP2 SWAP1 PUSH2 0x1317 JUMP JUMPDEST PUSH2 0x6D9 JUMP JUMPDEST STOP JUMPDEST PUSH2 0xCD PUSH2 0x8DE JUMP JUMPDEST PUSH1 0x40 MLOAD PUSH2 0xDA SWAP2 SWAP1 PUSH2 0x163B JUMP JUMPDEST PUSH1 0x40 MLOAD DUP1 SWAP2 SUB SWAP1 RETURN JUMPDEST PUSH2 0xFD PUSH1 0x4 DUP1 CALLDATASIZE SUB DUP2 ADD SWAP1 PUSH2 0xF8 SWAP2 SWAP1 PUSH2 0x1196 JUMP JUMPDEST PUSH2 0xB5D JUMP JUMPDEST PUSH1 0x40 MLOAD PUSH2 0x10F SWAP7 SWAP6 SWAP5 SWAP4 SWAP3 SWAP2 SWAP1 PUSH2 0x16C7 JUMP JUMPDEST PUSH1 0x40 MLOAD DUP1 SWAP2 SUB SWAP1 RETURN JUMPDEST PUSH1 0x1 DUP2 DUP2 SLOAD DUP2 LT PUSH2 0x127 JUMPI PUSH0 DUP1 REVERT JUMPDEST SWAP1 PUSH0 MSTORE PUSH1 0x20 PUSH0 KECCAK256 SWAP1 PUSH1 0x5 MUL ADD PUSH0 SWAP2 POP SWAP1 POP DUP1 PUSH0 ADD DUP1 SLOAD PUSH2 0x146 SWAP1 PUSH2 0x1768 JUMP JUMPDEST DUP1 PUSH1 0x1F ADD PUSH1 0x20 DUP1 SWAP2 DIV MUL PUSH1 0x20 ADD PUSH1 0x40 MLOAD SWAP1 DUP2 ADD PUSH1 0x40 MSTORE DUP1 SWAP3 SWAP2 SWAP1 DUP2 DUP2 MSTORE PUSH1 0x20 ADD DUP3 DUP1 SLOAD PUSH2 0x172 SWAP1 PUSH2 0x1768 JUMP JUMPDEST DUP1 ISZERO PUSH2 0x1BD JUMPI DUP1 PUSH1 0x1F LT PUSH2 0x194 JUMPI PUSH2 0x100 DUP1 DUP4 SLOAD DIV MUL DUP4 MSTORE SWAP2 PUSH1 0x20 ADD SWAP2 PUSH2 0x1BD JUMP JUMPDEST DUP3 ADD SWAP2 SWAP1 PUSH0 MSTORE PUSH1 0x20 PUSH0 KECCAK256 SWAP1 JUMPDEST DUP2 SLOAD DUP2 MSTORE SWAP1 PUSH1 0x1 ADD SWAP1 PUSH1 0x20 ADD DUP1 DUP4 GT PUSH2 0x1A0 JUMPI DUP3 SWAP1 SUB PUSH1 0x1F AND DUP3 ADD SWAP2 JUMPDEST POP POP POP POP POP SWAP1 DUP1 PUSH1 0x1 ADD DUP1 SLOAD PUSH2 0x1D2 SWAP1 PUSH2 0x1768 JUMP JUMPDEST DUP1 PUSH1 0x1F ADD PUSH1 0x20 DUP1 SWAP2 DIV MUL PUSH1 0x20 ADD PUSH1 0x40 MLOAD SWAP1 DUP2 ADD PUSH1 0x40 MSTORE DUP1 SWAP3 SWAP2 SWAP1 DUP2 DUP2 MSTORE PUSH1 0x20 ADD DUP3 DUP1 SLOAD PUSH2 0x1FE SWAP1 PUSH2 0x1768 JUMP JUMPDEST DUP1 ISZERO PUSH2 0x249 JUMPI DUP1 PUSH1 0x1F LT PUSH2 0x220 JUMPI PUSH2 0x100 DUP1 DUP4 SLOAD DIV MUL DUP4 MSTORE SWAP2 PUSH1 0x20 ADD SWAP2 PUSH2 0x249 JUMP JUMPDEST DUP3 ADD SWAP2 SWAP1 PUSH0 MSTORE PUSH1 0x20 PUSH0 KECCAK256 SWAP1 JUMPDEST DUP2 SLOAD DUP2 MSTORE SWAP1 PUSH1 0x1 ADD SWAP1 PUSH1 0x20 ADD DUP1 DUP4 GT PUSH2 0x22C JUMPI DUP3 SWAP1 SUB PUSH1 0x1F AND DUP3 ADD SWAP2 JUMPDEST POP POP POP POP POP SWAP1 DUP1 PUSH1 0x2 ADD PUSH0 SWAP1 SLOAD SWAP1 PUSH2 0x100 EXP SWAP1 DIV PUSH2 0xFFFF AND SWAP1 DUP1 PUSH1 0x4 ADD PUSH0 SWAP1 SLOAD SWAP1 PUSH2 0x100 EXP SWAP1 DIV PUSH2 0xFFFF AND SWAP1 DUP1 PUSH1 0x4 ADD PUSH1 0x2 SWAP1 SLOAD SWAP1 PUSH2 0x100 EXP SWAP1 DIV PUSH1 0xFF AND SWAP1 POP DUP6 JUMP JUMPDEST PUSH0 PUSH20 0xFFFFFFFFFFFFFFFFFFFFFFFFFFFFFFFFFFFFFFFF AND CALLER PUSH20 0xFFFFFFFFFFFFFFFFFFFFFFFFFFFFFFFFFFFFFFFF AND SUB PUSH2 0x2FA JUMPI PUSH1 0x40 MLOAD PUSH32 0x8C379A000000000000000000000000000000000000000000000000000000000 DUP2 MSTORE PUSH1 0x4 ADD PUSH2 0x2F1 SWAP1 PUSH2 0x17E2 JUMP JUMPDEST PUSH1 0x40 MLOAD DUP1 SWAP2 SUB SWAP1 REVERT JUMPDEST PUSH1 0x1 DUP1 SLOAD SWAP1 POP DUP2 PUSH1 0xFF AND LT PUSH2 0x344 JUMPI PUSH1 0x40 MLOAD PUSH32 0x8C379A000000000000000000000000000000000000000000000000000000000 DUP2 MSTORE PUSH1 0x4 ADD PUSH2 0x33B SWAP1 PUSH2 0x184A JUMP JUMPDEST PUSH1 0x40 MLOAD DUP1 SWAP2 SUB SWAP1 REVERT JUMPDEST PUSH0 PUSH0 CALLER PUSH20 0xFFFFFFFFFFFFFFFFFFFFFFFFFFFFFFFFFFFFFFFF AND PUSH20 0xFFFFFFFFFFFFFFFFFFFFFFFFFFFFFFFFFFFFFFFF AND DUP2 MSTORE PUSH1 0x20 ADD SWAP1 DUP2 MSTORE PUSH1 0x20 ADD PUSH0 KECCAK256 PUSH0 DUP3 PUSH1 0xFF AND PUSH1 0xFF AND DUP2 MSTORE PUSH1 0x20 ADD SWAP1 DUP2 MSTORE PUSH1 0x20 ADD PUSH0 KECCAK256 PUSH0 SWAP1 SLOAD SWAP1 PUSH2 0x100 EXP SWAP1 DIV PUSH1 0xFF AND ISZERO PUSH2 0x3E2 JUMPI PUSH1 0x40 MLOAD PUSH32 0x8C379A000000000000000000000000000000000000000000000000000000000 DUP2 MSTORE PUSH1 0x4 ADD PUSH2 0x3D9 SWAP1 PUSH2 0x18B2 JUMP JUMPDEST PUSH1 0x40 MLOAD DUP1 SWAP2 SUB SWAP1 REVERT JUMPDEST PUSH0 PUSH1 0x1 DUP3 PUSH1 0xFF AND DUP2 SLOAD DUP2 LT PUSH2 0x3FA JUMPI PUSH2 0x3F9 PUSH2 0x18D0 JUMP JUMPDEST JUMPDEST SWAP1 PUSH0 MSTORE PUSH1 0x20 PUSH0 KECCAK256 SWAP1 PUSH1 0x5 MUL ADD SWAP1 POP PUSH1 0x3 DUP1 DUP2 GT ISZERO PUSH2 0x41B JUMPI PUSH2 0x41A PUSH2 0x108E JUMP JUMPDEST JUMPDEST DUP2 PUSH1 0x4 ADD PUSH1 0x2 SWAP1 SLOAD SWAP1 PUSH2 0x100 EXP SWAP1 DIV PUSH1 0xFF AND PUSH1 0x3 DUP2 GT ISZERO PUSH2 0x43F JUMPI PUSH2 0x43E PUSH2 0x108E JUMP JUMPDEST JUMPDEST SUB PUSH2 0x47F JUMPI PUSH1 0x40 MLOAD PUSH32 0x8C379A000000000000000000000000000000000000000000000000000000000 DUP2 MSTORE PUSH1 0x4 ADD PUSH2 0x476 SWAP1 PUSH2 0x196D JUMP JUMPDEST PUSH1 0x40 MLOAD DUP1 SWAP2 SUB SWAP1 REVERT JUMPDEST PUSH1 0x1 DUP2 PUSH1 0x2 ADD PUSH0 DUP3 DUP3 DUP3 SWAP1 SLOAD SWAP1 PUSH2 0x100 EXP SWAP1 DIV PUSH2 0xFFFF AND PUSH2 0x4A0 SWAP2 SWAP1 PUSH2 0x19B8 JUMP JUMPDEST SWAP3 POP PUSH2 0x100 EXP DUP2 SLOAD DUP2 PUSH2 0xFFFF MUL NOT AND SWAP1 DUP4 PUSH2 0xFFFF AND MUL OR SWAP1 SSTORE POP DUP1 PUSH1 0x3 ADD CALLER SWAP1 DUP1 PUSH1 0x1 DUP2 SLOAD ADD DUP1 DUP3 SSTORE DUP1 SWAP2 POP POP PUSH1 0x1 SWAP1 SUB SWAP1 PUSH0 MSTORE PUSH1 0x20 PUSH0 KECCAK256 ADD PUSH0 SWAP1 SWAP2 SWAP1 SWAP2 SWAP1 SWAP2 PUSH2 0x100 EXP DUP2 SLOAD DUP2 PUSH20 0xFFFFFFFFFFFFFFFFFFFFFFFFFFFFFFFFFFFFFFFF MUL NOT AND SWAP1 DUP4 PUSH20 0xFFFFFFFFFFFFFFFFFFFFFFFFFFFFFFFFFFFFFFFF AND MUL OR SWAP1 SSTORE POP PUSH1 0x2 DUP2 PUSH1 0x4 ADD PUSH1 0x2 PUSH2 0x100 EXP DUP2 SLOAD DUP2 PUSH1 0xFF MUL NOT AND SWAP1 DUP4 PUSH1 0x3 DUP2 GT ISZERO PUSH2 0x544 JUMPI PUSH2 0x543 PUSH2 0x108E JUMP JUMPDEST JUMPDEST MUL OR SWAP1 SSTORE POP PUSH1 0x1 PUSH0 PUSH0 CALLER PUSH20 0xFFFFFFFFFFFFFFFFFFFFFFFFFFFFFFFFFFFFFFFF AND PUSH20 0xFFFFFFFFFFFFFFFFFFFFFFFFFFFFFFFFFFFFFFFF AND DUP2 MSTORE PUSH1 0x20 ADD SWAP1 DUP2 MSTORE PUSH1 0x20 ADD PUSH0 KECCAK256 PUSH0 DUP5 PUSH1 0xFF AND PUSH1 0xFF AND DUP2 MSTORE PUSH1 0x20 ADD SWAP1 DUP2 MSTORE PUSH1 0x20 ADD PUSH0 KECCAK256 PUSH0 PUSH2 0x100 EXP DUP2 SLOAD DUP2 PUSH1 0xFF MUL NOT AND SWAP1 DUP4 ISZERO ISZERO MUL OR SWAP1 SSTORE POP DUP1 PUSH1 0x4 ADD PUSH0 SWAP1 SLOAD SWAP1 PUSH2 0x100 EXP SWAP1 DIV PUSH2 0xFFFF AND PUSH2 0xFFFF AND DUP2 PUSH1 0x2 ADD PUSH0 SWAP1 SLOAD SWAP1 PUSH2 0x100 EXP SWAP1 DIV PUSH2 0xFFFF AND PUSH2 0xFFFF AND LT PUSH2 0x675 JUMPI PUSH1 0x3 DUP2 PUSH1 0x4 ADD PUSH1 0x2 PUSH2 0x100 EXP DUP2 SLOAD DUP2 PUSH1 0xFF MUL NOT AND SWAP1 DUP4 PUSH1 0x3 DUP2 GT ISZERO PUSH2 0x60B JUMPI PUSH2 0x60A PUSH2 0x108E JUMP JUMPDEST JUMPDEST MUL OR SWAP1 SSTORE POP DUP1 PUSH0 ADD PUSH1 0x40 MLOAD PUSH2 0x620 SWAP2 SWAP1 PUSH2 0x1A89 JUMP JUMPDEST PUSH1 0x40 MLOAD DUP1 SWAP2 SUB SWAP1 KECCAK256 PUSH32 0xF905F773C0A2B3D406F07062A5F684E9A9E9EE94A78543E4D7E3032A343FE128 DUP3 PUSH1 0x2 ADD PUSH0 SWAP1 SLOAD SWAP1 PUSH2 0x100 EXP SWAP1 DIV PUSH2 0xFFFF AND PUSH1 0x40 MLOAD PUSH2 0x668 SWAP2 SWAP1 PUSH2 0x1A9F JUMP JUMPDEST PUSH1 0x40 MLOAD DUP1 SWAP2 SUB SWAP1 LOG2 PUSH2 0x6D5 JUMP JUMPDEST DUP1 PUSH0 ADD PUSH1 0x40 MLOAD PUSH2 0x685 SWAP2 SWAP1 PUSH2 0x1A89 JUMP JUMPDEST PUSH1 0x40 MLOAD DUP1 SWAP2 SUB SWAP1 KECCAK256 PUSH31 0x68F5ACD04B88BCA43C904950734810E6D43B1F13F00DA9E450355CAD273543 DUP3 PUSH1 0x2 ADD PUSH0 SWAP1 SLOAD SWAP1 PUSH2 0x100 EXP SWAP1 DIV PUSH2 0xFFFF AND PUSH1 0x40 MLOAD PUSH2 0x6CC SWAP2 SWAP1 PUSH2 0x1A9F JUMP JUMPDEST PUSH1 0x40 MLOAD DUP1 SWAP2 SUB SWAP1 LOG2 JUMPDEST POP POP JUMP JUMPDEST PUSH0 PUSH20 0xFFFFFFFFFFFFFFFFFFFFFFFFFFFFFFFFFFFFFFFF AND CALLER PUSH20 0xFFFFFFFFFFFFFFFFFFFFFFFFFFFFFFFFFFFFFFFF AND SUB PUSH2 0x747 JUMPI PUSH1 0x40 MLOAD PUSH32 0x8C379A000000000000000000000000000000000000000000000000000000000 DUP2 MSTORE PUSH1 0x4 ADD PUSH2 0x73E SWAP1 PUSH2 0x17E2 JUMP JUMPDEST PUSH1 0x40 MLOAD DUP1 SWAP2 SUB SWAP1 REVERT JUMPDEST PUSH2 0x74F PUSH2 0xEA4 JUMP JUMPDEST DUP4 DUP2 PUSH0 ADD DUP2 SWAP1 MSTORE POP DUP3 DUP2 PUSH1 0x20 ADD DUP2 SWAP1 MSTORE POP DUP2 DUP2 PUSH1 0x80 ADD SWAP1 PUSH2 0xFFFF AND SWAP1 DUP2 PUSH2 0xFFFF AND DUP2 MSTORE POP POP PUSH1 0x1 DUP2 PUSH1 0xA0 ADD SWAP1 PUSH1 0x3 DUP2 GT ISZERO PUSH2 0x78D JUMPI PUSH2 0x78C PUSH2 0x108E JUMP JUMPDEST JUMPDEST SWAP1 DUP2 PUSH1 0x3 DUP2 GT ISZERO PUSH2 0x7A1 JUMPI PUSH2 0x7A0 PUSH2 0x108E JUMP JUMPDEST JUMPDEST DUP2 MSTORE POP POP PUSH1 0x1 DUP2 SWAP1 DUP1 PUSH1 0x1 DUP2 SLOAD ADD DUP1 DUP3 SSTORE DUP1 SWAP2 POP POP PUSH1 0x1 SWAP1 SUB SWAP1 PUSH0 MSTORE PUSH1 0x20 PUSH0 KECCAK256 SWAP1 PUSH1 0x5 MUL ADD PUSH0 SWAP1 SWAP2 SWAP1 SWAP2 SWAP1 SWAP2 POP PUSH0 DUP3 ADD MLOAD DUP2 PUSH0 ADD SWAP1 DUP2 PUSH2 0x7E1 SWAP2 SWAP1 PUSH2 0x1C46 JUMP JUMPDEST POP PUSH1 0x20 DUP3 ADD MLOAD DUP2 PUSH1 0x1 ADD SWAP1 DUP2 PUSH2 0x7F7 SWAP2 SWAP1 PUSH2 0x1C46 JUMP JUMPDEST POP PUSH1 0x40 DUP3 ADD MLOAD DUP2 PUSH1 0x2 ADD PUSH0 PUSH2 0x100 EXP DUP2 SLOAD DUP2 PUSH2 0xFFFF MUL NOT AND SWAP1 DUP4 PUSH2 0xFFFF AND MUL OR SWAP1 SSTORE POP PUSH1 0x60 DUP3 ADD MLOAD DUP2 PUSH1 0x3 ADD SWAP1 DUP1 MLOAD SWAP1 PUSH1 0x20 ADD SWAP1 PUSH2 0x836 SWAP3 SWAP2 SWAP1 PUSH2 0xEF1 JUMP JUMPDEST POP PUSH1 0x80 DUP3 ADD MLOAD DUP2 PUSH1 0x4 ADD PUSH0 PUSH2 0x100 EXP DUP2 SLOAD DUP2 PUSH2 0xFFFF MUL NOT AND SWAP1 DUP4 PUSH2 0xFFFF AND MUL OR SWAP1 SSTORE POP PUSH1 0xA0 DUP3 ADD MLOAD DUP2 PUSH1 0x4 ADD PUSH1 0x2 PUSH2 0x100 EXP DUP2 SLOAD DUP2 PUSH1 0xFF MUL NOT AND SWAP1 DUP4 PUSH1 0x3 DUP2 GT ISZERO PUSH2 0x884 JUMPI PUSH2 0x883 PUSH2 0x108E JUMP JUMPDEST JUMPDEST MUL OR SWAP1 SSTORE POP POP POP DUP4 PUSH1 0x40 MLOAD PUSH2 0x899 SWAP2 SWAP1 PUSH2 0x1D45 JUMP JUMPDEST PUSH1 0x40 MLOAD DUP1 SWAP2 SUB SWAP1 KECCAK256 PUSH32 0xD676BD5A867D12796D6EF62A604D07C83BDCE30AAF9471431D7772E1BA09E222 DUP4 PUSH1 0x40 MLOAD PUSH2 0x8D0 SWAP2 SWAP1 PUSH2 0x1A9F JUMP JUMPDEST PUSH1 0x40 MLOAD DUP1 SWAP2 SUB SWAP1 LOG2 POP POP POP POP JUMP JUMPDEST PUSH1 0x60 PUSH1 0x1 DUP1 SLOAD DUP1 PUSH1 0x20 MUL PUSH1 0x20 ADD PUSH1 0x40 MLOAD SWAP1 DUP2 ADD PUSH1 0x40 MSTORE DUP1 SWAP3 SWAP2 SWAP1 DUP2 DUP2 MSTORE PUSH1 0x20 ADD PUSH0 SWAP1 JUMPDEST DUP3 DUP3 LT ISZERO PUSH2 0xB54 JUMPI DUP4 DUP3 SWAP1 PUSH0 MSTORE PUSH1 0x20 PUSH0 KECCAK256 SWAP1 PUSH1 0x5 MUL ADD PUSH1 0x40 MLOAD DUP1 PUSH1 0xC0 ADD PUSH1 0x40 MSTORE SWAP1 DUP2 PUSH0 DUP3 ADD DUP1 SLOAD PUSH2 0x931 SWAP1 PUSH2 0x1768 JUMP JUMPDEST DUP1 PUSH1 0x1F ADD PUSH1 0x20 DUP1 SWAP2 DIV MUL PUSH1 0x20 ADD PUSH1 0x40 MLOAD SWAP1 DUP2 ADD PUSH1 0x40 MSTORE DUP1 SWAP3 SWAP2 SWAP1 DUP2 DUP2 MSTORE PUSH1 0x20 ADD DUP3 DUP1 SLOAD PUSH2 0x95D SWAP1 PUSH2 0x1768 JUMP JUMPDEST DUP1 ISZERO PUSH2 0x9A8 JUMPI DUP1 PUSH1 0x1F LT PUSH2 0x97F JUMPI PUSH2 0x100 DUP1 DUP4 SLOAD DIV MUL DUP4 MSTORE SWAP2 PUSH1 0x20 ADD SWAP2 PUSH2 0x9A8 JUMP JUMPDEST DUP3 ADD SWAP2 SWAP1 PUSH0 MSTORE PUSH1 0x20 PUSH0 KECCAK256 SWAP1 JUMPDEST DUP2 SLOAD DUP2 MSTORE SWAP1 PUSH1 0x1 ADD SWAP1 PUSH1 0x20 ADD DUP1 DUP4 GT PUSH2 0x98B JUMPI DUP3 SWAP1 SUB PUSH1 0x1F AND DUP3 ADD SWAP2 JUMPDEST POP POP POP POP POP DUP2 MSTORE PUSH1 0x20 ADD PUSH1 0x1 DUP3 ADD DUP1 SLOAD PUSH2 0x9C1 SWAP1 PUSH2 0x1768 JUMP JUMPDEST DUP1 PUSH1 0x1F ADD PUSH1 0x20 DUP1 SWAP2 DIV MUL PUSH1 0x20 ADD PUSH1 0x40 MLOAD SWAP1 DUP2 ADD PUSH1 0x40 MSTORE DUP1 SWAP3 SWAP2 SWAP1 DUP2 DUP2 MSTORE PUSH1 0x20 ADD DUP3 DUP1 SLOAD PUSH2 0x9ED SWAP1 PUSH2 0x1768 JUMP JUMPDEST DUP1 ISZERO PUSH2 0xA38 JUMPI DUP1 PUSH1 0x1F LT PUSH2 0xA0F JUMPI PUSH2 0x100 DUP1 DUP4 SLOAD DIV MUL DUP4 MSTORE SWAP2 PUSH1 0x20 ADD SWAP2 PUSH2 0xA38 JUMP JUMPDEST DUP3 ADD SWAP2 SWAP1 PUSH0 MSTORE PUSH1 0x20 PUSH0 KECCAK256 SWAP1 JUMPDEST DUP2 SLOAD DUP2 MSTORE SWAP1 PUSH1 0x1 ADD SWAP1 PUSH1 0x20 ADD DUP1 DUP4 GT PUSH2 0xA1B JUMPI DUP3 SWAP1 SUB PUSH1 0x1F AND DUP3 ADD SWAP2 JUMPDEST POP POP POP POP POP DUP2 MSTORE PUSH1 0x20 ADD PUSH1 0x2 DUP3 ADD PUSH0 SWAP1 SLOAD SWAP1 PUSH2 0x100 EXP SWAP1 DIV PUSH2 0xFFFF AND PUSH2 0xFFFF AND PUSH2 0xFFFF AND DUP2 MSTORE PUSH1 0x20 ADD PUSH1 0x3 DUP3 ADD DUP1 SLOAD DUP1 PUSH1 0x20 MUL PUSH1 0x20 ADD PUSH1 0x40 MLOAD SWAP1 DUP2 ADD PUSH1 0x40 MSTORE DUP1 SWAP3 SWAP2 SWAP1 DUP2 DUP2 MSTORE PUSH1 0x20 ADD DUP3 DUP1 SLOAD DUP1 ISZERO PUSH2 0xAE2 JUMPI PUSH1 0x20 MUL DUP3 ADD SWAP2 SWAP1 PUSH0 MSTORE PUSH1 0x20 PUSH0 KECCAK256 SWAP1 JUMPDEST DUP2 PUSH0 SWAP1 SLOAD SWAP1 PUSH2 0x100 EXP SWAP1 DIV PUSH20 0xFFFFFFFFFFFFFFFFFFFFFFFFFFFFFFFFFFFFFFFF AND PUSH20 0xFFFFFFFFFFFFFFFFFFFFFFFFFFFFFFFFFFFFFFFF AND DUP2 MSTORE PUSH1 0x20 ADD SWAP1 PUSH1 0x1 ADD SWAP1 DUP1 DUP4 GT PUSH2 0xA99 JUMPI JUMPDEST POP POP POP POP POP DUP2 MSTORE PUSH1 0x20 ADD PUSH1 0x4 DUP3 ADD PUSH0 SWAP1 SLOAD SWAP1 PUSH2 0x100 EXP SWAP1 DIV PUSH2 0xFFFF AND PUSH2 0xFFFF AND PUSH2 0xFFFF AND DUP2 MSTORE PUSH1 0x20 ADD PUSH1 0x4 DUP3 ADD PUSH1 0x2 SWAP1 SLOAD SWAP1 PUSH2 0x100 EXP SWAP1 DIV PUSH1 0xFF AND PUSH1 0x3 DUP2 GT ISZERO PUSH2 0xB2F JUMPI PUSH2 0xB2E PUSH2 0x108E JUMP JUMPDEST JUMPDEST PUSH1 0x3 DUP2 GT ISZERO PUSH2 0xB41 JUMPI PUSH2 0xB40 PUSH2 0x108E JUMP JUMPDEST JUMPDEST DUP2 MSTORE POP POP DUP2 MSTORE PUSH1 0x20 ADD SWAP1 PUSH1 0x1 ADD SWAP1 PUSH2 0x901 JUMP JUMPDEST POP POP POP POP SWAP1 POP SWAP1 JUMP JUMPDEST PUSH1 0x60 DUP1 PUSH0 PUSH1 0x60 PUSH0 PUSH0 PUSH0 PUSH20 0xFFFFFFFFFFFFFFFFFFFFFFFFFFFFFFFFFFFFFFFF AND CALLER PUSH20 0xFFFFFFFFFFFFFFFFFFFFFFFFFFFFFFFFFFFFFFFF AND SUB PUSH2 0xBD3 JUMPI PUSH1 0x40 MLOAD PUSH32 0x8C379A000000000000000000000000000000000000000000000000000000000 DUP2 MSTORE PUSH1 0x4 ADD PUSH2 0xBCA SWAP1 PUSH2 0x17E2 JUMP JUMPDEST PUSH1 0x40 MLOAD DUP1 SWAP2 SUB SWAP1 REVERT JUMPDEST PUSH1 0x1 DUP1 SLOAD SWAP1 POP DUP8 PUSH1 0xFF AND LT PUSH2 0xC1D JUMPI PUSH1 0x40 MLOAD PUSH32 0x8C379A000000000000000000000000000000000000000000000000000000000 DUP2 MSTORE PUSH1 0x4 ADD PUSH2 0xC14 SWAP1 PUSH2 0x184A JUMP JUMPDEST PUSH1 0x40 MLOAD DUP1 SWAP2 SUB SWAP1 REVERT JUMPDEST PUSH0 PUSH1 0x1 DUP9 PUSH1 0xFF AND DUP2 SLOAD DUP2 LT PUSH2 0xC35 JUMPI PUSH2 0xC34 PUSH2 0x18D0 JUMP JUMPDEST JUMPDEST SWAP1 PUSH0 MSTORE PUSH1 0x20 PUSH0 KECCAK256 SWAP1 PUSH1 0x5 MUL ADD PUSH1 0x40 MLOAD DUP1 PUSH1 0xC0 ADD PUSH1 0x40 MSTORE SWAP1 DUP2 PUSH0 DUP3 ADD DUP1 SLOAD PUSH2 0xC5B SWAP1 PUSH2 0x1768 JUMP JUMPDEST DUP1 PUSH1 0x1F ADD PUSH1 0x20 DUP1 SWAP2 DIV MUL PUSH1 0x20 ADD PUSH1 0x40 MLOAD SWAP1 DUP2 ADD PUSH1 0x40 MSTORE DUP1 SWAP3 SWAP2 SWAP1 DUP2 DUP2 MSTORE PUSH1 0x20 ADD DUP3 DUP1 SLOAD PUSH2 0xC87 SWAP1 PUSH2 0x1768 JUMP JUMPDEST DUP1 ISZERO PUSH2 0xCD2 JUMPI DUP1 PUSH1 0x1F LT PUSH2 0xCA9 JUMPI PUSH2 0x100 DUP1 DUP4 SLOAD DIV MUL DUP4 MSTORE SWAP2 PUSH1 0x20 ADD SWAP2 PUSH2 0xCD2 JUMP JUMPDEST DUP3 ADD SWAP2 SWAP1 PUSH0 MSTORE PUSH1 0x20 PUSH0 KECCAK256 SWAP1 JUMPDEST DUP2 SLOAD DUP2 MSTORE SWAP1 PUSH1 0x1 ADD SWAP1 PUSH1 0x20 ADD DUP1 DUP4 GT PUSH2 0xCB5 JUMPI DUP3 SWAP1 SUB PUSH1 0x1F AND DUP3 ADD SWAP2 JUMPDEST POP POP POP POP POP DUP2 MSTORE PUSH1 0x20 ADD PUSH1 0x1 DUP3 ADD DUP1 SLOAD PUSH2 0xCEB SWAP1 PUSH2 0x1768 JUMP JUMPDEST DUP1 PUSH1 0x1F ADD PUSH1 0x20 DUP1 SWAP2 DIV MUL PUSH1 0x20 ADD PUSH1 0x40 MLOAD SWAP1 DUP2 ADD PUSH1 0x40 MSTORE DUP1 SWAP3 SWAP2 SWAP1 DUP2 DUP2 MSTORE PUSH1 0x20 ADD DUP3 DUP1 SLOAD PUSH2 0xD17 SWAP1 PUSH2 0x1768 JUMP JUMPDEST DUP1 ISZERO PUSH2 0xD62 JUMPI DUP1 PUSH1 0x1F LT PUSH2 0xD39 JUMPI PUSH2 0x100 DUP1 DUP4 SLOAD DIV MUL DUP4 MSTORE SWAP2 PUSH1 0x20 ADD SWAP2 PUSH2 0xD62 JUMP JUMPDEST DUP3 ADD SWAP2 SWAP1 PUSH0 MSTORE PUSH1 0x20 PUSH0 KECCAK256 SWAP1 JUMPDEST DUP2 SLOAD DUP2 MSTORE SWAP1 PUSH1 0x1 ADD SWAP1 PUSH1 0x20 ADD DUP1 DUP4 GT PUSH2 0xD45 JUMPI DUP3 SWAP1 SUB PUSH1 0x1F AND DUP3 ADD SWAP2 JUMPDEST POP POP POP POP POP DUP2 MSTORE PUSH1 0x20 ADD PUSH1 0x2 DUP3 ADD PUSH0 SWAP1 SLOAD SWAP1 PUSH2 0x100 EXP SWAP1 DIV PUSH2 0xFFFF AND PUSH2 0xFFFF AND PUSH2 0xFFFF AND DUP2 MSTORE PUSH1 0x20 ADD PUSH1 0x3 DUP3 ADD DUP1 SLOAD DUP1 PUSH1 0x20 MUL PUSH1 0x20 ADD PUSH1 0x40 MLOAD SWAP1 DUP2 ADD PUSH1 0x40 MSTORE DUP1 SWAP3 SWAP2 SWAP1 DUP2 DUP2 MSTORE PUSH1 0x20 ADD DUP3 DUP1 SLOAD DUP1 ISZERO PUSH2 0xE0C JUMPI PUSH1 0x20 MUL DUP3 ADD SWAP2 SWAP1 PUSH0 MSTORE PUSH1 0x20 PUSH0 KECCAK256 SWAP1 JUMPDEST DUP2 PUSH0 SWAP1 SLOAD SWAP1 PUSH2 0x100 EXP SWAP1 DIV PUSH20 0xFFFFFFFFFFFFFFFFFFFFFFFFFFFFFFFFFFFFFFFF AND PUSH20 0xFFFFFFFFFFFFFFFFFFFFFFFFFFFFFFFFFFFFFFFF AND DUP2 MSTORE PUSH1 0x20 ADD SWAP1 PUSH1 0x1 ADD SWAP1 DUP1 DUP4 GT PUSH2 0xDC3 JUMPI JUMPDEST POP POP POP POP POP DUP2 MSTORE PUSH1 0x20 ADD PUSH1 0x4 DUP3 ADD PUSH0 SWAP1 SLOAD SWAP1 PUSH2 0x100 EXP SWAP1 DIV PUSH2 0xFFFF AND PUSH2 0xFFFF AND PUSH2 0xFFFF AND DUP2 MSTORE PUSH1 0x20 ADD PUSH1 0x4 DUP3 ADD PUSH1 0x2 SWAP1 SLOAD SWAP1 PUSH2 0x100 EXP SWAP1 DIV PUSH1 0xFF AND PUSH1 0x3 DUP2 GT ISZERO PUSH2 0xE59 JUMPI PUSH2 0xE58 PUSH2 0x108E JUMP JUMPDEST JUMPDEST PUSH1 0x3 DUP2 GT ISZERO PUSH2 0xE6B JUMPI PUSH2 0xE6A PUSH2 0x108E JUMP JUMPDEST JUMPDEST DUP2 MSTORE POP POP SWAP1 POP DUP1 PUSH0 ADD MLOAD SWAP7 POP DUP1 PUSH1 0x20 ADD MLOAD SWAP6 POP DUP1 PUSH1 0x40 ADD MLOAD SWAP5 POP DUP1 PUSH1 0x60 ADD MLOAD SWAP4 POP DUP1 PUSH1 0x80 ADD MLOAD SWAP3 POP DUP1 PUSH1 0xA0 ADD MLOAD SWAP2 POP POP SWAP2 SWAP4 SWAP6 POP SWAP2 SWAP4 SWAP6 JUMP JUMPDEST PUSH1 0x40 MLOAD DUP1 PUSH1 0xC0 ADD PUSH1 0x40 MSTORE DUP1 PUSH1 0x60 DUP2 MSTORE PUSH1 0x20 ADD PUSH1 0x60 DUP2 MSTORE PUSH1 0x20 ADD PUSH0 PUSH2 0xFFFF AND DUP2 MSTORE PUSH1 0x20 ADD PUSH1 0x60 DUP2 MSTORE PUSH1 0x20 ADD PUSH0 PUSH2 0xFFFF AND DUP2 MSTORE PUSH1 0x20 ADD PUSH0 PUSH1 0x3 DUP2 GT ISZERO PUSH2 0xEEB JUMPI PUSH2 0xEEA PUSH2 0x108E JUMP JUMPDEST JUMPDEST DUP2 MSTORE POP SWAP1 JUMP JUMPDEST DUP3 DUP1 SLOAD DUP3 DUP3 SSTORE SWAP1 PUSH0 MSTORE PUSH1 0x20 PUSH0 KECCAK256 SWAP1 DUP2 ADD SWAP3 DUP3 ISZERO PUSH2 0xF67 JUMPI SWAP2 PUSH1 0x20 MUL DUP3 ADD JUMPDEST DUP3 DUP2 GT ISZERO PUSH2 0xF66 JUMPI DUP3 MLOAD DUP3 PUSH0 PUSH2 0x100 EXP DUP2 SLOAD DUP2 PUSH20 0xFFFFFFFFFFFFFFFFFFFFFFFFFFFFFFFFFFFFFFFF MUL NOT AND SWAP1 DUP4 PUSH20 0xFFFFFFFFFFFFFFFFFFFFFFFFFFFFFFFFFFFFFFFF AND MUL OR SWAP1 SSTORE POP SWAP2 PUSH1 0x20 ADD SWAP2 SWAP1 PUSH1 0x1 ADD SWAP1 PUSH2 0xF0F JUMP JUMPDEST JUMPDEST POP SWAP1 POP PUSH2 0xF74 SWAP2 SWAP1 PUSH2 0xF78 JUMP JUMPDEST POP SWAP1 JUMP JUMPDEST JUMPDEST DUP1 DUP3 GT ISZERO PUSH2 0xF8F JUMPI PUSH0 DUP2 PUSH0 SWAP1 SSTORE POP PUSH1 0x1 ADD PUSH2 0xF79 JUMP JUMPDEST POP SWAP1 JUMP JUMPDEST PUSH0 PUSH1 0x40 MLOAD SWAP1 POP SWAP1 JUMP JUMPDEST PUSH0 PUSH0 REVERT JUMPDEST PUSH0 PUSH0 REVERT JUMPDEST PUSH0 DUP2 SWAP1 POP SWAP2 SWAP1 POP JUMP JUMPDEST PUSH2 0xFB6 DUP2 PUSH2 0xFA4 JUMP JUMPDEST DUP2 EQ PUSH2 0xFC0 JUMPI PUSH0 PUSH0 REVERT JUMPDEST POP JUMP JUMPDEST PUSH0 DUP2 CALLDATALOAD SWAP1 POP PUSH2 0xFD1 DUP2 PUSH2 0xFAD JUMP JUMPDEST SWAP3 SWAP2 POP POP JUMP JUMPDEST PUSH0 PUSH1 0x20 DUP3 DUP5 SUB SLT ISZERO PUSH2 0xFEC JUMPI PUSH2 0xFEB PUSH2 0xF9C JUMP JUMPDEST JUMPDEST PUSH0 PUSH2 0xFF9 DUP5 DUP3 DUP6 ADD PUSH2 0xFC3 JUMP JUMPDEST SWAP2 POP POP SWAP3 SWAP2 POP POP JUMP JUMPDEST PUSH0 DUP2 MLOAD SWAP1 POP SWAP2 SWAP1 POP JUMP JUMPDEST PUSH0 DUP3 DUP3 MSTORE PUSH1 0x20 DUP3 ADD SWAP1 POP SWAP3 SWAP2 POP POP JUMP JUMPDEST DUP3 DUP2 DUP4 MCOPY PUSH0 DUP4 DUP4 ADD MSTORE POP POP POP JUMP JUMPDEST PUSH0 PUSH1 0x1F NOT PUSH1 0x1F DUP4 ADD AND SWAP1 POP SWAP2 SWAP1 POP JUMP JUMPDEST PUSH0 PUSH2 0x1044 DUP3 PUSH2 0x1002 JUMP JUMPDEST PUSH2 0x104E DUP2 DUP6 PUSH2 0x100C JUMP JUMPDEST SWAP4 POP PUSH2 0x105E DUP2 DUP6 PUSH1 0x20 DUP7 ADD PUSH2 0x101C JUMP JUMPDEST PUSH2 0x1067 DUP2 PUSH2 0x102A JUMP JUMPDEST DUP5 ADD SWAP2 POP POP SWAP3 SWAP2 POP POP JUMP JUMPDEST PUSH0 PUSH2 0xFFFF DUP3 AND SWAP1 POP SWAP2 SWAP1 POP JUMP JUMPDEST PUSH2 0x1088 DUP2 PUSH2 0x1072 JUMP JUMPDEST DUP3 MSTORE POP POP JUMP JUMPDEST PUSH32 0x4E487B7100000000000000000000000000000000000000000000000000000000 PUSH0 MSTORE PUSH1 0x21 PUSH1 0x4 MSTORE PUSH1 0x24 PUSH0 REVERT JUMPDEST PUSH1 0x4 DUP2 LT PUSH2 0x10CC JUMPI PUSH2 0x10CB PUSH2 0x108E JUMP JUMPDEST JUMPDEST POP JUMP JUMPDEST PUSH0 DUP2 SWAP1 POP PUSH2 0x10DC DUP3 PUSH2 0x10BB JUMP JUMPDEST SWAP2 SWAP1 POP JUMP JUMPDEST PUSH0 PUSH2 0x10EB DUP3 PUSH2 0x10CF JUMP JUMPDEST SWAP1 POP SWAP2 SWAP1 POP JUMP JUMPDEST PUSH2 0x10FB DUP2 PUSH2 0x10E1 JUMP JUMPDEST DUP3 MSTORE POP POP JUMP JUMPDEST PUSH0 PUSH1 0xA0 DUP3 ADD SWAP1 POP DUP2 DUP2 SUB PUSH0 DUP4 ADD MSTORE PUSH2 0x1119 DUP2 DUP9 PUSH2 0x103A JUMP JUMPDEST SWAP1 POP DUP2 DUP2 SUB PUSH1 0x20 DUP4 ADD MSTORE PUSH2 0x112D DUP2 DUP8 PUSH2 0x103A JUMP JUMPDEST SWAP1 POP PUSH2 0x113C PUSH1 0x40 DUP4 ADD DUP7 PUSH2 0x107F JUMP JUMPDEST PUSH2 0x1149 PUSH1 0x60 DUP4 ADD DUP6 PUSH2 0x107F JUMP JUMPDEST PUSH2 0x1156 PUSH1 0x80 DUP4 ADD DUP5 PUSH2 0x10F2 JUMP JUMPDEST SWAP7 SWAP6 POP POP POP POP POP POP JUMP JUMPDEST PUSH0 PUSH1 0xFF DUP3 AND SWAP1 POP SWAP2 SWAP1 POP JUMP JUMPDEST PUSH2 0x1175 DUP2 PUSH2 0x1160 JUMP JUMPDEST DUP2 EQ PUSH2 0x117F JUMPI PUSH0 PUSH0 REVERT JUMPDEST POP JUMP JUMPDEST PUSH0 DUP2 CALLDATALOAD SWAP1 POP PUSH2 0x1190 DUP2 PUSH2 0x116C JUMP JUMPDEST SWAP3 SWAP2 POP POP JUMP JUMPDEST PUSH0 PUSH1 0x20 DUP3 DUP5 SUB SLT ISZERO PUSH2 0x11AB JUMPI PUSH2 0x11AA PUSH2 0xF9C JUMP JUMPDEST JUMPDEST PUSH0 PUSH2 0x11B8 DUP5 DUP3 DUP6 ADD PUSH2 0x1182 JUMP JUMPDEST SWAP2 POP POP SWAP3 SWAP2 POP POP JUMP JUMPDEST PUSH0 PUSH0 REVERT JUMPDEST PUSH0 PUSH0 REVERT JUMPDEST PUSH32 0x4E487B7100000000000000000000000000000000000000000000000000000000 PUSH0 MSTORE PUSH1 0x41 PUSH1 0x4 MSTORE PUSH1 0x24 PUSH0 REVERT JUMPDEST PUSH2 0x11FF DUP3 PUSH2 0x102A JUMP JUMPDEST DUP2 ADD DUP2 DUP2 LT PUSH8 0xFFFFFFFFFFFFFFFF DUP3 GT OR ISZERO PUSH2 0x121E JUMPI PUSH2 0x121D PUSH2 0x11C9 JUMP JUMPDEST JUMPDEST DUP1 PUSH1 0x40 MSTORE POP POP POP JUMP JUMPDEST PUSH0 PUSH2 0x1230 PUSH2 0xF93 JUMP JUMPDEST SWAP1 POP PUSH2 0x123C DUP3 DUP3 PUSH2 0x11F6 JUMP JUMPDEST SWAP2 SWAP1 POP JUMP JUMPDEST PUSH0 PUSH8 0xFFFFFFFFFFFFFFFF DUP3 GT ISZERO PUSH2 0x125B JUMPI PUSH2 0x125A PUSH2 0x11C9 JUMP JUMPDEST JUMPDEST PUSH2 0x1264 DUP3 PUSH2 0x102A JUMP JUMPDEST SWAP1 POP PUSH1 0x20 DUP2 ADD SWAP1 POP SWAP2 SWAP1 POP JUMP JUMPDEST DUP3 DUP2 DUP4 CALLDATACOPY PUSH0 DUP4 DUP4 ADD MSTORE POP POP POP JUMP JUMPDEST PUSH0 PUSH2 0x1291 PUSH2 0x128C DUP5 PUSH2 0x1241 JUMP JUMPDEST PUSH2 0x1227 JUMP JUMPDEST SWAP1 POP DUP3 DUP2 MSTORE PUSH1 0x20 DUP2 ADD DUP5 DUP5 DUP5 ADD GT ISZERO PUSH2 0x12AD JUMPI PUSH2 0x12AC PUSH2 0x11C5 JUMP JUMPDEST JUMPDEST PUSH2 0x12B8 DUP5 DUP3 DUP6 PUSH2 0x1271 JUMP JUMPDEST POP SWAP4 SWAP3 POP POP POP JUMP JUMPDEST PUSH0 DUP3 PUSH1 0x1F DUP4 ADD SLT PUSH2 0x12D4 JUMPI PUSH2 0x12D3 PUSH2 0x11C1 JUMP JUMPDEST JUMPDEST DUP2 CALLDATALOAD PUSH2 0x12E4 DUP5 DUP3 PUSH1 0x20 DUP7 ADD PUSH2 0x127F JUMP JUMPDEST SWAP2 POP POP SWAP3 SWAP2 POP POP JUMP JUMPDEST PUSH2 0x12F6 DUP2 PUSH2 0x1072 JUMP JUMPDEST DUP2 EQ PUSH2 0x1300 JUMPI PUSH0 PUSH0 REVERT JUMPDEST POP JUMP JUMPDEST PUSH0 DUP2 CALLDATALOAD SWAP1 POP PUSH2 0x1311 DUP2 PUSH2 0x12ED JUMP JUMPDEST SWAP3 SWAP2 POP POP JUMP JUMPDEST PUSH0 PUSH0 PUSH0 PUSH1 0x60 DUP5 DUP7 SUB SLT ISZERO PUSH2 0x132E JUMPI PUSH2 0x132D PUSH2 0xF9C JUMP JUMPDEST JUMPDEST PUSH0 DUP5 ADD CALLDATALOAD PUSH8 0xFFFFFFFFFFFFFFFF DUP2 GT ISZERO PUSH2 0x134B JUMPI PUSH2 0x134A PUSH2 0xFA0 JUMP JUMPDEST JUMPDEST PUSH2 0x1357 DUP7 DUP3 DUP8 ADD PUSH2 0x12C0 JUMP JUMPDEST SWAP4 POP POP PUSH1 0x20 DUP5 ADD CALLDATALOAD PUSH8 0xFFFFFFFFFFFFFFFF DUP2 GT ISZERO PUSH2 0x1378 JUMPI PUSH2 0x1377 PUSH2 0xFA0 JUMP JUMPDEST JUMPDEST PUSH2 0x1384 DUP7 DUP3 DUP8 ADD PUSH2 0x12C0 JUMP JUMPDEST SWAP3 POP POP PUSH1 0x40 PUSH2 0x1395 DUP7 DUP3 DUP8 ADD PUSH2 0x1303 JUMP JUMPDEST SWAP2 POP POP SWAP3 POP SWAP3 POP SWAP3 JUMP JUMPDEST PUSH0 DUP2 MLOAD SWAP1 POP SWAP2 SWAP1 POP JUMP JUMPDEST PUSH0 DUP3 DUP3 MSTORE PUSH1 0x20 DUP3 ADD SWAP1 POP SWAP3 SWAP2 POP POP JUMP JUMPDEST PUSH0 DUP2 SWAP1 POP PUSH1 0x20 DUP3 ADD SWAP1 POP SWAP2 SWAP1 POP JUMP JUMPDEST PUSH0 DUP3 DUP3 MSTORE PUSH1 0x20 DUP3 ADD SWAP1 POP SWAP3 SWAP2 POP POP JUMP JUMPDEST PUSH0 PUSH2 0x13E2 DUP3 PUSH2 0x1002 JUMP JUMPDEST PUSH2 0x13EC DUP2 DUP6 PUSH2 0x13C8 JUMP JUMPDEST SWAP4 POP PUSH2 0x13FC DUP2 DUP6 PUSH1 0x20 DUP7 ADD PUSH2 0x101C JUMP JUMPDEST PUSH2 0x1405 DUP2 PUSH2 0x102A JUMP JUMPDEST DUP5 ADD SWAP2 POP POP SWAP3 SWAP2 POP POP JUMP JUMPDEST PUSH2 0x1419 DUP2 PUSH2 0x1072 JUMP JUMPDEST DUP3 MSTORE POP POP JUMP JUMPDEST PUSH0 DUP2 MLOAD SWAP1 POP SWAP2 SWAP1 POP JUMP JUMPDEST PUSH0 DUP3 DUP3 MSTORE PUSH1 0x20 DUP3 ADD SWAP1 POP SWAP3 SWAP2 POP POP JUMP JUMPDEST PUSH0 DUP2 SWAP1 POP PUSH1 0x20 DUP3 ADD SWAP1 POP SWAP2 SWAP1 POP JUMP JUMPDEST PUSH0 PUSH20 0xFFFFFFFFFFFFFFFFFFFFFFFFFFFFFFFFFFFFFFFF DUP3 AND SWAP1 POP SWAP2 SWAP1 POP JUMP JUMPDEST PUSH0 PUSH2 0x1471 DUP3 PUSH2 0x1448 JUMP JUMPDEST SWAP1 POP SWAP2 SWAP1 POP JUMP JUMPDEST PUSH2 0x1481 DUP2 PUSH2 0x1467 JUMP JUMPDEST DUP3 MSTORE POP POP JUMP JUMPDEST PUSH0 PUSH2 0x1492 DUP4 DUP4 PUSH2 0x1478 JUMP JUMPDEST PUSH1 0x20 DUP4 ADD SWAP1 POP SWAP3 SWAP2 POP POP JUMP JUMPDEST PUSH0 PUSH1 0x20 DUP3 ADD SWAP1 POP SWAP2 SWAP1 POP JUMP JUMPDEST PUSH0 PUSH2 0x14B4 DUP3 PUSH2 0x141F JUMP JUMPDEST PUSH2 0x14BE DUP2 DUP6 PUSH2 0x1429 JUMP JUMPDEST SWAP4 POP PUSH2 0x14C9 DUP4 PUSH2 0x1439 JUMP JUMPDEST DUP1 PUSH0 JUMPDEST DUP4 DUP2 LT ISZERO PUSH2 0x14F9 JUMPI DUP2 MLOAD PUSH2 0x14E0 DUP9 DUP3 PUSH2 0x1487 JUMP JUMPDEST SWAP8 POP PUSH2 0x14EB DUP4 PUSH2 0x149E JUMP JUMPDEST SWAP3 POP POP PUSH1 0x1 DUP2 ADD SWAP1 POP PUSH2 0x14CC JUMP JUMPDEST POP DUP6 SWAP4 POP POP POP POP SWAP3 SWAP2 POP POP JUMP JUMPDEST PUSH2 0x150F DUP2 PUSH2 0x10E1 JUMP JUMPDEST DUP3 MSTORE POP POP JUMP JUMPDEST PUSH0 PUSH1 0xC0 DUP4 ADD PUSH0 DUP4 ADD MLOAD DUP5 DUP3 SUB PUSH0 DUP7 ADD MSTORE PUSH2 0x152F DUP3 DUP3 PUSH2 0x13D8 JUMP JUMPDEST SWAP2 POP POP PUSH1 0x20 DUP4 ADD MLOAD DUP5 DUP3 SUB PUSH1 0x20 DUP7 ADD MSTORE PUSH2 0x1549 DUP3 DUP3 PUSH2 0x13D8 JUMP JUMPDEST SWAP2 POP POP PUSH1 0x40 DUP4 ADD MLOAD PUSH2 0x155E PUSH1 0x40 DUP7 ADD DUP3 PUSH2 0x1410 JUMP JUMPDEST POP PUSH1 0x60 DUP4 ADD MLOAD DUP5 DUP3 SUB PUSH1 0x60 DUP7 ADD MSTORE PUSH2 0x1576 DUP3 DUP3 PUSH2 0x14AA JUMP JUMPDEST SWAP2 POP POP PUSH1 0x80 DUP4 ADD MLOAD PUSH2 0x158B PUSH1 0x80 DUP7 ADD DUP3 PUSH2 0x1410 JUMP JUMPDEST POP PUSH1 0xA0 DUP4 ADD MLOAD PUSH2 0x159E PUSH1 0xA0 DUP7 ADD DUP3 PUSH2 0x1506 JUMP JUMPDEST POP DUP1 SWAP2 POP POP SWAP3 SWAP2 POP POP JUMP JUMPDEST PUSH0 PUSH2 0x15B4 DUP4 DUP4 PUSH2 0x1515 JUMP JUMPDEST SWAP1 POP SWAP3 SWAP2 POP POP JUMP JUMPDEST PUSH0 PUSH1 0x20 DUP3 ADD SWAP1 POP SWAP2 SWAP1 POP JUMP JUMPDEST PUSH0 PUSH2 0x15D2 DUP3 PUSH2 0x139F JUMP JUMPDEST PUSH2 0x15DC DUP2 DUP6 PUSH2 0x13A9 JUMP JUMPDEST SWAP4 POP DUP4 PUSH1 0x20 DUP3 MUL DUP6 ADD PUSH2 0x15EE DUP6 PUSH2 0x13B9 JUMP JUMPDEST DUP1 PUSH0 JUMPDEST DUP6 DUP2 LT ISZERO PUSH2 0x1629 JUMPI DUP5 DUP5 SUB DUP10 MSTORE DUP2 MLOAD PUSH2 0x160A DUP6 DUP3 PUSH2 0x15A9 JUMP JUMPDEST SWAP5 POP PUSH2 0x1615 DUP4 PUSH2 0x15BC JUMP JUMPDEST SWAP3 POP PUSH1 0x20 DUP11 ADD SWAP10 POP POP PUSH1 0x1 DUP2 ADD SWAP1 POP PUSH2 0x15F1 JUMP JUMPDEST POP DUP3 SWAP8 POP DUP8 SWAP6 POP POP POP POP POP POP SWAP3 SWAP2 POP POP JUMP JUMPDEST PUSH0 PUSH1 0x20 DUP3 ADD SWAP1 POP DUP2 DUP2 SUB PUSH0 DUP4 ADD MSTORE PUSH2 0x1653 DUP2 DUP5 PUSH2 0x15C8 JUMP JUMPDEST SWAP1 POP SWAP3 SWAP2 POP POP JUMP JUMPDEST PUSH0 DUP3 DUP3 MSTORE PUSH1 0x20 DUP3 ADD SWAP1 POP SWAP3 SWAP2 POP POP JUMP JUMPDEST PUSH0 PUSH2 0x1675 DUP3 PUSH2 0x141F JUMP JUMPDEST PUSH2 0x167F DUP2 DUP6 PUSH2 0x165B JUMP JUMPDEST SWAP4 POP PUSH2 0x168A DUP4 PUSH2 0x1439 JUMP JUMPDEST DUP1 PUSH0 JUMPDEST DUP4 DUP2 LT ISZERO PUSH2 0x16BA JUMPI DUP2 MLOAD PUSH2 0x16A1 DUP9 DUP3 PUSH2 0x1487 JUMP JUMPDEST SWAP8 POP PUSH2 0x16AC DUP4 PUSH2 0x149E JUMP JUMPDEST SWAP3 POP POP PUSH1 0x1 DUP2 ADD SWAP1 POP PUSH2 0x168D JUMP JUMPDEST POP DUP6 SWAP4 POP POP POP POP SWAP3 SWAP2 POP POP JUMP JUMPDEST PUSH0 PUSH1 0xC0 DUP3 ADD SWAP1 POP DUP2 DUP2 SUB PUSH0 DUP4 ADD MSTORE PUSH2 0x16DF DUP2 DUP10 PUSH2 0x103A JUMP JUMPDEST SWAP1 POP DUP2 DUP2 SUB PUSH1 0x20 DUP4 ADD MSTORE PUSH2 0x16F3 DUP2 DUP9 PUSH2 0x103A JUMP JUMPDEST SWAP1 POP PUSH2 0x1702 PUSH1 0x40 DUP4 ADD DUP8 PUSH2 0x107F JUMP JUMPDEST DUP2 DUP2 SUB PUSH1 0x60 DUP4 ADD MSTORE PUSH2 0x1714 DUP2 DUP7 PUSH2 0x166B JUMP JUMPDEST SWAP1 POP PUSH2 0x1723 PUSH1 0x80 DUP4 ADD DUP6 PUSH2 0x107F JUMP JUMPDEST PUSH2 0x1730 PUSH1 0xA0 DUP4 ADD DUP5 PUSH2 0x10F2 JUMP JUMPDEST SWAP8 SWAP7 POP POP POP POP POP POP POP JUMP JUMPDEST PUSH32 0x4E487B7100000000000000000000000000000000000000000000000000000000 PUSH0 MSTORE PUSH1 0x22 PUSH1 0x4 MSTORE PUSH1 0x24 PUSH0 REVERT JUMPDEST PUSH0 PUSH1 0x2 DUP3 DIV SWAP1 POP PUSH1 0x1 DUP3 AND DUP1 PUSH2 0x177F JUMPI PUSH1 0x7F DUP3 AND SWAP2 POP JUMPDEST PUSH1 0x20 DUP3 LT DUP2 SUB PUSH2 0x1792 JUMPI PUSH2 0x1791 PUSH2 0x173B JUMP JUMPDEST JUMPDEST POP SWAP2 SWAP1 POP JUMP JUMPDEST PUSH32 0x5A65726F2061646472657373206973206E6F7420616C6C6F7765640000000000 PUSH0 DUP3 ADD MSTORE POP JUMP JUMPDEST PUSH0 PUSH2 0x17CC PUSH1 0x1B DUP4 PUSH2 0x100C JUMP JUMPDEST SWAP2 POP PUSH2 0x17D7 DUP3 PUSH2 0x1798 JUMP JUMPDEST PUSH1 0x20 DUP3 ADD SWAP1 POP SWAP2 SWAP1 POP JUMP JUMPDEST PUSH0 PUSH1 0x20 DUP3 ADD SWAP1 POP DUP2 DUP2 SUB PUSH0 DUP4 ADD MSTORE PUSH2 0x17F9 DUP2 PUSH2 0x17C0 JUMP JUMPDEST SWAP1 POP SWAP2 SWAP1 POP JUMP JUMPDEST PUSH32 0x496E646578206973206F7574206F6620626F756E640000000000000000000000 PUSH0 DUP3 ADD MSTORE POP JUMP JUMPDEST PUSH0 PUSH2 0x1834 PUSH1 0x15 DUP4 PUSH2 0x100C JUMP JUMPDEST SWAP2 POP PUSH2 0x183F DUP3 PUSH2 0x1800 JUMP JUMPDEST PUSH1 0x20 DUP3 ADD SWAP1 POP SWAP2 SWAP1 POP JUMP JUMPDEST PUSH0 PUSH1 0x20 DUP3 ADD SWAP1 POP DUP2 DUP2 SUB PUSH0 DUP4 ADD MSTORE PUSH2 0x1861 DUP2 PUSH2 0x1828 JUMP JUMPDEST SWAP1 POP SWAP2 SWAP1 POP JUMP JUMPDEST PUSH32 0x596F75206861766520766F74656420616C726561647900000000000000000000 PUSH0 DUP3 ADD MSTORE POP JUMP JUMPDEST PUSH0 PUSH2 0x189C PUSH1 0x16 DUP4 PUSH2 0x100C JUMP JUMPDEST SWAP2 POP PUSH2 0x18A7 DUP3 PUSH2 0x1868 JUMP JUMPDEST PUSH1 0x20 DUP3 ADD SWAP1 POP SWAP2 SWAP1 POP JUMP JUMPDEST PUSH0 PUSH1 0x20 DUP3 ADD SWAP1 POP DUP2 DUP2 SUB PUSH0 DUP4 ADD MSTORE PUSH2 0x18C9 DUP2 PUSH2 0x1890 JUMP JUMPDEST SWAP1 POP SWAP2 SWAP1 POP JUMP JUMPDEST PUSH32 0x4E487B7100000000000000000000000000000000000000000000000000000000 PUSH0 MSTORE PUSH1 0x32 PUSH1 0x4 MSTORE PUSH1 0x24 PUSH0 REVERT JUMPDEST PUSH32 0x546869732070726F706F73616C20686173206265656E20616363657074656420 PUSH0 DUP3 ADD MSTORE PUSH32 0x616C726561647900000000000000000000000000000000000000000000000000 PUSH1 0x20 DUP3 ADD MSTORE POP JUMP JUMPDEST PUSH0 PUSH2 0x1957 PUSH1 0x27 DUP4 PUSH2 0x100C JUMP JUMPDEST SWAP2 POP PUSH2 0x1962 DUP3 PUSH2 0x18FD JUMP JUMPDEST PUSH1 0x40 DUP3 ADD SWAP1 POP SWAP2 SWAP1 POP JUMP JUMPDEST PUSH0 PUSH1 0x20 DUP3 ADD SWAP1 POP DUP2 DUP2 SUB PUSH0 DUP4 ADD MSTORE PUSH2 0x1984 DUP2 PUSH2 0x194B JUMP JUMPDEST SWAP1 POP SWAP2 SWAP1 POP JUMP JUMPDEST PUSH32 0x4E487B7100000000000000000000000000000000000000000000000000000000 PUSH0 MSTORE PUSH1 0x11 PUSH1 0x4 MSTORE PUSH1 0x24 PUSH0 REVERT JUMPDEST PUSH0 PUSH2 0x19C2 DUP3 PUSH2 0x1072 JUMP JUMPDEST SWAP2 POP PUSH2 0x19CD DUP4 PUSH2 0x1072 JUMP JUMPDEST SWAP3 POP DUP3 DUP3 ADD SWAP1 POP PUSH2 0xFFFF DUP2 GT ISZERO PUSH2 0x19E7 JUMPI PUSH2 0x19E6 PUSH2 0x198B JUMP JUMPDEST JUMPDEST SWAP3 SWAP2 POP POP JUMP JUMPDEST PUSH0 DUP2 SWAP1 POP SWAP3 SWAP2 POP POP JUMP JUMPDEST PUSH0 DUP2 SWAP1 POP DUP2 PUSH0 MSTORE PUSH1 0x20 PUSH0 KECCAK256 SWAP1 POP SWAP2 SWAP1 POP JUMP JUMPDEST PUSH0 DUP2 SLOAD PUSH2 0x1A15 DUP2 PUSH2 0x1768 JUMP JUMPDEST PUSH2 0x1A1F DUP2 DUP7 PUSH2 0x19ED JUMP JUMPDEST SWAP5 POP PUSH1 0x1 DUP3 AND PUSH0 DUP2 EQ PUSH2 0x1A39 JUMPI PUSH1 0x1 DUP2 EQ PUSH2 0x1A4E JUMPI PUSH2 0x1A80 JUMP JUMPDEST PUSH1 0xFF NOT DUP4 AND DUP7 MSTORE DUP2 ISZERO ISZERO DUP3 MUL DUP7 ADD SWAP4 POP PUSH2 0x1A80 JUMP JUMPDEST PUSH2 0x1A57 DUP6 PUSH2 0x19F7 JUMP JUMPDEST PUSH0 JUMPDEST DUP4 DUP2 LT ISZERO PUSH2 0x1A78 JUMPI DUP2 SLOAD DUP2 DUP10 ADD MSTORE PUSH1 0x1 DUP3 ADD SWAP2 POP PUSH1 0x20 DUP2 ADD SWAP1 POP PUSH2 0x1A59 JUMP JUMPDEST DUP4 DUP9 ADD SWAP6 POP POP POP JUMPDEST POP POP POP SWAP3 SWAP2 POP POP JUMP JUMPDEST PUSH0 PUSH2 0x1A94 DUP3 DUP5 PUSH2 0x1A09 JUMP JUMPDEST SWAP2 POP DUP2 SWAP1 POP SWAP3 SWAP2 POP POP JUMP JUMPDEST PUSH0 PUSH1 0x20 DUP3 ADD SWAP1 POP PUSH2 0x1AB2 PUSH0 DUP4 ADD DUP5 PUSH2 0x107F JUMP JUMPDEST SWAP3 SWAP2 POP POP JUMP JUMPDEST PUSH0 PUSH1 0x20 PUSH1 0x1F DUP4 ADD DIV SWAP1 POP SWAP2 SWAP1 POP JUMP JUMPDEST PUSH0 DUP3 DUP3 SHL SWAP1 POP SWAP3 SWAP2 POP POP JUMP JUMPDEST PUSH0 PUSH1 0x8 DUP4 MUL PUSH2 0x1B02 PUSH32 0xFFFFFFFFFFFFFFFFFFFFFFFFFFFFFFFFFFFFFFFFFFFFFFFFFFFFFFFFFFFFFFFF DUP3 PUSH2 0x1AC7 JUMP JUMPDEST PUSH2 0x1B0C DUP7 DUP4 PUSH2 0x1AC7 JUMP JUMPDEST SWAP6 POP DUP1 NOT DUP5 AND SWAP4 POP DUP1 DUP7 AND DUP5 OR SWAP3 POP POP POP SWAP4 SWAP3 POP POP POP JUMP JUMPDEST PUSH0 DUP2 SWAP1 POP SWAP2 SWAP1 POP JUMP JUMPDEST PUSH0 PUSH2 0x1B47 PUSH2 0x1B42 PUSH2 0x1B3D DUP5 PUSH2 0xFA4 JUMP JUMPDEST PUSH2 0x1B24 JUMP JUMPDEST PUSH2 0xFA4 JUMP JUMPDEST SWAP1 POP SWAP2 SWAP1 POP JUMP JUMPDEST PUSH0 DUP2 SWAP1 POP SWAP2 SWAP1 POP JUMP JUMPDEST PUSH2 0x1B60 DUP4 PUSH2 0x1B2D JUMP JUMPDEST PUSH2 0x1B74 PUSH2 0x1B6C DUP3 PUSH2 0x1B4E JUMP JUMPDEST DUP5 DUP5 SLOAD PUSH2 0x1AD3 JUMP JUMPDEST DUP3 SSTORE POP POP POP POP JUMP JUMPDEST PUSH0 PUSH0 SWAP1 POP SWAP1 JUMP JUMPDEST PUSH2 0x1B8B PUSH2 0x1B7C JUMP JUMPDEST PUSH2 0x1B96 DUP2 DUP5 DUP5 PUSH2 0x1B57 JUMP JUMPDEST POP POP POP JUMP JUMPDEST JUMPDEST DUP2 DUP2 LT ISZERO PUSH2 0x1BB9 JUMPI PUSH2 0x1BAE PUSH0 DUP3 PUSH2 0x1B83 JUMP JUMPDEST PUSH1 0x1 DUP2 ADD SWAP1 POP PUSH2 0x1B9C JUMP JUMPDEST POP POP JUMP JUMPDEST PUSH1 0x1F DUP3 GT ISZERO PUSH2 0x1BFE JUMPI PUSH2 0x1BCF DUP2 PUSH2 0x19F7 JUMP JUMPDEST PUSH2 0x1BD8 DUP5 PUSH2 0x1AB8 JUMP JUMPDEST DUP2 ADD PUSH1 0x20 DUP6 LT ISZERO PUSH2 0x1BE7 JUMPI DUP2 SWAP1 POP JUMPDEST PUSH2 0x1BFB PUSH2 0x1BF3 DUP6 PUSH2 0x1AB8 JUMP JUMPDEST DUP4 ADD DUP3 PUSH2 0x1B9B JUMP JUMPDEST POP POP JUMPDEST POP POP POP JUMP JUMPDEST PUSH0 DUP3 DUP3 SHR SWAP1 POP SWAP3 SWAP2 POP POP JUMP JUMPDEST PUSH0 PUSH2 0x1C1E PUSH0 NOT DUP5 PUSH1 0x8 MUL PUSH2 0x1C03 JUMP JUMPDEST NOT DUP1 DUP4 AND SWAP2 POP POP SWAP3 SWAP2 POP POP JUMP JUMPDEST PUSH0 PUSH2 0x1C36 DUP4 DUP4 PUSH2 0x1C0F JUMP JUMPDEST SWAP2 POP DUP3 PUSH1 0x2 MUL DUP3 OR SWAP1 POP SWAP3 SWAP2 POP POP JUMP JUMPDEST PUSH2 0x1C4F DUP3 PUSH2 0x1002 JUMP JUMPDEST PUSH8 0xFFFFFFFFFFFFFFFF DUP2 GT ISZERO PUSH2 0x1C68 JUMPI PUSH2 0x1C67 PUSH2 0x11C9 JUMP JUMPDEST JUMPDEST PUSH2 0x1C72 DUP3 SLOAD PUSH2 0x1768 JUMP JUMPDEST PUSH2 0x1C7D DUP3 DUP3 DUP6 PUSH2 0x1BBD JUMP JUMPDEST PUSH0 PUSH1 0x20 SWAP1 POP PUSH1 0x1F DUP4 GT PUSH1 0x1 DUP2 EQ PUSH2 0x1CAE JUMPI PUSH0 DUP5 ISZERO PUSH2 0x1C9C JUMPI DUP3 DUP8 ADD MLOAD SWAP1 POP JUMPDEST PUSH2 0x1CA6 DUP6 DUP3 PUSH2 0x1C2B JUMP JUMPDEST DUP7 SSTORE POP PUSH2 0x1D0D JUMP JUMPDEST PUSH1 0x1F NOT DUP5 AND PUSH2 0x1CBC DUP7 PUSH2 0x19F7 JUMP JUMPDEST PUSH0 JUMPDEST DUP3 DUP2 LT ISZERO PUSH2 0x1CE3 JUMPI DUP5 DUP10 ADD MLOAD DUP3 SSTORE PUSH1 0x1 DUP3 ADD SWAP2 POP PUSH1 0x20 DUP6 ADD SWAP5 POP PUSH1 0x20 DUP2 ADD SWAP1 POP PUSH2 0x1CBE JUMP JUMPDEST DUP7 DUP4 LT ISZERO PUSH2 0x1D00 JUMPI DUP5 DUP10 ADD MLOAD PUSH2 0x1CFC PUSH1 0x1F DUP10 AND DUP3 PUSH2 0x1C0F JUMP JUMPDEST DUP4 SSTORE POP JUMPDEST PUSH1 0x1 PUSH1 0x2 DUP9 MUL ADD DUP9 SSTORE POP POP POP JUMPDEST POP POP POP POP POP POP JUMP JUMPDEST PUSH0 PUSH2 0x1D1F DUP3 PUSH2 0x1002 JUMP JUMPDEST PUSH2 0x1D29 DUP2 DUP6 PUSH2 0x19ED JUMP JUMPDEST SWAP4 POP PUSH2 0x1D39 DUP2 DUP6 PUSH1 0x20 DUP7 ADD PUSH2 0x101C JUMP JUMPDEST DUP1 DUP5 ADD SWAP2 POP POP SWAP3 SWAP2 POP POP JUMP JUMPDEST PUSH0 PUSH2 0x1D50 DUP3 DUP5 PUSH2 0x1D15 JUMP JUMPDEST SWAP2 POP DUP2 SWAP1 POP SWAP3 SWAP2 POP POP JUMP INVALID LOG2 PUSH5 0x6970667358 0x22 SLT KECCAK256 PUSH6 0x2A5770255AB7 0xC4 ORIGIN BLOCKHASH PUSH26 0xF3BF7623884A49A3AAB0BF9DEF690E6614136DF57C64736F6C63 NUMBER STOP ADDMOD SHR STOP CALLER "
				},
				"gasEstimates": {
					"creation": {
						"codeDepositCost": "1513800",
						"executionCost": "1580",
						"totalCost": "1515380"
					},
					"external": {
						"createProposal(string,string,uint16)": "infinite",
						"getAllProposals()": "infinite",
						"getProposal(uint8)": "infinite",
						"proposals(uint256)": "infinite",
						"voteOnProposal(uint8)": "infinite"
					}
				},
				"methodIdentifiers": {
					"createProposal(string,string,uint16)": "bcf2e026",
					"getAllProposals()": "cceb68f5",
					"getProposal(uint8)": "dac001fe",
					"proposals(uint256)": "013cf08b",
					"voteOnProposal(uint8)": "5521e3bf"
				}
			},
			"storageLayout": {
				"storage": [
					{
						"astId": 27,
						"contract": "contracts/ProposalVote.sol:ProposalVote",
						"label": "hasVoted",
						"offset": 0,
						"slot": "0",
						"type": "t_mapping(t_address,t_mapping(t_uint8,t_bool))"
					},
					{
						"astId": 31,
						"contract": "contracts/ProposalVote.sol:ProposalVote",
						"label": "proposals",
						"offset": 0,
						"slot": "1",
						"type": "t_array(t_struct(Proposal)21_storage)dyn_storage"
					}
				],
				"types": {
					"t_address": {
						"encoding": "inplace",
						"label": "address",
						"numberOfBytes": "20"
					},
					"t_array(t_address)dyn_storage": {
						"base": "t_address",
						"encoding": "dynamic_array",
						"label": "address[]",
						"numberOfBytes": "32"
					},
					"t_array(t_struct(Proposal)21_storage)dyn_storage": {
						"base": "t_struct(Proposal)21_storage",
						"encoding": "dynamic_array",
						"label": "struct ProposalVote.Proposal[]",
						"numberOfBytes": "32"
					},
					"t_bool": {
						"encoding": "inplace",
						"label": "bool",
						"numberOfBytes": "1"
					},
					"t_enum(PropsStatus)6": {
						"encoding": "inplace",
						"label": "enum ProposalVote.PropsStatus",
						"numberOfBytes": "1"
					},
					"t_mapping(t_address,t_mapping(t_uint8,t_bool))": {
						"encoding": "mapping",
						"key": "t_address",
						"label": "mapping(address => mapping(uint8 => bool))",
						"numberOfBytes": "32",
						"value": "t_mapping(t_uint8,t_bool)"
					},
					"t_mapping(t_uint8,t_bool)": {
						"encoding": "mapping",
						"key": "t_uint8",
						"label": "mapping(uint8 => bool)",
						"numberOfBytes": "32",
						"value": "t_bool"
					},
					"t_string_storage": {
						"encoding": "bytes",
						"label": "string",
						"numberOfBytes": "32"
					},
					"t_struct(Proposal)21_storage": {
						"encoding": "inplace",
						"label": "struct ProposalVote.Proposal",
						"members": [
							{
								"astId": 8,
								"contract": "contracts/ProposalVote.sol:ProposalVote",
								"label": "name",
								"offset": 0,
								"slot": "0",
								"type": "t_string_storage"
							},
							{
								"astId": 10,
								"contract": "contracts/ProposalVote.sol:ProposalVote",
								"label": "description",
								"offset": 0,
								"slot": "1",
								"type": "t_string_storage"
							},
							{
								"astId": 12,
								"contract": "contracts/ProposalVote.sol:ProposalVote",
								"label": "voteCount",
								"offset": 0,
								"slot": "2",
								"type": "t_uint16"
							},
							{
								"astId": 15,
								"contract": "contracts/ProposalVote.sol:ProposalVote",
								"label": "voters",
								"offset": 0,
								"slot": "3",
								"type": "t_array(t_address)dyn_storage"
							},
							{
								"astId": 17,
								"contract": "contracts/ProposalVote.sol:ProposalVote",
								"label": "quorum",
								"offset": 0,
								"slot": "4",
								"type": "t_uint16"
							},
							{
								"astId": 20,
								"contract": "contracts/ProposalVote.sol:ProposalVote",
								"label": "status",
								"offset": 2,
								"slot": "4",
								"type": "t_enum(PropsStatus)6"
							}
						],
						"numberOfBytes": "160"
					},
					"t_uint16": {
						"encoding": "inplace",
						"label": "uint16",
						"numberOfBytes": "2"
					},
					"t_uint8": {
						"encoding": "inplace",
						"label": "uint8",
						"numberOfBytes": "1"
					}
				}
			},
			"userdoc": {
				"kind": "user",
				"methods": {},
				"version": 1
			}
		}
	}
}