{
	"contracts/Governance.sol": {
		"Governance": {
			"abi": [
				{
					"inputs": [
						{
							"internalType": "address",
							"name": "_governanceToken",
							"type": "address"
						},
						{
							"internalType": "uint256",
							"name": "_votingPeriod",
							"type": "uint256"
						},
						{
							"internalType": "uint256",
							"name": "_quorumPercentage",
							"type": "uint256"
						}
					],
					"stateMutability": "nonpayable",
					"type": "constructor"
				},
				{
					"anonymous": false,
					"inputs": [
						{
							"indexed": true,
							"internalType": "uint256",
							"name": "proposalId",
							"type": "uint256"
						},
						{
							"indexed": true,
							"internalType": "address",
							"name": "proposer",
							"type": "address"
						},
						{
							"indexed": false,
							"internalType": "string",
							"name": "description",
							"type": "string"
						}
					],
					"name": "ProposalCreated",
					"type": "event"
				},
				{
					"anonymous": false,
					"inputs": [
						{
							"indexed": true,
							"internalType": "uint256",
							"name": "proposalId",
							"type": "uint256"
						}
					],
					"name": "ProposalExecuted",
					"type": "event"
				},
				{
					"anonymous": false,
					"inputs": [
						{
							"indexed": true,
							"internalType": "uint256",
							"name": "proposalId",
							"type": "uint256"
						},
						{
							"indexed": true,
							"internalType": "address",
							"name": "voter",
							"type": "address"
						},
						{
							"indexed": false,
							"internalType": "bool",
							"name": "support",
							"type": "bool"
						},
						{
							"indexed": false,
							"internalType": "uint256",
							"name": "votes",
							"type": "uint256"
						}
					],
					"name": "Voted",
					"type": "event"
				},
				{
					"inputs": [
						{
							"internalType": "string",
							"name": "_description",
							"type": "string"
						}
					],
					"name": "createProposal",
					"outputs": [],
					"stateMutability": "nonpayable",
					"type": "function"
				},
				{
					"inputs": [
						{
							"internalType": "uint256",
							"name": "_proposalId",
							"type": "uint256"
						}
					],
					"name": "executeProposal",
					"outputs": [],
					"stateMutability": "nonpayable",
					"type": "function"
				},
				{
					"inputs": [
						{
							"internalType": "uint256",
							"name": "_proposalId",
							"type": "uint256"
						}
					],
					"name": "getProposalDetails",
					"outputs": [
						{
							"internalType": "uint256",
							"name": "id",
							"type": "uint256"
						},
						{
							"internalType": "address",
							"name": "proposer",
							"type": "address"
						},
						{
							"internalType": "string",
							"name": "description",
							"type": "string"
						},
						{
							"internalType": "uint256",
							"name": "forVotes",
							"type": "uint256"
						},
						{
							"internalType": "uint256",
							"name": "againstVotes",
							"type": "uint256"
						},
						{
							"internalType": "uint256",
							"name": "startTime",
							"type": "uint256"
						},
						{
							"internalType": "uint256",
							"name": "endTime",
							"type": "uint256"
						},
						{
							"internalType": "bool",
							"name": "executed",
							"type": "bool"
						}
					],
					"stateMutability": "view",
					"type": "function"
				},
				{
					"inputs": [],
					"name": "governanceToken",
					"outputs": [
						{
							"internalType": "contract IERC20",
							"name": "",
							"type": "address"
						}
					],
					"stateMutability": "view",
					"type": "function"
				},
				{
					"inputs": [],
					"name": "proposalCount",
					"outputs": [
						{
							"internalType": "uint256",
							"name": "",
							"type": "uint256"
						}
					],
					"stateMutability": "view",
					"type": "function"
				},
				{
					"inputs": [
						{
							"internalType": "uint256",
							"name": "",
							"type": "uint256"
						}
					],
					"name": "proposals",
					"outputs": [
						{
							"internalType": "uint256",
							"name": "id",
							"type": "uint256"
						},
						{
							"internalType": "address",
							"name": "proposer",
							"type": "address"
						},
						{
							"internalType": "string",
							"name": "description",
							"type": "string"
						},
						{
							"internalType": "uint256",
							"name": "forVotes",
							"type": "uint256"
						},
						{
							"internalType": "uint256",
							"name": "againstVotes",
							"type": "uint256"
						},
						{
							"internalType": "uint256",
							"name": "startTime",
							"type": "uint256"
						},
						{
							"internalType": "uint256",
							"name": "endTime",
							"type": "uint256"
						},
						{
							"internalType": "bool",
							"name": "executed",
							"type": "bool"
						}
					],
					"stateMutability": "view",
					"type": "function"
				},
				{
					"inputs": [],
					"name": "quorumPercentage",
					"outputs": [
						{
							"internalType": "uint256",
							"name": "",
							"type": "uint256"
						}
					],
					"stateMutability": "view",
					"type": "function"
				},
				{
					"inputs": [
						{
							"internalType": "uint256",
							"name": "_proposalId",
							"type": "uint256"
						},
						{
							"internalType": "bool",
							"name": "_support",
							"type": "bool"
						}
					],
					"name": "vote",
					"outputs": [],
					"stateMutability": "nonpayable",
					"type": "function"
				},
				{
					"inputs": [],
					"name": "votingPeriod",
					"outputs": [
						{
							"internalType": "uint256",
							"name": "",
							"type": "uint256"
						}
					],
					"stateMutability": "view",
					"type": "function"
				}
			],
			"devdoc": {
				"kind": "dev",
				"methods": {},
				"version": 1
			},
			"evm": {
				"assembly": "    /* \"contracts/Governance.sol\":121:3793  contract Governance {... */\n  mstore(0x40, 0x80)\n    /* \"contracts/Governance.sol\":897:1132  constructor(address _governanceToken, uint256 _votingPeriod, uint256 _quorumPercentage) {... */\n  callvalue\n  dup1\n  iszero\n  tag_1\n  jumpi\n  revert(0x00, 0x00)\ntag_1:\n  pop\n  mload(0x40)\n  sub(codesize, bytecodeSize)\n  dup1\n  bytecodeSize\n  dup4\n  codecopy\n  dup2\n  dup2\n  add\n  0x40\n  mstore\n  dup2\n  add\n  swap1\n  tag_2\n  swap2\n  swap1\n  tag_3\n  jump\t// in\ntag_2:\n    /* \"contracts/Governance.sol\":1021:1037  _governanceToken */\n  dup3\n    /* \"contracts/Governance.sol\":996:1011  governanceToken */\n  0x00\n  0x00\n    /* \"contracts/Governance.sol\":996:1038  governanceToken = IERC20(_governanceToken) */\n  0x0100\n  exp\n  dup2\n  sload\n  dup2\n  0xffffffffffffffffffffffffffffffffffffffff\n  mul\n  not\n  and\n  swap1\n  dup4\n  0xffffffffffffffffffffffffffffffffffffffff\n  and\n  mul\n  or\n  swap1\n  sstore\n  pop\n    /* \"contracts/Governance.sol\":1064:1077  _votingPeriod */\n  dup2\n    /* \"contracts/Governance.sol\":1049:1061  votingPeriod */\n  0x02\n    /* \"contracts/Governance.sol\":1049:1077  votingPeriod = _votingPeriod */\n  dup2\n  swap1\n  sstore\n  pop\n    /* \"contracts/Governance.sol\":1107:1124  _quorumPercentage */\n  dup1\n    /* \"contracts/Governance.sol\":1088:1104  quorumPercentage */\n  0x03\n    /* \"contracts/Governance.sol\":1088:1124  quorumPercentage = _quorumPercentage */\n  dup2\n  swap1\n  sstore\n  pop\n    /* \"contracts/Governance.sol\":897:1132  constructor(address _governanceToken, uint256 _votingPeriod, uint256 _quorumPercentage) {... */\n  pop\n  pop\n  pop\n    /* \"contracts/Governance.sol\":121:3793  contract Governance {... */\n  jump(tag_6)\n    /* \"#utility.yul\":88:205   */\ntag_8:\n    /* \"#utility.yul\":197:198   */\n  0x00\n    /* \"#utility.yul\":194:195   */\n  0x00\n    /* \"#utility.yul\":187:199   */\n  revert\n    /* \"#utility.yul\":334:460   */\ntag_10:\n    /* \"#utility.yul\":371:378   */\n  0x00\n    /* \"#utility.yul\":411:453   */\n  0xffffffffffffffffffffffffffffffffffffffff\n    /* \"#utility.yul\":404:409   */\n  dup3\n    /* \"#utility.yul\":400:454   */\n  and\n    /* \"#utility.yul\":389:454   */\n  swap1\n  pop\n    /* \"#utility.yul\":334:460   */\n  swap2\n  swap1\n  pop\n  jump\t// out\n    /* \"#utility.yul\":466:562   */\ntag_11:\n    /* \"#utility.yul\":503:510   */\n  0x00\n    /* \"#utility.yul\":532:556   */\n  tag_23\n    /* \"#utility.yul\":550:555   */\n  dup3\n    /* \"#utility.yul\":532:556   */\n  tag_10\n  jump\t// in\ntag_23:\n    /* \"#utility.yul\":521:556   */\n  swap1\n  pop\n    /* \"#utility.yul\":466:562   */\n  swap2\n  swap1\n  pop\n  jump\t// out\n    /* \"#utility.yul\":568:690   */\ntag_12:\n    /* \"#utility.yul\":641:665   */\n  tag_25\n    /* \"#utility.yul\":659:664   */\n  dup2\n    /* \"#utility.yul\":641:665   */\n  tag_11\n  jump\t// in\ntag_25:\n    /* \"#utility.yul\":634:639   */\n  dup2\n    /* \"#utility.yul\":631:666   */\n  eq\n    /* \"#utility.yul\":621:684   */\n  tag_26\n  jumpi\n    /* \"#utility.yul\":680:681   */\n  0x00\n    /* \"#utility.yul\":677:678   */\n  0x00\n    /* \"#utility.yul\":670:682   */\n  revert\n    /* \"#utility.yul\":621:684   */\ntag_26:\n    /* \"#utility.yul\":568:690   */\n  pop\n  jump\t// out\n    /* \"#utility.yul\":696:839   */\ntag_13:\n    /* \"#utility.yul\":753:758   */\n  0x00\n    /* \"#utility.yul\":784:790   */\n  dup2\n    /* \"#utility.yul\":778:791   */\n  mload\n    /* \"#utility.yul\":769:791   */\n  swap1\n  pop\n    /* \"#utility.yul\":800:833   */\n  tag_28\n    /* \"#utility.yul\":827:832   */\n  dup2\n    /* \"#utility.yul\":800:833   */\n  tag_12\n  jump\t// in\ntag_28:\n    /* \"#utility.yul\":696:839   */\n  swap3\n  swap2\n  pop\n  pop\n  jump\t// out\n    /* \"#utility.yul\":845:922   */\ntag_14:\n    /* \"#utility.yul\":882:889   */\n  0x00\n    /* \"#utility.yul\":911:916   */\n  dup2\n    /* \"#utility.yul\":900:916   */\n  swap1\n  pop\n    /* \"#utility.yul\":845:922   */\n  swap2\n  swap1\n  pop\n  jump\t// out\n    /* \"#utility.yul\":928:1050   */\ntag_15:\n    /* \"#utility.yul\":1001:1025   */\n  tag_31\n    /* \"#utility.yul\":1019:1024   */\n  dup2\n    /* \"#utility.yul\":1001:1025   */\n  tag_14\n  jump\t// in\ntag_31:\n    /* \"#utility.yul\":994:999   */\n  dup2\n    /* \"#utility.yul\":991:1026   */\n  eq\n    /* \"#utility.yul\":981:1044   */\n  tag_32\n  jumpi\n    /* \"#utility.yul\":1040:1041   */\n  0x00\n    /* \"#utility.yul\":1037:1038   */\n  0x00\n    /* \"#utility.yul\":1030:1042   */\n  revert\n    /* \"#utility.yul\":981:1044   */\ntag_32:\n    /* \"#utility.yul\":928:1050   */\n  pop\n  jump\t// out\n    /* \"#utility.yul\":1056:1199   */\ntag_16:\n    /* \"#utility.yul\":1113:1118   */\n  0x00\n    /* \"#utility.yul\":1144:1150   */\n  dup2\n    /* \"#utility.yul\":1138:1151   */\n  mload\n    /* \"#utility.yul\":1129:1151   */\n  swap1\n  pop\n    /* \"#utility.yul\":1160:1193   */\n  tag_34\n    /* \"#utility.yul\":1187:1192   */\n  dup2\n    /* \"#utility.yul\":1160:1193   */\n  tag_15\n  jump\t// in\ntag_34:\n    /* \"#utility.yul\":1056:1199   */\n  swap3\n  swap2\n  pop\n  pop\n  jump\t// out\n    /* \"#utility.yul\":1205:1868   */\ntag_3:\n    /* \"#utility.yul\":1293:1299   */\n  0x00\n    /* \"#utility.yul\":1301:1307   */\n  0x00\n    /* \"#utility.yul\":1309:1315   */\n  0x00\n    /* \"#utility.yul\":1358:1360   */\n  0x60\n    /* \"#utility.yul\":1346:1355   */\n  dup5\n    /* \"#utility.yul\":1337:1344   */\n  dup7\n    /* \"#utility.yul\":1333:1356   */\n  sub\n    /* \"#utility.yul\":1329:1361   */\n  slt\n    /* \"#utility.yul\":1326:1445   */\n  iszero\n  tag_36\n  jumpi\n    /* \"#utility.yul\":1364:1443   */\n  tag_37\n  tag_8\n  jump\t// in\ntag_37:\n    /* \"#utility.yul\":1326:1445   */\ntag_36:\n    /* \"#utility.yul\":1484:1485   */\n  0x00\n    /* \"#utility.yul\":1509:1573   */\n  tag_38\n    /* \"#utility.yul\":1565:1572   */\n  dup7\n    /* \"#utility.yul\":1556:1562   */\n  dup3\n    /* \"#utility.yul\":1545:1554   */\n  dup8\n    /* \"#utility.yul\":1541:1563   */\n  add\n    /* \"#utility.yul\":1509:1573   */\n  tag_13\n  jump\t// in\ntag_38:\n    /* \"#utility.yul\":1499:1573   */\n  swap4\n  pop\n    /* \"#utility.yul\":1455:1583   */\n  pop\n    /* \"#utility.yul\":1622:1624   */\n  0x20\n    /* \"#utility.yul\":1648:1712   */\n  tag_39\n    /* \"#utility.yul\":1704:1711   */\n  dup7\n    /* \"#utility.yul\":1695:1701   */\n  dup3\n    /* \"#utility.yul\":1684:1693   */\n  dup8\n    /* \"#utility.yul\":1680:1702   */\n  add\n    /* \"#utility.yul\":1648:1712   */\n  tag_16\n  jump\t// in\ntag_39:\n    /* \"#utility.yul\":1638:1712   */\n  swap3\n  pop\n    /* \"#utility.yul\":1593:1722   */\n  pop\n    /* \"#utility.yul\":1761:1763   */\n  0x40\n    /* \"#utility.yul\":1787:1851   */\n  tag_40\n    /* \"#utility.yul\":1843:1850   */\n  dup7\n    /* \"#utility.yul\":1834:1840   */\n  dup3\n    /* \"#utility.yul\":1823:1832   */\n  dup8\n    /* \"#utility.yul\":1819:1841   */\n  add\n    /* \"#utility.yul\":1787:1851   */\n  tag_16\n  jump\t// in\ntag_40:\n    /* \"#utility.yul\":1777:1851   */\n  swap2\n  pop\n    /* \"#utility.yul\":1732:1861   */\n  pop\n    /* \"#utility.yul\":1205:1868   */\n  swap3\n  pop\n  swap3\n  pop\n  swap3\n  jump\t// out\n    /* \"contracts/Governance.sol\":121:3793  contract Governance {... */\ntag_6:\n  dataSize(sub_0)\n  dup1\n  dataOffset(sub_0)\n  0x00\n  codecopy\n  0x00\n  return\nstop\n\nsub_0: assembly {\n        /* \"contracts/Governance.sol\":121:3793  contract Governance {... */\n      mstore(0x40, 0x80)\n      callvalue\n      dup1\n      iszero\n      tag_1\n      jumpi\n      revert(0x00, 0x00)\n    tag_1:\n      pop\n      jumpi(tag_2, lt(calldatasize, 0x04))\n      shr(0xe0, calldataload(0x00))\n      dup1\n      0x49c2a1a6\n      gt\n      tag_12\n      jumpi\n      dup1\n      0x49c2a1a6\n      eq\n      tag_7\n      jumpi\n      dup1\n      0x4fa76ec9\n      eq\n      tag_8\n      jumpi\n      dup1\n      0xc9d27afe\n      eq\n      tag_9\n      jumpi\n      dup1\n      0xda35c664\n      eq\n      tag_10\n      jumpi\n      dup1\n      0xf96dae0a\n      eq\n      tag_11\n      jumpi\n      jump(tag_2)\n    tag_12:\n      dup1\n      0x013cf08b\n      eq\n      tag_3\n      jumpi\n      dup1\n      0x02a251a3\n      eq\n      tag_4\n      jumpi\n      dup1\n      0x0d61b519\n      eq\n      tag_5\n      jumpi\n      dup1\n      0x3b4d01a7\n      eq\n      tag_6\n      jumpi\n    tag_2:\n      revert(0x00, 0x00)\n        /* \"contracts/Governance.sol\":584:629  mapping(uint256 => Proposal) public proposals */\n    tag_3:\n      tag_13\n      0x04\n      dup1\n      calldatasize\n      sub\n      dup2\n      add\n      swap1\n      tag_14\n      swap2\n      swap1\n      tag_15\n      jump\t// in\n    tag_14:\n      tag_16\n      jump\t// in\n    tag_13:\n      mload(0x40)\n      tag_17\n      swap9\n      swap8\n      swap7\n      swap6\n      swap5\n      swap4\n      swap3\n      swap2\n      swap1\n      tag_18\n      jump\t// in\n    tag_17:\n      mload(0x40)\n      dup1\n      swap2\n      sub\n      swap1\n      return\n        /* \"contracts/Governance.sol\":510:537  uint256 public votingPeriod */\n    tag_4:\n      tag_19\n      tag_20\n      jump\t// in\n    tag_19:\n      mload(0x40)\n      tag_21\n      swap2\n      swap1\n      tag_22\n      jump\t// in\n    tag_21:\n      mload(0x40)\n      dup1\n      swap2\n      sub\n      swap1\n      return\n        /* \"contracts/Governance.sol\":2464:3128  function executeProposal(uint256 _proposalId) external {... */\n    tag_5:\n      tag_23\n      0x04\n      dup1\n      calldatasize\n      sub\n      dup2\n      add\n      swap1\n      tag_24\n      swap2\n      swap1\n      tag_15\n      jump\t// in\n    tag_24:\n      tag_25\n      jump\t// in\n    tag_23:\n      stop\n        /* \"contracts/Governance.sol\":3136:3790  function getProposalDetails(uint256 _proposalId) external view returns (... */\n    tag_6:\n      tag_26\n      0x04\n      dup1\n      calldatasize\n      sub\n      dup2\n      add\n      swap1\n      tag_27\n      swap2\n      swap1\n      tag_15\n      jump\t// in\n    tag_27:\n      tag_28\n      jump\t// in\n    tag_26:\n      mload(0x40)\n      tag_29\n      swap9\n      swap8\n      swap7\n      swap6\n      swap5\n      swap4\n      swap3\n      swap2\n      swap1\n      tag_18\n      jump\t// in\n    tag_29:\n      mload(0x40)\n      dup1\n      swap2\n      sub\n      swap1\n      return\n        /* \"contracts/Governance.sol\":1140:1743  function createProposal(string memory _description) external {... */\n    tag_7:\n      tag_30\n      0x04\n      dup1\n      calldatasize\n      sub\n      dup2\n      add\n      swap1\n      tag_31\n      swap2\n      swap1\n      tag_32\n      jump\t// in\n    tag_31:\n      tag_33\n      jump\t// in\n    tag_30:\n      stop\n        /* \"contracts/Governance.sol\":544:575  uint256 public quorumPercentage */\n    tag_8:\n      tag_34\n      tag_35\n      jump\t// in\n    tag_34:\n      mload(0x40)\n      tag_36\n      swap2\n      swap1\n      tag_22\n      jump\t// in\n    tag_36:\n      mload(0x40)\n      dup1\n      swap2\n      sub\n      swap1\n      return\n        /* \"contracts/Governance.sol\":1751:2456  function vote(uint256 _proposalId, bool _support) external {... */\n    tag_9:\n      tag_37\n      0x04\n      dup1\n      calldatasize\n      sub\n      dup2\n      add\n      swap1\n      tag_38\n      swap2\n      swap1\n      tag_39\n      jump\t// in\n    tag_38:\n      tag_40\n      jump\t// in\n    tag_37:\n      stop\n        /* \"contracts/Governance.sol\":475:503  uint256 public proposalCount */\n    tag_10:\n      tag_41\n      tag_42\n      jump\t// in\n    tag_41:\n      mload(0x40)\n      tag_43\n      swap2\n      swap1\n      tag_22\n      jump\t// in\n    tag_43:\n      mload(0x40)\n      dup1\n      swap2\n      sub\n      swap1\n      return\n        /* \"contracts/Governance.sol\":439:468  IERC20 public governanceToken */\n    tag_11:\n      tag_44\n      tag_45\n      jump\t// in\n    tag_44:\n      mload(0x40)\n      tag_46\n      swap2\n      swap1\n      tag_47\n      jump\t// in\n    tag_46:\n      mload(0x40)\n      dup1\n      swap2\n      sub\n      swap1\n      return\n        /* \"contracts/Governance.sol\":584:629  mapping(uint256 => Proposal) public proposals */\n    tag_16:\n      mstore(0x20, 0x04)\n      dup1\n      0x00\n      mstore\n      keccak256(0x00, 0x40)\n      0x00\n      swap2\n      pop\n      swap1\n      pop\n      dup1\n      0x00\n      add\n      sload\n      swap1\n      dup1\n      0x01\n      add\n      0x00\n      swap1\n      sload\n      swap1\n      0x0100\n      exp\n      swap1\n      div\n      0xffffffffffffffffffffffffffffffffffffffff\n      and\n      swap1\n      dup1\n      0x02\n      add\n      dup1\n      sload\n      tag_48\n      swap1\n      tag_49\n      jump\t// in\n    tag_48:\n      dup1\n      0x1f\n      add\n      0x20\n      dup1\n      swap2\n      div\n      mul\n      0x20\n      add\n      mload(0x40)\n      swap1\n      dup2\n      add\n      0x40\n      mstore\n      dup1\n      swap3\n      swap2\n      swap1\n      dup2\n      dup2\n      mstore\n      0x20\n      add\n      dup3\n      dup1\n      sload\n      tag_50\n      swap1\n      tag_49\n      jump\t// in\n    tag_50:\n      dup1\n      iszero\n      tag_51\n      jumpi\n      dup1\n      0x1f\n      lt\n      tag_52\n      jumpi\n      0x0100\n      dup1\n      dup4\n      sload\n      div\n      mul\n      dup4\n      mstore\n      swap2\n      0x20\n      add\n      swap2\n      jump(tag_51)\n    tag_52:\n      dup3\n      add\n      swap2\n      swap1\n      0x00\n      mstore\n      keccak256(0x00, 0x20)\n      swap1\n    tag_53:\n      dup2\n      sload\n      dup2\n      mstore\n      swap1\n      0x01\n      add\n      swap1\n      0x20\n      add\n      dup1\n      dup4\n      gt\n      tag_53\n      jumpi\n      dup3\n      swap1\n      sub\n      0x1f\n      and\n      dup3\n      add\n      swap2\n    tag_51:\n      pop\n      pop\n      pop\n      pop\n      pop\n      swap1\n      dup1\n      0x03\n      add\n      sload\n      swap1\n      dup1\n      0x04\n      add\n      sload\n      swap1\n      dup1\n      0x05\n      add\n      sload\n      swap1\n      dup1\n      0x06\n      add\n      sload\n      swap1\n      dup1\n      0x07\n      add\n      0x00\n      swap1\n      sload\n      swap1\n      0x0100\n      exp\n      swap1\n      div\n      0xff\n      and\n      swap1\n      pop\n      dup9\n      jump\t// out\n        /* \"contracts/Governance.sol\":510:537  uint256 public votingPeriod */\n    tag_20:\n      sload(0x02)\n      dup2\n      jump\t// out\n        /* \"contracts/Governance.sol\":2464:3128  function executeProposal(uint256 _proposalId) external {... */\n    tag_25:\n        /* \"contracts/Governance.sol\":2530:2555  Proposal storage proposal */\n      0x00\n        /* \"contracts/Governance.sol\":2558:2567  proposals */\n      0x04\n        /* \"contracts/Governance.sol\":2558:2580  proposals[_proposalId] */\n      0x00\n        /* \"contracts/Governance.sol\":2568:2579  _proposalId */\n      dup4\n        /* \"contracts/Governance.sol\":2558:2580  proposals[_proposalId] */\n      dup2\n      mstore\n      0x20\n      add\n      swap1\n      dup2\n      mstore\n      0x20\n      add\n      0x00\n      keccak256\n        /* \"contracts/Governance.sol\":2530:2580  Proposal storage proposal = proposals[_proposalId] */\n      swap1\n      pop\n        /* \"contracts/Governance.sol\":2617:2625  proposal */\n      dup1\n        /* \"contracts/Governance.sol\":2617:2633  proposal.endTime */\n      0x06\n      add\n      sload\n        /* \"contracts/Governance.sol\":2599:2614  block.timestamp */\n      timestamp\n        /* \"contracts/Governance.sol\":2599:2633  block.timestamp > proposal.endTime */\n      gt\n        /* \"contracts/Governance.sol\":2591:2661  require(block.timestamp > proposal.endTime, \"Voting period not ended\") */\n      tag_55\n      jumpi\n      mload(0x40)\n      0x08c379a000000000000000000000000000000000000000000000000000000000\n      dup2\n      mstore\n      0x04\n      add\n      tag_56\n      swap1\n      tag_57\n      jump\t// in\n    tag_56:\n      mload(0x40)\n      dup1\n      swap2\n      sub\n      swap1\n      revert\n    tag_55:\n        /* \"contracts/Governance.sol\":2681:2689  proposal */\n      dup1\n        /* \"contracts/Governance.sol\":2681:2698  proposal.executed */\n      0x07\n      add\n      0x00\n      swap1\n      sload\n      swap1\n      0x0100\n      exp\n      swap1\n      div\n      0xff\n      and\n        /* \"contracts/Governance.sol\":2680:2698  !proposal.executed */\n      iszero\n        /* \"contracts/Governance.sol\":2672:2728  require(!proposal.executed, \"Proposal already executed\") */\n      tag_58\n      jumpi\n      mload(0x40)\n      0x08c379a000000000000000000000000000000000000000000000000000000000\n      dup2\n      mstore\n      0x04\n      add\n      tag_59\n      swap1\n      tag_60\n      jump\t// in\n    tag_59:\n      mload(0x40)\n      dup1\n      swap2\n      sub\n      swap1\n      revert\n    tag_58:\n        /* \"contracts/Governance.sol\":2741:2759  uint256 totalVotes */\n      0x00\n        /* \"contracts/Governance.sol\":2782:2790  proposal */\n      dup2\n        /* \"contracts/Governance.sol\":2782:2803  proposal.againstVotes */\n      0x04\n      add\n      sload\n        /* \"contracts/Governance.sol\":2762:2770  proposal */\n      dup3\n        /* \"contracts/Governance.sol\":2762:2779  proposal.forVotes */\n      0x03\n      add\n      sload\n        /* \"contracts/Governance.sol\":2762:2803  proposal.forVotes + proposal.againstVotes */\n      tag_61\n      swap2\n      swap1\n      tag_62\n      jump\t// in\n    tag_61:\n        /* \"contracts/Governance.sol\":2741:2803  uint256 totalVotes = proposal.forVotes + proposal.againstVotes */\n      swap1\n      pop\n        /* \"contracts/Governance.sol\":2814:2833  uint256 quorumVotes */\n      0x00\n        /* \"contracts/Governance.sol\":2889:2892  100 */\n      0x64\n        /* \"contracts/Governance.sol\":2869:2885  quorumPercentage */\n      sload(0x03)\n        /* \"contracts/Governance.sol\":2837:2852  governanceToken */\n      0x00\n      0x00\n      swap1\n      sload\n      swap1\n      0x0100\n      exp\n      swap1\n      div\n      0xffffffffffffffffffffffffffffffffffffffff\n      and\n        /* \"contracts/Governance.sol\":2837:2864  governanceToken.totalSupply */\n      0xffffffffffffffffffffffffffffffffffffffff\n      and\n      0x18160ddd\n        /* \"contracts/Governance.sol\":2837:2866  governanceToken.totalSupply() */\n      mload(0x40)\n      dup2\n      0xffffffff\n      and\n      0xe0\n      shl\n      dup2\n      mstore\n      0x04\n      add\n      0x20\n      mload(0x40)\n      dup1\n      dup4\n      sub\n      dup2\n      dup7\n      gas\n      staticcall\n      iszero\n      dup1\n      iszero\n      tag_64\n      jumpi\n      returndatacopy(0x00, 0x00, returndatasize)\n      revert(0x00, returndatasize)\n    tag_64:\n      pop\n      pop\n      pop\n      pop\n      mload(0x40)\n      returndatasize\n      not(0x1f)\n      0x1f\n      dup3\n      add\n      and\n      dup3\n      add\n      dup1\n      0x40\n      mstore\n      pop\n      dup2\n      add\n      swap1\n      tag_65\n      swap2\n      swap1\n      tag_66\n      jump\t// in\n    tag_65:\n        /* \"contracts/Governance.sol\":2837:2885  governanceToken.totalSupply() * quorumPercentage */\n      tag_67\n      swap2\n      swap1\n      tag_68\n      jump\t// in\n    tag_67:\n        /* \"contracts/Governance.sol\":2836:2892  (governanceToken.totalSupply() * quorumPercentage) / 100 */\n      tag_69\n      swap2\n      swap1\n      tag_70\n      jump\t// in\n    tag_69:\n        /* \"contracts/Governance.sol\":2814:2892  uint256 quorumVotes = (governanceToken.totalSupply() * quorumPercentage) / 100 */\n      swap1\n      pop\n        /* \"contracts/Governance.sol\":2927:2938  quorumVotes */\n      dup1\n        /* \"contracts/Governance.sol\":2913:2923  totalVotes */\n      dup3\n        /* \"contracts/Governance.sol\":2913:2938  totalVotes >= quorumVotes */\n      lt\n      iszero\n        /* \"contracts/Governance.sol\":2905:2961  require(totalVotes >= quorumVotes, \"Quorum not reached\") */\n      tag_71\n      jumpi\n      mload(0x40)\n      0x08c379a000000000000000000000000000000000000000000000000000000000\n      dup2\n      mstore\n      0x04\n      add\n      tag_72\n      swap1\n      tag_73\n      jump\t// in\n    tag_72:\n      mload(0x40)\n      dup1\n      swap2\n      sub\n      swap1\n      revert\n    tag_71:\n        /* \"contracts/Governance.sol\":2998:3006  proposal */\n      dup3\n        /* \"contracts/Governance.sol\":2998:3019  proposal.againstVotes */\n      0x04\n      add\n      sload\n        /* \"contracts/Governance.sol\":2978:2986  proposal */\n      dup4\n        /* \"contracts/Governance.sol\":2978:2995  proposal.forVotes */\n      0x03\n      add\n      sload\n        /* \"contracts/Governance.sol\":2978:3019  proposal.forVotes > proposal.againstVotes */\n      gt\n        /* \"contracts/Governance.sol\":2974:3121  if (proposal.forVotes > proposal.againstVotes) {... */\n      iszero\n      tag_74\n      jumpi\n        /* \"contracts/Governance.sol\":3056:3060  true */\n      0x01\n        /* \"contracts/Governance.sol\":3036:3044  proposal */\n      dup4\n        /* \"contracts/Governance.sol\":3036:3053  proposal.executed */\n      0x07\n      add\n      0x00\n        /* \"contracts/Governance.sol\":3036:3060  proposal.executed = true */\n      0x0100\n      exp\n      dup2\n      sload\n      dup2\n      0xff\n      mul\n      not\n      and\n      swap1\n      dup4\n      iszero\n      iszero\n      mul\n      or\n      swap1\n      sstore\n      pop\n        /* \"contracts/Governance.sol\":3097:3108  _proposalId */\n      dup4\n        /* \"contracts/Governance.sol\":3080:3109  ProposalExecuted(_proposalId) */\n      0x712ae1383f79ac853f8d882153778e0260ef8f03b504e2866e0593e04d2b291f\n      mload(0x40)\n      mload(0x40)\n      dup1\n      swap2\n      sub\n      swap1\n      log2\n        /* \"contracts/Governance.sol\":2974:3121  if (proposal.forVotes > proposal.againstVotes) {... */\n    tag_74:\n        /* \"contracts/Governance.sol\":2519:3128  {... */\n      pop\n      pop\n      pop\n        /* \"contracts/Governance.sol\":2464:3128  function executeProposal(uint256 _proposalId) external {... */\n      pop\n      jump\t// out\n        /* \"contracts/Governance.sol\":3136:3790  function getProposalDetails(uint256 _proposalId) external view returns (... */\n    tag_28:\n        /* \"contracts/Governance.sol\":3218:3228  uint256 id */\n      0x00\n        /* \"contracts/Governance.sol\":3239:3255  address proposer */\n      0x00\n        /* \"contracts/Governance.sol\":3266:3291  string memory description */\n      0x60\n        /* \"contracts/Governance.sol\":3302:3318  uint256 forVotes */\n      0x00\n        /* \"contracts/Governance.sol\":3329:3349  uint256 againstVotes */\n      0x00\n        /* \"contracts/Governance.sol\":3360:3377  uint256 startTime */\n      0x00\n        /* \"contracts/Governance.sol\":3388:3403  uint256 endTime */\n      0x00\n        /* \"contracts/Governance.sol\":3414:3427  bool executed */\n      0x00\n        /* \"contracts/Governance.sol\":3446:3471  Proposal storage proposal */\n      0x00\n        /* \"contracts/Governance.sol\":3474:3483  proposals */\n      0x04\n        /* \"contracts/Governance.sol\":3474:3496  proposals[_proposalId] */\n      0x00\n        /* \"contracts/Governance.sol\":3484:3495  _proposalId */\n      dup12\n        /* \"contracts/Governance.sol\":3474:3496  proposals[_proposalId] */\n      dup2\n      mstore\n      0x20\n      add\n      swap1\n      dup2\n      mstore\n      0x20\n      add\n      0x00\n      keccak256\n        /* \"contracts/Governance.sol\":3446:3496  Proposal storage proposal = proposals[_proposalId] */\n      swap1\n      pop\n        /* \"contracts/Governance.sol\":3529:3537  proposal */\n      dup1\n        /* \"contracts/Governance.sol\":3529:3540  proposal.id */\n      0x00\n      add\n      sload\n        /* \"contracts/Governance.sol\":3555:3563  proposal */\n      dup2\n        /* \"contracts/Governance.sol\":3555:3572  proposal.proposer */\n      0x01\n      add\n      0x00\n      swap1\n      sload\n      swap1\n      0x0100\n      exp\n      swap1\n      div\n      0xffffffffffffffffffffffffffffffffffffffff\n      and\n        /* \"contracts/Governance.sol\":3587:3595  proposal */\n      dup3\n        /* \"contracts/Governance.sol\":3587:3607  proposal.description */\n      0x02\n      add\n        /* \"contracts/Governance.sol\":3622:3630  proposal */\n      dup4\n        /* \"contracts/Governance.sol\":3622:3639  proposal.forVotes */\n      0x03\n      add\n      sload\n        /* \"contracts/Governance.sol\":3654:3662  proposal */\n      dup5\n        /* \"contracts/Governance.sol\":3654:3675  proposal.againstVotes */\n      0x04\n      add\n      sload\n        /* \"contracts/Governance.sol\":3690:3698  proposal */\n      dup6\n        /* \"contracts/Governance.sol\":3690:3708  proposal.startTime */\n      0x05\n      add\n      sload\n        /* \"contracts/Governance.sol\":3723:3731  proposal */\n      dup7\n        /* \"contracts/Governance.sol\":3723:3739  proposal.endTime */\n      0x06\n      add\n      sload\n        /* \"contracts/Governance.sol\":3754:3762  proposal */\n      dup8\n        /* \"contracts/Governance.sol\":3754:3771  proposal.executed */\n      0x07\n      add\n      0x00\n      swap1\n      sload\n      swap1\n      0x0100\n      exp\n      swap1\n      div\n      0xff\n      and\n        /* \"contracts/Governance.sol\":3507:3782  return (... */\n      dup6\n      dup1\n      sload\n      tag_76\n      swap1\n      tag_49\n      jump\t// in\n    tag_76:\n      dup1\n      0x1f\n      add\n      0x20\n      dup1\n      swap2\n      div\n      mul\n      0x20\n      add\n      mload(0x40)\n      swap1\n      dup2\n      add\n      0x40\n      mstore\n      dup1\n      swap3\n      swap2\n      swap1\n      dup2\n      dup2\n      mstore\n      0x20\n      add\n      dup3\n      dup1\n      sload\n      tag_77\n      swap1\n      tag_49\n      jump\t// in\n    tag_77:\n      dup1\n      iszero\n      tag_78\n      jumpi\n      dup1\n      0x1f\n      lt\n      tag_79\n      jumpi\n      0x0100\n      dup1\n      dup4\n      sload\n      div\n      mul\n      dup4\n      mstore\n      swap2\n      0x20\n      add\n      swap2\n      jump(tag_78)\n    tag_79:\n      dup3\n      add\n      swap2\n      swap1\n      0x00\n      mstore\n      keccak256(0x00, 0x20)\n      swap1\n    tag_80:\n      dup2\n      sload\n      dup2\n      mstore\n      swap1\n      0x01\n      add\n      swap1\n      0x20\n      add\n      dup1\n      dup4\n      gt\n      tag_80\n      jumpi\n      dup3\n      swap1\n      sub\n      0x1f\n      and\n      dup3\n      add\n      swap2\n    tag_78:\n      pop\n      pop\n      pop\n      pop\n      pop\n      swap6\n      pop\n      swap9\n      pop\n      swap9\n      pop\n      swap9\n      pop\n      swap9\n      pop\n      swap9\n      pop\n      swap9\n      pop\n      swap9\n      pop\n      swap9\n      pop\n      pop\n        /* \"contracts/Governance.sol\":3136:3790  function getProposalDetails(uint256 _proposalId) external view returns (... */\n      swap2\n      swap4\n      swap6\n      swap8\n      pop\n      swap2\n      swap4\n      swap6\n      swap8\n      jump\t// out\n        /* \"contracts/Governance.sol\":1140:1743  function createProposal(string memory _description) external {... */\n    tag_33:\n        /* \"contracts/Governance.sol\":1260:1261  0 */\n      0x00\n        /* \"contracts/Governance.sol\":1220:1235  governanceToken */\n      0x00\n      0x00\n      swap1\n      sload\n      swap1\n      0x0100\n      exp\n      swap1\n      div\n      0xffffffffffffffffffffffffffffffffffffffff\n      and\n        /* \"contracts/Governance.sol\":1220:1245  governanceToken.balanceOf */\n      0xffffffffffffffffffffffffffffffffffffffff\n      and\n      0x70a08231\n        /* \"contracts/Governance.sol\":1246:1256  msg.sender */\n      caller\n        /* \"contracts/Governance.sol\":1220:1257  governanceToken.balanceOf(msg.sender) */\n      mload(0x40)\n      dup3\n      0xffffffff\n      and\n      0xe0\n      shl\n      dup2\n      mstore\n      0x04\n      add\n      tag_82\n      swap2\n      swap1\n      tag_83\n      jump\t// in\n    tag_82:\n      0x20\n      mload(0x40)\n      dup1\n      dup4\n      sub\n      dup2\n      dup7\n      gas\n      staticcall\n      iszero\n      dup1\n      iszero\n      tag_85\n      jumpi\n      returndatacopy(0x00, 0x00, returndatasize)\n      revert(0x00, returndatasize)\n    tag_85:\n      pop\n      pop\n      pop\n      pop\n      mload(0x40)\n      returndatasize\n      not(0x1f)\n      0x1f\n      dup3\n      add\n      and\n      dup3\n      add\n      dup1\n      0x40\n      mstore\n      pop\n      dup2\n      add\n      swap1\n      tag_86\n      swap2\n      swap1\n      tag_66\n      jump\t// in\n    tag_86:\n        /* \"contracts/Governance.sol\":1220:1261  governanceToken.balanceOf(msg.sender) > 0 */\n      gt\n        /* \"contracts/Governance.sol\":1212:1312  require(governanceToken.balanceOf(msg.sender) > 0, \"Must hold governance tokens to create proposal\") */\n      tag_87\n      jumpi\n      mload(0x40)\n      0x08c379a000000000000000000000000000000000000000000000000000000000\n      dup2\n      mstore\n      0x04\n      add\n      tag_88\n      swap1\n      tag_89\n      jump\t// in\n    tag_88:\n      mload(0x40)\n      dup1\n      swap2\n      sub\n      swap1\n      revert\n    tag_87:\n        /* \"contracts/Governance.sol\":1333:1346  proposalCount */\n      0x01\n      0x00\n        /* \"contracts/Governance.sol\":1333:1348  proposalCount++ */\n      dup2\n      sload\n      dup1\n      swap3\n      swap2\n      swap1\n      tag_90\n      swap1\n      tag_91\n      jump\t// in\n    tag_90:\n      swap2\n      swap1\n      pop\n      sstore\n      pop\n        /* \"contracts/Governance.sol\":1359:1387  Proposal storage newProposal */\n      0x00\n        /* \"contracts/Governance.sol\":1390:1399  proposals */\n      0x04\n        /* \"contracts/Governance.sol\":1390:1414  proposals[proposalCount] */\n      0x00\n        /* \"contracts/Governance.sol\":1400:1413  proposalCount */\n      sload(0x01)\n        /* \"contracts/Governance.sol\":1390:1414  proposals[proposalCount] */\n      dup2\n      mstore\n      0x20\n      add\n      swap1\n      dup2\n      mstore\n      0x20\n      add\n      0x00\n      keccak256\n        /* \"contracts/Governance.sol\":1359:1414  Proposal storage newProposal = proposals[proposalCount] */\n      swap1\n      pop\n        /* \"contracts/Governance.sol\":1442:1455  proposalCount */\n      sload(0x01)\n        /* \"contracts/Governance.sol\":1425:1436  newProposal */\n      dup2\n        /* \"contracts/Governance.sol\":1425:1439  newProposal.id */\n      0x00\n      add\n        /* \"contracts/Governance.sol\":1425:1455  newProposal.id = proposalCount */\n      dup2\n      swap1\n      sstore\n      pop\n        /* \"contracts/Governance.sol\":1489:1499  msg.sender */\n      caller\n        /* \"contracts/Governance.sol\":1466:1477  newProposal */\n      dup2\n        /* \"contracts/Governance.sol\":1466:1486  newProposal.proposer */\n      0x01\n      add\n      0x00\n        /* \"contracts/Governance.sol\":1466:1499  newProposal.proposer = msg.sender */\n      0x0100\n      exp\n      dup2\n      sload\n      dup2\n      0xffffffffffffffffffffffffffffffffffffffff\n      mul\n      not\n      and\n      swap1\n      dup4\n      0xffffffffffffffffffffffffffffffffffffffff\n      and\n      mul\n      or\n      swap1\n      sstore\n      pop\n        /* \"contracts/Governance.sol\":1536:1548  _description */\n      dup2\n        /* \"contracts/Governance.sol\":1510:1521  newProposal */\n      dup2\n        /* \"contracts/Governance.sol\":1510:1533  newProposal.description */\n      0x02\n      add\n        /* \"contracts/Governance.sol\":1510:1548  newProposal.description = _description */\n      swap1\n      dup2\n      tag_92\n      swap2\n      swap1\n      tag_93\n      jump\t// in\n    tag_92:\n      pop\n        /* \"contracts/Governance.sol\":1583:1598  block.timestamp */\n      timestamp\n        /* \"contracts/Governance.sol\":1559:1570  newProposal */\n      dup2\n        /* \"contracts/Governance.sol\":1559:1580  newProposal.startTime */\n      0x05\n      add\n        /* \"contracts/Governance.sol\":1559:1598  newProposal.startTime = block.timestamp */\n      dup2\n      swap1\n      sstore\n      pop\n        /* \"contracts/Governance.sol\":1649:1661  votingPeriod */\n      sload(0x02)\n        /* \"contracts/Governance.sol\":1631:1646  block.timestamp */\n      timestamp\n        /* \"contracts/Governance.sol\":1631:1661  block.timestamp + votingPeriod */\n      tag_94\n      swap2\n      swap1\n      tag_62\n      jump\t// in\n    tag_94:\n        /* \"contracts/Governance.sol\":1609:1620  newProposal */\n      dup2\n        /* \"contracts/Governance.sol\":1609:1628  newProposal.endTime */\n      0x06\n      add\n        /* \"contracts/Governance.sol\":1609:1661  newProposal.endTime = block.timestamp + votingPeriod */\n      dup2\n      swap1\n      sstore\n      pop\n        /* \"contracts/Governance.sol\":1710:1720  msg.sender */\n      caller\n        /* \"contracts/Governance.sol\":1679:1735  ProposalCreated(proposalCount, msg.sender, _description) */\n      0xffffffffffffffffffffffffffffffffffffffff\n      and\n        /* \"contracts/Governance.sol\":1695:1708  proposalCount */\n      sload(0x01)\n        /* \"contracts/Governance.sol\":1679:1735  ProposalCreated(proposalCount, msg.sender, _description) */\n      0x7585f467599d0f008985f231af99293be388626ac16ca59505c2f8f88969cd63\n        /* \"contracts/Governance.sol\":1722:1734  _description */\n      dup5\n        /* \"contracts/Governance.sol\":1679:1735  ProposalCreated(proposalCount, msg.sender, _description) */\n      mload(0x40)\n      tag_95\n      swap2\n      swap1\n      tag_96\n      jump\t// in\n    tag_95:\n      mload(0x40)\n      dup1\n      swap2\n      sub\n      swap1\n      log3\n        /* \"contracts/Governance.sol\":1201:1743  {... */\n      pop\n        /* \"contracts/Governance.sol\":1140:1743  function createProposal(string memory _description) external {... */\n      pop\n      jump\t// out\n        /* \"contracts/Governance.sol\":544:575  uint256 public quorumPercentage */\n    tag_35:\n      sload(0x03)\n      dup2\n      jump\t// out\n        /* \"contracts/Governance.sol\":1751:2456  function vote(uint256 _proposalId, bool _support) external {... */\n    tag_40:\n        /* \"contracts/Governance.sol\":1821:1846  Proposal storage proposal */\n      0x00\n        /* \"contracts/Governance.sol\":1849:1858  proposals */\n      0x04\n        /* \"contracts/Governance.sol\":1849:1871  proposals[_proposalId] */\n      0x00\n        /* \"contracts/Governance.sol\":1859:1870  _proposalId */\n      dup5\n        /* \"contracts/Governance.sol\":1849:1871  proposals[_proposalId] */\n      dup2\n      mstore\n      0x20\n      add\n      swap1\n      dup2\n      mstore\n      0x20\n      add\n      0x00\n      keccak256\n        /* \"contracts/Governance.sol\":1821:1871  Proposal storage proposal = proposals[_proposalId] */\n      swap1\n      pop\n        /* \"contracts/Governance.sol\":1909:1917  proposal */\n      dup1\n        /* \"contracts/Governance.sol\":1909:1927  proposal.startTime */\n      0x05\n      add\n      sload\n        /* \"contracts/Governance.sol\":1890:1905  block.timestamp */\n      timestamp\n        /* \"contracts/Governance.sol\":1890:1927  block.timestamp >= proposal.startTime */\n      lt\n      iszero\n        /* \"contracts/Governance.sol\":1890:1966  block.timestamp >= proposal.startTime && block.timestamp <= proposal.endTime */\n      dup1\n      iszero\n      tag_98\n      jumpi\n      pop\n        /* \"contracts/Governance.sol\":1950:1958  proposal */\n      dup1\n        /* \"contracts/Governance.sol\":1950:1966  proposal.endTime */\n      0x06\n      add\n      sload\n        /* \"contracts/Governance.sol\":1931:1946  block.timestamp */\n      timestamp\n        /* \"contracts/Governance.sol\":1931:1966  block.timestamp <= proposal.endTime */\n      gt\n      iszero\n        /* \"contracts/Governance.sol\":1890:1966  block.timestamp >= proposal.startTime && block.timestamp <= proposal.endTime */\n    tag_98:\n        /* \"contracts/Governance.sol\":1882:1991  require(block.timestamp >= proposal.startTime && block.timestamp <= proposal.endTime, \"Voting is not active\") */\n      tag_99\n      jumpi\n      mload(0x40)\n      0x08c379a000000000000000000000000000000000000000000000000000000000\n      dup2\n      mstore\n      0x04\n      add\n      tag_100\n      swap1\n      tag_101\n      jump\t// in\n    tag_100:\n      mload(0x40)\n      dup1\n      swap2\n      sub\n      swap1\n      revert\n    tag_99:\n        /* \"contracts/Governance.sol\":2011:2019  proposal */\n      dup1\n        /* \"contracts/Governance.sol\":2011:2028  proposal.hasVoted */\n      0x08\n      add\n        /* \"contracts/Governance.sol\":2011:2040  proposal.hasVoted[msg.sender] */\n      0x00\n        /* \"contracts/Governance.sol\":2029:2039  msg.sender */\n      caller\n        /* \"contracts/Governance.sol\":2011:2040  proposal.hasVoted[msg.sender] */\n      0xffffffffffffffffffffffffffffffffffffffff\n      and\n      0xffffffffffffffffffffffffffffffffffffffff\n      and\n      dup2\n      mstore\n      0x20\n      add\n      swap1\n      dup2\n      mstore\n      0x20\n      add\n      0x00\n      keccak256\n      0x00\n      swap1\n      sload\n      swap1\n      0x0100\n      exp\n      swap1\n      div\n      0xff\n      and\n        /* \"contracts/Governance.sol\":2010:2040  !proposal.hasVoted[msg.sender] */\n      iszero\n        /* \"contracts/Governance.sol\":2002:2058  require(!proposal.hasVoted[msg.sender], \"Already voted\") */\n      tag_102\n      jumpi\n      mload(0x40)\n      0x08c379a000000000000000000000000000000000000000000000000000000000\n      dup2\n      mstore\n      0x04\n      add\n      tag_103\n      swap1\n      tag_104\n      jump\t// in\n    tag_103:\n      mload(0x40)\n      dup1\n      swap2\n      sub\n      swap1\n      revert\n    tag_102:\n        /* \"contracts/Governance.sol\":2071:2084  uint256 votes */\n      0x00\n        /* \"contracts/Governance.sol\":2087:2102  governanceToken */\n      0x00\n      0x00\n      swap1\n      sload\n      swap1\n      0x0100\n      exp\n      swap1\n      div\n      0xffffffffffffffffffffffffffffffffffffffff\n      and\n        /* \"contracts/Governance.sol\":2087:2112  governanceToken.balanceOf */\n      0xffffffffffffffffffffffffffffffffffffffff\n      and\n      0x70a08231\n        /* \"contracts/Governance.sol\":2113:2123  msg.sender */\n      caller\n        /* \"contracts/Governance.sol\":2087:2124  governanceToken.balanceOf(msg.sender) */\n      mload(0x40)\n      dup3\n      0xffffffff\n      and\n      0xe0\n      shl\n      dup2\n      mstore\n      0x04\n      add\n      tag_105\n      swap2\n      swap1\n      tag_83\n      jump\t// in\n    tag_105:\n      0x20\n      mload(0x40)\n      dup1\n      dup4\n      sub\n      dup2\n      dup7\n      gas\n      staticcall\n      iszero\n      dup1\n      iszero\n      tag_107\n      jumpi\n      returndatacopy(0x00, 0x00, returndatasize)\n      revert(0x00, returndatasize)\n    tag_107:\n      pop\n      pop\n      pop\n      pop\n      mload(0x40)\n      returndatasize\n      not(0x1f)\n      0x1f\n      dup3\n      add\n      and\n      dup3\n      add\n      dup1\n      0x40\n      mstore\n      pop\n      dup2\n      add\n      swap1\n      tag_108\n      swap2\n      swap1\n      tag_66\n      jump\t// in\n    tag_108:\n        /* \"contracts/Governance.sol\":2071:2124  uint256 votes = governanceToken.balanceOf(msg.sender) */\n      swap1\n      pop\n        /* \"contracts/Governance.sol\":2151:2152  0 */\n      0x00\n        /* \"contracts/Governance.sol\":2143:2148  votes */\n      dup2\n        /* \"contracts/Governance.sol\":2143:2152  votes > 0 */\n      gt\n        /* \"contracts/Governance.sol\":2135:2192  require(votes > 0, \"Must hold governance tokens to vote\") */\n      tag_109\n      jumpi\n      mload(0x40)\n      0x08c379a000000000000000000000000000000000000000000000000000000000\n      dup2\n      mstore\n      0x04\n      add\n      tag_110\n      swap1\n      tag_111\n      jump\t// in\n    tag_110:\n      mload(0x40)\n      dup1\n      swap2\n      sub\n      swap1\n      revert\n    tag_109:\n        /* \"contracts/Governance.sol\":2209:2217  _support */\n      dup3\n        /* \"contracts/Governance.sol\":2205:2335  if (_support) {... */\n      iszero\n      tag_112\n      jumpi\n        /* \"contracts/Governance.sol\":2255:2260  votes */\n      dup1\n        /* \"contracts/Governance.sol\":2234:2242  proposal */\n      dup3\n        /* \"contracts/Governance.sol\":2234:2251  proposal.forVotes */\n      0x03\n      add\n      0x00\n        /* \"contracts/Governance.sol\":2234:2260  proposal.forVotes += votes */\n      dup3\n      dup3\n      sload\n      tag_113\n      swap2\n      swap1\n      tag_62\n      jump\t// in\n    tag_113:\n      swap3\n      pop\n      pop\n      dup2\n      swap1\n      sstore\n      pop\n        /* \"contracts/Governance.sol\":2205:2335  if (_support) {... */\n      jump(tag_114)\n    tag_112:\n        /* \"contracts/Governance.sol\":2318:2323  votes */\n      dup1\n        /* \"contracts/Governance.sol\":2293:2301  proposal */\n      dup3\n        /* \"contracts/Governance.sol\":2293:2314  proposal.againstVotes */\n      0x04\n      add\n      0x00\n        /* \"contracts/Governance.sol\":2293:2323  proposal.againstVotes += votes */\n      dup3\n      dup3\n      sload\n      tag_115\n      swap2\n      swap1\n      tag_62\n      jump\t// in\n    tag_115:\n      swap3\n      pop\n      pop\n      dup2\n      swap1\n      sstore\n      pop\n        /* \"contracts/Governance.sol\":2205:2335  if (_support) {... */\n    tag_114:\n        /* \"contracts/Governance.sol\":2379:2383  true */\n      0x01\n        /* \"contracts/Governance.sol\":2347:2355  proposal */\n      dup3\n        /* \"contracts/Governance.sol\":2347:2364  proposal.hasVoted */\n      0x08\n      add\n        /* \"contracts/Governance.sol\":2347:2376  proposal.hasVoted[msg.sender] */\n      0x00\n        /* \"contracts/Governance.sol\":2365:2375  msg.sender */\n      caller\n        /* \"contracts/Governance.sol\":2347:2376  proposal.hasVoted[msg.sender] */\n      0xffffffffffffffffffffffffffffffffffffffff\n      and\n      0xffffffffffffffffffffffffffffffffffffffff\n      and\n      dup2\n      mstore\n      0x20\n      add\n      swap1\n      dup2\n      mstore\n      0x20\n      add\n      0x00\n      keccak256\n      0x00\n        /* \"contracts/Governance.sol\":2347:2383  proposal.hasVoted[msg.sender] = true */\n      0x0100\n      exp\n      dup2\n      sload\n      dup2\n      0xff\n      mul\n      not\n      and\n      swap1\n      dup4\n      iszero\n      iszero\n      mul\n      or\n      swap1\n      sstore\n      pop\n        /* \"contracts/Governance.sol\":2420:2430  msg.sender */\n      caller\n        /* \"contracts/Governance.sol\":2401:2448  Voted(_proposalId, msg.sender, _support, votes) */\n      0xffffffffffffffffffffffffffffffffffffffff\n      and\n        /* \"contracts/Governance.sol\":2407:2418  _proposalId */\n      dup5\n        /* \"contracts/Governance.sol\":2401:2448  Voted(_proposalId, msg.sender, _support, votes) */\n      0x7c2de587c00d75474a0c6c6fa96fd3b45dc974cd4e8a75f712bb84c950dce1b5\n        /* \"contracts/Governance.sol\":2432:2440  _support */\n      dup6\n        /* \"contracts/Governance.sol\":2442:2447  votes */\n      dup5\n        /* \"contracts/Governance.sol\":2401:2448  Voted(_proposalId, msg.sender, _support, votes) */\n      mload(0x40)\n      tag_116\n      swap3\n      swap2\n      swap1\n      tag_117\n      jump\t// in\n    tag_116:\n      mload(0x40)\n      dup1\n      swap2\n      sub\n      swap1\n      log3\n        /* \"contracts/Governance.sol\":1810:2456  {... */\n      pop\n      pop\n        /* \"contracts/Governance.sol\":1751:2456  function vote(uint256 _proposalId, bool _support) external {... */\n      pop\n      pop\n      jump\t// out\n        /* \"contracts/Governance.sol\":475:503  uint256 public proposalCount */\n    tag_42:\n      sload(0x01)\n      dup2\n      jump\t// out\n        /* \"contracts/Governance.sol\":439:468  IERC20 public governanceToken */\n    tag_45:\n      0x00\n      0x00\n      swap1\n      sload\n      swap1\n      0x0100\n      exp\n      swap1\n      div\n      0xffffffffffffffffffffffffffffffffffffffff\n      and\n      dup2\n      jump\t// out\n        /* \"#utility.yul\":7:82   */\n    tag_118:\n        /* \"#utility.yul\":40:46   */\n      0x00\n        /* \"#utility.yul\":73:75   */\n      0x40\n        /* \"#utility.yul\":67:76   */\n      mload\n        /* \"#utility.yul\":57:76   */\n      swap1\n      pop\n        /* \"#utility.yul\":7:82   */\n      swap1\n      jump\t// out\n        /* \"#utility.yul\":88:205   */\n    tag_119:\n        /* \"#utility.yul\":197:198   */\n      0x00\n        /* \"#utility.yul\":194:195   */\n      0x00\n        /* \"#utility.yul\":187:199   */\n      revert\n        /* \"#utility.yul\":211:328   */\n    tag_120:\n        /* \"#utility.yul\":320:321   */\n      0x00\n        /* \"#utility.yul\":317:318   */\n      0x00\n        /* \"#utility.yul\":310:322   */\n      revert\n        /* \"#utility.yul\":334:411   */\n    tag_121:\n        /* \"#utility.yul\":371:378   */\n      0x00\n        /* \"#utility.yul\":400:405   */\n      dup2\n        /* \"#utility.yul\":389:405   */\n      swap1\n      pop\n        /* \"#utility.yul\":334:411   */\n      swap2\n      swap1\n      pop\n      jump\t// out\n        /* \"#utility.yul\":417:539   */\n    tag_122:\n        /* \"#utility.yul\":490:514   */\n      tag_189\n        /* \"#utility.yul\":508:513   */\n      dup2\n        /* \"#utility.yul\":490:514   */\n      tag_121\n      jump\t// in\n    tag_189:\n        /* \"#utility.yul\":483:488   */\n      dup2\n        /* \"#utility.yul\":480:515   */\n      eq\n        /* \"#utility.yul\":470:533   */\n      tag_190\n      jumpi\n        /* \"#utility.yul\":529:530   */\n      0x00\n        /* \"#utility.yul\":526:527   */\n      0x00\n        /* \"#utility.yul\":519:531   */\n      revert\n        /* \"#utility.yul\":470:533   */\n    tag_190:\n        /* \"#utility.yul\":417:539   */\n      pop\n      jump\t// out\n        /* \"#utility.yul\":545:684   */\n    tag_123:\n        /* \"#utility.yul\":591:596   */\n      0x00\n        /* \"#utility.yul\":629:635   */\n      dup2\n        /* \"#utility.yul\":616:636   */\n      calldataload\n        /* \"#utility.yul\":607:636   */\n      swap1\n      pop\n        /* \"#utility.yul\":645:678   */\n      tag_192\n        /* \"#utility.yul\":672:677   */\n      dup2\n        /* \"#utility.yul\":645:678   */\n      tag_122\n      jump\t// in\n    tag_192:\n        /* \"#utility.yul\":545:684   */\n      swap3\n      swap2\n      pop\n      pop\n      jump\t// out\n        /* \"#utility.yul\":690:1019   */\n    tag_15:\n        /* \"#utility.yul\":749:755   */\n      0x00\n        /* \"#utility.yul\":798:800   */\n      0x20\n        /* \"#utility.yul\":786:795   */\n      dup3\n        /* \"#utility.yul\":777:784   */\n      dup5\n        /* \"#utility.yul\":773:796   */\n      sub\n        /* \"#utility.yul\":769:801   */\n      slt\n        /* \"#utility.yul\":766:885   */\n      iszero\n      tag_194\n      jumpi\n        /* \"#utility.yul\":804:883   */\n      tag_195\n      tag_119\n      jump\t// in\n    tag_195:\n        /* \"#utility.yul\":766:885   */\n    tag_194:\n        /* \"#utility.yul\":924:925   */\n      0x00\n        /* \"#utility.yul\":949:1002   */\n      tag_196\n        /* \"#utility.yul\":994:1001   */\n      dup5\n        /* \"#utility.yul\":985:991   */\n      dup3\n        /* \"#utility.yul\":974:983   */\n      dup6\n        /* \"#utility.yul\":970:992   */\n      add\n        /* \"#utility.yul\":949:1002   */\n      tag_123\n      jump\t// in\n    tag_196:\n        /* \"#utility.yul\":939:1002   */\n      swap2\n      pop\n        /* \"#utility.yul\":895:1012   */\n      pop\n        /* \"#utility.yul\":690:1019   */\n      swap3\n      swap2\n      pop\n      pop\n      jump\t// out\n        /* \"#utility.yul\":1025:1143   */\n    tag_124:\n        /* \"#utility.yul\":1112:1136   */\n      tag_198\n        /* \"#utility.yul\":1130:1135   */\n      dup2\n        /* \"#utility.yul\":1112:1136   */\n      tag_121\n      jump\t// in\n    tag_198:\n        /* \"#utility.yul\":1107:1110   */\n      dup3\n        /* \"#utility.yul\":1100:1137   */\n      mstore\n        /* \"#utility.yul\":1025:1143   */\n      pop\n      pop\n      jump\t// out\n        /* \"#utility.yul\":1149:1275   */\n    tag_125:\n        /* \"#utility.yul\":1186:1193   */\n      0x00\n        /* \"#utility.yul\":1226:1268   */\n      0xffffffffffffffffffffffffffffffffffffffff\n        /* \"#utility.yul\":1219:1224   */\n      dup3\n        /* \"#utility.yul\":1215:1269   */\n      and\n        /* \"#utility.yul\":1204:1269   */\n      swap1\n      pop\n        /* \"#utility.yul\":1149:1275   */\n      swap2\n      swap1\n      pop\n      jump\t// out\n        /* \"#utility.yul\":1281:1377   */\n    tag_126:\n        /* \"#utility.yul\":1318:1325   */\n      0x00\n        /* \"#utility.yul\":1347:1371   */\n      tag_201\n        /* \"#utility.yul\":1365:1370   */\n      dup3\n        /* \"#utility.yul\":1347:1371   */\n      tag_125\n      jump\t// in\n    tag_201:\n        /* \"#utility.yul\":1336:1371   */\n      swap1\n      pop\n        /* \"#utility.yul\":1281:1377   */\n      swap2\n      swap1\n      pop\n      jump\t// out\n        /* \"#utility.yul\":1383:1501   */\n    tag_127:\n        /* \"#utility.yul\":1470:1494   */\n      tag_203\n        /* \"#utility.yul\":1488:1493   */\n      dup2\n        /* \"#utility.yul\":1470:1494   */\n      tag_126\n      jump\t// in\n    tag_203:\n        /* \"#utility.yul\":1465:1468   */\n      dup3\n        /* \"#utility.yul\":1458:1495   */\n      mstore\n        /* \"#utility.yul\":1383:1501   */\n      pop\n      pop\n      jump\t// out\n        /* \"#utility.yul\":1507:1606   */\n    tag_128:\n        /* \"#utility.yul\":1559:1565   */\n      0x00\n        /* \"#utility.yul\":1593:1598   */\n      dup2\n        /* \"#utility.yul\":1587:1599   */\n      mload\n        /* \"#utility.yul\":1577:1599   */\n      swap1\n      pop\n        /* \"#utility.yul\":1507:1606   */\n      swap2\n      swap1\n      pop\n      jump\t// out\n        /* \"#utility.yul\":1612:1781   */\n    tag_129:\n        /* \"#utility.yul\":1696:1707   */\n      0x00\n        /* \"#utility.yul\":1730:1736   */\n      dup3\n        /* \"#utility.yul\":1725:1728   */\n      dup3\n        /* \"#utility.yul\":1718:1737   */\n      mstore\n        /* \"#utility.yul\":1770:1774   */\n      0x20\n        /* \"#utility.yul\":1765:1768   */\n      dup3\n        /* \"#utility.yul\":1761:1775   */\n      add\n        /* \"#utility.yul\":1746:1775   */\n      swap1\n      pop\n        /* \"#utility.yul\":1612:1781   */\n      swap3\n      swap2\n      pop\n      pop\n      jump\t// out\n        /* \"#utility.yul\":1787:1926   */\n    tag_130:\n        /* \"#utility.yul\":1876:1882   */\n      dup3\n        /* \"#utility.yul\":1871:1874   */\n      dup2\n        /* \"#utility.yul\":1866:1869   */\n      dup4\n        /* \"#utility.yul\":1860:1883   */\n      mcopy\n        /* \"#utility.yul\":1917:1918   */\n      0x00\n        /* \"#utility.yul\":1908:1914   */\n      dup4\n        /* \"#utility.yul\":1903:1906   */\n      dup4\n        /* \"#utility.yul\":1899:1915   */\n      add\n        /* \"#utility.yul\":1892:1919   */\n      mstore\n        /* \"#utility.yul\":1787:1926   */\n      pop\n      pop\n      pop\n      jump\t// out\n        /* \"#utility.yul\":1932:2034   */\n    tag_131:\n        /* \"#utility.yul\":1973:1979   */\n      0x00\n        /* \"#utility.yul\":2024:2026   */\n      0x1f\n        /* \"#utility.yul\":2020:2027   */\n      not\n        /* \"#utility.yul\":2015:2017   */\n      0x1f\n        /* \"#utility.yul\":2008:2013   */\n      dup4\n        /* \"#utility.yul\":2004:2018   */\n      add\n        /* \"#utility.yul\":2000:2028   */\n      and\n        /* \"#utility.yul\":1990:2028   */\n      swap1\n      pop\n        /* \"#utility.yul\":1932:2034   */\n      swap2\n      swap1\n      pop\n      jump\t// out\n        /* \"#utility.yul\":2040:2417   */\n    tag_132:\n        /* \"#utility.yul\":2128:2131   */\n      0x00\n        /* \"#utility.yul\":2156:2195   */\n      tag_209\n        /* \"#utility.yul\":2189:2194   */\n      dup3\n        /* \"#utility.yul\":2156:2195   */\n      tag_128\n      jump\t// in\n    tag_209:\n        /* \"#utility.yul\":2211:2282   */\n      tag_210\n        /* \"#utility.yul\":2275:2281   */\n      dup2\n        /* \"#utility.yul\":2270:2273   */\n      dup6\n        /* \"#utility.yul\":2211:2282   */\n      tag_129\n      jump\t// in\n    tag_210:\n        /* \"#utility.yul\":2204:2282   */\n      swap4\n      pop\n        /* \"#utility.yul\":2291:2356   */\n      tag_211\n        /* \"#utility.yul\":2349:2355   */\n      dup2\n        /* \"#utility.yul\":2344:2347   */\n      dup6\n        /* \"#utility.yul\":2337:2341   */\n      0x20\n        /* \"#utility.yul\":2330:2335   */\n      dup7\n        /* \"#utility.yul\":2326:2342   */\n      add\n        /* \"#utility.yul\":2291:2356   */\n      tag_130\n      jump\t// in\n    tag_211:\n        /* \"#utility.yul\":2381:2410   */\n      tag_212\n        /* \"#utility.yul\":2403:2409   */\n      dup2\n        /* \"#utility.yul\":2381:2410   */\n      tag_131\n      jump\t// in\n    tag_212:\n        /* \"#utility.yul\":2376:2379   */\n      dup5\n        /* \"#utility.yul\":2372:2411   */\n      add\n        /* \"#utility.yul\":2365:2411   */\n      swap2\n      pop\n        /* \"#utility.yul\":2132:2417   */\n      pop\n        /* \"#utility.yul\":2040:2417   */\n      swap3\n      swap2\n      pop\n      pop\n      jump\t// out\n        /* \"#utility.yul\":2423:2513   */\n    tag_133:\n        /* \"#utility.yul\":2457:2464   */\n      0x00\n        /* \"#utility.yul\":2500:2505   */\n      dup2\n        /* \"#utility.yul\":2493:2506   */\n      iszero\n        /* \"#utility.yul\":2486:2507   */\n      iszero\n        /* \"#utility.yul\":2475:2507   */\n      swap1\n      pop\n        /* \"#utility.yul\":2423:2513   */\n      swap2\n      swap1\n      pop\n      jump\t// out\n        /* \"#utility.yul\":2519:2628   */\n    tag_134:\n        /* \"#utility.yul\":2600:2621   */\n      tag_215\n        /* \"#utility.yul\":2615:2620   */\n      dup2\n        /* \"#utility.yul\":2600:2621   */\n      tag_133\n      jump\t// in\n    tag_215:\n        /* \"#utility.yul\":2595:2598   */\n      dup3\n        /* \"#utility.yul\":2588:2622   */\n      mstore\n        /* \"#utility.yul\":2519:2628   */\n      pop\n      pop\n      jump\t// out\n        /* \"#utility.yul\":2634:3710   */\n    tag_18:\n        /* \"#utility.yul\":2937:2941   */\n      0x00\n        /* \"#utility.yul\":2975:2978   */\n      0x0100\n        /* \"#utility.yul\":2964:2973   */\n      dup3\n        /* \"#utility.yul\":2960:2979   */\n      add\n        /* \"#utility.yul\":2952:2979   */\n      swap1\n      pop\n        /* \"#utility.yul\":2989:3060   */\n      tag_217\n        /* \"#utility.yul\":3057:3058   */\n      0x00\n        /* \"#utility.yul\":3046:3055   */\n      dup4\n        /* \"#utility.yul\":3042:3059   */\n      add\n        /* \"#utility.yul\":3033:3039   */\n      dup12\n        /* \"#utility.yul\":2989:3060   */\n      tag_124\n      jump\t// in\n    tag_217:\n        /* \"#utility.yul\":3070:3142   */\n      tag_218\n        /* \"#utility.yul\":3138:3140   */\n      0x20\n        /* \"#utility.yul\":3127:3136   */\n      dup4\n        /* \"#utility.yul\":3123:3141   */\n      add\n        /* \"#utility.yul\":3114:3120   */\n      dup11\n        /* \"#utility.yul\":3070:3142   */\n      tag_127\n      jump\t// in\n    tag_218:\n        /* \"#utility.yul\":3189:3198   */\n      dup2\n        /* \"#utility.yul\":3183:3187   */\n      dup2\n        /* \"#utility.yul\":3179:3199   */\n      sub\n        /* \"#utility.yul\":3174:3176   */\n      0x40\n        /* \"#utility.yul\":3163:3172   */\n      dup4\n        /* \"#utility.yul\":3159:3177   */\n      add\n        /* \"#utility.yul\":3152:3200   */\n      mstore\n        /* \"#utility.yul\":3217:3295   */\n      tag_219\n        /* \"#utility.yul\":3290:3294   */\n      dup2\n        /* \"#utility.yul\":3281:3287   */\n      dup10\n        /* \"#utility.yul\":3217:3295   */\n      tag_132\n      jump\t// in\n    tag_219:\n        /* \"#utility.yul\":3209:3295   */\n      swap1\n      pop\n        /* \"#utility.yul\":3305:3377   */\n      tag_220\n        /* \"#utility.yul\":3373:3375   */\n      0x60\n        /* \"#utility.yul\":3362:3371   */\n      dup4\n        /* \"#utility.yul\":3358:3376   */\n      add\n        /* \"#utility.yul\":3349:3355   */\n      dup9\n        /* \"#utility.yul\":3305:3377   */\n      tag_124\n      jump\t// in\n    tag_220:\n        /* \"#utility.yul\":3387:3460   */\n      tag_221\n        /* \"#utility.yul\":3455:3458   */\n      0x80\n        /* \"#utility.yul\":3444:3453   */\n      dup4\n        /* \"#utility.yul\":3440:3459   */\n      add\n        /* \"#utility.yul\":3431:3437   */\n      dup8\n        /* \"#utility.yul\":3387:3460   */\n      tag_124\n      jump\t// in\n    tag_221:\n        /* \"#utility.yul\":3470:3543   */\n      tag_222\n        /* \"#utility.yul\":3538:3541   */\n      0xa0\n        /* \"#utility.yul\":3527:3536   */\n      dup4\n        /* \"#utility.yul\":3523:3542   */\n      add\n        /* \"#utility.yul\":3514:3520   */\n      dup7\n        /* \"#utility.yul\":3470:3543   */\n      tag_124\n      jump\t// in\n    tag_222:\n        /* \"#utility.yul\":3553:3626   */\n      tag_223\n        /* \"#utility.yul\":3621:3624   */\n      0xc0\n        /* \"#utility.yul\":3610:3619   */\n      dup4\n        /* \"#utility.yul\":3606:3625   */\n      add\n        /* \"#utility.yul\":3597:3603   */\n      dup6\n        /* \"#utility.yul\":3553:3626   */\n      tag_124\n      jump\t// in\n    tag_223:\n        /* \"#utility.yul\":3636:3703   */\n      tag_224\n        /* \"#utility.yul\":3698:3701   */\n      0xe0\n        /* \"#utility.yul\":3687:3696   */\n      dup4\n        /* \"#utility.yul\":3683:3702   */\n      add\n        /* \"#utility.yul\":3674:3680   */\n      dup5\n        /* \"#utility.yul\":3636:3703   */\n      tag_134\n      jump\t// in\n    tag_224:\n        /* \"#utility.yul\":2634:3710   */\n      swap10\n      swap9\n      pop\n      pop\n      pop\n      pop\n      pop\n      pop\n      pop\n      pop\n      pop\n      jump\t// out\n        /* \"#utility.yul\":3716:3938   */\n    tag_22:\n        /* \"#utility.yul\":3809:3813   */\n      0x00\n        /* \"#utility.yul\":3847:3849   */\n      0x20\n        /* \"#utility.yul\":3836:3845   */\n      dup3\n        /* \"#utility.yul\":3832:3850   */\n      add\n        /* \"#utility.yul\":3824:3850   */\n      swap1\n      pop\n        /* \"#utility.yul\":3860:3931   */\n      tag_226\n        /* \"#utility.yul\":3928:3929   */\n      0x00\n        /* \"#utility.yul\":3917:3926   */\n      dup4\n        /* \"#utility.yul\":3913:3930   */\n      add\n        /* \"#utility.yul\":3904:3910   */\n      dup5\n        /* \"#utility.yul\":3860:3931   */\n      tag_124\n      jump\t// in\n    tag_226:\n        /* \"#utility.yul\":3716:3938   */\n      swap3\n      swap2\n      pop\n      pop\n      jump\t// out\n        /* \"#utility.yul\":3944:4061   */\n    tag_135:\n        /* \"#utility.yul\":4053:4054   */\n      0x00\n        /* \"#utility.yul\":4050:4051   */\n      0x00\n        /* \"#utility.yul\":4043:4055   */\n      revert\n        /* \"#utility.yul\":4067:4184   */\n    tag_136:\n        /* \"#utility.yul\":4176:4177   */\n      0x00\n        /* \"#utility.yul\":4173:4174   */\n      0x00\n        /* \"#utility.yul\":4166:4178   */\n      revert\n        /* \"#utility.yul\":4190:4370   */\n    tag_137:\n        /* \"#utility.yul\":4238:4315   */\n      0x4e487b7100000000000000000000000000000000000000000000000000000000\n        /* \"#utility.yul\":4235:4236   */\n      0x00\n        /* \"#utility.yul\":4228:4316   */\n      mstore\n        /* \"#utility.yul\":4335:4339   */\n      0x41\n        /* \"#utility.yul\":4332:4333   */\n      0x04\n        /* \"#utility.yul\":4325:4340   */\n      mstore\n        /* \"#utility.yul\":4359:4363   */\n      0x24\n        /* \"#utility.yul\":4356:4357   */\n      0x00\n        /* \"#utility.yul\":4349:4364   */\n      revert\n        /* \"#utility.yul\":4376:4657   */\n    tag_138:\n        /* \"#utility.yul\":4459:4486   */\n      tag_231\n        /* \"#utility.yul\":4481:4485   */\n      dup3\n        /* \"#utility.yul\":4459:4486   */\n      tag_131\n      jump\t// in\n    tag_231:\n        /* \"#utility.yul\":4451:4457   */\n      dup2\n        /* \"#utility.yul\":4447:4487   */\n      add\n        /* \"#utility.yul\":4589:4595   */\n      dup2\n        /* \"#utility.yul\":4577:4587   */\n      dup2\n        /* \"#utility.yul\":4574:4596   */\n      lt\n        /* \"#utility.yul\":4553:4571   */\n      0xffffffffffffffff\n        /* \"#utility.yul\":4541:4551   */\n      dup3\n        /* \"#utility.yul\":4538:4572   */\n      gt\n        /* \"#utility.yul\":4535:4597   */\n      or\n        /* \"#utility.yul\":4532:4620   */\n      iszero\n      tag_232\n      jumpi\n        /* \"#utility.yul\":4600:4618   */\n      tag_233\n      tag_137\n      jump\t// in\n    tag_233:\n        /* \"#utility.yul\":4532:4620   */\n    tag_232:\n        /* \"#utility.yul\":4640:4650   */\n      dup1\n        /* \"#utility.yul\":4636:4638   */\n      0x40\n        /* \"#utility.yul\":4629:4651   */\n      mstore\n        /* \"#utility.yul\":4419:4657   */\n      pop\n        /* \"#utility.yul\":4376:4657   */\n      pop\n      pop\n      jump\t// out\n        /* \"#utility.yul\":4663:4792   */\n    tag_139:\n        /* \"#utility.yul\":4697:4703   */\n      0x00\n        /* \"#utility.yul\":4724:4744   */\n      tag_235\n      tag_118\n      jump\t// in\n    tag_235:\n        /* \"#utility.yul\":4714:4744   */\n      swap1\n      pop\n        /* \"#utility.yul\":4753:4786   */\n      tag_236\n        /* \"#utility.yul\":4781:4785   */\n      dup3\n        /* \"#utility.yul\":4773:4779   */\n      dup3\n        /* \"#utility.yul\":4753:4786   */\n      tag_138\n      jump\t// in\n    tag_236:\n        /* \"#utility.yul\":4663:4792   */\n      swap2\n      swap1\n      pop\n      jump\t// out\n        /* \"#utility.yul\":4798:5106   */\n    tag_140:\n        /* \"#utility.yul\":4860:4864   */\n      0x00\n        /* \"#utility.yul\":4950:4968   */\n      0xffffffffffffffff\n        /* \"#utility.yul\":4942:4948   */\n      dup3\n        /* \"#utility.yul\":4939:4969   */\n      gt\n        /* \"#utility.yul\":4936:4992   */\n      iszero\n      tag_238\n      jumpi\n        /* \"#utility.yul\":4972:4990   */\n      tag_239\n      tag_137\n      jump\t// in\n    tag_239:\n        /* \"#utility.yul\":4936:4992   */\n    tag_238:\n        /* \"#utility.yul\":5010:5039   */\n      tag_240\n        /* \"#utility.yul\":5032:5038   */\n      dup3\n        /* \"#utility.yul\":5010:5039   */\n      tag_131\n      jump\t// in\n    tag_240:\n        /* \"#utility.yul\":5002:5039   */\n      swap1\n      pop\n        /* \"#utility.yul\":5094:5098   */\n      0x20\n        /* \"#utility.yul\":5088:5092   */\n      dup2\n        /* \"#utility.yul\":5084:5099   */\n      add\n        /* \"#utility.yul\":5076:5099   */\n      swap1\n      pop\n        /* \"#utility.yul\":4798:5106   */\n      swap2\n      swap1\n      pop\n      jump\t// out\n        /* \"#utility.yul\":5112:5260   */\n    tag_141:\n        /* \"#utility.yul\":5210:5216   */\n      dup3\n        /* \"#utility.yul\":5205:5208   */\n      dup2\n        /* \"#utility.yul\":5200:5203   */\n      dup4\n        /* \"#utility.yul\":5187:5217   */\n      calldatacopy\n        /* \"#utility.yul\":5251:5252   */\n      0x00\n        /* \"#utility.yul\":5242:5248   */\n      dup4\n        /* \"#utility.yul\":5237:5240   */\n      dup4\n        /* \"#utility.yul\":5233:5249   */\n      add\n        /* \"#utility.yul\":5226:5253   */\n      mstore\n        /* \"#utility.yul\":5112:5260   */\n      pop\n      pop\n      pop\n      jump\t// out\n        /* \"#utility.yul\":5266:5691   */\n    tag_142:\n        /* \"#utility.yul\":5344:5349   */\n      0x00\n        /* \"#utility.yul\":5369:5435   */\n      tag_243\n        /* \"#utility.yul\":5385:5434   */\n      tag_244\n        /* \"#utility.yul\":5427:5433   */\n      dup5\n        /* \"#utility.yul\":5385:5434   */\n      tag_140\n      jump\t// in\n    tag_244:\n        /* \"#utility.yul\":5369:5435   */\n      tag_139\n      jump\t// in\n    tag_243:\n        /* \"#utility.yul\":5360:5435   */\n      swap1\n      pop\n        /* \"#utility.yul\":5458:5464   */\n      dup3\n        /* \"#utility.yul\":5451:5456   */\n      dup2\n        /* \"#utility.yul\":5444:5465   */\n      mstore\n        /* \"#utility.yul\":5496:5500   */\n      0x20\n        /* \"#utility.yul\":5489:5494   */\n      dup2\n        /* \"#utility.yul\":5485:5501   */\n      add\n        /* \"#utility.yul\":5534:5537   */\n      dup5\n        /* \"#utility.yul\":5525:5531   */\n      dup5\n        /* \"#utility.yul\":5520:5523   */\n      dup5\n        /* \"#utility.yul\":5516:5532   */\n      add\n        /* \"#utility.yul\":5513:5538   */\n      gt\n        /* \"#utility.yul\":5510:5622   */\n      iszero\n      tag_245\n      jumpi\n        /* \"#utility.yul\":5541:5620   */\n      tag_246\n      tag_136\n      jump\t// in\n    tag_246:\n        /* \"#utility.yul\":5510:5622   */\n    tag_245:\n        /* \"#utility.yul\":5631:5685   */\n      tag_247\n        /* \"#utility.yul\":5678:5684   */\n      dup5\n        /* \"#utility.yul\":5673:5676   */\n      dup3\n        /* \"#utility.yul\":5668:5671   */\n      dup6\n        /* \"#utility.yul\":5631:5685   */\n      tag_141\n      jump\t// in\n    tag_247:\n        /* \"#utility.yul\":5350:5691   */\n      pop\n        /* \"#utility.yul\":5266:5691   */\n      swap4\n      swap3\n      pop\n      pop\n      pop\n      jump\t// out\n        /* \"#utility.yul\":5711:6051   */\n    tag_143:\n        /* \"#utility.yul\":5767:5772   */\n      0x00\n        /* \"#utility.yul\":5816:5819   */\n      dup3\n        /* \"#utility.yul\":5809:5813   */\n      0x1f\n        /* \"#utility.yul\":5801:5807   */\n      dup4\n        /* \"#utility.yul\":5797:5814   */\n      add\n        /* \"#utility.yul\":5793:5820   */\n      slt\n        /* \"#utility.yul\":5783:5905   */\n      tag_249\n      jumpi\n        /* \"#utility.yul\":5824:5903   */\n      tag_250\n      tag_135\n      jump\t// in\n    tag_250:\n        /* \"#utility.yul\":5783:5905   */\n    tag_249:\n        /* \"#utility.yul\":5941:5947   */\n      dup2\n        /* \"#utility.yul\":5928:5948   */\n      calldataload\n        /* \"#utility.yul\":5966:6045   */\n      tag_251\n        /* \"#utility.yul\":6041:6044   */\n      dup5\n        /* \"#utility.yul\":6033:6039   */\n      dup3\n        /* \"#utility.yul\":6026:6030   */\n      0x20\n        /* \"#utility.yul\":6018:6024   */\n      dup7\n        /* \"#utility.yul\":6014:6031   */\n      add\n        /* \"#utility.yul\":5966:6045   */\n      tag_142\n      jump\t// in\n    tag_251:\n        /* \"#utility.yul\":5957:6045   */\n      swap2\n      pop\n        /* \"#utility.yul\":5773:6051   */\n      pop\n        /* \"#utility.yul\":5711:6051   */\n      swap3\n      swap2\n      pop\n      pop\n      jump\t// out\n        /* \"#utility.yul\":6057:6566   */\n    tag_32:\n        /* \"#utility.yul\":6126:6132   */\n      0x00\n        /* \"#utility.yul\":6175:6177   */\n      0x20\n        /* \"#utility.yul\":6163:6172   */\n      dup3\n        /* \"#utility.yul\":6154:6161   */\n      dup5\n        /* \"#utility.yul\":6150:6173   */\n      sub\n        /* \"#utility.yul\":6146:6178   */\n      slt\n        /* \"#utility.yul\":6143:6262   */\n      iszero\n      tag_253\n      jumpi\n        /* \"#utility.yul\":6181:6260   */\n      tag_254\n      tag_119\n      jump\t// in\n    tag_254:\n        /* \"#utility.yul\":6143:6262   */\n    tag_253:\n        /* \"#utility.yul\":6329:6330   */\n      0x00\n        /* \"#utility.yul\":6318:6327   */\n      dup3\n        /* \"#utility.yul\":6314:6331   */\n      add\n        /* \"#utility.yul\":6301:6332   */\n      calldataload\n        /* \"#utility.yul\":6359:6377   */\n      0xffffffffffffffff\n        /* \"#utility.yul\":6351:6357   */\n      dup2\n        /* \"#utility.yul\":6348:6378   */\n      gt\n        /* \"#utility.yul\":6345:6462   */\n      iszero\n      tag_255\n      jumpi\n        /* \"#utility.yul\":6381:6460   */\n      tag_256\n      tag_120\n      jump\t// in\n    tag_256:\n        /* \"#utility.yul\":6345:6462   */\n    tag_255:\n        /* \"#utility.yul\":6486:6549   */\n      tag_257\n        /* \"#utility.yul\":6541:6548   */\n      dup5\n        /* \"#utility.yul\":6532:6538   */\n      dup3\n        /* \"#utility.yul\":6521:6530   */\n      dup6\n        /* \"#utility.yul\":6517:6539   */\n      add\n        /* \"#utility.yul\":6486:6549   */\n      tag_143\n      jump\t// in\n    tag_257:\n        /* \"#utility.yul\":6476:6549   */\n      swap2\n      pop\n        /* \"#utility.yul\":6272:6559   */\n      pop\n        /* \"#utility.yul\":6057:6566   */\n      swap3\n      swap2\n      pop\n      pop\n      jump\t// out\n        /* \"#utility.yul\":6572:6688   */\n    tag_144:\n        /* \"#utility.yul\":6642:6663   */\n      tag_259\n        /* \"#utility.yul\":6657:6662   */\n      dup2\n        /* \"#utility.yul\":6642:6663   */\n      tag_133\n      jump\t// in\n    tag_259:\n        /* \"#utility.yul\":6635:6640   */\n      dup2\n        /* \"#utility.yul\":6632:6664   */\n      eq\n        /* \"#utility.yul\":6622:6682   */\n      tag_260\n      jumpi\n        /* \"#utility.yul\":6678:6679   */\n      0x00\n        /* \"#utility.yul\":6675:6676   */\n      0x00\n        /* \"#utility.yul\":6668:6680   */\n      revert\n        /* \"#utility.yul\":6622:6682   */\n    tag_260:\n        /* \"#utility.yul\":6572:6688   */\n      pop\n      jump\t// out\n        /* \"#utility.yul\":6694:6827   */\n    tag_145:\n        /* \"#utility.yul\":6737:6742   */\n      0x00\n        /* \"#utility.yul\":6775:6781   */\n      dup2\n        /* \"#utility.yul\":6762:6782   */\n      calldataload\n        /* \"#utility.yul\":6753:6782   */\n      swap1\n      pop\n        /* \"#utility.yul\":6791:6821   */\n      tag_262\n        /* \"#utility.yul\":6815:6820   */\n      dup2\n        /* \"#utility.yul\":6791:6821   */\n      tag_144\n      jump\t// in\n    tag_262:\n        /* \"#utility.yul\":6694:6827   */\n      swap3\n      swap2\n      pop\n      pop\n      jump\t// out\n        /* \"#utility.yul\":6833:7301   */\n    tag_39:\n        /* \"#utility.yul\":6898:6904   */\n      0x00\n        /* \"#utility.yul\":6906:6912   */\n      0x00\n        /* \"#utility.yul\":6955:6957   */\n      0x40\n        /* \"#utility.yul\":6943:6952   */\n      dup4\n        /* \"#utility.yul\":6934:6941   */\n      dup6\n        /* \"#utility.yul\":6930:6953   */\n      sub\n        /* \"#utility.yul\":6926:6958   */\n      slt\n        /* \"#utility.yul\":6923:7042   */\n      iszero\n      tag_264\n      jumpi\n        /* \"#utility.yul\":6961:7040   */\n      tag_265\n      tag_119\n      jump\t// in\n    tag_265:\n        /* \"#utility.yul\":6923:7042   */\n    tag_264:\n        /* \"#utility.yul\":7081:7082   */\n      0x00\n        /* \"#utility.yul\":7106:7159   */\n      tag_266\n        /* \"#utility.yul\":7151:7158   */\n      dup6\n        /* \"#utility.yul\":7142:7148   */\n      dup3\n        /* \"#utility.yul\":7131:7140   */\n      dup7\n        /* \"#utility.yul\":7127:7149   */\n      add\n        /* \"#utility.yul\":7106:7159   */\n      tag_123\n      jump\t// in\n    tag_266:\n        /* \"#utility.yul\":7096:7159   */\n      swap3\n      pop\n        /* \"#utility.yul\":7052:7169   */\n      pop\n        /* \"#utility.yul\":7208:7210   */\n      0x20\n        /* \"#utility.yul\":7234:7284   */\n      tag_267\n        /* \"#utility.yul\":7276:7283   */\n      dup6\n        /* \"#utility.yul\":7267:7273   */\n      dup3\n        /* \"#utility.yul\":7256:7265   */\n      dup7\n        /* \"#utility.yul\":7252:7274   */\n      add\n        /* \"#utility.yul\":7234:7284   */\n      tag_145\n      jump\t// in\n    tag_267:\n        /* \"#utility.yul\":7224:7284   */\n      swap2\n      pop\n        /* \"#utility.yul\":7179:7294   */\n      pop\n        /* \"#utility.yul\":6833:7301   */\n      swap3\n      pop\n      swap3\n      swap1\n      pop\n      jump\t// out\n        /* \"#utility.yul\":7307:7367   */\n    tag_146:\n        /* \"#utility.yul\":7335:7338   */\n      0x00\n        /* \"#utility.yul\":7356:7361   */\n      dup2\n        /* \"#utility.yul\":7349:7361   */\n      swap1\n      pop\n        /* \"#utility.yul\":7307:7367   */\n      swap2\n      swap1\n      pop\n      jump\t// out\n        /* \"#utility.yul\":7373:7515   */\n    tag_147:\n        /* \"#utility.yul\":7423:7432   */\n      0x00\n        /* \"#utility.yul\":7456:7509   */\n      tag_270\n        /* \"#utility.yul\":7474:7508   */\n      tag_271\n        /* \"#utility.yul\":7483:7507   */\n      tag_272\n        /* \"#utility.yul\":7501:7506   */\n      dup5\n        /* \"#utility.yul\":7483:7507   */\n      tag_125\n      jump\t// in\n    tag_272:\n        /* \"#utility.yul\":7474:7508   */\n      tag_146\n      jump\t// in\n    tag_271:\n        /* \"#utility.yul\":7456:7509   */\n      tag_125\n      jump\t// in\n    tag_270:\n        /* \"#utility.yul\":7443:7509   */\n      swap1\n      pop\n        /* \"#utility.yul\":7373:7515   */\n      swap2\n      swap1\n      pop\n      jump\t// out\n        /* \"#utility.yul\":7521:7647   */\n    tag_148:\n        /* \"#utility.yul\":7571:7580   */\n      0x00\n        /* \"#utility.yul\":7604:7641   */\n      tag_274\n        /* \"#utility.yul\":7635:7640   */\n      dup3\n        /* \"#utility.yul\":7604:7641   */\n      tag_147\n      jump\t// in\n    tag_274:\n        /* \"#utility.yul\":7591:7641   */\n      swap1\n      pop\n        /* \"#utility.yul\":7521:7647   */\n      swap2\n      swap1\n      pop\n      jump\t// out\n        /* \"#utility.yul\":7653:7792   */\n    tag_149:\n        /* \"#utility.yul\":7716:7725   */\n      0x00\n        /* \"#utility.yul\":7749:7786   */\n      tag_276\n        /* \"#utility.yul\":7780:7785   */\n      dup3\n        /* \"#utility.yul\":7749:7786   */\n      tag_148\n      jump\t// in\n    tag_276:\n        /* \"#utility.yul\":7736:7786   */\n      swap1\n      pop\n        /* \"#utility.yul\":7653:7792   */\n      swap2\n      swap1\n      pop\n      jump\t// out\n        /* \"#utility.yul\":7798:7955   */\n    tag_150:\n        /* \"#utility.yul\":7898:7948   */\n      tag_278\n        /* \"#utility.yul\":7942:7947   */\n      dup2\n        /* \"#utility.yul\":7898:7948   */\n      tag_149\n      jump\t// in\n    tag_278:\n        /* \"#utility.yul\":7893:7896   */\n      dup3\n        /* \"#utility.yul\":7886:7949   */\n      mstore\n        /* \"#utility.yul\":7798:7955   */\n      pop\n      pop\n      jump\t// out\n        /* \"#utility.yul\":7961:8209   */\n    tag_47:\n        /* \"#utility.yul\":8067:8071   */\n      0x00\n        /* \"#utility.yul\":8105:8107   */\n      0x20\n        /* \"#utility.yul\":8094:8103   */\n      dup3\n        /* \"#utility.yul\":8090:8108   */\n      add\n        /* \"#utility.yul\":8082:8108   */\n      swap1\n      pop\n        /* \"#utility.yul\":8118:8202   */\n      tag_280\n        /* \"#utility.yul\":8199:8200   */\n      0x00\n        /* \"#utility.yul\":8188:8197   */\n      dup4\n        /* \"#utility.yul\":8184:8201   */\n      add\n        /* \"#utility.yul\":8175:8181   */\n      dup5\n        /* \"#utility.yul\":8118:8202   */\n      tag_150\n      jump\t// in\n    tag_280:\n        /* \"#utility.yul\":7961:8209   */\n      swap3\n      swap2\n      pop\n      pop\n      jump\t// out\n        /* \"#utility.yul\":8215:8395   */\n    tag_151:\n        /* \"#utility.yul\":8263:8340   */\n      0x4e487b7100000000000000000000000000000000000000000000000000000000\n        /* \"#utility.yul\":8260:8261   */\n      0x00\n        /* \"#utility.yul\":8253:8341   */\n      mstore\n        /* \"#utility.yul\":8360:8364   */\n      0x22\n        /* \"#utility.yul\":8357:8358   */\n      0x04\n        /* \"#utility.yul\":8350:8365   */\n      mstore\n        /* \"#utility.yul\":8384:8388   */\n      0x24\n        /* \"#utility.yul\":8381:8382   */\n      0x00\n        /* \"#utility.yul\":8374:8389   */\n      revert\n        /* \"#utility.yul\":8401:8721   */\n    tag_49:\n        /* \"#utility.yul\":8445:8451   */\n      0x00\n        /* \"#utility.yul\":8482:8483   */\n      0x02\n        /* \"#utility.yul\":8476:8480   */\n      dup3\n        /* \"#utility.yul\":8472:8484   */\n      div\n        /* \"#utility.yul\":8462:8484   */\n      swap1\n      pop\n        /* \"#utility.yul\":8529:8530   */\n      0x01\n        /* \"#utility.yul\":8523:8527   */\n      dup3\n        /* \"#utility.yul\":8519:8531   */\n      and\n        /* \"#utility.yul\":8550:8568   */\n      dup1\n        /* \"#utility.yul\":8540:8621   */\n      tag_283\n      jumpi\n        /* \"#utility.yul\":8606:8610   */\n      0x7f\n        /* \"#utility.yul\":8598:8604   */\n      dup3\n        /* \"#utility.yul\":8594:8611   */\n      and\n        /* \"#utility.yul\":8584:8611   */\n      swap2\n      pop\n        /* \"#utility.yul\":8540:8621   */\n    tag_283:\n        /* \"#utility.yul\":8668:8670   */\n      0x20\n        /* \"#utility.yul\":8660:8666   */\n      dup3\n        /* \"#utility.yul\":8657:8671   */\n      lt\n        /* \"#utility.yul\":8637:8655   */\n      dup2\n        /* \"#utility.yul\":8634:8672   */\n      sub\n        /* \"#utility.yul\":8631:8715   */\n      tag_284\n      jumpi\n        /* \"#utility.yul\":8687:8705   */\n      tag_285\n      tag_151\n      jump\t// in\n    tag_285:\n        /* \"#utility.yul\":8631:8715   */\n    tag_284:\n        /* \"#utility.yul\":8452:8721   */\n      pop\n        /* \"#utility.yul\":8401:8721   */\n      swap2\n      swap1\n      pop\n      jump\t// out\n        /* \"#utility.yul\":8727:8900   */\n    tag_152:\n        /* \"#utility.yul\":8867:8892   */\n      0x566f74696e6720706572696f64206e6f7420656e646564000000000000000000\n        /* \"#utility.yul\":8863:8864   */\n      0x00\n        /* \"#utility.yul\":8855:8861   */\n      dup3\n        /* \"#utility.yul\":8851:8865   */\n      add\n        /* \"#utility.yul\":8844:8893   */\n      mstore\n        /* \"#utility.yul\":8727:8900   */\n      pop\n      jump\t// out\n        /* \"#utility.yul\":8906:9272   */\n    tag_153:\n        /* \"#utility.yul\":9048:9051   */\n      0x00\n        /* \"#utility.yul\":9069:9136   */\n      tag_288\n        /* \"#utility.yul\":9133:9135   */\n      0x17\n        /* \"#utility.yul\":9128:9131   */\n      dup4\n        /* \"#utility.yul\":9069:9136   */\n      tag_129\n      jump\t// in\n    tag_288:\n        /* \"#utility.yul\":9062:9136   */\n      swap2\n      pop\n        /* \"#utility.yul\":9145:9238   */\n      tag_289\n        /* \"#utility.yul\":9234:9237   */\n      dup3\n        /* \"#utility.yul\":9145:9238   */\n      tag_152\n      jump\t// in\n    tag_289:\n        /* \"#utility.yul\":9263:9265   */\n      0x20\n        /* \"#utility.yul\":9258:9261   */\n      dup3\n        /* \"#utility.yul\":9254:9266   */\n      add\n        /* \"#utility.yul\":9247:9266   */\n      swap1\n      pop\n        /* \"#utility.yul\":8906:9272   */\n      swap2\n      swap1\n      pop\n      jump\t// out\n        /* \"#utility.yul\":9278:9697   */\n    tag_57:\n        /* \"#utility.yul\":9444:9448   */\n      0x00\n        /* \"#utility.yul\":9482:9484   */\n      0x20\n        /* \"#utility.yul\":9471:9480   */\n      dup3\n        /* \"#utility.yul\":9467:9485   */\n      add\n        /* \"#utility.yul\":9459:9485   */\n      swap1\n      pop\n        /* \"#utility.yul\":9531:9540   */\n      dup2\n        /* \"#utility.yul\":9525:9529   */\n      dup2\n        /* \"#utility.yul\":9521:9541   */\n      sub\n        /* \"#utility.yul\":9517:9518   */\n      0x00\n        /* \"#utility.yul\":9506:9515   */\n      dup4\n        /* \"#utility.yul\":9502:9519   */\n      add\n        /* \"#utility.yul\":9495:9542   */\n      mstore\n        /* \"#utility.yul\":9559:9690   */\n      tag_291\n        /* \"#utility.yul\":9685:9689   */\n      dup2\n        /* \"#utility.yul\":9559:9690   */\n      tag_153\n      jump\t// in\n    tag_291:\n        /* \"#utility.yul\":9551:9690   */\n      swap1\n      pop\n        /* \"#utility.yul\":9278:9697   */\n      swap2\n      swap1\n      pop\n      jump\t// out\n        /* \"#utility.yul\":9703:9878   */\n    tag_154:\n        /* \"#utility.yul\":9843:9870   */\n      0x50726f706f73616c20616c726561647920657865637574656400000000000000\n        /* \"#utility.yul\":9839:9840   */\n      0x00\n        /* \"#utility.yul\":9831:9837   */\n      dup3\n        /* \"#utility.yul\":9827:9841   */\n      add\n        /* \"#utility.yul\":9820:9871   */\n      mstore\n        /* \"#utility.yul\":9703:9878   */\n      pop\n      jump\t// out\n        /* \"#utility.yul\":9884:10250   */\n    tag_155:\n        /* \"#utility.yul\":10026:10029   */\n      0x00\n        /* \"#utility.yul\":10047:10114   */\n      tag_294\n        /* \"#utility.yul\":10111:10113   */\n      0x19\n        /* \"#utility.yul\":10106:10109   */\n      dup4\n        /* \"#utility.yul\":10047:10114   */\n      tag_129\n      jump\t// in\n    tag_294:\n        /* \"#utility.yul\":10040:10114   */\n      swap2\n      pop\n        /* \"#utility.yul\":10123:10216   */\n      tag_295\n        /* \"#utility.yul\":10212:10215   */\n      dup3\n        /* \"#utility.yul\":10123:10216   */\n      tag_154\n      jump\t// in\n    tag_295:\n        /* \"#utility.yul\":10241:10243   */\n      0x20\n        /* \"#utility.yul\":10236:10239   */\n      dup3\n        /* \"#utility.yul\":10232:10244   */\n      add\n        /* \"#utility.yul\":10225:10244   */\n      swap1\n      pop\n        /* \"#utility.yul\":9884:10250   */\n      swap2\n      swap1\n      pop\n      jump\t// out\n        /* \"#utility.yul\":10256:10675   */\n    tag_60:\n        /* \"#utility.yul\":10422:10426   */\n      0x00\n        /* \"#utility.yul\":10460:10462   */\n      0x20\n        /* \"#utility.yul\":10449:10458   */\n      dup3\n        /* \"#utility.yul\":10445:10463   */\n      add\n        /* \"#utility.yul\":10437:10463   */\n      swap1\n      pop\n        /* \"#utility.yul\":10509:10518   */\n      dup2\n        /* \"#utility.yul\":10503:10507   */\n      dup2\n        /* \"#utility.yul\":10499:10519   */\n      sub\n        /* \"#utility.yul\":10495:10496   */\n      0x00\n        /* \"#utility.yul\":10484:10493   */\n      dup4\n        /* \"#utility.yul\":10480:10497   */\n      add\n        /* \"#utility.yul\":10473:10520   */\n      mstore\n        /* \"#utility.yul\":10537:10668   */\n      tag_297\n        /* \"#utility.yul\":10663:10667   */\n      dup2\n        /* \"#utility.yul\":10537:10668   */\n      tag_155\n      jump\t// in\n    tag_297:\n        /* \"#utility.yul\":10529:10668   */\n      swap1\n      pop\n        /* \"#utility.yul\":10256:10675   */\n      swap2\n      swap1\n      pop\n      jump\t// out\n        /* \"#utility.yul\":10681:10861   */\n    tag_156:\n        /* \"#utility.yul\":10729:10806   */\n      0x4e487b7100000000000000000000000000000000000000000000000000000000\n        /* \"#utility.yul\":10726:10727   */\n      0x00\n        /* \"#utility.yul\":10719:10807   */\n      mstore\n        /* \"#utility.yul\":10826:10830   */\n      0x11\n        /* \"#utility.yul\":10823:10824   */\n      0x04\n        /* \"#utility.yul\":10816:10831   */\n      mstore\n        /* \"#utility.yul\":10850:10854   */\n      0x24\n        /* \"#utility.yul\":10847:10848   */\n      0x00\n        /* \"#utility.yul\":10840:10855   */\n      revert\n        /* \"#utility.yul\":10867:11058   */\n    tag_62:\n        /* \"#utility.yul\":10907:10910   */\n      0x00\n        /* \"#utility.yul\":10926:10946   */\n      tag_300\n        /* \"#utility.yul\":10944:10945   */\n      dup3\n        /* \"#utility.yul\":10926:10946   */\n      tag_121\n      jump\t// in\n    tag_300:\n        /* \"#utility.yul\":10921:10946   */\n      swap2\n      pop\n        /* \"#utility.yul\":10960:10980   */\n      tag_301\n        /* \"#utility.yul\":10978:10979   */\n      dup4\n        /* \"#utility.yul\":10960:10980   */\n      tag_121\n      jump\t// in\n    tag_301:\n        /* \"#utility.yul\":10955:10980   */\n      swap3\n      pop\n        /* \"#utility.yul\":11003:11004   */\n      dup3\n        /* \"#utility.yul\":11000:11001   */\n      dup3\n        /* \"#utility.yul\":10996:11005   */\n      add\n        /* \"#utility.yul\":10989:11005   */\n      swap1\n      pop\n        /* \"#utility.yul\":11024:11027   */\n      dup1\n        /* \"#utility.yul\":11021:11022   */\n      dup3\n        /* \"#utility.yul\":11018:11028   */\n      gt\n        /* \"#utility.yul\":11015:11051   */\n      iszero\n      tag_302\n      jumpi\n        /* \"#utility.yul\":11031:11049   */\n      tag_303\n      tag_156\n      jump\t// in\n    tag_303:\n        /* \"#utility.yul\":11015:11051   */\n    tag_302:\n        /* \"#utility.yul\":10867:11058   */\n      swap3\n      swap2\n      pop\n      pop\n      jump\t// out\n        /* \"#utility.yul\":11064:11207   */\n    tag_157:\n        /* \"#utility.yul\":11121:11126   */\n      0x00\n        /* \"#utility.yul\":11152:11158   */\n      dup2\n        /* \"#utility.yul\":11146:11159   */\n      mload\n        /* \"#utility.yul\":11137:11159   */\n      swap1\n      pop\n        /* \"#utility.yul\":11168:11201   */\n      tag_305\n        /* \"#utility.yul\":11195:11200   */\n      dup2\n        /* \"#utility.yul\":11168:11201   */\n      tag_122\n      jump\t// in\n    tag_305:\n        /* \"#utility.yul\":11064:11207   */\n      swap3\n      swap2\n      pop\n      pop\n      jump\t// out\n        /* \"#utility.yul\":11213:11564   */\n    tag_66:\n        /* \"#utility.yul\":11283:11289   */\n      0x00\n        /* \"#utility.yul\":11332:11334   */\n      0x20\n        /* \"#utility.yul\":11320:11329   */\n      dup3\n        /* \"#utility.yul\":11311:11318   */\n      dup5\n        /* \"#utility.yul\":11307:11330   */\n      sub\n        /* \"#utility.yul\":11303:11335   */\n      slt\n        /* \"#utility.yul\":11300:11419   */\n      iszero\n      tag_307\n      jumpi\n        /* \"#utility.yul\":11338:11417   */\n      tag_308\n      tag_119\n      jump\t// in\n    tag_308:\n        /* \"#utility.yul\":11300:11419   */\n    tag_307:\n        /* \"#utility.yul\":11458:11459   */\n      0x00\n        /* \"#utility.yul\":11483:11547   */\n      tag_309\n        /* \"#utility.yul\":11539:11546   */\n      dup5\n        /* \"#utility.yul\":11530:11536   */\n      dup3\n        /* \"#utility.yul\":11519:11528   */\n      dup6\n        /* \"#utility.yul\":11515:11537   */\n      add\n        /* \"#utility.yul\":11483:11547   */\n      tag_157\n      jump\t// in\n    tag_309:\n        /* \"#utility.yul\":11473:11547   */\n      swap2\n      pop\n        /* \"#utility.yul\":11429:11557   */\n      pop\n        /* \"#utility.yul\":11213:11564   */\n      swap3\n      swap2\n      pop\n      pop\n      jump\t// out\n        /* \"#utility.yul\":11570:11980   */\n    tag_68:\n        /* \"#utility.yul\":11610:11617   */\n      0x00\n        /* \"#utility.yul\":11633:11653   */\n      tag_311\n        /* \"#utility.yul\":11651:11652   */\n      dup3\n        /* \"#utility.yul\":11633:11653   */\n      tag_121\n      jump\t// in\n    tag_311:\n        /* \"#utility.yul\":11628:11653   */\n      swap2\n      pop\n        /* \"#utility.yul\":11667:11687   */\n      tag_312\n        /* \"#utility.yul\":11685:11686   */\n      dup4\n        /* \"#utility.yul\":11667:11687   */\n      tag_121\n      jump\t// in\n    tag_312:\n        /* \"#utility.yul\":11662:11687   */\n      swap3\n      pop\n        /* \"#utility.yul\":11722:11723   */\n      dup3\n        /* \"#utility.yul\":11719:11720   */\n      dup3\n        /* \"#utility.yul\":11715:11724   */\n      mul\n        /* \"#utility.yul\":11744:11774   */\n      tag_313\n        /* \"#utility.yul\":11762:11773   */\n      dup2\n        /* \"#utility.yul\":11744:11774   */\n      tag_121\n      jump\t// in\n    tag_313:\n        /* \"#utility.yul\":11733:11774   */\n      swap2\n      pop\n        /* \"#utility.yul\":11923:11924   */\n      dup3\n        /* \"#utility.yul\":11914:11921   */\n      dup3\n        /* \"#utility.yul\":11910:11925   */\n      div\n        /* \"#utility.yul\":11907:11908   */\n      dup5\n        /* \"#utility.yul\":11904:11926   */\n      eq\n        /* \"#utility.yul\":11884:11885   */\n      dup4\n        /* \"#utility.yul\":11877:11886   */\n      iszero\n        /* \"#utility.yul\":11857:11940   */\n      or\n        /* \"#utility.yul\":11834:11973   */\n      tag_314\n      jumpi\n        /* \"#utility.yul\":11953:11971   */\n      tag_315\n      tag_156\n      jump\t// in\n    tag_315:\n        /* \"#utility.yul\":11834:11973   */\n    tag_314:\n        /* \"#utility.yul\":11618:11980   */\n      pop\n        /* \"#utility.yul\":11570:11980   */\n      swap3\n      swap2\n      pop\n      pop\n      jump\t// out\n        /* \"#utility.yul\":11986:12166   */\n    tag_158:\n        /* \"#utility.yul\":12034:12111   */\n      0x4e487b7100000000000000000000000000000000000000000000000000000000\n        /* \"#utility.yul\":12031:12032   */\n      0x00\n        /* \"#utility.yul\":12024:12112   */\n      mstore\n        /* \"#utility.yul\":12131:12135   */\n      0x12\n        /* \"#utility.yul\":12128:12129   */\n      0x04\n        /* \"#utility.yul\":12121:12136   */\n      mstore\n        /* \"#utility.yul\":12155:12159   */\n      0x24\n        /* \"#utility.yul\":12152:12153   */\n      0x00\n        /* \"#utility.yul\":12145:12160   */\n      revert\n        /* \"#utility.yul\":12172:12357   */\n    tag_70:\n        /* \"#utility.yul\":12212:12213   */\n      0x00\n        /* \"#utility.yul\":12229:12249   */\n      tag_318\n        /* \"#utility.yul\":12247:12248   */\n      dup3\n        /* \"#utility.yul\":12229:12249   */\n      tag_121\n      jump\t// in\n    tag_318:\n        /* \"#utility.yul\":12224:12249   */\n      swap2\n      pop\n        /* \"#utility.yul\":12263:12283   */\n      tag_319\n        /* \"#utility.yul\":12281:12282   */\n      dup4\n        /* \"#utility.yul\":12263:12283   */\n      tag_121\n      jump\t// in\n    tag_319:\n        /* \"#utility.yul\":12258:12283   */\n      swap3\n      pop\n        /* \"#utility.yul\":12302:12303   */\n      dup3\n        /* \"#utility.yul\":12292:12327   */\n      tag_320\n      jumpi\n        /* \"#utility.yul\":12307:12325   */\n      tag_321\n      tag_158\n      jump\t// in\n    tag_321:\n        /* \"#utility.yul\":12292:12327   */\n    tag_320:\n        /* \"#utility.yul\":12349:12350   */\n      dup3\n        /* \"#utility.yul\":12346:12347   */\n      dup3\n        /* \"#utility.yul\":12342:12351   */\n      div\n        /* \"#utility.yul\":12337:12351   */\n      swap1\n      pop\n        /* \"#utility.yul\":12172:12357   */\n      swap3\n      swap2\n      pop\n      pop\n      jump\t// out\n        /* \"#utility.yul\":12363:12531   */\n    tag_159:\n        /* \"#utility.yul\":12503:12523   */\n      0x51756f72756d206e6f7420726561636865640000000000000000000000000000\n        /* \"#utility.yul\":12499:12500   */\n      0x00\n        /* \"#utility.yul\":12491:12497   */\n      dup3\n        /* \"#utility.yul\":12487:12501   */\n      add\n        /* \"#utility.yul\":12480:12524   */\n      mstore\n        /* \"#utility.yul\":12363:12531   */\n      pop\n      jump\t// out\n        /* \"#utility.yul\":12537:12903   */\n    tag_160:\n        /* \"#utility.yul\":12679:12682   */\n      0x00\n        /* \"#utility.yul\":12700:12767   */\n      tag_324\n        /* \"#utility.yul\":12764:12766   */\n      0x12\n        /* \"#utility.yul\":12759:12762   */\n      dup4\n        /* \"#utility.yul\":12700:12767   */\n      tag_129\n      jump\t// in\n    tag_324:\n        /* \"#utility.yul\":12693:12767   */\n      swap2\n      pop\n        /* \"#utility.yul\":12776:12869   */\n      tag_325\n        /* \"#utility.yul\":12865:12868   */\n      dup3\n        /* \"#utility.yul\":12776:12869   */\n      tag_159\n      jump\t// in\n    tag_325:\n        /* \"#utility.yul\":12894:12896   */\n      0x20\n        /* \"#utility.yul\":12889:12892   */\n      dup3\n        /* \"#utility.yul\":12885:12897   */\n      add\n        /* \"#utility.yul\":12878:12897   */\n      swap1\n      pop\n        /* \"#utility.yul\":12537:12903   */\n      swap2\n      swap1\n      pop\n      jump\t// out\n        /* \"#utility.yul\":12909:13328   */\n    tag_73:\n        /* \"#utility.yul\":13075:13079   */\n      0x00\n        /* \"#utility.yul\":13113:13115   */\n      0x20\n        /* \"#utility.yul\":13102:13111   */\n      dup3\n        /* \"#utility.yul\":13098:13116   */\n      add\n        /* \"#utility.yul\":13090:13116   */\n      swap1\n      pop\n        /* \"#utility.yul\":13162:13171   */\n      dup2\n        /* \"#utility.yul\":13156:13160   */\n      dup2\n        /* \"#utility.yul\":13152:13172   */\n      sub\n        /* \"#utility.yul\":13148:13149   */\n      0x00\n        /* \"#utility.yul\":13137:13146   */\n      dup4\n        /* \"#utility.yul\":13133:13150   */\n      add\n        /* \"#utility.yul\":13126:13173   */\n      mstore\n        /* \"#utility.yul\":13190:13321   */\n      tag_327\n        /* \"#utility.yul\":13316:13320   */\n      dup2\n        /* \"#utility.yul\":13190:13321   */\n      tag_160\n      jump\t// in\n    tag_327:\n        /* \"#utility.yul\":13182:13321   */\n      swap1\n      pop\n        /* \"#utility.yul\":12909:13328   */\n      swap2\n      swap1\n      pop\n      jump\t// out\n        /* \"#utility.yul\":13334:13556   */\n    tag_83:\n        /* \"#utility.yul\":13427:13431   */\n      0x00\n        /* \"#utility.yul\":13465:13467   */\n      0x20\n        /* \"#utility.yul\":13454:13463   */\n      dup3\n        /* \"#utility.yul\":13450:13468   */\n      add\n        /* \"#utility.yul\":13442:13468   */\n      swap1\n      pop\n        /* \"#utility.yul\":13478:13549   */\n      tag_329\n        /* \"#utility.yul\":13546:13547   */\n      0x00\n        /* \"#utility.yul\":13535:13544   */\n      dup4\n        /* \"#utility.yul\":13531:13548   */\n      add\n        /* \"#utility.yul\":13522:13528   */\n      dup5\n        /* \"#utility.yul\":13478:13549   */\n      tag_127\n      jump\t// in\n    tag_329:\n        /* \"#utility.yul\":13334:13556   */\n      swap3\n      swap2\n      pop\n      pop\n      jump\t// out\n        /* \"#utility.yul\":13562:13795   */\n    tag_161:\n        /* \"#utility.yul\":13702:13736   */\n      0x4d75737420686f6c6420676f7665726e616e636520746f6b656e7320746f2063\n        /* \"#utility.yul\":13698:13699   */\n      0x00\n        /* \"#utility.yul\":13690:13696   */\n      dup3\n        /* \"#utility.yul\":13686:13700   */\n      add\n        /* \"#utility.yul\":13679:13737   */\n      mstore\n        /* \"#utility.yul\":13771:13787   */\n      0x72656174652070726f706f73616c000000000000000000000000000000000000\n        /* \"#utility.yul\":13766:13768   */\n      0x20\n        /* \"#utility.yul\":13758:13764   */\n      dup3\n        /* \"#utility.yul\":13754:13769   */\n      add\n        /* \"#utility.yul\":13747:13788   */\n      mstore\n        /* \"#utility.yul\":13562:13795   */\n      pop\n      jump\t// out\n        /* \"#utility.yul\":13801:14167   */\n    tag_162:\n        /* \"#utility.yul\":13943:13946   */\n      0x00\n        /* \"#utility.yul\":13964:14031   */\n      tag_332\n        /* \"#utility.yul\":14028:14030   */\n      0x2e\n        /* \"#utility.yul\":14023:14026   */\n      dup4\n        /* \"#utility.yul\":13964:14031   */\n      tag_129\n      jump\t// in\n    tag_332:\n        /* \"#utility.yul\":13957:14031   */\n      swap2\n      pop\n        /* \"#utility.yul\":14040:14133   */\n      tag_333\n        /* \"#utility.yul\":14129:14132   */\n      dup3\n        /* \"#utility.yul\":14040:14133   */\n      tag_161\n      jump\t// in\n    tag_333:\n        /* \"#utility.yul\":14158:14160   */\n      0x40\n        /* \"#utility.yul\":14153:14156   */\n      dup3\n        /* \"#utility.yul\":14149:14161   */\n      add\n        /* \"#utility.yul\":14142:14161   */\n      swap1\n      pop\n        /* \"#utility.yul\":13801:14167   */\n      swap2\n      swap1\n      pop\n      jump\t// out\n        /* \"#utility.yul\":14173:14592   */\n    tag_89:\n        /* \"#utility.yul\":14339:14343   */\n      0x00\n        /* \"#utility.yul\":14377:14379   */\n      0x20\n        /* \"#utility.yul\":14366:14375   */\n      dup3\n        /* \"#utility.yul\":14362:14380   */\n      add\n        /* \"#utility.yul\":14354:14380   */\n      swap1\n      pop\n        /* \"#utility.yul\":14426:14435   */\n      dup2\n        /* \"#utility.yul\":14420:14424   */\n      dup2\n        /* \"#utility.yul\":14416:14436   */\n      sub\n        /* \"#utility.yul\":14412:14413   */\n      0x00\n        /* \"#utility.yul\":14401:14410   */\n      dup4\n        /* \"#utility.yul\":14397:14414   */\n      add\n        /* \"#utility.yul\":14390:14437   */\n      mstore\n        /* \"#utility.yul\":14454:14585   */\n      tag_335\n        /* \"#utility.yul\":14580:14584   */\n      dup2\n        /* \"#utility.yul\":14454:14585   */\n      tag_162\n      jump\t// in\n    tag_335:\n        /* \"#utility.yul\":14446:14585   */\n      swap1\n      pop\n        /* \"#utility.yul\":14173:14592   */\n      swap2\n      swap1\n      pop\n      jump\t// out\n        /* \"#utility.yul\":14598:14831   */\n    tag_91:\n        /* \"#utility.yul\":14637:14640   */\n      0x00\n        /* \"#utility.yul\":14660:14684   */\n      tag_337\n        /* \"#utility.yul\":14678:14683   */\n      dup3\n        /* \"#utility.yul\":14660:14684   */\n      tag_121\n      jump\t// in\n    tag_337:\n        /* \"#utility.yul\":14651:14684   */\n      swap2\n      pop\n        /* \"#utility.yul\":14706:14772   */\n      0xffffffffffffffffffffffffffffffffffffffffffffffffffffffffffffffff\n        /* \"#utility.yul\":14699:14704   */\n      dup3\n        /* \"#utility.yul\":14696:14773   */\n      sub\n        /* \"#utility.yul\":14693:14796   */\n      tag_338\n      jumpi\n        /* \"#utility.yul\":14776:14794   */\n      tag_339\n      tag_156\n      jump\t// in\n    tag_339:\n        /* \"#utility.yul\":14693:14796   */\n    tag_338:\n        /* \"#utility.yul\":14823:14824   */\n      0x01\n        /* \"#utility.yul\":14816:14821   */\n      dup3\n        /* \"#utility.yul\":14812:14825   */\n      add\n        /* \"#utility.yul\":14805:14825   */\n      swap1\n      pop\n        /* \"#utility.yul\":14598:14831   */\n      swap2\n      swap1\n      pop\n      jump\t// out\n        /* \"#utility.yul\":14837:14978   */\n    tag_163:\n        /* \"#utility.yul\":14886:14890   */\n      0x00\n        /* \"#utility.yul\":14909:14912   */\n      dup2\n        /* \"#utility.yul\":14901:14912   */\n      swap1\n      pop\n        /* \"#utility.yul\":14932:14935   */\n      dup2\n        /* \"#utility.yul\":14929:14930   */\n      0x00\n        /* \"#utility.yul\":14922:14936   */\n      mstore\n        /* \"#utility.yul\":14966:14970   */\n      0x20\n        /* \"#utility.yul\":14963:14964   */\n      0x00\n        /* \"#utility.yul\":14953:14971   */\n      keccak256\n        /* \"#utility.yul\":14945:14971   */\n      swap1\n      pop\n        /* \"#utility.yul\":14837:14978   */\n      swap2\n      swap1\n      pop\n      jump\t// out\n        /* \"#utility.yul\":14984:15077   */\n    tag_164:\n        /* \"#utility.yul\":15021:15027   */\n      0x00\n        /* \"#utility.yul\":15068:15070   */\n      0x20\n        /* \"#utility.yul\":15063:15065   */\n      0x1f\n        /* \"#utility.yul\":15056:15061   */\n      dup4\n        /* \"#utility.yul\":15052:15066   */\n      add\n        /* \"#utility.yul\":15048:15071   */\n      div\n        /* \"#utility.yul\":15038:15071   */\n      swap1\n      pop\n        /* \"#utility.yul\":14984:15077   */\n      swap2\n      swap1\n      pop\n      jump\t// out\n        /* \"#utility.yul\":15083:15190   */\n    tag_165:\n        /* \"#utility.yul\":15127:15135   */\n      0x00\n        /* \"#utility.yul\":15177:15182   */\n      dup3\n        /* \"#utility.yul\":15171:15175   */\n      dup3\n        /* \"#utility.yul\":15167:15183   */\n      shl\n        /* \"#utility.yul\":15146:15183   */\n      swap1\n      pop\n        /* \"#utility.yul\":15083:15190   */\n      swap3\n      swap2\n      pop\n      pop\n      jump\t// out\n        /* \"#utility.yul\":15196:15589   */\n    tag_166:\n        /* \"#utility.yul\":15265:15271   */\n      0x00\n        /* \"#utility.yul\":15315:15316   */\n      0x08\n        /* \"#utility.yul\":15303:15313   */\n      dup4\n        /* \"#utility.yul\":15299:15317   */\n      mul\n        /* \"#utility.yul\":15338:15435   */\n      tag_344\n        /* \"#utility.yul\":15368:15434   */\n      0xffffffffffffffffffffffffffffffffffffffffffffffffffffffffffffffff\n        /* \"#utility.yul\":15357:15366   */\n      dup3\n        /* \"#utility.yul\":15338:15435   */\n      tag_165\n      jump\t// in\n    tag_344:\n        /* \"#utility.yul\":15456:15495   */\n      tag_345\n        /* \"#utility.yul\":15486:15494   */\n      dup7\n        /* \"#utility.yul\":15475:15484   */\n      dup4\n        /* \"#utility.yul\":15456:15495   */\n      tag_165\n      jump\t// in\n    tag_345:\n        /* \"#utility.yul\":15444:15495   */\n      swap6\n      pop\n        /* \"#utility.yul\":15528:15532   */\n      dup1\n        /* \"#utility.yul\":15524:15533   */\n      not\n        /* \"#utility.yul\":15517:15522   */\n      dup5\n        /* \"#utility.yul\":15513:15534   */\n      and\n        /* \"#utility.yul\":15504:15534   */\n      swap4\n      pop\n        /* \"#utility.yul\":15577:15581   */\n      dup1\n        /* \"#utility.yul\":15567:15575   */\n      dup7\n        /* \"#utility.yul\":15563:15582   */\n      and\n        /* \"#utility.yul\":15556:15561   */\n      dup5\n        /* \"#utility.yul\":15553:15583   */\n      or\n        /* \"#utility.yul\":15543:15583   */\n      swap3\n      pop\n        /* \"#utility.yul\":15272:15589   */\n      pop\n      pop\n        /* \"#utility.yul\":15196:15589   */\n      swap4\n      swap3\n      pop\n      pop\n      pop\n      jump\t// out\n        /* \"#utility.yul\":15595:15737   */\n    tag_167:\n        /* \"#utility.yul\":15645:15654   */\n      0x00\n        /* \"#utility.yul\":15678:15731   */\n      tag_347\n        /* \"#utility.yul\":15696:15730   */\n      tag_348\n        /* \"#utility.yul\":15705:15729   */\n      tag_349\n        /* \"#utility.yul\":15723:15728   */\n      dup5\n        /* \"#utility.yul\":15705:15729   */\n      tag_121\n      jump\t// in\n    tag_349:\n        /* \"#utility.yul\":15696:15730   */\n      tag_146\n      jump\t// in\n    tag_348:\n        /* \"#utility.yul\":15678:15731   */\n      tag_121\n      jump\t// in\n    tag_347:\n        /* \"#utility.yul\":15665:15731   */\n      swap1\n      pop\n        /* \"#utility.yul\":15595:15737   */\n      swap2\n      swap1\n      pop\n      jump\t// out\n        /* \"#utility.yul\":15743:15818   */\n    tag_168:\n        /* \"#utility.yul\":15786:15789   */\n      0x00\n        /* \"#utility.yul\":15807:15812   */\n      dup2\n        /* \"#utility.yul\":15800:15812   */\n      swap1\n      pop\n        /* \"#utility.yul\":15743:15818   */\n      swap2\n      swap1\n      pop\n      jump\t// out\n        /* \"#utility.yul\":15824:16093   */\n    tag_169:\n        /* \"#utility.yul\":15934:15973   */\n      tag_352\n        /* \"#utility.yul\":15965:15972   */\n      dup4\n        /* \"#utility.yul\":15934:15973   */\n      tag_167\n      jump\t// in\n    tag_352:\n        /* \"#utility.yul\":15995:16086   */\n      tag_353\n        /* \"#utility.yul\":16044:16085   */\n      tag_354\n        /* \"#utility.yul\":16068:16084   */\n      dup3\n        /* \"#utility.yul\":16044:16085   */\n      tag_168\n      jump\t// in\n    tag_354:\n        /* \"#utility.yul\":16036:16042   */\n      dup5\n        /* \"#utility.yul\":16029:16033   */\n      dup5\n        /* \"#utility.yul\":16023:16034   */\n      sload\n        /* \"#utility.yul\":15995:16086   */\n      tag_166\n      jump\t// in\n    tag_353:\n        /* \"#utility.yul\":15989:15993   */\n      dup3\n        /* \"#utility.yul\":15982:16087   */\n      sstore\n        /* \"#utility.yul\":15900:16093   */\n      pop\n        /* \"#utility.yul\":15824:16093   */\n      pop\n      pop\n      pop\n      jump\t// out\n        /* \"#utility.yul\":16099:16172   */\n    tag_170:\n        /* \"#utility.yul\":16144:16147   */\n      0x00\n        /* \"#utility.yul\":16165:16166   */\n      0x00\n        /* \"#utility.yul\":16158:16166   */\n      swap1\n      pop\n        /* \"#utility.yul\":16099:16172   */\n      swap1\n      jump\t// out\n        /* \"#utility.yul\":16178:16367   */\n    tag_171:\n        /* \"#utility.yul\":16255:16287   */\n      tag_357\n      tag_170\n      jump\t// in\n    tag_357:\n        /* \"#utility.yul\":16296:16361   */\n      tag_358\n        /* \"#utility.yul\":16354:16360   */\n      dup2\n        /* \"#utility.yul\":16346:16352   */\n      dup5\n        /* \"#utility.yul\":16340:16344   */\n      dup5\n        /* \"#utility.yul\":16296:16361   */\n      tag_169\n      jump\t// in\n    tag_358:\n        /* \"#utility.yul\":16231:16367   */\n      pop\n        /* \"#utility.yul\":16178:16367   */\n      pop\n      pop\n      jump\t// out\n        /* \"#utility.yul\":16373:16559   */\n    tag_172:\n        /* \"#utility.yul\":16433:16553   */\n    tag_360:\n        /* \"#utility.yul\":16450:16453   */\n      dup2\n        /* \"#utility.yul\":16443:16448   */\n      dup2\n        /* \"#utility.yul\":16440:16454   */\n      lt\n        /* \"#utility.yul\":16433:16553   */\n      iszero\n      tag_362\n      jumpi\n        /* \"#utility.yul\":16504:16543   */\n      tag_363\n        /* \"#utility.yul\":16541:16542   */\n      0x00\n        /* \"#utility.yul\":16534:16539   */\n      dup3\n        /* \"#utility.yul\":16504:16543   */\n      tag_171\n      jump\t// in\n    tag_363:\n        /* \"#utility.yul\":16477:16478   */\n      0x01\n        /* \"#utility.yul\":16470:16475   */\n      dup2\n        /* \"#utility.yul\":16466:16479   */\n      add\n        /* \"#utility.yul\":16457:16479   */\n      swap1\n      pop\n        /* \"#utility.yul\":16433:16553   */\n      jump(tag_360)\n    tag_362:\n        /* \"#utility.yul\":16373:16559   */\n      pop\n      pop\n      jump\t// out\n        /* \"#utility.yul\":16565:17108   */\n    tag_173:\n        /* \"#utility.yul\":16666:16668   */\n      0x1f\n        /* \"#utility.yul\":16661:16664   */\n      dup3\n        /* \"#utility.yul\":16658:16669   */\n      gt\n        /* \"#utility.yul\":16655:17101   */\n      iszero\n      tag_365\n      jumpi\n        /* \"#utility.yul\":16700:16738   */\n      tag_366\n        /* \"#utility.yul\":16732:16737   */\n      dup2\n        /* \"#utility.yul\":16700:16738   */\n      tag_163\n      jump\t// in\n    tag_366:\n        /* \"#utility.yul\":16784:16813   */\n      tag_367\n        /* \"#utility.yul\":16802:16812   */\n      dup5\n        /* \"#utility.yul\":16784:16813   */\n      tag_164\n      jump\t// in\n    tag_367:\n        /* \"#utility.yul\":16774:16782   */\n      dup2\n        /* \"#utility.yul\":16770:16814   */\n      add\n        /* \"#utility.yul\":16967:16969   */\n      0x20\n        /* \"#utility.yul\":16955:16965   */\n      dup6\n        /* \"#utility.yul\":16952:16970   */\n      lt\n        /* \"#utility.yul\":16949:16998   */\n      iszero\n      tag_368\n      jumpi\n        /* \"#utility.yul\":16988:16996   */\n      dup2\n        /* \"#utility.yul\":16973:16996   */\n      swap1\n      pop\n        /* \"#utility.yul\":16949:16998   */\n    tag_368:\n        /* \"#utility.yul\":17011:17091   */\n      tag_369\n        /* \"#utility.yul\":17067:17089   */\n      tag_370\n        /* \"#utility.yul\":17085:17088   */\n      dup6\n        /* \"#utility.yul\":17067:17089   */\n      tag_164\n      jump\t// in\n    tag_370:\n        /* \"#utility.yul\":17057:17065   */\n      dup4\n        /* \"#utility.yul\":17053:17090   */\n      add\n        /* \"#utility.yul\":17040:17051   */\n      dup3\n        /* \"#utility.yul\":17011:17091   */\n      tag_172\n      jump\t// in\n    tag_369:\n        /* \"#utility.yul\":16670:17101   */\n      pop\n      pop\n        /* \"#utility.yul\":16655:17101   */\n    tag_365:\n        /* \"#utility.yul\":16565:17108   */\n      pop\n      pop\n      pop\n      jump\t// out\n        /* \"#utility.yul\":17114:17231   */\n    tag_174:\n        /* \"#utility.yul\":17168:17176   */\n      0x00\n        /* \"#utility.yul\":17218:17223   */\n      dup3\n        /* \"#utility.yul\":17212:17216   */\n      dup3\n        /* \"#utility.yul\":17208:17224   */\n      shr\n        /* \"#utility.yul\":17187:17224   */\n      swap1\n      pop\n        /* \"#utility.yul\":17114:17231   */\n      swap3\n      swap2\n      pop\n      pop\n      jump\t// out\n        /* \"#utility.yul\":17237:17406   */\n    tag_175:\n        /* \"#utility.yul\":17281:17287   */\n      0x00\n        /* \"#utility.yul\":17314:17365   */\n      tag_373\n        /* \"#utility.yul\":17362:17363   */\n      0x00\n        /* \"#utility.yul\":17358:17364   */\n      not\n        /* \"#utility.yul\":17350:17355   */\n      dup5\n        /* \"#utility.yul\":17347:17348   */\n      0x08\n        /* \"#utility.yul\":17343:17356   */\n      mul\n        /* \"#utility.yul\":17314:17365   */\n      tag_174\n      jump\t// in\n    tag_373:\n        /* \"#utility.yul\":17310:17366   */\n      not\n        /* \"#utility.yul\":17395:17399   */\n      dup1\n        /* \"#utility.yul\":17389:17393   */\n      dup4\n        /* \"#utility.yul\":17385:17400   */\n      and\n        /* \"#utility.yul\":17375:17400   */\n      swap2\n      pop\n        /* \"#utility.yul\":17288:17406   */\n      pop\n        /* \"#utility.yul\":17237:17406   */\n      swap3\n      swap2\n      pop\n      pop\n      jump\t// out\n        /* \"#utility.yul\":17411:17706   */\n    tag_176:\n        /* \"#utility.yul\":17487:17491   */\n      0x00\n        /* \"#utility.yul\":17633:17662   */\n      tag_375\n        /* \"#utility.yul\":17658:17661   */\n      dup4\n        /* \"#utility.yul\":17652:17656   */\n      dup4\n        /* \"#utility.yul\":17633:17662   */\n      tag_175\n      jump\t// in\n    tag_375:\n        /* \"#utility.yul\":17625:17662   */\n      swap2\n      pop\n        /* \"#utility.yul\":17695:17698   */\n      dup3\n        /* \"#utility.yul\":17692:17693   */\n      0x02\n        /* \"#utility.yul\":17688:17699   */\n      mul\n        /* \"#utility.yul\":17682:17686   */\n      dup3\n        /* \"#utility.yul\":17679:17700   */\n      or\n        /* \"#utility.yul\":17671:17700   */\n      swap1\n      pop\n        /* \"#utility.yul\":17411:17706   */\n      swap3\n      swap2\n      pop\n      pop\n      jump\t// out\n        /* \"#utility.yul\":17711:19106   */\n    tag_93:\n        /* \"#utility.yul\":17828:17865   */\n      tag_377\n        /* \"#utility.yul\":17861:17864   */\n      dup3\n        /* \"#utility.yul\":17828:17865   */\n      tag_128\n      jump\t// in\n    tag_377:\n        /* \"#utility.yul\":17930:17948   */\n      0xffffffffffffffff\n        /* \"#utility.yul\":17922:17928   */\n      dup2\n        /* \"#utility.yul\":17919:17949   */\n      gt\n        /* \"#utility.yul\":17916:17972   */\n      iszero\n      tag_378\n      jumpi\n        /* \"#utility.yul\":17952:17970   */\n      tag_379\n      tag_137\n      jump\t// in\n    tag_379:\n        /* \"#utility.yul\":17916:17972   */\n    tag_378:\n        /* \"#utility.yul\":17996:18034   */\n      tag_380\n        /* \"#utility.yul\":18028:18032   */\n      dup3\n        /* \"#utility.yul\":18022:18033   */\n      sload\n        /* \"#utility.yul\":17996:18034   */\n      tag_49\n      jump\t// in\n    tag_380:\n        /* \"#utility.yul\":18081:18148   */\n      tag_381\n        /* \"#utility.yul\":18141:18147   */\n      dup3\n        /* \"#utility.yul\":18133:18139   */\n      dup3\n        /* \"#utility.yul\":18127:18131   */\n      dup6\n        /* \"#utility.yul\":18081:18148   */\n      tag_173\n      jump\t// in\n    tag_381:\n        /* \"#utility.yul\":18175:18176   */\n      0x00\n        /* \"#utility.yul\":18199:18203   */\n      0x20\n        /* \"#utility.yul\":18186:18203   */\n      swap1\n      pop\n        /* \"#utility.yul\":18231:18233   */\n      0x1f\n        /* \"#utility.yul\":18223:18229   */\n      dup4\n        /* \"#utility.yul\":18220:18234   */\n      gt\n        /* \"#utility.yul\":18248:18249   */\n      0x01\n        /* \"#utility.yul\":18243:18861   */\n      dup2\n      eq\n      tag_383\n      jumpi\n        /* \"#utility.yul\":18905:18906   */\n      0x00\n        /* \"#utility.yul\":18922:18928   */\n      dup5\n        /* \"#utility.yul\":18919:18996   */\n      iszero\n      tag_384\n      jumpi\n        /* \"#utility.yul\":18971:18980   */\n      dup3\n        /* \"#utility.yul\":18966:18969   */\n      dup8\n        /* \"#utility.yul\":18962:18981   */\n      add\n        /* \"#utility.yul\":18956:18982   */\n      mload\n        /* \"#utility.yul\":18947:18982   */\n      swap1\n      pop\n        /* \"#utility.yul\":18919:18996   */\n    tag_384:\n        /* \"#utility.yul\":19022:19089   */\n      tag_385\n        /* \"#utility.yul\":19082:19088   */\n      dup6\n        /* \"#utility.yul\":19075:19080   */\n      dup3\n        /* \"#utility.yul\":19022:19089   */\n      tag_176\n      jump\t// in\n    tag_385:\n        /* \"#utility.yul\":19016:19020   */\n      dup7\n        /* \"#utility.yul\":19009:19090   */\n      sstore\n        /* \"#utility.yul\":18878:19100   */\n      pop\n        /* \"#utility.yul\":18213:19100   */\n      jump(tag_382)\n        /* \"#utility.yul\":18243:18861   */\n    tag_383:\n        /* \"#utility.yul\":18295:18299   */\n      0x1f\n        /* \"#utility.yul\":18291:18300   */\n      not\n        /* \"#utility.yul\":18283:18289   */\n      dup5\n        /* \"#utility.yul\":18279:18301   */\n      and\n        /* \"#utility.yul\":18329:18366   */\n      tag_386\n        /* \"#utility.yul\":18361:18365   */\n      dup7\n        /* \"#utility.yul\":18329:18366   */\n      tag_163\n      jump\t// in\n    tag_386:\n        /* \"#utility.yul\":18388:18389   */\n      0x00\n        /* \"#utility.yul\":18402:18610   */\n    tag_387:\n        /* \"#utility.yul\":18416:18423   */\n      dup3\n        /* \"#utility.yul\":18413:18414   */\n      dup2\n        /* \"#utility.yul\":18410:18424   */\n      lt\n        /* \"#utility.yul\":18402:18610   */\n      iszero\n      tag_389\n      jumpi\n        /* \"#utility.yul\":18495:18504   */\n      dup5\n        /* \"#utility.yul\":18490:18493   */\n      dup10\n        /* \"#utility.yul\":18486:18505   */\n      add\n        /* \"#utility.yul\":18480:18506   */\n      mload\n        /* \"#utility.yul\":18472:18478   */\n      dup3\n        /* \"#utility.yul\":18465:18507   */\n      sstore\n        /* \"#utility.yul\":18546:18547   */\n      0x01\n        /* \"#utility.yul\":18538:18544   */\n      dup3\n        /* \"#utility.yul\":18534:18548   */\n      add\n        /* \"#utility.yul\":18524:18548   */\n      swap2\n      pop\n        /* \"#utility.yul\":18593:18595   */\n      0x20\n        /* \"#utility.yul\":18582:18591   */\n      dup6\n        /* \"#utility.yul\":18578:18596   */\n      add\n        /* \"#utility.yul\":18565:18596   */\n      swap5\n      pop\n        /* \"#utility.yul\":18439:18443   */\n      0x20\n        /* \"#utility.yul\":18436:18437   */\n      dup2\n        /* \"#utility.yul\":18432:18444   */\n      add\n        /* \"#utility.yul\":18427:18444   */\n      swap1\n      pop\n        /* \"#utility.yul\":18402:18610   */\n      jump(tag_387)\n    tag_389:\n        /* \"#utility.yul\":18638:18644   */\n      dup7\n        /* \"#utility.yul\":18629:18636   */\n      dup4\n        /* \"#utility.yul\":18626:18645   */\n      lt\n        /* \"#utility.yul\":18623:18802   */\n      iszero\n      tag_390\n      jumpi\n        /* \"#utility.yul\":18696:18705   */\n      dup5\n        /* \"#utility.yul\":18691:18694   */\n      dup10\n        /* \"#utility.yul\":18687:18706   */\n      add\n        /* \"#utility.yul\":18681:18707   */\n      mload\n        /* \"#utility.yul\":18739:18787   */\n      tag_391\n        /* \"#utility.yul\":18781:18785   */\n      0x1f\n        /* \"#utility.yul\":18773:18779   */\n      dup10\n        /* \"#utility.yul\":18769:18786   */\n      and\n        /* \"#utility.yul\":18758:18767   */\n      dup3\n        /* \"#utility.yul\":18739:18787   */\n      tag_175\n      jump\t// in\n    tag_391:\n        /* \"#utility.yul\":18731:18737   */\n      dup4\n        /* \"#utility.yul\":18724:18788   */\n      sstore\n        /* \"#utility.yul\":18646:18802   */\n      pop\n        /* \"#utility.yul\":18623:18802   */\n    tag_390:\n        /* \"#utility.yul\":18848:18849   */\n      0x01\n        /* \"#utility.yul\":18844:18845   */\n      0x02\n        /* \"#utility.yul\":18836:18842   */\n      dup9\n        /* \"#utility.yul\":18832:18846   */\n      mul\n        /* \"#utility.yul\":18828:18850   */\n      add\n        /* \"#utility.yul\":18822:18826   */\n      dup9\n        /* \"#utility.yul\":18815:18851   */\n      sstore\n        /* \"#utility.yul\":18250:18861   */\n      pop\n      pop\n      pop\n        /* \"#utility.yul\":18213:19100   */\n    tag_382:\n      pop\n        /* \"#utility.yul\":17803:19106   */\n      pop\n      pop\n      pop\n        /* \"#utility.yul\":17711:19106   */\n      pop\n      pop\n      jump\t// out\n        /* \"#utility.yul\":19112:19425   */\n    tag_96:\n        /* \"#utility.yul\":19225:19229   */\n      0x00\n        /* \"#utility.yul\":19263:19265   */\n      0x20\n        /* \"#utility.yul\":19252:19261   */\n      dup3\n        /* \"#utility.yul\":19248:19266   */\n      add\n        /* \"#utility.yul\":19240:19266   */\n      swap1\n      pop\n        /* \"#utility.yul\":19312:19321   */\n      dup2\n        /* \"#utility.yul\":19306:19310   */\n      dup2\n        /* \"#utility.yul\":19302:19322   */\n      sub\n        /* \"#utility.yul\":19298:19299   */\n      0x00\n        /* \"#utility.yul\":19287:19296   */\n      dup4\n        /* \"#utility.yul\":19283:19300   */\n      add\n        /* \"#utility.yul\":19276:19323   */\n      mstore\n        /* \"#utility.yul\":19340:19418   */\n      tag_393\n        /* \"#utility.yul\":19413:19417   */\n      dup2\n        /* \"#utility.yul\":19404:19410   */\n      dup5\n        /* \"#utility.yul\":19340:19418   */\n      tag_132\n      jump\t// in\n    tag_393:\n        /* \"#utility.yul\":19332:19418   */\n      swap1\n      pop\n        /* \"#utility.yul\":19112:19425   */\n      swap3\n      swap2\n      pop\n      pop\n      jump\t// out\n        /* \"#utility.yul\":19431:19601   */\n    tag_177:\n        /* \"#utility.yul\":19571:19593   */\n      0x566f74696e67206973206e6f7420616374697665000000000000000000000000\n        /* \"#utility.yul\":19567:19568   */\n      0x00\n        /* \"#utility.yul\":19559:19565   */\n      dup3\n        /* \"#utility.yul\":19555:19569   */\n      add\n        /* \"#utility.yul\":19548:19594   */\n      mstore\n        /* \"#utility.yul\":19431:19601   */\n      pop\n      jump\t// out\n        /* \"#utility.yul\":19607:19973   */\n    tag_178:\n        /* \"#utility.yul\":19749:19752   */\n      0x00\n        /* \"#utility.yul\":19770:19837   */\n      tag_396\n        /* \"#utility.yul\":19834:19836   */\n      0x14\n        /* \"#utility.yul\":19829:19832   */\n      dup4\n        /* \"#utility.yul\":19770:19837   */\n      tag_129\n      jump\t// in\n    tag_396:\n        /* \"#utility.yul\":19763:19837   */\n      swap2\n      pop\n        /* \"#utility.yul\":19846:19939   */\n      tag_397\n        /* \"#utility.yul\":19935:19938   */\n      dup3\n        /* \"#utility.yul\":19846:19939   */\n      tag_177\n      jump\t// in\n    tag_397:\n        /* \"#utility.yul\":19964:19966   */\n      0x20\n        /* \"#utility.yul\":19959:19962   */\n      dup3\n        /* \"#utility.yul\":19955:19967   */\n      add\n        /* \"#utility.yul\":19948:19967   */\n      swap1\n      pop\n        /* \"#utility.yul\":19607:19973   */\n      swap2\n      swap1\n      pop\n      jump\t// out\n        /* \"#utility.yul\":19979:20398   */\n    tag_101:\n        /* \"#utility.yul\":20145:20149   */\n      0x00\n        /* \"#utility.yul\":20183:20185   */\n      0x20\n        /* \"#utility.yul\":20172:20181   */\n      dup3\n        /* \"#utility.yul\":20168:20186   */\n      add\n        /* \"#utility.yul\":20160:20186   */\n      swap1\n      pop\n        /* \"#utility.yul\":20232:20241   */\n      dup2\n        /* \"#utility.yul\":20226:20230   */\n      dup2\n        /* \"#utility.yul\":20222:20242   */\n      sub\n        /* \"#utility.yul\":20218:20219   */\n      0x00\n        /* \"#utility.yul\":20207:20216   */\n      dup4\n        /* \"#utility.yul\":20203:20220   */\n      add\n        /* \"#utility.yul\":20196:20243   */\n      mstore\n        /* \"#utility.yul\":20260:20391   */\n      tag_399\n        /* \"#utility.yul\":20386:20390   */\n      dup2\n        /* \"#utility.yul\":20260:20391   */\n      tag_178\n      jump\t// in\n    tag_399:\n        /* \"#utility.yul\":20252:20391   */\n      swap1\n      pop\n        /* \"#utility.yul\":19979:20398   */\n      swap2\n      swap1\n      pop\n      jump\t// out\n        /* \"#utility.yul\":20404:20567   */\n    tag_179:\n        /* \"#utility.yul\":20544:20559   */\n      0x416c726561647920766f74656400000000000000000000000000000000000000\n        /* \"#utility.yul\":20540:20541   */\n      0x00\n        /* \"#utility.yul\":20532:20538   */\n      dup3\n        /* \"#utility.yul\":20528:20542   */\n      add\n        /* \"#utility.yul\":20521:20560   */\n      mstore\n        /* \"#utility.yul\":20404:20567   */\n      pop\n      jump\t// out\n        /* \"#utility.yul\":20573:20939   */\n    tag_180:\n        /* \"#utility.yul\":20715:20718   */\n      0x00\n        /* \"#utility.yul\":20736:20803   */\n      tag_402\n        /* \"#utility.yul\":20800:20802   */\n      0x0d\n        /* \"#utility.yul\":20795:20798   */\n      dup4\n        /* \"#utility.yul\":20736:20803   */\n      tag_129\n      jump\t// in\n    tag_402:\n        /* \"#utility.yul\":20729:20803   */\n      swap2\n      pop\n        /* \"#utility.yul\":20812:20905   */\n      tag_403\n        /* \"#utility.yul\":20901:20904   */\n      dup3\n        /* \"#utility.yul\":20812:20905   */\n      tag_179\n      jump\t// in\n    tag_403:\n        /* \"#utility.yul\":20930:20932   */\n      0x20\n        /* \"#utility.yul\":20925:20928   */\n      dup3\n        /* \"#utility.yul\":20921:20933   */\n      add\n        /* \"#utility.yul\":20914:20933   */\n      swap1\n      pop\n        /* \"#utility.yul\":20573:20939   */\n      swap2\n      swap1\n      pop\n      jump\t// out\n        /* \"#utility.yul\":20945:21364   */\n    tag_104:\n        /* \"#utility.yul\":21111:21115   */\n      0x00\n        /* \"#utility.yul\":21149:21151   */\n      0x20\n        /* \"#utility.yul\":21138:21147   */\n      dup3\n        /* \"#utility.yul\":21134:21152   */\n      add\n        /* \"#utility.yul\":21126:21152   */\n      swap1\n      pop\n        /* \"#utility.yul\":21198:21207   */\n      dup2\n        /* \"#utility.yul\":21192:21196   */\n      dup2\n        /* \"#utility.yul\":21188:21208   */\n      sub\n        /* \"#utility.yul\":21184:21185   */\n      0x00\n        /* \"#utility.yul\":21173:21182   */\n      dup4\n        /* \"#utility.yul\":21169:21186   */\n      add\n        /* \"#utility.yul\":21162:21209   */\n      mstore\n        /* \"#utility.yul\":21226:21357   */\n      tag_405\n        /* \"#utility.yul\":21352:21356   */\n      dup2\n        /* \"#utility.yul\":21226:21357   */\n      tag_180\n      jump\t// in\n    tag_405:\n        /* \"#utility.yul\":21218:21357   */\n      swap1\n      pop\n        /* \"#utility.yul\":20945:21364   */\n      swap2\n      swap1\n      pop\n      jump\t// out\n        /* \"#utility.yul\":21370:21592   */\n    tag_181:\n        /* \"#utility.yul\":21510:21544   */\n      0x4d75737420686f6c6420676f7665726e616e636520746f6b656e7320746f2076\n        /* \"#utility.yul\":21506:21507   */\n      0x00\n        /* \"#utility.yul\":21498:21504   */\n      dup3\n        /* \"#utility.yul\":21494:21508   */\n      add\n        /* \"#utility.yul\":21487:21545   */\n      mstore\n        /* \"#utility.yul\":21579:21584   */\n      0x6f74650000000000000000000000000000000000000000000000000000000000\n        /* \"#utility.yul\":21574:21576   */\n      0x20\n        /* \"#utility.yul\":21566:21572   */\n      dup3\n        /* \"#utility.yul\":21562:21577   */\n      add\n        /* \"#utility.yul\":21555:21585   */\n      mstore\n        /* \"#utility.yul\":21370:21592   */\n      pop\n      jump\t// out\n        /* \"#utility.yul\":21598:21964   */\n    tag_182:\n        /* \"#utility.yul\":21740:21743   */\n      0x00\n        /* \"#utility.yul\":21761:21828   */\n      tag_408\n        /* \"#utility.yul\":21825:21827   */\n      0x23\n        /* \"#utility.yul\":21820:21823   */\n      dup4\n        /* \"#utility.yul\":21761:21828   */\n      tag_129\n      jump\t// in\n    tag_408:\n        /* \"#utility.yul\":21754:21828   */\n      swap2\n      pop\n        /* \"#utility.yul\":21837:21930   */\n      tag_409\n        /* \"#utility.yul\":21926:21929   */\n      dup3\n        /* \"#utility.yul\":21837:21930   */\n      tag_181\n      jump\t// in\n    tag_409:\n        /* \"#utility.yul\":21955:21957   */\n      0x40\n        /* \"#utility.yul\":21950:21953   */\n      dup3\n        /* \"#utility.yul\":21946:21958   */\n      add\n        /* \"#utility.yul\":21939:21958   */\n      swap1\n      pop\n        /* \"#utility.yul\":21598:21964   */\n      swap2\n      swap1\n      pop\n      jump\t// out\n        /* \"#utility.yul\":21970:22389   */\n    tag_111:\n        /* \"#utility.yul\":22136:22140   */\n      0x00\n        /* \"#utility.yul\":22174:22176   */\n      0x20\n        /* \"#utility.yul\":22163:22172   */\n      dup3\n        /* \"#utility.yul\":22159:22177   */\n      add\n        /* \"#utility.yul\":22151:22177   */\n      swap1\n      pop\n        /* \"#utility.yul\":22223:22232   */\n      dup2\n        /* \"#utility.yul\":22217:22221   */\n      dup2\n        /* \"#utility.yul\":22213:22233   */\n      sub\n        /* \"#utility.yul\":22209:22210   */\n      0x00\n        /* \"#utility.yul\":22198:22207   */\n      dup4\n        /* \"#utility.yul\":22194:22211   */\n      add\n        /* \"#utility.yul\":22187:22234   */\n      mstore\n        /* \"#utility.yul\":22251:22382   */\n      tag_411\n        /* \"#utility.yul\":22377:22381   */\n      dup2\n        /* \"#utility.yul\":22251:22382   */\n      tag_182\n      jump\t// in\n    tag_411:\n        /* \"#utility.yul\":22243:22382   */\n      swap1\n      pop\n        /* \"#utility.yul\":21970:22389   */\n      swap2\n      swap1\n      pop\n      jump\t// out\n        /* \"#utility.yul\":22395:22715   */\n    tag_117:\n        /* \"#utility.yul\":22510:22514   */\n      0x00\n        /* \"#utility.yul\":22548:22550   */\n      0x40\n        /* \"#utility.yul\":22537:22546   */\n      dup3\n        /* \"#utility.yul\":22533:22551   */\n      add\n        /* \"#utility.yul\":22525:22551   */\n      swap1\n      pop\n        /* \"#utility.yul\":22561:22626   */\n      tag_413\n        /* \"#utility.yul\":22623:22624   */\n      0x00\n        /* \"#utility.yul\":22612:22621   */\n      dup4\n        /* \"#utility.yul\":22608:22625   */\n      add\n        /* \"#utility.yul\":22599:22605   */\n      dup6\n        /* \"#utility.yul\":22561:22626   */\n      tag_134\n      jump\t// in\n    tag_413:\n        /* \"#utility.yul\":22636:22708   */\n      tag_414\n        /* \"#utility.yul\":22704:22706   */\n      0x20\n        /* \"#utility.yul\":22693:22702   */\n      dup4\n        /* \"#utility.yul\":22689:22707   */\n      add\n        /* \"#utility.yul\":22680:22686   */\n      dup5\n        /* \"#utility.yul\":22636:22708   */\n      tag_124\n      jump\t// in\n    tag_414:\n        /* \"#utility.yul\":22395:22715   */\n      swap4\n      swap3\n      pop\n      pop\n      pop\n      jump\t// out\n\n    auxdata: 0xa26469706673582212207f386579fe0beb624612bca44d256753cb711165a01955f536c0f4412473d79b64736f6c634300081c0033\n}\n",
				"bytecode": {
					"linkReferences": {},
					"object": "608060405234801561000f575f5ffd5b5060405161185d38038061185d83398181016040528101906100319190610117565b825f5f6101000a81548173ffffffffffffffffffffffffffffffffffffffff021916908373ffffffffffffffffffffffffffffffffffffffff1602179055508160028190555080600381905550505050610167565b5f5ffd5b5f73ffffffffffffffffffffffffffffffffffffffff82169050919050565b5f6100b38261008a565b9050919050565b6100c3816100a9565b81146100cd575f5ffd5b50565b5f815190506100de816100ba565b92915050565b5f819050919050565b6100f6816100e4565b8114610100575f5ffd5b50565b5f81519050610111816100ed565b92915050565b5f5f5f6060848603121561012e5761012d610086565b5b5f61013b868287016100d0565b935050602061014c86828701610103565b925050604061015d86828701610103565b9150509250925092565b6116e9806101745f395ff3fe608060405234801561000f575f5ffd5b5060043610610091575f3560e01c806349c2a1a61161006457806349c2a1a61461013d5780634fa76ec914610159578063c9d27afe14610177578063da35c66414610193578063f96dae0a146101b157610091565b8063013cf08b1461009557806302a251a3146100cc5780630d61b519146100ea5780633b4d01a714610106575b5f5ffd5b6100af60048036038101906100aa9190610afa565b6101cf565b6040516100c3989796959493929190610bfd565b60405180910390f35b6100d46102c4565b6040516100e19190610c80565b60405180910390f35b61010460048036038101906100ff9190610afa565b6102ca565b005b610120600480360381019061011b9190610afa565b6104d8565b604051610134989796959493929190610bfd565b60405180910390f35b61015760048036038101906101529190610dc5565b6105ec565b005b6101616107c4565b60405161016e9190610c80565b60405180910390f35b610191600480360381019061018c9190610e36565b6107ca565b005b61019b610a8c565b6040516101a89190610c80565b60405180910390f35b6101b9610a92565b6040516101c69190610ecf565b60405180910390f35b6004602052805f5260405f205f91509050805f015490806001015f9054906101000a900473ffffffffffffffffffffffffffffffffffffffff169080600201805461021990610f15565b80601f016020809104026020016040519081016040528092919081815260200182805461024590610f15565b80156102905780601f1061026757610100808354040283529160200191610290565b820191905f5260205f20905b81548152906001019060200180831161027357829003601f168201915b505050505090806003015490806004015490806005015490806006015490806007015f9054906101000a900460ff16905088565b60025481565b5f60045f8381526020019081526020015f20905080600601544211610324576040517f08c379a000000000000000000000000000000000000000000000000000000000815260040161031b90610f8f565b60405180910390fd5b806007015f9054906101000a900460ff1615610375576040517f08c379a000000000000000000000000000000000000000000000000000000000815260040161036c90610ff7565b60405180910390fd5b5f8160040154826003015461038a9190611042565b90505f60646003545f5f9054906101000a900473ffffffffffffffffffffffffffffffffffffffff1673ffffffffffffffffffffffffffffffffffffffff166318160ddd6040518163ffffffff1660e01b8152600401602060405180830381865afa1580156103fb573d5f5f3e3d5ffd5b505050506040513d601f19601f8201168201806040525081019061041f9190611089565b61042991906110b4565b6104339190611122565b905080821015610478576040517f08c379a000000000000000000000000000000000000000000000000000000000815260040161046f9061119c565b60405180910390fd5b8260040154836003015411156104d2576001836007015f6101000a81548160ff021916908315150217905550837f712ae1383f79ac853f8d882153778e0260ef8f03b504e2866e0593e04d2b291f60405160405180910390a25b50505050565b5f5f60605f5f5f5f5f5f60045f8b81526020019081526020015f209050805f0154816001015f9054906101000a900473ffffffffffffffffffffffffffffffffffffffff16826002018360030154846004015485600501548660060154876007015f9054906101000a900460ff1685805461055290610f15565b80601f016020809104026020016040519081016040528092919081815260200182805461057e90610f15565b80156105c95780601f106105a0576101008083540402835291602001916105c9565b820191905f5260205f20905b8154815290600101906020018083116105ac57829003601f168201915b505050505095509850985098509850985098509850985050919395975091939597565b5f5f5f9054906101000a900473ffffffffffffffffffffffffffffffffffffffff1673ffffffffffffffffffffffffffffffffffffffff166370a08231336040518263ffffffff1660e01b815260040161064691906111ba565b602060405180830381865afa158015610661573d5f5f3e3d5ffd5b505050506040513d601f19601f820116820180604052508101906106859190611089565b116106c5576040517f08c379a00000000000000000000000000000000000000000000000000000000081526004016106bc90611243565b60405180910390fd5b60015f8154809291906106d790611261565b91905055505f60045f60015481526020019081526020015f209050600154815f018190555033816001015f6101000a81548173ffffffffffffffffffffffffffffffffffffffff021916908373ffffffffffffffffffffffffffffffffffffffff1602179055508181600201908161074f919061143f565b50428160050181905550600254426107679190611042565b81600601819055503373ffffffffffffffffffffffffffffffffffffffff166001547f7585f467599d0f008985f231af99293be388626ac16ca59505c2f8f88969cd63846040516107b8919061150e565b60405180910390a35050565b60035481565b5f60045f8481526020019081526020015f209050806005015442101580156107f6575080600601544211155b610835576040517f08c379a000000000000000000000000000000000000000000000000000000000815260040161082c90611578565b60405180910390fd5b806008015f3373ffffffffffffffffffffffffffffffffffffffff1673ffffffffffffffffffffffffffffffffffffffff1681526020019081526020015f205f9054906101000a900460ff16156108c1576040517f08c379a00000000000000000000000000000000000000000000000000000000081526004016108b8906115e0565b60405180910390fd5b5f5f5f9054906101000a900473ffffffffffffffffffffffffffffffffffffffff1673ffffffffffffffffffffffffffffffffffffffff166370a08231336040518263ffffffff1660e01b815260040161091b91906111ba565b602060405180830381865afa158015610936573d5f5f3e3d5ffd5b505050506040513d601f19601f8201168201806040525081019061095a9190611089565b90505f811161099e576040517f08c379a00000000000000000000000000000000000000000000000000000000081526004016109959061166e565b60405180910390fd5b82156109c35780826003015f8282546109b79190611042565b925050819055506109de565b80826004015f8282546109d69190611042565b925050819055505b6001826008015f3373ffffffffffffffffffffffffffffffffffffffff1673ffffffffffffffffffffffffffffffffffffffff1681526020019081526020015f205f6101000a81548160ff0219169083151502179055503373ffffffffffffffffffffffffffffffffffffffff16847f7c2de587c00d75474a0c6c6fa96fd3b45dc974cd4e8a75f712bb84c950dce1b58584604051610a7e92919061168c565b60405180910390a350505050565b60015481565b5f5f9054906101000a900473ffffffffffffffffffffffffffffffffffffffff1681565b5f604051905090565b5f5ffd5b5f5ffd5b5f819050919050565b610ad981610ac7565b8114610ae3575f5ffd5b50565b5f81359050610af481610ad0565b92915050565b5f60208284031215610b0f57610b0e610abf565b5b5f610b1c84828501610ae6565b91505092915050565b610b2e81610ac7565b82525050565b5f73ffffffffffffffffffffffffffffffffffffffff82169050919050565b5f610b5d82610b34565b9050919050565b610b6d81610b53565b82525050565b5f81519050919050565b5f82825260208201905092915050565b8281835e5f83830152505050565b5f601f19601f8301169050919050565b5f610bb582610b73565b610bbf8185610b7d565b9350610bcf818560208601610b8d565b610bd881610b9b565b840191505092915050565b5f8115159050919050565b610bf781610be3565b82525050565b5f61010082019050610c115f83018b610b25565b610c1e602083018a610b64565b8181036040830152610c308189610bab565b9050610c3f6060830188610b25565b610c4c6080830187610b25565b610c5960a0830186610b25565b610c6660c0830185610b25565b610c7360e0830184610bee565b9998505050505050505050565b5f602082019050610c935f830184610b25565b92915050565b5f5ffd5b5f5ffd5b7f4e487b71000000000000000000000000000000000000000000000000000000005f52604160045260245ffd5b610cd782610b9b565b810181811067ffffffffffffffff82111715610cf657610cf5610ca1565b5b80604052505050565b5f610d08610ab6565b9050610d148282610cce565b919050565b5f67ffffffffffffffff821115610d3357610d32610ca1565b5b610d3c82610b9b565b9050602081019050919050565b828183375f83830152505050565b5f610d69610d6484610d19565b610cff565b905082815260208101848484011115610d8557610d84610c9d565b5b610d90848285610d49565b509392505050565b5f82601f830112610dac57610dab610c99565b5b8135610dbc848260208601610d57565b91505092915050565b5f60208284031215610dda57610dd9610abf565b5b5f82013567ffffffffffffffff811115610df757610df6610ac3565b5b610e0384828501610d98565b91505092915050565b610e1581610be3565b8114610e1f575f5ffd5b50565b5f81359050610e3081610e0c565b92915050565b5f5f60408385031215610e4c57610e4b610abf565b5b5f610e5985828601610ae6565b9250506020610e6a85828601610e22565b9150509250929050565b5f819050919050565b5f610e97610e92610e8d84610b34565b610e74565b610b34565b9050919050565b5f610ea882610e7d565b9050919050565b5f610eb982610e9e565b9050919050565b610ec981610eaf565b82525050565b5f602082019050610ee25f830184610ec0565b92915050565b7f4e487b71000000000000000000000000000000000000000000000000000000005f52602260045260245ffd5b5f6002820490506001821680610f2c57607f821691505b602082108103610f3f57610f3e610ee8565b5b50919050565b7f566f74696e6720706572696f64206e6f7420656e6465640000000000000000005f82015250565b5f610f79601783610b7d565b9150610f8482610f45565b602082019050919050565b5f6020820190508181035f830152610fa681610f6d565b9050919050565b7f50726f706f73616c20616c7265616479206578656375746564000000000000005f82015250565b5f610fe1601983610b7d565b9150610fec82610fad565b602082019050919050565b5f6020820190508181035f83015261100e81610fd5565b9050919050565b7f4e487b71000000000000000000000000000000000000000000000000000000005f52601160045260245ffd5b5f61104c82610ac7565b915061105783610ac7565b925082820190508082111561106f5761106e611015565b5b92915050565b5f8151905061108381610ad0565b92915050565b5f6020828403121561109e5761109d610abf565b5b5f6110ab84828501611075565b91505092915050565b5f6110be82610ac7565b91506110c983610ac7565b92508282026110d781610ac7565b915082820484148315176110ee576110ed611015565b5b5092915050565b7f4e487b71000000000000000000000000000000000000000000000000000000005f52601260045260245ffd5b5f61112c82610ac7565b915061113783610ac7565b925082611147576111466110f5565b5b828204905092915050565b7f51756f72756d206e6f74207265616368656400000000000000000000000000005f82015250565b5f611186601283610b7d565b915061119182611152565b602082019050919050565b5f6020820190508181035f8301526111b38161117a565b9050919050565b5f6020820190506111cd5f830184610b64565b92915050565b7f4d75737420686f6c6420676f7665726e616e636520746f6b656e7320746f20635f8201527f72656174652070726f706f73616c000000000000000000000000000000000000602082015250565b5f61122d602e83610b7d565b9150611238826111d3565b604082019050919050565b5f6020820190508181035f83015261125a81611221565b9050919050565b5f61126b82610ac7565b91507fffffffffffffffffffffffffffffffffffffffffffffffffffffffffffffffff820361129d5761129c611015565b5b600182019050919050565b5f819050815f5260205f209050919050565b5f6020601f8301049050919050565b5f82821b905092915050565b5f600883026113047fffffffffffffffffffffffffffffffffffffffffffffffffffffffffffffffff826112c9565b61130e86836112c9565b95508019841693508086168417925050509392505050565b5f61134061133b61133684610ac7565b610e74565b610ac7565b9050919050565b5f819050919050565b61135983611326565b61136d61136582611347565b8484546112d5565b825550505050565b5f5f905090565b611384611375565b61138f818484611350565b505050565b5b818110156113b2576113a75f8261137c565b600181019050611395565b5050565b601f8211156113f7576113c8816112a8565b6113d1846112ba565b810160208510156113e0578190505b6113f46113ec856112ba565b830182611394565b50505b505050565b5f82821c905092915050565b5f6114175f19846008026113fc565b1980831691505092915050565b5f61142f8383611408565b9150826002028217905092915050565b61144882610b73565b67ffffffffffffffff81111561146157611460610ca1565b5b61146b8254610f15565b6114768282856113b6565b5f60209050601f8311600181146114a7575f8415611495578287015190505b61149f8582611424565b865550611506565b601f1984166114b5866112a8565b5f5b828110156114dc578489015182556001820191506020850194506020810190506114b7565b868310156114f957848901516114f5601f891682611408565b8355505b6001600288020188555050505b505050505050565b5f6020820190508181035f8301526115268184610bab565b905092915050565b7f566f74696e67206973206e6f74206163746976650000000000000000000000005f82015250565b5f611562601483610b7d565b915061156d8261152e565b602082019050919050565b5f6020820190508181035f83015261158f81611556565b9050919050565b7f416c726561647920766f746564000000000000000000000000000000000000005f82015250565b5f6115ca600d83610b7d565b91506115d582611596565b602082019050919050565b5f6020820190508181035f8301526115f7816115be565b9050919050565b7f4d75737420686f6c6420676f7665726e616e636520746f6b656e7320746f20765f8201527f6f74650000000000000000000000000000000000000000000000000000000000602082015250565b5f611658602383610b7d565b9150611663826115fe565b604082019050919050565b5f6020820190508181035f8301526116858161164c565b9050919050565b5f60408201905061169f5f830185610bee565b6116ac6020830184610b25565b939250505056fea26469706673582212207f386579fe0beb624612bca44d256753cb711165a01955f536c0f4412473d79b64736f6c634300081c0033",
					"opcodes": "PUSH1 0x80 PUSH1 0x40 MSTORE CALLVALUE DUP1 ISZERO PUSH2 0xF JUMPI PUSH0 PUSH0 REVERT JUMPDEST POP PUSH1 0x40 MLOAD PUSH2 0x185D CODESIZE SUB DUP1 PUSH2 0x185D DUP4 CODECOPY DUP2 DUP2 ADD PUSH1 0x40 MSTORE DUP2 ADD SWAP1 PUSH2 0x31 SWAP2 SWAP1 PUSH2 0x117 JUMP JUMPDEST DUP3 PUSH0 PUSH0 PUSH2 0x100 EXP DUP2 SLOAD DUP2 PUSH20 0xFFFFFFFFFFFFFFFFFFFFFFFFFFFFFFFFFFFFFFFF MUL NOT AND SWAP1 DUP4 PUSH20 0xFFFFFFFFFFFFFFFFFFFFFFFFFFFFFFFFFFFFFFFF AND MUL OR SWAP1 SSTORE POP DUP2 PUSH1 0x2 DUP2 SWAP1 SSTORE POP DUP1 PUSH1 0x3 DUP2 SWAP1 SSTORE POP POP POP POP PUSH2 0x167 JUMP JUMPDEST PUSH0 PUSH0 REVERT JUMPDEST PUSH0 PUSH20 0xFFFFFFFFFFFFFFFFFFFFFFFFFFFFFFFFFFFFFFFF DUP3 AND SWAP1 POP SWAP2 SWAP1 POP JUMP JUMPDEST PUSH0 PUSH2 0xB3 DUP3 PUSH2 0x8A JUMP JUMPDEST SWAP1 POP SWAP2 SWAP1 POP JUMP JUMPDEST PUSH2 0xC3 DUP2 PUSH2 0xA9 JUMP JUMPDEST DUP2 EQ PUSH2 0xCD JUMPI PUSH0 PUSH0 REVERT JUMPDEST POP JUMP JUMPDEST PUSH0 DUP2 MLOAD SWAP1 POP PUSH2 0xDE DUP2 PUSH2 0xBA JUMP JUMPDEST SWAP3 SWAP2 POP POP JUMP JUMPDEST PUSH0 DUP2 SWAP1 POP SWAP2 SWAP1 POP JUMP JUMPDEST PUSH2 0xF6 DUP2 PUSH2 0xE4 JUMP JUMPDEST DUP2 EQ PUSH2 0x100 JUMPI PUSH0 PUSH0 REVERT JUMPDEST POP JUMP JUMPDEST PUSH0 DUP2 MLOAD SWAP1 POP PUSH2 0x111 DUP2 PUSH2 0xED JUMP JUMPDEST SWAP3 SWAP2 POP POP JUMP JUMPDEST PUSH0 PUSH0 PUSH0 PUSH1 0x60 DUP5 DUP7 SUB SLT ISZERO PUSH2 0x12E JUMPI PUSH2 0x12D PUSH2 0x86 JUMP JUMPDEST JUMPDEST PUSH0 PUSH2 0x13B DUP7 DUP3 DUP8 ADD PUSH2 0xD0 JUMP JUMPDEST SWAP4 POP POP PUSH1 0x20 PUSH2 0x14C DUP7 DUP3 DUP8 ADD PUSH2 0x103 JUMP JUMPDEST SWAP3 POP POP PUSH1 0x40 PUSH2 0x15D DUP7 DUP3 DUP8 ADD PUSH2 0x103 JUMP JUMPDEST SWAP2 POP POP SWAP3 POP SWAP3 POP SWAP3 JUMP JUMPDEST PUSH2 0x16E9 DUP1 PUSH2 0x174 PUSH0 CODECOPY PUSH0 RETURN INVALID PUSH1 0x80 PUSH1 0x40 MSTORE CALLVALUE DUP1 ISZERO PUSH2 0xF JUMPI PUSH0 PUSH0 REVERT JUMPDEST POP PUSH1 0x4 CALLDATASIZE LT PUSH2 0x91 JUMPI PUSH0 CALLDATALOAD PUSH1 0xE0 SHR DUP1 PUSH4 0x49C2A1A6 GT PUSH2 0x64 JUMPI DUP1 PUSH4 0x49C2A1A6 EQ PUSH2 0x13D JUMPI DUP1 PUSH4 0x4FA76EC9 EQ PUSH2 0x159 JUMPI DUP1 PUSH4 0xC9D27AFE EQ PUSH2 0x177 JUMPI DUP1 PUSH4 0xDA35C664 EQ PUSH2 0x193 JUMPI DUP1 PUSH4 0xF96DAE0A EQ PUSH2 0x1B1 JUMPI PUSH2 0x91 JUMP JUMPDEST DUP1 PUSH4 0x13CF08B EQ PUSH2 0x95 JUMPI DUP1 PUSH4 0x2A251A3 EQ PUSH2 0xCC JUMPI DUP1 PUSH4 0xD61B519 EQ PUSH2 0xEA JUMPI DUP1 PUSH4 0x3B4D01A7 EQ PUSH2 0x106 JUMPI JUMPDEST PUSH0 PUSH0 REVERT JUMPDEST PUSH2 0xAF PUSH1 0x4 DUP1 CALLDATASIZE SUB DUP2 ADD SWAP1 PUSH2 0xAA SWAP2 SWAP1 PUSH2 0xAFA JUMP JUMPDEST PUSH2 0x1CF JUMP JUMPDEST PUSH1 0x40 MLOAD PUSH2 0xC3 SWAP9 SWAP8 SWAP7 SWAP6 SWAP5 SWAP4 SWAP3 SWAP2 SWAP1 PUSH2 0xBFD JUMP JUMPDEST PUSH1 0x40 MLOAD DUP1 SWAP2 SUB SWAP1 RETURN JUMPDEST PUSH2 0xD4 PUSH2 0x2C4 JUMP JUMPDEST PUSH1 0x40 MLOAD PUSH2 0xE1 SWAP2 SWAP1 PUSH2 0xC80 JUMP JUMPDEST PUSH1 0x40 MLOAD DUP1 SWAP2 SUB SWAP1 RETURN JUMPDEST PUSH2 0x104 PUSH1 0x4 DUP1 CALLDATASIZE SUB DUP2 ADD SWAP1 PUSH2 0xFF SWAP2 SWAP1 PUSH2 0xAFA JUMP JUMPDEST PUSH2 0x2CA JUMP JUMPDEST STOP JUMPDEST PUSH2 0x120 PUSH1 0x4 DUP1 CALLDATASIZE SUB DUP2 ADD SWAP1 PUSH2 0x11B SWAP2 SWAP1 PUSH2 0xAFA JUMP JUMPDEST PUSH2 0x4D8 JUMP JUMPDEST PUSH1 0x40 MLOAD PUSH2 0x134 SWAP9 SWAP8 SWAP7 SWAP6 SWAP5 SWAP4 SWAP3 SWAP2 SWAP1 PUSH2 0xBFD JUMP JUMPDEST PUSH1 0x40 MLOAD DUP1 SWAP2 SUB SWAP1 RETURN JUMPDEST PUSH2 0x157 PUSH1 0x4 DUP1 CALLDATASIZE SUB DUP2 ADD SWAP1 PUSH2 0x152 SWAP2 SWAP1 PUSH2 0xDC5 JUMP JUMPDEST PUSH2 0x5EC JUMP JUMPDEST STOP JUMPDEST PUSH2 0x161 PUSH2 0x7C4 JUMP JUMPDEST PUSH1 0x40 MLOAD PUSH2 0x16E SWAP2 SWAP1 PUSH2 0xC80 JUMP JUMPDEST PUSH1 0x40 MLOAD DUP1 SWAP2 SUB SWAP1 RETURN JUMPDEST PUSH2 0x191 PUSH1 0x4 DUP1 CALLDATASIZE SUB DUP2 ADD SWAP1 PUSH2 0x18C SWAP2 SWAP1 PUSH2 0xE36 JUMP JUMPDEST PUSH2 0x7CA JUMP JUMPDEST STOP JUMPDEST PUSH2 0x19B PUSH2 0xA8C JUMP JUMPDEST PUSH1 0x40 MLOAD PUSH2 0x1A8 SWAP2 SWAP1 PUSH2 0xC80 JUMP JUMPDEST PUSH1 0x40 MLOAD DUP1 SWAP2 SUB SWAP1 RETURN JUMPDEST PUSH2 0x1B9 PUSH2 0xA92 JUMP JUMPDEST PUSH1 0x40 MLOAD PUSH2 0x1C6 SWAP2 SWAP1 PUSH2 0xECF JUMP JUMPDEST PUSH1 0x40 MLOAD DUP1 SWAP2 SUB SWAP1 RETURN JUMPDEST PUSH1 0x4 PUSH1 0x20 MSTORE DUP1 PUSH0 MSTORE PUSH1 0x40 PUSH0 KECCAK256 PUSH0 SWAP2 POP SWAP1 POP DUP1 PUSH0 ADD SLOAD SWAP1 DUP1 PUSH1 0x1 ADD PUSH0 SWAP1 SLOAD SWAP1 PUSH2 0x100 EXP SWAP1 DIV PUSH20 0xFFFFFFFFFFFFFFFFFFFFFFFFFFFFFFFFFFFFFFFF AND SWAP1 DUP1 PUSH1 0x2 ADD DUP1 SLOAD PUSH2 0x219 SWAP1 PUSH2 0xF15 JUMP JUMPDEST DUP1 PUSH1 0x1F ADD PUSH1 0x20 DUP1 SWAP2 DIV MUL PUSH1 0x20 ADD PUSH1 0x40 MLOAD SWAP1 DUP2 ADD PUSH1 0x40 MSTORE DUP1 SWAP3 SWAP2 SWAP1 DUP2 DUP2 MSTORE PUSH1 0x20 ADD DUP3 DUP1 SLOAD PUSH2 0x245 SWAP1 PUSH2 0xF15 JUMP JUMPDEST DUP1 ISZERO PUSH2 0x290 JUMPI DUP1 PUSH1 0x1F LT PUSH2 0x267 JUMPI PUSH2 0x100 DUP1 DUP4 SLOAD DIV MUL DUP4 MSTORE SWAP2 PUSH1 0x20 ADD SWAP2 PUSH2 0x290 JUMP JUMPDEST DUP3 ADD SWAP2 SWAP1 PUSH0 MSTORE PUSH1 0x20 PUSH0 KECCAK256 SWAP1 JUMPDEST DUP2 SLOAD DUP2 MSTORE SWAP1 PUSH1 0x1 ADD SWAP1 PUSH1 0x20 ADD DUP1 DUP4 GT PUSH2 0x273 JUMPI DUP3 SWAP1 SUB PUSH1 0x1F AND DUP3 ADD SWAP2 JUMPDEST POP POP POP POP POP SWAP1 DUP1 PUSH1 0x3 ADD SLOAD SWAP1 DUP1 PUSH1 0x4 ADD SLOAD SWAP1 DUP1 PUSH1 0x5 ADD SLOAD SWAP1 DUP1 PUSH1 0x6 ADD SLOAD SWAP1 DUP1 PUSH1 0x7 ADD PUSH0 SWAP1 SLOAD SWAP1 PUSH2 0x100 EXP SWAP1 DIV PUSH1 0xFF AND SWAP1 POP DUP9 JUMP JUMPDEST PUSH1 0x2 SLOAD DUP2 JUMP JUMPDEST PUSH0 PUSH1 0x4 PUSH0 DUP4 DUP2 MSTORE PUSH1 0x20 ADD SWAP1 DUP2 MSTORE PUSH1 0x20 ADD PUSH0 KECCAK256 SWAP1 POP DUP1 PUSH1 0x6 ADD SLOAD TIMESTAMP GT PUSH2 0x324 JUMPI PUSH1 0x40 MLOAD PUSH32 0x8C379A000000000000000000000000000000000000000000000000000000000 DUP2 MSTORE PUSH1 0x4 ADD PUSH2 0x31B SWAP1 PUSH2 0xF8F JUMP JUMPDEST PUSH1 0x40 MLOAD DUP1 SWAP2 SUB SWAP1 REVERT JUMPDEST DUP1 PUSH1 0x7 ADD PUSH0 SWAP1 SLOAD SWAP1 PUSH2 0x100 EXP SWAP1 DIV PUSH1 0xFF AND ISZERO PUSH2 0x375 JUMPI PUSH1 0x40 MLOAD PUSH32 0x8C379A000000000000000000000000000000000000000000000000000000000 DUP2 MSTORE PUSH1 0x4 ADD PUSH2 0x36C SWAP1 PUSH2 0xFF7 JUMP JUMPDEST PUSH1 0x40 MLOAD DUP1 SWAP2 SUB SWAP1 REVERT JUMPDEST PUSH0 DUP2 PUSH1 0x4 ADD SLOAD DUP3 PUSH1 0x3 ADD SLOAD PUSH2 0x38A SWAP2 SWAP1 PUSH2 0x1042 JUMP JUMPDEST SWAP1 POP PUSH0 PUSH1 0x64 PUSH1 0x3 SLOAD PUSH0 PUSH0 SWAP1 SLOAD SWAP1 PUSH2 0x100 EXP SWAP1 DIV PUSH20 0xFFFFFFFFFFFFFFFFFFFFFFFFFFFFFFFFFFFFFFFF AND PUSH20 0xFFFFFFFFFFFFFFFFFFFFFFFFFFFFFFFFFFFFFFFF AND PUSH4 0x18160DDD PUSH1 0x40 MLOAD DUP2 PUSH4 0xFFFFFFFF AND PUSH1 0xE0 SHL DUP2 MSTORE PUSH1 0x4 ADD PUSH1 0x20 PUSH1 0x40 MLOAD DUP1 DUP4 SUB DUP2 DUP7 GAS STATICCALL ISZERO DUP1 ISZERO PUSH2 0x3FB JUMPI RETURNDATASIZE PUSH0 PUSH0 RETURNDATACOPY RETURNDATASIZE PUSH0 REVERT JUMPDEST POP POP POP POP PUSH1 0x40 MLOAD RETURNDATASIZE PUSH1 0x1F NOT PUSH1 0x1F DUP3 ADD AND DUP3 ADD DUP1 PUSH1 0x40 MSTORE POP DUP2 ADD SWAP1 PUSH2 0x41F SWAP2 SWAP1 PUSH2 0x1089 JUMP JUMPDEST PUSH2 0x429 SWAP2 SWAP1 PUSH2 0x10B4 JUMP JUMPDEST PUSH2 0x433 SWAP2 SWAP1 PUSH2 0x1122 JUMP JUMPDEST SWAP1 POP DUP1 DUP3 LT ISZERO PUSH2 0x478 JUMPI PUSH1 0x40 MLOAD PUSH32 0x8C379A000000000000000000000000000000000000000000000000000000000 DUP2 MSTORE PUSH1 0x4 ADD PUSH2 0x46F SWAP1 PUSH2 0x119C JUMP JUMPDEST PUSH1 0x40 MLOAD DUP1 SWAP2 SUB SWAP1 REVERT JUMPDEST DUP3 PUSH1 0x4 ADD SLOAD DUP4 PUSH1 0x3 ADD SLOAD GT ISZERO PUSH2 0x4D2 JUMPI PUSH1 0x1 DUP4 PUSH1 0x7 ADD PUSH0 PUSH2 0x100 EXP DUP2 SLOAD DUP2 PUSH1 0xFF MUL NOT AND SWAP1 DUP4 ISZERO ISZERO MUL OR SWAP1 SSTORE POP DUP4 PUSH32 0x712AE1383F79AC853F8D882153778E0260EF8F03B504E2866E0593E04D2B291F PUSH1 0x40 MLOAD PUSH1 0x40 MLOAD DUP1 SWAP2 SUB SWAP1 LOG2 JUMPDEST POP POP POP POP JUMP JUMPDEST PUSH0 PUSH0 PUSH1 0x60 PUSH0 PUSH0 PUSH0 PUSH0 PUSH0 PUSH0 PUSH1 0x4 PUSH0 DUP12 DUP2 MSTORE PUSH1 0x20 ADD SWAP1 DUP2 MSTORE PUSH1 0x20 ADD PUSH0 KECCAK256 SWAP1 POP DUP1 PUSH0 ADD SLOAD DUP2 PUSH1 0x1 ADD PUSH0 SWAP1 SLOAD SWAP1 PUSH2 0x100 EXP SWAP1 DIV PUSH20 0xFFFFFFFFFFFFFFFFFFFFFFFFFFFFFFFFFFFFFFFF AND DUP3 PUSH1 0x2 ADD DUP4 PUSH1 0x3 ADD SLOAD DUP5 PUSH1 0x4 ADD SLOAD DUP6 PUSH1 0x5 ADD SLOAD DUP7 PUSH1 0x6 ADD SLOAD DUP8 PUSH1 0x7 ADD PUSH0 SWAP1 SLOAD SWAP1 PUSH2 0x100 EXP SWAP1 DIV PUSH1 0xFF AND DUP6 DUP1 SLOAD PUSH2 0x552 SWAP1 PUSH2 0xF15 JUMP JUMPDEST DUP1 PUSH1 0x1F ADD PUSH1 0x20 DUP1 SWAP2 DIV MUL PUSH1 0x20 ADD PUSH1 0x40 MLOAD SWAP1 DUP2 ADD PUSH1 0x40 MSTORE DUP1 SWAP3 SWAP2 SWAP1 DUP2 DUP2 MSTORE PUSH1 0x20 ADD DUP3 DUP1 SLOAD PUSH2 0x57E SWAP1 PUSH2 0xF15 JUMP JUMPDEST DUP1 ISZERO PUSH2 0x5C9 JUMPI DUP1 PUSH1 0x1F LT PUSH2 0x5A0 JUMPI PUSH2 0x100 DUP1 DUP4 SLOAD DIV MUL DUP4 MSTORE SWAP2 PUSH1 0x20 ADD SWAP2 PUSH2 0x5C9 JUMP JUMPDEST DUP3 ADD SWAP2 SWAP1 PUSH0 MSTORE PUSH1 0x20 PUSH0 KECCAK256 SWAP1 JUMPDEST DUP2 SLOAD DUP2 MSTORE SWAP1 PUSH1 0x1 ADD SWAP1 PUSH1 0x20 ADD DUP1 DUP4 GT PUSH2 0x5AC JUMPI DUP3 SWAP1 SUB PUSH1 0x1F AND DUP3 ADD SWAP2 JUMPDEST POP POP POP POP POP SWAP6 POP SWAP9 POP SWAP9 POP SWAP9 POP SWAP9 POP SWAP9 POP SWAP9 POP SWAP9 POP SWAP9 POP POP SWAP2 SWAP4 SWAP6 SWAP8 POP SWAP2 SWAP4 SWAP6 SWAP8 JUMP JUMPDEST PUSH0 PUSH0 PUSH0 SWAP1 SLOAD SWAP1 PUSH2 0x100 EXP SWAP1 DIV PUSH20 0xFFFFFFFFFFFFFFFFFFFFFFFFFFFFFFFFFFFFFFFF AND PUSH20 0xFFFFFFFFFFFFFFFFFFFFFFFFFFFFFFFFFFFFFFFF AND PUSH4 0x70A08231 CALLER PUSH1 0x40 MLOAD DUP3 PUSH4 0xFFFFFFFF AND PUSH1 0xE0 SHL DUP2 MSTORE PUSH1 0x4 ADD PUSH2 0x646 SWAP2 SWAP1 PUSH2 0x11BA JUMP JUMPDEST PUSH1 0x20 PUSH1 0x40 MLOAD DUP1 DUP4 SUB DUP2 DUP7 GAS STATICCALL ISZERO DUP1 ISZERO PUSH2 0x661 JUMPI RETURNDATASIZE PUSH0 PUSH0 RETURNDATACOPY RETURNDATASIZE PUSH0 REVERT JUMPDEST POP POP POP POP PUSH1 0x40 MLOAD RETURNDATASIZE PUSH1 0x1F NOT PUSH1 0x1F DUP3 ADD AND DUP3 ADD DUP1 PUSH1 0x40 MSTORE POP DUP2 ADD SWAP1 PUSH2 0x685 SWAP2 SWAP1 PUSH2 0x1089 JUMP JUMPDEST GT PUSH2 0x6C5 JUMPI PUSH1 0x40 MLOAD PUSH32 0x8C379A000000000000000000000000000000000000000000000000000000000 DUP2 MSTORE PUSH1 0x4 ADD PUSH2 0x6BC SWAP1 PUSH2 0x1243 JUMP JUMPDEST PUSH1 0x40 MLOAD DUP1 SWAP2 SUB SWAP1 REVERT JUMPDEST PUSH1 0x1 PUSH0 DUP2 SLOAD DUP1 SWAP3 SWAP2 SWAP1 PUSH2 0x6D7 SWAP1 PUSH2 0x1261 JUMP JUMPDEST SWAP2 SWAP1 POP SSTORE POP PUSH0 PUSH1 0x4 PUSH0 PUSH1 0x1 SLOAD DUP2 MSTORE PUSH1 0x20 ADD SWAP1 DUP2 MSTORE PUSH1 0x20 ADD PUSH0 KECCAK256 SWAP1 POP PUSH1 0x1 SLOAD DUP2 PUSH0 ADD DUP2 SWAP1 SSTORE POP CALLER DUP2 PUSH1 0x1 ADD PUSH0 PUSH2 0x100 EXP DUP2 SLOAD DUP2 PUSH20 0xFFFFFFFFFFFFFFFFFFFFFFFFFFFFFFFFFFFFFFFF MUL NOT AND SWAP1 DUP4 PUSH20 0xFFFFFFFFFFFFFFFFFFFFFFFFFFFFFFFFFFFFFFFF AND MUL OR SWAP1 SSTORE POP DUP2 DUP2 PUSH1 0x2 ADD SWAP1 DUP2 PUSH2 0x74F SWAP2 SWAP1 PUSH2 0x143F JUMP JUMPDEST POP TIMESTAMP DUP2 PUSH1 0x5 ADD DUP2 SWAP1 SSTORE POP PUSH1 0x2 SLOAD TIMESTAMP PUSH2 0x767 SWAP2 SWAP1 PUSH2 0x1042 JUMP JUMPDEST DUP2 PUSH1 0x6 ADD DUP2 SWAP1 SSTORE POP CALLER PUSH20 0xFFFFFFFFFFFFFFFFFFFFFFFFFFFFFFFFFFFFFFFF AND PUSH1 0x1 SLOAD PUSH32 0x7585F467599D0F008985F231AF99293BE388626AC16CA59505C2F8F88969CD63 DUP5 PUSH1 0x40 MLOAD PUSH2 0x7B8 SWAP2 SWAP1 PUSH2 0x150E JUMP JUMPDEST PUSH1 0x40 MLOAD DUP1 SWAP2 SUB SWAP1 LOG3 POP POP JUMP JUMPDEST PUSH1 0x3 SLOAD DUP2 JUMP JUMPDEST PUSH0 PUSH1 0x4 PUSH0 DUP5 DUP2 MSTORE PUSH1 0x20 ADD SWAP1 DUP2 MSTORE PUSH1 0x20 ADD PUSH0 KECCAK256 SWAP1 POP DUP1 PUSH1 0x5 ADD SLOAD TIMESTAMP LT ISZERO DUP1 ISZERO PUSH2 0x7F6 JUMPI POP DUP1 PUSH1 0x6 ADD SLOAD TIMESTAMP GT ISZERO JUMPDEST PUSH2 0x835 JUMPI PUSH1 0x40 MLOAD PUSH32 0x8C379A000000000000000000000000000000000000000000000000000000000 DUP2 MSTORE PUSH1 0x4 ADD PUSH2 0x82C SWAP1 PUSH2 0x1578 JUMP JUMPDEST PUSH1 0x40 MLOAD DUP1 SWAP2 SUB SWAP1 REVERT JUMPDEST DUP1 PUSH1 0x8 ADD PUSH0 CALLER PUSH20 0xFFFFFFFFFFFFFFFFFFFFFFFFFFFFFFFFFFFFFFFF AND PUSH20 0xFFFFFFFFFFFFFFFFFFFFFFFFFFFFFFFFFFFFFFFF AND DUP2 MSTORE PUSH1 0x20 ADD SWAP1 DUP2 MSTORE PUSH1 0x20 ADD PUSH0 KECCAK256 PUSH0 SWAP1 SLOAD SWAP1 PUSH2 0x100 EXP SWAP1 DIV PUSH1 0xFF AND ISZERO PUSH2 0x8C1 JUMPI PUSH1 0x40 MLOAD PUSH32 0x8C379A000000000000000000000000000000000000000000000000000000000 DUP2 MSTORE PUSH1 0x4 ADD PUSH2 0x8B8 SWAP1 PUSH2 0x15E0 JUMP JUMPDEST PUSH1 0x40 MLOAD DUP1 SWAP2 SUB SWAP1 REVERT JUMPDEST PUSH0 PUSH0 PUSH0 SWAP1 SLOAD SWAP1 PUSH2 0x100 EXP SWAP1 DIV PUSH20 0xFFFFFFFFFFFFFFFFFFFFFFFFFFFFFFFFFFFFFFFF AND PUSH20 0xFFFFFFFFFFFFFFFFFFFFFFFFFFFFFFFFFFFFFFFF AND PUSH4 0x70A08231 CALLER PUSH1 0x40 MLOAD DUP3 PUSH4 0xFFFFFFFF AND PUSH1 0xE0 SHL DUP2 MSTORE PUSH1 0x4 ADD PUSH2 0x91B SWAP2 SWAP1 PUSH2 0x11BA JUMP JUMPDEST PUSH1 0x20 PUSH1 0x40 MLOAD DUP1 DUP4 SUB DUP2 DUP7 GAS STATICCALL ISZERO DUP1 ISZERO PUSH2 0x936 JUMPI RETURNDATASIZE PUSH0 PUSH0 RETURNDATACOPY RETURNDATASIZE PUSH0 REVERT JUMPDEST POP POP POP POP PUSH1 0x40 MLOAD RETURNDATASIZE PUSH1 0x1F NOT PUSH1 0x1F DUP3 ADD AND DUP3 ADD DUP1 PUSH1 0x40 MSTORE POP DUP2 ADD SWAP1 PUSH2 0x95A SWAP2 SWAP1 PUSH2 0x1089 JUMP JUMPDEST SWAP1 POP PUSH0 DUP2 GT PUSH2 0x99E JUMPI PUSH1 0x40 MLOAD PUSH32 0x8C379A000000000000000000000000000000000000000000000000000000000 DUP2 MSTORE PUSH1 0x4 ADD PUSH2 0x995 SWAP1 PUSH2 0x166E JUMP JUMPDEST PUSH1 0x40 MLOAD DUP1 SWAP2 SUB SWAP1 REVERT JUMPDEST DUP3 ISZERO PUSH2 0x9C3 JUMPI DUP1 DUP3 PUSH1 0x3 ADD PUSH0 DUP3 DUP3 SLOAD PUSH2 0x9B7 SWAP2 SWAP1 PUSH2 0x1042 JUMP JUMPDEST SWAP3 POP POP DUP2 SWAP1 SSTORE POP PUSH2 0x9DE JUMP JUMPDEST DUP1 DUP3 PUSH1 0x4 ADD PUSH0 DUP3 DUP3 SLOAD PUSH2 0x9D6 SWAP2 SWAP1 PUSH2 0x1042 JUMP JUMPDEST SWAP3 POP POP DUP2 SWAP1 SSTORE POP JUMPDEST PUSH1 0x1 DUP3 PUSH1 0x8 ADD PUSH0 CALLER PUSH20 0xFFFFFFFFFFFFFFFFFFFFFFFFFFFFFFFFFFFFFFFF AND PUSH20 0xFFFFFFFFFFFFFFFFFFFFFFFFFFFFFFFFFFFFFFFF AND DUP2 MSTORE PUSH1 0x20 ADD SWAP1 DUP2 MSTORE PUSH1 0x20 ADD PUSH0 KECCAK256 PUSH0 PUSH2 0x100 EXP DUP2 SLOAD DUP2 PUSH1 0xFF MUL NOT AND SWAP1 DUP4 ISZERO ISZERO MUL OR SWAP1 SSTORE POP CALLER PUSH20 0xFFFFFFFFFFFFFFFFFFFFFFFFFFFFFFFFFFFFFFFF AND DUP5 PUSH32 0x7C2DE587C00D75474A0C6C6FA96FD3B45DC974CD4E8A75F712BB84C950DCE1B5 DUP6 DUP5 PUSH1 0x40 MLOAD PUSH2 0xA7E SWAP3 SWAP2 SWAP1 PUSH2 0x168C JUMP JUMPDEST PUSH1 0x40 MLOAD DUP1 SWAP2 SUB SWAP1 LOG3 POP POP POP POP JUMP JUMPDEST PUSH1 0x1 SLOAD DUP2 JUMP JUMPDEST PUSH0 PUSH0 SWAP1 SLOAD SWAP1 PUSH2 0x100 EXP SWAP1 DIV PUSH20 0xFFFFFFFFFFFFFFFFFFFFFFFFFFFFFFFFFFFFFFFF AND DUP2 JUMP JUMPDEST PUSH0 PUSH1 0x40 MLOAD SWAP1 POP SWAP1 JUMP JUMPDEST PUSH0 PUSH0 REVERT JUMPDEST PUSH0 PUSH0 REVERT JUMPDEST PUSH0 DUP2 SWAP1 POP SWAP2 SWAP1 POP JUMP JUMPDEST PUSH2 0xAD9 DUP2 PUSH2 0xAC7 JUMP JUMPDEST DUP2 EQ PUSH2 0xAE3 JUMPI PUSH0 PUSH0 REVERT JUMPDEST POP JUMP JUMPDEST PUSH0 DUP2 CALLDATALOAD SWAP1 POP PUSH2 0xAF4 DUP2 PUSH2 0xAD0 JUMP JUMPDEST SWAP3 SWAP2 POP POP JUMP JUMPDEST PUSH0 PUSH1 0x20 DUP3 DUP5 SUB SLT ISZERO PUSH2 0xB0F JUMPI PUSH2 0xB0E PUSH2 0xABF JUMP JUMPDEST JUMPDEST PUSH0 PUSH2 0xB1C DUP5 DUP3 DUP6 ADD PUSH2 0xAE6 JUMP JUMPDEST SWAP2 POP POP SWAP3 SWAP2 POP POP JUMP JUMPDEST PUSH2 0xB2E DUP2 PUSH2 0xAC7 JUMP JUMPDEST DUP3 MSTORE POP POP JUMP JUMPDEST PUSH0 PUSH20 0xFFFFFFFFFFFFFFFFFFFFFFFFFFFFFFFFFFFFFFFF DUP3 AND SWAP1 POP SWAP2 SWAP1 POP JUMP JUMPDEST PUSH0 PUSH2 0xB5D DUP3 PUSH2 0xB34 JUMP JUMPDEST SWAP1 POP SWAP2 SWAP1 POP JUMP JUMPDEST PUSH2 0xB6D DUP2 PUSH2 0xB53 JUMP JUMPDEST DUP3 MSTORE POP POP JUMP JUMPDEST PUSH0 DUP2 MLOAD SWAP1 POP SWAP2 SWAP1 POP JUMP JUMPDEST PUSH0 DUP3 DUP3 MSTORE PUSH1 0x20 DUP3 ADD SWAP1 POP SWAP3 SWAP2 POP POP JUMP JUMPDEST DUP3 DUP2 DUP4 MCOPY PUSH0 DUP4 DUP4 ADD MSTORE POP POP POP JUMP JUMPDEST PUSH0 PUSH1 0x1F NOT PUSH1 0x1F DUP4 ADD AND SWAP1 POP SWAP2 SWAP1 POP JUMP JUMPDEST PUSH0 PUSH2 0xBB5 DUP3 PUSH2 0xB73 JUMP JUMPDEST PUSH2 0xBBF DUP2 DUP6 PUSH2 0xB7D JUMP JUMPDEST SWAP4 POP PUSH2 0xBCF DUP2 DUP6 PUSH1 0x20 DUP7 ADD PUSH2 0xB8D JUMP JUMPDEST PUSH2 0xBD8 DUP2 PUSH2 0xB9B JUMP JUMPDEST DUP5 ADD SWAP2 POP POP SWAP3 SWAP2 POP POP JUMP JUMPDEST PUSH0 DUP2 ISZERO ISZERO SWAP1 POP SWAP2 SWAP1 POP JUMP JUMPDEST PUSH2 0xBF7 DUP2 PUSH2 0xBE3 JUMP JUMPDEST DUP3 MSTORE POP POP JUMP JUMPDEST PUSH0 PUSH2 0x100 DUP3 ADD SWAP1 POP PUSH2 0xC11 PUSH0 DUP4 ADD DUP12 PUSH2 0xB25 JUMP JUMPDEST PUSH2 0xC1E PUSH1 0x20 DUP4 ADD DUP11 PUSH2 0xB64 JUMP JUMPDEST DUP2 DUP2 SUB PUSH1 0x40 DUP4 ADD MSTORE PUSH2 0xC30 DUP2 DUP10 PUSH2 0xBAB JUMP JUMPDEST SWAP1 POP PUSH2 0xC3F PUSH1 0x60 DUP4 ADD DUP9 PUSH2 0xB25 JUMP JUMPDEST PUSH2 0xC4C PUSH1 0x80 DUP4 ADD DUP8 PUSH2 0xB25 JUMP JUMPDEST PUSH2 0xC59 PUSH1 0xA0 DUP4 ADD DUP7 PUSH2 0xB25 JUMP JUMPDEST PUSH2 0xC66 PUSH1 0xC0 DUP4 ADD DUP6 PUSH2 0xB25 JUMP JUMPDEST PUSH2 0xC73 PUSH1 0xE0 DUP4 ADD DUP5 PUSH2 0xBEE JUMP JUMPDEST SWAP10 SWAP9 POP POP POP POP POP POP POP POP POP JUMP JUMPDEST PUSH0 PUSH1 0x20 DUP3 ADD SWAP1 POP PUSH2 0xC93 PUSH0 DUP4 ADD DUP5 PUSH2 0xB25 JUMP JUMPDEST SWAP3 SWAP2 POP POP JUMP JUMPDEST PUSH0 PUSH0 REVERT JUMPDEST PUSH0 PUSH0 REVERT JUMPDEST PUSH32 0x4E487B7100000000000000000000000000000000000000000000000000000000 PUSH0 MSTORE PUSH1 0x41 PUSH1 0x4 MSTORE PUSH1 0x24 PUSH0 REVERT JUMPDEST PUSH2 0xCD7 DUP3 PUSH2 0xB9B JUMP JUMPDEST DUP2 ADD DUP2 DUP2 LT PUSH8 0xFFFFFFFFFFFFFFFF DUP3 GT OR ISZERO PUSH2 0xCF6 JUMPI PUSH2 0xCF5 PUSH2 0xCA1 JUMP JUMPDEST JUMPDEST DUP1 PUSH1 0x40 MSTORE POP POP POP JUMP JUMPDEST PUSH0 PUSH2 0xD08 PUSH2 0xAB6 JUMP JUMPDEST SWAP1 POP PUSH2 0xD14 DUP3 DUP3 PUSH2 0xCCE JUMP JUMPDEST SWAP2 SWAP1 POP JUMP JUMPDEST PUSH0 PUSH8 0xFFFFFFFFFFFFFFFF DUP3 GT ISZERO PUSH2 0xD33 JUMPI PUSH2 0xD32 PUSH2 0xCA1 JUMP JUMPDEST JUMPDEST PUSH2 0xD3C DUP3 PUSH2 0xB9B JUMP JUMPDEST SWAP1 POP PUSH1 0x20 DUP2 ADD SWAP1 POP SWAP2 SWAP1 POP JUMP JUMPDEST DUP3 DUP2 DUP4 CALLDATACOPY PUSH0 DUP4 DUP4 ADD MSTORE POP POP POP JUMP JUMPDEST PUSH0 PUSH2 0xD69 PUSH2 0xD64 DUP5 PUSH2 0xD19 JUMP JUMPDEST PUSH2 0xCFF JUMP JUMPDEST SWAP1 POP DUP3 DUP2 MSTORE PUSH1 0x20 DUP2 ADD DUP5 DUP5 DUP5 ADD GT ISZERO PUSH2 0xD85 JUMPI PUSH2 0xD84 PUSH2 0xC9D JUMP JUMPDEST JUMPDEST PUSH2 0xD90 DUP5 DUP3 DUP6 PUSH2 0xD49 JUMP JUMPDEST POP SWAP4 SWAP3 POP POP POP JUMP JUMPDEST PUSH0 DUP3 PUSH1 0x1F DUP4 ADD SLT PUSH2 0xDAC JUMPI PUSH2 0xDAB PUSH2 0xC99 JUMP JUMPDEST JUMPDEST DUP2 CALLDATALOAD PUSH2 0xDBC DUP5 DUP3 PUSH1 0x20 DUP7 ADD PUSH2 0xD57 JUMP JUMPDEST SWAP2 POP POP SWAP3 SWAP2 POP POP JUMP JUMPDEST PUSH0 PUSH1 0x20 DUP3 DUP5 SUB SLT ISZERO PUSH2 0xDDA JUMPI PUSH2 0xDD9 PUSH2 0xABF JUMP JUMPDEST JUMPDEST PUSH0 DUP3 ADD CALLDATALOAD PUSH8 0xFFFFFFFFFFFFFFFF DUP2 GT ISZERO PUSH2 0xDF7 JUMPI PUSH2 0xDF6 PUSH2 0xAC3 JUMP JUMPDEST JUMPDEST PUSH2 0xE03 DUP5 DUP3 DUP6 ADD PUSH2 0xD98 JUMP JUMPDEST SWAP2 POP POP SWAP3 SWAP2 POP POP JUMP JUMPDEST PUSH2 0xE15 DUP2 PUSH2 0xBE3 JUMP JUMPDEST DUP2 EQ PUSH2 0xE1F JUMPI PUSH0 PUSH0 REVERT JUMPDEST POP JUMP JUMPDEST PUSH0 DUP2 CALLDATALOAD SWAP1 POP PUSH2 0xE30 DUP2 PUSH2 0xE0C JUMP JUMPDEST SWAP3 SWAP2 POP POP JUMP JUMPDEST PUSH0 PUSH0 PUSH1 0x40 DUP4 DUP6 SUB SLT ISZERO PUSH2 0xE4C JUMPI PUSH2 0xE4B PUSH2 0xABF JUMP JUMPDEST JUMPDEST PUSH0 PUSH2 0xE59 DUP6 DUP3 DUP7 ADD PUSH2 0xAE6 JUMP JUMPDEST SWAP3 POP POP PUSH1 0x20 PUSH2 0xE6A DUP6 DUP3 DUP7 ADD PUSH2 0xE22 JUMP JUMPDEST SWAP2 POP POP SWAP3 POP SWAP3 SWAP1 POP JUMP JUMPDEST PUSH0 DUP2 SWAP1 POP SWAP2 SWAP1 POP JUMP JUMPDEST PUSH0 PUSH2 0xE97 PUSH2 0xE92 PUSH2 0xE8D DUP5 PUSH2 0xB34 JUMP JUMPDEST PUSH2 0xE74 JUMP JUMPDEST PUSH2 0xB34 JUMP JUMPDEST SWAP1 POP SWAP2 SWAP1 POP JUMP JUMPDEST PUSH0 PUSH2 0xEA8 DUP3 PUSH2 0xE7D JUMP JUMPDEST SWAP1 POP SWAP2 SWAP1 POP JUMP JUMPDEST PUSH0 PUSH2 0xEB9 DUP3 PUSH2 0xE9E JUMP JUMPDEST SWAP1 POP SWAP2 SWAP1 POP JUMP JUMPDEST PUSH2 0xEC9 DUP2 PUSH2 0xEAF JUMP JUMPDEST DUP3 MSTORE POP POP JUMP JUMPDEST PUSH0 PUSH1 0x20 DUP3 ADD SWAP1 POP PUSH2 0xEE2 PUSH0 DUP4 ADD DUP5 PUSH2 0xEC0 JUMP JUMPDEST SWAP3 SWAP2 POP POP JUMP JUMPDEST PUSH32 0x4E487B7100000000000000000000000000000000000000000000000000000000 PUSH0 MSTORE PUSH1 0x22 PUSH1 0x4 MSTORE PUSH1 0x24 PUSH0 REVERT JUMPDEST PUSH0 PUSH1 0x2 DUP3 DIV SWAP1 POP PUSH1 0x1 DUP3 AND DUP1 PUSH2 0xF2C JUMPI PUSH1 0x7F DUP3 AND SWAP2 POP JUMPDEST PUSH1 0x20 DUP3 LT DUP2 SUB PUSH2 0xF3F JUMPI PUSH2 0xF3E PUSH2 0xEE8 JUMP JUMPDEST JUMPDEST POP SWAP2 SWAP1 POP JUMP JUMPDEST PUSH32 0x566F74696E6720706572696F64206E6F7420656E646564000000000000000000 PUSH0 DUP3 ADD MSTORE POP JUMP JUMPDEST PUSH0 PUSH2 0xF79 PUSH1 0x17 DUP4 PUSH2 0xB7D JUMP JUMPDEST SWAP2 POP PUSH2 0xF84 DUP3 PUSH2 0xF45 JUMP JUMPDEST PUSH1 0x20 DUP3 ADD SWAP1 POP SWAP2 SWAP1 POP JUMP JUMPDEST PUSH0 PUSH1 0x20 DUP3 ADD SWAP1 POP DUP2 DUP2 SUB PUSH0 DUP4 ADD MSTORE PUSH2 0xFA6 DUP2 PUSH2 0xF6D JUMP JUMPDEST SWAP1 POP SWAP2 SWAP1 POP JUMP JUMPDEST PUSH32 0x50726F706F73616C20616C726561647920657865637574656400000000000000 PUSH0 DUP3 ADD MSTORE POP JUMP JUMPDEST PUSH0 PUSH2 0xFE1 PUSH1 0x19 DUP4 PUSH2 0xB7D JUMP JUMPDEST SWAP2 POP PUSH2 0xFEC DUP3 PUSH2 0xFAD JUMP JUMPDEST PUSH1 0x20 DUP3 ADD SWAP1 POP SWAP2 SWAP1 POP JUMP JUMPDEST PUSH0 PUSH1 0x20 DUP3 ADD SWAP1 POP DUP2 DUP2 SUB PUSH0 DUP4 ADD MSTORE PUSH2 0x100E DUP2 PUSH2 0xFD5 JUMP JUMPDEST SWAP1 POP SWAP2 SWAP1 POP JUMP JUMPDEST PUSH32 0x4E487B7100000000000000000000000000000000000000000000000000000000 PUSH0 MSTORE PUSH1 0x11 PUSH1 0x4 MSTORE PUSH1 0x24 PUSH0 REVERT JUMPDEST PUSH0 PUSH2 0x104C DUP3 PUSH2 0xAC7 JUMP JUMPDEST SWAP2 POP PUSH2 0x1057 DUP4 PUSH2 0xAC7 JUMP JUMPDEST SWAP3 POP DUP3 DUP3 ADD SWAP1 POP DUP1 DUP3 GT ISZERO PUSH2 0x106F JUMPI PUSH2 0x106E PUSH2 0x1015 JUMP JUMPDEST JUMPDEST SWAP3 SWAP2 POP POP JUMP JUMPDEST PUSH0 DUP2 MLOAD SWAP1 POP PUSH2 0x1083 DUP2 PUSH2 0xAD0 JUMP JUMPDEST SWAP3 SWAP2 POP POP JUMP JUMPDEST PUSH0 PUSH1 0x20 DUP3 DUP5 SUB SLT ISZERO PUSH2 0x109E JUMPI PUSH2 0x109D PUSH2 0xABF JUMP JUMPDEST JUMPDEST PUSH0 PUSH2 0x10AB DUP5 DUP3 DUP6 ADD PUSH2 0x1075 JUMP JUMPDEST SWAP2 POP POP SWAP3 SWAP2 POP POP JUMP JUMPDEST PUSH0 PUSH2 0x10BE DUP3 PUSH2 0xAC7 JUMP JUMPDEST SWAP2 POP PUSH2 0x10C9 DUP4 PUSH2 0xAC7 JUMP JUMPDEST SWAP3 POP DUP3 DUP3 MUL PUSH2 0x10D7 DUP2 PUSH2 0xAC7 JUMP JUMPDEST SWAP2 POP DUP3 DUP3 DIV DUP5 EQ DUP4 ISZERO OR PUSH2 0x10EE JUMPI PUSH2 0x10ED PUSH2 0x1015 JUMP JUMPDEST JUMPDEST POP SWAP3 SWAP2 POP POP JUMP JUMPDEST PUSH32 0x4E487B7100000000000000000000000000000000000000000000000000000000 PUSH0 MSTORE PUSH1 0x12 PUSH1 0x4 MSTORE PUSH1 0x24 PUSH0 REVERT JUMPDEST PUSH0 PUSH2 0x112C DUP3 PUSH2 0xAC7 JUMP JUMPDEST SWAP2 POP PUSH2 0x1137 DUP4 PUSH2 0xAC7 JUMP JUMPDEST SWAP3 POP DUP3 PUSH2 0x1147 JUMPI PUSH2 0x1146 PUSH2 0x10F5 JUMP JUMPDEST JUMPDEST DUP3 DUP3 DIV SWAP1 POP SWAP3 SWAP2 POP POP JUMP JUMPDEST PUSH32 0x51756F72756D206E6F7420726561636865640000000000000000000000000000 PUSH0 DUP3 ADD MSTORE POP JUMP JUMPDEST PUSH0 PUSH2 0x1186 PUSH1 0x12 DUP4 PUSH2 0xB7D JUMP JUMPDEST SWAP2 POP PUSH2 0x1191 DUP3 PUSH2 0x1152 JUMP JUMPDEST PUSH1 0x20 DUP3 ADD SWAP1 POP SWAP2 SWAP1 POP JUMP JUMPDEST PUSH0 PUSH1 0x20 DUP3 ADD SWAP1 POP DUP2 DUP2 SUB PUSH0 DUP4 ADD MSTORE PUSH2 0x11B3 DUP2 PUSH2 0x117A JUMP JUMPDEST SWAP1 POP SWAP2 SWAP1 POP JUMP JUMPDEST PUSH0 PUSH1 0x20 DUP3 ADD SWAP1 POP PUSH2 0x11CD PUSH0 DUP4 ADD DUP5 PUSH2 0xB64 JUMP JUMPDEST SWAP3 SWAP2 POP POP JUMP JUMPDEST PUSH32 0x4D75737420686F6C6420676F7665726E616E636520746F6B656E7320746F2063 PUSH0 DUP3 ADD MSTORE PUSH32 0x72656174652070726F706F73616C000000000000000000000000000000000000 PUSH1 0x20 DUP3 ADD MSTORE POP JUMP JUMPDEST PUSH0 PUSH2 0x122D PUSH1 0x2E DUP4 PUSH2 0xB7D JUMP JUMPDEST SWAP2 POP PUSH2 0x1238 DUP3 PUSH2 0x11D3 JUMP JUMPDEST PUSH1 0x40 DUP3 ADD SWAP1 POP SWAP2 SWAP1 POP JUMP JUMPDEST PUSH0 PUSH1 0x20 DUP3 ADD SWAP1 POP DUP2 DUP2 SUB PUSH0 DUP4 ADD MSTORE PUSH2 0x125A DUP2 PUSH2 0x1221 JUMP JUMPDEST SWAP1 POP SWAP2 SWAP1 POP JUMP JUMPDEST PUSH0 PUSH2 0x126B DUP3 PUSH2 0xAC7 JUMP JUMPDEST SWAP2 POP PUSH32 0xFFFFFFFFFFFFFFFFFFFFFFFFFFFFFFFFFFFFFFFFFFFFFFFFFFFFFFFFFFFFFFFF DUP3 SUB PUSH2 0x129D JUMPI PUSH2 0x129C PUSH2 0x1015 JUMP JUMPDEST JUMPDEST PUSH1 0x1 DUP3 ADD SWAP1 POP SWAP2 SWAP1 POP JUMP JUMPDEST PUSH0 DUP2 SWAP1 POP DUP2 PUSH0 MSTORE PUSH1 0x20 PUSH0 KECCAK256 SWAP1 POP SWAP2 SWAP1 POP JUMP JUMPDEST PUSH0 PUSH1 0x20 PUSH1 0x1F DUP4 ADD DIV SWAP1 POP SWAP2 SWAP1 POP JUMP JUMPDEST PUSH0 DUP3 DUP3 SHL SWAP1 POP SWAP3 SWAP2 POP POP JUMP JUMPDEST PUSH0 PUSH1 0x8 DUP4 MUL PUSH2 0x1304 PUSH32 0xFFFFFFFFFFFFFFFFFFFFFFFFFFFFFFFFFFFFFFFFFFFFFFFFFFFFFFFFFFFFFFFF DUP3 PUSH2 0x12C9 JUMP JUMPDEST PUSH2 0x130E DUP7 DUP4 PUSH2 0x12C9 JUMP JUMPDEST SWAP6 POP DUP1 NOT DUP5 AND SWAP4 POP DUP1 DUP7 AND DUP5 OR SWAP3 POP POP POP SWAP4 SWAP3 POP POP POP JUMP JUMPDEST PUSH0 PUSH2 0x1340 PUSH2 0x133B PUSH2 0x1336 DUP5 PUSH2 0xAC7 JUMP JUMPDEST PUSH2 0xE74 JUMP JUMPDEST PUSH2 0xAC7 JUMP JUMPDEST SWAP1 POP SWAP2 SWAP1 POP JUMP JUMPDEST PUSH0 DUP2 SWAP1 POP SWAP2 SWAP1 POP JUMP JUMPDEST PUSH2 0x1359 DUP4 PUSH2 0x1326 JUMP JUMPDEST PUSH2 0x136D PUSH2 0x1365 DUP3 PUSH2 0x1347 JUMP JUMPDEST DUP5 DUP5 SLOAD PUSH2 0x12D5 JUMP JUMPDEST DUP3 SSTORE POP POP POP POP JUMP JUMPDEST PUSH0 PUSH0 SWAP1 POP SWAP1 JUMP JUMPDEST PUSH2 0x1384 PUSH2 0x1375 JUMP JUMPDEST PUSH2 0x138F DUP2 DUP5 DUP5 PUSH2 0x1350 JUMP JUMPDEST POP POP POP JUMP JUMPDEST JUMPDEST DUP2 DUP2 LT ISZERO PUSH2 0x13B2 JUMPI PUSH2 0x13A7 PUSH0 DUP3 PUSH2 0x137C JUMP JUMPDEST PUSH1 0x1 DUP2 ADD SWAP1 POP PUSH2 0x1395 JUMP JUMPDEST POP POP JUMP JUMPDEST PUSH1 0x1F DUP3 GT ISZERO PUSH2 0x13F7 JUMPI PUSH2 0x13C8 DUP2 PUSH2 0x12A8 JUMP JUMPDEST PUSH2 0x13D1 DUP5 PUSH2 0x12BA JUMP JUMPDEST DUP2 ADD PUSH1 0x20 DUP6 LT ISZERO PUSH2 0x13E0 JUMPI DUP2 SWAP1 POP JUMPDEST PUSH2 0x13F4 PUSH2 0x13EC DUP6 PUSH2 0x12BA JUMP JUMPDEST DUP4 ADD DUP3 PUSH2 0x1394 JUMP JUMPDEST POP POP JUMPDEST POP POP POP JUMP JUMPDEST PUSH0 DUP3 DUP3 SHR SWAP1 POP SWAP3 SWAP2 POP POP JUMP JUMPDEST PUSH0 PUSH2 0x1417 PUSH0 NOT DUP5 PUSH1 0x8 MUL PUSH2 0x13FC JUMP JUMPDEST NOT DUP1 DUP4 AND SWAP2 POP POP SWAP3 SWAP2 POP POP JUMP JUMPDEST PUSH0 PUSH2 0x142F DUP4 DUP4 PUSH2 0x1408 JUMP JUMPDEST SWAP2 POP DUP3 PUSH1 0x2 MUL DUP3 OR SWAP1 POP SWAP3 SWAP2 POP POP JUMP JUMPDEST PUSH2 0x1448 DUP3 PUSH2 0xB73 JUMP JUMPDEST PUSH8 0xFFFFFFFFFFFFFFFF DUP2 GT ISZERO PUSH2 0x1461 JUMPI PUSH2 0x1460 PUSH2 0xCA1 JUMP JUMPDEST JUMPDEST PUSH2 0x146B DUP3 SLOAD PUSH2 0xF15 JUMP JUMPDEST PUSH2 0x1476 DUP3 DUP3 DUP6 PUSH2 0x13B6 JUMP JUMPDEST PUSH0 PUSH1 0x20 SWAP1 POP PUSH1 0x1F DUP4 GT PUSH1 0x1 DUP2 EQ PUSH2 0x14A7 JUMPI PUSH0 DUP5 ISZERO PUSH2 0x1495 JUMPI DUP3 DUP8 ADD MLOAD SWAP1 POP JUMPDEST PUSH2 0x149F DUP6 DUP3 PUSH2 0x1424 JUMP JUMPDEST DUP7 SSTORE POP PUSH2 0x1506 JUMP JUMPDEST PUSH1 0x1F NOT DUP5 AND PUSH2 0x14B5 DUP7 PUSH2 0x12A8 JUMP JUMPDEST PUSH0 JUMPDEST DUP3 DUP2 LT ISZERO PUSH2 0x14DC JUMPI DUP5 DUP10 ADD MLOAD DUP3 SSTORE PUSH1 0x1 DUP3 ADD SWAP2 POP PUSH1 0x20 DUP6 ADD SWAP5 POP PUSH1 0x20 DUP2 ADD SWAP1 POP PUSH2 0x14B7 JUMP JUMPDEST DUP7 DUP4 LT ISZERO PUSH2 0x14F9 JUMPI DUP5 DUP10 ADD MLOAD PUSH2 0x14F5 PUSH1 0x1F DUP10 AND DUP3 PUSH2 0x1408 JUMP JUMPDEST DUP4 SSTORE POP JUMPDEST PUSH1 0x1 PUSH1 0x2 DUP9 MUL ADD DUP9 SSTORE POP POP POP JUMPDEST POP POP POP POP POP POP JUMP JUMPDEST PUSH0 PUSH1 0x20 DUP3 ADD SWAP1 POP DUP2 DUP2 SUB PUSH0 DUP4 ADD MSTORE PUSH2 0x1526 DUP2 DUP5 PUSH2 0xBAB JUMP JUMPDEST SWAP1 POP SWAP3 SWAP2 POP POP JUMP JUMPDEST PUSH32 0x566F74696E67206973206E6F7420616374697665000000000000000000000000 PUSH0 DUP3 ADD MSTORE POP JUMP JUMPDEST PUSH0 PUSH2 0x1562 PUSH1 0x14 DUP4 PUSH2 0xB7D JUMP JUMPDEST SWAP2 POP PUSH2 0x156D DUP3 PUSH2 0x152E JUMP JUMPDEST PUSH1 0x20 DUP3 ADD SWAP1 POP SWAP2 SWAP1 POP JUMP JUMPDEST PUSH0 PUSH1 0x20 DUP3 ADD SWAP1 POP DUP2 DUP2 SUB PUSH0 DUP4 ADD MSTORE PUSH2 0x158F DUP2 PUSH2 0x1556 JUMP JUMPDEST SWAP1 POP SWAP2 SWAP1 POP JUMP JUMPDEST PUSH32 0x416C726561647920766F74656400000000000000000000000000000000000000 PUSH0 DUP3 ADD MSTORE POP JUMP JUMPDEST PUSH0 PUSH2 0x15CA PUSH1 0xD DUP4 PUSH2 0xB7D JUMP JUMPDEST SWAP2 POP PUSH2 0x15D5 DUP3 PUSH2 0x1596 JUMP JUMPDEST PUSH1 0x20 DUP3 ADD SWAP1 POP SWAP2 SWAP1 POP JUMP JUMPDEST PUSH0 PUSH1 0x20 DUP3 ADD SWAP1 POP DUP2 DUP2 SUB PUSH0 DUP4 ADD MSTORE PUSH2 0x15F7 DUP2 PUSH2 0x15BE JUMP JUMPDEST SWAP1 POP SWAP2 SWAP1 POP JUMP JUMPDEST PUSH32 0x4D75737420686F6C6420676F7665726E616E636520746F6B656E7320746F2076 PUSH0 DUP3 ADD MSTORE PUSH32 0x6F74650000000000000000000000000000000000000000000000000000000000 PUSH1 0x20 DUP3 ADD MSTORE POP JUMP JUMPDEST PUSH0 PUSH2 0x1658 PUSH1 0x23 DUP4 PUSH2 0xB7D JUMP JUMPDEST SWAP2 POP PUSH2 0x1663 DUP3 PUSH2 0x15FE JUMP JUMPDEST PUSH1 0x40 DUP3 ADD SWAP1 POP SWAP2 SWAP1 POP JUMP JUMPDEST PUSH0 PUSH1 0x20 DUP3 ADD SWAP1 POP DUP2 DUP2 SUB PUSH0 DUP4 ADD MSTORE PUSH2 0x1685 DUP2 PUSH2 0x164C JUMP JUMPDEST SWAP1 POP SWAP2 SWAP1 POP JUMP JUMPDEST PUSH0 PUSH1 0x40 DUP3 ADD SWAP1 POP PUSH2 0x169F PUSH0 DUP4 ADD DUP6 PUSH2 0xBEE JUMP JUMPDEST PUSH2 0x16AC PUSH1 0x20 DUP4 ADD DUP5 PUSH2 0xB25 JUMP JUMPDEST SWAP4 SWAP3 POP POP POP JUMP INVALID LOG2 PUSH5 0x6970667358 0x22 SLT KECCAK256 PUSH32 0x386579FE0BEB624612BCA44D256753CB711165A01955F536C0F4412473D79B64 PUSH20 0x6F6C634300081C00330000000000000000000000 "
				},
				"gasEstimates": {
					"creation": {
						"codeDepositCost": "1173000",
						"executionCost": "infinite",
						"totalCost": "infinite"
					},
					"external": {
						"createProposal(string)": "infinite",
						"executeProposal(uint256)": "infinite",
						"getProposalDetails(uint256)": "infinite",
						"governanceToken()": "infinite",
						"proposalCount()": "2491",
						"proposals(uint256)": "infinite",
						"quorumPercentage()": "2447",
						"vote(uint256,bool)": "infinite",
						"votingPeriod()": "2448"
					}
				},
				"methodIdentifiers": {
					"createProposal(string)": "49c2a1a6",
					"executeProposal(uint256)": "0d61b519",
					"getProposalDetails(uint256)": "3b4d01a7",
					"governanceToken()": "f96dae0a",
					"proposalCount()": "da35c664",
					"proposals(uint256)": "013cf08b",
					"quorumPercentage()": "4fa76ec9",
					"vote(uint256,bool)": "c9d27afe",
					"votingPeriod()": "02a251a3"
				}
			},
			"storageLayout": {
				"storage": [
					{
						"astId": 104,
						"contract": "contracts/Governance.sol:Governance",
						"label": "governanceToken",
						"offset": 0,
						"slot": "0",
						"type": "t_contract(IERC20)77"
					},
					{
						"astId": 106,
						"contract": "contracts/Governance.sol:Governance",
						"label": "proposalCount",
						"offset": 0,
						"slot": "1",
						"type": "t_uint256"
					},
					{
						"astId": 108,
						"contract": "contracts/Governance.sol:Governance",
						"label": "votingPeriod",
						"offset": 0,
						"slot": "2",
						"type": "t_uint256"
					},
					{
						"astId": 110,
						"contract": "contracts/Governance.sol:Governance",
						"label": "quorumPercentage",
						"offset": 0,
						"slot": "3",
						"type": "t_uint256"
					},
					{
						"astId": 115,
						"contract": "contracts/Governance.sol:Governance",
						"label": "proposals",
						"offset": 0,
						"slot": "4",
						"type": "t_mapping(t_uint256,t_struct(Proposal)101_storage)"
					}
				],
				"types": {
					"t_address": {
						"encoding": "inplace",
						"label": "address",
						"numberOfBytes": "20"
					},
					"t_bool": {
						"encoding": "inplace",
						"label": "bool",
						"numberOfBytes": "1"
					},
					"t_contract(IERC20)77": {
						"encoding": "inplace",
						"label": "contract IERC20",
						"numberOfBytes": "20"
					},
					"t_mapping(t_address,t_bool)": {
						"encoding": "mapping",
						"key": "t_address",
						"label": "mapping(address => bool)",
						"numberOfBytes": "32",
						"value": "t_bool"
					},
					"t_mapping(t_uint256,t_struct(Proposal)101_storage)": {
						"encoding": "mapping",
						"key": "t_uint256",
						"label": "mapping(uint256 => struct Governance.Proposal)",
						"numberOfBytes": "32",
						"value": "t_struct(Proposal)101_storage"
					},
					"t_string_storage": {
						"encoding": "bytes",
						"label": "string",
						"numberOfBytes": "32"
					},
					"t_struct(Proposal)101_storage": {
						"encoding": "inplace",
						"label": "struct Governance.Proposal",
						"members": [
							{
								"astId": 82,
								"contract": "contracts/Governance.sol:Governance",
								"label": "id",
								"offset": 0,
								"slot": "0",
								"type": "t_uint256"
							},
							{
								"astId": 84,
								"contract": "contracts/Governance.sol:Governance",
								"label": "proposer",
								"offset": 0,
								"slot": "1",
								"type": "t_address"
							},
							{
								"astId": 86,
								"contract": "contracts/Governance.sol:Governance",
								"label": "description",
								"offset": 0,
								"slot": "2",
								"type": "t_string_storage"
							},
							{
								"astId": 88,
								"contract": "contracts/Governance.sol:Governance",
								"label": "forVotes",
								"offset": 0,
								"slot": "3",
								"type": "t_uint256"
							},
							{
								"astId": 90,
								"contract": "contracts/Governance.sol:Governance",
								"label": "againstVotes",
								"offset": 0,
								"slot": "4",
								"type": "t_uint256"
							},
							{
								"astId": 92,
								"contract": "contracts/Governance.sol:Governance",
								"label": "startTime",
								"offset": 0,
								"slot": "5",
								"type": "t_uint256"
							},
							{
								"astId": 94,
								"contract": "contracts/Governance.sol:Governance",
								"label": "endTime",
								"offset": 0,
								"slot": "6",
								"type": "t_uint256"
							},
							{
								"astId": 96,
								"contract": "contracts/Governance.sol:Governance",
								"label": "executed",
								"offset": 0,
								"slot": "7",
								"type": "t_bool"
							},
							{
								"astId": 100,
								"contract": "contracts/Governance.sol:Governance",
								"label": "hasVoted",
								"offset": 0,
								"slot": "8",
								"type": "t_mapping(t_address,t_bool)"
							}
						],
						"numberOfBytes": "288"
					},
					"t_uint256": {
						"encoding": "inplace",
						"label": "uint256",
						"numberOfBytes": "32"
					}
				}
			},
			"userdoc": {
				"kind": "user",
				"methods": {},
				"version": 1
			}
		}
	}
}