{
	"contracts/SaveEther.sol": {
		"SaveEther": {
			"abi": [
				{
					"inputs": [],
					"stateMutability": "nonpayable",
					"type": "constructor"
				},
				{
					"anonymous": false,
					"inputs": [
						{
							"indexed": true,
							"internalType": "address",
							"name": "user",
							"type": "address"
						},
						{
							"indexed": false,
							"internalType": "uint256",
							"name": "amount",
							"type": "uint256"
						}
					],
					"name": "Transfer",
					"type": "event"
				},
				{
					"inputs": [
						{
							"internalType": "uint256",
							"name": "_duration",
							"type": "uint256"
						}
					],
					"name": "depositEther",
					"outputs": [],
					"stateMutability": "payable",
					"type": "function"
				},
				{
					"inputs": [],
					"name": "getContractBalance",
					"outputs": [
						{
							"internalType": "uint256",
							"name": "",
							"type": "uint256"
						}
					],
					"stateMutability": "view",
					"type": "function"
				},
				{
					"inputs": [],
					"name": "getDeopositInfo",
					"outputs": [
						{
							"internalType": "uint256",
							"name": "",
							"type": "uint256"
						},
						{
							"internalType": "uint256",
							"name": "",
							"type": "uint256"
						}
					],
					"stateMutability": "view",
					"type": "function"
				},
				{
					"inputs": [],
					"name": "owner",
					"outputs": [
						{
							"internalType": "address",
							"name": "",
							"type": "address"
						}
					],
					"stateMutability": "view",
					"type": "function"
				},
				{
					"inputs": [],
					"name": "withdrawEther",
					"outputs": [],
					"stateMutability": "payable",
					"type": "function"
				}
			],
			"devdoc": {
				"kind": "dev",
				"methods": {},
				"version": 1
			},
			"evm": {
				"assembly": "    /* \"contracts/SaveEther.sol\":61:2521  contract SaveEther{... */\n  mstore(0x40, 0x80)\n    /* \"contracts/SaveEther.sol\":258:308  constructor(){... */\n  callvalue\n  dup1\n  iszero\n  tag_1\n  jumpi\n  revert(0x00, 0x00)\ntag_1:\n  pop\n    /* \"contracts/SaveEther.sol\":290:300  msg.sender */\n  caller\n    /* \"contracts/SaveEther.sol\":282:287  owner */\n  0x00\n  0x00\n    /* \"contracts/SaveEther.sol\":282:300  owner = msg.sender */\n  0x0100\n  exp\n  dup2\n  sload\n  dup2\n  0xffffffffffffffffffffffffffffffffffffffff\n  mul\n  not\n  and\n  swap1\n  dup4\n  0xffffffffffffffffffffffffffffffffffffffff\n  and\n  mul\n  or\n  swap1\n  sstore\n  pop\n    /* \"contracts/SaveEther.sol\":61:2521  contract SaveEther{... */\n  dataSize(sub_0)\n  dup1\n  dataOffset(sub_0)\n  0x00\n  codecopy\n  0x00\n  return\nstop\n\nsub_0: assembly {\n        /* \"contracts/SaveEther.sol\":61:2521  contract SaveEther{... */\n      mstore(0x40, 0x80)\n      jumpi(tag_1, lt(calldatasize, 0x04))\n      shr(0xe0, calldataload(0x00))\n      dup1\n      0x26839f17\n      eq\n      tag_2\n      jumpi\n      dup1\n      0x6f9fb98a\n      eq\n      tag_3\n      jumpi\n      dup1\n      0x7362377b\n      eq\n      tag_4\n      jumpi\n      dup1\n      0x8da5cb5b\n      eq\n      tag_5\n      jumpi\n      dup1\n      0xdeab4e40\n      eq\n      tag_6\n      jumpi\n    tag_1:\n      revert(0x00, 0x00)\n        /* \"contracts/SaveEther.sol\":485:871  function depositEther(uint256 _duration) public payable {... */\n    tag_2:\n      tag_7\n      0x04\n      dup1\n      calldatasize\n      sub\n      dup2\n      add\n      swap1\n      tag_8\n      swap2\n      swap1\n      tag_9\n      jump\t// in\n    tag_8:\n      tag_10\n      jump\t// in\n    tag_7:\n      stop\n        /* \"contracts/SaveEther.sol\":2192:2320  function getContractBalance() public view returns (uint256){... */\n    tag_3:\n      callvalue\n      dup1\n      iszero\n      tag_11\n      jumpi\n      revert(0x00, 0x00)\n    tag_11:\n      pop\n      tag_12\n      tag_13\n      jump\t// in\n    tag_12:\n      mload(0x40)\n      tag_14\n      swap2\n      swap1\n      tag_15\n      jump\t// in\n    tag_14:\n      mload(0x40)\n      dup1\n      swap2\n      sub\n      swap1\n      return\n        /* \"contracts/SaveEther.sol\":1257:1825  function withdrawEther() public payable  {... */\n    tag_4:\n      tag_16\n      tag_17\n      jump\t// in\n    tag_16:\n      stop\n        /* \"contracts/SaveEther.sol\":88:108  address public owner */\n    tag_5:\n      callvalue\n      dup1\n      iszero\n      tag_18\n      jumpi\n      revert(0x00, 0x00)\n    tag_18:\n      pop\n      tag_19\n      tag_20\n      jump\t// in\n    tag_19:\n      mload(0x40)\n      tag_21\n      swap2\n      swap1\n      tag_22\n      jump\t// in\n    tag_21:\n      mload(0x40)\n      dup1\n      swap2\n      sub\n      swap1\n      return\n        /* \"contracts/SaveEther.sol\":2328:2518  function getDeopositInfo() public view returns (uint256, uint256){... */\n    tag_6:\n      callvalue\n      dup1\n      iszero\n      tag_23\n      jumpi\n      revert(0x00, 0x00)\n    tag_23:\n      pop\n      tag_24\n      tag_25\n      jump\t// in\n    tag_24:\n      mload(0x40)\n      tag_26\n      swap3\n      swap2\n      swap1\n      tag_27\n      jump\t// in\n    tag_26:\n      mload(0x40)\n      dup1\n      swap2\n      sub\n      swap1\n      return\n        /* \"contracts/SaveEther.sol\":485:871  function depositEther(uint256 _duration) public payable {... */\n    tag_10:\n        /* \"contracts/SaveEther.sol\":582:583  0 */\n      0x00\n        /* \"contracts/SaveEther.sol\":560:584  msg.sender != address(0) */\n      0xffffffffffffffffffffffffffffffffffffffff\n      and\n        /* \"contracts/SaveEther.sol\":560:570  msg.sender */\n      caller\n        /* \"contracts/SaveEther.sol\":560:584  msg.sender != address(0) */\n      0xffffffffffffffffffffffffffffffffffffffff\n      and\n      sub\n        /* \"contracts/SaveEther.sol\":552:602  require(msg.sender != address(0), \"Not permitted\") */\n      tag_29\n      jumpi\n      mload(0x40)\n      0x08c379a000000000000000000000000000000000000000000000000000000000\n      dup2\n      mstore\n      0x04\n      add\n      tag_30\n      swap1\n      tag_31\n      jump\t// in\n    tag_30:\n      mload(0x40)\n      dup1\n      swap2\n      sub\n      swap1\n      revert\n    tag_29:\n        /* \"contracts/SaveEther.sol\":634:641  1 ether */\n      0x0de0b6b3a7640000\n        /* \"contracts/SaveEther.sol\":621:630  msg.value */\n      callvalue\n        /* \"contracts/SaveEther.sol\":621:641  msg.value >= 1 ether */\n      lt\n      iszero\n        /* \"contracts/SaveEther.sol\":613:665  require(msg.value >= 1 ether, \"Amount is too small\") */\n      tag_32\n      jumpi\n      mload(0x40)\n      0x08c379a000000000000000000000000000000000000000000000000000000000\n      dup2\n      mstore\n      0x04\n      add\n      tag_33\n      swap1\n      tag_34\n      jump\t// in\n    tag_33:\n      mload(0x40)\n      dup1\n      swap2\n      sub\n      swap1\n      revert\n    tag_32:\n        /* \"contracts/SaveEther.sol\":678:705  UserAccount memory useracct */\n      tag_35\n      tag_36\n      jump\t// in\n    tag_35:\n        /* \"contracts/SaveEther.sol\":752:761  msg.value */\n      callvalue\n        /* \"contracts/SaveEther.sol\":734:742  useracct */\n      dup2\n        /* \"contracts/SaveEther.sol\":734:749  useracct.amount */\n      0x00\n      add\n      mload\n        /* \"contracts/SaveEther.sol\":734:761  useracct.amount + msg.value */\n      tag_37\n      swap2\n      swap1\n      tag_38\n      jump\t// in\n    tag_37:\n        /* \"contracts/SaveEther.sol\":716:724  useracct */\n      dup2\n        /* \"contracts/SaveEther.sol\":716:731  useracct.amount */\n      0x00\n      add\n        /* \"contracts/SaveEther.sol\":716:761  useracct.amount = useracct.amount + msg.value */\n      dup2\n      dup2\n      mstore\n      pop\n      pop\n        /* \"contracts/SaveEther.sol\":810:819  _duration */\n      dup2\n        /* \"contracts/SaveEther.sol\":792:807  block.timestamp */\n      timestamp\n        /* \"contracts/SaveEther.sol\":792:819  block.timestamp + _duration */\n      tag_39\n      swap2\n      swap1\n      tag_38\n      jump\t// in\n    tag_39:\n        /* \"contracts/SaveEther.sol\":772:780  useracct */\n      dup2\n        /* \"contracts/SaveEther.sol\":772:789  useracct.duration */\n      0x20\n      add\n        /* \"contracts/SaveEther.sol\":772:819  useracct.duration = block.timestamp + _duration */\n      dup2\n      dup2\n      mstore\n      pop\n      pop\n        /* \"contracts/SaveEther.sol\":855:863  useracct */\n      dup1\n        /* \"contracts/SaveEther.sol\":832:840  userInfo */\n      0x01\n        /* \"contracts/SaveEther.sol\":832:852  userInfo[msg.sender] */\n      0x00\n        /* \"contracts/SaveEther.sol\":841:851  msg.sender */\n      caller\n        /* \"contracts/SaveEther.sol\":832:852  userInfo[msg.sender] */\n      0xffffffffffffffffffffffffffffffffffffffff\n      and\n      0xffffffffffffffffffffffffffffffffffffffff\n      and\n      dup2\n      mstore\n      0x20\n      add\n      swap1\n      dup2\n      mstore\n      0x20\n      add\n      0x00\n      keccak256\n        /* \"contracts/SaveEther.sol\":832:863  userInfo[msg.sender] = useracct */\n      0x00\n      dup3\n      add\n      mload\n      dup2\n      0x00\n      add\n      sstore\n      0x20\n      dup3\n      add\n      mload\n      dup2\n      0x01\n      add\n      sstore\n      swap1\n      pop\n      pop\n        /* \"contracts/SaveEther.sol\":541:871  {... */\n      pop\n        /* \"contracts/SaveEther.sol\":485:871  function depositEther(uint256 _duration) public payable {... */\n      pop\n      jump\t// out\n        /* \"contracts/SaveEther.sol\":2192:2320  function getContractBalance() public view returns (uint256){... */\n    tag_13:\n        /* \"contracts/SaveEther.sol\":2243:2250  uint256 */\n      0x00\n        /* \"contracts/SaveEther.sol\":2262:2273  onlyOwner() */\n      tag_41\n        /* \"contracts/SaveEther.sol\":2262:2271  onlyOwner */\n      tag_42\n        /* \"contracts/SaveEther.sol\":2262:2273  onlyOwner() */\n      jump\t// in\n    tag_41:\n        /* \"contracts/SaveEther.sol\":2291:2312  address(this).balance */\n      selfbalance\n        /* \"contracts/SaveEther.sol\":2284:2312  return address(this).balance */\n      swap1\n      pop\n        /* \"contracts/SaveEther.sol\":2192:2320  function getContractBalance() public view returns (uint256){... */\n      swap1\n      jump\t// out\n        /* \"contracts/SaveEther.sol\":1257:1825  function withdrawEther() public payable  {... */\n    tag_17:\n        /* \"contracts/SaveEther.sol\":1339:1340  0 */\n      0x00\n        /* \"contracts/SaveEther.sol\":1317:1341  msg.sender != address(0) */\n      0xffffffffffffffffffffffffffffffffffffffff\n      and\n        /* \"contracts/SaveEther.sol\":1317:1327  msg.sender */\n      caller\n        /* \"contracts/SaveEther.sol\":1317:1341  msg.sender != address(0) */\n      0xffffffffffffffffffffffffffffffffffffffff\n      and\n      sub\n        /* \"contracts/SaveEther.sol\":1309:1358  require(msg.sender != address(0),\"Not permitted\") */\n      tag_44\n      jumpi\n      mload(0x40)\n      0x08c379a000000000000000000000000000000000000000000000000000000000\n      dup2\n      mstore\n      0x04\n      add\n      tag_45\n      swap1\n      tag_31\n      jump\t// in\n    tag_45:\n      mload(0x40)\n      dup1\n      swap2\n      sub\n      swap1\n      revert\n    tag_44:\n        /* \"contracts/SaveEther.sol\":1371:1399  UserAccount storage useracct */\n      0x00\n        /* \"contracts/SaveEther.sol\":1402:1410  userInfo */\n      0x01\n        /* \"contracts/SaveEther.sol\":1402:1422  userInfo[msg.sender] */\n      0x00\n        /* \"contracts/SaveEther.sol\":1411:1421  msg.sender */\n      caller\n        /* \"contracts/SaveEther.sol\":1402:1422  userInfo[msg.sender] */\n      0xffffffffffffffffffffffffffffffffffffffff\n      and\n      0xffffffffffffffffffffffffffffffffffffffff\n      and\n      dup2\n      mstore\n      0x20\n      add\n      swap1\n      dup2\n      mstore\n      0x20\n      add\n      0x00\n      keccak256\n        /* \"contracts/SaveEther.sol\":1371:1422  UserAccount storage useracct = userInfo[msg.sender] */\n      swap1\n      pop\n        /* \"contracts/SaveEther.sol\":1462:1469  1 ether */\n      0x0de0b6b3a7640000\n        /* \"contracts/SaveEther.sol\":1443:1451  useracct */\n      dup2\n        /* \"contracts/SaveEther.sol\":1443:1458  useracct.amount */\n      0x00\n      add\n      sload\n        /* \"contracts/SaveEther.sol\":1443:1469  useracct.amount >= 1 ether */\n      lt\n      iszero\n        /* \"contracts/SaveEther.sol\":1435:1495  require(useracct.amount >= 1 ether, \"Balance is not enough\") */\n      tag_46\n      jumpi\n      mload(0x40)\n      0x08c379a000000000000000000000000000000000000000000000000000000000\n      dup2\n      mstore\n      0x04\n      add\n      tag_47\n      swap1\n      tag_48\n      jump\t// in\n    tag_47:\n      mload(0x40)\n      dup1\n      swap2\n      sub\n      swap1\n      revert\n    tag_46:\n        /* \"contracts/SaveEther.sol\":1532:1540  useracct */\n      dup1\n        /* \"contracts/SaveEther.sol\":1532:1549  useracct.duration */\n      0x01\n      add\n      sload\n        /* \"contracts/SaveEther.sol\":1514:1529  block.timestamp */\n      timestamp\n        /* \"contracts/SaveEther.sol\":1514:1549  block.timestamp > useracct.duration */\n      gt\n        /* \"contracts/SaveEther.sol\":1506:1565  require(block.timestamp > useracct.duration, \"Not yet due\") */\n      tag_49\n      jumpi\n      mload(0x40)\n      0x08c379a000000000000000000000000000000000000000000000000000000000\n      dup2\n      mstore\n      0x04\n      add\n      tag_50\n      swap1\n      tag_51\n      jump\t// in\n    tag_50:\n      mload(0x40)\n      dup1\n      swap2\n      sub\n      swap1\n      revert\n    tag_49:\n        /* \"contracts/SaveEther.sol\":1578:1589  uint256 bal */\n      0x00\n        /* \"contracts/SaveEther.sol\":1592:1600  useracct */\n      dup2\n        /* \"contracts/SaveEther.sol\":1592:1607  useracct.amount */\n      0x00\n      add\n      sload\n        /* \"contracts/SaveEther.sol\":1578:1607  uint256 bal = useracct.amount */\n      swap1\n      pop\n        /* \"contracts/SaveEther.sol\":1638:1639  0 */\n      0x00\n        /* \"contracts/SaveEther.sol\":1620:1628  useracct */\n      dup3\n        /* \"contracts/SaveEther.sol\":1620:1635  useracct.amount */\n      0x00\n      add\n        /* \"contracts/SaveEther.sol\":1620:1639  useracct.amount = 0 */\n      dup2\n      swap1\n      sstore\n      pop\n        /* \"contracts/SaveEther.sol\":1670:1671  0 */\n      0x00\n        /* \"contracts/SaveEther.sol\":1650:1658  useracct */\n      dup3\n        /* \"contracts/SaveEther.sol\":1650:1667  useracct.duration */\n      0x01\n      add\n        /* \"contracts/SaveEther.sol\":1650:1671  useracct.duration = 0 */\n      dup2\n      swap1\n      sstore\n      pop\n        /* \"contracts/SaveEther.sol\":1685:1694  bool sent */\n      0x00\n        /* \"contracts/SaveEther.sol\":1708:1718  msg.sender */\n      caller\n        /* \"contracts/SaveEther.sol\":1700:1724  payable(msg.sender).call */\n      0xffffffffffffffffffffffffffffffffffffffff\n      and\n        /* \"contracts/SaveEther.sol\":1732:1735  bal */\n      dup3\n        /* \"contracts/SaveEther.sol\":1700:1740  payable(msg.sender).call{value: bal}(\"\") */\n      mload(0x40)\n      tag_52\n      swap1\n      tag_53\n      jump\t// in\n    tag_52:\n      0x00\n      mload(0x40)\n      dup1\n      dup4\n      sub\n      dup2\n      dup6\n      dup8\n      gas\n      call\n      swap3\n      pop\n      pop\n      pop\n      returndatasize\n      dup1\n      0x00\n      dup2\n      eq\n      tag_56\n      jumpi\n      mload(0x40)\n      swap2\n      pop\n      and(add(returndatasize, 0x3f), not(0x1f))\n      dup3\n      add\n      0x40\n      mstore\n      returndatasize\n      dup3\n      mstore\n      returndatasize\n      0x00\n      0x20\n      dup5\n      add\n      returndatacopy\n      jump(tag_55)\n    tag_56:\n      0x60\n      swap2\n      pop\n    tag_55:\n      pop\n        /* \"contracts/SaveEther.sol\":1684:1740  (bool sent, ) = payable(msg.sender).call{value: bal}(\"\") */\n      pop\n      swap1\n      pop\n        /* \"contracts/SaveEther.sol\":1756:1760  sent */\n      dup1\n        /* \"contracts/SaveEther.sol\":1753:1818  if(sent){... */\n      iszero\n      tag_57\n      jumpi\n        /* \"contracts/SaveEther.sol\":1790:1800  msg.sender */\n      caller\n        /* \"contracts/SaveEther.sol\":1781:1806  Transfer(msg.sender, bal) */\n      0xffffffffffffffffffffffffffffffffffffffff\n      and\n      0x69ca02dd4edd7bf0a4abb9ed3b7af3f14778db5d61921c7dc7cd545266326de2\n        /* \"contracts/SaveEther.sol\":1802:1805  bal */\n      dup4\n        /* \"contracts/SaveEther.sol\":1781:1806  Transfer(msg.sender, bal) */\n      mload(0x40)\n      tag_58\n      swap2\n      swap1\n      tag_15\n      jump\t// in\n    tag_58:\n      mload(0x40)\n      dup1\n      swap2\n      sub\n      swap1\n      log2\n        /* \"contracts/SaveEther.sol\":1753:1818  if(sent){... */\n    tag_57:\n        /* \"contracts/SaveEther.sol\":1298:1825  {... */\n      pop\n      pop\n      pop\n        /* \"contracts/SaveEther.sol\":1257:1825  function withdrawEther() public payable  {... */\n      jump\t// out\n        /* \"contracts/SaveEther.sol\":88:108  address public owner */\n    tag_20:\n      0x00\n      0x00\n      swap1\n      sload\n      swap1\n      0x0100\n      exp\n      swap1\n      div\n      0xffffffffffffffffffffffffffffffffffffffff\n      and\n      dup2\n      jump\t// out\n        /* \"contracts/SaveEther.sol\":2328:2518  function getDeopositInfo() public view returns (uint256, uint256){... */\n    tag_25:\n        /* \"contracts/SaveEther.sol\":2376:2383  uint256 */\n      0x00\n        /* \"contracts/SaveEther.sol\":2385:2392  uint256 */\n      0x00\n        /* \"contracts/SaveEther.sol\":2404:2432  UserAccount storage userAcct */\n      0x00\n        /* \"contracts/SaveEther.sol\":2435:2443  userInfo */\n      0x01\n        /* \"contracts/SaveEther.sol\":2435:2455  userInfo[msg.sender] */\n      0x00\n        /* \"contracts/SaveEther.sol\":2444:2454  msg.sender */\n      caller\n        /* \"contracts/SaveEther.sol\":2435:2455  userInfo[msg.sender] */\n      0xffffffffffffffffffffffffffffffffffffffff\n      and\n      0xffffffffffffffffffffffffffffffffffffffff\n      and\n      dup2\n      mstore\n      0x20\n      add\n      swap1\n      dup2\n      mstore\n      0x20\n      add\n      0x00\n      keccak256\n        /* \"contracts/SaveEther.sol\":2404:2455  UserAccount storage userAcct = userInfo[msg.sender] */\n      swap1\n      pop\n        /* \"contracts/SaveEther.sol\":2475:2483  userAcct */\n      dup1\n        /* \"contracts/SaveEther.sol\":2475:2490  userAcct.amount */\n      0x00\n      add\n      sload\n        /* \"contracts/SaveEther.sol\":2492:2500  userAcct */\n      dup2\n        /* \"contracts/SaveEther.sol\":2492:2509  userAcct.duration */\n      0x01\n      add\n      sload\n        /* \"contracts/SaveEther.sol\":2468:2510  return(userAcct.amount, userAcct.duration) */\n      swap3\n      pop\n      swap3\n      pop\n      pop\n        /* \"contracts/SaveEther.sol\":2328:2518  function getDeopositInfo() public view returns (uint256, uint256){... */\n      swap1\n      swap2\n      jump\t// out\n        /* \"contracts/SaveEther.sol\":377:477  function onlyOwner() private view{... */\n    tag_42:\n        /* \"contracts/SaveEther.sol\":443:448  owner */\n      0x00\n      0x00\n      swap1\n      sload\n      swap1\n      0x0100\n      exp\n      swap1\n      div\n      0xffffffffffffffffffffffffffffffffffffffff\n      and\n        /* \"contracts/SaveEther.sol\":429:448  msg.sender == owner */\n      0xffffffffffffffffffffffffffffffffffffffff\n      and\n        /* \"contracts/SaveEther.sol\":429:439  msg.sender */\n      caller\n        /* \"contracts/SaveEther.sol\":429:448  msg.sender == owner */\n      0xffffffffffffffffffffffffffffffffffffffff\n      and\n      eq\n        /* \"contracts/SaveEther.sol\":421:469  require(msg.sender == owner, \"User not allowed\") */\n      tag_61\n      jumpi\n      mload(0x40)\n      0x08c379a000000000000000000000000000000000000000000000000000000000\n      dup2\n      mstore\n      0x04\n      add\n      tag_62\n      swap1\n      tag_63\n      jump\t// in\n    tag_62:\n      mload(0x40)\n      dup1\n      swap2\n      sub\n      swap1\n      revert\n    tag_61:\n        /* \"contracts/SaveEther.sol\":377:477  function onlyOwner() private view{... */\n      jump\t// out\n    tag_36:\n      mload(0x40)\n      dup1\n      0x40\n      add\n      0x40\n      mstore\n      dup1\n      0x00\n      dup2\n      mstore\n      0x20\n      add\n      0x00\n      dup2\n      mstore\n      pop\n      swap1\n      jump\t// out\n        /* \"#utility.yul\":88:205   */\n    tag_65:\n        /* \"#utility.yul\":197:198   */\n      0x00\n        /* \"#utility.yul\":194:195   */\n      0x00\n        /* \"#utility.yul\":187:199   */\n      revert\n        /* \"#utility.yul\":334:411   */\n    tag_67:\n        /* \"#utility.yul\":371:378   */\n      0x00\n        /* \"#utility.yul\":400:405   */\n      dup2\n        /* \"#utility.yul\":389:405   */\n      swap1\n      pop\n        /* \"#utility.yul\":334:411   */\n      swap2\n      swap1\n      pop\n      jump\t// out\n        /* \"#utility.yul\":417:539   */\n    tag_68:\n        /* \"#utility.yul\":490:514   */\n      tag_95\n        /* \"#utility.yul\":508:513   */\n      dup2\n        /* \"#utility.yul\":490:514   */\n      tag_67\n      jump\t// in\n    tag_95:\n        /* \"#utility.yul\":483:488   */\n      dup2\n        /* \"#utility.yul\":480:515   */\n      eq\n        /* \"#utility.yul\":470:533   */\n      tag_96\n      jumpi\n        /* \"#utility.yul\":529:530   */\n      0x00\n        /* \"#utility.yul\":526:527   */\n      0x00\n        /* \"#utility.yul\":519:531   */\n      revert\n        /* \"#utility.yul\":470:533   */\n    tag_96:\n        /* \"#utility.yul\":417:539   */\n      pop\n      jump\t// out\n        /* \"#utility.yul\":545:684   */\n    tag_69:\n        /* \"#utility.yul\":591:596   */\n      0x00\n        /* \"#utility.yul\":629:635   */\n      dup2\n        /* \"#utility.yul\":616:636   */\n      calldataload\n        /* \"#utility.yul\":607:636   */\n      swap1\n      pop\n        /* \"#utility.yul\":645:678   */\n      tag_98\n        /* \"#utility.yul\":672:677   */\n      dup2\n        /* \"#utility.yul\":645:678   */\n      tag_68\n      jump\t// in\n    tag_98:\n        /* \"#utility.yul\":545:684   */\n      swap3\n      swap2\n      pop\n      pop\n      jump\t// out\n        /* \"#utility.yul\":690:1019   */\n    tag_9:\n        /* \"#utility.yul\":749:755   */\n      0x00\n        /* \"#utility.yul\":798:800   */\n      0x20\n        /* \"#utility.yul\":786:795   */\n      dup3\n        /* \"#utility.yul\":777:784   */\n      dup5\n        /* \"#utility.yul\":773:796   */\n      sub\n        /* \"#utility.yul\":769:801   */\n      slt\n        /* \"#utility.yul\":766:885   */\n      iszero\n      tag_100\n      jumpi\n        /* \"#utility.yul\":804:883   */\n      tag_101\n      tag_65\n      jump\t// in\n    tag_101:\n        /* \"#utility.yul\":766:885   */\n    tag_100:\n        /* \"#utility.yul\":924:925   */\n      0x00\n        /* \"#utility.yul\":949:1002   */\n      tag_102\n        /* \"#utility.yul\":994:1001   */\n      dup5\n        /* \"#utility.yul\":985:991   */\n      dup3\n        /* \"#utility.yul\":974:983   */\n      dup6\n        /* \"#utility.yul\":970:992   */\n      add\n        /* \"#utility.yul\":949:1002   */\n      tag_69\n      jump\t// in\n    tag_102:\n        /* \"#utility.yul\":939:1002   */\n      swap2\n      pop\n        /* \"#utility.yul\":895:1012   */\n      pop\n        /* \"#utility.yul\":690:1019   */\n      swap3\n      swap2\n      pop\n      pop\n      jump\t// out\n        /* \"#utility.yul\":1025:1143   */\n    tag_70:\n        /* \"#utility.yul\":1112:1136   */\n      tag_104\n        /* \"#utility.yul\":1130:1135   */\n      dup2\n        /* \"#utility.yul\":1112:1136   */\n      tag_67\n      jump\t// in\n    tag_104:\n        /* \"#utility.yul\":1107:1110   */\n      dup3\n        /* \"#utility.yul\":1100:1137   */\n      mstore\n        /* \"#utility.yul\":1025:1143   */\n      pop\n      pop\n      jump\t// out\n        /* \"#utility.yul\":1149:1371   */\n    tag_15:\n        /* \"#utility.yul\":1242:1246   */\n      0x00\n        /* \"#utility.yul\":1280:1282   */\n      0x20\n        /* \"#utility.yul\":1269:1278   */\n      dup3\n        /* \"#utility.yul\":1265:1283   */\n      add\n        /* \"#utility.yul\":1257:1283   */\n      swap1\n      pop\n        /* \"#utility.yul\":1293:1364   */\n      tag_106\n        /* \"#utility.yul\":1361:1362   */\n      0x00\n        /* \"#utility.yul\":1350:1359   */\n      dup4\n        /* \"#utility.yul\":1346:1363   */\n      add\n        /* \"#utility.yul\":1337:1343   */\n      dup5\n        /* \"#utility.yul\":1293:1364   */\n      tag_70\n      jump\t// in\n    tag_106:\n        /* \"#utility.yul\":1149:1371   */\n      swap3\n      swap2\n      pop\n      pop\n      jump\t// out\n        /* \"#utility.yul\":1377:1503   */\n    tag_71:\n        /* \"#utility.yul\":1414:1421   */\n      0x00\n        /* \"#utility.yul\":1454:1496   */\n      0xffffffffffffffffffffffffffffffffffffffff\n        /* \"#utility.yul\":1447:1452   */\n      dup3\n        /* \"#utility.yul\":1443:1497   */\n      and\n        /* \"#utility.yul\":1432:1497   */\n      swap1\n      pop\n        /* \"#utility.yul\":1377:1503   */\n      swap2\n      swap1\n      pop\n      jump\t// out\n        /* \"#utility.yul\":1509:1605   */\n    tag_72:\n        /* \"#utility.yul\":1546:1553   */\n      0x00\n        /* \"#utility.yul\":1575:1599   */\n      tag_109\n        /* \"#utility.yul\":1593:1598   */\n      dup3\n        /* \"#utility.yul\":1575:1599   */\n      tag_71\n      jump\t// in\n    tag_109:\n        /* \"#utility.yul\":1564:1599   */\n      swap1\n      pop\n        /* \"#utility.yul\":1509:1605   */\n      swap2\n      swap1\n      pop\n      jump\t// out\n        /* \"#utility.yul\":1611:1729   */\n    tag_73:\n        /* \"#utility.yul\":1698:1722   */\n      tag_111\n        /* \"#utility.yul\":1716:1721   */\n      dup2\n        /* \"#utility.yul\":1698:1722   */\n      tag_72\n      jump\t// in\n    tag_111:\n        /* \"#utility.yul\":1693:1696   */\n      dup3\n        /* \"#utility.yul\":1686:1723   */\n      mstore\n        /* \"#utility.yul\":1611:1729   */\n      pop\n      pop\n      jump\t// out\n        /* \"#utility.yul\":1735:1957   */\n    tag_22:\n        /* \"#utility.yul\":1828:1832   */\n      0x00\n        /* \"#utility.yul\":1866:1868   */\n      0x20\n        /* \"#utility.yul\":1855:1864   */\n      dup3\n        /* \"#utility.yul\":1851:1869   */\n      add\n        /* \"#utility.yul\":1843:1869   */\n      swap1\n      pop\n        /* \"#utility.yul\":1879:1950   */\n      tag_113\n        /* \"#utility.yul\":1947:1948   */\n      0x00\n        /* \"#utility.yul\":1936:1945   */\n      dup4\n        /* \"#utility.yul\":1932:1949   */\n      add\n        /* \"#utility.yul\":1923:1929   */\n      dup5\n        /* \"#utility.yul\":1879:1950   */\n      tag_73\n      jump\t// in\n    tag_113:\n        /* \"#utility.yul\":1735:1957   */\n      swap3\n      swap2\n      pop\n      pop\n      jump\t// out\n        /* \"#utility.yul\":1963:2295   */\n    tag_27:\n        /* \"#utility.yul\":2084:2088   */\n      0x00\n        /* \"#utility.yul\":2122:2124   */\n      0x40\n        /* \"#utility.yul\":2111:2120   */\n      dup3\n        /* \"#utility.yul\":2107:2125   */\n      add\n        /* \"#utility.yul\":2099:2125   */\n      swap1\n      pop\n        /* \"#utility.yul\":2135:2206   */\n      tag_115\n        /* \"#utility.yul\":2203:2204   */\n      0x00\n        /* \"#utility.yul\":2192:2201   */\n      dup4\n        /* \"#utility.yul\":2188:2205   */\n      add\n        /* \"#utility.yul\":2179:2185   */\n      dup6\n        /* \"#utility.yul\":2135:2206   */\n      tag_70\n      jump\t// in\n    tag_115:\n        /* \"#utility.yul\":2216:2288   */\n      tag_116\n        /* \"#utility.yul\":2284:2286   */\n      0x20\n        /* \"#utility.yul\":2273:2282   */\n      dup4\n        /* \"#utility.yul\":2269:2287   */\n      add\n        /* \"#utility.yul\":2260:2266   */\n      dup5\n        /* \"#utility.yul\":2216:2288   */\n      tag_70\n      jump\t// in\n    tag_116:\n        /* \"#utility.yul\":1963:2295   */\n      swap4\n      swap3\n      pop\n      pop\n      pop\n      jump\t// out\n        /* \"#utility.yul\":2301:2470   */\n    tag_74:\n        /* \"#utility.yul\":2385:2396   */\n      0x00\n        /* \"#utility.yul\":2419:2425   */\n      dup3\n        /* \"#utility.yul\":2414:2417   */\n      dup3\n        /* \"#utility.yul\":2407:2426   */\n      mstore\n        /* \"#utility.yul\":2459:2463   */\n      0x20\n        /* \"#utility.yul\":2454:2457   */\n      dup3\n        /* \"#utility.yul\":2450:2464   */\n      add\n        /* \"#utility.yul\":2435:2464   */\n      swap1\n      pop\n        /* \"#utility.yul\":2301:2470   */\n      swap3\n      swap2\n      pop\n      pop\n      jump\t// out\n        /* \"#utility.yul\":2476:2639   */\n    tag_75:\n        /* \"#utility.yul\":2616:2631   */\n      0x4e6f74207065726d697474656400000000000000000000000000000000000000\n        /* \"#utility.yul\":2612:2613   */\n      0x00\n        /* \"#utility.yul\":2604:2610   */\n      dup3\n        /* \"#utility.yul\":2600:2614   */\n      add\n        /* \"#utility.yul\":2593:2632   */\n      mstore\n        /* \"#utility.yul\":2476:2639   */\n      pop\n      jump\t// out\n        /* \"#utility.yul\":2645:3011   */\n    tag_76:\n        /* \"#utility.yul\":2787:2790   */\n      0x00\n        /* \"#utility.yul\":2808:2875   */\n      tag_120\n        /* \"#utility.yul\":2872:2874   */\n      0x0d\n        /* \"#utility.yul\":2867:2870   */\n      dup4\n        /* \"#utility.yul\":2808:2875   */\n      tag_74\n      jump\t// in\n    tag_120:\n        /* \"#utility.yul\":2801:2875   */\n      swap2\n      pop\n        /* \"#utility.yul\":2884:2977   */\n      tag_121\n        /* \"#utility.yul\":2973:2976   */\n      dup3\n        /* \"#utility.yul\":2884:2977   */\n      tag_75\n      jump\t// in\n    tag_121:\n        /* \"#utility.yul\":3002:3004   */\n      0x20\n        /* \"#utility.yul\":2997:3000   */\n      dup3\n        /* \"#utility.yul\":2993:3005   */\n      add\n        /* \"#utility.yul\":2986:3005   */\n      swap1\n      pop\n        /* \"#utility.yul\":2645:3011   */\n      swap2\n      swap1\n      pop\n      jump\t// out\n        /* \"#utility.yul\":3017:3436   */\n    tag_31:\n        /* \"#utility.yul\":3183:3187   */\n      0x00\n        /* \"#utility.yul\":3221:3223   */\n      0x20\n        /* \"#utility.yul\":3210:3219   */\n      dup3\n        /* \"#utility.yul\":3206:3224   */\n      add\n        /* \"#utility.yul\":3198:3224   */\n      swap1\n      pop\n        /* \"#utility.yul\":3270:3279   */\n      dup2\n        /* \"#utility.yul\":3264:3268   */\n      dup2\n        /* \"#utility.yul\":3260:3280   */\n      sub\n        /* \"#utility.yul\":3256:3257   */\n      0x00\n        /* \"#utility.yul\":3245:3254   */\n      dup4\n        /* \"#utility.yul\":3241:3258   */\n      add\n        /* \"#utility.yul\":3234:3281   */\n      mstore\n        /* \"#utility.yul\":3298:3429   */\n      tag_123\n        /* \"#utility.yul\":3424:3428   */\n      dup2\n        /* \"#utility.yul\":3298:3429   */\n      tag_76\n      jump\t// in\n    tag_123:\n        /* \"#utility.yul\":3290:3429   */\n      swap1\n      pop\n        /* \"#utility.yul\":3017:3436   */\n      swap2\n      swap1\n      pop\n      jump\t// out\n        /* \"#utility.yul\":3442:3611   */\n    tag_77:\n        /* \"#utility.yul\":3582:3603   */\n      0x416d6f756e7420697320746f6f20736d616c6c00000000000000000000000000\n        /* \"#utility.yul\":3578:3579   */\n      0x00\n        /* \"#utility.yul\":3570:3576   */\n      dup3\n        /* \"#utility.yul\":3566:3580   */\n      add\n        /* \"#utility.yul\":3559:3604   */\n      mstore\n        /* \"#utility.yul\":3442:3611   */\n      pop\n      jump\t// out\n        /* \"#utility.yul\":3617:3983   */\n    tag_78:\n        /* \"#utility.yul\":3759:3762   */\n      0x00\n        /* \"#utility.yul\":3780:3847   */\n      tag_126\n        /* \"#utility.yul\":3844:3846   */\n      0x13\n        /* \"#utility.yul\":3839:3842   */\n      dup4\n        /* \"#utility.yul\":3780:3847   */\n      tag_74\n      jump\t// in\n    tag_126:\n        /* \"#utility.yul\":3773:3847   */\n      swap2\n      pop\n        /* \"#utility.yul\":3856:3949   */\n      tag_127\n        /* \"#utility.yul\":3945:3948   */\n      dup3\n        /* \"#utility.yul\":3856:3949   */\n      tag_77\n      jump\t// in\n    tag_127:\n        /* \"#utility.yul\":3974:3976   */\n      0x20\n        /* \"#utility.yul\":3969:3972   */\n      dup3\n        /* \"#utility.yul\":3965:3977   */\n      add\n        /* \"#utility.yul\":3958:3977   */\n      swap1\n      pop\n        /* \"#utility.yul\":3617:3983   */\n      swap2\n      swap1\n      pop\n      jump\t// out\n        /* \"#utility.yul\":3989:4408   */\n    tag_34:\n        /* \"#utility.yul\":4155:4159   */\n      0x00\n        /* \"#utility.yul\":4193:4195   */\n      0x20\n        /* \"#utility.yul\":4182:4191   */\n      dup3\n        /* \"#utility.yul\":4178:4196   */\n      add\n        /* \"#utility.yul\":4170:4196   */\n      swap1\n      pop\n        /* \"#utility.yul\":4242:4251   */\n      dup2\n        /* \"#utility.yul\":4236:4240   */\n      dup2\n        /* \"#utility.yul\":4232:4252   */\n      sub\n        /* \"#utility.yul\":4228:4229   */\n      0x00\n        /* \"#utility.yul\":4217:4226   */\n      dup4\n        /* \"#utility.yul\":4213:4230   */\n      add\n        /* \"#utility.yul\":4206:4253   */\n      mstore\n        /* \"#utility.yul\":4270:4401   */\n      tag_129\n        /* \"#utility.yul\":4396:4400   */\n      dup2\n        /* \"#utility.yul\":4270:4401   */\n      tag_78\n      jump\t// in\n    tag_129:\n        /* \"#utility.yul\":4262:4401   */\n      swap1\n      pop\n        /* \"#utility.yul\":3989:4408   */\n      swap2\n      swap1\n      pop\n      jump\t// out\n        /* \"#utility.yul\":4414:4594   */\n    tag_79:\n        /* \"#utility.yul\":4462:4539   */\n      0x4e487b7100000000000000000000000000000000000000000000000000000000\n        /* \"#utility.yul\":4459:4460   */\n      0x00\n        /* \"#utility.yul\":4452:4540   */\n      mstore\n        /* \"#utility.yul\":4559:4563   */\n      0x11\n        /* \"#utility.yul\":4556:4557   */\n      0x04\n        /* \"#utility.yul\":4549:4564   */\n      mstore\n        /* \"#utility.yul\":4583:4587   */\n      0x24\n        /* \"#utility.yul\":4580:4581   */\n      0x00\n        /* \"#utility.yul\":4573:4588   */\n      revert\n        /* \"#utility.yul\":4600:4791   */\n    tag_38:\n        /* \"#utility.yul\":4640:4643   */\n      0x00\n        /* \"#utility.yul\":4659:4679   */\n      tag_132\n        /* \"#utility.yul\":4677:4678   */\n      dup3\n        /* \"#utility.yul\":4659:4679   */\n      tag_67\n      jump\t// in\n    tag_132:\n        /* \"#utility.yul\":4654:4679   */\n      swap2\n      pop\n        /* \"#utility.yul\":4693:4713   */\n      tag_133\n        /* \"#utility.yul\":4711:4712   */\n      dup4\n        /* \"#utility.yul\":4693:4713   */\n      tag_67\n      jump\t// in\n    tag_133:\n        /* \"#utility.yul\":4688:4713   */\n      swap3\n      pop\n        /* \"#utility.yul\":4736:4737   */\n      dup3\n        /* \"#utility.yul\":4733:4734   */\n      dup3\n        /* \"#utility.yul\":4729:4738   */\n      add\n        /* \"#utility.yul\":4722:4738   */\n      swap1\n      pop\n        /* \"#utility.yul\":4757:4760   */\n      dup1\n        /* \"#utility.yul\":4754:4755   */\n      dup3\n        /* \"#utility.yul\":4751:4761   */\n      gt\n        /* \"#utility.yul\":4748:4784   */\n      iszero\n      tag_134\n      jumpi\n        /* \"#utility.yul\":4764:4782   */\n      tag_135\n      tag_79\n      jump\t// in\n    tag_135:\n        /* \"#utility.yul\":4748:4784   */\n    tag_134:\n        /* \"#utility.yul\":4600:4791   */\n      swap3\n      swap2\n      pop\n      pop\n      jump\t// out\n        /* \"#utility.yul\":4797:4968   */\n    tag_80:\n        /* \"#utility.yul\":4937:4960   */\n      0x42616c616e6365206973206e6f7420656e6f7567680000000000000000000000\n        /* \"#utility.yul\":4933:4934   */\n      0x00\n        /* \"#utility.yul\":4925:4931   */\n      dup3\n        /* \"#utility.yul\":4921:4935   */\n      add\n        /* \"#utility.yul\":4914:4961   */\n      mstore\n        /* \"#utility.yul\":4797:4968   */\n      pop\n      jump\t// out\n        /* \"#utility.yul\":4974:5340   */\n    tag_81:\n        /* \"#utility.yul\":5116:5119   */\n      0x00\n        /* \"#utility.yul\":5137:5204   */\n      tag_138\n        /* \"#utility.yul\":5201:5203   */\n      0x15\n        /* \"#utility.yul\":5196:5199   */\n      dup4\n        /* \"#utility.yul\":5137:5204   */\n      tag_74\n      jump\t// in\n    tag_138:\n        /* \"#utility.yul\":5130:5204   */\n      swap2\n      pop\n        /* \"#utility.yul\":5213:5306   */\n      tag_139\n        /* \"#utility.yul\":5302:5305   */\n      dup3\n        /* \"#utility.yul\":5213:5306   */\n      tag_80\n      jump\t// in\n    tag_139:\n        /* \"#utility.yul\":5331:5333   */\n      0x20\n        /* \"#utility.yul\":5326:5329   */\n      dup3\n        /* \"#utility.yul\":5322:5334   */\n      add\n        /* \"#utility.yul\":5315:5334   */\n      swap1\n      pop\n        /* \"#utility.yul\":4974:5340   */\n      swap2\n      swap1\n      pop\n      jump\t// out\n        /* \"#utility.yul\":5346:5765   */\n    tag_48:\n        /* \"#utility.yul\":5512:5516   */\n      0x00\n        /* \"#utility.yul\":5550:5552   */\n      0x20\n        /* \"#utility.yul\":5539:5548   */\n      dup3\n        /* \"#utility.yul\":5535:5553   */\n      add\n        /* \"#utility.yul\":5527:5553   */\n      swap1\n      pop\n        /* \"#utility.yul\":5599:5608   */\n      dup2\n        /* \"#utility.yul\":5593:5597   */\n      dup2\n        /* \"#utility.yul\":5589:5609   */\n      sub\n        /* \"#utility.yul\":5585:5586   */\n      0x00\n        /* \"#utility.yul\":5574:5583   */\n      dup4\n        /* \"#utility.yul\":5570:5587   */\n      add\n        /* \"#utility.yul\":5563:5610   */\n      mstore\n        /* \"#utility.yul\":5627:5758   */\n      tag_141\n        /* \"#utility.yul\":5753:5757   */\n      dup2\n        /* \"#utility.yul\":5627:5758   */\n      tag_81\n      jump\t// in\n    tag_141:\n        /* \"#utility.yul\":5619:5758   */\n      swap1\n      pop\n        /* \"#utility.yul\":5346:5765   */\n      swap2\n      swap1\n      pop\n      jump\t// out\n        /* \"#utility.yul\":5771:5932   */\n    tag_82:\n        /* \"#utility.yul\":5911:5924   */\n      0x4e6f742079657420647565000000000000000000000000000000000000000000\n        /* \"#utility.yul\":5907:5908   */\n      0x00\n        /* \"#utility.yul\":5899:5905   */\n      dup3\n        /* \"#utility.yul\":5895:5909   */\n      add\n        /* \"#utility.yul\":5888:5925   */\n      mstore\n        /* \"#utility.yul\":5771:5932   */\n      pop\n      jump\t// out\n        /* \"#utility.yul\":5938:6304   */\n    tag_83:\n        /* \"#utility.yul\":6080:6083   */\n      0x00\n        /* \"#utility.yul\":6101:6168   */\n      tag_144\n        /* \"#utility.yul\":6165:6167   */\n      0x0b\n        /* \"#utility.yul\":6160:6163   */\n      dup4\n        /* \"#utility.yul\":6101:6168   */\n      tag_74\n      jump\t// in\n    tag_144:\n        /* \"#utility.yul\":6094:6168   */\n      swap2\n      pop\n        /* \"#utility.yul\":6177:6270   */\n      tag_145\n        /* \"#utility.yul\":6266:6269   */\n      dup3\n        /* \"#utility.yul\":6177:6270   */\n      tag_82\n      jump\t// in\n    tag_145:\n        /* \"#utility.yul\":6295:6297   */\n      0x20\n        /* \"#utility.yul\":6290:6293   */\n      dup3\n        /* \"#utility.yul\":6286:6298   */\n      add\n        /* \"#utility.yul\":6279:6298   */\n      swap1\n      pop\n        /* \"#utility.yul\":5938:6304   */\n      swap2\n      swap1\n      pop\n      jump\t// out\n        /* \"#utility.yul\":6310:6729   */\n    tag_51:\n        /* \"#utility.yul\":6476:6480   */\n      0x00\n        /* \"#utility.yul\":6514:6516   */\n      0x20\n        /* \"#utility.yul\":6503:6512   */\n      dup3\n        /* \"#utility.yul\":6499:6517   */\n      add\n        /* \"#utility.yul\":6491:6517   */\n      swap1\n      pop\n        /* \"#utility.yul\":6563:6572   */\n      dup2\n        /* \"#utility.yul\":6557:6561   */\n      dup2\n        /* \"#utility.yul\":6553:6573   */\n      sub\n        /* \"#utility.yul\":6549:6550   */\n      0x00\n        /* \"#utility.yul\":6538:6547   */\n      dup4\n        /* \"#utility.yul\":6534:6551   */\n      add\n        /* \"#utility.yul\":6527:6574   */\n      mstore\n        /* \"#utility.yul\":6591:6722   */\n      tag_147\n        /* \"#utility.yul\":6717:6721   */\n      dup2\n        /* \"#utility.yul\":6591:6722   */\n      tag_83\n      jump\t// in\n    tag_147:\n        /* \"#utility.yul\":6583:6722   */\n      swap1\n      pop\n        /* \"#utility.yul\":6310:6729   */\n      swap2\n      swap1\n      pop\n      jump\t// out\n        /* \"#utility.yul\":6735:6882   */\n    tag_84:\n        /* \"#utility.yul\":6836:6847   */\n      0x00\n        /* \"#utility.yul\":6873:6876   */\n      dup2\n        /* \"#utility.yul\":6858:6876   */\n      swap1\n      pop\n        /* \"#utility.yul\":6735:6882   */\n      swap3\n      swap2\n      pop\n      pop\n      jump\t// out\n        /* \"#utility.yul\":6888:7002   */\n    tag_85:\n      pop\n      jump\t// out\n        /* \"#utility.yul\":7008:7406   */\n    tag_86:\n        /* \"#utility.yul\":7167:7170   */\n      0x00\n        /* \"#utility.yul\":7188:7271   */\n      tag_151\n        /* \"#utility.yul\":7269:7270   */\n      0x00\n        /* \"#utility.yul\":7264:7267   */\n      dup4\n        /* \"#utility.yul\":7188:7271   */\n      tag_84\n      jump\t// in\n    tag_151:\n        /* \"#utility.yul\":7181:7271   */\n      swap2\n      pop\n        /* \"#utility.yul\":7280:7373   */\n      tag_152\n        /* \"#utility.yul\":7369:7372   */\n      dup3\n        /* \"#utility.yul\":7280:7373   */\n      tag_85\n      jump\t// in\n    tag_152:\n        /* \"#utility.yul\":7398:7399   */\n      0x00\n        /* \"#utility.yul\":7393:7396   */\n      dup3\n        /* \"#utility.yul\":7389:7400   */\n      add\n        /* \"#utility.yul\":7382:7400   */\n      swap1\n      pop\n        /* \"#utility.yul\":7008:7406   */\n      swap2\n      swap1\n      pop\n      jump\t// out\n        /* \"#utility.yul\":7412:7791   */\n    tag_53:\n        /* \"#utility.yul\":7596:7599   */\n      0x00\n        /* \"#utility.yul\":7618:7765   */\n      tag_154\n        /* \"#utility.yul\":7761:7764   */\n      dup3\n        /* \"#utility.yul\":7618:7765   */\n      tag_86\n      jump\t// in\n    tag_154:\n        /* \"#utility.yul\":7611:7765   */\n      swap2\n      pop\n        /* \"#utility.yul\":7782:7785   */\n      dup2\n        /* \"#utility.yul\":7775:7785   */\n      swap1\n      pop\n        /* \"#utility.yul\":7412:7791   */\n      swap2\n      swap1\n      pop\n      jump\t// out\n        /* \"#utility.yul\":7797:7963   */\n    tag_87:\n        /* \"#utility.yul\":7937:7955   */\n      0x55736572206e6f7420616c6c6f77656400000000000000000000000000000000\n        /* \"#utility.yul\":7933:7934   */\n      0x00\n        /* \"#utility.yul\":7925:7931   */\n      dup3\n        /* \"#utility.yul\":7921:7935   */\n      add\n        /* \"#utility.yul\":7914:7956   */\n      mstore\n        /* \"#utility.yul\":7797:7963   */\n      pop\n      jump\t// out\n        /* \"#utility.yul\":7969:8335   */\n    tag_88:\n        /* \"#utility.yul\":8111:8114   */\n      0x00\n        /* \"#utility.yul\":8132:8199   */\n      tag_157\n        /* \"#utility.yul\":8196:8198   */\n      0x10\n        /* \"#utility.yul\":8191:8194   */\n      dup4\n        /* \"#utility.yul\":8132:8199   */\n      tag_74\n      jump\t// in\n    tag_157:\n        /* \"#utility.yul\":8125:8199   */\n      swap2\n      pop\n        /* \"#utility.yul\":8208:8301   */\n      tag_158\n        /* \"#utility.yul\":8297:8300   */\n      dup3\n        /* \"#utility.yul\":8208:8301   */\n      tag_87\n      jump\t// in\n    tag_158:\n        /* \"#utility.yul\":8326:8328   */\n      0x20\n        /* \"#utility.yul\":8321:8324   */\n      dup3\n        /* \"#utility.yul\":8317:8329   */\n      add\n        /* \"#utility.yul\":8310:8329   */\n      swap1\n      pop\n        /* \"#utility.yul\":7969:8335   */\n      swap2\n      swap1\n      pop\n      jump\t// out\n        /* \"#utility.yul\":8341:8760   */\n    tag_63:\n        /* \"#utility.yul\":8507:8511   */\n      0x00\n        /* \"#utility.yul\":8545:8547   */\n      0x20\n        /* \"#utility.yul\":8534:8543   */\n      dup3\n        /* \"#utility.yul\":8530:8548   */\n      add\n        /* \"#utility.yul\":8522:8548   */\n      swap1\n      pop\n        /* \"#utility.yul\":8594:8603   */\n      dup2\n        /* \"#utility.yul\":8588:8592   */\n      dup2\n        /* \"#utility.yul\":8584:8604   */\n      sub\n        /* \"#utility.yul\":8580:8581   */\n      0x00\n        /* \"#utility.yul\":8569:8578   */\n      dup4\n        /* \"#utility.yul\":8565:8582   */\n      add\n        /* \"#utility.yul\":8558:8605   */\n      mstore\n        /* \"#utility.yul\":8622:8753   */\n      tag_160\n        /* \"#utility.yul\":8748:8752   */\n      dup2\n        /* \"#utility.yul\":8622:8753   */\n      tag_88\n      jump\t// in\n    tag_160:\n        /* \"#utility.yul\":8614:8753   */\n      swap1\n      pop\n        /* \"#utility.yul\":8341:8760   */\n      swap2\n      swap1\n      pop\n      jump\t// out\n\n    auxdata: 0xa2646970667358221220b88dbba44c7291d1c24a248ba953edde4b9cfe82356c9252121fff7ca7fd4f5c64736f6c634300081c0033\n}\n",
				"bytecode": {
					"linkReferences": {},
					"object": "6080604052348015600e575f5ffd5b50335f5f6101000a81548173ffffffffffffffffffffffffffffffffffffffff021916908373ffffffffffffffffffffffffffffffffffffffff1602179055506109798061005b5f395ff3fe608060405260043610610049575f3560e01c806326839f171461004d5780636f9fb98a146100695780637362377b146100935780638da5cb5b1461009d578063deab4e40146100c7575b5f5ffd5b610067600480360381019061006291906105b8565b6100f2565b005b348015610074575f5ffd5b5061007d610236565b60405161008a91906105f2565b60405180910390f35b61009b610245565b005b3480156100a8575f5ffd5b506100b1610461565b6040516100be919061064a565b60405180910390f35b3480156100d2575f5ffd5b506100db610485565b6040516100e9929190610663565b60405180910390f35b5f73ffffffffffffffffffffffffffffffffffffffff163373ffffffffffffffffffffffffffffffffffffffff1603610160576040517f08c379a0000000000000000000000000000000000000000000000000000000008152600401610157906106e4565b60405180910390fd5b670de0b6b3a76400003410156101ab576040517f08c379a00000000000000000000000000000000000000000000000000000000081526004016101a29061074c565b60405180910390fd5b6101b3610569565b34815f01516101c29190610797565b815f01818152505081426101d69190610797565b8160200181815250508060015f3373ffffffffffffffffffffffffffffffffffffffff1673ffffffffffffffffffffffffffffffffffffffff1681526020019081526020015f205f820151815f0155602082015181600101559050505050565b5f61023f6104d9565b47905090565b5f73ffffffffffffffffffffffffffffffffffffffff163373ffffffffffffffffffffffffffffffffffffffff16036102b3576040517f08c379a00000000000000000000000000000000000000000000000000000000081526004016102aa906106e4565b60405180910390fd5b5f60015f3373ffffffffffffffffffffffffffffffffffffffff1673ffffffffffffffffffffffffffffffffffffffff1681526020019081526020015f209050670de0b6b3a7640000815f01541015610341576040517f08c379a000000000000000000000000000000000000000000000000000000000815260040161033890610814565b60405180910390fd5b80600101544211610387576040517f08c379a000000000000000000000000000000000000000000000000000000000815260040161037e9061087c565b60405180910390fd5b5f815f015490505f825f01819055505f82600101819055505f3373ffffffffffffffffffffffffffffffffffffffff16826040516103c4906108c7565b5f6040518083038185875af1925050503d805f81146103fe576040519150601f19603f3d011682016040523d82523d5f602084013e610403565b606091505b50509050801561045c573373ffffffffffffffffffffffffffffffffffffffff167f69ca02dd4edd7bf0a4abb9ed3b7af3f14778db5d61921c7dc7cd545266326de28360405161045391906105f2565b60405180910390a25b505050565b5f5f9054906101000a900473ffffffffffffffffffffffffffffffffffffffff1681565b5f5f5f60015f3373ffffffffffffffffffffffffffffffffffffffff1673ffffffffffffffffffffffffffffffffffffffff1681526020019081526020015f209050805f0154816001015492509250509091565b5f5f9054906101000a900473ffffffffffffffffffffffffffffffffffffffff1673ffffffffffffffffffffffffffffffffffffffff163373ffffffffffffffffffffffffffffffffffffffff1614610567576040517f08c379a000000000000000000000000000000000000000000000000000000000815260040161055e90610925565b60405180910390fd5b565b60405180604001604052805f81526020015f81525090565b5f5ffd5b5f819050919050565b61059781610585565b81146105a1575f5ffd5b50565b5f813590506105b28161058e565b92915050565b5f602082840312156105cd576105cc610581565b5b5f6105da848285016105a4565b91505092915050565b6105ec81610585565b82525050565b5f6020820190506106055f8301846105e3565b92915050565b5f73ffffffffffffffffffffffffffffffffffffffff82169050919050565b5f6106348261060b565b9050919050565b6106448161062a565b82525050565b5f60208201905061065d5f83018461063b565b92915050565b5f6040820190506106765f8301856105e3565b61068360208301846105e3565b9392505050565b5f82825260208201905092915050565b7f4e6f74207065726d6974746564000000000000000000000000000000000000005f82015250565b5f6106ce600d8361068a565b91506106d98261069a565b602082019050919050565b5f6020820190508181035f8301526106fb816106c2565b9050919050565b7f416d6f756e7420697320746f6f20736d616c6c000000000000000000000000005f82015250565b5f61073660138361068a565b915061074182610702565b602082019050919050565b5f6020820190508181035f8301526107638161072a565b9050919050565b7f4e487b71000000000000000000000000000000000000000000000000000000005f52601160045260245ffd5b5f6107a182610585565b91506107ac83610585565b92508282019050808211156107c4576107c361076a565b5b92915050565b7f42616c616e6365206973206e6f7420656e6f75676800000000000000000000005f82015250565b5f6107fe60158361068a565b9150610809826107ca565b602082019050919050565b5f6020820190508181035f83015261082b816107f2565b9050919050565b7f4e6f7420796574206475650000000000000000000000000000000000000000005f82015250565b5f610866600b8361068a565b915061087182610832565b602082019050919050565b5f6020820190508181035f8301526108938161085a565b9050919050565b5f81905092915050565b50565b5f6108b25f8361089a565b91506108bd826108a4565b5f82019050919050565b5f6108d1826108a7565b9150819050919050565b7f55736572206e6f7420616c6c6f776564000000000000000000000000000000005f82015250565b5f61090f60108361068a565b915061091a826108db565b602082019050919050565b5f6020820190508181035f83015261093c81610903565b905091905056fea2646970667358221220b88dbba44c7291d1c24a248ba953edde4b9cfe82356c9252121fff7ca7fd4f5c64736f6c634300081c0033",
					"opcodes": "PUSH1 0x80 PUSH1 0x40 MSTORE CALLVALUE DUP1 ISZERO PUSH1 0xE JUMPI PUSH0 PUSH0 REVERT JUMPDEST POP CALLER PUSH0 PUSH0 PUSH2 0x100 EXP DUP2 SLOAD DUP2 PUSH20 0xFFFFFFFFFFFFFFFFFFFFFFFFFFFFFFFFFFFFFFFF MUL NOT AND SWAP1 DUP4 PUSH20 0xFFFFFFFFFFFFFFFFFFFFFFFFFFFFFFFFFFFFFFFF AND MUL OR SWAP1 SSTORE POP PUSH2 0x979 DUP1 PUSH2 0x5B PUSH0 CODECOPY PUSH0 RETURN INVALID PUSH1 0x80 PUSH1 0x40 MSTORE PUSH1 0x4 CALLDATASIZE LT PUSH2 0x49 JUMPI PUSH0 CALLDATALOAD PUSH1 0xE0 SHR DUP1 PUSH4 0x26839F17 EQ PUSH2 0x4D JUMPI DUP1 PUSH4 0x6F9FB98A EQ PUSH2 0x69 JUMPI DUP1 PUSH4 0x7362377B EQ PUSH2 0x93 JUMPI DUP1 PUSH4 0x8DA5CB5B EQ PUSH2 0x9D JUMPI DUP1 PUSH4 0xDEAB4E40 EQ PUSH2 0xC7 JUMPI JUMPDEST PUSH0 PUSH0 REVERT JUMPDEST PUSH2 0x67 PUSH1 0x4 DUP1 CALLDATASIZE SUB DUP2 ADD SWAP1 PUSH2 0x62 SWAP2 SWAP1 PUSH2 0x5B8 JUMP JUMPDEST PUSH2 0xF2 JUMP JUMPDEST STOP JUMPDEST CALLVALUE DUP1 ISZERO PUSH2 0x74 JUMPI PUSH0 PUSH0 REVERT JUMPDEST POP PUSH2 0x7D PUSH2 0x236 JUMP JUMPDEST PUSH1 0x40 MLOAD PUSH2 0x8A SWAP2 SWAP1 PUSH2 0x5F2 JUMP JUMPDEST PUSH1 0x40 MLOAD DUP1 SWAP2 SUB SWAP1 RETURN JUMPDEST PUSH2 0x9B PUSH2 0x245 JUMP JUMPDEST STOP JUMPDEST CALLVALUE DUP1 ISZERO PUSH2 0xA8 JUMPI PUSH0 PUSH0 REVERT JUMPDEST POP PUSH2 0xB1 PUSH2 0x461 JUMP JUMPDEST PUSH1 0x40 MLOAD PUSH2 0xBE SWAP2 SWAP1 PUSH2 0x64A JUMP JUMPDEST PUSH1 0x40 MLOAD DUP1 SWAP2 SUB SWAP1 RETURN JUMPDEST CALLVALUE DUP1 ISZERO PUSH2 0xD2 JUMPI PUSH0 PUSH0 REVERT JUMPDEST POP PUSH2 0xDB PUSH2 0x485 JUMP JUMPDEST PUSH1 0x40 MLOAD PUSH2 0xE9 SWAP3 SWAP2 SWAP1 PUSH2 0x663 JUMP JUMPDEST PUSH1 0x40 MLOAD DUP1 SWAP2 SUB SWAP1 RETURN JUMPDEST PUSH0 PUSH20 0xFFFFFFFFFFFFFFFFFFFFFFFFFFFFFFFFFFFFFFFF AND CALLER PUSH20 0xFFFFFFFFFFFFFFFFFFFFFFFFFFFFFFFFFFFFFFFF AND SUB PUSH2 0x160 JUMPI PUSH1 0x40 MLOAD PUSH32 0x8C379A000000000000000000000000000000000000000000000000000000000 DUP2 MSTORE PUSH1 0x4 ADD PUSH2 0x157 SWAP1 PUSH2 0x6E4 JUMP JUMPDEST PUSH1 0x40 MLOAD DUP1 SWAP2 SUB SWAP1 REVERT JUMPDEST PUSH8 0xDE0B6B3A7640000 CALLVALUE LT ISZERO PUSH2 0x1AB JUMPI PUSH1 0x40 MLOAD PUSH32 0x8C379A000000000000000000000000000000000000000000000000000000000 DUP2 MSTORE PUSH1 0x4 ADD PUSH2 0x1A2 SWAP1 PUSH2 0x74C JUMP JUMPDEST PUSH1 0x40 MLOAD DUP1 SWAP2 SUB SWAP1 REVERT JUMPDEST PUSH2 0x1B3 PUSH2 0x569 JUMP JUMPDEST CALLVALUE DUP2 PUSH0 ADD MLOAD PUSH2 0x1C2 SWAP2 SWAP1 PUSH2 0x797 JUMP JUMPDEST DUP2 PUSH0 ADD DUP2 DUP2 MSTORE POP POP DUP2 TIMESTAMP PUSH2 0x1D6 SWAP2 SWAP1 PUSH2 0x797 JUMP JUMPDEST DUP2 PUSH1 0x20 ADD DUP2 DUP2 MSTORE POP POP DUP1 PUSH1 0x1 PUSH0 CALLER PUSH20 0xFFFFFFFFFFFFFFFFFFFFFFFFFFFFFFFFFFFFFFFF AND PUSH20 0xFFFFFFFFFFFFFFFFFFFFFFFFFFFFFFFFFFFFFFFF AND DUP2 MSTORE PUSH1 0x20 ADD SWAP1 DUP2 MSTORE PUSH1 0x20 ADD PUSH0 KECCAK256 PUSH0 DUP3 ADD MLOAD DUP2 PUSH0 ADD SSTORE PUSH1 0x20 DUP3 ADD MLOAD DUP2 PUSH1 0x1 ADD SSTORE SWAP1 POP POP POP POP JUMP JUMPDEST PUSH0 PUSH2 0x23F PUSH2 0x4D9 JUMP JUMPDEST SELFBALANCE SWAP1 POP SWAP1 JUMP JUMPDEST PUSH0 PUSH20 0xFFFFFFFFFFFFFFFFFFFFFFFFFFFFFFFFFFFFFFFF AND CALLER PUSH20 0xFFFFFFFFFFFFFFFFFFFFFFFFFFFFFFFFFFFFFFFF AND SUB PUSH2 0x2B3 JUMPI PUSH1 0x40 MLOAD PUSH32 0x8C379A000000000000000000000000000000000000000000000000000000000 DUP2 MSTORE PUSH1 0x4 ADD PUSH2 0x2AA SWAP1 PUSH2 0x6E4 JUMP JUMPDEST PUSH1 0x40 MLOAD DUP1 SWAP2 SUB SWAP1 REVERT JUMPDEST PUSH0 PUSH1 0x1 PUSH0 CALLER PUSH20 0xFFFFFFFFFFFFFFFFFFFFFFFFFFFFFFFFFFFFFFFF AND PUSH20 0xFFFFFFFFFFFFFFFFFFFFFFFFFFFFFFFFFFFFFFFF AND DUP2 MSTORE PUSH1 0x20 ADD SWAP1 DUP2 MSTORE PUSH1 0x20 ADD PUSH0 KECCAK256 SWAP1 POP PUSH8 0xDE0B6B3A7640000 DUP2 PUSH0 ADD SLOAD LT ISZERO PUSH2 0x341 JUMPI PUSH1 0x40 MLOAD PUSH32 0x8C379A000000000000000000000000000000000000000000000000000000000 DUP2 MSTORE PUSH1 0x4 ADD PUSH2 0x338 SWAP1 PUSH2 0x814 JUMP JUMPDEST PUSH1 0x40 MLOAD DUP1 SWAP2 SUB SWAP1 REVERT JUMPDEST DUP1 PUSH1 0x1 ADD SLOAD TIMESTAMP GT PUSH2 0x387 JUMPI PUSH1 0x40 MLOAD PUSH32 0x8C379A000000000000000000000000000000000000000000000000000000000 DUP2 MSTORE PUSH1 0x4 ADD PUSH2 0x37E SWAP1 PUSH2 0x87C JUMP JUMPDEST PUSH1 0x40 MLOAD DUP1 SWAP2 SUB SWAP1 REVERT JUMPDEST PUSH0 DUP2 PUSH0 ADD SLOAD SWAP1 POP PUSH0 DUP3 PUSH0 ADD DUP2 SWAP1 SSTORE POP PUSH0 DUP3 PUSH1 0x1 ADD DUP2 SWAP1 SSTORE POP PUSH0 CALLER PUSH20 0xFFFFFFFFFFFFFFFFFFFFFFFFFFFFFFFFFFFFFFFF AND DUP3 PUSH1 0x40 MLOAD PUSH2 0x3C4 SWAP1 PUSH2 0x8C7 JUMP JUMPDEST PUSH0 PUSH1 0x40 MLOAD DUP1 DUP4 SUB DUP2 DUP6 DUP8 GAS CALL SWAP3 POP POP POP RETURNDATASIZE DUP1 PUSH0 DUP2 EQ PUSH2 0x3FE JUMPI PUSH1 0x40 MLOAD SWAP2 POP PUSH1 0x1F NOT PUSH1 0x3F RETURNDATASIZE ADD AND DUP3 ADD PUSH1 0x40 MSTORE RETURNDATASIZE DUP3 MSTORE RETURNDATASIZE PUSH0 PUSH1 0x20 DUP5 ADD RETURNDATACOPY PUSH2 0x403 JUMP JUMPDEST PUSH1 0x60 SWAP2 POP JUMPDEST POP POP SWAP1 POP DUP1 ISZERO PUSH2 0x45C JUMPI CALLER PUSH20 0xFFFFFFFFFFFFFFFFFFFFFFFFFFFFFFFFFFFFFFFF AND PUSH32 0x69CA02DD4EDD7BF0A4ABB9ED3B7AF3F14778DB5D61921C7DC7CD545266326DE2 DUP4 PUSH1 0x40 MLOAD PUSH2 0x453 SWAP2 SWAP1 PUSH2 0x5F2 JUMP JUMPDEST PUSH1 0x40 MLOAD DUP1 SWAP2 SUB SWAP1 LOG2 JUMPDEST POP POP POP JUMP JUMPDEST PUSH0 PUSH0 SWAP1 SLOAD SWAP1 PUSH2 0x100 EXP SWAP1 DIV PUSH20 0xFFFFFFFFFFFFFFFFFFFFFFFFFFFFFFFFFFFFFFFF AND DUP2 JUMP JUMPDEST PUSH0 PUSH0 PUSH0 PUSH1 0x1 PUSH0 CALLER PUSH20 0xFFFFFFFFFFFFFFFFFFFFFFFFFFFFFFFFFFFFFFFF AND PUSH20 0xFFFFFFFFFFFFFFFFFFFFFFFFFFFFFFFFFFFFFFFF AND DUP2 MSTORE PUSH1 0x20 ADD SWAP1 DUP2 MSTORE PUSH1 0x20 ADD PUSH0 KECCAK256 SWAP1 POP DUP1 PUSH0 ADD SLOAD DUP2 PUSH1 0x1 ADD SLOAD SWAP3 POP SWAP3 POP POP SWAP1 SWAP2 JUMP JUMPDEST PUSH0 PUSH0 SWAP1 SLOAD SWAP1 PUSH2 0x100 EXP SWAP1 DIV PUSH20 0xFFFFFFFFFFFFFFFFFFFFFFFFFFFFFFFFFFFFFFFF AND PUSH20 0xFFFFFFFFFFFFFFFFFFFFFFFFFFFFFFFFFFFFFFFF AND CALLER PUSH20 0xFFFFFFFFFFFFFFFFFFFFFFFFFFFFFFFFFFFFFFFF AND EQ PUSH2 0x567 JUMPI PUSH1 0x40 MLOAD PUSH32 0x8C379A000000000000000000000000000000000000000000000000000000000 DUP2 MSTORE PUSH1 0x4 ADD PUSH2 0x55E SWAP1 PUSH2 0x925 JUMP JUMPDEST PUSH1 0x40 MLOAD DUP1 SWAP2 SUB SWAP1 REVERT JUMPDEST JUMP JUMPDEST PUSH1 0x40 MLOAD DUP1 PUSH1 0x40 ADD PUSH1 0x40 MSTORE DUP1 PUSH0 DUP2 MSTORE PUSH1 0x20 ADD PUSH0 DUP2 MSTORE POP SWAP1 JUMP JUMPDEST PUSH0 PUSH0 REVERT JUMPDEST PUSH0 DUP2 SWAP1 POP SWAP2 SWAP1 POP JUMP JUMPDEST PUSH2 0x597 DUP2 PUSH2 0x585 JUMP JUMPDEST DUP2 EQ PUSH2 0x5A1 JUMPI PUSH0 PUSH0 REVERT JUMPDEST POP JUMP JUMPDEST PUSH0 DUP2 CALLDATALOAD SWAP1 POP PUSH2 0x5B2 DUP2 PUSH2 0x58E JUMP JUMPDEST SWAP3 SWAP2 POP POP JUMP JUMPDEST PUSH0 PUSH1 0x20 DUP3 DUP5 SUB SLT ISZERO PUSH2 0x5CD JUMPI PUSH2 0x5CC PUSH2 0x581 JUMP JUMPDEST JUMPDEST PUSH0 PUSH2 0x5DA DUP5 DUP3 DUP6 ADD PUSH2 0x5A4 JUMP JUMPDEST SWAP2 POP POP SWAP3 SWAP2 POP POP JUMP JUMPDEST PUSH2 0x5EC DUP2 PUSH2 0x585 JUMP JUMPDEST DUP3 MSTORE POP POP JUMP JUMPDEST PUSH0 PUSH1 0x20 DUP3 ADD SWAP1 POP PUSH2 0x605 PUSH0 DUP4 ADD DUP5 PUSH2 0x5E3 JUMP JUMPDEST SWAP3 SWAP2 POP POP JUMP JUMPDEST PUSH0 PUSH20 0xFFFFFFFFFFFFFFFFFFFFFFFFFFFFFFFFFFFFFFFF DUP3 AND SWAP1 POP SWAP2 SWAP1 POP JUMP JUMPDEST PUSH0 PUSH2 0x634 DUP3 PUSH2 0x60B JUMP JUMPDEST SWAP1 POP SWAP2 SWAP1 POP JUMP JUMPDEST PUSH2 0x644 DUP2 PUSH2 0x62A JUMP JUMPDEST DUP3 MSTORE POP POP JUMP JUMPDEST PUSH0 PUSH1 0x20 DUP3 ADD SWAP1 POP PUSH2 0x65D PUSH0 DUP4 ADD DUP5 PUSH2 0x63B JUMP JUMPDEST SWAP3 SWAP2 POP POP JUMP JUMPDEST PUSH0 PUSH1 0x40 DUP3 ADD SWAP1 POP PUSH2 0x676 PUSH0 DUP4 ADD DUP6 PUSH2 0x5E3 JUMP JUMPDEST PUSH2 0x683 PUSH1 0x20 DUP4 ADD DUP5 PUSH2 0x5E3 JUMP JUMPDEST SWAP4 SWAP3 POP POP POP JUMP JUMPDEST PUSH0 DUP3 DUP3 MSTORE PUSH1 0x20 DUP3 ADD SWAP1 POP SWAP3 SWAP2 POP POP JUMP JUMPDEST PUSH32 0x4E6F74207065726D697474656400000000000000000000000000000000000000 PUSH0 DUP3 ADD MSTORE POP JUMP JUMPDEST PUSH0 PUSH2 0x6CE PUSH1 0xD DUP4 PUSH2 0x68A JUMP JUMPDEST SWAP2 POP PUSH2 0x6D9 DUP3 PUSH2 0x69A JUMP JUMPDEST PUSH1 0x20 DUP3 ADD SWAP1 POP SWAP2 SWAP1 POP JUMP JUMPDEST PUSH0 PUSH1 0x20 DUP3 ADD SWAP1 POP DUP2 DUP2 SUB PUSH0 DUP4 ADD MSTORE PUSH2 0x6FB DUP2 PUSH2 0x6C2 JUMP JUMPDEST SWAP1 POP SWAP2 SWAP1 POP JUMP JUMPDEST PUSH32 0x416D6F756E7420697320746F6F20736D616C6C00000000000000000000000000 PUSH0 DUP3 ADD MSTORE POP JUMP JUMPDEST PUSH0 PUSH2 0x736 PUSH1 0x13 DUP4 PUSH2 0x68A JUMP JUMPDEST SWAP2 POP PUSH2 0x741 DUP3 PUSH2 0x702 JUMP JUMPDEST PUSH1 0x20 DUP3 ADD SWAP1 POP SWAP2 SWAP1 POP JUMP JUMPDEST PUSH0 PUSH1 0x20 DUP3 ADD SWAP1 POP DUP2 DUP2 SUB PUSH0 DUP4 ADD MSTORE PUSH2 0x763 DUP2 PUSH2 0x72A JUMP JUMPDEST SWAP1 POP SWAP2 SWAP1 POP JUMP JUMPDEST PUSH32 0x4E487B7100000000000000000000000000000000000000000000000000000000 PUSH0 MSTORE PUSH1 0x11 PUSH1 0x4 MSTORE PUSH1 0x24 PUSH0 REVERT JUMPDEST PUSH0 PUSH2 0x7A1 DUP3 PUSH2 0x585 JUMP JUMPDEST SWAP2 POP PUSH2 0x7AC DUP4 PUSH2 0x585 JUMP JUMPDEST SWAP3 POP DUP3 DUP3 ADD SWAP1 POP DUP1 DUP3 GT ISZERO PUSH2 0x7C4 JUMPI PUSH2 0x7C3 PUSH2 0x76A JUMP JUMPDEST JUMPDEST SWAP3 SWAP2 POP POP JUMP JUMPDEST PUSH32 0x42616C616E6365206973206E6F7420656E6F7567680000000000000000000000 PUSH0 DUP3 ADD MSTORE POP JUMP JUMPDEST PUSH0 PUSH2 0x7FE PUSH1 0x15 DUP4 PUSH2 0x68A JUMP JUMPDEST SWAP2 POP PUSH2 0x809 DUP3 PUSH2 0x7CA JUMP JUMPDEST PUSH1 0x20 DUP3 ADD SWAP1 POP SWAP2 SWAP1 POP JUMP JUMPDEST PUSH0 PUSH1 0x20 DUP3 ADD SWAP1 POP DUP2 DUP2 SUB PUSH0 DUP4 ADD MSTORE PUSH2 0x82B DUP2 PUSH2 0x7F2 JUMP JUMPDEST SWAP1 POP SWAP2 SWAP1 POP JUMP JUMPDEST PUSH32 0x4E6F742079657420647565000000000000000000000000000000000000000000 PUSH0 DUP3 ADD MSTORE POP JUMP JUMPDEST PUSH0 PUSH2 0x866 PUSH1 0xB DUP4 PUSH2 0x68A JUMP JUMPDEST SWAP2 POP PUSH2 0x871 DUP3 PUSH2 0x832 JUMP JUMPDEST PUSH1 0x20 DUP3 ADD SWAP1 POP SWAP2 SWAP1 POP JUMP JUMPDEST PUSH0 PUSH1 0x20 DUP3 ADD SWAP1 POP DUP2 DUP2 SUB PUSH0 DUP4 ADD MSTORE PUSH2 0x893 DUP2 PUSH2 0x85A JUMP JUMPDEST SWAP1 POP SWAP2 SWAP1 POP JUMP JUMPDEST PUSH0 DUP2 SWAP1 POP SWAP3 SWAP2 POP POP JUMP JUMPDEST POP JUMP JUMPDEST PUSH0 PUSH2 0x8B2 PUSH0 DUP4 PUSH2 0x89A JUMP JUMPDEST SWAP2 POP PUSH2 0x8BD DUP3 PUSH2 0x8A4 JUMP JUMPDEST PUSH0 DUP3 ADD SWAP1 POP SWAP2 SWAP1 POP JUMP JUMPDEST PUSH0 PUSH2 0x8D1 DUP3 PUSH2 0x8A7 JUMP JUMPDEST SWAP2 POP DUP2 SWAP1 POP SWAP2 SWAP1 POP JUMP JUMPDEST PUSH32 0x55736572206E6F7420616C6C6F77656400000000000000000000000000000000 PUSH0 DUP3 ADD MSTORE POP JUMP JUMPDEST PUSH0 PUSH2 0x90F PUSH1 0x10 DUP4 PUSH2 0x68A JUMP JUMPDEST SWAP2 POP PUSH2 0x91A DUP3 PUSH2 0x8DB JUMP JUMPDEST PUSH1 0x20 DUP3 ADD SWAP1 POP SWAP2 SWAP1 POP JUMP JUMPDEST PUSH0 PUSH1 0x20 DUP3 ADD SWAP1 POP DUP2 DUP2 SUB PUSH0 DUP4 ADD MSTORE PUSH2 0x93C DUP2 PUSH2 0x903 JUMP JUMPDEST SWAP1 POP SWAP2 SWAP1 POP JUMP INVALID LOG2 PUSH5 0x6970667358 0x22 SLT KECCAK256 0xB8 DUP14 0xBB LOG4 0x4C PUSH19 0x91D1C24A248BA953EDDE4B9CFE82356C925212 0x1F SELFDESTRUCT PUSH29 0xA7FD4F5C64736F6C634300081C00330000000000000000000000000000 "
				},
				"gasEstimates": {
					"creation": {
						"codeDepositCost": "485000",
						"executionCost": "24780",
						"totalCost": "509780"
					},
					"external": {
						"depositEther(uint256)": "infinite",
						"getContractBalance()": "2612",
						"getDeopositInfo()": "infinite",
						"owner()": "2551",
						"withdrawEther()": "infinite"
					},
					"internal": {
						"onlyOwner()": "infinite"
					}
				},
				"methodIdentifiers": {
					"depositEther(uint256)": "26839f17",
					"getContractBalance()": "6f9fb98a",
					"getDeopositInfo()": "deab4e40",
					"owner()": "8da5cb5b",
					"withdrawEther()": "7362377b"
				}
			},
			"storageLayout": {
				"storage": [
					{
						"astId": 3,
						"contract": "contracts/SaveEther.sol:SaveEther",
						"label": "owner",
						"offset": 0,
						"slot": "0",
						"type": "t_address"
					},
					{
						"astId": 13,
						"contract": "contracts/SaveEther.sol:SaveEther",
						"label": "userInfo",
						"offset": 0,
						"slot": "1",
						"type": "t_mapping(t_address,t_struct(UserAccount)8_storage)"
					}
				],
				"types": {
					"t_address": {
						"encoding": "inplace",
						"label": "address",
						"numberOfBytes": "20"
					},
					"t_mapping(t_address,t_struct(UserAccount)8_storage)": {
						"encoding": "mapping",
						"key": "t_address",
						"label": "mapping(address => struct SaveEther.UserAccount)",
						"numberOfBytes": "32",
						"value": "t_struct(UserAccount)8_storage"
					},
					"t_struct(UserAccount)8_storage": {
						"encoding": "inplace",
						"label": "struct SaveEther.UserAccount",
						"members": [
							{
								"astId": 5,
								"contract": "contracts/SaveEther.sol:SaveEther",
								"label": "amount",
								"offset": 0,
								"slot": "0",
								"type": "t_uint256"
							},
							{
								"astId": 7,
								"contract": "contracts/SaveEther.sol:SaveEther",
								"label": "duration",
								"offset": 0,
								"slot": "1",
								"type": "t_uint256"
							}
						],
						"numberOfBytes": "64"
					},
					"t_uint256": {
						"encoding": "inplace",
						"label": "uint256",
						"numberOfBytes": "32"
					}
				}
			},
			"userdoc": {
				"kind": "user",
				"methods": {},
				"version": 1
			}
		}
	}
}