{
	"contracts/MultiSig.sol": {
		"MultiSig": {
			"abi": [
				{
					"inputs": [
						{
							"internalType": "address[]",
							"name": "_valdSigners",
							"type": "address[]"
						},
						{
							"internalType": "uint256",
							"name": "_quorum",
							"type": "uint256"
						}
					],
					"stateMutability": "nonpayable",
					"type": "constructor"
				},
				{
					"stateMutability": "payable",
					"type": "fallback"
				},
				{
					"inputs": [
						{
							"internalType": "address",
							"name": "_newSigner",
							"type": "address"
						}
					],
					"name": "addValidSigner",
					"outputs": [],
					"stateMutability": "nonpayable",
					"type": "function"
				},
				{
					"inputs": [
						{
							"internalType": "uint256",
							"name": "_txId",
							"type": "uint256"
						}
					],
					"name": "approveTransaction",
					"outputs": [],
					"stateMutability": "nonpayable",
					"type": "function"
				},
				{
					"inputs": [],
					"name": "claimOwnership",
					"outputs": [],
					"stateMutability": "nonpayable",
					"type": "function"
				},
				{
					"inputs": [],
					"name": "getAllTransactions",
					"outputs": [
						{
							"components": [
								{
									"internalType": "uint256",
									"name": "id",
									"type": "uint256"
								},
								{
									"internalType": "uint256",
									"name": "amount",
									"type": "uint256"
								},
								{
									"internalType": "address",
									"name": "receiver",
									"type": "address"
								},
								{
									"internalType": "uint256",
									"name": "signersCount",
									"type": "uint256"
								},
								{
									"internalType": "bool",
									"name": "isExecuted",
									"type": "bool"
								},
								{
									"internalType": "address",
									"name": "txCreator",
									"type": "address"
								}
							],
							"internalType": "struct MultiSig.Transaction[]",
							"name": "",
							"type": "tuple[]"
						}
					],
					"stateMutability": "view",
					"type": "function"
				},
				{
					"inputs": [
						{
							"internalType": "uint256",
							"name": "_amount",
							"type": "uint256"
						},
						{
							"internalType": "address",
							"name": "_receiver",
							"type": "address"
						}
					],
					"name": "initiateTransaction",
					"outputs": [],
					"stateMutability": "nonpayable",
					"type": "function"
				},
				{
					"inputs": [
						{
							"internalType": "uint256",
							"name": "_index",
							"type": "uint256"
						}
					],
					"name": "removeSigner",
					"outputs": [],
					"stateMutability": "nonpayable",
					"type": "function"
				},
				{
					"inputs": [
						{
							"internalType": "uint256",
							"name": "",
							"type": "uint256"
						}
					],
					"name": "signers",
					"outputs": [
						{
							"internalType": "address",
							"name": "",
							"type": "address"
						}
					],
					"stateMutability": "view",
					"type": "function"
				},
				{
					"inputs": [
						{
							"internalType": "address",
							"name": "_newOwner",
							"type": "address"
						}
					],
					"name": "transferOwnership",
					"outputs": [],
					"stateMutability": "nonpayable",
					"type": "function"
				},
				{
					"stateMutability": "payable",
					"type": "receive"
				}
			],
			"devdoc": {
				"kind": "dev",
				"methods": {},
				"version": 1
			},
			"evm": {
				"assembly": "    /* \"contracts/MultiSig.sol\":61:3792  contract MultiSig {... */\n  mstore(0x40, 0x80)\n    /* \"contracts/MultiSig.sol\":602:949  constructor(address[] memory _valdSigners, uint256 _quorum) {... */\n  callvalue\n  dup1\n  iszero\n  tag_1\n  jumpi\n  revert(0x00, 0x00)\ntag_1:\n  pop\n  mload(0x40)\n  sub(codesize, bytecodeSize)\n  dup1\n  bytecodeSize\n  dup4\n  codecopy\n  dup2\n  dup2\n  add\n  0x40\n  mstore\n  dup2\n  add\n  swap1\n  tag_2\n  swap2\n  swap1\n  tag_3\n  jump\t// in\ntag_2:\n    /* \"contracts/MultiSig.sol\":681:691  msg.sender */\n  caller\n    /* \"contracts/MultiSig.sol\":673:678  owner */\n  0x03\n  0x00\n    /* \"contracts/MultiSig.sol\":673:691  owner = msg.sender */\n  0x0100\n  exp\n  dup2\n  sload\n  dup2\n  0xffffffffffffffffffffffffffffffffffffffff\n  mul\n  not\n  and\n  swap1\n  dup4\n  0xffffffffffffffffffffffffffffffffffffffff\n  and\n  mul\n  or\n  swap1\n  sstore\n  pop\n    /* \"contracts/MultiSig.sol\":712:724  _valdSigners */\n  dup2\n    /* \"contracts/MultiSig.sol\":702:709  signers */\n  0x00\n    /* \"contracts/MultiSig.sol\":702:724  signers = _valdSigners */\n  swap1\n  dup1\n  mload\n  swap1\n  0x20\n  add\n  swap1\n  tag_6\n  swap3\n  swap2\n  swap1\n  tag_7\n  jump\t// in\ntag_6:\n  pop\n    /* \"contracts/MultiSig.sol\":744:751  _quorum */\n  dup1\n    /* \"contracts/MultiSig.sol\":735:741  quorum */\n  0x01\n    /* \"contracts/MultiSig.sol\":735:751  quorum = _quorum */\n  dup2\n  swap1\n  sstore\n  pop\n    /* \"contracts/MultiSig.sol\":769:776  uint8 i */\n  0x00\n    /* \"contracts/MultiSig.sol\":779:780  0 */\n  0x00\n    /* \"contracts/MultiSig.sol\":769:780  uint8 i = 0 */\n  swap1\n  pop\n    /* \"contracts/MultiSig.sol\":764:942  for (uint8 i = 0; i < _valdSigners.length; i++) {... */\ntag_8:\n    /* \"contracts/MultiSig.sol\":786:798  _valdSigners */\n  dup3\n    /* \"contracts/MultiSig.sol\":786:805  _valdSigners.length */\n  mload\n    /* \"contracts/MultiSig.sol\":782:783  i */\n  dup2\n    /* \"contracts/MultiSig.sol\":782:805  i < _valdSigners.length */\n  0xff\n  and\n  lt\n    /* \"contracts/MultiSig.sol\":764:942  for (uint8 i = 0; i < _valdSigners.length; i++) {... */\n  iszero\n  tag_9\n  jumpi\n    /* \"contracts/MultiSig.sol\":862:863  0 */\n  0x00\n    /* \"contracts/MultiSig.sol\":835:864  _valdSigners[i] != address(0) */\n  0xffffffffffffffffffffffffffffffffffffffff\n  and\n    /* \"contracts/MultiSig.sol\":835:847  _valdSigners */\n  dup4\n    /* \"contracts/MultiSig.sol\":848:849  i */\n  dup3\n    /* \"contracts/MultiSig.sol\":835:850  _valdSigners[i] */\n  0xff\n  and\n  dup2\n  mload\n  dup2\n  lt\n  tag_11\n  jumpi\n  tag_12\n  tag_13\n  jump\t// in\ntag_12:\ntag_11:\n  0x20\n  mul\n  0x20\n  add\n  add\n  mload\n    /* \"contracts/MultiSig.sol\":835:864  _valdSigners[i] != address(0) */\n  0xffffffffffffffffffffffffffffffffffffffff\n  and\n  sub\n    /* \"contracts/MultiSig.sol\":827:876  require(_valdSigners[i] != address(0), \"get out\") */\n  tag_14\n  jumpi\n  mload(0x40)\n  0x08c379a000000000000000000000000000000000000000000000000000000000\n  dup2\n  mstore\n  0x04\n  add\n  tag_15\n  swap1\n  tag_16\n  jump\t// in\ntag_15:\n  mload(0x40)\n  dup1\n  swap2\n  sub\n  swap1\n  revert\ntag_14:\n    /* \"contracts/MultiSig.sol\":926:930  true */\n  0x01\n    /* \"contracts/MultiSig.sol\":893:906  isValidSigner */\n  0x08\n    /* \"contracts/MultiSig.sol\":893:923  isValidSigner[_valdSigners[i]] */\n  0x00\n    /* \"contracts/MultiSig.sol\":907:919  _valdSigners */\n  dup6\n    /* \"contracts/MultiSig.sol\":920:921  i */\n  dup5\n    /* \"contracts/MultiSig.sol\":907:922  _valdSigners[i] */\n  0xff\n  and\n  dup2\n  mload\n  dup2\n  lt\n  tag_17\n  jumpi\n  tag_18\n  tag_13\n  jump\t// in\ntag_18:\ntag_17:\n  0x20\n  mul\n  0x20\n  add\n  add\n  mload\n    /* \"contracts/MultiSig.sol\":893:923  isValidSigner[_valdSigners[i]] */\n  0xffffffffffffffffffffffffffffffffffffffff\n  and\n  0xffffffffffffffffffffffffffffffffffffffff\n  and\n  dup2\n  mstore\n  0x20\n  add\n  swap1\n  dup2\n  mstore\n  0x20\n  add\n  0x00\n  keccak256\n  0x00\n    /* \"contracts/MultiSig.sol\":893:930  isValidSigner[_valdSigners[i]] = true */\n  0x0100\n  exp\n  dup2\n  sload\n  dup2\n  0xff\n  mul\n  not\n  and\n  swap1\n  dup4\n  iszero\n  iszero\n  mul\n  or\n  swap1\n  sstore\n  pop\n    /* \"contracts/MultiSig.sol\":807:810  i++ */\n  dup1\n  dup1\n  tag_19\n  swap1\n  tag_20\n  jump\t// in\ntag_19:\n  swap2\n  pop\n  pop\n    /* \"contracts/MultiSig.sol\":764:942  for (uint8 i = 0; i < _valdSigners.length; i++) {... */\n  jump(tag_8)\ntag_9:\n  pop\n    /* \"contracts/MultiSig.sol\":602:949  constructor(address[] memory _valdSigners, uint256 _quorum) {... */\n  pop\n  pop\n    /* \"contracts/MultiSig.sol\":61:3792  contract MultiSig {... */\n  jump(tag_21)\ntag_7:\n  dup3\n  dup1\n  sload\n  dup3\n  dup3\n  sstore\n  swap1\n  0x00\n  mstore\n  keccak256(0x00, 0x20)\n  swap1\n  dup2\n  add\n  swap3\n  dup3\n  iszero\n  tag_22\n  jumpi\n  swap2\n  0x20\n  mul\n  dup3\n  add\ntag_23:\n  dup3\n  dup2\n  gt\n  iszero\n  tag_24\n  jumpi\n  dup3\n  mload\n  dup3\n  exp(0x0100, 0x00)\n  dup2\n  sload\n  dup2\n  0xffffffffffffffffffffffffffffffffffffffff\n  mul\n  not\n  and\n  swap1\n  dup4\n  0xffffffffffffffffffffffffffffffffffffffff\n  and\n  mul\n  or\n  swap1\n  sstore\n  pop\n  swap2\n  0x20\n  add\n  swap2\n  swap1\n  0x01\n  add\n  swap1\n  jump(tag_23)\ntag_24:\ntag_22:\n  pop\n  swap1\n  pop\n  tag_25\n  swap2\n  swap1\n  tag_26\n  jump\t// in\ntag_25:\n  pop\n  swap1\n  jump\t// out\ntag_26:\ntag_27:\n  dup1\n  dup3\n  gt\n  iszero\n  tag_28\n  jumpi\n  0x00\n  dup2\n  0x00\n  swap1\n  sstore\n  pop\n  0x01\n  add\n  jump(tag_27)\ntag_28:\n  pop\n  swap1\n  jump\t// out\n    /* \"#utility.yul\":7:82   */\ntag_29:\n    /* \"#utility.yul\":40:46   */\n  0x00\n    /* \"#utility.yul\":73:75   */\n  0x40\n    /* \"#utility.yul\":67:76   */\n  mload\n    /* \"#utility.yul\":57:76   */\n  swap1\n  pop\n    /* \"#utility.yul\":7:82   */\n  swap1\n  jump\t// out\n    /* \"#utility.yul\":88:205   */\ntag_30:\n    /* \"#utility.yul\":197:198   */\n  0x00\n    /* \"#utility.yul\":194:195   */\n  0x00\n    /* \"#utility.yul\":187:199   */\n  revert\n    /* \"#utility.yul\":211:328   */\ntag_31:\n    /* \"#utility.yul\":320:321   */\n  0x00\n    /* \"#utility.yul\":317:318   */\n  0x00\n    /* \"#utility.yul\":310:322   */\n  revert\n    /* \"#utility.yul\":334:451   */\ntag_32:\n    /* \"#utility.yul\":443:444   */\n  0x00\n    /* \"#utility.yul\":440:441   */\n  0x00\n    /* \"#utility.yul\":433:445   */\n  revert\n    /* \"#utility.yul\":457:559   */\ntag_33:\n    /* \"#utility.yul\":498:504   */\n  0x00\n    /* \"#utility.yul\":549:551   */\n  0x1f\n    /* \"#utility.yul\":545:552   */\n  not\n    /* \"#utility.yul\":540:542   */\n  0x1f\n    /* \"#utility.yul\":533:538   */\n  dup4\n    /* \"#utility.yul\":529:543   */\n  add\n    /* \"#utility.yul\":525:553   */\n  and\n    /* \"#utility.yul\":515:553   */\n  swap1\n  pop\n    /* \"#utility.yul\":457:559   */\n  swap2\n  swap1\n  pop\n  jump\t// out\n    /* \"#utility.yul\":565:745   */\ntag_34:\n    /* \"#utility.yul\":613:690   */\n  0x4e487b7100000000000000000000000000000000000000000000000000000000\n    /* \"#utility.yul\":610:611   */\n  0x00\n    /* \"#utility.yul\":603:691   */\n  mstore\n    /* \"#utility.yul\":710:714   */\n  0x41\n    /* \"#utility.yul\":707:708   */\n  0x04\n    /* \"#utility.yul\":700:715   */\n  mstore\n    /* \"#utility.yul\":734:738   */\n  0x24\n    /* \"#utility.yul\":731:732   */\n  0x00\n    /* \"#utility.yul\":724:739   */\n  revert\n    /* \"#utility.yul\":751:1032   */\ntag_35:\n    /* \"#utility.yul\":834:861   */\n  tag_61\n    /* \"#utility.yul\":856:860   */\n  dup3\n    /* \"#utility.yul\":834:861   */\n  tag_33\n  jump\t// in\ntag_61:\n    /* \"#utility.yul\":826:832   */\n  dup2\n    /* \"#utility.yul\":822:862   */\n  add\n    /* \"#utility.yul\":964:970   */\n  dup2\n    /* \"#utility.yul\":952:962   */\n  dup2\n    /* \"#utility.yul\":949:971   */\n  lt\n    /* \"#utility.yul\":928:946   */\n  0xffffffffffffffff\n    /* \"#utility.yul\":916:926   */\n  dup3\n    /* \"#utility.yul\":913:947   */\n  gt\n    /* \"#utility.yul\":910:972   */\n  or\n    /* \"#utility.yul\":907:995   */\n  iszero\n  tag_62\n  jumpi\n    /* \"#utility.yul\":975:993   */\n  tag_63\n  tag_34\n  jump\t// in\ntag_63:\n    /* \"#utility.yul\":907:995   */\ntag_62:\n    /* \"#utility.yul\":1015:1025   */\n  dup1\n    /* \"#utility.yul\":1011:1013   */\n  0x40\n    /* \"#utility.yul\":1004:1026   */\n  mstore\n    /* \"#utility.yul\":794:1032   */\n  pop\n    /* \"#utility.yul\":751:1032   */\n  pop\n  pop\n  jump\t// out\n    /* \"#utility.yul\":1038:1167   */\ntag_36:\n    /* \"#utility.yul\":1072:1078   */\n  0x00\n    /* \"#utility.yul\":1099:1119   */\n  tag_65\n  tag_29\n  jump\t// in\ntag_65:\n    /* \"#utility.yul\":1089:1119   */\n  swap1\n  pop\n    /* \"#utility.yul\":1128:1161   */\n  tag_66\n    /* \"#utility.yul\":1156:1160   */\n  dup3\n    /* \"#utility.yul\":1148:1154   */\n  dup3\n    /* \"#utility.yul\":1128:1161   */\n  tag_35\n  jump\t// in\ntag_66:\n    /* \"#utility.yul\":1038:1167   */\n  swap2\n  swap1\n  pop\n  jump\t// out\n    /* \"#utility.yul\":1173:1484   */\ntag_37:\n    /* \"#utility.yul\":1250:1254   */\n  0x00\n    /* \"#utility.yul\":1340:1358   */\n  0xffffffffffffffff\n    /* \"#utility.yul\":1332:1338   */\n  dup3\n    /* \"#utility.yul\":1329:1359   */\n  gt\n    /* \"#utility.yul\":1326:1382   */\n  iszero\n  tag_68\n  jumpi\n    /* \"#utility.yul\":1362:1380   */\n  tag_69\n  tag_34\n  jump\t// in\ntag_69:\n    /* \"#utility.yul\":1326:1382   */\ntag_68:\n    /* \"#utility.yul\":1412:1416   */\n  0x20\n    /* \"#utility.yul\":1404:1410   */\n  dup3\n    /* \"#utility.yul\":1400:1417   */\n  mul\n    /* \"#utility.yul\":1392:1417   */\n  swap1\n  pop\n    /* \"#utility.yul\":1472:1476   */\n  0x20\n    /* \"#utility.yul\":1466:1470   */\n  dup2\n    /* \"#utility.yul\":1462:1477   */\n  add\n    /* \"#utility.yul\":1454:1477   */\n  swap1\n  pop\n    /* \"#utility.yul\":1173:1484   */\n  swap2\n  swap1\n  pop\n  jump\t// out\n    /* \"#utility.yul\":1490:1607   */\ntag_38:\n    /* \"#utility.yul\":1599:1600   */\n  0x00\n    /* \"#utility.yul\":1596:1597   */\n  0x00\n    /* \"#utility.yul\":1589:1601   */\n  revert\n    /* \"#utility.yul\":1613:1739   */\ntag_39:\n    /* \"#utility.yul\":1650:1657   */\n  0x00\n    /* \"#utility.yul\":1690:1732   */\n  0xffffffffffffffffffffffffffffffffffffffff\n    /* \"#utility.yul\":1683:1688   */\n  dup3\n    /* \"#utility.yul\":1679:1733   */\n  and\n    /* \"#utility.yul\":1668:1733   */\n  swap1\n  pop\n    /* \"#utility.yul\":1613:1739   */\n  swap2\n  swap1\n  pop\n  jump\t// out\n    /* \"#utility.yul\":1745:1841   */\ntag_40:\n    /* \"#utility.yul\":1782:1789   */\n  0x00\n    /* \"#utility.yul\":1811:1835   */\n  tag_73\n    /* \"#utility.yul\":1829:1834   */\n  dup3\n    /* \"#utility.yul\":1811:1835   */\n  tag_39\n  jump\t// in\ntag_73:\n    /* \"#utility.yul\":1800:1835   */\n  swap1\n  pop\n    /* \"#utility.yul\":1745:1841   */\n  swap2\n  swap1\n  pop\n  jump\t// out\n    /* \"#utility.yul\":1847:1969   */\ntag_41:\n    /* \"#utility.yul\":1920:1944   */\n  tag_75\n    /* \"#utility.yul\":1938:1943   */\n  dup2\n    /* \"#utility.yul\":1920:1944   */\n  tag_40\n  jump\t// in\ntag_75:\n    /* \"#utility.yul\":1913:1918   */\n  dup2\n    /* \"#utility.yul\":1910:1945   */\n  eq\n    /* \"#utility.yul\":1900:1963   */\n  tag_76\n  jumpi\n    /* \"#utility.yul\":1959:1960   */\n  0x00\n    /* \"#utility.yul\":1956:1957   */\n  0x00\n    /* \"#utility.yul\":1949:1961   */\n  revert\n    /* \"#utility.yul\":1900:1963   */\ntag_76:\n    /* \"#utility.yul\":1847:1969   */\n  pop\n  jump\t// out\n    /* \"#utility.yul\":1975:2118   */\ntag_42:\n    /* \"#utility.yul\":2032:2037   */\n  0x00\n    /* \"#utility.yul\":2063:2069   */\n  dup2\n    /* \"#utility.yul\":2057:2070   */\n  mload\n    /* \"#utility.yul\":2048:2070   */\n  swap1\n  pop\n    /* \"#utility.yul\":2079:2112   */\n  tag_78\n    /* \"#utility.yul\":2106:2111   */\n  dup2\n    /* \"#utility.yul\":2079:2112   */\n  tag_41\n  jump\t// in\ntag_78:\n    /* \"#utility.yul\":1975:2118   */\n  swap3\n  swap2\n  pop\n  pop\n  jump\t// out\n    /* \"#utility.yul\":2141:2873   */\ntag_43:\n    /* \"#utility.yul\":2248:2253   */\n  0x00\n    /* \"#utility.yul\":2273:2354   */\n  tag_80\n    /* \"#utility.yul\":2289:2353   */\n  tag_81\n    /* \"#utility.yul\":2346:2352   */\n  dup5\n    /* \"#utility.yul\":2289:2353   */\n  tag_37\n  jump\t// in\ntag_81:\n    /* \"#utility.yul\":2273:2354   */\n  tag_36\n  jump\t// in\ntag_80:\n    /* \"#utility.yul\":2264:2354   */\n  swap1\n  pop\n    /* \"#utility.yul\":2374:2379   */\n  dup1\n    /* \"#utility.yul\":2403:2409   */\n  dup4\n    /* \"#utility.yul\":2396:2401   */\n  dup3\n    /* \"#utility.yul\":2389:2410   */\n  mstore\n    /* \"#utility.yul\":2437:2441   */\n  0x20\n    /* \"#utility.yul\":2430:2435   */\n  dup3\n    /* \"#utility.yul\":2426:2442   */\n  add\n    /* \"#utility.yul\":2419:2442   */\n  swap1\n  pop\n    /* \"#utility.yul\":2490:2494   */\n  0x20\n    /* \"#utility.yul\":2482:2488   */\n  dup5\n    /* \"#utility.yul\":2478:2495   */\n  mul\n    /* \"#utility.yul\":2470:2476   */\n  dup4\n    /* \"#utility.yul\":2466:2496   */\n  add\n    /* \"#utility.yul\":2519:2522   */\n  dup6\n    /* \"#utility.yul\":2511:2517   */\n  dup2\n    /* \"#utility.yul\":2508:2523   */\n  gt\n    /* \"#utility.yul\":2505:2627   */\n  iszero\n  tag_82\n  jumpi\n    /* \"#utility.yul\":2538:2617   */\n  tag_83\n  tag_38\n  jump\t// in\ntag_83:\n    /* \"#utility.yul\":2505:2627   */\ntag_82:\n    /* \"#utility.yul\":2653:2659   */\n  dup4\n    /* \"#utility.yul\":2636:2867   */\ntag_84:\n    /* \"#utility.yul\":2670:2676   */\n  dup2\n    /* \"#utility.yul\":2665:2668   */\n  dup2\n    /* \"#utility.yul\":2662:2677   */\n  lt\n    /* \"#utility.yul\":2636:2867   */\n  iszero\n  tag_86\n  jumpi\n    /* \"#utility.yul\":2745:2748   */\n  dup1\n    /* \"#utility.yul\":2774:2822   */\n  tag_87\n    /* \"#utility.yul\":2818:2821   */\n  dup9\n    /* \"#utility.yul\":2806:2816   */\n  dup3\n    /* \"#utility.yul\":2774:2822   */\n  tag_42\n  jump\t// in\ntag_87:\n    /* \"#utility.yul\":2769:2772   */\n  dup5\n    /* \"#utility.yul\":2762:2823   */\n  mstore\n    /* \"#utility.yul\":2852:2856   */\n  0x20\n    /* \"#utility.yul\":2847:2850   */\n  dup5\n    /* \"#utility.yul\":2843:2857   */\n  add\n    /* \"#utility.yul\":2836:2857   */\n  swap4\n  pop\n    /* \"#utility.yul\":2712:2867   */\n  pop\n    /* \"#utility.yul\":2696:2700   */\n  0x20\n    /* \"#utility.yul\":2691:2694   */\n  dup2\n    /* \"#utility.yul\":2687:2701   */\n  add\n    /* \"#utility.yul\":2680:2701   */\n  swap1\n  pop\n    /* \"#utility.yul\":2636:2867   */\n  jump(tag_84)\ntag_86:\n    /* \"#utility.yul\":2640:2661   */\n  pop\n    /* \"#utility.yul\":2254:2873   */\n  pop\n  pop\n    /* \"#utility.yul\":2141:2873   */\n  swap4\n  swap3\n  pop\n  pop\n  pop\n  jump\t// out\n    /* \"#utility.yul\":2896:3281   */\ntag_44:\n    /* \"#utility.yul\":2978:2983   */\n  0x00\n    /* \"#utility.yul\":3027:3030   */\n  dup3\n    /* \"#utility.yul\":3020:3024   */\n  0x1f\n    /* \"#utility.yul\":3012:3018   */\n  dup4\n    /* \"#utility.yul\":3008:3025   */\n  add\n    /* \"#utility.yul\":3004:3031   */\n  slt\n    /* \"#utility.yul\":2994:3116   */\n  tag_89\n  jumpi\n    /* \"#utility.yul\":3035:3114   */\n  tag_90\n  tag_32\n  jump\t// in\ntag_90:\n    /* \"#utility.yul\":2994:3116   */\ntag_89:\n    /* \"#utility.yul\":3145:3151   */\n  dup2\n    /* \"#utility.yul\":3139:3152   */\n  mload\n    /* \"#utility.yul\":3170:3275   */\n  tag_91\n    /* \"#utility.yul\":3271:3274   */\n  dup5\n    /* \"#utility.yul\":3263:3269   */\n  dup3\n    /* \"#utility.yul\":3256:3260   */\n  0x20\n    /* \"#utility.yul\":3248:3254   */\n  dup7\n    /* \"#utility.yul\":3244:3261   */\n  add\n    /* \"#utility.yul\":3170:3275   */\n  tag_43\n  jump\t// in\ntag_91:\n    /* \"#utility.yul\":3161:3275   */\n  swap2\n  pop\n    /* \"#utility.yul\":2984:3281   */\n  pop\n    /* \"#utility.yul\":2896:3281   */\n  swap3\n  swap2\n  pop\n  pop\n  jump\t// out\n    /* \"#utility.yul\":3287:3364   */\ntag_45:\n    /* \"#utility.yul\":3324:3331   */\n  0x00\n    /* \"#utility.yul\":3353:3358   */\n  dup2\n    /* \"#utility.yul\":3342:3358   */\n  swap1\n  pop\n    /* \"#utility.yul\":3287:3364   */\n  swap2\n  swap1\n  pop\n  jump\t// out\n    /* \"#utility.yul\":3370:3492   */\ntag_46:\n    /* \"#utility.yul\":3443:3467   */\n  tag_94\n    /* \"#utility.yul\":3461:3466   */\n  dup2\n    /* \"#utility.yul\":3443:3467   */\n  tag_45\n  jump\t// in\ntag_94:\n    /* \"#utility.yul\":3436:3441   */\n  dup2\n    /* \"#utility.yul\":3433:3468   */\n  eq\n    /* \"#utility.yul\":3423:3486   */\n  tag_95\n  jumpi\n    /* \"#utility.yul\":3482:3483   */\n  0x00\n    /* \"#utility.yul\":3479:3480   */\n  0x00\n    /* \"#utility.yul\":3472:3484   */\n  revert\n    /* \"#utility.yul\":3423:3486   */\ntag_95:\n    /* \"#utility.yul\":3370:3492   */\n  pop\n  jump\t// out\n    /* \"#utility.yul\":3498:3641   */\ntag_47:\n    /* \"#utility.yul\":3555:3560   */\n  0x00\n    /* \"#utility.yul\":3586:3592   */\n  dup2\n    /* \"#utility.yul\":3580:3593   */\n  mload\n    /* \"#utility.yul\":3571:3593   */\n  swap1\n  pop\n    /* \"#utility.yul\":3602:3635   */\n  tag_97\n    /* \"#utility.yul\":3629:3634   */\n  dup2\n    /* \"#utility.yul\":3602:3635   */\n  tag_46\n  jump\t// in\ntag_97:\n    /* \"#utility.yul\":3498:3641   */\n  swap3\n  swap2\n  pop\n  pop\n  jump\t// out\n    /* \"#utility.yul\":3647:4357   */\ntag_3:\n    /* \"#utility.yul\":3751:3757   */\n  0x00\n    /* \"#utility.yul\":3759:3765   */\n  0x00\n    /* \"#utility.yul\":3808:3810   */\n  0x40\n    /* \"#utility.yul\":3796:3805   */\n  dup4\n    /* \"#utility.yul\":3787:3794   */\n  dup6\n    /* \"#utility.yul\":3783:3806   */\n  sub\n    /* \"#utility.yul\":3779:3811   */\n  slt\n    /* \"#utility.yul\":3776:3895   */\n  iszero\n  tag_99\n  jumpi\n    /* \"#utility.yul\":3814:3893   */\n  tag_100\n  tag_30\n  jump\t// in\ntag_100:\n    /* \"#utility.yul\":3776:3895   */\ntag_99:\n    /* \"#utility.yul\":3955:3956   */\n  0x00\n    /* \"#utility.yul\":3944:3953   */\n  dup4\n    /* \"#utility.yul\":3940:3957   */\n  add\n    /* \"#utility.yul\":3934:3958   */\n  mload\n    /* \"#utility.yul\":3985:4003   */\n  0xffffffffffffffff\n    /* \"#utility.yul\":3977:3983   */\n  dup2\n    /* \"#utility.yul\":3974:4004   */\n  gt\n    /* \"#utility.yul\":3971:4088   */\n  iszero\n  tag_101\n  jumpi\n    /* \"#utility.yul\":4007:4086   */\n  tag_102\n  tag_31\n  jump\t// in\ntag_102:\n    /* \"#utility.yul\":3971:4088   */\ntag_101:\n    /* \"#utility.yul\":4112:4201   */\n  tag_103\n    /* \"#utility.yul\":4193:4200   */\n  dup6\n    /* \"#utility.yul\":4184:4190   */\n  dup3\n    /* \"#utility.yul\":4173:4182   */\n  dup7\n    /* \"#utility.yul\":4169:4191   */\n  add\n    /* \"#utility.yul\":4112:4201   */\n  tag_44\n  jump\t// in\ntag_103:\n    /* \"#utility.yul\":4102:4201   */\n  swap3\n  pop\n    /* \"#utility.yul\":3905:4211   */\n  pop\n    /* \"#utility.yul\":4250:4252   */\n  0x20\n    /* \"#utility.yul\":4276:4340   */\n  tag_104\n    /* \"#utility.yul\":4332:4339   */\n  dup6\n    /* \"#utility.yul\":4323:4329   */\n  dup3\n    /* \"#utility.yul\":4312:4321   */\n  dup7\n    /* \"#utility.yul\":4308:4330   */\n  add\n    /* \"#utility.yul\":4276:4340   */\n  tag_47\n  jump\t// in\ntag_104:\n    /* \"#utility.yul\":4266:4340   */\n  swap2\n  pop\n    /* \"#utility.yul\":4221:4350   */\n  pop\n    /* \"#utility.yul\":3647:4357   */\n  swap3\n  pop\n  swap3\n  swap1\n  pop\n  jump\t// out\n    /* \"#utility.yul\":4363:4543   */\ntag_13:\n    /* \"#utility.yul\":4411:4488   */\n  0x4e487b7100000000000000000000000000000000000000000000000000000000\n    /* \"#utility.yul\":4408:4409   */\n  0x00\n    /* \"#utility.yul\":4401:4489   */\n  mstore\n    /* \"#utility.yul\":4508:4512   */\n  0x32\n    /* \"#utility.yul\":4505:4506   */\n  0x04\n    /* \"#utility.yul\":4498:4513   */\n  mstore\n    /* \"#utility.yul\":4532:4536   */\n  0x24\n    /* \"#utility.yul\":4529:4530   */\n  0x00\n    /* \"#utility.yul\":4522:4537   */\n  revert\n    /* \"#utility.yul\":4549:4718   */\ntag_48:\n    /* \"#utility.yul\":4633:4644   */\n  0x00\n    /* \"#utility.yul\":4667:4673   */\n  dup3\n    /* \"#utility.yul\":4662:4665   */\n  dup3\n    /* \"#utility.yul\":4655:4674   */\n  mstore\n    /* \"#utility.yul\":4707:4711   */\n  0x20\n    /* \"#utility.yul\":4702:4705   */\n  dup3\n    /* \"#utility.yul\":4698:4712   */\n  add\n    /* \"#utility.yul\":4683:4712   */\n  swap1\n  pop\n    /* \"#utility.yul\":4549:4718   */\n  swap3\n  swap2\n  pop\n  pop\n  jump\t// out\n    /* \"#utility.yul\":4724:4881   */\ntag_49:\n    /* \"#utility.yul\":4864:4873   */\n  0x676574206f757400000000000000000000000000000000000000000000000000\n    /* \"#utility.yul\":4860:4861   */\n  0x00\n    /* \"#utility.yul\":4852:4858   */\n  dup3\n    /* \"#utility.yul\":4848:4862   */\n  add\n    /* \"#utility.yul\":4841:4874   */\n  mstore\n    /* \"#utility.yul\":4724:4881   */\n  pop\n  jump\t// out\n    /* \"#utility.yul\":4887:5252   */\ntag_50:\n    /* \"#utility.yul\":5029:5032   */\n  0x00\n    /* \"#utility.yul\":5050:5116   */\n  tag_109\n    /* \"#utility.yul\":5114:5115   */\n  0x07\n    /* \"#utility.yul\":5109:5112   */\n  dup4\n    /* \"#utility.yul\":5050:5116   */\n  tag_48\n  jump\t// in\ntag_109:\n    /* \"#utility.yul\":5043:5116   */\n  swap2\n  pop\n    /* \"#utility.yul\":5125:5218   */\n  tag_110\n    /* \"#utility.yul\":5214:5217   */\n  dup3\n    /* \"#utility.yul\":5125:5218   */\n  tag_49\n  jump\t// in\ntag_110:\n    /* \"#utility.yul\":5243:5245   */\n  0x20\n    /* \"#utility.yul\":5238:5241   */\n  dup3\n    /* \"#utility.yul\":5234:5246   */\n  add\n    /* \"#utility.yul\":5227:5246   */\n  swap1\n  pop\n    /* \"#utility.yul\":4887:5252   */\n  swap2\n  swap1\n  pop\n  jump\t// out\n    /* \"#utility.yul\":5258:5677   */\ntag_16:\n    /* \"#utility.yul\":5424:5428   */\n  0x00\n    /* \"#utility.yul\":5462:5464   */\n  0x20\n    /* \"#utility.yul\":5451:5460   */\n  dup3\n    /* \"#utility.yul\":5447:5465   */\n  add\n    /* \"#utility.yul\":5439:5465   */\n  swap1\n  pop\n    /* \"#utility.yul\":5511:5520   */\n  dup2\n    /* \"#utility.yul\":5505:5509   */\n  dup2\n    /* \"#utility.yul\":5501:5521   */\n  sub\n    /* \"#utility.yul\":5497:5498   */\n  0x00\n    /* \"#utility.yul\":5486:5495   */\n  dup4\n    /* \"#utility.yul\":5482:5499   */\n  add\n    /* \"#utility.yul\":5475:5522   */\n  mstore\n    /* \"#utility.yul\":5539:5670   */\n  tag_112\n    /* \"#utility.yul\":5665:5669   */\n  dup2\n    /* \"#utility.yul\":5539:5670   */\n  tag_50\n  jump\t// in\ntag_112:\n    /* \"#utility.yul\":5531:5670   */\n  swap1\n  pop\n    /* \"#utility.yul\":5258:5677   */\n  swap2\n  swap1\n  pop\n  jump\t// out\n    /* \"#utility.yul\":5683:5863   */\ntag_51:\n    /* \"#utility.yul\":5731:5808   */\n  0x4e487b7100000000000000000000000000000000000000000000000000000000\n    /* \"#utility.yul\":5728:5729   */\n  0x00\n    /* \"#utility.yul\":5721:5809   */\n  mstore\n    /* \"#utility.yul\":5828:5832   */\n  0x11\n    /* \"#utility.yul\":5825:5826   */\n  0x04\n    /* \"#utility.yul\":5818:5833   */\n  mstore\n    /* \"#utility.yul\":5852:5856   */\n  0x24\n    /* \"#utility.yul\":5849:5850   */\n  0x00\n    /* \"#utility.yul\":5842:5857   */\n  revert\n    /* \"#utility.yul\":5869:5955   */\ntag_52:\n    /* \"#utility.yul\":5904:5911   */\n  0x00\n    /* \"#utility.yul\":5944:5948   */\n  0xff\n    /* \"#utility.yul\":5937:5942   */\n  dup3\n    /* \"#utility.yul\":5933:5949   */\n  and\n    /* \"#utility.yul\":5922:5949   */\n  swap1\n  pop\n    /* \"#utility.yul\":5869:5955   */\n  swap2\n  swap1\n  pop\n  jump\t// out\n    /* \"#utility.yul\":5961:6128   */\ntag_20:\n    /* \"#utility.yul\":5998:6001   */\n  0x00\n    /* \"#utility.yul\":6021:6043   */\n  tag_116\n    /* \"#utility.yul\":6037:6042   */\n  dup3\n    /* \"#utility.yul\":6021:6043   */\n  tag_52\n  jump\t// in\ntag_116:\n    /* \"#utility.yul\":6012:6043   */\n  swap2\n  pop\n    /* \"#utility.yul\":6065:6069   */\n  0xff\n    /* \"#utility.yul\":6058:6063   */\n  dup3\n    /* \"#utility.yul\":6055:6070   */\n  sub\n    /* \"#utility.yul\":6052:6093   */\n  tag_117\n  jumpi\n    /* \"#utility.yul\":6073:6091   */\n  tag_118\n  tag_51\n  jump\t// in\ntag_118:\n    /* \"#utility.yul\":6052:6093   */\ntag_117:\n    /* \"#utility.yul\":6120:6121   */\n  0x01\n    /* \"#utility.yul\":6113:6118   */\n  dup3\n    /* \"#utility.yul\":6109:6122   */\n  add\n    /* \"#utility.yul\":6102:6122   */\n  swap1\n  pop\n    /* \"#utility.yul\":5961:6128   */\n  swap2\n  swap1\n  pop\n  jump\t// out\n    /* \"contracts/MultiSig.sol\":61:3792  contract MultiSig {... */\ntag_21:\n  dataSize(sub_0)\n  dup1\n  dataOffset(sub_0)\n  0x00\n  codecopy\n  0x00\n  return\nstop\n\nsub_0: assembly {\n        /* \"contracts/MultiSig.sol\":61:3792  contract MultiSig {... */\n      mstore(0x40, 0x80)\n      jumpi(tag_1, lt(calldatasize, 0x04))\n      shr(0xe0, calldataload(0x00))\n      dup1\n      0x5ffde144\n      gt\n      tag_11\n      jumpi\n      dup1\n      0x5ffde144\n      eq\n      tag_7\n      jumpi\n      dup1\n      0xde8ee817\n      eq\n      tag_8\n      jumpi\n      dup1\n      0xe42bb8aa\n      eq\n      tag_9\n      jumpi\n      dup1\n      0xf2fde38b\n      eq\n      tag_10\n      jumpi\n      jump(tag_2)\n    tag_11:\n      dup1\n      0x2079fb9a\n      eq\n      tag_3\n      jumpi\n      dup1\n      0x242232d1\n      eq\n      tag_4\n      jumpi\n      dup1\n      0x27506f53\n      eq\n      tag_5\n      jumpi\n      dup1\n      0x4e71e0c8\n      eq\n      tag_6\n      jumpi\n      jump(tag_2)\n    tag_1:\n    tag_2:\n      stop\n        /* \"contracts/MultiSig.sol\":86:110  address[] public signers */\n    tag_3:\n      callvalue\n      dup1\n      iszero\n      tag_16\n      jumpi\n      revert(0x00, 0x00)\n    tag_16:\n      pop\n      tag_17\n      0x04\n      dup1\n      calldatasize\n      sub\n      dup2\n      add\n      swap1\n      tag_18\n      swap2\n      swap1\n      tag_19\n      jump\t// in\n    tag_18:\n      tag_20\n      jump\t// in\n    tag_17:\n      mload(0x40)\n      tag_21\n      swap2\n      swap1\n      tag_22\n      jump\t// in\n    tag_21:\n      mload(0x40)\n      dup1\n      swap2\n      sub\n      swap1\n      return\n        /* \"contracts/MultiSig.sol\":1596:2456  function approveTransaction(uint256 _txId) external {... */\n    tag_4:\n      callvalue\n      dup1\n      iszero\n      tag_23\n      jumpi\n      revert(0x00, 0x00)\n    tag_23:\n      pop\n      tag_24\n      0x04\n      dup1\n      calldatasize\n      sub\n      dup2\n      add\n      swap1\n      tag_25\n      swap2\n      swap1\n      tag_19\n      jump\t// in\n    tag_25:\n      tag_26\n      jump\t// in\n    tag_24:\n      stop\n        /* \"contracts/MultiSig.sol\":3287:3403  function getAllTransactions() external view returns (Transaction[] memory) {... */\n    tag_5:\n      callvalue\n      dup1\n      iszero\n      tag_27\n      jumpi\n      revert(0x00, 0x00)\n    tag_27:\n      pop\n      tag_28\n      tag_29\n      jump\t// in\n    tag_28:\n      mload(0x40)\n      tag_30\n      swap2\n      swap1\n      tag_31\n      jump\t// in\n    tag_30:\n      mload(0x40)\n      dup1\n      swap2\n      sub\n      swap1\n      return\n        /* \"contracts/MultiSig.sol\":2591:2759  function claimOwnership() external {... */\n    tag_6:\n      callvalue\n      dup1\n      iszero\n      tag_32\n      jumpi\n      revert(0x00, 0x00)\n    tag_32:\n      pop\n      tag_33\n      tag_34\n      jump\t// in\n    tag_33:\n      stop\n        /* \"contracts/MultiSig.sol\":3010:3279  function removeSigner(uint _index) external {... */\n    tag_7:\n      callvalue\n      dup1\n      iszero\n      tag_35\n      jumpi\n      revert(0x00, 0x00)\n    tag_35:\n      pop\n      tag_36\n      0x04\n      dup1\n      calldatasize\n      sub\n      dup2\n      add\n      swap1\n      tag_37\n      swap2\n      swap1\n      tag_19\n      jump\t// in\n    tag_37:\n      tag_38\n      jump\t// in\n    tag_36:\n      stop\n        /* \"contracts/MultiSig.sol\":2767:3002  function addValidSigner(address _newSigner) external {... */\n    tag_8:\n      callvalue\n      dup1\n      iszero\n      tag_39\n      jumpi\n      revert(0x00, 0x00)\n    tag_39:\n      pop\n      tag_40\n      0x04\n      dup1\n      calldatasize\n      sub\n      dup2\n      add\n      swap1\n      tag_41\n      swap2\n      swap1\n      tag_42\n      jump\t// in\n    tag_41:\n      tag_43\n      jump\t// in\n    tag_40:\n      stop\n        /* \"contracts/MultiSig.sol\":957:1588  function initiateTransaction(uint256 _amount, address _receiver) external {... */\n    tag_9:\n      callvalue\n      dup1\n      iszero\n      tag_44\n      jumpi\n      revert(0x00, 0x00)\n    tag_44:\n      pop\n      tag_45\n      0x04\n      dup1\n      calldatasize\n      sub\n      dup2\n      add\n      swap1\n      tag_46\n      swap2\n      swap1\n      tag_47\n      jump\t// in\n    tag_46:\n      tag_48\n      jump\t// in\n    tag_45:\n      stop\n        /* \"contracts/MultiSig.sol\":2464:2583  function transferOwnership(address _newOwner) external {... */\n    tag_10:\n      callvalue\n      dup1\n      iszero\n      tag_49\n      jumpi\n      revert(0x00, 0x00)\n    tag_49:\n      pop\n      tag_50\n      0x04\n      dup1\n      calldatasize\n      sub\n      dup2\n      add\n      swap1\n      tag_51\n      swap2\n      swap1\n      tag_42\n      jump\t// in\n    tag_51:\n      tag_52\n      jump\t// in\n    tag_50:\n      stop\n        /* \"contracts/MultiSig.sol\":86:110  address[] public signers */\n    tag_20:\n      0x00\n      dup2\n      dup2\n      sload\n      dup2\n      lt\n      tag_53\n      jumpi\n      0x00\n      dup1\n      revert\n    tag_53:\n      swap1\n      0x00\n      mstore\n      keccak256(0x00, 0x20)\n      add\n      0x00\n      swap2\n      pop\n      sload\n      swap1\n      0x0100\n      exp\n      swap1\n      div\n      0xffffffffffffffffffffffffffffffffffffffff\n      and\n      dup2\n      jump\t// out\n        /* \"contracts/MultiSig.sol\":1596:2456  function approveTransaction(uint256 _txId) external {... */\n    tag_26:\n        /* \"contracts/MultiSig.sol\":1676:1683  txCount */\n      sload(0x02)\n        /* \"contracts/MultiSig.sol\":1667:1672  _txId */\n      dup2\n        /* \"contracts/MultiSig.sol\":1667:1683  _txId <= txCount */\n      gt\n      iszero\n        /* \"contracts/MultiSig.sol\":1659:1710  require(_txId <= txCount, \"invalid transaction id\") */\n      tag_56\n      jumpi\n      mload(0x40)\n      0x08c379a000000000000000000000000000000000000000000000000000000000\n      dup2\n      mstore\n      0x04\n      add\n      tag_57\n      swap1\n      tag_58\n      jump\t// in\n    tag_57:\n      mload(0x40)\n      dup1\n      swap2\n      sub\n      swap1\n      revert\n    tag_56:\n        /* \"contracts/MultiSig.sol\":1751:1752  0 */\n      0x00\n        /* \"contracts/MultiSig.sol\":1729:1753  msg.sender != address(0) */\n      0xffffffffffffffffffffffffffffffffffffffff\n      and\n        /* \"contracts/MultiSig.sol\":1729:1739  msg.sender */\n      caller\n        /* \"contracts/MultiSig.sol\":1729:1753  msg.sender != address(0) */\n      0xffffffffffffffffffffffffffffffffffffffff\n      and\n      sub\n        /* \"contracts/MultiSig.sol\":1721:1778  require(msg.sender != address(0), \"zero address dtected\") */\n      tag_59\n      jumpi\n      mload(0x40)\n      0x08c379a000000000000000000000000000000000000000000000000000000000\n      dup2\n      mstore\n      0x04\n      add\n      tag_60\n      swap1\n      tag_61\n      jump\t// in\n    tag_60:\n      mload(0x40)\n      dup1\n      swap2\n      sub\n      swap1\n      revert\n    tag_59:\n        /* \"contracts/MultiSig.sol\":1791:1808  onlyValidSigner() */\n      tag_62\n        /* \"contracts/MultiSig.sol\":1791:1806  onlyValidSigner */\n      tag_63\n        /* \"contracts/MultiSig.sol\":1791:1808  onlyValidSigner() */\n      jump\t// in\n    tag_62:\n        /* \"contracts/MultiSig.sol\":1830:1839  hasSigned */\n      0x06\n        /* \"contracts/MultiSig.sol\":1830:1846  hasSigned[_txId] */\n      0x00\n        /* \"contracts/MultiSig.sol\":1840:1845  _txId */\n      dup3\n        /* \"contracts/MultiSig.sol\":1830:1846  hasSigned[_txId] */\n      dup2\n      mstore\n      0x20\n      add\n      swap1\n      dup2\n      mstore\n      0x20\n      add\n      0x00\n      keccak256\n        /* \"contracts/MultiSig.sol\":1830:1858  hasSigned[_txId][msg.sender] */\n      0x00\n        /* \"contracts/MultiSig.sol\":1847:1857  msg.sender */\n      caller\n        /* \"contracts/MultiSig.sol\":1830:1858  hasSigned[_txId][msg.sender] */\n      0xffffffffffffffffffffffffffffffffffffffff\n      and\n      0xffffffffffffffffffffffffffffffffffffffff\n      and\n      dup2\n      mstore\n      0x20\n      add\n      swap1\n      dup2\n      mstore\n      0x20\n      add\n      0x00\n      keccak256\n      0x00\n      swap1\n      sload\n      swap1\n      0x0100\n      exp\n      swap1\n      div\n      0xff\n      and\n        /* \"contracts/MultiSig.sol\":1829:1858  !hasSigned[_txId][msg.sender] */\n      iszero\n        /* \"contracts/MultiSig.sol\":1821:1879  require(!hasSigned[_txId][msg.sender], \"can't sign twice\") */\n      tag_64\n      jumpi\n      mload(0x40)\n      0x08c379a000000000000000000000000000000000000000000000000000000000\n      dup2\n      mstore\n      0x04\n      add\n      tag_65\n      swap1\n      tag_66\n      jump\t// in\n    tag_65:\n      mload(0x40)\n      dup1\n      swap2\n      sub\n      swap1\n      revert\n    tag_64:\n        /* \"contracts/MultiSig.sol\":1890:1913  Transaction storage tns */\n      0x00\n        /* \"contracts/MultiSig.sol\":1916:1928  transactions */\n      0x07\n        /* \"contracts/MultiSig.sol\":1916:1935  transactions[_txId] */\n      0x00\n        /* \"contracts/MultiSig.sol\":1929:1934  _txId */\n      dup4\n        /* \"contracts/MultiSig.sol\":1916:1935  transactions[_txId] */\n      dup2\n      mstore\n      0x20\n      add\n      swap1\n      dup2\n      mstore\n      0x20\n      add\n      0x00\n      keccak256\n        /* \"contracts/MultiSig.sol\":1890:1935  Transaction storage tns = transactions[_txId] */\n      swap1\n      pop\n        /* \"contracts/MultiSig.sol\":1993:1996  tns */\n      dup1\n        /* \"contracts/MultiSig.sol\":1993:2003  tns.amount */\n      0x01\n      add\n      sload\n        /* \"contracts/MultiSig.sol\":1968:1989  address(this).balance */\n      selfbalance\n        /* \"contracts/MultiSig.sol\":1968:2003  address(this).balance >= tns.amount */\n      lt\n      iszero\n        /* \"contracts/MultiSig.sol\":1946:2060  require(... */\n      tag_67\n      jumpi\n      mload(0x40)\n      0x08c379a000000000000000000000000000000000000000000000000000000000\n      dup2\n      mstore\n      0x04\n      add\n      tag_68\n      swap1\n      tag_69\n      jump\t// in\n    tag_68:\n      mload(0x40)\n      dup1\n      swap2\n      sub\n      swap1\n      revert\n    tag_67:\n        /* \"contracts/MultiSig.sol\":2082:2085  tns */\n      dup1\n        /* \"contracts/MultiSig.sol\":2082:2096  tns.isExecuted */\n      0x04\n      add\n      0x00\n      swap1\n      sload\n      swap1\n      0x0100\n      exp\n      swap1\n      div\n      0xff\n      and\n        /* \"contracts/MultiSig.sol\":2081:2096  !tns.isExecuted */\n      iszero\n        /* \"contracts/MultiSig.sol\":2073:2129  require(!tns.isExecuted, \"transaction already executed\") */\n      tag_70\n      jumpi\n      mload(0x40)\n      0x08c379a000000000000000000000000000000000000000000000000000000000\n      dup2\n      mstore\n      0x04\n      add\n      tag_71\n      swap1\n      tag_72\n      jump\t// in\n    tag_71:\n      mload(0x40)\n      dup1\n      swap2\n      sub\n      swap1\n      revert\n    tag_70:\n        /* \"contracts/MultiSig.sol\":2167:2173  quorum */\n      sload(0x01)\n        /* \"contracts/MultiSig.sol\":2148:2151  tns */\n      dup2\n        /* \"contracts/MultiSig.sol\":2148:2164  tns.signersCount */\n      0x03\n      add\n      sload\n        /* \"contracts/MultiSig.sol\":2148:2173  tns.signersCount < quorum */\n      lt\n        /* \"contracts/MultiSig.sol\":2140:2198  require(tns.signersCount < quorum, \"quorum count reached\") */\n      tag_73\n      jumpi\n      mload(0x40)\n      0x08c379a000000000000000000000000000000000000000000000000000000000\n      dup2\n      mstore\n      0x04\n      add\n      tag_74\n      swap1\n      tag_75\n      jump\t// in\n    tag_74:\n      mload(0x40)\n      dup1\n      swap2\n      sub\n      swap1\n      revert\n    tag_73:\n        /* \"contracts/MultiSig.sol\":2249:2250  1 */\n      0x01\n        /* \"contracts/MultiSig.sol\":2230:2233  tns */\n      dup2\n        /* \"contracts/MultiSig.sol\":2230:2246  tns.signersCount */\n      0x03\n      add\n      sload\n        /* \"contracts/MultiSig.sol\":2230:2250  tns.signersCount + 1 */\n      tag_76\n      swap2\n      swap1\n      tag_77\n      jump\t// in\n    tag_76:\n        /* \"contracts/MultiSig.sol\":2211:2214  tns */\n      dup2\n        /* \"contracts/MultiSig.sol\":2211:2227  tns.signersCount */\n      0x03\n      add\n        /* \"contracts/MultiSig.sol\":2211:2250  tns.signersCount = tns.signersCount + 1 */\n      dup2\n      swap1\n      sstore\n      pop\n        /* \"contracts/MultiSig.sol\":2294:2298  true */\n      0x01\n        /* \"contracts/MultiSig.sol\":2263:2272  hasSigned */\n      0x06\n        /* \"contracts/MultiSig.sol\":2263:2279  hasSigned[_txId] */\n      0x00\n        /* \"contracts/MultiSig.sol\":2273:2278  _txId */\n      dup5\n        /* \"contracts/MultiSig.sol\":2263:2279  hasSigned[_txId] */\n      dup2\n      mstore\n      0x20\n      add\n      swap1\n      dup2\n      mstore\n      0x20\n      add\n      0x00\n      keccak256\n        /* \"contracts/MultiSig.sol\":2263:2291  hasSigned[_txId][msg.sender] */\n      0x00\n        /* \"contracts/MultiSig.sol\":2280:2290  msg.sender */\n      caller\n        /* \"contracts/MultiSig.sol\":2263:2291  hasSigned[_txId][msg.sender] */\n      0xffffffffffffffffffffffffffffffffffffffff\n      and\n      0xffffffffffffffffffffffffffffffffffffffff\n      and\n      dup2\n      mstore\n      0x20\n      add\n      swap1\n      dup2\n      mstore\n      0x20\n      add\n      0x00\n      keccak256\n      0x00\n        /* \"contracts/MultiSig.sol\":2263:2298  hasSigned[_txId][msg.sender] = true */\n      0x0100\n      exp\n      dup2\n      sload\n      dup2\n      0xff\n      mul\n      not\n      and\n      swap1\n      dup4\n      iszero\n      iszero\n      mul\n      or\n      swap1\n      sstore\n      pop\n        /* \"contracts/MultiSig.sol\":2336:2342  quorum */\n      sload(0x01)\n        /* \"contracts/MultiSig.sol\":2315:2318  tns */\n      dup2\n        /* \"contracts/MultiSig.sol\":2315:2331  tns.signersCount */\n      0x03\n      add\n      sload\n        /* \"contracts/MultiSig.sol\":2315:2342  tns.signersCount  == quorum */\n      sub\n        /* \"contracts/MultiSig.sol\":2311:2449  if (tns.signersCount  == quorum) {... */\n      tag_78\n      jumpi\n        /* \"contracts/MultiSig.sol\":2376:2380  true */\n      0x01\n        /* \"contracts/MultiSig.sol\":2359:2362  tns */\n      dup2\n        /* \"contracts/MultiSig.sol\":2359:2373  tns.isExecuted */\n      0x04\n      add\n      0x00\n        /* \"contracts/MultiSig.sol\":2359:2380  tns.isExecuted = true */\n      0x0100\n      exp\n      dup2\n      sload\n      dup2\n      0xff\n      mul\n      not\n      and\n      swap1\n      dup4\n      iszero\n      iszero\n      mul\n      or\n      swap1\n      sstore\n      pop\n        /* \"contracts/MultiSig.sol\":2403:2406  tns */\n      dup1\n        /* \"contracts/MultiSig.sol\":2403:2415  tns.receiver */\n      0x02\n      add\n      0x00\n      swap1\n      sload\n      swap1\n      0x0100\n      exp\n      swap1\n      div\n      0xffffffffffffffffffffffffffffffffffffffff\n      and\n        /* \"contracts/MultiSig.sol\":2395:2425  payable(tns.receiver).transfer */\n      0xffffffffffffffffffffffffffffffffffffffff\n      and\n        /* \"contracts/MultiSig.sol\":2395:2437  payable(tns.receiver).transfer(tns.amount) */\n      0x08fc\n        /* \"contracts/MultiSig.sol\":2426:2429  tns */\n      dup3\n        /* \"contracts/MultiSig.sol\":2426:2436  tns.amount */\n      0x01\n      add\n      sload\n        /* \"contracts/MultiSig.sol\":2395:2437  payable(tns.receiver).transfer(tns.amount) */\n      swap1\n      dup2\n      iszero\n      mul\n      swap1\n      mload(0x40)\n      0x00\n      mload(0x40)\n      dup1\n      dup4\n      sub\n      dup2\n      dup6\n      dup9\n      dup9\n      call\n      swap4\n      pop\n      pop\n      pop\n      pop\n      iszero\n      dup1\n      iszero\n      tag_80\n      jumpi\n      returndatacopy(0x00, 0x00, returndatasize)\n      revert(0x00, returndatasize)\n    tag_80:\n      pop\n        /* \"contracts/MultiSig.sol\":2311:2449  if (tns.signersCount  == quorum) {... */\n    tag_78:\n        /* \"contracts/MultiSig.sol\":1648:2456  {... */\n      pop\n        /* \"contracts/MultiSig.sol\":1596:2456  function approveTransaction(uint256 _txId) external {... */\n      pop\n      jump\t// out\n        /* \"contracts/MultiSig.sol\":3287:3403  function getAllTransactions() external view returns (Transaction[] memory) {... */\n    tag_29:\n        /* \"contracts/MultiSig.sol\":3340:3360  Transaction[] memory */\n      0x60\n        /* \"contracts/MultiSig.sol\":3380:3395  allTransactions */\n      0x05\n        /* \"contracts/MultiSig.sol\":3373:3395  return allTransactions */\n      dup1\n      sload\n      dup1\n      0x20\n      mul\n      0x20\n      add\n      mload(0x40)\n      swap1\n      dup2\n      add\n      0x40\n      mstore\n      dup1\n      swap3\n      swap2\n      swap1\n      dup2\n      dup2\n      mstore\n      0x20\n      add\n      0x00\n      swap1\n    tag_82:\n      dup3\n      dup3\n      lt\n      iszero\n      tag_83\n      jumpi\n      dup4\n      dup3\n      swap1\n      0x00\n      mstore\n      keccak256(0x00, 0x20)\n      swap1\n      0x05\n      mul\n      add\n      mload(0x40)\n      dup1\n      0xc0\n      add\n      0x40\n      mstore\n      swap1\n      dup2\n      0x00\n      dup3\n      add\n      sload\n      dup2\n      mstore\n      0x20\n      add\n      0x01\n      dup3\n      add\n      sload\n      dup2\n      mstore\n      0x20\n      add\n      0x02\n      dup3\n      add\n      0x00\n      swap1\n      sload\n      swap1\n      0x0100\n      exp\n      swap1\n      div\n      0xffffffffffffffffffffffffffffffffffffffff\n      and\n      0xffffffffffffffffffffffffffffffffffffffff\n      and\n      0xffffffffffffffffffffffffffffffffffffffff\n      and\n      dup2\n      mstore\n      0x20\n      add\n      0x03\n      dup3\n      add\n      sload\n      dup2\n      mstore\n      0x20\n      add\n      0x04\n      dup3\n      add\n      0x00\n      swap1\n      sload\n      swap1\n      0x0100\n      exp\n      swap1\n      div\n      0xff\n      and\n      iszero\n      iszero\n      iszero\n      iszero\n      dup2\n      mstore\n      0x20\n      add\n      0x04\n      dup3\n      add\n      0x01\n      swap1\n      sload\n      swap1\n      0x0100\n      exp\n      swap1\n      div\n      0xffffffffffffffffffffffffffffffffffffffff\n      and\n      0xffffffffffffffffffffffffffffffffffffffff\n      and\n      0xffffffffffffffffffffffffffffffffffffffff\n      and\n      dup2\n      mstore\n      pop\n      pop\n      dup2\n      mstore\n      0x20\n      add\n      swap1\n      0x01\n      add\n      swap1\n      jump(tag_82)\n    tag_83:\n      pop\n      pop\n      pop\n      pop\n      swap1\n      pop\n        /* \"contracts/MultiSig.sol\":3287:3403  function getAllTransactions() external view returns (Transaction[] memory) {... */\n      swap1\n      jump\t// out\n        /* \"contracts/MultiSig.sol\":2591:2759  function claimOwnership() external {... */\n    tag_34:\n        /* \"contracts/MultiSig.sol\":2659:2668  nextOwner */\n      0x04\n      0x00\n      swap1\n      sload\n      swap1\n      0x0100\n      exp\n      swap1\n      div\n      0xffffffffffffffffffffffffffffffffffffffff\n      and\n        /* \"contracts/MultiSig.sol\":2645:2668  msg.sender == nextOwner */\n      0xffffffffffffffffffffffffffffffffffffffff\n      and\n        /* \"contracts/MultiSig.sol\":2645:2655  msg.sender */\n      caller\n        /* \"contracts/MultiSig.sol\":2645:2668  msg.sender == nextOwner */\n      0xffffffffffffffffffffffffffffffffffffffff\n      and\n      eq\n        /* \"contracts/MultiSig.sol\":2637:2687  require(msg.sender == nextOwner, \"not next owner\") */\n      tag_86\n      jumpi\n      mload(0x40)\n      0x08c379a000000000000000000000000000000000000000000000000000000000\n      dup2\n      mstore\n      0x04\n      add\n      tag_87\n      swap1\n      tag_88\n      jump\t// in\n    tag_87:\n      mload(0x40)\n      dup1\n      swap2\n      sub\n      swap1\n      revert\n    tag_86:\n        /* \"contracts/MultiSig.sol\":2708:2718  msg.sender */\n      caller\n        /* \"contracts/MultiSig.sol\":2700:2705  owner */\n      0x03\n      0x00\n        /* \"contracts/MultiSig.sol\":2700:2718  owner = msg.sender */\n      0x0100\n      exp\n      dup2\n      sload\n      dup2\n      0xffffffffffffffffffffffffffffffffffffffff\n      mul\n      not\n      and\n      swap1\n      dup4\n      0xffffffffffffffffffffffffffffffffffffffff\n      and\n      mul\n      or\n      swap1\n      sstore\n      pop\n        /* \"contracts/MultiSig.sol\":2749:2750  0 */\n      0x00\n        /* \"contracts/MultiSig.sol\":2729:2738  nextOwner */\n      0x04\n      0x00\n        /* \"contracts/MultiSig.sol\":2729:2751  nextOwner = address(0) */\n      0x0100\n      exp\n      dup2\n      sload\n      dup2\n      0xffffffffffffffffffffffffffffffffffffffff\n      mul\n      not\n      and\n      swap1\n      dup4\n      0xffffffffffffffffffffffffffffffffffffffff\n      and\n      mul\n      or\n      swap1\n      sstore\n      pop\n        /* \"contracts/MultiSig.sol\":2591:2759  function claimOwnership() external {... */\n      jump\t// out\n        /* \"contracts/MultiSig.sol\":3010:3279  function removeSigner(uint _index) external {... */\n    tag_38:\n        /* \"contracts/MultiSig.sol\":3065:3076  onlyOwner() */\n      tag_90\n        /* \"contracts/MultiSig.sol\":3065:3074  onlyOwner */\n      tag_91\n        /* \"contracts/MultiSig.sol\":3065:3076  onlyOwner() */\n      jump\t// in\n    tag_90:\n        /* \"contracts/MultiSig.sol\":3104:3111  signers */\n      0x00\n        /* \"contracts/MultiSig.sol\":3104:3118  signers.length */\n      dup1\n      sload\n      swap1\n      pop\n        /* \"contracts/MultiSig.sol\":3095:3101  _index */\n      dup2\n        /* \"contracts/MultiSig.sol\":3095:3118  _index < signers.length */\n      lt\n        /* \"contracts/MultiSig.sol\":3087:3136  require(_index < signers.length, \"Invalid index\") */\n      tag_92\n      jumpi\n      mload(0x40)\n      0x08c379a000000000000000000000000000000000000000000000000000000000\n      dup2\n      mstore\n      0x04\n      add\n      tag_93\n      swap1\n      tag_94\n      jump\t// in\n    tag_93:\n      mload(0x40)\n      dup1\n      swap2\n      sub\n      swap1\n      revert\n    tag_92:\n        /* \"contracts/MultiSig.sol\":3167:3174  signers */\n      0x00\n        /* \"contracts/MultiSig.sol\":3192:3193  1 */\n      0x01\n        /* \"contracts/MultiSig.sol\":3175:3182  signers */\n      0x00\n        /* \"contracts/MultiSig.sol\":3175:3189  signers.length */\n      dup1\n      sload\n      swap1\n      pop\n        /* \"contracts/MultiSig.sol\":3175:3193  signers.length - 1 */\n      tag_95\n      swap2\n      swap1\n      tag_96\n      jump\t// in\n    tag_95:\n        /* \"contracts/MultiSig.sol\":3167:3194  signers[signers.length - 1] */\n      dup2\n      sload\n      dup2\n      lt\n      tag_97\n      jumpi\n      tag_98\n      tag_99\n      jump\t// in\n    tag_98:\n    tag_97:\n      swap1\n      0x00\n      mstore\n      keccak256(0x00, 0x20)\n      add\n      0x00\n      swap1\n      sload\n      swap1\n      0x0100\n      exp\n      swap1\n      div\n      0xffffffffffffffffffffffffffffffffffffffff\n      and\n        /* \"contracts/MultiSig.sol\":3149:3156  signers */\n      0x00\n        /* \"contracts/MultiSig.sol\":3157:3163  _index */\n      dup3\n        /* \"contracts/MultiSig.sol\":3149:3164  signers[_index] */\n      dup2\n      sload\n      dup2\n      lt\n      tag_101\n      jumpi\n      tag_102\n      tag_99\n      jump\t// in\n    tag_102:\n    tag_101:\n      swap1\n      0x00\n      mstore\n      keccak256(0x00, 0x20)\n      add\n      0x00\n        /* \"contracts/MultiSig.sol\":3149:3194  signers[_index] = signers[signers.length - 1] */\n      0x0100\n      exp\n      dup2\n      sload\n      dup2\n      0xffffffffffffffffffffffffffffffffffffffff\n      mul\n      not\n      and\n      swap1\n      dup4\n      0xffffffffffffffffffffffffffffffffffffffff\n      and\n      mul\n      or\n      swap1\n      sstore\n      pop\n        /* \"contracts/MultiSig.sol\":3240:3245  false */\n      0x00\n        /* \"contracts/MultiSig.sol\":3207:3220  isValidSigner */\n      0x08\n        /* \"contracts/MultiSig.sol\":3207:3237  isValidSigner[signers[_index]] */\n      0x00\n        /* \"contracts/MultiSig.sol\":3221:3228  signers */\n      0x00\n        /* \"contracts/MultiSig.sol\":3229:3235  _index */\n      dup5\n        /* \"contracts/MultiSig.sol\":3221:3236  signers[_index] */\n      dup2\n      sload\n      dup2\n      lt\n      tag_104\n      jumpi\n      tag_105\n      tag_99\n      jump\t// in\n    tag_105:\n    tag_104:\n      swap1\n      0x00\n      mstore\n      keccak256(0x00, 0x20)\n      add\n      0x00\n      swap1\n      sload\n      swap1\n      0x0100\n      exp\n      swap1\n      div\n      0xffffffffffffffffffffffffffffffffffffffff\n      and\n        /* \"contracts/MultiSig.sol\":3207:3237  isValidSigner[signers[_index]] */\n      0xffffffffffffffffffffffffffffffffffffffff\n      and\n      0xffffffffffffffffffffffffffffffffffffffff\n      and\n      dup2\n      mstore\n      0x20\n      add\n      swap1\n      dup2\n      mstore\n      0x20\n      add\n      0x00\n      keccak256\n      0x00\n        /* \"contracts/MultiSig.sol\":3207:3245  isValidSigner[signers[_index]] = false */\n      0x0100\n      exp\n      dup2\n      sload\n      dup2\n      0xff\n      mul\n      not\n      and\n      swap1\n      dup4\n      iszero\n      iszero\n      mul\n      or\n      swap1\n      sstore\n      pop\n        /* \"contracts/MultiSig.sol\":3258:3265  signers */\n      0x00\n        /* \"contracts/MultiSig.sol\":3258:3271  signers.pop() */\n      dup1\n      sload\n      dup1\n      tag_107\n      jumpi\n      tag_108\n      tag_109\n      jump\t// in\n    tag_108:\n    tag_107:\n      0x01\n      swap1\n      sub\n      dup2\n      dup2\n      swap1\n      0x00\n      mstore\n      keccak256(0x00, 0x20)\n      add\n      exp(0x0100, 0x00)\n      dup2\n      sload\n      swap1\n      0xffffffffffffffffffffffffffffffffffffffff\n      mul\n      not\n      and\n      swap1\n      sstore\n      swap1\n      sstore\n        /* \"contracts/MultiSig.sol\":3010:3279  function removeSigner(uint _index) external {... */\n      pop\n      jump\t// out\n        /* \"contracts/MultiSig.sol\":2767:3002  function addValidSigner(address _newSigner) external {... */\n    tag_43:\n        /* \"contracts/MultiSig.sol\":2831:2842  onlyOwner() */\n      tag_112\n        /* \"contracts/MultiSig.sol\":2831:2840  onlyOwner */\n      tag_91\n        /* \"contracts/MultiSig.sol\":2831:2842  onlyOwner() */\n      jump\t// in\n    tag_112:\n        /* \"contracts/MultiSig.sol\":2863:2876  isValidSigner */\n      0x08\n        /* \"contracts/MultiSig.sol\":2863:2888  isValidSigner[_newSigner] */\n      0x00\n        /* \"contracts/MultiSig.sol\":2877:2887  _newSigner */\n      dup3\n        /* \"contracts/MultiSig.sol\":2863:2888  isValidSigner[_newSigner] */\n      0xffffffffffffffffffffffffffffffffffffffff\n      and\n      0xffffffffffffffffffffffffffffffffffffffff\n      and\n      dup2\n      mstore\n      0x20\n      add\n      swap1\n      dup2\n      mstore\n      0x20\n      add\n      0x00\n      keccak256\n      0x00\n      swap1\n      sload\n      swap1\n      0x0100\n      exp\n      swap1\n      div\n      0xff\n      and\n        /* \"contracts/MultiSig.sol\":2855:2914  require(isValidSigner[_newSigner], \"Signer  already exist\") */\n      tag_113\n      jumpi\n      mload(0x40)\n      0x08c379a000000000000000000000000000000000000000000000000000000000\n      dup2\n      mstore\n      0x04\n      add\n      tag_114\n      swap1\n      tag_115\n      jump\t// in\n    tag_114:\n      mload(0x40)\n      dup1\n      swap2\n      sub\n      swap1\n      revert\n    tag_113:\n        /* \"contracts/MultiSig.sol\":2955:2959  true */\n      0x01\n        /* \"contracts/MultiSig.sol\":2927:2940  isValidSigner */\n      0x08\n        /* \"contracts/MultiSig.sol\":2927:2952  isValidSigner[_newSigner] */\n      0x00\n        /* \"contracts/MultiSig.sol\":2941:2951  _newSigner */\n      dup4\n        /* \"contracts/MultiSig.sol\":2927:2952  isValidSigner[_newSigner] */\n      0xffffffffffffffffffffffffffffffffffffffff\n      and\n      0xffffffffffffffffffffffffffffffffffffffff\n      and\n      dup2\n      mstore\n      0x20\n      add\n      swap1\n      dup2\n      mstore\n      0x20\n      add\n      0x00\n      keccak256\n      0x00\n        /* \"contracts/MultiSig.sol\":2927:2959  isValidSigner[_newSigner] = true */\n      0x0100\n      exp\n      dup2\n      sload\n      dup2\n      0xff\n      mul\n      not\n      and\n      swap1\n      dup4\n      iszero\n      iszero\n      mul\n      or\n      swap1\n      sstore\n      pop\n        /* \"contracts/MultiSig.sol\":2970:2977  signers */\n      0x00\n        /* \"contracts/MultiSig.sol\":2983:2993  _newSigner */\n      dup2\n        /* \"contracts/MultiSig.sol\":2970:2994  signers.push(_newSigner) */\n      swap1\n      dup1\n      0x01\n      dup2\n      sload\n      add\n      dup1\n      dup3\n      sstore\n      dup1\n      swap2\n      pop\n      pop\n      0x01\n      swap1\n      sub\n      swap1\n      0x00\n      mstore\n      keccak256(0x00, 0x20)\n      add\n      0x00\n      swap1\n      swap2\n      swap1\n      swap2\n      swap1\n      swap2\n      0x0100\n      exp\n      dup2\n      sload\n      dup2\n      0xffffffffffffffffffffffffffffffffffffffff\n      mul\n      not\n      and\n      swap1\n      dup4\n      0xffffffffffffffffffffffffffffffffffffffff\n      and\n      mul\n      or\n      swap1\n      sstore\n      pop\n        /* \"contracts/MultiSig.sol\":2767:3002  function addValidSigner(address _newSigner) external {... */\n      pop\n      jump\t// out\n        /* \"contracts/MultiSig.sol\":957:1588  function initiateTransaction(uint256 _amount, address _receiver) external {... */\n    tag_48:\n        /* \"contracts/MultiSig.sol\":1072:1073  0 */\n      0x00\n        /* \"contracts/MultiSig.sol\":1050:1074  msg.sender != address(0) */\n      0xffffffffffffffffffffffffffffffffffffffff\n      and\n        /* \"contracts/MultiSig.sol\":1050:1060  msg.sender */\n      caller\n        /* \"contracts/MultiSig.sol\":1050:1074  msg.sender != address(0) */\n      0xffffffffffffffffffffffffffffffffffffffff\n      and\n      sub\n        /* \"contracts/MultiSig.sol\":1042:1100  require(msg.sender != address(0), \"Zero address detected\") */\n      tag_118\n      jumpi\n      mload(0x40)\n      0x08c379a000000000000000000000000000000000000000000000000000000000\n      dup2\n      mstore\n      0x04\n      add\n      tag_119\n      swap1\n      tag_120\n      jump\t// in\n    tag_119:\n      mload(0x40)\n      dup1\n      swap2\n      sub\n      swap1\n      revert\n    tag_118:\n        /* \"contracts/MultiSig.sol\":1129:1130  0 */\n      0x00\n        /* \"contracts/MultiSig.sol\":1119:1126  _amount */\n      dup3\n        /* \"contracts/MultiSig.sol\":1119:1130  _amount > 0 */\n      gt\n        /* \"contracts/MultiSig.sol\":1111:1156  require(_amount > 0, \"no zero value allowed\") */\n      tag_121\n      jumpi\n      mload(0x40)\n      0x08c379a000000000000000000000000000000000000000000000000000000000\n      dup2\n      mstore\n      0x04\n      add\n      tag_122\n      swap1\n      tag_123\n      jump\t// in\n    tag_122:\n      mload(0x40)\n      dup1\n      swap2\n      sub\n      swap1\n      revert\n    tag_121:\n        /* \"contracts/MultiSig.sol\":1169:1186  onlyValidSigner() */\n      tag_124\n        /* \"contracts/MultiSig.sol\":1169:1184  onlyValidSigner */\n      tag_63\n        /* \"contracts/MultiSig.sol\":1169:1186  onlyValidSigner() */\n      jump\t// in\n    tag_124:\n        /* \"contracts/MultiSig.sol\":1199:1212  uint256 _txId */\n      0x00\n        /* \"contracts/MultiSig.sol\":1225:1226  1 */\n      0x01\n        /* \"contracts/MultiSig.sol\":1215:1222  txCount */\n      sload(0x02)\n        /* \"contracts/MultiSig.sol\":1215:1226  txCount + 1 */\n      tag_125\n      swap2\n      swap1\n      tag_77\n      jump\t// in\n    tag_125:\n        /* \"contracts/MultiSig.sol\":1199:1226  uint256 _txId = txCount + 1 */\n      swap1\n      pop\n        /* \"contracts/MultiSig.sol\":1239:1262  Transaction storage tns */\n      0x00\n        /* \"contracts/MultiSig.sol\":1265:1277  transactions */\n      0x07\n        /* \"contracts/MultiSig.sol\":1265:1284  transactions[_txId] */\n      0x00\n        /* \"contracts/MultiSig.sol\":1278:1283  _txId */\n      dup4\n        /* \"contracts/MultiSig.sol\":1265:1284  transactions[_txId] */\n      dup2\n      mstore\n      0x20\n      add\n      swap1\n      dup2\n      mstore\n      0x20\n      add\n      0x00\n      keccak256\n        /* \"contracts/MultiSig.sol\":1239:1284  Transaction storage tns = transactions[_txId] */\n      swap1\n      pop\n        /* \"contracts/MultiSig.sol\":1306:1311  _txId */\n      dup2\n        /* \"contracts/MultiSig.sol\":1297:1300  tns */\n      dup2\n        /* \"contracts/MultiSig.sol\":1297:1303  tns.id */\n      0x00\n      add\n        /* \"contracts/MultiSig.sol\":1297:1311  tns.id = _txId */\n      dup2\n      swap1\n      sstore\n      pop\n        /* \"contracts/MultiSig.sol\":1335:1342  _amount */\n      dup4\n        /* \"contracts/MultiSig.sol\":1322:1325  tns */\n      dup2\n        /* \"contracts/MultiSig.sol\":1322:1332  tns.amount */\n      0x01\n      add\n        /* \"contracts/MultiSig.sol\":1322:1342  tns.amount = _amount */\n      dup2\n      swap1\n      sstore\n      pop\n        /* \"contracts/MultiSig.sol\":1368:1377  _receiver */\n      dup3\n        /* \"contracts/MultiSig.sol\":1353:1356  tns */\n      dup2\n        /* \"contracts/MultiSig.sol\":1353:1365  tns.receiver */\n      0x02\n      add\n      0x00\n        /* \"contracts/MultiSig.sol\":1353:1377  tns.receiver = _receiver */\n      0x0100\n      exp\n      dup2\n      sload\n      dup2\n      0xffffffffffffffffffffffffffffffffffffffff\n      mul\n      not\n      and\n      swap1\n      dup4\n      0xffffffffffffffffffffffffffffffffffffffff\n      and\n      mul\n      or\n      swap1\n      sstore\n      pop\n        /* \"contracts/MultiSig.sol\":1407:1410  tns */\n      dup1\n        /* \"contracts/MultiSig.sol\":1407:1423  tns.signersCount */\n      0x03\n      add\n      sload\n        /* \"contracts/MultiSig.sol\":1388:1391  tns */\n      dup2\n        /* \"contracts/MultiSig.sol\":1388:1404  tns.signersCount */\n      0x03\n      add\n        /* \"contracts/MultiSig.sol\":1388:1423  tns.signersCount = tns.signersCount */\n      dup2\n      swap1\n      sstore\n      pop\n        /* \"contracts/MultiSig.sol\":1450:1460  msg.sender */\n      caller\n        /* \"contracts/MultiSig.sol\":1434:1437  tns */\n      dup2\n        /* \"contracts/MultiSig.sol\":1434:1447  tns.txCreator */\n      0x04\n      add\n      0x01\n        /* \"contracts/MultiSig.sol\":1434:1460  tns.txCreator = msg.sender */\n      0x0100\n      exp\n      dup2\n      sload\n      dup2\n      0xffffffffffffffffffffffffffffffffffffffff\n      mul\n      not\n      and\n      swap1\n      dup4\n      0xffffffffffffffffffffffffffffffffffffffff\n      and\n      mul\n      or\n      swap1\n      sstore\n      pop\n        /* \"contracts/MultiSig.sol\":1473:1488  allTransactions */\n      0x05\n        /* \"contracts/MultiSig.sol\":1494:1497  tns */\n      dup2\n        /* \"contracts/MultiSig.sol\":1473:1498  allTransactions.push(tns) */\n      swap1\n      dup1\n      0x01\n      dup2\n      sload\n      add\n      dup1\n      dup3\n      sstore\n      dup1\n      swap2\n      pop\n      pop\n      0x01\n      swap1\n      sub\n      swap1\n      0x00\n      mstore\n      keccak256(0x00, 0x20)\n      swap1\n      0x05\n      mul\n      add\n      0x00\n      swap1\n      swap2\n      swap1\n      swap2\n      swap1\n      swap2\n      pop\n      0x00\n      dup3\n      add\n      sload\n      dup2\n      0x00\n      add\n      sstore\n      0x01\n      dup3\n      add\n      sload\n      dup2\n      0x01\n      add\n      sstore\n      0x02\n      dup3\n      add\n      0x00\n      swap1\n      sload\n      swap1\n      0x0100\n      exp\n      swap1\n      div\n      0xffffffffffffffffffffffffffffffffffffffff\n      and\n      dup2\n      0x02\n      add\n      exp(0x0100, 0x00)\n      dup2\n      sload\n      dup2\n      0xffffffffffffffffffffffffffffffffffffffff\n      mul\n      not\n      and\n      swap1\n      dup4\n      0xffffffffffffffffffffffffffffffffffffffff\n      and\n      mul\n      or\n      swap1\n      sstore\n      pop\n      0x03\n      dup3\n      add\n      sload\n      dup2\n      0x03\n      add\n      sstore\n      0x04\n      dup3\n      add\n      0x00\n      swap1\n      sload\n      swap1\n      0x0100\n      exp\n      swap1\n      div\n      0xff\n      and\n      dup2\n      0x04\n      add\n      exp(0x0100, 0x00)\n      dup2\n      sload\n      dup2\n      0xff\n      mul\n      not\n      and\n      swap1\n      dup4\n      iszero\n      iszero\n      mul\n      or\n      swap1\n      sstore\n      pop\n      0x04\n      dup3\n      add\n      0x01\n      swap1\n      sload\n      swap1\n      0x0100\n      exp\n      swap1\n      div\n      0xffffffffffffffffffffffffffffffffffffffff\n      and\n      dup2\n      0x04\n      add\n      exp(0x0100, 0x01)\n      dup2\n      sload\n      dup2\n      0xffffffffffffffffffffffffffffffffffffffff\n      mul\n      not\n      and\n      swap1\n      dup4\n      0xffffffffffffffffffffffffffffffffffffffff\n      and\n      mul\n      or\n      swap1\n      sstore\n      pop\n      pop\n      pop\n        /* \"contracts/MultiSig.sol\":1542:1546  true */\n      0x01\n        /* \"contracts/MultiSig.sol\":1511:1520  hasSigned */\n      0x06\n        /* \"contracts/MultiSig.sol\":1511:1527  hasSigned[_txId] */\n      0x00\n        /* \"contracts/MultiSig.sol\":1521:1526  _txId */\n      dup5\n        /* \"contracts/MultiSig.sol\":1511:1527  hasSigned[_txId] */\n      dup2\n      mstore\n      0x20\n      add\n      swap1\n      dup2\n      mstore\n      0x20\n      add\n      0x00\n      keccak256\n        /* \"contracts/MultiSig.sol\":1511:1539  hasSigned[_txId][msg.sender] */\n      0x00\n        /* \"contracts/MultiSig.sol\":1528:1538  msg.sender */\n      caller\n        /* \"contracts/MultiSig.sol\":1511:1539  hasSigned[_txId][msg.sender] */\n      0xffffffffffffffffffffffffffffffffffffffff\n      and\n      0xffffffffffffffffffffffffffffffffffffffff\n      and\n      dup2\n      mstore\n      0x20\n      add\n      swap1\n      dup2\n      mstore\n      0x20\n      add\n      0x00\n      keccak256\n      0x00\n        /* \"contracts/MultiSig.sol\":1511:1546  hasSigned[_txId][msg.sender] = true */\n      0x0100\n      exp\n      dup2\n      sload\n      dup2\n      0xff\n      mul\n      not\n      and\n      swap1\n      dup4\n      iszero\n      iszero\n      mul\n      or\n      swap1\n      sstore\n      pop\n        /* \"contracts/MultiSig.sol\":1579:1580  1 */\n      0x01\n        /* \"contracts/MultiSig.sol\":1569:1576  txCount */\n      sload(0x02)\n        /* \"contracts/MultiSig.sol\":1569:1580  txCount + 1 */\n      tag_127\n      swap2\n      swap1\n      tag_77\n      jump\t// in\n    tag_127:\n        /* \"contracts/MultiSig.sol\":1559:1566  txCount */\n      0x02\n        /* \"contracts/MultiSig.sol\":1559:1580  txCount = txCount + 1 */\n      dup2\n      swap1\n      sstore\n      pop\n        /* \"contracts/MultiSig.sol\":1031:1588  {... */\n      pop\n      pop\n        /* \"contracts/MultiSig.sol\":957:1588  function initiateTransaction(uint256 _amount, address _receiver) external {... */\n      pop\n      pop\n      jump\t// out\n        /* \"contracts/MultiSig.sol\":2464:2583  function transferOwnership(address _newOwner) external {... */\n    tag_52:\n        /* \"contracts/MultiSig.sol\":2530:2541  onlyOwner() */\n      tag_129\n        /* \"contracts/MultiSig.sol\":2530:2539  onlyOwner */\n      tag_91\n        /* \"contracts/MultiSig.sol\":2530:2541  onlyOwner() */\n      jump\t// in\n    tag_129:\n        /* \"contracts/MultiSig.sol\":2566:2575  _newOwner */\n      dup1\n        /* \"contracts/MultiSig.sol\":2554:2563  nextOwner */\n      0x04\n      0x00\n        /* \"contracts/MultiSig.sol\":2554:2575  nextOwner = _newOwner */\n      0x0100\n      exp\n      dup2\n      sload\n      dup2\n      0xffffffffffffffffffffffffffffffffffffffff\n      mul\n      not\n      and\n      swap1\n      dup4\n      0xffffffffffffffffffffffffffffffffffffffff\n      and\n      mul\n      or\n      swap1\n      sstore\n      pop\n        /* \"contracts/MultiSig.sol\":2464:2583  function transferOwnership(address _newOwner) external {... */\n      pop\n      jump\t// out\n        /* \"contracts/MultiSig.sol\":3513:3626  function onlyValidSigner() private view {... */\n    tag_63:\n        /* \"contracts/MultiSig.sol\":3572:3585  isValidSigner */\n      0x08\n        /* \"contracts/MultiSig.sol\":3572:3597  isValidSigner[msg.sender] */\n      0x00\n        /* \"contracts/MultiSig.sol\":3586:3596  msg.sender */\n      caller\n        /* \"contracts/MultiSig.sol\":3572:3597  isValidSigner[msg.sender] */\n      0xffffffffffffffffffffffffffffffffffffffff\n      and\n      0xffffffffffffffffffffffffffffffffffffffff\n      and\n      dup2\n      mstore\n      0x20\n      add\n      swap1\n      dup2\n      mstore\n      0x20\n      add\n      0x00\n      keccak256\n      0x00\n      swap1\n      sload\n      swap1\n      0x0100\n      exp\n      swap1\n      div\n      0xff\n      and\n        /* \"contracts/MultiSig.sol\":3564:3618  require(isValidSigner[msg.sender], \"not valid signer\") */\n      tag_131\n      jumpi\n      mload(0x40)\n      0x08c379a000000000000000000000000000000000000000000000000000000000\n      dup2\n      mstore\n      0x04\n      add\n      tag_132\n      swap1\n      tag_133\n      jump\t// in\n    tag_132:\n      mload(0x40)\n      dup1\n      swap2\n      sub\n      swap1\n      revert\n    tag_131:\n        /* \"contracts/MultiSig.sol\":3513:3626  function onlyValidSigner() private view {... */\n      jump\t// out\n        /* \"contracts/MultiSig.sol\":3411:3505  function onlyOwner() private view {... */\n    tag_91:\n        /* \"contracts/MultiSig.sol\":3478:3483  owner */\n      0x03\n      0x00\n      swap1\n      sload\n      swap1\n      0x0100\n      exp\n      swap1\n      div\n      0xffffffffffffffffffffffffffffffffffffffff\n      and\n        /* \"contracts/MultiSig.sol\":3464:3483  msg.sender == owner */\n      0xffffffffffffffffffffffffffffffffffffffff\n      and\n        /* \"contracts/MultiSig.sol\":3464:3474  msg.sender */\n      caller\n        /* \"contracts/MultiSig.sol\":3464:3483  msg.sender == owner */\n      0xffffffffffffffffffffffffffffffffffffffff\n      and\n      eq\n        /* \"contracts/MultiSig.sol\":3456:3497  require(msg.sender == owner, \"not owner\") */\n      tag_135\n      jumpi\n      mload(0x40)\n      0x08c379a000000000000000000000000000000000000000000000000000000000\n      dup2\n      mstore\n      0x04\n      add\n      tag_136\n      swap1\n      tag_137\n      jump\t// in\n    tag_136:\n      mload(0x40)\n      dup1\n      swap2\n      sub\n      swap1\n      revert\n    tag_135:\n        /* \"contracts/MultiSig.sol\":3411:3505  function onlyOwner() private view {... */\n      jump\t// out\n        /* \"#utility.yul\":88:205   */\n    tag_139:\n        /* \"#utility.yul\":197:198   */\n      0x00\n        /* \"#utility.yul\":194:195   */\n      0x00\n        /* \"#utility.yul\":187:199   */\n      revert\n        /* \"#utility.yul\":334:411   */\n    tag_141:\n        /* \"#utility.yul\":371:378   */\n      0x00\n        /* \"#utility.yul\":400:405   */\n      dup2\n        /* \"#utility.yul\":389:405   */\n      swap1\n      pop\n        /* \"#utility.yul\":334:411   */\n      swap2\n      swap1\n      pop\n      jump\t// out\n        /* \"#utility.yul\":417:539   */\n    tag_142:\n        /* \"#utility.yul\":490:514   */\n      tag_194\n        /* \"#utility.yul\":508:513   */\n      dup2\n        /* \"#utility.yul\":490:514   */\n      tag_141\n      jump\t// in\n    tag_194:\n        /* \"#utility.yul\":483:488   */\n      dup2\n        /* \"#utility.yul\":480:515   */\n      eq\n        /* \"#utility.yul\":470:533   */\n      tag_195\n      jumpi\n        /* \"#utility.yul\":529:530   */\n      0x00\n        /* \"#utility.yul\":526:527   */\n      0x00\n        /* \"#utility.yul\":519:531   */\n      revert\n        /* \"#utility.yul\":470:533   */\n    tag_195:\n        /* \"#utility.yul\":417:539   */\n      pop\n      jump\t// out\n        /* \"#utility.yul\":545:684   */\n    tag_143:\n        /* \"#utility.yul\":591:596   */\n      0x00\n        /* \"#utility.yul\":629:635   */\n      dup2\n        /* \"#utility.yul\":616:636   */\n      calldataload\n        /* \"#utility.yul\":607:636   */\n      swap1\n      pop\n        /* \"#utility.yul\":645:678   */\n      tag_197\n        /* \"#utility.yul\":672:677   */\n      dup2\n        /* \"#utility.yul\":645:678   */\n      tag_142\n      jump\t// in\n    tag_197:\n        /* \"#utility.yul\":545:684   */\n      swap3\n      swap2\n      pop\n      pop\n      jump\t// out\n        /* \"#utility.yul\":690:1019   */\n    tag_19:\n        /* \"#utility.yul\":749:755   */\n      0x00\n        /* \"#utility.yul\":798:800   */\n      0x20\n        /* \"#utility.yul\":786:795   */\n      dup3\n        /* \"#utility.yul\":777:784   */\n      dup5\n        /* \"#utility.yul\":773:796   */\n      sub\n        /* \"#utility.yul\":769:801   */\n      slt\n        /* \"#utility.yul\":766:885   */\n      iszero\n      tag_199\n      jumpi\n        /* \"#utility.yul\":804:883   */\n      tag_200\n      tag_139\n      jump\t// in\n    tag_200:\n        /* \"#utility.yul\":766:885   */\n    tag_199:\n        /* \"#utility.yul\":924:925   */\n      0x00\n        /* \"#utility.yul\":949:1002   */\n      tag_201\n        /* \"#utility.yul\":994:1001   */\n      dup5\n        /* \"#utility.yul\":985:991   */\n      dup3\n        /* \"#utility.yul\":974:983   */\n      dup6\n        /* \"#utility.yul\":970:992   */\n      add\n        /* \"#utility.yul\":949:1002   */\n      tag_143\n      jump\t// in\n    tag_201:\n        /* \"#utility.yul\":939:1002   */\n      swap2\n      pop\n        /* \"#utility.yul\":895:1012   */\n      pop\n        /* \"#utility.yul\":690:1019   */\n      swap3\n      swap2\n      pop\n      pop\n      jump\t// out\n        /* \"#utility.yul\":1025:1151   */\n    tag_144:\n        /* \"#utility.yul\":1062:1069   */\n      0x00\n        /* \"#utility.yul\":1102:1144   */\n      0xffffffffffffffffffffffffffffffffffffffff\n        /* \"#utility.yul\":1095:1100   */\n      dup3\n        /* \"#utility.yul\":1091:1145   */\n      and\n        /* \"#utility.yul\":1080:1145   */\n      swap1\n      pop\n        /* \"#utility.yul\":1025:1151   */\n      swap2\n      swap1\n      pop\n      jump\t// out\n        /* \"#utility.yul\":1157:1253   */\n    tag_145:\n        /* \"#utility.yul\":1194:1201   */\n      0x00\n        /* \"#utility.yul\":1223:1247   */\n      tag_204\n        /* \"#utility.yul\":1241:1246   */\n      dup3\n        /* \"#utility.yul\":1223:1247   */\n      tag_144\n      jump\t// in\n    tag_204:\n        /* \"#utility.yul\":1212:1247   */\n      swap1\n      pop\n        /* \"#utility.yul\":1157:1253   */\n      swap2\n      swap1\n      pop\n      jump\t// out\n        /* \"#utility.yul\":1259:1377   */\n    tag_146:\n        /* \"#utility.yul\":1346:1370   */\n      tag_206\n        /* \"#utility.yul\":1364:1369   */\n      dup2\n        /* \"#utility.yul\":1346:1370   */\n      tag_145\n      jump\t// in\n    tag_206:\n        /* \"#utility.yul\":1341:1344   */\n      dup3\n        /* \"#utility.yul\":1334:1371   */\n      mstore\n        /* \"#utility.yul\":1259:1377   */\n      pop\n      pop\n      jump\t// out\n        /* \"#utility.yul\":1383:1605   */\n    tag_22:\n        /* \"#utility.yul\":1476:1480   */\n      0x00\n        /* \"#utility.yul\":1514:1516   */\n      0x20\n        /* \"#utility.yul\":1503:1512   */\n      dup3\n        /* \"#utility.yul\":1499:1517   */\n      add\n        /* \"#utility.yul\":1491:1517   */\n      swap1\n      pop\n        /* \"#utility.yul\":1527:1598   */\n      tag_208\n        /* \"#utility.yul\":1595:1596   */\n      0x00\n        /* \"#utility.yul\":1584:1593   */\n      dup4\n        /* \"#utility.yul\":1580:1597   */\n      add\n        /* \"#utility.yul\":1571:1577   */\n      dup5\n        /* \"#utility.yul\":1527:1598   */\n      tag_146\n      jump\t// in\n    tag_208:\n        /* \"#utility.yul\":1383:1605   */\n      swap3\n      swap2\n      pop\n      pop\n      jump\t// out\n        /* \"#utility.yul\":1611:1752   */\n    tag_147:\n        /* \"#utility.yul\":1705:1711   */\n      0x00\n        /* \"#utility.yul\":1739:1744   */\n      dup2\n        /* \"#utility.yul\":1733:1745   */\n      mload\n        /* \"#utility.yul\":1723:1745   */\n      swap1\n      pop\n        /* \"#utility.yul\":1611:1752   */\n      swap2\n      swap1\n      pop\n      jump\t// out\n        /* \"#utility.yul\":1758:1969   */\n    tag_148:\n        /* \"#utility.yul\":1884:1895   */\n      0x00\n        /* \"#utility.yul\":1918:1924   */\n      dup3\n        /* \"#utility.yul\":1913:1916   */\n      dup3\n        /* \"#utility.yul\":1906:1925   */\n      mstore\n        /* \"#utility.yul\":1958:1962   */\n      0x20\n        /* \"#utility.yul\":1953:1956   */\n      dup3\n        /* \"#utility.yul\":1949:1963   */\n      add\n        /* \"#utility.yul\":1934:1963   */\n      swap1\n      pop\n        /* \"#utility.yul\":1758:1969   */\n      swap3\n      swap2\n      pop\n      pop\n      jump\t// out\n        /* \"#utility.yul\":1975:2134   */\n    tag_149:\n        /* \"#utility.yul\":2069:2073   */\n      0x00\n        /* \"#utility.yul\":2092:2095   */\n      dup2\n        /* \"#utility.yul\":2084:2095   */\n      swap1\n      pop\n        /* \"#utility.yul\":2122:2126   */\n      0x20\n        /* \"#utility.yul\":2117:2120   */\n      dup3\n        /* \"#utility.yul\":2113:2127   */\n      add\n        /* \"#utility.yul\":2105:2127   */\n      swap1\n      pop\n        /* \"#utility.yul\":1975:2134   */\n      swap2\n      swap1\n      pop\n      jump\t// out\n        /* \"#utility.yul\":2140:2248   */\n    tag_150:\n        /* \"#utility.yul\":2217:2241   */\n      tag_213\n        /* \"#utility.yul\":2235:2240   */\n      dup2\n        /* \"#utility.yul\":2217:2241   */\n      tag_141\n      jump\t// in\n    tag_213:\n        /* \"#utility.yul\":2212:2215   */\n      dup3\n        /* \"#utility.yul\":2205:2242   */\n      mstore\n        /* \"#utility.yul\":2140:2248   */\n      pop\n      pop\n      jump\t// out\n        /* \"#utility.yul\":2254:2362   */\n    tag_151:\n        /* \"#utility.yul\":2331:2355   */\n      tag_215\n        /* \"#utility.yul\":2349:2354   */\n      dup2\n        /* \"#utility.yul\":2331:2355   */\n      tag_145\n      jump\t// in\n    tag_215:\n        /* \"#utility.yul\":2326:2329   */\n      dup3\n        /* \"#utility.yul\":2319:2356   */\n      mstore\n        /* \"#utility.yul\":2254:2362   */\n      pop\n      pop\n      jump\t// out\n        /* \"#utility.yul\":2368:2458   */\n    tag_152:\n        /* \"#utility.yul\":2402:2409   */\n      0x00\n        /* \"#utility.yul\":2445:2450   */\n      dup2\n        /* \"#utility.yul\":2438:2451   */\n      iszero\n        /* \"#utility.yul\":2431:2452   */\n      iszero\n        /* \"#utility.yul\":2420:2452   */\n      swap1\n      pop\n        /* \"#utility.yul\":2368:2458   */\n      swap2\n      swap1\n      pop\n      jump\t// out\n        /* \"#utility.yul\":2464:2563   */\n    tag_153:\n        /* \"#utility.yul\":2535:2556   */\n      tag_218\n        /* \"#utility.yul\":2550:2555   */\n      dup2\n        /* \"#utility.yul\":2535:2556   */\n      tag_152\n      jump\t// in\n    tag_218:\n        /* \"#utility.yul\":2530:2533   */\n      dup3\n        /* \"#utility.yul\":2523:2557   */\n      mstore\n        /* \"#utility.yul\":2464:2563   */\n      pop\n      pop\n      jump\t// out\n        /* \"#utility.yul\":2635:3849   */\n    tag_154:\n        /* \"#utility.yul\":2776:2780   */\n      0xc0\n        /* \"#utility.yul\":2771:2774   */\n      dup3\n        /* \"#utility.yul\":2767:2781   */\n      add\n        /* \"#utility.yul\":2861:2865   */\n      0x00\n        /* \"#utility.yul\":2854:2859   */\n      dup3\n        /* \"#utility.yul\":2850:2866   */\n      add\n        /* \"#utility.yul\":2844:2867   */\n      mload\n        /* \"#utility.yul\":2880:2943   */\n      tag_220\n        /* \"#utility.yul\":2937:2941   */\n      0x00\n        /* \"#utility.yul\":2932:2935   */\n      dup6\n        /* \"#utility.yul\":2928:2942   */\n      add\n        /* \"#utility.yul\":2914:2926   */\n      dup3\n        /* \"#utility.yul\":2880:2943   */\n      tag_150\n      jump\t// in\n    tag_220:\n        /* \"#utility.yul\":2791:2953   */\n      pop\n        /* \"#utility.yul\":3037:3041   */\n      0x20\n        /* \"#utility.yul\":3030:3035   */\n      dup3\n        /* \"#utility.yul\":3026:3042   */\n      add\n        /* \"#utility.yul\":3020:3043   */\n      mload\n        /* \"#utility.yul\":3056:3119   */\n      tag_221\n        /* \"#utility.yul\":3113:3117   */\n      0x20\n        /* \"#utility.yul\":3108:3111   */\n      dup6\n        /* \"#utility.yul\":3104:3118   */\n      add\n        /* \"#utility.yul\":3090:3102   */\n      dup3\n        /* \"#utility.yul\":3056:3119   */\n      tag_150\n      jump\t// in\n    tag_221:\n        /* \"#utility.yul\":2963:3129   */\n      pop\n        /* \"#utility.yul\":3215:3219   */\n      0x40\n        /* \"#utility.yul\":3208:3213   */\n      dup3\n        /* \"#utility.yul\":3204:3220   */\n      add\n        /* \"#utility.yul\":3198:3221   */\n      mload\n        /* \"#utility.yul\":3234:3297   */\n      tag_222\n        /* \"#utility.yul\":3291:3295   */\n      0x40\n        /* \"#utility.yul\":3286:3289   */\n      dup6\n        /* \"#utility.yul\":3282:3296   */\n      add\n        /* \"#utility.yul\":3268:3280   */\n      dup3\n        /* \"#utility.yul\":3234:3297   */\n      tag_151\n      jump\t// in\n    tag_222:\n        /* \"#utility.yul\":3139:3307   */\n      pop\n        /* \"#utility.yul\":3397:3401   */\n      0x60\n        /* \"#utility.yul\":3390:3395   */\n      dup3\n        /* \"#utility.yul\":3386:3402   */\n      add\n        /* \"#utility.yul\":3380:3403   */\n      mload\n        /* \"#utility.yul\":3416:3479   */\n      tag_223\n        /* \"#utility.yul\":3473:3477   */\n      0x60\n        /* \"#utility.yul\":3468:3471   */\n      dup6\n        /* \"#utility.yul\":3464:3478   */\n      add\n        /* \"#utility.yul\":3450:3462   */\n      dup3\n        /* \"#utility.yul\":3416:3479   */\n      tag_150\n      jump\t// in\n    tag_223:\n        /* \"#utility.yul\":3317:3489   */\n      pop\n        /* \"#utility.yul\":3577:3581   */\n      0x80\n        /* \"#utility.yul\":3570:3575   */\n      dup3\n        /* \"#utility.yul\":3566:3582   */\n      add\n        /* \"#utility.yul\":3560:3583   */\n      mload\n        /* \"#utility.yul\":3596:3653   */\n      tag_224\n        /* \"#utility.yul\":3647:3651   */\n      0x80\n        /* \"#utility.yul\":3642:3645   */\n      dup6\n        /* \"#utility.yul\":3638:3652   */\n      add\n        /* \"#utility.yul\":3624:3636   */\n      dup3\n        /* \"#utility.yul\":3596:3653   */\n      tag_153\n      jump\t// in\n    tag_224:\n        /* \"#utility.yul\":3499:3663   */\n      pop\n        /* \"#utility.yul\":3750:3754   */\n      0xa0\n        /* \"#utility.yul\":3743:3748   */\n      dup3\n        /* \"#utility.yul\":3739:3755   */\n      add\n        /* \"#utility.yul\":3733:3756   */\n      mload\n        /* \"#utility.yul\":3769:3832   */\n      tag_225\n        /* \"#utility.yul\":3826:3830   */\n      0xa0\n        /* \"#utility.yul\":3821:3824   */\n      dup6\n        /* \"#utility.yul\":3817:3831   */\n      add\n        /* \"#utility.yul\":3803:3815   */\n      dup3\n        /* \"#utility.yul\":3769:3832   */\n      tag_151\n      jump\t// in\n    tag_225:\n        /* \"#utility.yul\":3673:3842   */\n      pop\n        /* \"#utility.yul\":2745:3849   */\n      pop\n        /* \"#utility.yul\":2635:3849   */\n      pop\n      pop\n      jump\t// out\n        /* \"#utility.yul\":3855:4142   */\n    tag_155:\n        /* \"#utility.yul\":3978:3988   */\n      0x00\n        /* \"#utility.yul\":3999:4099   */\n      tag_227\n        /* \"#utility.yul\":4095:4098   */\n      dup4\n        /* \"#utility.yul\":4087:4093   */\n      dup4\n        /* \"#utility.yul\":3999:4099   */\n      tag_154\n      jump\t// in\n    tag_227:\n        /* \"#utility.yul\":4131:4135   */\n      0xc0\n        /* \"#utility.yul\":4126:4129   */\n      dup4\n        /* \"#utility.yul\":4122:4136   */\n      add\n        /* \"#utility.yul\":4108:4136   */\n      swap1\n      pop\n        /* \"#utility.yul\":3855:4142   */\n      swap3\n      swap2\n      pop\n      pop\n      jump\t// out\n        /* \"#utility.yul\":4148:4288   */\n    tag_156:\n        /* \"#utility.yul\":4245:4249   */\n      0x00\n        /* \"#utility.yul\":4277:4281   */\n      0x20\n        /* \"#utility.yul\":4272:4275   */\n      dup3\n        /* \"#utility.yul\":4268:4282   */\n      add\n        /* \"#utility.yul\":4260:4282   */\n      swap1\n      pop\n        /* \"#utility.yul\":4148:4288   */\n      swap2\n      swap1\n      pop\n      jump\t// out\n        /* \"#utility.yul\":4364:5312   */\n    tag_157:\n        /* \"#utility.yul\":4537:4540   */\n      0x00\n        /* \"#utility.yul\":4566:4647   */\n      tag_230\n        /* \"#utility.yul\":4641:4646   */\n      dup3\n        /* \"#utility.yul\":4566:4647   */\n      tag_147\n      jump\t// in\n    tag_230:\n        /* \"#utility.yul\":4663:4776   */\n      tag_231\n        /* \"#utility.yul\":4769:4775   */\n      dup2\n        /* \"#utility.yul\":4764:4767   */\n      dup6\n        /* \"#utility.yul\":4663:4776   */\n      tag_148\n      jump\t// in\n    tag_231:\n        /* \"#utility.yul\":4656:4776   */\n      swap4\n      pop\n        /* \"#utility.yul\":4800:4883   */\n      tag_232\n        /* \"#utility.yul\":4877:4882   */\n      dup4\n        /* \"#utility.yul\":4800:4883   */\n      tag_149\n      jump\t// in\n    tag_232:\n        /* \"#utility.yul\":4906:4913   */\n      dup1\n        /* \"#utility.yul\":4937:4938   */\n      0x00\n        /* \"#utility.yul\":4922:5287   */\n    tag_233:\n        /* \"#utility.yul\":4947:4953   */\n      dup4\n        /* \"#utility.yul\":4944:4945   */\n      dup2\n        /* \"#utility.yul\":4941:4954   */\n      lt\n        /* \"#utility.yul\":4922:5287   */\n      iszero\n      tag_235\n      jumpi\n        /* \"#utility.yul\":5023:5029   */\n      dup2\n        /* \"#utility.yul\":5017:5030   */\n      mload\n        /* \"#utility.yul\":5050:5167   */\n      tag_236\n        /* \"#utility.yul\":5163:5166   */\n      dup9\n        /* \"#utility.yul\":5148:5161   */\n      dup3\n        /* \"#utility.yul\":5050:5167   */\n      tag_155\n      jump\t// in\n    tag_236:\n        /* \"#utility.yul\":5043:5167   */\n      swap8\n      pop\n        /* \"#utility.yul\":5190:5277   */\n      tag_237\n        /* \"#utility.yul\":5270:5276   */\n      dup4\n        /* \"#utility.yul\":5190:5277   */\n      tag_156\n      jump\t// in\n    tag_237:\n        /* \"#utility.yul\":5180:5277   */\n      swap3\n      pop\n        /* \"#utility.yul\":4982:5287   */\n      pop\n        /* \"#utility.yul\":4969:4970   */\n      0x01\n        /* \"#utility.yul\":4966:4967   */\n      dup2\n        /* \"#utility.yul\":4962:4971   */\n      add\n        /* \"#utility.yul\":4957:4971   */\n      swap1\n      pop\n        /* \"#utility.yul\":4922:5287   */\n      jump(tag_233)\n    tag_235:\n        /* \"#utility.yul\":4926:4940   */\n      pop\n        /* \"#utility.yul\":5303:5306   */\n      dup6\n        /* \"#utility.yul\":5296:5306   */\n      swap4\n      pop\n        /* \"#utility.yul\":4542:5312   */\n      pop\n      pop\n      pop\n        /* \"#utility.yul\":4364:5312   */\n      swap3\n      swap2\n      pop\n      pop\n      jump\t// out\n        /* \"#utility.yul\":5318:5799   */\n    tag_31:\n        /* \"#utility.yul\":5515:5519   */\n      0x00\n        /* \"#utility.yul\":5553:5555   */\n      0x20\n        /* \"#utility.yul\":5542:5551   */\n      dup3\n        /* \"#utility.yul\":5538:5556   */\n      add\n        /* \"#utility.yul\":5530:5556   */\n      swap1\n      pop\n        /* \"#utility.yul\":5602:5611   */\n      dup2\n        /* \"#utility.yul\":5596:5600   */\n      dup2\n        /* \"#utility.yul\":5592:5612   */\n      sub\n        /* \"#utility.yul\":5588:5589   */\n      0x00\n        /* \"#utility.yul\":5577:5586   */\n      dup4\n        /* \"#utility.yul\":5573:5590   */\n      add\n        /* \"#utility.yul\":5566:5613   */\n      mstore\n        /* \"#utility.yul\":5630:5792   */\n      tag_239\n        /* \"#utility.yul\":5787:5791   */\n      dup2\n        /* \"#utility.yul\":5778:5784   */\n      dup5\n        /* \"#utility.yul\":5630:5792   */\n      tag_157\n      jump\t// in\n    tag_239:\n        /* \"#utility.yul\":5622:5792   */\n      swap1\n      pop\n        /* \"#utility.yul\":5318:5799   */\n      swap3\n      swap2\n      pop\n      pop\n      jump\t// out\n        /* \"#utility.yul\":5805:5927   */\n    tag_158:\n        /* \"#utility.yul\":5878:5902   */\n      tag_241\n        /* \"#utility.yul\":5896:5901   */\n      dup2\n        /* \"#utility.yul\":5878:5902   */\n      tag_145\n      jump\t// in\n    tag_241:\n        /* \"#utility.yul\":5871:5876   */\n      dup2\n        /* \"#utility.yul\":5868:5903   */\n      eq\n        /* \"#utility.yul\":5858:5921   */\n      tag_242\n      jumpi\n        /* \"#utility.yul\":5917:5918   */\n      0x00\n        /* \"#utility.yul\":5914:5915   */\n      0x00\n        /* \"#utility.yul\":5907:5919   */\n      revert\n        /* \"#utility.yul\":5858:5921   */\n    tag_242:\n        /* \"#utility.yul\":5805:5927   */\n      pop\n      jump\t// out\n        /* \"#utility.yul\":5933:6072   */\n    tag_159:\n        /* \"#utility.yul\":5979:5984   */\n      0x00\n        /* \"#utility.yul\":6017:6023   */\n      dup2\n        /* \"#utility.yul\":6004:6024   */\n      calldataload\n        /* \"#utility.yul\":5995:6024   */\n      swap1\n      pop\n        /* \"#utility.yul\":6033:6066   */\n      tag_244\n        /* \"#utility.yul\":6060:6065   */\n      dup2\n        /* \"#utility.yul\":6033:6066   */\n      tag_158\n      jump\t// in\n    tag_244:\n        /* \"#utility.yul\":5933:6072   */\n      swap3\n      swap2\n      pop\n      pop\n      jump\t// out\n        /* \"#utility.yul\":6078:6407   */\n    tag_42:\n        /* \"#utility.yul\":6137:6143   */\n      0x00\n        /* \"#utility.yul\":6186:6188   */\n      0x20\n        /* \"#utility.yul\":6174:6183   */\n      dup3\n        /* \"#utility.yul\":6165:6172   */\n      dup5\n        /* \"#utility.yul\":6161:6184   */\n      sub\n        /* \"#utility.yul\":6157:6189   */\n      slt\n        /* \"#utility.yul\":6154:6273   */\n      iszero\n      tag_246\n      jumpi\n        /* \"#utility.yul\":6192:6271   */\n      tag_247\n      tag_139\n      jump\t// in\n    tag_247:\n        /* \"#utility.yul\":6154:6273   */\n    tag_246:\n        /* \"#utility.yul\":6312:6313   */\n      0x00\n        /* \"#utility.yul\":6337:6390   */\n      tag_248\n        /* \"#utility.yul\":6382:6389   */\n      dup5\n        /* \"#utility.yul\":6373:6379   */\n      dup3\n        /* \"#utility.yul\":6362:6371   */\n      dup6\n        /* \"#utility.yul\":6358:6380   */\n      add\n        /* \"#utility.yul\":6337:6390   */\n      tag_159\n      jump\t// in\n    tag_248:\n        /* \"#utility.yul\":6327:6390   */\n      swap2\n      pop\n        /* \"#utility.yul\":6283:6400   */\n      pop\n        /* \"#utility.yul\":6078:6407   */\n      swap3\n      swap2\n      pop\n      pop\n      jump\t// out\n        /* \"#utility.yul\":6413:6887   */\n    tag_47:\n        /* \"#utility.yul\":6481:6487   */\n      0x00\n        /* \"#utility.yul\":6489:6495   */\n      0x00\n        /* \"#utility.yul\":6538:6540   */\n      0x40\n        /* \"#utility.yul\":6526:6535   */\n      dup4\n        /* \"#utility.yul\":6517:6524   */\n      dup6\n        /* \"#utility.yul\":6513:6536   */\n      sub\n        /* \"#utility.yul\":6509:6541   */\n      slt\n        /* \"#utility.yul\":6506:6625   */\n      iszero\n      tag_250\n      jumpi\n        /* \"#utility.yul\":6544:6623   */\n      tag_251\n      tag_139\n      jump\t// in\n    tag_251:\n        /* \"#utility.yul\":6506:6625   */\n    tag_250:\n        /* \"#utility.yul\":6664:6665   */\n      0x00\n        /* \"#utility.yul\":6689:6742   */\n      tag_252\n        /* \"#utility.yul\":6734:6741   */\n      dup6\n        /* \"#utility.yul\":6725:6731   */\n      dup3\n        /* \"#utility.yul\":6714:6723   */\n      dup7\n        /* \"#utility.yul\":6710:6732   */\n      add\n        /* \"#utility.yul\":6689:6742   */\n      tag_143\n      jump\t// in\n    tag_252:\n        /* \"#utility.yul\":6679:6742   */\n      swap3\n      pop\n        /* \"#utility.yul\":6635:6752   */\n      pop\n        /* \"#utility.yul\":6791:6793   */\n      0x20\n        /* \"#utility.yul\":6817:6870   */\n      tag_253\n        /* \"#utility.yul\":6862:6869   */\n      dup6\n        /* \"#utility.yul\":6853:6859   */\n      dup3\n        /* \"#utility.yul\":6842:6851   */\n      dup7\n        /* \"#utility.yul\":6838:6860   */\n      add\n        /* \"#utility.yul\":6817:6870   */\n      tag_159\n      jump\t// in\n    tag_253:\n        /* \"#utility.yul\":6807:6870   */\n      swap2\n      pop\n        /* \"#utility.yul\":6762:6880   */\n      pop\n        /* \"#utility.yul\":6413:6887   */\n      swap3\n      pop\n      swap3\n      swap1\n      pop\n      jump\t// out\n        /* \"#utility.yul\":6893:7062   */\n    tag_160:\n        /* \"#utility.yul\":6977:6988   */\n      0x00\n        /* \"#utility.yul\":7011:7017   */\n      dup3\n        /* \"#utility.yul\":7006:7009   */\n      dup3\n        /* \"#utility.yul\":6999:7018   */\n      mstore\n        /* \"#utility.yul\":7051:7055   */\n      0x20\n        /* \"#utility.yul\":7046:7049   */\n      dup3\n        /* \"#utility.yul\":7042:7056   */\n      add\n        /* \"#utility.yul\":7027:7056   */\n      swap1\n      pop\n        /* \"#utility.yul\":6893:7062   */\n      swap3\n      swap2\n      pop\n      pop\n      jump\t// out\n        /* \"#utility.yul\":7068:7240   */\n    tag_161:\n        /* \"#utility.yul\":7208:7232   */\n      0x696e76616c6964207472616e73616374696f6e20696400000000000000000000\n        /* \"#utility.yul\":7204:7205   */\n      0x00\n        /* \"#utility.yul\":7196:7202   */\n      dup3\n        /* \"#utility.yul\":7192:7206   */\n      add\n        /* \"#utility.yul\":7185:7233   */\n      mstore\n        /* \"#utility.yul\":7068:7240   */\n      pop\n      jump\t// out\n        /* \"#utility.yul\":7246:7612   */\n    tag_162:\n        /* \"#utility.yul\":7388:7391   */\n      0x00\n        /* \"#utility.yul\":7409:7476   */\n      tag_257\n        /* \"#utility.yul\":7473:7475   */\n      0x16\n        /* \"#utility.yul\":7468:7471   */\n      dup4\n        /* \"#utility.yul\":7409:7476   */\n      tag_160\n      jump\t// in\n    tag_257:\n        /* \"#utility.yul\":7402:7476   */\n      swap2\n      pop\n        /* \"#utility.yul\":7485:7578   */\n      tag_258\n        /* \"#utility.yul\":7574:7577   */\n      dup3\n        /* \"#utility.yul\":7485:7578   */\n      tag_161\n      jump\t// in\n    tag_258:\n        /* \"#utility.yul\":7603:7605   */\n      0x20\n        /* \"#utility.yul\":7598:7601   */\n      dup3\n        /* \"#utility.yul\":7594:7606   */\n      add\n        /* \"#utility.yul\":7587:7606   */\n      swap1\n      pop\n        /* \"#utility.yul\":7246:7612   */\n      swap2\n      swap1\n      pop\n      jump\t// out\n        /* \"#utility.yul\":7618:8037   */\n    tag_58:\n        /* \"#utility.yul\":7784:7788   */\n      0x00\n        /* \"#utility.yul\":7822:7824   */\n      0x20\n        /* \"#utility.yul\":7811:7820   */\n      dup3\n        /* \"#utility.yul\":7807:7825   */\n      add\n        /* \"#utility.yul\":7799:7825   */\n      swap1\n      pop\n        /* \"#utility.yul\":7871:7880   */\n      dup2\n        /* \"#utility.yul\":7865:7869   */\n      dup2\n        /* \"#utility.yul\":7861:7881   */\n      sub\n        /* \"#utility.yul\":7857:7858   */\n      0x00\n        /* \"#utility.yul\":7846:7855   */\n      dup4\n        /* \"#utility.yul\":7842:7859   */\n      add\n        /* \"#utility.yul\":7835:7882   */\n      mstore\n        /* \"#utility.yul\":7899:8030   */\n      tag_260\n        /* \"#utility.yul\":8025:8029   */\n      dup2\n        /* \"#utility.yul\":7899:8030   */\n      tag_162\n      jump\t// in\n    tag_260:\n        /* \"#utility.yul\":7891:8030   */\n      swap1\n      pop\n        /* \"#utility.yul\":7618:8037   */\n      swap2\n      swap1\n      pop\n      jump\t// out\n        /* \"#utility.yul\":8043:8213   */\n    tag_163:\n        /* \"#utility.yul\":8183:8205   */\n      0x7a65726f20616464726573732064746563746564000000000000000000000000\n        /* \"#utility.yul\":8179:8180   */\n      0x00\n        /* \"#utility.yul\":8171:8177   */\n      dup3\n        /* \"#utility.yul\":8167:8181   */\n      add\n        /* \"#utility.yul\":8160:8206   */\n      mstore\n        /* \"#utility.yul\":8043:8213   */\n      pop\n      jump\t// out\n        /* \"#utility.yul\":8219:8585   */\n    tag_164:\n        /* \"#utility.yul\":8361:8364   */\n      0x00\n        /* \"#utility.yul\":8382:8449   */\n      tag_263\n        /* \"#utility.yul\":8446:8448   */\n      0x14\n        /* \"#utility.yul\":8441:8444   */\n      dup4\n        /* \"#utility.yul\":8382:8449   */\n      tag_160\n      jump\t// in\n    tag_263:\n        /* \"#utility.yul\":8375:8449   */\n      swap2\n      pop\n        /* \"#utility.yul\":8458:8551   */\n      tag_264\n        /* \"#utility.yul\":8547:8550   */\n      dup3\n        /* \"#utility.yul\":8458:8551   */\n      tag_163\n      jump\t// in\n    tag_264:\n        /* \"#utility.yul\":8576:8578   */\n      0x20\n        /* \"#utility.yul\":8571:8574   */\n      dup3\n        /* \"#utility.yul\":8567:8579   */\n      add\n        /* \"#utility.yul\":8560:8579   */\n      swap1\n      pop\n        /* \"#utility.yul\":8219:8585   */\n      swap2\n      swap1\n      pop\n      jump\t// out\n        /* \"#utility.yul\":8591:9010   */\n    tag_61:\n        /* \"#utility.yul\":8757:8761   */\n      0x00\n        /* \"#utility.yul\":8795:8797   */\n      0x20\n        /* \"#utility.yul\":8784:8793   */\n      dup3\n        /* \"#utility.yul\":8780:8798   */\n      add\n        /* \"#utility.yul\":8772:8798   */\n      swap1\n      pop\n        /* \"#utility.yul\":8844:8853   */\n      dup2\n        /* \"#utility.yul\":8838:8842   */\n      dup2\n        /* \"#utility.yul\":8834:8854   */\n      sub\n        /* \"#utility.yul\":8830:8831   */\n      0x00\n        /* \"#utility.yul\":8819:8828   */\n      dup4\n        /* \"#utility.yul\":8815:8832   */\n      add\n        /* \"#utility.yul\":8808:8855   */\n      mstore\n        /* \"#utility.yul\":8872:9003   */\n      tag_266\n        /* \"#utility.yul\":8998:9002   */\n      dup2\n        /* \"#utility.yul\":8872:9003   */\n      tag_164\n      jump\t// in\n    tag_266:\n        /* \"#utility.yul\":8864:9003   */\n      swap1\n      pop\n        /* \"#utility.yul\":8591:9010   */\n      swap2\n      swap1\n      pop\n      jump\t// out\n        /* \"#utility.yul\":9016:9182   */\n    tag_165:\n        /* \"#utility.yul\":9156:9174   */\n      0x63616e2774207369676e20747769636500000000000000000000000000000000\n        /* \"#utility.yul\":9152:9153   */\n      0x00\n        /* \"#utility.yul\":9144:9150   */\n      dup3\n        /* \"#utility.yul\":9140:9154   */\n      add\n        /* \"#utility.yul\":9133:9175   */\n      mstore\n        /* \"#utility.yul\":9016:9182   */\n      pop\n      jump\t// out\n        /* \"#utility.yul\":9188:9554   */\n    tag_166:\n        /* \"#utility.yul\":9330:9333   */\n      0x00\n        /* \"#utility.yul\":9351:9418   */\n      tag_269\n        /* \"#utility.yul\":9415:9417   */\n      0x10\n        /* \"#utility.yul\":9410:9413   */\n      dup4\n        /* \"#utility.yul\":9351:9418   */\n      tag_160\n      jump\t// in\n    tag_269:\n        /* \"#utility.yul\":9344:9418   */\n      swap2\n      pop\n        /* \"#utility.yul\":9427:9520   */\n      tag_270\n        /* \"#utility.yul\":9516:9519   */\n      dup3\n        /* \"#utility.yul\":9427:9520   */\n      tag_165\n      jump\t// in\n    tag_270:\n        /* \"#utility.yul\":9545:9547   */\n      0x20\n        /* \"#utility.yul\":9540:9543   */\n      dup3\n        /* \"#utility.yul\":9536:9548   */\n      add\n        /* \"#utility.yul\":9529:9548   */\n      swap1\n      pop\n        /* \"#utility.yul\":9188:9554   */\n      swap2\n      swap1\n      pop\n      jump\t// out\n        /* \"#utility.yul\":9560:9979   */\n    tag_66:\n        /* \"#utility.yul\":9726:9730   */\n      0x00\n        /* \"#utility.yul\":9764:9766   */\n      0x20\n        /* \"#utility.yul\":9753:9762   */\n      dup3\n        /* \"#utility.yul\":9749:9767   */\n      add\n        /* \"#utility.yul\":9741:9767   */\n      swap1\n      pop\n        /* \"#utility.yul\":9813:9822   */\n      dup2\n        /* \"#utility.yul\":9807:9811   */\n      dup2\n        /* \"#utility.yul\":9803:9823   */\n      sub\n        /* \"#utility.yul\":9799:9800   */\n      0x00\n        /* \"#utility.yul\":9788:9797   */\n      dup4\n        /* \"#utility.yul\":9784:9801   */\n      add\n        /* \"#utility.yul\":9777:9824   */\n      mstore\n        /* \"#utility.yul\":9841:9972   */\n      tag_272\n        /* \"#utility.yul\":9967:9971   */\n      dup2\n        /* \"#utility.yul\":9841:9972   */\n      tag_166\n      jump\t// in\n    tag_272:\n        /* \"#utility.yul\":9833:9972   */\n      swap1\n      pop\n        /* \"#utility.yul\":9560:9979   */\n      swap2\n      swap1\n      pop\n      jump\t// out\n        /* \"#utility.yul\":9985:10164   */\n    tag_167:\n        /* \"#utility.yul\":10125:10156   */\n      0x696e73756666696369656e7420636f6e74726163742062616c616e6365000000\n        /* \"#utility.yul\":10121:10122   */\n      0x00\n        /* \"#utility.yul\":10113:10119   */\n      dup3\n        /* \"#utility.yul\":10109:10123   */\n      add\n        /* \"#utility.yul\":10102:10157   */\n      mstore\n        /* \"#utility.yul\":9985:10164   */\n      pop\n      jump\t// out\n        /* \"#utility.yul\":10170:10536   */\n    tag_168:\n        /* \"#utility.yul\":10312:10315   */\n      0x00\n        /* \"#utility.yul\":10333:10400   */\n      tag_275\n        /* \"#utility.yul\":10397:10399   */\n      0x1d\n        /* \"#utility.yul\":10392:10395   */\n      dup4\n        /* \"#utility.yul\":10333:10400   */\n      tag_160\n      jump\t// in\n    tag_275:\n        /* \"#utility.yul\":10326:10400   */\n      swap2\n      pop\n        /* \"#utility.yul\":10409:10502   */\n      tag_276\n        /* \"#utility.yul\":10498:10501   */\n      dup3\n        /* \"#utility.yul\":10409:10502   */\n      tag_167\n      jump\t// in\n    tag_276:\n        /* \"#utility.yul\":10527:10529   */\n      0x20\n        /* \"#utility.yul\":10522:10525   */\n      dup3\n        /* \"#utility.yul\":10518:10530   */\n      add\n        /* \"#utility.yul\":10511:10530   */\n      swap1\n      pop\n        /* \"#utility.yul\":10170:10536   */\n      swap2\n      swap1\n      pop\n      jump\t// out\n        /* \"#utility.yul\":10542:10961   */\n    tag_69:\n        /* \"#utility.yul\":10708:10712   */\n      0x00\n        /* \"#utility.yul\":10746:10748   */\n      0x20\n        /* \"#utility.yul\":10735:10744   */\n      dup3\n        /* \"#utility.yul\":10731:10749   */\n      add\n        /* \"#utility.yul\":10723:10749   */\n      swap1\n      pop\n        /* \"#utility.yul\":10795:10804   */\n      dup2\n        /* \"#utility.yul\":10789:10793   */\n      dup2\n        /* \"#utility.yul\":10785:10805   */\n      sub\n        /* \"#utility.yul\":10781:10782   */\n      0x00\n        /* \"#utility.yul\":10770:10779   */\n      dup4\n        /* \"#utility.yul\":10766:10783   */\n      add\n        /* \"#utility.yul\":10759:10806   */\n      mstore\n        /* \"#utility.yul\":10823:10954   */\n      tag_278\n        /* \"#utility.yul\":10949:10953   */\n      dup2\n        /* \"#utility.yul\":10823:10954   */\n      tag_168\n      jump\t// in\n    tag_278:\n        /* \"#utility.yul\":10815:10954   */\n      swap1\n      pop\n        /* \"#utility.yul\":10542:10961   */\n      swap2\n      swap1\n      pop\n      jump\t// out\n        /* \"#utility.yul\":10967:11145   */\n    tag_169:\n        /* \"#utility.yul\":11107:11137   */\n      0x7472616e73616374696f6e20616c726561647920657865637574656400000000\n        /* \"#utility.yul\":11103:11104   */\n      0x00\n        /* \"#utility.yul\":11095:11101   */\n      dup3\n        /* \"#utility.yul\":11091:11105   */\n      add\n        /* \"#utility.yul\":11084:11138   */\n      mstore\n        /* \"#utility.yul\":10967:11145   */\n      pop\n      jump\t// out\n        /* \"#utility.yul\":11151:11517   */\n    tag_170:\n        /* \"#utility.yul\":11293:11296   */\n      0x00\n        /* \"#utility.yul\":11314:11381   */\n      tag_281\n        /* \"#utility.yul\":11378:11380   */\n      0x1c\n        /* \"#utility.yul\":11373:11376   */\n      dup4\n        /* \"#utility.yul\":11314:11381   */\n      tag_160\n      jump\t// in\n    tag_281:\n        /* \"#utility.yul\":11307:11381   */\n      swap2\n      pop\n        /* \"#utility.yul\":11390:11483   */\n      tag_282\n        /* \"#utility.yul\":11479:11482   */\n      dup3\n        /* \"#utility.yul\":11390:11483   */\n      tag_169\n      jump\t// in\n    tag_282:\n        /* \"#utility.yul\":11508:11510   */\n      0x20\n        /* \"#utility.yul\":11503:11506   */\n      dup3\n        /* \"#utility.yul\":11499:11511   */\n      add\n        /* \"#utility.yul\":11492:11511   */\n      swap1\n      pop\n        /* \"#utility.yul\":11151:11517   */\n      swap2\n      swap1\n      pop\n      jump\t// out\n        /* \"#utility.yul\":11523:11942   */\n    tag_72:\n        /* \"#utility.yul\":11689:11693   */\n      0x00\n        /* \"#utility.yul\":11727:11729   */\n      0x20\n        /* \"#utility.yul\":11716:11725   */\n      dup3\n        /* \"#utility.yul\":11712:11730   */\n      add\n        /* \"#utility.yul\":11704:11730   */\n      swap1\n      pop\n        /* \"#utility.yul\":11776:11785   */\n      dup2\n        /* \"#utility.yul\":11770:11774   */\n      dup2\n        /* \"#utility.yul\":11766:11786   */\n      sub\n        /* \"#utility.yul\":11762:11763   */\n      0x00\n        /* \"#utility.yul\":11751:11760   */\n      dup4\n        /* \"#utility.yul\":11747:11764   */\n      add\n        /* \"#utility.yul\":11740:11787   */\n      mstore\n        /* \"#utility.yul\":11804:11935   */\n      tag_284\n        /* \"#utility.yul\":11930:11934   */\n      dup2\n        /* \"#utility.yul\":11804:11935   */\n      tag_170\n      jump\t// in\n    tag_284:\n        /* \"#utility.yul\":11796:11935   */\n      swap1\n      pop\n        /* \"#utility.yul\":11523:11942   */\n      swap2\n      swap1\n      pop\n      jump\t// out\n        /* \"#utility.yul\":11948:12118   */\n    tag_171:\n        /* \"#utility.yul\":12088:12110   */\n      0x71756f72756d20636f756e742072656163686564000000000000000000000000\n        /* \"#utility.yul\":12084:12085   */\n      0x00\n        /* \"#utility.yul\":12076:12082   */\n      dup3\n        /* \"#utility.yul\":12072:12086   */\n      add\n        /* \"#utility.yul\":12065:12111   */\n      mstore\n        /* \"#utility.yul\":11948:12118   */\n      pop\n      jump\t// out\n        /* \"#utility.yul\":12124:12490   */\n    tag_172:\n        /* \"#utility.yul\":12266:12269   */\n      0x00\n        /* \"#utility.yul\":12287:12354   */\n      tag_287\n        /* \"#utility.yul\":12351:12353   */\n      0x14\n        /* \"#utility.yul\":12346:12349   */\n      dup4\n        /* \"#utility.yul\":12287:12354   */\n      tag_160\n      jump\t// in\n    tag_287:\n        /* \"#utility.yul\":12280:12354   */\n      swap2\n      pop\n        /* \"#utility.yul\":12363:12456   */\n      tag_288\n        /* \"#utility.yul\":12452:12455   */\n      dup3\n        /* \"#utility.yul\":12363:12456   */\n      tag_171\n      jump\t// in\n    tag_288:\n        /* \"#utility.yul\":12481:12483   */\n      0x20\n        /* \"#utility.yul\":12476:12479   */\n      dup3\n        /* \"#utility.yul\":12472:12484   */\n      add\n        /* \"#utility.yul\":12465:12484   */\n      swap1\n      pop\n        /* \"#utility.yul\":12124:12490   */\n      swap2\n      swap1\n      pop\n      jump\t// out\n        /* \"#utility.yul\":12496:12915   */\n    tag_75:\n        /* \"#utility.yul\":12662:12666   */\n      0x00\n        /* \"#utility.yul\":12700:12702   */\n      0x20\n        /* \"#utility.yul\":12689:12698   */\n      dup3\n        /* \"#utility.yul\":12685:12703   */\n      add\n        /* \"#utility.yul\":12677:12703   */\n      swap1\n      pop\n        /* \"#utility.yul\":12749:12758   */\n      dup2\n        /* \"#utility.yul\":12743:12747   */\n      dup2\n        /* \"#utility.yul\":12739:12759   */\n      sub\n        /* \"#utility.yul\":12735:12736   */\n      0x00\n        /* \"#utility.yul\":12724:12733   */\n      dup4\n        /* \"#utility.yul\":12720:12737   */\n      add\n        /* \"#utility.yul\":12713:12760   */\n      mstore\n        /* \"#utility.yul\":12777:12908   */\n      tag_290\n        /* \"#utility.yul\":12903:12907   */\n      dup2\n        /* \"#utility.yul\":12777:12908   */\n      tag_172\n      jump\t// in\n    tag_290:\n        /* \"#utility.yul\":12769:12908   */\n      swap1\n      pop\n        /* \"#utility.yul\":12496:12915   */\n      swap2\n      swap1\n      pop\n      jump\t// out\n        /* \"#utility.yul\":12921:13101   */\n    tag_173:\n        /* \"#utility.yul\":12969:13046   */\n      0x4e487b7100000000000000000000000000000000000000000000000000000000\n        /* \"#utility.yul\":12966:12967   */\n      0x00\n        /* \"#utility.yul\":12959:13047   */\n      mstore\n        /* \"#utility.yul\":13066:13070   */\n      0x11\n        /* \"#utility.yul\":13063:13064   */\n      0x04\n        /* \"#utility.yul\":13056:13071   */\n      mstore\n        /* \"#utility.yul\":13090:13094   */\n      0x24\n        /* \"#utility.yul\":13087:13088   */\n      0x00\n        /* \"#utility.yul\":13080:13095   */\n      revert\n        /* \"#utility.yul\":13107:13298   */\n    tag_77:\n        /* \"#utility.yul\":13147:13150   */\n      0x00\n        /* \"#utility.yul\":13166:13186   */\n      tag_293\n        /* \"#utility.yul\":13184:13185   */\n      dup3\n        /* \"#utility.yul\":13166:13186   */\n      tag_141\n      jump\t// in\n    tag_293:\n        /* \"#utility.yul\":13161:13186   */\n      swap2\n      pop\n        /* \"#utility.yul\":13200:13220   */\n      tag_294\n        /* \"#utility.yul\":13218:13219   */\n      dup4\n        /* \"#utility.yul\":13200:13220   */\n      tag_141\n      jump\t// in\n    tag_294:\n        /* \"#utility.yul\":13195:13220   */\n      swap3\n      pop\n        /* \"#utility.yul\":13243:13244   */\n      dup3\n        /* \"#utility.yul\":13240:13241   */\n      dup3\n        /* \"#utility.yul\":13236:13245   */\n      add\n        /* \"#utility.yul\":13229:13245   */\n      swap1\n      pop\n        /* \"#utility.yul\":13264:13267   */\n      dup1\n        /* \"#utility.yul\":13261:13262   */\n      dup3\n        /* \"#utility.yul\":13258:13268   */\n      gt\n        /* \"#utility.yul\":13255:13291   */\n      iszero\n      tag_295\n      jumpi\n        /* \"#utility.yul\":13271:13289   */\n      tag_296\n      tag_173\n      jump\t// in\n    tag_296:\n        /* \"#utility.yul\":13255:13291   */\n    tag_295:\n        /* \"#utility.yul\":13107:13298   */\n      swap3\n      swap2\n      pop\n      pop\n      jump\t// out\n        /* \"#utility.yul\":13304:13468   */\n    tag_174:\n        /* \"#utility.yul\":13444:13460   */\n      0x6e6f74206e657874206f776e6572000000000000000000000000000000000000\n        /* \"#utility.yul\":13440:13441   */\n      0x00\n        /* \"#utility.yul\":13432:13438   */\n      dup3\n        /* \"#utility.yul\":13428:13442   */\n      add\n        /* \"#utility.yul\":13421:13461   */\n      mstore\n        /* \"#utility.yul\":13304:13468   */\n      pop\n      jump\t// out\n        /* \"#utility.yul\":13474:13840   */\n    tag_175:\n        /* \"#utility.yul\":13616:13619   */\n      0x00\n        /* \"#utility.yul\":13637:13704   */\n      tag_299\n        /* \"#utility.yul\":13701:13703   */\n      0x0e\n        /* \"#utility.yul\":13696:13699   */\n      dup4\n        /* \"#utility.yul\":13637:13704   */\n      tag_160\n      jump\t// in\n    tag_299:\n        /* \"#utility.yul\":13630:13704   */\n      swap2\n      pop\n        /* \"#utility.yul\":13713:13806   */\n      tag_300\n        /* \"#utility.yul\":13802:13805   */\n      dup3\n        /* \"#utility.yul\":13713:13806   */\n      tag_174\n      jump\t// in\n    tag_300:\n        /* \"#utility.yul\":13831:13833   */\n      0x20\n        /* \"#utility.yul\":13826:13829   */\n      dup3\n        /* \"#utility.yul\":13822:13834   */\n      add\n        /* \"#utility.yul\":13815:13834   */\n      swap1\n      pop\n        /* \"#utility.yul\":13474:13840   */\n      swap2\n      swap1\n      pop\n      jump\t// out\n        /* \"#utility.yul\":13846:14265   */\n    tag_88:\n        /* \"#utility.yul\":14012:14016   */\n      0x00\n        /* \"#utility.yul\":14050:14052   */\n      0x20\n        /* \"#utility.yul\":14039:14048   */\n      dup3\n        /* \"#utility.yul\":14035:14053   */\n      add\n        /* \"#utility.yul\":14027:14053   */\n      swap1\n      pop\n        /* \"#utility.yul\":14099:14108   */\n      dup2\n        /* \"#utility.yul\":14093:14097   */\n      dup2\n        /* \"#utility.yul\":14089:14109   */\n      sub\n        /* \"#utility.yul\":14085:14086   */\n      0x00\n        /* \"#utility.yul\":14074:14083   */\n      dup4\n        /* \"#utility.yul\":14070:14087   */\n      add\n        /* \"#utility.yul\":14063:14110   */\n      mstore\n        /* \"#utility.yul\":14127:14258   */\n      tag_302\n        /* \"#utility.yul\":14253:14257   */\n      dup2\n        /* \"#utility.yul\":14127:14258   */\n      tag_175\n      jump\t// in\n    tag_302:\n        /* \"#utility.yul\":14119:14258   */\n      swap1\n      pop\n        /* \"#utility.yul\":13846:14265   */\n      swap2\n      swap1\n      pop\n      jump\t// out\n        /* \"#utility.yul\":14271:14434   */\n    tag_176:\n        /* \"#utility.yul\":14411:14426   */\n      0x496e76616c696420696e64657800000000000000000000000000000000000000\n        /* \"#utility.yul\":14407:14408   */\n      0x00\n        /* \"#utility.yul\":14399:14405   */\n      dup3\n        /* \"#utility.yul\":14395:14409   */\n      add\n        /* \"#utility.yul\":14388:14427   */\n      mstore\n        /* \"#utility.yul\":14271:14434   */\n      pop\n      jump\t// out\n        /* \"#utility.yul\":14440:14806   */\n    tag_177:\n        /* \"#utility.yul\":14582:14585   */\n      0x00\n        /* \"#utility.yul\":14603:14670   */\n      tag_305\n        /* \"#utility.yul\":14667:14669   */\n      0x0d\n        /* \"#utility.yul\":14662:14665   */\n      dup4\n        /* \"#utility.yul\":14603:14670   */\n      tag_160\n      jump\t// in\n    tag_305:\n        /* \"#utility.yul\":14596:14670   */\n      swap2\n      pop\n        /* \"#utility.yul\":14679:14772   */\n      tag_306\n        /* \"#utility.yul\":14768:14771   */\n      dup3\n        /* \"#utility.yul\":14679:14772   */\n      tag_176\n      jump\t// in\n    tag_306:\n        /* \"#utility.yul\":14797:14799   */\n      0x20\n        /* \"#utility.yul\":14792:14795   */\n      dup3\n        /* \"#utility.yul\":14788:14800   */\n      add\n        /* \"#utility.yul\":14781:14800   */\n      swap1\n      pop\n        /* \"#utility.yul\":14440:14806   */\n      swap2\n      swap1\n      pop\n      jump\t// out\n        /* \"#utility.yul\":14812:15231   */\n    tag_94:\n        /* \"#utility.yul\":14978:14982   */\n      0x00\n        /* \"#utility.yul\":15016:15018   */\n      0x20\n        /* \"#utility.yul\":15005:15014   */\n      dup3\n        /* \"#utility.yul\":15001:15019   */\n      add\n        /* \"#utility.yul\":14993:15019   */\n      swap1\n      pop\n        /* \"#utility.yul\":15065:15074   */\n      dup2\n        /* \"#utility.yul\":15059:15063   */\n      dup2\n        /* \"#utility.yul\":15055:15075   */\n      sub\n        /* \"#utility.yul\":15051:15052   */\n      0x00\n        /* \"#utility.yul\":15040:15049   */\n      dup4\n        /* \"#utility.yul\":15036:15053   */\n      add\n        /* \"#utility.yul\":15029:15076   */\n      mstore\n        /* \"#utility.yul\":15093:15224   */\n      tag_308\n        /* \"#utility.yul\":15219:15223   */\n      dup2\n        /* \"#utility.yul\":15093:15224   */\n      tag_177\n      jump\t// in\n    tag_308:\n        /* \"#utility.yul\":15085:15224   */\n      swap1\n      pop\n        /* \"#utility.yul\":14812:15231   */\n      swap2\n      swap1\n      pop\n      jump\t// out\n        /* \"#utility.yul\":15237:15431   */\n    tag_96:\n        /* \"#utility.yul\":15277:15281   */\n      0x00\n        /* \"#utility.yul\":15297:15317   */\n      tag_310\n        /* \"#utility.yul\":15315:15316   */\n      dup3\n        /* \"#utility.yul\":15297:15317   */\n      tag_141\n      jump\t// in\n    tag_310:\n        /* \"#utility.yul\":15292:15317   */\n      swap2\n      pop\n        /* \"#utility.yul\":15331:15351   */\n      tag_311\n        /* \"#utility.yul\":15349:15350   */\n      dup4\n        /* \"#utility.yul\":15331:15351   */\n      tag_141\n      jump\t// in\n    tag_311:\n        /* \"#utility.yul\":15326:15351   */\n      swap3\n      pop\n        /* \"#utility.yul\":15375:15376   */\n      dup3\n        /* \"#utility.yul\":15372:15373   */\n      dup3\n        /* \"#utility.yul\":15368:15377   */\n      sub\n        /* \"#utility.yul\":15360:15377   */\n      swap1\n      pop\n        /* \"#utility.yul\":15399:15400   */\n      dup2\n        /* \"#utility.yul\":15393:15397   */\n      dup2\n        /* \"#utility.yul\":15390:15401   */\n      gt\n        /* \"#utility.yul\":15387:15424   */\n      iszero\n      tag_312\n      jumpi\n        /* \"#utility.yul\":15404:15422   */\n      tag_313\n      tag_173\n      jump\t// in\n    tag_313:\n        /* \"#utility.yul\":15387:15424   */\n    tag_312:\n        /* \"#utility.yul\":15237:15431   */\n      swap3\n      swap2\n      pop\n      pop\n      jump\t// out\n        /* \"#utility.yul\":15437:15617   */\n    tag_99:\n        /* \"#utility.yul\":15485:15562   */\n      0x4e487b7100000000000000000000000000000000000000000000000000000000\n        /* \"#utility.yul\":15482:15483   */\n      0x00\n        /* \"#utility.yul\":15475:15563   */\n      mstore\n        /* \"#utility.yul\":15582:15586   */\n      0x32\n        /* \"#utility.yul\":15579:15580   */\n      0x04\n        /* \"#utility.yul\":15572:15587   */\n      mstore\n        /* \"#utility.yul\":15606:15610   */\n      0x24\n        /* \"#utility.yul\":15603:15604   */\n      0x00\n        /* \"#utility.yul\":15596:15611   */\n      revert\n        /* \"#utility.yul\":15623:15803   */\n    tag_109:\n        /* \"#utility.yul\":15671:15748   */\n      0x4e487b7100000000000000000000000000000000000000000000000000000000\n        /* \"#utility.yul\":15668:15669   */\n      0x00\n        /* \"#utility.yul\":15661:15749   */\n      mstore\n        /* \"#utility.yul\":15768:15772   */\n      0x31\n        /* \"#utility.yul\":15765:15766   */\n      0x04\n        /* \"#utility.yul\":15758:15773   */\n      mstore\n        /* \"#utility.yul\":15792:15796   */\n      0x24\n        /* \"#utility.yul\":15789:15790   */\n      0x00\n        /* \"#utility.yul\":15782:15797   */\n      revert\n        /* \"#utility.yul\":15809:15980   */\n    tag_178:\n        /* \"#utility.yul\":15949:15972   */\n      0x5369676e65722020616c72656164792065786973740000000000000000000000\n        /* \"#utility.yul\":15945:15946   */\n      0x00\n        /* \"#utility.yul\":15937:15943   */\n      dup3\n        /* \"#utility.yul\":15933:15947   */\n      add\n        /* \"#utility.yul\":15926:15973   */\n      mstore\n        /* \"#utility.yul\":15809:15980   */\n      pop\n      jump\t// out\n        /* \"#utility.yul\":15986:16352   */\n    tag_179:\n        /* \"#utility.yul\":16128:16131   */\n      0x00\n        /* \"#utility.yul\":16149:16216   */\n      tag_318\n        /* \"#utility.yul\":16213:16215   */\n      0x15\n        /* \"#utility.yul\":16208:16211   */\n      dup4\n        /* \"#utility.yul\":16149:16216   */\n      tag_160\n      jump\t// in\n    tag_318:\n        /* \"#utility.yul\":16142:16216   */\n      swap2\n      pop\n        /* \"#utility.yul\":16225:16318   */\n      tag_319\n        /* \"#utility.yul\":16314:16317   */\n      dup3\n        /* \"#utility.yul\":16225:16318   */\n      tag_178\n      jump\t// in\n    tag_319:\n        /* \"#utility.yul\":16343:16345   */\n      0x20\n        /* \"#utility.yul\":16338:16341   */\n      dup3\n        /* \"#utility.yul\":16334:16346   */\n      add\n        /* \"#utility.yul\":16327:16346   */\n      swap1\n      pop\n        /* \"#utility.yul\":15986:16352   */\n      swap2\n      swap1\n      pop\n      jump\t// out\n        /* \"#utility.yul\":16358:16777   */\n    tag_115:\n        /* \"#utility.yul\":16524:16528   */\n      0x00\n        /* \"#utility.yul\":16562:16564   */\n      0x20\n        /* \"#utility.yul\":16551:16560   */\n      dup3\n        /* \"#utility.yul\":16547:16565   */\n      add\n        /* \"#utility.yul\":16539:16565   */\n      swap1\n      pop\n        /* \"#utility.yul\":16611:16620   */\n      dup2\n        /* \"#utility.yul\":16605:16609   */\n      dup2\n        /* \"#utility.yul\":16601:16621   */\n      sub\n        /* \"#utility.yul\":16597:16598   */\n      0x00\n        /* \"#utility.yul\":16586:16595   */\n      dup4\n        /* \"#utility.yul\":16582:16599   */\n      add\n        /* \"#utility.yul\":16575:16622   */\n      mstore\n        /* \"#utility.yul\":16639:16770   */\n      tag_321\n        /* \"#utility.yul\":16765:16769   */\n      dup2\n        /* \"#utility.yul\":16639:16770   */\n      tag_179\n      jump\t// in\n    tag_321:\n        /* \"#utility.yul\":16631:16770   */\n      swap1\n      pop\n        /* \"#utility.yul\":16358:16777   */\n      swap2\n      swap1\n      pop\n      jump\t// out\n        /* \"#utility.yul\":16783:16954   */\n    tag_180:\n        /* \"#utility.yul\":16923:16946   */\n      0x5a65726f20616464726573732064657465637465640000000000000000000000\n        /* \"#utility.yul\":16919:16920   */\n      0x00\n        /* \"#utility.yul\":16911:16917   */\n      dup3\n        /* \"#utility.yul\":16907:16921   */\n      add\n        /* \"#utility.yul\":16900:16947   */\n      mstore\n        /* \"#utility.yul\":16783:16954   */\n      pop\n      jump\t// out\n        /* \"#utility.yul\":16960:17326   */\n    tag_181:\n        /* \"#utility.yul\":17102:17105   */\n      0x00\n        /* \"#utility.yul\":17123:17190   */\n      tag_324\n        /* \"#utility.yul\":17187:17189   */\n      0x15\n        /* \"#utility.yul\":17182:17185   */\n      dup4\n        /* \"#utility.yul\":17123:17190   */\n      tag_160\n      jump\t// in\n    tag_324:\n        /* \"#utility.yul\":17116:17190   */\n      swap2\n      pop\n        /* \"#utility.yul\":17199:17292   */\n      tag_325\n        /* \"#utility.yul\":17288:17291   */\n      dup3\n        /* \"#utility.yul\":17199:17292   */\n      tag_180\n      jump\t// in\n    tag_325:\n        /* \"#utility.yul\":17317:17319   */\n      0x20\n        /* \"#utility.yul\":17312:17315   */\n      dup3\n        /* \"#utility.yul\":17308:17320   */\n      add\n        /* \"#utility.yul\":17301:17320   */\n      swap1\n      pop\n        /* \"#utility.yul\":16960:17326   */\n      swap2\n      swap1\n      pop\n      jump\t// out\n        /* \"#utility.yul\":17332:17751   */\n    tag_120:\n        /* \"#utility.yul\":17498:17502   */\n      0x00\n        /* \"#utility.yul\":17536:17538   */\n      0x20\n        /* \"#utility.yul\":17525:17534   */\n      dup3\n        /* \"#utility.yul\":17521:17539   */\n      add\n        /* \"#utility.yul\":17513:17539   */\n      swap1\n      pop\n        /* \"#utility.yul\":17585:17594   */\n      dup2\n        /* \"#utility.yul\":17579:17583   */\n      dup2\n        /* \"#utility.yul\":17575:17595   */\n      sub\n        /* \"#utility.yul\":17571:17572   */\n      0x00\n        /* \"#utility.yul\":17560:17569   */\n      dup4\n        /* \"#utility.yul\":17556:17573   */\n      add\n        /* \"#utility.yul\":17549:17596   */\n      mstore\n        /* \"#utility.yul\":17613:17744   */\n      tag_327\n        /* \"#utility.yul\":17739:17743   */\n      dup2\n        /* \"#utility.yul\":17613:17744   */\n      tag_181\n      jump\t// in\n    tag_327:\n        /* \"#utility.yul\":17605:17744   */\n      swap1\n      pop\n        /* \"#utility.yul\":17332:17751   */\n      swap2\n      swap1\n      pop\n      jump\t// out\n        /* \"#utility.yul\":17757:17928   */\n    tag_182:\n        /* \"#utility.yul\":17897:17920   */\n      0x6e6f207a65726f2076616c756520616c6c6f7765640000000000000000000000\n        /* \"#utility.yul\":17893:17894   */\n      0x00\n        /* \"#utility.yul\":17885:17891   */\n      dup3\n        /* \"#utility.yul\":17881:17895   */\n      add\n        /* \"#utility.yul\":17874:17921   */\n      mstore\n        /* \"#utility.yul\":17757:17928   */\n      pop\n      jump\t// out\n        /* \"#utility.yul\":17934:18300   */\n    tag_183:\n        /* \"#utility.yul\":18076:18079   */\n      0x00\n        /* \"#utility.yul\":18097:18164   */\n      tag_330\n        /* \"#utility.yul\":18161:18163   */\n      0x15\n        /* \"#utility.yul\":18156:18159   */\n      dup4\n        /* \"#utility.yul\":18097:18164   */\n      tag_160\n      jump\t// in\n    tag_330:\n        /* \"#utility.yul\":18090:18164   */\n      swap2\n      pop\n        /* \"#utility.yul\":18173:18266   */\n      tag_331\n        /* \"#utility.yul\":18262:18265   */\n      dup3\n        /* \"#utility.yul\":18173:18266   */\n      tag_182\n      jump\t// in\n    tag_331:\n        /* \"#utility.yul\":18291:18293   */\n      0x20\n        /* \"#utility.yul\":18286:18289   */\n      dup3\n        /* \"#utility.yul\":18282:18294   */\n      add\n        /* \"#utility.yul\":18275:18294   */\n      swap1\n      pop\n        /* \"#utility.yul\":17934:18300   */\n      swap2\n      swap1\n      pop\n      jump\t// out\n        /* \"#utility.yul\":18306:18725   */\n    tag_123:\n        /* \"#utility.yul\":18472:18476   */\n      0x00\n        /* \"#utility.yul\":18510:18512   */\n      0x20\n        /* \"#utility.yul\":18499:18508   */\n      dup3\n        /* \"#utility.yul\":18495:18513   */\n      add\n        /* \"#utility.yul\":18487:18513   */\n      swap1\n      pop\n        /* \"#utility.yul\":18559:18568   */\n      dup2\n        /* \"#utility.yul\":18553:18557   */\n      dup2\n        /* \"#utility.yul\":18549:18569   */\n      sub\n        /* \"#utility.yul\":18545:18546   */\n      0x00\n        /* \"#utility.yul\":18534:18543   */\n      dup4\n        /* \"#utility.yul\":18530:18547   */\n      add\n        /* \"#utility.yul\":18523:18570   */\n      mstore\n        /* \"#utility.yul\":18587:18718   */\n      tag_333\n        /* \"#utility.yul\":18713:18717   */\n      dup2\n        /* \"#utility.yul\":18587:18718   */\n      tag_183\n      jump\t// in\n    tag_333:\n        /* \"#utility.yul\":18579:18718   */\n      swap1\n      pop\n        /* \"#utility.yul\":18306:18725   */\n      swap2\n      swap1\n      pop\n      jump\t// out\n        /* \"#utility.yul\":18731:18897   */\n    tag_184:\n        /* \"#utility.yul\":18871:18889   */\n      0x6e6f742076616c6964207369676e657200000000000000000000000000000000\n        /* \"#utility.yul\":18867:18868   */\n      0x00\n        /* \"#utility.yul\":18859:18865   */\n      dup3\n        /* \"#utility.yul\":18855:18869   */\n      add\n        /* \"#utility.yul\":18848:18890   */\n      mstore\n        /* \"#utility.yul\":18731:18897   */\n      pop\n      jump\t// out\n        /* \"#utility.yul\":18903:19269   */\n    tag_185:\n        /* \"#utility.yul\":19045:19048   */\n      0x00\n        /* \"#utility.yul\":19066:19133   */\n      tag_336\n        /* \"#utility.yul\":19130:19132   */\n      0x10\n        /* \"#utility.yul\":19125:19128   */\n      dup4\n        /* \"#utility.yul\":19066:19133   */\n      tag_160\n      jump\t// in\n    tag_336:\n        /* \"#utility.yul\":19059:19133   */\n      swap2\n      pop\n        /* \"#utility.yul\":19142:19235   */\n      tag_337\n        /* \"#utility.yul\":19231:19234   */\n      dup3\n        /* \"#utility.yul\":19142:19235   */\n      tag_184\n      jump\t// in\n    tag_337:\n        /* \"#utility.yul\":19260:19262   */\n      0x20\n        /* \"#utility.yul\":19255:19258   */\n      dup3\n        /* \"#utility.yul\":19251:19263   */\n      add\n        /* \"#utility.yul\":19244:19263   */\n      swap1\n      pop\n        /* \"#utility.yul\":18903:19269   */\n      swap2\n      swap1\n      pop\n      jump\t// out\n        /* \"#utility.yul\":19275:19694   */\n    tag_133:\n        /* \"#utility.yul\":19441:19445   */\n      0x00\n        /* \"#utility.yul\":19479:19481   */\n      0x20\n        /* \"#utility.yul\":19468:19477   */\n      dup3\n        /* \"#utility.yul\":19464:19482   */\n      add\n        /* \"#utility.yul\":19456:19482   */\n      swap1\n      pop\n        /* \"#utility.yul\":19528:19537   */\n      dup2\n        /* \"#utility.yul\":19522:19526   */\n      dup2\n        /* \"#utility.yul\":19518:19538   */\n      sub\n        /* \"#utility.yul\":19514:19515   */\n      0x00\n        /* \"#utility.yul\":19503:19512   */\n      dup4\n        /* \"#utility.yul\":19499:19516   */\n      add\n        /* \"#utility.yul\":19492:19539   */\n      mstore\n        /* \"#utility.yul\":19556:19687   */\n      tag_339\n        /* \"#utility.yul\":19682:19686   */\n      dup2\n        /* \"#utility.yul\":19556:19687   */\n      tag_185\n      jump\t// in\n    tag_339:\n        /* \"#utility.yul\":19548:19687   */\n      swap1\n      pop\n        /* \"#utility.yul\":19275:19694   */\n      swap2\n      swap1\n      pop\n      jump\t// out\n        /* \"#utility.yul\":19700:19859   */\n    tag_186:\n        /* \"#utility.yul\":19840:19851   */\n      0x6e6f74206f776e65720000000000000000000000000000000000000000000000\n        /* \"#utility.yul\":19836:19837   */\n      0x00\n        /* \"#utility.yul\":19828:19834   */\n      dup3\n        /* \"#utility.yul\":19824:19838   */\n      add\n        /* \"#utility.yul\":19817:19852   */\n      mstore\n        /* \"#utility.yul\":19700:19859   */\n      pop\n      jump\t// out\n        /* \"#utility.yul\":19865:20230   */\n    tag_187:\n        /* \"#utility.yul\":20007:20010   */\n      0x00\n        /* \"#utility.yul\":20028:20094   */\n      tag_342\n        /* \"#utility.yul\":20092:20093   */\n      0x09\n        /* \"#utility.yul\":20087:20090   */\n      dup4\n        /* \"#utility.yul\":20028:20094   */\n      tag_160\n      jump\t// in\n    tag_342:\n        /* \"#utility.yul\":20021:20094   */\n      swap2\n      pop\n        /* \"#utility.yul\":20103:20196   */\n      tag_343\n        /* \"#utility.yul\":20192:20195   */\n      dup3\n        /* \"#utility.yul\":20103:20196   */\n      tag_186\n      jump\t// in\n    tag_343:\n        /* \"#utility.yul\":20221:20223   */\n      0x20\n        /* \"#utility.yul\":20216:20219   */\n      dup3\n        /* \"#utility.yul\":20212:20224   */\n      add\n        /* \"#utility.yul\":20205:20224   */\n      swap1\n      pop\n        /* \"#utility.yul\":19865:20230   */\n      swap2\n      swap1\n      pop\n      jump\t// out\n        /* \"#utility.yul\":20236:20655   */\n    tag_137:\n        /* \"#utility.yul\":20402:20406   */\n      0x00\n        /* \"#utility.yul\":20440:20442   */\n      0x20\n        /* \"#utility.yul\":20429:20438   */\n      dup3\n        /* \"#utility.yul\":20425:20443   */\n      add\n        /* \"#utility.yul\":20417:20443   */\n      swap1\n      pop\n        /* \"#utility.yul\":20489:20498   */\n      dup2\n        /* \"#utility.yul\":20483:20487   */\n      dup2\n        /* \"#utility.yul\":20479:20499   */\n      sub\n        /* \"#utility.yul\":20475:20476   */\n      0x00\n        /* \"#utility.yul\":20464:20473   */\n      dup4\n        /* \"#utility.yul\":20460:20477   */\n      add\n        /* \"#utility.yul\":20453:20500   */\n      mstore\n        /* \"#utility.yul\":20517:20648   */\n      tag_345\n        /* \"#utility.yul\":20643:20647   */\n      dup2\n        /* \"#utility.yul\":20517:20648   */\n      tag_187\n      jump\t// in\n    tag_345:\n        /* \"#utility.yul\":20509:20648   */\n      swap1\n      pop\n        /* \"#utility.yul\":20236:20655   */\n      swap2\n      swap1\n      pop\n      jump\t// out\n\n    auxdata: 0xa26469706673582212208e819ed224dc96869cab3a96a3e685cf10855585264b046637fe48779419787964736f6c634300081c0033\n}\n",
				"bytecode": {
					"linkReferences": {},
					"object": "608060405234801561000f575f5ffd5b50604051611e53380380611e5383398181016040528101906100319190610447565b3360035f6101000a81548173ffffffffffffffffffffffffffffffffffffffff021916908373ffffffffffffffffffffffffffffffffffffffff160217905550815f90805190602001906100869291906101b7565b50806001819055505f5f90505b82518160ff1610156101af575f73ffffffffffffffffffffffffffffffffffffffff16838260ff16815181106100cc576100cb6104a1565b5b602002602001015173ffffffffffffffffffffffffffffffffffffffff160361012a576040517f08c379a000000000000000000000000000000000000000000000000000000000815260040161012190610528565b60405180910390fd5b600160085f858460ff1681518110610145576101446104a1565b5b602002602001015173ffffffffffffffffffffffffffffffffffffffff1673ffffffffffffffffffffffffffffffffffffffff1681526020019081526020015f205f6101000a81548160ff02191690831515021790555080806101a79061057f565b915050610093565b5050506105a7565b828054828255905f5260205f2090810192821561022d579160200282015b8281111561022c578251825f6101000a81548173ffffffffffffffffffffffffffffffffffffffff021916908373ffffffffffffffffffffffffffffffffffffffff160217905550916020019190600101906101d5565b5b50905061023a919061023e565b5090565b5b80821115610255575f815f90555060010161023f565b5090565b5f604051905090565b5f5ffd5b5f5ffd5b5f5ffd5b5f601f19601f8301169050919050565b7f4e487b71000000000000000000000000000000000000000000000000000000005f52604160045260245ffd5b6102b48261026e565b810181811067ffffffffffffffff821117156102d3576102d261027e565b5b80604052505050565b5f6102e5610259565b90506102f182826102ab565b919050565b5f67ffffffffffffffff8211156103105761030f61027e565b5b602082029050602081019050919050565b5f5ffd5b5f73ffffffffffffffffffffffffffffffffffffffff82169050919050565b5f61034e82610325565b9050919050565b61035e81610344565b8114610368575f5ffd5b50565b5f8151905061037981610355565b92915050565b5f61039161038c846102f6565b6102dc565b905080838252602082019050602084028301858111156103b4576103b3610321565b5b835b818110156103dd57806103c9888261036b565b8452602084019350506020810190506103b6565b5050509392505050565b5f82601f8301126103fb576103fa61026a565b5b815161040b84826020860161037f565b91505092915050565b5f819050919050565b61042681610414565b8114610430575f5ffd5b50565b5f815190506104418161041d565b92915050565b5f5f6040838503121561045d5761045c610262565b5b5f83015167ffffffffffffffff81111561047a57610479610266565b5b610486858286016103e7565b925050602061049785828601610433565b9150509250929050565b7f4e487b71000000000000000000000000000000000000000000000000000000005f52603260045260245ffd5b5f82825260208201905092915050565b7f676574206f7574000000000000000000000000000000000000000000000000005f82015250565b5f6105126007836104ce565b915061051d826104de565b602082019050919050565b5f6020820190508181035f83015261053f81610506565b9050919050565b7f4e487b71000000000000000000000000000000000000000000000000000000005f52601160045260245ffd5b5f60ff82169050919050565b5f61058982610573565b915060ff820361059c5761059b610546565b5b600182019050919050565b61189f806105b45f395ff3fe60806040526004361061007e575f3560e01c80635ffde1441161004d5780635ffde14414610125578063de8ee8171461014d578063e42bb8aa14610175578063f2fde38b1461019d5761007f565b80632079fb9a14610081578063242232d1146100bd57806327506f53146100e55780634e71e0c81461010f5761007f565b5b005b34801561008c575f5ffd5b506100a760048036038101906100a29190610f95565b6101c5565b6040516100b49190610fff565b60405180910390f35b3480156100c8575f5ffd5b506100e360048036038101906100de9190610f95565b6101ff565b005b3480156100f0575f5ffd5b506100f961055d565b6040516101069190611171565b60405180910390f35b34801561011a575f5ffd5b5061012361069b565b005b348015610130575f5ffd5b5061014b60048036038101906101469190610f95565b6107ac565b005b348015610158575f5ffd5b50610173600480360381019061016e91906111bb565b610971565b005b348015610180575f5ffd5b5061019b600480360381019061019691906111e6565b610ab9565b005b3480156101a8575f5ffd5b506101c360048036038101906101be91906111bb565b610df7565b005b5f81815481106101d3575f80fd5b905f5260205f20015f915054906101000a900473ffffffffffffffffffffffffffffffffffffffff1681565b600254811115610244576040517f08c379a000000000000000000000000000000000000000000000000000000000815260040161023b9061127e565b60405180910390fd5b5f73ffffffffffffffffffffffffffffffffffffffff163373ffffffffffffffffffffffffffffffffffffffff16036102b2576040517f08c379a00000000000000000000000000000000000000000000000000000000081526004016102a9906112e6565b60405180910390fd5b6102ba610e42565b60065f8281526020019081526020015f205f3373ffffffffffffffffffffffffffffffffffffffff1673ffffffffffffffffffffffffffffffffffffffff1681526020019081526020015f205f9054906101000a900460ff1615610353576040517f08c379a000000000000000000000000000000000000000000000000000000000815260040161034a9061134e565b60405180910390fd5b5f60075f8381526020019081526020015f20905080600101544710156103ae576040517f08c379a00000000000000000000000000000000000000000000000000000000081526004016103a5906113b6565b60405180910390fd5b806004015f9054906101000a900460ff16156103ff576040517f08c379a00000000000000000000000000000000000000000000000000000000081526004016103f69061141e565b60405180910390fd5b600154816003015410610447576040517f08c379a000000000000000000000000000000000000000000000000000000000815260040161043e90611486565b60405180910390fd5b6001816003015461045891906114d1565b8160030181905550600160065f8481526020019081526020015f205f3373ffffffffffffffffffffffffffffffffffffffff1673ffffffffffffffffffffffffffffffffffffffff1681526020019081526020015f205f6101000a81548160ff021916908315150217905550600154816003015403610559576001816004015f6101000a81548160ff021916908315150217905550806002015f9054906101000a900473ffffffffffffffffffffffffffffffffffffffff1673ffffffffffffffffffffffffffffffffffffffff166108fc826001015490811502906040515f60405180830381858888f19350505050158015610557573d5f5f3e3d5ffd5b505b5050565b60606005805480602002602001604051908101604052809291908181526020015f905b82821015610692578382905f5260205f2090600502016040518060c00160405290815f820154815260200160018201548152602001600282015f9054906101000a900473ffffffffffffffffffffffffffffffffffffffff1673ffffffffffffffffffffffffffffffffffffffff1673ffffffffffffffffffffffffffffffffffffffff16815260200160038201548152602001600482015f9054906101000a900460ff161515151581526020016004820160019054906101000a900473ffffffffffffffffffffffffffffffffffffffff1673ffffffffffffffffffffffffffffffffffffffff1673ffffffffffffffffffffffffffffffffffffffff168152505081526020019060010190610580565b50505050905090565b60045f9054906101000a900473ffffffffffffffffffffffffffffffffffffffff1673ffffffffffffffffffffffffffffffffffffffff163373ffffffffffffffffffffffffffffffffffffffff161461072a576040517f08c379a00000000000000000000000000000000000000000000000000000000081526004016107219061154e565b60405180910390fd5b3360035f6101000a81548173ffffffffffffffffffffffffffffffffffffffff021916908373ffffffffffffffffffffffffffffffffffffffff1602179055505f60045f6101000a81548173ffffffffffffffffffffffffffffffffffffffff021916908373ffffffffffffffffffffffffffffffffffffffff160217905550565b6107b4610ecd565b5f8054905081106107fa576040517f08c379a00000000000000000000000000000000000000000000000000000000081526004016107f1906115b6565b60405180910390fd5b5f60015f8054905061080c91906115d4565b8154811061081d5761081c611607565b5b905f5260205f20015f9054906101000a900473ffffffffffffffffffffffffffffffffffffffff165f828154811061085857610857611607565b5b905f5260205f20015f6101000a81548173ffffffffffffffffffffffffffffffffffffffff021916908373ffffffffffffffffffffffffffffffffffffffff1602179055505f60085f5f84815481106108b4576108b3611607565b5b905f5260205f20015f9054906101000a900473ffffffffffffffffffffffffffffffffffffffff1673ffffffffffffffffffffffffffffffffffffffff1673ffffffffffffffffffffffffffffffffffffffff1681526020019081526020015f205f6101000a81548160ff0219169083151502179055505f80548061093c5761093b611634565b5b600190038181905f5260205f20015f6101000a81549073ffffffffffffffffffffffffffffffffffffffff0219169055905550565b610979610ecd565b60085f8273ffffffffffffffffffffffffffffffffffffffff1673ffffffffffffffffffffffffffffffffffffffff1681526020019081526020015f205f9054906101000a900460ff16610a02576040517f08c379a00000000000000000000000000000000000000000000000000000000081526004016109f9906116ab565b60405180910390fd5b600160085f8373ffffffffffffffffffffffffffffffffffffffff1673ffffffffffffffffffffffffffffffffffffffff1681526020019081526020015f205f6101000a81548160ff0219169083151502179055505f81908060018154018082558091505060019003905f5260205f20015f9091909190916101000a81548173ffffffffffffffffffffffffffffffffffffffff021916908373ffffffffffffffffffffffffffffffffffffffff16021790555050565b5f73ffffffffffffffffffffffffffffffffffffffff163373ffffffffffffffffffffffffffffffffffffffff1603610b27576040517f08c379a0000000000000000000000000000000000000000000000000000000008152600401610b1e90611713565b60405180910390fd5b5f8211610b69576040517f08c379a0000000000000000000000000000000000000000000000000000000008152600401610b609061177b565b60405180910390fd5b610b71610e42565b5f6001600254610b8191906114d1565b90505f60075f8381526020019081526020015f20905081815f018190555083816001018190555082816002015f6101000a81548173ffffffffffffffffffffffffffffffffffffffff021916908373ffffffffffffffffffffffffffffffffffffffff16021790555080600301548160030181905550338160040160016101000a81548173ffffffffffffffffffffffffffffffffffffffff021916908373ffffffffffffffffffffffffffffffffffffffff160217905550600581908060018154018082558091505060019003905f5260205f2090600502015f909190919091505f820154815f015560018201548160010155600282015f9054906101000a900473ffffffffffffffffffffffffffffffffffffffff16816002015f6101000a81548173ffffffffffffffffffffffffffffffffffffffff021916908373ffffffffffffffffffffffffffffffffffffffff16021790555060038201548160030155600482015f9054906101000a900460ff16816004015f6101000a81548160ff0219169083151502179055506004820160019054906101000a900473ffffffffffffffffffffffffffffffffffffffff168160040160016101000a81548173ffffffffffffffffffffffffffffffffffffffff021916908373ffffffffffffffffffffffffffffffffffffffff1602179055505050600160065f8481526020019081526020015f205f3373ffffffffffffffffffffffffffffffffffffffff1673ffffffffffffffffffffffffffffffffffffffff1681526020019081526020015f205f6101000a81548160ff0219169083151502179055506001600254610deb91906114d1565b60028190555050505050565b610dff610ecd565b8060045f6101000a81548173ffffffffffffffffffffffffffffffffffffffff021916908373ffffffffffffffffffffffffffffffffffffffff16021790555050565b60085f3373ffffffffffffffffffffffffffffffffffffffff1673ffffffffffffffffffffffffffffffffffffffff1681526020019081526020015f205f9054906101000a900460ff16610ecb576040517f08c379a0000000000000000000000000000000000000000000000000000000008152600401610ec2906117e3565b60405180910390fd5b565b60035f9054906101000a900473ffffffffffffffffffffffffffffffffffffffff1673ffffffffffffffffffffffffffffffffffffffff163373ffffffffffffffffffffffffffffffffffffffff1614610f5c576040517f08c379a0000000000000000000000000000000000000000000000000000000008152600401610f539061184b565b60405180910390fd5b565b5f5ffd5b5f819050919050565b610f7481610f62565b8114610f7e575f5ffd5b50565b5f81359050610f8f81610f6b565b92915050565b5f60208284031215610faa57610fa9610f5e565b5b5f610fb784828501610f81565b91505092915050565b5f73ffffffffffffffffffffffffffffffffffffffff82169050919050565b5f610fe982610fc0565b9050919050565b610ff981610fdf565b82525050565b5f6020820190506110125f830184610ff0565b92915050565b5f81519050919050565b5f82825260208201905092915050565b5f819050602082019050919050565b61104a81610f62565b82525050565b61105981610fdf565b82525050565b5f8115159050919050565b6110738161105f565b82525050565b60c082015f82015161108d5f850182611041565b5060208201516110a06020850182611041565b5060408201516110b36040850182611050565b5060608201516110c66060850182611041565b5060808201516110d9608085018261106a565b5060a08201516110ec60a0850182611050565b50505050565b5f6110fd8383611079565b60c08301905092915050565b5f602082019050919050565b5f61111f82611018565b6111298185611022565b935061113483611032565b805f5b8381101561116457815161114b88826110f2565b975061115683611109565b925050600181019050611137565b5085935050505092915050565b5f6020820190508181035f8301526111898184611115565b905092915050565b61119a81610fdf565b81146111a4575f5ffd5b50565b5f813590506111b581611191565b92915050565b5f602082840312156111d0576111cf610f5e565b5b5f6111dd848285016111a7565b91505092915050565b5f5f604083850312156111fc576111fb610f5e565b5b5f61120985828601610f81565b925050602061121a858286016111a7565b9150509250929050565b5f82825260208201905092915050565b7f696e76616c6964207472616e73616374696f6e206964000000000000000000005f82015250565b5f611268601683611224565b915061127382611234565b602082019050919050565b5f6020820190508181035f8301526112958161125c565b9050919050565b7f7a65726f206164647265737320647465637465640000000000000000000000005f82015250565b5f6112d0601483611224565b91506112db8261129c565b602082019050919050565b5f6020820190508181035f8301526112fd816112c4565b9050919050565b7f63616e2774207369676e207477696365000000000000000000000000000000005f82015250565b5f611338601083611224565b915061134382611304565b602082019050919050565b5f6020820190508181035f8301526113658161132c565b9050919050565b7f696e73756666696369656e7420636f6e74726163742062616c616e63650000005f82015250565b5f6113a0601d83611224565b91506113ab8261136c565b602082019050919050565b5f6020820190508181035f8301526113cd81611394565b9050919050565b7f7472616e73616374696f6e20616c7265616479206578656375746564000000005f82015250565b5f611408601c83611224565b9150611413826113d4565b602082019050919050565b5f6020820190508181035f830152611435816113fc565b9050919050565b7f71756f72756d20636f756e7420726561636865640000000000000000000000005f82015250565b5f611470601483611224565b915061147b8261143c565b602082019050919050565b5f6020820190508181035f83015261149d81611464565b9050919050565b7f4e487b71000000000000000000000000000000000000000000000000000000005f52601160045260245ffd5b5f6114db82610f62565b91506114e683610f62565b92508282019050808211156114fe576114fd6114a4565b5b92915050565b7f6e6f74206e657874206f776e65720000000000000000000000000000000000005f82015250565b5f611538600e83611224565b915061154382611504565b602082019050919050565b5f6020820190508181035f8301526115658161152c565b9050919050565b7f496e76616c696420696e646578000000000000000000000000000000000000005f82015250565b5f6115a0600d83611224565b91506115ab8261156c565b602082019050919050565b5f6020820190508181035f8301526115cd81611594565b9050919050565b5f6115de82610f62565b91506115e983610f62565b9250828203905081811115611601576116006114a4565b5b92915050565b7f4e487b71000000000000000000000000000000000000000000000000000000005f52603260045260245ffd5b7f4e487b71000000000000000000000000000000000000000000000000000000005f52603160045260245ffd5b7f5369676e65722020616c726561647920657869737400000000000000000000005f82015250565b5f611695601583611224565b91506116a082611661565b602082019050919050565b5f6020820190508181035f8301526116c281611689565b9050919050565b7f5a65726f206164647265737320646574656374656400000000000000000000005f82015250565b5f6116fd601583611224565b9150611708826116c9565b602082019050919050565b5f6020820190508181035f83015261172a816116f1565b9050919050565b7f6e6f207a65726f2076616c756520616c6c6f77656400000000000000000000005f82015250565b5f611765601583611224565b915061177082611731565b602082019050919050565b5f6020820190508181035f83015261179281611759565b9050919050565b7f6e6f742076616c6964207369676e6572000000000000000000000000000000005f82015250565b5f6117cd601083611224565b91506117d882611799565b602082019050919050565b5f6020820190508181035f8301526117fa816117c1565b9050919050565b7f6e6f74206f776e657200000000000000000000000000000000000000000000005f82015250565b5f611835600983611224565b915061184082611801565b602082019050919050565b5f6020820190508181035f83015261186281611829565b905091905056fea26469706673582212208e819ed224dc96869cab3a96a3e685cf10855585264b046637fe48779419787964736f6c634300081c0033",
					"opcodes": "PUSH1 0x80 PUSH1 0x40 MSTORE CALLVALUE DUP1 ISZERO PUSH2 0xF JUMPI PUSH0 PUSH0 REVERT JUMPDEST POP PUSH1 0x40 MLOAD PUSH2 0x1E53 CODESIZE SUB DUP1 PUSH2 0x1E53 DUP4 CODECOPY DUP2 DUP2 ADD PUSH1 0x40 MSTORE DUP2 ADD SWAP1 PUSH2 0x31 SWAP2 SWAP1 PUSH2 0x447 JUMP JUMPDEST CALLER PUSH1 0x3 PUSH0 PUSH2 0x100 EXP DUP2 SLOAD DUP2 PUSH20 0xFFFFFFFFFFFFFFFFFFFFFFFFFFFFFFFFFFFFFFFF MUL NOT AND SWAP1 DUP4 PUSH20 0xFFFFFFFFFFFFFFFFFFFFFFFFFFFFFFFFFFFFFFFF AND MUL OR SWAP1 SSTORE POP DUP2 PUSH0 SWAP1 DUP1 MLOAD SWAP1 PUSH1 0x20 ADD SWAP1 PUSH2 0x86 SWAP3 SWAP2 SWAP1 PUSH2 0x1B7 JUMP JUMPDEST POP DUP1 PUSH1 0x1 DUP2 SWAP1 SSTORE POP PUSH0 PUSH0 SWAP1 POP JUMPDEST DUP3 MLOAD DUP2 PUSH1 0xFF AND LT ISZERO PUSH2 0x1AF JUMPI PUSH0 PUSH20 0xFFFFFFFFFFFFFFFFFFFFFFFFFFFFFFFFFFFFFFFF AND DUP4 DUP3 PUSH1 0xFF AND DUP2 MLOAD DUP2 LT PUSH2 0xCC JUMPI PUSH2 0xCB PUSH2 0x4A1 JUMP JUMPDEST JUMPDEST PUSH1 0x20 MUL PUSH1 0x20 ADD ADD MLOAD PUSH20 0xFFFFFFFFFFFFFFFFFFFFFFFFFFFFFFFFFFFFFFFF AND SUB PUSH2 0x12A JUMPI PUSH1 0x40 MLOAD PUSH32 0x8C379A000000000000000000000000000000000000000000000000000000000 DUP2 MSTORE PUSH1 0x4 ADD PUSH2 0x121 SWAP1 PUSH2 0x528 JUMP JUMPDEST PUSH1 0x40 MLOAD DUP1 SWAP2 SUB SWAP1 REVERT JUMPDEST PUSH1 0x1 PUSH1 0x8 PUSH0 DUP6 DUP5 PUSH1 0xFF AND DUP2 MLOAD DUP2 LT PUSH2 0x145 JUMPI PUSH2 0x144 PUSH2 0x4A1 JUMP JUMPDEST JUMPDEST PUSH1 0x20 MUL PUSH1 0x20 ADD ADD MLOAD PUSH20 0xFFFFFFFFFFFFFFFFFFFFFFFFFFFFFFFFFFFFFFFF AND PUSH20 0xFFFFFFFFFFFFFFFFFFFFFFFFFFFFFFFFFFFFFFFF AND DUP2 MSTORE PUSH1 0x20 ADD SWAP1 DUP2 MSTORE PUSH1 0x20 ADD PUSH0 KECCAK256 PUSH0 PUSH2 0x100 EXP DUP2 SLOAD DUP2 PUSH1 0xFF MUL NOT AND SWAP1 DUP4 ISZERO ISZERO MUL OR SWAP1 SSTORE POP DUP1 DUP1 PUSH2 0x1A7 SWAP1 PUSH2 0x57F JUMP JUMPDEST SWAP2 POP POP PUSH2 0x93 JUMP JUMPDEST POP POP POP PUSH2 0x5A7 JUMP JUMPDEST DUP3 DUP1 SLOAD DUP3 DUP3 SSTORE SWAP1 PUSH0 MSTORE PUSH1 0x20 PUSH0 KECCAK256 SWAP1 DUP2 ADD SWAP3 DUP3 ISZERO PUSH2 0x22D JUMPI SWAP2 PUSH1 0x20 MUL DUP3 ADD JUMPDEST DUP3 DUP2 GT ISZERO PUSH2 0x22C JUMPI DUP3 MLOAD DUP3 PUSH0 PUSH2 0x100 EXP DUP2 SLOAD DUP2 PUSH20 0xFFFFFFFFFFFFFFFFFFFFFFFFFFFFFFFFFFFFFFFF MUL NOT AND SWAP1 DUP4 PUSH20 0xFFFFFFFFFFFFFFFFFFFFFFFFFFFFFFFFFFFFFFFF AND MUL OR SWAP1 SSTORE POP SWAP2 PUSH1 0x20 ADD SWAP2 SWAP1 PUSH1 0x1 ADD SWAP1 PUSH2 0x1D5 JUMP JUMPDEST JUMPDEST POP SWAP1 POP PUSH2 0x23A SWAP2 SWAP1 PUSH2 0x23E JUMP JUMPDEST POP SWAP1 JUMP JUMPDEST JUMPDEST DUP1 DUP3 GT ISZERO PUSH2 0x255 JUMPI PUSH0 DUP2 PUSH0 SWAP1 SSTORE POP PUSH1 0x1 ADD PUSH2 0x23F JUMP JUMPDEST POP SWAP1 JUMP JUMPDEST PUSH0 PUSH1 0x40 MLOAD SWAP1 POP SWAP1 JUMP JUMPDEST PUSH0 PUSH0 REVERT JUMPDEST PUSH0 PUSH0 REVERT JUMPDEST PUSH0 PUSH0 REVERT JUMPDEST PUSH0 PUSH1 0x1F NOT PUSH1 0x1F DUP4 ADD AND SWAP1 POP SWAP2 SWAP1 POP JUMP JUMPDEST PUSH32 0x4E487B7100000000000000000000000000000000000000000000000000000000 PUSH0 MSTORE PUSH1 0x41 PUSH1 0x4 MSTORE PUSH1 0x24 PUSH0 REVERT JUMPDEST PUSH2 0x2B4 DUP3 PUSH2 0x26E JUMP JUMPDEST DUP2 ADD DUP2 DUP2 LT PUSH8 0xFFFFFFFFFFFFFFFF DUP3 GT OR ISZERO PUSH2 0x2D3 JUMPI PUSH2 0x2D2 PUSH2 0x27E JUMP JUMPDEST JUMPDEST DUP1 PUSH1 0x40 MSTORE POP POP POP JUMP JUMPDEST PUSH0 PUSH2 0x2E5 PUSH2 0x259 JUMP JUMPDEST SWAP1 POP PUSH2 0x2F1 DUP3 DUP3 PUSH2 0x2AB JUMP JUMPDEST SWAP2 SWAP1 POP JUMP JUMPDEST PUSH0 PUSH8 0xFFFFFFFFFFFFFFFF DUP3 GT ISZERO PUSH2 0x310 JUMPI PUSH2 0x30F PUSH2 0x27E JUMP JUMPDEST JUMPDEST PUSH1 0x20 DUP3 MUL SWAP1 POP PUSH1 0x20 DUP2 ADD SWAP1 POP SWAP2 SWAP1 POP JUMP JUMPDEST PUSH0 PUSH0 REVERT JUMPDEST PUSH0 PUSH20 0xFFFFFFFFFFFFFFFFFFFFFFFFFFFFFFFFFFFFFFFF DUP3 AND SWAP1 POP SWAP2 SWAP1 POP JUMP JUMPDEST PUSH0 PUSH2 0x34E DUP3 PUSH2 0x325 JUMP JUMPDEST SWAP1 POP SWAP2 SWAP1 POP JUMP JUMPDEST PUSH2 0x35E DUP2 PUSH2 0x344 JUMP JUMPDEST DUP2 EQ PUSH2 0x368 JUMPI PUSH0 PUSH0 REVERT JUMPDEST POP JUMP JUMPDEST PUSH0 DUP2 MLOAD SWAP1 POP PUSH2 0x379 DUP2 PUSH2 0x355 JUMP JUMPDEST SWAP3 SWAP2 POP POP JUMP JUMPDEST PUSH0 PUSH2 0x391 PUSH2 0x38C DUP5 PUSH2 0x2F6 JUMP JUMPDEST PUSH2 0x2DC JUMP JUMPDEST SWAP1 POP DUP1 DUP4 DUP3 MSTORE PUSH1 0x20 DUP3 ADD SWAP1 POP PUSH1 0x20 DUP5 MUL DUP4 ADD DUP6 DUP2 GT ISZERO PUSH2 0x3B4 JUMPI PUSH2 0x3B3 PUSH2 0x321 JUMP JUMPDEST JUMPDEST DUP4 JUMPDEST DUP2 DUP2 LT ISZERO PUSH2 0x3DD JUMPI DUP1 PUSH2 0x3C9 DUP9 DUP3 PUSH2 0x36B JUMP JUMPDEST DUP5 MSTORE PUSH1 0x20 DUP5 ADD SWAP4 POP POP PUSH1 0x20 DUP2 ADD SWAP1 POP PUSH2 0x3B6 JUMP JUMPDEST POP POP POP SWAP4 SWAP3 POP POP POP JUMP JUMPDEST PUSH0 DUP3 PUSH1 0x1F DUP4 ADD SLT PUSH2 0x3FB JUMPI PUSH2 0x3FA PUSH2 0x26A JUMP JUMPDEST JUMPDEST DUP2 MLOAD PUSH2 0x40B DUP5 DUP3 PUSH1 0x20 DUP7 ADD PUSH2 0x37F JUMP JUMPDEST SWAP2 POP POP SWAP3 SWAP2 POP POP JUMP JUMPDEST PUSH0 DUP2 SWAP1 POP SWAP2 SWAP1 POP JUMP JUMPDEST PUSH2 0x426 DUP2 PUSH2 0x414 JUMP JUMPDEST DUP2 EQ PUSH2 0x430 JUMPI PUSH0 PUSH0 REVERT JUMPDEST POP JUMP JUMPDEST PUSH0 DUP2 MLOAD SWAP1 POP PUSH2 0x441 DUP2 PUSH2 0x41D JUMP JUMPDEST SWAP3 SWAP2 POP POP JUMP JUMPDEST PUSH0 PUSH0 PUSH1 0x40 DUP4 DUP6 SUB SLT ISZERO PUSH2 0x45D JUMPI PUSH2 0x45C PUSH2 0x262 JUMP JUMPDEST JUMPDEST PUSH0 DUP4 ADD MLOAD PUSH8 0xFFFFFFFFFFFFFFFF DUP2 GT ISZERO PUSH2 0x47A JUMPI PUSH2 0x479 PUSH2 0x266 JUMP JUMPDEST JUMPDEST PUSH2 0x486 DUP6 DUP3 DUP7 ADD PUSH2 0x3E7 JUMP JUMPDEST SWAP3 POP POP PUSH1 0x20 PUSH2 0x497 DUP6 DUP3 DUP7 ADD PUSH2 0x433 JUMP JUMPDEST SWAP2 POP POP SWAP3 POP SWAP3 SWAP1 POP JUMP JUMPDEST PUSH32 0x4E487B7100000000000000000000000000000000000000000000000000000000 PUSH0 MSTORE PUSH1 0x32 PUSH1 0x4 MSTORE PUSH1 0x24 PUSH0 REVERT JUMPDEST PUSH0 DUP3 DUP3 MSTORE PUSH1 0x20 DUP3 ADD SWAP1 POP SWAP3 SWAP2 POP POP JUMP JUMPDEST PUSH32 0x676574206F757400000000000000000000000000000000000000000000000000 PUSH0 DUP3 ADD MSTORE POP JUMP JUMPDEST PUSH0 PUSH2 0x512 PUSH1 0x7 DUP4 PUSH2 0x4CE JUMP JUMPDEST SWAP2 POP PUSH2 0x51D DUP3 PUSH2 0x4DE JUMP JUMPDEST PUSH1 0x20 DUP3 ADD SWAP1 POP SWAP2 SWAP1 POP JUMP JUMPDEST PUSH0 PUSH1 0x20 DUP3 ADD SWAP1 POP DUP2 DUP2 SUB PUSH0 DUP4 ADD MSTORE PUSH2 0x53F DUP2 PUSH2 0x506 JUMP JUMPDEST SWAP1 POP SWAP2 SWAP1 POP JUMP JUMPDEST PUSH32 0x4E487B7100000000000000000000000000000000000000000000000000000000 PUSH0 MSTORE PUSH1 0x11 PUSH1 0x4 MSTORE PUSH1 0x24 PUSH0 REVERT JUMPDEST PUSH0 PUSH1 0xFF DUP3 AND SWAP1 POP SWAP2 SWAP1 POP JUMP JUMPDEST PUSH0 PUSH2 0x589 DUP3 PUSH2 0x573 JUMP JUMPDEST SWAP2 POP PUSH1 0xFF DUP3 SUB PUSH2 0x59C JUMPI PUSH2 0x59B PUSH2 0x546 JUMP JUMPDEST JUMPDEST PUSH1 0x1 DUP3 ADD SWAP1 POP SWAP2 SWAP1 POP JUMP JUMPDEST PUSH2 0x189F DUP1 PUSH2 0x5B4 PUSH0 CODECOPY PUSH0 RETURN INVALID PUSH1 0x80 PUSH1 0x40 MSTORE PUSH1 0x4 CALLDATASIZE LT PUSH2 0x7E JUMPI PUSH0 CALLDATALOAD PUSH1 0xE0 SHR DUP1 PUSH4 0x5FFDE144 GT PUSH2 0x4D JUMPI DUP1 PUSH4 0x5FFDE144 EQ PUSH2 0x125 JUMPI DUP1 PUSH4 0xDE8EE817 EQ PUSH2 0x14D JUMPI DUP1 PUSH4 0xE42BB8AA EQ PUSH2 0x175 JUMPI DUP1 PUSH4 0xF2FDE38B EQ PUSH2 0x19D JUMPI PUSH2 0x7F JUMP JUMPDEST DUP1 PUSH4 0x2079FB9A EQ PUSH2 0x81 JUMPI DUP1 PUSH4 0x242232D1 EQ PUSH2 0xBD JUMPI DUP1 PUSH4 0x27506F53 EQ PUSH2 0xE5 JUMPI DUP1 PUSH4 0x4E71E0C8 EQ PUSH2 0x10F JUMPI PUSH2 0x7F JUMP JUMPDEST JUMPDEST STOP JUMPDEST CALLVALUE DUP1 ISZERO PUSH2 0x8C JUMPI PUSH0 PUSH0 REVERT JUMPDEST POP PUSH2 0xA7 PUSH1 0x4 DUP1 CALLDATASIZE SUB DUP2 ADD SWAP1 PUSH2 0xA2 SWAP2 SWAP1 PUSH2 0xF95 JUMP JUMPDEST PUSH2 0x1C5 JUMP JUMPDEST PUSH1 0x40 MLOAD PUSH2 0xB4 SWAP2 SWAP1 PUSH2 0xFFF JUMP JUMPDEST PUSH1 0x40 MLOAD DUP1 SWAP2 SUB SWAP1 RETURN JUMPDEST CALLVALUE DUP1 ISZERO PUSH2 0xC8 JUMPI PUSH0 PUSH0 REVERT JUMPDEST POP PUSH2 0xE3 PUSH1 0x4 DUP1 CALLDATASIZE SUB DUP2 ADD SWAP1 PUSH2 0xDE SWAP2 SWAP1 PUSH2 0xF95 JUMP JUMPDEST PUSH2 0x1FF JUMP JUMPDEST STOP JUMPDEST CALLVALUE DUP1 ISZERO PUSH2 0xF0 JUMPI PUSH0 PUSH0 REVERT JUMPDEST POP PUSH2 0xF9 PUSH2 0x55D JUMP JUMPDEST PUSH1 0x40 MLOAD PUSH2 0x106 SWAP2 SWAP1 PUSH2 0x1171 JUMP JUMPDEST PUSH1 0x40 MLOAD DUP1 SWAP2 SUB SWAP1 RETURN JUMPDEST CALLVALUE DUP1 ISZERO PUSH2 0x11A JUMPI PUSH0 PUSH0 REVERT JUMPDEST POP PUSH2 0x123 PUSH2 0x69B JUMP JUMPDEST STOP JUMPDEST CALLVALUE DUP1 ISZERO PUSH2 0x130 JUMPI PUSH0 PUSH0 REVERT JUMPDEST POP PUSH2 0x14B PUSH1 0x4 DUP1 CALLDATASIZE SUB DUP2 ADD SWAP1 PUSH2 0x146 SWAP2 SWAP1 PUSH2 0xF95 JUMP JUMPDEST PUSH2 0x7AC JUMP JUMPDEST STOP JUMPDEST CALLVALUE DUP1 ISZERO PUSH2 0x158 JUMPI PUSH0 PUSH0 REVERT JUMPDEST POP PUSH2 0x173 PUSH1 0x4 DUP1 CALLDATASIZE SUB DUP2 ADD SWAP1 PUSH2 0x16E SWAP2 SWAP1 PUSH2 0x11BB JUMP JUMPDEST PUSH2 0x971 JUMP JUMPDEST STOP JUMPDEST CALLVALUE DUP1 ISZERO PUSH2 0x180 JUMPI PUSH0 PUSH0 REVERT JUMPDEST POP PUSH2 0x19B PUSH1 0x4 DUP1 CALLDATASIZE SUB DUP2 ADD SWAP1 PUSH2 0x196 SWAP2 SWAP1 PUSH2 0x11E6 JUMP JUMPDEST PUSH2 0xAB9 JUMP JUMPDEST STOP JUMPDEST CALLVALUE DUP1 ISZERO PUSH2 0x1A8 JUMPI PUSH0 PUSH0 REVERT JUMPDEST POP PUSH2 0x1C3 PUSH1 0x4 DUP1 CALLDATASIZE SUB DUP2 ADD SWAP1 PUSH2 0x1BE SWAP2 SWAP1 PUSH2 0x11BB JUMP JUMPDEST PUSH2 0xDF7 JUMP JUMPDEST STOP JUMPDEST PUSH0 DUP2 DUP2 SLOAD DUP2 LT PUSH2 0x1D3 JUMPI PUSH0 DUP1 REVERT JUMPDEST SWAP1 PUSH0 MSTORE PUSH1 0x20 PUSH0 KECCAK256 ADD PUSH0 SWAP2 POP SLOAD SWAP1 PUSH2 0x100 EXP SWAP1 DIV PUSH20 0xFFFFFFFFFFFFFFFFFFFFFFFFFFFFFFFFFFFFFFFF AND DUP2 JUMP JUMPDEST PUSH1 0x2 SLOAD DUP2 GT ISZERO PUSH2 0x244 JUMPI PUSH1 0x40 MLOAD PUSH32 0x8C379A000000000000000000000000000000000000000000000000000000000 DUP2 MSTORE PUSH1 0x4 ADD PUSH2 0x23B SWAP1 PUSH2 0x127E JUMP JUMPDEST PUSH1 0x40 MLOAD DUP1 SWAP2 SUB SWAP1 REVERT JUMPDEST PUSH0 PUSH20 0xFFFFFFFFFFFFFFFFFFFFFFFFFFFFFFFFFFFFFFFF AND CALLER PUSH20 0xFFFFFFFFFFFFFFFFFFFFFFFFFFFFFFFFFFFFFFFF AND SUB PUSH2 0x2B2 JUMPI PUSH1 0x40 MLOAD PUSH32 0x8C379A000000000000000000000000000000000000000000000000000000000 DUP2 MSTORE PUSH1 0x4 ADD PUSH2 0x2A9 SWAP1 PUSH2 0x12E6 JUMP JUMPDEST PUSH1 0x40 MLOAD DUP1 SWAP2 SUB SWAP1 REVERT JUMPDEST PUSH2 0x2BA PUSH2 0xE42 JUMP JUMPDEST PUSH1 0x6 PUSH0 DUP3 DUP2 MSTORE PUSH1 0x20 ADD SWAP1 DUP2 MSTORE PUSH1 0x20 ADD PUSH0 KECCAK256 PUSH0 CALLER PUSH20 0xFFFFFFFFFFFFFFFFFFFFFFFFFFFFFFFFFFFFFFFF AND PUSH20 0xFFFFFFFFFFFFFFFFFFFFFFFFFFFFFFFFFFFFFFFF AND DUP2 MSTORE PUSH1 0x20 ADD SWAP1 DUP2 MSTORE PUSH1 0x20 ADD PUSH0 KECCAK256 PUSH0 SWAP1 SLOAD SWAP1 PUSH2 0x100 EXP SWAP1 DIV PUSH1 0xFF AND ISZERO PUSH2 0x353 JUMPI PUSH1 0x40 MLOAD PUSH32 0x8C379A000000000000000000000000000000000000000000000000000000000 DUP2 MSTORE PUSH1 0x4 ADD PUSH2 0x34A SWAP1 PUSH2 0x134E JUMP JUMPDEST PUSH1 0x40 MLOAD DUP1 SWAP2 SUB SWAP1 REVERT JUMPDEST PUSH0 PUSH1 0x7 PUSH0 DUP4 DUP2 MSTORE PUSH1 0x20 ADD SWAP1 DUP2 MSTORE PUSH1 0x20 ADD PUSH0 KECCAK256 SWAP1 POP DUP1 PUSH1 0x1 ADD SLOAD SELFBALANCE LT ISZERO PUSH2 0x3AE JUMPI PUSH1 0x40 MLOAD PUSH32 0x8C379A000000000000000000000000000000000000000000000000000000000 DUP2 MSTORE PUSH1 0x4 ADD PUSH2 0x3A5 SWAP1 PUSH2 0x13B6 JUMP JUMPDEST PUSH1 0x40 MLOAD DUP1 SWAP2 SUB SWAP1 REVERT JUMPDEST DUP1 PUSH1 0x4 ADD PUSH0 SWAP1 SLOAD SWAP1 PUSH2 0x100 EXP SWAP1 DIV PUSH1 0xFF AND ISZERO PUSH2 0x3FF JUMPI PUSH1 0x40 MLOAD PUSH32 0x8C379A000000000000000000000000000000000000000000000000000000000 DUP2 MSTORE PUSH1 0x4 ADD PUSH2 0x3F6 SWAP1 PUSH2 0x141E JUMP JUMPDEST PUSH1 0x40 MLOAD DUP1 SWAP2 SUB SWAP1 REVERT JUMPDEST PUSH1 0x1 SLOAD DUP2 PUSH1 0x3 ADD SLOAD LT PUSH2 0x447 JUMPI PUSH1 0x40 MLOAD PUSH32 0x8C379A000000000000000000000000000000000000000000000000000000000 DUP2 MSTORE PUSH1 0x4 ADD PUSH2 0x43E SWAP1 PUSH2 0x1486 JUMP JUMPDEST PUSH1 0x40 MLOAD DUP1 SWAP2 SUB SWAP1 REVERT JUMPDEST PUSH1 0x1 DUP2 PUSH1 0x3 ADD SLOAD PUSH2 0x458 SWAP2 SWAP1 PUSH2 0x14D1 JUMP JUMPDEST DUP2 PUSH1 0x3 ADD DUP2 SWAP1 SSTORE POP PUSH1 0x1 PUSH1 0x6 PUSH0 DUP5 DUP2 MSTORE PUSH1 0x20 ADD SWAP1 DUP2 MSTORE PUSH1 0x20 ADD PUSH0 KECCAK256 PUSH0 CALLER PUSH20 0xFFFFFFFFFFFFFFFFFFFFFFFFFFFFFFFFFFFFFFFF AND PUSH20 0xFFFFFFFFFFFFFFFFFFFFFFFFFFFFFFFFFFFFFFFF AND DUP2 MSTORE PUSH1 0x20 ADD SWAP1 DUP2 MSTORE PUSH1 0x20 ADD PUSH0 KECCAK256 PUSH0 PUSH2 0x100 EXP DUP2 SLOAD DUP2 PUSH1 0xFF MUL NOT AND SWAP1 DUP4 ISZERO ISZERO MUL OR SWAP1 SSTORE POP PUSH1 0x1 SLOAD DUP2 PUSH1 0x3 ADD SLOAD SUB PUSH2 0x559 JUMPI PUSH1 0x1 DUP2 PUSH1 0x4 ADD PUSH0 PUSH2 0x100 EXP DUP2 SLOAD DUP2 PUSH1 0xFF MUL NOT AND SWAP1 DUP4 ISZERO ISZERO MUL OR SWAP1 SSTORE POP DUP1 PUSH1 0x2 ADD PUSH0 SWAP1 SLOAD SWAP1 PUSH2 0x100 EXP SWAP1 DIV PUSH20 0xFFFFFFFFFFFFFFFFFFFFFFFFFFFFFFFFFFFFFFFF AND PUSH20 0xFFFFFFFFFFFFFFFFFFFFFFFFFFFFFFFFFFFFFFFF AND PUSH2 0x8FC DUP3 PUSH1 0x1 ADD SLOAD SWAP1 DUP2 ISZERO MUL SWAP1 PUSH1 0x40 MLOAD PUSH0 PUSH1 0x40 MLOAD DUP1 DUP4 SUB DUP2 DUP6 DUP9 DUP9 CALL SWAP4 POP POP POP POP ISZERO DUP1 ISZERO PUSH2 0x557 JUMPI RETURNDATASIZE PUSH0 PUSH0 RETURNDATACOPY RETURNDATASIZE PUSH0 REVERT JUMPDEST POP JUMPDEST POP POP JUMP JUMPDEST PUSH1 0x60 PUSH1 0x5 DUP1 SLOAD DUP1 PUSH1 0x20 MUL PUSH1 0x20 ADD PUSH1 0x40 MLOAD SWAP1 DUP2 ADD PUSH1 0x40 MSTORE DUP1 SWAP3 SWAP2 SWAP1 DUP2 DUP2 MSTORE PUSH1 0x20 ADD PUSH0 SWAP1 JUMPDEST DUP3 DUP3 LT ISZERO PUSH2 0x692 JUMPI DUP4 DUP3 SWAP1 PUSH0 MSTORE PUSH1 0x20 PUSH0 KECCAK256 SWAP1 PUSH1 0x5 MUL ADD PUSH1 0x40 MLOAD DUP1 PUSH1 0xC0 ADD PUSH1 0x40 MSTORE SWAP1 DUP2 PUSH0 DUP3 ADD SLOAD DUP2 MSTORE PUSH1 0x20 ADD PUSH1 0x1 DUP3 ADD SLOAD DUP2 MSTORE PUSH1 0x20 ADD PUSH1 0x2 DUP3 ADD PUSH0 SWAP1 SLOAD SWAP1 PUSH2 0x100 EXP SWAP1 DIV PUSH20 0xFFFFFFFFFFFFFFFFFFFFFFFFFFFFFFFFFFFFFFFF AND PUSH20 0xFFFFFFFFFFFFFFFFFFFFFFFFFFFFFFFFFFFFFFFF AND PUSH20 0xFFFFFFFFFFFFFFFFFFFFFFFFFFFFFFFFFFFFFFFF AND DUP2 MSTORE PUSH1 0x20 ADD PUSH1 0x3 DUP3 ADD SLOAD DUP2 MSTORE PUSH1 0x20 ADD PUSH1 0x4 DUP3 ADD PUSH0 SWAP1 SLOAD SWAP1 PUSH2 0x100 EXP SWAP1 DIV PUSH1 0xFF AND ISZERO ISZERO ISZERO ISZERO DUP2 MSTORE PUSH1 0x20 ADD PUSH1 0x4 DUP3 ADD PUSH1 0x1 SWAP1 SLOAD SWAP1 PUSH2 0x100 EXP SWAP1 DIV PUSH20 0xFFFFFFFFFFFFFFFFFFFFFFFFFFFFFFFFFFFFFFFF AND PUSH20 0xFFFFFFFFFFFFFFFFFFFFFFFFFFFFFFFFFFFFFFFF AND PUSH20 0xFFFFFFFFFFFFFFFFFFFFFFFFFFFFFFFFFFFFFFFF AND DUP2 MSTORE POP POP DUP2 MSTORE PUSH1 0x20 ADD SWAP1 PUSH1 0x1 ADD SWAP1 PUSH2 0x580 JUMP JUMPDEST POP POP POP POP SWAP1 POP SWAP1 JUMP JUMPDEST PUSH1 0x4 PUSH0 SWAP1 SLOAD SWAP1 PUSH2 0x100 EXP SWAP1 DIV PUSH20 0xFFFFFFFFFFFFFFFFFFFFFFFFFFFFFFFFFFFFFFFF AND PUSH20 0xFFFFFFFFFFFFFFFFFFFFFFFFFFFFFFFFFFFFFFFF AND CALLER PUSH20 0xFFFFFFFFFFFFFFFFFFFFFFFFFFFFFFFFFFFFFFFF AND EQ PUSH2 0x72A JUMPI PUSH1 0x40 MLOAD PUSH32 0x8C379A000000000000000000000000000000000000000000000000000000000 DUP2 MSTORE PUSH1 0x4 ADD PUSH2 0x721 SWAP1 PUSH2 0x154E JUMP JUMPDEST PUSH1 0x40 MLOAD DUP1 SWAP2 SUB SWAP1 REVERT JUMPDEST CALLER PUSH1 0x3 PUSH0 PUSH2 0x100 EXP DUP2 SLOAD DUP2 PUSH20 0xFFFFFFFFFFFFFFFFFFFFFFFFFFFFFFFFFFFFFFFF MUL NOT AND SWAP1 DUP4 PUSH20 0xFFFFFFFFFFFFFFFFFFFFFFFFFFFFFFFFFFFFFFFF AND MUL OR SWAP1 SSTORE POP PUSH0 PUSH1 0x4 PUSH0 PUSH2 0x100 EXP DUP2 SLOAD DUP2 PUSH20 0xFFFFFFFFFFFFFFFFFFFFFFFFFFFFFFFFFFFFFFFF MUL NOT AND SWAP1 DUP4 PUSH20 0xFFFFFFFFFFFFFFFFFFFFFFFFFFFFFFFFFFFFFFFF AND MUL OR SWAP1 SSTORE POP JUMP JUMPDEST PUSH2 0x7B4 PUSH2 0xECD JUMP JUMPDEST PUSH0 DUP1 SLOAD SWAP1 POP DUP2 LT PUSH2 0x7FA JUMPI PUSH1 0x40 MLOAD PUSH32 0x8C379A000000000000000000000000000000000000000000000000000000000 DUP2 MSTORE PUSH1 0x4 ADD PUSH2 0x7F1 SWAP1 PUSH2 0x15B6 JUMP JUMPDEST PUSH1 0x40 MLOAD DUP1 SWAP2 SUB SWAP1 REVERT JUMPDEST PUSH0 PUSH1 0x1 PUSH0 DUP1 SLOAD SWAP1 POP PUSH2 0x80C SWAP2 SWAP1 PUSH2 0x15D4 JUMP JUMPDEST DUP2 SLOAD DUP2 LT PUSH2 0x81D JUMPI PUSH2 0x81C PUSH2 0x1607 JUMP JUMPDEST JUMPDEST SWAP1 PUSH0 MSTORE PUSH1 0x20 PUSH0 KECCAK256 ADD PUSH0 SWAP1 SLOAD SWAP1 PUSH2 0x100 EXP SWAP1 DIV PUSH20 0xFFFFFFFFFFFFFFFFFFFFFFFFFFFFFFFFFFFFFFFF AND PUSH0 DUP3 DUP2 SLOAD DUP2 LT PUSH2 0x858 JUMPI PUSH2 0x857 PUSH2 0x1607 JUMP JUMPDEST JUMPDEST SWAP1 PUSH0 MSTORE PUSH1 0x20 PUSH0 KECCAK256 ADD PUSH0 PUSH2 0x100 EXP DUP2 SLOAD DUP2 PUSH20 0xFFFFFFFFFFFFFFFFFFFFFFFFFFFFFFFFFFFFFFFF MUL NOT AND SWAP1 DUP4 PUSH20 0xFFFFFFFFFFFFFFFFFFFFFFFFFFFFFFFFFFFFFFFF AND MUL OR SWAP1 SSTORE POP PUSH0 PUSH1 0x8 PUSH0 PUSH0 DUP5 DUP2 SLOAD DUP2 LT PUSH2 0x8B4 JUMPI PUSH2 0x8B3 PUSH2 0x1607 JUMP JUMPDEST JUMPDEST SWAP1 PUSH0 MSTORE PUSH1 0x20 PUSH0 KECCAK256 ADD PUSH0 SWAP1 SLOAD SWAP1 PUSH2 0x100 EXP SWAP1 DIV PUSH20 0xFFFFFFFFFFFFFFFFFFFFFFFFFFFFFFFFFFFFFFFF AND PUSH20 0xFFFFFFFFFFFFFFFFFFFFFFFFFFFFFFFFFFFFFFFF AND PUSH20 0xFFFFFFFFFFFFFFFFFFFFFFFFFFFFFFFFFFFFFFFF AND DUP2 MSTORE PUSH1 0x20 ADD SWAP1 DUP2 MSTORE PUSH1 0x20 ADD PUSH0 KECCAK256 PUSH0 PUSH2 0x100 EXP DUP2 SLOAD DUP2 PUSH1 0xFF MUL NOT AND SWAP1 DUP4 ISZERO ISZERO MUL OR SWAP1 SSTORE POP PUSH0 DUP1 SLOAD DUP1 PUSH2 0x93C JUMPI PUSH2 0x93B PUSH2 0x1634 JUMP JUMPDEST JUMPDEST PUSH1 0x1 SWAP1 SUB DUP2 DUP2 SWAP1 PUSH0 MSTORE PUSH1 0x20 PUSH0 KECCAK256 ADD PUSH0 PUSH2 0x100 EXP DUP2 SLOAD SWAP1 PUSH20 0xFFFFFFFFFFFFFFFFFFFFFFFFFFFFFFFFFFFFFFFF MUL NOT AND SWAP1 SSTORE SWAP1 SSTORE POP JUMP JUMPDEST PUSH2 0x979 PUSH2 0xECD JUMP JUMPDEST PUSH1 0x8 PUSH0 DUP3 PUSH20 0xFFFFFFFFFFFFFFFFFFFFFFFFFFFFFFFFFFFFFFFF AND PUSH20 0xFFFFFFFFFFFFFFFFFFFFFFFFFFFFFFFFFFFFFFFF AND DUP2 MSTORE PUSH1 0x20 ADD SWAP1 DUP2 MSTORE PUSH1 0x20 ADD PUSH0 KECCAK256 PUSH0 SWAP1 SLOAD SWAP1 PUSH2 0x100 EXP SWAP1 DIV PUSH1 0xFF AND PUSH2 0xA02 JUMPI PUSH1 0x40 MLOAD PUSH32 0x8C379A000000000000000000000000000000000000000000000000000000000 DUP2 MSTORE PUSH1 0x4 ADD PUSH2 0x9F9 SWAP1 PUSH2 0x16AB JUMP JUMPDEST PUSH1 0x40 MLOAD DUP1 SWAP2 SUB SWAP1 REVERT JUMPDEST PUSH1 0x1 PUSH1 0x8 PUSH0 DUP4 PUSH20 0xFFFFFFFFFFFFFFFFFFFFFFFFFFFFFFFFFFFFFFFF AND PUSH20 0xFFFFFFFFFFFFFFFFFFFFFFFFFFFFFFFFFFFFFFFF AND DUP2 MSTORE PUSH1 0x20 ADD SWAP1 DUP2 MSTORE PUSH1 0x20 ADD PUSH0 KECCAK256 PUSH0 PUSH2 0x100 EXP DUP2 SLOAD DUP2 PUSH1 0xFF MUL NOT AND SWAP1 DUP4 ISZERO ISZERO MUL OR SWAP1 SSTORE POP PUSH0 DUP2 SWAP1 DUP1 PUSH1 0x1 DUP2 SLOAD ADD DUP1 DUP3 SSTORE DUP1 SWAP2 POP POP PUSH1 0x1 SWAP1 SUB SWAP1 PUSH0 MSTORE PUSH1 0x20 PUSH0 KECCAK256 ADD PUSH0 SWAP1 SWAP2 SWAP1 SWAP2 SWAP1 SWAP2 PUSH2 0x100 EXP DUP2 SLOAD DUP2 PUSH20 0xFFFFFFFFFFFFFFFFFFFFFFFFFFFFFFFFFFFFFFFF MUL NOT AND SWAP1 DUP4 PUSH20 0xFFFFFFFFFFFFFFFFFFFFFFFFFFFFFFFFFFFFFFFF AND MUL OR SWAP1 SSTORE POP POP JUMP JUMPDEST PUSH0 PUSH20 0xFFFFFFFFFFFFFFFFFFFFFFFFFFFFFFFFFFFFFFFF AND CALLER PUSH20 0xFFFFFFFFFFFFFFFFFFFFFFFFFFFFFFFFFFFFFFFF AND SUB PUSH2 0xB27 JUMPI PUSH1 0x40 MLOAD PUSH32 0x8C379A000000000000000000000000000000000000000000000000000000000 DUP2 MSTORE PUSH1 0x4 ADD PUSH2 0xB1E SWAP1 PUSH2 0x1713 JUMP JUMPDEST PUSH1 0x40 MLOAD DUP1 SWAP2 SUB SWAP1 REVERT JUMPDEST PUSH0 DUP3 GT PUSH2 0xB69 JUMPI PUSH1 0x40 MLOAD PUSH32 0x8C379A000000000000000000000000000000000000000000000000000000000 DUP2 MSTORE PUSH1 0x4 ADD PUSH2 0xB60 SWAP1 PUSH2 0x177B JUMP JUMPDEST PUSH1 0x40 MLOAD DUP1 SWAP2 SUB SWAP1 REVERT JUMPDEST PUSH2 0xB71 PUSH2 0xE42 JUMP JUMPDEST PUSH0 PUSH1 0x1 PUSH1 0x2 SLOAD PUSH2 0xB81 SWAP2 SWAP1 PUSH2 0x14D1 JUMP JUMPDEST SWAP1 POP PUSH0 PUSH1 0x7 PUSH0 DUP4 DUP2 MSTORE PUSH1 0x20 ADD SWAP1 DUP2 MSTORE PUSH1 0x20 ADD PUSH0 KECCAK256 SWAP1 POP DUP2 DUP2 PUSH0 ADD DUP2 SWAP1 SSTORE POP DUP4 DUP2 PUSH1 0x1 ADD DUP2 SWAP1 SSTORE POP DUP3 DUP2 PUSH1 0x2 ADD PUSH0 PUSH2 0x100 EXP DUP2 SLOAD DUP2 PUSH20 0xFFFFFFFFFFFFFFFFFFFFFFFFFFFFFFFFFFFFFFFF MUL NOT AND SWAP1 DUP4 PUSH20 0xFFFFFFFFFFFFFFFFFFFFFFFFFFFFFFFFFFFFFFFF AND MUL OR SWAP1 SSTORE POP DUP1 PUSH1 0x3 ADD SLOAD DUP2 PUSH1 0x3 ADD DUP2 SWAP1 SSTORE POP CALLER DUP2 PUSH1 0x4 ADD PUSH1 0x1 PUSH2 0x100 EXP DUP2 SLOAD DUP2 PUSH20 0xFFFFFFFFFFFFFFFFFFFFFFFFFFFFFFFFFFFFFFFF MUL NOT AND SWAP1 DUP4 PUSH20 0xFFFFFFFFFFFFFFFFFFFFFFFFFFFFFFFFFFFFFFFF AND MUL OR SWAP1 SSTORE POP PUSH1 0x5 DUP2 SWAP1 DUP1 PUSH1 0x1 DUP2 SLOAD ADD DUP1 DUP3 SSTORE DUP1 SWAP2 POP POP PUSH1 0x1 SWAP1 SUB SWAP1 PUSH0 MSTORE PUSH1 0x20 PUSH0 KECCAK256 SWAP1 PUSH1 0x5 MUL ADD PUSH0 SWAP1 SWAP2 SWAP1 SWAP2 SWAP1 SWAP2 POP PUSH0 DUP3 ADD SLOAD DUP2 PUSH0 ADD SSTORE PUSH1 0x1 DUP3 ADD SLOAD DUP2 PUSH1 0x1 ADD SSTORE PUSH1 0x2 DUP3 ADD PUSH0 SWAP1 SLOAD SWAP1 PUSH2 0x100 EXP SWAP1 DIV PUSH20 0xFFFFFFFFFFFFFFFFFFFFFFFFFFFFFFFFFFFFFFFF AND DUP2 PUSH1 0x2 ADD PUSH0 PUSH2 0x100 EXP DUP2 SLOAD DUP2 PUSH20 0xFFFFFFFFFFFFFFFFFFFFFFFFFFFFFFFFFFFFFFFF MUL NOT AND SWAP1 DUP4 PUSH20 0xFFFFFFFFFFFFFFFFFFFFFFFFFFFFFFFFFFFFFFFF AND MUL OR SWAP1 SSTORE POP PUSH1 0x3 DUP3 ADD SLOAD DUP2 PUSH1 0x3 ADD SSTORE PUSH1 0x4 DUP3 ADD PUSH0 SWAP1 SLOAD SWAP1 PUSH2 0x100 EXP SWAP1 DIV PUSH1 0xFF AND DUP2 PUSH1 0x4 ADD PUSH0 PUSH2 0x100 EXP DUP2 SLOAD DUP2 PUSH1 0xFF MUL NOT AND SWAP1 DUP4 ISZERO ISZERO MUL OR SWAP1 SSTORE POP PUSH1 0x4 DUP3 ADD PUSH1 0x1 SWAP1 SLOAD SWAP1 PUSH2 0x100 EXP SWAP1 DIV PUSH20 0xFFFFFFFFFFFFFFFFFFFFFFFFFFFFFFFFFFFFFFFF AND DUP2 PUSH1 0x4 ADD PUSH1 0x1 PUSH2 0x100 EXP DUP2 SLOAD DUP2 PUSH20 0xFFFFFFFFFFFFFFFFFFFFFFFFFFFFFFFFFFFFFFFF MUL NOT AND SWAP1 DUP4 PUSH20 0xFFFFFFFFFFFFFFFFFFFFFFFFFFFFFFFFFFFFFFFF AND MUL OR SWAP1 SSTORE POP POP POP PUSH1 0x1 PUSH1 0x6 PUSH0 DUP5 DUP2 MSTORE PUSH1 0x20 ADD SWAP1 DUP2 MSTORE PUSH1 0x20 ADD PUSH0 KECCAK256 PUSH0 CALLER PUSH20 0xFFFFFFFFFFFFFFFFFFFFFFFFFFFFFFFFFFFFFFFF AND PUSH20 0xFFFFFFFFFFFFFFFFFFFFFFFFFFFFFFFFFFFFFFFF AND DUP2 MSTORE PUSH1 0x20 ADD SWAP1 DUP2 MSTORE PUSH1 0x20 ADD PUSH0 KECCAK256 PUSH0 PUSH2 0x100 EXP DUP2 SLOAD DUP2 PUSH1 0xFF MUL NOT AND SWAP1 DUP4 ISZERO ISZERO MUL OR SWAP1 SSTORE POP PUSH1 0x1 PUSH1 0x2 SLOAD PUSH2 0xDEB SWAP2 SWAP1 PUSH2 0x14D1 JUMP JUMPDEST PUSH1 0x2 DUP2 SWAP1 SSTORE POP POP POP POP POP JUMP JUMPDEST PUSH2 0xDFF PUSH2 0xECD JUMP JUMPDEST DUP1 PUSH1 0x4 PUSH0 PUSH2 0x100 EXP DUP2 SLOAD DUP2 PUSH20 0xFFFFFFFFFFFFFFFFFFFFFFFFFFFFFFFFFFFFFFFF MUL NOT AND SWAP1 DUP4 PUSH20 0xFFFFFFFFFFFFFFFFFFFFFFFFFFFFFFFFFFFFFFFF AND MUL OR SWAP1 SSTORE POP POP JUMP JUMPDEST PUSH1 0x8 PUSH0 CALLER PUSH20 0xFFFFFFFFFFFFFFFFFFFFFFFFFFFFFFFFFFFFFFFF AND PUSH20 0xFFFFFFFFFFFFFFFFFFFFFFFFFFFFFFFFFFFFFFFF AND DUP2 MSTORE PUSH1 0x20 ADD SWAP1 DUP2 MSTORE PUSH1 0x20 ADD PUSH0 KECCAK256 PUSH0 SWAP1 SLOAD SWAP1 PUSH2 0x100 EXP SWAP1 DIV PUSH1 0xFF AND PUSH2 0xECB JUMPI PUSH1 0x40 MLOAD PUSH32 0x8C379A000000000000000000000000000000000000000000000000000000000 DUP2 MSTORE PUSH1 0x4 ADD PUSH2 0xEC2 SWAP1 PUSH2 0x17E3 JUMP JUMPDEST PUSH1 0x40 MLOAD DUP1 SWAP2 SUB SWAP1 REVERT JUMPDEST JUMP JUMPDEST PUSH1 0x3 PUSH0 SWAP1 SLOAD SWAP1 PUSH2 0x100 EXP SWAP1 DIV PUSH20 0xFFFFFFFFFFFFFFFFFFFFFFFFFFFFFFFFFFFFFFFF AND PUSH20 0xFFFFFFFFFFFFFFFFFFFFFFFFFFFFFFFFFFFFFFFF AND CALLER PUSH20 0xFFFFFFFFFFFFFFFFFFFFFFFFFFFFFFFFFFFFFFFF AND EQ PUSH2 0xF5C JUMPI PUSH1 0x40 MLOAD PUSH32 0x8C379A000000000000000000000000000000000000000000000000000000000 DUP2 MSTORE PUSH1 0x4 ADD PUSH2 0xF53 SWAP1 PUSH2 0x184B JUMP JUMPDEST PUSH1 0x40 MLOAD DUP1 SWAP2 SUB SWAP1 REVERT JUMPDEST JUMP JUMPDEST PUSH0 PUSH0 REVERT JUMPDEST PUSH0 DUP2 SWAP1 POP SWAP2 SWAP1 POP JUMP JUMPDEST PUSH2 0xF74 DUP2 PUSH2 0xF62 JUMP JUMPDEST DUP2 EQ PUSH2 0xF7E JUMPI PUSH0 PUSH0 REVERT JUMPDEST POP JUMP JUMPDEST PUSH0 DUP2 CALLDATALOAD SWAP1 POP PUSH2 0xF8F DUP2 PUSH2 0xF6B JUMP JUMPDEST SWAP3 SWAP2 POP POP JUMP JUMPDEST PUSH0 PUSH1 0x20 DUP3 DUP5 SUB SLT ISZERO PUSH2 0xFAA JUMPI PUSH2 0xFA9 PUSH2 0xF5E JUMP JUMPDEST JUMPDEST PUSH0 PUSH2 0xFB7 DUP5 DUP3 DUP6 ADD PUSH2 0xF81 JUMP JUMPDEST SWAP2 POP POP SWAP3 SWAP2 POP POP JUMP JUMPDEST PUSH0 PUSH20 0xFFFFFFFFFFFFFFFFFFFFFFFFFFFFFFFFFFFFFFFF DUP3 AND SWAP1 POP SWAP2 SWAP1 POP JUMP JUMPDEST PUSH0 PUSH2 0xFE9 DUP3 PUSH2 0xFC0 JUMP JUMPDEST SWAP1 POP SWAP2 SWAP1 POP JUMP JUMPDEST PUSH2 0xFF9 DUP2 PUSH2 0xFDF JUMP JUMPDEST DUP3 MSTORE POP POP JUMP JUMPDEST PUSH0 PUSH1 0x20 DUP3 ADD SWAP1 POP PUSH2 0x1012 PUSH0 DUP4 ADD DUP5 PUSH2 0xFF0 JUMP JUMPDEST SWAP3 SWAP2 POP POP JUMP JUMPDEST PUSH0 DUP2 MLOAD SWAP1 POP SWAP2 SWAP1 POP JUMP JUMPDEST PUSH0 DUP3 DUP3 MSTORE PUSH1 0x20 DUP3 ADD SWAP1 POP SWAP3 SWAP2 POP POP JUMP JUMPDEST PUSH0 DUP2 SWAP1 POP PUSH1 0x20 DUP3 ADD SWAP1 POP SWAP2 SWAP1 POP JUMP JUMPDEST PUSH2 0x104A DUP2 PUSH2 0xF62 JUMP JUMPDEST DUP3 MSTORE POP POP JUMP JUMPDEST PUSH2 0x1059 DUP2 PUSH2 0xFDF JUMP JUMPDEST DUP3 MSTORE POP POP JUMP JUMPDEST PUSH0 DUP2 ISZERO ISZERO SWAP1 POP SWAP2 SWAP1 POP JUMP JUMPDEST PUSH2 0x1073 DUP2 PUSH2 0x105F JUMP JUMPDEST DUP3 MSTORE POP POP JUMP JUMPDEST PUSH1 0xC0 DUP3 ADD PUSH0 DUP3 ADD MLOAD PUSH2 0x108D PUSH0 DUP6 ADD DUP3 PUSH2 0x1041 JUMP JUMPDEST POP PUSH1 0x20 DUP3 ADD MLOAD PUSH2 0x10A0 PUSH1 0x20 DUP6 ADD DUP3 PUSH2 0x1041 JUMP JUMPDEST POP PUSH1 0x40 DUP3 ADD MLOAD PUSH2 0x10B3 PUSH1 0x40 DUP6 ADD DUP3 PUSH2 0x1050 JUMP JUMPDEST POP PUSH1 0x60 DUP3 ADD MLOAD PUSH2 0x10C6 PUSH1 0x60 DUP6 ADD DUP3 PUSH2 0x1041 JUMP JUMPDEST POP PUSH1 0x80 DUP3 ADD MLOAD PUSH2 0x10D9 PUSH1 0x80 DUP6 ADD DUP3 PUSH2 0x106A JUMP JUMPDEST POP PUSH1 0xA0 DUP3 ADD MLOAD PUSH2 0x10EC PUSH1 0xA0 DUP6 ADD DUP3 PUSH2 0x1050 JUMP JUMPDEST POP POP POP POP JUMP JUMPDEST PUSH0 PUSH2 0x10FD DUP4 DUP4 PUSH2 0x1079 JUMP JUMPDEST PUSH1 0xC0 DUP4 ADD SWAP1 POP SWAP3 SWAP2 POP POP JUMP JUMPDEST PUSH0 PUSH1 0x20 DUP3 ADD SWAP1 POP SWAP2 SWAP1 POP JUMP JUMPDEST PUSH0 PUSH2 0x111F DUP3 PUSH2 0x1018 JUMP JUMPDEST PUSH2 0x1129 DUP2 DUP6 PUSH2 0x1022 JUMP JUMPDEST SWAP4 POP PUSH2 0x1134 DUP4 PUSH2 0x1032 JUMP JUMPDEST DUP1 PUSH0 JUMPDEST DUP4 DUP2 LT ISZERO PUSH2 0x1164 JUMPI DUP2 MLOAD PUSH2 0x114B DUP9 DUP3 PUSH2 0x10F2 JUMP JUMPDEST SWAP8 POP PUSH2 0x1156 DUP4 PUSH2 0x1109 JUMP JUMPDEST SWAP3 POP POP PUSH1 0x1 DUP2 ADD SWAP1 POP PUSH2 0x1137 JUMP JUMPDEST POP DUP6 SWAP4 POP POP POP POP SWAP3 SWAP2 POP POP JUMP JUMPDEST PUSH0 PUSH1 0x20 DUP3 ADD SWAP1 POP DUP2 DUP2 SUB PUSH0 DUP4 ADD MSTORE PUSH2 0x1189 DUP2 DUP5 PUSH2 0x1115 JUMP JUMPDEST SWAP1 POP SWAP3 SWAP2 POP POP JUMP JUMPDEST PUSH2 0x119A DUP2 PUSH2 0xFDF JUMP JUMPDEST DUP2 EQ PUSH2 0x11A4 JUMPI PUSH0 PUSH0 REVERT JUMPDEST POP JUMP JUMPDEST PUSH0 DUP2 CALLDATALOAD SWAP1 POP PUSH2 0x11B5 DUP2 PUSH2 0x1191 JUMP JUMPDEST SWAP3 SWAP2 POP POP JUMP JUMPDEST PUSH0 PUSH1 0x20 DUP3 DUP5 SUB SLT ISZERO PUSH2 0x11D0 JUMPI PUSH2 0x11CF PUSH2 0xF5E JUMP JUMPDEST JUMPDEST PUSH0 PUSH2 0x11DD DUP5 DUP3 DUP6 ADD PUSH2 0x11A7 JUMP JUMPDEST SWAP2 POP POP SWAP3 SWAP2 POP POP JUMP JUMPDEST PUSH0 PUSH0 PUSH1 0x40 DUP4 DUP6 SUB SLT ISZERO PUSH2 0x11FC JUMPI PUSH2 0x11FB PUSH2 0xF5E JUMP JUMPDEST JUMPDEST PUSH0 PUSH2 0x1209 DUP6 DUP3 DUP7 ADD PUSH2 0xF81 JUMP JUMPDEST SWAP3 POP POP PUSH1 0x20 PUSH2 0x121A DUP6 DUP3 DUP7 ADD PUSH2 0x11A7 JUMP JUMPDEST SWAP2 POP POP SWAP3 POP SWAP3 SWAP1 POP JUMP JUMPDEST PUSH0 DUP3 DUP3 MSTORE PUSH1 0x20 DUP3 ADD SWAP1 POP SWAP3 SWAP2 POP POP JUMP JUMPDEST PUSH32 0x696E76616C6964207472616E73616374696F6E20696400000000000000000000 PUSH0 DUP3 ADD MSTORE POP JUMP JUMPDEST PUSH0 PUSH2 0x1268 PUSH1 0x16 DUP4 PUSH2 0x1224 JUMP JUMPDEST SWAP2 POP PUSH2 0x1273 DUP3 PUSH2 0x1234 JUMP JUMPDEST PUSH1 0x20 DUP3 ADD SWAP1 POP SWAP2 SWAP1 POP JUMP JUMPDEST PUSH0 PUSH1 0x20 DUP3 ADD SWAP1 POP DUP2 DUP2 SUB PUSH0 DUP4 ADD MSTORE PUSH2 0x1295 DUP2 PUSH2 0x125C JUMP JUMPDEST SWAP1 POP SWAP2 SWAP1 POP JUMP JUMPDEST PUSH32 0x7A65726F20616464726573732064746563746564000000000000000000000000 PUSH0 DUP3 ADD MSTORE POP JUMP JUMPDEST PUSH0 PUSH2 0x12D0 PUSH1 0x14 DUP4 PUSH2 0x1224 JUMP JUMPDEST SWAP2 POP PUSH2 0x12DB DUP3 PUSH2 0x129C JUMP JUMPDEST PUSH1 0x20 DUP3 ADD SWAP1 POP SWAP2 SWAP1 POP JUMP JUMPDEST PUSH0 PUSH1 0x20 DUP3 ADD SWAP1 POP DUP2 DUP2 SUB PUSH0 DUP4 ADD MSTORE PUSH2 0x12FD DUP2 PUSH2 0x12C4 JUMP JUMPDEST SWAP1 POP SWAP2 SWAP1 POP JUMP JUMPDEST PUSH32 0x63616E2774207369676E20747769636500000000000000000000000000000000 PUSH0 DUP3 ADD MSTORE POP JUMP JUMPDEST PUSH0 PUSH2 0x1338 PUSH1 0x10 DUP4 PUSH2 0x1224 JUMP JUMPDEST SWAP2 POP PUSH2 0x1343 DUP3 PUSH2 0x1304 JUMP JUMPDEST PUSH1 0x20 DUP3 ADD SWAP1 POP SWAP2 SWAP1 POP JUMP JUMPDEST PUSH0 PUSH1 0x20 DUP3 ADD SWAP1 POP DUP2 DUP2 SUB PUSH0 DUP4 ADD MSTORE PUSH2 0x1365 DUP2 PUSH2 0x132C JUMP JUMPDEST SWAP1 POP SWAP2 SWAP1 POP JUMP JUMPDEST PUSH32 0x696E73756666696369656E7420636F6E74726163742062616C616E6365000000 PUSH0 DUP3 ADD MSTORE POP JUMP JUMPDEST PUSH0 PUSH2 0x13A0 PUSH1 0x1D DUP4 PUSH2 0x1224 JUMP JUMPDEST SWAP2 POP PUSH2 0x13AB DUP3 PUSH2 0x136C JUMP JUMPDEST PUSH1 0x20 DUP3 ADD SWAP1 POP SWAP2 SWAP1 POP JUMP JUMPDEST PUSH0 PUSH1 0x20 DUP3 ADD SWAP1 POP DUP2 DUP2 SUB PUSH0 DUP4 ADD MSTORE PUSH2 0x13CD DUP2 PUSH2 0x1394 JUMP JUMPDEST SWAP1 POP SWAP2 SWAP1 POP JUMP JUMPDEST PUSH32 0x7472616E73616374696F6E20616C726561647920657865637574656400000000 PUSH0 DUP3 ADD MSTORE POP JUMP JUMPDEST PUSH0 PUSH2 0x1408 PUSH1 0x1C DUP4 PUSH2 0x1224 JUMP JUMPDEST SWAP2 POP PUSH2 0x1413 DUP3 PUSH2 0x13D4 JUMP JUMPDEST PUSH1 0x20 DUP3 ADD SWAP1 POP SWAP2 SWAP1 POP JUMP JUMPDEST PUSH0 PUSH1 0x20 DUP3 ADD SWAP1 POP DUP2 DUP2 SUB PUSH0 DUP4 ADD MSTORE PUSH2 0x1435 DUP2 PUSH2 0x13FC JUMP JUMPDEST SWAP1 POP SWAP2 SWAP1 POP JUMP JUMPDEST PUSH32 0x71756F72756D20636F756E742072656163686564000000000000000000000000 PUSH0 DUP3 ADD MSTORE POP JUMP JUMPDEST PUSH0 PUSH2 0x1470 PUSH1 0x14 DUP4 PUSH2 0x1224 JUMP JUMPDEST SWAP2 POP PUSH2 0x147B DUP3 PUSH2 0x143C JUMP JUMPDEST PUSH1 0x20 DUP3 ADD SWAP1 POP SWAP2 SWAP1 POP JUMP JUMPDEST PUSH0 PUSH1 0x20 DUP3 ADD SWAP1 POP DUP2 DUP2 SUB PUSH0 DUP4 ADD MSTORE PUSH2 0x149D DUP2 PUSH2 0x1464 JUMP JUMPDEST SWAP1 POP SWAP2 SWAP1 POP JUMP JUMPDEST PUSH32 0x4E487B7100000000000000000000000000000000000000000000000000000000 PUSH0 MSTORE PUSH1 0x11 PUSH1 0x4 MSTORE PUSH1 0x24 PUSH0 REVERT JUMPDEST PUSH0 PUSH2 0x14DB DUP3 PUSH2 0xF62 JUMP JUMPDEST SWAP2 POP PUSH2 0x14E6 DUP4 PUSH2 0xF62 JUMP JUMPDEST SWAP3 POP DUP3 DUP3 ADD SWAP1 POP DUP1 DUP3 GT ISZERO PUSH2 0x14FE JUMPI PUSH2 0x14FD PUSH2 0x14A4 JUMP JUMPDEST JUMPDEST SWAP3 SWAP2 POP POP JUMP JUMPDEST PUSH32 0x6E6F74206E657874206F776E6572000000000000000000000000000000000000 PUSH0 DUP3 ADD MSTORE POP JUMP JUMPDEST PUSH0 PUSH2 0x1538 PUSH1 0xE DUP4 PUSH2 0x1224 JUMP JUMPDEST SWAP2 POP PUSH2 0x1543 DUP3 PUSH2 0x1504 JUMP JUMPDEST PUSH1 0x20 DUP3 ADD SWAP1 POP SWAP2 SWAP1 POP JUMP JUMPDEST PUSH0 PUSH1 0x20 DUP3 ADD SWAP1 POP DUP2 DUP2 SUB PUSH0 DUP4 ADD MSTORE PUSH2 0x1565 DUP2 PUSH2 0x152C JUMP JUMPDEST SWAP1 POP SWAP2 SWAP1 POP JUMP JUMPDEST PUSH32 0x496E76616C696420696E64657800000000000000000000000000000000000000 PUSH0 DUP3 ADD MSTORE POP JUMP JUMPDEST PUSH0 PUSH2 0x15A0 PUSH1 0xD DUP4 PUSH2 0x1224 JUMP JUMPDEST SWAP2 POP PUSH2 0x15AB DUP3 PUSH2 0x156C JUMP JUMPDEST PUSH1 0x20 DUP3 ADD SWAP1 POP SWAP2 SWAP1 POP JUMP JUMPDEST PUSH0 PUSH1 0x20 DUP3 ADD SWAP1 POP DUP2 DUP2 SUB PUSH0 DUP4 ADD MSTORE PUSH2 0x15CD DUP2 PUSH2 0x1594 JUMP JUMPDEST SWAP1 POP SWAP2 SWAP1 POP JUMP JUMPDEST PUSH0 PUSH2 0x15DE DUP3 PUSH2 0xF62 JUMP JUMPDEST SWAP2 POP PUSH2 0x15E9 DUP4 PUSH2 0xF62 JUMP JUMPDEST SWAP3 POP DUP3 DUP3 SUB SWAP1 POP DUP2 DUP2 GT ISZERO PUSH2 0x1601 JUMPI PUSH2 0x1600 PUSH2 0x14A4 JUMP JUMPDEST JUMPDEST SWAP3 SWAP2 POP POP JUMP JUMPDEST PUSH32 0x4E487B7100000000000000000000000000000000000000000000000000000000 PUSH0 MSTORE PUSH1 0x32 PUSH1 0x4 MSTORE PUSH1 0x24 PUSH0 REVERT JUMPDEST PUSH32 0x4E487B7100000000000000000000000000000000000000000000000000000000 PUSH0 MSTORE PUSH1 0x31 PUSH1 0x4 MSTORE PUSH1 0x24 PUSH0 REVERT JUMPDEST PUSH32 0x5369676E65722020616C72656164792065786973740000000000000000000000 PUSH0 DUP3 ADD MSTORE POP JUMP JUMPDEST PUSH0 PUSH2 0x1695 PUSH1 0x15 DUP4 PUSH2 0x1224 JUMP JUMPDEST SWAP2 POP PUSH2 0x16A0 DUP3 PUSH2 0x1661 JUMP JUMPDEST PUSH1 0x20 DUP3 ADD SWAP1 POP SWAP2 SWAP1 POP JUMP JUMPDEST PUSH0 PUSH1 0x20 DUP3 ADD SWAP1 POP DUP2 DUP2 SUB PUSH0 DUP4 ADD MSTORE PUSH2 0x16C2 DUP2 PUSH2 0x1689 JUMP JUMPDEST SWAP1 POP SWAP2 SWAP1 POP JUMP JUMPDEST PUSH32 0x5A65726F20616464726573732064657465637465640000000000000000000000 PUSH0 DUP3 ADD MSTORE POP JUMP JUMPDEST PUSH0 PUSH2 0x16FD PUSH1 0x15 DUP4 PUSH2 0x1224 JUMP JUMPDEST SWAP2 POP PUSH2 0x1708 DUP3 PUSH2 0x16C9 JUMP JUMPDEST PUSH1 0x20 DUP3 ADD SWAP1 POP SWAP2 SWAP1 POP JUMP JUMPDEST PUSH0 PUSH1 0x20 DUP3 ADD SWAP1 POP DUP2 DUP2 SUB PUSH0 DUP4 ADD MSTORE PUSH2 0x172A DUP2 PUSH2 0x16F1 JUMP JUMPDEST SWAP1 POP SWAP2 SWAP1 POP JUMP JUMPDEST PUSH32 0x6E6F207A65726F2076616C756520616C6C6F7765640000000000000000000000 PUSH0 DUP3 ADD MSTORE POP JUMP JUMPDEST PUSH0 PUSH2 0x1765 PUSH1 0x15 DUP4 PUSH2 0x1224 JUMP JUMPDEST SWAP2 POP PUSH2 0x1770 DUP3 PUSH2 0x1731 JUMP JUMPDEST PUSH1 0x20 DUP3 ADD SWAP1 POP SWAP2 SWAP1 POP JUMP JUMPDEST PUSH0 PUSH1 0x20 DUP3 ADD SWAP1 POP DUP2 DUP2 SUB PUSH0 DUP4 ADD MSTORE PUSH2 0x1792 DUP2 PUSH2 0x1759 JUMP JUMPDEST SWAP1 POP SWAP2 SWAP1 POP JUMP JUMPDEST PUSH32 0x6E6F742076616C6964207369676E657200000000000000000000000000000000 PUSH0 DUP3 ADD MSTORE POP JUMP JUMPDEST PUSH0 PUSH2 0x17CD PUSH1 0x10 DUP4 PUSH2 0x1224 JUMP JUMPDEST SWAP2 POP PUSH2 0x17D8 DUP3 PUSH2 0x1799 JUMP JUMPDEST PUSH1 0x20 DUP3 ADD SWAP1 POP SWAP2 SWAP1 POP JUMP JUMPDEST PUSH0 PUSH1 0x20 DUP3 ADD SWAP1 POP DUP2 DUP2 SUB PUSH0 DUP4 ADD MSTORE PUSH2 0x17FA DUP2 PUSH2 0x17C1 JUMP JUMPDEST SWAP1 POP SWAP2 SWAP1 POP JUMP JUMPDEST PUSH32 0x6E6F74206F776E65720000000000000000000000000000000000000000000000 PUSH0 DUP3 ADD MSTORE POP JUMP JUMPDEST PUSH0 PUSH2 0x1835 PUSH1 0x9 DUP4 PUSH2 0x1224 JUMP JUMPDEST SWAP2 POP PUSH2 0x1840 DUP3 PUSH2 0x1801 JUMP JUMPDEST PUSH1 0x20 DUP3 ADD SWAP1 POP SWAP2 SWAP1 POP JUMP JUMPDEST PUSH0 PUSH1 0x20 DUP3 ADD SWAP1 POP DUP2 DUP2 SUB PUSH0 DUP4 ADD MSTORE PUSH2 0x1862 DUP2 PUSH2 0x1829 JUMP JUMPDEST SWAP1 POP SWAP2 SWAP1 POP JUMP INVALID LOG2 PUSH5 0x6970667358 0x22 SLT KECCAK256 DUP15 DUP2 SWAP15 0xD2 0x24 0xDC SWAP7 DUP7 SWAP13 0xAB GASPRICE SWAP7 LOG3 0xE6 DUP6 0xCF LT DUP6 SSTORE DUP6 0x26 0x4B DIV PUSH7 0x37FE4877941978 PUSH26 0x64736F6C634300081C0033000000000000000000000000000000 "
				},
				"gasEstimates": {
					"creation": {
						"codeDepositCost": "1260600",
						"executionCost": "infinite",
						"totalCost": "infinite"
					},
					"external": {
						"": "173",
						"addValidSigner(address)": "77833",
						"approveTransaction(uint256)": "infinite",
						"claimOwnership()": "50909",
						"getAllTransactions()": "infinite",
						"initiateTransaction(uint256,address)": "infinite",
						"removeSigner(uint256)": "infinite",
						"signers(uint256)": "4944",
						"transferOwnership(address)": "26974"
					},
					"internal": {
						"onlyOwner()": "infinite",
						"onlyValidSigner()": "infinite"
					}
				},
				"methodIdentifiers": {
					"addValidSigner(address)": "de8ee817",
					"approveTransaction(uint256)": "242232d1",
					"claimOwnership()": "4e71e0c8",
					"getAllTransactions()": "27506f53",
					"initiateTransaction(uint256,address)": "e42bb8aa",
					"removeSigner(uint256)": "5ffde144",
					"signers(uint256)": "2079fb9a",
					"transferOwnership(address)": "f2fde38b"
				}
			},
			"storageLayout": {
				"storage": [
					{
						"astId": 4,
						"contract": "contracts/MultiSig.sol:MultiSig",
						"label": "signers",
						"offset": 0,
						"slot": "0",
						"type": "t_array(t_address)dyn_storage"
					},
					{
						"astId": 6,
						"contract": "contracts/MultiSig.sol:MultiSig",
						"label": "quorum",
						"offset": 0,
						"slot": "1",
						"type": "t_uint256"
					},
					{
						"astId": 8,
						"contract": "contracts/MultiSig.sol:MultiSig",
						"label": "txCount",
						"offset": 0,
						"slot": "2",
						"type": "t_uint256"
					},
					{
						"astId": 10,
						"contract": "contracts/MultiSig.sol:MultiSig",
						"label": "owner",
						"offset": 0,
						"slot": "3",
						"type": "t_address"
					},
					{
						"astId": 12,
						"contract": "contracts/MultiSig.sol:MultiSig",
						"label": "nextOwner",
						"offset": 0,
						"slot": "4",
						"type": "t_address"
					},
					{
						"astId": 29,
						"contract": "contracts/MultiSig.sol:MultiSig",
						"label": "allTransactions",
						"offset": 0,
						"slot": "5",
						"type": "t_array(t_struct(Transaction)25_storage)dyn_storage"
					},
					{
						"astId": 35,
						"contract": "contracts/MultiSig.sol:MultiSig",
						"label": "hasSigned",
						"offset": 0,
						"slot": "6",
						"type": "t_mapping(t_uint256,t_mapping(t_address,t_bool))"
					},
					{
						"astId": 40,
						"contract": "contracts/MultiSig.sol:MultiSig",
						"label": "transactions",
						"offset": 0,
						"slot": "7",
						"type": "t_mapping(t_uint256,t_struct(Transaction)25_storage)"
					},
					{
						"astId": 44,
						"contract": "contracts/MultiSig.sol:MultiSig",
						"label": "isValidSigner",
						"offset": 0,
						"slot": "8",
						"type": "t_mapping(t_address,t_bool)"
					}
				],
				"types": {
					"t_address": {
						"encoding": "inplace",
						"label": "address",
						"numberOfBytes": "20"
					},
					"t_array(t_address)dyn_storage": {
						"base": "t_address",
						"encoding": "dynamic_array",
						"label": "address[]",
						"numberOfBytes": "32"
					},
					"t_array(t_struct(Transaction)25_storage)dyn_storage": {
						"base": "t_struct(Transaction)25_storage",
						"encoding": "dynamic_array",
						"label": "struct MultiSig.Transaction[]",
						"numberOfBytes": "32"
					},
					"t_bool": {
						"encoding": "inplace",
						"label": "bool",
						"numberOfBytes": "1"
					},
					"t_mapping(t_address,t_bool)": {
						"encoding": "mapping",
						"key": "t_address",
						"label": "mapping(address => bool)",
						"numberOfBytes": "32",
						"value": "t_bool"
					},
					"t_mapping(t_uint256,t_mapping(t_address,t_bool))": {
						"encoding": "mapping",
						"key": "t_uint256",
						"label": "mapping(uint256 => mapping(address => bool))",
						"numberOfBytes": "32",
						"value": "t_mapping(t_address,t_bool)"
					},
					"t_mapping(t_uint256,t_struct(Transaction)25_storage)": {
						"encoding": "mapping",
						"key": "t_uint256",
						"label": "mapping(uint256 => struct MultiSig.Transaction)",
						"numberOfBytes": "32",
						"value": "t_struct(Transaction)25_storage"
					},
					"t_struct(Transaction)25_storage": {
						"encoding": "inplace",
						"label": "struct MultiSig.Transaction",
						"members": [
							{
								"astId": 14,
								"contract": "contracts/MultiSig.sol:MultiSig",
								"label": "id",
								"offset": 0,
								"slot": "0",
								"type": "t_uint256"
							},
							{
								"astId": 16,
								"contract": "contracts/MultiSig.sol:MultiSig",
								"label": "amount",
								"offset": 0,
								"slot": "1",
								"type": "t_uint256"
							},
							{
								"astId": 18,
								"contract": "contracts/MultiSig.sol:MultiSig",
								"label": "receiver",
								"offset": 0,
								"slot": "2",
								"type": "t_address"
							},
							{
								"astId": 20,
								"contract": "contracts/MultiSig.sol:MultiSig",
								"label": "signersCount",
								"offset": 0,
								"slot": "3",
								"type": "t_uint256"
							},
							{
								"astId": 22,
								"contract": "contracts/MultiSig.sol:MultiSig",
								"label": "isExecuted",
								"offset": 0,
								"slot": "4",
								"type": "t_bool"
							},
							{
								"astId": 24,
								"contract": "contracts/MultiSig.sol:MultiSig",
								"label": "txCreator",
								"offset": 1,
								"slot": "4",
								"type": "t_address"
							}
						],
						"numberOfBytes": "160"
					},
					"t_uint256": {
						"encoding": "inplace",
						"label": "uint256",
						"numberOfBytes": "32"
					}
				}
			},
			"userdoc": {
				"kind": "user",
				"methods": {},
				"version": 1
			}
		}
	}
}