{
	"contracts/BuyMeACoffe.sol": {
		"BuyMeACoffee": {
			"abi": [
				{
					"inputs": [],
					"stateMutability": "nonpayable",
					"type": "constructor"
				},
				{
					"anonymous": false,
					"inputs": [
						{
							"indexed": true,
							"internalType": "address",
							"name": "from",
							"type": "address"
						},
						{
							"indexed": false,
							"internalType": "uint256",
							"name": "timestamp",
							"type": "uint256"
						},
						{
							"indexed": false,
							"internalType": "string",
							"name": "name",
							"type": "string"
						},
						{
							"indexed": false,
							"internalType": "uint256",
							"name": "amount",
							"type": "uint256"
						},
						{
							"indexed": false,
							"internalType": "string",
							"name": "message",
							"type": "string"
						}
					],
					"name": "NewMemo",
					"type": "event"
				},
				{
					"inputs": [
						{
							"internalType": "string",
							"name": "_name",
							"type": "string"
						},
						{
							"internalType": "string",
							"name": "_message",
							"type": "string"
						}
					],
					"name": "buyCoffer",
					"outputs": [],
					"stateMutability": "payable",
					"type": "function"
				},
				{
					"inputs": [
						{
							"internalType": "address",
							"name": "_newOwner",
							"type": "address"
						}
					],
					"name": "changeOwner",
					"outputs": [],
					"stateMutability": "nonpayable",
					"type": "function"
				},
				{
					"inputs": [],
					"name": "getMemos",
					"outputs": [
						{
							"components": [
								{
									"internalType": "address",
									"name": "from",
									"type": "address"
								},
								{
									"internalType": "uint256",
									"name": "timestamp",
									"type": "uint256"
								},
								{
									"internalType": "string",
									"name": "name",
									"type": "string"
								},
								{
									"internalType": "uint256",
									"name": "amount",
									"type": "uint256"
								},
								{
									"internalType": "string",
									"name": "message",
									"type": "string"
								}
							],
							"internalType": "struct BuyMeACoffee.Memo[]",
							"name": "",
							"type": "tuple[]"
						}
					],
					"stateMutability": "view",
					"type": "function"
				},
				{
					"inputs": [],
					"name": "owner",
					"outputs": [
						{
							"internalType": "address payable",
							"name": "",
							"type": "address"
						}
					],
					"stateMutability": "view",
					"type": "function"
				},
				{
					"inputs": [],
					"name": "withdrawTips",
					"outputs": [],
					"stateMutability": "nonpayable",
					"type": "function"
				}
			],
			"devdoc": {
				"kind": "dev",
				"methods": {},
				"version": 1
			},
			"evm": {
				"assembly": "    /* \"contracts/BuyMeACoffe.sol\":62:1389  contract BuyMeACoffee {... */\n  mstore(0x40, 0x80)\n    /* \"contracts/BuyMeACoffe.sol\":523:583  constructor() {... */\n  callvalue\n  dup1\n  iszero\n  tag_1\n  jumpi\n  0x00\n  dup1\n  revert\ntag_1:\n  pop\n    /* \"contracts/BuyMeACoffe.sol\":564:574  msg.sender */\n  caller\n    /* \"contracts/BuyMeACoffe.sol\":548:553  owner */\n  0x00\n  dup1\n    /* \"contracts/BuyMeACoffe.sol\":548:575  owner = payable(msg.sender) */\n  0x0100\n  exp\n  dup2\n  sload\n  dup2\n  0xffffffffffffffffffffffffffffffffffffffff\n  mul\n  not\n  and\n  swap1\n  dup4\n  0xffffffffffffffffffffffffffffffffffffffff\n  and\n  mul\n  or\n  swap1\n  sstore\n  pop\n    /* \"contracts/BuyMeACoffe.sol\":62:1389  contract BuyMeACoffee {... */\n  dataSize(sub_0)\n  dup1\n  dataOffset(sub_0)\n  0x00\n  codecopy\n  0x00\n  return\nstop\n\nsub_0: assembly {\n        /* \"contracts/BuyMeACoffe.sol\":62:1389  contract BuyMeACoffee {... */\n      mstore(0x40, 0x80)\n      jumpi(tag_1, lt(calldatasize, 0x04))\n      shr(0xe0, calldataload(0x00))\n      dup1\n      0x3aaa74b2\n      eq\n      tag_2\n      jumpi\n      dup1\n      0x820c6547\n      eq\n      tag_3\n      jumpi\n      dup1\n      0x865c5172\n      eq\n      tag_4\n      jumpi\n      dup1\n      0x8da5cb5b\n      eq\n      tag_5\n      jumpi\n      dup1\n      0xa6f9dae1\n      eq\n      tag_6\n      jumpi\n    tag_1:\n      0x00\n      dup1\n      revert\n        /* \"contracts/BuyMeACoffe.sol\":926:1101  function withdrawTips() external  onlyOwner {... */\n    tag_2:\n      callvalue\n      dup1\n      iszero\n      tag_7\n      jumpi\n      0x00\n      dup1\n      revert\n    tag_7:\n      pop\n      tag_8\n      tag_9\n      jump\t// in\n    tag_8:\n      stop\n        /* \"contracts/BuyMeACoffe.sol\":591:916  function buyCoffer(string memory _name,  string memory _message) external  payable {... */\n    tag_3:\n      tag_10\n      0x04\n      dup1\n      calldatasize\n      sub\n      dup2\n      add\n      swap1\n      tag_11\n      swap2\n      swap1\n      tag_12\n      jump\t// in\n    tag_11:\n      tag_13\n      jump\t// in\n    tag_10:\n      stop\n        /* \"contracts/BuyMeACoffe.sol\":1297:1386  function getMemos() external  view returns(Memo[] memory) {... */\n    tag_4:\n      callvalue\n      dup1\n      iszero\n      tag_14\n      jumpi\n      0x00\n      dup1\n      revert\n    tag_14:\n      pop\n      tag_15\n      tag_16\n      jump\t// in\n    tag_15:\n      mload(0x40)\n      tag_17\n      swap2\n      swap1\n      tag_18\n      jump\t// in\n    tag_17:\n      mload(0x40)\n      dup1\n      swap2\n      sub\n      swap1\n      return\n        /* \"contracts/BuyMeACoffe.sol\":351:380  address payable  public owner */\n    tag_5:\n      callvalue\n      dup1\n      iszero\n      tag_19\n      jumpi\n      0x00\n      dup1\n      revert\n    tag_19:\n      pop\n      tag_20\n      tag_21\n      jump\t// in\n    tag_20:\n      mload(0x40)\n      tag_22\n      swap2\n      swap1\n      tag_23\n      jump\t// in\n    tag_22:\n      mload(0x40)\n      dup1\n      swap2\n      sub\n      swap1\n      return\n        /* \"contracts/BuyMeACoffe.sol\":1109:1289  function changeOwner(address _newOwner) external onlyOwner {... */\n    tag_6:\n      callvalue\n      dup1\n      iszero\n      tag_24\n      jumpi\n      0x00\n      dup1\n      revert\n    tag_24:\n      pop\n      tag_25\n      0x04\n      dup1\n      calldatasize\n      sub\n      dup2\n      add\n      swap1\n      tag_26\n      swap2\n      swap1\n      tag_27\n      jump\t// in\n    tag_26:\n      tag_28\n      jump\t// in\n    tag_25:\n      stop\n        /* \"contracts/BuyMeACoffe.sol\":926:1101  function withdrawTips() external  onlyOwner {... */\n    tag_9:\n        /* \"contracts/BuyMeACoffe.sol\":466:471  owner */\n      0x00\n      dup1\n      sload\n      swap1\n      0x0100\n      exp\n      swap1\n      div\n      0xffffffffffffffffffffffffffffffffffffffff\n      and\n        /* \"contracts/BuyMeACoffe.sol\":452:471  msg.sender == owner */\n      0xffffffffffffffffffffffffffffffffffffffff\n      and\n        /* \"contracts/BuyMeACoffe.sol\":452:462  msg.sender */\n      caller\n        /* \"contracts/BuyMeACoffe.sol\":452:471  msg.sender == owner */\n      0xffffffffffffffffffffffffffffffffffffffff\n      and\n      eq\n        /* \"contracts/BuyMeACoffe.sol\":444:493  require(msg.sender == owner, \"You are not owner\") */\n      tag_30\n      jumpi\n      mload(0x40)\n      0x08c379a000000000000000000000000000000000000000000000000000000000\n      dup2\n      mstore\n      0x04\n      add\n      tag_31\n      swap1\n      tag_32\n      jump\t// in\n    tag_31:\n      mload(0x40)\n      dup1\n      swap2\n      sub\n      swap1\n      revert\n    tag_30:\n        /* \"contracts/BuyMeACoffe.sol\":982:994  bool success */\n      0x00\n        /* \"contracts/BuyMeACoffe.sol\":999:1004  owner */\n      dup1\n      0x00\n      swap1\n      sload\n      swap1\n      0x0100\n      exp\n      swap1\n      div\n      0xffffffffffffffffffffffffffffffffffffffff\n      and\n        /* \"contracts/BuyMeACoffe.sol\":999:1009  owner.call */\n      0xffffffffffffffffffffffffffffffffffffffff\n      and\n        /* \"contracts/BuyMeACoffe.sol\":1017:1038  address(this).balance */\n      selfbalance\n        /* \"contracts/BuyMeACoffe.sol\":999:1043  owner.call{value: address(this).balance}(\"\") */\n      mload(0x40)\n      tag_34\n      swap1\n      tag_35\n      jump\t// in\n    tag_34:\n      0x00\n      mload(0x40)\n      dup1\n      dup4\n      sub\n      dup2\n      dup6\n      dup8\n      gas\n      call\n      swap3\n      pop\n      pop\n      pop\n      returndatasize\n      dup1\n      0x00\n      dup2\n      eq\n      tag_38\n      jumpi\n      mload(0x40)\n      swap2\n      pop\n      and(add(returndatasize, 0x3f), not(0x1f))\n      dup3\n      add\n      0x40\n      mstore\n      returndatasize\n      dup3\n      mstore\n      returndatasize\n      0x00\n      0x20\n      dup5\n      add\n      returndatacopy\n      jump(tag_37)\n    tag_38:\n      0x60\n      swap2\n      pop\n    tag_37:\n      pop\n        /* \"contracts/BuyMeACoffe.sol\":981:1043  (bool success,) = owner.call{value: address(this).balance}(\"\") */\n      pop\n      swap1\n      pop\n        /* \"contracts/BuyMeACoffe.sol\":1064:1071  success */\n      dup1\n        /* \"contracts/BuyMeACoffe.sol\":1056:1093  require(success, \"Withdrawal failed\") */\n      tag_39\n      jumpi\n      mload(0x40)\n      0x08c379a000000000000000000000000000000000000000000000000000000000\n      dup2\n      mstore\n      0x04\n      add\n      tag_40\n      swap1\n      tag_41\n      jump\t// in\n    tag_40:\n      mload(0x40)\n      dup1\n      swap2\n      sub\n      swap1\n      revert\n    tag_39:\n        /* \"contracts/BuyMeACoffe.sol\":970:1101  {... */\n      pop\n        /* \"contracts/BuyMeACoffe.sol\":926:1101  function withdrawTips() external  onlyOwner {... */\n      jump\t// out\n        /* \"contracts/BuyMeACoffe.sol\":591:916  function buyCoffer(string memory _name,  string memory _message) external  payable {... */\n    tag_13:\n        /* \"contracts/BuyMeACoffe.sol\":707:708  0 */\n      0x00\n        /* \"contracts/BuyMeACoffe.sol\":695:704  msg.value */\n      callvalue\n        /* \"contracts/BuyMeACoffe.sol\":695:708  msg.value > 0 */\n      gt\n        /* \"contracts/BuyMeACoffe.sol\":687:740  require(msg.value > 0, \"Cannot buy coffee for free!\") */\n      tag_43\n      jumpi\n      mload(0x40)\n      0x08c379a000000000000000000000000000000000000000000000000000000000\n      dup2\n      mstore\n      0x04\n      add\n      tag_44\n      swap1\n      tag_45\n      jump\t// in\n    tag_44:\n      mload(0x40)\n      dup1\n      swap2\n      sub\n      swap1\n      revert\n    tag_43:\n        /* \"contracts/BuyMeACoffe.sol\":753:758  memos */\n      0x01\n        /* \"contracts/BuyMeACoffe.sol\":764:825  Memo(msg.sender, block.timestamp, _name, msg.value, _message) */\n      mload(0x40)\n      dup1\n      0xa0\n      add\n      0x40\n      mstore\n      dup1\n        /* \"contracts/BuyMeACoffe.sol\":769:779  msg.sender */\n      caller\n        /* \"contracts/BuyMeACoffe.sol\":764:825  Memo(msg.sender, block.timestamp, _name, msg.value, _message) */\n      0xffffffffffffffffffffffffffffffffffffffff\n      and\n      dup2\n      mstore\n      0x20\n      add\n        /* \"contracts/BuyMeACoffe.sol\":781:796  block.timestamp */\n      timestamp\n        /* \"contracts/BuyMeACoffe.sol\":764:825  Memo(msg.sender, block.timestamp, _name, msg.value, _message) */\n      dup2\n      mstore\n      0x20\n      add\n        /* \"contracts/BuyMeACoffe.sol\":798:803  _name */\n      dup5\n        /* \"contracts/BuyMeACoffe.sol\":764:825  Memo(msg.sender, block.timestamp, _name, msg.value, _message) */\n      dup2\n      mstore\n      0x20\n      add\n        /* \"contracts/BuyMeACoffe.sol\":805:814  msg.value */\n      callvalue\n        /* \"contracts/BuyMeACoffe.sol\":764:825  Memo(msg.sender, block.timestamp, _name, msg.value, _message) */\n      dup2\n      mstore\n      0x20\n      add\n        /* \"contracts/BuyMeACoffe.sol\":816:824  _message */\n      dup4\n        /* \"contracts/BuyMeACoffe.sol\":764:825  Memo(msg.sender, block.timestamp, _name, msg.value, _message) */\n      dup2\n      mstore\n      pop\n        /* \"contracts/BuyMeACoffe.sol\":753:826  memos.push(Memo(msg.sender, block.timestamp, _name, msg.value, _message)) */\n      swap1\n      dup1\n      0x01\n      dup2\n      sload\n      add\n      dup1\n      dup3\n      sstore\n      dup1\n      swap2\n      pop\n      pop\n      0x01\n      swap1\n      sub\n      swap1\n      0x00\n      mstore\n      keccak256(0x00, 0x20)\n      swap1\n      0x05\n      mul\n      add\n      0x00\n      swap1\n      swap2\n      swap1\n      swap2\n      swap1\n      swap2\n      pop\n      0x00\n      dup3\n      add\n      mload\n      dup2\n      0x00\n      add\n      exp(0x0100, 0x00)\n      dup2\n      sload\n      dup2\n      0xffffffffffffffffffffffffffffffffffffffff\n      mul\n      not\n      and\n      swap1\n      dup4\n      0xffffffffffffffffffffffffffffffffffffffff\n      and\n      mul\n      or\n      swap1\n      sstore\n      pop\n      0x20\n      dup3\n      add\n      mload\n      dup2\n      0x01\n      add\n      sstore\n      0x40\n      dup3\n      add\n      mload\n      dup2\n      0x02\n      add\n      swap1\n      dup2\n      tag_47\n      swap2\n      swap1\n      tag_48\n      jump\t// in\n    tag_47:\n      pop\n      0x60\n      dup3\n      add\n      mload\n      dup2\n      0x03\n      add\n      sstore\n      0x80\n      dup3\n      add\n      mload\n      dup2\n      0x04\n      add\n      swap1\n      dup2\n      tag_49\n      swap2\n      swap1\n      tag_48\n      jump\t// in\n    tag_49:\n      pop\n      pop\n      pop\n        /* \"contracts/BuyMeACoffe.sol\":852:862  msg.sender */\n      caller\n        /* \"contracts/BuyMeACoffe.sol\":844:908  NewMemo(msg.sender, block.timestamp, _name, msg.value, _message) */\n      0xffffffffffffffffffffffffffffffffffffffff\n      and\n      0xcfbb19dd23456c22fff7d12d16f5a08cbedf033d880a716ab99d47bac1b2e06e\n        /* \"contracts/BuyMeACoffe.sol\":864:879  block.timestamp */\n      timestamp\n        /* \"contracts/BuyMeACoffe.sol\":881:886  _name */\n      dup5\n        /* \"contracts/BuyMeACoffe.sol\":888:897  msg.value */\n      callvalue\n        /* \"contracts/BuyMeACoffe.sol\":899:907  _message */\n      dup6\n        /* \"contracts/BuyMeACoffe.sol\":844:908  NewMemo(msg.sender, block.timestamp, _name, msg.value, _message) */\n      mload(0x40)\n      tag_50\n      swap5\n      swap4\n      swap3\n      swap2\n      swap1\n      tag_51\n      jump\t// in\n    tag_50:\n      mload(0x40)\n      dup1\n      swap2\n      sub\n      swap1\n      log2\n        /* \"contracts/BuyMeACoffe.sol\":591:916  function buyCoffer(string memory _name,  string memory _message) external  payable {... */\n      pop\n      pop\n      jump\t// out\n        /* \"contracts/BuyMeACoffe.sol\":1297:1386  function getMemos() external  view returns(Memo[] memory) {... */\n    tag_16:\n        /* \"contracts/BuyMeACoffe.sol\":1340:1353  Memo[] memory */\n      0x60\n        /* \"contracts/BuyMeACoffe.sol\":1373:1378  memos */\n      0x01\n        /* \"contracts/BuyMeACoffe.sol\":1366:1378  return memos */\n      dup1\n      sload\n      dup1\n      0x20\n      mul\n      0x20\n      add\n      mload(0x40)\n      swap1\n      dup2\n      add\n      0x40\n      mstore\n      dup1\n      swap3\n      swap2\n      swap1\n      dup2\n      dup2\n      mstore\n      0x20\n      add\n      0x00\n      swap1\n    tag_53:\n      dup3\n      dup3\n      lt\n      iszero\n      tag_54\n      jumpi\n      dup4\n      dup3\n      swap1\n      0x00\n      mstore\n      keccak256(0x00, 0x20)\n      swap1\n      0x05\n      mul\n      add\n      mload(0x40)\n      dup1\n      0xa0\n      add\n      0x40\n      mstore\n      swap1\n      dup2\n      0x00\n      dup3\n      add\n      0x00\n      swap1\n      sload\n      swap1\n      0x0100\n      exp\n      swap1\n      div\n      0xffffffffffffffffffffffffffffffffffffffff\n      and\n      0xffffffffffffffffffffffffffffffffffffffff\n      and\n      0xffffffffffffffffffffffffffffffffffffffff\n      and\n      dup2\n      mstore\n      0x20\n      add\n      0x01\n      dup3\n      add\n      sload\n      dup2\n      mstore\n      0x20\n      add\n      0x02\n      dup3\n      add\n      dup1\n      sload\n      tag_56\n      swap1\n      tag_57\n      jump\t// in\n    tag_56:\n      dup1\n      0x1f\n      add\n      0x20\n      dup1\n      swap2\n      div\n      mul\n      0x20\n      add\n      mload(0x40)\n      swap1\n      dup2\n      add\n      0x40\n      mstore\n      dup1\n      swap3\n      swap2\n      swap1\n      dup2\n      dup2\n      mstore\n      0x20\n      add\n      dup3\n      dup1\n      sload\n      tag_58\n      swap1\n      tag_57\n      jump\t// in\n    tag_58:\n      dup1\n      iszero\n      tag_59\n      jumpi\n      dup1\n      0x1f\n      lt\n      tag_60\n      jumpi\n      0x0100\n      dup1\n      dup4\n      sload\n      div\n      mul\n      dup4\n      mstore\n      swap2\n      0x20\n      add\n      swap2\n      jump(tag_59)\n    tag_60:\n      dup3\n      add\n      swap2\n      swap1\n      0x00\n      mstore\n      keccak256(0x00, 0x20)\n      swap1\n    tag_61:\n      dup2\n      sload\n      dup2\n      mstore\n      swap1\n      0x01\n      add\n      swap1\n      0x20\n      add\n      dup1\n      dup4\n      gt\n      tag_61\n      jumpi\n      dup3\n      swap1\n      sub\n      0x1f\n      and\n      dup3\n      add\n      swap2\n    tag_59:\n      pop\n      pop\n      pop\n      pop\n      pop\n      dup2\n      mstore\n      0x20\n      add\n      0x03\n      dup3\n      add\n      sload\n      dup2\n      mstore\n      0x20\n      add\n      0x04\n      dup3\n      add\n      dup1\n      sload\n      tag_62\n      swap1\n      tag_57\n      jump\t// in\n    tag_62:\n      dup1\n      0x1f\n      add\n      0x20\n      dup1\n      swap2\n      div\n      mul\n      0x20\n      add\n      mload(0x40)\n      swap1\n      dup2\n      add\n      0x40\n      mstore\n      dup1\n      swap3\n      swap2\n      swap1\n      dup2\n      dup2\n      mstore\n      0x20\n      add\n      dup3\n      dup1\n      sload\n      tag_63\n      swap1\n      tag_57\n      jump\t// in\n    tag_63:\n      dup1\n      iszero\n      tag_64\n      jumpi\n      dup1\n      0x1f\n      lt\n      tag_65\n      jumpi\n      0x0100\n      dup1\n      dup4\n      sload\n      div\n      mul\n      dup4\n      mstore\n      swap2\n      0x20\n      add\n      swap2\n      jump(tag_64)\n    tag_65:\n      dup3\n      add\n      swap2\n      swap1\n      0x00\n      mstore\n      keccak256(0x00, 0x20)\n      swap1\n    tag_66:\n      dup2\n      sload\n      dup2\n      mstore\n      swap1\n      0x01\n      add\n      swap1\n      0x20\n      add\n      dup1\n      dup4\n      gt\n      tag_66\n      jumpi\n      dup3\n      swap1\n      sub\n      0x1f\n      and\n      dup3\n      add\n      swap2\n    tag_64:\n      pop\n      pop\n      pop\n      pop\n      pop\n      dup2\n      mstore\n      pop\n      pop\n      dup2\n      mstore\n      0x20\n      add\n      swap1\n      0x01\n      add\n      swap1\n      jump(tag_53)\n    tag_54:\n      pop\n      pop\n      pop\n      pop\n      swap1\n      pop\n        /* \"contracts/BuyMeACoffe.sol\":1297:1386  function getMemos() external  view returns(Memo[] memory) {... */\n      swap1\n      jump\t// out\n        /* \"contracts/BuyMeACoffe.sol\":351:380  address payable  public owner */\n    tag_21:\n      0x00\n      dup1\n      sload\n      swap1\n      0x0100\n      exp\n      swap1\n      div\n      0xffffffffffffffffffffffffffffffffffffffff\n      and\n      dup2\n      jump\t// out\n        /* \"contracts/BuyMeACoffe.sol\":1109:1289  function changeOwner(address _newOwner) external onlyOwner {... */\n    tag_28:\n        /* \"contracts/BuyMeACoffe.sol\":466:471  owner */\n      0x00\n      dup1\n      sload\n      swap1\n      0x0100\n      exp\n      swap1\n      div\n      0xffffffffffffffffffffffffffffffffffffffff\n      and\n        /* \"contracts/BuyMeACoffe.sol\":452:471  msg.sender == owner */\n      0xffffffffffffffffffffffffffffffffffffffff\n      and\n        /* \"contracts/BuyMeACoffe.sol\":452:462  msg.sender */\n      caller\n        /* \"contracts/BuyMeACoffe.sol\":452:471  msg.sender == owner */\n      0xffffffffffffffffffffffffffffffffffffffff\n      and\n      eq\n        /* \"contracts/BuyMeACoffe.sol\":444:493  require(msg.sender == owner, \"You are not owner\") */\n      tag_68\n      jumpi\n      mload(0x40)\n      0x08c379a000000000000000000000000000000000000000000000000000000000\n      dup2\n      mstore\n      0x04\n      add\n      tag_69\n      swap1\n      tag_32\n      jump\t// in\n    tag_69:\n      mload(0x40)\n      dup1\n      swap2\n      sub\n      swap1\n      revert\n    tag_68:\n        /* \"contracts/BuyMeACoffe.sol\":1208:1209  0 */\n      0x00\n        /* \"contracts/BuyMeACoffe.sol\":1187:1210  _newOwner != address(0) */\n      0xffffffffffffffffffffffffffffffffffffffff\n      and\n        /* \"contracts/BuyMeACoffe.sol\":1187:1196  _newOwner */\n      dup2\n        /* \"contracts/BuyMeACoffe.sol\":1187:1210  _newOwner != address(0) */\n      0xffffffffffffffffffffffffffffffffffffffff\n      and\n      sub\n        /* \"contracts/BuyMeACoffe.sol\":1179:1243  require(_newOwner != address(0), \"Owner cannot be zero address\") */\n      tag_71\n      jumpi\n      mload(0x40)\n      0x08c379a000000000000000000000000000000000000000000000000000000000\n      dup2\n      mstore\n      0x04\n      add\n      tag_72\n      swap1\n      tag_73\n      jump\t// in\n    tag_72:\n      mload(0x40)\n      dup1\n      swap2\n      sub\n      swap1\n      revert\n    tag_71:\n        /* \"contracts/BuyMeACoffe.sol\":1271:1280  _newOwner */\n      dup1\n        /* \"contracts/BuyMeACoffe.sol\":1254:1259  owner */\n      0x00\n      dup1\n        /* \"contracts/BuyMeACoffe.sol\":1254:1281  owner = payable (_newOwner) */\n      0x0100\n      exp\n      dup2\n      sload\n      dup2\n      0xffffffffffffffffffffffffffffffffffffffff\n      mul\n      not\n      and\n      swap1\n      dup4\n      0xffffffffffffffffffffffffffffffffffffffff\n      and\n      mul\n      or\n      swap1\n      sstore\n      pop\n        /* \"contracts/BuyMeACoffe.sol\":1109:1289  function changeOwner(address _newOwner) external onlyOwner {... */\n      pop\n      jump\t// out\n        /* \"#utility.yul\":7:82   */\n    tag_74:\n        /* \"#utility.yul\":40:46   */\n      0x00\n        /* \"#utility.yul\":73:75   */\n      0x40\n        /* \"#utility.yul\":67:76   */\n      mload\n        /* \"#utility.yul\":57:76   */\n      swap1\n      pop\n        /* \"#utility.yul\":7:82   */\n      swap1\n      jump\t// out\n        /* \"#utility.yul\":88:205   */\n    tag_75:\n        /* \"#utility.yul\":197:198   */\n      0x00\n        /* \"#utility.yul\":194:195   */\n      dup1\n        /* \"#utility.yul\":187:199   */\n      revert\n        /* \"#utility.yul\":211:328   */\n    tag_76:\n        /* \"#utility.yul\":320:321   */\n      0x00\n        /* \"#utility.yul\":317:318   */\n      dup1\n        /* \"#utility.yul\":310:322   */\n      revert\n        /* \"#utility.yul\":334:451   */\n    tag_77:\n        /* \"#utility.yul\":443:444   */\n      0x00\n        /* \"#utility.yul\":440:441   */\n      dup1\n        /* \"#utility.yul\":433:445   */\n      revert\n        /* \"#utility.yul\":457:574   */\n    tag_78:\n        /* \"#utility.yul\":566:567   */\n      0x00\n        /* \"#utility.yul\":563:564   */\n      dup1\n        /* \"#utility.yul\":556:568   */\n      revert\n        /* \"#utility.yul\":580:682   */\n    tag_79:\n        /* \"#utility.yul\":621:627   */\n      0x00\n        /* \"#utility.yul\":672:674   */\n      0x1f\n        /* \"#utility.yul\":668:675   */\n      not\n        /* \"#utility.yul\":663:665   */\n      0x1f\n        /* \"#utility.yul\":656:661   */\n      dup4\n        /* \"#utility.yul\":652:666   */\n      add\n        /* \"#utility.yul\":648:676   */\n      and\n        /* \"#utility.yul\":638:676   */\n      swap1\n      pop\n        /* \"#utility.yul\":580:682   */\n      swap2\n      swap1\n      pop\n      jump\t// out\n        /* \"#utility.yul\":688:868   */\n    tag_80:\n        /* \"#utility.yul\":736:813   */\n      0x4e487b7100000000000000000000000000000000000000000000000000000000\n        /* \"#utility.yul\":733:734   */\n      0x00\n        /* \"#utility.yul\":726:814   */\n      mstore\n        /* \"#utility.yul\":833:837   */\n      0x41\n        /* \"#utility.yul\":830:831   */\n      0x04\n        /* \"#utility.yul\":823:838   */\n      mstore\n        /* \"#utility.yul\":857:861   */\n      0x24\n        /* \"#utility.yul\":854:855   */\n      0x00\n        /* \"#utility.yul\":847:862   */\n      revert\n        /* \"#utility.yul\":874:1155   */\n    tag_81:\n        /* \"#utility.yul\":957:984   */\n      tag_146\n        /* \"#utility.yul\":979:983   */\n      dup3\n        /* \"#utility.yul\":957:984   */\n      tag_79\n      jump\t// in\n    tag_146:\n        /* \"#utility.yul\":949:955   */\n      dup2\n        /* \"#utility.yul\":945:985   */\n      add\n        /* \"#utility.yul\":1087:1093   */\n      dup2\n        /* \"#utility.yul\":1075:1085   */\n      dup2\n        /* \"#utility.yul\":1072:1094   */\n      lt\n        /* \"#utility.yul\":1051:1069   */\n      0xffffffffffffffff\n        /* \"#utility.yul\":1039:1049   */\n      dup3\n        /* \"#utility.yul\":1036:1070   */\n      gt\n        /* \"#utility.yul\":1033:1095   */\n      or\n        /* \"#utility.yul\":1030:1118   */\n      iszero\n      tag_147\n      jumpi\n        /* \"#utility.yul\":1098:1116   */\n      tag_148\n      tag_80\n      jump\t// in\n    tag_148:\n        /* \"#utility.yul\":1030:1118   */\n    tag_147:\n        /* \"#utility.yul\":1138:1148   */\n      dup1\n        /* \"#utility.yul\":1134:1136   */\n      0x40\n        /* \"#utility.yul\":1127:1149   */\n      mstore\n        /* \"#utility.yul\":917:1155   */\n      pop\n        /* \"#utility.yul\":874:1155   */\n      pop\n      pop\n      jump\t// out\n        /* \"#utility.yul\":1161:1290   */\n    tag_82:\n        /* \"#utility.yul\":1195:1201   */\n      0x00\n        /* \"#utility.yul\":1222:1242   */\n      tag_150\n      tag_74\n      jump\t// in\n    tag_150:\n        /* \"#utility.yul\":1212:1242   */\n      swap1\n      pop\n        /* \"#utility.yul\":1251:1284   */\n      tag_151\n        /* \"#utility.yul\":1279:1283   */\n      dup3\n        /* \"#utility.yul\":1271:1277   */\n      dup3\n        /* \"#utility.yul\":1251:1284   */\n      tag_81\n      jump\t// in\n    tag_151:\n        /* \"#utility.yul\":1161:1290   */\n      swap2\n      swap1\n      pop\n      jump\t// out\n        /* \"#utility.yul\":1296:1604   */\n    tag_83:\n        /* \"#utility.yul\":1358:1362   */\n      0x00\n        /* \"#utility.yul\":1448:1466   */\n      0xffffffffffffffff\n        /* \"#utility.yul\":1440:1446   */\n      dup3\n        /* \"#utility.yul\":1437:1467   */\n      gt\n        /* \"#utility.yul\":1434:1490   */\n      iszero\n      tag_153\n      jumpi\n        /* \"#utility.yul\":1470:1488   */\n      tag_154\n      tag_80\n      jump\t// in\n    tag_154:\n        /* \"#utility.yul\":1434:1490   */\n    tag_153:\n        /* \"#utility.yul\":1508:1537   */\n      tag_155\n        /* \"#utility.yul\":1530:1536   */\n      dup3\n        /* \"#utility.yul\":1508:1537   */\n      tag_79\n      jump\t// in\n    tag_155:\n        /* \"#utility.yul\":1500:1537   */\n      swap1\n      pop\n        /* \"#utility.yul\":1592:1596   */\n      0x20\n        /* \"#utility.yul\":1586:1590   */\n      dup2\n        /* \"#utility.yul\":1582:1597   */\n      add\n        /* \"#utility.yul\":1574:1597   */\n      swap1\n      pop\n        /* \"#utility.yul\":1296:1604   */\n      swap2\n      swap1\n      pop\n      jump\t// out\n        /* \"#utility.yul\":1610:1758   */\n    tag_84:\n        /* \"#utility.yul\":1708:1714   */\n      dup3\n        /* \"#utility.yul\":1703:1706   */\n      dup2\n        /* \"#utility.yul\":1698:1701   */\n      dup4\n        /* \"#utility.yul\":1685:1715   */\n      calldatacopy\n        /* \"#utility.yul\":1749:1750   */\n      0x00\n        /* \"#utility.yul\":1740:1746   */\n      dup4\n        /* \"#utility.yul\":1735:1738   */\n      dup4\n        /* \"#utility.yul\":1731:1747   */\n      add\n        /* \"#utility.yul\":1724:1751   */\n      mstore\n        /* \"#utility.yul\":1610:1758   */\n      pop\n      pop\n      pop\n      jump\t// out\n        /* \"#utility.yul\":1764:2189   */\n    tag_85:\n        /* \"#utility.yul\":1842:1847   */\n      0x00\n        /* \"#utility.yul\":1867:1933   */\n      tag_158\n        /* \"#utility.yul\":1883:1932   */\n      tag_159\n        /* \"#utility.yul\":1925:1931   */\n      dup5\n        /* \"#utility.yul\":1883:1932   */\n      tag_83\n      jump\t// in\n    tag_159:\n        /* \"#utility.yul\":1867:1933   */\n      tag_82\n      jump\t// in\n    tag_158:\n        /* \"#utility.yul\":1858:1933   */\n      swap1\n      pop\n        /* \"#utility.yul\":1956:1962   */\n      dup3\n        /* \"#utility.yul\":1949:1954   */\n      dup2\n        /* \"#utility.yul\":1942:1963   */\n      mstore\n        /* \"#utility.yul\":1994:1998   */\n      0x20\n        /* \"#utility.yul\":1987:1992   */\n      dup2\n        /* \"#utility.yul\":1983:1999   */\n      add\n        /* \"#utility.yul\":2032:2035   */\n      dup5\n        /* \"#utility.yul\":2023:2029   */\n      dup5\n        /* \"#utility.yul\":2018:2021   */\n      dup5\n        /* \"#utility.yul\":2014:2030   */\n      add\n        /* \"#utility.yul\":2011:2036   */\n      gt\n        /* \"#utility.yul\":2008:2120   */\n      iszero\n      tag_160\n      jumpi\n        /* \"#utility.yul\":2039:2118   */\n      tag_161\n      tag_78\n      jump\t// in\n    tag_161:\n        /* \"#utility.yul\":2008:2120   */\n    tag_160:\n        /* \"#utility.yul\":2129:2183   */\n      tag_162\n        /* \"#utility.yul\":2176:2182   */\n      dup5\n        /* \"#utility.yul\":2171:2174   */\n      dup3\n        /* \"#utility.yul\":2166:2169   */\n      dup6\n        /* \"#utility.yul\":2129:2183   */\n      tag_84\n      jump\t// in\n    tag_162:\n        /* \"#utility.yul\":1848:2189   */\n      pop\n        /* \"#utility.yul\":1764:2189   */\n      swap4\n      swap3\n      pop\n      pop\n      pop\n      jump\t// out\n        /* \"#utility.yul\":2209:2549   */\n    tag_86:\n        /* \"#utility.yul\":2265:2270   */\n      0x00\n        /* \"#utility.yul\":2314:2317   */\n      dup3\n        /* \"#utility.yul\":2307:2311   */\n      0x1f\n        /* \"#utility.yul\":2299:2305   */\n      dup4\n        /* \"#utility.yul\":2295:2312   */\n      add\n        /* \"#utility.yul\":2291:2318   */\n      slt\n        /* \"#utility.yul\":2281:2403   */\n      tag_164\n      jumpi\n        /* \"#utility.yul\":2322:2401   */\n      tag_165\n      tag_77\n      jump\t// in\n    tag_165:\n        /* \"#utility.yul\":2281:2403   */\n    tag_164:\n        /* \"#utility.yul\":2439:2445   */\n      dup2\n        /* \"#utility.yul\":2426:2446   */\n      calldataload\n        /* \"#utility.yul\":2464:2543   */\n      tag_166\n        /* \"#utility.yul\":2539:2542   */\n      dup5\n        /* \"#utility.yul\":2531:2537   */\n      dup3\n        /* \"#utility.yul\":2524:2528   */\n      0x20\n        /* \"#utility.yul\":2516:2522   */\n      dup7\n        /* \"#utility.yul\":2512:2529   */\n      add\n        /* \"#utility.yul\":2464:2543   */\n      tag_85\n      jump\t// in\n    tag_166:\n        /* \"#utility.yul\":2455:2543   */\n      swap2\n      pop\n        /* \"#utility.yul\":2271:2549   */\n      pop\n        /* \"#utility.yul\":2209:2549   */\n      swap3\n      swap2\n      pop\n      pop\n      jump\t// out\n        /* \"#utility.yul\":2555:3389   */\n    tag_12:\n        /* \"#utility.yul\":2643:2649   */\n      0x00\n        /* \"#utility.yul\":2651:2657   */\n      dup1\n        /* \"#utility.yul\":2700:2702   */\n      0x40\n        /* \"#utility.yul\":2688:2697   */\n      dup4\n        /* \"#utility.yul\":2679:2686   */\n      dup6\n        /* \"#utility.yul\":2675:2698   */\n      sub\n        /* \"#utility.yul\":2671:2703   */\n      slt\n        /* \"#utility.yul\":2668:2787   */\n      iszero\n      tag_168\n      jumpi\n        /* \"#utility.yul\":2706:2785   */\n      tag_169\n      tag_75\n      jump\t// in\n    tag_169:\n        /* \"#utility.yul\":2668:2787   */\n    tag_168:\n        /* \"#utility.yul\":2854:2855   */\n      0x00\n        /* \"#utility.yul\":2843:2852   */\n      dup4\n        /* \"#utility.yul\":2839:2856   */\n      add\n        /* \"#utility.yul\":2826:2857   */\n      calldataload\n        /* \"#utility.yul\":2884:2902   */\n      0xffffffffffffffff\n        /* \"#utility.yul\":2876:2882   */\n      dup2\n        /* \"#utility.yul\":2873:2903   */\n      gt\n        /* \"#utility.yul\":2870:2987   */\n      iszero\n      tag_170\n      jumpi\n        /* \"#utility.yul\":2906:2985   */\n      tag_171\n      tag_76\n      jump\t// in\n    tag_171:\n        /* \"#utility.yul\":2870:2987   */\n    tag_170:\n        /* \"#utility.yul\":3011:3074   */\n      tag_172\n        /* \"#utility.yul\":3066:3073   */\n      dup6\n        /* \"#utility.yul\":3057:3063   */\n      dup3\n        /* \"#utility.yul\":3046:3055   */\n      dup7\n        /* \"#utility.yul\":3042:3064   */\n      add\n        /* \"#utility.yul\":3011:3074   */\n      tag_86\n      jump\t// in\n    tag_172:\n        /* \"#utility.yul\":3001:3074   */\n      swap3\n      pop\n        /* \"#utility.yul\":2797:3084   */\n      pop\n        /* \"#utility.yul\":3151:3153   */\n      0x20\n        /* \"#utility.yul\":3140:3149   */\n      dup4\n        /* \"#utility.yul\":3136:3154   */\n      add\n        /* \"#utility.yul\":3123:3155   */\n      calldataload\n        /* \"#utility.yul\":3182:3200   */\n      0xffffffffffffffff\n        /* \"#utility.yul\":3174:3180   */\n      dup2\n        /* \"#utility.yul\":3171:3201   */\n      gt\n        /* \"#utility.yul\":3168:3285   */\n      iszero\n      tag_173\n      jumpi\n        /* \"#utility.yul\":3204:3283   */\n      tag_174\n      tag_76\n      jump\t// in\n    tag_174:\n        /* \"#utility.yul\":3168:3285   */\n    tag_173:\n        /* \"#utility.yul\":3309:3372   */\n      tag_175\n        /* \"#utility.yul\":3364:3371   */\n      dup6\n        /* \"#utility.yul\":3355:3361   */\n      dup3\n        /* \"#utility.yul\":3344:3353   */\n      dup7\n        /* \"#utility.yul\":3340:3362   */\n      add\n        /* \"#utility.yul\":3309:3372   */\n      tag_86\n      jump\t// in\n    tag_175:\n        /* \"#utility.yul\":3299:3372   */\n      swap2\n      pop\n        /* \"#utility.yul\":3094:3382   */\n      pop\n        /* \"#utility.yul\":2555:3389   */\n      swap3\n      pop\n      swap3\n      swap1\n      pop\n      jump\t// out\n        /* \"#utility.yul\":3395:3529   */\n    tag_87:\n        /* \"#utility.yul\":3482:3488   */\n      0x00\n        /* \"#utility.yul\":3516:3521   */\n      dup2\n        /* \"#utility.yul\":3510:3522   */\n      mload\n        /* \"#utility.yul\":3500:3522   */\n      swap1\n      pop\n        /* \"#utility.yul\":3395:3529   */\n      swap2\n      swap1\n      pop\n      jump\t// out\n        /* \"#utility.yul\":3535:3739   */\n    tag_88:\n        /* \"#utility.yul\":3654:3665   */\n      0x00\n        /* \"#utility.yul\":3688:3694   */\n      dup3\n        /* \"#utility.yul\":3683:3686   */\n      dup3\n        /* \"#utility.yul\":3676:3695   */\n      mstore\n        /* \"#utility.yul\":3728:3732   */\n      0x20\n        /* \"#utility.yul\":3723:3726   */\n      dup3\n        /* \"#utility.yul\":3719:3733   */\n      add\n        /* \"#utility.yul\":3704:3733   */\n      swap1\n      pop\n        /* \"#utility.yul\":3535:3739   */\n      swap3\n      swap2\n      pop\n      pop\n      jump\t// out\n        /* \"#utility.yul\":3745:3897   */\n    tag_89:\n        /* \"#utility.yul\":3832:3836   */\n      0x00\n        /* \"#utility.yul\":3855:3858   */\n      dup2\n        /* \"#utility.yul\":3847:3858   */\n      swap1\n      pop\n        /* \"#utility.yul\":3885:3889   */\n      0x20\n        /* \"#utility.yul\":3880:3883   */\n      dup3\n        /* \"#utility.yul\":3876:3890   */\n      add\n        /* \"#utility.yul\":3868:3890   */\n      swap1\n      pop\n        /* \"#utility.yul\":3745:3897   */\n      swap2\n      swap1\n      pop\n      jump\t// out\n        /* \"#utility.yul\":3903:4029   */\n    tag_90:\n        /* \"#utility.yul\":3940:3947   */\n      0x00\n        /* \"#utility.yul\":3980:4022   */\n      0xffffffffffffffffffffffffffffffffffffffff\n        /* \"#utility.yul\":3973:3978   */\n      dup3\n        /* \"#utility.yul\":3969:4023   */\n      and\n        /* \"#utility.yul\":3958:4023   */\n      swap1\n      pop\n        /* \"#utility.yul\":3903:4029   */\n      swap2\n      swap1\n      pop\n      jump\t// out\n        /* \"#utility.yul\":4035:4131   */\n    tag_91:\n        /* \"#utility.yul\":4072:4079   */\n      0x00\n        /* \"#utility.yul\":4101:4125   */\n      tag_181\n        /* \"#utility.yul\":4119:4124   */\n      dup3\n        /* \"#utility.yul\":4101:4125   */\n      tag_90\n      jump\t// in\n    tag_181:\n        /* \"#utility.yul\":4090:4125   */\n      swap1\n      pop\n        /* \"#utility.yul\":4035:4131   */\n      swap2\n      swap1\n      pop\n      jump\t// out\n        /* \"#utility.yul\":4137:4245   */\n    tag_92:\n        /* \"#utility.yul\":4214:4238   */\n      tag_183\n        /* \"#utility.yul\":4232:4237   */\n      dup2\n        /* \"#utility.yul\":4214:4238   */\n      tag_91\n      jump\t// in\n    tag_183:\n        /* \"#utility.yul\":4209:4212   */\n      dup3\n        /* \"#utility.yul\":4202:4239   */\n      mstore\n        /* \"#utility.yul\":4137:4245   */\n      pop\n      pop\n      jump\t// out\n        /* \"#utility.yul\":4251:4328   */\n    tag_93:\n        /* \"#utility.yul\":4288:4295   */\n      0x00\n        /* \"#utility.yul\":4317:4322   */\n      dup2\n        /* \"#utility.yul\":4306:4322   */\n      swap1\n      pop\n        /* \"#utility.yul\":4251:4328   */\n      swap2\n      swap1\n      pop\n      jump\t// out\n        /* \"#utility.yul\":4334:4442   */\n    tag_94:\n        /* \"#utility.yul\":4411:4435   */\n      tag_186\n        /* \"#utility.yul\":4429:4434   */\n      dup2\n        /* \"#utility.yul\":4411:4435   */\n      tag_93\n      jump\t// in\n    tag_186:\n        /* \"#utility.yul\":4406:4409   */\n      dup3\n        /* \"#utility.yul\":4399:4436   */\n      mstore\n        /* \"#utility.yul\":4334:4442   */\n      pop\n      pop\n      jump\t// out\n        /* \"#utility.yul\":4448:4547   */\n    tag_95:\n        /* \"#utility.yul\":4500:4506   */\n      0x00\n        /* \"#utility.yul\":4534:4539   */\n      dup2\n        /* \"#utility.yul\":4528:4540   */\n      mload\n        /* \"#utility.yul\":4518:4540   */\n      swap1\n      pop\n        /* \"#utility.yul\":4448:4547   */\n      swap2\n      swap1\n      pop\n      jump\t// out\n        /* \"#utility.yul\":4553:4712   */\n    tag_96:\n        /* \"#utility.yul\":4627:4638   */\n      0x00\n        /* \"#utility.yul\":4661:4667   */\n      dup3\n        /* \"#utility.yul\":4656:4659   */\n      dup3\n        /* \"#utility.yul\":4649:4668   */\n      mstore\n        /* \"#utility.yul\":4701:4705   */\n      0x20\n        /* \"#utility.yul\":4696:4699   */\n      dup3\n        /* \"#utility.yul\":4692:4706   */\n      add\n        /* \"#utility.yul\":4677:4706   */\n      swap1\n      pop\n        /* \"#utility.yul\":4553:4712   */\n      swap3\n      swap2\n      pop\n      pop\n      jump\t// out\n        /* \"#utility.yul\":4718:4857   */\n    tag_97:\n        /* \"#utility.yul\":4807:4813   */\n      dup3\n        /* \"#utility.yul\":4802:4805   */\n      dup2\n        /* \"#utility.yul\":4797:4800   */\n      dup4\n        /* \"#utility.yul\":4791:4814   */\n      mcopy\n        /* \"#utility.yul\":4848:4849   */\n      0x00\n        /* \"#utility.yul\":4839:4845   */\n      dup4\n        /* \"#utility.yul\":4834:4837   */\n      dup4\n        /* \"#utility.yul\":4830:4846   */\n      add\n        /* \"#utility.yul\":4823:4850   */\n      mstore\n        /* \"#utility.yul\":4718:4857   */\n      pop\n      pop\n      pop\n      jump\t// out\n        /* \"#utility.yul\":4863:5220   */\n    tag_98:\n        /* \"#utility.yul\":4941:4944   */\n      0x00\n        /* \"#utility.yul\":4969:5008   */\n      tag_191\n        /* \"#utility.yul\":5002:5007   */\n      dup3\n        /* \"#utility.yul\":4969:5008   */\n      tag_95\n      jump\t// in\n    tag_191:\n        /* \"#utility.yul\":5024:5085   */\n      tag_192\n        /* \"#utility.yul\":5078:5084   */\n      dup2\n        /* \"#utility.yul\":5073:5076   */\n      dup6\n        /* \"#utility.yul\":5024:5085   */\n      tag_96\n      jump\t// in\n    tag_192:\n        /* \"#utility.yul\":5017:5085   */\n      swap4\n      pop\n        /* \"#utility.yul\":5094:5159   */\n      tag_193\n        /* \"#utility.yul\":5152:5158   */\n      dup2\n        /* \"#utility.yul\":5147:5150   */\n      dup6\n        /* \"#utility.yul\":5140:5144   */\n      0x20\n        /* \"#utility.yul\":5133:5138   */\n      dup7\n        /* \"#utility.yul\":5129:5145   */\n      add\n        /* \"#utility.yul\":5094:5159   */\n      tag_97\n      jump\t// in\n    tag_193:\n        /* \"#utility.yul\":5184:5213   */\n      tag_194\n        /* \"#utility.yul\":5206:5212   */\n      dup2\n        /* \"#utility.yul\":5184:5213   */\n      tag_79\n      jump\t// in\n    tag_194:\n        /* \"#utility.yul\":5179:5182   */\n      dup5\n        /* \"#utility.yul\":5175:5214   */\n      add\n        /* \"#utility.yul\":5168:5214   */\n      swap2\n      pop\n        /* \"#utility.yul\":4945:5220   */\n      pop\n        /* \"#utility.yul\":4863:5220   */\n      swap3\n      swap2\n      pop\n      pop\n      jump\t// out\n        /* \"#utility.yul\":5286:6475   */\n    tag_99:\n        /* \"#utility.yul\":5385:5388   */\n      0x00\n        /* \"#utility.yul\":5421:5425   */\n      0xa0\n        /* \"#utility.yul\":5416:5419   */\n      dup4\n        /* \"#utility.yul\":5412:5426   */\n      add\n        /* \"#utility.yul\":5508:5512   */\n      0x00\n        /* \"#utility.yul\":5501:5506   */\n      dup4\n        /* \"#utility.yul\":5497:5513   */\n      add\n        /* \"#utility.yul\":5491:5514   */\n      mload\n        /* \"#utility.yul\":5527:5590   */\n      tag_196\n        /* \"#utility.yul\":5584:5588   */\n      0x00\n        /* \"#utility.yul\":5579:5582   */\n      dup7\n        /* \"#utility.yul\":5575:5589   */\n      add\n        /* \"#utility.yul\":5561:5573   */\n      dup3\n        /* \"#utility.yul\":5527:5590   */\n      tag_92\n      jump\t// in\n    tag_196:\n        /* \"#utility.yul\":5436:5600   */\n      pop\n        /* \"#utility.yul\":5687:5691   */\n      0x20\n        /* \"#utility.yul\":5680:5685   */\n      dup4\n        /* \"#utility.yul\":5676:5692   */\n      add\n        /* \"#utility.yul\":5670:5693   */\n      mload\n        /* \"#utility.yul\":5706:5769   */\n      tag_197\n        /* \"#utility.yul\":5763:5767   */\n      0x20\n        /* \"#utility.yul\":5758:5761   */\n      dup7\n        /* \"#utility.yul\":5754:5768   */\n      add\n        /* \"#utility.yul\":5740:5752   */\n      dup3\n        /* \"#utility.yul\":5706:5769   */\n      tag_94\n      jump\t// in\n    tag_197:\n        /* \"#utility.yul\":5610:5779   */\n      pop\n        /* \"#utility.yul\":5861:5865   */\n      0x40\n        /* \"#utility.yul\":5854:5859   */\n      dup4\n        /* \"#utility.yul\":5850:5866   */\n      add\n        /* \"#utility.yul\":5844:5867   */\n      mload\n        /* \"#utility.yul\":5914:5917   */\n      dup5\n        /* \"#utility.yul\":5908:5912   */\n      dup3\n        /* \"#utility.yul\":5904:5918   */\n      sub\n        /* \"#utility.yul\":5897:5901   */\n      0x40\n        /* \"#utility.yul\":5892:5895   */\n      dup7\n        /* \"#utility.yul\":5888:5902   */\n      add\n        /* \"#utility.yul\":5881:5919   */\n      mstore\n        /* \"#utility.yul\":5940:6013   */\n      tag_198\n        /* \"#utility.yul\":6008:6012   */\n      dup3\n        /* \"#utility.yul\":5994:6006   */\n      dup3\n        /* \"#utility.yul\":5940:6013   */\n      tag_98\n      jump\t// in\n    tag_198:\n        /* \"#utility.yul\":5932:6013   */\n      swap2\n      pop\n        /* \"#utility.yul\":5789:6024   */\n      pop\n        /* \"#utility.yul\":6108:6112   */\n      0x60\n        /* \"#utility.yul\":6101:6106   */\n      dup4\n        /* \"#utility.yul\":6097:6113   */\n      add\n        /* \"#utility.yul\":6091:6114   */\n      mload\n        /* \"#utility.yul\":6127:6190   */\n      tag_199\n        /* \"#utility.yul\":6184:6188   */\n      0x60\n        /* \"#utility.yul\":6179:6182   */\n      dup7\n        /* \"#utility.yul\":6175:6189   */\n      add\n        /* \"#utility.yul\":6161:6173   */\n      dup3\n        /* \"#utility.yul\":6127:6190   */\n      tag_94\n      jump\t// in\n    tag_199:\n        /* \"#utility.yul\":6034:6200   */\n      pop\n        /* \"#utility.yul\":6285:6289   */\n      0x80\n        /* \"#utility.yul\":6278:6283   */\n      dup4\n        /* \"#utility.yul\":6274:6290   */\n      add\n        /* \"#utility.yul\":6268:6291   */\n      mload\n        /* \"#utility.yul\":6338:6341   */\n      dup5\n        /* \"#utility.yul\":6332:6336   */\n      dup3\n        /* \"#utility.yul\":6328:6342   */\n      sub\n        /* \"#utility.yul\":6321:6325   */\n      0x80\n        /* \"#utility.yul\":6316:6319   */\n      dup7\n        /* \"#utility.yul\":6312:6326   */\n      add\n        /* \"#utility.yul\":6305:6343   */\n      mstore\n        /* \"#utility.yul\":6364:6437   */\n      tag_200\n        /* \"#utility.yul\":6432:6436   */\n      dup3\n        /* \"#utility.yul\":6418:6430   */\n      dup3\n        /* \"#utility.yul\":6364:6437   */\n      tag_98\n      jump\t// in\n    tag_200:\n        /* \"#utility.yul\":6356:6437   */\n      swap2\n      pop\n        /* \"#utility.yul\":6210:6448   */\n      pop\n        /* \"#utility.yul\":6465:6469   */\n      dup1\n        /* \"#utility.yul\":6458:6469   */\n      swap2\n      pop\n        /* \"#utility.yul\":5390:6475   */\n      pop\n        /* \"#utility.yul\":5286:6475   */\n      swap3\n      swap2\n      pop\n      pop\n      jump\t// out\n        /* \"#utility.yul\":6481:6717   */\n    tag_100:\n        /* \"#utility.yul\":6590:6600   */\n      0x00\n        /* \"#utility.yul\":6625:6711   */\n      tag_202\n        /* \"#utility.yul\":6707:6710   */\n      dup4\n        /* \"#utility.yul\":6699:6705   */\n      dup4\n        /* \"#utility.yul\":6625:6711   */\n      tag_99\n      jump\t// in\n    tag_202:\n        /* \"#utility.yul\":6611:6711   */\n      swap1\n      pop\n        /* \"#utility.yul\":6481:6717   */\n      swap3\n      swap2\n      pop\n      pop\n      jump\t// out\n        /* \"#utility.yul\":6723:6856   */\n    tag_101:\n        /* \"#utility.yul\":6813:6817   */\n      0x00\n        /* \"#utility.yul\":6845:6849   */\n      0x20\n        /* \"#utility.yul\":6840:6843   */\n      dup3\n        /* \"#utility.yul\":6836:6850   */\n      add\n        /* \"#utility.yul\":6828:6850   */\n      swap1\n      pop\n        /* \"#utility.yul\":6723:6856   */\n      swap2\n      swap1\n      pop\n      jump\t// out\n        /* \"#utility.yul\":6926:7997   */\n    tag_102:\n        /* \"#utility.yul\":7085:7088   */\n      0x00\n        /* \"#utility.yul\":7114:7188   */\n      tag_205\n        /* \"#utility.yul\":7182:7187   */\n      dup3\n        /* \"#utility.yul\":7114:7188   */\n      tag_87\n      jump\t// in\n    tag_205:\n        /* \"#utility.yul\":7204:7310   */\n      tag_206\n        /* \"#utility.yul\":7303:7309   */\n      dup2\n        /* \"#utility.yul\":7298:7301   */\n      dup6\n        /* \"#utility.yul\":7204:7310   */\n      tag_88\n      jump\t// in\n    tag_206:\n        /* \"#utility.yul\":7197:7310   */\n      swap4\n      pop\n        /* \"#utility.yul\":7336:7339   */\n      dup4\n        /* \"#utility.yul\":7381:7385   */\n      0x20\n        /* \"#utility.yul\":7373:7379   */\n      dup3\n        /* \"#utility.yul\":7369:7386   */\n      mul\n        /* \"#utility.yul\":7364:7367   */\n      dup6\n        /* \"#utility.yul\":7360:7387   */\n      add\n        /* \"#utility.yul\":7411:7487   */\n      tag_207\n        /* \"#utility.yul\":7481:7486   */\n      dup6\n        /* \"#utility.yul\":7411:7487   */\n      tag_89\n      jump\t// in\n    tag_207:\n        /* \"#utility.yul\":7510:7517   */\n      dup1\n        /* \"#utility.yul\":7541:7542   */\n      0x00\n        /* \"#utility.yul\":7526:7952   */\n    tag_208:\n        /* \"#utility.yul\":7551:7557   */\n      dup6\n        /* \"#utility.yul\":7548:7549   */\n      dup2\n        /* \"#utility.yul\":7545:7558   */\n      lt\n        /* \"#utility.yul\":7526:7952   */\n      iszero\n      tag_210\n      jumpi\n        /* \"#utility.yul\":7622:7631   */\n      dup5\n        /* \"#utility.yul\":7616:7620   */\n      dup5\n        /* \"#utility.yul\":7612:7632   */\n      sub\n        /* \"#utility.yul\":7607:7610   */\n      dup10\n        /* \"#utility.yul\":7600:7633   */\n      mstore\n        /* \"#utility.yul\":7673:7679   */\n      dup2\n        /* \"#utility.yul\":7667:7680   */\n      mload\n        /* \"#utility.yul\":7701:7805   */\n      tag_211\n        /* \"#utility.yul\":7800:7804   */\n      dup6\n        /* \"#utility.yul\":7785:7798   */\n      dup3\n        /* \"#utility.yul\":7701:7805   */\n      tag_100\n      jump\t// in\n    tag_211:\n        /* \"#utility.yul\":7693:7805   */\n      swap5\n      pop\n        /* \"#utility.yul\":7828:7908   */\n      tag_212\n        /* \"#utility.yul\":7901:7907   */\n      dup4\n        /* \"#utility.yul\":7828:7908   */\n      tag_101\n      jump\t// in\n    tag_212:\n        /* \"#utility.yul\":7818:7908   */\n      swap3\n      pop\n        /* \"#utility.yul\":7937:7941   */\n      0x20\n        /* \"#utility.yul\":7932:7935   */\n      dup11\n        /* \"#utility.yul\":7928:7942   */\n      add\n        /* \"#utility.yul\":7921:7942   */\n      swap10\n      pop\n        /* \"#utility.yul\":7586:7952   */\n      pop\n        /* \"#utility.yul\":7573:7574   */\n      0x01\n        /* \"#utility.yul\":7570:7571   */\n      dup2\n        /* \"#utility.yul\":7566:7575   */\n      add\n        /* \"#utility.yul\":7561:7575   */\n      swap1\n      pop\n        /* \"#utility.yul\":7526:7952   */\n      jump(tag_208)\n    tag_210:\n        /* \"#utility.yul\":7530:7544   */\n      pop\n        /* \"#utility.yul\":7968:7972   */\n      dup3\n        /* \"#utility.yul\":7961:7972   */\n      swap8\n      pop\n        /* \"#utility.yul\":7988:7991   */\n      dup8\n        /* \"#utility.yul\":7981:7991   */\n      swap6\n      pop\n        /* \"#utility.yul\":7090:7997   */\n      pop\n      pop\n      pop\n      pop\n      pop\n        /* \"#utility.yul\":6926:7997   */\n      swap3\n      swap2\n      pop\n      pop\n      jump\t// out\n        /* \"#utility.yul\":8003:8456   */\n    tag_18:\n        /* \"#utility.yul\":8186:8190   */\n      0x00\n        /* \"#utility.yul\":8224:8226   */\n      0x20\n        /* \"#utility.yul\":8213:8222   */\n      dup3\n        /* \"#utility.yul\":8209:8227   */\n      add\n        /* \"#utility.yul\":8201:8227   */\n      swap1\n      pop\n        /* \"#utility.yul\":8273:8282   */\n      dup2\n        /* \"#utility.yul\":8267:8271   */\n      dup2\n        /* \"#utility.yul\":8263:8283   */\n      sub\n        /* \"#utility.yul\":8259:8260   */\n      0x00\n        /* \"#utility.yul\":8248:8257   */\n      dup4\n        /* \"#utility.yul\":8244:8261   */\n      add\n        /* \"#utility.yul\":8237:8284   */\n      mstore\n        /* \"#utility.yul\":8301:8449   */\n      tag_214\n        /* \"#utility.yul\":8444:8448   */\n      dup2\n        /* \"#utility.yul\":8435:8441   */\n      dup5\n        /* \"#utility.yul\":8301:8449   */\n      tag_102\n      jump\t// in\n    tag_214:\n        /* \"#utility.yul\":8293:8449   */\n      swap1\n      pop\n        /* \"#utility.yul\":8003:8456   */\n      swap3\n      swap2\n      pop\n      pop\n      jump\t// out\n        /* \"#utility.yul\":8462:8566   */\n    tag_103:\n        /* \"#utility.yul\":8507:8514   */\n      0x00\n        /* \"#utility.yul\":8536:8560   */\n      tag_216\n        /* \"#utility.yul\":8554:8559   */\n      dup3\n        /* \"#utility.yul\":8536:8560   */\n      tag_90\n      jump\t// in\n    tag_216:\n        /* \"#utility.yul\":8525:8560   */\n      swap1\n      pop\n        /* \"#utility.yul\":8462:8566   */\n      swap2\n      swap1\n      pop\n      jump\t// out\n        /* \"#utility.yul\":8572:8714   */\n    tag_104:\n        /* \"#utility.yul\":8675:8707   */\n      tag_218\n        /* \"#utility.yul\":8701:8706   */\n      dup2\n        /* \"#utility.yul\":8675:8707   */\n      tag_103\n      jump\t// in\n    tag_218:\n        /* \"#utility.yul\":8670:8673   */\n      dup3\n        /* \"#utility.yul\":8663:8708   */\n      mstore\n        /* \"#utility.yul\":8572:8714   */\n      pop\n      pop\n      jump\t// out\n        /* \"#utility.yul\":8720:8974   */\n    tag_23:\n        /* \"#utility.yul\":8829:8833   */\n      0x00\n        /* \"#utility.yul\":8867:8869   */\n      0x20\n        /* \"#utility.yul\":8856:8865   */\n      dup3\n        /* \"#utility.yul\":8852:8870   */\n      add\n        /* \"#utility.yul\":8844:8870   */\n      swap1\n      pop\n        /* \"#utility.yul\":8880:8967   */\n      tag_220\n        /* \"#utility.yul\":8964:8965   */\n      0x00\n        /* \"#utility.yul\":8953:8962   */\n      dup4\n        /* \"#utility.yul\":8949:8966   */\n      add\n        /* \"#utility.yul\":8940:8946   */\n      dup5\n        /* \"#utility.yul\":8880:8967   */\n      tag_104\n      jump\t// in\n    tag_220:\n        /* \"#utility.yul\":8720:8974   */\n      swap3\n      swap2\n      pop\n      pop\n      jump\t// out\n        /* \"#utility.yul\":8980:9102   */\n    tag_105:\n        /* \"#utility.yul\":9053:9077   */\n      tag_222\n        /* \"#utility.yul\":9071:9076   */\n      dup2\n        /* \"#utility.yul\":9053:9077   */\n      tag_91\n      jump\t// in\n    tag_222:\n        /* \"#utility.yul\":9046:9051   */\n      dup2\n        /* \"#utility.yul\":9043:9078   */\n      eq\n        /* \"#utility.yul\":9033:9096   */\n      tag_223\n      jumpi\n        /* \"#utility.yul\":9092:9093   */\n      0x00\n        /* \"#utility.yul\":9089:9090   */\n      dup1\n        /* \"#utility.yul\":9082:9094   */\n      revert\n        /* \"#utility.yul\":9033:9096   */\n    tag_223:\n        /* \"#utility.yul\":8980:9102   */\n      pop\n      jump\t// out\n        /* \"#utility.yul\":9108:9247   */\n    tag_106:\n        /* \"#utility.yul\":9154:9159   */\n      0x00\n        /* \"#utility.yul\":9192:9198   */\n      dup2\n        /* \"#utility.yul\":9179:9199   */\n      calldataload\n        /* \"#utility.yul\":9170:9199   */\n      swap1\n      pop\n        /* \"#utility.yul\":9208:9241   */\n      tag_225\n        /* \"#utility.yul\":9235:9240   */\n      dup2\n        /* \"#utility.yul\":9208:9241   */\n      tag_105\n      jump\t// in\n    tag_225:\n        /* \"#utility.yul\":9108:9247   */\n      swap3\n      swap2\n      pop\n      pop\n      jump\t// out\n        /* \"#utility.yul\":9253:9582   */\n    tag_27:\n        /* \"#utility.yul\":9312:9318   */\n      0x00\n        /* \"#utility.yul\":9361:9363   */\n      0x20\n        /* \"#utility.yul\":9349:9358   */\n      dup3\n        /* \"#utility.yul\":9340:9347   */\n      dup5\n        /* \"#utility.yul\":9336:9359   */\n      sub\n        /* \"#utility.yul\":9332:9364   */\n      slt\n        /* \"#utility.yul\":9329:9448   */\n      iszero\n      tag_227\n      jumpi\n        /* \"#utility.yul\":9367:9446   */\n      tag_228\n      tag_75\n      jump\t// in\n    tag_228:\n        /* \"#utility.yul\":9329:9448   */\n    tag_227:\n        /* \"#utility.yul\":9487:9488   */\n      0x00\n        /* \"#utility.yul\":9512:9565   */\n      tag_229\n        /* \"#utility.yul\":9557:9564   */\n      dup5\n        /* \"#utility.yul\":9548:9554   */\n      dup3\n        /* \"#utility.yul\":9537:9546   */\n      dup6\n        /* \"#utility.yul\":9533:9555   */\n      add\n        /* \"#utility.yul\":9512:9565   */\n      tag_106\n      jump\t// in\n    tag_229:\n        /* \"#utility.yul\":9502:9565   */\n      swap2\n      pop\n        /* \"#utility.yul\":9458:9575   */\n      pop\n        /* \"#utility.yul\":9253:9582   */\n      swap3\n      swap2\n      pop\n      pop\n      jump\t// out\n        /* \"#utility.yul\":9588:9757   */\n    tag_107:\n        /* \"#utility.yul\":9672:9683   */\n      0x00\n        /* \"#utility.yul\":9706:9712   */\n      dup3\n        /* \"#utility.yul\":9701:9704   */\n      dup3\n        /* \"#utility.yul\":9694:9713   */\n      mstore\n        /* \"#utility.yul\":9746:9750   */\n      0x20\n        /* \"#utility.yul\":9741:9744   */\n      dup3\n        /* \"#utility.yul\":9737:9751   */\n      add\n        /* \"#utility.yul\":9722:9751   */\n      swap1\n      pop\n        /* \"#utility.yul\":9588:9757   */\n      swap3\n      swap2\n      pop\n      pop\n      jump\t// out\n        /* \"#utility.yul\":9763:9930   */\n    tag_108:\n        /* \"#utility.yul\":9903:9922   */\n      0x596f7520617265206e6f74206f776e6572000000000000000000000000000000\n        /* \"#utility.yul\":9899:9900   */\n      0x00\n        /* \"#utility.yul\":9891:9897   */\n      dup3\n        /* \"#utility.yul\":9887:9901   */\n      add\n        /* \"#utility.yul\":9880:9923   */\n      mstore\n        /* \"#utility.yul\":9763:9930   */\n      pop\n      jump\t// out\n        /* \"#utility.yul\":9936:10302   */\n    tag_109:\n        /* \"#utility.yul\":10078:10081   */\n      0x00\n        /* \"#utility.yul\":10099:10166   */\n      tag_233\n        /* \"#utility.yul\":10163:10165   */\n      0x11\n        /* \"#utility.yul\":10158:10161   */\n      dup4\n        /* \"#utility.yul\":10099:10166   */\n      tag_107\n      jump\t// in\n    tag_233:\n        /* \"#utility.yul\":10092:10166   */\n      swap2\n      pop\n        /* \"#utility.yul\":10175:10268   */\n      tag_234\n        /* \"#utility.yul\":10264:10267   */\n      dup3\n        /* \"#utility.yul\":10175:10268   */\n      tag_108\n      jump\t// in\n    tag_234:\n        /* \"#utility.yul\":10293:10295   */\n      0x20\n        /* \"#utility.yul\":10288:10291   */\n      dup3\n        /* \"#utility.yul\":10284:10296   */\n      add\n        /* \"#utility.yul\":10277:10296   */\n      swap1\n      pop\n        /* \"#utility.yul\":9936:10302   */\n      swap2\n      swap1\n      pop\n      jump\t// out\n        /* \"#utility.yul\":10308:10727   */\n    tag_32:\n        /* \"#utility.yul\":10474:10478   */\n      0x00\n        /* \"#utility.yul\":10512:10514   */\n      0x20\n        /* \"#utility.yul\":10501:10510   */\n      dup3\n        /* \"#utility.yul\":10497:10515   */\n      add\n        /* \"#utility.yul\":10489:10515   */\n      swap1\n      pop\n        /* \"#utility.yul\":10561:10570   */\n      dup2\n        /* \"#utility.yul\":10555:10559   */\n      dup2\n        /* \"#utility.yul\":10551:10571   */\n      sub\n        /* \"#utility.yul\":10547:10548   */\n      0x00\n        /* \"#utility.yul\":10536:10545   */\n      dup4\n        /* \"#utility.yul\":10532:10549   */\n      add\n        /* \"#utility.yul\":10525:10572   */\n      mstore\n        /* \"#utility.yul\":10589:10720   */\n      tag_236\n        /* \"#utility.yul\":10715:10719   */\n      dup2\n        /* \"#utility.yul\":10589:10720   */\n      tag_109\n      jump\t// in\n    tag_236:\n        /* \"#utility.yul\":10581:10720   */\n      swap1\n      pop\n        /* \"#utility.yul\":10308:10727   */\n      swap2\n      swap1\n      pop\n      jump\t// out\n        /* \"#utility.yul\":10733:10880   */\n    tag_110:\n        /* \"#utility.yul\":10834:10845   */\n      0x00\n        /* \"#utility.yul\":10871:10874   */\n      dup2\n        /* \"#utility.yul\":10856:10874   */\n      swap1\n      pop\n        /* \"#utility.yul\":10733:10880   */\n      swap3\n      swap2\n      pop\n      pop\n      jump\t// out\n        /* \"#utility.yul\":10886:11000   */\n    tag_111:\n      pop\n      jump\t// out\n        /* \"#utility.yul\":11006:11404   */\n    tag_112:\n        /* \"#utility.yul\":11165:11168   */\n      0x00\n        /* \"#utility.yul\":11186:11269   */\n      tag_240\n        /* \"#utility.yul\":11267:11268   */\n      0x00\n        /* \"#utility.yul\":11262:11265   */\n      dup4\n        /* \"#utility.yul\":11186:11269   */\n      tag_110\n      jump\t// in\n    tag_240:\n        /* \"#utility.yul\":11179:11269   */\n      swap2\n      pop\n        /* \"#utility.yul\":11278:11371   */\n      tag_241\n        /* \"#utility.yul\":11367:11370   */\n      dup3\n        /* \"#utility.yul\":11278:11371   */\n      tag_111\n      jump\t// in\n    tag_241:\n        /* \"#utility.yul\":11396:11397   */\n      0x00\n        /* \"#utility.yul\":11391:11394   */\n      dup3\n        /* \"#utility.yul\":11387:11398   */\n      add\n        /* \"#utility.yul\":11380:11398   */\n      swap1\n      pop\n        /* \"#utility.yul\":11006:11404   */\n      swap2\n      swap1\n      pop\n      jump\t// out\n        /* \"#utility.yul\":11410:11789   */\n    tag_35:\n        /* \"#utility.yul\":11594:11597   */\n      0x00\n        /* \"#utility.yul\":11616:11763   */\n      tag_243\n        /* \"#utility.yul\":11759:11762   */\n      dup3\n        /* \"#utility.yul\":11616:11763   */\n      tag_112\n      jump\t// in\n    tag_243:\n        /* \"#utility.yul\":11609:11763   */\n      swap2\n      pop\n        /* \"#utility.yul\":11780:11783   */\n      dup2\n        /* \"#utility.yul\":11773:11783   */\n      swap1\n      pop\n        /* \"#utility.yul\":11410:11789   */\n      swap2\n      swap1\n      pop\n      jump\t// out\n        /* \"#utility.yul\":11795:11962   */\n    tag_113:\n        /* \"#utility.yul\":11935:11954   */\n      0x5769746864726177616c206661696c6564000000000000000000000000000000\n        /* \"#utility.yul\":11931:11932   */\n      0x00\n        /* \"#utility.yul\":11923:11929   */\n      dup3\n        /* \"#utility.yul\":11919:11933   */\n      add\n        /* \"#utility.yul\":11912:11955   */\n      mstore\n        /* \"#utility.yul\":11795:11962   */\n      pop\n      jump\t// out\n        /* \"#utility.yul\":11968:12334   */\n    tag_114:\n        /* \"#utility.yul\":12110:12113   */\n      0x00\n        /* \"#utility.yul\":12131:12198   */\n      tag_246\n        /* \"#utility.yul\":12195:12197   */\n      0x11\n        /* \"#utility.yul\":12190:12193   */\n      dup4\n        /* \"#utility.yul\":12131:12198   */\n      tag_107\n      jump\t// in\n    tag_246:\n        /* \"#utility.yul\":12124:12198   */\n      swap2\n      pop\n        /* \"#utility.yul\":12207:12300   */\n      tag_247\n        /* \"#utility.yul\":12296:12299   */\n      dup3\n        /* \"#utility.yul\":12207:12300   */\n      tag_113\n      jump\t// in\n    tag_247:\n        /* \"#utility.yul\":12325:12327   */\n      0x20\n        /* \"#utility.yul\":12320:12323   */\n      dup3\n        /* \"#utility.yul\":12316:12328   */\n      add\n        /* \"#utility.yul\":12309:12328   */\n      swap1\n      pop\n        /* \"#utility.yul\":11968:12334   */\n      swap2\n      swap1\n      pop\n      jump\t// out\n        /* \"#utility.yul\":12340:12759   */\n    tag_41:\n        /* \"#utility.yul\":12506:12510   */\n      0x00\n        /* \"#utility.yul\":12544:12546   */\n      0x20\n        /* \"#utility.yul\":12533:12542   */\n      dup3\n        /* \"#utility.yul\":12529:12547   */\n      add\n        /* \"#utility.yul\":12521:12547   */\n      swap1\n      pop\n        /* \"#utility.yul\":12593:12602   */\n      dup2\n        /* \"#utility.yul\":12587:12591   */\n      dup2\n        /* \"#utility.yul\":12583:12603   */\n      sub\n        /* \"#utility.yul\":12579:12580   */\n      0x00\n        /* \"#utility.yul\":12568:12577   */\n      dup4\n        /* \"#utility.yul\":12564:12581   */\n      add\n        /* \"#utility.yul\":12557:12604   */\n      mstore\n        /* \"#utility.yul\":12621:12752   */\n      tag_249\n        /* \"#utility.yul\":12747:12751   */\n      dup2\n        /* \"#utility.yul\":12621:12752   */\n      tag_114\n      jump\t// in\n    tag_249:\n        /* \"#utility.yul\":12613:12752   */\n      swap1\n      pop\n        /* \"#utility.yul\":12340:12759   */\n      swap2\n      swap1\n      pop\n      jump\t// out\n        /* \"#utility.yul\":12765:12942   */\n    tag_115:\n        /* \"#utility.yul\":12905:12934   */\n      0x43616e6e6f742062757920636f6666656520666f722066726565210000000000\n        /* \"#utility.yul\":12901:12902   */\n      0x00\n        /* \"#utility.yul\":12893:12899   */\n      dup3\n        /* \"#utility.yul\":12889:12903   */\n      add\n        /* \"#utility.yul\":12882:12935   */\n      mstore\n        /* \"#utility.yul\":12765:12942   */\n      pop\n      jump\t// out\n        /* \"#utility.yul\":12948:13314   */\n    tag_116:\n        /* \"#utility.yul\":13090:13093   */\n      0x00\n        /* \"#utility.yul\":13111:13178   */\n      tag_252\n        /* \"#utility.yul\":13175:13177   */\n      0x1b\n        /* \"#utility.yul\":13170:13173   */\n      dup4\n        /* \"#utility.yul\":13111:13178   */\n      tag_107\n      jump\t// in\n    tag_252:\n        /* \"#utility.yul\":13104:13178   */\n      swap2\n      pop\n        /* \"#utility.yul\":13187:13280   */\n      tag_253\n        /* \"#utility.yul\":13276:13279   */\n      dup3\n        /* \"#utility.yul\":13187:13280   */\n      tag_115\n      jump\t// in\n    tag_253:\n        /* \"#utility.yul\":13305:13307   */\n      0x20\n        /* \"#utility.yul\":13300:13303   */\n      dup3\n        /* \"#utility.yul\":13296:13308   */\n      add\n        /* \"#utility.yul\":13289:13308   */\n      swap1\n      pop\n        /* \"#utility.yul\":12948:13314   */\n      swap2\n      swap1\n      pop\n      jump\t// out\n        /* \"#utility.yul\":13320:13739   */\n    tag_45:\n        /* \"#utility.yul\":13486:13490   */\n      0x00\n        /* \"#utility.yul\":13524:13526   */\n      0x20\n        /* \"#utility.yul\":13513:13522   */\n      dup3\n        /* \"#utility.yul\":13509:13527   */\n      add\n        /* \"#utility.yul\":13501:13527   */\n      swap1\n      pop\n        /* \"#utility.yul\":13573:13582   */\n      dup2\n        /* \"#utility.yul\":13567:13571   */\n      dup2\n        /* \"#utility.yul\":13563:13583   */\n      sub\n        /* \"#utility.yul\":13559:13560   */\n      0x00\n        /* \"#utility.yul\":13548:13557   */\n      dup4\n        /* \"#utility.yul\":13544:13561   */\n      add\n        /* \"#utility.yul\":13537:13584   */\n      mstore\n        /* \"#utility.yul\":13601:13732   */\n      tag_255\n        /* \"#utility.yul\":13727:13731   */\n      dup2\n        /* \"#utility.yul\":13601:13732   */\n      tag_116\n      jump\t// in\n    tag_255:\n        /* \"#utility.yul\":13593:13732   */\n      swap1\n      pop\n        /* \"#utility.yul\":13320:13739   */\n      swap2\n      swap1\n      pop\n      jump\t// out\n        /* \"#utility.yul\":13745:13925   */\n    tag_117:\n        /* \"#utility.yul\":13793:13870   */\n      0x4e487b7100000000000000000000000000000000000000000000000000000000\n        /* \"#utility.yul\":13790:13791   */\n      0x00\n        /* \"#utility.yul\":13783:13871   */\n      mstore\n        /* \"#utility.yul\":13890:13894   */\n      0x22\n        /* \"#utility.yul\":13887:13888   */\n      0x04\n        /* \"#utility.yul\":13880:13895   */\n      mstore\n        /* \"#utility.yul\":13914:13918   */\n      0x24\n        /* \"#utility.yul\":13911:13912   */\n      0x00\n        /* \"#utility.yul\":13904:13919   */\n      revert\n        /* \"#utility.yul\":13931:14251   */\n    tag_57:\n        /* \"#utility.yul\":13975:13981   */\n      0x00\n        /* \"#utility.yul\":14012:14013   */\n      0x02\n        /* \"#utility.yul\":14006:14010   */\n      dup3\n        /* \"#utility.yul\":14002:14014   */\n      div\n        /* \"#utility.yul\":13992:14014   */\n      swap1\n      pop\n        /* \"#utility.yul\":14059:14060   */\n      0x01\n        /* \"#utility.yul\":14053:14057   */\n      dup3\n        /* \"#utility.yul\":14049:14061   */\n      and\n        /* \"#utility.yul\":14080:14098   */\n      dup1\n        /* \"#utility.yul\":14070:14151   */\n      tag_258\n      jumpi\n        /* \"#utility.yul\":14136:14140   */\n      0x7f\n        /* \"#utility.yul\":14128:14134   */\n      dup3\n        /* \"#utility.yul\":14124:14141   */\n      and\n        /* \"#utility.yul\":14114:14141   */\n      swap2\n      pop\n        /* \"#utility.yul\":14070:14151   */\n    tag_258:\n        /* \"#utility.yul\":14198:14200   */\n      0x20\n        /* \"#utility.yul\":14190:14196   */\n      dup3\n        /* \"#utility.yul\":14187:14201   */\n      lt\n        /* \"#utility.yul\":14167:14185   */\n      dup2\n        /* \"#utility.yul\":14164:14202   */\n      sub\n        /* \"#utility.yul\":14161:14245   */\n      tag_259\n      jumpi\n        /* \"#utility.yul\":14217:14235   */\n      tag_260\n      tag_117\n      jump\t// in\n    tag_260:\n        /* \"#utility.yul\":14161:14245   */\n    tag_259:\n        /* \"#utility.yul\":13982:14251   */\n      pop\n        /* \"#utility.yul\":13931:14251   */\n      swap2\n      swap1\n      pop\n      jump\t// out\n        /* \"#utility.yul\":14257:14398   */\n    tag_118:\n        /* \"#utility.yul\":14306:14310   */\n      0x00\n        /* \"#utility.yul\":14329:14332   */\n      dup2\n        /* \"#utility.yul\":14321:14332   */\n      swap1\n      pop\n        /* \"#utility.yul\":14352:14355   */\n      dup2\n        /* \"#utility.yul\":14349:14350   */\n      0x00\n        /* \"#utility.yul\":14342:14356   */\n      mstore\n        /* \"#utility.yul\":14386:14390   */\n      0x20\n        /* \"#utility.yul\":14383:14384   */\n      0x00\n        /* \"#utility.yul\":14373:14391   */\n      keccak256\n        /* \"#utility.yul\":14365:14391   */\n      swap1\n      pop\n        /* \"#utility.yul\":14257:14398   */\n      swap2\n      swap1\n      pop\n      jump\t// out\n        /* \"#utility.yul\":14404:14497   */\n    tag_119:\n        /* \"#utility.yul\":14441:14447   */\n      0x00\n        /* \"#utility.yul\":14488:14490   */\n      0x20\n        /* \"#utility.yul\":14483:14485   */\n      0x1f\n        /* \"#utility.yul\":14476:14481   */\n      dup4\n        /* \"#utility.yul\":14472:14486   */\n      add\n        /* \"#utility.yul\":14468:14491   */\n      div\n        /* \"#utility.yul\":14458:14491   */\n      swap1\n      pop\n        /* \"#utility.yul\":14404:14497   */\n      swap2\n      swap1\n      pop\n      jump\t// out\n        /* \"#utility.yul\":14503:14610   */\n    tag_120:\n        /* \"#utility.yul\":14547:14555   */\n      0x00\n        /* \"#utility.yul\":14597:14602   */\n      dup3\n        /* \"#utility.yul\":14591:14595   */\n      dup3\n        /* \"#utility.yul\":14587:14603   */\n      shl\n        /* \"#utility.yul\":14566:14603   */\n      swap1\n      pop\n        /* \"#utility.yul\":14503:14610   */\n      swap3\n      swap2\n      pop\n      pop\n      jump\t// out\n        /* \"#utility.yul\":14616:15009   */\n    tag_121:\n        /* \"#utility.yul\":14685:14691   */\n      0x00\n        /* \"#utility.yul\":14735:14736   */\n      0x08\n        /* \"#utility.yul\":14723:14733   */\n      dup4\n        /* \"#utility.yul\":14719:14737   */\n      mul\n        /* \"#utility.yul\":14758:14855   */\n      tag_265\n        /* \"#utility.yul\":14788:14854   */\n      0xffffffffffffffffffffffffffffffffffffffffffffffffffffffffffffffff\n        /* \"#utility.yul\":14777:14786   */\n      dup3\n        /* \"#utility.yul\":14758:14855   */\n      tag_120\n      jump\t// in\n    tag_265:\n        /* \"#utility.yul\":14876:14915   */\n      tag_266\n        /* \"#utility.yul\":14906:14914   */\n      dup7\n        /* \"#utility.yul\":14895:14904   */\n      dup4\n        /* \"#utility.yul\":14876:14915   */\n      tag_120\n      jump\t// in\n    tag_266:\n        /* \"#utility.yul\":14864:14915   */\n      swap6\n      pop\n        /* \"#utility.yul\":14948:14952   */\n      dup1\n        /* \"#utility.yul\":14944:14953   */\n      not\n        /* \"#utility.yul\":14937:14942   */\n      dup5\n        /* \"#utility.yul\":14933:14954   */\n      and\n        /* \"#utility.yul\":14924:14954   */\n      swap4\n      pop\n        /* \"#utility.yul\":14997:15001   */\n      dup1\n        /* \"#utility.yul\":14987:14995   */\n      dup7\n        /* \"#utility.yul\":14983:15002   */\n      and\n        /* \"#utility.yul\":14976:14981   */\n      dup5\n        /* \"#utility.yul\":14973:15003   */\n      or\n        /* \"#utility.yul\":14963:15003   */\n      swap3\n      pop\n        /* \"#utility.yul\":14692:15009   */\n      pop\n      pop\n        /* \"#utility.yul\":14616:15009   */\n      swap4\n      swap3\n      pop\n      pop\n      pop\n      jump\t// out\n        /* \"#utility.yul\":15015:15075   */\n    tag_122:\n        /* \"#utility.yul\":15043:15046   */\n      0x00\n        /* \"#utility.yul\":15064:15069   */\n      dup2\n        /* \"#utility.yul\":15057:15069   */\n      swap1\n      pop\n        /* \"#utility.yul\":15015:15075   */\n      swap2\n      swap1\n      pop\n      jump\t// out\n        /* \"#utility.yul\":15081:15223   */\n    tag_123:\n        /* \"#utility.yul\":15131:15140   */\n      0x00\n        /* \"#utility.yul\":15164:15217   */\n      tag_269\n        /* \"#utility.yul\":15182:15216   */\n      tag_270\n        /* \"#utility.yul\":15191:15215   */\n      tag_271\n        /* \"#utility.yul\":15209:15214   */\n      dup5\n        /* \"#utility.yul\":15191:15215   */\n      tag_93\n      jump\t// in\n    tag_271:\n        /* \"#utility.yul\":15182:15216   */\n      tag_122\n      jump\t// in\n    tag_270:\n        /* \"#utility.yul\":15164:15217   */\n      tag_93\n      jump\t// in\n    tag_269:\n        /* \"#utility.yul\":15151:15217   */\n      swap1\n      pop\n        /* \"#utility.yul\":15081:15223   */\n      swap2\n      swap1\n      pop\n      jump\t// out\n        /* \"#utility.yul\":15229:15304   */\n    tag_124:\n        /* \"#utility.yul\":15272:15275   */\n      0x00\n        /* \"#utility.yul\":15293:15298   */\n      dup2\n        /* \"#utility.yul\":15286:15298   */\n      swap1\n      pop\n        /* \"#utility.yul\":15229:15304   */\n      swap2\n      swap1\n      pop\n      jump\t// out\n        /* \"#utility.yul\":15310:15579   */\n    tag_125:\n        /* \"#utility.yul\":15420:15459   */\n      tag_274\n        /* \"#utility.yul\":15451:15458   */\n      dup4\n        /* \"#utility.yul\":15420:15459   */\n      tag_123\n      jump\t// in\n    tag_274:\n        /* \"#utility.yul\":15481:15572   */\n      tag_275\n        /* \"#utility.yul\":15530:15571   */\n      tag_276\n        /* \"#utility.yul\":15554:15570   */\n      dup3\n        /* \"#utility.yul\":15530:15571   */\n      tag_124\n      jump\t// in\n    tag_276:\n        /* \"#utility.yul\":15522:15528   */\n      dup5\n        /* \"#utility.yul\":15515:15519   */\n      dup5\n        /* \"#utility.yul\":15509:15520   */\n      sload\n        /* \"#utility.yul\":15481:15572   */\n      tag_121\n      jump\t// in\n    tag_275:\n        /* \"#utility.yul\":15475:15479   */\n      dup3\n        /* \"#utility.yul\":15468:15573   */\n      sstore\n        /* \"#utility.yul\":15386:15579   */\n      pop\n        /* \"#utility.yul\":15310:15579   */\n      pop\n      pop\n      pop\n      jump\t// out\n        /* \"#utility.yul\":15585:15658   */\n    tag_126:\n        /* \"#utility.yul\":15630:15633   */\n      0x00\n        /* \"#utility.yul\":15585:15658   */\n      swap1\n      jump\t// out\n        /* \"#utility.yul\":15664:15853   */\n    tag_127:\n        /* \"#utility.yul\":15741:15773   */\n      tag_279\n      tag_126\n      jump\t// in\n    tag_279:\n        /* \"#utility.yul\":15782:15847   */\n      tag_280\n        /* \"#utility.yul\":15840:15846   */\n      dup2\n        /* \"#utility.yul\":15832:15838   */\n      dup5\n        /* \"#utility.yul\":15826:15830   */\n      dup5\n        /* \"#utility.yul\":15782:15847   */\n      tag_125\n      jump\t// in\n    tag_280:\n        /* \"#utility.yul\":15717:15853   */\n      pop\n        /* \"#utility.yul\":15664:15853   */\n      pop\n      pop\n      jump\t// out\n        /* \"#utility.yul\":15859:16045   */\n    tag_128:\n        /* \"#utility.yul\":15919:16039   */\n    tag_282:\n        /* \"#utility.yul\":15936:15939   */\n      dup2\n        /* \"#utility.yul\":15929:15934   */\n      dup2\n        /* \"#utility.yul\":15926:15940   */\n      lt\n        /* \"#utility.yul\":15919:16039   */\n      iszero\n      tag_284\n      jumpi\n        /* \"#utility.yul\":15990:16029   */\n      tag_285\n        /* \"#utility.yul\":16027:16028   */\n      0x00\n        /* \"#utility.yul\":16020:16025   */\n      dup3\n        /* \"#utility.yul\":15990:16029   */\n      tag_127\n      jump\t// in\n    tag_285:\n        /* \"#utility.yul\":15963:15964   */\n      0x01\n        /* \"#utility.yul\":15956:15961   */\n      dup2\n        /* \"#utility.yul\":15952:15965   */\n      add\n        /* \"#utility.yul\":15943:15965   */\n      swap1\n      pop\n        /* \"#utility.yul\":15919:16039   */\n      jump(tag_282)\n    tag_284:\n        /* \"#utility.yul\":15859:16045   */\n      pop\n      pop\n      jump\t// out\n        /* \"#utility.yul\":16051:16594   */\n    tag_129:\n        /* \"#utility.yul\":16152:16154   */\n      0x1f\n        /* \"#utility.yul\":16147:16150   */\n      dup3\n        /* \"#utility.yul\":16144:16155   */\n      gt\n        /* \"#utility.yul\":16141:16587   */\n      iszero\n      tag_287\n      jumpi\n        /* \"#utility.yul\":16186:16224   */\n      tag_288\n        /* \"#utility.yul\":16218:16223   */\n      dup2\n        /* \"#utility.yul\":16186:16224   */\n      tag_118\n      jump\t// in\n    tag_288:\n        /* \"#utility.yul\":16270:16299   */\n      tag_289\n        /* \"#utility.yul\":16288:16298   */\n      dup5\n        /* \"#utility.yul\":16270:16299   */\n      tag_119\n      jump\t// in\n    tag_289:\n        /* \"#utility.yul\":16260:16268   */\n      dup2\n        /* \"#utility.yul\":16256:16300   */\n      add\n        /* \"#utility.yul\":16453:16455   */\n      0x20\n        /* \"#utility.yul\":16441:16451   */\n      dup6\n        /* \"#utility.yul\":16438:16456   */\n      lt\n        /* \"#utility.yul\":16435:16484   */\n      iszero\n      tag_290\n      jumpi\n        /* \"#utility.yul\":16474:16482   */\n      dup2\n        /* \"#utility.yul\":16459:16482   */\n      swap1\n      pop\n        /* \"#utility.yul\":16435:16484   */\n    tag_290:\n        /* \"#utility.yul\":16497:16577   */\n      tag_291\n        /* \"#utility.yul\":16553:16575   */\n      tag_292\n        /* \"#utility.yul\":16571:16574   */\n      dup6\n        /* \"#utility.yul\":16553:16575   */\n      tag_119\n      jump\t// in\n    tag_292:\n        /* \"#utility.yul\":16543:16551   */\n      dup4\n        /* \"#utility.yul\":16539:16576   */\n      add\n        /* \"#utility.yul\":16526:16537   */\n      dup3\n        /* \"#utility.yul\":16497:16577   */\n      tag_128\n      jump\t// in\n    tag_291:\n        /* \"#utility.yul\":16156:16587   */\n      pop\n      pop\n        /* \"#utility.yul\":16141:16587   */\n    tag_287:\n        /* \"#utility.yul\":16051:16594   */\n      pop\n      pop\n      pop\n      jump\t// out\n        /* \"#utility.yul\":16600:16717   */\n    tag_130:\n        /* \"#utility.yul\":16654:16662   */\n      0x00\n        /* \"#utility.yul\":16704:16709   */\n      dup3\n        /* \"#utility.yul\":16698:16702   */\n      dup3\n        /* \"#utility.yul\":16694:16710   */\n      shr\n        /* \"#utility.yul\":16673:16710   */\n      swap1\n      pop\n        /* \"#utility.yul\":16600:16717   */\n      swap3\n      swap2\n      pop\n      pop\n      jump\t// out\n        /* \"#utility.yul\":16723:16892   */\n    tag_131:\n        /* \"#utility.yul\":16767:16773   */\n      0x00\n        /* \"#utility.yul\":16800:16851   */\n      tag_295\n        /* \"#utility.yul\":16848:16849   */\n      0x00\n        /* \"#utility.yul\":16844:16850   */\n      not\n        /* \"#utility.yul\":16836:16841   */\n      dup5\n        /* \"#utility.yul\":16833:16834   */\n      0x08\n        /* \"#utility.yul\":16829:16842   */\n      mul\n        /* \"#utility.yul\":16800:16851   */\n      tag_130\n      jump\t// in\n    tag_295:\n        /* \"#utility.yul\":16796:16852   */\n      not\n        /* \"#utility.yul\":16881:16885   */\n      dup1\n        /* \"#utility.yul\":16875:16879   */\n      dup4\n        /* \"#utility.yul\":16871:16886   */\n      and\n        /* \"#utility.yul\":16861:16886   */\n      swap2\n      pop\n        /* \"#utility.yul\":16774:16892   */\n      pop\n        /* \"#utility.yul\":16723:16892   */\n      swap3\n      swap2\n      pop\n      pop\n      jump\t// out\n        /* \"#utility.yul\":16897:17192   */\n    tag_132:\n        /* \"#utility.yul\":16973:16977   */\n      0x00\n        /* \"#utility.yul\":17119:17148   */\n      tag_297\n        /* \"#utility.yul\":17144:17147   */\n      dup4\n        /* \"#utility.yul\":17138:17142   */\n      dup4\n        /* \"#utility.yul\":17119:17148   */\n      tag_131\n      jump\t// in\n    tag_297:\n        /* \"#utility.yul\":17111:17148   */\n      swap2\n      pop\n        /* \"#utility.yul\":17181:17184   */\n      dup3\n        /* \"#utility.yul\":17178:17179   */\n      0x02\n        /* \"#utility.yul\":17174:17185   */\n      mul\n        /* \"#utility.yul\":17168:17172   */\n      dup3\n        /* \"#utility.yul\":17165:17186   */\n      or\n        /* \"#utility.yul\":17157:17186   */\n      swap1\n      pop\n        /* \"#utility.yul\":16897:17192   */\n      swap3\n      swap2\n      pop\n      pop\n      jump\t// out\n        /* \"#utility.yul\":17197:18592   */\n    tag_48:\n        /* \"#utility.yul\":17314:17351   */\n      tag_299\n        /* \"#utility.yul\":17347:17350   */\n      dup3\n        /* \"#utility.yul\":17314:17351   */\n      tag_95\n      jump\t// in\n    tag_299:\n        /* \"#utility.yul\":17416:17434   */\n      0xffffffffffffffff\n        /* \"#utility.yul\":17408:17414   */\n      dup2\n        /* \"#utility.yul\":17405:17435   */\n      gt\n        /* \"#utility.yul\":17402:17458   */\n      iszero\n      tag_300\n      jumpi\n        /* \"#utility.yul\":17438:17456   */\n      tag_301\n      tag_80\n      jump\t// in\n    tag_301:\n        /* \"#utility.yul\":17402:17458   */\n    tag_300:\n        /* \"#utility.yul\":17482:17520   */\n      tag_302\n        /* \"#utility.yul\":17514:17518   */\n      dup3\n        /* \"#utility.yul\":17508:17519   */\n      sload\n        /* \"#utility.yul\":17482:17520   */\n      tag_57\n      jump\t// in\n    tag_302:\n        /* \"#utility.yul\":17567:17634   */\n      tag_303\n        /* \"#utility.yul\":17627:17633   */\n      dup3\n        /* \"#utility.yul\":17619:17625   */\n      dup3\n        /* \"#utility.yul\":17613:17617   */\n      dup6\n        /* \"#utility.yul\":17567:17634   */\n      tag_129\n      jump\t// in\n    tag_303:\n        /* \"#utility.yul\":17661:17662   */\n      0x00\n        /* \"#utility.yul\":17685:17689   */\n      0x20\n        /* \"#utility.yul\":17672:17689   */\n      swap1\n      pop\n        /* \"#utility.yul\":17717:17719   */\n      0x1f\n        /* \"#utility.yul\":17709:17715   */\n      dup4\n        /* \"#utility.yul\":17706:17720   */\n      gt\n        /* \"#utility.yul\":17734:17735   */\n      0x01\n        /* \"#utility.yul\":17729:18347   */\n      dup2\n      eq\n      tag_305\n      jumpi\n        /* \"#utility.yul\":18391:18392   */\n      0x00\n        /* \"#utility.yul\":18408:18414   */\n      dup5\n        /* \"#utility.yul\":18405:18482   */\n      iszero\n      tag_306\n      jumpi\n        /* \"#utility.yul\":18457:18466   */\n      dup3\n        /* \"#utility.yul\":18452:18455   */\n      dup8\n        /* \"#utility.yul\":18448:18467   */\n      add\n        /* \"#utility.yul\":18442:18468   */\n      mload\n        /* \"#utility.yul\":18433:18468   */\n      swap1\n      pop\n        /* \"#utility.yul\":18405:18482   */\n    tag_306:\n        /* \"#utility.yul\":18508:18575   */\n      tag_307\n        /* \"#utility.yul\":18568:18574   */\n      dup6\n        /* \"#utility.yul\":18561:18566   */\n      dup3\n        /* \"#utility.yul\":18508:18575   */\n      tag_132\n      jump\t// in\n    tag_307:\n        /* \"#utility.yul\":18502:18506   */\n      dup7\n        /* \"#utility.yul\":18495:18576   */\n      sstore\n        /* \"#utility.yul\":18364:18586   */\n      pop\n        /* \"#utility.yul\":17699:18586   */\n      jump(tag_304)\n        /* \"#utility.yul\":17729:18347   */\n    tag_305:\n        /* \"#utility.yul\":17781:17785   */\n      0x1f\n        /* \"#utility.yul\":17777:17786   */\n      not\n        /* \"#utility.yul\":17769:17775   */\n      dup5\n        /* \"#utility.yul\":17765:17787   */\n      and\n        /* \"#utility.yul\":17815:17852   */\n      tag_308\n        /* \"#utility.yul\":17847:17851   */\n      dup7\n        /* \"#utility.yul\":17815:17852   */\n      tag_118\n      jump\t// in\n    tag_308:\n        /* \"#utility.yul\":17874:17875   */\n      0x00\n        /* \"#utility.yul\":17888:18096   */\n    tag_309:\n        /* \"#utility.yul\":17902:17909   */\n      dup3\n        /* \"#utility.yul\":17899:17900   */\n      dup2\n        /* \"#utility.yul\":17896:17910   */\n      lt\n        /* \"#utility.yul\":17888:18096   */\n      iszero\n      tag_311\n      jumpi\n        /* \"#utility.yul\":17981:17990   */\n      dup5\n        /* \"#utility.yul\":17976:17979   */\n      dup10\n        /* \"#utility.yul\":17972:17991   */\n      add\n        /* \"#utility.yul\":17966:17992   */\n      mload\n        /* \"#utility.yul\":17958:17964   */\n      dup3\n        /* \"#utility.yul\":17951:17993   */\n      sstore\n        /* \"#utility.yul\":18032:18033   */\n      0x01\n        /* \"#utility.yul\":18024:18030   */\n      dup3\n        /* \"#utility.yul\":18020:18034   */\n      add\n        /* \"#utility.yul\":18010:18034   */\n      swap2\n      pop\n        /* \"#utility.yul\":18079:18081   */\n      0x20\n        /* \"#utility.yul\":18068:18077   */\n      dup6\n        /* \"#utility.yul\":18064:18082   */\n      add\n        /* \"#utility.yul\":18051:18082   */\n      swap5\n      pop\n        /* \"#utility.yul\":17925:17929   */\n      0x20\n        /* \"#utility.yul\":17922:17923   */\n      dup2\n        /* \"#utility.yul\":17918:17930   */\n      add\n        /* \"#utility.yul\":17913:17930   */\n      swap1\n      pop\n        /* \"#utility.yul\":17888:18096   */\n      jump(tag_309)\n    tag_311:\n        /* \"#utility.yul\":18124:18130   */\n      dup7\n        /* \"#utility.yul\":18115:18122   */\n      dup4\n        /* \"#utility.yul\":18112:18131   */\n      lt\n        /* \"#utility.yul\":18109:18288   */\n      iszero\n      tag_312\n      jumpi\n        /* \"#utility.yul\":18182:18191   */\n      dup5\n        /* \"#utility.yul\":18177:18180   */\n      dup10\n        /* \"#utility.yul\":18173:18192   */\n      add\n        /* \"#utility.yul\":18167:18193   */\n      mload\n        /* \"#utility.yul\":18225:18273   */\n      tag_313\n        /* \"#utility.yul\":18267:18271   */\n      0x1f\n        /* \"#utility.yul\":18259:18265   */\n      dup10\n        /* \"#utility.yul\":18255:18272   */\n      and\n        /* \"#utility.yul\":18244:18253   */\n      dup3\n        /* \"#utility.yul\":18225:18273   */\n      tag_131\n      jump\t// in\n    tag_313:\n        /* \"#utility.yul\":18217:18223   */\n      dup4\n        /* \"#utility.yul\":18210:18274   */\n      sstore\n        /* \"#utility.yul\":18132:18288   */\n      pop\n        /* \"#utility.yul\":18109:18288   */\n    tag_312:\n        /* \"#utility.yul\":18334:18335   */\n      0x01\n        /* \"#utility.yul\":18330:18331   */\n      0x02\n        /* \"#utility.yul\":18322:18328   */\n      dup9\n        /* \"#utility.yul\":18318:18332   */\n      mul\n        /* \"#utility.yul\":18314:18336   */\n      add\n        /* \"#utility.yul\":18308:18312   */\n      dup9\n        /* \"#utility.yul\":18301:18337   */\n      sstore\n        /* \"#utility.yul\":17736:18347   */\n      pop\n      pop\n      pop\n        /* \"#utility.yul\":17699:18586   */\n    tag_304:\n      pop\n        /* \"#utility.yul\":17289:18592   */\n      pop\n      pop\n      pop\n        /* \"#utility.yul\":17197:18592   */\n      pop\n      pop\n      jump\t// out\n        /* \"#utility.yul\":18598:18716   */\n    tag_133:\n        /* \"#utility.yul\":18685:18709   */\n      tag_315\n        /* \"#utility.yul\":18703:18708   */\n      dup2\n        /* \"#utility.yul\":18685:18709   */\n      tag_93\n      jump\t// in\n    tag_315:\n        /* \"#utility.yul\":18680:18683   */\n      dup3\n        /* \"#utility.yul\":18673:18710   */\n      mstore\n        /* \"#utility.yul\":18598:18716   */\n      pop\n      pop\n      jump\t// out\n        /* \"#utility.yul\":18722:19099   */\n    tag_134:\n        /* \"#utility.yul\":18810:18813   */\n      0x00\n        /* \"#utility.yul\":18838:18877   */\n      tag_317\n        /* \"#utility.yul\":18871:18876   */\n      dup3\n        /* \"#utility.yul\":18838:18877   */\n      tag_95\n      jump\t// in\n    tag_317:\n        /* \"#utility.yul\":18893:18964   */\n      tag_318\n        /* \"#utility.yul\":18957:18963   */\n      dup2\n        /* \"#utility.yul\":18952:18955   */\n      dup6\n        /* \"#utility.yul\":18893:18964   */\n      tag_107\n      jump\t// in\n    tag_318:\n        /* \"#utility.yul\":18886:18964   */\n      swap4\n      pop\n        /* \"#utility.yul\":18973:19038   */\n      tag_319\n        /* \"#utility.yul\":19031:19037   */\n      dup2\n        /* \"#utility.yul\":19026:19029   */\n      dup6\n        /* \"#utility.yul\":19019:19023   */\n      0x20\n        /* \"#utility.yul\":19012:19017   */\n      dup7\n        /* \"#utility.yul\":19008:19024   */\n      add\n        /* \"#utility.yul\":18973:19038   */\n      tag_97\n      jump\t// in\n    tag_319:\n        /* \"#utility.yul\":19063:19092   */\n      tag_320\n        /* \"#utility.yul\":19085:19091   */\n      dup2\n        /* \"#utility.yul\":19063:19092   */\n      tag_79\n      jump\t// in\n    tag_320:\n        /* \"#utility.yul\":19058:19061   */\n      dup5\n        /* \"#utility.yul\":19054:19093   */\n      add\n        /* \"#utility.yul\":19047:19093   */\n      swap2\n      pop\n        /* \"#utility.yul\":18814:19099   */\n      pop\n        /* \"#utility.yul\":18722:19099   */\n      swap3\n      swap2\n      pop\n      pop\n      jump\t// out\n        /* \"#utility.yul\":19105:19840   */\n    tag_51:\n        /* \"#utility.yul\":19322:19326   */\n      0x00\n        /* \"#utility.yul\":19360:19363   */\n      0x80\n        /* \"#utility.yul\":19349:19358   */\n      dup3\n        /* \"#utility.yul\":19345:19364   */\n      add\n        /* \"#utility.yul\":19337:19364   */\n      swap1\n      pop\n        /* \"#utility.yul\":19374:19445   */\n      tag_322\n        /* \"#utility.yul\":19442:19443   */\n      0x00\n        /* \"#utility.yul\":19431:19440   */\n      dup4\n        /* \"#utility.yul\":19427:19444   */\n      add\n        /* \"#utility.yul\":19418:19424   */\n      dup8\n        /* \"#utility.yul\":19374:19445   */\n      tag_133\n      jump\t// in\n    tag_322:\n        /* \"#utility.yul\":19492:19501   */\n      dup2\n        /* \"#utility.yul\":19486:19490   */\n      dup2\n        /* \"#utility.yul\":19482:19502   */\n      sub\n        /* \"#utility.yul\":19477:19479   */\n      0x20\n        /* \"#utility.yul\":19466:19475   */\n      dup4\n        /* \"#utility.yul\":19462:19480   */\n      add\n        /* \"#utility.yul\":19455:19503   */\n      mstore\n        /* \"#utility.yul\":19520:19598   */\n      tag_323\n        /* \"#utility.yul\":19593:19597   */\n      dup2\n        /* \"#utility.yul\":19584:19590   */\n      dup7\n        /* \"#utility.yul\":19520:19598   */\n      tag_134\n      jump\t// in\n    tag_323:\n        /* \"#utility.yul\":19512:19598   */\n      swap1\n      pop\n        /* \"#utility.yul\":19608:19680   */\n      tag_324\n        /* \"#utility.yul\":19676:19678   */\n      0x40\n        /* \"#utility.yul\":19665:19674   */\n      dup4\n        /* \"#utility.yul\":19661:19679   */\n      add\n        /* \"#utility.yul\":19652:19658   */\n      dup6\n        /* \"#utility.yul\":19608:19680   */\n      tag_133\n      jump\t// in\n    tag_324:\n        /* \"#utility.yul\":19727:19736   */\n      dup2\n        /* \"#utility.yul\":19721:19725   */\n      dup2\n        /* \"#utility.yul\":19717:19737   */\n      sub\n        /* \"#utility.yul\":19712:19714   */\n      0x60\n        /* \"#utility.yul\":19701:19710   */\n      dup4\n        /* \"#utility.yul\":19697:19715   */\n      add\n        /* \"#utility.yul\":19690:19738   */\n      mstore\n        /* \"#utility.yul\":19755:19833   */\n      tag_325\n        /* \"#utility.yul\":19828:19832   */\n      dup2\n        /* \"#utility.yul\":19819:19825   */\n      dup5\n        /* \"#utility.yul\":19755:19833   */\n      tag_134\n      jump\t// in\n    tag_325:\n        /* \"#utility.yul\":19747:19833   */\n      swap1\n      pop\n        /* \"#utility.yul\":19105:19840   */\n      swap6\n      swap5\n      pop\n      pop\n      pop\n      pop\n      pop\n      jump\t// out\n        /* \"#utility.yul\":19846:20024   */\n    tag_135:\n        /* \"#utility.yul\":19986:20016   */\n      0x4f776e65722063616e6e6f74206265207a65726f206164647265737300000000\n        /* \"#utility.yul\":19982:19983   */\n      0x00\n        /* \"#utility.yul\":19974:19980   */\n      dup3\n        /* \"#utility.yul\":19970:19984   */\n      add\n        /* \"#utility.yul\":19963:20017   */\n      mstore\n        /* \"#utility.yul\":19846:20024   */\n      pop\n      jump\t// out\n        /* \"#utility.yul\":20030:20396   */\n    tag_136:\n        /* \"#utility.yul\":20172:20175   */\n      0x00\n        /* \"#utility.yul\":20193:20260   */\n      tag_328\n        /* \"#utility.yul\":20257:20259   */\n      0x1c\n        /* \"#utility.yul\":20252:20255   */\n      dup4\n        /* \"#utility.yul\":20193:20260   */\n      tag_107\n      jump\t// in\n    tag_328:\n        /* \"#utility.yul\":20186:20260   */\n      swap2\n      pop\n        /* \"#utility.yul\":20269:20362   */\n      tag_329\n        /* \"#utility.yul\":20358:20361   */\n      dup3\n        /* \"#utility.yul\":20269:20362   */\n      tag_135\n      jump\t// in\n    tag_329:\n        /* \"#utility.yul\":20387:20389   */\n      0x20\n        /* \"#utility.yul\":20382:20385   */\n      dup3\n        /* \"#utility.yul\":20378:20390   */\n      add\n        /* \"#utility.yul\":20371:20390   */\n      swap1\n      pop\n        /* \"#utility.yul\":20030:20396   */\n      swap2\n      swap1\n      pop\n      jump\t// out\n        /* \"#utility.yul\":20402:20821   */\n    tag_73:\n        /* \"#utility.yul\":20568:20572   */\n      0x00\n        /* \"#utility.yul\":20606:20608   */\n      0x20\n        /* \"#utility.yul\":20595:20604   */\n      dup3\n        /* \"#utility.yul\":20591:20609   */\n      add\n        /* \"#utility.yul\":20583:20609   */\n      swap1\n      pop\n        /* \"#utility.yul\":20655:20664   */\n      dup2\n        /* \"#utility.yul\":20649:20653   */\n      dup2\n        /* \"#utility.yul\":20645:20665   */\n      sub\n        /* \"#utility.yul\":20641:20642   */\n      0x00\n        /* \"#utility.yul\":20630:20639   */\n      dup4\n        /* \"#utility.yul\":20626:20643   */\n      add\n        /* \"#utility.yul\":20619:20666   */\n      mstore\n        /* \"#utility.yul\":20683:20814   */\n      tag_331\n        /* \"#utility.yul\":20809:20813   */\n      dup2\n        /* \"#utility.yul\":20683:20814   */\n      tag_136\n      jump\t// in\n    tag_331:\n        /* \"#utility.yul\":20675:20814   */\n      swap1\n      pop\n        /* \"#utility.yul\":20402:20821   */\n      swap2\n      swap1\n      pop\n      jump\t// out\n\n    auxdata: 0xa2646970667358221220bab1e0a9f6963bbcfe543116e4a7a6c16b2f0569b1a3209525ab941f5b366f1164736f6c634300081a0033\n}\n",
				"bytecode": {
					"linkReferences": {},
					"object": "6080604052348015600e575f80fd5b50335f806101000a81548173ffffffffffffffffffffffffffffffffffffffff021916908373ffffffffffffffffffffffffffffffffffffffff1602179055506111018061005b5f395ff3fe608060405260043610610049575f3560e01c80633aaa74b21461004d578063820c654714610063578063865c51721461007f5780638da5cb5b146100a9578063a6f9dae1146100d3575b5f80fd5b348015610058575f80fd5b506100616100fb565b005b61007d60048036038101906100789190610869565b610253565b005b34801561008a575f80fd5b506100936103d8565b6040516100a09190610acb565b60405180910390f35b3480156100b4575f80fd5b506100bd6105bc565b6040516100ca9190610b0b565b60405180910390f35b3480156100de575f80fd5b506100f960048036038101906100f49190610b4e565b6105df565b005b5f8054906101000a900473ffffffffffffffffffffffffffffffffffffffff1673ffffffffffffffffffffffffffffffffffffffff163373ffffffffffffffffffffffffffffffffffffffff1614610188576040517f08c379a000000000000000000000000000000000000000000000000000000000815260040161017f90610bd3565b60405180910390fd5b5f805f9054906101000a900473ffffffffffffffffffffffffffffffffffffffff1673ffffffffffffffffffffffffffffffffffffffff16476040516101cd90610c1e565b5f6040518083038185875af1925050503d805f8114610207576040519150601f19603f3d011682016040523d82523d5f602084013e61020c565b606091505b5050905080610250576040517f08c379a000000000000000000000000000000000000000000000000000000000815260040161024790610c7c565b60405180910390fd5b50565b5f3411610295576040517f08c379a000000000000000000000000000000000000000000000000000000000815260040161028c90610ce4565b60405180910390fd5b60016040518060a001604052803373ffffffffffffffffffffffffffffffffffffffff16815260200142815260200184815260200134815260200183815250908060018154018082558091505060019003905f5260205f2090600502015f909190919091505f820151815f015f6101000a81548173ffffffffffffffffffffffffffffffffffffffff021916908373ffffffffffffffffffffffffffffffffffffffff16021790555060208201518160010155604082015181600201908161035d9190610efc565b5060608201518160030155608082015181600401908161037d9190610efc565b5050503373ffffffffffffffffffffffffffffffffffffffff167fcfbb19dd23456c22fff7d12d16f5a08cbedf033d880a716ab99d47bac1b2e06e428434856040516103cc9493929190611012565b60405180910390a25050565b60606001805480602002602001604051908101604052809291908181526020015f905b828210156105b3578382905f5260205f2090600502016040518060a00160405290815f82015f9054906101000a900473ffffffffffffffffffffffffffffffffffffffff1673ffffffffffffffffffffffffffffffffffffffff1673ffffffffffffffffffffffffffffffffffffffff1681526020016001820154815260200160028201805461048a90610d2f565b80601f01602080910402602001604051908101604052809291908181526020018280546104b690610d2f565b80156105015780601f106104d857610100808354040283529160200191610501565b820191905f5260205f20905b8154815290600101906020018083116104e457829003601f168201915b505050505081526020016003820154815260200160048201805461052490610d2f565b80601f016020809104026020016040519081016040528092919081815260200182805461055090610d2f565b801561059b5780601f106105725761010080835404028352916020019161059b565b820191905f5260205f20905b81548152906001019060200180831161057e57829003601f168201915b505050505081525050815260200190600101906103fb565b50505050905090565b5f8054906101000a900473ffffffffffffffffffffffffffffffffffffffff1681565b5f8054906101000a900473ffffffffffffffffffffffffffffffffffffffff1673ffffffffffffffffffffffffffffffffffffffff163373ffffffffffffffffffffffffffffffffffffffff161461066c576040517f08c379a000000000000000000000000000000000000000000000000000000000815260040161066390610bd3565b60405180910390fd5b5f73ffffffffffffffffffffffffffffffffffffffff168173ffffffffffffffffffffffffffffffffffffffff16036106da576040517f08c379a00000000000000000000000000000000000000000000000000000000081526004016106d1906110ad565b60405180910390fd5b805f806101000a81548173ffffffffffffffffffffffffffffffffffffffff021916908373ffffffffffffffffffffffffffffffffffffffff16021790555050565b5f604051905090565b5f80fd5b5f80fd5b5f80fd5b5f80fd5b5f601f19601f8301169050919050565b7f4e487b71000000000000000000000000000000000000000000000000000000005f52604160045260245ffd5b61077b82610735565b810181811067ffffffffffffffff8211171561079a57610799610745565b5b80604052505050565b5f6107ac61071c565b90506107b88282610772565b919050565b5f67ffffffffffffffff8211156107d7576107d6610745565b5b6107e082610735565b9050602081019050919050565b828183375f83830152505050565b5f61080d610808846107bd565b6107a3565b90508281526020810184848401111561082957610828610731565b5b6108348482856107ed565b509392505050565b5f82601f8301126108505761084f61072d565b5b81356108608482602086016107fb565b91505092915050565b5f806040838503121561087f5761087e610725565b5b5f83013567ffffffffffffffff81111561089c5761089b610729565b5b6108a88582860161083c565b925050602083013567ffffffffffffffff8111156108c9576108c8610729565b5b6108d58582860161083c565b9150509250929050565b5f81519050919050565b5f82825260208201905092915050565b5f819050602082019050919050565b5f73ffffffffffffffffffffffffffffffffffffffff82169050919050565b5f61093182610908565b9050919050565b61094181610927565b82525050565b5f819050919050565b61095981610947565b82525050565b5f81519050919050565b5f82825260208201905092915050565b8281835e5f83830152505050565b5f6109918261095f565b61099b8185610969565b93506109ab818560208601610979565b6109b481610735565b840191505092915050565b5f60a083015f8301516109d45f860182610938565b5060208301516109e76020860182610950565b50604083015184820360408601526109ff8282610987565b9150506060830151610a146060860182610950565b5060808301518482036080860152610a2c8282610987565b9150508091505092915050565b5f610a4483836109bf565b905092915050565b5f602082019050919050565b5f610a62826108df565b610a6c81856108e9565b935083602082028501610a7e856108f9565b805f5b85811015610ab95784840389528151610a9a8582610a39565b9450610aa583610a4c565b925060208a01995050600181019050610a81565b50829750879550505050505092915050565b5f6020820190508181035f830152610ae38184610a58565b905092915050565b5f610af582610908565b9050919050565b610b0581610aeb565b82525050565b5f602082019050610b1e5f830184610afc565b92915050565b610b2d81610927565b8114610b37575f80fd5b50565b5f81359050610b4881610b24565b92915050565b5f60208284031215610b6357610b62610725565b5b5f610b7084828501610b3a565b91505092915050565b5f82825260208201905092915050565b7f596f7520617265206e6f74206f776e65720000000000000000000000000000005f82015250565b5f610bbd601183610b79565b9150610bc882610b89565b602082019050919050565b5f6020820190508181035f830152610bea81610bb1565b9050919050565b5f81905092915050565b50565b5f610c095f83610bf1565b9150610c1482610bfb565b5f82019050919050565b5f610c2882610bfe565b9150819050919050565b7f5769746864726177616c206661696c65640000000000000000000000000000005f82015250565b5f610c66601183610b79565b9150610c7182610c32565b602082019050919050565b5f6020820190508181035f830152610c9381610c5a565b9050919050565b7f43616e6e6f742062757920636f6666656520666f7220667265652100000000005f82015250565b5f610cce601b83610b79565b9150610cd982610c9a565b602082019050919050565b5f6020820190508181035f830152610cfb81610cc2565b9050919050565b7f4e487b71000000000000000000000000000000000000000000000000000000005f52602260045260245ffd5b5f6002820490506001821680610d4657607f821691505b602082108103610d5957610d58610d02565b5b50919050565b5f819050815f5260205f209050919050565b5f6020601f8301049050919050565b5f82821b905092915050565b5f60088302610dbb7fffffffffffffffffffffffffffffffffffffffffffffffffffffffffffffffff82610d80565b610dc58683610d80565b95508019841693508086168417925050509392505050565b5f819050919050565b5f610e00610dfb610df684610947565b610ddd565b610947565b9050919050565b5f819050919050565b610e1983610de6565b610e2d610e2582610e07565b848454610d8c565b825550505050565b5f90565b610e41610e35565b610e4c818484610e10565b505050565b5b81811015610e6f57610e645f82610e39565b600181019050610e52565b5050565b601f821115610eb457610e8581610d5f565b610e8e84610d71565b81016020851015610e9d578190505b610eb1610ea985610d71565b830182610e51565b50505b505050565b5f82821c905092915050565b5f610ed45f1984600802610eb9565b1980831691505092915050565b5f610eec8383610ec5565b9150826002028217905092915050565b610f058261095f565b67ffffffffffffffff811115610f1e57610f1d610745565b5b610f288254610d2f565b610f33828285610e73565b5f60209050601f831160018114610f64575f8415610f52578287015190505b610f5c8582610ee1565b865550610fc3565b601f198416610f7286610d5f565b5f5b82811015610f9957848901518255600182019150602085019450602081019050610f74565b86831015610fb65784890151610fb2601f891682610ec5565b8355505b6001600288020188555050505b505050505050565b610fd481610947565b82525050565b5f610fe48261095f565b610fee8185610b79565b9350610ffe818560208601610979565b61100781610735565b840191505092915050565b5f6080820190506110255f830187610fcb565b81810360208301526110378186610fda565b90506110466040830185610fcb565b81810360608301526110588184610fda565b905095945050505050565b7f4f776e65722063616e6e6f74206265207a65726f2061646472657373000000005f82015250565b5f611097601c83610b79565b91506110a282611063565b602082019050919050565b5f6020820190508181035f8301526110c48161108b565b905091905056fea2646970667358221220bab1e0a9f6963bbcfe543116e4a7a6c16b2f0569b1a3209525ab941f5b366f1164736f6c634300081a0033",
					"opcodes": "PUSH1 0x80 PUSH1 0x40 MSTORE CALLVALUE DUP1 ISZERO PUSH1 0xE JUMPI PUSH0 DUP1 REVERT JUMPDEST POP CALLER PUSH0 DUP1 PUSH2 0x100 EXP DUP2 SLOAD DUP2 PUSH20 0xFFFFFFFFFFFFFFFFFFFFFFFFFFFFFFFFFFFFFFFF MUL NOT AND SWAP1 DUP4 PUSH20 0xFFFFFFFFFFFFFFFFFFFFFFFFFFFFFFFFFFFFFFFF AND MUL OR SWAP1 SSTORE POP PUSH2 0x1101 DUP1 PUSH2 0x5B PUSH0 CODECOPY PUSH0 RETURN INVALID PUSH1 0x80 PUSH1 0x40 MSTORE PUSH1 0x4 CALLDATASIZE LT PUSH2 0x49 JUMPI PUSH0 CALLDATALOAD PUSH1 0xE0 SHR DUP1 PUSH4 0x3AAA74B2 EQ PUSH2 0x4D JUMPI DUP1 PUSH4 0x820C6547 EQ PUSH2 0x63 JUMPI DUP1 PUSH4 0x865C5172 EQ PUSH2 0x7F JUMPI DUP1 PUSH4 0x8DA5CB5B EQ PUSH2 0xA9 JUMPI DUP1 PUSH4 0xA6F9DAE1 EQ PUSH2 0xD3 JUMPI JUMPDEST PUSH0 DUP1 REVERT JUMPDEST CALLVALUE DUP1 ISZERO PUSH2 0x58 JUMPI PUSH0 DUP1 REVERT JUMPDEST POP PUSH2 0x61 PUSH2 0xFB JUMP JUMPDEST STOP JUMPDEST PUSH2 0x7D PUSH1 0x4 DUP1 CALLDATASIZE SUB DUP2 ADD SWAP1 PUSH2 0x78 SWAP2 SWAP1 PUSH2 0x869 JUMP JUMPDEST PUSH2 0x253 JUMP JUMPDEST STOP JUMPDEST CALLVALUE DUP1 ISZERO PUSH2 0x8A JUMPI PUSH0 DUP1 REVERT JUMPDEST POP PUSH2 0x93 PUSH2 0x3D8 JUMP JUMPDEST PUSH1 0x40 MLOAD PUSH2 0xA0 SWAP2 SWAP1 PUSH2 0xACB JUMP JUMPDEST PUSH1 0x40 MLOAD DUP1 SWAP2 SUB SWAP1 RETURN JUMPDEST CALLVALUE DUP1 ISZERO PUSH2 0xB4 JUMPI PUSH0 DUP1 REVERT JUMPDEST POP PUSH2 0xBD PUSH2 0x5BC JUMP JUMPDEST PUSH1 0x40 MLOAD PUSH2 0xCA SWAP2 SWAP1 PUSH2 0xB0B JUMP JUMPDEST PUSH1 0x40 MLOAD DUP1 SWAP2 SUB SWAP1 RETURN JUMPDEST CALLVALUE DUP1 ISZERO PUSH2 0xDE JUMPI PUSH0 DUP1 REVERT JUMPDEST POP PUSH2 0xF9 PUSH1 0x4 DUP1 CALLDATASIZE SUB DUP2 ADD SWAP1 PUSH2 0xF4 SWAP2 SWAP1 PUSH2 0xB4E JUMP JUMPDEST PUSH2 0x5DF JUMP JUMPDEST STOP JUMPDEST PUSH0 DUP1 SLOAD SWAP1 PUSH2 0x100 EXP SWAP1 DIV PUSH20 0xFFFFFFFFFFFFFFFFFFFFFFFFFFFFFFFFFFFFFFFF AND PUSH20 0xFFFFFFFFFFFFFFFFFFFFFFFFFFFFFFFFFFFFFFFF AND CALLER PUSH20 0xFFFFFFFFFFFFFFFFFFFFFFFFFFFFFFFFFFFFFFFF AND EQ PUSH2 0x188 JUMPI PUSH1 0x40 MLOAD PUSH32 0x8C379A000000000000000000000000000000000000000000000000000000000 DUP2 MSTORE PUSH1 0x4 ADD PUSH2 0x17F SWAP1 PUSH2 0xBD3 JUMP JUMPDEST PUSH1 0x40 MLOAD DUP1 SWAP2 SUB SWAP1 REVERT JUMPDEST PUSH0 DUP1 PUSH0 SWAP1 SLOAD SWAP1 PUSH2 0x100 EXP SWAP1 DIV PUSH20 0xFFFFFFFFFFFFFFFFFFFFFFFFFFFFFFFFFFFFFFFF AND PUSH20 0xFFFFFFFFFFFFFFFFFFFFFFFFFFFFFFFFFFFFFFFF AND SELFBALANCE PUSH1 0x40 MLOAD PUSH2 0x1CD SWAP1 PUSH2 0xC1E JUMP JUMPDEST PUSH0 PUSH1 0x40 MLOAD DUP1 DUP4 SUB DUP2 DUP6 DUP8 GAS CALL SWAP3 POP POP POP RETURNDATASIZE DUP1 PUSH0 DUP2 EQ PUSH2 0x207 JUMPI PUSH1 0x40 MLOAD SWAP2 POP PUSH1 0x1F NOT PUSH1 0x3F RETURNDATASIZE ADD AND DUP3 ADD PUSH1 0x40 MSTORE RETURNDATASIZE DUP3 MSTORE RETURNDATASIZE PUSH0 PUSH1 0x20 DUP5 ADD RETURNDATACOPY PUSH2 0x20C JUMP JUMPDEST PUSH1 0x60 SWAP2 POP JUMPDEST POP POP SWAP1 POP DUP1 PUSH2 0x250 JUMPI PUSH1 0x40 MLOAD PUSH32 0x8C379A000000000000000000000000000000000000000000000000000000000 DUP2 MSTORE PUSH1 0x4 ADD PUSH2 0x247 SWAP1 PUSH2 0xC7C JUMP JUMPDEST PUSH1 0x40 MLOAD DUP1 SWAP2 SUB SWAP1 REVERT JUMPDEST POP JUMP JUMPDEST PUSH0 CALLVALUE GT PUSH2 0x295 JUMPI PUSH1 0x40 MLOAD PUSH32 0x8C379A000000000000000000000000000000000000000000000000000000000 DUP2 MSTORE PUSH1 0x4 ADD PUSH2 0x28C SWAP1 PUSH2 0xCE4 JUMP JUMPDEST PUSH1 0x40 MLOAD DUP1 SWAP2 SUB SWAP1 REVERT JUMPDEST PUSH1 0x1 PUSH1 0x40 MLOAD DUP1 PUSH1 0xA0 ADD PUSH1 0x40 MSTORE DUP1 CALLER PUSH20 0xFFFFFFFFFFFFFFFFFFFFFFFFFFFFFFFFFFFFFFFF AND DUP2 MSTORE PUSH1 0x20 ADD TIMESTAMP DUP2 MSTORE PUSH1 0x20 ADD DUP5 DUP2 MSTORE PUSH1 0x20 ADD CALLVALUE DUP2 MSTORE PUSH1 0x20 ADD DUP4 DUP2 MSTORE POP SWAP1 DUP1 PUSH1 0x1 DUP2 SLOAD ADD DUP1 DUP3 SSTORE DUP1 SWAP2 POP POP PUSH1 0x1 SWAP1 SUB SWAP1 PUSH0 MSTORE PUSH1 0x20 PUSH0 KECCAK256 SWAP1 PUSH1 0x5 MUL ADD PUSH0 SWAP1 SWAP2 SWAP1 SWAP2 SWAP1 SWAP2 POP PUSH0 DUP3 ADD MLOAD DUP2 PUSH0 ADD PUSH0 PUSH2 0x100 EXP DUP2 SLOAD DUP2 PUSH20 0xFFFFFFFFFFFFFFFFFFFFFFFFFFFFFFFFFFFFFFFF MUL NOT AND SWAP1 DUP4 PUSH20 0xFFFFFFFFFFFFFFFFFFFFFFFFFFFFFFFFFFFFFFFF AND MUL OR SWAP1 SSTORE POP PUSH1 0x20 DUP3 ADD MLOAD DUP2 PUSH1 0x1 ADD SSTORE PUSH1 0x40 DUP3 ADD MLOAD DUP2 PUSH1 0x2 ADD SWAP1 DUP2 PUSH2 0x35D SWAP2 SWAP1 PUSH2 0xEFC JUMP JUMPDEST POP PUSH1 0x60 DUP3 ADD MLOAD DUP2 PUSH1 0x3 ADD SSTORE PUSH1 0x80 DUP3 ADD MLOAD DUP2 PUSH1 0x4 ADD SWAP1 DUP2 PUSH2 0x37D SWAP2 SWAP1 PUSH2 0xEFC JUMP JUMPDEST POP POP POP CALLER PUSH20 0xFFFFFFFFFFFFFFFFFFFFFFFFFFFFFFFFFFFFFFFF AND PUSH32 0xCFBB19DD23456C22FFF7D12D16F5A08CBEDF033D880A716AB99D47BAC1B2E06E TIMESTAMP DUP5 CALLVALUE DUP6 PUSH1 0x40 MLOAD PUSH2 0x3CC SWAP5 SWAP4 SWAP3 SWAP2 SWAP1 PUSH2 0x1012 JUMP JUMPDEST PUSH1 0x40 MLOAD DUP1 SWAP2 SUB SWAP1 LOG2 POP POP JUMP JUMPDEST PUSH1 0x60 PUSH1 0x1 DUP1 SLOAD DUP1 PUSH1 0x20 MUL PUSH1 0x20 ADD PUSH1 0x40 MLOAD SWAP1 DUP2 ADD PUSH1 0x40 MSTORE DUP1 SWAP3 SWAP2 SWAP1 DUP2 DUP2 MSTORE PUSH1 0x20 ADD PUSH0 SWAP1 JUMPDEST DUP3 DUP3 LT ISZERO PUSH2 0x5B3 JUMPI DUP4 DUP3 SWAP1 PUSH0 MSTORE PUSH1 0x20 PUSH0 KECCAK256 SWAP1 PUSH1 0x5 MUL ADD PUSH1 0x40 MLOAD DUP1 PUSH1 0xA0 ADD PUSH1 0x40 MSTORE SWAP1 DUP2 PUSH0 DUP3 ADD PUSH0 SWAP1 SLOAD SWAP1 PUSH2 0x100 EXP SWAP1 DIV PUSH20 0xFFFFFFFFFFFFFFFFFFFFFFFFFFFFFFFFFFFFFFFF AND PUSH20 0xFFFFFFFFFFFFFFFFFFFFFFFFFFFFFFFFFFFFFFFF AND PUSH20 0xFFFFFFFFFFFFFFFFFFFFFFFFFFFFFFFFFFFFFFFF AND DUP2 MSTORE PUSH1 0x20 ADD PUSH1 0x1 DUP3 ADD SLOAD DUP2 MSTORE PUSH1 0x20 ADD PUSH1 0x2 DUP3 ADD DUP1 SLOAD PUSH2 0x48A SWAP1 PUSH2 0xD2F JUMP JUMPDEST DUP1 PUSH1 0x1F ADD PUSH1 0x20 DUP1 SWAP2 DIV MUL PUSH1 0x20 ADD PUSH1 0x40 MLOAD SWAP1 DUP2 ADD PUSH1 0x40 MSTORE DUP1 SWAP3 SWAP2 SWAP1 DUP2 DUP2 MSTORE PUSH1 0x20 ADD DUP3 DUP1 SLOAD PUSH2 0x4B6 SWAP1 PUSH2 0xD2F JUMP JUMPDEST DUP1 ISZERO PUSH2 0x501 JUMPI DUP1 PUSH1 0x1F LT PUSH2 0x4D8 JUMPI PUSH2 0x100 DUP1 DUP4 SLOAD DIV MUL DUP4 MSTORE SWAP2 PUSH1 0x20 ADD SWAP2 PUSH2 0x501 JUMP JUMPDEST DUP3 ADD SWAP2 SWAP1 PUSH0 MSTORE PUSH1 0x20 PUSH0 KECCAK256 SWAP1 JUMPDEST DUP2 SLOAD DUP2 MSTORE SWAP1 PUSH1 0x1 ADD SWAP1 PUSH1 0x20 ADD DUP1 DUP4 GT PUSH2 0x4E4 JUMPI DUP3 SWAP1 SUB PUSH1 0x1F AND DUP3 ADD SWAP2 JUMPDEST POP POP POP POP POP DUP2 MSTORE PUSH1 0x20 ADD PUSH1 0x3 DUP3 ADD SLOAD DUP2 MSTORE PUSH1 0x20 ADD PUSH1 0x4 DUP3 ADD DUP1 SLOAD PUSH2 0x524 SWAP1 PUSH2 0xD2F JUMP JUMPDEST DUP1 PUSH1 0x1F ADD PUSH1 0x20 DUP1 SWAP2 DIV MUL PUSH1 0x20 ADD PUSH1 0x40 MLOAD SWAP1 DUP2 ADD PUSH1 0x40 MSTORE DUP1 SWAP3 SWAP2 SWAP1 DUP2 DUP2 MSTORE PUSH1 0x20 ADD DUP3 DUP1 SLOAD PUSH2 0x550 SWAP1 PUSH2 0xD2F JUMP JUMPDEST DUP1 ISZERO PUSH2 0x59B JUMPI DUP1 PUSH1 0x1F LT PUSH2 0x572 JUMPI PUSH2 0x100 DUP1 DUP4 SLOAD DIV MUL DUP4 MSTORE SWAP2 PUSH1 0x20 ADD SWAP2 PUSH2 0x59B JUMP JUMPDEST DUP3 ADD SWAP2 SWAP1 PUSH0 MSTORE PUSH1 0x20 PUSH0 KECCAK256 SWAP1 JUMPDEST DUP2 SLOAD DUP2 MSTORE SWAP1 PUSH1 0x1 ADD SWAP1 PUSH1 0x20 ADD DUP1 DUP4 GT PUSH2 0x57E JUMPI DUP3 SWAP1 SUB PUSH1 0x1F AND DUP3 ADD SWAP2 JUMPDEST POP POP POP POP POP DUP2 MSTORE POP POP DUP2 MSTORE PUSH1 0x20 ADD SWAP1 PUSH1 0x1 ADD SWAP1 PUSH2 0x3FB JUMP JUMPDEST POP POP POP POP SWAP1 POP SWAP1 JUMP JUMPDEST PUSH0 DUP1 SLOAD SWAP1 PUSH2 0x100 EXP SWAP1 DIV PUSH20 0xFFFFFFFFFFFFFFFFFFFFFFFFFFFFFFFFFFFFFFFF AND DUP2 JUMP JUMPDEST PUSH0 DUP1 SLOAD SWAP1 PUSH2 0x100 EXP SWAP1 DIV PUSH20 0xFFFFFFFFFFFFFFFFFFFFFFFFFFFFFFFFFFFFFFFF AND PUSH20 0xFFFFFFFFFFFFFFFFFFFFFFFFFFFFFFFFFFFFFFFF AND CALLER PUSH20 0xFFFFFFFFFFFFFFFFFFFFFFFFFFFFFFFFFFFFFFFF AND EQ PUSH2 0x66C JUMPI PUSH1 0x40 MLOAD PUSH32 0x8C379A000000000000000000000000000000000000000000000000000000000 DUP2 MSTORE PUSH1 0x4 ADD PUSH2 0x663 SWAP1 PUSH2 0xBD3 JUMP JUMPDEST PUSH1 0x40 MLOAD DUP1 SWAP2 SUB SWAP1 REVERT JUMPDEST PUSH0 PUSH20 0xFFFFFFFFFFFFFFFFFFFFFFFFFFFFFFFFFFFFFFFF AND DUP2 PUSH20 0xFFFFFFFFFFFFFFFFFFFFFFFFFFFFFFFFFFFFFFFF AND SUB PUSH2 0x6DA JUMPI PUSH1 0x40 MLOAD PUSH32 0x8C379A000000000000000000000000000000000000000000000000000000000 DUP2 MSTORE PUSH1 0x4 ADD PUSH2 0x6D1 SWAP1 PUSH2 0x10AD JUMP JUMPDEST PUSH1 0x40 MLOAD DUP1 SWAP2 SUB SWAP1 REVERT JUMPDEST DUP1 PUSH0 DUP1 PUSH2 0x100 EXP DUP2 SLOAD DUP2 PUSH20 0xFFFFFFFFFFFFFFFFFFFFFFFFFFFFFFFFFFFFFFFF MUL NOT AND SWAP1 DUP4 PUSH20 0xFFFFFFFFFFFFFFFFFFFFFFFFFFFFFFFFFFFFFFFF AND MUL OR SWAP1 SSTORE POP POP JUMP JUMPDEST PUSH0 PUSH1 0x40 MLOAD SWAP1 POP SWAP1 JUMP JUMPDEST PUSH0 DUP1 REVERT JUMPDEST PUSH0 DUP1 REVERT JUMPDEST PUSH0 DUP1 REVERT JUMPDEST PUSH0 DUP1 REVERT JUMPDEST PUSH0 PUSH1 0x1F NOT PUSH1 0x1F DUP4 ADD AND SWAP1 POP SWAP2 SWAP1 POP JUMP JUMPDEST PUSH32 0x4E487B7100000000000000000000000000000000000000000000000000000000 PUSH0 MSTORE PUSH1 0x41 PUSH1 0x4 MSTORE PUSH1 0x24 PUSH0 REVERT JUMPDEST PUSH2 0x77B DUP3 PUSH2 0x735 JUMP JUMPDEST DUP2 ADD DUP2 DUP2 LT PUSH8 0xFFFFFFFFFFFFFFFF DUP3 GT OR ISZERO PUSH2 0x79A JUMPI PUSH2 0x799 PUSH2 0x745 JUMP JUMPDEST JUMPDEST DUP1 PUSH1 0x40 MSTORE POP POP POP JUMP JUMPDEST PUSH0 PUSH2 0x7AC PUSH2 0x71C JUMP JUMPDEST SWAP1 POP PUSH2 0x7B8 DUP3 DUP3 PUSH2 0x772 JUMP JUMPDEST SWAP2 SWAP1 POP JUMP JUMPDEST PUSH0 PUSH8 0xFFFFFFFFFFFFFFFF DUP3 GT ISZERO PUSH2 0x7D7 JUMPI PUSH2 0x7D6 PUSH2 0x745 JUMP JUMPDEST JUMPDEST PUSH2 0x7E0 DUP3 PUSH2 0x735 JUMP JUMPDEST SWAP1 POP PUSH1 0x20 DUP2 ADD SWAP1 POP SWAP2 SWAP1 POP JUMP JUMPDEST DUP3 DUP2 DUP4 CALLDATACOPY PUSH0 DUP4 DUP4 ADD MSTORE POP POP POP JUMP JUMPDEST PUSH0 PUSH2 0x80D PUSH2 0x808 DUP5 PUSH2 0x7BD JUMP JUMPDEST PUSH2 0x7A3 JUMP JUMPDEST SWAP1 POP DUP3 DUP2 MSTORE PUSH1 0x20 DUP2 ADD DUP5 DUP5 DUP5 ADD GT ISZERO PUSH2 0x829 JUMPI PUSH2 0x828 PUSH2 0x731 JUMP JUMPDEST JUMPDEST PUSH2 0x834 DUP5 DUP3 DUP6 PUSH2 0x7ED JUMP JUMPDEST POP SWAP4 SWAP3 POP POP POP JUMP JUMPDEST PUSH0 DUP3 PUSH1 0x1F DUP4 ADD SLT PUSH2 0x850 JUMPI PUSH2 0x84F PUSH2 0x72D JUMP JUMPDEST JUMPDEST DUP2 CALLDATALOAD PUSH2 0x860 DUP5 DUP3 PUSH1 0x20 DUP7 ADD PUSH2 0x7FB JUMP JUMPDEST SWAP2 POP POP SWAP3 SWAP2 POP POP JUMP JUMPDEST PUSH0 DUP1 PUSH1 0x40 DUP4 DUP6 SUB SLT ISZERO PUSH2 0x87F JUMPI PUSH2 0x87E PUSH2 0x725 JUMP JUMPDEST JUMPDEST PUSH0 DUP4 ADD CALLDATALOAD PUSH8 0xFFFFFFFFFFFFFFFF DUP2 GT ISZERO PUSH2 0x89C JUMPI PUSH2 0x89B PUSH2 0x729 JUMP JUMPDEST JUMPDEST PUSH2 0x8A8 DUP6 DUP3 DUP7 ADD PUSH2 0x83C JUMP JUMPDEST SWAP3 POP POP PUSH1 0x20 DUP4 ADD CALLDATALOAD PUSH8 0xFFFFFFFFFFFFFFFF DUP2 GT ISZERO PUSH2 0x8C9 JUMPI PUSH2 0x8C8 PUSH2 0x729 JUMP JUMPDEST JUMPDEST PUSH2 0x8D5 DUP6 DUP3 DUP7 ADD PUSH2 0x83C JUMP JUMPDEST SWAP2 POP POP SWAP3 POP SWAP3 SWAP1 POP JUMP JUMPDEST PUSH0 DUP2 MLOAD SWAP1 POP SWAP2 SWAP1 POP JUMP JUMPDEST PUSH0 DUP3 DUP3 MSTORE PUSH1 0x20 DUP3 ADD SWAP1 POP SWAP3 SWAP2 POP POP JUMP JUMPDEST PUSH0 DUP2 SWAP1 POP PUSH1 0x20 DUP3 ADD SWAP1 POP SWAP2 SWAP1 POP JUMP JUMPDEST PUSH0 PUSH20 0xFFFFFFFFFFFFFFFFFFFFFFFFFFFFFFFFFFFFFFFF DUP3 AND SWAP1 POP SWAP2 SWAP1 POP JUMP JUMPDEST PUSH0 PUSH2 0x931 DUP3 PUSH2 0x908 JUMP JUMPDEST SWAP1 POP SWAP2 SWAP1 POP JUMP JUMPDEST PUSH2 0x941 DUP2 PUSH2 0x927 JUMP JUMPDEST DUP3 MSTORE POP POP JUMP JUMPDEST PUSH0 DUP2 SWAP1 POP SWAP2 SWAP1 POP JUMP JUMPDEST PUSH2 0x959 DUP2 PUSH2 0x947 JUMP JUMPDEST DUP3 MSTORE POP POP JUMP JUMPDEST PUSH0 DUP2 MLOAD SWAP1 POP SWAP2 SWAP1 POP JUMP JUMPDEST PUSH0 DUP3 DUP3 MSTORE PUSH1 0x20 DUP3 ADD SWAP1 POP SWAP3 SWAP2 POP POP JUMP JUMPDEST DUP3 DUP2 DUP4 MCOPY PUSH0 DUP4 DUP4 ADD MSTORE POP POP POP JUMP JUMPDEST PUSH0 PUSH2 0x991 DUP3 PUSH2 0x95F JUMP JUMPDEST PUSH2 0x99B DUP2 DUP6 PUSH2 0x969 JUMP JUMPDEST SWAP4 POP PUSH2 0x9AB DUP2 DUP6 PUSH1 0x20 DUP7 ADD PUSH2 0x979 JUMP JUMPDEST PUSH2 0x9B4 DUP2 PUSH2 0x735 JUMP JUMPDEST DUP5 ADD SWAP2 POP POP SWAP3 SWAP2 POP POP JUMP JUMPDEST PUSH0 PUSH1 0xA0 DUP4 ADD PUSH0 DUP4 ADD MLOAD PUSH2 0x9D4 PUSH0 DUP7 ADD DUP3 PUSH2 0x938 JUMP JUMPDEST POP PUSH1 0x20 DUP4 ADD MLOAD PUSH2 0x9E7 PUSH1 0x20 DUP7 ADD DUP3 PUSH2 0x950 JUMP JUMPDEST POP PUSH1 0x40 DUP4 ADD MLOAD DUP5 DUP3 SUB PUSH1 0x40 DUP7 ADD MSTORE PUSH2 0x9FF DUP3 DUP3 PUSH2 0x987 JUMP JUMPDEST SWAP2 POP POP PUSH1 0x60 DUP4 ADD MLOAD PUSH2 0xA14 PUSH1 0x60 DUP7 ADD DUP3 PUSH2 0x950 JUMP JUMPDEST POP PUSH1 0x80 DUP4 ADD MLOAD DUP5 DUP3 SUB PUSH1 0x80 DUP7 ADD MSTORE PUSH2 0xA2C DUP3 DUP3 PUSH2 0x987 JUMP JUMPDEST SWAP2 POP POP DUP1 SWAP2 POP POP SWAP3 SWAP2 POP POP JUMP JUMPDEST PUSH0 PUSH2 0xA44 DUP4 DUP4 PUSH2 0x9BF JUMP JUMPDEST SWAP1 POP SWAP3 SWAP2 POP POP JUMP JUMPDEST PUSH0 PUSH1 0x20 DUP3 ADD SWAP1 POP SWAP2 SWAP1 POP JUMP JUMPDEST PUSH0 PUSH2 0xA62 DUP3 PUSH2 0x8DF JUMP JUMPDEST PUSH2 0xA6C DUP2 DUP6 PUSH2 0x8E9 JUMP JUMPDEST SWAP4 POP DUP4 PUSH1 0x20 DUP3 MUL DUP6 ADD PUSH2 0xA7E DUP6 PUSH2 0x8F9 JUMP JUMPDEST DUP1 PUSH0 JUMPDEST DUP6 DUP2 LT ISZERO PUSH2 0xAB9 JUMPI DUP5 DUP5 SUB DUP10 MSTORE DUP2 MLOAD PUSH2 0xA9A DUP6 DUP3 PUSH2 0xA39 JUMP JUMPDEST SWAP5 POP PUSH2 0xAA5 DUP4 PUSH2 0xA4C JUMP JUMPDEST SWAP3 POP PUSH1 0x20 DUP11 ADD SWAP10 POP POP PUSH1 0x1 DUP2 ADD SWAP1 POP PUSH2 0xA81 JUMP JUMPDEST POP DUP3 SWAP8 POP DUP8 SWAP6 POP POP POP POP POP POP SWAP3 SWAP2 POP POP JUMP JUMPDEST PUSH0 PUSH1 0x20 DUP3 ADD SWAP1 POP DUP2 DUP2 SUB PUSH0 DUP4 ADD MSTORE PUSH2 0xAE3 DUP2 DUP5 PUSH2 0xA58 JUMP JUMPDEST SWAP1 POP SWAP3 SWAP2 POP POP JUMP JUMPDEST PUSH0 PUSH2 0xAF5 DUP3 PUSH2 0x908 JUMP JUMPDEST SWAP1 POP SWAP2 SWAP1 POP JUMP JUMPDEST PUSH2 0xB05 DUP2 PUSH2 0xAEB JUMP JUMPDEST DUP3 MSTORE POP POP JUMP JUMPDEST PUSH0 PUSH1 0x20 DUP3 ADD SWAP1 POP PUSH2 0xB1E PUSH0 DUP4 ADD DUP5 PUSH2 0xAFC JUMP JUMPDEST SWAP3 SWAP2 POP POP JUMP JUMPDEST PUSH2 0xB2D DUP2 PUSH2 0x927 JUMP JUMPDEST DUP2 EQ PUSH2 0xB37 JUMPI PUSH0 DUP1 REVERT JUMPDEST POP JUMP JUMPDEST PUSH0 DUP2 CALLDATALOAD SWAP1 POP PUSH2 0xB48 DUP2 PUSH2 0xB24 JUMP JUMPDEST SWAP3 SWAP2 POP POP JUMP JUMPDEST PUSH0 PUSH1 0x20 DUP3 DUP5 SUB SLT ISZERO PUSH2 0xB63 JUMPI PUSH2 0xB62 PUSH2 0x725 JUMP JUMPDEST JUMPDEST PUSH0 PUSH2 0xB70 DUP5 DUP3 DUP6 ADD PUSH2 0xB3A JUMP JUMPDEST SWAP2 POP POP SWAP3 SWAP2 POP POP JUMP JUMPDEST PUSH0 DUP3 DUP3 MSTORE PUSH1 0x20 DUP3 ADD SWAP1 POP SWAP3 SWAP2 POP POP JUMP JUMPDEST PUSH32 0x596F7520617265206E6F74206F776E6572000000000000000000000000000000 PUSH0 DUP3 ADD MSTORE POP JUMP JUMPDEST PUSH0 PUSH2 0xBBD PUSH1 0x11 DUP4 PUSH2 0xB79 JUMP JUMPDEST SWAP2 POP PUSH2 0xBC8 DUP3 PUSH2 0xB89 JUMP JUMPDEST PUSH1 0x20 DUP3 ADD SWAP1 POP SWAP2 SWAP1 POP JUMP JUMPDEST PUSH0 PUSH1 0x20 DUP3 ADD SWAP1 POP DUP2 DUP2 SUB PUSH0 DUP4 ADD MSTORE PUSH2 0xBEA DUP2 PUSH2 0xBB1 JUMP JUMPDEST SWAP1 POP SWAP2 SWAP1 POP JUMP JUMPDEST PUSH0 DUP2 SWAP1 POP SWAP3 SWAP2 POP POP JUMP JUMPDEST POP JUMP JUMPDEST PUSH0 PUSH2 0xC09 PUSH0 DUP4 PUSH2 0xBF1 JUMP JUMPDEST SWAP2 POP PUSH2 0xC14 DUP3 PUSH2 0xBFB JUMP JUMPDEST PUSH0 DUP3 ADD SWAP1 POP SWAP2 SWAP1 POP JUMP JUMPDEST PUSH0 PUSH2 0xC28 DUP3 PUSH2 0xBFE JUMP JUMPDEST SWAP2 POP DUP2 SWAP1 POP SWAP2 SWAP1 POP JUMP JUMPDEST PUSH32 0x5769746864726177616C206661696C6564000000000000000000000000000000 PUSH0 DUP3 ADD MSTORE POP JUMP JUMPDEST PUSH0 PUSH2 0xC66 PUSH1 0x11 DUP4 PUSH2 0xB79 JUMP JUMPDEST SWAP2 POP PUSH2 0xC71 DUP3 PUSH2 0xC32 JUMP JUMPDEST PUSH1 0x20 DUP3 ADD SWAP1 POP SWAP2 SWAP1 POP JUMP JUMPDEST PUSH0 PUSH1 0x20 DUP3 ADD SWAP1 POP DUP2 DUP2 SUB PUSH0 DUP4 ADD MSTORE PUSH2 0xC93 DUP2 PUSH2 0xC5A JUMP JUMPDEST SWAP1 POP SWAP2 SWAP1 POP JUMP JUMPDEST PUSH32 0x43616E6E6F742062757920636F6666656520666F722066726565210000000000 PUSH0 DUP3 ADD MSTORE POP JUMP JUMPDEST PUSH0 PUSH2 0xCCE PUSH1 0x1B DUP4 PUSH2 0xB79 JUMP JUMPDEST SWAP2 POP PUSH2 0xCD9 DUP3 PUSH2 0xC9A JUMP JUMPDEST PUSH1 0x20 DUP3 ADD SWAP1 POP SWAP2 SWAP1 POP JUMP JUMPDEST PUSH0 PUSH1 0x20 DUP3 ADD SWAP1 POP DUP2 DUP2 SUB PUSH0 DUP4 ADD MSTORE PUSH2 0xCFB DUP2 PUSH2 0xCC2 JUMP JUMPDEST SWAP1 POP SWAP2 SWAP1 POP JUMP JUMPDEST PUSH32 0x4E487B7100000000000000000000000000000000000000000000000000000000 PUSH0 MSTORE PUSH1 0x22 PUSH1 0x4 MSTORE PUSH1 0x24 PUSH0 REVERT JUMPDEST PUSH0 PUSH1 0x2 DUP3 DIV SWAP1 POP PUSH1 0x1 DUP3 AND DUP1 PUSH2 0xD46 JUMPI PUSH1 0x7F DUP3 AND SWAP2 POP JUMPDEST PUSH1 0x20 DUP3 LT DUP2 SUB PUSH2 0xD59 JUMPI PUSH2 0xD58 PUSH2 0xD02 JUMP JUMPDEST JUMPDEST POP SWAP2 SWAP1 POP JUMP JUMPDEST PUSH0 DUP2 SWAP1 POP DUP2 PUSH0 MSTORE PUSH1 0x20 PUSH0 KECCAK256 SWAP1 POP SWAP2 SWAP1 POP JUMP JUMPDEST PUSH0 PUSH1 0x20 PUSH1 0x1F DUP4 ADD DIV SWAP1 POP SWAP2 SWAP1 POP JUMP JUMPDEST PUSH0 DUP3 DUP3 SHL SWAP1 POP SWAP3 SWAP2 POP POP JUMP JUMPDEST PUSH0 PUSH1 0x8 DUP4 MUL PUSH2 0xDBB PUSH32 0xFFFFFFFFFFFFFFFFFFFFFFFFFFFFFFFFFFFFFFFFFFFFFFFFFFFFFFFFFFFFFFFF DUP3 PUSH2 0xD80 JUMP JUMPDEST PUSH2 0xDC5 DUP7 DUP4 PUSH2 0xD80 JUMP JUMPDEST SWAP6 POP DUP1 NOT DUP5 AND SWAP4 POP DUP1 DUP7 AND DUP5 OR SWAP3 POP POP POP SWAP4 SWAP3 POP POP POP JUMP JUMPDEST PUSH0 DUP2 SWAP1 POP SWAP2 SWAP1 POP JUMP JUMPDEST PUSH0 PUSH2 0xE00 PUSH2 0xDFB PUSH2 0xDF6 DUP5 PUSH2 0x947 JUMP JUMPDEST PUSH2 0xDDD JUMP JUMPDEST PUSH2 0x947 JUMP JUMPDEST SWAP1 POP SWAP2 SWAP1 POP JUMP JUMPDEST PUSH0 DUP2 SWAP1 POP SWAP2 SWAP1 POP JUMP JUMPDEST PUSH2 0xE19 DUP4 PUSH2 0xDE6 JUMP JUMPDEST PUSH2 0xE2D PUSH2 0xE25 DUP3 PUSH2 0xE07 JUMP JUMPDEST DUP5 DUP5 SLOAD PUSH2 0xD8C JUMP JUMPDEST DUP3 SSTORE POP POP POP POP JUMP JUMPDEST PUSH0 SWAP1 JUMP JUMPDEST PUSH2 0xE41 PUSH2 0xE35 JUMP JUMPDEST PUSH2 0xE4C DUP2 DUP5 DUP5 PUSH2 0xE10 JUMP JUMPDEST POP POP POP JUMP JUMPDEST JUMPDEST DUP2 DUP2 LT ISZERO PUSH2 0xE6F JUMPI PUSH2 0xE64 PUSH0 DUP3 PUSH2 0xE39 JUMP JUMPDEST PUSH1 0x1 DUP2 ADD SWAP1 POP PUSH2 0xE52 JUMP JUMPDEST POP POP JUMP JUMPDEST PUSH1 0x1F DUP3 GT ISZERO PUSH2 0xEB4 JUMPI PUSH2 0xE85 DUP2 PUSH2 0xD5F JUMP JUMPDEST PUSH2 0xE8E DUP5 PUSH2 0xD71 JUMP JUMPDEST DUP2 ADD PUSH1 0x20 DUP6 LT ISZERO PUSH2 0xE9D JUMPI DUP2 SWAP1 POP JUMPDEST PUSH2 0xEB1 PUSH2 0xEA9 DUP6 PUSH2 0xD71 JUMP JUMPDEST DUP4 ADD DUP3 PUSH2 0xE51 JUMP JUMPDEST POP POP JUMPDEST POP POP POP JUMP JUMPDEST PUSH0 DUP3 DUP3 SHR SWAP1 POP SWAP3 SWAP2 POP POP JUMP JUMPDEST PUSH0 PUSH2 0xED4 PUSH0 NOT DUP5 PUSH1 0x8 MUL PUSH2 0xEB9 JUMP JUMPDEST NOT DUP1 DUP4 AND SWAP2 POP POP SWAP3 SWAP2 POP POP JUMP JUMPDEST PUSH0 PUSH2 0xEEC DUP4 DUP4 PUSH2 0xEC5 JUMP JUMPDEST SWAP2 POP DUP3 PUSH1 0x2 MUL DUP3 OR SWAP1 POP SWAP3 SWAP2 POP POP JUMP JUMPDEST PUSH2 0xF05 DUP3 PUSH2 0x95F JUMP JUMPDEST PUSH8 0xFFFFFFFFFFFFFFFF DUP2 GT ISZERO PUSH2 0xF1E JUMPI PUSH2 0xF1D PUSH2 0x745 JUMP JUMPDEST JUMPDEST PUSH2 0xF28 DUP3 SLOAD PUSH2 0xD2F JUMP JUMPDEST PUSH2 0xF33 DUP3 DUP3 DUP6 PUSH2 0xE73 JUMP JUMPDEST PUSH0 PUSH1 0x20 SWAP1 POP PUSH1 0x1F DUP4 GT PUSH1 0x1 DUP2 EQ PUSH2 0xF64 JUMPI PUSH0 DUP5 ISZERO PUSH2 0xF52 JUMPI DUP3 DUP8 ADD MLOAD SWAP1 POP JUMPDEST PUSH2 0xF5C DUP6 DUP3 PUSH2 0xEE1 JUMP JUMPDEST DUP7 SSTORE POP PUSH2 0xFC3 JUMP JUMPDEST PUSH1 0x1F NOT DUP5 AND PUSH2 0xF72 DUP7 PUSH2 0xD5F JUMP JUMPDEST PUSH0 JUMPDEST DUP3 DUP2 LT ISZERO PUSH2 0xF99 JUMPI DUP5 DUP10 ADD MLOAD DUP3 SSTORE PUSH1 0x1 DUP3 ADD SWAP2 POP PUSH1 0x20 DUP6 ADD SWAP5 POP PUSH1 0x20 DUP2 ADD SWAP1 POP PUSH2 0xF74 JUMP JUMPDEST DUP7 DUP4 LT ISZERO PUSH2 0xFB6 JUMPI DUP5 DUP10 ADD MLOAD PUSH2 0xFB2 PUSH1 0x1F DUP10 AND DUP3 PUSH2 0xEC5 JUMP JUMPDEST DUP4 SSTORE POP JUMPDEST PUSH1 0x1 PUSH1 0x2 DUP9 MUL ADD DUP9 SSTORE POP POP POP JUMPDEST POP POP POP POP POP POP JUMP JUMPDEST PUSH2 0xFD4 DUP2 PUSH2 0x947 JUMP JUMPDEST DUP3 MSTORE POP POP JUMP JUMPDEST PUSH0 PUSH2 0xFE4 DUP3 PUSH2 0x95F JUMP JUMPDEST PUSH2 0xFEE DUP2 DUP6 PUSH2 0xB79 JUMP JUMPDEST SWAP4 POP PUSH2 0xFFE DUP2 DUP6 PUSH1 0x20 DUP7 ADD PUSH2 0x979 JUMP JUMPDEST PUSH2 0x1007 DUP2 PUSH2 0x735 JUMP JUMPDEST DUP5 ADD SWAP2 POP POP SWAP3 SWAP2 POP POP JUMP JUMPDEST PUSH0 PUSH1 0x80 DUP3 ADD SWAP1 POP PUSH2 0x1025 PUSH0 DUP4 ADD DUP8 PUSH2 0xFCB JUMP JUMPDEST DUP2 DUP2 SUB PUSH1 0x20 DUP4 ADD MSTORE PUSH2 0x1037 DUP2 DUP7 PUSH2 0xFDA JUMP JUMPDEST SWAP1 POP PUSH2 0x1046 PUSH1 0x40 DUP4 ADD DUP6 PUSH2 0xFCB JUMP JUMPDEST DUP2 DUP2 SUB PUSH1 0x60 DUP4 ADD MSTORE PUSH2 0x1058 DUP2 DUP5 PUSH2 0xFDA JUMP JUMPDEST SWAP1 POP SWAP6 SWAP5 POP POP POP POP POP JUMP JUMPDEST PUSH32 0x4F776E65722063616E6E6F74206265207A65726F206164647265737300000000 PUSH0 DUP3 ADD MSTORE POP JUMP JUMPDEST PUSH0 PUSH2 0x1097 PUSH1 0x1C DUP4 PUSH2 0xB79 JUMP JUMPDEST SWAP2 POP PUSH2 0x10A2 DUP3 PUSH2 0x1063 JUMP JUMPDEST PUSH1 0x20 DUP3 ADD SWAP1 POP SWAP2 SWAP1 POP JUMP JUMPDEST PUSH0 PUSH1 0x20 DUP3 ADD SWAP1 POP DUP2 DUP2 SUB PUSH0 DUP4 ADD MSTORE PUSH2 0x10C4 DUP2 PUSH2 0x108B JUMP JUMPDEST SWAP1 POP SWAP2 SWAP1 POP JUMP INVALID LOG2 PUSH5 0x6970667358 0x22 SLT KECCAK256 0xBA 0xB1 0xE0 0xA9 0xF6 SWAP7 EXTCODESIZE 0xBC INVALID SLOAD BALANCE AND 0xE4 0xA7 0xA6 0xC1 PUSH12 0x2F0569B1A3209525AB941F5B CALLDATASIZE PUSH16 0x1164736F6C634300081A003300000000 "
				},
				"gasEstimates": {
					"creation": {
						"codeDepositCost": "870600",
						"executionCost": "25172",
						"totalCost": "895772"
					},
					"external": {
						"buyCoffer(string,string)": "infinite",
						"changeOwner(address)": "26981",
						"getMemos()": "infinite",
						"owner()": "2549",
						"withdrawTips()": "infinite"
					}
				},
				"methodIdentifiers": {
					"buyCoffer(string,string)": "820c6547",
					"changeOwner(address)": "a6f9dae1",
					"getMemos()": "865c5172",
					"owner()": "8da5cb5b",
					"withdrawTips()": "3aaa74b2"
				}
			},
			"storageLayout": {
				"storage": [
					{
						"astId": 26,
						"contract": "contracts/BuyMeACoffe.sol:BuyMeACoffee",
						"label": "owner",
						"offset": 0,
						"slot": "0",
						"type": "t_address_payable"
					},
					{
						"astId": 30,
						"contract": "contracts/BuyMeACoffe.sol:BuyMeACoffee",
						"label": "memos",
						"offset": 0,
						"slot": "1",
						"type": "t_array(t_struct(Memo)24_storage)dyn_storage"
					}
				],
				"types": {
					"t_address": {
						"encoding": "inplace",
						"label": "address",
						"numberOfBytes": "20"
					},
					"t_address_payable": {
						"encoding": "inplace",
						"label": "address payable",
						"numberOfBytes": "20"
					},
					"t_array(t_struct(Memo)24_storage)dyn_storage": {
						"base": "t_struct(Memo)24_storage",
						"encoding": "dynamic_array",
						"label": "struct BuyMeACoffee.Memo[]",
						"numberOfBytes": "32"
					},
					"t_string_storage": {
						"encoding": "bytes",
						"label": "string",
						"numberOfBytes": "32"
					},
					"t_struct(Memo)24_storage": {
						"encoding": "inplace",
						"label": "struct BuyMeACoffee.Memo",
						"members": [
							{
								"astId": 15,
								"contract": "contracts/BuyMeACoffe.sol:BuyMeACoffee",
								"label": "from",
								"offset": 0,
								"slot": "0",
								"type": "t_address"
							},
							{
								"astId": 17,
								"contract": "contracts/BuyMeACoffe.sol:BuyMeACoffee",
								"label": "timestamp",
								"offset": 0,
								"slot": "1",
								"type": "t_uint256"
							},
							{
								"astId": 19,
								"contract": "contracts/BuyMeACoffe.sol:BuyMeACoffee",
								"label": "name",
								"offset": 0,
								"slot": "2",
								"type": "t_string_storage"
							},
							{
								"astId": 21,
								"contract": "contracts/BuyMeACoffe.sol:BuyMeACoffee",
								"label": "amount",
								"offset": 0,
								"slot": "3",
								"type": "t_uint256"
							},
							{
								"astId": 23,
								"contract": "contracts/BuyMeACoffe.sol:BuyMeACoffee",
								"label": "message",
								"offset": 0,
								"slot": "4",
								"type": "t_string_storage"
							}
						],
						"numberOfBytes": "160"
					},
					"t_uint256": {
						"encoding": "inplace",
						"label": "uint256",
						"numberOfBytes": "32"
					}
				}
			},
			"userdoc": {
				"kind": "user",
				"methods": {},
				"version": 1
			}
		}
	}
}