{
	"contracts/BlogPost.sol": {
		"BlogPost": {
			"abi": [
				{
					"anonymous": false,
					"inputs": [
						{
							"indexed": false,
							"internalType": "uint256",
							"name": "postId",
							"type": "uint256"
						},
						{
							"indexed": false,
							"internalType": "uint256",
							"name": "commentId",
							"type": "uint256"
						},
						{
							"indexed": true,
							"internalType": "address",
							"name": "commenter",
							"type": "address"
						},
						{
							"indexed": false,
							"internalType": "string",
							"name": "content",
							"type": "string"
						},
						{
							"indexed": false,
							"internalType": "uint256",
							"name": "timestamp",
							"type": "uint256"
						}
					],
					"name": "CommentAdded",
					"type": "event"
				},
				{
					"anonymous": false,
					"inputs": [
						{
							"indexed": false,
							"internalType": "uint256",
							"name": "postId",
							"type": "uint256"
						},
						{
							"indexed": true,
							"internalType": "address",
							"name": "author",
							"type": "address"
						},
						{
							"indexed": false,
							"internalType": "string",
							"name": "content",
							"type": "string"
						},
						{
							"indexed": false,
							"internalType": "uint256",
							"name": "timestamp",
							"type": "uint256"
						}
					],
					"name": "PostCreated",
					"type": "event"
				},
				{
					"inputs": [
						{
							"internalType": "uint256",
							"name": "_postId",
							"type": "uint256"
						},
						{
							"internalType": "string",
							"name": "_content",
							"type": "string"
						}
					],
					"name": "addComment",
					"outputs": [],
					"stateMutability": "nonpayable",
					"type": "function"
				},
				{
					"inputs": [
						{
							"internalType": "uint256",
							"name": "",
							"type": "uint256"
						},
						{
							"internalType": "uint256",
							"name": "",
							"type": "uint256"
						}
					],
					"name": "comments",
					"outputs": [
						{
							"internalType": "uint256",
							"name": "id",
							"type": "uint256"
						},
						{
							"internalType": "address",
							"name": "commenter",
							"type": "address"
						},
						{
							"internalType": "string",
							"name": "content",
							"type": "string"
						},
						{
							"internalType": "uint256",
							"name": "timestamp",
							"type": "uint256"
						}
					],
					"stateMutability": "view",
					"type": "function"
				},
				{
					"inputs": [
						{
							"internalType": "string",
							"name": "_content",
							"type": "string"
						}
					],
					"name": "createPost",
					"outputs": [],
					"stateMutability": "nonpayable",
					"type": "function"
				},
				{
					"inputs": [
						{
							"internalType": "uint256",
							"name": "_postId",
							"type": "uint256"
						},
						{
							"internalType": "uint256",
							"name": "_commentId",
							"type": "uint256"
						}
					],
					"name": "getComment",
					"outputs": [
						{
							"internalType": "uint256",
							"name": "",
							"type": "uint256"
						},
						{
							"internalType": "address",
							"name": "",
							"type": "address"
						},
						{
							"internalType": "string",
							"name": "",
							"type": "string"
						},
						{
							"internalType": "uint256",
							"name": "",
							"type": "uint256"
						}
					],
					"stateMutability": "view",
					"type": "function"
				},
				{
					"inputs": [
						{
							"internalType": "uint256",
							"name": "_postId",
							"type": "uint256"
						}
					],
					"name": "getPost",
					"outputs": [
						{
							"internalType": "uint256",
							"name": "",
							"type": "uint256"
						},
						{
							"internalType": "address",
							"name": "",
							"type": "address"
						},
						{
							"internalType": "string",
							"name": "",
							"type": "string"
						},
						{
							"internalType": "uint256",
							"name": "",
							"type": "uint256"
						},
						{
							"internalType": "uint256",
							"name": "",
							"type": "uint256"
						}
					],
					"stateMutability": "view",
					"type": "function"
				},
				{
					"inputs": [
						{
							"internalType": "uint256",
							"name": "",
							"type": "uint256"
						}
					],
					"name": "posts",
					"outputs": [
						{
							"internalType": "uint256",
							"name": "id",
							"type": "uint256"
						},
						{
							"internalType": "address",
							"name": "author",
							"type": "address"
						},
						{
							"internalType": "string",
							"name": "content",
							"type": "string"
						},
						{
							"internalType": "uint256",
							"name": "commentCount",
							"type": "uint256"
						},
						{
							"internalType": "uint256",
							"name": "timestamp",
							"type": "uint256"
						}
					],
					"stateMutability": "view",
					"type": "function"
				}
			],
			"devdoc": {
				"kind": "dev",
				"methods": {},
				"version": 1
			},
			"evm": {
				"assembly": "    /* \"contracts/BlogPost.sol\":61:2332  contract BlogPost {... */\n  mstore(0x40, 0x80)\n    /* \"contracts/BlogPost.sol\":706:707  1 */\n  0x01\n    /* \"contracts/BlogPost.sol\":680:707  uint private nextPostId = 1 */\n  0x02\n  sstore\n    /* \"contracts/BlogPost.sol\":61:2332  contract BlogPost {... */\n  callvalue\n  dup1\n  iszero\n  tag_1\n  jumpi\n  revert(0x00, 0x00)\ntag_1:\n  pop\n  dataSize(sub_0)\n  dup1\n  dataOffset(sub_0)\n  0x00\n  codecopy\n  0x00\n  return\nstop\n\nsub_0: assembly {\n        /* \"contracts/BlogPost.sol\":61:2332  contract BlogPost {... */\n      mstore(0x40, 0x80)\n      callvalue\n      dup1\n      iszero\n      tag_1\n      jumpi\n      revert(0x00, 0x00)\n    tag_1:\n      pop\n      jumpi(tag_2, lt(calldatasize, 0x04))\n      shr(0xe0, calldataload(0x00))\n      dup1\n      0x0b1e7f83\n      eq\n      tag_3\n      jumpi\n      dup1\n      0x40731c24\n      eq\n      tag_4\n      jumpi\n      dup1\n      0x48892753\n      eq\n      tag_5\n      jumpi\n      dup1\n      0xaa7e5683\n      eq\n      tag_6\n      jumpi\n      dup1\n      0xc7303c61\n      eq\n      tag_7\n      jumpi\n      dup1\n      0xfc6c776f\n      eq\n      tag_8\n      jumpi\n    tag_2:\n      revert(0x00, 0x00)\n        /* \"contracts/BlogPost.sol\":364:398  mapping(uint => Post) public posts */\n    tag_3:\n      tag_9\n      0x04\n      dup1\n      calldatasize\n      sub\n      dup2\n      add\n      swap1\n      tag_10\n      swap2\n      swap1\n      tag_11\n      jump\t// in\n    tag_10:\n      tag_12\n      jump\t// in\n    tag_9:\n      mload(0x40)\n      tag_13\n      swap6\n      swap5\n      swap4\n      swap3\n      swap2\n      swap1\n      tag_14\n      jump\t// in\n    tag_13:\n      mload(0x40)\n      dup1\n      swap2\n      sub\n      swap1\n      return\n        /* \"contracts/BlogPost.sol\":1585:1884  function getPost(uint _postId) public view returns (uint, address, string memory, uint, uint) {... */\n    tag_4:\n      tag_15\n      0x04\n      dup1\n      calldatasize\n      sub\n      dup2\n      add\n      swap1\n      tag_16\n      swap2\n      swap1\n      tag_11\n      jump\t// in\n    tag_16:\n      tag_17\n      jump\t// in\n    tag_15:\n      mload(0x40)\n      tag_18\n      swap6\n      swap5\n      swap4\n      swap3\n      swap2\n      swap1\n      tag_14\n      jump\t// in\n    tag_18:\n      mload(0x40)\n      dup1\n      swap2\n      sub\n      swap1\n      return\n        /* \"contracts/BlogPost.sol\":1892:2329  function getComment(uint _postId, uint _commentId) public view returns (uint, address, string memory, uint) {... */\n    tag_5:\n      tag_19\n      0x04\n      dup1\n      calldatasize\n      sub\n      dup2\n      add\n      swap1\n      tag_20\n      swap2\n      swap1\n      tag_21\n      jump\t// in\n    tag_20:\n      tag_22\n      jump\t// in\n    tag_19:\n      mload(0x40)\n      tag_23\n      swap5\n      swap4\n      swap3\n      swap2\n      swap1\n      tag_24\n      jump\t// in\n    tag_23:\n      mload(0x40)\n      dup1\n      swap2\n      sub\n      swap1\n      return\n        /* \"contracts/BlogPost.sol\":1077:1577  function addComment(uint _postId, string memory _content) public {... */\n    tag_6:\n      tag_25\n      0x04\n      dup1\n      calldatasize\n      sub\n      dup2\n      add\n      swap1\n      tag_26\n      swap2\n      swap1\n      tag_27\n      jump\t// in\n    tag_26:\n      tag_28\n      jump\t// in\n    tag_25:\n      stop\n        /* \"contracts/BlogPost.sol\":717:1069  function createPost(string memory _content) public {... */\n    tag_7:\n      tag_29\n      0x04\n      dup1\n      calldatasize\n      sub\n      dup2\n      add\n      swap1\n      tag_30\n      swap2\n      swap1\n      tag_31\n      jump\t// in\n    tag_30:\n      tag_32\n      jump\t// in\n    tag_29:\n      stop\n        /* \"contracts/BlogPost.sol\":405:462  mapping(uint => mapping(uint => Comment)) public comments */\n    tag_8:\n      tag_33\n      0x04\n      dup1\n      calldatasize\n      sub\n      dup2\n      add\n      swap1\n      tag_34\n      swap2\n      swap1\n      tag_21\n      jump\t// in\n    tag_34:\n      tag_35\n      jump\t// in\n    tag_33:\n      mload(0x40)\n      tag_36\n      swap5\n      swap4\n      swap3\n      swap2\n      swap1\n      tag_24\n      jump\t// in\n    tag_36:\n      mload(0x40)\n      dup1\n      swap2\n      sub\n      swap1\n      return\n        /* \"contracts/BlogPost.sol\":364:398  mapping(uint => Post) public posts */\n    tag_12:\n      mstore(0x20, 0x00)\n      dup1\n      0x00\n      mstore\n      keccak256(0x00, 0x40)\n      0x00\n      swap2\n      pop\n      swap1\n      pop\n      dup1\n      0x00\n      add\n      sload\n      swap1\n      dup1\n      0x01\n      add\n      0x00\n      swap1\n      sload\n      swap1\n      0x0100\n      exp\n      swap1\n      div\n      0xffffffffffffffffffffffffffffffffffffffff\n      and\n      swap1\n      dup1\n      0x02\n      add\n      dup1\n      sload\n      tag_37\n      swap1\n      tag_38\n      jump\t// in\n    tag_37:\n      dup1\n      0x1f\n      add\n      0x20\n      dup1\n      swap2\n      div\n      mul\n      0x20\n      add\n      mload(0x40)\n      swap1\n      dup2\n      add\n      0x40\n      mstore\n      dup1\n      swap3\n      swap2\n      swap1\n      dup2\n      dup2\n      mstore\n      0x20\n      add\n      dup3\n      dup1\n      sload\n      tag_39\n      swap1\n      tag_38\n      jump\t// in\n    tag_39:\n      dup1\n      iszero\n      tag_40\n      jumpi\n      dup1\n      0x1f\n      lt\n      tag_41\n      jumpi\n      0x0100\n      dup1\n      dup4\n      sload\n      div\n      mul\n      dup4\n      mstore\n      swap2\n      0x20\n      add\n      swap2\n      jump(tag_40)\n    tag_41:\n      dup3\n      add\n      swap2\n      swap1\n      0x00\n      mstore\n      keccak256(0x00, 0x20)\n      swap1\n    tag_42:\n      dup2\n      sload\n      dup2\n      mstore\n      swap1\n      0x01\n      add\n      swap1\n      0x20\n      add\n      dup1\n      dup4\n      gt\n      tag_42\n      jumpi\n      dup3\n      swap1\n      sub\n      0x1f\n      and\n      dup3\n      add\n      swap2\n    tag_40:\n      pop\n      pop\n      pop\n      pop\n      pop\n      swap1\n      dup1\n      0x03\n      add\n      sload\n      swap1\n      dup1\n      0x04\n      add\n      sload\n      swap1\n      pop\n      dup6\n      jump\t// out\n        /* \"contracts/BlogPost.sol\":1585:1884  function getPost(uint _postId) public view returns (uint, address, string memory, uint, uint) {... */\n    tag_17:\n        /* \"contracts/BlogPost.sol\":1637:1641  uint */\n      0x00\n        /* \"contracts/BlogPost.sol\":1643:1650  address */\n      0x00\n        /* \"contracts/BlogPost.sol\":1652:1665  string memory */\n      0x60\n        /* \"contracts/BlogPost.sol\":1667:1671  uint */\n      0x00\n        /* \"contracts/BlogPost.sol\":1673:1677  uint */\n      0x00\n        /* \"contracts/BlogPost.sol\":1718:1719  0 */\n      0x00\n        /* \"contracts/BlogPost.sol\":1698:1703  posts */\n      0x00\n        /* \"contracts/BlogPost.sol\":1698:1712  posts[_postId] */\n      0x00\n        /* \"contracts/BlogPost.sol\":1704:1711  _postId */\n      dup9\n        /* \"contracts/BlogPost.sol\":1698:1712  posts[_postId] */\n      dup2\n      mstore\n      0x20\n      add\n      swap1\n      dup2\n      mstore\n      0x20\n      add\n      0x00\n      keccak256\n        /* \"contracts/BlogPost.sol\":1698:1715  posts[_postId].id */\n      0x00\n      add\n      sload\n        /* \"contracts/BlogPost.sol\":1698:1719  posts[_postId].id > 0 */\n      gt\n        /* \"contracts/BlogPost.sol\":1690:1743  require(posts[_postId].id > 0, \"Post does not exist\") */\n      tag_44\n      jumpi\n      mload(0x40)\n      0x08c379a000000000000000000000000000000000000000000000000000000000\n      dup2\n      mstore\n      0x04\n      add\n      tag_45\n      swap1\n      tag_46\n      jump\t// in\n    tag_45:\n      mload(0x40)\n      dup1\n      swap2\n      sub\n      swap1\n      revert\n    tag_44:\n        /* \"contracts/BlogPost.sol\":1754:1770  Post memory post */\n      0x00\n        /* \"contracts/BlogPost.sol\":1773:1778  posts */\n      0x00\n        /* \"contracts/BlogPost.sol\":1773:1787  posts[_postId] */\n      0x00\n        /* \"contracts/BlogPost.sol\":1779:1786  _postId */\n      dup9\n        /* \"contracts/BlogPost.sol\":1773:1787  posts[_postId] */\n      dup2\n      mstore\n      0x20\n      add\n      swap1\n      dup2\n      mstore\n      0x20\n      add\n      0x00\n      keccak256\n        /* \"contracts/BlogPost.sol\":1754:1787  Post memory post = posts[_postId] */\n      mload(0x40)\n      dup1\n      0xa0\n      add\n      0x40\n      mstore\n      swap1\n      dup2\n      0x00\n      dup3\n      add\n      sload\n      dup2\n      mstore\n      0x20\n      add\n      0x01\n      dup3\n      add\n      0x00\n      swap1\n      sload\n      swap1\n      0x0100\n      exp\n      swap1\n      div\n      0xffffffffffffffffffffffffffffffffffffffff\n      and\n      0xffffffffffffffffffffffffffffffffffffffff\n      and\n      0xffffffffffffffffffffffffffffffffffffffff\n      and\n      dup2\n      mstore\n      0x20\n      add\n      0x02\n      dup3\n      add\n      dup1\n      sload\n      tag_47\n      swap1\n      tag_38\n      jump\t// in\n    tag_47:\n      dup1\n      0x1f\n      add\n      0x20\n      dup1\n      swap2\n      div\n      mul\n      0x20\n      add\n      mload(0x40)\n      swap1\n      dup2\n      add\n      0x40\n      mstore\n      dup1\n      swap3\n      swap2\n      swap1\n      dup2\n      dup2\n      mstore\n      0x20\n      add\n      dup3\n      dup1\n      sload\n      tag_48\n      swap1\n      tag_38\n      jump\t// in\n    tag_48:\n      dup1\n      iszero\n      tag_49\n      jumpi\n      dup1\n      0x1f\n      lt\n      tag_50\n      jumpi\n      0x0100\n      dup1\n      dup4\n      sload\n      div\n      mul\n      dup4\n      mstore\n      swap2\n      0x20\n      add\n      swap2\n      jump(tag_49)\n    tag_50:\n      dup3\n      add\n      swap2\n      swap1\n      0x00\n      mstore\n      keccak256(0x00, 0x20)\n      swap1\n    tag_51:\n      dup2\n      sload\n      dup2\n      mstore\n      swap1\n      0x01\n      add\n      swap1\n      0x20\n      add\n      dup1\n      dup4\n      gt\n      tag_51\n      jumpi\n      dup3\n      swap1\n      sub\n      0x1f\n      and\n      dup3\n      add\n      swap2\n    tag_49:\n      pop\n      pop\n      pop\n      pop\n      pop\n      dup2\n      mstore\n      0x20\n      add\n      0x03\n      dup3\n      add\n      sload\n      dup2\n      mstore\n      0x20\n      add\n      0x04\n      dup3\n      add\n      sload\n      dup2\n      mstore\n      pop\n      pop\n      swap1\n      pop\n        /* \"contracts/BlogPost.sol\":1806:1810  post */\n      dup1\n        /* \"contracts/BlogPost.sol\":1806:1813  post.id */\n      0x00\n      add\n      mload\n        /* \"contracts/BlogPost.sol\":1815:1819  post */\n      dup2\n        /* \"contracts/BlogPost.sol\":1815:1826  post.author */\n      0x20\n      add\n      mload\n        /* \"contracts/BlogPost.sol\":1828:1832  post */\n      dup3\n        /* \"contracts/BlogPost.sol\":1828:1840  post.content */\n      0x40\n      add\n      mload\n        /* \"contracts/BlogPost.sol\":1842:1846  post */\n      dup4\n        /* \"contracts/BlogPost.sol\":1842:1859  post.commentCount */\n      0x60\n      add\n      mload\n        /* \"contracts/BlogPost.sol\":1861:1865  post */\n      dup5\n        /* \"contracts/BlogPost.sol\":1861:1875  post.timestamp */\n      0x80\n      add\n      mload\n        /* \"contracts/BlogPost.sol\":1798:1876  return (post.id, post.author, post.content, post.commentCount, post.timestamp) */\n      swap6\n      pop\n      swap6\n      pop\n      swap6\n      pop\n      swap6\n      pop\n      swap6\n      pop\n      pop\n        /* \"contracts/BlogPost.sol\":1585:1884  function getPost(uint _postId) public view returns (uint, address, string memory, uint, uint) {... */\n      swap2\n      swap4\n      swap6\n      swap1\n      swap3\n      swap5\n      pop\n      jump\t// out\n        /* \"contracts/BlogPost.sol\":1892:2329  function getComment(uint _postId, uint _commentId) public view returns (uint, address, string memory, uint) {... */\n    tag_22:\n        /* \"contracts/BlogPost.sol\":1964:1968  uint */\n      0x00\n        /* \"contracts/BlogPost.sol\":1970:1977  address */\n      0x00\n        /* \"contracts/BlogPost.sol\":1979:1992  string memory */\n      0x60\n        /* \"contracts/BlogPost.sol\":1994:1998  uint */\n      0x00\n        /* \"contracts/BlogPost.sol\":2039:2040  0 */\n      0x00\n        /* \"contracts/BlogPost.sol\":2019:2024  posts */\n      0x00\n        /* \"contracts/BlogPost.sol\":2019:2033  posts[_postId] */\n      0x00\n        /* \"contracts/BlogPost.sol\":2025:2032  _postId */\n      dup9\n        /* \"contracts/BlogPost.sol\":2019:2033  posts[_postId] */\n      dup2\n      mstore\n      0x20\n      add\n      swap1\n      dup2\n      mstore\n      0x20\n      add\n      0x00\n      keccak256\n        /* \"contracts/BlogPost.sol\":2019:2036  posts[_postId].id */\n      0x00\n      add\n      sload\n        /* \"contracts/BlogPost.sol\":2019:2040  posts[_postId].id > 0 */\n      gt\n        /* \"contracts/BlogPost.sol\":2011:2064  require(posts[_postId].id > 0, \"Post does not exist\") */\n      tag_53\n      jumpi\n      mload(0x40)\n      0x08c379a000000000000000000000000000000000000000000000000000000000\n      dup2\n      mstore\n      0x04\n      add\n      tag_54\n      swap1\n      tag_46\n      jump\t// in\n    tag_54:\n      mload(0x40)\n      dup1\n      swap2\n      sub\n      swap1\n      revert\n    tag_53:\n        /* \"contracts/BlogPost.sol\":2096:2097  0 */\n      0x00\n        /* \"contracts/BlogPost.sol\":2083:2093  _commentId */\n      dup6\n        /* \"contracts/BlogPost.sol\":2083:2097  _commentId > 0 */\n      gt\n        /* \"contracts/BlogPost.sol\":2083:2142  _commentId > 0 && _commentId <= posts[_postId].commentCount */\n      dup1\n      iszero\n      tag_55\n      jumpi\n      pop\n        /* \"contracts/BlogPost.sol\":2115:2120  posts */\n      0x00\n        /* \"contracts/BlogPost.sol\":2115:2129  posts[_postId] */\n      0x00\n        /* \"contracts/BlogPost.sol\":2121:2128  _postId */\n      dup8\n        /* \"contracts/BlogPost.sol\":2115:2129  posts[_postId] */\n      dup2\n      mstore\n      0x20\n      add\n      swap1\n      dup2\n      mstore\n      0x20\n      add\n      0x00\n      keccak256\n        /* \"contracts/BlogPost.sol\":2115:2142  posts[_postId].commentCount */\n      0x03\n      add\n      sload\n        /* \"contracts/BlogPost.sol\":2101:2111  _commentId */\n      dup6\n        /* \"contracts/BlogPost.sol\":2101:2142  _commentId <= posts[_postId].commentCount */\n      gt\n      iszero\n        /* \"contracts/BlogPost.sol\":2083:2142  _commentId > 0 && _commentId <= posts[_postId].commentCount */\n    tag_55:\n        /* \"contracts/BlogPost.sol\":2075:2169  require(_commentId > 0 && _commentId <= posts[_postId].commentCount, \"Comment does not exist\") */\n      tag_56\n      jumpi\n      mload(0x40)\n      0x08c379a000000000000000000000000000000000000000000000000000000000\n      dup2\n      mstore\n      0x04\n      add\n      tag_57\n      swap1\n      tag_58\n      jump\t// in\n    tag_57:\n      mload(0x40)\n      dup1\n      swap2\n      sub\n      swap1\n      revert\n    tag_56:\n        /* \"contracts/BlogPost.sol\":2182:2204  Comment memory comment */\n      0x00\n        /* \"contracts/BlogPost.sol\":2207:2215  comments */\n      0x01\n        /* \"contracts/BlogPost.sol\":2207:2224  comments[_postId] */\n      0x00\n        /* \"contracts/BlogPost.sol\":2216:2223  _postId */\n      dup9\n        /* \"contracts/BlogPost.sol\":2207:2224  comments[_postId] */\n      dup2\n      mstore\n      0x20\n      add\n      swap1\n      dup2\n      mstore\n      0x20\n      add\n      0x00\n      keccak256\n        /* \"contracts/BlogPost.sol\":2207:2236  comments[_postId][_commentId] */\n      0x00\n        /* \"contracts/BlogPost.sol\":2225:2235  _commentId */\n      dup8\n        /* \"contracts/BlogPost.sol\":2207:2236  comments[_postId][_commentId] */\n      dup2\n      mstore\n      0x20\n      add\n      swap1\n      dup2\n      mstore\n      0x20\n      add\n      0x00\n      keccak256\n        /* \"contracts/BlogPost.sol\":2182:2236  Comment memory comment = comments[_postId][_commentId] */\n      mload(0x40)\n      dup1\n      0x80\n      add\n      0x40\n      mstore\n      swap1\n      dup2\n      0x00\n      dup3\n      add\n      sload\n      dup2\n      mstore\n      0x20\n      add\n      0x01\n      dup3\n      add\n      0x00\n      swap1\n      sload\n      swap1\n      0x0100\n      exp\n      swap1\n      div\n      0xffffffffffffffffffffffffffffffffffffffff\n      and\n      0xffffffffffffffffffffffffffffffffffffffff\n      and\n      0xffffffffffffffffffffffffffffffffffffffff\n      and\n      dup2\n      mstore\n      0x20\n      add\n      0x02\n      dup3\n      add\n      dup1\n      sload\n      tag_59\n      swap1\n      tag_38\n      jump\t// in\n    tag_59:\n      dup1\n      0x1f\n      add\n      0x20\n      dup1\n      swap2\n      div\n      mul\n      0x20\n      add\n      mload(0x40)\n      swap1\n      dup2\n      add\n      0x40\n      mstore\n      dup1\n      swap3\n      swap2\n      swap1\n      dup2\n      dup2\n      mstore\n      0x20\n      add\n      dup3\n      dup1\n      sload\n      tag_60\n      swap1\n      tag_38\n      jump\t// in\n    tag_60:\n      dup1\n      iszero\n      tag_61\n      jumpi\n      dup1\n      0x1f\n      lt\n      tag_62\n      jumpi\n      0x0100\n      dup1\n      dup4\n      sload\n      div\n      mul\n      dup4\n      mstore\n      swap2\n      0x20\n      add\n      swap2\n      jump(tag_61)\n    tag_62:\n      dup3\n      add\n      swap2\n      swap1\n      0x00\n      mstore\n      keccak256(0x00, 0x20)\n      swap1\n    tag_63:\n      dup2\n      sload\n      dup2\n      mstore\n      swap1\n      0x01\n      add\n      swap1\n      0x20\n      add\n      dup1\n      dup4\n      gt\n      tag_63\n      jumpi\n      dup3\n      swap1\n      sub\n      0x1f\n      and\n      dup3\n      add\n      swap2\n    tag_61:\n      pop\n      pop\n      pop\n      pop\n      pop\n      dup2\n      mstore\n      0x20\n      add\n      0x03\n      dup3\n      add\n      sload\n      dup2\n      mstore\n      pop\n      pop\n      swap1\n      pop\n        /* \"contracts/BlogPost.sol\":2255:2262  comment */\n      dup1\n        /* \"contracts/BlogPost.sol\":2255:2265  comment.id */\n      0x00\n      add\n      mload\n        /* \"contracts/BlogPost.sol\":2267:2274  comment */\n      dup2\n        /* \"contracts/BlogPost.sol\":2267:2284  comment.commenter */\n      0x20\n      add\n      mload\n        /* \"contracts/BlogPost.sol\":2286:2293  comment */\n      dup3\n        /* \"contracts/BlogPost.sol\":2286:2301  comment.content */\n      0x40\n      add\n      mload\n        /* \"contracts/BlogPost.sol\":2303:2310  comment */\n      dup4\n        /* \"contracts/BlogPost.sol\":2303:2320  comment.timestamp */\n      0x60\n      add\n      mload\n        /* \"contracts/BlogPost.sol\":2247:2321  return (comment.id, comment.commenter, comment.content, comment.timestamp) */\n      swap5\n      pop\n      swap5\n      pop\n      swap5\n      pop\n      swap5\n      pop\n      pop\n        /* \"contracts/BlogPost.sol\":1892:2329  function getComment(uint _postId, uint _commentId) public view returns (uint, address, string memory, uint) {... */\n      swap3\n      swap6\n      swap2\n      swap5\n      pop\n      swap3\n      pop\n      jump\t// out\n        /* \"contracts/BlogPost.sol\":1077:1577  function addComment(uint _postId, string memory _content) public {... */\n    tag_28:\n        /* \"contracts/BlogPost.sol\":1186:1187  0 */\n      0x00\n        /* \"contracts/BlogPost.sol\":1167:1175  _content */\n      dup2\n        /* \"contracts/BlogPost.sol\":1161:1183  bytes(_content).length */\n      mload\n        /* \"contracts/BlogPost.sol\":1161:1187  bytes(_content).length > 0 */\n      gt\n        /* \"contracts/BlogPost.sol\":1153:1215  require(bytes(_content).length > 0, \"Comment cannot be empty\") */\n      tag_65\n      jumpi\n      mload(0x40)\n      0x08c379a000000000000000000000000000000000000000000000000000000000\n      dup2\n      mstore\n      0x04\n      add\n      tag_66\n      swap1\n      tag_67\n      jump\t// in\n    tag_66:\n      mload(0x40)\n      dup1\n      swap2\n      sub\n      swap1\n      revert\n    tag_65:\n        /* \"contracts/BlogPost.sol\":1254:1255  0 */\n      0x00\n        /* \"contracts/BlogPost.sol\":1234:1239  posts */\n      0x00\n        /* \"contracts/BlogPost.sol\":1234:1248  posts[_postId] */\n      0x00\n        /* \"contracts/BlogPost.sol\":1240:1247  _postId */\n      dup5\n        /* \"contracts/BlogPost.sol\":1234:1248  posts[_postId] */\n      dup2\n      mstore\n      0x20\n      add\n      swap1\n      dup2\n      mstore\n      0x20\n      add\n      0x00\n      keccak256\n        /* \"contracts/BlogPost.sol\":1234:1251  posts[_postId].id */\n      0x00\n      add\n      sload\n        /* \"contracts/BlogPost.sol\":1234:1255  posts[_postId].id > 0 */\n      gt\n        /* \"contracts/BlogPost.sol\":1226:1279  require(posts[_postId].id > 0, \"Post does not exist\") */\n      tag_68\n      jumpi\n      mload(0x40)\n      0x08c379a000000000000000000000000000000000000000000000000000000000\n      dup2\n      mstore\n      0x04\n      add\n      tag_69\n      swap1\n      tag_46\n      jump\t// in\n    tag_69:\n      mload(0x40)\n      dup1\n      swap2\n      sub\n      swap1\n      revert\n    tag_68:\n        /* \"contracts/BlogPost.sol\":1293:1310  Post storage post */\n      0x00\n        /* \"contracts/BlogPost.sol\":1313:1318  posts */\n      0x00\n        /* \"contracts/BlogPost.sol\":1313:1327  posts[_postId] */\n      0x00\n        /* \"contracts/BlogPost.sol\":1319:1326  _postId */\n      dup5\n        /* \"contracts/BlogPost.sol\":1313:1327  posts[_postId] */\n      dup2\n      mstore\n      0x20\n      add\n      swap1\n      dup2\n      mstore\n      0x20\n      add\n      0x00\n      keccak256\n        /* \"contracts/BlogPost.sol\":1293:1327  Post storage post = posts[_postId] */\n      swap1\n      pop\n        /* \"contracts/BlogPost.sol\":1338:1342  post */\n      dup1\n        /* \"contracts/BlogPost.sol\":1338:1355  post.commentCount */\n      0x03\n      add\n      0x00\n        /* \"contracts/BlogPost.sol\":1338:1357  post.commentCount++ */\n      dup2\n      sload\n      dup1\n      swap3\n      swap2\n      swap1\n      tag_70\n      swap1\n      tag_71\n      jump\t// in\n    tag_70:\n      swap2\n      swap1\n      pop\n      sstore\n      pop\n        /* \"contracts/BlogPost.sol\":1407:1472  Comment(post.commentCount, msg.sender, _content, block.timestamp) */\n      mload(0x40)\n      dup1\n      0x80\n      add\n      0x40\n      mstore\n      dup1\n        /* \"contracts/BlogPost.sol\":1415:1419  post */\n      dup3\n        /* \"contracts/BlogPost.sol\":1415:1432  post.commentCount */\n      0x03\n      add\n      sload\n        /* \"contracts/BlogPost.sol\":1407:1472  Comment(post.commentCount, msg.sender, _content, block.timestamp) */\n      dup2\n      mstore\n      0x20\n      add\n        /* \"contracts/BlogPost.sol\":1434:1444  msg.sender */\n      caller\n        /* \"contracts/BlogPost.sol\":1407:1472  Comment(post.commentCount, msg.sender, _content, block.timestamp) */\n      0xffffffffffffffffffffffffffffffffffffffff\n      and\n      dup2\n      mstore\n      0x20\n      add\n        /* \"contracts/BlogPost.sol\":1446:1454  _content */\n      dup4\n        /* \"contracts/BlogPost.sol\":1407:1472  Comment(post.commentCount, msg.sender, _content, block.timestamp) */\n      dup2\n      mstore\n      0x20\n      add\n        /* \"contracts/BlogPost.sol\":1456:1471  block.timestamp */\n      timestamp\n        /* \"contracts/BlogPost.sol\":1407:1472  Comment(post.commentCount, msg.sender, _content, block.timestamp) */\n      dup2\n      mstore\n      pop\n        /* \"contracts/BlogPost.sol\":1368:1376  comments */\n      0x01\n        /* \"contracts/BlogPost.sol\":1368:1385  comments[_postId] */\n      0x00\n        /* \"contracts/BlogPost.sol\":1377:1384  _postId */\n      dup6\n        /* \"contracts/BlogPost.sol\":1368:1385  comments[_postId] */\n      dup2\n      mstore\n      0x20\n      add\n      swap1\n      dup2\n      mstore\n      0x20\n      add\n      0x00\n      keccak256\n        /* \"contracts/BlogPost.sol\":1368:1404  comments[_postId][post.commentCount] */\n      0x00\n        /* \"contracts/BlogPost.sol\":1386:1390  post */\n      dup4\n        /* \"contracts/BlogPost.sol\":1386:1403  post.commentCount */\n      0x03\n      add\n      sload\n        /* \"contracts/BlogPost.sol\":1368:1404  comments[_postId][post.commentCount] */\n      dup2\n      mstore\n      0x20\n      add\n      swap1\n      dup2\n      mstore\n      0x20\n      add\n      0x00\n      keccak256\n        /* \"contracts/BlogPost.sol\":1368:1472  comments[_postId][post.commentCount] = Comment(post.commentCount, msg.sender, _content, block.timestamp) */\n      0x00\n      dup3\n      add\n      mload\n      dup2\n      0x00\n      add\n      sstore\n      0x20\n      dup3\n      add\n      mload\n      dup2\n      0x01\n      add\n      exp(0x0100, 0x00)\n      dup2\n      sload\n      dup2\n      0xffffffffffffffffffffffffffffffffffffffff\n      mul\n      not\n      and\n      swap1\n      dup4\n      0xffffffffffffffffffffffffffffffffffffffff\n      and\n      mul\n      or\n      swap1\n      sstore\n      pop\n      0x40\n      dup3\n      add\n      mload\n      dup2\n      0x02\n      add\n      swap1\n      dup2\n      tag_72\n      swap2\n      swap1\n      tag_73\n      jump\t// in\n    tag_72:\n      pop\n      0x60\n      dup3\n      add\n      mload\n      dup2\n      0x03\n      add\n      sstore\n      swap1\n      pop\n      pop\n        /* \"contracts/BlogPost.sol\":1531:1541  msg.sender */\n      caller\n        /* \"contracts/BlogPost.sol\":1490:1569  CommentAdded(_postId, post.commentCount, msg.sender, _content, block.timestamp) */\n      0xffffffffffffffffffffffffffffffffffffffff\n      and\n      0x92eb5433849a5a2a1922dadaf613eff78bb7de4173779f8d4683b877aac7260f\n        /* \"contracts/BlogPost.sol\":1503:1510  _postId */\n      dup5\n        /* \"contracts/BlogPost.sol\":1512:1516  post */\n      dup4\n        /* \"contracts/BlogPost.sol\":1512:1529  post.commentCount */\n      0x03\n      add\n      sload\n        /* \"contracts/BlogPost.sol\":1543:1551  _content */\n      dup6\n        /* \"contracts/BlogPost.sol\":1553:1568  block.timestamp */\n      timestamp\n        /* \"contracts/BlogPost.sol\":1490:1569  CommentAdded(_postId, post.commentCount, msg.sender, _content, block.timestamp) */\n      mload(0x40)\n      tag_74\n      swap5\n      swap4\n      swap3\n      swap2\n      swap1\n      tag_75\n      jump\t// in\n    tag_74:\n      mload(0x40)\n      dup1\n      swap2\n      sub\n      swap1\n      log2\n        /* \"contracts/BlogPost.sol\":1142:1577  {... */\n      pop\n        /* \"contracts/BlogPost.sol\":1077:1577  function addComment(uint _postId, string memory _content) public {... */\n      pop\n      pop\n      jump\t// out\n        /* \"contracts/BlogPost.sol\":717:1069  function createPost(string memory _content) public {... */\n    tag_32:\n        /* \"contracts/BlogPost.sol\":812:813  0 */\n      0x00\n        /* \"contracts/BlogPost.sol\":793:801  _content */\n      dup2\n        /* \"contracts/BlogPost.sol\":787:809  bytes(_content).length */\n      mload\n        /* \"contracts/BlogPost.sol\":787:813  bytes(_content).length > 0 */\n      gt\n        /* \"contracts/BlogPost.sol\":779:841  require(bytes(_content).length > 0, \"Content cannot be empty\") */\n      tag_77\n      jumpi\n      mload(0x40)\n      0x08c379a000000000000000000000000000000000000000000000000000000000\n      dup2\n      mstore\n      0x04\n      add\n      tag_78\n      swap1\n      tag_79\n      jump\t// in\n    tag_78:\n      mload(0x40)\n      dup1\n      swap2\n      sub\n      swap1\n      revert\n    tag_77:\n        /* \"contracts/BlogPost.sol\":854:865  uint postId */\n      0x00\n        /* \"contracts/BlogPost.sol\":868:878  nextPostId */\n      sload(0x02)\n        /* \"contracts/BlogPost.sol\":854:878  uint postId = nextPostId */\n      swap1\n      pop\n        /* \"contracts/BlogPost.sol\":890:900  nextPostId */\n      0x02\n      0x00\n        /* \"contracts/BlogPost.sol\":890:902  nextPostId++ */\n      dup2\n      sload\n      dup1\n      swap3\n      swap2\n      swap1\n      tag_80\n      swap1\n      tag_71\n      jump\t// in\n    tag_80:\n      swap2\n      swap1\n      pop\n      sstore\n      pop\n        /* \"contracts/BlogPost.sol\":931:985  Post(postId, msg.sender, _content, 0, block.timestamp) */\n      mload(0x40)\n      dup1\n      0xa0\n      add\n      0x40\n      mstore\n      dup1\n        /* \"contracts/BlogPost.sol\":936:942  postId */\n      dup3\n        /* \"contracts/BlogPost.sol\":931:985  Post(postId, msg.sender, _content, 0, block.timestamp) */\n      dup2\n      mstore\n      0x20\n      add\n        /* \"contracts/BlogPost.sol\":944:954  msg.sender */\n      caller\n        /* \"contracts/BlogPost.sol\":931:985  Post(postId, msg.sender, _content, 0, block.timestamp) */\n      0xffffffffffffffffffffffffffffffffffffffff\n      and\n      dup2\n      mstore\n      0x20\n      add\n        /* \"contracts/BlogPost.sol\":956:964  _content */\n      dup4\n        /* \"contracts/BlogPost.sol\":931:985  Post(postId, msg.sender, _content, 0, block.timestamp) */\n      dup2\n      mstore\n      0x20\n      add\n        /* \"contracts/BlogPost.sol\":966:967  0 */\n      0x00\n        /* \"contracts/BlogPost.sol\":931:985  Post(postId, msg.sender, _content, 0, block.timestamp) */\n      dup2\n      mstore\n      0x20\n      add\n        /* \"contracts/BlogPost.sol\":969:984  block.timestamp */\n      timestamp\n        /* \"contracts/BlogPost.sol\":931:985  Post(postId, msg.sender, _content, 0, block.timestamp) */\n      dup2\n      mstore\n      pop\n        /* \"contracts/BlogPost.sol\":915:920  posts */\n      0x00\n        /* \"contracts/BlogPost.sol\":915:928  posts[postId] */\n      0x00\n        /* \"contracts/BlogPost.sol\":921:927  postId */\n      dup4\n        /* \"contracts/BlogPost.sol\":915:928  posts[postId] */\n      dup2\n      mstore\n      0x20\n      add\n      swap1\n      dup2\n      mstore\n      0x20\n      add\n      0x00\n      keccak256\n        /* \"contracts/BlogPost.sol\":915:985  posts[postId] = Post(postId, msg.sender, _content, 0, block.timestamp) */\n      0x00\n      dup3\n      add\n      mload\n      dup2\n      0x00\n      add\n      sstore\n      0x20\n      dup3\n      add\n      mload\n      dup2\n      0x01\n      add\n      exp(0x0100, 0x00)\n      dup2\n      sload\n      dup2\n      0xffffffffffffffffffffffffffffffffffffffff\n      mul\n      not\n      and\n      swap1\n      dup4\n      0xffffffffffffffffffffffffffffffffffffffff\n      and\n      mul\n      or\n      swap1\n      sstore\n      pop\n      0x40\n      dup3\n      add\n      mload\n      dup2\n      0x02\n      add\n      swap1\n      dup2\n      tag_81\n      swap2\n      swap1\n      tag_73\n      jump\t// in\n    tag_81:\n      pop\n      0x60\n      dup3\n      add\n      mload\n      dup2\n      0x03\n      add\n      sstore\n      0x80\n      dup3\n      add\n      mload\n      dup2\n      0x04\n      add\n      sstore\n      swap1\n      pop\n      pop\n        /* \"contracts/BlogPost.sol\":1023:1033  msg.sender */\n      caller\n        /* \"contracts/BlogPost.sol\":1003:1061  PostCreated(postId, msg.sender, _content, block.timestamp) */\n      0xffffffffffffffffffffffffffffffffffffffff\n      and\n      0x285db98a4632176385795ddf0d2b67cef1a21f47eb2f5d06f786ab6b5147e200\n        /* \"contracts/BlogPost.sol\":1015:1021  postId */\n      dup3\n        /* \"contracts/BlogPost.sol\":1035:1043  _content */\n      dup5\n        /* \"contracts/BlogPost.sol\":1045:1060  block.timestamp */\n      timestamp\n        /* \"contracts/BlogPost.sol\":1003:1061  PostCreated(postId, msg.sender, _content, block.timestamp) */\n      mload(0x40)\n      tag_82\n      swap4\n      swap3\n      swap2\n      swap1\n      tag_83\n      jump\t// in\n    tag_82:\n      mload(0x40)\n      dup1\n      swap2\n      sub\n      swap1\n      log2\n        /* \"contracts/BlogPost.sol\":768:1069  {... */\n      pop\n        /* \"contracts/BlogPost.sol\":717:1069  function createPost(string memory _content) public {... */\n      pop\n      jump\t// out\n        /* \"contracts/BlogPost.sol\":405:462  mapping(uint => mapping(uint => Comment)) public comments */\n    tag_35:\n      mstore(0x20, 0x01)\n      dup2\n      0x00\n      mstore\n      mstore(0x20, keccak256(0x00, 0x40))\n      dup1\n      0x00\n      mstore\n      keccak256(0x00, 0x40)\n      0x00\n      swap2\n      pop\n      swap2\n      pop\n      pop\n      dup1\n      0x00\n      add\n      sload\n      swap1\n      dup1\n      0x01\n      add\n      0x00\n      swap1\n      sload\n      swap1\n      0x0100\n      exp\n      swap1\n      div\n      0xffffffffffffffffffffffffffffffffffffffff\n      and\n      swap1\n      dup1\n      0x02\n      add\n      dup1\n      sload\n      tag_84\n      swap1\n      tag_38\n      jump\t// in\n    tag_84:\n      dup1\n      0x1f\n      add\n      0x20\n      dup1\n      swap2\n      div\n      mul\n      0x20\n      add\n      mload(0x40)\n      swap1\n      dup2\n      add\n      0x40\n      mstore\n      dup1\n      swap3\n      swap2\n      swap1\n      dup2\n      dup2\n      mstore\n      0x20\n      add\n      dup3\n      dup1\n      sload\n      tag_85\n      swap1\n      tag_38\n      jump\t// in\n    tag_85:\n      dup1\n      iszero\n      tag_86\n      jumpi\n      dup1\n      0x1f\n      lt\n      tag_87\n      jumpi\n      0x0100\n      dup1\n      dup4\n      sload\n      div\n      mul\n      dup4\n      mstore\n      swap2\n      0x20\n      add\n      swap2\n      jump(tag_86)\n    tag_87:\n      dup3\n      add\n      swap2\n      swap1\n      0x00\n      mstore\n      keccak256(0x00, 0x20)\n      swap1\n    tag_88:\n      dup2\n      sload\n      dup2\n      mstore\n      swap1\n      0x01\n      add\n      swap1\n      0x20\n      add\n      dup1\n      dup4\n      gt\n      tag_88\n      jumpi\n      dup3\n      swap1\n      sub\n      0x1f\n      and\n      dup3\n      add\n      swap2\n    tag_86:\n      pop\n      pop\n      pop\n      pop\n      pop\n      swap1\n      dup1\n      0x03\n      add\n      sload\n      swap1\n      pop\n      dup5\n      jump\t// out\n        /* \"#utility.yul\":7:82   */\n    tag_89:\n        /* \"#utility.yul\":40:46   */\n      0x00\n        /* \"#utility.yul\":73:75   */\n      0x40\n        /* \"#utility.yul\":67:76   */\n      mload\n        /* \"#utility.yul\":57:76   */\n      swap1\n      pop\n        /* \"#utility.yul\":7:82   */\n      swap1\n      jump\t// out\n        /* \"#utility.yul\":88:205   */\n    tag_90:\n        /* \"#utility.yul\":197:198   */\n      0x00\n        /* \"#utility.yul\":194:195   */\n      0x00\n        /* \"#utility.yul\":187:199   */\n      revert\n        /* \"#utility.yul\":211:328   */\n    tag_91:\n        /* \"#utility.yul\":320:321   */\n      0x00\n        /* \"#utility.yul\":317:318   */\n      0x00\n        /* \"#utility.yul\":310:322   */\n      revert\n        /* \"#utility.yul\":334:411   */\n    tag_92:\n        /* \"#utility.yul\":371:378   */\n      0x00\n        /* \"#utility.yul\":400:405   */\n      dup2\n        /* \"#utility.yul\":389:405   */\n      swap1\n      pop\n        /* \"#utility.yul\":334:411   */\n      swap2\n      swap1\n      pop\n      jump\t// out\n        /* \"#utility.yul\":417:539   */\n    tag_93:\n        /* \"#utility.yul\":490:514   */\n      tag_144\n        /* \"#utility.yul\":508:513   */\n      dup2\n        /* \"#utility.yul\":490:514   */\n      tag_92\n      jump\t// in\n    tag_144:\n        /* \"#utility.yul\":483:488   */\n      dup2\n        /* \"#utility.yul\":480:515   */\n      eq\n        /* \"#utility.yul\":470:533   */\n      tag_145\n      jumpi\n        /* \"#utility.yul\":529:530   */\n      0x00\n        /* \"#utility.yul\":526:527   */\n      0x00\n        /* \"#utility.yul\":519:531   */\n      revert\n        /* \"#utility.yul\":470:533   */\n    tag_145:\n        /* \"#utility.yul\":417:539   */\n      pop\n      jump\t// out\n        /* \"#utility.yul\":545:684   */\n    tag_94:\n        /* \"#utility.yul\":591:596   */\n      0x00\n        /* \"#utility.yul\":629:635   */\n      dup2\n        /* \"#utility.yul\":616:636   */\n      calldataload\n        /* \"#utility.yul\":607:636   */\n      swap1\n      pop\n        /* \"#utility.yul\":645:678   */\n      tag_147\n        /* \"#utility.yul\":672:677   */\n      dup2\n        /* \"#utility.yul\":645:678   */\n      tag_93\n      jump\t// in\n    tag_147:\n        /* \"#utility.yul\":545:684   */\n      swap3\n      swap2\n      pop\n      pop\n      jump\t// out\n        /* \"#utility.yul\":690:1019   */\n    tag_11:\n        /* \"#utility.yul\":749:755   */\n      0x00\n        /* \"#utility.yul\":798:800   */\n      0x20\n        /* \"#utility.yul\":786:795   */\n      dup3\n        /* \"#utility.yul\":777:784   */\n      dup5\n        /* \"#utility.yul\":773:796   */\n      sub\n        /* \"#utility.yul\":769:801   */\n      slt\n        /* \"#utility.yul\":766:885   */\n      iszero\n      tag_149\n      jumpi\n        /* \"#utility.yul\":804:883   */\n      tag_150\n      tag_90\n      jump\t// in\n    tag_150:\n        /* \"#utility.yul\":766:885   */\n    tag_149:\n        /* \"#utility.yul\":924:925   */\n      0x00\n        /* \"#utility.yul\":949:1002   */\n      tag_151\n        /* \"#utility.yul\":994:1001   */\n      dup5\n        /* \"#utility.yul\":985:991   */\n      dup3\n        /* \"#utility.yul\":974:983   */\n      dup6\n        /* \"#utility.yul\":970:992   */\n      add\n        /* \"#utility.yul\":949:1002   */\n      tag_94\n      jump\t// in\n    tag_151:\n        /* \"#utility.yul\":939:1002   */\n      swap2\n      pop\n        /* \"#utility.yul\":895:1012   */\n      pop\n        /* \"#utility.yul\":690:1019   */\n      swap3\n      swap2\n      pop\n      pop\n      jump\t// out\n        /* \"#utility.yul\":1025:1143   */\n    tag_95:\n        /* \"#utility.yul\":1112:1136   */\n      tag_153\n        /* \"#utility.yul\":1130:1135   */\n      dup2\n        /* \"#utility.yul\":1112:1136   */\n      tag_92\n      jump\t// in\n    tag_153:\n        /* \"#utility.yul\":1107:1110   */\n      dup3\n        /* \"#utility.yul\":1100:1137   */\n      mstore\n        /* \"#utility.yul\":1025:1143   */\n      pop\n      pop\n      jump\t// out\n        /* \"#utility.yul\":1149:1275   */\n    tag_96:\n        /* \"#utility.yul\":1186:1193   */\n      0x00\n        /* \"#utility.yul\":1226:1268   */\n      0xffffffffffffffffffffffffffffffffffffffff\n        /* \"#utility.yul\":1219:1224   */\n      dup3\n        /* \"#utility.yul\":1215:1269   */\n      and\n        /* \"#utility.yul\":1204:1269   */\n      swap1\n      pop\n        /* \"#utility.yul\":1149:1275   */\n      swap2\n      swap1\n      pop\n      jump\t// out\n        /* \"#utility.yul\":1281:1377   */\n    tag_97:\n        /* \"#utility.yul\":1318:1325   */\n      0x00\n        /* \"#utility.yul\":1347:1371   */\n      tag_156\n        /* \"#utility.yul\":1365:1370   */\n      dup3\n        /* \"#utility.yul\":1347:1371   */\n      tag_96\n      jump\t// in\n    tag_156:\n        /* \"#utility.yul\":1336:1371   */\n      swap1\n      pop\n        /* \"#utility.yul\":1281:1377   */\n      swap2\n      swap1\n      pop\n      jump\t// out\n        /* \"#utility.yul\":1383:1501   */\n    tag_98:\n        /* \"#utility.yul\":1470:1494   */\n      tag_158\n        /* \"#utility.yul\":1488:1493   */\n      dup2\n        /* \"#utility.yul\":1470:1494   */\n      tag_97\n      jump\t// in\n    tag_158:\n        /* \"#utility.yul\":1465:1468   */\n      dup3\n        /* \"#utility.yul\":1458:1495   */\n      mstore\n        /* \"#utility.yul\":1383:1501   */\n      pop\n      pop\n      jump\t// out\n        /* \"#utility.yul\":1507:1606   */\n    tag_99:\n        /* \"#utility.yul\":1559:1565   */\n      0x00\n        /* \"#utility.yul\":1593:1598   */\n      dup2\n        /* \"#utility.yul\":1587:1599   */\n      mload\n        /* \"#utility.yul\":1577:1599   */\n      swap1\n      pop\n        /* \"#utility.yul\":1507:1606   */\n      swap2\n      swap1\n      pop\n      jump\t// out\n        /* \"#utility.yul\":1612:1781   */\n    tag_100:\n        /* \"#utility.yul\":1696:1707   */\n      0x00\n        /* \"#utility.yul\":1730:1736   */\n      dup3\n        /* \"#utility.yul\":1725:1728   */\n      dup3\n        /* \"#utility.yul\":1718:1737   */\n      mstore\n        /* \"#utility.yul\":1770:1774   */\n      0x20\n        /* \"#utility.yul\":1765:1768   */\n      dup3\n        /* \"#utility.yul\":1761:1775   */\n      add\n        /* \"#utility.yul\":1746:1775   */\n      swap1\n      pop\n        /* \"#utility.yul\":1612:1781   */\n      swap3\n      swap2\n      pop\n      pop\n      jump\t// out\n        /* \"#utility.yul\":1787:1926   */\n    tag_101:\n        /* \"#utility.yul\":1876:1882   */\n      dup3\n        /* \"#utility.yul\":1871:1874   */\n      dup2\n        /* \"#utility.yul\":1866:1869   */\n      dup4\n        /* \"#utility.yul\":1860:1883   */\n      mcopy\n        /* \"#utility.yul\":1917:1918   */\n      0x00\n        /* \"#utility.yul\":1908:1914   */\n      dup4\n        /* \"#utility.yul\":1903:1906   */\n      dup4\n        /* \"#utility.yul\":1899:1915   */\n      add\n        /* \"#utility.yul\":1892:1919   */\n      mstore\n        /* \"#utility.yul\":1787:1926   */\n      pop\n      pop\n      pop\n      jump\t// out\n        /* \"#utility.yul\":1932:2034   */\n    tag_102:\n        /* \"#utility.yul\":1973:1979   */\n      0x00\n        /* \"#utility.yul\":2024:2026   */\n      0x1f\n        /* \"#utility.yul\":2020:2027   */\n      not\n        /* \"#utility.yul\":2015:2017   */\n      0x1f\n        /* \"#utility.yul\":2008:2013   */\n      dup4\n        /* \"#utility.yul\":2004:2018   */\n      add\n        /* \"#utility.yul\":2000:2028   */\n      and\n        /* \"#utility.yul\":1990:2028   */\n      swap1\n      pop\n        /* \"#utility.yul\":1932:2034   */\n      swap2\n      swap1\n      pop\n      jump\t// out\n        /* \"#utility.yul\":2040:2417   */\n    tag_103:\n        /* \"#utility.yul\":2128:2131   */\n      0x00\n        /* \"#utility.yul\":2156:2195   */\n      tag_164\n        /* \"#utility.yul\":2189:2194   */\n      dup3\n        /* \"#utility.yul\":2156:2195   */\n      tag_99\n      jump\t// in\n    tag_164:\n        /* \"#utility.yul\":2211:2282   */\n      tag_165\n        /* \"#utility.yul\":2275:2281   */\n      dup2\n        /* \"#utility.yul\":2270:2273   */\n      dup6\n        /* \"#utility.yul\":2211:2282   */\n      tag_100\n      jump\t// in\n    tag_165:\n        /* \"#utility.yul\":2204:2282   */\n      swap4\n      pop\n        /* \"#utility.yul\":2291:2356   */\n      tag_166\n        /* \"#utility.yul\":2349:2355   */\n      dup2\n        /* \"#utility.yul\":2344:2347   */\n      dup6\n        /* \"#utility.yul\":2337:2341   */\n      0x20\n        /* \"#utility.yul\":2330:2335   */\n      dup7\n        /* \"#utility.yul\":2326:2342   */\n      add\n        /* \"#utility.yul\":2291:2356   */\n      tag_101\n      jump\t// in\n    tag_166:\n        /* \"#utility.yul\":2381:2410   */\n      tag_167\n        /* \"#utility.yul\":2403:2409   */\n      dup2\n        /* \"#utility.yul\":2381:2410   */\n      tag_102\n      jump\t// in\n    tag_167:\n        /* \"#utility.yul\":2376:2379   */\n      dup5\n        /* \"#utility.yul\":2372:2411   */\n      add\n        /* \"#utility.yul\":2365:2411   */\n      swap2\n      pop\n        /* \"#utility.yul\":2132:2417   */\n      pop\n        /* \"#utility.yul\":2040:2417   */\n      swap3\n      swap2\n      pop\n      pop\n      jump\t// out\n        /* \"#utility.yul\":2423:3178   */\n    tag_14:\n        /* \"#utility.yul\":2648:2652   */\n      0x00\n        /* \"#utility.yul\":2686:2689   */\n      0xa0\n        /* \"#utility.yul\":2675:2684   */\n      dup3\n        /* \"#utility.yul\":2671:2690   */\n      add\n        /* \"#utility.yul\":2663:2690   */\n      swap1\n      pop\n        /* \"#utility.yul\":2700:2771   */\n      tag_169\n        /* \"#utility.yul\":2768:2769   */\n      0x00\n        /* \"#utility.yul\":2757:2766   */\n      dup4\n        /* \"#utility.yul\":2753:2770   */\n      add\n        /* \"#utility.yul\":2744:2750   */\n      dup9\n        /* \"#utility.yul\":2700:2771   */\n      tag_95\n      jump\t// in\n    tag_169:\n        /* \"#utility.yul\":2781:2853   */\n      tag_170\n        /* \"#utility.yul\":2849:2851   */\n      0x20\n        /* \"#utility.yul\":2838:2847   */\n      dup4\n        /* \"#utility.yul\":2834:2852   */\n      add\n        /* \"#utility.yul\":2825:2831   */\n      dup8\n        /* \"#utility.yul\":2781:2853   */\n      tag_98\n      jump\t// in\n    tag_170:\n        /* \"#utility.yul\":2900:2909   */\n      dup2\n        /* \"#utility.yul\":2894:2898   */\n      dup2\n        /* \"#utility.yul\":2890:2910   */\n      sub\n        /* \"#utility.yul\":2885:2887   */\n      0x40\n        /* \"#utility.yul\":2874:2883   */\n      dup4\n        /* \"#utility.yul\":2870:2888   */\n      add\n        /* \"#utility.yul\":2863:2911   */\n      mstore\n        /* \"#utility.yul\":2928:3006   */\n      tag_171\n        /* \"#utility.yul\":3001:3005   */\n      dup2\n        /* \"#utility.yul\":2992:2998   */\n      dup7\n        /* \"#utility.yul\":2928:3006   */\n      tag_103\n      jump\t// in\n    tag_171:\n        /* \"#utility.yul\":2920:3006   */\n      swap1\n      pop\n        /* \"#utility.yul\":3016:3088   */\n      tag_172\n        /* \"#utility.yul\":3084:3086   */\n      0x60\n        /* \"#utility.yul\":3073:3082   */\n      dup4\n        /* \"#utility.yul\":3069:3087   */\n      add\n        /* \"#utility.yul\":3060:3066   */\n      dup6\n        /* \"#utility.yul\":3016:3088   */\n      tag_95\n      jump\t// in\n    tag_172:\n        /* \"#utility.yul\":3098:3171   */\n      tag_173\n        /* \"#utility.yul\":3166:3169   */\n      0x80\n        /* \"#utility.yul\":3155:3164   */\n      dup4\n        /* \"#utility.yul\":3151:3170   */\n      add\n        /* \"#utility.yul\":3142:3148   */\n      dup5\n        /* \"#utility.yul\":3098:3171   */\n      tag_95\n      jump\t// in\n    tag_173:\n        /* \"#utility.yul\":2423:3178   */\n      swap7\n      swap6\n      pop\n      pop\n      pop\n      pop\n      pop\n      pop\n      jump\t// out\n        /* \"#utility.yul\":3184:3658   */\n    tag_21:\n        /* \"#utility.yul\":3252:3258   */\n      0x00\n        /* \"#utility.yul\":3260:3266   */\n      0x00\n        /* \"#utility.yul\":3309:3311   */\n      0x40\n        /* \"#utility.yul\":3297:3306   */\n      dup4\n        /* \"#utility.yul\":3288:3295   */\n      dup6\n        /* \"#utility.yul\":3284:3307   */\n      sub\n        /* \"#utility.yul\":3280:3312   */\n      slt\n        /* \"#utility.yul\":3277:3396   */\n      iszero\n      tag_175\n      jumpi\n        /* \"#utility.yul\":3315:3394   */\n      tag_176\n      tag_90\n      jump\t// in\n    tag_176:\n        /* \"#utility.yul\":3277:3396   */\n    tag_175:\n        /* \"#utility.yul\":3435:3436   */\n      0x00\n        /* \"#utility.yul\":3460:3513   */\n      tag_177\n        /* \"#utility.yul\":3505:3512   */\n      dup6\n        /* \"#utility.yul\":3496:3502   */\n      dup3\n        /* \"#utility.yul\":3485:3494   */\n      dup7\n        /* \"#utility.yul\":3481:3503   */\n      add\n        /* \"#utility.yul\":3460:3513   */\n      tag_94\n      jump\t// in\n    tag_177:\n        /* \"#utility.yul\":3450:3513   */\n      swap3\n      pop\n        /* \"#utility.yul\":3406:3523   */\n      pop\n        /* \"#utility.yul\":3562:3564   */\n      0x20\n        /* \"#utility.yul\":3588:3641   */\n      tag_178\n        /* \"#utility.yul\":3633:3640   */\n      dup6\n        /* \"#utility.yul\":3624:3630   */\n      dup3\n        /* \"#utility.yul\":3613:3622   */\n      dup7\n        /* \"#utility.yul\":3609:3631   */\n      add\n        /* \"#utility.yul\":3588:3641   */\n      tag_94\n      jump\t// in\n    tag_178:\n        /* \"#utility.yul\":3578:3641   */\n      swap2\n      pop\n        /* \"#utility.yul\":3533:3651   */\n      pop\n        /* \"#utility.yul\":3184:3658   */\n      swap3\n      pop\n      swap3\n      swap1\n      pop\n      jump\t// out\n        /* \"#utility.yul\":3664:4308   */\n    tag_24:\n        /* \"#utility.yul\":3861:3865   */\n      0x00\n        /* \"#utility.yul\":3899:3902   */\n      0x80\n        /* \"#utility.yul\":3888:3897   */\n      dup3\n        /* \"#utility.yul\":3884:3903   */\n      add\n        /* \"#utility.yul\":3876:3903   */\n      swap1\n      pop\n        /* \"#utility.yul\":3913:3984   */\n      tag_180\n        /* \"#utility.yul\":3981:3982   */\n      0x00\n        /* \"#utility.yul\":3970:3979   */\n      dup4\n        /* \"#utility.yul\":3966:3983   */\n      add\n        /* \"#utility.yul\":3957:3963   */\n      dup8\n        /* \"#utility.yul\":3913:3984   */\n      tag_95\n      jump\t// in\n    tag_180:\n        /* \"#utility.yul\":3994:4066   */\n      tag_181\n        /* \"#utility.yul\":4062:4064   */\n      0x20\n        /* \"#utility.yul\":4051:4060   */\n      dup4\n        /* \"#utility.yul\":4047:4065   */\n      add\n        /* \"#utility.yul\":4038:4044   */\n      dup7\n        /* \"#utility.yul\":3994:4066   */\n      tag_98\n      jump\t// in\n    tag_181:\n        /* \"#utility.yul\":4113:4122   */\n      dup2\n        /* \"#utility.yul\":4107:4111   */\n      dup2\n        /* \"#utility.yul\":4103:4123   */\n      sub\n        /* \"#utility.yul\":4098:4100   */\n      0x40\n        /* \"#utility.yul\":4087:4096   */\n      dup4\n        /* \"#utility.yul\":4083:4101   */\n      add\n        /* \"#utility.yul\":4076:4124   */\n      mstore\n        /* \"#utility.yul\":4141:4219   */\n      tag_182\n        /* \"#utility.yul\":4214:4218   */\n      dup2\n        /* \"#utility.yul\":4205:4211   */\n      dup6\n        /* \"#utility.yul\":4141:4219   */\n      tag_103\n      jump\t// in\n    tag_182:\n        /* \"#utility.yul\":4133:4219   */\n      swap1\n      pop\n        /* \"#utility.yul\":4229:4301   */\n      tag_183\n        /* \"#utility.yul\":4297:4299   */\n      0x60\n        /* \"#utility.yul\":4286:4295   */\n      dup4\n        /* \"#utility.yul\":4282:4300   */\n      add\n        /* \"#utility.yul\":4273:4279   */\n      dup5\n        /* \"#utility.yul\":4229:4301   */\n      tag_95\n      jump\t// in\n    tag_183:\n        /* \"#utility.yul\":3664:4308   */\n      swap6\n      swap5\n      pop\n      pop\n      pop\n      pop\n      pop\n      jump\t// out\n        /* \"#utility.yul\":4314:4431   */\n    tag_104:\n        /* \"#utility.yul\":4423:4424   */\n      0x00\n        /* \"#utility.yul\":4420:4421   */\n      0x00\n        /* \"#utility.yul\":4413:4425   */\n      revert\n        /* \"#utility.yul\":4437:4554   */\n    tag_105:\n        /* \"#utility.yul\":4546:4547   */\n      0x00\n        /* \"#utility.yul\":4543:4544   */\n      0x00\n        /* \"#utility.yul\":4536:4548   */\n      revert\n        /* \"#utility.yul\":4560:4740   */\n    tag_106:\n        /* \"#utility.yul\":4608:4685   */\n      0x4e487b7100000000000000000000000000000000000000000000000000000000\n        /* \"#utility.yul\":4605:4606   */\n      0x00\n        /* \"#utility.yul\":4598:4686   */\n      mstore\n        /* \"#utility.yul\":4705:4709   */\n      0x41\n        /* \"#utility.yul\":4702:4703   */\n      0x04\n        /* \"#utility.yul\":4695:4710   */\n      mstore\n        /* \"#utility.yul\":4729:4733   */\n      0x24\n        /* \"#utility.yul\":4726:4727   */\n      0x00\n        /* \"#utility.yul\":4719:4734   */\n      revert\n        /* \"#utility.yul\":4746:5027   */\n    tag_107:\n        /* \"#utility.yul\":4829:4856   */\n      tag_188\n        /* \"#utility.yul\":4851:4855   */\n      dup3\n        /* \"#utility.yul\":4829:4856   */\n      tag_102\n      jump\t// in\n    tag_188:\n        /* \"#utility.yul\":4821:4827   */\n      dup2\n        /* \"#utility.yul\":4817:4857   */\n      add\n        /* \"#utility.yul\":4959:4965   */\n      dup2\n        /* \"#utility.yul\":4947:4957   */\n      dup2\n        /* \"#utility.yul\":4944:4966   */\n      lt\n        /* \"#utility.yul\":4923:4941   */\n      0xffffffffffffffff\n        /* \"#utility.yul\":4911:4921   */\n      dup3\n        /* \"#utility.yul\":4908:4942   */\n      gt\n        /* \"#utility.yul\":4905:4967   */\n      or\n        /* \"#utility.yul\":4902:4990   */\n      iszero\n      tag_189\n      jumpi\n        /* \"#utility.yul\":4970:4988   */\n      tag_190\n      tag_106\n      jump\t// in\n    tag_190:\n        /* \"#utility.yul\":4902:4990   */\n    tag_189:\n        /* \"#utility.yul\":5010:5020   */\n      dup1\n        /* \"#utility.yul\":5006:5008   */\n      0x40\n        /* \"#utility.yul\":4999:5021   */\n      mstore\n        /* \"#utility.yul\":4789:5027   */\n      pop\n        /* \"#utility.yul\":4746:5027   */\n      pop\n      pop\n      jump\t// out\n        /* \"#utility.yul\":5033:5162   */\n    tag_108:\n        /* \"#utility.yul\":5067:5073   */\n      0x00\n        /* \"#utility.yul\":5094:5114   */\n      tag_192\n      tag_89\n      jump\t// in\n    tag_192:\n        /* \"#utility.yul\":5084:5114   */\n      swap1\n      pop\n        /* \"#utility.yul\":5123:5156   */\n      tag_193\n        /* \"#utility.yul\":5151:5155   */\n      dup3\n        /* \"#utility.yul\":5143:5149   */\n      dup3\n        /* \"#utility.yul\":5123:5156   */\n      tag_107\n      jump\t// in\n    tag_193:\n        /* \"#utility.yul\":5033:5162   */\n      swap2\n      swap1\n      pop\n      jump\t// out\n        /* \"#utility.yul\":5168:5476   */\n    tag_109:\n        /* \"#utility.yul\":5230:5234   */\n      0x00\n        /* \"#utility.yul\":5320:5338   */\n      0xffffffffffffffff\n        /* \"#utility.yul\":5312:5318   */\n      dup3\n        /* \"#utility.yul\":5309:5339   */\n      gt\n        /* \"#utility.yul\":5306:5362   */\n      iszero\n      tag_195\n      jumpi\n        /* \"#utility.yul\":5342:5360   */\n      tag_196\n      tag_106\n      jump\t// in\n    tag_196:\n        /* \"#utility.yul\":5306:5362   */\n    tag_195:\n        /* \"#utility.yul\":5380:5409   */\n      tag_197\n        /* \"#utility.yul\":5402:5408   */\n      dup3\n        /* \"#utility.yul\":5380:5409   */\n      tag_102\n      jump\t// in\n    tag_197:\n        /* \"#utility.yul\":5372:5409   */\n      swap1\n      pop\n        /* \"#utility.yul\":5464:5468   */\n      0x20\n        /* \"#utility.yul\":5458:5462   */\n      dup2\n        /* \"#utility.yul\":5454:5469   */\n      add\n        /* \"#utility.yul\":5446:5469   */\n      swap1\n      pop\n        /* \"#utility.yul\":5168:5476   */\n      swap2\n      swap1\n      pop\n      jump\t// out\n        /* \"#utility.yul\":5482:5630   */\n    tag_110:\n        /* \"#utility.yul\":5580:5586   */\n      dup3\n        /* \"#utility.yul\":5575:5578   */\n      dup2\n        /* \"#utility.yul\":5570:5573   */\n      dup4\n        /* \"#utility.yul\":5557:5587   */\n      calldatacopy\n        /* \"#utility.yul\":5621:5622   */\n      0x00\n        /* \"#utility.yul\":5612:5618   */\n      dup4\n        /* \"#utility.yul\":5607:5610   */\n      dup4\n        /* \"#utility.yul\":5603:5619   */\n      add\n        /* \"#utility.yul\":5596:5623   */\n      mstore\n        /* \"#utility.yul\":5482:5630   */\n      pop\n      pop\n      pop\n      jump\t// out\n        /* \"#utility.yul\":5636:6061   */\n    tag_111:\n        /* \"#utility.yul\":5714:5719   */\n      0x00\n        /* \"#utility.yul\":5739:5805   */\n      tag_200\n        /* \"#utility.yul\":5755:5804   */\n      tag_201\n        /* \"#utility.yul\":5797:5803   */\n      dup5\n        /* \"#utility.yul\":5755:5804   */\n      tag_109\n      jump\t// in\n    tag_201:\n        /* \"#utility.yul\":5739:5805   */\n      tag_108\n      jump\t// in\n    tag_200:\n        /* \"#utility.yul\":5730:5805   */\n      swap1\n      pop\n        /* \"#utility.yul\":5828:5834   */\n      dup3\n        /* \"#utility.yul\":5821:5826   */\n      dup2\n        /* \"#utility.yul\":5814:5835   */\n      mstore\n        /* \"#utility.yul\":5866:5870   */\n      0x20\n        /* \"#utility.yul\":5859:5864   */\n      dup2\n        /* \"#utility.yul\":5855:5871   */\n      add\n        /* \"#utility.yul\":5904:5907   */\n      dup5\n        /* \"#utility.yul\":5895:5901   */\n      dup5\n        /* \"#utility.yul\":5890:5893   */\n      dup5\n        /* \"#utility.yul\":5886:5902   */\n      add\n        /* \"#utility.yul\":5883:5908   */\n      gt\n        /* \"#utility.yul\":5880:5992   */\n      iszero\n      tag_202\n      jumpi\n        /* \"#utility.yul\":5911:5990   */\n      tag_203\n      tag_105\n      jump\t// in\n    tag_203:\n        /* \"#utility.yul\":5880:5992   */\n    tag_202:\n        /* \"#utility.yul\":6001:6055   */\n      tag_204\n        /* \"#utility.yul\":6048:6054   */\n      dup5\n        /* \"#utility.yul\":6043:6046   */\n      dup3\n        /* \"#utility.yul\":6038:6041   */\n      dup6\n        /* \"#utility.yul\":6001:6055   */\n      tag_110\n      jump\t// in\n    tag_204:\n        /* \"#utility.yul\":5720:6061   */\n      pop\n        /* \"#utility.yul\":5636:6061   */\n      swap4\n      swap3\n      pop\n      pop\n      pop\n      jump\t// out\n        /* \"#utility.yul\":6081:6421   */\n    tag_112:\n        /* \"#utility.yul\":6137:6142   */\n      0x00\n        /* \"#utility.yul\":6186:6189   */\n      dup3\n        /* \"#utility.yul\":6179:6183   */\n      0x1f\n        /* \"#utility.yul\":6171:6177   */\n      dup4\n        /* \"#utility.yul\":6167:6184   */\n      add\n        /* \"#utility.yul\":6163:6190   */\n      slt\n        /* \"#utility.yul\":6153:6275   */\n      tag_206\n      jumpi\n        /* \"#utility.yul\":6194:6273   */\n      tag_207\n      tag_104\n      jump\t// in\n    tag_207:\n        /* \"#utility.yul\":6153:6275   */\n    tag_206:\n        /* \"#utility.yul\":6311:6317   */\n      dup2\n        /* \"#utility.yul\":6298:6318   */\n      calldataload\n        /* \"#utility.yul\":6336:6415   */\n      tag_208\n        /* \"#utility.yul\":6411:6414   */\n      dup5\n        /* \"#utility.yul\":6403:6409   */\n      dup3\n        /* \"#utility.yul\":6396:6400   */\n      0x20\n        /* \"#utility.yul\":6388:6394   */\n      dup7\n        /* \"#utility.yul\":6384:6401   */\n      add\n        /* \"#utility.yul\":6336:6415   */\n      tag_111\n      jump\t// in\n    tag_208:\n        /* \"#utility.yul\":6327:6415   */\n      swap2\n      pop\n        /* \"#utility.yul\":6143:6421   */\n      pop\n        /* \"#utility.yul\":6081:6421   */\n      swap3\n      swap2\n      pop\n      pop\n      jump\t// out\n        /* \"#utility.yul\":6427:7081   */\n    tag_27:\n        /* \"#utility.yul\":6505:6511   */\n      0x00\n        /* \"#utility.yul\":6513:6519   */\n      0x00\n        /* \"#utility.yul\":6562:6564   */\n      0x40\n        /* \"#utility.yul\":6550:6559   */\n      dup4\n        /* \"#utility.yul\":6541:6548   */\n      dup6\n        /* \"#utility.yul\":6537:6560   */\n      sub\n        /* \"#utility.yul\":6533:6565   */\n      slt\n        /* \"#utility.yul\":6530:6649   */\n      iszero\n      tag_210\n      jumpi\n        /* \"#utility.yul\":6568:6647   */\n      tag_211\n      tag_90\n      jump\t// in\n    tag_211:\n        /* \"#utility.yul\":6530:6649   */\n    tag_210:\n        /* \"#utility.yul\":6688:6689   */\n      0x00\n        /* \"#utility.yul\":6713:6766   */\n      tag_212\n        /* \"#utility.yul\":6758:6765   */\n      dup6\n        /* \"#utility.yul\":6749:6755   */\n      dup3\n        /* \"#utility.yul\":6738:6747   */\n      dup7\n        /* \"#utility.yul\":6734:6756   */\n      add\n        /* \"#utility.yul\":6713:6766   */\n      tag_94\n      jump\t// in\n    tag_212:\n        /* \"#utility.yul\":6703:6766   */\n      swap3\n      pop\n        /* \"#utility.yul\":6659:6776   */\n      pop\n        /* \"#utility.yul\":6843:6845   */\n      0x20\n        /* \"#utility.yul\":6832:6841   */\n      dup4\n        /* \"#utility.yul\":6828:6846   */\n      add\n        /* \"#utility.yul\":6815:6847   */\n      calldataload\n        /* \"#utility.yul\":6874:6892   */\n      0xffffffffffffffff\n        /* \"#utility.yul\":6866:6872   */\n      dup2\n        /* \"#utility.yul\":6863:6893   */\n      gt\n        /* \"#utility.yul\":6860:6977   */\n      iszero\n      tag_213\n      jumpi\n        /* \"#utility.yul\":6896:6975   */\n      tag_214\n      tag_91\n      jump\t// in\n    tag_214:\n        /* \"#utility.yul\":6860:6977   */\n    tag_213:\n        /* \"#utility.yul\":7001:7064   */\n      tag_215\n        /* \"#utility.yul\":7056:7063   */\n      dup6\n        /* \"#utility.yul\":7047:7053   */\n      dup3\n        /* \"#utility.yul\":7036:7045   */\n      dup7\n        /* \"#utility.yul\":7032:7054   */\n      add\n        /* \"#utility.yul\":7001:7064   */\n      tag_112\n      jump\t// in\n    tag_215:\n        /* \"#utility.yul\":6991:7064   */\n      swap2\n      pop\n        /* \"#utility.yul\":6786:7074   */\n      pop\n        /* \"#utility.yul\":6427:7081   */\n      swap3\n      pop\n      swap3\n      swap1\n      pop\n      jump\t// out\n        /* \"#utility.yul\":7087:7596   */\n    tag_31:\n        /* \"#utility.yul\":7156:7162   */\n      0x00\n        /* \"#utility.yul\":7205:7207   */\n      0x20\n        /* \"#utility.yul\":7193:7202   */\n      dup3\n        /* \"#utility.yul\":7184:7191   */\n      dup5\n        /* \"#utility.yul\":7180:7203   */\n      sub\n        /* \"#utility.yul\":7176:7208   */\n      slt\n        /* \"#utility.yul\":7173:7292   */\n      iszero\n      tag_217\n      jumpi\n        /* \"#utility.yul\":7211:7290   */\n      tag_218\n      tag_90\n      jump\t// in\n    tag_218:\n        /* \"#utility.yul\":7173:7292   */\n    tag_217:\n        /* \"#utility.yul\":7359:7360   */\n      0x00\n        /* \"#utility.yul\":7348:7357   */\n      dup3\n        /* \"#utility.yul\":7344:7361   */\n      add\n        /* \"#utility.yul\":7331:7362   */\n      calldataload\n        /* \"#utility.yul\":7389:7407   */\n      0xffffffffffffffff\n        /* \"#utility.yul\":7381:7387   */\n      dup2\n        /* \"#utility.yul\":7378:7408   */\n      gt\n        /* \"#utility.yul\":7375:7492   */\n      iszero\n      tag_219\n      jumpi\n        /* \"#utility.yul\":7411:7490   */\n      tag_220\n      tag_91\n      jump\t// in\n    tag_220:\n        /* \"#utility.yul\":7375:7492   */\n    tag_219:\n        /* \"#utility.yul\":7516:7579   */\n      tag_221\n        /* \"#utility.yul\":7571:7578   */\n      dup5\n        /* \"#utility.yul\":7562:7568   */\n      dup3\n        /* \"#utility.yul\":7551:7560   */\n      dup6\n        /* \"#utility.yul\":7547:7569   */\n      add\n        /* \"#utility.yul\":7516:7579   */\n      tag_112\n      jump\t// in\n    tag_221:\n        /* \"#utility.yul\":7506:7579   */\n      swap2\n      pop\n        /* \"#utility.yul\":7302:7589   */\n      pop\n        /* \"#utility.yul\":7087:7596   */\n      swap3\n      swap2\n      pop\n      pop\n      jump\t// out\n        /* \"#utility.yul\":7602:7782   */\n    tag_113:\n        /* \"#utility.yul\":7650:7727   */\n      0x4e487b7100000000000000000000000000000000000000000000000000000000\n        /* \"#utility.yul\":7647:7648   */\n      0x00\n        /* \"#utility.yul\":7640:7728   */\n      mstore\n        /* \"#utility.yul\":7747:7751   */\n      0x22\n        /* \"#utility.yul\":7744:7745   */\n      0x04\n        /* \"#utility.yul\":7737:7752   */\n      mstore\n        /* \"#utility.yul\":7771:7775   */\n      0x24\n        /* \"#utility.yul\":7768:7769   */\n      0x00\n        /* \"#utility.yul\":7761:7776   */\n      revert\n        /* \"#utility.yul\":7788:8108   */\n    tag_38:\n        /* \"#utility.yul\":7832:7838   */\n      0x00\n        /* \"#utility.yul\":7869:7870   */\n      0x02\n        /* \"#utility.yul\":7863:7867   */\n      dup3\n        /* \"#utility.yul\":7859:7871   */\n      div\n        /* \"#utility.yul\":7849:7871   */\n      swap1\n      pop\n        /* \"#utility.yul\":7916:7917   */\n      0x01\n        /* \"#utility.yul\":7910:7914   */\n      dup3\n        /* \"#utility.yul\":7906:7918   */\n      and\n        /* \"#utility.yul\":7937:7955   */\n      dup1\n        /* \"#utility.yul\":7927:8008   */\n      tag_224\n      jumpi\n        /* \"#utility.yul\":7993:7997   */\n      0x7f\n        /* \"#utility.yul\":7985:7991   */\n      dup3\n        /* \"#utility.yul\":7981:7998   */\n      and\n        /* \"#utility.yul\":7971:7998   */\n      swap2\n      pop\n        /* \"#utility.yul\":7927:8008   */\n    tag_224:\n        /* \"#utility.yul\":8055:8057   */\n      0x20\n        /* \"#utility.yul\":8047:8053   */\n      dup3\n        /* \"#utility.yul\":8044:8058   */\n      lt\n        /* \"#utility.yul\":8024:8042   */\n      dup2\n        /* \"#utility.yul\":8021:8059   */\n      sub\n        /* \"#utility.yul\":8018:8102   */\n      tag_225\n      jumpi\n        /* \"#utility.yul\":8074:8092   */\n      tag_226\n      tag_113\n      jump\t// in\n    tag_226:\n        /* \"#utility.yul\":8018:8102   */\n    tag_225:\n        /* \"#utility.yul\":7839:8108   */\n      pop\n        /* \"#utility.yul\":7788:8108   */\n      swap2\n      swap1\n      pop\n      jump\t// out\n        /* \"#utility.yul\":8114:8283   */\n    tag_114:\n        /* \"#utility.yul\":8254:8275   */\n      0x506f737420646f6573206e6f7420657869737400000000000000000000000000\n        /* \"#utility.yul\":8250:8251   */\n      0x00\n        /* \"#utility.yul\":8242:8248   */\n      dup3\n        /* \"#utility.yul\":8238:8252   */\n      add\n        /* \"#utility.yul\":8231:8276   */\n      mstore\n        /* \"#utility.yul\":8114:8283   */\n      pop\n      jump\t// out\n        /* \"#utility.yul\":8289:8655   */\n    tag_115:\n        /* \"#utility.yul\":8431:8434   */\n      0x00\n        /* \"#utility.yul\":8452:8519   */\n      tag_229\n        /* \"#utility.yul\":8516:8518   */\n      0x13\n        /* \"#utility.yul\":8511:8514   */\n      dup4\n        /* \"#utility.yul\":8452:8519   */\n      tag_100\n      jump\t// in\n    tag_229:\n        /* \"#utility.yul\":8445:8519   */\n      swap2\n      pop\n        /* \"#utility.yul\":8528:8621   */\n      tag_230\n        /* \"#utility.yul\":8617:8620   */\n      dup3\n        /* \"#utility.yul\":8528:8621   */\n      tag_114\n      jump\t// in\n    tag_230:\n        /* \"#utility.yul\":8646:8648   */\n      0x20\n        /* \"#utility.yul\":8641:8644   */\n      dup3\n        /* \"#utility.yul\":8637:8649   */\n      add\n        /* \"#utility.yul\":8630:8649   */\n      swap1\n      pop\n        /* \"#utility.yul\":8289:8655   */\n      swap2\n      swap1\n      pop\n      jump\t// out\n        /* \"#utility.yul\":8661:9080   */\n    tag_46:\n        /* \"#utility.yul\":8827:8831   */\n      0x00\n        /* \"#utility.yul\":8865:8867   */\n      0x20\n        /* \"#utility.yul\":8854:8863   */\n      dup3\n        /* \"#utility.yul\":8850:8868   */\n      add\n        /* \"#utility.yul\":8842:8868   */\n      swap1\n      pop\n        /* \"#utility.yul\":8914:8923   */\n      dup2\n        /* \"#utility.yul\":8908:8912   */\n      dup2\n        /* \"#utility.yul\":8904:8924   */\n      sub\n        /* \"#utility.yul\":8900:8901   */\n      0x00\n        /* \"#utility.yul\":8889:8898   */\n      dup4\n        /* \"#utility.yul\":8885:8902   */\n      add\n        /* \"#utility.yul\":8878:8925   */\n      mstore\n        /* \"#utility.yul\":8942:9073   */\n      tag_232\n        /* \"#utility.yul\":9068:9072   */\n      dup2\n        /* \"#utility.yul\":8942:9073   */\n      tag_115\n      jump\t// in\n    tag_232:\n        /* \"#utility.yul\":8934:9073   */\n      swap1\n      pop\n        /* \"#utility.yul\":8661:9080   */\n      swap2\n      swap1\n      pop\n      jump\t// out\n        /* \"#utility.yul\":9086:9258   */\n    tag_116:\n        /* \"#utility.yul\":9226:9250   */\n      0x436f6d6d656e7420646f6573206e6f7420657869737400000000000000000000\n        /* \"#utility.yul\":9222:9223   */\n      0x00\n        /* \"#utility.yul\":9214:9220   */\n      dup3\n        /* \"#utility.yul\":9210:9224   */\n      add\n        /* \"#utility.yul\":9203:9251   */\n      mstore\n        /* \"#utility.yul\":9086:9258   */\n      pop\n      jump\t// out\n        /* \"#utility.yul\":9264:9630   */\n    tag_117:\n        /* \"#utility.yul\":9406:9409   */\n      0x00\n        /* \"#utility.yul\":9427:9494   */\n      tag_235\n        /* \"#utility.yul\":9491:9493   */\n      0x16\n        /* \"#utility.yul\":9486:9489   */\n      dup4\n        /* \"#utility.yul\":9427:9494   */\n      tag_100\n      jump\t// in\n    tag_235:\n        /* \"#utility.yul\":9420:9494   */\n      swap2\n      pop\n        /* \"#utility.yul\":9503:9596   */\n      tag_236\n        /* \"#utility.yul\":9592:9595   */\n      dup3\n        /* \"#utility.yul\":9503:9596   */\n      tag_116\n      jump\t// in\n    tag_236:\n        /* \"#utility.yul\":9621:9623   */\n      0x20\n        /* \"#utility.yul\":9616:9619   */\n      dup3\n        /* \"#utility.yul\":9612:9624   */\n      add\n        /* \"#utility.yul\":9605:9624   */\n      swap1\n      pop\n        /* \"#utility.yul\":9264:9630   */\n      swap2\n      swap1\n      pop\n      jump\t// out\n        /* \"#utility.yul\":9636:10055   */\n    tag_58:\n        /* \"#utility.yul\":9802:9806   */\n      0x00\n        /* \"#utility.yul\":9840:9842   */\n      0x20\n        /* \"#utility.yul\":9829:9838   */\n      dup3\n        /* \"#utility.yul\":9825:9843   */\n      add\n        /* \"#utility.yul\":9817:9843   */\n      swap1\n      pop\n        /* \"#utility.yul\":9889:9898   */\n      dup2\n        /* \"#utility.yul\":9883:9887   */\n      dup2\n        /* \"#utility.yul\":9879:9899   */\n      sub\n        /* \"#utility.yul\":9875:9876   */\n      0x00\n        /* \"#utility.yul\":9864:9873   */\n      dup4\n        /* \"#utility.yul\":9860:9877   */\n      add\n        /* \"#utility.yul\":9853:9900   */\n      mstore\n        /* \"#utility.yul\":9917:10048   */\n      tag_238\n        /* \"#utility.yul\":10043:10047   */\n      dup2\n        /* \"#utility.yul\":9917:10048   */\n      tag_117\n      jump\t// in\n    tag_238:\n        /* \"#utility.yul\":9909:10048   */\n      swap1\n      pop\n        /* \"#utility.yul\":9636:10055   */\n      swap2\n      swap1\n      pop\n      jump\t// out\n        /* \"#utility.yul\":10061:10234   */\n    tag_118:\n        /* \"#utility.yul\":10201:10226   */\n      0x436f6d6d656e742063616e6e6f7420626520656d707479000000000000000000\n        /* \"#utility.yul\":10197:10198   */\n      0x00\n        /* \"#utility.yul\":10189:10195   */\n      dup3\n        /* \"#utility.yul\":10185:10199   */\n      add\n        /* \"#utility.yul\":10178:10227   */\n      mstore\n        /* \"#utility.yul\":10061:10234   */\n      pop\n      jump\t// out\n        /* \"#utility.yul\":10240:10606   */\n    tag_119:\n        /* \"#utility.yul\":10382:10385   */\n      0x00\n        /* \"#utility.yul\":10403:10470   */\n      tag_241\n        /* \"#utility.yul\":10467:10469   */\n      0x17\n        /* \"#utility.yul\":10462:10465   */\n      dup4\n        /* \"#utility.yul\":10403:10470   */\n      tag_100\n      jump\t// in\n    tag_241:\n        /* \"#utility.yul\":10396:10470   */\n      swap2\n      pop\n        /* \"#utility.yul\":10479:10572   */\n      tag_242\n        /* \"#utility.yul\":10568:10571   */\n      dup3\n        /* \"#utility.yul\":10479:10572   */\n      tag_118\n      jump\t// in\n    tag_242:\n        /* \"#utility.yul\":10597:10599   */\n      0x20\n        /* \"#utility.yul\":10592:10595   */\n      dup3\n        /* \"#utility.yul\":10588:10600   */\n      add\n        /* \"#utility.yul\":10581:10600   */\n      swap1\n      pop\n        /* \"#utility.yul\":10240:10606   */\n      swap2\n      swap1\n      pop\n      jump\t// out\n        /* \"#utility.yul\":10612:11031   */\n    tag_67:\n        /* \"#utility.yul\":10778:10782   */\n      0x00\n        /* \"#utility.yul\":10816:10818   */\n      0x20\n        /* \"#utility.yul\":10805:10814   */\n      dup3\n        /* \"#utility.yul\":10801:10819   */\n      add\n        /* \"#utility.yul\":10793:10819   */\n      swap1\n      pop\n        /* \"#utility.yul\":10865:10874   */\n      dup2\n        /* \"#utility.yul\":10859:10863   */\n      dup2\n        /* \"#utility.yul\":10855:10875   */\n      sub\n        /* \"#utility.yul\":10851:10852   */\n      0x00\n        /* \"#utility.yul\":10840:10849   */\n      dup4\n        /* \"#utility.yul\":10836:10853   */\n      add\n        /* \"#utility.yul\":10829:10876   */\n      mstore\n        /* \"#utility.yul\":10893:11024   */\n      tag_244\n        /* \"#utility.yul\":11019:11023   */\n      dup2\n        /* \"#utility.yul\":10893:11024   */\n      tag_119\n      jump\t// in\n    tag_244:\n        /* \"#utility.yul\":10885:11024   */\n      swap1\n      pop\n        /* \"#utility.yul\":10612:11031   */\n      swap2\n      swap1\n      pop\n      jump\t// out\n        /* \"#utility.yul\":11037:11217   */\n    tag_120:\n        /* \"#utility.yul\":11085:11162   */\n      0x4e487b7100000000000000000000000000000000000000000000000000000000\n        /* \"#utility.yul\":11082:11083   */\n      0x00\n        /* \"#utility.yul\":11075:11163   */\n      mstore\n        /* \"#utility.yul\":11182:11186   */\n      0x11\n        /* \"#utility.yul\":11179:11180   */\n      0x04\n        /* \"#utility.yul\":11172:11187   */\n      mstore\n        /* \"#utility.yul\":11206:11210   */\n      0x24\n        /* \"#utility.yul\":11203:11204   */\n      0x00\n        /* \"#utility.yul\":11196:11211   */\n      revert\n        /* \"#utility.yul\":11223:11456   */\n    tag_71:\n        /* \"#utility.yul\":11262:11265   */\n      0x00\n        /* \"#utility.yul\":11285:11309   */\n      tag_247\n        /* \"#utility.yul\":11303:11308   */\n      dup3\n        /* \"#utility.yul\":11285:11309   */\n      tag_92\n      jump\t// in\n    tag_247:\n        /* \"#utility.yul\":11276:11309   */\n      swap2\n      pop\n        /* \"#utility.yul\":11331:11397   */\n      0xffffffffffffffffffffffffffffffffffffffffffffffffffffffffffffffff\n        /* \"#utility.yul\":11324:11329   */\n      dup3\n        /* \"#utility.yul\":11321:11398   */\n      sub\n        /* \"#utility.yul\":11318:11421   */\n      tag_248\n      jumpi\n        /* \"#utility.yul\":11401:11419   */\n      tag_249\n      tag_120\n      jump\t// in\n    tag_249:\n        /* \"#utility.yul\":11318:11421   */\n    tag_248:\n        /* \"#utility.yul\":11448:11449   */\n      0x01\n        /* \"#utility.yul\":11441:11446   */\n      dup3\n        /* \"#utility.yul\":11437:11450   */\n      add\n        /* \"#utility.yul\":11430:11450   */\n      swap1\n      pop\n        /* \"#utility.yul\":11223:11456   */\n      swap2\n      swap1\n      pop\n      jump\t// out\n        /* \"#utility.yul\":11462:11603   */\n    tag_121:\n        /* \"#utility.yul\":11511:11515   */\n      0x00\n        /* \"#utility.yul\":11534:11537   */\n      dup2\n        /* \"#utility.yul\":11526:11537   */\n      swap1\n      pop\n        /* \"#utility.yul\":11557:11560   */\n      dup2\n        /* \"#utility.yul\":11554:11555   */\n      0x00\n        /* \"#utility.yul\":11547:11561   */\n      mstore\n        /* \"#utility.yul\":11591:11595   */\n      0x20\n        /* \"#utility.yul\":11588:11589   */\n      0x00\n        /* \"#utility.yul\":11578:11596   */\n      keccak256\n        /* \"#utility.yul\":11570:11596   */\n      swap1\n      pop\n        /* \"#utility.yul\":11462:11603   */\n      swap2\n      swap1\n      pop\n      jump\t// out\n        /* \"#utility.yul\":11609:11702   */\n    tag_122:\n        /* \"#utility.yul\":11646:11652   */\n      0x00\n        /* \"#utility.yul\":11693:11695   */\n      0x20\n        /* \"#utility.yul\":11688:11690   */\n      0x1f\n        /* \"#utility.yul\":11681:11686   */\n      dup4\n        /* \"#utility.yul\":11677:11691   */\n      add\n        /* \"#utility.yul\":11673:11696   */\n      div\n        /* \"#utility.yul\":11663:11696   */\n      swap1\n      pop\n        /* \"#utility.yul\":11609:11702   */\n      swap2\n      swap1\n      pop\n      jump\t// out\n        /* \"#utility.yul\":11708:11815   */\n    tag_123:\n        /* \"#utility.yul\":11752:11760   */\n      0x00\n        /* \"#utility.yul\":11802:11807   */\n      dup3\n        /* \"#utility.yul\":11796:11800   */\n      dup3\n        /* \"#utility.yul\":11792:11808   */\n      shl\n        /* \"#utility.yul\":11771:11808   */\n      swap1\n      pop\n        /* \"#utility.yul\":11708:11815   */\n      swap3\n      swap2\n      pop\n      pop\n      jump\t// out\n        /* \"#utility.yul\":11821:12214   */\n    tag_124:\n        /* \"#utility.yul\":11890:11896   */\n      0x00\n        /* \"#utility.yul\":11940:11941   */\n      0x08\n        /* \"#utility.yul\":11928:11938   */\n      dup4\n        /* \"#utility.yul\":11924:11942   */\n      mul\n        /* \"#utility.yul\":11963:12060   */\n      tag_254\n        /* \"#utility.yul\":11993:12059   */\n      0xffffffffffffffffffffffffffffffffffffffffffffffffffffffffffffffff\n        /* \"#utility.yul\":11982:11991   */\n      dup3\n        /* \"#utility.yul\":11963:12060   */\n      tag_123\n      jump\t// in\n    tag_254:\n        /* \"#utility.yul\":12081:12120   */\n      tag_255\n        /* \"#utility.yul\":12111:12119   */\n      dup7\n        /* \"#utility.yul\":12100:12109   */\n      dup4\n        /* \"#utility.yul\":12081:12120   */\n      tag_123\n      jump\t// in\n    tag_255:\n        /* \"#utility.yul\":12069:12120   */\n      swap6\n      pop\n        /* \"#utility.yul\":12153:12157   */\n      dup1\n        /* \"#utility.yul\":12149:12158   */\n      not\n        /* \"#utility.yul\":12142:12147   */\n      dup5\n        /* \"#utility.yul\":12138:12159   */\n      and\n        /* \"#utility.yul\":12129:12159   */\n      swap4\n      pop\n        /* \"#utility.yul\":12202:12206   */\n      dup1\n        /* \"#utility.yul\":12192:12200   */\n      dup7\n        /* \"#utility.yul\":12188:12207   */\n      and\n        /* \"#utility.yul\":12181:12186   */\n      dup5\n        /* \"#utility.yul\":12178:12208   */\n      or\n        /* \"#utility.yul\":12168:12208   */\n      swap3\n      pop\n        /* \"#utility.yul\":11897:12214   */\n      pop\n      pop\n        /* \"#utility.yul\":11821:12214   */\n      swap4\n      swap3\n      pop\n      pop\n      pop\n      jump\t// out\n        /* \"#utility.yul\":12220:12280   */\n    tag_125:\n        /* \"#utility.yul\":12248:12251   */\n      0x00\n        /* \"#utility.yul\":12269:12274   */\n      dup2\n        /* \"#utility.yul\":12262:12274   */\n      swap1\n      pop\n        /* \"#utility.yul\":12220:12280   */\n      swap2\n      swap1\n      pop\n      jump\t// out\n        /* \"#utility.yul\":12286:12428   */\n    tag_126:\n        /* \"#utility.yul\":12336:12345   */\n      0x00\n        /* \"#utility.yul\":12369:12422   */\n      tag_258\n        /* \"#utility.yul\":12387:12421   */\n      tag_259\n        /* \"#utility.yul\":12396:12420   */\n      tag_260\n        /* \"#utility.yul\":12414:12419   */\n      dup5\n        /* \"#utility.yul\":12396:12420   */\n      tag_92\n      jump\t// in\n    tag_260:\n        /* \"#utility.yul\":12387:12421   */\n      tag_125\n      jump\t// in\n    tag_259:\n        /* \"#utility.yul\":12369:12422   */\n      tag_92\n      jump\t// in\n    tag_258:\n        /* \"#utility.yul\":12356:12422   */\n      swap1\n      pop\n        /* \"#utility.yul\":12286:12428   */\n      swap2\n      swap1\n      pop\n      jump\t// out\n        /* \"#utility.yul\":12434:12509   */\n    tag_127:\n        /* \"#utility.yul\":12477:12480   */\n      0x00\n        /* \"#utility.yul\":12498:12503   */\n      dup2\n        /* \"#utility.yul\":12491:12503   */\n      swap1\n      pop\n        /* \"#utility.yul\":12434:12509   */\n      swap2\n      swap1\n      pop\n      jump\t// out\n        /* \"#utility.yul\":12515:12784   */\n    tag_128:\n        /* \"#utility.yul\":12625:12664   */\n      tag_263\n        /* \"#utility.yul\":12656:12663   */\n      dup4\n        /* \"#utility.yul\":12625:12664   */\n      tag_126\n      jump\t// in\n    tag_263:\n        /* \"#utility.yul\":12686:12777   */\n      tag_264\n        /* \"#utility.yul\":12735:12776   */\n      tag_265\n        /* \"#utility.yul\":12759:12775   */\n      dup3\n        /* \"#utility.yul\":12735:12776   */\n      tag_127\n      jump\t// in\n    tag_265:\n        /* \"#utility.yul\":12727:12733   */\n      dup5\n        /* \"#utility.yul\":12720:12724   */\n      dup5\n        /* \"#utility.yul\":12714:12725   */\n      sload\n        /* \"#utility.yul\":12686:12777   */\n      tag_124\n      jump\t// in\n    tag_264:\n        /* \"#utility.yul\":12680:12684   */\n      dup3\n        /* \"#utility.yul\":12673:12778   */\n      sstore\n        /* \"#utility.yul\":12591:12784   */\n      pop\n        /* \"#utility.yul\":12515:12784   */\n      pop\n      pop\n      pop\n      jump\t// out\n        /* \"#utility.yul\":12790:12863   */\n    tag_129:\n        /* \"#utility.yul\":12835:12838   */\n      0x00\n        /* \"#utility.yul\":12856:12857   */\n      0x00\n        /* \"#utility.yul\":12849:12857   */\n      swap1\n      pop\n        /* \"#utility.yul\":12790:12863   */\n      swap1\n      jump\t// out\n        /* \"#utility.yul\":12869:13058   */\n    tag_130:\n        /* \"#utility.yul\":12946:12978   */\n      tag_268\n      tag_129\n      jump\t// in\n    tag_268:\n        /* \"#utility.yul\":12987:13052   */\n      tag_269\n        /* \"#utility.yul\":13045:13051   */\n      dup2\n        /* \"#utility.yul\":13037:13043   */\n      dup5\n        /* \"#utility.yul\":13031:13035   */\n      dup5\n        /* \"#utility.yul\":12987:13052   */\n      tag_128\n      jump\t// in\n    tag_269:\n        /* \"#utility.yul\":12922:13058   */\n      pop\n        /* \"#utility.yul\":12869:13058   */\n      pop\n      pop\n      jump\t// out\n        /* \"#utility.yul\":13064:13250   */\n    tag_131:\n        /* \"#utility.yul\":13124:13244   */\n    tag_271:\n        /* \"#utility.yul\":13141:13144   */\n      dup2\n        /* \"#utility.yul\":13134:13139   */\n      dup2\n        /* \"#utility.yul\":13131:13145   */\n      lt\n        /* \"#utility.yul\":13124:13244   */\n      iszero\n      tag_273\n      jumpi\n        /* \"#utility.yul\":13195:13234   */\n      tag_274\n        /* \"#utility.yul\":13232:13233   */\n      0x00\n        /* \"#utility.yul\":13225:13230   */\n      dup3\n        /* \"#utility.yul\":13195:13234   */\n      tag_130\n      jump\t// in\n    tag_274:\n        /* \"#utility.yul\":13168:13169   */\n      0x01\n        /* \"#utility.yul\":13161:13166   */\n      dup2\n        /* \"#utility.yul\":13157:13170   */\n      add\n        /* \"#utility.yul\":13148:13170   */\n      swap1\n      pop\n        /* \"#utility.yul\":13124:13244   */\n      jump(tag_271)\n    tag_273:\n        /* \"#utility.yul\":13064:13250   */\n      pop\n      pop\n      jump\t// out\n        /* \"#utility.yul\":13256:13799   */\n    tag_132:\n        /* \"#utility.yul\":13357:13359   */\n      0x1f\n        /* \"#utility.yul\":13352:13355   */\n      dup3\n        /* \"#utility.yul\":13349:13360   */\n      gt\n        /* \"#utility.yul\":13346:13792   */\n      iszero\n      tag_276\n      jumpi\n        /* \"#utility.yul\":13391:13429   */\n      tag_277\n        /* \"#utility.yul\":13423:13428   */\n      dup2\n        /* \"#utility.yul\":13391:13429   */\n      tag_121\n      jump\t// in\n    tag_277:\n        /* \"#utility.yul\":13475:13504   */\n      tag_278\n        /* \"#utility.yul\":13493:13503   */\n      dup5\n        /* \"#utility.yul\":13475:13504   */\n      tag_122\n      jump\t// in\n    tag_278:\n        /* \"#utility.yul\":13465:13473   */\n      dup2\n        /* \"#utility.yul\":13461:13505   */\n      add\n        /* \"#utility.yul\":13658:13660   */\n      0x20\n        /* \"#utility.yul\":13646:13656   */\n      dup6\n        /* \"#utility.yul\":13643:13661   */\n      lt\n        /* \"#utility.yul\":13640:13689   */\n      iszero\n      tag_279\n      jumpi\n        /* \"#utility.yul\":13679:13687   */\n      dup2\n        /* \"#utility.yul\":13664:13687   */\n      swap1\n      pop\n        /* \"#utility.yul\":13640:13689   */\n    tag_279:\n        /* \"#utility.yul\":13702:13782   */\n      tag_280\n        /* \"#utility.yul\":13758:13780   */\n      tag_281\n        /* \"#utility.yul\":13776:13779   */\n      dup6\n        /* \"#utility.yul\":13758:13780   */\n      tag_122\n      jump\t// in\n    tag_281:\n        /* \"#utility.yul\":13748:13756   */\n      dup4\n        /* \"#utility.yul\":13744:13781   */\n      add\n        /* \"#utility.yul\":13731:13742   */\n      dup3\n        /* \"#utility.yul\":13702:13782   */\n      tag_131\n      jump\t// in\n    tag_280:\n        /* \"#utility.yul\":13361:13792   */\n      pop\n      pop\n        /* \"#utility.yul\":13346:13792   */\n    tag_276:\n        /* \"#utility.yul\":13256:13799   */\n      pop\n      pop\n      pop\n      jump\t// out\n        /* \"#utility.yul\":13805:13922   */\n    tag_133:\n        /* \"#utility.yul\":13859:13867   */\n      0x00\n        /* \"#utility.yul\":13909:13914   */\n      dup3\n        /* \"#utility.yul\":13903:13907   */\n      dup3\n        /* \"#utility.yul\":13899:13915   */\n      shr\n        /* \"#utility.yul\":13878:13915   */\n      swap1\n      pop\n        /* \"#utility.yul\":13805:13922   */\n      swap3\n      swap2\n      pop\n      pop\n      jump\t// out\n        /* \"#utility.yul\":13928:14097   */\n    tag_134:\n        /* \"#utility.yul\":13972:13978   */\n      0x00\n        /* \"#utility.yul\":14005:14056   */\n      tag_284\n        /* \"#utility.yul\":14053:14054   */\n      0x00\n        /* \"#utility.yul\":14049:14055   */\n      not\n        /* \"#utility.yul\":14041:14046   */\n      dup5\n        /* \"#utility.yul\":14038:14039   */\n      0x08\n        /* \"#utility.yul\":14034:14047   */\n      mul\n        /* \"#utility.yul\":14005:14056   */\n      tag_133\n      jump\t// in\n    tag_284:\n        /* \"#utility.yul\":14001:14057   */\n      not\n        /* \"#utility.yul\":14086:14090   */\n      dup1\n        /* \"#utility.yul\":14080:14084   */\n      dup4\n        /* \"#utility.yul\":14076:14091   */\n      and\n        /* \"#utility.yul\":14066:14091   */\n      swap2\n      pop\n        /* \"#utility.yul\":13979:14097   */\n      pop\n        /* \"#utility.yul\":13928:14097   */\n      swap3\n      swap2\n      pop\n      pop\n      jump\t// out\n        /* \"#utility.yul\":14102:14397   */\n    tag_135:\n        /* \"#utility.yul\":14178:14182   */\n      0x00\n        /* \"#utility.yul\":14324:14353   */\n      tag_286\n        /* \"#utility.yul\":14349:14352   */\n      dup4\n        /* \"#utility.yul\":14343:14347   */\n      dup4\n        /* \"#utility.yul\":14324:14353   */\n      tag_134\n      jump\t// in\n    tag_286:\n        /* \"#utility.yul\":14316:14353   */\n      swap2\n      pop\n        /* \"#utility.yul\":14386:14389   */\n      dup3\n        /* \"#utility.yul\":14383:14384   */\n      0x02\n        /* \"#utility.yul\":14379:14390   */\n      mul\n        /* \"#utility.yul\":14373:14377   */\n      dup3\n        /* \"#utility.yul\":14370:14391   */\n      or\n        /* \"#utility.yul\":14362:14391   */\n      swap1\n      pop\n        /* \"#utility.yul\":14102:14397   */\n      swap3\n      swap2\n      pop\n      pop\n      jump\t// out\n        /* \"#utility.yul\":14402:15797   */\n    tag_73:\n        /* \"#utility.yul\":14519:14556   */\n      tag_288\n        /* \"#utility.yul\":14552:14555   */\n      dup3\n        /* \"#utility.yul\":14519:14556   */\n      tag_99\n      jump\t// in\n    tag_288:\n        /* \"#utility.yul\":14621:14639   */\n      0xffffffffffffffff\n        /* \"#utility.yul\":14613:14619   */\n      dup2\n        /* \"#utility.yul\":14610:14640   */\n      gt\n        /* \"#utility.yul\":14607:14663   */\n      iszero\n      tag_289\n      jumpi\n        /* \"#utility.yul\":14643:14661   */\n      tag_290\n      tag_106\n      jump\t// in\n    tag_290:\n        /* \"#utility.yul\":14607:14663   */\n    tag_289:\n        /* \"#utility.yul\":14687:14725   */\n      tag_291\n        /* \"#utility.yul\":14719:14723   */\n      dup3\n        /* \"#utility.yul\":14713:14724   */\n      sload\n        /* \"#utility.yul\":14687:14725   */\n      tag_38\n      jump\t// in\n    tag_291:\n        /* \"#utility.yul\":14772:14839   */\n      tag_292\n        /* \"#utility.yul\":14832:14838   */\n      dup3\n        /* \"#utility.yul\":14824:14830   */\n      dup3\n        /* \"#utility.yul\":14818:14822   */\n      dup6\n        /* \"#utility.yul\":14772:14839   */\n      tag_132\n      jump\t// in\n    tag_292:\n        /* \"#utility.yul\":14866:14867   */\n      0x00\n        /* \"#utility.yul\":14890:14894   */\n      0x20\n        /* \"#utility.yul\":14877:14894   */\n      swap1\n      pop\n        /* \"#utility.yul\":14922:14924   */\n      0x1f\n        /* \"#utility.yul\":14914:14920   */\n      dup4\n        /* \"#utility.yul\":14911:14925   */\n      gt\n        /* \"#utility.yul\":14939:14940   */\n      0x01\n        /* \"#utility.yul\":14934:15552   */\n      dup2\n      eq\n      tag_294\n      jumpi\n        /* \"#utility.yul\":15596:15597   */\n      0x00\n        /* \"#utility.yul\":15613:15619   */\n      dup5\n        /* \"#utility.yul\":15610:15687   */\n      iszero\n      tag_295\n      jumpi\n        /* \"#utility.yul\":15662:15671   */\n      dup3\n        /* \"#utility.yul\":15657:15660   */\n      dup8\n        /* \"#utility.yul\":15653:15672   */\n      add\n        /* \"#utility.yul\":15647:15673   */\n      mload\n        /* \"#utility.yul\":15638:15673   */\n      swap1\n      pop\n        /* \"#utility.yul\":15610:15687   */\n    tag_295:\n        /* \"#utility.yul\":15713:15780   */\n      tag_296\n        /* \"#utility.yul\":15773:15779   */\n      dup6\n        /* \"#utility.yul\":15766:15771   */\n      dup3\n        /* \"#utility.yul\":15713:15780   */\n      tag_135\n      jump\t// in\n    tag_296:\n        /* \"#utility.yul\":15707:15711   */\n      dup7\n        /* \"#utility.yul\":15700:15781   */\n      sstore\n        /* \"#utility.yul\":15569:15791   */\n      pop\n        /* \"#utility.yul\":14904:15791   */\n      jump(tag_293)\n        /* \"#utility.yul\":14934:15552   */\n    tag_294:\n        /* \"#utility.yul\":14986:14990   */\n      0x1f\n        /* \"#utility.yul\":14982:14991   */\n      not\n        /* \"#utility.yul\":14974:14980   */\n      dup5\n        /* \"#utility.yul\":14970:14992   */\n      and\n        /* \"#utility.yul\":15020:15057   */\n      tag_297\n        /* \"#utility.yul\":15052:15056   */\n      dup7\n        /* \"#utility.yul\":15020:15057   */\n      tag_121\n      jump\t// in\n    tag_297:\n        /* \"#utility.yul\":15079:15080   */\n      0x00\n        /* \"#utility.yul\":15093:15301   */\n    tag_298:\n        /* \"#utility.yul\":15107:15114   */\n      dup3\n        /* \"#utility.yul\":15104:15105   */\n      dup2\n        /* \"#utility.yul\":15101:15115   */\n      lt\n        /* \"#utility.yul\":15093:15301   */\n      iszero\n      tag_300\n      jumpi\n        /* \"#utility.yul\":15186:15195   */\n      dup5\n        /* \"#utility.yul\":15181:15184   */\n      dup10\n        /* \"#utility.yul\":15177:15196   */\n      add\n        /* \"#utility.yul\":15171:15197   */\n      mload\n        /* \"#utility.yul\":15163:15169   */\n      dup3\n        /* \"#utility.yul\":15156:15198   */\n      sstore\n        /* \"#utility.yul\":15237:15238   */\n      0x01\n        /* \"#utility.yul\":15229:15235   */\n      dup3\n        /* \"#utility.yul\":15225:15239   */\n      add\n        /* \"#utility.yul\":15215:15239   */\n      swap2\n      pop\n        /* \"#utility.yul\":15284:15286   */\n      0x20\n        /* \"#utility.yul\":15273:15282   */\n      dup6\n        /* \"#utility.yul\":15269:15287   */\n      add\n        /* \"#utility.yul\":15256:15287   */\n      swap5\n      pop\n        /* \"#utility.yul\":15130:15134   */\n      0x20\n        /* \"#utility.yul\":15127:15128   */\n      dup2\n        /* \"#utility.yul\":15123:15135   */\n      add\n        /* \"#utility.yul\":15118:15135   */\n      swap1\n      pop\n        /* \"#utility.yul\":15093:15301   */\n      jump(tag_298)\n    tag_300:\n        /* \"#utility.yul\":15329:15335   */\n      dup7\n        /* \"#utility.yul\":15320:15327   */\n      dup4\n        /* \"#utility.yul\":15317:15336   */\n      lt\n        /* \"#utility.yul\":15314:15493   */\n      iszero\n      tag_301\n      jumpi\n        /* \"#utility.yul\":15387:15396   */\n      dup5\n        /* \"#utility.yul\":15382:15385   */\n      dup10\n        /* \"#utility.yul\":15378:15397   */\n      add\n        /* \"#utility.yul\":15372:15398   */\n      mload\n        /* \"#utility.yul\":15430:15478   */\n      tag_302\n        /* \"#utility.yul\":15472:15476   */\n      0x1f\n        /* \"#utility.yul\":15464:15470   */\n      dup10\n        /* \"#utility.yul\":15460:15477   */\n      and\n        /* \"#utility.yul\":15449:15458   */\n      dup3\n        /* \"#utility.yul\":15430:15478   */\n      tag_134\n      jump\t// in\n    tag_302:\n        /* \"#utility.yul\":15422:15428   */\n      dup4\n        /* \"#utility.yul\":15415:15479   */\n      sstore\n        /* \"#utility.yul\":15337:15493   */\n      pop\n        /* \"#utility.yul\":15314:15493   */\n    tag_301:\n        /* \"#utility.yul\":15539:15540   */\n      0x01\n        /* \"#utility.yul\":15535:15536   */\n      0x02\n        /* \"#utility.yul\":15527:15533   */\n      dup9\n        /* \"#utility.yul\":15523:15537   */\n      mul\n        /* \"#utility.yul\":15519:15541   */\n      add\n        /* \"#utility.yul\":15513:15517   */\n      dup9\n        /* \"#utility.yul\":15506:15542   */\n      sstore\n        /* \"#utility.yul\":14941:15552   */\n      pop\n      pop\n      pop\n        /* \"#utility.yul\":14904:15791   */\n    tag_293:\n      pop\n        /* \"#utility.yul\":14494:15797   */\n      pop\n      pop\n      pop\n        /* \"#utility.yul\":14402:15797   */\n      pop\n      pop\n      jump\t// out\n        /* \"#utility.yul\":15803:16447   */\n    tag_75:\n        /* \"#utility.yul\":16000:16004   */\n      0x00\n        /* \"#utility.yul\":16038:16041   */\n      0x80\n        /* \"#utility.yul\":16027:16036   */\n      dup3\n        /* \"#utility.yul\":16023:16042   */\n      add\n        /* \"#utility.yul\":16015:16042   */\n      swap1\n      pop\n        /* \"#utility.yul\":16052:16123   */\n      tag_304\n        /* \"#utility.yul\":16120:16121   */\n      0x00\n        /* \"#utility.yul\":16109:16118   */\n      dup4\n        /* \"#utility.yul\":16105:16122   */\n      add\n        /* \"#utility.yul\":16096:16102   */\n      dup8\n        /* \"#utility.yul\":16052:16123   */\n      tag_95\n      jump\t// in\n    tag_304:\n        /* \"#utility.yul\":16133:16205   */\n      tag_305\n        /* \"#utility.yul\":16201:16203   */\n      0x20\n        /* \"#utility.yul\":16190:16199   */\n      dup4\n        /* \"#utility.yul\":16186:16204   */\n      add\n        /* \"#utility.yul\":16177:16183   */\n      dup7\n        /* \"#utility.yul\":16133:16205   */\n      tag_95\n      jump\t// in\n    tag_305:\n        /* \"#utility.yul\":16252:16261   */\n      dup2\n        /* \"#utility.yul\":16246:16250   */\n      dup2\n        /* \"#utility.yul\":16242:16262   */\n      sub\n        /* \"#utility.yul\":16237:16239   */\n      0x40\n        /* \"#utility.yul\":16226:16235   */\n      dup4\n        /* \"#utility.yul\":16222:16240   */\n      add\n        /* \"#utility.yul\":16215:16263   */\n      mstore\n        /* \"#utility.yul\":16280:16358   */\n      tag_306\n        /* \"#utility.yul\":16353:16357   */\n      dup2\n        /* \"#utility.yul\":16344:16350   */\n      dup6\n        /* \"#utility.yul\":16280:16358   */\n      tag_103\n      jump\t// in\n    tag_306:\n        /* \"#utility.yul\":16272:16358   */\n      swap1\n      pop\n        /* \"#utility.yul\":16368:16440   */\n      tag_307\n        /* \"#utility.yul\":16436:16438   */\n      0x60\n        /* \"#utility.yul\":16425:16434   */\n      dup4\n        /* \"#utility.yul\":16421:16439   */\n      add\n        /* \"#utility.yul\":16412:16418   */\n      dup5\n        /* \"#utility.yul\":16368:16440   */\n      tag_95\n      jump\t// in\n    tag_307:\n        /* \"#utility.yul\":15803:16447   */\n      swap6\n      swap5\n      pop\n      pop\n      pop\n      pop\n      pop\n      jump\t// out\n        /* \"#utility.yul\":16453:16626   */\n    tag_136:\n        /* \"#utility.yul\":16593:16618   */\n      0x436f6e74656e742063616e6e6f7420626520656d707479000000000000000000\n        /* \"#utility.yul\":16589:16590   */\n      0x00\n        /* \"#utility.yul\":16581:16587   */\n      dup3\n        /* \"#utility.yul\":16577:16591   */\n      add\n        /* \"#utility.yul\":16570:16619   */\n      mstore\n        /* \"#utility.yul\":16453:16626   */\n      pop\n      jump\t// out\n        /* \"#utility.yul\":16632:16998   */\n    tag_137:\n        /* \"#utility.yul\":16774:16777   */\n      0x00\n        /* \"#utility.yul\":16795:16862   */\n      tag_310\n        /* \"#utility.yul\":16859:16861   */\n      0x17\n        /* \"#utility.yul\":16854:16857   */\n      dup4\n        /* \"#utility.yul\":16795:16862   */\n      tag_100\n      jump\t// in\n    tag_310:\n        /* \"#utility.yul\":16788:16862   */\n      swap2\n      pop\n        /* \"#utility.yul\":16871:16964   */\n      tag_311\n        /* \"#utility.yul\":16960:16963   */\n      dup3\n        /* \"#utility.yul\":16871:16964   */\n      tag_136\n      jump\t// in\n    tag_311:\n        /* \"#utility.yul\":16989:16991   */\n      0x20\n        /* \"#utility.yul\":16984:16987   */\n      dup3\n        /* \"#utility.yul\":16980:16992   */\n      add\n        /* \"#utility.yul\":16973:16992   */\n      swap1\n      pop\n        /* \"#utility.yul\":16632:16998   */\n      swap2\n      swap1\n      pop\n      jump\t// out\n        /* \"#utility.yul\":17004:17423   */\n    tag_79:\n        /* \"#utility.yul\":17170:17174   */\n      0x00\n        /* \"#utility.yul\":17208:17210   */\n      0x20\n        /* \"#utility.yul\":17197:17206   */\n      dup3\n        /* \"#utility.yul\":17193:17211   */\n      add\n        /* \"#utility.yul\":17185:17211   */\n      swap1\n      pop\n        /* \"#utility.yul\":17257:17266   */\n      dup2\n        /* \"#utility.yul\":17251:17255   */\n      dup2\n        /* \"#utility.yul\":17247:17267   */\n      sub\n        /* \"#utility.yul\":17243:17244   */\n      0x00\n        /* \"#utility.yul\":17232:17241   */\n      dup4\n        /* \"#utility.yul\":17228:17245   */\n      add\n        /* \"#utility.yul\":17221:17268   */\n      mstore\n        /* \"#utility.yul\":17285:17416   */\n      tag_313\n        /* \"#utility.yul\":17411:17415   */\n      dup2\n        /* \"#utility.yul\":17285:17416   */\n      tag_137\n      jump\t// in\n    tag_313:\n        /* \"#utility.yul\":17277:17416   */\n      swap1\n      pop\n        /* \"#utility.yul\":17004:17423   */\n      swap2\n      swap1\n      pop\n      jump\t// out\n        /* \"#utility.yul\":17429:17962   */\n    tag_83:\n        /* \"#utility.yul\":17598:17602   */\n      0x00\n        /* \"#utility.yul\":17636:17638   */\n      0x60\n        /* \"#utility.yul\":17625:17634   */\n      dup3\n        /* \"#utility.yul\":17621:17639   */\n      add\n        /* \"#utility.yul\":17613:17639   */\n      swap1\n      pop\n        /* \"#utility.yul\":17649:17720   */\n      tag_315\n        /* \"#utility.yul\":17717:17718   */\n      0x00\n        /* \"#utility.yul\":17706:17715   */\n      dup4\n        /* \"#utility.yul\":17702:17719   */\n      add\n        /* \"#utility.yul\":17693:17699   */\n      dup7\n        /* \"#utility.yul\":17649:17720   */\n      tag_95\n      jump\t// in\n    tag_315:\n        /* \"#utility.yul\":17767:17776   */\n      dup2\n        /* \"#utility.yul\":17761:17765   */\n      dup2\n        /* \"#utility.yul\":17757:17777   */\n      sub\n        /* \"#utility.yul\":17752:17754   */\n      0x20\n        /* \"#utility.yul\":17741:17750   */\n      dup4\n        /* \"#utility.yul\":17737:17755   */\n      add\n        /* \"#utility.yul\":17730:17778   */\n      mstore\n        /* \"#utility.yul\":17795:17873   */\n      tag_316\n        /* \"#utility.yul\":17868:17872   */\n      dup2\n        /* \"#utility.yul\":17859:17865   */\n      dup6\n        /* \"#utility.yul\":17795:17873   */\n      tag_103\n      jump\t// in\n    tag_316:\n        /* \"#utility.yul\":17787:17873   */\n      swap1\n      pop\n        /* \"#utility.yul\":17883:17955   */\n      tag_317\n        /* \"#utility.yul\":17951:17953   */\n      0x40\n        /* \"#utility.yul\":17940:17949   */\n      dup4\n        /* \"#utility.yul\":17936:17954   */\n      add\n        /* \"#utility.yul\":17927:17933   */\n      dup5\n        /* \"#utility.yul\":17883:17955   */\n      tag_95\n      jump\t// in\n    tag_317:\n        /* \"#utility.yul\":17429:17962   */\n      swap5\n      swap4\n      pop\n      pop\n      pop\n      pop\n      jump\t// out\n\n    auxdata: 0xa26469706673582212203cfd5aa048f3732cb9efec39ef3ffc1c4eb5d5ee19a446b26029f0f58dcc9a9c64736f6c634300081c0033\n}\n",
				"bytecode": {
					"linkReferences": {},
					"object": "608060405260016002553480156013575f5ffd5b506113ab806100215f395ff3fe608060405234801561000f575f5ffd5b5060043610610060575f3560e01c80630b1e7f831461006457806340731c241461009857806348892753146100cc578063aa7e5683146100ff578063c7303c611461011b578063fc6c776f14610137575b5f5ffd5b61007e60048036038101906100799190610a79565b61016a565b60405161008f959493929190610b62565b60405180910390f35b6100b260048036038101906100ad9190610a79565b610240565b6040516100c3959493929190610b62565b60405180910390f35b6100e660048036038101906100e19190610bba565b6103e6565b6040516100f69493929190610bf8565b60405180910390f35b61011960048036038101906101149190610d6e565b6105eb565b005b61013560048036038101906101309190610dc8565b6107db565b005b610151600480360381019061014c9190610bba565b610959565b6040516101619493929190610bf8565b60405180910390f35b5f602052805f5260405f205f91509050805f015490806001015f9054906101000a900473ffffffffffffffffffffffffffffffffffffffff16908060020180546101b390610e3c565b80601f01602080910402602001604051908101604052809291908181526020018280546101df90610e3c565b801561022a5780601f106102015761010080835404028352916020019161022a565b820191905f5260205f20905b81548152906001019060200180831161020d57829003601f168201915b5050505050908060030154908060040154905085565b5f5f60605f5f5f5f5f8881526020019081526020015f205f01541161029a576040517f08c379a000000000000000000000000000000000000000000000000000000000815260040161029190610eb6565b60405180910390fd5b5f5f5f8881526020019081526020015f206040518060a00160405290815f8201548152602001600182015f9054906101000a900473ffffffffffffffffffffffffffffffffffffffff1673ffffffffffffffffffffffffffffffffffffffff1673ffffffffffffffffffffffffffffffffffffffff16815260200160028201805461032490610e3c565b80601f016020809104026020016040519081016040528092919081815260200182805461035090610e3c565b801561039b5780601f106103725761010080835404028352916020019161039b565b820191905f5260205f20905b81548152906001019060200180831161037e57829003601f168201915b50505050508152602001600382015481526020016004820154815250509050805f01518160200151826040015183606001518460800151955095509550955095505091939590929450565b5f5f60605f5f5f5f8881526020019081526020015f205f01541161043f576040517f08c379a000000000000000000000000000000000000000000000000000000000815260040161043690610eb6565b60405180910390fd5b5f8511801561046157505f5f8781526020019081526020015f20600301548511155b6104a0576040517f08c379a000000000000000000000000000000000000000000000000000000000815260040161049790610f1e565b60405180910390fd5b5f60015f8881526020019081526020015f205f8781526020019081526020015f206040518060800160405290815f8201548152602001600182015f9054906101000a900473ffffffffffffffffffffffffffffffffffffffff1673ffffffffffffffffffffffffffffffffffffffff1673ffffffffffffffffffffffffffffffffffffffff16815260200160028201805461053a90610e3c565b80601f016020809104026020016040519081016040528092919081815260200182805461056690610e3c565b80156105b15780601f10610588576101008083540402835291602001916105b1565b820191905f5260205f20905b81548152906001019060200180831161059457829003601f168201915b505050505081526020016003820154815250509050805f015181602001518260400151836060015194509450945094505092959194509250565b5f81511161062e576040517f08c379a000000000000000000000000000000000000000000000000000000000815260040161062590610f86565b60405180910390fd5b5f5f5f8481526020019081526020015f205f015411610682576040517f08c379a000000000000000000000000000000000000000000000000000000000815260040161067990610eb6565b60405180910390fd5b5f5f5f8481526020019081526020015f209050806003015f8154809291906106a990610fd1565b91905055506040518060800160405280826003015481526020013373ffffffffffffffffffffffffffffffffffffffff1681526020018381526020014281525060015f8581526020019081526020015f205f836003015481526020019081526020015f205f820151815f01556020820151816001015f6101000a81548173ffffffffffffffffffffffffffffffffffffffff021916908373ffffffffffffffffffffffffffffffffffffffff160217905550604082015181600201908161077091906111b8565b50606082015181600301559050503373ffffffffffffffffffffffffffffffffffffffff167f92eb5433849a5a2a1922dadaf613eff78bb7de4173779f8d4683b877aac7260f84836003015485426040516107ce9493929190611287565b60405180910390a2505050565b5f81511161081e576040517f08c379a00000000000000000000000000000000000000000000000000000000081526004016108159061131b565b60405180910390fd5b5f600254905060025f81548092919061083690610fd1565b91905055506040518060a001604052808281526020013373ffffffffffffffffffffffffffffffffffffffff1681526020018381526020015f8152602001428152505f5f8381526020019081526020015f205f820151815f01556020820151816001015f6101000a81548173ffffffffffffffffffffffffffffffffffffffff021916908373ffffffffffffffffffffffffffffffffffffffff16021790555060408201518160020190816108eb91906111b8565b5060608201518160030155608082015181600401559050503373ffffffffffffffffffffffffffffffffffffffff167f285db98a4632176385795ddf0d2b67cef1a21f47eb2f5d06f786ab6b5147e20082844260405161094d93929190611339565b60405180910390a25050565b6001602052815f5260405f20602052805f5260405f205f9150915050805f015490806001015f9054906101000a900473ffffffffffffffffffffffffffffffffffffffff16908060020180546109ae90610e3c565b80601f01602080910402602001604051908101604052809291908181526020018280546109da90610e3c565b8015610a255780601f106109fc57610100808354040283529160200191610a25565b820191905f5260205f20905b815481529060010190602001808311610a0857829003601f168201915b5050505050908060030154905084565b5f604051905090565b5f5ffd5b5f5ffd5b5f819050919050565b610a5881610a46565b8114610a62575f5ffd5b50565b5f81359050610a7381610a4f565b92915050565b5f60208284031215610a8e57610a8d610a3e565b5b5f610a9b84828501610a65565b91505092915050565b610aad81610a46565b82525050565b5f73ffffffffffffffffffffffffffffffffffffffff82169050919050565b5f610adc82610ab3565b9050919050565b610aec81610ad2565b82525050565b5f81519050919050565b5f82825260208201905092915050565b8281835e5f83830152505050565b5f601f19601f8301169050919050565b5f610b3482610af2565b610b3e8185610afc565b9350610b4e818560208601610b0c565b610b5781610b1a565b840191505092915050565b5f60a082019050610b755f830188610aa4565b610b826020830187610ae3565b8181036040830152610b948186610b2a565b9050610ba36060830185610aa4565b610bb06080830184610aa4565b9695505050505050565b5f5f60408385031215610bd057610bcf610a3e565b5b5f610bdd85828601610a65565b9250506020610bee85828601610a65565b9150509250929050565b5f608082019050610c0b5f830187610aa4565b610c186020830186610ae3565b8181036040830152610c2a8185610b2a565b9050610c396060830184610aa4565b95945050505050565b5f5ffd5b5f5ffd5b7f4e487b71000000000000000000000000000000000000000000000000000000005f52604160045260245ffd5b610c8082610b1a565b810181811067ffffffffffffffff82111715610c9f57610c9e610c4a565b5b80604052505050565b5f610cb1610a35565b9050610cbd8282610c77565b919050565b5f67ffffffffffffffff821115610cdc57610cdb610c4a565b5b610ce582610b1a565b9050602081019050919050565b828183375f83830152505050565b5f610d12610d0d84610cc2565b610ca8565b905082815260208101848484011115610d2e57610d2d610c46565b5b610d39848285610cf2565b509392505050565b5f82601f830112610d5557610d54610c42565b5b8135610d65848260208601610d00565b91505092915050565b5f5f60408385031215610d8457610d83610a3e565b5b5f610d9185828601610a65565b925050602083013567ffffffffffffffff811115610db257610db1610a42565b5b610dbe85828601610d41565b9150509250929050565b5f60208284031215610ddd57610ddc610a3e565b5b5f82013567ffffffffffffffff811115610dfa57610df9610a42565b5b610e0684828501610d41565b91505092915050565b7f4e487b71000000000000000000000000000000000000000000000000000000005f52602260045260245ffd5b5f6002820490506001821680610e5357607f821691505b602082108103610e6657610e65610e0f565b5b50919050565b7f506f737420646f6573206e6f74206578697374000000000000000000000000005f82015250565b5f610ea0601383610afc565b9150610eab82610e6c565b602082019050919050565b5f6020820190508181035f830152610ecd81610e94565b9050919050565b7f436f6d6d656e7420646f6573206e6f74206578697374000000000000000000005f82015250565b5f610f08601683610afc565b9150610f1382610ed4565b602082019050919050565b5f6020820190508181035f830152610f3581610efc565b9050919050565b7f436f6d6d656e742063616e6e6f7420626520656d7074790000000000000000005f82015250565b5f610f70601783610afc565b9150610f7b82610f3c565b602082019050919050565b5f6020820190508181035f830152610f9d81610f64565b9050919050565b7f4e487b71000000000000000000000000000000000000000000000000000000005f52601160045260245ffd5b5f610fdb82610a46565b91507fffffffffffffffffffffffffffffffffffffffffffffffffffffffffffffffff820361100d5761100c610fa4565b5b600182019050919050565b5f819050815f5260205f209050919050565b5f6020601f8301049050919050565b5f82821b905092915050565b5f600883026110747fffffffffffffffffffffffffffffffffffffffffffffffffffffffffffffffff82611039565b61107e8683611039565b95508019841693508086168417925050509392505050565b5f819050919050565b5f6110b96110b46110af84610a46565b611096565b610a46565b9050919050565b5f819050919050565b6110d28361109f565b6110e66110de826110c0565b848454611045565b825550505050565b5f5f905090565b6110fd6110ee565b6111088184846110c9565b505050565b5b8181101561112b576111205f826110f5565b60018101905061110e565b5050565b601f8211156111705761114181611018565b61114a8461102a565b81016020851015611159578190505b61116d6111658561102a565b83018261110d565b50505b505050565b5f82821c905092915050565b5f6111905f1984600802611175565b1980831691505092915050565b5f6111a88383611181565b9150826002028217905092915050565b6111c182610af2565b67ffffffffffffffff8111156111da576111d9610c4a565b5b6111e48254610e3c565b6111ef82828561112f565b5f60209050601f831160018114611220575f841561120e578287015190505b611218858261119d565b86555061127f565b601f19841661122e86611018565b5f5b8281101561125557848901518255600182019150602085019450602081019050611230565b86831015611272578489015161126e601f891682611181565b8355505b6001600288020188555050505b505050505050565b5f60808201905061129a5f830187610aa4565b6112a76020830186610aa4565b81810360408301526112b98185610b2a565b90506112c86060830184610aa4565b95945050505050565b7f436f6e74656e742063616e6e6f7420626520656d7074790000000000000000005f82015250565b5f611305601783610afc565b9150611310826112d1565b602082019050919050565b5f6020820190508181035f830152611332816112f9565b9050919050565b5f60608201905061134c5f830186610aa4565b818103602083015261135e8185610b2a565b905061136d6040830184610aa4565b94935050505056fea26469706673582212203cfd5aa048f3732cb9efec39ef3ffc1c4eb5d5ee19a446b26029f0f58dcc9a9c64736f6c634300081c0033",
					"opcodes": "PUSH1 0x80 PUSH1 0x40 MSTORE PUSH1 0x1 PUSH1 0x2 SSTORE CALLVALUE DUP1 ISZERO PUSH1 0x13 JUMPI PUSH0 PUSH0 REVERT JUMPDEST POP PUSH2 0x13AB DUP1 PUSH2 0x21 PUSH0 CODECOPY PUSH0 RETURN INVALID PUSH1 0x80 PUSH1 0x40 MSTORE CALLVALUE DUP1 ISZERO PUSH2 0xF JUMPI PUSH0 PUSH0 REVERT JUMPDEST POP PUSH1 0x4 CALLDATASIZE LT PUSH2 0x60 JUMPI PUSH0 CALLDATALOAD PUSH1 0xE0 SHR DUP1 PUSH4 0xB1E7F83 EQ PUSH2 0x64 JUMPI DUP1 PUSH4 0x40731C24 EQ PUSH2 0x98 JUMPI DUP1 PUSH4 0x48892753 EQ PUSH2 0xCC JUMPI DUP1 PUSH4 0xAA7E5683 EQ PUSH2 0xFF JUMPI DUP1 PUSH4 0xC7303C61 EQ PUSH2 0x11B JUMPI DUP1 PUSH4 0xFC6C776F EQ PUSH2 0x137 JUMPI JUMPDEST PUSH0 PUSH0 REVERT JUMPDEST PUSH2 0x7E PUSH1 0x4 DUP1 CALLDATASIZE SUB DUP2 ADD SWAP1 PUSH2 0x79 SWAP2 SWAP1 PUSH2 0xA79 JUMP JUMPDEST PUSH2 0x16A JUMP JUMPDEST PUSH1 0x40 MLOAD PUSH2 0x8F SWAP6 SWAP5 SWAP4 SWAP3 SWAP2 SWAP1 PUSH2 0xB62 JUMP JUMPDEST PUSH1 0x40 MLOAD DUP1 SWAP2 SUB SWAP1 RETURN JUMPDEST PUSH2 0xB2 PUSH1 0x4 DUP1 CALLDATASIZE SUB DUP2 ADD SWAP1 PUSH2 0xAD SWAP2 SWAP1 PUSH2 0xA79 JUMP JUMPDEST PUSH2 0x240 JUMP JUMPDEST PUSH1 0x40 MLOAD PUSH2 0xC3 SWAP6 SWAP5 SWAP4 SWAP3 SWAP2 SWAP1 PUSH2 0xB62 JUMP JUMPDEST PUSH1 0x40 MLOAD DUP1 SWAP2 SUB SWAP1 RETURN JUMPDEST PUSH2 0xE6 PUSH1 0x4 DUP1 CALLDATASIZE SUB DUP2 ADD SWAP1 PUSH2 0xE1 SWAP2 SWAP1 PUSH2 0xBBA JUMP JUMPDEST PUSH2 0x3E6 JUMP JUMPDEST PUSH1 0x40 MLOAD PUSH2 0xF6 SWAP5 SWAP4 SWAP3 SWAP2 SWAP1 PUSH2 0xBF8 JUMP JUMPDEST PUSH1 0x40 MLOAD DUP1 SWAP2 SUB SWAP1 RETURN JUMPDEST PUSH2 0x119 PUSH1 0x4 DUP1 CALLDATASIZE SUB DUP2 ADD SWAP1 PUSH2 0x114 SWAP2 SWAP1 PUSH2 0xD6E JUMP JUMPDEST PUSH2 0x5EB JUMP JUMPDEST STOP JUMPDEST PUSH2 0x135 PUSH1 0x4 DUP1 CALLDATASIZE SUB DUP2 ADD SWAP1 PUSH2 0x130 SWAP2 SWAP1 PUSH2 0xDC8 JUMP JUMPDEST PUSH2 0x7DB JUMP JUMPDEST STOP JUMPDEST PUSH2 0x151 PUSH1 0x4 DUP1 CALLDATASIZE SUB DUP2 ADD SWAP1 PUSH2 0x14C SWAP2 SWAP1 PUSH2 0xBBA JUMP JUMPDEST PUSH2 0x959 JUMP JUMPDEST PUSH1 0x40 MLOAD PUSH2 0x161 SWAP5 SWAP4 SWAP3 SWAP2 SWAP1 PUSH2 0xBF8 JUMP JUMPDEST PUSH1 0x40 MLOAD DUP1 SWAP2 SUB SWAP1 RETURN JUMPDEST PUSH0 PUSH1 0x20 MSTORE DUP1 PUSH0 MSTORE PUSH1 0x40 PUSH0 KECCAK256 PUSH0 SWAP2 POP SWAP1 POP DUP1 PUSH0 ADD SLOAD SWAP1 DUP1 PUSH1 0x1 ADD PUSH0 SWAP1 SLOAD SWAP1 PUSH2 0x100 EXP SWAP1 DIV PUSH20 0xFFFFFFFFFFFFFFFFFFFFFFFFFFFFFFFFFFFFFFFF AND SWAP1 DUP1 PUSH1 0x2 ADD DUP1 SLOAD PUSH2 0x1B3 SWAP1 PUSH2 0xE3C JUMP JUMPDEST DUP1 PUSH1 0x1F ADD PUSH1 0x20 DUP1 SWAP2 DIV MUL PUSH1 0x20 ADD PUSH1 0x40 MLOAD SWAP1 DUP2 ADD PUSH1 0x40 MSTORE DUP1 SWAP3 SWAP2 SWAP1 DUP2 DUP2 MSTORE PUSH1 0x20 ADD DUP3 DUP1 SLOAD PUSH2 0x1DF SWAP1 PUSH2 0xE3C JUMP JUMPDEST DUP1 ISZERO PUSH2 0x22A JUMPI DUP1 PUSH1 0x1F LT PUSH2 0x201 JUMPI PUSH2 0x100 DUP1 DUP4 SLOAD DIV MUL DUP4 MSTORE SWAP2 PUSH1 0x20 ADD SWAP2 PUSH2 0x22A JUMP JUMPDEST DUP3 ADD SWAP2 SWAP1 PUSH0 MSTORE PUSH1 0x20 PUSH0 KECCAK256 SWAP1 JUMPDEST DUP2 SLOAD DUP2 MSTORE SWAP1 PUSH1 0x1 ADD SWAP1 PUSH1 0x20 ADD DUP1 DUP4 GT PUSH2 0x20D JUMPI DUP3 SWAP1 SUB PUSH1 0x1F AND DUP3 ADD SWAP2 JUMPDEST POP POP POP POP POP SWAP1 DUP1 PUSH1 0x3 ADD SLOAD SWAP1 DUP1 PUSH1 0x4 ADD SLOAD SWAP1 POP DUP6 JUMP JUMPDEST PUSH0 PUSH0 PUSH1 0x60 PUSH0 PUSH0 PUSH0 PUSH0 PUSH0 DUP9 DUP2 MSTORE PUSH1 0x20 ADD SWAP1 DUP2 MSTORE PUSH1 0x20 ADD PUSH0 KECCAK256 PUSH0 ADD SLOAD GT PUSH2 0x29A JUMPI PUSH1 0x40 MLOAD PUSH32 0x8C379A000000000000000000000000000000000000000000000000000000000 DUP2 MSTORE PUSH1 0x4 ADD PUSH2 0x291 SWAP1 PUSH2 0xEB6 JUMP JUMPDEST PUSH1 0x40 MLOAD DUP1 SWAP2 SUB SWAP1 REVERT JUMPDEST PUSH0 PUSH0 PUSH0 DUP9 DUP2 MSTORE PUSH1 0x20 ADD SWAP1 DUP2 MSTORE PUSH1 0x20 ADD PUSH0 KECCAK256 PUSH1 0x40 MLOAD DUP1 PUSH1 0xA0 ADD PUSH1 0x40 MSTORE SWAP1 DUP2 PUSH0 DUP3 ADD SLOAD DUP2 MSTORE PUSH1 0x20 ADD PUSH1 0x1 DUP3 ADD PUSH0 SWAP1 SLOAD SWAP1 PUSH2 0x100 EXP SWAP1 DIV PUSH20 0xFFFFFFFFFFFFFFFFFFFFFFFFFFFFFFFFFFFFFFFF AND PUSH20 0xFFFFFFFFFFFFFFFFFFFFFFFFFFFFFFFFFFFFFFFF AND PUSH20 0xFFFFFFFFFFFFFFFFFFFFFFFFFFFFFFFFFFFFFFFF AND DUP2 MSTORE PUSH1 0x20 ADD PUSH1 0x2 DUP3 ADD DUP1 SLOAD PUSH2 0x324 SWAP1 PUSH2 0xE3C JUMP JUMPDEST DUP1 PUSH1 0x1F ADD PUSH1 0x20 DUP1 SWAP2 DIV MUL PUSH1 0x20 ADD PUSH1 0x40 MLOAD SWAP1 DUP2 ADD PUSH1 0x40 MSTORE DUP1 SWAP3 SWAP2 SWAP1 DUP2 DUP2 MSTORE PUSH1 0x20 ADD DUP3 DUP1 SLOAD PUSH2 0x350 SWAP1 PUSH2 0xE3C JUMP JUMPDEST DUP1 ISZERO PUSH2 0x39B JUMPI DUP1 PUSH1 0x1F LT PUSH2 0x372 JUMPI PUSH2 0x100 DUP1 DUP4 SLOAD DIV MUL DUP4 MSTORE SWAP2 PUSH1 0x20 ADD SWAP2 PUSH2 0x39B JUMP JUMPDEST DUP3 ADD SWAP2 SWAP1 PUSH0 MSTORE PUSH1 0x20 PUSH0 KECCAK256 SWAP1 JUMPDEST DUP2 SLOAD DUP2 MSTORE SWAP1 PUSH1 0x1 ADD SWAP1 PUSH1 0x20 ADD DUP1 DUP4 GT PUSH2 0x37E JUMPI DUP3 SWAP1 SUB PUSH1 0x1F AND DUP3 ADD SWAP2 JUMPDEST POP POP POP POP POP DUP2 MSTORE PUSH1 0x20 ADD PUSH1 0x3 DUP3 ADD SLOAD DUP2 MSTORE PUSH1 0x20 ADD PUSH1 0x4 DUP3 ADD SLOAD DUP2 MSTORE POP POP SWAP1 POP DUP1 PUSH0 ADD MLOAD DUP2 PUSH1 0x20 ADD MLOAD DUP3 PUSH1 0x40 ADD MLOAD DUP4 PUSH1 0x60 ADD MLOAD DUP5 PUSH1 0x80 ADD MLOAD SWAP6 POP SWAP6 POP SWAP6 POP SWAP6 POP SWAP6 POP POP SWAP2 SWAP4 SWAP6 SWAP1 SWAP3 SWAP5 POP JUMP JUMPDEST PUSH0 PUSH0 PUSH1 0x60 PUSH0 PUSH0 PUSH0 PUSH0 DUP9 DUP2 MSTORE PUSH1 0x20 ADD SWAP1 DUP2 MSTORE PUSH1 0x20 ADD PUSH0 KECCAK256 PUSH0 ADD SLOAD GT PUSH2 0x43F JUMPI PUSH1 0x40 MLOAD PUSH32 0x8C379A000000000000000000000000000000000000000000000000000000000 DUP2 MSTORE PUSH1 0x4 ADD PUSH2 0x436 SWAP1 PUSH2 0xEB6 JUMP JUMPDEST PUSH1 0x40 MLOAD DUP1 SWAP2 SUB SWAP1 REVERT JUMPDEST PUSH0 DUP6 GT DUP1 ISZERO PUSH2 0x461 JUMPI POP PUSH0 PUSH0 DUP8 DUP2 MSTORE PUSH1 0x20 ADD SWAP1 DUP2 MSTORE PUSH1 0x20 ADD PUSH0 KECCAK256 PUSH1 0x3 ADD SLOAD DUP6 GT ISZERO JUMPDEST PUSH2 0x4A0 JUMPI PUSH1 0x40 MLOAD PUSH32 0x8C379A000000000000000000000000000000000000000000000000000000000 DUP2 MSTORE PUSH1 0x4 ADD PUSH2 0x497 SWAP1 PUSH2 0xF1E JUMP JUMPDEST PUSH1 0x40 MLOAD DUP1 SWAP2 SUB SWAP1 REVERT JUMPDEST PUSH0 PUSH1 0x1 PUSH0 DUP9 DUP2 MSTORE PUSH1 0x20 ADD SWAP1 DUP2 MSTORE PUSH1 0x20 ADD PUSH0 KECCAK256 PUSH0 DUP8 DUP2 MSTORE PUSH1 0x20 ADD SWAP1 DUP2 MSTORE PUSH1 0x20 ADD PUSH0 KECCAK256 PUSH1 0x40 MLOAD DUP1 PUSH1 0x80 ADD PUSH1 0x40 MSTORE SWAP1 DUP2 PUSH0 DUP3 ADD SLOAD DUP2 MSTORE PUSH1 0x20 ADD PUSH1 0x1 DUP3 ADD PUSH0 SWAP1 SLOAD SWAP1 PUSH2 0x100 EXP SWAP1 DIV PUSH20 0xFFFFFFFFFFFFFFFFFFFFFFFFFFFFFFFFFFFFFFFF AND PUSH20 0xFFFFFFFFFFFFFFFFFFFFFFFFFFFFFFFFFFFFFFFF AND PUSH20 0xFFFFFFFFFFFFFFFFFFFFFFFFFFFFFFFFFFFFFFFF AND DUP2 MSTORE PUSH1 0x20 ADD PUSH1 0x2 DUP3 ADD DUP1 SLOAD PUSH2 0x53A SWAP1 PUSH2 0xE3C JUMP JUMPDEST DUP1 PUSH1 0x1F ADD PUSH1 0x20 DUP1 SWAP2 DIV MUL PUSH1 0x20 ADD PUSH1 0x40 MLOAD SWAP1 DUP2 ADD PUSH1 0x40 MSTORE DUP1 SWAP3 SWAP2 SWAP1 DUP2 DUP2 MSTORE PUSH1 0x20 ADD DUP3 DUP1 SLOAD PUSH2 0x566 SWAP1 PUSH2 0xE3C JUMP JUMPDEST DUP1 ISZERO PUSH2 0x5B1 JUMPI DUP1 PUSH1 0x1F LT PUSH2 0x588 JUMPI PUSH2 0x100 DUP1 DUP4 SLOAD DIV MUL DUP4 MSTORE SWAP2 PUSH1 0x20 ADD SWAP2 PUSH2 0x5B1 JUMP JUMPDEST DUP3 ADD SWAP2 SWAP1 PUSH0 MSTORE PUSH1 0x20 PUSH0 KECCAK256 SWAP1 JUMPDEST DUP2 SLOAD DUP2 MSTORE SWAP1 PUSH1 0x1 ADD SWAP1 PUSH1 0x20 ADD DUP1 DUP4 GT PUSH2 0x594 JUMPI DUP3 SWAP1 SUB PUSH1 0x1F AND DUP3 ADD SWAP2 JUMPDEST POP POP POP POP POP DUP2 MSTORE PUSH1 0x20 ADD PUSH1 0x3 DUP3 ADD SLOAD DUP2 MSTORE POP POP SWAP1 POP DUP1 PUSH0 ADD MLOAD DUP2 PUSH1 0x20 ADD MLOAD DUP3 PUSH1 0x40 ADD MLOAD DUP4 PUSH1 0x60 ADD MLOAD SWAP5 POP SWAP5 POP SWAP5 POP SWAP5 POP POP SWAP3 SWAP6 SWAP2 SWAP5 POP SWAP3 POP JUMP JUMPDEST PUSH0 DUP2 MLOAD GT PUSH2 0x62E JUMPI PUSH1 0x40 MLOAD PUSH32 0x8C379A000000000000000000000000000000000000000000000000000000000 DUP2 MSTORE PUSH1 0x4 ADD PUSH2 0x625 SWAP1 PUSH2 0xF86 JUMP JUMPDEST PUSH1 0x40 MLOAD DUP1 SWAP2 SUB SWAP1 REVERT JUMPDEST PUSH0 PUSH0 PUSH0 DUP5 DUP2 MSTORE PUSH1 0x20 ADD SWAP1 DUP2 MSTORE PUSH1 0x20 ADD PUSH0 KECCAK256 PUSH0 ADD SLOAD GT PUSH2 0x682 JUMPI PUSH1 0x40 MLOAD PUSH32 0x8C379A000000000000000000000000000000000000000000000000000000000 DUP2 MSTORE PUSH1 0x4 ADD PUSH2 0x679 SWAP1 PUSH2 0xEB6 JUMP JUMPDEST PUSH1 0x40 MLOAD DUP1 SWAP2 SUB SWAP1 REVERT JUMPDEST PUSH0 PUSH0 PUSH0 DUP5 DUP2 MSTORE PUSH1 0x20 ADD SWAP1 DUP2 MSTORE PUSH1 0x20 ADD PUSH0 KECCAK256 SWAP1 POP DUP1 PUSH1 0x3 ADD PUSH0 DUP2 SLOAD DUP1 SWAP3 SWAP2 SWAP1 PUSH2 0x6A9 SWAP1 PUSH2 0xFD1 JUMP JUMPDEST SWAP2 SWAP1 POP SSTORE POP PUSH1 0x40 MLOAD DUP1 PUSH1 0x80 ADD PUSH1 0x40 MSTORE DUP1 DUP3 PUSH1 0x3 ADD SLOAD DUP2 MSTORE PUSH1 0x20 ADD CALLER PUSH20 0xFFFFFFFFFFFFFFFFFFFFFFFFFFFFFFFFFFFFFFFF AND DUP2 MSTORE PUSH1 0x20 ADD DUP4 DUP2 MSTORE PUSH1 0x20 ADD TIMESTAMP DUP2 MSTORE POP PUSH1 0x1 PUSH0 DUP6 DUP2 MSTORE PUSH1 0x20 ADD SWAP1 DUP2 MSTORE PUSH1 0x20 ADD PUSH0 KECCAK256 PUSH0 DUP4 PUSH1 0x3 ADD SLOAD DUP2 MSTORE PUSH1 0x20 ADD SWAP1 DUP2 MSTORE PUSH1 0x20 ADD PUSH0 KECCAK256 PUSH0 DUP3 ADD MLOAD DUP2 PUSH0 ADD SSTORE PUSH1 0x20 DUP3 ADD MLOAD DUP2 PUSH1 0x1 ADD PUSH0 PUSH2 0x100 EXP DUP2 SLOAD DUP2 PUSH20 0xFFFFFFFFFFFFFFFFFFFFFFFFFFFFFFFFFFFFFFFF MUL NOT AND SWAP1 DUP4 PUSH20 0xFFFFFFFFFFFFFFFFFFFFFFFFFFFFFFFFFFFFFFFF AND MUL OR SWAP1 SSTORE POP PUSH1 0x40 DUP3 ADD MLOAD DUP2 PUSH1 0x2 ADD SWAP1 DUP2 PUSH2 0x770 SWAP2 SWAP1 PUSH2 0x11B8 JUMP JUMPDEST POP PUSH1 0x60 DUP3 ADD MLOAD DUP2 PUSH1 0x3 ADD SSTORE SWAP1 POP POP CALLER PUSH20 0xFFFFFFFFFFFFFFFFFFFFFFFFFFFFFFFFFFFFFFFF AND PUSH32 0x92EB5433849A5A2A1922DADAF613EFF78BB7DE4173779F8D4683B877AAC7260F DUP5 DUP4 PUSH1 0x3 ADD SLOAD DUP6 TIMESTAMP PUSH1 0x40 MLOAD PUSH2 0x7CE SWAP5 SWAP4 SWAP3 SWAP2 SWAP1 PUSH2 0x1287 JUMP JUMPDEST PUSH1 0x40 MLOAD DUP1 SWAP2 SUB SWAP1 LOG2 POP POP POP JUMP JUMPDEST PUSH0 DUP2 MLOAD GT PUSH2 0x81E JUMPI PUSH1 0x40 MLOAD PUSH32 0x8C379A000000000000000000000000000000000000000000000000000000000 DUP2 MSTORE PUSH1 0x4 ADD PUSH2 0x815 SWAP1 PUSH2 0x131B JUMP JUMPDEST PUSH1 0x40 MLOAD DUP1 SWAP2 SUB SWAP1 REVERT JUMPDEST PUSH0 PUSH1 0x2 SLOAD SWAP1 POP PUSH1 0x2 PUSH0 DUP2 SLOAD DUP1 SWAP3 SWAP2 SWAP1 PUSH2 0x836 SWAP1 PUSH2 0xFD1 JUMP JUMPDEST SWAP2 SWAP1 POP SSTORE POP PUSH1 0x40 MLOAD DUP1 PUSH1 0xA0 ADD PUSH1 0x40 MSTORE DUP1 DUP3 DUP2 MSTORE PUSH1 0x20 ADD CALLER PUSH20 0xFFFFFFFFFFFFFFFFFFFFFFFFFFFFFFFFFFFFFFFF AND DUP2 MSTORE PUSH1 0x20 ADD DUP4 DUP2 MSTORE PUSH1 0x20 ADD PUSH0 DUP2 MSTORE PUSH1 0x20 ADD TIMESTAMP DUP2 MSTORE POP PUSH0 PUSH0 DUP4 DUP2 MSTORE PUSH1 0x20 ADD SWAP1 DUP2 MSTORE PUSH1 0x20 ADD PUSH0 KECCAK256 PUSH0 DUP3 ADD MLOAD DUP2 PUSH0 ADD SSTORE PUSH1 0x20 DUP3 ADD MLOAD DUP2 PUSH1 0x1 ADD PUSH0 PUSH2 0x100 EXP DUP2 SLOAD DUP2 PUSH20 0xFFFFFFFFFFFFFFFFFFFFFFFFFFFFFFFFFFFFFFFF MUL NOT AND SWAP1 DUP4 PUSH20 0xFFFFFFFFFFFFFFFFFFFFFFFFFFFFFFFFFFFFFFFF AND MUL OR SWAP1 SSTORE POP PUSH1 0x40 DUP3 ADD MLOAD DUP2 PUSH1 0x2 ADD SWAP1 DUP2 PUSH2 0x8EB SWAP2 SWAP1 PUSH2 0x11B8 JUMP JUMPDEST POP PUSH1 0x60 DUP3 ADD MLOAD DUP2 PUSH1 0x3 ADD SSTORE PUSH1 0x80 DUP3 ADD MLOAD DUP2 PUSH1 0x4 ADD SSTORE SWAP1 POP POP CALLER PUSH20 0xFFFFFFFFFFFFFFFFFFFFFFFFFFFFFFFFFFFFFFFF AND PUSH32 0x285DB98A4632176385795DDF0D2B67CEF1A21F47EB2F5D06F786AB6B5147E200 DUP3 DUP5 TIMESTAMP PUSH1 0x40 MLOAD PUSH2 0x94D SWAP4 SWAP3 SWAP2 SWAP1 PUSH2 0x1339 JUMP JUMPDEST PUSH1 0x40 MLOAD DUP1 SWAP2 SUB SWAP1 LOG2 POP POP JUMP JUMPDEST PUSH1 0x1 PUSH1 0x20 MSTORE DUP2 PUSH0 MSTORE PUSH1 0x40 PUSH0 KECCAK256 PUSH1 0x20 MSTORE DUP1 PUSH0 MSTORE PUSH1 0x40 PUSH0 KECCAK256 PUSH0 SWAP2 POP SWAP2 POP POP DUP1 PUSH0 ADD SLOAD SWAP1 DUP1 PUSH1 0x1 ADD PUSH0 SWAP1 SLOAD SWAP1 PUSH2 0x100 EXP SWAP1 DIV PUSH20 0xFFFFFFFFFFFFFFFFFFFFFFFFFFFFFFFFFFFFFFFF AND SWAP1 DUP1 PUSH1 0x2 ADD DUP1 SLOAD PUSH2 0x9AE SWAP1 PUSH2 0xE3C JUMP JUMPDEST DUP1 PUSH1 0x1F ADD PUSH1 0x20 DUP1 SWAP2 DIV MUL PUSH1 0x20 ADD PUSH1 0x40 MLOAD SWAP1 DUP2 ADD PUSH1 0x40 MSTORE DUP1 SWAP3 SWAP2 SWAP1 DUP2 DUP2 MSTORE PUSH1 0x20 ADD DUP3 DUP1 SLOAD PUSH2 0x9DA SWAP1 PUSH2 0xE3C JUMP JUMPDEST DUP1 ISZERO PUSH2 0xA25 JUMPI DUP1 PUSH1 0x1F LT PUSH2 0x9FC JUMPI PUSH2 0x100 DUP1 DUP4 SLOAD DIV MUL DUP4 MSTORE SWAP2 PUSH1 0x20 ADD SWAP2 PUSH2 0xA25 JUMP JUMPDEST DUP3 ADD SWAP2 SWAP1 PUSH0 MSTORE PUSH1 0x20 PUSH0 KECCAK256 SWAP1 JUMPDEST DUP2 SLOAD DUP2 MSTORE SWAP1 PUSH1 0x1 ADD SWAP1 PUSH1 0x20 ADD DUP1 DUP4 GT PUSH2 0xA08 JUMPI DUP3 SWAP1 SUB PUSH1 0x1F AND DUP3 ADD SWAP2 JUMPDEST POP POP POP POP POP SWAP1 DUP1 PUSH1 0x3 ADD SLOAD SWAP1 POP DUP5 JUMP JUMPDEST PUSH0 PUSH1 0x40 MLOAD SWAP1 POP SWAP1 JUMP JUMPDEST PUSH0 PUSH0 REVERT JUMPDEST PUSH0 PUSH0 REVERT JUMPDEST PUSH0 DUP2 SWAP1 POP SWAP2 SWAP1 POP JUMP JUMPDEST PUSH2 0xA58 DUP2 PUSH2 0xA46 JUMP JUMPDEST DUP2 EQ PUSH2 0xA62 JUMPI PUSH0 PUSH0 REVERT JUMPDEST POP JUMP JUMPDEST PUSH0 DUP2 CALLDATALOAD SWAP1 POP PUSH2 0xA73 DUP2 PUSH2 0xA4F JUMP JUMPDEST SWAP3 SWAP2 POP POP JUMP JUMPDEST PUSH0 PUSH1 0x20 DUP3 DUP5 SUB SLT ISZERO PUSH2 0xA8E JUMPI PUSH2 0xA8D PUSH2 0xA3E JUMP JUMPDEST JUMPDEST PUSH0 PUSH2 0xA9B DUP5 DUP3 DUP6 ADD PUSH2 0xA65 JUMP JUMPDEST SWAP2 POP POP SWAP3 SWAP2 POP POP JUMP JUMPDEST PUSH2 0xAAD DUP2 PUSH2 0xA46 JUMP JUMPDEST DUP3 MSTORE POP POP JUMP JUMPDEST PUSH0 PUSH20 0xFFFFFFFFFFFFFFFFFFFFFFFFFFFFFFFFFFFFFFFF DUP3 AND SWAP1 POP SWAP2 SWAP1 POP JUMP JUMPDEST PUSH0 PUSH2 0xADC DUP3 PUSH2 0xAB3 JUMP JUMPDEST SWAP1 POP SWAP2 SWAP1 POP JUMP JUMPDEST PUSH2 0xAEC DUP2 PUSH2 0xAD2 JUMP JUMPDEST DUP3 MSTORE POP POP JUMP JUMPDEST PUSH0 DUP2 MLOAD SWAP1 POP SWAP2 SWAP1 POP JUMP JUMPDEST PUSH0 DUP3 DUP3 MSTORE PUSH1 0x20 DUP3 ADD SWAP1 POP SWAP3 SWAP2 POP POP JUMP JUMPDEST DUP3 DUP2 DUP4 MCOPY PUSH0 DUP4 DUP4 ADD MSTORE POP POP POP JUMP JUMPDEST PUSH0 PUSH1 0x1F NOT PUSH1 0x1F DUP4 ADD AND SWAP1 POP SWAP2 SWAP1 POP JUMP JUMPDEST PUSH0 PUSH2 0xB34 DUP3 PUSH2 0xAF2 JUMP JUMPDEST PUSH2 0xB3E DUP2 DUP6 PUSH2 0xAFC JUMP JUMPDEST SWAP4 POP PUSH2 0xB4E DUP2 DUP6 PUSH1 0x20 DUP7 ADD PUSH2 0xB0C JUMP JUMPDEST PUSH2 0xB57 DUP2 PUSH2 0xB1A JUMP JUMPDEST DUP5 ADD SWAP2 POP POP SWAP3 SWAP2 POP POP JUMP JUMPDEST PUSH0 PUSH1 0xA0 DUP3 ADD SWAP1 POP PUSH2 0xB75 PUSH0 DUP4 ADD DUP9 PUSH2 0xAA4 JUMP JUMPDEST PUSH2 0xB82 PUSH1 0x20 DUP4 ADD DUP8 PUSH2 0xAE3 JUMP JUMPDEST DUP2 DUP2 SUB PUSH1 0x40 DUP4 ADD MSTORE PUSH2 0xB94 DUP2 DUP7 PUSH2 0xB2A JUMP JUMPDEST SWAP1 POP PUSH2 0xBA3 PUSH1 0x60 DUP4 ADD DUP6 PUSH2 0xAA4 JUMP JUMPDEST PUSH2 0xBB0 PUSH1 0x80 DUP4 ADD DUP5 PUSH2 0xAA4 JUMP JUMPDEST SWAP7 SWAP6 POP POP POP POP POP POP JUMP JUMPDEST PUSH0 PUSH0 PUSH1 0x40 DUP4 DUP6 SUB SLT ISZERO PUSH2 0xBD0 JUMPI PUSH2 0xBCF PUSH2 0xA3E JUMP JUMPDEST JUMPDEST PUSH0 PUSH2 0xBDD DUP6 DUP3 DUP7 ADD PUSH2 0xA65 JUMP JUMPDEST SWAP3 POP POP PUSH1 0x20 PUSH2 0xBEE DUP6 DUP3 DUP7 ADD PUSH2 0xA65 JUMP JUMPDEST SWAP2 POP POP SWAP3 POP SWAP3 SWAP1 POP JUMP JUMPDEST PUSH0 PUSH1 0x80 DUP3 ADD SWAP1 POP PUSH2 0xC0B PUSH0 DUP4 ADD DUP8 PUSH2 0xAA4 JUMP JUMPDEST PUSH2 0xC18 PUSH1 0x20 DUP4 ADD DUP7 PUSH2 0xAE3 JUMP JUMPDEST DUP2 DUP2 SUB PUSH1 0x40 DUP4 ADD MSTORE PUSH2 0xC2A DUP2 DUP6 PUSH2 0xB2A JUMP JUMPDEST SWAP1 POP PUSH2 0xC39 PUSH1 0x60 DUP4 ADD DUP5 PUSH2 0xAA4 JUMP JUMPDEST SWAP6 SWAP5 POP POP POP POP POP JUMP JUMPDEST PUSH0 PUSH0 REVERT JUMPDEST PUSH0 PUSH0 REVERT JUMPDEST PUSH32 0x4E487B7100000000000000000000000000000000000000000000000000000000 PUSH0 MSTORE PUSH1 0x41 PUSH1 0x4 MSTORE PUSH1 0x24 PUSH0 REVERT JUMPDEST PUSH2 0xC80 DUP3 PUSH2 0xB1A JUMP JUMPDEST DUP2 ADD DUP2 DUP2 LT PUSH8 0xFFFFFFFFFFFFFFFF DUP3 GT OR ISZERO PUSH2 0xC9F JUMPI PUSH2 0xC9E PUSH2 0xC4A JUMP JUMPDEST JUMPDEST DUP1 PUSH1 0x40 MSTORE POP POP POP JUMP JUMPDEST PUSH0 PUSH2 0xCB1 PUSH2 0xA35 JUMP JUMPDEST SWAP1 POP PUSH2 0xCBD DUP3 DUP3 PUSH2 0xC77 JUMP JUMPDEST SWAP2 SWAP1 POP JUMP JUMPDEST PUSH0 PUSH8 0xFFFFFFFFFFFFFFFF DUP3 GT ISZERO PUSH2 0xCDC JUMPI PUSH2 0xCDB PUSH2 0xC4A JUMP JUMPDEST JUMPDEST PUSH2 0xCE5 DUP3 PUSH2 0xB1A JUMP JUMPDEST SWAP1 POP PUSH1 0x20 DUP2 ADD SWAP1 POP SWAP2 SWAP1 POP JUMP JUMPDEST DUP3 DUP2 DUP4 CALLDATACOPY PUSH0 DUP4 DUP4 ADD MSTORE POP POP POP JUMP JUMPDEST PUSH0 PUSH2 0xD12 PUSH2 0xD0D DUP5 PUSH2 0xCC2 JUMP JUMPDEST PUSH2 0xCA8 JUMP JUMPDEST SWAP1 POP DUP3 DUP2 MSTORE PUSH1 0x20 DUP2 ADD DUP5 DUP5 DUP5 ADD GT ISZERO PUSH2 0xD2E JUMPI PUSH2 0xD2D PUSH2 0xC46 JUMP JUMPDEST JUMPDEST PUSH2 0xD39 DUP5 DUP3 DUP6 PUSH2 0xCF2 JUMP JUMPDEST POP SWAP4 SWAP3 POP POP POP JUMP JUMPDEST PUSH0 DUP3 PUSH1 0x1F DUP4 ADD SLT PUSH2 0xD55 JUMPI PUSH2 0xD54 PUSH2 0xC42 JUMP JUMPDEST JUMPDEST DUP2 CALLDATALOAD PUSH2 0xD65 DUP5 DUP3 PUSH1 0x20 DUP7 ADD PUSH2 0xD00 JUMP JUMPDEST SWAP2 POP POP SWAP3 SWAP2 POP POP JUMP JUMPDEST PUSH0 PUSH0 PUSH1 0x40 DUP4 DUP6 SUB SLT ISZERO PUSH2 0xD84 JUMPI PUSH2 0xD83 PUSH2 0xA3E JUMP JUMPDEST JUMPDEST PUSH0 PUSH2 0xD91 DUP6 DUP3 DUP7 ADD PUSH2 0xA65 JUMP JUMPDEST SWAP3 POP POP PUSH1 0x20 DUP4 ADD CALLDATALOAD PUSH8 0xFFFFFFFFFFFFFFFF DUP2 GT ISZERO PUSH2 0xDB2 JUMPI PUSH2 0xDB1 PUSH2 0xA42 JUMP JUMPDEST JUMPDEST PUSH2 0xDBE DUP6 DUP3 DUP7 ADD PUSH2 0xD41 JUMP JUMPDEST SWAP2 POP POP SWAP3 POP SWAP3 SWAP1 POP JUMP JUMPDEST PUSH0 PUSH1 0x20 DUP3 DUP5 SUB SLT ISZERO PUSH2 0xDDD JUMPI PUSH2 0xDDC PUSH2 0xA3E JUMP JUMPDEST JUMPDEST PUSH0 DUP3 ADD CALLDATALOAD PUSH8 0xFFFFFFFFFFFFFFFF DUP2 GT ISZERO PUSH2 0xDFA JUMPI PUSH2 0xDF9 PUSH2 0xA42 JUMP JUMPDEST JUMPDEST PUSH2 0xE06 DUP5 DUP3 DUP6 ADD PUSH2 0xD41 JUMP JUMPDEST SWAP2 POP POP SWAP3 SWAP2 POP POP JUMP JUMPDEST PUSH32 0x4E487B7100000000000000000000000000000000000000000000000000000000 PUSH0 MSTORE PUSH1 0x22 PUSH1 0x4 MSTORE PUSH1 0x24 PUSH0 REVERT JUMPDEST PUSH0 PUSH1 0x2 DUP3 DIV SWAP1 POP PUSH1 0x1 DUP3 AND DUP1 PUSH2 0xE53 JUMPI PUSH1 0x7F DUP3 AND SWAP2 POP JUMPDEST PUSH1 0x20 DUP3 LT DUP2 SUB PUSH2 0xE66 JUMPI PUSH2 0xE65 PUSH2 0xE0F JUMP JUMPDEST JUMPDEST POP SWAP2 SWAP1 POP JUMP JUMPDEST PUSH32 0x506F737420646F6573206E6F7420657869737400000000000000000000000000 PUSH0 DUP3 ADD MSTORE POP JUMP JUMPDEST PUSH0 PUSH2 0xEA0 PUSH1 0x13 DUP4 PUSH2 0xAFC JUMP JUMPDEST SWAP2 POP PUSH2 0xEAB DUP3 PUSH2 0xE6C JUMP JUMPDEST PUSH1 0x20 DUP3 ADD SWAP1 POP SWAP2 SWAP1 POP JUMP JUMPDEST PUSH0 PUSH1 0x20 DUP3 ADD SWAP1 POP DUP2 DUP2 SUB PUSH0 DUP4 ADD MSTORE PUSH2 0xECD DUP2 PUSH2 0xE94 JUMP JUMPDEST SWAP1 POP SWAP2 SWAP1 POP JUMP JUMPDEST PUSH32 0x436F6D6D656E7420646F6573206E6F7420657869737400000000000000000000 PUSH0 DUP3 ADD MSTORE POP JUMP JUMPDEST PUSH0 PUSH2 0xF08 PUSH1 0x16 DUP4 PUSH2 0xAFC JUMP JUMPDEST SWAP2 POP PUSH2 0xF13 DUP3 PUSH2 0xED4 JUMP JUMPDEST PUSH1 0x20 DUP3 ADD SWAP1 POP SWAP2 SWAP1 POP JUMP JUMPDEST PUSH0 PUSH1 0x20 DUP3 ADD SWAP1 POP DUP2 DUP2 SUB PUSH0 DUP4 ADD MSTORE PUSH2 0xF35 DUP2 PUSH2 0xEFC JUMP JUMPDEST SWAP1 POP SWAP2 SWAP1 POP JUMP JUMPDEST PUSH32 0x436F6D6D656E742063616E6E6F7420626520656D707479000000000000000000 PUSH0 DUP3 ADD MSTORE POP JUMP JUMPDEST PUSH0 PUSH2 0xF70 PUSH1 0x17 DUP4 PUSH2 0xAFC JUMP JUMPDEST SWAP2 POP PUSH2 0xF7B DUP3 PUSH2 0xF3C JUMP JUMPDEST PUSH1 0x20 DUP3 ADD SWAP1 POP SWAP2 SWAP1 POP JUMP JUMPDEST PUSH0 PUSH1 0x20 DUP3 ADD SWAP1 POP DUP2 DUP2 SUB PUSH0 DUP4 ADD MSTORE PUSH2 0xF9D DUP2 PUSH2 0xF64 JUMP JUMPDEST SWAP1 POP SWAP2 SWAP1 POP JUMP JUMPDEST PUSH32 0x4E487B7100000000000000000000000000000000000000000000000000000000 PUSH0 MSTORE PUSH1 0x11 PUSH1 0x4 MSTORE PUSH1 0x24 PUSH0 REVERT JUMPDEST PUSH0 PUSH2 0xFDB DUP3 PUSH2 0xA46 JUMP JUMPDEST SWAP2 POP PUSH32 0xFFFFFFFFFFFFFFFFFFFFFFFFFFFFFFFFFFFFFFFFFFFFFFFFFFFFFFFFFFFFFFFF DUP3 SUB PUSH2 0x100D JUMPI PUSH2 0x100C PUSH2 0xFA4 JUMP JUMPDEST JUMPDEST PUSH1 0x1 DUP3 ADD SWAP1 POP SWAP2 SWAP1 POP JUMP JUMPDEST PUSH0 DUP2 SWAP1 POP DUP2 PUSH0 MSTORE PUSH1 0x20 PUSH0 KECCAK256 SWAP1 POP SWAP2 SWAP1 POP JUMP JUMPDEST PUSH0 PUSH1 0x20 PUSH1 0x1F DUP4 ADD DIV SWAP1 POP SWAP2 SWAP1 POP JUMP JUMPDEST PUSH0 DUP3 DUP3 SHL SWAP1 POP SWAP3 SWAP2 POP POP JUMP JUMPDEST PUSH0 PUSH1 0x8 DUP4 MUL PUSH2 0x1074 PUSH32 0xFFFFFFFFFFFFFFFFFFFFFFFFFFFFFFFFFFFFFFFFFFFFFFFFFFFFFFFFFFFFFFFF DUP3 PUSH2 0x1039 JUMP JUMPDEST PUSH2 0x107E DUP7 DUP4 PUSH2 0x1039 JUMP JUMPDEST SWAP6 POP DUP1 NOT DUP5 AND SWAP4 POP DUP1 DUP7 AND DUP5 OR SWAP3 POP POP POP SWAP4 SWAP3 POP POP POP JUMP JUMPDEST PUSH0 DUP2 SWAP1 POP SWAP2 SWAP1 POP JUMP JUMPDEST PUSH0 PUSH2 0x10B9 PUSH2 0x10B4 PUSH2 0x10AF DUP5 PUSH2 0xA46 JUMP JUMPDEST PUSH2 0x1096 JUMP JUMPDEST PUSH2 0xA46 JUMP JUMPDEST SWAP1 POP SWAP2 SWAP1 POP JUMP JUMPDEST PUSH0 DUP2 SWAP1 POP SWAP2 SWAP1 POP JUMP JUMPDEST PUSH2 0x10D2 DUP4 PUSH2 0x109F JUMP JUMPDEST PUSH2 0x10E6 PUSH2 0x10DE DUP3 PUSH2 0x10C0 JUMP JUMPDEST DUP5 DUP5 SLOAD PUSH2 0x1045 JUMP JUMPDEST DUP3 SSTORE POP POP POP POP JUMP JUMPDEST PUSH0 PUSH0 SWAP1 POP SWAP1 JUMP JUMPDEST PUSH2 0x10FD PUSH2 0x10EE JUMP JUMPDEST PUSH2 0x1108 DUP2 DUP5 DUP5 PUSH2 0x10C9 JUMP JUMPDEST POP POP POP JUMP JUMPDEST JUMPDEST DUP2 DUP2 LT ISZERO PUSH2 0x112B JUMPI PUSH2 0x1120 PUSH0 DUP3 PUSH2 0x10F5 JUMP JUMPDEST PUSH1 0x1 DUP2 ADD SWAP1 POP PUSH2 0x110E JUMP JUMPDEST POP POP JUMP JUMPDEST PUSH1 0x1F DUP3 GT ISZERO PUSH2 0x1170 JUMPI PUSH2 0x1141 DUP2 PUSH2 0x1018 JUMP JUMPDEST PUSH2 0x114A DUP5 PUSH2 0x102A JUMP JUMPDEST DUP2 ADD PUSH1 0x20 DUP6 LT ISZERO PUSH2 0x1159 JUMPI DUP2 SWAP1 POP JUMPDEST PUSH2 0x116D PUSH2 0x1165 DUP6 PUSH2 0x102A JUMP JUMPDEST DUP4 ADD DUP3 PUSH2 0x110D JUMP JUMPDEST POP POP JUMPDEST POP POP POP JUMP JUMPDEST PUSH0 DUP3 DUP3 SHR SWAP1 POP SWAP3 SWAP2 POP POP JUMP JUMPDEST PUSH0 PUSH2 0x1190 PUSH0 NOT DUP5 PUSH1 0x8 MUL PUSH2 0x1175 JUMP JUMPDEST NOT DUP1 DUP4 AND SWAP2 POP POP SWAP3 SWAP2 POP POP JUMP JUMPDEST PUSH0 PUSH2 0x11A8 DUP4 DUP4 PUSH2 0x1181 JUMP JUMPDEST SWAP2 POP DUP3 PUSH1 0x2 MUL DUP3 OR SWAP1 POP SWAP3 SWAP2 POP POP JUMP JUMPDEST PUSH2 0x11C1 DUP3 PUSH2 0xAF2 JUMP JUMPDEST PUSH8 0xFFFFFFFFFFFFFFFF DUP2 GT ISZERO PUSH2 0x11DA JUMPI PUSH2 0x11D9 PUSH2 0xC4A JUMP JUMPDEST JUMPDEST PUSH2 0x11E4 DUP3 SLOAD PUSH2 0xE3C JUMP JUMPDEST PUSH2 0x11EF DUP3 DUP3 DUP6 PUSH2 0x112F JUMP JUMPDEST PUSH0 PUSH1 0x20 SWAP1 POP PUSH1 0x1F DUP4 GT PUSH1 0x1 DUP2 EQ PUSH2 0x1220 JUMPI PUSH0 DUP5 ISZERO PUSH2 0x120E JUMPI DUP3 DUP8 ADD MLOAD SWAP1 POP JUMPDEST PUSH2 0x1218 DUP6 DUP3 PUSH2 0x119D JUMP JUMPDEST DUP7 SSTORE POP PUSH2 0x127F JUMP JUMPDEST PUSH1 0x1F NOT DUP5 AND PUSH2 0x122E DUP7 PUSH2 0x1018 JUMP JUMPDEST PUSH0 JUMPDEST DUP3 DUP2 LT ISZERO PUSH2 0x1255 JUMPI DUP5 DUP10 ADD MLOAD DUP3 SSTORE PUSH1 0x1 DUP3 ADD SWAP2 POP PUSH1 0x20 DUP6 ADD SWAP5 POP PUSH1 0x20 DUP2 ADD SWAP1 POP PUSH2 0x1230 JUMP JUMPDEST DUP7 DUP4 LT ISZERO PUSH2 0x1272 JUMPI DUP5 DUP10 ADD MLOAD PUSH2 0x126E PUSH1 0x1F DUP10 AND DUP3 PUSH2 0x1181 JUMP JUMPDEST DUP4 SSTORE POP JUMPDEST PUSH1 0x1 PUSH1 0x2 DUP9 MUL ADD DUP9 SSTORE POP POP POP JUMPDEST POP POP POP POP POP POP JUMP JUMPDEST PUSH0 PUSH1 0x80 DUP3 ADD SWAP1 POP PUSH2 0x129A PUSH0 DUP4 ADD DUP8 PUSH2 0xAA4 JUMP JUMPDEST PUSH2 0x12A7 PUSH1 0x20 DUP4 ADD DUP7 PUSH2 0xAA4 JUMP JUMPDEST DUP2 DUP2 SUB PUSH1 0x40 DUP4 ADD MSTORE PUSH2 0x12B9 DUP2 DUP6 PUSH2 0xB2A JUMP JUMPDEST SWAP1 POP PUSH2 0x12C8 PUSH1 0x60 DUP4 ADD DUP5 PUSH2 0xAA4 JUMP JUMPDEST SWAP6 SWAP5 POP POP POP POP POP JUMP JUMPDEST PUSH32 0x436F6E74656E742063616E6E6F7420626520656D707479000000000000000000 PUSH0 DUP3 ADD MSTORE POP JUMP JUMPDEST PUSH0 PUSH2 0x1305 PUSH1 0x17 DUP4 PUSH2 0xAFC JUMP JUMPDEST SWAP2 POP PUSH2 0x1310 DUP3 PUSH2 0x12D1 JUMP JUMPDEST PUSH1 0x20 DUP3 ADD SWAP1 POP SWAP2 SWAP1 POP JUMP JUMPDEST PUSH0 PUSH1 0x20 DUP3 ADD SWAP1 POP DUP2 DUP2 SUB PUSH0 DUP4 ADD MSTORE PUSH2 0x1332 DUP2 PUSH2 0x12F9 JUMP JUMPDEST SWAP1 POP SWAP2 SWAP1 POP JUMP JUMPDEST PUSH0 PUSH1 0x60 DUP3 ADD SWAP1 POP PUSH2 0x134C PUSH0 DUP4 ADD DUP7 PUSH2 0xAA4 JUMP JUMPDEST DUP2 DUP2 SUB PUSH1 0x20 DUP4 ADD MSTORE PUSH2 0x135E DUP2 DUP6 PUSH2 0xB2A JUMP JUMPDEST SWAP1 POP PUSH2 0x136D PUSH1 0x40 DUP4 ADD DUP5 PUSH2 0xAA4 JUMP JUMPDEST SWAP5 SWAP4 POP POP POP POP JUMP INVALID LOG2 PUSH5 0x6970667358 0x22 SLT KECCAK256 EXTCODECOPY REVERT GAS LOG0 BASEFEE RETURN PUSH20 0x2CB9EFEC39EF3FFC1C4EB5D5EE19A446B26029F0 CREATE2 DUP14 0xCC SWAP11 SWAP13 PUSH5 0x736F6C6343 STOP ADDMOD SHR STOP CALLER "
				},
				"gasEstimates": {
					"creation": {
						"codeDepositCost": "1007000",
						"executionCost": "23151",
						"totalCost": "1030151"
					},
					"external": {
						"addComment(uint256,string)": "infinite",
						"comments(uint256,uint256)": "infinite",
						"createPost(string)": "infinite",
						"getComment(uint256,uint256)": "infinite",
						"getPost(uint256)": "infinite",
						"posts(uint256)": "infinite"
					}
				},
				"methodIdentifiers": {
					"addComment(uint256,string)": "aa7e5683",
					"comments(uint256,uint256)": "fc6c776f",
					"createPost(string)": "c7303c61",
					"getComment(uint256,uint256)": "48892753",
					"getPost(uint256)": "40731c24",
					"posts(uint256)": "0b1e7f83"
				}
			},
			"storageLayout": {
				"storage": [
					{
						"astId": 26,
						"contract": "contracts/BlogPost.sol:BlogPost",
						"label": "posts",
						"offset": 0,
						"slot": "0",
						"type": "t_mapping(t_uint256,t_struct(Post)12_storage)"
					},
					{
						"astId": 33,
						"contract": "contracts/BlogPost.sol:BlogPost",
						"label": "comments",
						"offset": 0,
						"slot": "1",
						"type": "t_mapping(t_uint256,t_mapping(t_uint256,t_struct(Comment)21_storage))"
					},
					{
						"astId": 58,
						"contract": "contracts/BlogPost.sol:BlogPost",
						"label": "nextPostId",
						"offset": 0,
						"slot": "2",
						"type": "t_uint256"
					}
				],
				"types": {
					"t_address": {
						"encoding": "inplace",
						"label": "address",
						"numberOfBytes": "20"
					},
					"t_mapping(t_uint256,t_mapping(t_uint256,t_struct(Comment)21_storage))": {
						"encoding": "mapping",
						"key": "t_uint256",
						"label": "mapping(uint256 => mapping(uint256 => struct BlogPost.Comment))",
						"numberOfBytes": "32",
						"value": "t_mapping(t_uint256,t_struct(Comment)21_storage)"
					},
					"t_mapping(t_uint256,t_struct(Comment)21_storage)": {
						"encoding": "mapping",
						"key": "t_uint256",
						"label": "mapping(uint256 => struct BlogPost.Comment)",
						"numberOfBytes": "32",
						"value": "t_struct(Comment)21_storage"
					},
					"t_mapping(t_uint256,t_struct(Post)12_storage)": {
						"encoding": "mapping",
						"key": "t_uint256",
						"label": "mapping(uint256 => struct BlogPost.Post)",
						"numberOfBytes": "32",
						"value": "t_struct(Post)12_storage"
					},
					"t_string_storage": {
						"encoding": "bytes",
						"label": "string",
						"numberOfBytes": "32"
					},
					"t_struct(Comment)21_storage": {
						"encoding": "inplace",
						"label": "struct BlogPost.Comment",
						"members": [
							{
								"astId": 14,
								"contract": "contracts/BlogPost.sol:BlogPost",
								"label": "id",
								"offset": 0,
								"slot": "0",
								"type": "t_uint256"
							},
							{
								"astId": 16,
								"contract": "contracts/BlogPost.sol:BlogPost",
								"label": "commenter",
								"offset": 0,
								"slot": "1",
								"type": "t_address"
							},
							{
								"astId": 18,
								"contract": "contracts/BlogPost.sol:BlogPost",
								"label": "content",
								"offset": 0,
								"slot": "2",
								"type": "t_string_storage"
							},
							{
								"astId": 20,
								"contract": "contracts/BlogPost.sol:BlogPost",
								"label": "timestamp",
								"offset": 0,
								"slot": "3",
								"type": "t_uint256"
							}
						],
						"numberOfBytes": "128"
					},
					"t_struct(Post)12_storage": {
						"encoding": "inplace",
						"label": "struct BlogPost.Post",
						"members": [
							{
								"astId": 3,
								"contract": "contracts/BlogPost.sol:BlogPost",
								"label": "id",
								"offset": 0,
								"slot": "0",
								"type": "t_uint256"
							},
							{
								"astId": 5,
								"contract": "contracts/BlogPost.sol:BlogPost",
								"label": "author",
								"offset": 0,
								"slot": "1",
								"type": "t_address"
							},
							{
								"astId": 7,
								"contract": "contracts/BlogPost.sol:BlogPost",
								"label": "content",
								"offset": 0,
								"slot": "2",
								"type": "t_string_storage"
							},
							{
								"astId": 9,
								"contract": "contracts/BlogPost.sol:BlogPost",
								"label": "commentCount",
								"offset": 0,
								"slot": "3",
								"type": "t_uint256"
							},
							{
								"astId": 11,
								"contract": "contracts/BlogPost.sol:BlogPost",
								"label": "timestamp",
								"offset": 0,
								"slot": "4",
								"type": "t_uint256"
							}
						],
						"numberOfBytes": "160"
					},
					"t_uint256": {
						"encoding": "inplace",
						"label": "uint256",
						"numberOfBytes": "32"
					}
				}
			},
			"userdoc": {
				"kind": "user",
				"methods": {},
				"version": 1
			}
		}
	}
}