{
	"contracts/NFTAuction.sol": {
		"NFTAuction": {
			"abi": [
				{
					"anonymous": false,
					"inputs": [
						{
							"indexed": true,
							"internalType": "uint256",
							"name": "auctionId",
							"type": "uint256"
						},
						{
							"indexed": true,
							"internalType": "address",
							"name": "seller",
							"type": "address"
						},
						{
							"indexed": true,
							"internalType": "address",
							"name": "nftContract",
							"type": "address"
						},
						{
							"indexed": false,
							"internalType": "uint256",
							"name": "tokenId",
							"type": "uint256"
						},
						{
							"indexed": false,
							"internalType": "uint256",
							"name": "minBid",
							"type": "uint256"
						},
						{
							"indexed": false,
							"internalType": "uint256",
							"name": "startTime",
							"type": "uint256"
						},
						{
							"indexed": false,
							"internalType": "uint256",
							"name": "endTime",
							"type": "uint256"
						}
					],
					"name": "AuctionCreated",
					"type": "event"
				},
				{
					"anonymous": false,
					"inputs": [
						{
							"indexed": true,
							"internalType": "uint256",
							"name": "auctionId",
							"type": "uint256"
						},
						{
							"indexed": true,
							"internalType": "address",
							"name": "winner",
							"type": "address"
						},
						{
							"indexed": false,
							"internalType": "uint256",
							"name": "winningBid",
							"type": "uint256"
						}
					],
					"name": "AuctionEnded",
					"type": "event"
				},
				{
					"anonymous": false,
					"inputs": [
						{
							"indexed": true,
							"internalType": "uint256",
							"name": "auctionId",
							"type": "uint256"
						},
						{
							"indexed": true,
							"internalType": "address",
							"name": "bidder",
							"type": "address"
						},
						{
							"indexed": false,
							"internalType": "uint256",
							"name": "bidAmount",
							"type": "uint256"
						}
					],
					"name": "BidPlaced",
					"type": "event"
				},
				{
					"anonymous": false,
					"inputs": [
						{
							"indexed": true,
							"internalType": "address",
							"name": "bidder",
							"type": "address"
						},
						{
							"indexed": false,
							"internalType": "uint256",
							"name": "amount",
							"type": "uint256"
						}
					],
					"name": "Withdrawal",
					"type": "event"
				},
				{
					"inputs": [],
					"name": "auctionCounter",
					"outputs": [
						{
							"internalType": "uint256",
							"name": "",
							"type": "uint256"
						}
					],
					"stateMutability": "view",
					"type": "function"
				},
				{
					"inputs": [
						{
							"internalType": "uint256",
							"name": "",
							"type": "uint256"
						}
					],
					"name": "auctions",
					"outputs": [
						{
							"internalType": "address",
							"name": "nftContract",
							"type": "address"
						},
						{
							"internalType": "uint256",
							"name": "tokenId",
							"type": "uint256"
						},
						{
							"internalType": "address payable",
							"name": "seller",
							"type": "address"
						},
						{
							"internalType": "uint256",
							"name": "minBid",
							"type": "uint256"
						},
						{
							"internalType": "uint256",
							"name": "highestBid",
							"type": "uint256"
						},
						{
							"internalType": "address payable",
							"name": "highestBidder",
							"type": "address"
						},
						{
							"internalType": "uint256",
							"name": "startTime",
							"type": "uint256"
						},
						{
							"internalType": "uint256",
							"name": "endTime",
							"type": "uint256"
						},
						{
							"internalType": "bool",
							"name": "ended",
							"type": "bool"
						}
					],
					"stateMutability": "view",
					"type": "function"
				},
				{
					"inputs": [
						{
							"internalType": "uint256",
							"name": "",
							"type": "uint256"
						},
						{
							"internalType": "address",
							"name": "",
							"type": "address"
						}
					],
					"name": "bids",
					"outputs": [
						{
							"internalType": "uint256",
							"name": "",
							"type": "uint256"
						}
					],
					"stateMutability": "view",
					"type": "function"
				},
				{
					"inputs": [
						{
							"internalType": "uint256",
							"name": "_auctionId",
							"type": "uint256"
						}
					],
					"name": "endAuction",
					"outputs": [],
					"stateMutability": "nonpayable",
					"type": "function"
				},
				{
					"inputs": [
						{
							"internalType": "uint256",
							"name": "_auctionId",
							"type": "uint256"
						}
					],
					"name": "getAuctionDetails",
					"outputs": [
						{
							"internalType": "address",
							"name": "nftContract",
							"type": "address"
						},
						{
							"internalType": "uint256",
							"name": "tokenId",
							"type": "uint256"
						},
						{
							"internalType": "address",
							"name": "seller",
							"type": "address"
						},
						{
							"internalType": "uint256",
							"name": "minBid",
							"type": "uint256"
						},
						{
							"internalType": "uint256",
							"name": "highestBid",
							"type": "uint256"
						},
						{
							"internalType": "address",
							"name": "highestBidder",
							"type": "address"
						},
						{
							"internalType": "uint256",
							"name": "startTime",
							"type": "uint256"
						},
						{
							"internalType": "uint256",
							"name": "endTime",
							"type": "uint256"
						},
						{
							"internalType": "bool",
							"name": "ended",
							"type": "bool"
						}
					],
					"stateMutability": "view",
					"type": "function"
				},
				{
					"inputs": [
						{
							"internalType": "uint256",
							"name": "_auctionId",
							"type": "uint256"
						},
						{
							"internalType": "address",
							"name": "_bidder",
							"type": "address"
						}
					],
					"name": "getBidderBid",
					"outputs": [
						{
							"internalType": "uint256",
							"name": "",
							"type": "uint256"
						}
					],
					"stateMutability": "view",
					"type": "function"
				},
				{
					"inputs": [
						{
							"internalType": "address",
							"name": "_nftContract",
							"type": "address"
						},
						{
							"internalType": "uint256",
							"name": "_tokenId",
							"type": "uint256"
						},
						{
							"internalType": "uint256",
							"name": "_minBid",
							"type": "uint256"
						},
						{
							"internalType": "uint256",
							"name": "_startTime",
							"type": "uint256"
						},
						{
							"internalType": "uint256",
							"name": "_endTime",
							"type": "uint256"
						}
					],
					"name": "initializeAuction",
					"outputs": [],
					"stateMutability": "nonpayable",
					"type": "function"
				},
				{
					"inputs": [
						{
							"internalType": "uint256",
							"name": "_auctionId",
							"type": "uint256"
						}
					],
					"name": "placeBid",
					"outputs": [],
					"stateMutability": "payable",
					"type": "function"
				},
				{
					"inputs": [
						{
							"internalType": "uint256",
							"name": "_auctionId",
							"type": "uint256"
						}
					],
					"name": "withdraw",
					"outputs": [],
					"stateMutability": "nonpayable",
					"type": "function"
				}
			],
			"devdoc": {
				"kind": "dev",
				"methods": {},
				"version": 1
			},
			"evm": {
				"assembly": "    /* \"contracts/NFTAuction.sol\":242:6156  contract NFTAuction is ReentrancyGuard {... */\n  mstore(0x40, 0x80)\n  callvalue\n  dup1\n  iszero\n  tag_1\n  jumpi\n  0x00\n  dup1\n  revert\ntag_1:\n  pop\n    /* \"@openzeppelin/contracts/security/ReentrancyGuard.sol\":1716:1717  1 */\n  0x01\n    /* \"@openzeppelin/contracts/security/ReentrancyGuard.sol\":1821:1828  _status */\n  0x00\n    /* \"@openzeppelin/contracts/security/ReentrancyGuard.sol\":1821:1843  _status = _NOT_ENTERED */\n  dup2\n  swap1\n  sstore\n  pop\n    /* \"contracts/NFTAuction.sol\":242:6156  contract NFTAuction is ReentrancyGuard {... */\n  dataSize(sub_0)\n  dup1\n  dataOffset(sub_0)\n  0x00\n  codecopy\n  0x00\n  return\nstop\n\nsub_0: assembly {\n        /* \"contracts/NFTAuction.sol\":242:6156  contract NFTAuction is ReentrancyGuard {... */\n      mstore(0x40, 0x80)\n      jumpi(tag_1, lt(calldatasize, 0x04))\n      shr(0xe0, calldataload(0x00))\n      dup1\n      0x9979ef45\n      gt\n      tag_11\n      jumpi\n      dup1\n      0x9979ef45\n      eq\n      tag_6\n      jumpi\n      dup1\n      0xa7e76644\n      eq\n      tag_7\n      jumpi\n      dup1\n      0xb9a2de3a\n      eq\n      tag_8\n      jumpi\n      dup1\n      0xe746443b\n      eq\n      tag_9\n      jumpi\n      dup1\n      0xf20e5e35\n      eq\n      tag_10\n      jumpi\n      jump(tag_1)\n    tag_11:\n      dup1\n      0x2e1a7d4d\n      eq\n      tag_2\n      jumpi\n      dup1\n      0x2ea54762\n      eq\n      tag_3\n      jumpi\n      dup1\n      0x3f1ffcec\n      eq\n      tag_4\n      jumpi\n      dup1\n      0x571a26a0\n      eq\n      tag_5\n      jumpi\n    tag_1:\n      0x00\n      dup1\n      revert\n        /* \"contracts/NFTAuction.sol\":4830:5249  function withdraw(uint256 _auctionId) external nonReentrant auctionExists(_auctionId) {... */\n    tag_2:\n      callvalue\n      dup1\n      iszero\n      tag_12\n      jumpi\n      0x00\n      dup1\n      revert\n    tag_12:\n      pop\n      tag_13\n      0x04\n      dup1\n      calldatasize\n      sub\n      dup2\n      add\n      swap1\n      tag_14\n      swap2\n      swap1\n      tag_15\n      jump\t// in\n    tag_14:\n      tag_16\n      jump\t// in\n    tag_13:\n      stop\n        /* \"contracts/NFTAuction.sol\":1814:3122  function initializeAuction(... */\n    tag_3:\n      callvalue\n      dup1\n      iszero\n      tag_17\n      jumpi\n      0x00\n      dup1\n      revert\n    tag_17:\n      pop\n      tag_18\n      0x04\n      dup1\n      calldatasize\n      sub\n      dup2\n      add\n      swap1\n      tag_19\n      swap2\n      swap1\n      tag_20\n      jump\t// in\n    tag_19:\n      tag_21\n      jump\t// in\n    tag_18:\n      stop\n        /* \"contracts/NFTAuction.sol\":627:686  mapping(uint256 => mapping(address => uint256)) public bids */\n    tag_4:\n      callvalue\n      dup1\n      iszero\n      tag_22\n      jumpi\n      0x00\n      dup1\n      revert\n    tag_22:\n      pop\n      tag_23\n      0x04\n      dup1\n      calldatasize\n      sub\n      dup2\n      add\n      swap1\n      tag_24\n      swap2\n      swap1\n      tag_25\n      jump\t// in\n    tag_24:\n      tag_26\n      jump\t// in\n    tag_23:\n      mload(0x40)\n      tag_27\n      swap2\n      swap1\n      tag_28\n      jump\t// in\n    tag_27:\n      mload(0x40)\n      dup1\n      swap2\n      sub\n      swap1\n      return\n        /* \"contracts/NFTAuction.sol\":577:620  mapping(uint256 => Auction) public auctions */\n    tag_5:\n      callvalue\n      dup1\n      iszero\n      tag_29\n      jumpi\n      0x00\n      dup1\n      revert\n    tag_29:\n      pop\n      tag_30\n      0x04\n      dup1\n      calldatasize\n      sub\n      dup2\n      add\n      swap1\n      tag_31\n      swap2\n      swap1\n      tag_15\n      jump\t// in\n    tag_31:\n      tag_32\n      jump\t// in\n    tag_30:\n      mload(0x40)\n      tag_33\n      swap10\n      swap9\n      swap8\n      swap7\n      swap6\n      swap5\n      swap4\n      swap3\n      swap2\n      swap1\n      tag_34\n      jump\t// in\n    tag_33:\n      mload(0x40)\n      dup1\n      swap2\n      sub\n      swap1\n      return\n        /* \"contracts/NFTAuction.sol\":3130:3942  function placeBid(uint256 _auctionId) external payable nonReentrant auctionExists(_auctionId) auctionActive(_auctionId) {... */\n    tag_6:\n      tag_35\n      0x04\n      dup1\n      calldatasize\n      sub\n      dup2\n      add\n      swap1\n      tag_36\n      swap2\n      swap1\n      tag_15\n      jump\t// in\n    tag_36:\n      tag_37\n      jump\t// in\n    tag_35:\n      stop\n        /* \"contracts/NFTAuction.sol\":693:722  uint256 public auctionCounter */\n    tag_7:\n      callvalue\n      dup1\n      iszero\n      tag_38\n      jumpi\n      0x00\n      dup1\n      revert\n    tag_38:\n      pop\n      tag_39\n      tag_40\n      jump\t// in\n    tag_39:\n      mload(0x40)\n      tag_41\n      swap2\n      swap1\n      tag_28\n      jump\t// in\n    tag_41:\n      mload(0x40)\n      dup1\n      swap2\n      sub\n      swap1\n      return\n        /* \"contracts/NFTAuction.sol\":3950:4822  function endAuction(uint256 _auctionId) external nonReentrant auctionExists(_auctionId) {... */\n    tag_8:\n      callvalue\n      dup1\n      iszero\n      tag_42\n      jumpi\n      0x00\n      dup1\n      revert\n    tag_42:\n      pop\n      tag_43\n      0x04\n      dup1\n      calldatasize\n      sub\n      dup2\n      add\n      swap1\n      tag_44\n      swap2\n      swap1\n      tag_15\n      jump\t// in\n    tag_44:\n      tag_45\n      jump\t// in\n    tag_43:\n      stop\n        /* \"contracts/NFTAuction.sol\":5985:6153  function getBidderBid(uint256 _auctionId, address _bidder) external view auctionExists(_auctionId) returns (uint256) {... */\n    tag_9:\n      callvalue\n      dup1\n      iszero\n      tag_46\n      jumpi\n      0x00\n      dup1\n      revert\n    tag_46:\n      pop\n      tag_47\n      0x04\n      dup1\n      calldatasize\n      sub\n      dup2\n      add\n      swap1\n      tag_48\n      swap2\n      swap1\n      tag_25\n      jump\t// in\n    tag_48:\n      tag_49\n      jump\t// in\n    tag_47:\n      mload(0x40)\n      tag_50\n      swap2\n      swap1\n      tag_28\n      jump\t// in\n    tag_50:\n      mload(0x40)\n      dup1\n      swap2\n      sub\n      swap1\n      return\n        /* \"contracts/NFTAuction.sol\":5257:5977  function getAuctionDetails(uint256 _auctionId) external view auctionExists(_auctionId) returns (... */\n    tag_10:\n      callvalue\n      dup1\n      iszero\n      tag_51\n      jumpi\n      0x00\n      dup1\n      revert\n    tag_51:\n      pop\n      tag_52\n      0x04\n      dup1\n      calldatasize\n      sub\n      dup2\n      add\n      swap1\n      tag_53\n      swap2\n      swap1\n      tag_15\n      jump\t// in\n    tag_53:\n      tag_54\n      jump\t// in\n    tag_52:\n      mload(0x40)\n      tag_55\n      swap10\n      swap9\n      swap8\n      swap7\n      swap6\n      swap5\n      swap4\n      swap3\n      swap2\n      swap1\n      tag_56\n      jump\t// in\n    tag_55:\n      mload(0x40)\n      dup1\n      swap2\n      sub\n      swap1\n      return\n        /* \"contracts/NFTAuction.sol\":4830:5249  function withdraw(uint256 _auctionId) external nonReentrant auctionExists(_auctionId) {... */\n    tag_16:\n        /* \"@openzeppelin/contracts/security/ReentrancyGuard.sol\":2261:2282  _nonReentrantBefore() */\n      tag_58\n        /* \"@openzeppelin/contracts/security/ReentrancyGuard.sol\":2261:2280  _nonReentrantBefore */\n      tag_59\n        /* \"@openzeppelin/contracts/security/ReentrancyGuard.sol\":2261:2282  _nonReentrantBefore() */\n      jump\t// in\n    tag_58:\n        /* \"contracts/NFTAuction.sol\":4904:4914  _auctionId */\n      dup1\n        /* \"contracts/NFTAuction.sol\":1406:1420  auctionCounter */\n      sload(0x03)\n        /* \"contracts/NFTAuction.sol\":1393:1403  _auctionId */\n      dup2\n        /* \"contracts/NFTAuction.sol\":1393:1420  _auctionId < auctionCounter */\n      lt\n        /* \"contracts/NFTAuction.sol\":1385:1447  require(_auctionId < auctionCounter, \"Auction does not exist\") */\n      tag_61\n      jumpi\n      mload(0x40)\n      0x08c379a000000000000000000000000000000000000000000000000000000000\n      dup2\n      mstore\n      0x04\n      add\n      tag_62\n      swap1\n      tag_63\n      jump\t// in\n    tag_62:\n      mload(0x40)\n      dup1\n      swap2\n      sub\n      swap1\n      revert\n    tag_61:\n        /* \"contracts/NFTAuction.sol\":4935:4943  auctions */\n      0x01\n        /* \"contracts/NFTAuction.sol\":4935:4955  auctions[_auctionId] */\n      0x00\n        /* \"contracts/NFTAuction.sol\":4944:4954  _auctionId */\n      dup4\n        /* \"contracts/NFTAuction.sol\":4935:4955  auctions[_auctionId] */\n      dup2\n      mstore\n      0x20\n      add\n      swap1\n      dup2\n      mstore\n      0x20\n      add\n      0x00\n      keccak256\n        /* \"contracts/NFTAuction.sol\":4935:4961  auctions[_auctionId].ended */\n      0x08\n      add\n      0x00\n      swap1\n      sload\n      swap1\n      0x0100\n      exp\n      swap1\n      div\n      0xff\n      and\n        /* \"contracts/NFTAuction.sol\":4927:4991  require(auctions[_auctionId].ended, \"Auction has not ended yet\") */\n      tag_65\n      jumpi\n      mload(0x40)\n      0x08c379a000000000000000000000000000000000000000000000000000000000\n      dup2\n      mstore\n      0x04\n      add\n      tag_66\n      swap1\n      tag_67\n      jump\t// in\n    tag_66:\n      mload(0x40)\n      dup1\n      swap2\n      sub\n      swap1\n      revert\n    tag_65:\n        /* \"contracts/NFTAuction.sol\":5002:5016  uint256 amount */\n      0x00\n        /* \"contracts/NFTAuction.sol\":5019:5023  bids */\n      0x02\n        /* \"contracts/NFTAuction.sol\":5019:5035  bids[_auctionId] */\n      0x00\n        /* \"contracts/NFTAuction.sol\":5024:5034  _auctionId */\n      dup5\n        /* \"contracts/NFTAuction.sol\":5019:5035  bids[_auctionId] */\n      dup2\n      mstore\n      0x20\n      add\n      swap1\n      dup2\n      mstore\n      0x20\n      add\n      0x00\n      keccak256\n        /* \"contracts/NFTAuction.sol\":5019:5047  bids[_auctionId][msg.sender] */\n      0x00\n        /* \"contracts/NFTAuction.sol\":5036:5046  msg.sender */\n      caller\n        /* \"contracts/NFTAuction.sol\":5019:5047  bids[_auctionId][msg.sender] */\n      0xffffffffffffffffffffffffffffffffffffffff\n      and\n      0xffffffffffffffffffffffffffffffffffffffff\n      and\n      dup2\n      mstore\n      0x20\n      add\n      swap1\n      dup2\n      mstore\n      0x20\n      add\n      0x00\n      keccak256\n      sload\n        /* \"contracts/NFTAuction.sol\":5002:5047  uint256 amount = bids[_auctionId][msg.sender] */\n      swap1\n      pop\n        /* \"contracts/NFTAuction.sol\":5075:5076  0 */\n      0x00\n        /* \"contracts/NFTAuction.sol\":5066:5072  amount */\n      dup2\n        /* \"contracts/NFTAuction.sol\":5066:5076  amount > 0 */\n      gt\n        /* \"contracts/NFTAuction.sol\":5058:5101  require(amount > 0, \"No funds to withdraw\") */\n      tag_68\n      jumpi\n      mload(0x40)\n      0x08c379a000000000000000000000000000000000000000000000000000000000\n      dup2\n      mstore\n      0x04\n      add\n      tag_69\n      swap1\n      tag_70\n      jump\t// in\n    tag_69:\n      mload(0x40)\n      dup1\n      swap2\n      sub\n      swap1\n      revert\n    tag_68:\n        /* \"contracts/NFTAuction.sol\":5145:5146  0 */\n      0x00\n        /* \"contracts/NFTAuction.sol\":5114:5118  bids */\n      0x02\n        /* \"contracts/NFTAuction.sol\":5114:5130  bids[_auctionId] */\n      0x00\n        /* \"contracts/NFTAuction.sol\":5119:5129  _auctionId */\n      dup6\n        /* \"contracts/NFTAuction.sol\":5114:5130  bids[_auctionId] */\n      dup2\n      mstore\n      0x20\n      add\n      swap1\n      dup2\n      mstore\n      0x20\n      add\n      0x00\n      keccak256\n        /* \"contracts/NFTAuction.sol\":5114:5142  bids[_auctionId][msg.sender] */\n      0x00\n        /* \"contracts/NFTAuction.sol\":5131:5141  msg.sender */\n      caller\n        /* \"contracts/NFTAuction.sol\":5114:5142  bids[_auctionId][msg.sender] */\n      0xffffffffffffffffffffffffffffffffffffffff\n      and\n      0xffffffffffffffffffffffffffffffffffffffff\n      and\n      dup2\n      mstore\n      0x20\n      add\n      swap1\n      dup2\n      mstore\n      0x20\n      add\n      0x00\n      keccak256\n        /* \"contracts/NFTAuction.sol\":5114:5146  bids[_auctionId][msg.sender] = 0 */\n      dup2\n      swap1\n      sstore\n      pop\n        /* \"contracts/NFTAuction.sol\":5165:5175  msg.sender */\n      caller\n        /* \"contracts/NFTAuction.sol\":5157:5185  payable(msg.sender).transfer */\n      0xffffffffffffffffffffffffffffffffffffffff\n      and\n        /* \"contracts/NFTAuction.sol\":5157:5193  payable(msg.sender).transfer(amount) */\n      0x08fc\n        /* \"contracts/NFTAuction.sol\":5186:5192  amount */\n      dup3\n        /* \"contracts/NFTAuction.sol\":5157:5193  payable(msg.sender).transfer(amount) */\n      swap1\n      dup2\n      iszero\n      mul\n      swap1\n      mload(0x40)\n      0x00\n      mload(0x40)\n      dup1\n      dup4\n      sub\n      dup2\n      dup6\n      dup9\n      dup9\n      call\n      swap4\n      pop\n      pop\n      pop\n      pop\n      iszero\n      dup1\n      iszero\n      tag_72\n      jumpi\n      returndatasize\n      0x00\n      dup1\n      returndatacopy\n      revert(0x00, returndatasize)\n    tag_72:\n      pop\n        /* \"contracts/NFTAuction.sol\":5222:5232  msg.sender */\n      caller\n        /* \"contracts/NFTAuction.sol\":5211:5241  Withdrawal(msg.sender, amount) */\n      0xffffffffffffffffffffffffffffffffffffffff\n      and\n      0x7fcf532c15f0a6db0bd6d0e038bea71d30d808c7d98cb3bf7268a95bf5081b65\n        /* \"contracts/NFTAuction.sol\":5234:5240  amount */\n      dup3\n        /* \"contracts/NFTAuction.sol\":5211:5241  Withdrawal(msg.sender, amount) */\n      mload(0x40)\n      tag_73\n      swap2\n      swap1\n      tag_28\n      jump\t// in\n    tag_73:\n      mload(0x40)\n      dup1\n      swap2\n      sub\n      swap1\n      log2\n        /* \"contracts/NFTAuction.sol\":4916:5249  {... */\n      pop\n        /* \"@openzeppelin/contracts/security/ReentrancyGuard.sol\":2292:2293  _ */\n      pop\n        /* \"@openzeppelin/contracts/security/ReentrancyGuard.sol\":2303:2323  _nonReentrantAfter() */\n      tag_74\n        /* \"@openzeppelin/contracts/security/ReentrancyGuard.sol\":2303:2321  _nonReentrantAfter */\n      tag_75\n        /* \"@openzeppelin/contracts/security/ReentrancyGuard.sol\":2303:2323  _nonReentrantAfter() */\n      jump\t// in\n    tag_74:\n        /* \"contracts/NFTAuction.sol\":4830:5249  function withdraw(uint256 _auctionId) external nonReentrant auctionExists(_auctionId) {... */\n      pop\n      jump\t// out\n        /* \"contracts/NFTAuction.sol\":1814:3122  function initializeAuction(... */\n    tag_21:\n        /* \"contracts/NFTAuction.sol\":2029:2044  block.timestamp */\n      timestamp\n        /* \"contracts/NFTAuction.sol\":2016:2026  _startTime */\n      dup3\n        /* \"contracts/NFTAuction.sol\":2016:2044  _startTime > block.timestamp */\n      gt\n        /* \"contracts/NFTAuction.sol\":2008:2081  require(_startTime > block.timestamp, \"Start time must be in the future\") */\n      tag_77\n      jumpi\n      mload(0x40)\n      0x08c379a000000000000000000000000000000000000000000000000000000000\n      dup2\n      mstore\n      0x04\n      add\n      tag_78\n      swap1\n      tag_79\n      jump\t// in\n    tag_78:\n      mload(0x40)\n      dup1\n      swap2\n      sub\n      swap1\n      revert\n    tag_77:\n        /* \"contracts/NFTAuction.sol\":2111:2121  _startTime */\n      dup2\n        /* \"contracts/NFTAuction.sol\":2100:2108  _endTime */\n      dup2\n        /* \"contracts/NFTAuction.sol\":2100:2121  _endTime > _startTime */\n      gt\n        /* \"contracts/NFTAuction.sol\":2092:2159  require(_endTime > _startTime, \"End time must be after start time\") */\n      tag_80\n      jumpi\n      mload(0x40)\n      0x08c379a000000000000000000000000000000000000000000000000000000000\n      dup2\n      mstore\n      0x04\n      add\n      tag_81\n      swap1\n      tag_82\n      jump\t// in\n    tag_81:\n      mload(0x40)\n      dup1\n      swap2\n      sub\n      swap1\n      revert\n    tag_80:\n        /* \"contracts/NFTAuction.sol\":2188:2189  0 */\n      0x00\n        /* \"contracts/NFTAuction.sol\":2178:2185  _minBid */\n      dup4\n        /* \"contracts/NFTAuction.sol\":2178:2189  _minBid > 0 */\n      gt\n        /* \"contracts/NFTAuction.sol\":2170:2231  require(_minBid > 0, \"Minimum bid must be greater than zero\") */\n      tag_83\n      jumpi\n      mload(0x40)\n      0x08c379a000000000000000000000000000000000000000000000000000000000\n      dup2\n      mstore\n      0x04\n      add\n      tag_84\n      swap1\n      tag_85\n      jump\t// in\n    tag_84:\n      mload(0x40)\n      dup1\n      swap2\n      sub\n      swap1\n      revert\n    tag_83:\n        /* \"contracts/NFTAuction.sol\":2244:2263  IERC721 nftContract */\n      0x00\n        /* \"contracts/NFTAuction.sol\":2274:2286  _nftContract */\n      dup6\n        /* \"contracts/NFTAuction.sol\":2244:2287  IERC721 nftContract = IERC721(_nftContract) */\n      swap1\n      pop\n        /* \"contracts/NFTAuction.sol\":2339:2349  msg.sender */\n      caller\n        /* \"contracts/NFTAuction.sol\":2306:2349  nftContract.ownerOf(_tokenId) == msg.sender */\n      0xffffffffffffffffffffffffffffffffffffffff\n      and\n        /* \"contracts/NFTAuction.sol\":2306:2317  nftContract */\n      dup2\n        /* \"contracts/NFTAuction.sol\":2306:2325  nftContract.ownerOf */\n      0xffffffffffffffffffffffffffffffffffffffff\n      and\n      0x6352211e\n        /* \"contracts/NFTAuction.sol\":2326:2334  _tokenId */\n      dup8\n        /* \"contracts/NFTAuction.sol\":2306:2335  nftContract.ownerOf(_tokenId) */\n      mload(0x40)\n      dup3\n      0xffffffff\n      and\n      0xe0\n      shl\n      dup2\n      mstore\n      0x04\n      add\n      tag_86\n      swap2\n      swap1\n      tag_28\n      jump\t// in\n    tag_86:\n      0x20\n      mload(0x40)\n      dup1\n      dup4\n      sub\n      dup2\n      dup7\n      gas\n      staticcall\n      iszero\n      dup1\n      iszero\n      tag_88\n      jumpi\n      returndatasize\n      0x00\n      dup1\n      returndatacopy\n      revert(0x00, returndatasize)\n    tag_88:\n      pop\n      pop\n      pop\n      pop\n      mload(0x40)\n      returndatasize\n      not(0x1f)\n      0x1f\n      dup3\n      add\n      and\n      dup3\n      add\n      dup1\n      0x40\n      mstore\n      pop\n      dup2\n      add\n      swap1\n      tag_89\n      swap2\n      swap1\n      tag_90\n      jump\t// in\n    tag_89:\n        /* \"contracts/NFTAuction.sol\":2306:2349  nftContract.ownerOf(_tokenId) == msg.sender */\n      0xffffffffffffffffffffffffffffffffffffffff\n      and\n      eq\n        /* \"contracts/NFTAuction.sol\":2298:2388  require(nftContract.ownerOf(_tokenId) == msg.sender, \"You must own the NFT to auction it\") */\n      tag_91\n      jumpi\n      mload(0x40)\n      0x08c379a000000000000000000000000000000000000000000000000000000000\n      dup2\n      mstore\n      0x04\n      add\n      tag_92\n      swap1\n      tag_93\n      jump\t// in\n    tag_92:\n      mload(0x40)\n      dup1\n      swap2\n      sub\n      swap1\n      revert\n    tag_91:\n        /* \"contracts/NFTAuction.sol\":2407:2418  nftContract */\n      dup1\n        /* \"contracts/NFTAuction.sol\":2407:2435  nftContract.isApprovedForAll */\n      0xffffffffffffffffffffffffffffffffffffffff\n      and\n      0xe985e9c5\n        /* \"contracts/NFTAuction.sol\":2436:2446  msg.sender */\n      caller\n        /* \"contracts/NFTAuction.sol\":2456:2460  this */\n      address\n        /* \"contracts/NFTAuction.sol\":2407:2462  nftContract.isApprovedForAll(msg.sender, address(this)) */\n      mload(0x40)\n      dup4\n      0xffffffff\n      and\n      0xe0\n      shl\n      dup2\n      mstore\n      0x04\n      add\n      tag_94\n      swap3\n      swap2\n      swap1\n      tag_95\n      jump\t// in\n    tag_94:\n      0x20\n      mload(0x40)\n      dup1\n      dup4\n      sub\n      dup2\n      dup7\n      gas\n      staticcall\n      iszero\n      dup1\n      iszero\n      tag_97\n      jumpi\n      returndatasize\n      0x00\n      dup1\n      returndatacopy\n      revert(0x00, returndatasize)\n    tag_97:\n      pop\n      pop\n      pop\n      pop\n      mload(0x40)\n      returndatasize\n      not(0x1f)\n      0x1f\n      dup3\n      add\n      and\n      dup3\n      add\n      dup1\n      0x40\n      mstore\n      pop\n      dup2\n      add\n      swap1\n      tag_98\n      swap2\n      swap1\n      tag_99\n      jump\t// in\n    tag_98:\n        /* \"contracts/NFTAuction.sol\":2399:2512  require(nftContract.isApprovedForAll(msg.sender, address(this)), \"Contract must be approved to transfer the NFT\") */\n      tag_100\n      jumpi\n      mload(0x40)\n      0x08c379a000000000000000000000000000000000000000000000000000000000\n      dup2\n      mstore\n      0x04\n      add\n      tag_101\n      swap1\n      tag_102\n      jump\t// in\n    tag_101:\n      mload(0x40)\n      dup1\n      swap2\n      sub\n      swap1\n      revert\n    tag_100:\n        /* \"contracts/NFTAuction.sol\":2525:2542  uint256 auctionId */\n      0x00\n        /* \"contracts/NFTAuction.sol\":2545:2559  auctionCounter */\n      0x03\n      0x00\n        /* \"contracts/NFTAuction.sol\":2545:2561  auctionCounter++ */\n      dup2\n      sload\n      dup1\n      swap3\n      swap2\n      swap1\n      tag_103\n      swap1\n      tag_104\n      jump\t// in\n    tag_103:\n      swap2\n      swap1\n      pop\n      sstore\n        /* \"contracts/NFTAuction.sol\":2525:2561  uint256 auctionId = auctionCounter++ */\n      swap1\n      pop\n        /* \"contracts/NFTAuction.sol\":2594:2930  Auction({... */\n      mload(0x40)\n      dup1\n      0x0120\n      add\n      0x40\n      mstore\n      dup1\n        /* \"contracts/NFTAuction.sol\":2630:2642  _nftContract */\n      dup9\n        /* \"contracts/NFTAuction.sol\":2594:2930  Auction({... */\n      0xffffffffffffffffffffffffffffffffffffffff\n      and\n      dup2\n      mstore\n      0x20\n      add\n        /* \"contracts/NFTAuction.sol\":2666:2674  _tokenId */\n      dup8\n        /* \"contracts/NFTAuction.sol\":2594:2930  Auction({... */\n      dup2\n      mstore\n      0x20\n      add\n        /* \"contracts/NFTAuction.sol\":2705:2715  msg.sender */\n      caller\n        /* \"contracts/NFTAuction.sol\":2594:2930  Auction({... */\n      0xffffffffffffffffffffffffffffffffffffffff\n      and\n      dup2\n      mstore\n      0x20\n      add\n        /* \"contracts/NFTAuction.sol\":2739:2746  _minBid */\n      dup7\n        /* \"contracts/NFTAuction.sol\":2594:2930  Auction({... */\n      dup2\n      mstore\n      0x20\n      add\n        /* \"contracts/NFTAuction.sol\":2773:2774  0 */\n      0x00\n        /* \"contracts/NFTAuction.sol\":2594:2930  Auction({... */\n      dup2\n      mstore\n      0x20\n      add\n        /* \"contracts/NFTAuction.sol\":2820:2821  0 */\n      0x00\n        /* \"contracts/NFTAuction.sol\":2594:2930  Auction({... */\n      0xffffffffffffffffffffffffffffffffffffffff\n      and\n      dup2\n      mstore\n      0x20\n      add\n        /* \"contracts/NFTAuction.sol\":2849:2859  _startTime */\n      dup6\n        /* \"contracts/NFTAuction.sol\":2594:2930  Auction({... */\n      dup2\n      mstore\n      0x20\n      add\n        /* \"contracts/NFTAuction.sol\":2883:2891  _endTime */\n      dup5\n        /* \"contracts/NFTAuction.sol\":2594:2930  Auction({... */\n      dup2\n      mstore\n      0x20\n      add\n        /* \"contracts/NFTAuction.sol\":2913:2918  false */\n      0x00\n        /* \"contracts/NFTAuction.sol\":2594:2930  Auction({... */\n      iszero\n      iszero\n      dup2\n      mstore\n      pop\n        /* \"contracts/NFTAuction.sol\":2572:2580  auctions */\n      0x01\n        /* \"contracts/NFTAuction.sol\":2572:2591  auctions[auctionId] */\n      0x00\n        /* \"contracts/NFTAuction.sol\":2581:2590  auctionId */\n      dup4\n        /* \"contracts/NFTAuction.sol\":2572:2591  auctions[auctionId] */\n      dup2\n      mstore\n      0x20\n      add\n      swap1\n      dup2\n      mstore\n      0x20\n      add\n      0x00\n      keccak256\n        /* \"contracts/NFTAuction.sol\":2572:2930  auctions[auctionId] = Auction({... */\n      0x00\n      dup3\n      add\n      mload\n      dup2\n      0x00\n      add\n      exp(0x0100, 0x00)\n      dup2\n      sload\n      dup2\n      0xffffffffffffffffffffffffffffffffffffffff\n      mul\n      not\n      and\n      swap1\n      dup4\n      0xffffffffffffffffffffffffffffffffffffffff\n      and\n      mul\n      or\n      swap1\n      sstore\n      pop\n      0x20\n      dup3\n      add\n      mload\n      dup2\n      0x01\n      add\n      sstore\n      0x40\n      dup3\n      add\n      mload\n      dup2\n      0x02\n      add\n      exp(0x0100, 0x00)\n      dup2\n      sload\n      dup2\n      0xffffffffffffffffffffffffffffffffffffffff\n      mul\n      not\n      and\n      swap1\n      dup4\n      0xffffffffffffffffffffffffffffffffffffffff\n      and\n      mul\n      or\n      swap1\n      sstore\n      pop\n      0x60\n      dup3\n      add\n      mload\n      dup2\n      0x03\n      add\n      sstore\n      0x80\n      dup3\n      add\n      mload\n      dup2\n      0x04\n      add\n      sstore\n      0xa0\n      dup3\n      add\n      mload\n      dup2\n      0x05\n      add\n      exp(0x0100, 0x00)\n      dup2\n      sload\n      dup2\n      0xffffffffffffffffffffffffffffffffffffffff\n      mul\n      not\n      and\n      swap1\n      dup4\n      0xffffffffffffffffffffffffffffffffffffffff\n      and\n      mul\n      or\n      swap1\n      sstore\n      pop\n      0xc0\n      dup3\n      add\n      mload\n      dup2\n      0x06\n      add\n      sstore\n      0xe0\n      dup3\n      add\n      mload\n      dup2\n      0x07\n      add\n      sstore\n      0x0100\n      dup3\n      add\n      mload\n      dup2\n      0x08\n      add\n      exp(0x0100, 0x00)\n      dup2\n      sload\n      dup2\n      0xff\n      mul\n      not\n      and\n      swap1\n      dup4\n      iszero\n      iszero\n      mul\n      or\n      swap1\n      sstore\n      pop\n      swap1\n      pop\n      pop\n        /* \"contracts/NFTAuction.sol\":2943:2954  nftContract */\n      dup2\n        /* \"contracts/NFTAuction.sol\":2943:2967  nftContract.transferFrom */\n      0xffffffffffffffffffffffffffffffffffffffff\n      and\n      0x23b872dd\n        /* \"contracts/NFTAuction.sol\":2968:2978  msg.sender */\n      caller\n        /* \"contracts/NFTAuction.sol\":2988:2992  this */\n      address\n        /* \"contracts/NFTAuction.sol\":2995:3003  _tokenId */\n      dup10\n        /* \"contracts/NFTAuction.sol\":2943:3004  nftContract.transferFrom(msg.sender, address(this), _tokenId) */\n      mload(0x40)\n      dup5\n      0xffffffff\n      and\n      0xe0\n      shl\n      dup2\n      mstore\n      0x04\n      add\n      tag_105\n      swap4\n      swap3\n      swap2\n      swap1\n      tag_106\n      jump\t// in\n    tag_105:\n      0x00\n      mload(0x40)\n      dup1\n      dup4\n      sub\n      dup2\n      0x00\n      dup8\n      dup1\n      extcodesize\n      iszero\n      dup1\n      iszero\n      tag_107\n      jumpi\n      0x00\n      dup1\n      revert\n    tag_107:\n      pop\n      gas\n      call\n      iszero\n      dup1\n      iszero\n      tag_109\n      jumpi\n      returndatasize\n      0x00\n      dup1\n      returndatacopy\n      revert(0x00, returndatasize)\n    tag_109:\n      pop\n      pop\n      pop\n      pop\n        /* \"contracts/NFTAuction.sol\":3060:3072  _nftContract */\n      dup7\n        /* \"contracts/NFTAuction.sol\":3022:3114  AuctionCreated(auctionId, msg.sender, _nftContract, _tokenId, _minBid, _startTime, _endTime) */\n      0xffffffffffffffffffffffffffffffffffffffff\n      and\n        /* \"contracts/NFTAuction.sol\":3048:3058  msg.sender */\n      caller\n        /* \"contracts/NFTAuction.sol\":3022:3114  AuctionCreated(auctionId, msg.sender, _nftContract, _tokenId, _minBid, _startTime, _endTime) */\n      0xffffffffffffffffffffffffffffffffffffffff\n      and\n        /* \"contracts/NFTAuction.sol\":3037:3046  auctionId */\n      dup3\n        /* \"contracts/NFTAuction.sol\":3022:3114  AuctionCreated(auctionId, msg.sender, _nftContract, _tokenId, _minBid, _startTime, _endTime) */\n      0xcaf0ae751fb2b122e8718bf7c0d4b7584d1418a853a4d0cdaba45418d3da138b\n        /* \"contracts/NFTAuction.sol\":3074:3082  _tokenId */\n      dup10\n        /* \"contracts/NFTAuction.sol\":3084:3091  _minBid */\n      dup10\n        /* \"contracts/NFTAuction.sol\":3093:3103  _startTime */\n      dup10\n        /* \"contracts/NFTAuction.sol\":3105:3113  _endTime */\n      dup10\n        /* \"contracts/NFTAuction.sol\":3022:3114  AuctionCreated(auctionId, msg.sender, _nftContract, _tokenId, _minBid, _startTime, _endTime) */\n      mload(0x40)\n      tag_110\n      swap5\n      swap4\n      swap3\n      swap2\n      swap1\n      tag_111\n      jump\t// in\n    tag_110:\n      mload(0x40)\n      dup1\n      swap2\n      sub\n      swap1\n      log4\n        /* \"contracts/NFTAuction.sol\":1997:3122  {... */\n      pop\n      pop\n        /* \"contracts/NFTAuction.sol\":1814:3122  function initializeAuction(... */\n      pop\n      pop\n      pop\n      pop\n      pop\n      jump\t// out\n        /* \"contracts/NFTAuction.sol\":627:686  mapping(uint256 => mapping(address => uint256)) public bids */\n    tag_26:\n      mstore(0x20, 0x02)\n      dup2\n      0x00\n      mstore\n      mstore(0x20, keccak256(0x00, 0x40))\n      dup1\n      0x00\n      mstore\n      keccak256(0x00, 0x40)\n      0x00\n      swap2\n      pop\n      swap2\n      pop\n      pop\n      sload\n      dup2\n      jump\t// out\n        /* \"contracts/NFTAuction.sol\":577:620  mapping(uint256 => Auction) public auctions */\n    tag_32:\n      mstore(0x20, 0x01)\n      dup1\n      0x00\n      mstore\n      keccak256(0x00, 0x40)\n      0x00\n      swap2\n      pop\n      swap1\n      pop\n      dup1\n      0x00\n      add\n      0x00\n      swap1\n      sload\n      swap1\n      0x0100\n      exp\n      swap1\n      div\n      0xffffffffffffffffffffffffffffffffffffffff\n      and\n      swap1\n      dup1\n      0x01\n      add\n      sload\n      swap1\n      dup1\n      0x02\n      add\n      0x00\n      swap1\n      sload\n      swap1\n      0x0100\n      exp\n      swap1\n      div\n      0xffffffffffffffffffffffffffffffffffffffff\n      and\n      swap1\n      dup1\n      0x03\n      add\n      sload\n      swap1\n      dup1\n      0x04\n      add\n      sload\n      swap1\n      dup1\n      0x05\n      add\n      0x00\n      swap1\n      sload\n      swap1\n      0x0100\n      exp\n      swap1\n      div\n      0xffffffffffffffffffffffffffffffffffffffff\n      and\n      swap1\n      dup1\n      0x06\n      add\n      sload\n      swap1\n      dup1\n      0x07\n      add\n      sload\n      swap1\n      dup1\n      0x08\n      add\n      0x00\n      swap1\n      sload\n      swap1\n      0x0100\n      exp\n      swap1\n      div\n      0xff\n      and\n      swap1\n      pop\n      dup10\n      jump\t// out\n        /* \"contracts/NFTAuction.sol\":3130:3942  function placeBid(uint256 _auctionId) external payable nonReentrant auctionExists(_auctionId) auctionActive(_auctionId) {... */\n    tag_37:\n        /* \"@openzeppelin/contracts/security/ReentrancyGuard.sol\":2261:2282  _nonReentrantBefore() */\n      tag_113\n        /* \"@openzeppelin/contracts/security/ReentrancyGuard.sol\":2261:2280  _nonReentrantBefore */\n      tag_59\n        /* \"@openzeppelin/contracts/security/ReentrancyGuard.sol\":2261:2282  _nonReentrantBefore() */\n      jump\t// in\n    tag_113:\n        /* \"contracts/NFTAuction.sol\":3212:3222  _auctionId */\n      dup1\n        /* \"contracts/NFTAuction.sol\":1406:1420  auctionCounter */\n      sload(0x03)\n        /* \"contracts/NFTAuction.sol\":1393:1403  _auctionId */\n      dup2\n        /* \"contracts/NFTAuction.sol\":1393:1420  _auctionId < auctionCounter */\n      lt\n        /* \"contracts/NFTAuction.sol\":1385:1447  require(_auctionId < auctionCounter, \"Auction does not exist\") */\n      tag_115\n      jumpi\n      mload(0x40)\n      0x08c379a000000000000000000000000000000000000000000000000000000000\n      dup2\n      mstore\n      0x04\n      add\n      tag_116\n      swap1\n      tag_63\n      jump\t// in\n    tag_116:\n      mload(0x40)\n      dup1\n      swap2\n      sub\n      swap1\n      revert\n    tag_115:\n        /* \"contracts/NFTAuction.sol\":3238:3248  _auctionId */\n      dup2\n        /* \"contracts/NFTAuction.sol\":1556:1564  auctions */\n      0x01\n        /* \"contracts/NFTAuction.sol\":1556:1576  auctions[_auctionId] */\n      0x00\n        /* \"contracts/NFTAuction.sol\":1565:1575  _auctionId */\n      dup3\n        /* \"contracts/NFTAuction.sol\":1556:1576  auctions[_auctionId] */\n      dup2\n      mstore\n      0x20\n      add\n      swap1\n      dup2\n      mstore\n      0x20\n      add\n      0x00\n      keccak256\n        /* \"contracts/NFTAuction.sol\":1556:1586  auctions[_auctionId].startTime */\n      0x06\n      add\n      sload\n        /* \"contracts/NFTAuction.sol\":1537:1552  block.timestamp */\n      timestamp\n        /* \"contracts/NFTAuction.sol\":1537:1586  block.timestamp >= auctions[_auctionId].startTime */\n      lt\n      iszero\n        /* \"contracts/NFTAuction.sol\":1529:1618  require(block.timestamp >= auctions[_auctionId].startTime, \"Auction has not started yet\") */\n      tag_118\n      jumpi\n      mload(0x40)\n      0x08c379a000000000000000000000000000000000000000000000000000000000\n      dup2\n      mstore\n      0x04\n      add\n      tag_119\n      swap1\n      tag_120\n      jump\t// in\n    tag_119:\n      mload(0x40)\n      dup1\n      swap2\n      sub\n      swap1\n      revert\n    tag_118:\n        /* \"contracts/NFTAuction.sol\":1655:1663  auctions */\n      0x01\n        /* \"contracts/NFTAuction.sol\":1655:1675  auctions[_auctionId] */\n      0x00\n        /* \"contracts/NFTAuction.sol\":1664:1674  _auctionId */\n      dup3\n        /* \"contracts/NFTAuction.sol\":1655:1675  auctions[_auctionId] */\n      dup2\n      mstore\n      0x20\n      add\n      swap1\n      dup2\n      mstore\n      0x20\n      add\n      0x00\n      keccak256\n        /* \"contracts/NFTAuction.sol\":1655:1683  auctions[_auctionId].endTime */\n      0x07\n      add\n      sload\n        /* \"contracts/NFTAuction.sol\":1637:1652  block.timestamp */\n      timestamp\n        /* \"contracts/NFTAuction.sol\":1637:1683  block.timestamp < auctions[_auctionId].endTime */\n      lt\n        /* \"contracts/NFTAuction.sol\":1629:1705  require(block.timestamp < auctions[_auctionId].endTime, \"Auction has ended\") */\n      tag_121\n      jumpi\n      mload(0x40)\n      0x08c379a000000000000000000000000000000000000000000000000000000000\n      dup2\n      mstore\n      0x04\n      add\n      tag_122\n      swap1\n      tag_123\n      jump\t// in\n    tag_122:\n      mload(0x40)\n      dup1\n      swap2\n      sub\n      swap1\n      revert\n    tag_121:\n        /* \"contracts/NFTAuction.sol\":1725:1733  auctions */\n      0x01\n        /* \"contracts/NFTAuction.sol\":1725:1745  auctions[_auctionId] */\n      0x00\n        /* \"contracts/NFTAuction.sol\":1734:1744  _auctionId */\n      dup3\n        /* \"contracts/NFTAuction.sol\":1725:1745  auctions[_auctionId] */\n      dup2\n      mstore\n      0x20\n      add\n      swap1\n      dup2\n      mstore\n      0x20\n      add\n      0x00\n      keccak256\n        /* \"contracts/NFTAuction.sol\":1725:1751  auctions[_auctionId].ended */\n      0x08\n      add\n      0x00\n      swap1\n      sload\n      swap1\n      0x0100\n      exp\n      swap1\n      div\n      0xff\n      and\n        /* \"contracts/NFTAuction.sol\":1724:1751  !auctions[_auctionId].ended */\n      iszero\n        /* \"contracts/NFTAuction.sol\":1716:1786  require(!auctions[_auctionId].ended, \"Auction has already been ended\") */\n      tag_124\n      jumpi\n      mload(0x40)\n      0x08c379a000000000000000000000000000000000000000000000000000000000\n      dup2\n      mstore\n      0x04\n      add\n      tag_125\n      swap1\n      tag_126\n      jump\t// in\n    tag_125:\n      mload(0x40)\n      dup1\n      swap2\n      sub\n      swap1\n      revert\n    tag_124:\n        /* \"contracts/NFTAuction.sol\":3261:3284  Auction storage auction */\n      0x00\n        /* \"contracts/NFTAuction.sol\":3287:3295  auctions */\n      0x01\n        /* \"contracts/NFTAuction.sol\":3287:3307  auctions[_auctionId] */\n      0x00\n        /* \"contracts/NFTAuction.sol\":3296:3306  _auctionId */\n      dup6\n        /* \"contracts/NFTAuction.sol\":3287:3307  auctions[_auctionId] */\n      dup2\n      mstore\n      0x20\n      add\n      swap1\n      dup2\n      mstore\n      0x20\n      add\n      0x00\n      keccak256\n        /* \"contracts/NFTAuction.sol\":3261:3307  Auction storage auction = auctions[_auctionId] */\n      swap1\n      pop\n        /* \"contracts/NFTAuction.sol\":3339:3346  auction */\n      dup1\n        /* \"contracts/NFTAuction.sol\":3339:3353  auction.minBid */\n      0x03\n      add\n      sload\n        /* \"contracts/NFTAuction.sol\":3326:3335  msg.value */\n      callvalue\n        /* \"contracts/NFTAuction.sol\":3326:3353  msg.value >= auction.minBid */\n      lt\n      iszero\n        /* \"contracts/NFTAuction.sol\":3318:3401  require(msg.value >= auction.minBid, \"Bid must be at least the minimum bid amount\") */\n      tag_128\n      jumpi\n      mload(0x40)\n      0x08c379a000000000000000000000000000000000000000000000000000000000\n      dup2\n      mstore\n      0x04\n      add\n      tag_129\n      swap1\n      tag_130\n      jump\t// in\n    tag_129:\n      mload(0x40)\n      dup1\n      swap2\n      sub\n      swap1\n      revert\n    tag_128:\n        /* \"contracts/NFTAuction.sol\":3432:3439  auction */\n      dup1\n        /* \"contracts/NFTAuction.sol\":3432:3450  auction.highestBid */\n      0x04\n      add\n      sload\n        /* \"contracts/NFTAuction.sol\":3420:3429  msg.value */\n      callvalue\n        /* \"contracts/NFTAuction.sol\":3420:3450  msg.value > auction.highestBid */\n      gt\n        /* \"contracts/NFTAuction.sol\":3412:3502  require(msg.value > auction.highestBid, \"Bid must be higher than the current highest bid\") */\n      tag_131\n      jumpi\n      mload(0x40)\n      0x08c379a000000000000000000000000000000000000000000000000000000000\n      dup2\n      mstore\n      0x04\n      add\n      tag_132\n      swap1\n      tag_133\n      jump\t// in\n    tag_132:\n      mload(0x40)\n      dup1\n      swap2\n      sub\n      swap1\n      revert\n    tag_131:\n        /* \"contracts/NFTAuction.sol\":3515:3552  address payable previousHighestBidder */\n      0x00\n        /* \"contracts/NFTAuction.sol\":3555:3562  auction */\n      dup2\n        /* \"contracts/NFTAuction.sol\":3555:3576  auction.highestBidder */\n      0x05\n      add\n      0x00\n      swap1\n      sload\n      swap1\n      0x0100\n      exp\n      swap1\n      div\n      0xffffffffffffffffffffffffffffffffffffffff\n      and\n        /* \"contracts/NFTAuction.sol\":3515:3576  address payable previousHighestBidder = auction.highestBidder */\n      swap1\n      pop\n        /* \"contracts/NFTAuction.sol\":3587:3613  uint256 previousHighestBid */\n      0x00\n        /* \"contracts/NFTAuction.sol\":3616:3623  auction */\n      dup3\n        /* \"contracts/NFTAuction.sol\":3616:3634  auction.highestBid */\n      0x04\n      add\n      sload\n        /* \"contracts/NFTAuction.sol\":3587:3634  uint256 previousHighestBid = auction.highestBid */\n      swap1\n      pop\n        /* \"contracts/NFTAuction.sol\":3684:3685  0 */\n      0x00\n        /* \"contracts/NFTAuction.sol\":3651:3686  previousHighestBidder != address(0) */\n      0xffffffffffffffffffffffffffffffffffffffff\n      and\n        /* \"contracts/NFTAuction.sol\":3651:3672  previousHighestBidder */\n      dup3\n        /* \"contracts/NFTAuction.sol\":3651:3686  previousHighestBidder != address(0) */\n      0xffffffffffffffffffffffffffffffffffffffff\n      and\n      eq\n        /* \"contracts/NFTAuction.sol\":3647:3776  if (previousHighestBidder != address(0)) {... */\n      tag_134\n      jumpi\n        /* \"contracts/NFTAuction.sol\":3746:3764  previousHighestBid */\n      dup1\n        /* \"contracts/NFTAuction.sol\":3703:3707  bids */\n      0x02\n        /* \"contracts/NFTAuction.sol\":3703:3719  bids[_auctionId] */\n      0x00\n        /* \"contracts/NFTAuction.sol\":3708:3718  _auctionId */\n      dup9\n        /* \"contracts/NFTAuction.sol\":3703:3719  bids[_auctionId] */\n      dup2\n      mstore\n      0x20\n      add\n      swap1\n      dup2\n      mstore\n      0x20\n      add\n      0x00\n      keccak256\n        /* \"contracts/NFTAuction.sol\":3703:3742  bids[_auctionId][previousHighestBidder] */\n      0x00\n        /* \"contracts/NFTAuction.sol\":3720:3741  previousHighestBidder */\n      dup5\n        /* \"contracts/NFTAuction.sol\":3703:3742  bids[_auctionId][previousHighestBidder] */\n      0xffffffffffffffffffffffffffffffffffffffff\n      and\n      0xffffffffffffffffffffffffffffffffffffffff\n      and\n      dup2\n      mstore\n      0x20\n      add\n      swap1\n      dup2\n      mstore\n      0x20\n      add\n      0x00\n      keccak256\n      0x00\n        /* \"contracts/NFTAuction.sol\":3703:3764  bids[_auctionId][previousHighestBidder] += previousHighestBid */\n      dup3\n      dup3\n      sload\n      tag_135\n      swap2\n      swap1\n      tag_136\n      jump\t// in\n    tag_135:\n      swap3\n      pop\n      pop\n      dup2\n      swap1\n      sstore\n      pop\n        /* \"contracts/NFTAuction.sol\":3647:3776  if (previousHighestBidder != address(0)) {... */\n    tag_134:\n        /* \"contracts/NFTAuction.sol\":3820:3830  msg.sender */\n      caller\n        /* \"contracts/NFTAuction.sol\":3788:3795  auction */\n      dup4\n        /* \"contracts/NFTAuction.sol\":3788:3809  auction.highestBidder */\n      0x05\n      add\n      0x00\n        /* \"contracts/NFTAuction.sol\":3788:3831  auction.highestBidder = payable(msg.sender) */\n      0x0100\n      exp\n      dup2\n      sload\n      dup2\n      0xffffffffffffffffffffffffffffffffffffffff\n      mul\n      not\n      and\n      swap1\n      dup4\n      0xffffffffffffffffffffffffffffffffffffffff\n      and\n      mul\n      or\n      swap1\n      sstore\n      pop\n        /* \"contracts/NFTAuction.sol\":3863:3872  msg.value */\n      callvalue\n        /* \"contracts/NFTAuction.sol\":3842:3849  auction */\n      dup4\n        /* \"contracts/NFTAuction.sol\":3842:3860  auction.highestBid */\n      0x04\n      add\n        /* \"contracts/NFTAuction.sol\":3842:3872  auction.highestBid = msg.value */\n      dup2\n      swap1\n      sstore\n      pop\n        /* \"contracts/NFTAuction.sol\":3912:3922  msg.sender */\n      caller\n        /* \"contracts/NFTAuction.sol\":3890:3934  BidPlaced(_auctionId, msg.sender, msg.value) */\n      0xffffffffffffffffffffffffffffffffffffffff\n      and\n        /* \"contracts/NFTAuction.sol\":3900:3910  _auctionId */\n      dup7\n        /* \"contracts/NFTAuction.sol\":3890:3934  BidPlaced(_auctionId, msg.sender, msg.value) */\n      0x0e54eff26401bf69b81b26f60bd85ef47f5d85275c1d268d84f68d6897431c47\n        /* \"contracts/NFTAuction.sol\":3924:3933  msg.value */\n      callvalue\n        /* \"contracts/NFTAuction.sol\":3890:3934  BidPlaced(_auctionId, msg.sender, msg.value) */\n      mload(0x40)\n      tag_137\n      swap2\n      swap1\n      tag_28\n      jump\t// in\n    tag_137:\n      mload(0x40)\n      dup1\n      swap2\n      sub\n      swap1\n      log3\n        /* \"contracts/NFTAuction.sol\":3250:3942  {... */\n      pop\n      pop\n      pop\n        /* \"contracts/NFTAuction.sol\":1458:1459  _ */\n      pop\n        /* \"@openzeppelin/contracts/security/ReentrancyGuard.sol\":2292:2293  _ */\n      pop\n        /* \"@openzeppelin/contracts/security/ReentrancyGuard.sol\":2303:2323  _nonReentrantAfter() */\n      tag_138\n        /* \"@openzeppelin/contracts/security/ReentrancyGuard.sol\":2303:2321  _nonReentrantAfter */\n      tag_75\n        /* \"@openzeppelin/contracts/security/ReentrancyGuard.sol\":2303:2323  _nonReentrantAfter() */\n      jump\t// in\n    tag_138:\n        /* \"contracts/NFTAuction.sol\":3130:3942  function placeBid(uint256 _auctionId) external payable nonReentrant auctionExists(_auctionId) auctionActive(_auctionId) {... */\n      pop\n      jump\t// out\n        /* \"contracts/NFTAuction.sol\":693:722  uint256 public auctionCounter */\n    tag_40:\n      sload(0x03)\n      dup2\n      jump\t// out\n        /* \"contracts/NFTAuction.sol\":3950:4822  function endAuction(uint256 _auctionId) external nonReentrant auctionExists(_auctionId) {... */\n    tag_45:\n        /* \"@openzeppelin/contracts/security/ReentrancyGuard.sol\":2261:2282  _nonReentrantBefore() */\n      tag_140\n        /* \"@openzeppelin/contracts/security/ReentrancyGuard.sol\":2261:2280  _nonReentrantBefore */\n      tag_59\n        /* \"@openzeppelin/contracts/security/ReentrancyGuard.sol\":2261:2282  _nonReentrantBefore() */\n      jump\t// in\n    tag_140:\n        /* \"contracts/NFTAuction.sol\":4026:4036  _auctionId */\n      dup1\n        /* \"contracts/NFTAuction.sol\":1406:1420  auctionCounter */\n      sload(0x03)\n        /* \"contracts/NFTAuction.sol\":1393:1403  _auctionId */\n      dup2\n        /* \"contracts/NFTAuction.sol\":1393:1420  _auctionId < auctionCounter */\n      lt\n        /* \"contracts/NFTAuction.sol\":1385:1447  require(_auctionId < auctionCounter, \"Auction does not exist\") */\n      tag_142\n      jumpi\n      mload(0x40)\n      0x08c379a000000000000000000000000000000000000000000000000000000000\n      dup2\n      mstore\n      0x04\n      add\n      tag_143\n      swap1\n      tag_63\n      jump\t// in\n    tag_143:\n      mload(0x40)\n      dup1\n      swap2\n      sub\n      swap1\n      revert\n    tag_142:\n        /* \"contracts/NFTAuction.sol\":4049:4072  Auction storage auction */\n      0x00\n        /* \"contracts/NFTAuction.sol\":4075:4083  auctions */\n      0x01\n        /* \"contracts/NFTAuction.sol\":4075:4095  auctions[_auctionId] */\n      0x00\n        /* \"contracts/NFTAuction.sol\":4084:4094  _auctionId */\n      dup5\n        /* \"contracts/NFTAuction.sol\":4075:4095  auctions[_auctionId] */\n      dup2\n      mstore\n      0x20\n      add\n      swap1\n      dup2\n      mstore\n      0x20\n      add\n      0x00\n      keccak256\n        /* \"contracts/NFTAuction.sol\":4049:4095  Auction storage auction = auctions[_auctionId] */\n      swap1\n      pop\n        /* \"contracts/NFTAuction.sol\":4133:4140  auction */\n      dup1\n        /* \"contracts/NFTAuction.sol\":4133:4148  auction.endTime */\n      0x07\n      add\n      sload\n        /* \"contracts/NFTAuction.sol\":4114:4129  block.timestamp */\n      timestamp\n        /* \"contracts/NFTAuction.sol\":4114:4148  block.timestamp >= auction.endTime */\n      lt\n      iszero\n        /* \"contracts/NFTAuction.sol\":4114:4180  block.timestamp >= auction.endTime || msg.sender == auction.seller */\n      dup1\n      tag_145\n      jumpi\n      pop\n        /* \"contracts/NFTAuction.sol\":4166:4173  auction */\n      dup1\n        /* \"contracts/NFTAuction.sol\":4166:4180  auction.seller */\n      0x02\n      add\n      0x00\n      swap1\n      sload\n      swap1\n      0x0100\n      exp\n      swap1\n      div\n      0xffffffffffffffffffffffffffffffffffffffff\n      and\n        /* \"contracts/NFTAuction.sol\":4152:4180  msg.sender == auction.seller */\n      0xffffffffffffffffffffffffffffffffffffffff\n      and\n        /* \"contracts/NFTAuction.sol\":4152:4162  msg.sender */\n      caller\n        /* \"contracts/NFTAuction.sol\":4152:4180  msg.sender == auction.seller */\n      0xffffffffffffffffffffffffffffffffffffffff\n      and\n      eq\n        /* \"contracts/NFTAuction.sol\":4114:4180  block.timestamp >= auction.endTime || msg.sender == auction.seller */\n    tag_145:\n        /* \"contracts/NFTAuction.sol\":4106:4212  require(block.timestamp >= auction.endTime || msg.sender == auction.seller, \"Auction cannot be ended yet\") */\n      tag_146\n      jumpi\n      mload(0x40)\n      0x08c379a000000000000000000000000000000000000000000000000000000000\n      dup2\n      mstore\n      0x04\n      add\n      tag_147\n      swap1\n      tag_148\n      jump\t// in\n    tag_147:\n      mload(0x40)\n      dup1\n      swap2\n      sub\n      swap1\n      revert\n    tag_146:\n        /* \"contracts/NFTAuction.sol\":4232:4239  auction */\n      dup1\n        /* \"contracts/NFTAuction.sol\":4232:4245  auction.ended */\n      0x08\n      add\n      0x00\n      swap1\n      sload\n      swap1\n      0x0100\n      exp\n      swap1\n      div\n      0xff\n      and\n        /* \"contracts/NFTAuction.sol\":4231:4245  !auction.ended */\n      iszero\n        /* \"contracts/NFTAuction.sol\":4223:4275  require(!auction.ended, \"Auction has already ended\") */\n      tag_149\n      jumpi\n      mload(0x40)\n      0x08c379a000000000000000000000000000000000000000000000000000000000\n      dup2\n      mstore\n      0x04\n      add\n      tag_150\n      swap1\n      tag_151\n      jump\t// in\n    tag_150:\n      mload(0x40)\n      dup1\n      swap2\n      sub\n      swap1\n      revert\n    tag_149:\n        /* \"contracts/NFTAuction.sol\":4304:4308  true */\n      0x01\n        /* \"contracts/NFTAuction.sol\":4288:4295  auction */\n      dup2\n        /* \"contracts/NFTAuction.sol\":4288:4301  auction.ended */\n      0x08\n      add\n      0x00\n        /* \"contracts/NFTAuction.sol\":4288:4308  auction.ended = true */\n      0x0100\n      exp\n      dup2\n      sload\n      dup2\n      0xff\n      mul\n      not\n      and\n      swap1\n      dup4\n      iszero\n      iszero\n      mul\n      or\n      swap1\n      sstore\n      pop\n        /* \"contracts/NFTAuction.sol\":4358:4359  0 */\n      0x00\n        /* \"contracts/NFTAuction.sol\":4325:4360  auction.highestBidder != address(0) */\n      0xffffffffffffffffffffffffffffffffffffffff\n      and\n        /* \"contracts/NFTAuction.sol\":4325:4332  auction */\n      dup2\n        /* \"contracts/NFTAuction.sol\":4325:4346  auction.highestBidder */\n      0x05\n      add\n      0x00\n      swap1\n      sload\n      swap1\n      0x0100\n      exp\n      swap1\n      div\n      0xffffffffffffffffffffffffffffffffffffffff\n      and\n        /* \"contracts/NFTAuction.sol\":4325:4360  auction.highestBidder != address(0) */\n      0xffffffffffffffffffffffffffffffffffffffff\n      and\n      eq\n        /* \"contracts/NFTAuction.sol\":4321:4815  if (auction.highestBidder != address(0)) {... */\n      tag_152\n      jumpi\n        /* \"contracts/NFTAuction.sol\":4385:4392  auction */\n      dup1\n        /* \"contracts/NFTAuction.sol\":4385:4404  auction.nftContract */\n      0x00\n      add\n      0x00\n      swap1\n      sload\n      swap1\n      0x0100\n      exp\n      swap1\n      div\n      0xffffffffffffffffffffffffffffffffffffffff\n      and\n        /* \"contracts/NFTAuction.sol\":4377:4418  IERC721(auction.nftContract).transferFrom */\n      0xffffffffffffffffffffffffffffffffffffffff\n      and\n      0x23b872dd\n        /* \"contracts/NFTAuction.sol\":4427:4431  this */\n      address\n        /* \"contracts/NFTAuction.sol\":4434:4441  auction */\n      dup4\n        /* \"contracts/NFTAuction.sol\":4434:4455  auction.highestBidder */\n      0x05\n      add\n      0x00\n      swap1\n      sload\n      swap1\n      0x0100\n      exp\n      swap1\n      div\n      0xffffffffffffffffffffffffffffffffffffffff\n      and\n        /* \"contracts/NFTAuction.sol\":4457:4464  auction */\n      dup5\n        /* \"contracts/NFTAuction.sol\":4457:4472  auction.tokenId */\n      0x01\n      add\n      sload\n        /* \"contracts/NFTAuction.sol\":4377:4473  IERC721(auction.nftContract).transferFrom(address(this), auction.highestBidder, auction.tokenId) */\n      mload(0x40)\n      dup5\n      0xffffffff\n      and\n      0xe0\n      shl\n      dup2\n      mstore\n      0x04\n      add\n      tag_153\n      swap4\n      swap3\n      swap2\n      swap1\n      tag_154\n      jump\t// in\n    tag_153:\n      0x00\n      mload(0x40)\n      dup1\n      dup4\n      sub\n      dup2\n      0x00\n      dup8\n      dup1\n      extcodesize\n      iszero\n      dup1\n      iszero\n      tag_155\n      jumpi\n      0x00\n      dup1\n      revert\n    tag_155:\n      pop\n      gas\n      call\n      iszero\n      dup1\n      iszero\n      tag_157\n      jumpi\n      returndatasize\n      0x00\n      dup1\n      returndatacopy\n      revert(0x00, returndatasize)\n    tag_157:\n      pop\n      pop\n      pop\n      pop\n        /* \"contracts/NFTAuction.sol\":4488:4495  auction */\n      dup1\n        /* \"contracts/NFTAuction.sol\":4488:4502  auction.seller */\n      0x02\n      add\n      0x00\n      swap1\n      sload\n      swap1\n      0x0100\n      exp\n      swap1\n      div\n      0xffffffffffffffffffffffffffffffffffffffff\n      and\n        /* \"contracts/NFTAuction.sol\":4488:4511  auction.seller.transfer */\n      0xffffffffffffffffffffffffffffffffffffffff\n      and\n        /* \"contracts/NFTAuction.sol\":4488:4531  auction.seller.transfer(auction.highestBid) */\n      0x08fc\n        /* \"contracts/NFTAuction.sol\":4512:4519  auction */\n      dup3\n        /* \"contracts/NFTAuction.sol\":4512:4530  auction.highestBid */\n      0x04\n      add\n      sload\n        /* \"contracts/NFTAuction.sol\":4488:4531  auction.seller.transfer(auction.highestBid) */\n      swap1\n      dup2\n      iszero\n      mul\n      swap1\n      mload(0x40)\n      0x00\n      mload(0x40)\n      dup1\n      dup4\n      sub\n      dup2\n      dup6\n      dup9\n      dup9\n      call\n      swap4\n      pop\n      pop\n      pop\n      pop\n      iszero\n      dup1\n      iszero\n      tag_159\n      jumpi\n      returndatasize\n      0x00\n      dup1\n      returndatacopy\n      revert(0x00, returndatasize)\n    tag_159:\n      pop\n        /* \"contracts/NFTAuction.sol\":4576:4583  auction */\n      dup1\n        /* \"contracts/NFTAuction.sol\":4576:4597  auction.highestBidder */\n      0x05\n      add\n      0x00\n      swap1\n      sload\n      swap1\n      0x0100\n      exp\n      swap1\n      div\n      0xffffffffffffffffffffffffffffffffffffffff\n      and\n        /* \"contracts/NFTAuction.sol\":4551:4618  AuctionEnded(_auctionId, auction.highestBidder, auction.highestBid) */\n      0xffffffffffffffffffffffffffffffffffffffff\n      and\n        /* \"contracts/NFTAuction.sol\":4564:4574  _auctionId */\n      dup4\n        /* \"contracts/NFTAuction.sol\":4551:4618  AuctionEnded(_auctionId, auction.highestBidder, auction.highestBid) */\n      0xd2aa34a4fdbbc6dff6a3e56f46e0f3ae2a31d7785ff3487aa5c95c642acea501\n        /* \"contracts/NFTAuction.sol\":4599:4606  auction */\n      dup4\n        /* \"contracts/NFTAuction.sol\":4599:4617  auction.highestBid */\n      0x04\n      add\n      sload\n        /* \"contracts/NFTAuction.sol\":4551:4618  AuctionEnded(_auctionId, auction.highestBidder, auction.highestBid) */\n      mload(0x40)\n      tag_160\n      swap2\n      swap1\n      tag_28\n      jump\t// in\n    tag_160:\n      mload(0x40)\n      dup1\n      swap2\n      sub\n      swap1\n      log3\n        /* \"contracts/NFTAuction.sol\":4321:4815  if (auction.highestBidder != address(0)) {... */\n      jump(tag_161)\n    tag_152:\n        /* \"contracts/NFTAuction.sol\":4659:4666  auction */\n      dup1\n        /* \"contracts/NFTAuction.sol\":4659:4678  auction.nftContract */\n      0x00\n      add\n      0x00\n      swap1\n      sload\n      swap1\n      0x0100\n      exp\n      swap1\n      div\n      0xffffffffffffffffffffffffffffffffffffffff\n      and\n        /* \"contracts/NFTAuction.sol\":4651:4692  IERC721(auction.nftContract).transferFrom */\n      0xffffffffffffffffffffffffffffffffffffffff\n      and\n      0x23b872dd\n        /* \"contracts/NFTAuction.sol\":4701:4705  this */\n      address\n        /* \"contracts/NFTAuction.sol\":4708:4715  auction */\n      dup4\n        /* \"contracts/NFTAuction.sol\":4708:4722  auction.seller */\n      0x02\n      add\n      0x00\n      swap1\n      sload\n      swap1\n      0x0100\n      exp\n      swap1\n      div\n      0xffffffffffffffffffffffffffffffffffffffff\n      and\n        /* \"contracts/NFTAuction.sol\":4724:4731  auction */\n      dup5\n        /* \"contracts/NFTAuction.sol\":4724:4739  auction.tokenId */\n      0x01\n      add\n      sload\n        /* \"contracts/NFTAuction.sol\":4651:4740  IERC721(auction.nftContract).transferFrom(address(this), auction.seller, auction.tokenId) */\n      mload(0x40)\n      dup5\n      0xffffffff\n      and\n      0xe0\n      shl\n      dup2\n      mstore\n      0x04\n      add\n      tag_162\n      swap4\n      swap3\n      swap2\n      swap1\n      tag_154\n      jump\t// in\n    tag_162:\n      0x00\n      mload(0x40)\n      dup1\n      dup4\n      sub\n      dup2\n      0x00\n      dup8\n      dup1\n      extcodesize\n      iszero\n      dup1\n      iszero\n      tag_163\n      jumpi\n      0x00\n      dup1\n      revert\n    tag_163:\n      pop\n      gas\n      call\n      iszero\n      dup1\n      iszero\n      tag_165\n      jumpi\n      returndatasize\n      0x00\n      dup1\n      returndatacopy\n      revert(0x00, returndatasize)\n    tag_165:\n      pop\n      pop\n      pop\n      pop\n        /* \"contracts/NFTAuction.sol\":4785:4792  auction */\n      dup1\n        /* \"contracts/NFTAuction.sol\":4785:4799  auction.seller */\n      0x02\n      add\n      0x00\n      swap1\n      sload\n      swap1\n      0x0100\n      exp\n      swap1\n      div\n      0xffffffffffffffffffffffffffffffffffffffff\n      and\n        /* \"contracts/NFTAuction.sol\":4760:4803  AuctionEnded(_auctionId, auction.seller, 0) */\n      0xffffffffffffffffffffffffffffffffffffffff\n      and\n        /* \"contracts/NFTAuction.sol\":4773:4783  _auctionId */\n      dup4\n        /* \"contracts/NFTAuction.sol\":4760:4803  AuctionEnded(_auctionId, auction.seller, 0) */\n      0xd2aa34a4fdbbc6dff6a3e56f46e0f3ae2a31d7785ff3487aa5c95c642acea501\n        /* \"contracts/NFTAuction.sol\":4801:4802  0 */\n      0x00\n        /* \"contracts/NFTAuction.sol\":4760:4803  AuctionEnded(_auctionId, auction.seller, 0) */\n      mload(0x40)\n      tag_166\n      swap2\n      swap1\n      tag_167\n      jump\t// in\n    tag_166:\n      mload(0x40)\n      dup1\n      swap2\n      sub\n      swap1\n      log3\n        /* \"contracts/NFTAuction.sol\":4321:4815  if (auction.highestBidder != address(0)) {... */\n    tag_161:\n        /* \"contracts/NFTAuction.sol\":4038:4822  {... */\n      pop\n        /* \"@openzeppelin/contracts/security/ReentrancyGuard.sol\":2292:2293  _ */\n      pop\n        /* \"@openzeppelin/contracts/security/ReentrancyGuard.sol\":2303:2323  _nonReentrantAfter() */\n      tag_168\n        /* \"@openzeppelin/contracts/security/ReentrancyGuard.sol\":2303:2321  _nonReentrantAfter */\n      tag_75\n        /* \"@openzeppelin/contracts/security/ReentrancyGuard.sol\":2303:2323  _nonReentrantAfter() */\n      jump\t// in\n    tag_168:\n        /* \"contracts/NFTAuction.sol\":3950:4822  function endAuction(uint256 _auctionId) external nonReentrant auctionExists(_auctionId) {... */\n      pop\n      jump\t// out\n        /* \"contracts/NFTAuction.sol\":5985:6153  function getBidderBid(uint256 _auctionId, address _bidder) external view auctionExists(_auctionId) returns (uint256) {... */\n    tag_49:\n        /* \"contracts/NFTAuction.sol\":6093:6100  uint256 */\n      0x00\n        /* \"contracts/NFTAuction.sol\":6072:6082  _auctionId */\n      dup3\n        /* \"contracts/NFTAuction.sol\":1406:1420  auctionCounter */\n      sload(0x03)\n        /* \"contracts/NFTAuction.sol\":1393:1403  _auctionId */\n      dup2\n        /* \"contracts/NFTAuction.sol\":1393:1420  _auctionId < auctionCounter */\n      lt\n        /* \"contracts/NFTAuction.sol\":1385:1447  require(_auctionId < auctionCounter, \"Auction does not exist\") */\n      tag_170\n      jumpi\n      mload(0x40)\n      0x08c379a000000000000000000000000000000000000000000000000000000000\n      dup2\n      mstore\n      0x04\n      add\n      tag_171\n      swap1\n      tag_63\n      jump\t// in\n    tag_171:\n      mload(0x40)\n      dup1\n      swap2\n      sub\n      swap1\n      revert\n    tag_170:\n        /* \"contracts/NFTAuction.sol\":6120:6124  bids */\n      0x02\n        /* \"contracts/NFTAuction.sol\":6120:6136  bids[_auctionId] */\n      0x00\n        /* \"contracts/NFTAuction.sol\":6125:6135  _auctionId */\n      dup6\n        /* \"contracts/NFTAuction.sol\":6120:6136  bids[_auctionId] */\n      dup2\n      mstore\n      0x20\n      add\n      swap1\n      dup2\n      mstore\n      0x20\n      add\n      0x00\n      keccak256\n        /* \"contracts/NFTAuction.sol\":6120:6145  bids[_auctionId][_bidder] */\n      0x00\n        /* \"contracts/NFTAuction.sol\":6137:6144  _bidder */\n      dup5\n        /* \"contracts/NFTAuction.sol\":6120:6145  bids[_auctionId][_bidder] */\n      0xffffffffffffffffffffffffffffffffffffffff\n      and\n      0xffffffffffffffffffffffffffffffffffffffff\n      and\n      dup2\n      mstore\n      0x20\n      add\n      swap1\n      dup2\n      mstore\n      0x20\n      add\n      0x00\n      keccak256\n      sload\n        /* \"contracts/NFTAuction.sol\":6113:6145  return bids[_auctionId][_bidder] */\n      swap2\n      pop\n        /* \"contracts/NFTAuction.sol\":5985:6153  function getBidderBid(uint256 _auctionId, address _bidder) external view auctionExists(_auctionId) returns (uint256) {... */\n      pop\n      swap3\n      swap2\n      pop\n      pop\n      jump\t// out\n        /* \"contracts/NFTAuction.sol\":5257:5977  function getAuctionDetails(uint256 _auctionId) external view auctionExists(_auctionId) returns (... */\n    tag_54:\n        /* \"contracts/NFTAuction.sol\":5363:5382  address nftContract */\n      0x00\n        /* \"contracts/NFTAuction.sol\":5393:5408  uint256 tokenId */\n      dup1\n        /* \"contracts/NFTAuction.sol\":5419:5433  address seller */\n      0x00\n        /* \"contracts/NFTAuction.sol\":5444:5458  uint256 minBid */\n      dup1\n        /* \"contracts/NFTAuction.sol\":5469:5487  uint256 highestBid */\n      0x00\n        /* \"contracts/NFTAuction.sol\":5498:5519  address highestBidder */\n      dup1\n        /* \"contracts/NFTAuction.sol\":5530:5547  uint256 startTime */\n      0x00\n        /* \"contracts/NFTAuction.sol\":5558:5573  uint256 endTime */\n      dup1\n        /* \"contracts/NFTAuction.sol\":5584:5594  bool ended */\n      0x00\n        /* \"contracts/NFTAuction.sol\":5332:5342  _auctionId */\n      dup10\n        /* \"contracts/NFTAuction.sol\":1406:1420  auctionCounter */\n      sload(0x03)\n        /* \"contracts/NFTAuction.sol\":1393:1403  _auctionId */\n      dup2\n        /* \"contracts/NFTAuction.sol\":1393:1420  _auctionId < auctionCounter */\n      lt\n        /* \"contracts/NFTAuction.sol\":1385:1447  require(_auctionId < auctionCounter, \"Auction does not exist\") */\n      tag_174\n      jumpi\n      mload(0x40)\n      0x08c379a000000000000000000000000000000000000000000000000000000000\n      dup2\n      mstore\n      0x04\n      add\n      tag_175\n      swap1\n      tag_63\n      jump\t// in\n    tag_175:\n      mload(0x40)\n      dup1\n      swap2\n      sub\n      swap1\n      revert\n    tag_174:\n        /* \"contracts/NFTAuction.sol\":5613:5636  Auction storage auction */\n      0x00\n        /* \"contracts/NFTAuction.sol\":5639:5647  auctions */\n      0x01\n        /* \"contracts/NFTAuction.sol\":5639:5659  auctions[_auctionId] */\n      0x00\n        /* \"contracts/NFTAuction.sol\":5648:5658  _auctionId */\n      dup14\n        /* \"contracts/NFTAuction.sol\":5639:5659  auctions[_auctionId] */\n      dup2\n      mstore\n      0x20\n      add\n      swap1\n      dup2\n      mstore\n      0x20\n      add\n      0x00\n      keccak256\n        /* \"contracts/NFTAuction.sol\":5613:5659  Auction storage auction = auctions[_auctionId] */\n      swap1\n      pop\n        /* \"contracts/NFTAuction.sol\":5692:5699  auction */\n      dup1\n        /* \"contracts/NFTAuction.sol\":5692:5711  auction.nftContract */\n      0x00\n      add\n      0x00\n      swap1\n      sload\n      swap1\n      0x0100\n      exp\n      swap1\n      div\n      0xffffffffffffffffffffffffffffffffffffffff\n      and\n        /* \"contracts/NFTAuction.sol\":5726:5733  auction */\n      dup2\n        /* \"contracts/NFTAuction.sol\":5726:5741  auction.tokenId */\n      0x01\n      add\n      sload\n        /* \"contracts/NFTAuction.sol\":5756:5763  auction */\n      dup3\n        /* \"contracts/NFTAuction.sol\":5756:5770  auction.seller */\n      0x02\n      add\n      0x00\n      swap1\n      sload\n      swap1\n      0x0100\n      exp\n      swap1\n      div\n      0xffffffffffffffffffffffffffffffffffffffff\n      and\n        /* \"contracts/NFTAuction.sol\":5785:5792  auction */\n      dup4\n        /* \"contracts/NFTAuction.sol\":5785:5799  auction.minBid */\n      0x03\n      add\n      sload\n        /* \"contracts/NFTAuction.sol\":5814:5821  auction */\n      dup5\n        /* \"contracts/NFTAuction.sol\":5814:5832  auction.highestBid */\n      0x04\n      add\n      sload\n        /* \"contracts/NFTAuction.sol\":5847:5854  auction */\n      dup6\n        /* \"contracts/NFTAuction.sol\":5847:5868  auction.highestBidder */\n      0x05\n      add\n      0x00\n      swap1\n      sload\n      swap1\n      0x0100\n      exp\n      swap1\n      div\n      0xffffffffffffffffffffffffffffffffffffffff\n      and\n        /* \"contracts/NFTAuction.sol\":5883:5890  auction */\n      dup7\n        /* \"contracts/NFTAuction.sol\":5883:5900  auction.startTime */\n      0x06\n      add\n      sload\n        /* \"contracts/NFTAuction.sol\":5915:5922  auction */\n      dup8\n        /* \"contracts/NFTAuction.sol\":5915:5930  auction.endTime */\n      0x07\n      add\n      sload\n        /* \"contracts/NFTAuction.sol\":5945:5952  auction */\n      dup9\n        /* \"contracts/NFTAuction.sol\":5945:5958  auction.ended */\n      0x08\n      add\n      0x00\n      swap1\n      sload\n      swap1\n      0x0100\n      exp\n      swap1\n      div\n      0xff\n      and\n        /* \"contracts/NFTAuction.sol\":5670:5969  return (... */\n      swap11\n      pop\n      swap11\n      pop\n      swap11\n      pop\n      swap11\n      pop\n      swap11\n      pop\n      swap11\n      pop\n      swap11\n      pop\n      swap11\n      pop\n      swap11\n      pop\n      pop\n        /* \"contracts/NFTAuction.sol\":5257:5977  function getAuctionDetails(uint256 _auctionId) external view auctionExists(_auctionId) returns (... */\n      pop\n      swap2\n      swap4\n      swap6\n      swap8\n      swap10\n      swap1\n      swap3\n      swap5\n      swap7\n      swap9\n      pop\n      jump\t// out\n        /* \"@openzeppelin/contracts/security/ReentrancyGuard.sol\":2336:2623  function _nonReentrantBefore() private {... */\n    tag_59:\n        /* \"@openzeppelin/contracts/security/ReentrancyGuard.sol\":1759:1760  2 */\n      0x02\n        /* \"@openzeppelin/contracts/security/ReentrancyGuard.sol\":2468:2475  _status */\n      sload(0x00)\n        /* \"@openzeppelin/contracts/security/ReentrancyGuard.sol\":2468:2487  _status != _ENTERED */\n      sub\n        /* \"@openzeppelin/contracts/security/ReentrancyGuard.sol\":2460:2523  require(_status != _ENTERED, \"ReentrancyGuard: reentrant call\") */\n      tag_178\n      jumpi\n      mload(0x40)\n      0x08c379a000000000000000000000000000000000000000000000000000000000\n      dup2\n      mstore\n      0x04\n      add\n      tag_179\n      swap1\n      tag_180\n      jump\t// in\n    tag_179:\n      mload(0x40)\n      dup1\n      swap2\n      sub\n      swap1\n      revert\n    tag_178:\n        /* \"@openzeppelin/contracts/security/ReentrancyGuard.sol\":1759:1760  2 */\n      0x02\n        /* \"@openzeppelin/contracts/security/ReentrancyGuard.sol\":2598:2605  _status */\n      0x00\n        /* \"@openzeppelin/contracts/security/ReentrancyGuard.sol\":2598:2616  _status = _ENTERED */\n      dup2\n      swap1\n      sstore\n      pop\n        /* \"@openzeppelin/contracts/security/ReentrancyGuard.sol\":2336:2623  function _nonReentrantBefore() private {... */\n      jump\t// out\n        /* \"@openzeppelin/contracts/security/ReentrancyGuard.sol\":2629:2838  function _nonReentrantAfter() private {... */\n    tag_75:\n        /* \"@openzeppelin/contracts/security/ReentrancyGuard.sol\":1716:1717  1 */\n      0x01\n        /* \"@openzeppelin/contracts/security/ReentrancyGuard.sol\":2809:2816  _status */\n      0x00\n        /* \"@openzeppelin/contracts/security/ReentrancyGuard.sol\":2809:2831  _status = _NOT_ENTERED */\n      dup2\n      swap1\n      sstore\n      pop\n        /* \"@openzeppelin/contracts/security/ReentrancyGuard.sol\":2629:2838  function _nonReentrantAfter() private {... */\n      jump\t// out\n        /* \"#utility.yul\":88:205   */\n    tag_183:\n        /* \"#utility.yul\":197:198   */\n      0x00\n        /* \"#utility.yul\":194:195   */\n      dup1\n        /* \"#utility.yul\":187:199   */\n      revert\n        /* \"#utility.yul\":334:411   */\n    tag_185:\n        /* \"#utility.yul\":371:378   */\n      0x00\n        /* \"#utility.yul\":400:405   */\n      dup2\n        /* \"#utility.yul\":389:405   */\n      swap1\n      pop\n        /* \"#utility.yul\":334:411   */\n      swap2\n      swap1\n      pop\n      jump\t// out\n        /* \"#utility.yul\":417:539   */\n    tag_186:\n        /* \"#utility.yul\":490:514   */\n      tag_249\n        /* \"#utility.yul\":508:513   */\n      dup2\n        /* \"#utility.yul\":490:514   */\n      tag_185\n      jump\t// in\n    tag_249:\n        /* \"#utility.yul\":483:488   */\n      dup2\n        /* \"#utility.yul\":480:515   */\n      eq\n        /* \"#utility.yul\":470:533   */\n      tag_250\n      jumpi\n        /* \"#utility.yul\":529:530   */\n      0x00\n        /* \"#utility.yul\":526:527   */\n      dup1\n        /* \"#utility.yul\":519:531   */\n      revert\n        /* \"#utility.yul\":470:533   */\n    tag_250:\n        /* \"#utility.yul\":417:539   */\n      pop\n      jump\t// out\n        /* \"#utility.yul\":545:684   */\n    tag_187:\n        /* \"#utility.yul\":591:596   */\n      0x00\n        /* \"#utility.yul\":629:635   */\n      dup2\n        /* \"#utility.yul\":616:636   */\n      calldataload\n        /* \"#utility.yul\":607:636   */\n      swap1\n      pop\n        /* \"#utility.yul\":645:678   */\n      tag_252\n        /* \"#utility.yul\":672:677   */\n      dup2\n        /* \"#utility.yul\":645:678   */\n      tag_186\n      jump\t// in\n    tag_252:\n        /* \"#utility.yul\":545:684   */\n      swap3\n      swap2\n      pop\n      pop\n      jump\t// out\n        /* \"#utility.yul\":690:1019   */\n    tag_15:\n        /* \"#utility.yul\":749:755   */\n      0x00\n        /* \"#utility.yul\":798:800   */\n      0x20\n        /* \"#utility.yul\":786:795   */\n      dup3\n        /* \"#utility.yul\":777:784   */\n      dup5\n        /* \"#utility.yul\":773:796   */\n      sub\n        /* \"#utility.yul\":769:801   */\n      slt\n        /* \"#utility.yul\":766:885   */\n      iszero\n      tag_254\n      jumpi\n        /* \"#utility.yul\":804:883   */\n      tag_255\n      tag_183\n      jump\t// in\n    tag_255:\n        /* \"#utility.yul\":766:885   */\n    tag_254:\n        /* \"#utility.yul\":924:925   */\n      0x00\n        /* \"#utility.yul\":949:1002   */\n      tag_256\n        /* \"#utility.yul\":994:1001   */\n      dup5\n        /* \"#utility.yul\":985:991   */\n      dup3\n        /* \"#utility.yul\":974:983   */\n      dup6\n        /* \"#utility.yul\":970:992   */\n      add\n        /* \"#utility.yul\":949:1002   */\n      tag_187\n      jump\t// in\n    tag_256:\n        /* \"#utility.yul\":939:1002   */\n      swap2\n      pop\n        /* \"#utility.yul\":895:1012   */\n      pop\n        /* \"#utility.yul\":690:1019   */\n      swap3\n      swap2\n      pop\n      pop\n      jump\t// out\n        /* \"#utility.yul\":1025:1151   */\n    tag_188:\n        /* \"#utility.yul\":1062:1069   */\n      0x00\n        /* \"#utility.yul\":1102:1144   */\n      0xffffffffffffffffffffffffffffffffffffffff\n        /* \"#utility.yul\":1095:1100   */\n      dup3\n        /* \"#utility.yul\":1091:1145   */\n      and\n        /* \"#utility.yul\":1080:1145   */\n      swap1\n      pop\n        /* \"#utility.yul\":1025:1151   */\n      swap2\n      swap1\n      pop\n      jump\t// out\n        /* \"#utility.yul\":1157:1253   */\n    tag_189:\n        /* \"#utility.yul\":1194:1201   */\n      0x00\n        /* \"#utility.yul\":1223:1247   */\n      tag_259\n        /* \"#utility.yul\":1241:1246   */\n      dup3\n        /* \"#utility.yul\":1223:1247   */\n      tag_188\n      jump\t// in\n    tag_259:\n        /* \"#utility.yul\":1212:1247   */\n      swap1\n      pop\n        /* \"#utility.yul\":1157:1253   */\n      swap2\n      swap1\n      pop\n      jump\t// out\n        /* \"#utility.yul\":1259:1381   */\n    tag_190:\n        /* \"#utility.yul\":1332:1356   */\n      tag_261\n        /* \"#utility.yul\":1350:1355   */\n      dup2\n        /* \"#utility.yul\":1332:1356   */\n      tag_189\n      jump\t// in\n    tag_261:\n        /* \"#utility.yul\":1325:1330   */\n      dup2\n        /* \"#utility.yul\":1322:1357   */\n      eq\n        /* \"#utility.yul\":1312:1375   */\n      tag_262\n      jumpi\n        /* \"#utility.yul\":1371:1372   */\n      0x00\n        /* \"#utility.yul\":1368:1369   */\n      dup1\n        /* \"#utility.yul\":1361:1373   */\n      revert\n        /* \"#utility.yul\":1312:1375   */\n    tag_262:\n        /* \"#utility.yul\":1259:1381   */\n      pop\n      jump\t// out\n        /* \"#utility.yul\":1387:1526   */\n    tag_191:\n        /* \"#utility.yul\":1433:1438   */\n      0x00\n        /* \"#utility.yul\":1471:1477   */\n      dup2\n        /* \"#utility.yul\":1458:1478   */\n      calldataload\n        /* \"#utility.yul\":1449:1478   */\n      swap1\n      pop\n        /* \"#utility.yul\":1487:1520   */\n      tag_264\n        /* \"#utility.yul\":1514:1519   */\n      dup2\n        /* \"#utility.yul\":1487:1520   */\n      tag_190\n      jump\t// in\n    tag_264:\n        /* \"#utility.yul\":1387:1526   */\n      swap3\n      swap2\n      pop\n      pop\n      jump\t// out\n        /* \"#utility.yul\":1532:2443   */\n    tag_20:\n        /* \"#utility.yul\":1627:1633   */\n      0x00\n        /* \"#utility.yul\":1635:1641   */\n      dup1\n        /* \"#utility.yul\":1643:1649   */\n      0x00\n        /* \"#utility.yul\":1651:1657   */\n      dup1\n        /* \"#utility.yul\":1659:1665   */\n      0x00\n        /* \"#utility.yul\":1708:1711   */\n      0xa0\n        /* \"#utility.yul\":1696:1705   */\n      dup7\n        /* \"#utility.yul\":1687:1694   */\n      dup9\n        /* \"#utility.yul\":1683:1706   */\n      sub\n        /* \"#utility.yul\":1679:1712   */\n      slt\n        /* \"#utility.yul\":1676:1796   */\n      iszero\n      tag_266\n      jumpi\n        /* \"#utility.yul\":1715:1794   */\n      tag_267\n      tag_183\n      jump\t// in\n    tag_267:\n        /* \"#utility.yul\":1676:1796   */\n    tag_266:\n        /* \"#utility.yul\":1835:1836   */\n      0x00\n        /* \"#utility.yul\":1860:1913   */\n      tag_268\n        /* \"#utility.yul\":1905:1912   */\n      dup9\n        /* \"#utility.yul\":1896:1902   */\n      dup3\n        /* \"#utility.yul\":1885:1894   */\n      dup10\n        /* \"#utility.yul\":1881:1903   */\n      add\n        /* \"#utility.yul\":1860:1913   */\n      tag_191\n      jump\t// in\n    tag_268:\n        /* \"#utility.yul\":1850:1913   */\n      swap6\n      pop\n        /* \"#utility.yul\":1806:1923   */\n      pop\n        /* \"#utility.yul\":1962:1964   */\n      0x20\n        /* \"#utility.yul\":1988:2041   */\n      tag_269\n        /* \"#utility.yul\":2033:2040   */\n      dup9\n        /* \"#utility.yul\":2024:2030   */\n      dup3\n        /* \"#utility.yul\":2013:2022   */\n      dup10\n        /* \"#utility.yul\":2009:2031   */\n      add\n        /* \"#utility.yul\":1988:2041   */\n      tag_187\n      jump\t// in\n    tag_269:\n        /* \"#utility.yul\":1978:2041   */\n      swap5\n      pop\n        /* \"#utility.yul\":1933:2051   */\n      pop\n        /* \"#utility.yul\":2090:2092   */\n      0x40\n        /* \"#utility.yul\":2116:2169   */\n      tag_270\n        /* \"#utility.yul\":2161:2168   */\n      dup9\n        /* \"#utility.yul\":2152:2158   */\n      dup3\n        /* \"#utility.yul\":2141:2150   */\n      dup10\n        /* \"#utility.yul\":2137:2159   */\n      add\n        /* \"#utility.yul\":2116:2169   */\n      tag_187\n      jump\t// in\n    tag_270:\n        /* \"#utility.yul\":2106:2169   */\n      swap4\n      pop\n        /* \"#utility.yul\":2061:2179   */\n      pop\n        /* \"#utility.yul\":2218:2220   */\n      0x60\n        /* \"#utility.yul\":2244:2297   */\n      tag_271\n        /* \"#utility.yul\":2289:2296   */\n      dup9\n        /* \"#utility.yul\":2280:2286   */\n      dup3\n        /* \"#utility.yul\":2269:2278   */\n      dup10\n        /* \"#utility.yul\":2265:2287   */\n      add\n        /* \"#utility.yul\":2244:2297   */\n      tag_187\n      jump\t// in\n    tag_271:\n        /* \"#utility.yul\":2234:2297   */\n      swap3\n      pop\n        /* \"#utility.yul\":2189:2307   */\n      pop\n        /* \"#utility.yul\":2346:2349   */\n      0x80\n        /* \"#utility.yul\":2373:2426   */\n      tag_272\n        /* \"#utility.yul\":2418:2425   */\n      dup9\n        /* \"#utility.yul\":2409:2415   */\n      dup3\n        /* \"#utility.yul\":2398:2407   */\n      dup10\n        /* \"#utility.yul\":2394:2416   */\n      add\n        /* \"#utility.yul\":2373:2426   */\n      tag_187\n      jump\t// in\n    tag_272:\n        /* \"#utility.yul\":2363:2426   */\n      swap2\n      pop\n        /* \"#utility.yul\":2317:2436   */\n      pop\n        /* \"#utility.yul\":1532:2443   */\n      swap3\n      swap6\n      pop\n      swap3\n      swap6\n      swap1\n      swap4\n      pop\n      jump\t// out\n        /* \"#utility.yul\":2449:2923   */\n    tag_25:\n        /* \"#utility.yul\":2517:2523   */\n      0x00\n        /* \"#utility.yul\":2525:2531   */\n      dup1\n        /* \"#utility.yul\":2574:2576   */\n      0x40\n        /* \"#utility.yul\":2562:2571   */\n      dup4\n        /* \"#utility.yul\":2553:2560   */\n      dup6\n        /* \"#utility.yul\":2549:2572   */\n      sub\n        /* \"#utility.yul\":2545:2577   */\n      slt\n        /* \"#utility.yul\":2542:2661   */\n      iszero\n      tag_274\n      jumpi\n        /* \"#utility.yul\":2580:2659   */\n      tag_275\n      tag_183\n      jump\t// in\n    tag_275:\n        /* \"#utility.yul\":2542:2661   */\n    tag_274:\n        /* \"#utility.yul\":2700:2701   */\n      0x00\n        /* \"#utility.yul\":2725:2778   */\n      tag_276\n        /* \"#utility.yul\":2770:2777   */\n      dup6\n        /* \"#utility.yul\":2761:2767   */\n      dup3\n        /* \"#utility.yul\":2750:2759   */\n      dup7\n        /* \"#utility.yul\":2746:2768   */\n      add\n        /* \"#utility.yul\":2725:2778   */\n      tag_187\n      jump\t// in\n    tag_276:\n        /* \"#utility.yul\":2715:2778   */\n      swap3\n      pop\n        /* \"#utility.yul\":2671:2788   */\n      pop\n        /* \"#utility.yul\":2827:2829   */\n      0x20\n        /* \"#utility.yul\":2853:2906   */\n      tag_277\n        /* \"#utility.yul\":2898:2905   */\n      dup6\n        /* \"#utility.yul\":2889:2895   */\n      dup3\n        /* \"#utility.yul\":2878:2887   */\n      dup7\n        /* \"#utility.yul\":2874:2896   */\n      add\n        /* \"#utility.yul\":2853:2906   */\n      tag_191\n      jump\t// in\n    tag_277:\n        /* \"#utility.yul\":2843:2906   */\n      swap2\n      pop\n        /* \"#utility.yul\":2798:2916   */\n      pop\n        /* \"#utility.yul\":2449:2923   */\n      swap3\n      pop\n      swap3\n      swap1\n      pop\n      jump\t// out\n        /* \"#utility.yul\":2929:3047   */\n    tag_192:\n        /* \"#utility.yul\":3016:3040   */\n      tag_279\n        /* \"#utility.yul\":3034:3039   */\n      dup2\n        /* \"#utility.yul\":3016:3040   */\n      tag_185\n      jump\t// in\n    tag_279:\n        /* \"#utility.yul\":3011:3014   */\n      dup3\n        /* \"#utility.yul\":3004:3041   */\n      mstore\n        /* \"#utility.yul\":2929:3047   */\n      pop\n      pop\n      jump\t// out\n        /* \"#utility.yul\":3053:3275   */\n    tag_28:\n        /* \"#utility.yul\":3146:3150   */\n      0x00\n        /* \"#utility.yul\":3184:3186   */\n      0x20\n        /* \"#utility.yul\":3173:3182   */\n      dup3\n        /* \"#utility.yul\":3169:3187   */\n      add\n        /* \"#utility.yul\":3161:3187   */\n      swap1\n      pop\n        /* \"#utility.yul\":3197:3268   */\n      tag_281\n        /* \"#utility.yul\":3265:3266   */\n      0x00\n        /* \"#utility.yul\":3254:3263   */\n      dup4\n        /* \"#utility.yul\":3250:3267   */\n      add\n        /* \"#utility.yul\":3241:3247   */\n      dup5\n        /* \"#utility.yul\":3197:3268   */\n      tag_192\n      jump\t// in\n    tag_281:\n        /* \"#utility.yul\":3053:3275   */\n      swap3\n      swap2\n      pop\n      pop\n      jump\t// out\n        /* \"#utility.yul\":3281:3399   */\n    tag_193:\n        /* \"#utility.yul\":3368:3392   */\n      tag_283\n        /* \"#utility.yul\":3386:3391   */\n      dup2\n        /* \"#utility.yul\":3368:3392   */\n      tag_189\n      jump\t// in\n    tag_283:\n        /* \"#utility.yul\":3363:3366   */\n      dup3\n        /* \"#utility.yul\":3356:3393   */\n      mstore\n        /* \"#utility.yul\":3281:3399   */\n      pop\n      pop\n      jump\t// out\n        /* \"#utility.yul\":3405:3509   */\n    tag_194:\n        /* \"#utility.yul\":3450:3457   */\n      0x00\n        /* \"#utility.yul\":3479:3503   */\n      tag_285\n        /* \"#utility.yul\":3497:3502   */\n      dup3\n        /* \"#utility.yul\":3479:3503   */\n      tag_188\n      jump\t// in\n    tag_285:\n        /* \"#utility.yul\":3468:3503   */\n      swap1\n      pop\n        /* \"#utility.yul\":3405:3509   */\n      swap2\n      swap1\n      pop\n      jump\t// out\n        /* \"#utility.yul\":3515:3657   */\n    tag_195:\n        /* \"#utility.yul\":3618:3650   */\n      tag_287\n        /* \"#utility.yul\":3644:3649   */\n      dup2\n        /* \"#utility.yul\":3618:3650   */\n      tag_194\n      jump\t// in\n    tag_287:\n        /* \"#utility.yul\":3613:3616   */\n      dup3\n        /* \"#utility.yul\":3606:3651   */\n      mstore\n        /* \"#utility.yul\":3515:3657   */\n      pop\n      pop\n      jump\t// out\n        /* \"#utility.yul\":3663:3753   */\n    tag_196:\n        /* \"#utility.yul\":3697:3704   */\n      0x00\n        /* \"#utility.yul\":3740:3745   */\n      dup2\n        /* \"#utility.yul\":3733:3746   */\n      iszero\n        /* \"#utility.yul\":3726:3747   */\n      iszero\n        /* \"#utility.yul\":3715:3747   */\n      swap1\n      pop\n        /* \"#utility.yul\":3663:3753   */\n      swap2\n      swap1\n      pop\n      jump\t// out\n        /* \"#utility.yul\":3759:3868   */\n    tag_197:\n        /* \"#utility.yul\":3840:3861   */\n      tag_290\n        /* \"#utility.yul\":3855:3860   */\n      dup2\n        /* \"#utility.yul\":3840:3861   */\n      tag_196\n      jump\t// in\n    tag_290:\n        /* \"#utility.yul\":3835:3838   */\n      dup3\n        /* \"#utility.yul\":3828:3862   */\n      mstore\n        /* \"#utility.yul\":3759:3868   */\n      pop\n      pop\n      jump\t// out\n        /* \"#utility.yul\":3874:5034   */\n    tag_34:\n        /* \"#utility.yul\":4217:4221   */\n      0x00\n        /* \"#utility.yul\":4255:4258   */\n      0x0120\n        /* \"#utility.yul\":4244:4253   */\n      dup3\n        /* \"#utility.yul\":4240:4259   */\n      add\n        /* \"#utility.yul\":4232:4259   */\n      swap1\n      pop\n        /* \"#utility.yul\":4269:4340   */\n      tag_292\n        /* \"#utility.yul\":4337:4338   */\n      0x00\n        /* \"#utility.yul\":4326:4335   */\n      dup4\n        /* \"#utility.yul\":4322:4339   */\n      add\n        /* \"#utility.yul\":4313:4319   */\n      dup13\n        /* \"#utility.yul\":4269:4340   */\n      tag_193\n      jump\t// in\n    tag_292:\n        /* \"#utility.yul\":4350:4422   */\n      tag_293\n        /* \"#utility.yul\":4418:4420   */\n      0x20\n        /* \"#utility.yul\":4407:4416   */\n      dup4\n        /* \"#utility.yul\":4403:4421   */\n      add\n        /* \"#utility.yul\":4394:4400   */\n      dup12\n        /* \"#utility.yul\":4350:4422   */\n      tag_192\n      jump\t// in\n    tag_293:\n        /* \"#utility.yul\":4432:4520   */\n      tag_294\n        /* \"#utility.yul\":4516:4518   */\n      0x40\n        /* \"#utility.yul\":4505:4514   */\n      dup4\n        /* \"#utility.yul\":4501:4519   */\n      add\n        /* \"#utility.yul\":4492:4498   */\n      dup11\n        /* \"#utility.yul\":4432:4520   */\n      tag_195\n      jump\t// in\n    tag_294:\n        /* \"#utility.yul\":4530:4602   */\n      tag_295\n        /* \"#utility.yul\":4598:4600   */\n      0x60\n        /* \"#utility.yul\":4587:4596   */\n      dup4\n        /* \"#utility.yul\":4583:4601   */\n      add\n        /* \"#utility.yul\":4574:4580   */\n      dup10\n        /* \"#utility.yul\":4530:4602   */\n      tag_192\n      jump\t// in\n    tag_295:\n        /* \"#utility.yul\":4612:4685   */\n      tag_296\n        /* \"#utility.yul\":4680:4683   */\n      0x80\n        /* \"#utility.yul\":4669:4678   */\n      dup4\n        /* \"#utility.yul\":4665:4684   */\n      add\n        /* \"#utility.yul\":4656:4662   */\n      dup9\n        /* \"#utility.yul\":4612:4685   */\n      tag_192\n      jump\t// in\n    tag_296:\n        /* \"#utility.yul\":4695:4784   */\n      tag_297\n        /* \"#utility.yul\":4779:4782   */\n      0xa0\n        /* \"#utility.yul\":4768:4777   */\n      dup4\n        /* \"#utility.yul\":4764:4783   */\n      add\n        /* \"#utility.yul\":4755:4761   */\n      dup8\n        /* \"#utility.yul\":4695:4784   */\n      tag_195\n      jump\t// in\n    tag_297:\n        /* \"#utility.yul\":4794:4867   */\n      tag_298\n        /* \"#utility.yul\":4862:4865   */\n      0xc0\n        /* \"#utility.yul\":4851:4860   */\n      dup4\n        /* \"#utility.yul\":4847:4866   */\n      add\n        /* \"#utility.yul\":4838:4844   */\n      dup7\n        /* \"#utility.yul\":4794:4867   */\n      tag_192\n      jump\t// in\n    tag_298:\n        /* \"#utility.yul\":4877:4950   */\n      tag_299\n        /* \"#utility.yul\":4945:4948   */\n      0xe0\n        /* \"#utility.yul\":4934:4943   */\n      dup4\n        /* \"#utility.yul\":4930:4949   */\n      add\n        /* \"#utility.yul\":4921:4927   */\n      dup6\n        /* \"#utility.yul\":4877:4950   */\n      tag_192\n      jump\t// in\n    tag_299:\n        /* \"#utility.yul\":4960:5027   */\n      tag_300\n        /* \"#utility.yul\":5022:5025   */\n      0x0100\n        /* \"#utility.yul\":5011:5020   */\n      dup4\n        /* \"#utility.yul\":5007:5026   */\n      add\n        /* \"#utility.yul\":4998:5004   */\n      dup5\n        /* \"#utility.yul\":4960:5027   */\n      tag_197\n      jump\t// in\n    tag_300:\n        /* \"#utility.yul\":3874:5034   */\n      swap11\n      swap10\n      pop\n      pop\n      pop\n      pop\n      pop\n      pop\n      pop\n      pop\n      pop\n      pop\n      jump\t// out\n        /* \"#utility.yul\":5040:6136   */\n    tag_56:\n        /* \"#utility.yul\":5351:5355   */\n      0x00\n        /* \"#utility.yul\":5389:5392   */\n      0x0120\n        /* \"#utility.yul\":5378:5387   */\n      dup3\n        /* \"#utility.yul\":5374:5393   */\n      add\n        /* \"#utility.yul\":5366:5393   */\n      swap1\n      pop\n        /* \"#utility.yul\":5403:5474   */\n      tag_302\n        /* \"#utility.yul\":5471:5472   */\n      0x00\n        /* \"#utility.yul\":5460:5469   */\n      dup4\n        /* \"#utility.yul\":5456:5473   */\n      add\n        /* \"#utility.yul\":5447:5453   */\n      dup13\n        /* \"#utility.yul\":5403:5474   */\n      tag_193\n      jump\t// in\n    tag_302:\n        /* \"#utility.yul\":5484:5556   */\n      tag_303\n        /* \"#utility.yul\":5552:5554   */\n      0x20\n        /* \"#utility.yul\":5541:5550   */\n      dup4\n        /* \"#utility.yul\":5537:5555   */\n      add\n        /* \"#utility.yul\":5528:5534   */\n      dup12\n        /* \"#utility.yul\":5484:5556   */\n      tag_192\n      jump\t// in\n    tag_303:\n        /* \"#utility.yul\":5566:5638   */\n      tag_304\n        /* \"#utility.yul\":5634:5636   */\n      0x40\n        /* \"#utility.yul\":5623:5632   */\n      dup4\n        /* \"#utility.yul\":5619:5637   */\n      add\n        /* \"#utility.yul\":5610:5616   */\n      dup11\n        /* \"#utility.yul\":5566:5638   */\n      tag_193\n      jump\t// in\n    tag_304:\n        /* \"#utility.yul\":5648:5720   */\n      tag_305\n        /* \"#utility.yul\":5716:5718   */\n      0x60\n        /* \"#utility.yul\":5705:5714   */\n      dup4\n        /* \"#utility.yul\":5701:5719   */\n      add\n        /* \"#utility.yul\":5692:5698   */\n      dup10\n        /* \"#utility.yul\":5648:5720   */\n      tag_192\n      jump\t// in\n    tag_305:\n        /* \"#utility.yul\":5730:5803   */\n      tag_306\n        /* \"#utility.yul\":5798:5801   */\n      0x80\n        /* \"#utility.yul\":5787:5796   */\n      dup4\n        /* \"#utility.yul\":5783:5802   */\n      add\n        /* \"#utility.yul\":5774:5780   */\n      dup9\n        /* \"#utility.yul\":5730:5803   */\n      tag_192\n      jump\t// in\n    tag_306:\n        /* \"#utility.yul\":5813:5886   */\n      tag_307\n        /* \"#utility.yul\":5881:5884   */\n      0xa0\n        /* \"#utility.yul\":5870:5879   */\n      dup4\n        /* \"#utility.yul\":5866:5885   */\n      add\n        /* \"#utility.yul\":5857:5863   */\n      dup8\n        /* \"#utility.yul\":5813:5886   */\n      tag_193\n      jump\t// in\n    tag_307:\n        /* \"#utility.yul\":5896:5969   */\n      tag_308\n        /* \"#utility.yul\":5964:5967   */\n      0xc0\n        /* \"#utility.yul\":5953:5962   */\n      dup4\n        /* \"#utility.yul\":5949:5968   */\n      add\n        /* \"#utility.yul\":5940:5946   */\n      dup7\n        /* \"#utility.yul\":5896:5969   */\n      tag_192\n      jump\t// in\n    tag_308:\n        /* \"#utility.yul\":5979:6052   */\n      tag_309\n        /* \"#utility.yul\":6047:6050   */\n      0xe0\n        /* \"#utility.yul\":6036:6045   */\n      dup4\n        /* \"#utility.yul\":6032:6051   */\n      add\n        /* \"#utility.yul\":6023:6029   */\n      dup6\n        /* \"#utility.yul\":5979:6052   */\n      tag_192\n      jump\t// in\n    tag_309:\n        /* \"#utility.yul\":6062:6129   */\n      tag_310\n        /* \"#utility.yul\":6124:6127   */\n      0x0100\n        /* \"#utility.yul\":6113:6122   */\n      dup4\n        /* \"#utility.yul\":6109:6128   */\n      add\n        /* \"#utility.yul\":6100:6106   */\n      dup5\n        /* \"#utility.yul\":6062:6129   */\n      tag_197\n      jump\t// in\n    tag_310:\n        /* \"#utility.yul\":5040:6136   */\n      swap11\n      swap10\n      pop\n      pop\n      pop\n      pop\n      pop\n      pop\n      pop\n      pop\n      pop\n      pop\n      jump\t// out\n        /* \"#utility.yul\":6142:6311   */\n    tag_198:\n        /* \"#utility.yul\":6226:6237   */\n      0x00\n        /* \"#utility.yul\":6260:6266   */\n      dup3\n        /* \"#utility.yul\":6255:6258   */\n      dup3\n        /* \"#utility.yul\":6248:6267   */\n      mstore\n        /* \"#utility.yul\":6300:6304   */\n      0x20\n        /* \"#utility.yul\":6295:6298   */\n      dup3\n        /* \"#utility.yul\":6291:6305   */\n      add\n        /* \"#utility.yul\":6276:6305   */\n      swap1\n      pop\n        /* \"#utility.yul\":6142:6311   */\n      swap3\n      swap2\n      pop\n      pop\n      jump\t// out\n        /* \"#utility.yul\":6317:6489   */\n    tag_199:\n        /* \"#utility.yul\":6457:6481   */\n      0x41756374696f6e20646f6573206e6f7420657869737400000000000000000000\n        /* \"#utility.yul\":6453:6454   */\n      0x00\n        /* \"#utility.yul\":6445:6451   */\n      dup3\n        /* \"#utility.yul\":6441:6455   */\n      add\n        /* \"#utility.yul\":6434:6482   */\n      mstore\n        /* \"#utility.yul\":6317:6489   */\n      pop\n      jump\t// out\n        /* \"#utility.yul\":6495:6861   */\n    tag_200:\n        /* \"#utility.yul\":6637:6640   */\n      0x00\n        /* \"#utility.yul\":6658:6725   */\n      tag_314\n        /* \"#utility.yul\":6722:6724   */\n      0x16\n        /* \"#utility.yul\":6717:6720   */\n      dup4\n        /* \"#utility.yul\":6658:6725   */\n      tag_198\n      jump\t// in\n    tag_314:\n        /* \"#utility.yul\":6651:6725   */\n      swap2\n      pop\n        /* \"#utility.yul\":6734:6827   */\n      tag_315\n        /* \"#utility.yul\":6823:6826   */\n      dup3\n        /* \"#utility.yul\":6734:6827   */\n      tag_199\n      jump\t// in\n    tag_315:\n        /* \"#utility.yul\":6852:6854   */\n      0x20\n        /* \"#utility.yul\":6847:6850   */\n      dup3\n        /* \"#utility.yul\":6843:6855   */\n      add\n        /* \"#utility.yul\":6836:6855   */\n      swap1\n      pop\n        /* \"#utility.yul\":6495:6861   */\n      swap2\n      swap1\n      pop\n      jump\t// out\n        /* \"#utility.yul\":6867:7286   */\n    tag_63:\n        /* \"#utility.yul\":7033:7037   */\n      0x00\n        /* \"#utility.yul\":7071:7073   */\n      0x20\n        /* \"#utility.yul\":7060:7069   */\n      dup3\n        /* \"#utility.yul\":7056:7074   */\n      add\n        /* \"#utility.yul\":7048:7074   */\n      swap1\n      pop\n        /* \"#utility.yul\":7120:7129   */\n      dup2\n        /* \"#utility.yul\":7114:7118   */\n      dup2\n        /* \"#utility.yul\":7110:7130   */\n      sub\n        /* \"#utility.yul\":7106:7107   */\n      0x00\n        /* \"#utility.yul\":7095:7104   */\n      dup4\n        /* \"#utility.yul\":7091:7108   */\n      add\n        /* \"#utility.yul\":7084:7131   */\n      mstore\n        /* \"#utility.yul\":7148:7279   */\n      tag_317\n        /* \"#utility.yul\":7274:7278   */\n      dup2\n        /* \"#utility.yul\":7148:7279   */\n      tag_200\n      jump\t// in\n    tag_317:\n        /* \"#utility.yul\":7140:7279   */\n      swap1\n      pop\n        /* \"#utility.yul\":6867:7286   */\n      swap2\n      swap1\n      pop\n      jump\t// out\n        /* \"#utility.yul\":7292:7467   */\n    tag_201:\n        /* \"#utility.yul\":7432:7459   */\n      0x41756374696f6e20686173206e6f7420656e6465642079657400000000000000\n        /* \"#utility.yul\":7428:7429   */\n      0x00\n        /* \"#utility.yul\":7420:7426   */\n      dup3\n        /* \"#utility.yul\":7416:7430   */\n      add\n        /* \"#utility.yul\":7409:7460   */\n      mstore\n        /* \"#utility.yul\":7292:7467   */\n      pop\n      jump\t// out\n        /* \"#utility.yul\":7473:7839   */\n    tag_202:\n        /* \"#utility.yul\":7615:7618   */\n      0x00\n        /* \"#utility.yul\":7636:7703   */\n      tag_320\n        /* \"#utility.yul\":7700:7702   */\n      0x19\n        /* \"#utility.yul\":7695:7698   */\n      dup4\n        /* \"#utility.yul\":7636:7703   */\n      tag_198\n      jump\t// in\n    tag_320:\n        /* \"#utility.yul\":7629:7703   */\n      swap2\n      pop\n        /* \"#utility.yul\":7712:7805   */\n      tag_321\n        /* \"#utility.yul\":7801:7804   */\n      dup3\n        /* \"#utility.yul\":7712:7805   */\n      tag_201\n      jump\t// in\n    tag_321:\n        /* \"#utility.yul\":7830:7832   */\n      0x20\n        /* \"#utility.yul\":7825:7828   */\n      dup3\n        /* \"#utility.yul\":7821:7833   */\n      add\n        /* \"#utility.yul\":7814:7833   */\n      swap1\n      pop\n        /* \"#utility.yul\":7473:7839   */\n      swap2\n      swap1\n      pop\n      jump\t// out\n        /* \"#utility.yul\":7845:8264   */\n    tag_67:\n        /* \"#utility.yul\":8011:8015   */\n      0x00\n        /* \"#utility.yul\":8049:8051   */\n      0x20\n        /* \"#utility.yul\":8038:8047   */\n      dup3\n        /* \"#utility.yul\":8034:8052   */\n      add\n        /* \"#utility.yul\":8026:8052   */\n      swap1\n      pop\n        /* \"#utility.yul\":8098:8107   */\n      dup2\n        /* \"#utility.yul\":8092:8096   */\n      dup2\n        /* \"#utility.yul\":8088:8108   */\n      sub\n        /* \"#utility.yul\":8084:8085   */\n      0x00\n        /* \"#utility.yul\":8073:8082   */\n      dup4\n        /* \"#utility.yul\":8069:8086   */\n      add\n        /* \"#utility.yul\":8062:8109   */\n      mstore\n        /* \"#utility.yul\":8126:8257   */\n      tag_323\n        /* \"#utility.yul\":8252:8256   */\n      dup2\n        /* \"#utility.yul\":8126:8257   */\n      tag_202\n      jump\t// in\n    tag_323:\n        /* \"#utility.yul\":8118:8257   */\n      swap1\n      pop\n        /* \"#utility.yul\":7845:8264   */\n      swap2\n      swap1\n      pop\n      jump\t// out\n        /* \"#utility.yul\":8270:8440   */\n    tag_203:\n        /* \"#utility.yul\":8410:8432   */\n      0x4e6f2066756e647320746f207769746864726177000000000000000000000000\n        /* \"#utility.yul\":8406:8407   */\n      0x00\n        /* \"#utility.yul\":8398:8404   */\n      dup3\n        /* \"#utility.yul\":8394:8408   */\n      add\n        /* \"#utility.yul\":8387:8433   */\n      mstore\n        /* \"#utility.yul\":8270:8440   */\n      pop\n      jump\t// out\n        /* \"#utility.yul\":8446:8812   */\n    tag_204:\n        /* \"#utility.yul\":8588:8591   */\n      0x00\n        /* \"#utility.yul\":8609:8676   */\n      tag_326\n        /* \"#utility.yul\":8673:8675   */\n      0x14\n        /* \"#utility.yul\":8668:8671   */\n      dup4\n        /* \"#utility.yul\":8609:8676   */\n      tag_198\n      jump\t// in\n    tag_326:\n        /* \"#utility.yul\":8602:8676   */\n      swap2\n      pop\n        /* \"#utility.yul\":8685:8778   */\n      tag_327\n        /* \"#utility.yul\":8774:8777   */\n      dup3\n        /* \"#utility.yul\":8685:8778   */\n      tag_203\n      jump\t// in\n    tag_327:\n        /* \"#utility.yul\":8803:8805   */\n      0x20\n        /* \"#utility.yul\":8798:8801   */\n      dup3\n        /* \"#utility.yul\":8794:8806   */\n      add\n        /* \"#utility.yul\":8787:8806   */\n      swap1\n      pop\n        /* \"#utility.yul\":8446:8812   */\n      swap2\n      swap1\n      pop\n      jump\t// out\n        /* \"#utility.yul\":8818:9237   */\n    tag_70:\n        /* \"#utility.yul\":8984:8988   */\n      0x00\n        /* \"#utility.yul\":9022:9024   */\n      0x20\n        /* \"#utility.yul\":9011:9020   */\n      dup3\n        /* \"#utility.yul\":9007:9025   */\n      add\n        /* \"#utility.yul\":8999:9025   */\n      swap1\n      pop\n        /* \"#utility.yul\":9071:9080   */\n      dup2\n        /* \"#utility.yul\":9065:9069   */\n      dup2\n        /* \"#utility.yul\":9061:9081   */\n      sub\n        /* \"#utility.yul\":9057:9058   */\n      0x00\n        /* \"#utility.yul\":9046:9055   */\n      dup4\n        /* \"#utility.yul\":9042:9059   */\n      add\n        /* \"#utility.yul\":9035:9082   */\n      mstore\n        /* \"#utility.yul\":9099:9230   */\n      tag_329\n        /* \"#utility.yul\":9225:9229   */\n      dup2\n        /* \"#utility.yul\":9099:9230   */\n      tag_204\n      jump\t// in\n    tag_329:\n        /* \"#utility.yul\":9091:9230   */\n      swap1\n      pop\n        /* \"#utility.yul\":8818:9237   */\n      swap2\n      swap1\n      pop\n      jump\t// out\n        /* \"#utility.yul\":9243:9425   */\n    tag_205:\n        /* \"#utility.yul\":9383:9417   */\n      0x53746172742074696d65206d75737420626520696e2074686520667574757265\n        /* \"#utility.yul\":9379:9380   */\n      0x00\n        /* \"#utility.yul\":9371:9377   */\n      dup3\n        /* \"#utility.yul\":9367:9381   */\n      add\n        /* \"#utility.yul\":9360:9418   */\n      mstore\n        /* \"#utility.yul\":9243:9425   */\n      pop\n      jump\t// out\n        /* \"#utility.yul\":9431:9797   */\n    tag_206:\n        /* \"#utility.yul\":9573:9576   */\n      0x00\n        /* \"#utility.yul\":9594:9661   */\n      tag_332\n        /* \"#utility.yul\":9658:9660   */\n      0x20\n        /* \"#utility.yul\":9653:9656   */\n      dup4\n        /* \"#utility.yul\":9594:9661   */\n      tag_198\n      jump\t// in\n    tag_332:\n        /* \"#utility.yul\":9587:9661   */\n      swap2\n      pop\n        /* \"#utility.yul\":9670:9763   */\n      tag_333\n        /* \"#utility.yul\":9759:9762   */\n      dup3\n        /* \"#utility.yul\":9670:9763   */\n      tag_205\n      jump\t// in\n    tag_333:\n        /* \"#utility.yul\":9788:9790   */\n      0x20\n        /* \"#utility.yul\":9783:9786   */\n      dup3\n        /* \"#utility.yul\":9779:9791   */\n      add\n        /* \"#utility.yul\":9772:9791   */\n      swap1\n      pop\n        /* \"#utility.yul\":9431:9797   */\n      swap2\n      swap1\n      pop\n      jump\t// out\n        /* \"#utility.yul\":9803:10222   */\n    tag_79:\n        /* \"#utility.yul\":9969:9973   */\n      0x00\n        /* \"#utility.yul\":10007:10009   */\n      0x20\n        /* \"#utility.yul\":9996:10005   */\n      dup3\n        /* \"#utility.yul\":9992:10010   */\n      add\n        /* \"#utility.yul\":9984:10010   */\n      swap1\n      pop\n        /* \"#utility.yul\":10056:10065   */\n      dup2\n        /* \"#utility.yul\":10050:10054   */\n      dup2\n        /* \"#utility.yul\":10046:10066   */\n      sub\n        /* \"#utility.yul\":10042:10043   */\n      0x00\n        /* \"#utility.yul\":10031:10040   */\n      dup4\n        /* \"#utility.yul\":10027:10044   */\n      add\n        /* \"#utility.yul\":10020:10067   */\n      mstore\n        /* \"#utility.yul\":10084:10215   */\n      tag_335\n        /* \"#utility.yul\":10210:10214   */\n      dup2\n        /* \"#utility.yul\":10084:10215   */\n      tag_206\n      jump\t// in\n    tag_335:\n        /* \"#utility.yul\":10076:10215   */\n      swap1\n      pop\n        /* \"#utility.yul\":9803:10222   */\n      swap2\n      swap1\n      pop\n      jump\t// out\n        /* \"#utility.yul\":10228:10448   */\n    tag_207:\n        /* \"#utility.yul\":10368:10402   */\n      0x456e642074696d65206d7573742062652061667465722073746172742074696d\n        /* \"#utility.yul\":10364:10365   */\n      0x00\n        /* \"#utility.yul\":10356:10362   */\n      dup3\n        /* \"#utility.yul\":10352:10366   */\n      add\n        /* \"#utility.yul\":10345:10403   */\n      mstore\n        /* \"#utility.yul\":10437:10440   */\n      0x6500000000000000000000000000000000000000000000000000000000000000\n        /* \"#utility.yul\":10432:10434   */\n      0x20\n        /* \"#utility.yul\":10424:10430   */\n      dup3\n        /* \"#utility.yul\":10420:10435   */\n      add\n        /* \"#utility.yul\":10413:10441   */\n      mstore\n        /* \"#utility.yul\":10228:10448   */\n      pop\n      jump\t// out\n        /* \"#utility.yul\":10454:10820   */\n    tag_208:\n        /* \"#utility.yul\":10596:10599   */\n      0x00\n        /* \"#utility.yul\":10617:10684   */\n      tag_338\n        /* \"#utility.yul\":10681:10683   */\n      0x21\n        /* \"#utility.yul\":10676:10679   */\n      dup4\n        /* \"#utility.yul\":10617:10684   */\n      tag_198\n      jump\t// in\n    tag_338:\n        /* \"#utility.yul\":10610:10684   */\n      swap2\n      pop\n        /* \"#utility.yul\":10693:10786   */\n      tag_339\n        /* \"#utility.yul\":10782:10785   */\n      dup3\n        /* \"#utility.yul\":10693:10786   */\n      tag_207\n      jump\t// in\n    tag_339:\n        /* \"#utility.yul\":10811:10813   */\n      0x40\n        /* \"#utility.yul\":10806:10809   */\n      dup3\n        /* \"#utility.yul\":10802:10814   */\n      add\n        /* \"#utility.yul\":10795:10814   */\n      swap1\n      pop\n        /* \"#utility.yul\":10454:10820   */\n      swap2\n      swap1\n      pop\n      jump\t// out\n        /* \"#utility.yul\":10826:11245   */\n    tag_82:\n        /* \"#utility.yul\":10992:10996   */\n      0x00\n        /* \"#utility.yul\":11030:11032   */\n      0x20\n        /* \"#utility.yul\":11019:11028   */\n      dup3\n        /* \"#utility.yul\":11015:11033   */\n      add\n        /* \"#utility.yul\":11007:11033   */\n      swap1\n      pop\n        /* \"#utility.yul\":11079:11088   */\n      dup2\n        /* \"#utility.yul\":11073:11077   */\n      dup2\n        /* \"#utility.yul\":11069:11089   */\n      sub\n        /* \"#utility.yul\":11065:11066   */\n      0x00\n        /* \"#utility.yul\":11054:11063   */\n      dup4\n        /* \"#utility.yul\":11050:11067   */\n      add\n        /* \"#utility.yul\":11043:11090   */\n      mstore\n        /* \"#utility.yul\":11107:11238   */\n      tag_341\n        /* \"#utility.yul\":11233:11237   */\n      dup2\n        /* \"#utility.yul\":11107:11238   */\n      tag_208\n      jump\t// in\n    tag_341:\n        /* \"#utility.yul\":11099:11238   */\n      swap1\n      pop\n        /* \"#utility.yul\":10826:11245   */\n      swap2\n      swap1\n      pop\n      jump\t// out\n        /* \"#utility.yul\":11251:11475   */\n    tag_209:\n        /* \"#utility.yul\":11391:11425   */\n      0x4d696e696d756d20626964206d7573742062652067726561746572207468616e\n        /* \"#utility.yul\":11387:11388   */\n      0x00\n        /* \"#utility.yul\":11379:11385   */\n      dup3\n        /* \"#utility.yul\":11375:11389   */\n      add\n        /* \"#utility.yul\":11368:11426   */\n      mstore\n        /* \"#utility.yul\":11460:11467   */\n      0x207a65726f000000000000000000000000000000000000000000000000000000\n        /* \"#utility.yul\":11455:11457   */\n      0x20\n        /* \"#utility.yul\":11447:11453   */\n      dup3\n        /* \"#utility.yul\":11443:11458   */\n      add\n        /* \"#utility.yul\":11436:11468   */\n      mstore\n        /* \"#utility.yul\":11251:11475   */\n      pop\n      jump\t// out\n        /* \"#utility.yul\":11481:11847   */\n    tag_210:\n        /* \"#utility.yul\":11623:11626   */\n      0x00\n        /* \"#utility.yul\":11644:11711   */\n      tag_344\n        /* \"#utility.yul\":11708:11710   */\n      0x25\n        /* \"#utility.yul\":11703:11706   */\n      dup4\n        /* \"#utility.yul\":11644:11711   */\n      tag_198\n      jump\t// in\n    tag_344:\n        /* \"#utility.yul\":11637:11711   */\n      swap2\n      pop\n        /* \"#utility.yul\":11720:11813   */\n      tag_345\n        /* \"#utility.yul\":11809:11812   */\n      dup3\n        /* \"#utility.yul\":11720:11813   */\n      tag_209\n      jump\t// in\n    tag_345:\n        /* \"#utility.yul\":11838:11840   */\n      0x40\n        /* \"#utility.yul\":11833:11836   */\n      dup3\n        /* \"#utility.yul\":11829:11841   */\n      add\n        /* \"#utility.yul\":11822:11841   */\n      swap1\n      pop\n        /* \"#utility.yul\":11481:11847   */\n      swap2\n      swap1\n      pop\n      jump\t// out\n        /* \"#utility.yul\":11853:12272   */\n    tag_85:\n        /* \"#utility.yul\":12019:12023   */\n      0x00\n        /* \"#utility.yul\":12057:12059   */\n      0x20\n        /* \"#utility.yul\":12046:12055   */\n      dup3\n        /* \"#utility.yul\":12042:12060   */\n      add\n        /* \"#utility.yul\":12034:12060   */\n      swap1\n      pop\n        /* \"#utility.yul\":12106:12115   */\n      dup2\n        /* \"#utility.yul\":12100:12104   */\n      dup2\n        /* \"#utility.yul\":12096:12116   */\n      sub\n        /* \"#utility.yul\":12092:12093   */\n      0x00\n        /* \"#utility.yul\":12081:12090   */\n      dup4\n        /* \"#utility.yul\":12077:12094   */\n      add\n        /* \"#utility.yul\":12070:12117   */\n      mstore\n        /* \"#utility.yul\":12134:12265   */\n      tag_347\n        /* \"#utility.yul\":12260:12264   */\n      dup2\n        /* \"#utility.yul\":12134:12265   */\n      tag_210\n      jump\t// in\n    tag_347:\n        /* \"#utility.yul\":12126:12265   */\n      swap1\n      pop\n        /* \"#utility.yul\":11853:12272   */\n      swap2\n      swap1\n      pop\n      jump\t// out\n        /* \"#utility.yul\":12278:12421   */\n    tag_211:\n        /* \"#utility.yul\":12335:12340   */\n      0x00\n        /* \"#utility.yul\":12366:12372   */\n      dup2\n        /* \"#utility.yul\":12360:12373   */\n      mload\n        /* \"#utility.yul\":12351:12373   */\n      swap1\n      pop\n        /* \"#utility.yul\":12382:12415   */\n      tag_349\n        /* \"#utility.yul\":12409:12414   */\n      dup2\n        /* \"#utility.yul\":12382:12415   */\n      tag_190\n      jump\t// in\n    tag_349:\n        /* \"#utility.yul\":12278:12421   */\n      swap3\n      swap2\n      pop\n      pop\n      jump\t// out\n        /* \"#utility.yul\":12427:12778   */\n    tag_90:\n        /* \"#utility.yul\":12497:12503   */\n      0x00\n        /* \"#utility.yul\":12546:12548   */\n      0x20\n        /* \"#utility.yul\":12534:12543   */\n      dup3\n        /* \"#utility.yul\":12525:12532   */\n      dup5\n        /* \"#utility.yul\":12521:12544   */\n      sub\n        /* \"#utility.yul\":12517:12549   */\n      slt\n        /* \"#utility.yul\":12514:12633   */\n      iszero\n      tag_351\n      jumpi\n        /* \"#utility.yul\":12552:12631   */\n      tag_352\n      tag_183\n      jump\t// in\n    tag_352:\n        /* \"#utility.yul\":12514:12633   */\n    tag_351:\n        /* \"#utility.yul\":12672:12673   */\n      0x00\n        /* \"#utility.yul\":12697:12761   */\n      tag_353\n        /* \"#utility.yul\":12753:12760   */\n      dup5\n        /* \"#utility.yul\":12744:12750   */\n      dup3\n        /* \"#utility.yul\":12733:12742   */\n      dup6\n        /* \"#utility.yul\":12729:12751   */\n      add\n        /* \"#utility.yul\":12697:12761   */\n      tag_211\n      jump\t// in\n    tag_353:\n        /* \"#utility.yul\":12687:12761   */\n      swap2\n      pop\n        /* \"#utility.yul\":12643:12771   */\n      pop\n        /* \"#utility.yul\":12427:12778   */\n      swap3\n      swap2\n      pop\n      pop\n      jump\t// out\n        /* \"#utility.yul\":12784:13005   */\n    tag_212:\n        /* \"#utility.yul\":12924:12958   */\n      0x596f75206d757374206f776e20746865204e465420746f2061756374696f6e20\n        /* \"#utility.yul\":12920:12921   */\n      0x00\n        /* \"#utility.yul\":12912:12918   */\n      dup3\n        /* \"#utility.yul\":12908:12922   */\n      add\n        /* \"#utility.yul\":12901:12959   */\n      mstore\n        /* \"#utility.yul\":12993:12997   */\n      0x6974000000000000000000000000000000000000000000000000000000000000\n        /* \"#utility.yul\":12988:12990   */\n      0x20\n        /* \"#utility.yul\":12980:12986   */\n      dup3\n        /* \"#utility.yul\":12976:12991   */\n      add\n        /* \"#utility.yul\":12969:12998   */\n      mstore\n        /* \"#utility.yul\":12784:13005   */\n      pop\n      jump\t// out\n        /* \"#utility.yul\":13011:13377   */\n    tag_213:\n        /* \"#utility.yul\":13153:13156   */\n      0x00\n        /* \"#utility.yul\":13174:13241   */\n      tag_356\n        /* \"#utility.yul\":13238:13240   */\n      0x22\n        /* \"#utility.yul\":13233:13236   */\n      dup4\n        /* \"#utility.yul\":13174:13241   */\n      tag_198\n      jump\t// in\n    tag_356:\n        /* \"#utility.yul\":13167:13241   */\n      swap2\n      pop\n        /* \"#utility.yul\":13250:13343   */\n      tag_357\n        /* \"#utility.yul\":13339:13342   */\n      dup3\n        /* \"#utility.yul\":13250:13343   */\n      tag_212\n      jump\t// in\n    tag_357:\n        /* \"#utility.yul\":13368:13370   */\n      0x40\n        /* \"#utility.yul\":13363:13366   */\n      dup3\n        /* \"#utility.yul\":13359:13371   */\n      add\n        /* \"#utility.yul\":13352:13371   */\n      swap1\n      pop\n        /* \"#utility.yul\":13011:13377   */\n      swap2\n      swap1\n      pop\n      jump\t// out\n        /* \"#utility.yul\":13383:13802   */\n    tag_93:\n        /* \"#utility.yul\":13549:13553   */\n      0x00\n        /* \"#utility.yul\":13587:13589   */\n      0x20\n        /* \"#utility.yul\":13576:13585   */\n      dup3\n        /* \"#utility.yul\":13572:13590   */\n      add\n        /* \"#utility.yul\":13564:13590   */\n      swap1\n      pop\n        /* \"#utility.yul\":13636:13645   */\n      dup2\n        /* \"#utility.yul\":13630:13634   */\n      dup2\n        /* \"#utility.yul\":13626:13646   */\n      sub\n        /* \"#utility.yul\":13622:13623   */\n      0x00\n        /* \"#utility.yul\":13611:13620   */\n      dup4\n        /* \"#utility.yul\":13607:13624   */\n      add\n        /* \"#utility.yul\":13600:13647   */\n      mstore\n        /* \"#utility.yul\":13664:13795   */\n      tag_359\n        /* \"#utility.yul\":13790:13794   */\n      dup2\n        /* \"#utility.yul\":13664:13795   */\n      tag_213\n      jump\t// in\n    tag_359:\n        /* \"#utility.yul\":13656:13795   */\n      swap1\n      pop\n        /* \"#utility.yul\":13383:13802   */\n      swap2\n      swap1\n      pop\n      jump\t// out\n        /* \"#utility.yul\":13808:14140   */\n    tag_95:\n        /* \"#utility.yul\":13929:13933   */\n      0x00\n        /* \"#utility.yul\":13967:13969   */\n      0x40\n        /* \"#utility.yul\":13956:13965   */\n      dup3\n        /* \"#utility.yul\":13952:13970   */\n      add\n        /* \"#utility.yul\":13944:13970   */\n      swap1\n      pop\n        /* \"#utility.yul\":13980:14051   */\n      tag_361\n        /* \"#utility.yul\":14048:14049   */\n      0x00\n        /* \"#utility.yul\":14037:14046   */\n      dup4\n        /* \"#utility.yul\":14033:14050   */\n      add\n        /* \"#utility.yul\":14024:14030   */\n      dup6\n        /* \"#utility.yul\":13980:14051   */\n      tag_193\n      jump\t// in\n    tag_361:\n        /* \"#utility.yul\":14061:14133   */\n      tag_362\n        /* \"#utility.yul\":14129:14131   */\n      0x20\n        /* \"#utility.yul\":14118:14127   */\n      dup4\n        /* \"#utility.yul\":14114:14132   */\n      add\n        /* \"#utility.yul\":14105:14111   */\n      dup5\n        /* \"#utility.yul\":14061:14133   */\n      tag_193\n      jump\t// in\n    tag_362:\n        /* \"#utility.yul\":13808:14140   */\n      swap4\n      swap3\n      pop\n      pop\n      pop\n      jump\t// out\n        /* \"#utility.yul\":14146:14262   */\n    tag_214:\n        /* \"#utility.yul\":14216:14237   */\n      tag_364\n        /* \"#utility.yul\":14231:14236   */\n      dup2\n        /* \"#utility.yul\":14216:14237   */\n      tag_196\n      jump\t// in\n    tag_364:\n        /* \"#utility.yul\":14209:14214   */\n      dup2\n        /* \"#utility.yul\":14206:14238   */\n      eq\n        /* \"#utility.yul\":14196:14256   */\n      tag_365\n      jumpi\n        /* \"#utility.yul\":14252:14253   */\n      0x00\n        /* \"#utility.yul\":14249:14250   */\n      dup1\n        /* \"#utility.yul\":14242:14254   */\n      revert\n        /* \"#utility.yul\":14196:14256   */\n    tag_365:\n        /* \"#utility.yul\":14146:14262   */\n      pop\n      jump\t// out\n        /* \"#utility.yul\":14268:14405   */\n    tag_215:\n        /* \"#utility.yul\":14322:14327   */\n      0x00\n        /* \"#utility.yul\":14353:14359   */\n      dup2\n        /* \"#utility.yul\":14347:14360   */\n      mload\n        /* \"#utility.yul\":14338:14360   */\n      swap1\n      pop\n        /* \"#utility.yul\":14369:14399   */\n      tag_367\n        /* \"#utility.yul\":14393:14398   */\n      dup2\n        /* \"#utility.yul\":14369:14399   */\n      tag_214\n      jump\t// in\n    tag_367:\n        /* \"#utility.yul\":14268:14405   */\n      swap3\n      swap2\n      pop\n      pop\n      jump\t// out\n        /* \"#utility.yul\":14411:14756   */\n    tag_99:\n        /* \"#utility.yul\":14478:14484   */\n      0x00\n        /* \"#utility.yul\":14527:14529   */\n      0x20\n        /* \"#utility.yul\":14515:14524   */\n      dup3\n        /* \"#utility.yul\":14506:14513   */\n      dup5\n        /* \"#utility.yul\":14502:14525   */\n      sub\n        /* \"#utility.yul\":14498:14530   */\n      slt\n        /* \"#utility.yul\":14495:14614   */\n      iszero\n      tag_369\n      jumpi\n        /* \"#utility.yul\":14533:14612   */\n      tag_370\n      tag_183\n      jump\t// in\n    tag_370:\n        /* \"#utility.yul\":14495:14614   */\n    tag_369:\n        /* \"#utility.yul\":14653:14654   */\n      0x00\n        /* \"#utility.yul\":14678:14739   */\n      tag_371\n        /* \"#utility.yul\":14731:14738   */\n      dup5\n        /* \"#utility.yul\":14722:14728   */\n      dup3\n        /* \"#utility.yul\":14711:14720   */\n      dup6\n        /* \"#utility.yul\":14707:14729   */\n      add\n        /* \"#utility.yul\":14678:14739   */\n      tag_215\n      jump\t// in\n    tag_371:\n        /* \"#utility.yul\":14668:14739   */\n      swap2\n      pop\n        /* \"#utility.yul\":14624:14749   */\n      pop\n        /* \"#utility.yul\":14411:14756   */\n      swap3\n      swap2\n      pop\n      pop\n      jump\t// out\n        /* \"#utility.yul\":14762:14994   */\n    tag_216:\n        /* \"#utility.yul\":14902:14936   */\n      0x436f6e7472616374206d75737420626520617070726f76656420746f20747261\n        /* \"#utility.yul\":14898:14899   */\n      0x00\n        /* \"#utility.yul\":14890:14896   */\n      dup3\n        /* \"#utility.yul\":14886:14900   */\n      add\n        /* \"#utility.yul\":14879:14937   */\n      mstore\n        /* \"#utility.yul\":14971:14986   */\n      0x6e7366657220746865204e465400000000000000000000000000000000000000\n        /* \"#utility.yul\":14966:14968   */\n      0x20\n        /* \"#utility.yul\":14958:14964   */\n      dup3\n        /* \"#utility.yul\":14954:14969   */\n      add\n        /* \"#utility.yul\":14947:14987   */\n      mstore\n        /* \"#utility.yul\":14762:14994   */\n      pop\n      jump\t// out\n        /* \"#utility.yul\":15000:15366   */\n    tag_217:\n        /* \"#utility.yul\":15142:15145   */\n      0x00\n        /* \"#utility.yul\":15163:15230   */\n      tag_374\n        /* \"#utility.yul\":15227:15229   */\n      0x2d\n        /* \"#utility.yul\":15222:15225   */\n      dup4\n        /* \"#utility.yul\":15163:15230   */\n      tag_198\n      jump\t// in\n    tag_374:\n        /* \"#utility.yul\":15156:15230   */\n      swap2\n      pop\n        /* \"#utility.yul\":15239:15332   */\n      tag_375\n        /* \"#utility.yul\":15328:15331   */\n      dup3\n        /* \"#utility.yul\":15239:15332   */\n      tag_216\n      jump\t// in\n    tag_375:\n        /* \"#utility.yul\":15357:15359   */\n      0x40\n        /* \"#utility.yul\":15352:15355   */\n      dup3\n        /* \"#utility.yul\":15348:15360   */\n      add\n        /* \"#utility.yul\":15341:15360   */\n      swap1\n      pop\n        /* \"#utility.yul\":15000:15366   */\n      swap2\n      swap1\n      pop\n      jump\t// out\n        /* \"#utility.yul\":15372:15791   */\n    tag_102:\n        /* \"#utility.yul\":15538:15542   */\n      0x00\n        /* \"#utility.yul\":15576:15578   */\n      0x20\n        /* \"#utility.yul\":15565:15574   */\n      dup3\n        /* \"#utility.yul\":15561:15579   */\n      add\n        /* \"#utility.yul\":15553:15579   */\n      swap1\n      pop\n        /* \"#utility.yul\":15625:15634   */\n      dup2\n        /* \"#utility.yul\":15619:15623   */\n      dup2\n        /* \"#utility.yul\":15615:15635   */\n      sub\n        /* \"#utility.yul\":15611:15612   */\n      0x00\n        /* \"#utility.yul\":15600:15609   */\n      dup4\n        /* \"#utility.yul\":15596:15613   */\n      add\n        /* \"#utility.yul\":15589:15636   */\n      mstore\n        /* \"#utility.yul\":15653:15784   */\n      tag_377\n        /* \"#utility.yul\":15779:15783   */\n      dup2\n        /* \"#utility.yul\":15653:15784   */\n      tag_217\n      jump\t// in\n    tag_377:\n        /* \"#utility.yul\":15645:15784   */\n      swap1\n      pop\n        /* \"#utility.yul\":15372:15791   */\n      swap2\n      swap1\n      pop\n      jump\t// out\n        /* \"#utility.yul\":15797:15977   */\n    tag_218:\n        /* \"#utility.yul\":15845:15922   */\n      0x4e487b7100000000000000000000000000000000000000000000000000000000\n        /* \"#utility.yul\":15842:15843   */\n      0x00\n        /* \"#utility.yul\":15835:15923   */\n      mstore\n        /* \"#utility.yul\":15942:15946   */\n      0x11\n        /* \"#utility.yul\":15939:15940   */\n      0x04\n        /* \"#utility.yul\":15932:15947   */\n      mstore\n        /* \"#utility.yul\":15966:15970   */\n      0x24\n        /* \"#utility.yul\":15963:15964   */\n      0x00\n        /* \"#utility.yul\":15956:15971   */\n      revert\n        /* \"#utility.yul\":15983:16216   */\n    tag_104:\n        /* \"#utility.yul\":16022:16025   */\n      0x00\n        /* \"#utility.yul\":16045:16069   */\n      tag_380\n        /* \"#utility.yul\":16063:16068   */\n      dup3\n        /* \"#utility.yul\":16045:16069   */\n      tag_185\n      jump\t// in\n    tag_380:\n        /* \"#utility.yul\":16036:16069   */\n      swap2\n      pop\n        /* \"#utility.yul\":16091:16157   */\n      0xffffffffffffffffffffffffffffffffffffffffffffffffffffffffffffffff\n        /* \"#utility.yul\":16084:16089   */\n      dup3\n        /* \"#utility.yul\":16081:16158   */\n      sub\n        /* \"#utility.yul\":16078:16181   */\n      tag_381\n      jumpi\n        /* \"#utility.yul\":16161:16179   */\n      tag_382\n      tag_218\n      jump\t// in\n    tag_382:\n        /* \"#utility.yul\":16078:16181   */\n    tag_381:\n        /* \"#utility.yul\":16208:16209   */\n      0x01\n        /* \"#utility.yul\":16201:16206   */\n      dup3\n        /* \"#utility.yul\":16197:16210   */\n      add\n        /* \"#utility.yul\":16190:16210   */\n      swap1\n      pop\n        /* \"#utility.yul\":15983:16216   */\n      swap2\n      swap1\n      pop\n      jump\t// out\n        /* \"#utility.yul\":16222:16664   */\n    tag_106:\n        /* \"#utility.yul\":16371:16375   */\n      0x00\n        /* \"#utility.yul\":16409:16411   */\n      0x60\n        /* \"#utility.yul\":16398:16407   */\n      dup3\n        /* \"#utility.yul\":16394:16412   */\n      add\n        /* \"#utility.yul\":16386:16412   */\n      swap1\n      pop\n        /* \"#utility.yul\":16422:16493   */\n      tag_384\n        /* \"#utility.yul\":16490:16491   */\n      0x00\n        /* \"#utility.yul\":16479:16488   */\n      dup4\n        /* \"#utility.yul\":16475:16492   */\n      add\n        /* \"#utility.yul\":16466:16472   */\n      dup7\n        /* \"#utility.yul\":16422:16493   */\n      tag_193\n      jump\t// in\n    tag_384:\n        /* \"#utility.yul\":16503:16575   */\n      tag_385\n        /* \"#utility.yul\":16571:16573   */\n      0x20\n        /* \"#utility.yul\":16560:16569   */\n      dup4\n        /* \"#utility.yul\":16556:16574   */\n      add\n        /* \"#utility.yul\":16547:16553   */\n      dup6\n        /* \"#utility.yul\":16503:16575   */\n      tag_193\n      jump\t// in\n    tag_385:\n        /* \"#utility.yul\":16585:16657   */\n      tag_386\n        /* \"#utility.yul\":16653:16655   */\n      0x40\n        /* \"#utility.yul\":16642:16651   */\n      dup4\n        /* \"#utility.yul\":16638:16656   */\n      add\n        /* \"#utility.yul\":16629:16635   */\n      dup5\n        /* \"#utility.yul\":16585:16657   */\n      tag_192\n      jump\t// in\n    tag_386:\n        /* \"#utility.yul\":16222:16664   */\n      swap5\n      swap4\n      pop\n      pop\n      pop\n      pop\n      jump\t// out\n        /* \"#utility.yul\":16670:17223   */\n    tag_111:\n        /* \"#utility.yul\":16847:16851   */\n      0x00\n        /* \"#utility.yul\":16885:16888   */\n      0x80\n        /* \"#utility.yul\":16874:16883   */\n      dup3\n        /* \"#utility.yul\":16870:16889   */\n      add\n        /* \"#utility.yul\":16862:16889   */\n      swap1\n      pop\n        /* \"#utility.yul\":16899:16970   */\n      tag_388\n        /* \"#utility.yul\":16967:16968   */\n      0x00\n        /* \"#utility.yul\":16956:16965   */\n      dup4\n        /* \"#utility.yul\":16952:16969   */\n      add\n        /* \"#utility.yul\":16943:16949   */\n      dup8\n        /* \"#utility.yul\":16899:16970   */\n      tag_192\n      jump\t// in\n    tag_388:\n        /* \"#utility.yul\":16980:17052   */\n      tag_389\n        /* \"#utility.yul\":17048:17050   */\n      0x20\n        /* \"#utility.yul\":17037:17046   */\n      dup4\n        /* \"#utility.yul\":17033:17051   */\n      add\n        /* \"#utility.yul\":17024:17030   */\n      dup7\n        /* \"#utility.yul\":16980:17052   */\n      tag_192\n      jump\t// in\n    tag_389:\n        /* \"#utility.yul\":17062:17134   */\n      tag_390\n        /* \"#utility.yul\":17130:17132   */\n      0x40\n        /* \"#utility.yul\":17119:17128   */\n      dup4\n        /* \"#utility.yul\":17115:17133   */\n      add\n        /* \"#utility.yul\":17106:17112   */\n      dup6\n        /* \"#utility.yul\":17062:17134   */\n      tag_192\n      jump\t// in\n    tag_390:\n        /* \"#utility.yul\":17144:17216   */\n      tag_391\n        /* \"#utility.yul\":17212:17214   */\n      0x60\n        /* \"#utility.yul\":17201:17210   */\n      dup4\n        /* \"#utility.yul\":17197:17215   */\n      add\n        /* \"#utility.yul\":17188:17194   */\n      dup5\n        /* \"#utility.yul\":17144:17216   */\n      tag_192\n      jump\t// in\n    tag_391:\n        /* \"#utility.yul\":16670:17223   */\n      swap6\n      swap5\n      pop\n      pop\n      pop\n      pop\n      pop\n      jump\t// out\n        /* \"#utility.yul\":17229:17406   */\n    tag_219:\n        /* \"#utility.yul\":17369:17398   */\n      0x41756374696f6e20686173206e6f742073746172746564207965740000000000\n        /* \"#utility.yul\":17365:17366   */\n      0x00\n        /* \"#utility.yul\":17357:17363   */\n      dup3\n        /* \"#utility.yul\":17353:17367   */\n      add\n        /* \"#utility.yul\":17346:17399   */\n      mstore\n        /* \"#utility.yul\":17229:17406   */\n      pop\n      jump\t// out\n        /* \"#utility.yul\":17412:17778   */\n    tag_220:\n        /* \"#utility.yul\":17554:17557   */\n      0x00\n        /* \"#utility.yul\":17575:17642   */\n      tag_394\n        /* \"#utility.yul\":17639:17641   */\n      0x1b\n        /* \"#utility.yul\":17634:17637   */\n      dup4\n        /* \"#utility.yul\":17575:17642   */\n      tag_198\n      jump\t// in\n    tag_394:\n        /* \"#utility.yul\":17568:17642   */\n      swap2\n      pop\n        /* \"#utility.yul\":17651:17744   */\n      tag_395\n        /* \"#utility.yul\":17740:17743   */\n      dup3\n        /* \"#utility.yul\":17651:17744   */\n      tag_219\n      jump\t// in\n    tag_395:\n        /* \"#utility.yul\":17769:17771   */\n      0x20\n        /* \"#utility.yul\":17764:17767   */\n      dup3\n        /* \"#utility.yul\":17760:17772   */\n      add\n        /* \"#utility.yul\":17753:17772   */\n      swap1\n      pop\n        /* \"#utility.yul\":17412:17778   */\n      swap2\n      swap1\n      pop\n      jump\t// out\n        /* \"#utility.yul\":17784:18203   */\n    tag_120:\n        /* \"#utility.yul\":17950:17954   */\n      0x00\n        /* \"#utility.yul\":17988:17990   */\n      0x20\n        /* \"#utility.yul\":17977:17986   */\n      dup3\n        /* \"#utility.yul\":17973:17991   */\n      add\n        /* \"#utility.yul\":17965:17991   */\n      swap1\n      pop\n        /* \"#utility.yul\":18037:18046   */\n      dup2\n        /* \"#utility.yul\":18031:18035   */\n      dup2\n        /* \"#utility.yul\":18027:18047   */\n      sub\n        /* \"#utility.yul\":18023:18024   */\n      0x00\n        /* \"#utility.yul\":18012:18021   */\n      dup4\n        /* \"#utility.yul\":18008:18025   */\n      add\n        /* \"#utility.yul\":18001:18048   */\n      mstore\n        /* \"#utility.yul\":18065:18196   */\n      tag_397\n        /* \"#utility.yul\":18191:18195   */\n      dup2\n        /* \"#utility.yul\":18065:18196   */\n      tag_220\n      jump\t// in\n    tag_397:\n        /* \"#utility.yul\":18057:18196   */\n      swap1\n      pop\n        /* \"#utility.yul\":17784:18203   */\n      swap2\n      swap1\n      pop\n      jump\t// out\n        /* \"#utility.yul\":18209:18376   */\n    tag_221:\n        /* \"#utility.yul\":18349:18368   */\n      0x41756374696f6e2068617320656e646564000000000000000000000000000000\n        /* \"#utility.yul\":18345:18346   */\n      0x00\n        /* \"#utility.yul\":18337:18343   */\n      dup3\n        /* \"#utility.yul\":18333:18347   */\n      add\n        /* \"#utility.yul\":18326:18369   */\n      mstore\n        /* \"#utility.yul\":18209:18376   */\n      pop\n      jump\t// out\n        /* \"#utility.yul\":18382:18748   */\n    tag_222:\n        /* \"#utility.yul\":18524:18527   */\n      0x00\n        /* \"#utility.yul\":18545:18612   */\n      tag_400\n        /* \"#utility.yul\":18609:18611   */\n      0x11\n        /* \"#utility.yul\":18604:18607   */\n      dup4\n        /* \"#utility.yul\":18545:18612   */\n      tag_198\n      jump\t// in\n    tag_400:\n        /* \"#utility.yul\":18538:18612   */\n      swap2\n      pop\n        /* \"#utility.yul\":18621:18714   */\n      tag_401\n        /* \"#utility.yul\":18710:18713   */\n      dup3\n        /* \"#utility.yul\":18621:18714   */\n      tag_221\n      jump\t// in\n    tag_401:\n        /* \"#utility.yul\":18739:18741   */\n      0x20\n        /* \"#utility.yul\":18734:18737   */\n      dup3\n        /* \"#utility.yul\":18730:18742   */\n      add\n        /* \"#utility.yul\":18723:18742   */\n      swap1\n      pop\n        /* \"#utility.yul\":18382:18748   */\n      swap2\n      swap1\n      pop\n      jump\t// out\n        /* \"#utility.yul\":18754:19173   */\n    tag_123:\n        /* \"#utility.yul\":18920:18924   */\n      0x00\n        /* \"#utility.yul\":18958:18960   */\n      0x20\n        /* \"#utility.yul\":18947:18956   */\n      dup3\n        /* \"#utility.yul\":18943:18961   */\n      add\n        /* \"#utility.yul\":18935:18961   */\n      swap1\n      pop\n        /* \"#utility.yul\":19007:19016   */\n      dup2\n        /* \"#utility.yul\":19001:19005   */\n      dup2\n        /* \"#utility.yul\":18997:19017   */\n      sub\n        /* \"#utility.yul\":18993:18994   */\n      0x00\n        /* \"#utility.yul\":18982:18991   */\n      dup4\n        /* \"#utility.yul\":18978:18995   */\n      add\n        /* \"#utility.yul\":18971:19018   */\n      mstore\n        /* \"#utility.yul\":19035:19166   */\n      tag_403\n        /* \"#utility.yul\":19161:19165   */\n      dup2\n        /* \"#utility.yul\":19035:19166   */\n      tag_222\n      jump\t// in\n    tag_403:\n        /* \"#utility.yul\":19027:19166   */\n      swap1\n      pop\n        /* \"#utility.yul\":18754:19173   */\n      swap2\n      swap1\n      pop\n      jump\t// out\n        /* \"#utility.yul\":19179:19359   */\n    tag_223:\n        /* \"#utility.yul\":19319:19351   */\n      0x41756374696f6e2068617320616c7265616479206265656e20656e6465640000\n        /* \"#utility.yul\":19315:19316   */\n      0x00\n        /* \"#utility.yul\":19307:19313   */\n      dup3\n        /* \"#utility.yul\":19303:19317   */\n      add\n        /* \"#utility.yul\":19296:19352   */\n      mstore\n        /* \"#utility.yul\":19179:19359   */\n      pop\n      jump\t// out\n        /* \"#utility.yul\":19365:19731   */\n    tag_224:\n        /* \"#utility.yul\":19507:19510   */\n      0x00\n        /* \"#utility.yul\":19528:19595   */\n      tag_406\n        /* \"#utility.yul\":19592:19594   */\n      0x1e\n        /* \"#utility.yul\":19587:19590   */\n      dup4\n        /* \"#utility.yul\":19528:19595   */\n      tag_198\n      jump\t// in\n    tag_406:\n        /* \"#utility.yul\":19521:19595   */\n      swap2\n      pop\n        /* \"#utility.yul\":19604:19697   */\n      tag_407\n        /* \"#utility.yul\":19693:19696   */\n      dup3\n        /* \"#utility.yul\":19604:19697   */\n      tag_223\n      jump\t// in\n    tag_407:\n        /* \"#utility.yul\":19722:19724   */\n      0x20\n        /* \"#utility.yul\":19717:19720   */\n      dup3\n        /* \"#utility.yul\":19713:19725   */\n      add\n        /* \"#utility.yul\":19706:19725   */\n      swap1\n      pop\n        /* \"#utility.yul\":19365:19731   */\n      swap2\n      swap1\n      pop\n      jump\t// out\n        /* \"#utility.yul\":19737:20156   */\n    tag_126:\n        /* \"#utility.yul\":19903:19907   */\n      0x00\n        /* \"#utility.yul\":19941:19943   */\n      0x20\n        /* \"#utility.yul\":19930:19939   */\n      dup3\n        /* \"#utility.yul\":19926:19944   */\n      add\n        /* \"#utility.yul\":19918:19944   */\n      swap1\n      pop\n        /* \"#utility.yul\":19990:19999   */\n      dup2\n        /* \"#utility.yul\":19984:19988   */\n      dup2\n        /* \"#utility.yul\":19980:20000   */\n      sub\n        /* \"#utility.yul\":19976:19977   */\n      0x00\n        /* \"#utility.yul\":19965:19974   */\n      dup4\n        /* \"#utility.yul\":19961:19978   */\n      add\n        /* \"#utility.yul\":19954:20001   */\n      mstore\n        /* \"#utility.yul\":20018:20149   */\n      tag_409\n        /* \"#utility.yul\":20144:20148   */\n      dup2\n        /* \"#utility.yul\":20018:20149   */\n      tag_224\n      jump\t// in\n    tag_409:\n        /* \"#utility.yul\":20010:20149   */\n      swap1\n      pop\n        /* \"#utility.yul\":19737:20156   */\n      swap2\n      swap1\n      pop\n      jump\t// out\n        /* \"#utility.yul\":20162:20392   */\n    tag_225:\n        /* \"#utility.yul\":20302:20336   */\n      0x426964206d757374206265206174206c6561737420746865206d696e696d756d\n        /* \"#utility.yul\":20298:20299   */\n      0x00\n        /* \"#utility.yul\":20290:20296   */\n      dup3\n        /* \"#utility.yul\":20286:20300   */\n      add\n        /* \"#utility.yul\":20279:20337   */\n      mstore\n        /* \"#utility.yul\":20371:20384   */\n      0x2062696420616d6f756e74000000000000000000000000000000000000000000\n        /* \"#utility.yul\":20366:20368   */\n      0x20\n        /* \"#utility.yul\":20358:20364   */\n      dup3\n        /* \"#utility.yul\":20354:20369   */\n      add\n        /* \"#utility.yul\":20347:20385   */\n      mstore\n        /* \"#utility.yul\":20162:20392   */\n      pop\n      jump\t// out\n        /* \"#utility.yul\":20398:20764   */\n    tag_226:\n        /* \"#utility.yul\":20540:20543   */\n      0x00\n        /* \"#utility.yul\":20561:20628   */\n      tag_412\n        /* \"#utility.yul\":20625:20627   */\n      0x2b\n        /* \"#utility.yul\":20620:20623   */\n      dup4\n        /* \"#utility.yul\":20561:20628   */\n      tag_198\n      jump\t// in\n    tag_412:\n        /* \"#utility.yul\":20554:20628   */\n      swap2\n      pop\n        /* \"#utility.yul\":20637:20730   */\n      tag_413\n        /* \"#utility.yul\":20726:20729   */\n      dup3\n        /* \"#utility.yul\":20637:20730   */\n      tag_225\n      jump\t// in\n    tag_413:\n        /* \"#utility.yul\":20755:20757   */\n      0x40\n        /* \"#utility.yul\":20750:20753   */\n      dup3\n        /* \"#utility.yul\":20746:20758   */\n      add\n        /* \"#utility.yul\":20739:20758   */\n      swap1\n      pop\n        /* \"#utility.yul\":20398:20764   */\n      swap2\n      swap1\n      pop\n      jump\t// out\n        /* \"#utility.yul\":20770:21189   */\n    tag_130:\n        /* \"#utility.yul\":20936:20940   */\n      0x00\n        /* \"#utility.yul\":20974:20976   */\n      0x20\n        /* \"#utility.yul\":20963:20972   */\n      dup3\n        /* \"#utility.yul\":20959:20977   */\n      add\n        /* \"#utility.yul\":20951:20977   */\n      swap1\n      pop\n        /* \"#utility.yul\":21023:21032   */\n      dup2\n        /* \"#utility.yul\":21017:21021   */\n      dup2\n        /* \"#utility.yul\":21013:21033   */\n      sub\n        /* \"#utility.yul\":21009:21010   */\n      0x00\n        /* \"#utility.yul\":20998:21007   */\n      dup4\n        /* \"#utility.yul\":20994:21011   */\n      add\n        /* \"#utility.yul\":20987:21034   */\n      mstore\n        /* \"#utility.yul\":21051:21182   */\n      tag_415\n        /* \"#utility.yul\":21177:21181   */\n      dup2\n        /* \"#utility.yul\":21051:21182   */\n      tag_226\n      jump\t// in\n    tag_415:\n        /* \"#utility.yul\":21043:21182   */\n      swap1\n      pop\n        /* \"#utility.yul\":20770:21189   */\n      swap2\n      swap1\n      pop\n      jump\t// out\n        /* \"#utility.yul\":21195:21429   */\n    tag_227:\n        /* \"#utility.yul\":21335:21369   */\n      0x426964206d75737420626520686967686572207468616e207468652063757272\n        /* \"#utility.yul\":21331:21332   */\n      0x00\n        /* \"#utility.yul\":21323:21329   */\n      dup3\n        /* \"#utility.yul\":21319:21333   */\n      add\n        /* \"#utility.yul\":21312:21370   */\n      mstore\n        /* \"#utility.yul\":21404:21421   */\n      0x656e742068696768657374206269640000000000000000000000000000000000\n        /* \"#utility.yul\":21399:21401   */\n      0x20\n        /* \"#utility.yul\":21391:21397   */\n      dup3\n        /* \"#utility.yul\":21387:21402   */\n      add\n        /* \"#utility.yul\":21380:21422   */\n      mstore\n        /* \"#utility.yul\":21195:21429   */\n      pop\n      jump\t// out\n        /* \"#utility.yul\":21435:21801   */\n    tag_228:\n        /* \"#utility.yul\":21577:21580   */\n      0x00\n        /* \"#utility.yul\":21598:21665   */\n      tag_418\n        /* \"#utility.yul\":21662:21664   */\n      0x2f\n        /* \"#utility.yul\":21657:21660   */\n      dup4\n        /* \"#utility.yul\":21598:21665   */\n      tag_198\n      jump\t// in\n    tag_418:\n        /* \"#utility.yul\":21591:21665   */\n      swap2\n      pop\n        /* \"#utility.yul\":21674:21767   */\n      tag_419\n        /* \"#utility.yul\":21763:21766   */\n      dup3\n        /* \"#utility.yul\":21674:21767   */\n      tag_227\n      jump\t// in\n    tag_419:\n        /* \"#utility.yul\":21792:21794   */\n      0x40\n        /* \"#utility.yul\":21787:21790   */\n      dup3\n        /* \"#utility.yul\":21783:21795   */\n      add\n        /* \"#utility.yul\":21776:21795   */\n      swap1\n      pop\n        /* \"#utility.yul\":21435:21801   */\n      swap2\n      swap1\n      pop\n      jump\t// out\n        /* \"#utility.yul\":21807:22226   */\n    tag_133:\n        /* \"#utility.yul\":21973:21977   */\n      0x00\n        /* \"#utility.yul\":22011:22013   */\n      0x20\n        /* \"#utility.yul\":22000:22009   */\n      dup3\n        /* \"#utility.yul\":21996:22014   */\n      add\n        /* \"#utility.yul\":21988:22014   */\n      swap1\n      pop\n        /* \"#utility.yul\":22060:22069   */\n      dup2\n        /* \"#utility.yul\":22054:22058   */\n      dup2\n        /* \"#utility.yul\":22050:22070   */\n      sub\n        /* \"#utility.yul\":22046:22047   */\n      0x00\n        /* \"#utility.yul\":22035:22044   */\n      dup4\n        /* \"#utility.yul\":22031:22048   */\n      add\n        /* \"#utility.yul\":22024:22071   */\n      mstore\n        /* \"#utility.yul\":22088:22219   */\n      tag_421\n        /* \"#utility.yul\":22214:22218   */\n      dup2\n        /* \"#utility.yul\":22088:22219   */\n      tag_228\n      jump\t// in\n    tag_421:\n        /* \"#utility.yul\":22080:22219   */\n      swap1\n      pop\n        /* \"#utility.yul\":21807:22226   */\n      swap2\n      swap1\n      pop\n      jump\t// out\n        /* \"#utility.yul\":22232:22423   */\n    tag_136:\n        /* \"#utility.yul\":22272:22275   */\n      0x00\n        /* \"#utility.yul\":22291:22311   */\n      tag_423\n        /* \"#utility.yul\":22309:22310   */\n      dup3\n        /* \"#utility.yul\":22291:22311   */\n      tag_185\n      jump\t// in\n    tag_423:\n        /* \"#utility.yul\":22286:22311   */\n      swap2\n      pop\n        /* \"#utility.yul\":22325:22345   */\n      tag_424\n        /* \"#utility.yul\":22343:22344   */\n      dup4\n        /* \"#utility.yul\":22325:22345   */\n      tag_185\n      jump\t// in\n    tag_424:\n        /* \"#utility.yul\":22320:22345   */\n      swap3\n      pop\n        /* \"#utility.yul\":22368:22369   */\n      dup3\n        /* \"#utility.yul\":22365:22366   */\n      dup3\n        /* \"#utility.yul\":22361:22370   */\n      add\n        /* \"#utility.yul\":22354:22370   */\n      swap1\n      pop\n        /* \"#utility.yul\":22389:22392   */\n      dup1\n        /* \"#utility.yul\":22386:22387   */\n      dup3\n        /* \"#utility.yul\":22383:22393   */\n      gt\n        /* \"#utility.yul\":22380:22416   */\n      iszero\n      tag_425\n      jumpi\n        /* \"#utility.yul\":22396:22414   */\n      tag_426\n      tag_218\n      jump\t// in\n    tag_426:\n        /* \"#utility.yul\":22380:22416   */\n    tag_425:\n        /* \"#utility.yul\":22232:22423   */\n      swap3\n      swap2\n      pop\n      pop\n      jump\t// out\n        /* \"#utility.yul\":22429:22606   */\n    tag_229:\n        /* \"#utility.yul\":22569:22598   */\n      0x41756374696f6e2063616e6e6f7420626520656e646564207965740000000000\n        /* \"#utility.yul\":22565:22566   */\n      0x00\n        /* \"#utility.yul\":22557:22563   */\n      dup3\n        /* \"#utility.yul\":22553:22567   */\n      add\n        /* \"#utility.yul\":22546:22599   */\n      mstore\n        /* \"#utility.yul\":22429:22606   */\n      pop\n      jump\t// out\n        /* \"#utility.yul\":22612:22978   */\n    tag_230:\n        /* \"#utility.yul\":22754:22757   */\n      0x00\n        /* \"#utility.yul\":22775:22842   */\n      tag_429\n        /* \"#utility.yul\":22839:22841   */\n      0x1b\n        /* \"#utility.yul\":22834:22837   */\n      dup4\n        /* \"#utility.yul\":22775:22842   */\n      tag_198\n      jump\t// in\n    tag_429:\n        /* \"#utility.yul\":22768:22842   */\n      swap2\n      pop\n        /* \"#utility.yul\":22851:22944   */\n      tag_430\n        /* \"#utility.yul\":22940:22943   */\n      dup3\n        /* \"#utility.yul\":22851:22944   */\n      tag_229\n      jump\t// in\n    tag_430:\n        /* \"#utility.yul\":22969:22971   */\n      0x20\n        /* \"#utility.yul\":22964:22967   */\n      dup3\n        /* \"#utility.yul\":22960:22972   */\n      add\n        /* \"#utility.yul\":22953:22972   */\n      swap1\n      pop\n        /* \"#utility.yul\":22612:22978   */\n      swap2\n      swap1\n      pop\n      jump\t// out\n        /* \"#utility.yul\":22984:23403   */\n    tag_148:\n        /* \"#utility.yul\":23150:23154   */\n      0x00\n        /* \"#utility.yul\":23188:23190   */\n      0x20\n        /* \"#utility.yul\":23177:23186   */\n      dup3\n        /* \"#utility.yul\":23173:23191   */\n      add\n        /* \"#utility.yul\":23165:23191   */\n      swap1\n      pop\n        /* \"#utility.yul\":23237:23246   */\n      dup2\n        /* \"#utility.yul\":23231:23235   */\n      dup2\n        /* \"#utility.yul\":23227:23247   */\n      sub\n        /* \"#utility.yul\":23223:23224   */\n      0x00\n        /* \"#utility.yul\":23212:23221   */\n      dup4\n        /* \"#utility.yul\":23208:23225   */\n      add\n        /* \"#utility.yul\":23201:23248   */\n      mstore\n        /* \"#utility.yul\":23265:23396   */\n      tag_432\n        /* \"#utility.yul\":23391:23395   */\n      dup2\n        /* \"#utility.yul\":23265:23396   */\n      tag_230\n      jump\t// in\n    tag_432:\n        /* \"#utility.yul\":23257:23396   */\n      swap1\n      pop\n        /* \"#utility.yul\":22984:23403   */\n      swap2\n      swap1\n      pop\n      jump\t// out\n        /* \"#utility.yul\":23409:23584   */\n    tag_231:\n        /* \"#utility.yul\":23549:23576   */\n      0x41756374696f6e2068617320616c726561647920656e64656400000000000000\n        /* \"#utility.yul\":23545:23546   */\n      0x00\n        /* \"#utility.yul\":23537:23543   */\n      dup3\n        /* \"#utility.yul\":23533:23547   */\n      add\n        /* \"#utility.yul\":23526:23577   */\n      mstore\n        /* \"#utility.yul\":23409:23584   */\n      pop\n      jump\t// out\n        /* \"#utility.yul\":23590:23956   */\n    tag_232:\n        /* \"#utility.yul\":23732:23735   */\n      0x00\n        /* \"#utility.yul\":23753:23820   */\n      tag_435\n        /* \"#utility.yul\":23817:23819   */\n      0x19\n        /* \"#utility.yul\":23812:23815   */\n      dup4\n        /* \"#utility.yul\":23753:23820   */\n      tag_198\n      jump\t// in\n    tag_435:\n        /* \"#utility.yul\":23746:23820   */\n      swap2\n      pop\n        /* \"#utility.yul\":23829:23922   */\n      tag_436\n        /* \"#utility.yul\":23918:23921   */\n      dup3\n        /* \"#utility.yul\":23829:23922   */\n      tag_231\n      jump\t// in\n    tag_436:\n        /* \"#utility.yul\":23947:23949   */\n      0x20\n        /* \"#utility.yul\":23942:23945   */\n      dup3\n        /* \"#utility.yul\":23938:23950   */\n      add\n        /* \"#utility.yul\":23931:23950   */\n      swap1\n      pop\n        /* \"#utility.yul\":23590:23956   */\n      swap2\n      swap1\n      pop\n      jump\t// out\n        /* \"#utility.yul\":23962:24381   */\n    tag_151:\n        /* \"#utility.yul\":24128:24132   */\n      0x00\n        /* \"#utility.yul\":24166:24168   */\n      0x20\n        /* \"#utility.yul\":24155:24164   */\n      dup3\n        /* \"#utility.yul\":24151:24169   */\n      add\n        /* \"#utility.yul\":24143:24169   */\n      swap1\n      pop\n        /* \"#utility.yul\":24215:24224   */\n      dup2\n        /* \"#utility.yul\":24209:24213   */\n      dup2\n        /* \"#utility.yul\":24205:24225   */\n      sub\n        /* \"#utility.yul\":24201:24202   */\n      0x00\n        /* \"#utility.yul\":24190:24199   */\n      dup4\n        /* \"#utility.yul\":24186:24203   */\n      add\n        /* \"#utility.yul\":24179:24226   */\n      mstore\n        /* \"#utility.yul\":24243:24374   */\n      tag_438\n        /* \"#utility.yul\":24369:24373   */\n      dup2\n        /* \"#utility.yul\":24243:24374   */\n      tag_232\n      jump\t// in\n    tag_438:\n        /* \"#utility.yul\":24235:24374   */\n      swap1\n      pop\n        /* \"#utility.yul\":23962:24381   */\n      swap2\n      swap1\n      pop\n      jump\t// out\n        /* \"#utility.yul\":24387:24447   */\n    tag_233:\n        /* \"#utility.yul\":24415:24418   */\n      0x00\n        /* \"#utility.yul\":24436:24441   */\n      dup2\n        /* \"#utility.yul\":24429:24441   */\n      swap1\n      pop\n        /* \"#utility.yul\":24387:24447   */\n      swap2\n      swap1\n      pop\n      jump\t// out\n        /* \"#utility.yul\":24453:24595   */\n    tag_234:\n        /* \"#utility.yul\":24503:24512   */\n      0x00\n        /* \"#utility.yul\":24536:24589   */\n      tag_441\n        /* \"#utility.yul\":24554:24588   */\n      tag_442\n        /* \"#utility.yul\":24563:24587   */\n      tag_443\n        /* \"#utility.yul\":24581:24586   */\n      dup5\n        /* \"#utility.yul\":24563:24587   */\n      tag_188\n      jump\t// in\n    tag_443:\n        /* \"#utility.yul\":24554:24588   */\n      tag_233\n      jump\t// in\n    tag_442:\n        /* \"#utility.yul\":24536:24589   */\n      tag_188\n      jump\t// in\n    tag_441:\n        /* \"#utility.yul\":24523:24589   */\n      swap1\n      pop\n        /* \"#utility.yul\":24453:24595   */\n      swap2\n      swap1\n      pop\n      jump\t// out\n        /* \"#utility.yul\":24601:24727   */\n    tag_235:\n        /* \"#utility.yul\":24651:24660   */\n      0x00\n        /* \"#utility.yul\":24684:24721   */\n      tag_445\n        /* \"#utility.yul\":24715:24720   */\n      dup3\n        /* \"#utility.yul\":24684:24721   */\n      tag_234\n      jump\t// in\n    tag_445:\n        /* \"#utility.yul\":24671:24721   */\n      swap1\n      pop\n        /* \"#utility.yul\":24601:24727   */\n      swap2\n      swap1\n      pop\n      jump\t// out\n        /* \"#utility.yul\":24733:24867   */\n    tag_236:\n        /* \"#utility.yul\":24791:24800   */\n      0x00\n        /* \"#utility.yul\":24824:24861   */\n      tag_447\n        /* \"#utility.yul\":24855:24860   */\n      dup3\n        /* \"#utility.yul\":24824:24861   */\n      tag_235\n      jump\t// in\n    tag_447:\n        /* \"#utility.yul\":24811:24861   */\n      swap1\n      pop\n        /* \"#utility.yul\":24733:24867   */\n      swap2\n      swap1\n      pop\n      jump\t// out\n        /* \"#utility.yul\":24873:25020   */\n    tag_237:\n        /* \"#utility.yul\":24968:25013   */\n      tag_449\n        /* \"#utility.yul\":25007:25012   */\n      dup2\n        /* \"#utility.yul\":24968:25013   */\n      tag_236\n      jump\t// in\n    tag_449:\n        /* \"#utility.yul\":24963:24966   */\n      dup3\n        /* \"#utility.yul\":24956:25014   */\n      mstore\n        /* \"#utility.yul\":24873:25020   */\n      pop\n      pop\n      jump\t// out\n        /* \"#utility.yul\":25026:25484   */\n    tag_154:\n        /* \"#utility.yul\":25183:25187   */\n      0x00\n        /* \"#utility.yul\":25221:25223   */\n      0x60\n        /* \"#utility.yul\":25210:25219   */\n      dup3\n        /* \"#utility.yul\":25206:25224   */\n      add\n        /* \"#utility.yul\":25198:25224   */\n      swap1\n      pop\n        /* \"#utility.yul\":25234:25305   */\n      tag_451\n        /* \"#utility.yul\":25302:25303   */\n      0x00\n        /* \"#utility.yul\":25291:25300   */\n      dup4\n        /* \"#utility.yul\":25287:25304   */\n      add\n        /* \"#utility.yul\":25278:25284   */\n      dup7\n        /* \"#utility.yul\":25234:25305   */\n      tag_193\n      jump\t// in\n    tag_451:\n        /* \"#utility.yul\":25315:25395   */\n      tag_452\n        /* \"#utility.yul\":25391:25393   */\n      0x20\n        /* \"#utility.yul\":25380:25389   */\n      dup4\n        /* \"#utility.yul\":25376:25394   */\n      add\n        /* \"#utility.yul\":25367:25373   */\n      dup6\n        /* \"#utility.yul\":25315:25395   */\n      tag_237\n      jump\t// in\n    tag_452:\n        /* \"#utility.yul\":25405:25477   */\n      tag_453\n        /* \"#utility.yul\":25473:25475   */\n      0x40\n        /* \"#utility.yul\":25462:25471   */\n      dup4\n        /* \"#utility.yul\":25458:25476   */\n      add\n        /* \"#utility.yul\":25449:25455   */\n      dup5\n        /* \"#utility.yul\":25405:25477   */\n      tag_192\n      jump\t// in\n    tag_453:\n        /* \"#utility.yul\":25026:25484   */\n      swap5\n      swap4\n      pop\n      pop\n      pop\n      pop\n      jump\t// out\n        /* \"#utility.yul\":25490:25575   */\n    tag_238:\n        /* \"#utility.yul\":25535:25542   */\n      0x00\n        /* \"#utility.yul\":25564:25569   */\n      dup2\n        /* \"#utility.yul\":25553:25569   */\n      swap1\n      pop\n        /* \"#utility.yul\":25490:25575   */\n      swap2\n      swap1\n      pop\n      jump\t// out\n        /* \"#utility.yul\":25581:25739   */\n    tag_239:\n        /* \"#utility.yul\":25639:25648   */\n      0x00\n        /* \"#utility.yul\":25672:25733   */\n      tag_456\n        /* \"#utility.yul\":25690:25732   */\n      tag_457\n        /* \"#utility.yul\":25699:25731   */\n      tag_458\n        /* \"#utility.yul\":25725:25730   */\n      dup5\n        /* \"#utility.yul\":25699:25731   */\n      tag_238\n      jump\t// in\n    tag_458:\n        /* \"#utility.yul\":25690:25732   */\n      tag_233\n      jump\t// in\n    tag_457:\n        /* \"#utility.yul\":25672:25733   */\n      tag_185\n      jump\t// in\n    tag_456:\n        /* \"#utility.yul\":25659:25733   */\n      swap1\n      pop\n        /* \"#utility.yul\":25581:25739   */\n      swap2\n      swap1\n      pop\n      jump\t// out\n        /* \"#utility.yul\":25745:25892   */\n    tag_240:\n        /* \"#utility.yul\":25840:25885   */\n      tag_460\n        /* \"#utility.yul\":25879:25884   */\n      dup2\n        /* \"#utility.yul\":25840:25885   */\n      tag_239\n      jump\t// in\n    tag_460:\n        /* \"#utility.yul\":25835:25838   */\n      dup3\n        /* \"#utility.yul\":25828:25886   */\n      mstore\n        /* \"#utility.yul\":25745:25892   */\n      pop\n      pop\n      jump\t// out\n        /* \"#utility.yul\":25898:26136   */\n    tag_167:\n        /* \"#utility.yul\":25999:26003   */\n      0x00\n        /* \"#utility.yul\":26037:26039   */\n      0x20\n        /* \"#utility.yul\":26026:26035   */\n      dup3\n        /* \"#utility.yul\":26022:26040   */\n      add\n        /* \"#utility.yul\":26014:26040   */\n      swap1\n      pop\n        /* \"#utility.yul\":26050:26129   */\n      tag_462\n        /* \"#utility.yul\":26126:26127   */\n      0x00\n        /* \"#utility.yul\":26115:26124   */\n      dup4\n        /* \"#utility.yul\":26111:26128   */\n      add\n        /* \"#utility.yul\":26102:26108   */\n      dup5\n        /* \"#utility.yul\":26050:26129   */\n      tag_240\n      jump\t// in\n    tag_462:\n        /* \"#utility.yul\":25898:26136   */\n      swap3\n      swap2\n      pop\n      pop\n      jump\t// out\n        /* \"#utility.yul\":26142:26323   */\n    tag_241:\n        /* \"#utility.yul\":26282:26315   */\n      0x5265656e7472616e637947756172643a207265656e7472616e742063616c6c00\n        /* \"#utility.yul\":26278:26279   */\n      0x00\n        /* \"#utility.yul\":26270:26276   */\n      dup3\n        /* \"#utility.yul\":26266:26280   */\n      add\n        /* \"#utility.yul\":26259:26316   */\n      mstore\n        /* \"#utility.yul\":26142:26323   */\n      pop\n      jump\t// out\n        /* \"#utility.yul\":26329:26695   */\n    tag_242:\n        /* \"#utility.yul\":26471:26474   */\n      0x00\n        /* \"#utility.yul\":26492:26559   */\n      tag_465\n        /* \"#utility.yul\":26556:26558   */\n      0x1f\n        /* \"#utility.yul\":26551:26554   */\n      dup4\n        /* \"#utility.yul\":26492:26559   */\n      tag_198\n      jump\t// in\n    tag_465:\n        /* \"#utility.yul\":26485:26559   */\n      swap2\n      pop\n        /* \"#utility.yul\":26568:26661   */\n      tag_466\n        /* \"#utility.yul\":26657:26660   */\n      dup3\n        /* \"#utility.yul\":26568:26661   */\n      tag_241\n      jump\t// in\n    tag_466:\n        /* \"#utility.yul\":26686:26688   */\n      0x20\n        /* \"#utility.yul\":26681:26684   */\n      dup3\n        /* \"#utility.yul\":26677:26689   */\n      add\n        /* \"#utility.yul\":26670:26689   */\n      swap1\n      pop\n        /* \"#utility.yul\":26329:26695   */\n      swap2\n      swap1\n      pop\n      jump\t// out\n        /* \"#utility.yul\":26701:27120   */\n    tag_180:\n        /* \"#utility.yul\":26867:26871   */\n      0x00\n        /* \"#utility.yul\":26905:26907   */\n      0x20\n        /* \"#utility.yul\":26894:26903   */\n      dup3\n        /* \"#utility.yul\":26890:26908   */\n      add\n        /* \"#utility.yul\":26882:26908   */\n      swap1\n      pop\n        /* \"#utility.yul\":26954:26963   */\n      dup2\n        /* \"#utility.yul\":26948:26952   */\n      dup2\n        /* \"#utility.yul\":26944:26964   */\n      sub\n        /* \"#utility.yul\":26940:26941   */\n      0x00\n        /* \"#utility.yul\":26929:26938   */\n      dup4\n        /* \"#utility.yul\":26925:26942   */\n      add\n        /* \"#utility.yul\":26918:26965   */\n      mstore\n        /* \"#utility.yul\":26982:27113   */\n      tag_468\n        /* \"#utility.yul\":27108:27112   */\n      dup2\n        /* \"#utility.yul\":26982:27113   */\n      tag_242\n      jump\t// in\n    tag_468:\n        /* \"#utility.yul\":26974:27113   */\n      swap1\n      pop\n        /* \"#utility.yul\":26701:27120   */\n      swap2\n      swap1\n      pop\n      jump\t// out\n\n    auxdata: 0xa26469706673582212205e64eae301d8367681d44ceea39813107cfcaa02dec4e1d7d1ffd6924d2a6c5164736f6c634300081a0033\n}\n",
				"bytecode": {
					"linkReferences": {},
					"object": "6080604052348015600e575f80fd5b5060015f819055506121cd806100235f395ff3fe608060405260043610610085575f3560e01c80639979ef45116100585780639979ef4514610159578063a7e7664414610175578063b9a2de3a1461019f578063e746443b146101c7578063f20e5e351461020357610085565b80632e1a7d4d146100895780632ea54762146100b15780633f1ffcec146100d9578063571a26a014610115575b5f80fd5b348015610094575f80fd5b506100af60048036038101906100aa91906114a6565b610247565b005b3480156100bc575f80fd5b506100d760048036038101906100d2919061152b565b610476565b005b3480156100e4575f80fd5b506100ff60048036038101906100fa91906115a2565b610990565b60405161010c91906115ef565b60405180910390f35b348015610120575f80fd5b5061013b600480360381019061013691906114a6565b6109b0565b60405161015099989796959493929190611651565b60405180910390f35b610173600480360381019061016e91906114a6565b610a63565b005b348015610180575f80fd5b50610189610dcf565b60405161019691906115ef565b60405180910390f35b3480156101aa575f80fd5b506101c560048036038101906101c091906114a6565b610dd5565b005b3480156101d2575f80fd5b506101ed60048036038101906101e891906115a2565b611265565b6040516101fa91906115ef565b60405180910390f35b34801561020e575f80fd5b50610229600480360381019061022491906114a6565b611301565b60405161023e999897969594939291906116dc565b60405180910390f35b61024f611419565b806003548110610294576040517f08c379a000000000000000000000000000000000000000000000000000000000815260040161028b906117c1565b60405180910390fd5b60015f8381526020019081526020015f206008015f9054906101000a900460ff166102f4576040517f08c379a00000000000000000000000000000000000000000000000000000000081526004016102eb90611829565b60405180910390fd5b5f60025f8481526020019081526020015f205f3373ffffffffffffffffffffffffffffffffffffffff1673ffffffffffffffffffffffffffffffffffffffff1681526020019081526020015f205490505f8111610386576040517f08c379a000000000000000000000000000000000000000000000000000000000815260040161037d90611891565b60405180910390fd5b5f60025f8581526020019081526020015f205f3373ffffffffffffffffffffffffffffffffffffffff1673ffffffffffffffffffffffffffffffffffffffff1681526020019081526020015f20819055503373ffffffffffffffffffffffffffffffffffffffff166108fc8290811502906040515f60405180830381858888f1935050505015801561041a573d5f803e3d5ffd5b503373ffffffffffffffffffffffffffffffffffffffff167f7fcf532c15f0a6db0bd6d0e038bea71d30d808c7d98cb3bf7268a95bf5081b658260405161046191906115ef565b60405180910390a25050610473611466565b50565b4282116104b8576040517f08c379a00000000000000000000000000000000000000000000000000000000081526004016104af906118f9565b60405180910390fd5b8181116104fa576040517f08c379a00000000000000000000000000000000000000000000000000000000081526004016104f190611987565b60405180910390fd5b5f831161053c576040517f08c379a000000000000000000000000000000000000000000000000000000000815260040161053390611a15565b60405180910390fd5b5f8590503373ffffffffffffffffffffffffffffffffffffffff168173ffffffffffffffffffffffffffffffffffffffff16636352211e876040518263ffffffff1660e01b815260040161059091906115ef565b602060405180830381865afa1580156105ab573d5f803e3d5ffd5b505050506040513d601f19601f820116820180604052508101906105cf9190611a47565b73ffffffffffffffffffffffffffffffffffffffff1614610625576040517f08c379a000000000000000000000000000000000000000000000000000000000815260040161061c90611ae2565b60405180910390fd5b8073ffffffffffffffffffffffffffffffffffffffff1663e985e9c533306040518363ffffffff1660e01b8152600401610660929190611b00565b602060405180830381865afa15801561067b573d5f803e3d5ffd5b505050506040513d601f19601f8201168201806040525081019061069f9190611b51565b6106de576040517f08c379a00000000000000000000000000000000000000000000000000000000081526004016106d590611bec565b60405180910390fd5b5f60035f8154809291906106f190611c37565b9190505590506040518061012001604052808873ffffffffffffffffffffffffffffffffffffffff1681526020018781526020013373ffffffffffffffffffffffffffffffffffffffff1681526020018681526020015f81526020015f73ffffffffffffffffffffffffffffffffffffffff1681526020018581526020018481526020015f151581525060015f8381526020019081526020015f205f820151815f015f6101000a81548173ffffffffffffffffffffffffffffffffffffffff021916908373ffffffffffffffffffffffffffffffffffffffff160217905550602082015181600101556040820151816002015f6101000a81548173ffffffffffffffffffffffffffffffffffffffff021916908373ffffffffffffffffffffffffffffffffffffffff160217905550606082015181600301556080820151816004015560a0820151816005015f6101000a81548173ffffffffffffffffffffffffffffffffffffffff021916908373ffffffffffffffffffffffffffffffffffffffff16021790555060c0820151816006015560e08201518160070155610100820151816008015f6101000a81548160ff0219169083151502179055509050508173ffffffffffffffffffffffffffffffffffffffff166323b872dd3330896040518463ffffffff1660e01b81526004016108ee93929190611c7e565b5f604051808303815f87803b158015610905575f80fd5b505af1158015610917573d5f803e3d5ffd5b505050508673ffffffffffffffffffffffffffffffffffffffff163373ffffffffffffffffffffffffffffffffffffffff16827fcaf0ae751fb2b122e8718bf7c0d4b7584d1418a853a4d0cdaba45418d3da138b8989898960405161097f9493929190611cb3565b60405180910390a450505050505050565b6002602052815f5260405f20602052805f5260405f205f91509150505481565b6001602052805f5260405f205f91509050805f015f9054906101000a900473ffffffffffffffffffffffffffffffffffffffff1690806001015490806002015f9054906101000a900473ffffffffffffffffffffffffffffffffffffffff1690806003015490806004015490806005015f9054906101000a900473ffffffffffffffffffffffffffffffffffffffff1690806006015490806007015490806008015f9054906101000a900460ff16905089565b610a6b611419565b806003548110610ab0576040517f08c379a0000000000000000000000000000000000000000000000000000000008152600401610aa7906117c1565b60405180910390fd5b8160015f8281526020019081526020015f2060060154421015610b08576040517f08c379a0000000000000000000000000000000000000000000000000000000008152600401610aff90611d40565b60405180910390fd5b60015f8281526020019081526020015f20600701544210610b5e576040517f08c379a0000000000000000000000000000000000000000000000000000000008152600401610b5590611da8565b60405180910390fd5b60015f8281526020019081526020015f206008015f9054906101000a900460ff1615610bbf576040517f08c379a0000000000000000000000000000000000000000000000000000000008152600401610bb690611e10565b60405180910390fd5b5f60015f8581526020019081526020015f2090508060030154341015610c1a576040517f08c379a0000000000000000000000000000000000000000000000000000000008152600401610c1190611e9e565b60405180910390fd5b80600401543411610c60576040517f08c379a0000000000000000000000000000000000000000000000000000000008152600401610c5790611f2c565b60405180910390fd5b5f816005015f9054906101000a900473ffffffffffffffffffffffffffffffffffffffff1690505f826004015490505f73ffffffffffffffffffffffffffffffffffffffff168273ffffffffffffffffffffffffffffffffffffffff1614610d25578060025f8881526020019081526020015f205f8473ffffffffffffffffffffffffffffffffffffffff1673ffffffffffffffffffffffffffffffffffffffff1681526020019081526020015f205f828254610d1d9190611f4a565b925050819055505b33836005015f6101000a81548173ffffffffffffffffffffffffffffffffffffffff021916908373ffffffffffffffffffffffffffffffffffffffff1602179055503483600401819055503373ffffffffffffffffffffffffffffffffffffffff16867f0e54eff26401bf69b81b26f60bd85ef47f5d85275c1d268d84f68d6897431c4734604051610db791906115ef565b60405180910390a35050505050610dcc611466565b50565b60035481565b610ddd611419565b806003548110610e22576040517f08c379a0000000000000000000000000000000000000000000000000000000008152600401610e19906117c1565b60405180910390fd5b5f60015f8481526020019081526020015f209050806007015442101580610e975750806002015f9054906101000a900473ffffffffffffffffffffffffffffffffffffffff1673ffffffffffffffffffffffffffffffffffffffff163373ffffffffffffffffffffffffffffffffffffffff16145b610ed6576040517f08c379a0000000000000000000000000000000000000000000000000000000008152600401610ecd90611fc7565b60405180910390fd5b806008015f9054906101000a900460ff1615610f27576040517f08c379a0000000000000000000000000000000000000000000000000000000008152600401610f1e9061202f565b60405180910390fd5b6001816008015f6101000a81548160ff0219169083151502179055505f73ffffffffffffffffffffffffffffffffffffffff16816005015f9054906101000a900473ffffffffffffffffffffffffffffffffffffffff1673ffffffffffffffffffffffffffffffffffffffff161461113257805f015f9054906101000a900473ffffffffffffffffffffffffffffffffffffffff1673ffffffffffffffffffffffffffffffffffffffff166323b872dd30836005015f9054906101000a900473ffffffffffffffffffffffffffffffffffffffff1684600101546040518463ffffffff1660e01b815260040161101f939291906120a8565b5f604051808303815f87803b158015611036575f80fd5b505af1158015611048573d5f803e3d5ffd5b50505050806002015f9054906101000a900473ffffffffffffffffffffffffffffffffffffffff1673ffffffffffffffffffffffffffffffffffffffff166108fc826004015490811502906040515f60405180830381858888f193505050501580156110b6573d5f803e3d5ffd5b50806005015f9054906101000a900473ffffffffffffffffffffffffffffffffffffffff1673ffffffffffffffffffffffffffffffffffffffff16837fd2aa34a4fdbbc6dff6a3e56f46e0f3ae2a31d7785ff3487aa5c95c642acea501836004015460405161112591906115ef565b60405180910390a3611258565b805f015f9054906101000a900473ffffffffffffffffffffffffffffffffffffffff1673ffffffffffffffffffffffffffffffffffffffff166323b872dd30836002015f9054906101000a900473ffffffffffffffffffffffffffffffffffffffff1684600101546040518463ffffffff1660e01b81526004016111b8939291906120a8565b5f604051808303815f87803b1580156111cf575f80fd5b505af11580156111e1573d5f803e3d5ffd5b50505050806002015f9054906101000a900473ffffffffffffffffffffffffffffffffffffffff1673ffffffffffffffffffffffffffffffffffffffff16837fd2aa34a4fdbbc6dff6a3e56f46e0f3ae2a31d7785ff3487aa5c95c642acea5015f60405161124f9190612116565b60405180910390a35b5050611262611466565b50565b5f8260035481106112ab576040517f08c379a00000000000000000000000000000000000000000000000000000000081526004016112a2906117c1565b60405180910390fd5b60025f8581526020019081526020015f205f8473ffffffffffffffffffffffffffffffffffffffff1673ffffffffffffffffffffffffffffffffffffffff1681526020019081526020015f205491505092915050565b5f805f805f805f805f89600354811061134f576040517f08c379a0000000000000000000000000000000000000000000000000000000008152600401611346906117c1565b60405180910390fd5b5f60015f8d81526020019081526020015f209050805f015f9054906101000a900473ffffffffffffffffffffffffffffffffffffffff168160010154826002015f9054906101000a900473ffffffffffffffffffffffffffffffffffffffff1683600301548460040154856005015f9054906101000a900473ffffffffffffffffffffffffffffffffffffffff1686600601548760070154886008015f9054906101000a900460ff169a509a509a509a509a509a509a509a509a5050509193959799909294969850565b60025f540361145d576040517f08c379a000000000000000000000000000000000000000000000000000000000815260040161145490612179565b60405180910390fd5b60025f81905550565b60015f81905550565b5f80fd5b5f819050919050565b61148581611473565b811461148f575f80fd5b50565b5f813590506114a08161147c565b92915050565b5f602082840312156114bb576114ba61146f565b5b5f6114c884828501611492565b91505092915050565b5f73ffffffffffffffffffffffffffffffffffffffff82169050919050565b5f6114fa826114d1565b9050919050565b61150a816114f0565b8114611514575f80fd5b50565b5f8135905061152581611501565b92915050565b5f805f805f60a086880312156115445761154361146f565b5b5f61155188828901611517565b955050602061156288828901611492565b945050604061157388828901611492565b935050606061158488828901611492565b925050608061159588828901611492565b9150509295509295909350565b5f80604083850312156115b8576115b761146f565b5b5f6115c585828601611492565b92505060206115d685828601611517565b9150509250929050565b6115e981611473565b82525050565b5f6020820190506116025f8301846115e0565b92915050565b611611816114f0565b82525050565b5f611621826114d1565b9050919050565b61163181611617565b82525050565b5f8115159050919050565b61164b81611637565b82525050565b5f610120820190506116655f83018c611608565b611672602083018b6115e0565b61167f604083018a611628565b61168c60608301896115e0565b61169960808301886115e0565b6116a660a0830187611628565b6116b360c08301866115e0565b6116c060e08301856115e0565b6116ce610100830184611642565b9a9950505050505050505050565b5f610120820190506116f05f83018c611608565b6116fd602083018b6115e0565b61170a604083018a611608565b61171760608301896115e0565b61172460808301886115e0565b61173160a0830187611608565b61173e60c08301866115e0565b61174b60e08301856115e0565b611759610100830184611642565b9a9950505050505050505050565b5f82825260208201905092915050565b7f41756374696f6e20646f6573206e6f74206578697374000000000000000000005f82015250565b5f6117ab601683611767565b91506117b682611777565b602082019050919050565b5f6020820190508181035f8301526117d88161179f565b9050919050565b7f41756374696f6e20686173206e6f7420656e64656420796574000000000000005f82015250565b5f611813601983611767565b915061181e826117df565b602082019050919050565b5f6020820190508181035f83015261184081611807565b9050919050565b7f4e6f2066756e647320746f2077697468647261770000000000000000000000005f82015250565b5f61187b601483611767565b915061188682611847565b602082019050919050565b5f6020820190508181035f8301526118a88161186f565b9050919050565b7f53746172742074696d65206d75737420626520696e20746865206675747572655f82015250565b5f6118e3602083611767565b91506118ee826118af565b602082019050919050565b5f6020820190508181035f830152611910816118d7565b9050919050565b7f456e642074696d65206d7573742062652061667465722073746172742074696d5f8201527f6500000000000000000000000000000000000000000000000000000000000000602082015250565b5f611971602183611767565b915061197c82611917565b604082019050919050565b5f6020820190508181035f83015261199e81611965565b9050919050565b7f4d696e696d756d20626964206d7573742062652067726561746572207468616e5f8201527f207a65726f000000000000000000000000000000000000000000000000000000602082015250565b5f6119ff602583611767565b9150611a0a826119a5565b604082019050919050565b5f6020820190508181035f830152611a2c816119f3565b9050919050565b5f81519050611a4181611501565b92915050565b5f60208284031215611a5c57611a5b61146f565b5b5f611a6984828501611a33565b91505092915050565b7f596f75206d757374206f776e20746865204e465420746f2061756374696f6e205f8201527f6974000000000000000000000000000000000000000000000000000000000000602082015250565b5f611acc602283611767565b9150611ad782611a72565b604082019050919050565b5f6020820190508181035f830152611af981611ac0565b9050919050565b5f604082019050611b135f830185611608565b611b206020830184611608565b9392505050565b611b3081611637565b8114611b3a575f80fd5b50565b5f81519050611b4b81611b27565b92915050565b5f60208284031215611b6657611b6561146f565b5b5f611b7384828501611b3d565b91505092915050565b7f436f6e7472616374206d75737420626520617070726f76656420746f207472615f8201527f6e7366657220746865204e465400000000000000000000000000000000000000602082015250565b5f611bd6602d83611767565b9150611be182611b7c565b604082019050919050565b5f6020820190508181035f830152611c0381611bca565b9050919050565b7f4e487b71000000000000000000000000000000000000000000000000000000005f52601160045260245ffd5b5f611c4182611473565b91507fffffffffffffffffffffffffffffffffffffffffffffffffffffffffffffffff8203611c7357611c72611c0a565b5b600182019050919050565b5f606082019050611c915f830186611608565b611c9e6020830185611608565b611cab60408301846115e0565b949350505050565b5f608082019050611cc65f8301876115e0565b611cd360208301866115e0565b611ce060408301856115e0565b611ced60608301846115e0565b95945050505050565b7f41756374696f6e20686173206e6f7420737461727465642079657400000000005f82015250565b5f611d2a601b83611767565b9150611d3582611cf6565b602082019050919050565b5f6020820190508181035f830152611d5781611d1e565b9050919050565b7f41756374696f6e2068617320656e6465640000000000000000000000000000005f82015250565b5f611d92601183611767565b9150611d9d82611d5e565b602082019050919050565b5f6020820190508181035f830152611dbf81611d86565b9050919050565b7f41756374696f6e2068617320616c7265616479206265656e20656e64656400005f82015250565b5f611dfa601e83611767565b9150611e0582611dc6565b602082019050919050565b5f6020820190508181035f830152611e2781611dee565b9050919050565b7f426964206d757374206265206174206c6561737420746865206d696e696d756d5f8201527f2062696420616d6f756e74000000000000000000000000000000000000000000602082015250565b5f611e88602b83611767565b9150611e9382611e2e565b604082019050919050565b5f6020820190508181035f830152611eb581611e7c565b9050919050565b7f426964206d75737420626520686967686572207468616e2074686520637572725f8201527f656e742068696768657374206269640000000000000000000000000000000000602082015250565b5f611f16602f83611767565b9150611f2182611ebc565b604082019050919050565b5f6020820190508181035f830152611f4381611f0a565b9050919050565b5f611f5482611473565b9150611f5f83611473565b9250828201905080821115611f7757611f76611c0a565b5b92915050565b7f41756374696f6e2063616e6e6f7420626520656e6465642079657400000000005f82015250565b5f611fb1601b83611767565b9150611fbc82611f7d565b602082019050919050565b5f6020820190508181035f830152611fde81611fa5565b9050919050565b7f41756374696f6e2068617320616c726561647920656e646564000000000000005f82015250565b5f612019601983611767565b915061202482611fe5565b602082019050919050565b5f6020820190508181035f8301526120468161200d565b9050919050565b5f819050919050565b5f61207061206b612066846114d1565b61204d565b6114d1565b9050919050565b5f61208182612056565b9050919050565b5f61209282612077565b9050919050565b6120a281612088565b82525050565b5f6060820190506120bb5f830186611608565b6120c86020830185612099565b6120d560408301846115e0565b949350505050565b5f819050919050565b5f6121006120fb6120f6846120dd565b61204d565b611473565b9050919050565b612110816120e6565b82525050565b5f6020820190506121295f830184612107565b92915050565b7f5265656e7472616e637947756172643a207265656e7472616e742063616c6c005f82015250565b5f612163601f83611767565b915061216e8261212f565b602082019050919050565b5f6020820190508181035f83015261219081612157565b905091905056fea26469706673582212205e64eae301d8367681d44ceea39813107cfcaa02dec4e1d7d1ffd6924d2a6c5164736f6c634300081a0033",
					"opcodes": "PUSH1 0x80 PUSH1 0x40 MSTORE CALLVALUE DUP1 ISZERO PUSH1 0xE JUMPI PUSH0 DUP1 REVERT JUMPDEST POP PUSH1 0x1 PUSH0 DUP2 SWAP1 SSTORE POP PUSH2 0x21CD DUP1 PUSH2 0x23 PUSH0 CODECOPY PUSH0 RETURN INVALID PUSH1 0x80 PUSH1 0x40 MSTORE PUSH1 0x4 CALLDATASIZE LT PUSH2 0x85 JUMPI PUSH0 CALLDATALOAD PUSH1 0xE0 SHR DUP1 PUSH4 0x9979EF45 GT PUSH2 0x58 JUMPI DUP1 PUSH4 0x9979EF45 EQ PUSH2 0x159 JUMPI DUP1 PUSH4 0xA7E76644 EQ PUSH2 0x175 JUMPI DUP1 PUSH4 0xB9A2DE3A EQ PUSH2 0x19F JUMPI DUP1 PUSH4 0xE746443B EQ PUSH2 0x1C7 JUMPI DUP1 PUSH4 0xF20E5E35 EQ PUSH2 0x203 JUMPI PUSH2 0x85 JUMP JUMPDEST DUP1 PUSH4 0x2E1A7D4D EQ PUSH2 0x89 JUMPI DUP1 PUSH4 0x2EA54762 EQ PUSH2 0xB1 JUMPI DUP1 PUSH4 0x3F1FFCEC EQ PUSH2 0xD9 JUMPI DUP1 PUSH4 0x571A26A0 EQ PUSH2 0x115 JUMPI JUMPDEST PUSH0 DUP1 REVERT JUMPDEST CALLVALUE DUP1 ISZERO PUSH2 0x94 JUMPI PUSH0 DUP1 REVERT JUMPDEST POP PUSH2 0xAF PUSH1 0x4 DUP1 CALLDATASIZE SUB DUP2 ADD SWAP1 PUSH2 0xAA SWAP2 SWAP1 PUSH2 0x14A6 JUMP JUMPDEST PUSH2 0x247 JUMP JUMPDEST STOP JUMPDEST CALLVALUE DUP1 ISZERO PUSH2 0xBC JUMPI PUSH0 DUP1 REVERT JUMPDEST POP PUSH2 0xD7 PUSH1 0x4 DUP1 CALLDATASIZE SUB DUP2 ADD SWAP1 PUSH2 0xD2 SWAP2 SWAP1 PUSH2 0x152B JUMP JUMPDEST PUSH2 0x476 JUMP JUMPDEST STOP JUMPDEST CALLVALUE DUP1 ISZERO PUSH2 0xE4 JUMPI PUSH0 DUP1 REVERT JUMPDEST POP PUSH2 0xFF PUSH1 0x4 DUP1 CALLDATASIZE SUB DUP2 ADD SWAP1 PUSH2 0xFA SWAP2 SWAP1 PUSH2 0x15A2 JUMP JUMPDEST PUSH2 0x990 JUMP JUMPDEST PUSH1 0x40 MLOAD PUSH2 0x10C SWAP2 SWAP1 PUSH2 0x15EF JUMP JUMPDEST PUSH1 0x40 MLOAD DUP1 SWAP2 SUB SWAP1 RETURN JUMPDEST CALLVALUE DUP1 ISZERO PUSH2 0x120 JUMPI PUSH0 DUP1 REVERT JUMPDEST POP PUSH2 0x13B PUSH1 0x4 DUP1 CALLDATASIZE SUB DUP2 ADD SWAP1 PUSH2 0x136 SWAP2 SWAP1 PUSH2 0x14A6 JUMP JUMPDEST PUSH2 0x9B0 JUMP JUMPDEST PUSH1 0x40 MLOAD PUSH2 0x150 SWAP10 SWAP9 SWAP8 SWAP7 SWAP6 SWAP5 SWAP4 SWAP3 SWAP2 SWAP1 PUSH2 0x1651 JUMP JUMPDEST PUSH1 0x40 MLOAD DUP1 SWAP2 SUB SWAP1 RETURN JUMPDEST PUSH2 0x173 PUSH1 0x4 DUP1 CALLDATASIZE SUB DUP2 ADD SWAP1 PUSH2 0x16E SWAP2 SWAP1 PUSH2 0x14A6 JUMP JUMPDEST PUSH2 0xA63 JUMP JUMPDEST STOP JUMPDEST CALLVALUE DUP1 ISZERO PUSH2 0x180 JUMPI PUSH0 DUP1 REVERT JUMPDEST POP PUSH2 0x189 PUSH2 0xDCF JUMP JUMPDEST PUSH1 0x40 MLOAD PUSH2 0x196 SWAP2 SWAP1 PUSH2 0x15EF JUMP JUMPDEST PUSH1 0x40 MLOAD DUP1 SWAP2 SUB SWAP1 RETURN JUMPDEST CALLVALUE DUP1 ISZERO PUSH2 0x1AA JUMPI PUSH0 DUP1 REVERT JUMPDEST POP PUSH2 0x1C5 PUSH1 0x4 DUP1 CALLDATASIZE SUB DUP2 ADD SWAP1 PUSH2 0x1C0 SWAP2 SWAP1 PUSH2 0x14A6 JUMP JUMPDEST PUSH2 0xDD5 JUMP JUMPDEST STOP JUMPDEST CALLVALUE DUP1 ISZERO PUSH2 0x1D2 JUMPI PUSH0 DUP1 REVERT JUMPDEST POP PUSH2 0x1ED PUSH1 0x4 DUP1 CALLDATASIZE SUB DUP2 ADD SWAP1 PUSH2 0x1E8 SWAP2 SWAP1 PUSH2 0x15A2 JUMP JUMPDEST PUSH2 0x1265 JUMP JUMPDEST PUSH1 0x40 MLOAD PUSH2 0x1FA SWAP2 SWAP1 PUSH2 0x15EF JUMP JUMPDEST PUSH1 0x40 MLOAD DUP1 SWAP2 SUB SWAP1 RETURN JUMPDEST CALLVALUE DUP1 ISZERO PUSH2 0x20E JUMPI PUSH0 DUP1 REVERT JUMPDEST POP PUSH2 0x229 PUSH1 0x4 DUP1 CALLDATASIZE SUB DUP2 ADD SWAP1 PUSH2 0x224 SWAP2 SWAP1 PUSH2 0x14A6 JUMP JUMPDEST PUSH2 0x1301 JUMP JUMPDEST PUSH1 0x40 MLOAD PUSH2 0x23E SWAP10 SWAP9 SWAP8 SWAP7 SWAP6 SWAP5 SWAP4 SWAP3 SWAP2 SWAP1 PUSH2 0x16DC JUMP JUMPDEST PUSH1 0x40 MLOAD DUP1 SWAP2 SUB SWAP1 RETURN JUMPDEST PUSH2 0x24F PUSH2 0x1419 JUMP JUMPDEST DUP1 PUSH1 0x3 SLOAD DUP2 LT PUSH2 0x294 JUMPI PUSH1 0x40 MLOAD PUSH32 0x8C379A000000000000000000000000000000000000000000000000000000000 DUP2 MSTORE PUSH1 0x4 ADD PUSH2 0x28B SWAP1 PUSH2 0x17C1 JUMP JUMPDEST PUSH1 0x40 MLOAD DUP1 SWAP2 SUB SWAP1 REVERT JUMPDEST PUSH1 0x1 PUSH0 DUP4 DUP2 MSTORE PUSH1 0x20 ADD SWAP1 DUP2 MSTORE PUSH1 0x20 ADD PUSH0 KECCAK256 PUSH1 0x8 ADD PUSH0 SWAP1 SLOAD SWAP1 PUSH2 0x100 EXP SWAP1 DIV PUSH1 0xFF AND PUSH2 0x2F4 JUMPI PUSH1 0x40 MLOAD PUSH32 0x8C379A000000000000000000000000000000000000000000000000000000000 DUP2 MSTORE PUSH1 0x4 ADD PUSH2 0x2EB SWAP1 PUSH2 0x1829 JUMP JUMPDEST PUSH1 0x40 MLOAD DUP1 SWAP2 SUB SWAP1 REVERT JUMPDEST PUSH0 PUSH1 0x2 PUSH0 DUP5 DUP2 MSTORE PUSH1 0x20 ADD SWAP1 DUP2 MSTORE PUSH1 0x20 ADD PUSH0 KECCAK256 PUSH0 CALLER PUSH20 0xFFFFFFFFFFFFFFFFFFFFFFFFFFFFFFFFFFFFFFFF AND PUSH20 0xFFFFFFFFFFFFFFFFFFFFFFFFFFFFFFFFFFFFFFFF AND DUP2 MSTORE PUSH1 0x20 ADD SWAP1 DUP2 MSTORE PUSH1 0x20 ADD PUSH0 KECCAK256 SLOAD SWAP1 POP PUSH0 DUP2 GT PUSH2 0x386 JUMPI PUSH1 0x40 MLOAD PUSH32 0x8C379A000000000000000000000000000000000000000000000000000000000 DUP2 MSTORE PUSH1 0x4 ADD PUSH2 0x37D SWAP1 PUSH2 0x1891 JUMP JUMPDEST PUSH1 0x40 MLOAD DUP1 SWAP2 SUB SWAP1 REVERT JUMPDEST PUSH0 PUSH1 0x2 PUSH0 DUP6 DUP2 MSTORE PUSH1 0x20 ADD SWAP1 DUP2 MSTORE PUSH1 0x20 ADD PUSH0 KECCAK256 PUSH0 CALLER PUSH20 0xFFFFFFFFFFFFFFFFFFFFFFFFFFFFFFFFFFFFFFFF AND PUSH20 0xFFFFFFFFFFFFFFFFFFFFFFFFFFFFFFFFFFFFFFFF AND DUP2 MSTORE PUSH1 0x20 ADD SWAP1 DUP2 MSTORE PUSH1 0x20 ADD PUSH0 KECCAK256 DUP2 SWAP1 SSTORE POP CALLER PUSH20 0xFFFFFFFFFFFFFFFFFFFFFFFFFFFFFFFFFFFFFFFF AND PUSH2 0x8FC DUP3 SWAP1 DUP2 ISZERO MUL SWAP1 PUSH1 0x40 MLOAD PUSH0 PUSH1 0x40 MLOAD DUP1 DUP4 SUB DUP2 DUP6 DUP9 DUP9 CALL SWAP4 POP POP POP POP ISZERO DUP1 ISZERO PUSH2 0x41A JUMPI RETURNDATASIZE PUSH0 DUP1 RETURNDATACOPY RETURNDATASIZE PUSH0 REVERT JUMPDEST POP CALLER PUSH20 0xFFFFFFFFFFFFFFFFFFFFFFFFFFFFFFFFFFFFFFFF AND PUSH32 0x7FCF532C15F0A6DB0BD6D0E038BEA71D30D808C7D98CB3BF7268A95BF5081B65 DUP3 PUSH1 0x40 MLOAD PUSH2 0x461 SWAP2 SWAP1 PUSH2 0x15EF JUMP JUMPDEST PUSH1 0x40 MLOAD DUP1 SWAP2 SUB SWAP1 LOG2 POP POP PUSH2 0x473 PUSH2 0x1466 JUMP JUMPDEST POP JUMP JUMPDEST TIMESTAMP DUP3 GT PUSH2 0x4B8 JUMPI PUSH1 0x40 MLOAD PUSH32 0x8C379A000000000000000000000000000000000000000000000000000000000 DUP2 MSTORE PUSH1 0x4 ADD PUSH2 0x4AF SWAP1 PUSH2 0x18F9 JUMP JUMPDEST PUSH1 0x40 MLOAD DUP1 SWAP2 SUB SWAP1 REVERT JUMPDEST DUP2 DUP2 GT PUSH2 0x4FA JUMPI PUSH1 0x40 MLOAD PUSH32 0x8C379A000000000000000000000000000000000000000000000000000000000 DUP2 MSTORE PUSH1 0x4 ADD PUSH2 0x4F1 SWAP1 PUSH2 0x1987 JUMP JUMPDEST PUSH1 0x40 MLOAD DUP1 SWAP2 SUB SWAP1 REVERT JUMPDEST PUSH0 DUP4 GT PUSH2 0x53C JUMPI PUSH1 0x40 MLOAD PUSH32 0x8C379A000000000000000000000000000000000000000000000000000000000 DUP2 MSTORE PUSH1 0x4 ADD PUSH2 0x533 SWAP1 PUSH2 0x1A15 JUMP JUMPDEST PUSH1 0x40 MLOAD DUP1 SWAP2 SUB SWAP1 REVERT JUMPDEST PUSH0 DUP6 SWAP1 POP CALLER PUSH20 0xFFFFFFFFFFFFFFFFFFFFFFFFFFFFFFFFFFFFFFFF AND DUP2 PUSH20 0xFFFFFFFFFFFFFFFFFFFFFFFFFFFFFFFFFFFFFFFF AND PUSH4 0x6352211E DUP8 PUSH1 0x40 MLOAD DUP3 PUSH4 0xFFFFFFFF AND PUSH1 0xE0 SHL DUP2 MSTORE PUSH1 0x4 ADD PUSH2 0x590 SWAP2 SWAP1 PUSH2 0x15EF JUMP JUMPDEST PUSH1 0x20 PUSH1 0x40 MLOAD DUP1 DUP4 SUB DUP2 DUP7 GAS STATICCALL ISZERO DUP1 ISZERO PUSH2 0x5AB JUMPI RETURNDATASIZE PUSH0 DUP1 RETURNDATACOPY RETURNDATASIZE PUSH0 REVERT JUMPDEST POP POP POP POP PUSH1 0x40 MLOAD RETURNDATASIZE PUSH1 0x1F NOT PUSH1 0x1F DUP3 ADD AND DUP3 ADD DUP1 PUSH1 0x40 MSTORE POP DUP2 ADD SWAP1 PUSH2 0x5CF SWAP2 SWAP1 PUSH2 0x1A47 JUMP JUMPDEST PUSH20 0xFFFFFFFFFFFFFFFFFFFFFFFFFFFFFFFFFFFFFFFF AND EQ PUSH2 0x625 JUMPI PUSH1 0x40 MLOAD PUSH32 0x8C379A000000000000000000000000000000000000000000000000000000000 DUP2 MSTORE PUSH1 0x4 ADD PUSH2 0x61C SWAP1 PUSH2 0x1AE2 JUMP JUMPDEST PUSH1 0x40 MLOAD DUP1 SWAP2 SUB SWAP1 REVERT JUMPDEST DUP1 PUSH20 0xFFFFFFFFFFFFFFFFFFFFFFFFFFFFFFFFFFFFFFFF AND PUSH4 0xE985E9C5 CALLER ADDRESS PUSH1 0x40 MLOAD DUP4 PUSH4 0xFFFFFFFF AND PUSH1 0xE0 SHL DUP2 MSTORE PUSH1 0x4 ADD PUSH2 0x660 SWAP3 SWAP2 SWAP1 PUSH2 0x1B00 JUMP JUMPDEST PUSH1 0x20 PUSH1 0x40 MLOAD DUP1 DUP4 SUB DUP2 DUP7 GAS STATICCALL ISZERO DUP1 ISZERO PUSH2 0x67B JUMPI RETURNDATASIZE PUSH0 DUP1 RETURNDATACOPY RETURNDATASIZE PUSH0 REVERT JUMPDEST POP POP POP POP PUSH1 0x40 MLOAD RETURNDATASIZE PUSH1 0x1F NOT PUSH1 0x1F DUP3 ADD AND DUP3 ADD DUP1 PUSH1 0x40 MSTORE POP DUP2 ADD SWAP1 PUSH2 0x69F SWAP2 SWAP1 PUSH2 0x1B51 JUMP JUMPDEST PUSH2 0x6DE JUMPI PUSH1 0x40 MLOAD PUSH32 0x8C379A000000000000000000000000000000000000000000000000000000000 DUP2 MSTORE PUSH1 0x4 ADD PUSH2 0x6D5 SWAP1 PUSH2 0x1BEC JUMP JUMPDEST PUSH1 0x40 MLOAD DUP1 SWAP2 SUB SWAP1 REVERT JUMPDEST PUSH0 PUSH1 0x3 PUSH0 DUP2 SLOAD DUP1 SWAP3 SWAP2 SWAP1 PUSH2 0x6F1 SWAP1 PUSH2 0x1C37 JUMP JUMPDEST SWAP2 SWAP1 POP SSTORE SWAP1 POP PUSH1 0x40 MLOAD DUP1 PUSH2 0x120 ADD PUSH1 0x40 MSTORE DUP1 DUP9 PUSH20 0xFFFFFFFFFFFFFFFFFFFFFFFFFFFFFFFFFFFFFFFF AND DUP2 MSTORE PUSH1 0x20 ADD DUP8 DUP2 MSTORE PUSH1 0x20 ADD CALLER PUSH20 0xFFFFFFFFFFFFFFFFFFFFFFFFFFFFFFFFFFFFFFFF AND DUP2 MSTORE PUSH1 0x20 ADD DUP7 DUP2 MSTORE PUSH1 0x20 ADD PUSH0 DUP2 MSTORE PUSH1 0x20 ADD PUSH0 PUSH20 0xFFFFFFFFFFFFFFFFFFFFFFFFFFFFFFFFFFFFFFFF AND DUP2 MSTORE PUSH1 0x20 ADD DUP6 DUP2 MSTORE PUSH1 0x20 ADD DUP5 DUP2 MSTORE PUSH1 0x20 ADD PUSH0 ISZERO ISZERO DUP2 MSTORE POP PUSH1 0x1 PUSH0 DUP4 DUP2 MSTORE PUSH1 0x20 ADD SWAP1 DUP2 MSTORE PUSH1 0x20 ADD PUSH0 KECCAK256 PUSH0 DUP3 ADD MLOAD DUP2 PUSH0 ADD PUSH0 PUSH2 0x100 EXP DUP2 SLOAD DUP2 PUSH20 0xFFFFFFFFFFFFFFFFFFFFFFFFFFFFFFFFFFFFFFFF MUL NOT AND SWAP1 DUP4 PUSH20 0xFFFFFFFFFFFFFFFFFFFFFFFFFFFFFFFFFFFFFFFF AND MUL OR SWAP1 SSTORE POP PUSH1 0x20 DUP3 ADD MLOAD DUP2 PUSH1 0x1 ADD SSTORE PUSH1 0x40 DUP3 ADD MLOAD DUP2 PUSH1 0x2 ADD PUSH0 PUSH2 0x100 EXP DUP2 SLOAD DUP2 PUSH20 0xFFFFFFFFFFFFFFFFFFFFFFFFFFFFFFFFFFFFFFFF MUL NOT AND SWAP1 DUP4 PUSH20 0xFFFFFFFFFFFFFFFFFFFFFFFFFFFFFFFFFFFFFFFF AND MUL OR SWAP1 SSTORE POP PUSH1 0x60 DUP3 ADD MLOAD DUP2 PUSH1 0x3 ADD SSTORE PUSH1 0x80 DUP3 ADD MLOAD DUP2 PUSH1 0x4 ADD SSTORE PUSH1 0xA0 DUP3 ADD MLOAD DUP2 PUSH1 0x5 ADD PUSH0 PUSH2 0x100 EXP DUP2 SLOAD DUP2 PUSH20 0xFFFFFFFFFFFFFFFFFFFFFFFFFFFFFFFFFFFFFFFF MUL NOT AND SWAP1 DUP4 PUSH20 0xFFFFFFFFFFFFFFFFFFFFFFFFFFFFFFFFFFFFFFFF AND MUL OR SWAP1 SSTORE POP PUSH1 0xC0 DUP3 ADD MLOAD DUP2 PUSH1 0x6 ADD SSTORE PUSH1 0xE0 DUP3 ADD MLOAD DUP2 PUSH1 0x7 ADD SSTORE PUSH2 0x100 DUP3 ADD MLOAD DUP2 PUSH1 0x8 ADD PUSH0 PUSH2 0x100 EXP DUP2 SLOAD DUP2 PUSH1 0xFF MUL NOT AND SWAP1 DUP4 ISZERO ISZERO MUL OR SWAP1 SSTORE POP SWAP1 POP POP DUP2 PUSH20 0xFFFFFFFFFFFFFFFFFFFFFFFFFFFFFFFFFFFFFFFF AND PUSH4 0x23B872DD CALLER ADDRESS DUP10 PUSH1 0x40 MLOAD DUP5 PUSH4 0xFFFFFFFF AND PUSH1 0xE0 SHL DUP2 MSTORE PUSH1 0x4 ADD PUSH2 0x8EE SWAP4 SWAP3 SWAP2 SWAP1 PUSH2 0x1C7E JUMP JUMPDEST PUSH0 PUSH1 0x40 MLOAD DUP1 DUP4 SUB DUP2 PUSH0 DUP8 DUP1 EXTCODESIZE ISZERO DUP1 ISZERO PUSH2 0x905 JUMPI PUSH0 DUP1 REVERT JUMPDEST POP GAS CALL ISZERO DUP1 ISZERO PUSH2 0x917 JUMPI RETURNDATASIZE PUSH0 DUP1 RETURNDATACOPY RETURNDATASIZE PUSH0 REVERT JUMPDEST POP POP POP POP DUP7 PUSH20 0xFFFFFFFFFFFFFFFFFFFFFFFFFFFFFFFFFFFFFFFF AND CALLER PUSH20 0xFFFFFFFFFFFFFFFFFFFFFFFFFFFFFFFFFFFFFFFF AND DUP3 PUSH32 0xCAF0AE751FB2B122E8718BF7C0D4B7584D1418A853A4D0CDABA45418D3DA138B DUP10 DUP10 DUP10 DUP10 PUSH1 0x40 MLOAD PUSH2 0x97F SWAP5 SWAP4 SWAP3 SWAP2 SWAP1 PUSH2 0x1CB3 JUMP JUMPDEST PUSH1 0x40 MLOAD DUP1 SWAP2 SUB SWAP1 LOG4 POP POP POP POP POP POP POP JUMP JUMPDEST PUSH1 0x2 PUSH1 0x20 MSTORE DUP2 PUSH0 MSTORE PUSH1 0x40 PUSH0 KECCAK256 PUSH1 0x20 MSTORE DUP1 PUSH0 MSTORE PUSH1 0x40 PUSH0 KECCAK256 PUSH0 SWAP2 POP SWAP2 POP POP SLOAD DUP2 JUMP JUMPDEST PUSH1 0x1 PUSH1 0x20 MSTORE DUP1 PUSH0 MSTORE PUSH1 0x40 PUSH0 KECCAK256 PUSH0 SWAP2 POP SWAP1 POP DUP1 PUSH0 ADD PUSH0 SWAP1 SLOAD SWAP1 PUSH2 0x100 EXP SWAP1 DIV PUSH20 0xFFFFFFFFFFFFFFFFFFFFFFFFFFFFFFFFFFFFFFFF AND SWAP1 DUP1 PUSH1 0x1 ADD SLOAD SWAP1 DUP1 PUSH1 0x2 ADD PUSH0 SWAP1 SLOAD SWAP1 PUSH2 0x100 EXP SWAP1 DIV PUSH20 0xFFFFFFFFFFFFFFFFFFFFFFFFFFFFFFFFFFFFFFFF AND SWAP1 DUP1 PUSH1 0x3 ADD SLOAD SWAP1 DUP1 PUSH1 0x4 ADD SLOAD SWAP1 DUP1 PUSH1 0x5 ADD PUSH0 SWAP1 SLOAD SWAP1 PUSH2 0x100 EXP SWAP1 DIV PUSH20 0xFFFFFFFFFFFFFFFFFFFFFFFFFFFFFFFFFFFFFFFF AND SWAP1 DUP1 PUSH1 0x6 ADD SLOAD SWAP1 DUP1 PUSH1 0x7 ADD SLOAD SWAP1 DUP1 PUSH1 0x8 ADD PUSH0 SWAP1 SLOAD SWAP1 PUSH2 0x100 EXP SWAP1 DIV PUSH1 0xFF AND SWAP1 POP DUP10 JUMP JUMPDEST PUSH2 0xA6B PUSH2 0x1419 JUMP JUMPDEST DUP1 PUSH1 0x3 SLOAD DUP2 LT PUSH2 0xAB0 JUMPI PUSH1 0x40 MLOAD PUSH32 0x8C379A000000000000000000000000000000000000000000000000000000000 DUP2 MSTORE PUSH1 0x4 ADD PUSH2 0xAA7 SWAP1 PUSH2 0x17C1 JUMP JUMPDEST PUSH1 0x40 MLOAD DUP1 SWAP2 SUB SWAP1 REVERT JUMPDEST DUP2 PUSH1 0x1 PUSH0 DUP3 DUP2 MSTORE PUSH1 0x20 ADD SWAP1 DUP2 MSTORE PUSH1 0x20 ADD PUSH0 KECCAK256 PUSH1 0x6 ADD SLOAD TIMESTAMP LT ISZERO PUSH2 0xB08 JUMPI PUSH1 0x40 MLOAD PUSH32 0x8C379A000000000000000000000000000000000000000000000000000000000 DUP2 MSTORE PUSH1 0x4 ADD PUSH2 0xAFF SWAP1 PUSH2 0x1D40 JUMP JUMPDEST PUSH1 0x40 MLOAD DUP1 SWAP2 SUB SWAP1 REVERT JUMPDEST PUSH1 0x1 PUSH0 DUP3 DUP2 MSTORE PUSH1 0x20 ADD SWAP1 DUP2 MSTORE PUSH1 0x20 ADD PUSH0 KECCAK256 PUSH1 0x7 ADD SLOAD TIMESTAMP LT PUSH2 0xB5E JUMPI PUSH1 0x40 MLOAD PUSH32 0x8C379A000000000000000000000000000000000000000000000000000000000 DUP2 MSTORE PUSH1 0x4 ADD PUSH2 0xB55 SWAP1 PUSH2 0x1DA8 JUMP JUMPDEST PUSH1 0x40 MLOAD DUP1 SWAP2 SUB SWAP1 REVERT JUMPDEST PUSH1 0x1 PUSH0 DUP3 DUP2 MSTORE PUSH1 0x20 ADD SWAP1 DUP2 MSTORE PUSH1 0x20 ADD PUSH0 KECCAK256 PUSH1 0x8 ADD PUSH0 SWAP1 SLOAD SWAP1 PUSH2 0x100 EXP SWAP1 DIV PUSH1 0xFF AND ISZERO PUSH2 0xBBF JUMPI PUSH1 0x40 MLOAD PUSH32 0x8C379A000000000000000000000000000000000000000000000000000000000 DUP2 MSTORE PUSH1 0x4 ADD PUSH2 0xBB6 SWAP1 PUSH2 0x1E10 JUMP JUMPDEST PUSH1 0x40 MLOAD DUP1 SWAP2 SUB SWAP1 REVERT JUMPDEST PUSH0 PUSH1 0x1 PUSH0 DUP6 DUP2 MSTORE PUSH1 0x20 ADD SWAP1 DUP2 MSTORE PUSH1 0x20 ADD PUSH0 KECCAK256 SWAP1 POP DUP1 PUSH1 0x3 ADD SLOAD CALLVALUE LT ISZERO PUSH2 0xC1A JUMPI PUSH1 0x40 MLOAD PUSH32 0x8C379A000000000000000000000000000000000000000000000000000000000 DUP2 MSTORE PUSH1 0x4 ADD PUSH2 0xC11 SWAP1 PUSH2 0x1E9E JUMP JUMPDEST PUSH1 0x40 MLOAD DUP1 SWAP2 SUB SWAP1 REVERT JUMPDEST DUP1 PUSH1 0x4 ADD SLOAD CALLVALUE GT PUSH2 0xC60 JUMPI PUSH1 0x40 MLOAD PUSH32 0x8C379A000000000000000000000000000000000000000000000000000000000 DUP2 MSTORE PUSH1 0x4 ADD PUSH2 0xC57 SWAP1 PUSH2 0x1F2C JUMP JUMPDEST PUSH1 0x40 MLOAD DUP1 SWAP2 SUB SWAP1 REVERT JUMPDEST PUSH0 DUP2 PUSH1 0x5 ADD PUSH0 SWAP1 SLOAD SWAP1 PUSH2 0x100 EXP SWAP1 DIV PUSH20 0xFFFFFFFFFFFFFFFFFFFFFFFFFFFFFFFFFFFFFFFF AND SWAP1 POP PUSH0 DUP3 PUSH1 0x4 ADD SLOAD SWAP1 POP PUSH0 PUSH20 0xFFFFFFFFFFFFFFFFFFFFFFFFFFFFFFFFFFFFFFFF AND DUP3 PUSH20 0xFFFFFFFFFFFFFFFFFFFFFFFFFFFFFFFFFFFFFFFF AND EQ PUSH2 0xD25 JUMPI DUP1 PUSH1 0x2 PUSH0 DUP9 DUP2 MSTORE PUSH1 0x20 ADD SWAP1 DUP2 MSTORE PUSH1 0x20 ADD PUSH0 KECCAK256 PUSH0 DUP5 PUSH20 0xFFFFFFFFFFFFFFFFFFFFFFFFFFFFFFFFFFFFFFFF AND PUSH20 0xFFFFFFFFFFFFFFFFFFFFFFFFFFFFFFFFFFFFFFFF AND DUP2 MSTORE PUSH1 0x20 ADD SWAP1 DUP2 MSTORE PUSH1 0x20 ADD PUSH0 KECCAK256 PUSH0 DUP3 DUP3 SLOAD PUSH2 0xD1D SWAP2 SWAP1 PUSH2 0x1F4A JUMP JUMPDEST SWAP3 POP POP DUP2 SWAP1 SSTORE POP JUMPDEST CALLER DUP4 PUSH1 0x5 ADD PUSH0 PUSH2 0x100 EXP DUP2 SLOAD DUP2 PUSH20 0xFFFFFFFFFFFFFFFFFFFFFFFFFFFFFFFFFFFFFFFF MUL NOT AND SWAP1 DUP4 PUSH20 0xFFFFFFFFFFFFFFFFFFFFFFFFFFFFFFFFFFFFFFFF AND MUL OR SWAP1 SSTORE POP CALLVALUE DUP4 PUSH1 0x4 ADD DUP2 SWAP1 SSTORE POP CALLER PUSH20 0xFFFFFFFFFFFFFFFFFFFFFFFFFFFFFFFFFFFFFFFF AND DUP7 PUSH32 0xE54EFF26401BF69B81B26F60BD85EF47F5D85275C1D268D84F68D6897431C47 CALLVALUE PUSH1 0x40 MLOAD PUSH2 0xDB7 SWAP2 SWAP1 PUSH2 0x15EF JUMP JUMPDEST PUSH1 0x40 MLOAD DUP1 SWAP2 SUB SWAP1 LOG3 POP POP POP POP POP PUSH2 0xDCC PUSH2 0x1466 JUMP JUMPDEST POP JUMP JUMPDEST PUSH1 0x3 SLOAD DUP2 JUMP JUMPDEST PUSH2 0xDDD PUSH2 0x1419 JUMP JUMPDEST DUP1 PUSH1 0x3 SLOAD DUP2 LT PUSH2 0xE22 JUMPI PUSH1 0x40 MLOAD PUSH32 0x8C379A000000000000000000000000000000000000000000000000000000000 DUP2 MSTORE PUSH1 0x4 ADD PUSH2 0xE19 SWAP1 PUSH2 0x17C1 JUMP JUMPDEST PUSH1 0x40 MLOAD DUP1 SWAP2 SUB SWAP1 REVERT JUMPDEST PUSH0 PUSH1 0x1 PUSH0 DUP5 DUP2 MSTORE PUSH1 0x20 ADD SWAP1 DUP2 MSTORE PUSH1 0x20 ADD PUSH0 KECCAK256 SWAP1 POP DUP1 PUSH1 0x7 ADD SLOAD TIMESTAMP LT ISZERO DUP1 PUSH2 0xE97 JUMPI POP DUP1 PUSH1 0x2 ADD PUSH0 SWAP1 SLOAD SWAP1 PUSH2 0x100 EXP SWAP1 DIV PUSH20 0xFFFFFFFFFFFFFFFFFFFFFFFFFFFFFFFFFFFFFFFF AND PUSH20 0xFFFFFFFFFFFFFFFFFFFFFFFFFFFFFFFFFFFFFFFF AND CALLER PUSH20 0xFFFFFFFFFFFFFFFFFFFFFFFFFFFFFFFFFFFFFFFF AND EQ JUMPDEST PUSH2 0xED6 JUMPI PUSH1 0x40 MLOAD PUSH32 0x8C379A000000000000000000000000000000000000000000000000000000000 DUP2 MSTORE PUSH1 0x4 ADD PUSH2 0xECD SWAP1 PUSH2 0x1FC7 JUMP JUMPDEST PUSH1 0x40 MLOAD DUP1 SWAP2 SUB SWAP1 REVERT JUMPDEST DUP1 PUSH1 0x8 ADD PUSH0 SWAP1 SLOAD SWAP1 PUSH2 0x100 EXP SWAP1 DIV PUSH1 0xFF AND ISZERO PUSH2 0xF27 JUMPI PUSH1 0x40 MLOAD PUSH32 0x8C379A000000000000000000000000000000000000000000000000000000000 DUP2 MSTORE PUSH1 0x4 ADD PUSH2 0xF1E SWAP1 PUSH2 0x202F JUMP JUMPDEST PUSH1 0x40 MLOAD DUP1 SWAP2 SUB SWAP1 REVERT JUMPDEST PUSH1 0x1 DUP2 PUSH1 0x8 ADD PUSH0 PUSH2 0x100 EXP DUP2 SLOAD DUP2 PUSH1 0xFF MUL NOT AND SWAP1 DUP4 ISZERO ISZERO MUL OR SWAP1 SSTORE POP PUSH0 PUSH20 0xFFFFFFFFFFFFFFFFFFFFFFFFFFFFFFFFFFFFFFFF AND DUP2 PUSH1 0x5 ADD PUSH0 SWAP1 SLOAD SWAP1 PUSH2 0x100 EXP SWAP1 DIV PUSH20 0xFFFFFFFFFFFFFFFFFFFFFFFFFFFFFFFFFFFFFFFF AND PUSH20 0xFFFFFFFFFFFFFFFFFFFFFFFFFFFFFFFFFFFFFFFF AND EQ PUSH2 0x1132 JUMPI DUP1 PUSH0 ADD PUSH0 SWAP1 SLOAD SWAP1 PUSH2 0x100 EXP SWAP1 DIV PUSH20 0xFFFFFFFFFFFFFFFFFFFFFFFFFFFFFFFFFFFFFFFF AND PUSH20 0xFFFFFFFFFFFFFFFFFFFFFFFFFFFFFFFFFFFFFFFF AND PUSH4 0x23B872DD ADDRESS DUP4 PUSH1 0x5 ADD PUSH0 SWAP1 SLOAD SWAP1 PUSH2 0x100 EXP SWAP1 DIV PUSH20 0xFFFFFFFFFFFFFFFFFFFFFFFFFFFFFFFFFFFFFFFF AND DUP5 PUSH1 0x1 ADD SLOAD PUSH1 0x40 MLOAD DUP5 PUSH4 0xFFFFFFFF AND PUSH1 0xE0 SHL DUP2 MSTORE PUSH1 0x4 ADD PUSH2 0x101F SWAP4 SWAP3 SWAP2 SWAP1 PUSH2 0x20A8 JUMP JUMPDEST PUSH0 PUSH1 0x40 MLOAD DUP1 DUP4 SUB DUP2 PUSH0 DUP8 DUP1 EXTCODESIZE ISZERO DUP1 ISZERO PUSH2 0x1036 JUMPI PUSH0 DUP1 REVERT JUMPDEST POP GAS CALL ISZERO DUP1 ISZERO PUSH2 0x1048 JUMPI RETURNDATASIZE PUSH0 DUP1 RETURNDATACOPY RETURNDATASIZE PUSH0 REVERT JUMPDEST POP POP POP POP DUP1 PUSH1 0x2 ADD PUSH0 SWAP1 SLOAD SWAP1 PUSH2 0x100 EXP SWAP1 DIV PUSH20 0xFFFFFFFFFFFFFFFFFFFFFFFFFFFFFFFFFFFFFFFF AND PUSH20 0xFFFFFFFFFFFFFFFFFFFFFFFFFFFFFFFFFFFFFFFF AND PUSH2 0x8FC DUP3 PUSH1 0x4 ADD SLOAD SWAP1 DUP2 ISZERO MUL SWAP1 PUSH1 0x40 MLOAD PUSH0 PUSH1 0x40 MLOAD DUP1 DUP4 SUB DUP2 DUP6 DUP9 DUP9 CALL SWAP4 POP POP POP POP ISZERO DUP1 ISZERO PUSH2 0x10B6 JUMPI RETURNDATASIZE PUSH0 DUP1 RETURNDATACOPY RETURNDATASIZE PUSH0 REVERT JUMPDEST POP DUP1 PUSH1 0x5 ADD PUSH0 SWAP1 SLOAD SWAP1 PUSH2 0x100 EXP SWAP1 DIV PUSH20 0xFFFFFFFFFFFFFFFFFFFFFFFFFFFFFFFFFFFFFFFF AND PUSH20 0xFFFFFFFFFFFFFFFFFFFFFFFFFFFFFFFFFFFFFFFF AND DUP4 PUSH32 0xD2AA34A4FDBBC6DFF6A3E56F46E0F3AE2A31D7785FF3487AA5C95C642ACEA501 DUP4 PUSH1 0x4 ADD SLOAD PUSH1 0x40 MLOAD PUSH2 0x1125 SWAP2 SWAP1 PUSH2 0x15EF JUMP JUMPDEST PUSH1 0x40 MLOAD DUP1 SWAP2 SUB SWAP1 LOG3 PUSH2 0x1258 JUMP JUMPDEST DUP1 PUSH0 ADD PUSH0 SWAP1 SLOAD SWAP1 PUSH2 0x100 EXP SWAP1 DIV PUSH20 0xFFFFFFFFFFFFFFFFFFFFFFFFFFFFFFFFFFFFFFFF AND PUSH20 0xFFFFFFFFFFFFFFFFFFFFFFFFFFFFFFFFFFFFFFFF AND PUSH4 0x23B872DD ADDRESS DUP4 PUSH1 0x2 ADD PUSH0 SWAP1 SLOAD SWAP1 PUSH2 0x100 EXP SWAP1 DIV PUSH20 0xFFFFFFFFFFFFFFFFFFFFFFFFFFFFFFFFFFFFFFFF AND DUP5 PUSH1 0x1 ADD SLOAD PUSH1 0x40 MLOAD DUP5 PUSH4 0xFFFFFFFF AND PUSH1 0xE0 SHL DUP2 MSTORE PUSH1 0x4 ADD PUSH2 0x11B8 SWAP4 SWAP3 SWAP2 SWAP1 PUSH2 0x20A8 JUMP JUMPDEST PUSH0 PUSH1 0x40 MLOAD DUP1 DUP4 SUB DUP2 PUSH0 DUP8 DUP1 EXTCODESIZE ISZERO DUP1 ISZERO PUSH2 0x11CF JUMPI PUSH0 DUP1 REVERT JUMPDEST POP GAS CALL ISZERO DUP1 ISZERO PUSH2 0x11E1 JUMPI RETURNDATASIZE PUSH0 DUP1 RETURNDATACOPY RETURNDATASIZE PUSH0 REVERT JUMPDEST POP POP POP POP DUP1 PUSH1 0x2 ADD PUSH0 SWAP1 SLOAD SWAP1 PUSH2 0x100 EXP SWAP1 DIV PUSH20 0xFFFFFFFFFFFFFFFFFFFFFFFFFFFFFFFFFFFFFFFF AND PUSH20 0xFFFFFFFFFFFFFFFFFFFFFFFFFFFFFFFFFFFFFFFF AND DUP4 PUSH32 0xD2AA34A4FDBBC6DFF6A3E56F46E0F3AE2A31D7785FF3487AA5C95C642ACEA501 PUSH0 PUSH1 0x40 MLOAD PUSH2 0x124F SWAP2 SWAP1 PUSH2 0x2116 JUMP JUMPDEST PUSH1 0x40 MLOAD DUP1 SWAP2 SUB SWAP1 LOG3 JUMPDEST POP POP PUSH2 0x1262 PUSH2 0x1466 JUMP JUMPDEST POP JUMP JUMPDEST PUSH0 DUP3 PUSH1 0x3 SLOAD DUP2 LT PUSH2 0x12AB JUMPI PUSH1 0x40 MLOAD PUSH32 0x8C379A000000000000000000000000000000000000000000000000000000000 DUP2 MSTORE PUSH1 0x4 ADD PUSH2 0x12A2 SWAP1 PUSH2 0x17C1 JUMP JUMPDEST PUSH1 0x40 MLOAD DUP1 SWAP2 SUB SWAP1 REVERT JUMPDEST PUSH1 0x2 PUSH0 DUP6 DUP2 MSTORE PUSH1 0x20 ADD SWAP1 DUP2 MSTORE PUSH1 0x20 ADD PUSH0 KECCAK256 PUSH0 DUP5 PUSH20 0xFFFFFFFFFFFFFFFFFFFFFFFFFFFFFFFFFFFFFFFF AND PUSH20 0xFFFFFFFFFFFFFFFFFFFFFFFFFFFFFFFFFFFFFFFF AND DUP2 MSTORE PUSH1 0x20 ADD SWAP1 DUP2 MSTORE PUSH1 0x20 ADD PUSH0 KECCAK256 SLOAD SWAP2 POP POP SWAP3 SWAP2 POP POP JUMP JUMPDEST PUSH0 DUP1 PUSH0 DUP1 PUSH0 DUP1 PUSH0 DUP1 PUSH0 DUP10 PUSH1 0x3 SLOAD DUP2 LT PUSH2 0x134F JUMPI PUSH1 0x40 MLOAD PUSH32 0x8C379A000000000000000000000000000000000000000000000000000000000 DUP2 MSTORE PUSH1 0x4 ADD PUSH2 0x1346 SWAP1 PUSH2 0x17C1 JUMP JUMPDEST PUSH1 0x40 MLOAD DUP1 SWAP2 SUB SWAP1 REVERT JUMPDEST PUSH0 PUSH1 0x1 PUSH0 DUP14 DUP2 MSTORE PUSH1 0x20 ADD SWAP1 DUP2 MSTORE PUSH1 0x20 ADD PUSH0 KECCAK256 SWAP1 POP DUP1 PUSH0 ADD PUSH0 SWAP1 SLOAD SWAP1 PUSH2 0x100 EXP SWAP1 DIV PUSH20 0xFFFFFFFFFFFFFFFFFFFFFFFFFFFFFFFFFFFFFFFF AND DUP2 PUSH1 0x1 ADD SLOAD DUP3 PUSH1 0x2 ADD PUSH0 SWAP1 SLOAD SWAP1 PUSH2 0x100 EXP SWAP1 DIV PUSH20 0xFFFFFFFFFFFFFFFFFFFFFFFFFFFFFFFFFFFFFFFF AND DUP4 PUSH1 0x3 ADD SLOAD DUP5 PUSH1 0x4 ADD SLOAD DUP6 PUSH1 0x5 ADD PUSH0 SWAP1 SLOAD SWAP1 PUSH2 0x100 EXP SWAP1 DIV PUSH20 0xFFFFFFFFFFFFFFFFFFFFFFFFFFFFFFFFFFFFFFFF AND DUP7 PUSH1 0x6 ADD SLOAD DUP8 PUSH1 0x7 ADD SLOAD DUP9 PUSH1 0x8 ADD PUSH0 SWAP1 SLOAD SWAP1 PUSH2 0x100 EXP SWAP1 DIV PUSH1 0xFF AND SWAP11 POP SWAP11 POP SWAP11 POP SWAP11 POP SWAP11 POP SWAP11 POP SWAP11 POP SWAP11 POP SWAP11 POP POP POP SWAP2 SWAP4 SWAP6 SWAP8 SWAP10 SWAP1 SWAP3 SWAP5 SWAP7 SWAP9 POP JUMP JUMPDEST PUSH1 0x2 PUSH0 SLOAD SUB PUSH2 0x145D JUMPI PUSH1 0x40 MLOAD PUSH32 0x8C379A000000000000000000000000000000000000000000000000000000000 DUP2 MSTORE PUSH1 0x4 ADD PUSH2 0x1454 SWAP1 PUSH2 0x2179 JUMP JUMPDEST PUSH1 0x40 MLOAD DUP1 SWAP2 SUB SWAP1 REVERT JUMPDEST PUSH1 0x2 PUSH0 DUP2 SWAP1 SSTORE POP JUMP JUMPDEST PUSH1 0x1 PUSH0 DUP2 SWAP1 SSTORE POP JUMP JUMPDEST PUSH0 DUP1 REVERT JUMPDEST PUSH0 DUP2 SWAP1 POP SWAP2 SWAP1 POP JUMP JUMPDEST PUSH2 0x1485 DUP2 PUSH2 0x1473 JUMP JUMPDEST DUP2 EQ PUSH2 0x148F JUMPI PUSH0 DUP1 REVERT JUMPDEST POP JUMP JUMPDEST PUSH0 DUP2 CALLDATALOAD SWAP1 POP PUSH2 0x14A0 DUP2 PUSH2 0x147C JUMP JUMPDEST SWAP3 SWAP2 POP POP JUMP JUMPDEST PUSH0 PUSH1 0x20 DUP3 DUP5 SUB SLT ISZERO PUSH2 0x14BB JUMPI PUSH2 0x14BA PUSH2 0x146F JUMP JUMPDEST JUMPDEST PUSH0 PUSH2 0x14C8 DUP5 DUP3 DUP6 ADD PUSH2 0x1492 JUMP JUMPDEST SWAP2 POP POP SWAP3 SWAP2 POP POP JUMP JUMPDEST PUSH0 PUSH20 0xFFFFFFFFFFFFFFFFFFFFFFFFFFFFFFFFFFFFFFFF DUP3 AND SWAP1 POP SWAP2 SWAP1 POP JUMP JUMPDEST PUSH0 PUSH2 0x14FA DUP3 PUSH2 0x14D1 JUMP JUMPDEST SWAP1 POP SWAP2 SWAP1 POP JUMP JUMPDEST PUSH2 0x150A DUP2 PUSH2 0x14F0 JUMP JUMPDEST DUP2 EQ PUSH2 0x1514 JUMPI PUSH0 DUP1 REVERT JUMPDEST POP JUMP JUMPDEST PUSH0 DUP2 CALLDATALOAD SWAP1 POP PUSH2 0x1525 DUP2 PUSH2 0x1501 JUMP JUMPDEST SWAP3 SWAP2 POP POP JUMP JUMPDEST PUSH0 DUP1 PUSH0 DUP1 PUSH0 PUSH1 0xA0 DUP7 DUP9 SUB SLT ISZERO PUSH2 0x1544 JUMPI PUSH2 0x1543 PUSH2 0x146F JUMP JUMPDEST JUMPDEST PUSH0 PUSH2 0x1551 DUP9 DUP3 DUP10 ADD PUSH2 0x1517 JUMP JUMPDEST SWAP6 POP POP PUSH1 0x20 PUSH2 0x1562 DUP9 DUP3 DUP10 ADD PUSH2 0x1492 JUMP JUMPDEST SWAP5 POP POP PUSH1 0x40 PUSH2 0x1573 DUP9 DUP3 DUP10 ADD PUSH2 0x1492 JUMP JUMPDEST SWAP4 POP POP PUSH1 0x60 PUSH2 0x1584 DUP9 DUP3 DUP10 ADD PUSH2 0x1492 JUMP JUMPDEST SWAP3 POP POP PUSH1 0x80 PUSH2 0x1595 DUP9 DUP3 DUP10 ADD PUSH2 0x1492 JUMP JUMPDEST SWAP2 POP POP SWAP3 SWAP6 POP SWAP3 SWAP6 SWAP1 SWAP4 POP JUMP JUMPDEST PUSH0 DUP1 PUSH1 0x40 DUP4 DUP6 SUB SLT ISZERO PUSH2 0x15B8 JUMPI PUSH2 0x15B7 PUSH2 0x146F JUMP JUMPDEST JUMPDEST PUSH0 PUSH2 0x15C5 DUP6 DUP3 DUP7 ADD PUSH2 0x1492 JUMP JUMPDEST SWAP3 POP POP PUSH1 0x20 PUSH2 0x15D6 DUP6 DUP3 DUP7 ADD PUSH2 0x1517 JUMP JUMPDEST SWAP2 POP POP SWAP3 POP SWAP3 SWAP1 POP JUMP JUMPDEST PUSH2 0x15E9 DUP2 PUSH2 0x1473 JUMP JUMPDEST DUP3 MSTORE POP POP JUMP JUMPDEST PUSH0 PUSH1 0x20 DUP3 ADD SWAP1 POP PUSH2 0x1602 PUSH0 DUP4 ADD DUP5 PUSH2 0x15E0 JUMP JUMPDEST SWAP3 SWAP2 POP POP JUMP JUMPDEST PUSH2 0x1611 DUP2 PUSH2 0x14F0 JUMP JUMPDEST DUP3 MSTORE POP POP JUMP JUMPDEST PUSH0 PUSH2 0x1621 DUP3 PUSH2 0x14D1 JUMP JUMPDEST SWAP1 POP SWAP2 SWAP1 POP JUMP JUMPDEST PUSH2 0x1631 DUP2 PUSH2 0x1617 JUMP JUMPDEST DUP3 MSTORE POP POP JUMP JUMPDEST PUSH0 DUP2 ISZERO ISZERO SWAP1 POP SWAP2 SWAP1 POP JUMP JUMPDEST PUSH2 0x164B DUP2 PUSH2 0x1637 JUMP JUMPDEST DUP3 MSTORE POP POP JUMP JUMPDEST PUSH0 PUSH2 0x120 DUP3 ADD SWAP1 POP PUSH2 0x1665 PUSH0 DUP4 ADD DUP13 PUSH2 0x1608 JUMP JUMPDEST PUSH2 0x1672 PUSH1 0x20 DUP4 ADD DUP12 PUSH2 0x15E0 JUMP JUMPDEST PUSH2 0x167F PUSH1 0x40 DUP4 ADD DUP11 PUSH2 0x1628 JUMP JUMPDEST PUSH2 0x168C PUSH1 0x60 DUP4 ADD DUP10 PUSH2 0x15E0 JUMP JUMPDEST PUSH2 0x1699 PUSH1 0x80 DUP4 ADD DUP9 PUSH2 0x15E0 JUMP JUMPDEST PUSH2 0x16A6 PUSH1 0xA0 DUP4 ADD DUP8 PUSH2 0x1628 JUMP JUMPDEST PUSH2 0x16B3 PUSH1 0xC0 DUP4 ADD DUP7 PUSH2 0x15E0 JUMP JUMPDEST PUSH2 0x16C0 PUSH1 0xE0 DUP4 ADD DUP6 PUSH2 0x15E0 JUMP JUMPDEST PUSH2 0x16CE PUSH2 0x100 DUP4 ADD DUP5 PUSH2 0x1642 JUMP JUMPDEST SWAP11 SWAP10 POP POP POP POP POP POP POP POP POP POP JUMP JUMPDEST PUSH0 PUSH2 0x120 DUP3 ADD SWAP1 POP PUSH2 0x16F0 PUSH0 DUP4 ADD DUP13 PUSH2 0x1608 JUMP JUMPDEST PUSH2 0x16FD PUSH1 0x20 DUP4 ADD DUP12 PUSH2 0x15E0 JUMP JUMPDEST PUSH2 0x170A PUSH1 0x40 DUP4 ADD DUP11 PUSH2 0x1608 JUMP JUMPDEST PUSH2 0x1717 PUSH1 0x60 DUP4 ADD DUP10 PUSH2 0x15E0 JUMP JUMPDEST PUSH2 0x1724 PUSH1 0x80 DUP4 ADD DUP9 PUSH2 0x15E0 JUMP JUMPDEST PUSH2 0x1731 PUSH1 0xA0 DUP4 ADD DUP8 PUSH2 0x1608 JUMP JUMPDEST PUSH2 0x173E PUSH1 0xC0 DUP4 ADD DUP7 PUSH2 0x15E0 JUMP JUMPDEST PUSH2 0x174B PUSH1 0xE0 DUP4 ADD DUP6 PUSH2 0x15E0 JUMP JUMPDEST PUSH2 0x1759 PUSH2 0x100 DUP4 ADD DUP5 PUSH2 0x1642 JUMP JUMPDEST SWAP11 SWAP10 POP POP POP POP POP POP POP POP POP POP JUMP JUMPDEST PUSH0 DUP3 DUP3 MSTORE PUSH1 0x20 DUP3 ADD SWAP1 POP SWAP3 SWAP2 POP POP JUMP JUMPDEST PUSH32 0x41756374696F6E20646F6573206E6F7420657869737400000000000000000000 PUSH0 DUP3 ADD MSTORE POP JUMP JUMPDEST PUSH0 PUSH2 0x17AB PUSH1 0x16 DUP4 PUSH2 0x1767 JUMP JUMPDEST SWAP2 POP PUSH2 0x17B6 DUP3 PUSH2 0x1777 JUMP JUMPDEST PUSH1 0x20 DUP3 ADD SWAP1 POP SWAP2 SWAP1 POP JUMP JUMPDEST PUSH0 PUSH1 0x20 DUP3 ADD SWAP1 POP DUP2 DUP2 SUB PUSH0 DUP4 ADD MSTORE PUSH2 0x17D8 DUP2 PUSH2 0x179F JUMP JUMPDEST SWAP1 POP SWAP2 SWAP1 POP JUMP JUMPDEST PUSH32 0x41756374696F6E20686173206E6F7420656E6465642079657400000000000000 PUSH0 DUP3 ADD MSTORE POP JUMP JUMPDEST PUSH0 PUSH2 0x1813 PUSH1 0x19 DUP4 PUSH2 0x1767 JUMP JUMPDEST SWAP2 POP PUSH2 0x181E DUP3 PUSH2 0x17DF JUMP JUMPDEST PUSH1 0x20 DUP3 ADD SWAP1 POP SWAP2 SWAP1 POP JUMP JUMPDEST PUSH0 PUSH1 0x20 DUP3 ADD SWAP1 POP DUP2 DUP2 SUB PUSH0 DUP4 ADD MSTORE PUSH2 0x1840 DUP2 PUSH2 0x1807 JUMP JUMPDEST SWAP1 POP SWAP2 SWAP1 POP JUMP JUMPDEST PUSH32 0x4E6F2066756E647320746F207769746864726177000000000000000000000000 PUSH0 DUP3 ADD MSTORE POP JUMP JUMPDEST PUSH0 PUSH2 0x187B PUSH1 0x14 DUP4 PUSH2 0x1767 JUMP JUMPDEST SWAP2 POP PUSH2 0x1886 DUP3 PUSH2 0x1847 JUMP JUMPDEST PUSH1 0x20 DUP3 ADD SWAP1 POP SWAP2 SWAP1 POP JUMP JUMPDEST PUSH0 PUSH1 0x20 DUP3 ADD SWAP1 POP DUP2 DUP2 SUB PUSH0 DUP4 ADD MSTORE PUSH2 0x18A8 DUP2 PUSH2 0x186F JUMP JUMPDEST SWAP1 POP SWAP2 SWAP1 POP JUMP JUMPDEST PUSH32 0x53746172742074696D65206D75737420626520696E2074686520667574757265 PUSH0 DUP3 ADD MSTORE POP JUMP JUMPDEST PUSH0 PUSH2 0x18E3 PUSH1 0x20 DUP4 PUSH2 0x1767 JUMP JUMPDEST SWAP2 POP PUSH2 0x18EE DUP3 PUSH2 0x18AF JUMP JUMPDEST PUSH1 0x20 DUP3 ADD SWAP1 POP SWAP2 SWAP1 POP JUMP JUMPDEST PUSH0 PUSH1 0x20 DUP3 ADD SWAP1 POP DUP2 DUP2 SUB PUSH0 DUP4 ADD MSTORE PUSH2 0x1910 DUP2 PUSH2 0x18D7 JUMP JUMPDEST SWAP1 POP SWAP2 SWAP1 POP JUMP JUMPDEST PUSH32 0x456E642074696D65206D7573742062652061667465722073746172742074696D PUSH0 DUP3 ADD MSTORE PUSH32 0x6500000000000000000000000000000000000000000000000000000000000000 PUSH1 0x20 DUP3 ADD MSTORE POP JUMP JUMPDEST PUSH0 PUSH2 0x1971 PUSH1 0x21 DUP4 PUSH2 0x1767 JUMP JUMPDEST SWAP2 POP PUSH2 0x197C DUP3 PUSH2 0x1917 JUMP JUMPDEST PUSH1 0x40 DUP3 ADD SWAP1 POP SWAP2 SWAP1 POP JUMP JUMPDEST PUSH0 PUSH1 0x20 DUP3 ADD SWAP1 POP DUP2 DUP2 SUB PUSH0 DUP4 ADD MSTORE PUSH2 0x199E DUP2 PUSH2 0x1965 JUMP JUMPDEST SWAP1 POP SWAP2 SWAP1 POP JUMP JUMPDEST PUSH32 0x4D696E696D756D20626964206D7573742062652067726561746572207468616E PUSH0 DUP3 ADD MSTORE PUSH32 0x207A65726F000000000000000000000000000000000000000000000000000000 PUSH1 0x20 DUP3 ADD MSTORE POP JUMP JUMPDEST PUSH0 PUSH2 0x19FF PUSH1 0x25 DUP4 PUSH2 0x1767 JUMP JUMPDEST SWAP2 POP PUSH2 0x1A0A DUP3 PUSH2 0x19A5 JUMP JUMPDEST PUSH1 0x40 DUP3 ADD SWAP1 POP SWAP2 SWAP1 POP JUMP JUMPDEST PUSH0 PUSH1 0x20 DUP3 ADD SWAP1 POP DUP2 DUP2 SUB PUSH0 DUP4 ADD MSTORE PUSH2 0x1A2C DUP2 PUSH2 0x19F3 JUMP JUMPDEST SWAP1 POP SWAP2 SWAP1 POP JUMP JUMPDEST PUSH0 DUP2 MLOAD SWAP1 POP PUSH2 0x1A41 DUP2 PUSH2 0x1501 JUMP JUMPDEST SWAP3 SWAP2 POP POP JUMP JUMPDEST PUSH0 PUSH1 0x20 DUP3 DUP5 SUB SLT ISZERO PUSH2 0x1A5C JUMPI PUSH2 0x1A5B PUSH2 0x146F JUMP JUMPDEST JUMPDEST PUSH0 PUSH2 0x1A69 DUP5 DUP3 DUP6 ADD PUSH2 0x1A33 JUMP JUMPDEST SWAP2 POP POP SWAP3 SWAP2 POP POP JUMP JUMPDEST PUSH32 0x596F75206D757374206F776E20746865204E465420746F2061756374696F6E20 PUSH0 DUP3 ADD MSTORE PUSH32 0x6974000000000000000000000000000000000000000000000000000000000000 PUSH1 0x20 DUP3 ADD MSTORE POP JUMP JUMPDEST PUSH0 PUSH2 0x1ACC PUSH1 0x22 DUP4 PUSH2 0x1767 JUMP JUMPDEST SWAP2 POP PUSH2 0x1AD7 DUP3 PUSH2 0x1A72 JUMP JUMPDEST PUSH1 0x40 DUP3 ADD SWAP1 POP SWAP2 SWAP1 POP JUMP JUMPDEST PUSH0 PUSH1 0x20 DUP3 ADD SWAP1 POP DUP2 DUP2 SUB PUSH0 DUP4 ADD MSTORE PUSH2 0x1AF9 DUP2 PUSH2 0x1AC0 JUMP JUMPDEST SWAP1 POP SWAP2 SWAP1 POP JUMP JUMPDEST PUSH0 PUSH1 0x40 DUP3 ADD SWAP1 POP PUSH2 0x1B13 PUSH0 DUP4 ADD DUP6 PUSH2 0x1608 JUMP JUMPDEST PUSH2 0x1B20 PUSH1 0x20 DUP4 ADD DUP5 PUSH2 0x1608 JUMP JUMPDEST SWAP4 SWAP3 POP POP POP JUMP JUMPDEST PUSH2 0x1B30 DUP2 PUSH2 0x1637 JUMP JUMPDEST DUP2 EQ PUSH2 0x1B3A JUMPI PUSH0 DUP1 REVERT JUMPDEST POP JUMP JUMPDEST PUSH0 DUP2 MLOAD SWAP1 POP PUSH2 0x1B4B DUP2 PUSH2 0x1B27 JUMP JUMPDEST SWAP3 SWAP2 POP POP JUMP JUMPDEST PUSH0 PUSH1 0x20 DUP3 DUP5 SUB SLT ISZERO PUSH2 0x1B66 JUMPI PUSH2 0x1B65 PUSH2 0x146F JUMP JUMPDEST JUMPDEST PUSH0 PUSH2 0x1B73 DUP5 DUP3 DUP6 ADD PUSH2 0x1B3D JUMP JUMPDEST SWAP2 POP POP SWAP3 SWAP2 POP POP JUMP JUMPDEST PUSH32 0x436F6E7472616374206D75737420626520617070726F76656420746F20747261 PUSH0 DUP3 ADD MSTORE PUSH32 0x6E7366657220746865204E465400000000000000000000000000000000000000 PUSH1 0x20 DUP3 ADD MSTORE POP JUMP JUMPDEST PUSH0 PUSH2 0x1BD6 PUSH1 0x2D DUP4 PUSH2 0x1767 JUMP JUMPDEST SWAP2 POP PUSH2 0x1BE1 DUP3 PUSH2 0x1B7C JUMP JUMPDEST PUSH1 0x40 DUP3 ADD SWAP1 POP SWAP2 SWAP1 POP JUMP JUMPDEST PUSH0 PUSH1 0x20 DUP3 ADD SWAP1 POP DUP2 DUP2 SUB PUSH0 DUP4 ADD MSTORE PUSH2 0x1C03 DUP2 PUSH2 0x1BCA JUMP JUMPDEST SWAP1 POP SWAP2 SWAP1 POP JUMP JUMPDEST PUSH32 0x4E487B7100000000000000000000000000000000000000000000000000000000 PUSH0 MSTORE PUSH1 0x11 PUSH1 0x4 MSTORE PUSH1 0x24 PUSH0 REVERT JUMPDEST PUSH0 PUSH2 0x1C41 DUP3 PUSH2 0x1473 JUMP JUMPDEST SWAP2 POP PUSH32 0xFFFFFFFFFFFFFFFFFFFFFFFFFFFFFFFFFFFFFFFFFFFFFFFFFFFFFFFFFFFFFFFF DUP3 SUB PUSH2 0x1C73 JUMPI PUSH2 0x1C72 PUSH2 0x1C0A JUMP JUMPDEST JUMPDEST PUSH1 0x1 DUP3 ADD SWAP1 POP SWAP2 SWAP1 POP JUMP JUMPDEST PUSH0 PUSH1 0x60 DUP3 ADD SWAP1 POP PUSH2 0x1C91 PUSH0 DUP4 ADD DUP7 PUSH2 0x1608 JUMP JUMPDEST PUSH2 0x1C9E PUSH1 0x20 DUP4 ADD DUP6 PUSH2 0x1608 JUMP JUMPDEST PUSH2 0x1CAB PUSH1 0x40 DUP4 ADD DUP5 PUSH2 0x15E0 JUMP JUMPDEST SWAP5 SWAP4 POP POP POP POP JUMP JUMPDEST PUSH0 PUSH1 0x80 DUP3 ADD SWAP1 POP PUSH2 0x1CC6 PUSH0 DUP4 ADD DUP8 PUSH2 0x15E0 JUMP JUMPDEST PUSH2 0x1CD3 PUSH1 0x20 DUP4 ADD DUP7 PUSH2 0x15E0 JUMP JUMPDEST PUSH2 0x1CE0 PUSH1 0x40 DUP4 ADD DUP6 PUSH2 0x15E0 JUMP JUMPDEST PUSH2 0x1CED PUSH1 0x60 DUP4 ADD DUP5 PUSH2 0x15E0 JUMP JUMPDEST SWAP6 SWAP5 POP POP POP POP POP JUMP JUMPDEST PUSH32 0x41756374696F6E20686173206E6F742073746172746564207965740000000000 PUSH0 DUP3 ADD MSTORE POP JUMP JUMPDEST PUSH0 PUSH2 0x1D2A PUSH1 0x1B DUP4 PUSH2 0x1767 JUMP JUMPDEST SWAP2 POP PUSH2 0x1D35 DUP3 PUSH2 0x1CF6 JUMP JUMPDEST PUSH1 0x20 DUP3 ADD SWAP1 POP SWAP2 SWAP1 POP JUMP JUMPDEST PUSH0 PUSH1 0x20 DUP3 ADD SWAP1 POP DUP2 DUP2 SUB PUSH0 DUP4 ADD MSTORE PUSH2 0x1D57 DUP2 PUSH2 0x1D1E JUMP JUMPDEST SWAP1 POP SWAP2 SWAP1 POP JUMP JUMPDEST PUSH32 0x41756374696F6E2068617320656E646564000000000000000000000000000000 PUSH0 DUP3 ADD MSTORE POP JUMP JUMPDEST PUSH0 PUSH2 0x1D92 PUSH1 0x11 DUP4 PUSH2 0x1767 JUMP JUMPDEST SWAP2 POP PUSH2 0x1D9D DUP3 PUSH2 0x1D5E JUMP JUMPDEST PUSH1 0x20 DUP3 ADD SWAP1 POP SWAP2 SWAP1 POP JUMP JUMPDEST PUSH0 PUSH1 0x20 DUP3 ADD SWAP1 POP DUP2 DUP2 SUB PUSH0 DUP4 ADD MSTORE PUSH2 0x1DBF DUP2 PUSH2 0x1D86 JUMP JUMPDEST SWAP1 POP SWAP2 SWAP1 POP JUMP JUMPDEST PUSH32 0x41756374696F6E2068617320616C7265616479206265656E20656E6465640000 PUSH0 DUP3 ADD MSTORE POP JUMP JUMPDEST PUSH0 PUSH2 0x1DFA PUSH1 0x1E DUP4 PUSH2 0x1767 JUMP JUMPDEST SWAP2 POP PUSH2 0x1E05 DUP3 PUSH2 0x1DC6 JUMP JUMPDEST PUSH1 0x20 DUP3 ADD SWAP1 POP SWAP2 SWAP1 POP JUMP JUMPDEST PUSH0 PUSH1 0x20 DUP3 ADD SWAP1 POP DUP2 DUP2 SUB PUSH0 DUP4 ADD MSTORE PUSH2 0x1E27 DUP2 PUSH2 0x1DEE JUMP JUMPDEST SWAP1 POP SWAP2 SWAP1 POP JUMP JUMPDEST PUSH32 0x426964206D757374206265206174206C6561737420746865206D696E696D756D PUSH0 DUP3 ADD MSTORE PUSH32 0x2062696420616D6F756E74000000000000000000000000000000000000000000 PUSH1 0x20 DUP3 ADD MSTORE POP JUMP JUMPDEST PUSH0 PUSH2 0x1E88 PUSH1 0x2B DUP4 PUSH2 0x1767 JUMP JUMPDEST SWAP2 POP PUSH2 0x1E93 DUP3 PUSH2 0x1E2E JUMP JUMPDEST PUSH1 0x40 DUP3 ADD SWAP1 POP SWAP2 SWAP1 POP JUMP JUMPDEST PUSH0 PUSH1 0x20 DUP3 ADD SWAP1 POP DUP2 DUP2 SUB PUSH0 DUP4 ADD MSTORE PUSH2 0x1EB5 DUP2 PUSH2 0x1E7C JUMP JUMPDEST SWAP1 POP SWAP2 SWAP1 POP JUMP JUMPDEST PUSH32 0x426964206D75737420626520686967686572207468616E207468652063757272 PUSH0 DUP3 ADD MSTORE PUSH32 0x656E742068696768657374206269640000000000000000000000000000000000 PUSH1 0x20 DUP3 ADD MSTORE POP JUMP JUMPDEST PUSH0 PUSH2 0x1F16 PUSH1 0x2F DUP4 PUSH2 0x1767 JUMP JUMPDEST SWAP2 POP PUSH2 0x1F21 DUP3 PUSH2 0x1EBC JUMP JUMPDEST PUSH1 0x40 DUP3 ADD SWAP1 POP SWAP2 SWAP1 POP JUMP JUMPDEST PUSH0 PUSH1 0x20 DUP3 ADD SWAP1 POP DUP2 DUP2 SUB PUSH0 DUP4 ADD MSTORE PUSH2 0x1F43 DUP2 PUSH2 0x1F0A JUMP JUMPDEST SWAP1 POP SWAP2 SWAP1 POP JUMP JUMPDEST PUSH0 PUSH2 0x1F54 DUP3 PUSH2 0x1473 JUMP JUMPDEST SWAP2 POP PUSH2 0x1F5F DUP4 PUSH2 0x1473 JUMP JUMPDEST SWAP3 POP DUP3 DUP3 ADD SWAP1 POP DUP1 DUP3 GT ISZERO PUSH2 0x1F77 JUMPI PUSH2 0x1F76 PUSH2 0x1C0A JUMP JUMPDEST JUMPDEST SWAP3 SWAP2 POP POP JUMP JUMPDEST PUSH32 0x41756374696F6E2063616E6E6F7420626520656E646564207965740000000000 PUSH0 DUP3 ADD MSTORE POP JUMP JUMPDEST PUSH0 PUSH2 0x1FB1 PUSH1 0x1B DUP4 PUSH2 0x1767 JUMP JUMPDEST SWAP2 POP PUSH2 0x1FBC DUP3 PUSH2 0x1F7D JUMP JUMPDEST PUSH1 0x20 DUP3 ADD SWAP1 POP SWAP2 SWAP1 POP JUMP JUMPDEST PUSH0 PUSH1 0x20 DUP3 ADD SWAP1 POP DUP2 DUP2 SUB PUSH0 DUP4 ADD MSTORE PUSH2 0x1FDE DUP2 PUSH2 0x1FA5 JUMP JUMPDEST SWAP1 POP SWAP2 SWAP1 POP JUMP JUMPDEST PUSH32 0x41756374696F6E2068617320616C726561647920656E64656400000000000000 PUSH0 DUP3 ADD MSTORE POP JUMP JUMPDEST PUSH0 PUSH2 0x2019 PUSH1 0x19 DUP4 PUSH2 0x1767 JUMP JUMPDEST SWAP2 POP PUSH2 0x2024 DUP3 PUSH2 0x1FE5 JUMP JUMPDEST PUSH1 0x20 DUP3 ADD SWAP1 POP SWAP2 SWAP1 POP JUMP JUMPDEST PUSH0 PUSH1 0x20 DUP3 ADD SWAP1 POP DUP2 DUP2 SUB PUSH0 DUP4 ADD MSTORE PUSH2 0x2046 DUP2 PUSH2 0x200D JUMP JUMPDEST SWAP1 POP SWAP2 SWAP1 POP JUMP JUMPDEST PUSH0 DUP2 SWAP1 POP SWAP2 SWAP1 POP JUMP JUMPDEST PUSH0 PUSH2 0x2070 PUSH2 0x206B PUSH2 0x2066 DUP5 PUSH2 0x14D1 JUMP JUMPDEST PUSH2 0x204D JUMP JUMPDEST PUSH2 0x14D1 JUMP JUMPDEST SWAP1 POP SWAP2 SWAP1 POP JUMP JUMPDEST PUSH0 PUSH2 0x2081 DUP3 PUSH2 0x2056 JUMP JUMPDEST SWAP1 POP SWAP2 SWAP1 POP JUMP JUMPDEST PUSH0 PUSH2 0x2092 DUP3 PUSH2 0x2077 JUMP JUMPDEST SWAP1 POP SWAP2 SWAP1 POP JUMP JUMPDEST PUSH2 0x20A2 DUP2 PUSH2 0x2088 JUMP JUMPDEST DUP3 MSTORE POP POP JUMP JUMPDEST PUSH0 PUSH1 0x60 DUP3 ADD SWAP1 POP PUSH2 0x20BB PUSH0 DUP4 ADD DUP7 PUSH2 0x1608 JUMP JUMPDEST PUSH2 0x20C8 PUSH1 0x20 DUP4 ADD DUP6 PUSH2 0x2099 JUMP JUMPDEST PUSH2 0x20D5 PUSH1 0x40 DUP4 ADD DUP5 PUSH2 0x15E0 JUMP JUMPDEST SWAP5 SWAP4 POP POP POP POP JUMP JUMPDEST PUSH0 DUP2 SWAP1 POP SWAP2 SWAP1 POP JUMP JUMPDEST PUSH0 PUSH2 0x2100 PUSH2 0x20FB PUSH2 0x20F6 DUP5 PUSH2 0x20DD JUMP JUMPDEST PUSH2 0x204D JUMP JUMPDEST PUSH2 0x1473 JUMP JUMPDEST SWAP1 POP SWAP2 SWAP1 POP JUMP JUMPDEST PUSH2 0x2110 DUP2 PUSH2 0x20E6 JUMP JUMPDEST DUP3 MSTORE POP POP JUMP JUMPDEST PUSH0 PUSH1 0x20 DUP3 ADD SWAP1 POP PUSH2 0x2129 PUSH0 DUP4 ADD DUP5 PUSH2 0x2107 JUMP JUMPDEST SWAP3 SWAP2 POP POP JUMP JUMPDEST PUSH32 0x5265656E7472616E637947756172643A207265656E7472616E742063616C6C00 PUSH0 DUP3 ADD MSTORE POP JUMP JUMPDEST PUSH0 PUSH2 0x2163 PUSH1 0x1F DUP4 PUSH2 0x1767 JUMP JUMPDEST SWAP2 POP PUSH2 0x216E DUP3 PUSH2 0x212F JUMP JUMPDEST PUSH1 0x20 DUP3 ADD SWAP1 POP SWAP2 SWAP1 POP JUMP JUMPDEST PUSH0 PUSH1 0x20 DUP3 ADD SWAP1 POP DUP2 DUP2 SUB PUSH0 DUP4 ADD MSTORE PUSH2 0x2190 DUP2 PUSH2 0x2157 JUMP JUMPDEST SWAP1 POP SWAP2 SWAP1 POP JUMP INVALID LOG2 PUSH5 0x6970667358 0x22 SLT KECCAK256 MCOPY PUSH5 0xEAE301D836 PUSH23 0x81D44CEEA39813107CFCAA02DEC4E1D7D1FFD6924D2A6C MLOAD PUSH5 0x736F6C6343 STOP ADDMOD BYTE STOP CALLER "
				},
				"gasEstimates": {
					"creation": {
						"codeDepositCost": "1730600",
						"executionCost": "23931",
						"totalCost": "1754531"
					},
					"external": {
						"auctionCounter()": "2447",
						"auctions(uint256)": "infinite",
						"bids(uint256,address)": "infinite",
						"endAuction(uint256)": "infinite",
						"getAuctionDetails(uint256)": "infinite",
						"getBidderBid(uint256,address)": "infinite",
						"initializeAuction(address,uint256,uint256,uint256,uint256)": "infinite",
						"placeBid(uint256)": "infinite",
						"withdraw(uint256)": "infinite"
					}
				},
				"methodIdentifiers": {
					"auctionCounter()": "a7e76644",
					"auctions(uint256)": "571a26a0",
					"bids(uint256,address)": "3f1ffcec",
					"endAuction(uint256)": "b9a2de3a",
					"getAuctionDetails(uint256)": "f20e5e35",
					"getBidderBid(uint256,address)": "e746443b",
					"initializeAuction(address,uint256,uint256,uint256,uint256)": "2ea54762",
					"placeBid(uint256)": "9979ef45",
					"withdraw(uint256)": "2e1a7d4d"
				}
			},
			"storageLayout": {
				"storage": [
					{
						"astId": 10,
						"contract": "contracts/NFTAuction.sol:NFTAuction",
						"label": "_status",
						"offset": 0,
						"slot": "0",
						"type": "t_uint256"
					},
					{
						"astId": 3647,
						"contract": "contracts/NFTAuction.sol:NFTAuction",
						"label": "auctions",
						"offset": 0,
						"slot": "1",
						"type": "t_mapping(t_uint256,t_struct(Auction)3642_storage)"
					},
					{
						"astId": 3653,
						"contract": "contracts/NFTAuction.sol:NFTAuction",
						"label": "bids",
						"offset": 0,
						"slot": "2",
						"type": "t_mapping(t_uint256,t_mapping(t_address,t_uint256))"
					},
					{
						"astId": 3655,
						"contract": "contracts/NFTAuction.sol:NFTAuction",
						"label": "auctionCounter",
						"offset": 0,
						"slot": "3",
						"type": "t_uint256"
					}
				],
				"types": {
					"t_address": {
						"encoding": "inplace",
						"label": "address",
						"numberOfBytes": "20"
					},
					"t_address_payable": {
						"encoding": "inplace",
						"label": "address payable",
						"numberOfBytes": "20"
					},
					"t_bool": {
						"encoding": "inplace",
						"label": "bool",
						"numberOfBytes": "1"
					},
					"t_mapping(t_address,t_uint256)": {
						"encoding": "mapping",
						"key": "t_address",
						"label": "mapping(address => uint256)",
						"numberOfBytes": "32",
						"value": "t_uint256"
					},
					"t_mapping(t_uint256,t_mapping(t_address,t_uint256))": {
						"encoding": "mapping",
						"key": "t_uint256",
						"label": "mapping(uint256 => mapping(address => uint256))",
						"numberOfBytes": "32",
						"value": "t_mapping(t_address,t_uint256)"
					},
					"t_mapping(t_uint256,t_struct(Auction)3642_storage)": {
						"encoding": "mapping",
						"key": "t_uint256",
						"label": "mapping(uint256 => struct NFTAuction.Auction)",
						"numberOfBytes": "32",
						"value": "t_struct(Auction)3642_storage"
					},
					"t_struct(Auction)3642_storage": {
						"encoding": "inplace",
						"label": "struct NFTAuction.Auction",
						"members": [
							{
								"astId": 3625,
								"contract": "contracts/NFTAuction.sol:NFTAuction",
								"label": "nftContract",
								"offset": 0,
								"slot": "0",
								"type": "t_address"
							},
							{
								"astId": 3627,
								"contract": "contracts/NFTAuction.sol:NFTAuction",
								"label": "tokenId",
								"offset": 0,
								"slot": "1",
								"type": "t_uint256"
							},
							{
								"astId": 3629,
								"contract": "contracts/NFTAuction.sol:NFTAuction",
								"label": "seller",
								"offset": 0,
								"slot": "2",
								"type": "t_address_payable"
							},
							{
								"astId": 3631,
								"contract": "contracts/NFTAuction.sol:NFTAuction",
								"label": "minBid",
								"offset": 0,
								"slot": "3",
								"type": "t_uint256"
							},
							{
								"astId": 3633,
								"contract": "contracts/NFTAuction.sol:NFTAuction",
								"label": "highestBid",
								"offset": 0,
								"slot": "4",
								"type": "t_uint256"
							},
							{
								"astId": 3635,
								"contract": "contracts/NFTAuction.sol:NFTAuction",
								"label": "highestBidder",
								"offset": 0,
								"slot": "5",
								"type": "t_address_payable"
							},
							{
								"astId": 3637,
								"contract": "contracts/NFTAuction.sol:NFTAuction",
								"label": "startTime",
								"offset": 0,
								"slot": "6",
								"type": "t_uint256"
							},
							{
								"astId": 3639,
								"contract": "contracts/NFTAuction.sol:NFTAuction",
								"label": "endTime",
								"offset": 0,
								"slot": "7",
								"type": "t_uint256"
							},
							{
								"astId": 3641,
								"contract": "contracts/NFTAuction.sol:NFTAuction",
								"label": "ended",
								"offset": 0,
								"slot": "8",
								"type": "t_bool"
							}
						],
						"numberOfBytes": "288"
					},
					"t_uint256": {
						"encoding": "inplace",
						"label": "uint256",
						"numberOfBytes": "32"
					}
				}
			},
			"userdoc": {
				"kind": "user",
				"methods": {},
				"version": 1
			}
		}
	}
}