{
	"contracts/Todo.sol": {
		"TodoList": {
			"abi": [
				{
					"inputs": [],
					"stateMutability": "nonpayable",
					"type": "constructor"
				},
				{
					"anonymous": false,
					"inputs": [
						{
							"indexed": false,
							"internalType": "uint8",
							"name": "index",
							"type": "uint8"
						},
						{
							"indexed": false,
							"internalType": "enum TodoList.Status",
							"name": "status",
							"type": "uint8"
						}
					],
					"name": "TodoCompleted",
					"type": "event"
				},
				{
					"anonymous": false,
					"inputs": [
						{
							"indexed": false,
							"internalType": "string",
							"name": "title",
							"type": "string"
						},
						{
							"indexed": false,
							"internalType": "string",
							"name": "description",
							"type": "string"
						},
						{
							"indexed": false,
							"internalType": "enum TodoList.Status",
							"name": "status",
							"type": "uint8"
						}
					],
					"name": "TodoCreated",
					"type": "event"
				},
				{
					"anonymous": false,
					"inputs": [
						{
							"indexed": false,
							"internalType": "uint8",
							"name": "index",
							"type": "uint8"
						}
					],
					"name": "TodoDeleted",
					"type": "event"
				},
				{
					"anonymous": false,
					"inputs": [],
					"name": "TodoDeleted",
					"type": "event"
				},
				{
					"anonymous": false,
					"inputs": [
						{
							"indexed": false,
							"internalType": "uint8",
							"name": "index",
							"type": "uint8"
						},
						{
							"indexed": false,
							"internalType": "string",
							"name": "title",
							"type": "string"
						},
						{
							"indexed": false,
							"internalType": "string",
							"name": "description",
							"type": "string"
						},
						{
							"indexed": false,
							"internalType": "enum TodoList.Status",
							"name": "status",
							"type": "uint8"
						}
					],
					"name": "TodoUpdated",
					"type": "event"
				},
				{
					"inputs": [
						{
							"internalType": "string",
							"name": "_title",
							"type": "string"
						},
						{
							"internalType": "string",
							"name": "_desc",
							"type": "string"
						}
					],
					"name": "createTodo",
					"outputs": [
						{
							"internalType": "bool",
							"name": "",
							"type": "bool"
						}
					],
					"stateMutability": "nonpayable",
					"type": "function"
				},
				{
					"inputs": [
						{
							"internalType": "uint16",
							"name": "_index",
							"type": "uint16"
						}
					],
					"name": "deleteTodo",
					"outputs": [],
					"stateMutability": "nonpayable",
					"type": "function"
				},
				{
					"inputs": [],
					"name": "getAllTodo",
					"outputs": [
						{
							"components": [
								{
									"internalType": "string",
									"name": "title",
									"type": "string"
								},
								{
									"internalType": "string",
									"name": "description",
									"type": "string"
								},
								{
									"internalType": "enum TodoList.Status",
									"name": "status",
									"type": "uint8"
								}
							],
							"internalType": "struct TodoList.Todo[]",
							"name": "",
							"type": "tuple[]"
						}
					],
					"stateMutability": "view",
					"type": "function"
				},
				{
					"inputs": [
						{
							"internalType": "uint16",
							"name": "_index",
							"type": "uint16"
						}
					],
					"name": "getTodo",
					"outputs": [
						{
							"internalType": "string",
							"name": "",
							"type": "string"
						},
						{
							"internalType": "string",
							"name": "",
							"type": "string"
						},
						{
							"internalType": "enum TodoList.Status",
							"name": "",
							"type": "uint8"
						}
					],
					"stateMutability": "view",
					"type": "function"
				},
				{
					"inputs": [],
					"name": "owner",
					"outputs": [
						{
							"internalType": "address",
							"name": "",
							"type": "address"
						}
					],
					"stateMutability": "view",
					"type": "function"
				},
				{
					"inputs": [
						{
							"internalType": "uint16",
							"name": "_index",
							"type": "uint16"
						}
					],
					"name": "todoComplete",
					"outputs": [
						{
							"internalType": "bool",
							"name": "",
							"type": "bool"
						}
					],
					"stateMutability": "nonpayable",
					"type": "function"
				},
				{
					"inputs": [
						{
							"internalType": "uint256",
							"name": "",
							"type": "uint256"
						}
					],
					"name": "todos",
					"outputs": [
						{
							"internalType": "string",
							"name": "title",
							"type": "string"
						},
						{
							"internalType": "string",
							"name": "description",
							"type": "string"
						},
						{
							"internalType": "enum TodoList.Status",
							"name": "status",
							"type": "uint8"
						}
					],
					"stateMutability": "view",
					"type": "function"
				},
				{
					"inputs": [
						{
							"internalType": "uint8",
							"name": "_index",
							"type": "uint8"
						},
						{
							"internalType": "string",
							"name": "_title",
							"type": "string"
						},
						{
							"internalType": "string",
							"name": "_desc",
							"type": "string"
						}
					],
					"name": "updateTodo",
					"outputs": [
						{
							"internalType": "bool",
							"name": "",
							"type": "bool"
						}
					],
					"stateMutability": "nonpayable",
					"type": "function"
				}
			],
			"devdoc": {
				"kind": "dev",
				"methods": {},
				"version": 1
			},
			"evm": {
				"assembly": "    /* \"contracts/Todo.sol\":61:2826  contract TodoList {... */\n  mstore(0x40, 0x80)\n    /* \"contracts/Todo.sol\":339:390  constructor() {... */\n  callvalue\n  dup1\n  iszero\n  tag_1\n  jumpi\n  0x00\n  dup1\n  revert\ntag_1:\n  pop\n    /* \"contracts/Todo.sol\":372:382  msg.sender */\n  caller\n    /* \"contracts/Todo.sol\":364:369  owner */\n  0x00\n  dup1\n    /* \"contracts/Todo.sol\":364:382  owner = msg.sender */\n  0x0100\n  exp\n  dup2\n  sload\n  dup2\n  0xffffffffffffffffffffffffffffffffffffffff\n  mul\n  not\n  and\n  swap1\n  dup4\n  0xffffffffffffffffffffffffffffffffffffffff\n  and\n  mul\n  or\n  swap1\n  sstore\n  pop\n    /* \"contracts/Todo.sol\":61:2826  contract TodoList {... */\n  dataSize(sub_0)\n  dup1\n  dataOffset(sub_0)\n  0x00\n  codecopy\n  0x00\n  return\nstop\n\nsub_0: assembly {\n        /* \"contracts/Todo.sol\":61:2826  contract TodoList {... */\n      mstore(0x40, 0x80)\n      callvalue\n      dup1\n      iszero\n      tag_1\n      jumpi\n      0x00\n      dup1\n      revert\n    tag_1:\n      pop\n      jumpi(tag_2, lt(calldatasize, 0x04))\n      shr(0xe0, calldataload(0x00))\n      dup1\n      0x982abb89\n      gt\n      tag_11\n      jumpi\n      dup1\n      0x982abb89\n      eq\n      tag_7\n      jumpi\n      dup1\n      0xb12080fa\n      eq\n      tag_8\n      jumpi\n      dup1\n      0xbc8bc2b4\n      eq\n      tag_9\n      jumpi\n      dup1\n      0xe9505164\n      eq\n      tag_10\n      jumpi\n      jump(tag_2)\n    tag_11:\n      dup1\n      0x16b0fac8\n      eq\n      tag_3\n      jumpi\n      dup1\n      0x3380b99f\n      eq\n      tag_4\n      jumpi\n      dup1\n      0x3c734648\n      eq\n      tag_5\n      jumpi\n      dup1\n      0x8da5cb5b\n      eq\n      tag_6\n      jumpi\n    tag_2:\n      0x00\n      dup1\n      revert\n        /* \"contracts/Todo.sol\":2287:2506  function deleteTodo(uint16 _index) public {... */\n    tag_3:\n      tag_12\n      0x04\n      dup1\n      calldatasize\n      sub\n      dup2\n      add\n      swap1\n      tag_13\n      swap2\n      swap1\n      tag_14\n      jump\t// in\n    tag_13:\n      tag_15\n      jump\t// in\n    tag_12:\n      stop\n        /* \"contracts/Todo.sol\":912:1323  function createTodo(string memory _title, string memory _desc)... */\n    tag_4:\n      tag_16\n      0x04\n      dup1\n      calldatasize\n      sub\n      dup2\n      add\n      swap1\n      tag_17\n      swap2\n      swap1\n      tag_18\n      jump\t// in\n    tag_17:\n      tag_19\n      jump\t// in\n    tag_16:\n      mload(0x40)\n      tag_20\n      swap2\n      swap1\n      tag_21\n      jump\t// in\n    tag_20:\n      mload(0x40)\n      dup1\n      swap2\n      sub\n      swap1\n      return\n        /* \"contracts/Todo.sol\":1820:2182  function getTodo(uint16 _index)... */\n    tag_5:\n      tag_22\n      0x04\n      dup1\n      calldatasize\n      sub\n      dup2\n      add\n      swap1\n      tag_23\n      swap2\n      swap1\n      tag_14\n      jump\t// in\n    tag_23:\n      tag_24\n      jump\t// in\n    tag_22:\n      mload(0x40)\n      tag_25\n      swap4\n      swap3\n      swap2\n      swap1\n      tag_26\n      jump\t// in\n    tag_25:\n      mload(0x40)\n      dup1\n      swap2\n      sub\n      swap1\n      return\n        /* \"contracts/Todo.sol\":86:106  address public owner */\n    tag_6:\n      tag_27\n      tag_28\n      jump\t// in\n    tag_27:\n      mload(0x40)\n      tag_29\n      swap2\n      swap1\n      tag_30\n      jump\t// in\n    tag_29:\n      mload(0x40)\n      dup1\n      swap2\n      sub\n      swap1\n      return\n        /* \"contracts/Todo.sol\":2190:2279  function getAllTodo() public view returns (Todo[] memory) {... */\n    tag_7:\n      tag_31\n      tag_32\n      jump\t// in\n    tag_31:\n      mload(0x40)\n      tag_33\n      swap2\n      swap1\n      tag_34\n      jump\t// in\n    tag_33:\n      mload(0x40)\n      dup1\n      swap2\n      sub\n      swap1\n      return\n        /* \"contracts/Todo.sol\":2514:2823  function todoComplete(uint16 _index)... */\n    tag_8:\n      tag_35\n      0x04\n      dup1\n      calldatasize\n      sub\n      dup2\n      add\n      swap1\n      tag_36\n      swap2\n      swap1\n      tag_14\n      jump\t// in\n    tag_36:\n      tag_37\n      jump\t// in\n    tag_35:\n      mload(0x40)\n      tag_38\n      swap2\n      swap1\n      tag_21\n      jump\t// in\n    tag_38:\n      mload(0x40)\n      dup1\n      swap2\n      sub\n      swap1\n      return\n        /* \"contracts/Todo.sol\":311:330  Todo[] public todos */\n    tag_9:\n      tag_39\n      0x04\n      dup1\n      calldatasize\n      sub\n      dup2\n      add\n      swap1\n      tag_40\n      swap2\n      swap1\n      tag_41\n      jump\t// in\n    tag_40:\n      tag_42\n      jump\t// in\n    tag_39:\n      mload(0x40)\n      tag_43\n      swap4\n      swap3\n      swap2\n      swap1\n      tag_26\n      jump\t// in\n    tag_43:\n      mload(0x40)\n      dup1\n      swap2\n      sub\n      swap1\n      return\n        /* \"contracts/Todo.sol\":1331:1812  function updateTodo(... */\n    tag_10:\n      tag_44\n      0x04\n      dup1\n      calldatasize\n      sub\n      dup2\n      add\n      swap1\n      tag_45\n      swap2\n      swap1\n      tag_46\n      jump\t// in\n    tag_45:\n      tag_47\n      jump\t// in\n    tag_44:\n      mload(0x40)\n      tag_48\n      swap2\n      swap1\n      tag_21\n      jump\t// in\n    tag_48:\n      mload(0x40)\n      dup1\n      swap2\n      sub\n      swap1\n      return\n        /* \"contracts/Todo.sol\":2287:2506  function deleteTodo(uint16 _index) public {... */\n    tag_15:\n        /* \"contracts/Todo.sol\":2357:2362  todos */\n      0x01\n        /* \"contracts/Todo.sol\":2357:2369  todos.length */\n      dup1\n      sload\n      swap1\n      pop\n        /* \"contracts/Todo.sol\":2348:2354  _index */\n      dup2\n        /* \"contracts/Todo.sol\":2348:2369  _index < todos.length */\n      0xffff\n      and\n      lt\n        /* \"contracts/Todo.sol\":2340:2395  require(_index < todos.length, \"Index is Out_of_bound\") */\n      tag_50\n      jumpi\n      mload(0x40)\n      0x08c379a000000000000000000000000000000000000000000000000000000000\n      dup2\n      mstore\n      0x04\n      add\n      tag_51\n      swap1\n      tag_52\n      jump\t// in\n    tag_51:\n      mload(0x40)\n      dup1\n      swap2\n      sub\n      swap1\n      revert\n    tag_50:\n        /* \"contracts/Todo.sol\":2422:2427  todos */\n      0x01\n        /* \"contracts/Todo.sol\":2443:2444  1 */\n      dup1\n        /* \"contracts/Todo.sol\":2428:2433  todos */\n      dup1\n        /* \"contracts/Todo.sol\":2428:2440  todos.length */\n      dup1\n      sload\n      swap1\n      pop\n        /* \"contracts/Todo.sol\":2428:2444  todos.length - 1 */\n      tag_53\n      swap2\n      swap1\n      tag_54\n      jump\t// in\n    tag_53:\n        /* \"contracts/Todo.sol\":2422:2445  todos[todos.length - 1] */\n      dup2\n      sload\n      dup2\n      lt\n      tag_55\n      jumpi\n      tag_56\n      tag_57\n      jump\t// in\n    tag_56:\n    tag_55:\n      swap1\n      0x00\n      mstore\n      keccak256(0x00, 0x20)\n      swap1\n      0x03\n      mul\n      add\n        /* \"contracts/Todo.sol\":2406:2411  todos */\n      0x01\n        /* \"contracts/Todo.sol\":2412:2418  _index */\n      dup3\n        /* \"contracts/Todo.sol\":2406:2419  todos[_index] */\n      0xffff\n      and\n      dup2\n      sload\n      dup2\n      lt\n      tag_59\n      jumpi\n      tag_60\n      tag_57\n      jump\t// in\n    tag_60:\n    tag_59:\n      swap1\n      0x00\n      mstore\n      keccak256(0x00, 0x20)\n      swap1\n      0x03\n      mul\n      add\n        /* \"contracts/Todo.sol\":2406:2445  todos[_index] = todos[todos.length - 1] */\n      0x00\n      dup3\n      add\n      dup2\n      0x00\n      add\n      swap1\n      dup2\n      tag_62\n      swap2\n      swap1\n      tag_63\n      jump\t// in\n    tag_62:\n      pop\n      0x01\n      dup3\n      add\n      dup2\n      0x01\n      add\n      swap1\n      dup2\n      tag_64\n      swap2\n      swap1\n      tag_63\n      jump\t// in\n    tag_64:\n      pop\n      0x02\n      dup3\n      add\n      0x00\n      swap1\n      sload\n      swap1\n      0x0100\n      exp\n      swap1\n      div\n      0xff\n      and\n      dup2\n      0x02\n      add\n      exp(0x0100, 0x00)\n      dup2\n      sload\n      dup2\n      0xff\n      mul\n      not\n      and\n      swap1\n      dup4\n      0x03\n      dup2\n      gt\n      iszero\n      tag_65\n      jumpi\n      tag_66\n      tag_67\n      jump\t// in\n    tag_66:\n    tag_65:\n      mul\n      or\n      swap1\n      sstore\n      pop\n      swap1\n      pop\n      pop\n        /* \"contracts/Todo.sol\":2456:2461  todos */\n      0x01\n        /* \"contracts/Todo.sol\":2456:2467  todos.pop() */\n      dup1\n      sload\n      dup1\n      tag_68\n      jumpi\n      tag_69\n      tag_70\n      jump\t// in\n    tag_69:\n    tag_68:\n      0x01\n      swap1\n      sub\n      dup2\n      dup2\n      swap1\n      0x00\n      mstore\n      keccak256(0x00, 0x20)\n      swap1\n      0x03\n      mul\n      add\n      0x00\n      dup1\n      dup3\n      add\n      0x00\n      tag_72\n      swap2\n      swap1\n      tag_73\n      jump\t// in\n    tag_72:\n      0x01\n      dup3\n      add\n      0x00\n      tag_74\n      swap2\n      swap1\n      tag_73\n      jump\t// in\n    tag_74:\n      0x02\n      dup3\n      add\n      exp(0x0100, 0x00)\n      dup2\n      sload\n      swap1\n      0xff\n      mul\n      not\n      and\n      swap1\n      sstore\n      pop\n      pop\n      swap1\n      sstore\n        /* \"contracts/Todo.sol\":2485:2498  TodoDeleted() */\n      0x9218efb8b01b35364f271f424251d4ac0ee6008fc366226e9c2338bd15ebf616\n      mload(0x40)\n      mload(0x40)\n      dup1\n      swap2\n      sub\n      swap1\n      log1\n        /* \"contracts/Todo.sol\":2287:2506  function deleteTodo(uint16 _index) public {... */\n      pop\n      jump\t// out\n        /* \"contracts/Todo.sol\":912:1323  function createTodo(string memory _title, string memory _desc)... */\n    tag_19:\n        /* \"contracts/Todo.sol\":1052:1056  bool */\n      0x00\n        /* \"contracts/Todo.sol\":452:457  owner */\n      dup1\n      0x00\n      swap1\n      sload\n      swap1\n      0x0100\n      exp\n      swap1\n      div\n      0xffffffffffffffffffffffffffffffffffffffff\n      and\n        /* \"contracts/Todo.sol\":438:457  msg.sender == owner */\n      0xffffffffffffffffffffffffffffffffffffffff\n      and\n        /* \"contracts/Todo.sol\":438:448  msg.sender */\n      caller\n        /* \"contracts/Todo.sol\":438:457  msg.sender == owner */\n      0xffffffffffffffffffffffffffffffffffffffff\n      and\n      eq\n        /* \"contracts/Todo.sol\":430:480  require(msg.sender == owner, \"You're not allowed\") */\n      tag_76\n      jumpi\n      mload(0x40)\n      0x08c379a000000000000000000000000000000000000000000000000000000000\n      dup2\n      mstore\n      0x04\n      add\n      tag_77\n      swap1\n      tag_78\n      jump\t// in\n    tag_77:\n      mload(0x40)\n      dup1\n      swap2\n      sub\n      swap1\n      revert\n    tag_76:\n        /* \"contracts/Todo.sol\":573:574  0 */\n      0x00\n        /* \"contracts/Todo.sol\":551:575  msg.sender != address(0) */\n      0xffffffffffffffffffffffffffffffffffffffff\n      and\n        /* \"contracts/Todo.sol\":551:561  msg.sender */\n      caller\n        /* \"contracts/Todo.sol\":551:575  msg.sender != address(0) */\n      0xffffffffffffffffffffffffffffffffffffffff\n      and\n      sub\n        /* \"contracts/Todo.sol\":543:604  require(msg.sender != address(0), \"Zero Address not allowed\") */\n      tag_80\n      jumpi\n      mload(0x40)\n      0x08c379a000000000000000000000000000000000000000000000000000000000\n      dup2\n      mstore\n      0x04\n      add\n      tag_81\n      swap1\n      tag_82\n      jump\t// in\n    tag_81:\n      mload(0x40)\n      dup1\n      swap2\n      sub\n      swap1\n      revert\n    tag_80:\n        /* \"contracts/Todo.sol\":1074:1092  Todo memory mytodo */\n      tag_84\n      tag_85\n      jump\t// in\n    tag_84:\n        /* \"contracts/Todo.sol\":1118:1124  _title */\n      dup4\n        /* \"contracts/Todo.sol\":1103:1109  mytodo */\n      dup2\n        /* \"contracts/Todo.sol\":1103:1115  mytodo.title */\n      0x00\n      add\n        /* \"contracts/Todo.sol\":1103:1124  mytodo.title = _title */\n      dup2\n      swap1\n      mstore\n      pop\n        /* \"contracts/Todo.sol\":1156:1161  _desc */\n      dup3\n        /* \"contracts/Todo.sol\":1135:1141  mytodo */\n      dup2\n        /* \"contracts/Todo.sol\":1135:1153  mytodo.description */\n      0x20\n      add\n        /* \"contracts/Todo.sol\":1135:1161  mytodo.description = _desc */\n      dup2\n      swap1\n      mstore\n      pop\n        /* \"contracts/Todo.sol\":1188:1202  Status.Created */\n      0x01\n        /* \"contracts/Todo.sol\":1172:1178  mytodo */\n      dup2\n        /* \"contracts/Todo.sol\":1172:1185  mytodo.status */\n      0x40\n      add\n        /* \"contracts/Todo.sol\":1172:1202  mytodo.status = Status.Created */\n      swap1\n      0x03\n      dup2\n      gt\n      iszero\n      tag_86\n      jumpi\n      tag_87\n      tag_67\n      jump\t// in\n    tag_87:\n    tag_86:\n      swap1\n      dup2\n      0x03\n      dup2\n      gt\n      iszero\n      tag_88\n      jumpi\n      tag_89\n      tag_67\n      jump\t// in\n    tag_89:\n    tag_88:\n      dup2\n      mstore\n      pop\n      pop\n        /* \"contracts/Todo.sol\":1215:1220  todos */\n      0x01\n        /* \"contracts/Todo.sol\":1226:1232  mytodo */\n      dup2\n        /* \"contracts/Todo.sol\":1215:1233  todos.push(mytodo) */\n      swap1\n      dup1\n      0x01\n      dup2\n      sload\n      add\n      dup1\n      dup3\n      sstore\n      dup1\n      swap2\n      pop\n      pop\n      0x01\n      swap1\n      sub\n      swap1\n      0x00\n      mstore\n      keccak256(0x00, 0x20)\n      swap1\n      0x03\n      mul\n      add\n      0x00\n      swap1\n      swap2\n      swap1\n      swap2\n      swap1\n      swap2\n      pop\n      0x00\n      dup3\n      add\n      mload\n      dup2\n      0x00\n      add\n      swap1\n      dup2\n      tag_91\n      swap2\n      swap1\n      tag_92\n      jump\t// in\n    tag_91:\n      pop\n      0x20\n      dup3\n      add\n      mload\n      dup2\n      0x01\n      add\n      swap1\n      dup2\n      tag_93\n      swap2\n      swap1\n      tag_92\n      jump\t// in\n    tag_93:\n      pop\n      0x40\n      dup3\n      add\n      mload\n      dup2\n      0x02\n      add\n      exp(0x0100, 0x00)\n      dup2\n      sload\n      dup2\n      0xff\n      mul\n      not\n      and\n      swap1\n      dup4\n      0x03\n      dup2\n      gt\n      iszero\n      tag_94\n      jumpi\n      tag_95\n      tag_67\n      jump\t// in\n    tag_95:\n    tag_94:\n      mul\n      or\n      swap1\n      sstore\n      pop\n      pop\n      pop\n        /* \"contracts/Todo.sol\":1251:1293  TodoCreated(_title, _desc, Status.Created) */\n      0xa6e50c1cb85fdf7f9e8757e7dca99802492ce176e820e4d31c97225a83cabd6b\n        /* \"contracts/Todo.sol\":1263:1269  _title */\n      dup5\n        /* \"contracts/Todo.sol\":1271:1276  _desc */\n      dup5\n        /* \"contracts/Todo.sol\":1278:1292  Status.Created */\n      0x01\n        /* \"contracts/Todo.sol\":1251:1293  TodoCreated(_title, _desc, Status.Created) */\n      mload(0x40)\n      tag_96\n      swap4\n      swap3\n      swap2\n      swap1\n      tag_26\n      jump\t// in\n    tag_96:\n      mload(0x40)\n      dup1\n      swap2\n      sub\n      swap1\n      log1\n        /* \"contracts/Todo.sol\":1311:1315  true */\n      0x01\n        /* \"contracts/Todo.sol\":1304:1315  return true */\n      swap2\n      pop\n      pop\n        /* \"contracts/Todo.sol\":912:1323  function createTodo(string memory _title, string memory _desc)... */\n      swap3\n      swap2\n      pop\n      pop\n      jump\t// out\n        /* \"contracts/Todo.sol\":1820:2182  function getTodo(uint16 _index)... */\n    tag_24:\n        /* \"contracts/Todo.sol\":1916:1929  string memory */\n      0x60\n        /* \"contracts/Todo.sol\":1944:1957  string memory */\n      dup1\n        /* \"contracts/Todo.sol\":1972:1978  Status */\n      0x00\n        /* \"contracts/Todo.sol\":2023:2028  todos */\n      0x01\n        /* \"contracts/Todo.sol\":2023:2035  todos.length */\n      dup1\n      sload\n      swap1\n      pop\n        /* \"contracts/Todo.sol\":2014:2020  _index */\n      dup5\n        /* \"contracts/Todo.sol\":2014:2035  _index < todos.length */\n      0xffff\n      and\n      lt\n        /* \"contracts/Todo.sol\":2006:2061  require(_index < todos.length, \"Index is Out_of_bound\") */\n      tag_98\n      jumpi\n      mload(0x40)\n      0x08c379a000000000000000000000000000000000000000000000000000000000\n      dup2\n      mstore\n      0x04\n      add\n      tag_99\n      swap1\n      tag_52\n      jump\t// in\n    tag_99:\n      mload(0x40)\n      dup1\n      swap2\n      sub\n      swap1\n      revert\n    tag_98:\n        /* \"contracts/Todo.sol\":2072:2091  Todo storage mytodo */\n      0x00\n        /* \"contracts/Todo.sol\":2094:2099  todos */\n      0x01\n        /* \"contracts/Todo.sol\":2100:2106  _index */\n      dup6\n        /* \"contracts/Todo.sol\":2094:2107  todos[_index] */\n      0xffff\n      and\n      dup2\n      sload\n      dup2\n      lt\n      tag_100\n      jumpi\n      tag_101\n      tag_57\n      jump\t// in\n    tag_101:\n    tag_100:\n      swap1\n      0x00\n      mstore\n      keccak256(0x00, 0x20)\n      swap1\n      0x03\n      mul\n      add\n        /* \"contracts/Todo.sol\":2072:2107  Todo storage mytodo = todos[_index] */\n      swap1\n      pop\n        /* \"contracts/Todo.sol\":2126:2132  mytodo */\n      dup1\n        /* \"contracts/Todo.sol\":2126:2138  mytodo.title */\n      0x00\n      add\n        /* \"contracts/Todo.sol\":2140:2146  mytodo */\n      dup2\n        /* \"contracts/Todo.sol\":2140:2158  mytodo.description */\n      0x01\n      add\n        /* \"contracts/Todo.sol\":2160:2166  mytodo */\n      dup3\n        /* \"contracts/Todo.sol\":2160:2173  mytodo.status */\n      0x02\n      add\n      0x00\n      swap1\n      sload\n      swap1\n      0x0100\n      exp\n      swap1\n      div\n      0xff\n      and\n        /* \"contracts/Todo.sol\":2118:2174  return (mytodo.title, mytodo.description, mytodo.status) */\n      dup3\n      dup1\n      sload\n      tag_103\n      swap1\n      tag_104\n      jump\t// in\n    tag_103:\n      dup1\n      0x1f\n      add\n      0x20\n      dup1\n      swap2\n      div\n      mul\n      0x20\n      add\n      mload(0x40)\n      swap1\n      dup2\n      add\n      0x40\n      mstore\n      dup1\n      swap3\n      swap2\n      swap1\n      dup2\n      dup2\n      mstore\n      0x20\n      add\n      dup3\n      dup1\n      sload\n      tag_105\n      swap1\n      tag_104\n      jump\t// in\n    tag_105:\n      dup1\n      iszero\n      tag_106\n      jumpi\n      dup1\n      0x1f\n      lt\n      tag_107\n      jumpi\n      0x0100\n      dup1\n      dup4\n      sload\n      div\n      mul\n      dup4\n      mstore\n      swap2\n      0x20\n      add\n      swap2\n      jump(tag_106)\n    tag_107:\n      dup3\n      add\n      swap2\n      swap1\n      0x00\n      mstore\n      keccak256(0x00, 0x20)\n      swap1\n    tag_108:\n      dup2\n      sload\n      dup2\n      mstore\n      swap1\n      0x01\n      add\n      swap1\n      0x20\n      add\n      dup1\n      dup4\n      gt\n      tag_108\n      jumpi\n      dup3\n      swap1\n      sub\n      0x1f\n      and\n      dup3\n      add\n      swap2\n    tag_106:\n      pop\n      pop\n      pop\n      pop\n      pop\n      swap3\n      pop\n      dup2\n      dup1\n      sload\n      tag_109\n      swap1\n      tag_104\n      jump\t// in\n    tag_109:\n      dup1\n      0x1f\n      add\n      0x20\n      dup1\n      swap2\n      div\n      mul\n      0x20\n      add\n      mload(0x40)\n      swap1\n      dup2\n      add\n      0x40\n      mstore\n      dup1\n      swap3\n      swap2\n      swap1\n      dup2\n      dup2\n      mstore\n      0x20\n      add\n      dup3\n      dup1\n      sload\n      tag_110\n      swap1\n      tag_104\n      jump\t// in\n    tag_110:\n      dup1\n      iszero\n      tag_111\n      jumpi\n      dup1\n      0x1f\n      lt\n      tag_112\n      jumpi\n      0x0100\n      dup1\n      dup4\n      sload\n      div\n      mul\n      dup4\n      mstore\n      swap2\n      0x20\n      add\n      swap2\n      jump(tag_111)\n    tag_112:\n      dup3\n      add\n      swap2\n      swap1\n      0x00\n      mstore\n      keccak256(0x00, 0x20)\n      swap1\n    tag_113:\n      dup2\n      sload\n      dup2\n      mstore\n      swap1\n      0x01\n      add\n      swap1\n      0x20\n      add\n      dup1\n      dup4\n      gt\n      tag_113\n      jumpi\n      dup3\n      swap1\n      sub\n      0x1f\n      and\n      dup3\n      add\n      swap2\n    tag_111:\n      pop\n      pop\n      pop\n      pop\n      pop\n      swap2\n      pop\n      swap4\n      pop\n      swap4\n      pop\n      swap4\n      pop\n      pop\n        /* \"contracts/Todo.sol\":1820:2182  function getTodo(uint16 _index)... */\n      swap2\n      swap4\n      swap1\n      swap3\n      pop\n      jump\t// out\n        /* \"contracts/Todo.sol\":86:106  address public owner */\n    tag_28:\n      0x00\n      dup1\n      sload\n      swap1\n      0x0100\n      exp\n      swap1\n      div\n      0xffffffffffffffffffffffffffffffffffffffff\n      and\n      dup2\n      jump\t// out\n        /* \"contracts/Todo.sol\":2190:2279  function getAllTodo() public view returns (Todo[] memory) {... */\n    tag_32:\n        /* \"contracts/Todo.sol\":2233:2246  Todo[] memory */\n      0x60\n        /* \"contracts/Todo.sol\":2266:2271  todos */\n      0x01\n        /* \"contracts/Todo.sol\":2259:2271  return todos */\n      dup1\n      sload\n      dup1\n      0x20\n      mul\n      0x20\n      add\n      mload(0x40)\n      swap1\n      dup2\n      add\n      0x40\n      mstore\n      dup1\n      swap3\n      swap2\n      swap1\n      dup2\n      dup2\n      mstore\n      0x20\n      add\n      0x00\n      swap1\n    tag_115:\n      dup3\n      dup3\n      lt\n      iszero\n      tag_116\n      jumpi\n      dup4\n      dup3\n      swap1\n      0x00\n      mstore\n      keccak256(0x00, 0x20)\n      swap1\n      0x03\n      mul\n      add\n      mload(0x40)\n      dup1\n      0x60\n      add\n      0x40\n      mstore\n      swap1\n      dup2\n      0x00\n      dup3\n      add\n      dup1\n      sload\n      tag_118\n      swap1\n      tag_104\n      jump\t// in\n    tag_118:\n      dup1\n      0x1f\n      add\n      0x20\n      dup1\n      swap2\n      div\n      mul\n      0x20\n      add\n      mload(0x40)\n      swap1\n      dup2\n      add\n      0x40\n      mstore\n      dup1\n      swap3\n      swap2\n      swap1\n      dup2\n      dup2\n      mstore\n      0x20\n      add\n      dup3\n      dup1\n      sload\n      tag_119\n      swap1\n      tag_104\n      jump\t// in\n    tag_119:\n      dup1\n      iszero\n      tag_120\n      jumpi\n      dup1\n      0x1f\n      lt\n      tag_121\n      jumpi\n      0x0100\n      dup1\n      dup4\n      sload\n      div\n      mul\n      dup4\n      mstore\n      swap2\n      0x20\n      add\n      swap2\n      jump(tag_120)\n    tag_121:\n      dup3\n      add\n      swap2\n      swap1\n      0x00\n      mstore\n      keccak256(0x00, 0x20)\n      swap1\n    tag_122:\n      dup2\n      sload\n      dup2\n      mstore\n      swap1\n      0x01\n      add\n      swap1\n      0x20\n      add\n      dup1\n      dup4\n      gt\n      tag_122\n      jumpi\n      dup3\n      swap1\n      sub\n      0x1f\n      and\n      dup3\n      add\n      swap2\n    tag_120:\n      pop\n      pop\n      pop\n      pop\n      pop\n      dup2\n      mstore\n      0x20\n      add\n      0x01\n      dup3\n      add\n      dup1\n      sload\n      tag_123\n      swap1\n      tag_104\n      jump\t// in\n    tag_123:\n      dup1\n      0x1f\n      add\n      0x20\n      dup1\n      swap2\n      div\n      mul\n      0x20\n      add\n      mload(0x40)\n      swap1\n      dup2\n      add\n      0x40\n      mstore\n      dup1\n      swap3\n      swap2\n      swap1\n      dup2\n      dup2\n      mstore\n      0x20\n      add\n      dup3\n      dup1\n      sload\n      tag_124\n      swap1\n      tag_104\n      jump\t// in\n    tag_124:\n      dup1\n      iszero\n      tag_125\n      jumpi\n      dup1\n      0x1f\n      lt\n      tag_126\n      jumpi\n      0x0100\n      dup1\n      dup4\n      sload\n      div\n      mul\n      dup4\n      mstore\n      swap2\n      0x20\n      add\n      swap2\n      jump(tag_125)\n    tag_126:\n      dup3\n      add\n      swap2\n      swap1\n      0x00\n      mstore\n      keccak256(0x00, 0x20)\n      swap1\n    tag_127:\n      dup2\n      sload\n      dup2\n      mstore\n      swap1\n      0x01\n      add\n      swap1\n      0x20\n      add\n      dup1\n      dup4\n      gt\n      tag_127\n      jumpi\n      dup3\n      swap1\n      sub\n      0x1f\n      and\n      dup3\n      add\n      swap2\n    tag_125:\n      pop\n      pop\n      pop\n      pop\n      pop\n      dup2\n      mstore\n      0x20\n      add\n      0x02\n      dup3\n      add\n      0x00\n      swap1\n      sload\n      swap1\n      0x0100\n      exp\n      swap1\n      div\n      0xff\n      and\n      0x03\n      dup2\n      gt\n      iszero\n      tag_128\n      jumpi\n      tag_129\n      tag_67\n      jump\t// in\n    tag_129:\n    tag_128:\n      0x03\n      dup2\n      gt\n      iszero\n      tag_130\n      jumpi\n      tag_131\n      tag_67\n      jump\t// in\n    tag_131:\n    tag_130:\n      dup2\n      mstore\n      pop\n      pop\n      dup2\n      mstore\n      0x20\n      add\n      swap1\n      0x01\n      add\n      swap1\n      jump(tag_115)\n    tag_116:\n      pop\n      pop\n      pop\n      pop\n      swap1\n      pop\n        /* \"contracts/Todo.sol\":2190:2279  function getAllTodo() public view returns (Todo[] memory) {... */\n      swap1\n      jump\t// out\n        /* \"contracts/Todo.sol\":2514:2823  function todoComplete(uint16 _index)... */\n    tag_37:\n        /* \"contracts/Todo.sol\":2626:2630  bool */\n      0x00\n        /* \"contracts/Todo.sol\":452:457  owner */\n      dup1\n      0x00\n      swap1\n      sload\n      swap1\n      0x0100\n      exp\n      swap1\n      div\n      0xffffffffffffffffffffffffffffffffffffffff\n      and\n        /* \"contracts/Todo.sol\":438:457  msg.sender == owner */\n      0xffffffffffffffffffffffffffffffffffffffff\n      and\n        /* \"contracts/Todo.sol\":438:448  msg.sender */\n      caller\n        /* \"contracts/Todo.sol\":438:457  msg.sender == owner */\n      0xffffffffffffffffffffffffffffffffffffffff\n      and\n      eq\n        /* \"contracts/Todo.sol\":430:480  require(msg.sender == owner, \"You're not allowed\") */\n      tag_133\n      jumpi\n      mload(0x40)\n      0x08c379a000000000000000000000000000000000000000000000000000000000\n      dup2\n      mstore\n      0x04\n      add\n      tag_134\n      swap1\n      tag_78\n      jump\t// in\n    tag_134:\n      mload(0x40)\n      dup1\n      swap2\n      sub\n      swap1\n      revert\n    tag_133:\n        /* \"contracts/Todo.sol\":573:574  0 */\n      0x00\n        /* \"contracts/Todo.sol\":551:575  msg.sender != address(0) */\n      0xffffffffffffffffffffffffffffffffffffffff\n      and\n        /* \"contracts/Todo.sol\":551:561  msg.sender */\n      caller\n        /* \"contracts/Todo.sol\":551:575  msg.sender != address(0) */\n      0xffffffffffffffffffffffffffffffffffffffff\n      and\n      sub\n        /* \"contracts/Todo.sol\":543:604  require(msg.sender != address(0), \"Zero Address not allowed\") */\n      tag_136\n      jumpi\n      mload(0x40)\n      0x08c379a000000000000000000000000000000000000000000000000000000000\n      dup2\n      mstore\n      0x04\n      add\n      tag_137\n      swap1\n      tag_82\n      jump\t// in\n    tag_137:\n      mload(0x40)\n      dup1\n      swap2\n      sub\n      swap1\n      revert\n    tag_136:\n        /* \"contracts/Todo.sol\":2665:2670  todos */\n      0x01\n        /* \"contracts/Todo.sol\":2665:2677  todos.length */\n      dup1\n      sload\n      swap1\n      pop\n        /* \"contracts/Todo.sol\":2656:2662  _index */\n      dup3\n        /* \"contracts/Todo.sol\":2656:2677  _index < todos.length */\n      0xffff\n      and\n      lt\n        /* \"contracts/Todo.sol\":2648:2703  require(_index < todos.length, \"Index is Out_of_bound\") */\n      tag_139\n      jumpi\n      mload(0x40)\n      0x08c379a000000000000000000000000000000000000000000000000000000000\n      dup2\n      mstore\n      0x04\n      add\n      tag_140\n      swap1\n      tag_52\n      jump\t// in\n    tag_140:\n      mload(0x40)\n      dup1\n      swap2\n      sub\n      swap1\n      revert\n    tag_139:\n        /* \"contracts/Todo.sol\":2716:2735  Todo storage mytodo */\n      0x00\n        /* \"contracts/Todo.sol\":2738:2743  todos */\n      0x01\n        /* \"contracts/Todo.sol\":2744:2750  _index */\n      dup4\n        /* \"contracts/Todo.sol\":2738:2751  todos[_index] */\n      0xffff\n      and\n      dup2\n      sload\n      dup2\n      lt\n      tag_141\n      jumpi\n      tag_142\n      tag_57\n      jump\t// in\n    tag_142:\n    tag_141:\n      swap1\n      0x00\n      mstore\n      keccak256(0x00, 0x20)\n      swap1\n      0x03\n      mul\n      add\n        /* \"contracts/Todo.sol\":2716:2751  Todo storage mytodo = todos[_index] */\n      swap1\n      pop\n        /* \"contracts/Todo.sol\":2780:2791  Status.Done */\n      0x03\n        /* \"contracts/Todo.sol\":2764:2770  mytodo */\n      dup2\n        /* \"contracts/Todo.sol\":2764:2777  mytodo.status */\n      0x02\n      add\n      0x00\n        /* \"contracts/Todo.sol\":2764:2791  mytodo.status = Status.Done */\n      0x0100\n      exp\n      dup2\n      sload\n      dup2\n      0xff\n      mul\n      not\n      and\n      swap1\n      dup4\n      0x03\n      dup2\n      gt\n      iszero\n      tag_144\n      jumpi\n      tag_145\n      tag_67\n      jump\t// in\n    tag_145:\n    tag_144:\n      mul\n      or\n      swap1\n      sstore\n      pop\n        /* \"contracts/Todo.sol\":2811:2815  true */\n      0x01\n        /* \"contracts/Todo.sol\":2804:2815  return true */\n      swap2\n      pop\n      pop\n        /* \"contracts/Todo.sol\":2514:2823  function todoComplete(uint16 _index)... */\n      swap2\n      swap1\n      pop\n      jump\t// out\n        /* \"contracts/Todo.sol\":311:330  Todo[] public todos */\n    tag_42:\n      0x01\n      dup2\n      dup2\n      sload\n      dup2\n      lt\n      tag_146\n      jumpi\n      0x00\n      dup1\n      revert\n    tag_146:\n      swap1\n      0x00\n      mstore\n      keccak256(0x00, 0x20)\n      swap1\n      0x03\n      mul\n      add\n      0x00\n      swap2\n      pop\n      swap1\n      pop\n      dup1\n      0x00\n      add\n      dup1\n      sload\n      tag_148\n      swap1\n      tag_104\n      jump\t// in\n    tag_148:\n      dup1\n      0x1f\n      add\n      0x20\n      dup1\n      swap2\n      div\n      mul\n      0x20\n      add\n      mload(0x40)\n      swap1\n      dup2\n      add\n      0x40\n      mstore\n      dup1\n      swap3\n      swap2\n      swap1\n      dup2\n      dup2\n      mstore\n      0x20\n      add\n      dup3\n      dup1\n      sload\n      tag_149\n      swap1\n      tag_104\n      jump\t// in\n    tag_149:\n      dup1\n      iszero\n      tag_150\n      jumpi\n      dup1\n      0x1f\n      lt\n      tag_151\n      jumpi\n      0x0100\n      dup1\n      dup4\n      sload\n      div\n      mul\n      dup4\n      mstore\n      swap2\n      0x20\n      add\n      swap2\n      jump(tag_150)\n    tag_151:\n      dup3\n      add\n      swap2\n      swap1\n      0x00\n      mstore\n      keccak256(0x00, 0x20)\n      swap1\n    tag_152:\n      dup2\n      sload\n      dup2\n      mstore\n      swap1\n      0x01\n      add\n      swap1\n      0x20\n      add\n      dup1\n      dup4\n      gt\n      tag_152\n      jumpi\n      dup3\n      swap1\n      sub\n      0x1f\n      and\n      dup3\n      add\n      swap2\n    tag_150:\n      pop\n      pop\n      pop\n      pop\n      pop\n      swap1\n      dup1\n      0x01\n      add\n      dup1\n      sload\n      tag_153\n      swap1\n      tag_104\n      jump\t// in\n    tag_153:\n      dup1\n      0x1f\n      add\n      0x20\n      dup1\n      swap2\n      div\n      mul\n      0x20\n      add\n      mload(0x40)\n      swap1\n      dup2\n      add\n      0x40\n      mstore\n      dup1\n      swap3\n      swap2\n      swap1\n      dup2\n      dup2\n      mstore\n      0x20\n      add\n      dup3\n      dup1\n      sload\n      tag_154\n      swap1\n      tag_104\n      jump\t// in\n    tag_154:\n      dup1\n      iszero\n      tag_155\n      jumpi\n      dup1\n      0x1f\n      lt\n      tag_156\n      jumpi\n      0x0100\n      dup1\n      dup4\n      sload\n      div\n      mul\n      dup4\n      mstore\n      swap2\n      0x20\n      add\n      swap2\n      jump(tag_155)\n    tag_156:\n      dup3\n      add\n      swap2\n      swap1\n      0x00\n      mstore\n      keccak256(0x00, 0x20)\n      swap1\n    tag_157:\n      dup2\n      sload\n      dup2\n      mstore\n      swap1\n      0x01\n      add\n      swap1\n      0x20\n      add\n      dup1\n      dup4\n      gt\n      tag_157\n      jumpi\n      dup3\n      swap1\n      sub\n      0x1f\n      and\n      dup3\n      add\n      swap2\n    tag_155:\n      pop\n      pop\n      pop\n      pop\n      pop\n      swap1\n      dup1\n      0x02\n      add\n      0x00\n      swap1\n      sload\n      swap1\n      0x0100\n      exp\n      swap1\n      div\n      0xff\n      and\n      swap1\n      pop\n      dup4\n      jump\t// out\n        /* \"contracts/Todo.sol\":1331:1812  function updateTodo(... */\n    tag_47:\n        /* \"contracts/Todo.sol\":1483:1487  bool */\n      0x00\n        /* \"contracts/Todo.sol\":452:457  owner */\n      dup1\n      0x00\n      swap1\n      sload\n      swap1\n      0x0100\n      exp\n      swap1\n      div\n      0xffffffffffffffffffffffffffffffffffffffff\n      and\n        /* \"contracts/Todo.sol\":438:457  msg.sender == owner */\n      0xffffffffffffffffffffffffffffffffffffffff\n      and\n        /* \"contracts/Todo.sol\":438:448  msg.sender */\n      caller\n        /* \"contracts/Todo.sol\":438:457  msg.sender == owner */\n      0xffffffffffffffffffffffffffffffffffffffff\n      and\n      eq\n        /* \"contracts/Todo.sol\":430:480  require(msg.sender == owner, \"You're not allowed\") */\n      tag_159\n      jumpi\n      mload(0x40)\n      0x08c379a000000000000000000000000000000000000000000000000000000000\n      dup2\n      mstore\n      0x04\n      add\n      tag_160\n      swap1\n      tag_78\n      jump\t// in\n    tag_160:\n      mload(0x40)\n      dup1\n      swap2\n      sub\n      swap1\n      revert\n    tag_159:\n        /* \"contracts/Todo.sol\":573:574  0 */\n      0x00\n        /* \"contracts/Todo.sol\":551:575  msg.sender != address(0) */\n      0xffffffffffffffffffffffffffffffffffffffff\n      and\n        /* \"contracts/Todo.sol\":551:561  msg.sender */\n      caller\n        /* \"contracts/Todo.sol\":551:575  msg.sender != address(0) */\n      0xffffffffffffffffffffffffffffffffffffffff\n      and\n      sub\n        /* \"contracts/Todo.sol\":543:604  require(msg.sender != address(0), \"Zero Address not allowed\") */\n      tag_162\n      jumpi\n      mload(0x40)\n      0x08c379a000000000000000000000000000000000000000000000000000000000\n      dup2\n      mstore\n      0x04\n      add\n      tag_163\n      swap1\n      tag_82\n      jump\t// in\n    tag_163:\n      mload(0x40)\n      dup1\n      swap2\n      sub\n      swap1\n      revert\n    tag_162:\n        /* \"contracts/Todo.sol\":1517:1522  todos */\n      0x01\n        /* \"contracts/Todo.sol\":1517:1529  todos.length */\n      dup1\n      sload\n      swap1\n      pop\n        /* \"contracts/Todo.sol\":1508:1514  _index */\n      dup5\n        /* \"contracts/Todo.sol\":1508:1529  _index < todos.length */\n      0xff\n      and\n      lt\n        /* \"contracts/Todo.sol\":1500:1555  require(_index < todos.length, \"Index is Out_of_bound\") */\n      tag_165\n      jumpi\n      mload(0x40)\n      0x08c379a000000000000000000000000000000000000000000000000000000000\n      dup2\n      mstore\n      0x04\n      add\n      tag_166\n      swap1\n      tag_52\n      jump\t// in\n    tag_166:\n      mload(0x40)\n      dup1\n      swap2\n      sub\n      swap1\n      revert\n    tag_165:\n        /* \"contracts/Todo.sol\":1568:1587  Todo storage mytodo */\n      0x00\n        /* \"contracts/Todo.sol\":1590:1595  todos */\n      0x01\n        /* \"contracts/Todo.sol\":1596:1602  _index */\n      dup6\n        /* \"contracts/Todo.sol\":1590:1603  todos[_index] */\n      0xff\n      and\n      dup2\n      sload\n      dup2\n      lt\n      tag_167\n      jumpi\n      tag_168\n      tag_57\n      jump\t// in\n    tag_168:\n    tag_167:\n      swap1\n      0x00\n      mstore\n      keccak256(0x00, 0x20)\n      swap1\n      0x03\n      mul\n      add\n        /* \"contracts/Todo.sol\":1568:1603  Todo storage mytodo = todos[_index] */\n      swap1\n      pop\n        /* \"contracts/Todo.sol\":1629:1635  _title */\n      dup4\n        /* \"contracts/Todo.sol\":1614:1620  mytodo */\n      dup2\n        /* \"contracts/Todo.sol\":1614:1626  mytodo.title */\n      0x00\n      add\n        /* \"contracts/Todo.sol\":1614:1635  mytodo.title = _title */\n      swap1\n      dup2\n      tag_170\n      swap2\n      swap1\n      tag_92\n      jump\t// in\n    tag_170:\n      pop\n        /* \"contracts/Todo.sol\":1667:1672  _desc */\n      dup3\n        /* \"contracts/Todo.sol\":1646:1652  mytodo */\n      dup2\n        /* \"contracts/Todo.sol\":1646:1664  mytodo.description */\n      0x01\n      add\n        /* \"contracts/Todo.sol\":1646:1672  mytodo.description = _desc */\n      swap1\n      dup2\n      tag_171\n      swap2\n      swap1\n      tag_92\n      jump\t// in\n    tag_171:\n      pop\n        /* \"contracts/Todo.sol\":1699:1712  Status.Edited */\n      0x02\n        /* \"contracts/Todo.sol\":1683:1689  mytodo */\n      dup2\n        /* \"contracts/Todo.sol\":1683:1696  mytodo.status */\n      0x02\n      add\n      0x00\n        /* \"contracts/Todo.sol\":1683:1712  mytodo.status = Status.Edited */\n      0x0100\n      exp\n      dup2\n      sload\n      dup2\n      0xff\n      mul\n      not\n      and\n      swap1\n      dup4\n      0x03\n      dup2\n      gt\n      iszero\n      tag_172\n      jumpi\n      tag_173\n      tag_67\n      jump\t// in\n    tag_173:\n    tag_172:\n      mul\n      or\n      swap1\n      sstore\n      pop\n        /* \"contracts/Todo.sol\":1730:1780  TodoUpdated( _index, _title, _desc, Status.Edited) */\n      0xeaf396fcad0364018752e6c4e5adad3e2dc3c6fdcfaf795e55df5bf5d7f7b790\n        /* \"contracts/Todo.sol\":1743:1749  _index */\n      dup6\n        /* \"contracts/Todo.sol\":1751:1757  _title */\n      dup6\n        /* \"contracts/Todo.sol\":1759:1764  _desc */\n      dup6\n        /* \"contracts/Todo.sol\":1766:1779  Status.Edited */\n      0x02\n        /* \"contracts/Todo.sol\":1730:1780  TodoUpdated( _index, _title, _desc, Status.Edited) */\n      mload(0x40)\n      tag_174\n      swap5\n      swap4\n      swap3\n      swap2\n      swap1\n      tag_175\n      jump\t// in\n    tag_174:\n      mload(0x40)\n      dup1\n      swap2\n      sub\n      swap1\n      log1\n        /* \"contracts/Todo.sol\":1800:1804  true */\n      0x01\n        /* \"contracts/Todo.sol\":1793:1804  return true */\n      swap2\n      pop\n      pop\n        /* \"contracts/Todo.sol\":1331:1812  function updateTodo(... */\n      swap4\n      swap3\n      pop\n      pop\n      pop\n      jump\t// out\n    tag_73:\n      pop\n      dup1\n      sload\n      tag_176\n      swap1\n      tag_104\n      jump\t// in\n    tag_176:\n      0x00\n      dup3\n      sstore\n      dup1\n      0x1f\n      lt\n      tag_178\n      jumpi\n      pop\n      jump(tag_177)\n    tag_178:\n      0x1f\n      add\n      0x20\n      swap1\n      div\n      swap1\n      0x00\n      mstore\n      keccak256(0x00, 0x20)\n      swap1\n      dup2\n      add\n      swap1\n      tag_179\n      swap2\n      swap1\n      tag_180\n      jump\t// in\n    tag_179:\n    tag_177:\n      pop\n      jump\t// out\n    tag_85:\n      mload(0x40)\n      dup1\n      0x60\n      add\n      0x40\n      mstore\n      dup1\n      0x60\n      dup2\n      mstore\n      0x20\n      add\n      0x60\n      dup2\n      mstore\n      0x20\n      add\n      0x00\n      0x03\n      dup2\n      gt\n      iszero\n      tag_181\n      jumpi\n      tag_182\n      tag_67\n      jump\t// in\n    tag_182:\n    tag_181:\n      dup2\n      mstore\n      pop\n      swap1\n      jump\t// out\n    tag_180:\n    tag_183:\n      dup1\n      dup3\n      gt\n      iszero\n      tag_184\n      jumpi\n      0x00\n      dup2\n      0x00\n      swap1\n      sstore\n      pop\n      0x01\n      add\n      jump(tag_183)\n    tag_184:\n      pop\n      swap1\n      jump\t// out\n        /* \"#utility.yul\":7:82   */\n    tag_185:\n        /* \"#utility.yul\":40:46   */\n      0x00\n        /* \"#utility.yul\":73:75   */\n      0x40\n        /* \"#utility.yul\":67:76   */\n      mload\n        /* \"#utility.yul\":57:76   */\n      swap1\n      pop\n        /* \"#utility.yul\":7:82   */\n      swap1\n      jump\t// out\n        /* \"#utility.yul\":88:205   */\n    tag_186:\n        /* \"#utility.yul\":197:198   */\n      0x00\n        /* \"#utility.yul\":194:195   */\n      dup1\n        /* \"#utility.yul\":187:199   */\n      revert\n        /* \"#utility.yul\":211:328   */\n    tag_187:\n        /* \"#utility.yul\":320:321   */\n      0x00\n        /* \"#utility.yul\":317:318   */\n      dup1\n        /* \"#utility.yul\":310:322   */\n      revert\n        /* \"#utility.yul\":334:423   */\n    tag_188:\n        /* \"#utility.yul\":370:377   */\n      0x00\n        /* \"#utility.yul\":410:416   */\n      0xffff\n        /* \"#utility.yul\":403:408   */\n      dup3\n        /* \"#utility.yul\":399:417   */\n      and\n        /* \"#utility.yul\":388:417   */\n      swap1\n      pop\n        /* \"#utility.yul\":334:423   */\n      swap2\n      swap1\n      pop\n      jump\t// out\n        /* \"#utility.yul\":429:549   */\n    tag_189:\n        /* \"#utility.yul\":501:524   */\n      tag_261\n        /* \"#utility.yul\":518:523   */\n      dup2\n        /* \"#utility.yul\":501:524   */\n      tag_188\n      jump\t// in\n    tag_261:\n        /* \"#utility.yul\":494:499   */\n      dup2\n        /* \"#utility.yul\":491:525   */\n      eq\n        /* \"#utility.yul\":481:543   */\n      tag_262\n      jumpi\n        /* \"#utility.yul\":539:540   */\n      0x00\n        /* \"#utility.yul\":536:537   */\n      dup1\n        /* \"#utility.yul\":529:541   */\n      revert\n        /* \"#utility.yul\":481:543   */\n    tag_262:\n        /* \"#utility.yul\":429:549   */\n      pop\n      jump\t// out\n        /* \"#utility.yul\":555:692   */\n    tag_190:\n        /* \"#utility.yul\":600:605   */\n      0x00\n        /* \"#utility.yul\":638:644   */\n      dup2\n        /* \"#utility.yul\":625:645   */\n      calldataload\n        /* \"#utility.yul\":616:645   */\n      swap1\n      pop\n        /* \"#utility.yul\":654:686   */\n      tag_264\n        /* \"#utility.yul\":680:685   */\n      dup2\n        /* \"#utility.yul\":654:686   */\n      tag_189\n      jump\t// in\n    tag_264:\n        /* \"#utility.yul\":555:692   */\n      swap3\n      swap2\n      pop\n      pop\n      jump\t// out\n        /* \"#utility.yul\":698:1025   */\n    tag_14:\n        /* \"#utility.yul\":756:762   */\n      0x00\n        /* \"#utility.yul\":805:807   */\n      0x20\n        /* \"#utility.yul\":793:802   */\n      dup3\n        /* \"#utility.yul\":784:791   */\n      dup5\n        /* \"#utility.yul\":780:803   */\n      sub\n        /* \"#utility.yul\":776:808   */\n      slt\n        /* \"#utility.yul\":773:892   */\n      iszero\n      tag_266\n      jumpi\n        /* \"#utility.yul\":811:890   */\n      tag_267\n      tag_186\n      jump\t// in\n    tag_267:\n        /* \"#utility.yul\":773:892   */\n    tag_266:\n        /* \"#utility.yul\":931:932   */\n      0x00\n        /* \"#utility.yul\":956:1008   */\n      tag_268\n        /* \"#utility.yul\":1000:1007   */\n      dup5\n        /* \"#utility.yul\":991:997   */\n      dup3\n        /* \"#utility.yul\":980:989   */\n      dup6\n        /* \"#utility.yul\":976:998   */\n      add\n        /* \"#utility.yul\":956:1008   */\n      tag_190\n      jump\t// in\n    tag_268:\n        /* \"#utility.yul\":946:1008   */\n      swap2\n      pop\n        /* \"#utility.yul\":902:1018   */\n      pop\n        /* \"#utility.yul\":698:1025   */\n      swap3\n      swap2\n      pop\n      pop\n      jump\t// out\n        /* \"#utility.yul\":1031:1148   */\n    tag_191:\n        /* \"#utility.yul\":1140:1141   */\n      0x00\n        /* \"#utility.yul\":1137:1138   */\n      dup1\n        /* \"#utility.yul\":1130:1142   */\n      revert\n        /* \"#utility.yul\":1154:1271   */\n    tag_192:\n        /* \"#utility.yul\":1263:1264   */\n      0x00\n        /* \"#utility.yul\":1260:1261   */\n      dup1\n        /* \"#utility.yul\":1253:1265   */\n      revert\n        /* \"#utility.yul\":1277:1379   */\n    tag_193:\n        /* \"#utility.yul\":1318:1324   */\n      0x00\n        /* \"#utility.yul\":1369:1371   */\n      0x1f\n        /* \"#utility.yul\":1365:1372   */\n      not\n        /* \"#utility.yul\":1360:1362   */\n      0x1f\n        /* \"#utility.yul\":1353:1358   */\n      dup4\n        /* \"#utility.yul\":1349:1363   */\n      add\n        /* \"#utility.yul\":1345:1373   */\n      and\n        /* \"#utility.yul\":1335:1373   */\n      swap1\n      pop\n        /* \"#utility.yul\":1277:1379   */\n      swap2\n      swap1\n      pop\n      jump\t// out\n        /* \"#utility.yul\":1385:1565   */\n    tag_194:\n        /* \"#utility.yul\":1433:1510   */\n      0x4e487b7100000000000000000000000000000000000000000000000000000000\n        /* \"#utility.yul\":1430:1431   */\n      0x00\n        /* \"#utility.yul\":1423:1511   */\n      mstore\n        /* \"#utility.yul\":1530:1534   */\n      0x41\n        /* \"#utility.yul\":1527:1528   */\n      0x04\n        /* \"#utility.yul\":1520:1535   */\n      mstore\n        /* \"#utility.yul\":1554:1558   */\n      0x24\n        /* \"#utility.yul\":1551:1552   */\n      0x00\n        /* \"#utility.yul\":1544:1559   */\n      revert\n        /* \"#utility.yul\":1571:1852   */\n    tag_195:\n        /* \"#utility.yul\":1654:1681   */\n      tag_274\n        /* \"#utility.yul\":1676:1680   */\n      dup3\n        /* \"#utility.yul\":1654:1681   */\n      tag_193\n      jump\t// in\n    tag_274:\n        /* \"#utility.yul\":1646:1652   */\n      dup2\n        /* \"#utility.yul\":1642:1682   */\n      add\n        /* \"#utility.yul\":1784:1790   */\n      dup2\n        /* \"#utility.yul\":1772:1782   */\n      dup2\n        /* \"#utility.yul\":1769:1791   */\n      lt\n        /* \"#utility.yul\":1748:1766   */\n      0xffffffffffffffff\n        /* \"#utility.yul\":1736:1746   */\n      dup3\n        /* \"#utility.yul\":1733:1767   */\n      gt\n        /* \"#utility.yul\":1730:1792   */\n      or\n        /* \"#utility.yul\":1727:1815   */\n      iszero\n      tag_275\n      jumpi\n        /* \"#utility.yul\":1795:1813   */\n      tag_276\n      tag_194\n      jump\t// in\n    tag_276:\n        /* \"#utility.yul\":1727:1815   */\n    tag_275:\n        /* \"#utility.yul\":1835:1845   */\n      dup1\n        /* \"#utility.yul\":1831:1833   */\n      0x40\n        /* \"#utility.yul\":1824:1846   */\n      mstore\n        /* \"#utility.yul\":1614:1852   */\n      pop\n        /* \"#utility.yul\":1571:1852   */\n      pop\n      pop\n      jump\t// out\n        /* \"#utility.yul\":1858:1987   */\n    tag_196:\n        /* \"#utility.yul\":1892:1898   */\n      0x00\n        /* \"#utility.yul\":1919:1939   */\n      tag_278\n      tag_185\n      jump\t// in\n    tag_278:\n        /* \"#utility.yul\":1909:1939   */\n      swap1\n      pop\n        /* \"#utility.yul\":1948:1981   */\n      tag_279\n        /* \"#utility.yul\":1976:1980   */\n      dup3\n        /* \"#utility.yul\":1968:1974   */\n      dup3\n        /* \"#utility.yul\":1948:1981   */\n      tag_195\n      jump\t// in\n    tag_279:\n        /* \"#utility.yul\":1858:1987   */\n      swap2\n      swap1\n      pop\n      jump\t// out\n        /* \"#utility.yul\":1993:2301   */\n    tag_197:\n        /* \"#utility.yul\":2055:2059   */\n      0x00\n        /* \"#utility.yul\":2145:2163   */\n      0xffffffffffffffff\n        /* \"#utility.yul\":2137:2143   */\n      dup3\n        /* \"#utility.yul\":2134:2164   */\n      gt\n        /* \"#utility.yul\":2131:2187   */\n      iszero\n      tag_281\n      jumpi\n        /* \"#utility.yul\":2167:2185   */\n      tag_282\n      tag_194\n      jump\t// in\n    tag_282:\n        /* \"#utility.yul\":2131:2187   */\n    tag_281:\n        /* \"#utility.yul\":2205:2234   */\n      tag_283\n        /* \"#utility.yul\":2227:2233   */\n      dup3\n        /* \"#utility.yul\":2205:2234   */\n      tag_193\n      jump\t// in\n    tag_283:\n        /* \"#utility.yul\":2197:2234   */\n      swap1\n      pop\n        /* \"#utility.yul\":2289:2293   */\n      0x20\n        /* \"#utility.yul\":2283:2287   */\n      dup2\n        /* \"#utility.yul\":2279:2294   */\n      add\n        /* \"#utility.yul\":2271:2294   */\n      swap1\n      pop\n        /* \"#utility.yul\":1993:2301   */\n      swap2\n      swap1\n      pop\n      jump\t// out\n        /* \"#utility.yul\":2307:2455   */\n    tag_198:\n        /* \"#utility.yul\":2405:2411   */\n      dup3\n        /* \"#utility.yul\":2400:2403   */\n      dup2\n        /* \"#utility.yul\":2395:2398   */\n      dup4\n        /* \"#utility.yul\":2382:2412   */\n      calldatacopy\n        /* \"#utility.yul\":2446:2447   */\n      0x00\n        /* \"#utility.yul\":2437:2443   */\n      dup4\n        /* \"#utility.yul\":2432:2435   */\n      dup4\n        /* \"#utility.yul\":2428:2444   */\n      add\n        /* \"#utility.yul\":2421:2448   */\n      mstore\n        /* \"#utility.yul\":2307:2455   */\n      pop\n      pop\n      pop\n      jump\t// out\n        /* \"#utility.yul\":2461:2886   */\n    tag_199:\n        /* \"#utility.yul\":2539:2544   */\n      0x00\n        /* \"#utility.yul\":2564:2630   */\n      tag_286\n        /* \"#utility.yul\":2580:2629   */\n      tag_287\n        /* \"#utility.yul\":2622:2628   */\n      dup5\n        /* \"#utility.yul\":2580:2629   */\n      tag_197\n      jump\t// in\n    tag_287:\n        /* \"#utility.yul\":2564:2630   */\n      tag_196\n      jump\t// in\n    tag_286:\n        /* \"#utility.yul\":2555:2630   */\n      swap1\n      pop\n        /* \"#utility.yul\":2653:2659   */\n      dup3\n        /* \"#utility.yul\":2646:2651   */\n      dup2\n        /* \"#utility.yul\":2639:2660   */\n      mstore\n        /* \"#utility.yul\":2691:2695   */\n      0x20\n        /* \"#utility.yul\":2684:2689   */\n      dup2\n        /* \"#utility.yul\":2680:2696   */\n      add\n        /* \"#utility.yul\":2729:2732   */\n      dup5\n        /* \"#utility.yul\":2720:2726   */\n      dup5\n        /* \"#utility.yul\":2715:2718   */\n      dup5\n        /* \"#utility.yul\":2711:2727   */\n      add\n        /* \"#utility.yul\":2708:2733   */\n      gt\n        /* \"#utility.yul\":2705:2817   */\n      iszero\n      tag_288\n      jumpi\n        /* \"#utility.yul\":2736:2815   */\n      tag_289\n      tag_192\n      jump\t// in\n    tag_289:\n        /* \"#utility.yul\":2705:2817   */\n    tag_288:\n        /* \"#utility.yul\":2826:2880   */\n      tag_290\n        /* \"#utility.yul\":2873:2879   */\n      dup5\n        /* \"#utility.yul\":2868:2871   */\n      dup3\n        /* \"#utility.yul\":2863:2866   */\n      dup6\n        /* \"#utility.yul\":2826:2880   */\n      tag_198\n      jump\t// in\n    tag_290:\n        /* \"#utility.yul\":2545:2886   */\n      pop\n        /* \"#utility.yul\":2461:2886   */\n      swap4\n      swap3\n      pop\n      pop\n      pop\n      jump\t// out\n        /* \"#utility.yul\":2906:3246   */\n    tag_200:\n        /* \"#utility.yul\":2962:2967   */\n      0x00\n        /* \"#utility.yul\":3011:3014   */\n      dup3\n        /* \"#utility.yul\":3004:3008   */\n      0x1f\n        /* \"#utility.yul\":2996:3002   */\n      dup4\n        /* \"#utility.yul\":2992:3009   */\n      add\n        /* \"#utility.yul\":2988:3015   */\n      slt\n        /* \"#utility.yul\":2978:3100   */\n      tag_292\n      jumpi\n        /* \"#utility.yul\":3019:3098   */\n      tag_293\n      tag_191\n      jump\t// in\n    tag_293:\n        /* \"#utility.yul\":2978:3100   */\n    tag_292:\n        /* \"#utility.yul\":3136:3142   */\n      dup2\n        /* \"#utility.yul\":3123:3143   */\n      calldataload\n        /* \"#utility.yul\":3161:3240   */\n      tag_294\n        /* \"#utility.yul\":3236:3239   */\n      dup5\n        /* \"#utility.yul\":3228:3234   */\n      dup3\n        /* \"#utility.yul\":3221:3225   */\n      0x20\n        /* \"#utility.yul\":3213:3219   */\n      dup7\n        /* \"#utility.yul\":3209:3226   */\n      add\n        /* \"#utility.yul\":3161:3240   */\n      tag_199\n      jump\t// in\n    tag_294:\n        /* \"#utility.yul\":3152:3240   */\n      swap2\n      pop\n        /* \"#utility.yul\":2968:3246   */\n      pop\n        /* \"#utility.yul\":2906:3246   */\n      swap3\n      swap2\n      pop\n      pop\n      jump\t// out\n        /* \"#utility.yul\":3252:4086   */\n    tag_18:\n        /* \"#utility.yul\":3340:3346   */\n      0x00\n        /* \"#utility.yul\":3348:3354   */\n      dup1\n        /* \"#utility.yul\":3397:3399   */\n      0x40\n        /* \"#utility.yul\":3385:3394   */\n      dup4\n        /* \"#utility.yul\":3376:3383   */\n      dup6\n        /* \"#utility.yul\":3372:3395   */\n      sub\n        /* \"#utility.yul\":3368:3400   */\n      slt\n        /* \"#utility.yul\":3365:3484   */\n      iszero\n      tag_296\n      jumpi\n        /* \"#utility.yul\":3403:3482   */\n      tag_297\n      tag_186\n      jump\t// in\n    tag_297:\n        /* \"#utility.yul\":3365:3484   */\n    tag_296:\n        /* \"#utility.yul\":3551:3552   */\n      0x00\n        /* \"#utility.yul\":3540:3549   */\n      dup4\n        /* \"#utility.yul\":3536:3553   */\n      add\n        /* \"#utility.yul\":3523:3554   */\n      calldataload\n        /* \"#utility.yul\":3581:3599   */\n      0xffffffffffffffff\n        /* \"#utility.yul\":3573:3579   */\n      dup2\n        /* \"#utility.yul\":3570:3600   */\n      gt\n        /* \"#utility.yul\":3567:3684   */\n      iszero\n      tag_298\n      jumpi\n        /* \"#utility.yul\":3603:3682   */\n      tag_299\n      tag_187\n      jump\t// in\n    tag_299:\n        /* \"#utility.yul\":3567:3684   */\n    tag_298:\n        /* \"#utility.yul\":3708:3771   */\n      tag_300\n        /* \"#utility.yul\":3763:3770   */\n      dup6\n        /* \"#utility.yul\":3754:3760   */\n      dup3\n        /* \"#utility.yul\":3743:3752   */\n      dup7\n        /* \"#utility.yul\":3739:3761   */\n      add\n        /* \"#utility.yul\":3708:3771   */\n      tag_200\n      jump\t// in\n    tag_300:\n        /* \"#utility.yul\":3698:3771   */\n      swap3\n      pop\n        /* \"#utility.yul\":3494:3781   */\n      pop\n        /* \"#utility.yul\":3848:3850   */\n      0x20\n        /* \"#utility.yul\":3837:3846   */\n      dup4\n        /* \"#utility.yul\":3833:3851   */\n      add\n        /* \"#utility.yul\":3820:3852   */\n      calldataload\n        /* \"#utility.yul\":3879:3897   */\n      0xffffffffffffffff\n        /* \"#utility.yul\":3871:3877   */\n      dup2\n        /* \"#utility.yul\":3868:3898   */\n      gt\n        /* \"#utility.yul\":3865:3982   */\n      iszero\n      tag_301\n      jumpi\n        /* \"#utility.yul\":3901:3980   */\n      tag_302\n      tag_187\n      jump\t// in\n    tag_302:\n        /* \"#utility.yul\":3865:3982   */\n    tag_301:\n        /* \"#utility.yul\":4006:4069   */\n      tag_303\n        /* \"#utility.yul\":4061:4068   */\n      dup6\n        /* \"#utility.yul\":4052:4058   */\n      dup3\n        /* \"#utility.yul\":4041:4050   */\n      dup7\n        /* \"#utility.yul\":4037:4059   */\n      add\n        /* \"#utility.yul\":4006:4069   */\n      tag_200\n      jump\t// in\n    tag_303:\n        /* \"#utility.yul\":3996:4069   */\n      swap2\n      pop\n        /* \"#utility.yul\":3791:4079   */\n      pop\n        /* \"#utility.yul\":3252:4086   */\n      swap3\n      pop\n      swap3\n      swap1\n      pop\n      jump\t// out\n        /* \"#utility.yul\":4092:4182   */\n    tag_201:\n        /* \"#utility.yul\":4126:4133   */\n      0x00\n        /* \"#utility.yul\":4169:4174   */\n      dup2\n        /* \"#utility.yul\":4162:4175   */\n      iszero\n        /* \"#utility.yul\":4155:4176   */\n      iszero\n        /* \"#utility.yul\":4144:4176   */\n      swap1\n      pop\n        /* \"#utility.yul\":4092:4182   */\n      swap2\n      swap1\n      pop\n      jump\t// out\n        /* \"#utility.yul\":4188:4297   */\n    tag_202:\n        /* \"#utility.yul\":4269:4290   */\n      tag_306\n        /* \"#utility.yul\":4284:4289   */\n      dup2\n        /* \"#utility.yul\":4269:4290   */\n      tag_201\n      jump\t// in\n    tag_306:\n        /* \"#utility.yul\":4264:4267   */\n      dup3\n        /* \"#utility.yul\":4257:4291   */\n      mstore\n        /* \"#utility.yul\":4188:4297   */\n      pop\n      pop\n      jump\t// out\n        /* \"#utility.yul\":4303:4513   */\n    tag_21:\n        /* \"#utility.yul\":4390:4394   */\n      0x00\n        /* \"#utility.yul\":4428:4430   */\n      0x20\n        /* \"#utility.yul\":4417:4426   */\n      dup3\n        /* \"#utility.yul\":4413:4431   */\n      add\n        /* \"#utility.yul\":4405:4431   */\n      swap1\n      pop\n        /* \"#utility.yul\":4441:4506   */\n      tag_308\n        /* \"#utility.yul\":4503:4504   */\n      0x00\n        /* \"#utility.yul\":4492:4501   */\n      dup4\n        /* \"#utility.yul\":4488:4505   */\n      add\n        /* \"#utility.yul\":4479:4485   */\n      dup5\n        /* \"#utility.yul\":4441:4506   */\n      tag_202\n      jump\t// in\n    tag_308:\n        /* \"#utility.yul\":4303:4513   */\n      swap3\n      swap2\n      pop\n      pop\n      jump\t// out\n        /* \"#utility.yul\":4519:4618   */\n    tag_203:\n        /* \"#utility.yul\":4571:4577   */\n      0x00\n        /* \"#utility.yul\":4605:4610   */\n      dup2\n        /* \"#utility.yul\":4599:4611   */\n      mload\n        /* \"#utility.yul\":4589:4611   */\n      swap1\n      pop\n        /* \"#utility.yul\":4519:4618   */\n      swap2\n      swap1\n      pop\n      jump\t// out\n        /* \"#utility.yul\":4624:4793   */\n    tag_204:\n        /* \"#utility.yul\":4708:4719   */\n      0x00\n        /* \"#utility.yul\":4742:4748   */\n      dup3\n        /* \"#utility.yul\":4737:4740   */\n      dup3\n        /* \"#utility.yul\":4730:4749   */\n      mstore\n        /* \"#utility.yul\":4782:4786   */\n      0x20\n        /* \"#utility.yul\":4777:4780   */\n      dup3\n        /* \"#utility.yul\":4773:4787   */\n      add\n        /* \"#utility.yul\":4758:4787   */\n      swap1\n      pop\n        /* \"#utility.yul\":4624:4793   */\n      swap3\n      swap2\n      pop\n      pop\n      jump\t// out\n        /* \"#utility.yul\":4799:4938   */\n    tag_205:\n        /* \"#utility.yul\":4888:4894   */\n      dup3\n        /* \"#utility.yul\":4883:4886   */\n      dup2\n        /* \"#utility.yul\":4878:4881   */\n      dup4\n        /* \"#utility.yul\":4872:4895   */\n      mcopy\n        /* \"#utility.yul\":4929:4930   */\n      0x00\n        /* \"#utility.yul\":4920:4926   */\n      dup4\n        /* \"#utility.yul\":4915:4918   */\n      dup4\n        /* \"#utility.yul\":4911:4927   */\n      add\n        /* \"#utility.yul\":4904:4931   */\n      mstore\n        /* \"#utility.yul\":4799:4938   */\n      pop\n      pop\n      pop\n      jump\t// out\n        /* \"#utility.yul\":4944:5321   */\n    tag_206:\n        /* \"#utility.yul\":5032:5035   */\n      0x00\n        /* \"#utility.yul\":5060:5099   */\n      tag_313\n        /* \"#utility.yul\":5093:5098   */\n      dup3\n        /* \"#utility.yul\":5060:5099   */\n      tag_203\n      jump\t// in\n    tag_313:\n        /* \"#utility.yul\":5115:5186   */\n      tag_314\n        /* \"#utility.yul\":5179:5185   */\n      dup2\n        /* \"#utility.yul\":5174:5177   */\n      dup6\n        /* \"#utility.yul\":5115:5186   */\n      tag_204\n      jump\t// in\n    tag_314:\n        /* \"#utility.yul\":5108:5186   */\n      swap4\n      pop\n        /* \"#utility.yul\":5195:5260   */\n      tag_315\n        /* \"#utility.yul\":5253:5259   */\n      dup2\n        /* \"#utility.yul\":5248:5251   */\n      dup6\n        /* \"#utility.yul\":5241:5245   */\n      0x20\n        /* \"#utility.yul\":5234:5239   */\n      dup7\n        /* \"#utility.yul\":5230:5246   */\n      add\n        /* \"#utility.yul\":5195:5260   */\n      tag_205\n      jump\t// in\n    tag_315:\n        /* \"#utility.yul\":5285:5314   */\n      tag_316\n        /* \"#utility.yul\":5307:5313   */\n      dup2\n        /* \"#utility.yul\":5285:5314   */\n      tag_193\n      jump\t// in\n    tag_316:\n        /* \"#utility.yul\":5280:5283   */\n      dup5\n        /* \"#utility.yul\":5276:5315   */\n      add\n        /* \"#utility.yul\":5269:5315   */\n      swap2\n      pop\n        /* \"#utility.yul\":5036:5321   */\n      pop\n        /* \"#utility.yul\":4944:5321   */\n      swap3\n      swap2\n      pop\n      pop\n      jump\t// out\n        /* \"#utility.yul\":5327:5507   */\n    tag_67:\n        /* \"#utility.yul\":5375:5452   */\n      0x4e487b7100000000000000000000000000000000000000000000000000000000\n        /* \"#utility.yul\":5372:5373   */\n      0x00\n        /* \"#utility.yul\":5365:5453   */\n      mstore\n        /* \"#utility.yul\":5472:5476   */\n      0x21\n        /* \"#utility.yul\":5469:5470   */\n      0x04\n        /* \"#utility.yul\":5462:5477   */\n      mstore\n        /* \"#utility.yul\":5496:5500   */\n      0x24\n        /* \"#utility.yul\":5493:5494   */\n      0x00\n        /* \"#utility.yul\":5486:5501   */\n      revert\n        /* \"#utility.yul\":5513:5626   */\n    tag_207:\n        /* \"#utility.yul\":5594:5595   */\n      0x04\n        /* \"#utility.yul\":5587:5592   */\n      dup2\n        /* \"#utility.yul\":5584:5596   */\n      lt\n        /* \"#utility.yul\":5574:5620   */\n      tag_319\n      jumpi\n        /* \"#utility.yul\":5600:5618   */\n      tag_320\n      tag_67\n      jump\t// in\n    tag_320:\n        /* \"#utility.yul\":5574:5620   */\n    tag_319:\n        /* \"#utility.yul\":5513:5626   */\n      pop\n      jump\t// out\n        /* \"#utility.yul\":5632:5759   */\n    tag_208:\n        /* \"#utility.yul\":5677:5684   */\n      0x00\n        /* \"#utility.yul\":5706:5711   */\n      dup2\n        /* \"#utility.yul\":5695:5711   */\n      swap1\n      pop\n        /* \"#utility.yul\":5712:5753   */\n      tag_322\n        /* \"#utility.yul\":5747:5752   */\n      dup3\n        /* \"#utility.yul\":5712:5753   */\n      tag_207\n      jump\t// in\n    tag_322:\n        /* \"#utility.yul\":5632:5759   */\n      swap2\n      swap1\n      pop\n      jump\t// out\n        /* \"#utility.yul\":5765:5892   */\n    tag_209:\n        /* \"#utility.yul\":5821:5830   */\n      0x00\n        /* \"#utility.yul\":5854:5886   */\n      tag_324\n        /* \"#utility.yul\":5880:5885   */\n      dup3\n        /* \"#utility.yul\":5854:5886   */\n      tag_208\n      jump\t// in\n    tag_324:\n        /* \"#utility.yul\":5841:5886   */\n      swap1\n      pop\n        /* \"#utility.yul\":5765:5892   */\n      swap2\n      swap1\n      pop\n      jump\t// out\n        /* \"#utility.yul\":5898:6041   */\n    tag_210:\n        /* \"#utility.yul\":5991:6034   */\n      tag_326\n        /* \"#utility.yul\":6028:6033   */\n      dup2\n        /* \"#utility.yul\":5991:6034   */\n      tag_209\n      jump\t// in\n    tag_326:\n        /* \"#utility.yul\":5986:5989   */\n      dup3\n        /* \"#utility.yul\":5979:6035   */\n      mstore\n        /* \"#utility.yul\":5898:6041   */\n      pop\n      pop\n      jump\t// out\n        /* \"#utility.yul\":6047:6683   */\n    tag_26:\n        /* \"#utility.yul\":6242:6246   */\n      0x00\n        /* \"#utility.yul\":6280:6282   */\n      0x60\n        /* \"#utility.yul\":6269:6278   */\n      dup3\n        /* \"#utility.yul\":6265:6283   */\n      add\n        /* \"#utility.yul\":6257:6283   */\n      swap1\n      pop\n        /* \"#utility.yul\":6329:6338   */\n      dup2\n        /* \"#utility.yul\":6323:6327   */\n      dup2\n        /* \"#utility.yul\":6319:6339   */\n      sub\n        /* \"#utility.yul\":6315:6316   */\n      0x00\n        /* \"#utility.yul\":6304:6313   */\n      dup4\n        /* \"#utility.yul\":6300:6317   */\n      add\n        /* \"#utility.yul\":6293:6340   */\n      mstore\n        /* \"#utility.yul\":6357:6435   */\n      tag_328\n        /* \"#utility.yul\":6430:6434   */\n      dup2\n        /* \"#utility.yul\":6421:6427   */\n      dup7\n        /* \"#utility.yul\":6357:6435   */\n      tag_206\n      jump\t// in\n    tag_328:\n        /* \"#utility.yul\":6349:6435   */\n      swap1\n      pop\n        /* \"#utility.yul\":6482:6491   */\n      dup2\n        /* \"#utility.yul\":6476:6480   */\n      dup2\n        /* \"#utility.yul\":6472:6492   */\n      sub\n        /* \"#utility.yul\":6467:6469   */\n      0x20\n        /* \"#utility.yul\":6456:6465   */\n      dup4\n        /* \"#utility.yul\":6452:6470   */\n      add\n        /* \"#utility.yul\":6445:6493   */\n      mstore\n        /* \"#utility.yul\":6510:6588   */\n      tag_329\n        /* \"#utility.yul\":6583:6587   */\n      dup2\n        /* \"#utility.yul\":6574:6580   */\n      dup6\n        /* \"#utility.yul\":6510:6588   */\n      tag_206\n      jump\t// in\n    tag_329:\n        /* \"#utility.yul\":6502:6588   */\n      swap1\n      pop\n        /* \"#utility.yul\":6598:6676   */\n      tag_330\n        /* \"#utility.yul\":6672:6674   */\n      0x40\n        /* \"#utility.yul\":6661:6670   */\n      dup4\n        /* \"#utility.yul\":6657:6675   */\n      add\n        /* \"#utility.yul\":6648:6654   */\n      dup5\n        /* \"#utility.yul\":6598:6676   */\n      tag_210\n      jump\t// in\n    tag_330:\n        /* \"#utility.yul\":6047:6683   */\n      swap5\n      swap4\n      pop\n      pop\n      pop\n      pop\n      jump\t// out\n        /* \"#utility.yul\":6689:6815   */\n    tag_211:\n        /* \"#utility.yul\":6726:6733   */\n      0x00\n        /* \"#utility.yul\":6766:6808   */\n      0xffffffffffffffffffffffffffffffffffffffff\n        /* \"#utility.yul\":6759:6764   */\n      dup3\n        /* \"#utility.yul\":6755:6809   */\n      and\n        /* \"#utility.yul\":6744:6809   */\n      swap1\n      pop\n        /* \"#utility.yul\":6689:6815   */\n      swap2\n      swap1\n      pop\n      jump\t// out\n        /* \"#utility.yul\":6821:6917   */\n    tag_212:\n        /* \"#utility.yul\":6858:6865   */\n      0x00\n        /* \"#utility.yul\":6887:6911   */\n      tag_333\n        /* \"#utility.yul\":6905:6910   */\n      dup3\n        /* \"#utility.yul\":6887:6911   */\n      tag_211\n      jump\t// in\n    tag_333:\n        /* \"#utility.yul\":6876:6911   */\n      swap1\n      pop\n        /* \"#utility.yul\":6821:6917   */\n      swap2\n      swap1\n      pop\n      jump\t// out\n        /* \"#utility.yul\":6923:7041   */\n    tag_213:\n        /* \"#utility.yul\":7010:7034   */\n      tag_335\n        /* \"#utility.yul\":7028:7033   */\n      dup2\n        /* \"#utility.yul\":7010:7034   */\n      tag_212\n      jump\t// in\n    tag_335:\n        /* \"#utility.yul\":7005:7008   */\n      dup3\n        /* \"#utility.yul\":6998:7035   */\n      mstore\n        /* \"#utility.yul\":6923:7041   */\n      pop\n      pop\n      jump\t// out\n        /* \"#utility.yul\":7047:7269   */\n    tag_30:\n        /* \"#utility.yul\":7140:7144   */\n      0x00\n        /* \"#utility.yul\":7178:7180   */\n      0x20\n        /* \"#utility.yul\":7167:7176   */\n      dup3\n        /* \"#utility.yul\":7163:7181   */\n      add\n        /* \"#utility.yul\":7155:7181   */\n      swap1\n      pop\n        /* \"#utility.yul\":7191:7262   */\n      tag_337\n        /* \"#utility.yul\":7259:7260   */\n      0x00\n        /* \"#utility.yul\":7248:7257   */\n      dup4\n        /* \"#utility.yul\":7244:7261   */\n      add\n        /* \"#utility.yul\":7235:7241   */\n      dup5\n        /* \"#utility.yul\":7191:7262   */\n      tag_213\n      jump\t// in\n    tag_337:\n        /* \"#utility.yul\":7047:7269   */\n      swap3\n      swap2\n      pop\n      pop\n      jump\t// out\n        /* \"#utility.yul\":7275:7409   */\n    tag_214:\n        /* \"#utility.yul\":7362:7368   */\n      0x00\n        /* \"#utility.yul\":7396:7401   */\n      dup2\n        /* \"#utility.yul\":7390:7402   */\n      mload\n        /* \"#utility.yul\":7380:7402   */\n      swap1\n      pop\n        /* \"#utility.yul\":7275:7409   */\n      swap2\n      swap1\n      pop\n      jump\t// out\n        /* \"#utility.yul\":7415:7619   */\n    tag_215:\n        /* \"#utility.yul\":7534:7545   */\n      0x00\n        /* \"#utility.yul\":7568:7574   */\n      dup3\n        /* \"#utility.yul\":7563:7566   */\n      dup3\n        /* \"#utility.yul\":7556:7575   */\n      mstore\n        /* \"#utility.yul\":7608:7612   */\n      0x20\n        /* \"#utility.yul\":7603:7606   */\n      dup3\n        /* \"#utility.yul\":7599:7613   */\n      add\n        /* \"#utility.yul\":7584:7613   */\n      swap1\n      pop\n        /* \"#utility.yul\":7415:7619   */\n      swap3\n      swap2\n      pop\n      pop\n      jump\t// out\n        /* \"#utility.yul\":7625:7777   */\n    tag_216:\n        /* \"#utility.yul\":7712:7716   */\n      0x00\n        /* \"#utility.yul\":7735:7738   */\n      dup2\n        /* \"#utility.yul\":7727:7738   */\n      swap1\n      pop\n        /* \"#utility.yul\":7765:7769   */\n      0x20\n        /* \"#utility.yul\":7760:7763   */\n      dup3\n        /* \"#utility.yul\":7756:7770   */\n      add\n        /* \"#utility.yul\":7748:7770   */\n      swap1\n      pop\n        /* \"#utility.yul\":7625:7777   */\n      swap2\n      swap1\n      pop\n      jump\t// out\n        /* \"#utility.yul\":7783:7942   */\n    tag_217:\n        /* \"#utility.yul\":7857:7868   */\n      0x00\n        /* \"#utility.yul\":7891:7897   */\n      dup3\n        /* \"#utility.yul\":7886:7889   */\n      dup3\n        /* \"#utility.yul\":7879:7898   */\n      mstore\n        /* \"#utility.yul\":7931:7935   */\n      0x20\n        /* \"#utility.yul\":7926:7929   */\n      dup3\n        /* \"#utility.yul\":7922:7936   */\n      add\n        /* \"#utility.yul\":7907:7936   */\n      swap1\n      pop\n        /* \"#utility.yul\":7783:7942   */\n      swap3\n      swap2\n      pop\n      pop\n      jump\t// out\n        /* \"#utility.yul\":7948:8305   */\n    tag_218:\n        /* \"#utility.yul\":8026:8029   */\n      0x00\n        /* \"#utility.yul\":8054:8093   */\n      tag_343\n        /* \"#utility.yul\":8087:8092   */\n      dup3\n        /* \"#utility.yul\":8054:8093   */\n      tag_203\n      jump\t// in\n    tag_343:\n        /* \"#utility.yul\":8109:8170   */\n      tag_344\n        /* \"#utility.yul\":8163:8169   */\n      dup2\n        /* \"#utility.yul\":8158:8161   */\n      dup6\n        /* \"#utility.yul\":8109:8170   */\n      tag_217\n      jump\t// in\n    tag_344:\n        /* \"#utility.yul\":8102:8170   */\n      swap4\n      pop\n        /* \"#utility.yul\":8179:8244   */\n      tag_345\n        /* \"#utility.yul\":8237:8243   */\n      dup2\n        /* \"#utility.yul\":8232:8235   */\n      dup6\n        /* \"#utility.yul\":8225:8229   */\n      0x20\n        /* \"#utility.yul\":8218:8223   */\n      dup7\n        /* \"#utility.yul\":8214:8230   */\n      add\n        /* \"#utility.yul\":8179:8244   */\n      tag_205\n      jump\t// in\n    tag_345:\n        /* \"#utility.yul\":8269:8298   */\n      tag_346\n        /* \"#utility.yul\":8291:8297   */\n      dup2\n        /* \"#utility.yul\":8269:8298   */\n      tag_193\n      jump\t// in\n    tag_346:\n        /* \"#utility.yul\":8264:8267   */\n      dup5\n        /* \"#utility.yul\":8260:8299   */\n      add\n        /* \"#utility.yul\":8253:8299   */\n      swap2\n      pop\n        /* \"#utility.yul\":8030:8305   */\n      pop\n        /* \"#utility.yul\":7948:8305   */\n      swap3\n      swap2\n      pop\n      pop\n      jump\t// out\n        /* \"#utility.yul\":8311:8444   */\n    tag_219:\n        /* \"#utility.yul\":8394:8437   */\n      tag_348\n        /* \"#utility.yul\":8431:8436   */\n      dup2\n        /* \"#utility.yul\":8394:8437   */\n      tag_209\n      jump\t// in\n    tag_348:\n        /* \"#utility.yul\":8389:8392   */\n      dup3\n        /* \"#utility.yul\":8382:8438   */\n      mstore\n        /* \"#utility.yul\":8311:8444   */\n      pop\n      pop\n      jump\t// out\n        /* \"#utility.yul\":8502:9349   */\n    tag_220:\n        /* \"#utility.yul\":8601:8604   */\n      0x00\n        /* \"#utility.yul\":8637:8641   */\n      0x60\n        /* \"#utility.yul\":8632:8635   */\n      dup4\n        /* \"#utility.yul\":8628:8642   */\n      add\n        /* \"#utility.yul\":8725:8729   */\n      0x00\n        /* \"#utility.yul\":8718:8723   */\n      dup4\n        /* \"#utility.yul\":8714:8730   */\n      add\n        /* \"#utility.yul\":8708:8731   */\n      mload\n        /* \"#utility.yul\":8778:8781   */\n      dup5\n        /* \"#utility.yul\":8772:8776   */\n      dup3\n        /* \"#utility.yul\":8768:8782   */\n      sub\n        /* \"#utility.yul\":8761:8765   */\n      0x00\n        /* \"#utility.yul\":8756:8759   */\n      dup7\n        /* \"#utility.yul\":8752:8766   */\n      add\n        /* \"#utility.yul\":8745:8783   */\n      mstore\n        /* \"#utility.yul\":8804:8877   */\n      tag_350\n        /* \"#utility.yul\":8872:8876   */\n      dup3\n        /* \"#utility.yul\":8858:8870   */\n      dup3\n        /* \"#utility.yul\":8804:8877   */\n      tag_218\n      jump\t// in\n    tag_350:\n        /* \"#utility.yul\":8796:8877   */\n      swap2\n      pop\n        /* \"#utility.yul\":8652:8888   */\n      pop\n        /* \"#utility.yul\":8977:8981   */\n      0x20\n        /* \"#utility.yul\":8970:8975   */\n      dup4\n        /* \"#utility.yul\":8966:8982   */\n      add\n        /* \"#utility.yul\":8960:8983   */\n      mload\n        /* \"#utility.yul\":9030:9033   */\n      dup5\n        /* \"#utility.yul\":9024:9028   */\n      dup3\n        /* \"#utility.yul\":9020:9034   */\n      sub\n        /* \"#utility.yul\":9013:9017   */\n      0x20\n        /* \"#utility.yul\":9008:9011   */\n      dup7\n        /* \"#utility.yul\":9004:9018   */\n      add\n        /* \"#utility.yul\":8997:9035   */\n      mstore\n        /* \"#utility.yul\":9056:9129   */\n      tag_351\n        /* \"#utility.yul\":9124:9128   */\n      dup3\n        /* \"#utility.yul\":9110:9122   */\n      dup3\n        /* \"#utility.yul\":9056:9129   */\n      tag_218\n      jump\t// in\n    tag_351:\n        /* \"#utility.yul\":9048:9129   */\n      swap2\n      pop\n        /* \"#utility.yul\":8898:9140   */\n      pop\n        /* \"#utility.yul\":9224:9228   */\n      0x40\n        /* \"#utility.yul\":9217:9222   */\n      dup4\n        /* \"#utility.yul\":9213:9229   */\n      add\n        /* \"#utility.yul\":9207:9230   */\n      mload\n        /* \"#utility.yul\":9243:9312   */\n      tag_352\n        /* \"#utility.yul\":9306:9310   */\n      0x40\n        /* \"#utility.yul\":9301:9304   */\n      dup7\n        /* \"#utility.yul\":9297:9311   */\n      add\n        /* \"#utility.yul\":9283:9295   */\n      dup3\n        /* \"#utility.yul\":9243:9312   */\n      tag_219\n      jump\t// in\n    tag_352:\n        /* \"#utility.yul\":9150:9322   */\n      pop\n        /* \"#utility.yul\":9339:9343   */\n      dup1\n        /* \"#utility.yul\":9332:9343   */\n      swap2\n      pop\n        /* \"#utility.yul\":8606:9349   */\n      pop\n        /* \"#utility.yul\":8502:9349   */\n      swap3\n      swap2\n      pop\n      pop\n      jump\t// out\n        /* \"#utility.yul\":9355:9591   */\n    tag_221:\n        /* \"#utility.yul\":9464:9474   */\n      0x00\n        /* \"#utility.yul\":9499:9585   */\n      tag_354\n        /* \"#utility.yul\":9581:9584   */\n      dup4\n        /* \"#utility.yul\":9573:9579   */\n      dup4\n        /* \"#utility.yul\":9499:9585   */\n      tag_220\n      jump\t// in\n    tag_354:\n        /* \"#utility.yul\":9485:9585   */\n      swap1\n      pop\n        /* \"#utility.yul\":9355:9591   */\n      swap3\n      swap2\n      pop\n      pop\n      jump\t// out\n        /* \"#utility.yul\":9597:9730   */\n    tag_222:\n        /* \"#utility.yul\":9687:9691   */\n      0x00\n        /* \"#utility.yul\":9719:9723   */\n      0x20\n        /* \"#utility.yul\":9714:9717   */\n      dup3\n        /* \"#utility.yul\":9710:9724   */\n      add\n        /* \"#utility.yul\":9702:9724   */\n      swap1\n      pop\n        /* \"#utility.yul\":9597:9730   */\n      swap2\n      swap1\n      pop\n      jump\t// out\n        /* \"#utility.yul\":9792:10863   */\n    tag_223:\n        /* \"#utility.yul\":9951:9954   */\n      0x00\n        /* \"#utility.yul\":9980:10054   */\n      tag_357\n        /* \"#utility.yul\":10048:10053   */\n      dup3\n        /* \"#utility.yul\":9980:10054   */\n      tag_214\n      jump\t// in\n    tag_357:\n        /* \"#utility.yul\":10070:10176   */\n      tag_358\n        /* \"#utility.yul\":10169:10175   */\n      dup2\n        /* \"#utility.yul\":10164:10167   */\n      dup6\n        /* \"#utility.yul\":10070:10176   */\n      tag_215\n      jump\t// in\n    tag_358:\n        /* \"#utility.yul\":10063:10176   */\n      swap4\n      pop\n        /* \"#utility.yul\":10202:10205   */\n      dup4\n        /* \"#utility.yul\":10247:10251   */\n      0x20\n        /* \"#utility.yul\":10239:10245   */\n      dup3\n        /* \"#utility.yul\":10235:10252   */\n      mul\n        /* \"#utility.yul\":10230:10233   */\n      dup6\n        /* \"#utility.yul\":10226:10253   */\n      add\n        /* \"#utility.yul\":10277:10353   */\n      tag_359\n        /* \"#utility.yul\":10347:10352   */\n      dup6\n        /* \"#utility.yul\":10277:10353   */\n      tag_216\n      jump\t// in\n    tag_359:\n        /* \"#utility.yul\":10376:10383   */\n      dup1\n        /* \"#utility.yul\":10407:10408   */\n      0x00\n        /* \"#utility.yul\":10392:10818   */\n    tag_360:\n        /* \"#utility.yul\":10417:10423   */\n      dup6\n        /* \"#utility.yul\":10414:10415   */\n      dup2\n        /* \"#utility.yul\":10411:10424   */\n      lt\n        /* \"#utility.yul\":10392:10818   */\n      iszero\n      tag_362\n      jumpi\n        /* \"#utility.yul\":10488:10497   */\n      dup5\n        /* \"#utility.yul\":10482:10486   */\n      dup5\n        /* \"#utility.yul\":10478:10498   */\n      sub\n        /* \"#utility.yul\":10473:10476   */\n      dup10\n        /* \"#utility.yul\":10466:10499   */\n      mstore\n        /* \"#utility.yul\":10539:10545   */\n      dup2\n        /* \"#utility.yul\":10533:10546   */\n      mload\n        /* \"#utility.yul\":10567:10671   */\n      tag_363\n        /* \"#utility.yul\":10666:10670   */\n      dup6\n        /* \"#utility.yul\":10651:10664   */\n      dup3\n        /* \"#utility.yul\":10567:10671   */\n      tag_221\n      jump\t// in\n    tag_363:\n        /* \"#utility.yul\":10559:10671   */\n      swap5\n      pop\n        /* \"#utility.yul\":10694:10774   */\n      tag_364\n        /* \"#utility.yul\":10767:10773   */\n      dup4\n        /* \"#utility.yul\":10694:10774   */\n      tag_222\n      jump\t// in\n    tag_364:\n        /* \"#utility.yul\":10684:10774   */\n      swap3\n      pop\n        /* \"#utility.yul\":10803:10807   */\n      0x20\n        /* \"#utility.yul\":10798:10801   */\n      dup11\n        /* \"#utility.yul\":10794:10808   */\n      add\n        /* \"#utility.yul\":10787:10808   */\n      swap10\n      pop\n        /* \"#utility.yul\":10452:10818   */\n      pop\n        /* \"#utility.yul\":10439:10440   */\n      0x01\n        /* \"#utility.yul\":10436:10437   */\n      dup2\n        /* \"#utility.yul\":10432:10441   */\n      add\n        /* \"#utility.yul\":10427:10441   */\n      swap1\n      pop\n        /* \"#utility.yul\":10392:10818   */\n      jump(tag_360)\n    tag_362:\n        /* \"#utility.yul\":10396:10410   */\n      pop\n        /* \"#utility.yul\":10834:10838   */\n      dup3\n        /* \"#utility.yul\":10827:10838   */\n      swap8\n      pop\n        /* \"#utility.yul\":10854:10857   */\n      dup8\n        /* \"#utility.yul\":10847:10857   */\n      swap6\n      pop\n        /* \"#utility.yul\":9956:10863   */\n      pop\n      pop\n      pop\n      pop\n      pop\n        /* \"#utility.yul\":9792:10863   */\n      swap3\n      swap2\n      pop\n      pop\n      jump\t// out\n        /* \"#utility.yul\":10869:11322   */\n    tag_34:\n        /* \"#utility.yul\":11052:11056   */\n      0x00\n        /* \"#utility.yul\":11090:11092   */\n      0x20\n        /* \"#utility.yul\":11079:11088   */\n      dup3\n        /* \"#utility.yul\":11075:11093   */\n      add\n        /* \"#utility.yul\":11067:11093   */\n      swap1\n      pop\n        /* \"#utility.yul\":11139:11148   */\n      dup2\n        /* \"#utility.yul\":11133:11137   */\n      dup2\n        /* \"#utility.yul\":11129:11149   */\n      sub\n        /* \"#utility.yul\":11125:11126   */\n      0x00\n        /* \"#utility.yul\":11114:11123   */\n      dup4\n        /* \"#utility.yul\":11110:11127   */\n      add\n        /* \"#utility.yul\":11103:11150   */\n      mstore\n        /* \"#utility.yul\":11167:11315   */\n      tag_366\n        /* \"#utility.yul\":11310:11314   */\n      dup2\n        /* \"#utility.yul\":11301:11307   */\n      dup5\n        /* \"#utility.yul\":11167:11315   */\n      tag_223\n      jump\t// in\n    tag_366:\n        /* \"#utility.yul\":11159:11315   */\n      swap1\n      pop\n        /* \"#utility.yul\":10869:11322   */\n      swap3\n      swap2\n      pop\n      pop\n      jump\t// out\n        /* \"#utility.yul\":11328:11405   */\n    tag_224:\n        /* \"#utility.yul\":11365:11372   */\n      0x00\n        /* \"#utility.yul\":11394:11399   */\n      dup2\n        /* \"#utility.yul\":11383:11399   */\n      swap1\n      pop\n        /* \"#utility.yul\":11328:11405   */\n      swap2\n      swap1\n      pop\n      jump\t// out\n        /* \"#utility.yul\":11411:11533   */\n    tag_225:\n        /* \"#utility.yul\":11484:11508   */\n      tag_369\n        /* \"#utility.yul\":11502:11507   */\n      dup2\n        /* \"#utility.yul\":11484:11508   */\n      tag_224\n      jump\t// in\n    tag_369:\n        /* \"#utility.yul\":11477:11482   */\n      dup2\n        /* \"#utility.yul\":11474:11509   */\n      eq\n        /* \"#utility.yul\":11464:11527   */\n      tag_370\n      jumpi\n        /* \"#utility.yul\":11523:11524   */\n      0x00\n        /* \"#utility.yul\":11520:11521   */\n      dup1\n        /* \"#utility.yul\":11513:11525   */\n      revert\n        /* \"#utility.yul\":11464:11527   */\n    tag_370:\n        /* \"#utility.yul\":11411:11533   */\n      pop\n      jump\t// out\n        /* \"#utility.yul\":11539:11678   */\n    tag_226:\n        /* \"#utility.yul\":11585:11590   */\n      0x00\n        /* \"#utility.yul\":11623:11629   */\n      dup2\n        /* \"#utility.yul\":11610:11630   */\n      calldataload\n        /* \"#utility.yul\":11601:11630   */\n      swap1\n      pop\n        /* \"#utility.yul\":11639:11672   */\n      tag_372\n        /* \"#utility.yul\":11666:11671   */\n      dup2\n        /* \"#utility.yul\":11639:11672   */\n      tag_225\n      jump\t// in\n    tag_372:\n        /* \"#utility.yul\":11539:11678   */\n      swap3\n      swap2\n      pop\n      pop\n      jump\t// out\n        /* \"#utility.yul\":11684:12013   */\n    tag_41:\n        /* \"#utility.yul\":11743:11749   */\n      0x00\n        /* \"#utility.yul\":11792:11794   */\n      0x20\n        /* \"#utility.yul\":11780:11789   */\n      dup3\n        /* \"#utility.yul\":11771:11778   */\n      dup5\n        /* \"#utility.yul\":11767:11790   */\n      sub\n        /* \"#utility.yul\":11763:11795   */\n      slt\n        /* \"#utility.yul\":11760:11879   */\n      iszero\n      tag_374\n      jumpi\n        /* \"#utility.yul\":11798:11877   */\n      tag_375\n      tag_186\n      jump\t// in\n    tag_375:\n        /* \"#utility.yul\":11760:11879   */\n    tag_374:\n        /* \"#utility.yul\":11918:11919   */\n      0x00\n        /* \"#utility.yul\":11943:11996   */\n      tag_376\n        /* \"#utility.yul\":11988:11995   */\n      dup5\n        /* \"#utility.yul\":11979:11985   */\n      dup3\n        /* \"#utility.yul\":11968:11977   */\n      dup6\n        /* \"#utility.yul\":11964:11986   */\n      add\n        /* \"#utility.yul\":11943:11996   */\n      tag_226\n      jump\t// in\n    tag_376:\n        /* \"#utility.yul\":11933:11996   */\n      swap2\n      pop\n        /* \"#utility.yul\":11889:12006   */\n      pop\n        /* \"#utility.yul\":11684:12013   */\n      swap3\n      swap2\n      pop\n      pop\n      jump\t// out\n        /* \"#utility.yul\":12019:12105   */\n    tag_227:\n        /* \"#utility.yul\":12054:12061   */\n      0x00\n        /* \"#utility.yul\":12094:12098   */\n      0xff\n        /* \"#utility.yul\":12087:12092   */\n      dup3\n        /* \"#utility.yul\":12083:12099   */\n      and\n        /* \"#utility.yul\":12072:12099   */\n      swap1\n      pop\n        /* \"#utility.yul\":12019:12105   */\n      swap2\n      swap1\n      pop\n      jump\t// out\n        /* \"#utility.yul\":12111:12229   */\n    tag_228:\n        /* \"#utility.yul\":12182:12204   */\n      tag_379\n        /* \"#utility.yul\":12198:12203   */\n      dup2\n        /* \"#utility.yul\":12182:12204   */\n      tag_227\n      jump\t// in\n    tag_379:\n        /* \"#utility.yul\":12175:12180   */\n      dup2\n        /* \"#utility.yul\":12172:12205   */\n      eq\n        /* \"#utility.yul\":12162:12223   */\n      tag_380\n      jumpi\n        /* \"#utility.yul\":12219:12220   */\n      0x00\n        /* \"#utility.yul\":12216:12217   */\n      dup1\n        /* \"#utility.yul\":12209:12221   */\n      revert\n        /* \"#utility.yul\":12162:12223   */\n    tag_380:\n        /* \"#utility.yul\":12111:12229   */\n      pop\n      jump\t// out\n        /* \"#utility.yul\":12235:12370   */\n    tag_229:\n        /* \"#utility.yul\":12279:12284   */\n      0x00\n        /* \"#utility.yul\":12317:12323   */\n      dup2\n        /* \"#utility.yul\":12304:12324   */\n      calldataload\n        /* \"#utility.yul\":12295:12324   */\n      swap1\n      pop\n        /* \"#utility.yul\":12333:12364   */\n      tag_382\n        /* \"#utility.yul\":12358:12363   */\n      dup2\n        /* \"#utility.yul\":12333:12364   */\n      tag_228\n      jump\t// in\n    tag_382:\n        /* \"#utility.yul\":12235:12370   */\n      swap3\n      swap2\n      pop\n      pop\n      jump\t// out\n        /* \"#utility.yul\":12376:13351   */\n    tag_46:\n        /* \"#utility.yul\":12471:12477   */\n      0x00\n        /* \"#utility.yul\":12479:12485   */\n      dup1\n        /* \"#utility.yul\":12487:12493   */\n      0x00\n        /* \"#utility.yul\":12536:12538   */\n      0x60\n        /* \"#utility.yul\":12524:12533   */\n      dup5\n        /* \"#utility.yul\":12515:12522   */\n      dup7\n        /* \"#utility.yul\":12511:12534   */\n      sub\n        /* \"#utility.yul\":12507:12539   */\n      slt\n        /* \"#utility.yul\":12504:12623   */\n      iszero\n      tag_384\n      jumpi\n        /* \"#utility.yul\":12542:12621   */\n      tag_385\n      tag_186\n      jump\t// in\n    tag_385:\n        /* \"#utility.yul\":12504:12623   */\n    tag_384:\n        /* \"#utility.yul\":12662:12663   */\n      0x00\n        /* \"#utility.yul\":12687:12738   */\n      tag_386\n        /* \"#utility.yul\":12730:12737   */\n      dup7\n        /* \"#utility.yul\":12721:12727   */\n      dup3\n        /* \"#utility.yul\":12710:12719   */\n      dup8\n        /* \"#utility.yul\":12706:12728   */\n      add\n        /* \"#utility.yul\":12687:12738   */\n      tag_229\n      jump\t// in\n    tag_386:\n        /* \"#utility.yul\":12677:12738   */\n      swap4\n      pop\n        /* \"#utility.yul\":12633:12748   */\n      pop\n        /* \"#utility.yul\":12815:12817   */\n      0x20\n        /* \"#utility.yul\":12804:12813   */\n      dup5\n        /* \"#utility.yul\":12800:12818   */\n      add\n        /* \"#utility.yul\":12787:12819   */\n      calldataload\n        /* \"#utility.yul\":12846:12864   */\n      0xffffffffffffffff\n        /* \"#utility.yul\":12838:12844   */\n      dup2\n        /* \"#utility.yul\":12835:12865   */\n      gt\n        /* \"#utility.yul\":12832:12949   */\n      iszero\n      tag_387\n      jumpi\n        /* \"#utility.yul\":12868:12947   */\n      tag_388\n      tag_187\n      jump\t// in\n    tag_388:\n        /* \"#utility.yul\":12832:12949   */\n    tag_387:\n        /* \"#utility.yul\":12973:13036   */\n      tag_389\n        /* \"#utility.yul\":13028:13035   */\n      dup7\n        /* \"#utility.yul\":13019:13025   */\n      dup3\n        /* \"#utility.yul\":13008:13017   */\n      dup8\n        /* \"#utility.yul\":13004:13026   */\n      add\n        /* \"#utility.yul\":12973:13036   */\n      tag_200\n      jump\t// in\n    tag_389:\n        /* \"#utility.yul\":12963:13036   */\n      swap3\n      pop\n        /* \"#utility.yul\":12758:13046   */\n      pop\n        /* \"#utility.yul\":13113:13115   */\n      0x40\n        /* \"#utility.yul\":13102:13111   */\n      dup5\n        /* \"#utility.yul\":13098:13116   */\n      add\n        /* \"#utility.yul\":13085:13117   */\n      calldataload\n        /* \"#utility.yul\":13144:13162   */\n      0xffffffffffffffff\n        /* \"#utility.yul\":13136:13142   */\n      dup2\n        /* \"#utility.yul\":13133:13163   */\n      gt\n        /* \"#utility.yul\":13130:13247   */\n      iszero\n      tag_390\n      jumpi\n        /* \"#utility.yul\":13166:13245   */\n      tag_391\n      tag_187\n      jump\t// in\n    tag_391:\n        /* \"#utility.yul\":13130:13247   */\n    tag_390:\n        /* \"#utility.yul\":13271:13334   */\n      tag_392\n        /* \"#utility.yul\":13326:13333   */\n      dup7\n        /* \"#utility.yul\":13317:13323   */\n      dup3\n        /* \"#utility.yul\":13306:13315   */\n      dup8\n        /* \"#utility.yul\":13302:13324   */\n      add\n        /* \"#utility.yul\":13271:13334   */\n      tag_200\n      jump\t// in\n    tag_392:\n        /* \"#utility.yul\":13261:13334   */\n      swap2\n      pop\n        /* \"#utility.yul\":13056:13344   */\n      pop\n        /* \"#utility.yul\":12376:13351   */\n      swap3\n      pop\n      swap3\n      pop\n      swap3\n      jump\t// out\n        /* \"#utility.yul\":13357:13528   */\n    tag_230:\n        /* \"#utility.yul\":13497:13520   */\n      0x496e646578206973204f75745f6f665f626f756e640000000000000000000000\n        /* \"#utility.yul\":13493:13494   */\n      0x00\n        /* \"#utility.yul\":13485:13491   */\n      dup3\n        /* \"#utility.yul\":13481:13495   */\n      add\n        /* \"#utility.yul\":13474:13521   */\n      mstore\n        /* \"#utility.yul\":13357:13528   */\n      pop\n      jump\t// out\n        /* \"#utility.yul\":13534:13900   */\n    tag_231:\n        /* \"#utility.yul\":13676:13679   */\n      0x00\n        /* \"#utility.yul\":13697:13764   */\n      tag_395\n        /* \"#utility.yul\":13761:13763   */\n      0x15\n        /* \"#utility.yul\":13756:13759   */\n      dup4\n        /* \"#utility.yul\":13697:13764   */\n      tag_204\n      jump\t// in\n    tag_395:\n        /* \"#utility.yul\":13690:13764   */\n      swap2\n      pop\n        /* \"#utility.yul\":13773:13866   */\n      tag_396\n        /* \"#utility.yul\":13862:13865   */\n      dup3\n        /* \"#utility.yul\":13773:13866   */\n      tag_230\n      jump\t// in\n    tag_396:\n        /* \"#utility.yul\":13891:13893   */\n      0x20\n        /* \"#utility.yul\":13886:13889   */\n      dup3\n        /* \"#utility.yul\":13882:13894   */\n      add\n        /* \"#utility.yul\":13875:13894   */\n      swap1\n      pop\n        /* \"#utility.yul\":13534:13900   */\n      swap2\n      swap1\n      pop\n      jump\t// out\n        /* \"#utility.yul\":13906:14325   */\n    tag_52:\n        /* \"#utility.yul\":14072:14076   */\n      0x00\n        /* \"#utility.yul\":14110:14112   */\n      0x20\n        /* \"#utility.yul\":14099:14108   */\n      dup3\n        /* \"#utility.yul\":14095:14113   */\n      add\n        /* \"#utility.yul\":14087:14113   */\n      swap1\n      pop\n        /* \"#utility.yul\":14159:14168   */\n      dup2\n        /* \"#utility.yul\":14153:14157   */\n      dup2\n        /* \"#utility.yul\":14149:14169   */\n      sub\n        /* \"#utility.yul\":14145:14146   */\n      0x00\n        /* \"#utility.yul\":14134:14143   */\n      dup4\n        /* \"#utility.yul\":14130:14147   */\n      add\n        /* \"#utility.yul\":14123:14170   */\n      mstore\n        /* \"#utility.yul\":14187:14318   */\n      tag_398\n        /* \"#utility.yul\":14313:14317   */\n      dup2\n        /* \"#utility.yul\":14187:14318   */\n      tag_231\n      jump\t// in\n    tag_398:\n        /* \"#utility.yul\":14179:14318   */\n      swap1\n      pop\n        /* \"#utility.yul\":13906:14325   */\n      swap2\n      swap1\n      pop\n      jump\t// out\n        /* \"#utility.yul\":14331:14511   */\n    tag_232:\n        /* \"#utility.yul\":14379:14456   */\n      0x4e487b7100000000000000000000000000000000000000000000000000000000\n        /* \"#utility.yul\":14376:14377   */\n      0x00\n        /* \"#utility.yul\":14369:14457   */\n      mstore\n        /* \"#utility.yul\":14476:14480   */\n      0x11\n        /* \"#utility.yul\":14473:14474   */\n      0x04\n        /* \"#utility.yul\":14466:14481   */\n      mstore\n        /* \"#utility.yul\":14500:14504   */\n      0x24\n        /* \"#utility.yul\":14497:14498   */\n      0x00\n        /* \"#utility.yul\":14490:14505   */\n      revert\n        /* \"#utility.yul\":14517:14711   */\n    tag_54:\n        /* \"#utility.yul\":14557:14561   */\n      0x00\n        /* \"#utility.yul\":14577:14597   */\n      tag_401\n        /* \"#utility.yul\":14595:14596   */\n      dup3\n        /* \"#utility.yul\":14577:14597   */\n      tag_224\n      jump\t// in\n    tag_401:\n        /* \"#utility.yul\":14572:14597   */\n      swap2\n      pop\n        /* \"#utility.yul\":14611:14631   */\n      tag_402\n        /* \"#utility.yul\":14629:14630   */\n      dup4\n        /* \"#utility.yul\":14611:14631   */\n      tag_224\n      jump\t// in\n    tag_402:\n        /* \"#utility.yul\":14606:14631   */\n      swap3\n      pop\n        /* \"#utility.yul\":14655:14656   */\n      dup3\n        /* \"#utility.yul\":14652:14653   */\n      dup3\n        /* \"#utility.yul\":14648:14657   */\n      sub\n        /* \"#utility.yul\":14640:14657   */\n      swap1\n      pop\n        /* \"#utility.yul\":14679:14680   */\n      dup2\n        /* \"#utility.yul\":14673:14677   */\n      dup2\n        /* \"#utility.yul\":14670:14681   */\n      gt\n        /* \"#utility.yul\":14667:14704   */\n      iszero\n      tag_403\n      jumpi\n        /* \"#utility.yul\":14684:14702   */\n      tag_404\n      tag_232\n      jump\t// in\n    tag_404:\n        /* \"#utility.yul\":14667:14704   */\n    tag_403:\n        /* \"#utility.yul\":14517:14711   */\n      swap3\n      swap2\n      pop\n      pop\n      jump\t// out\n        /* \"#utility.yul\":14717:14897   */\n    tag_57:\n        /* \"#utility.yul\":14765:14842   */\n      0x4e487b7100000000000000000000000000000000000000000000000000000000\n        /* \"#utility.yul\":14762:14763   */\n      0x00\n        /* \"#utility.yul\":14755:14843   */\n      mstore\n        /* \"#utility.yul\":14862:14866   */\n      0x32\n        /* \"#utility.yul\":14859:14860   */\n      0x04\n        /* \"#utility.yul\":14852:14867   */\n      mstore\n        /* \"#utility.yul\":14886:14890   */\n      0x24\n        /* \"#utility.yul\":14883:14884   */\n      0x00\n        /* \"#utility.yul\":14876:14891   */\n      revert\n        /* \"#utility.yul\":14903:15083   */\n    tag_233:\n        /* \"#utility.yul\":14951:15028   */\n      0x4e487b7100000000000000000000000000000000000000000000000000000000\n        /* \"#utility.yul\":14948:14949   */\n      0x00\n        /* \"#utility.yul\":14941:15029   */\n      mstore\n        /* \"#utility.yul\":15048:15052   */\n      0x22\n        /* \"#utility.yul\":15045:15046   */\n      0x04\n        /* \"#utility.yul\":15038:15053   */\n      mstore\n        /* \"#utility.yul\":15072:15076   */\n      0x24\n        /* \"#utility.yul\":15069:15070   */\n      0x00\n        /* \"#utility.yul\":15062:15077   */\n      revert\n        /* \"#utility.yul\":15089:15409   */\n    tag_104:\n        /* \"#utility.yul\":15133:15139   */\n      0x00\n        /* \"#utility.yul\":15170:15171   */\n      0x02\n        /* \"#utility.yul\":15164:15168   */\n      dup3\n        /* \"#utility.yul\":15160:15172   */\n      div\n        /* \"#utility.yul\":15150:15172   */\n      swap1\n      pop\n        /* \"#utility.yul\":15217:15218   */\n      0x01\n        /* \"#utility.yul\":15211:15215   */\n      dup3\n        /* \"#utility.yul\":15207:15219   */\n      and\n        /* \"#utility.yul\":15238:15256   */\n      dup1\n        /* \"#utility.yul\":15228:15309   */\n      tag_408\n      jumpi\n        /* \"#utility.yul\":15294:15298   */\n      0x7f\n        /* \"#utility.yul\":15286:15292   */\n      dup3\n        /* \"#utility.yul\":15282:15299   */\n      and\n        /* \"#utility.yul\":15272:15299   */\n      swap2\n      pop\n        /* \"#utility.yul\":15228:15309   */\n    tag_408:\n        /* \"#utility.yul\":15356:15358   */\n      0x20\n        /* \"#utility.yul\":15348:15354   */\n      dup3\n        /* \"#utility.yul\":15345:15359   */\n      lt\n        /* \"#utility.yul\":15325:15343   */\n      dup2\n        /* \"#utility.yul\":15322:15360   */\n      sub\n        /* \"#utility.yul\":15319:15403   */\n      tag_409\n      jumpi\n        /* \"#utility.yul\":15375:15393   */\n      tag_410\n      tag_233\n      jump\t// in\n    tag_410:\n        /* \"#utility.yul\":15319:15403   */\n    tag_409:\n        /* \"#utility.yul\":15140:15409   */\n      pop\n        /* \"#utility.yul\":15089:15409   */\n      swap2\n      swap1\n      pop\n      jump\t// out\n        /* \"#utility.yul\":15415:15564   */\n    tag_234:\n        /* \"#utility.yul\":15464:15470   */\n      0x00\n        /* \"#utility.yul\":15498:15503   */\n      dup2\n        /* \"#utility.yul\":15492:15504   */\n      sload\n        /* \"#utility.yul\":15482:15504   */\n      swap1\n      pop\n        /* \"#utility.yul\":15524:15557   */\n      tag_412\n        /* \"#utility.yul\":15550:15556   */\n      dup2\n        /* \"#utility.yul\":15524:15557   */\n      tag_104\n      jump\t// in\n    tag_412:\n        /* \"#utility.yul\":15514:15557   */\n      swap1\n      pop\n        /* \"#utility.yul\":15415:15564   */\n      swap2\n      swap1\n      pop\n      jump\t// out\n        /* \"#utility.yul\":15570:15711   */\n    tag_235:\n        /* \"#utility.yul\":15619:15623   */\n      0x00\n        /* \"#utility.yul\":15642:15645   */\n      dup2\n        /* \"#utility.yul\":15634:15645   */\n      swap1\n      pop\n        /* \"#utility.yul\":15665:15668   */\n      dup2\n        /* \"#utility.yul\":15662:15663   */\n      0x00\n        /* \"#utility.yul\":15655:15669   */\n      mstore\n        /* \"#utility.yul\":15699:15703   */\n      0x20\n        /* \"#utility.yul\":15696:15697   */\n      0x00\n        /* \"#utility.yul\":15686:15704   */\n      keccak256\n        /* \"#utility.yul\":15678:15704   */\n      swap1\n      pop\n        /* \"#utility.yul\":15570:15711   */\n      swap2\n      swap1\n      pop\n      jump\t// out\n        /* \"#utility.yul\":15717:15810   */\n    tag_236:\n        /* \"#utility.yul\":15754:15760   */\n      0x00\n        /* \"#utility.yul\":15801:15803   */\n      0x20\n        /* \"#utility.yul\":15796:15798   */\n      0x1f\n        /* \"#utility.yul\":15789:15794   */\n      dup4\n        /* \"#utility.yul\":15785:15799   */\n      add\n        /* \"#utility.yul\":15781:15804   */\n      div\n        /* \"#utility.yul\":15771:15804   */\n      swap1\n      pop\n        /* \"#utility.yul\":15717:15810   */\n      swap2\n      swap1\n      pop\n      jump\t// out\n        /* \"#utility.yul\":15816:15923   */\n    tag_237:\n        /* \"#utility.yul\":15860:15868   */\n      0x00\n        /* \"#utility.yul\":15910:15915   */\n      dup3\n        /* \"#utility.yul\":15904:15908   */\n      dup3\n        /* \"#utility.yul\":15900:15916   */\n      shl\n        /* \"#utility.yul\":15879:15916   */\n      swap1\n      pop\n        /* \"#utility.yul\":15816:15923   */\n      swap3\n      swap2\n      pop\n      pop\n      jump\t// out\n        /* \"#utility.yul\":15929:16322   */\n    tag_238:\n        /* \"#utility.yul\":15998:16004   */\n      0x00\n        /* \"#utility.yul\":16048:16049   */\n      0x08\n        /* \"#utility.yul\":16036:16046   */\n      dup4\n        /* \"#utility.yul\":16032:16050   */\n      mul\n        /* \"#utility.yul\":16071:16168   */\n      tag_417\n        /* \"#utility.yul\":16101:16167   */\n      0xffffffffffffffffffffffffffffffffffffffffffffffffffffffffffffffff\n        /* \"#utility.yul\":16090:16099   */\n      dup3\n        /* \"#utility.yul\":16071:16168   */\n      tag_237\n      jump\t// in\n    tag_417:\n        /* \"#utility.yul\":16189:16228   */\n      tag_418\n        /* \"#utility.yul\":16219:16227   */\n      dup7\n        /* \"#utility.yul\":16208:16217   */\n      dup4\n        /* \"#utility.yul\":16189:16228   */\n      tag_237\n      jump\t// in\n    tag_418:\n        /* \"#utility.yul\":16177:16228   */\n      swap6\n      pop\n        /* \"#utility.yul\":16261:16265   */\n      dup1\n        /* \"#utility.yul\":16257:16266   */\n      not\n        /* \"#utility.yul\":16250:16255   */\n      dup5\n        /* \"#utility.yul\":16246:16267   */\n      and\n        /* \"#utility.yul\":16237:16267   */\n      swap4\n      pop\n        /* \"#utility.yul\":16310:16314   */\n      dup1\n        /* \"#utility.yul\":16300:16308   */\n      dup7\n        /* \"#utility.yul\":16296:16315   */\n      and\n        /* \"#utility.yul\":16289:16294   */\n      dup5\n        /* \"#utility.yul\":16286:16316   */\n      or\n        /* \"#utility.yul\":16276:16316   */\n      swap3\n      pop\n        /* \"#utility.yul\":16005:16322   */\n      pop\n      pop\n        /* \"#utility.yul\":15929:16322   */\n      swap4\n      swap3\n      pop\n      pop\n      pop\n      jump\t// out\n        /* \"#utility.yul\":16328:16388   */\n    tag_239:\n        /* \"#utility.yul\":16356:16359   */\n      0x00\n        /* \"#utility.yul\":16377:16382   */\n      dup2\n        /* \"#utility.yul\":16370:16382   */\n      swap1\n      pop\n        /* \"#utility.yul\":16328:16388   */\n      swap2\n      swap1\n      pop\n      jump\t// out\n        /* \"#utility.yul\":16394:16536   */\n    tag_240:\n        /* \"#utility.yul\":16444:16453   */\n      0x00\n        /* \"#utility.yul\":16477:16530   */\n      tag_421\n        /* \"#utility.yul\":16495:16529   */\n      tag_422\n        /* \"#utility.yul\":16504:16528   */\n      tag_423\n        /* \"#utility.yul\":16522:16527   */\n      dup5\n        /* \"#utility.yul\":16504:16528   */\n      tag_224\n      jump\t// in\n    tag_423:\n        /* \"#utility.yul\":16495:16529   */\n      tag_239\n      jump\t// in\n    tag_422:\n        /* \"#utility.yul\":16477:16530   */\n      tag_224\n      jump\t// in\n    tag_421:\n        /* \"#utility.yul\":16464:16530   */\n      swap1\n      pop\n        /* \"#utility.yul\":16394:16536   */\n      swap2\n      swap1\n      pop\n      jump\t// out\n        /* \"#utility.yul\":16542:16617   */\n    tag_241:\n        /* \"#utility.yul\":16585:16588   */\n      0x00\n        /* \"#utility.yul\":16606:16611   */\n      dup2\n        /* \"#utility.yul\":16599:16611   */\n      swap1\n      pop\n        /* \"#utility.yul\":16542:16617   */\n      swap2\n      swap1\n      pop\n      jump\t// out\n        /* \"#utility.yul\":16623:16892   */\n    tag_242:\n        /* \"#utility.yul\":16733:16772   */\n      tag_426\n        /* \"#utility.yul\":16764:16771   */\n      dup4\n        /* \"#utility.yul\":16733:16772   */\n      tag_240\n      jump\t// in\n    tag_426:\n        /* \"#utility.yul\":16794:16885   */\n      tag_427\n        /* \"#utility.yul\":16843:16884   */\n      tag_428\n        /* \"#utility.yul\":16867:16883   */\n      dup3\n        /* \"#utility.yul\":16843:16884   */\n      tag_241\n      jump\t// in\n    tag_428:\n        /* \"#utility.yul\":16835:16841   */\n      dup5\n        /* \"#utility.yul\":16828:16832   */\n      dup5\n        /* \"#utility.yul\":16822:16833   */\n      sload\n        /* \"#utility.yul\":16794:16885   */\n      tag_238\n      jump\t// in\n    tag_427:\n        /* \"#utility.yul\":16788:16792   */\n      dup3\n        /* \"#utility.yul\":16781:16886   */\n      sstore\n        /* \"#utility.yul\":16699:16892   */\n      pop\n        /* \"#utility.yul\":16623:16892   */\n      pop\n      pop\n      pop\n      jump\t// out\n        /* \"#utility.yul\":16898:16971   */\n    tag_243:\n        /* \"#utility.yul\":16943:16946   */\n      0x00\n        /* \"#utility.yul\":16898:16971   */\n      swap1\n      jump\t// out\n        /* \"#utility.yul\":16977:17166   */\n    tag_244:\n        /* \"#utility.yul\":17054:17086   */\n      tag_431\n      tag_243\n      jump\t// in\n    tag_431:\n        /* \"#utility.yul\":17095:17160   */\n      tag_432\n        /* \"#utility.yul\":17153:17159   */\n      dup2\n        /* \"#utility.yul\":17145:17151   */\n      dup5\n        /* \"#utility.yul\":17139:17143   */\n      dup5\n        /* \"#utility.yul\":17095:17160   */\n      tag_242\n      jump\t// in\n    tag_432:\n        /* \"#utility.yul\":17030:17166   */\n      pop\n        /* \"#utility.yul\":16977:17166   */\n      pop\n      pop\n      jump\t// out\n        /* \"#utility.yul\":17172:17358   */\n    tag_245:\n        /* \"#utility.yul\":17232:17352   */\n    tag_434:\n        /* \"#utility.yul\":17249:17252   */\n      dup2\n        /* \"#utility.yul\":17242:17247   */\n      dup2\n        /* \"#utility.yul\":17239:17253   */\n      lt\n        /* \"#utility.yul\":17232:17352   */\n      iszero\n      tag_436\n      jumpi\n        /* \"#utility.yul\":17303:17342   */\n      tag_437\n        /* \"#utility.yul\":17340:17341   */\n      0x00\n        /* \"#utility.yul\":17333:17338   */\n      dup3\n        /* \"#utility.yul\":17303:17342   */\n      tag_244\n      jump\t// in\n    tag_437:\n        /* \"#utility.yul\":17276:17277   */\n      0x01\n        /* \"#utility.yul\":17269:17274   */\n      dup2\n        /* \"#utility.yul\":17265:17278   */\n      add\n        /* \"#utility.yul\":17256:17278   */\n      swap1\n      pop\n        /* \"#utility.yul\":17232:17352   */\n      jump(tag_434)\n    tag_436:\n        /* \"#utility.yul\":17172:17358   */\n      pop\n      pop\n      jump\t// out\n        /* \"#utility.yul\":17364:17907   */\n    tag_246:\n        /* \"#utility.yul\":17465:17467   */\n      0x1f\n        /* \"#utility.yul\":17460:17463   */\n      dup3\n        /* \"#utility.yul\":17457:17468   */\n      gt\n        /* \"#utility.yul\":17454:17900   */\n      iszero\n      tag_439\n      jumpi\n        /* \"#utility.yul\":17499:17537   */\n      tag_440\n        /* \"#utility.yul\":17531:17536   */\n      dup2\n        /* \"#utility.yul\":17499:17537   */\n      tag_235\n      jump\t// in\n    tag_440:\n        /* \"#utility.yul\":17583:17612   */\n      tag_441\n        /* \"#utility.yul\":17601:17611   */\n      dup5\n        /* \"#utility.yul\":17583:17612   */\n      tag_236\n      jump\t// in\n    tag_441:\n        /* \"#utility.yul\":17573:17581   */\n      dup2\n        /* \"#utility.yul\":17569:17613   */\n      add\n        /* \"#utility.yul\":17766:17768   */\n      0x20\n        /* \"#utility.yul\":17754:17764   */\n      dup6\n        /* \"#utility.yul\":17751:17769   */\n      lt\n        /* \"#utility.yul\":17748:17797   */\n      iszero\n      tag_442\n      jumpi\n        /* \"#utility.yul\":17787:17795   */\n      dup2\n        /* \"#utility.yul\":17772:17795   */\n      swap1\n      pop\n        /* \"#utility.yul\":17748:17797   */\n    tag_442:\n        /* \"#utility.yul\":17810:17890   */\n      tag_443\n        /* \"#utility.yul\":17866:17888   */\n      tag_444\n        /* \"#utility.yul\":17884:17887   */\n      dup6\n        /* \"#utility.yul\":17866:17888   */\n      tag_236\n      jump\t// in\n    tag_444:\n        /* \"#utility.yul\":17856:17864   */\n      dup4\n        /* \"#utility.yul\":17852:17889   */\n      add\n        /* \"#utility.yul\":17839:17850   */\n      dup3\n        /* \"#utility.yul\":17810:17890   */\n      tag_245\n      jump\t// in\n    tag_443:\n        /* \"#utility.yul\":17469:17900   */\n      pop\n      pop\n        /* \"#utility.yul\":17454:17900   */\n    tag_439:\n        /* \"#utility.yul\":17364:17907   */\n      pop\n      pop\n      pop\n      jump\t// out\n        /* \"#utility.yul\":17913:18030   */\n    tag_247:\n        /* \"#utility.yul\":17967:17975   */\n      0x00\n        /* \"#utility.yul\":18017:18022   */\n      dup3\n        /* \"#utility.yul\":18011:18015   */\n      dup3\n        /* \"#utility.yul\":18007:18023   */\n      shr\n        /* \"#utility.yul\":17986:18023   */\n      swap1\n      pop\n        /* \"#utility.yul\":17913:18030   */\n      swap3\n      swap2\n      pop\n      pop\n      jump\t// out\n        /* \"#utility.yul\":18036:18205   */\n    tag_248:\n        /* \"#utility.yul\":18080:18086   */\n      0x00\n        /* \"#utility.yul\":18113:18164   */\n      tag_447\n        /* \"#utility.yul\":18161:18162   */\n      0x00\n        /* \"#utility.yul\":18157:18163   */\n      not\n        /* \"#utility.yul\":18149:18154   */\n      dup5\n        /* \"#utility.yul\":18146:18147   */\n      0x08\n        /* \"#utility.yul\":18142:18155   */\n      mul\n        /* \"#utility.yul\":18113:18164   */\n      tag_247\n      jump\t// in\n    tag_447:\n        /* \"#utility.yul\":18109:18165   */\n      not\n        /* \"#utility.yul\":18194:18198   */\n      dup1\n        /* \"#utility.yul\":18188:18192   */\n      dup4\n        /* \"#utility.yul\":18184:18199   */\n      and\n        /* \"#utility.yul\":18174:18199   */\n      swap2\n      pop\n        /* \"#utility.yul\":18087:18205   */\n      pop\n        /* \"#utility.yul\":18036:18205   */\n      swap3\n      swap2\n      pop\n      pop\n      jump\t// out\n        /* \"#utility.yul\":18210:18505   */\n    tag_249:\n        /* \"#utility.yul\":18286:18290   */\n      0x00\n        /* \"#utility.yul\":18432:18461   */\n      tag_449\n        /* \"#utility.yul\":18457:18460   */\n      dup4\n        /* \"#utility.yul\":18451:18455   */\n      dup4\n        /* \"#utility.yul\":18432:18461   */\n      tag_248\n      jump\t// in\n    tag_449:\n        /* \"#utility.yul\":18424:18461   */\n      swap2\n      pop\n        /* \"#utility.yul\":18494:18497   */\n      dup3\n        /* \"#utility.yul\":18491:18492   */\n      0x02\n        /* \"#utility.yul\":18487:18498   */\n      mul\n        /* \"#utility.yul\":18481:18485   */\n      dup3\n        /* \"#utility.yul\":18478:18499   */\n      or\n        /* \"#utility.yul\":18470:18499   */\n      swap1\n      pop\n        /* \"#utility.yul\":18210:18505   */\n      swap3\n      swap2\n      pop\n      pop\n      jump\t// out\n        /* \"#utility.yul\":18510:19961   */\n    tag_63:\n        /* \"#utility.yul\":18621:18624   */\n      dup2\n        /* \"#utility.yul\":18615:18619   */\n      dup2\n        /* \"#utility.yul\":18612:18625   */\n      sub\n        /* \"#utility.yul\":18609:18635   */\n      tag_451\n      jumpi\n        /* \"#utility.yul\":18628:18633   */\n      pop\n      pop\n      jump(tag_450)\n        /* \"#utility.yul\":18609:18635   */\n    tag_451:\n        /* \"#utility.yul\":18659:18693   */\n      tag_452\n        /* \"#utility.yul\":18689:18692   */\n      dup3\n        /* \"#utility.yul\":18659:18693   */\n      tag_234\n      jump\t// in\n    tag_452:\n        /* \"#utility.yul\":18758:18776   */\n      0xffffffffffffffff\n        /* \"#utility.yul\":18750:18756   */\n      dup2\n        /* \"#utility.yul\":18747:18777   */\n      gt\n        /* \"#utility.yul\":18744:18800   */\n      iszero\n      tag_453\n      jumpi\n        /* \"#utility.yul\":18780:18798   */\n      tag_454\n      tag_194\n      jump\t// in\n    tag_454:\n        /* \"#utility.yul\":18744:18800   */\n    tag_453:\n        /* \"#utility.yul\":18824:18862   */\n      tag_455\n        /* \"#utility.yul\":18856:18860   */\n      dup3\n        /* \"#utility.yul\":18850:18861   */\n      sload\n        /* \"#utility.yul\":18824:18862   */\n      tag_104\n      jump\t// in\n    tag_455:\n        /* \"#utility.yul\":18909:18976   */\n      tag_456\n        /* \"#utility.yul\":18969:18975   */\n      dup3\n        /* \"#utility.yul\":18961:18967   */\n      dup3\n        /* \"#utility.yul\":18955:18959   */\n      dup6\n        /* \"#utility.yul\":18909:18976   */\n      tag_246\n      jump\t// in\n    tag_456:\n        /* \"#utility.yul\":19003:19004   */\n      0x00\n        /* \"#utility.yul\":19032:19034   */\n      0x1f\n        /* \"#utility.yul\":19024:19030   */\n      dup4\n        /* \"#utility.yul\":19021:19035   */\n      gt\n        /* \"#utility.yul\":19049:19050   */\n      0x01\n        /* \"#utility.yul\":19044:19716   */\n      dup2\n      eq\n      tag_458\n      jumpi\n        /* \"#utility.yul\":19760:19761   */\n      0x00\n        /* \"#utility.yul\":19777:19783   */\n      dup5\n        /* \"#utility.yul\":19774:19851   */\n      iszero\n      tag_459\n      jumpi\n        /* \"#utility.yul\":19826:19835   */\n      dup3\n        /* \"#utility.yul\":19821:19824   */\n      dup8\n        /* \"#utility.yul\":19817:19836   */\n      add\n        /* \"#utility.yul\":19811:19837   */\n      sload\n        /* \"#utility.yul\":19802:19837   */\n      swap1\n      pop\n        /* \"#utility.yul\":19774:19851   */\n    tag_459:\n        /* \"#utility.yul\":19877:19944   */\n      tag_460\n        /* \"#utility.yul\":19937:19943   */\n      dup6\n        /* \"#utility.yul\":19930:19935   */\n      dup3\n        /* \"#utility.yul\":19877:19944   */\n      tag_249\n      jump\t// in\n    tag_460:\n        /* \"#utility.yul\":19871:19875   */\n      dup7\n        /* \"#utility.yul\":19864:19945   */\n      sstore\n        /* \"#utility.yul\":19733:19955   */\n      pop\n        /* \"#utility.yul\":19014:19955   */\n      jump(tag_457)\n        /* \"#utility.yul\":19044:19716   */\n    tag_458:\n        /* \"#utility.yul\":19096:19100   */\n      0x1f\n        /* \"#utility.yul\":19092:19101   */\n      not\n        /* \"#utility.yul\":19084:19090   */\n      dup5\n        /* \"#utility.yul\":19080:19102   */\n      and\n        /* \"#utility.yul\":19122:19158   */\n      tag_461\n        /* \"#utility.yul\":19154:19157   */\n      dup8\n        /* \"#utility.yul\":19122:19158   */\n      tag_235\n      jump\t// in\n    tag_461:\n        /* \"#utility.yul\":19115:19158   */\n      swap7\n      pop\n        /* \"#utility.yul\":19185:19222   */\n      tag_462\n        /* \"#utility.yul\":19217:19221   */\n      dup7\n        /* \"#utility.yul\":19185:19222   */\n      tag_235\n      jump\t// in\n    tag_462:\n        /* \"#utility.yul\":19244:19245   */\n      0x00\n        /* \"#utility.yul\":19258:19465   */\n    tag_463:\n        /* \"#utility.yul\":19272:19279   */\n      dup3\n        /* \"#utility.yul\":19269:19270   */\n      dup2\n        /* \"#utility.yul\":19266:19280   */\n      lt\n        /* \"#utility.yul\":19258:19465   */\n      iszero\n      tag_465\n      jumpi\n        /* \"#utility.yul\":19351:19360   */\n      dup5\n        /* \"#utility.yul\":19346:19349   */\n      dup10\n        /* \"#utility.yul\":19342:19361   */\n      add\n        /* \"#utility.yul\":19336:19362   */\n      sload\n        /* \"#utility.yul\":19328:19334   */\n      dup3\n        /* \"#utility.yul\":19321:19363   */\n      sstore\n        /* \"#utility.yul\":19402:19403   */\n      0x01\n        /* \"#utility.yul\":19394:19400   */\n      dup3\n        /* \"#utility.yul\":19390:19404   */\n      add\n        /* \"#utility.yul\":19380:19404   */\n      swap2\n      pop\n        /* \"#utility.yul\":19449:19450   */\n      0x01\n        /* \"#utility.yul\":19438:19447   */\n      dup6\n        /* \"#utility.yul\":19434:19451   */\n      add\n        /* \"#utility.yul\":19421:19451   */\n      swap5\n      pop\n        /* \"#utility.yul\":19295:19299   */\n      0x20\n        /* \"#utility.yul\":19292:19293   */\n      dup2\n        /* \"#utility.yul\":19288:19300   */\n      add\n        /* \"#utility.yul\":19283:19300   */\n      swap1\n      pop\n        /* \"#utility.yul\":19258:19465   */\n      jump(tag_463)\n    tag_465:\n        /* \"#utility.yul\":19493:19499   */\n      dup7\n        /* \"#utility.yul\":19484:19491   */\n      dup4\n        /* \"#utility.yul\":19481:19500   */\n      lt\n        /* \"#utility.yul\":19478:19657   */\n      iszero\n      tag_466\n      jumpi\n        /* \"#utility.yul\":19551:19560   */\n      dup5\n        /* \"#utility.yul\":19546:19549   */\n      dup10\n        /* \"#utility.yul\":19542:19561   */\n      add\n        /* \"#utility.yul\":19536:19562   */\n      sload\n        /* \"#utility.yul\":19594:19642   */\n      tag_467\n        /* \"#utility.yul\":19636:19640   */\n      0x1f\n        /* \"#utility.yul\":19628:19634   */\n      dup10\n        /* \"#utility.yul\":19624:19641   */\n      and\n        /* \"#utility.yul\":19613:19622   */\n      dup3\n        /* \"#utility.yul\":19594:19642   */\n      tag_248\n      jump\t// in\n    tag_467:\n        /* \"#utility.yul\":19586:19592   */\n      dup4\n        /* \"#utility.yul\":19579:19643   */\n      sstore\n        /* \"#utility.yul\":19501:19657   */\n      pop\n        /* \"#utility.yul\":19478:19657   */\n    tag_466:\n        /* \"#utility.yul\":19703:19704   */\n      0x01\n        /* \"#utility.yul\":19699:19700   */\n      0x02\n        /* \"#utility.yul\":19691:19697   */\n      dup9\n        /* \"#utility.yul\":19687:19701   */\n      mul\n        /* \"#utility.yul\":19683:19705   */\n      add\n        /* \"#utility.yul\":19677:19681   */\n      dup9\n        /* \"#utility.yul\":19670:19706   */\n      sstore\n        /* \"#utility.yul\":19051:19716   */\n      pop\n      pop\n      pop\n        /* \"#utility.yul\":19014:19955   */\n    tag_457:\n      pop\n        /* \"#utility.yul\":18599:19961   */\n      pop\n      pop\n      pop\n        /* \"#utility.yul\":18510:19961   */\n      pop\n      pop\n    tag_450:\n      jump\t// out\n        /* \"#utility.yul\":19967:20147   */\n    tag_70:\n        /* \"#utility.yul\":20015:20092   */\n      0x4e487b7100000000000000000000000000000000000000000000000000000000\n        /* \"#utility.yul\":20012:20013   */\n      0x00\n        /* \"#utility.yul\":20005:20093   */\n      mstore\n        /* \"#utility.yul\":20112:20116   */\n      0x31\n        /* \"#utility.yul\":20109:20110   */\n      0x04\n        /* \"#utility.yul\":20102:20117   */\n      mstore\n        /* \"#utility.yul\":20136:20140   */\n      0x24\n        /* \"#utility.yul\":20133:20134   */\n      0x00\n        /* \"#utility.yul\":20126:20141   */\n      revert\n        /* \"#utility.yul\":20153:20321   */\n    tag_250:\n        /* \"#utility.yul\":20293:20313   */\n      0x596f75277265206e6f7420616c6c6f7765640000000000000000000000000000\n        /* \"#utility.yul\":20289:20290   */\n      0x00\n        /* \"#utility.yul\":20281:20287   */\n      dup3\n        /* \"#utility.yul\":20277:20291   */\n      add\n        /* \"#utility.yul\":20270:20314   */\n      mstore\n        /* \"#utility.yul\":20153:20321   */\n      pop\n      jump\t// out\n        /* \"#utility.yul\":20327:20693   */\n    tag_251:\n        /* \"#utility.yul\":20469:20472   */\n      0x00\n        /* \"#utility.yul\":20490:20557   */\n      tag_471\n        /* \"#utility.yul\":20554:20556   */\n      0x12\n        /* \"#utility.yul\":20549:20552   */\n      dup4\n        /* \"#utility.yul\":20490:20557   */\n      tag_204\n      jump\t// in\n    tag_471:\n        /* \"#utility.yul\":20483:20557   */\n      swap2\n      pop\n        /* \"#utility.yul\":20566:20659   */\n      tag_472\n        /* \"#utility.yul\":20655:20658   */\n      dup3\n        /* \"#utility.yul\":20566:20659   */\n      tag_250\n      jump\t// in\n    tag_472:\n        /* \"#utility.yul\":20684:20686   */\n      0x20\n        /* \"#utility.yul\":20679:20682   */\n      dup3\n        /* \"#utility.yul\":20675:20687   */\n      add\n        /* \"#utility.yul\":20668:20687   */\n      swap1\n      pop\n        /* \"#utility.yul\":20327:20693   */\n      swap2\n      swap1\n      pop\n      jump\t// out\n        /* \"#utility.yul\":20699:21118   */\n    tag_78:\n        /* \"#utility.yul\":20865:20869   */\n      0x00\n        /* \"#utility.yul\":20903:20905   */\n      0x20\n        /* \"#utility.yul\":20892:20901   */\n      dup3\n        /* \"#utility.yul\":20888:20906   */\n      add\n        /* \"#utility.yul\":20880:20906   */\n      swap1\n      pop\n        /* \"#utility.yul\":20952:20961   */\n      dup2\n        /* \"#utility.yul\":20946:20950   */\n      dup2\n        /* \"#utility.yul\":20942:20962   */\n      sub\n        /* \"#utility.yul\":20938:20939   */\n      0x00\n        /* \"#utility.yul\":20927:20936   */\n      dup4\n        /* \"#utility.yul\":20923:20940   */\n      add\n        /* \"#utility.yul\":20916:20963   */\n      mstore\n        /* \"#utility.yul\":20980:21111   */\n      tag_474\n        /* \"#utility.yul\":21106:21110   */\n      dup2\n        /* \"#utility.yul\":20980:21111   */\n      tag_251\n      jump\t// in\n    tag_474:\n        /* \"#utility.yul\":20972:21111   */\n      swap1\n      pop\n        /* \"#utility.yul\":20699:21118   */\n      swap2\n      swap1\n      pop\n      jump\t// out\n        /* \"#utility.yul\":21124:21298   */\n    tag_252:\n        /* \"#utility.yul\":21264:21290   */\n      0x5a65726f2041646472657373206e6f7420616c6c6f7765640000000000000000\n        /* \"#utility.yul\":21260:21261   */\n      0x00\n        /* \"#utility.yul\":21252:21258   */\n      dup3\n        /* \"#utility.yul\":21248:21262   */\n      add\n        /* \"#utility.yul\":21241:21291   */\n      mstore\n        /* \"#utility.yul\":21124:21298   */\n      pop\n      jump\t// out\n        /* \"#utility.yul\":21304:21670   */\n    tag_253:\n        /* \"#utility.yul\":21446:21449   */\n      0x00\n        /* \"#utility.yul\":21467:21534   */\n      tag_477\n        /* \"#utility.yul\":21531:21533   */\n      0x18\n        /* \"#utility.yul\":21526:21529   */\n      dup4\n        /* \"#utility.yul\":21467:21534   */\n      tag_204\n      jump\t// in\n    tag_477:\n        /* \"#utility.yul\":21460:21534   */\n      swap2\n      pop\n        /* \"#utility.yul\":21543:21636   */\n      tag_478\n        /* \"#utility.yul\":21632:21635   */\n      dup3\n        /* \"#utility.yul\":21543:21636   */\n      tag_252\n      jump\t// in\n    tag_478:\n        /* \"#utility.yul\":21661:21663   */\n      0x20\n        /* \"#utility.yul\":21656:21659   */\n      dup3\n        /* \"#utility.yul\":21652:21664   */\n      add\n        /* \"#utility.yul\":21645:21664   */\n      swap1\n      pop\n        /* \"#utility.yul\":21304:21670   */\n      swap2\n      swap1\n      pop\n      jump\t// out\n        /* \"#utility.yul\":21676:22095   */\n    tag_82:\n        /* \"#utility.yul\":21842:21846   */\n      0x00\n        /* \"#utility.yul\":21880:21882   */\n      0x20\n        /* \"#utility.yul\":21869:21878   */\n      dup3\n        /* \"#utility.yul\":21865:21883   */\n      add\n        /* \"#utility.yul\":21857:21883   */\n      swap1\n      pop\n        /* \"#utility.yul\":21929:21938   */\n      dup2\n        /* \"#utility.yul\":21923:21927   */\n      dup2\n        /* \"#utility.yul\":21919:21939   */\n      sub\n        /* \"#utility.yul\":21915:21916   */\n      0x00\n        /* \"#utility.yul\":21904:21913   */\n      dup4\n        /* \"#utility.yul\":21900:21917   */\n      add\n        /* \"#utility.yul\":21893:21940   */\n      mstore\n        /* \"#utility.yul\":21957:22088   */\n      tag_480\n        /* \"#utility.yul\":22083:22087   */\n      dup2\n        /* \"#utility.yul\":21957:22088   */\n      tag_253\n      jump\t// in\n    tag_480:\n        /* \"#utility.yul\":21949:22088   */\n      swap1\n      pop\n        /* \"#utility.yul\":21676:22095   */\n      swap2\n      swap1\n      pop\n      jump\t// out\n        /* \"#utility.yul\":22101:23496   */\n    tag_92:\n        /* \"#utility.yul\":22218:22255   */\n      tag_482\n        /* \"#utility.yul\":22251:22254   */\n      dup3\n        /* \"#utility.yul\":22218:22255   */\n      tag_203\n      jump\t// in\n    tag_482:\n        /* \"#utility.yul\":22320:22338   */\n      0xffffffffffffffff\n        /* \"#utility.yul\":22312:22318   */\n      dup2\n        /* \"#utility.yul\":22309:22339   */\n      gt\n        /* \"#utility.yul\":22306:22362   */\n      iszero\n      tag_483\n      jumpi\n        /* \"#utility.yul\":22342:22360   */\n      tag_484\n      tag_194\n      jump\t// in\n    tag_484:\n        /* \"#utility.yul\":22306:22362   */\n    tag_483:\n        /* \"#utility.yul\":22386:22424   */\n      tag_485\n        /* \"#utility.yul\":22418:22422   */\n      dup3\n        /* \"#utility.yul\":22412:22423   */\n      sload\n        /* \"#utility.yul\":22386:22424   */\n      tag_104\n      jump\t// in\n    tag_485:\n        /* \"#utility.yul\":22471:22538   */\n      tag_486\n        /* \"#utility.yul\":22531:22537   */\n      dup3\n        /* \"#utility.yul\":22523:22529   */\n      dup3\n        /* \"#utility.yul\":22517:22521   */\n      dup6\n        /* \"#utility.yul\":22471:22538   */\n      tag_246\n      jump\t// in\n    tag_486:\n        /* \"#utility.yul\":22565:22566   */\n      0x00\n        /* \"#utility.yul\":22589:22593   */\n      0x20\n        /* \"#utility.yul\":22576:22593   */\n      swap1\n      pop\n        /* \"#utility.yul\":22621:22623   */\n      0x1f\n        /* \"#utility.yul\":22613:22619   */\n      dup4\n        /* \"#utility.yul\":22610:22624   */\n      gt\n        /* \"#utility.yul\":22638:22639   */\n      0x01\n        /* \"#utility.yul\":22633:23251   */\n      dup2\n      eq\n      tag_488\n      jumpi\n        /* \"#utility.yul\":23295:23296   */\n      0x00\n        /* \"#utility.yul\":23312:23318   */\n      dup5\n        /* \"#utility.yul\":23309:23386   */\n      iszero\n      tag_489\n      jumpi\n        /* \"#utility.yul\":23361:23370   */\n      dup3\n        /* \"#utility.yul\":23356:23359   */\n      dup8\n        /* \"#utility.yul\":23352:23371   */\n      add\n        /* \"#utility.yul\":23346:23372   */\n      mload\n        /* \"#utility.yul\":23337:23372   */\n      swap1\n      pop\n        /* \"#utility.yul\":23309:23386   */\n    tag_489:\n        /* \"#utility.yul\":23412:23479   */\n      tag_490\n        /* \"#utility.yul\":23472:23478   */\n      dup6\n        /* \"#utility.yul\":23465:23470   */\n      dup3\n        /* \"#utility.yul\":23412:23479   */\n      tag_249\n      jump\t// in\n    tag_490:\n        /* \"#utility.yul\":23406:23410   */\n      dup7\n        /* \"#utility.yul\":23399:23480   */\n      sstore\n        /* \"#utility.yul\":23268:23490   */\n      pop\n        /* \"#utility.yul\":22603:23490   */\n      jump(tag_487)\n        /* \"#utility.yul\":22633:23251   */\n    tag_488:\n        /* \"#utility.yul\":22685:22689   */\n      0x1f\n        /* \"#utility.yul\":22681:22690   */\n      not\n        /* \"#utility.yul\":22673:22679   */\n      dup5\n        /* \"#utility.yul\":22669:22691   */\n      and\n        /* \"#utility.yul\":22719:22756   */\n      tag_491\n        /* \"#utility.yul\":22751:22755   */\n      dup7\n        /* \"#utility.yul\":22719:22756   */\n      tag_235\n      jump\t// in\n    tag_491:\n        /* \"#utility.yul\":22778:22779   */\n      0x00\n        /* \"#utility.yul\":22792:23000   */\n    tag_492:\n        /* \"#utility.yul\":22806:22813   */\n      dup3\n        /* \"#utility.yul\":22803:22804   */\n      dup2\n        /* \"#utility.yul\":22800:22814   */\n      lt\n        /* \"#utility.yul\":22792:23000   */\n      iszero\n      tag_494\n      jumpi\n        /* \"#utility.yul\":22885:22894   */\n      dup5\n        /* \"#utility.yul\":22880:22883   */\n      dup10\n        /* \"#utility.yul\":22876:22895   */\n      add\n        /* \"#utility.yul\":22870:22896   */\n      mload\n        /* \"#utility.yul\":22862:22868   */\n      dup3\n        /* \"#utility.yul\":22855:22897   */\n      sstore\n        /* \"#utility.yul\":22936:22937   */\n      0x01\n        /* \"#utility.yul\":22928:22934   */\n      dup3\n        /* \"#utility.yul\":22924:22938   */\n      add\n        /* \"#utility.yul\":22914:22938   */\n      swap2\n      pop\n        /* \"#utility.yul\":22983:22985   */\n      0x20\n        /* \"#utility.yul\":22972:22981   */\n      dup6\n        /* \"#utility.yul\":22968:22986   */\n      add\n        /* \"#utility.yul\":22955:22986   */\n      swap5\n      pop\n        /* \"#utility.yul\":22829:22833   */\n      0x20\n        /* \"#utility.yul\":22826:22827   */\n      dup2\n        /* \"#utility.yul\":22822:22834   */\n      add\n        /* \"#utility.yul\":22817:22834   */\n      swap1\n      pop\n        /* \"#utility.yul\":22792:23000   */\n      jump(tag_492)\n    tag_494:\n        /* \"#utility.yul\":23028:23034   */\n      dup7\n        /* \"#utility.yul\":23019:23026   */\n      dup4\n        /* \"#utility.yul\":23016:23035   */\n      lt\n        /* \"#utility.yul\":23013:23192   */\n      iszero\n      tag_495\n      jumpi\n        /* \"#utility.yul\":23086:23095   */\n      dup5\n        /* \"#utility.yul\":23081:23084   */\n      dup10\n        /* \"#utility.yul\":23077:23096   */\n      add\n        /* \"#utility.yul\":23071:23097   */\n      mload\n        /* \"#utility.yul\":23129:23177   */\n      tag_496\n        /* \"#utility.yul\":23171:23175   */\n      0x1f\n        /* \"#utility.yul\":23163:23169   */\n      dup10\n        /* \"#utility.yul\":23159:23176   */\n      and\n        /* \"#utility.yul\":23148:23157   */\n      dup3\n        /* \"#utility.yul\":23129:23177   */\n      tag_248\n      jump\t// in\n    tag_496:\n        /* \"#utility.yul\":23121:23127   */\n      dup4\n        /* \"#utility.yul\":23114:23178   */\n      sstore\n        /* \"#utility.yul\":23036:23192   */\n      pop\n        /* \"#utility.yul\":23013:23192   */\n    tag_495:\n        /* \"#utility.yul\":23238:23239   */\n      0x01\n        /* \"#utility.yul\":23234:23235   */\n      0x02\n        /* \"#utility.yul\":23226:23232   */\n      dup9\n        /* \"#utility.yul\":23222:23236   */\n      mul\n        /* \"#utility.yul\":23218:23240   */\n      add\n        /* \"#utility.yul\":23212:23216   */\n      dup9\n        /* \"#utility.yul\":23205:23241   */\n      sstore\n        /* \"#utility.yul\":22640:23251   */\n      pop\n      pop\n      pop\n        /* \"#utility.yul\":22603:23490   */\n    tag_487:\n      pop\n        /* \"#utility.yul\":22193:23496   */\n      pop\n      pop\n      pop\n        /* \"#utility.yul\":22101:23496   */\n      pop\n      pop\n      jump\t// out\n        /* \"#utility.yul\":23502:23614   */\n    tag_254:\n        /* \"#utility.yul\":23585:23607   */\n      tag_498\n        /* \"#utility.yul\":23601:23606   */\n      dup2\n        /* \"#utility.yul\":23585:23607   */\n      tag_227\n      jump\t// in\n    tag_498:\n        /* \"#utility.yul\":23580:23583   */\n      dup3\n        /* \"#utility.yul\":23573:23608   */\n      mstore\n        /* \"#utility.yul\":23502:23614   */\n      pop\n      pop\n      jump\t// out\n        /* \"#utility.yul\":23620:24359   */\n    tag_175:\n        /* \"#utility.yul\":23839:23843   */\n      0x00\n        /* \"#utility.yul\":23877:23880   */\n      0x80\n        /* \"#utility.yul\":23866:23875   */\n      dup3\n        /* \"#utility.yul\":23862:23881   */\n      add\n        /* \"#utility.yul\":23854:23881   */\n      swap1\n      pop\n        /* \"#utility.yul\":23891:23958   */\n      tag_500\n        /* \"#utility.yul\":23955:23956   */\n      0x00\n        /* \"#utility.yul\":23944:23953   */\n      dup4\n        /* \"#utility.yul\":23940:23957   */\n      add\n        /* \"#utility.yul\":23931:23937   */\n      dup8\n        /* \"#utility.yul\":23891:23958   */\n      tag_254\n      jump\t// in\n    tag_500:\n        /* \"#utility.yul\":24005:24014   */\n      dup2\n        /* \"#utility.yul\":23999:24003   */\n      dup2\n        /* \"#utility.yul\":23995:24015   */\n      sub\n        /* \"#utility.yul\":23990:23992   */\n      0x20\n        /* \"#utility.yul\":23979:23988   */\n      dup4\n        /* \"#utility.yul\":23975:23993   */\n      add\n        /* \"#utility.yul\":23968:24016   */\n      mstore\n        /* \"#utility.yul\":24033:24111   */\n      tag_501\n        /* \"#utility.yul\":24106:24110   */\n      dup2\n        /* \"#utility.yul\":24097:24103   */\n      dup7\n        /* \"#utility.yul\":24033:24111   */\n      tag_206\n      jump\t// in\n    tag_501:\n        /* \"#utility.yul\":24025:24111   */\n      swap1\n      pop\n        /* \"#utility.yul\":24158:24167   */\n      dup2\n        /* \"#utility.yul\":24152:24156   */\n      dup2\n        /* \"#utility.yul\":24148:24168   */\n      sub\n        /* \"#utility.yul\":24143:24145   */\n      0x40\n        /* \"#utility.yul\":24132:24141   */\n      dup4\n        /* \"#utility.yul\":24128:24146   */\n      add\n        /* \"#utility.yul\":24121:24169   */\n      mstore\n        /* \"#utility.yul\":24186:24264   */\n      tag_502\n        /* \"#utility.yul\":24259:24263   */\n      dup2\n        /* \"#utility.yul\":24250:24256   */\n      dup6\n        /* \"#utility.yul\":24186:24264   */\n      tag_206\n      jump\t// in\n    tag_502:\n        /* \"#utility.yul\":24178:24264   */\n      swap1\n      pop\n        /* \"#utility.yul\":24274:24352   */\n      tag_503\n        /* \"#utility.yul\":24348:24350   */\n      0x60\n        /* \"#utility.yul\":24337:24346   */\n      dup4\n        /* \"#utility.yul\":24333:24351   */\n      add\n        /* \"#utility.yul\":24324:24330   */\n      dup5\n        /* \"#utility.yul\":24274:24352   */\n      tag_210\n      jump\t// in\n    tag_503:\n        /* \"#utility.yul\":23620:24359   */\n      swap6\n      swap5\n      pop\n      pop\n      pop\n      pop\n      pop\n      jump\t// out\n\n    auxdata: 0xa2646970667358221220a5f1c24579f2aaa14e65f94b83714ca7d2e2d02de1539f2d054e7fabca146c0264736f6c634300081a0033\n}\n",
				"bytecode": {
					"linkReferences": {},
					"object": "6080604052348015600e575f80fd5b50335f806101000a81548173ffffffffffffffffffffffffffffffffffffffff021916908373ffffffffffffffffffffffffffffffffffffffff160217905550611b318061005b5f395ff3fe608060405234801561000f575f80fd5b5060043610610086575f3560e01c8063982abb8911610059578063982abb8914610126578063b12080fa14610144578063bc8bc2b414610174578063e9505164146101a657610086565b806316b0fac81461008a5780633380b99f146100a65780633c734648146100d65780638da5cb5b14610108575b5f80fd5b6100a4600480360381019061009f9190610ec6565b6101d6565b005b6100c060048036038101906100bb919061102d565b610362565b6040516100cd91906110bd565b60405180910390f35b6100f060048036038101906100eb9190610ec6565b610574565b6040516100ff939291906111a9565b60405180910390f35b610110610724565b60405161011d919061122b565b60405180910390f35b61012e610747565b60405161013b91906113aa565b60405180910390f35b61015e60048036038101906101599190610ec6565b6108fc565b60405161016b91906110bd565b60405180910390f35b61018e600480360381019061018991906113fd565b610aa1565b60405161019d939291906111a9565b60405180910390f35b6101c060048036038101906101bb919061145e565b610bee565b6040516101cd91906110bd565b60405180910390f35b6001805490508161ffff1610610221576040517f08c379a000000000000000000000000000000000000000000000000000000000815260040161021890611530565b60405180910390fd5b6001808080549050610233919061157b565b81548110610244576102436115ae565b5b905f5260205f20906003020160018261ffff1681548110610268576102676115ae565b5b905f5260205f2090600302015f8201815f01908161028691906117ea565b506001820181600101908161029b91906117ea565b50600282015f9054906101000a900460ff16816002015f6101000a81548160ff021916908360038111156102d2576102d1611136565b5b021790555090505060018054806102ec576102eb6118cf565b5b600190038181905f5260205f2090600302015f8082015f61030d9190610df4565b600182015f61031c9190610df4565b600282015f6101000a81549060ff0219169055505090557f9218efb8b01b35364f271f424251d4ac0ee6008fc366226e9c2338bd15ebf61660405160405180910390a150565b5f805f9054906101000a900473ffffffffffffffffffffffffffffffffffffffff1673ffffffffffffffffffffffffffffffffffffffff163373ffffffffffffffffffffffffffffffffffffffff16146103f1576040517f08c379a00000000000000000000000000000000000000000000000000000000081526004016103e890611946565b60405180910390fd5b5f73ffffffffffffffffffffffffffffffffffffffff163373ffffffffffffffffffffffffffffffffffffffff160361045f576040517f08c379a0000000000000000000000000000000000000000000000000000000008152600401610456906119ae565b60405180910390fd5b610467610e31565b83815f018190525082816020018190525060018160400190600381111561049157610490611136565b5b908160038111156104a5576104a4611136565b5b81525050600181908060018154018082558091505060019003905f5260205f2090600302015f909190919091505f820151815f0190816104e591906119cc565b5060208201518160010190816104fb91906119cc565b506040820151816002015f6101000a81548160ff0219169083600381111561052657610525611136565b5b021790555050507fa6e50c1cb85fdf7f9e8757e7dca99802492ce176e820e4d31c97225a83cabd6b84846001604051610561939291906111a9565b60405180910390a1600191505092915050565b6060805f6001805490508461ffff16106105c3576040517f08c379a00000000000000000000000000000000000000000000000000000000081526004016105ba90611530565b60405180910390fd5b5f60018561ffff16815481106105dc576105db6115ae565b5b905f5260205f2090600302019050805f0181600101826002015f9054906101000a900460ff1682805461060e90611608565b80601f016020809104026020016040519081016040528092919081815260200182805461063a90611608565b80156106855780601f1061065c57610100808354040283529160200191610685565b820191905f5260205f20905b81548152906001019060200180831161066857829003601f168201915b5050505050925081805461069890611608565b80601f01602080910402602001604051908101604052809291908181526020018280546106c490611608565b801561070f5780601f106106e65761010080835404028352916020019161070f565b820191905f5260205f20905b8154815290600101906020018083116106f257829003601f168201915b50505050509150935093509350509193909250565b5f8054906101000a900473ffffffffffffffffffffffffffffffffffffffff1681565b60606001805480602002602001604051908101604052809291908181526020015f905b828210156108f3578382905f5260205f2090600302016040518060600160405290815f8201805461079a90611608565b80601f01602080910402602001604051908101604052809291908181526020018280546107c690611608565b80156108115780601f106107e857610100808354040283529160200191610811565b820191905f5260205f20905b8154815290600101906020018083116107f457829003601f168201915b5050505050815260200160018201805461082a90611608565b80601f016020809104026020016040519081016040528092919081815260200182805461085690611608565b80156108a15780601f10610878576101008083540402835291602001916108a1565b820191905f5260205f20905b81548152906001019060200180831161088457829003601f168201915b50505050508152602001600282015f9054906101000a900460ff1660038111156108ce576108cd611136565b5b60038111156108e0576108df611136565b5b815250508152602001906001019061076a565b50505050905090565b5f805f9054906101000a900473ffffffffffffffffffffffffffffffffffffffff1673ffffffffffffffffffffffffffffffffffffffff163373ffffffffffffffffffffffffffffffffffffffff161461098b576040517f08c379a000000000000000000000000000000000000000000000000000000000815260040161098290611946565b60405180910390fd5b5f73ffffffffffffffffffffffffffffffffffffffff163373ffffffffffffffffffffffffffffffffffffffff16036109f9576040517f08c379a00000000000000000000000000000000000000000000000000000000081526004016109f0906119ae565b60405180910390fd5b6001805490508261ffff1610610a44576040517f08c379a0000000000000000000000000000000000000000000000000000000008152600401610a3b90611530565b60405180910390fd5b5f60018361ffff1681548110610a5d57610a5c6115ae565b5b905f5260205f20906003020190506003816002015f6101000a81548160ff02191690836003811115610a9257610a91611136565b5b02179055506001915050919050565b60018181548110610ab0575f80fd5b905f5260205f2090600302015f91509050805f018054610acf90611608565b80601f0160208091040260200160405190810160405280929190818152602001828054610afb90611608565b8015610b465780601f10610b1d57610100808354040283529160200191610b46565b820191905f5260205f20905b815481529060010190602001808311610b2957829003601f168201915b505050505090806001018054610b5b90611608565b80601f0160208091040260200160405190810160405280929190818152602001828054610b8790611608565b8015610bd25780601f10610ba957610100808354040283529160200191610bd2565b820191905f5260205f20905b815481529060010190602001808311610bb557829003601f168201915b505050505090806002015f9054906101000a900460ff16905083565b5f805f9054906101000a900473ffffffffffffffffffffffffffffffffffffffff1673ffffffffffffffffffffffffffffffffffffffff163373ffffffffffffffffffffffffffffffffffffffff1614610c7d576040517f08c379a0000000000000000000000000000000000000000000000000000000008152600401610c7490611946565b60405180910390fd5b5f73ffffffffffffffffffffffffffffffffffffffff163373ffffffffffffffffffffffffffffffffffffffff1603610ceb576040517f08c379a0000000000000000000000000000000000000000000000000000000008152600401610ce2906119ae565b60405180910390fd5b6001805490508460ff1610610d35576040517f08c379a0000000000000000000000000000000000000000000000000000000008152600401610d2c90611530565b60405180910390fd5b5f60018560ff1681548110610d4d57610d4c6115ae565b5b905f5260205f209060030201905083815f019081610d6b91906119cc565b5082816001019081610d7d91906119cc565b506002816002015f6101000a81548160ff02191690836003811115610da557610da4611136565b5b02179055507feaf396fcad0364018752e6c4e5adad3e2dc3c6fdcfaf795e55df5bf5d7f7b7908585856002604051610de09493929190611aaa565b60405180910390a160019150509392505050565b508054610e0090611608565b5f825580601f10610e115750610e2e565b601f0160209004905f5260205f2090810190610e2d9190610e63565b5b50565b604051806060016040528060608152602001606081526020015f6003811115610e5d57610e5c611136565b5b81525090565b5b80821115610e7a575f815f905550600101610e64565b5090565b5f604051905090565b5f80fd5b5f80fd5b5f61ffff82169050919050565b610ea581610e8f565b8114610eaf575f80fd5b50565b5f81359050610ec081610e9c565b92915050565b5f60208284031215610edb57610eda610e87565b5b5f610ee884828501610eb2565b91505092915050565b5f80fd5b5f80fd5b5f601f19601f8301169050919050565b7f4e487b71000000000000000000000000000000000000000000000000000000005f52604160045260245ffd5b610f3f82610ef9565b810181811067ffffffffffffffff82111715610f5e57610f5d610f09565b5b80604052505050565b5f610f70610e7e565b9050610f7c8282610f36565b919050565b5f67ffffffffffffffff821115610f9b57610f9a610f09565b5b610fa482610ef9565b9050602081019050919050565b828183375f83830152505050565b5f610fd1610fcc84610f81565b610f67565b905082815260208101848484011115610fed57610fec610ef5565b5b610ff8848285610fb1565b509392505050565b5f82601f83011261101457611013610ef1565b5b8135611024848260208601610fbf565b91505092915050565b5f806040838503121561104357611042610e87565b5b5f83013567ffffffffffffffff8111156110605761105f610e8b565b5b61106c85828601611000565b925050602083013567ffffffffffffffff81111561108d5761108c610e8b565b5b61109985828601611000565b9150509250929050565b5f8115159050919050565b6110b7816110a3565b82525050565b5f6020820190506110d05f8301846110ae565b92915050565b5f81519050919050565b5f82825260208201905092915050565b8281835e5f83830152505050565b5f611108826110d6565b61111281856110e0565b93506111228185602086016110f0565b61112b81610ef9565b840191505092915050565b7f4e487b71000000000000000000000000000000000000000000000000000000005f52602160045260245ffd5b6004811061117457611173611136565b5b50565b5f81905061118482611163565b919050565b5f61119382611177565b9050919050565b6111a381611189565b82525050565b5f6060820190508181035f8301526111c181866110fe565b905081810360208301526111d581856110fe565b90506111e4604083018461119a565b949350505050565b5f73ffffffffffffffffffffffffffffffffffffffff82169050919050565b5f611215826111ec565b9050919050565b6112258161120b565b82525050565b5f60208201905061123e5f83018461121c565b92915050565b5f81519050919050565b5f82825260208201905092915050565b5f819050602082019050919050565b5f82825260208201905092915050565b5f611287826110d6565b611291818561126d565b93506112a18185602086016110f0565b6112aa81610ef9565b840191505092915050565b6112be81611189565b82525050565b5f606083015f8301518482035f8601526112de828261127d565b915050602083015184820360208601526112f8828261127d565b915050604083015161130d60408601826112b5565b508091505092915050565b5f61132383836112c4565b905092915050565b5f602082019050919050565b5f61134182611244565b61134b818561124e565b93508360208202850161135d8561125e565b805f5b8581101561139857848403895281516113798582611318565b94506113848361132b565b925060208a01995050600181019050611360565b50829750879550505050505092915050565b5f6020820190508181035f8301526113c28184611337565b905092915050565b5f819050919050565b6113dc816113ca565b81146113e6575f80fd5b50565b5f813590506113f7816113d3565b92915050565b5f6020828403121561141257611411610e87565b5b5f61141f848285016113e9565b91505092915050565b5f60ff82169050919050565b61143d81611428565b8114611447575f80fd5b50565b5f8135905061145881611434565b92915050565b5f805f6060848603121561147557611474610e87565b5b5f6114828682870161144a565b935050602084013567ffffffffffffffff8111156114a3576114a2610e8b565b5b6114af86828701611000565b925050604084013567ffffffffffffffff8111156114d0576114cf610e8b565b5b6114dc86828701611000565b9150509250925092565b7f496e646578206973204f75745f6f665f626f756e6400000000000000000000005f82015250565b5f61151a6015836110e0565b9150611525826114e6565b602082019050919050565b5f6020820190508181035f8301526115478161150e565b9050919050565b7f4e487b71000000000000000000000000000000000000000000000000000000005f52601160045260245ffd5b5f611585826113ca565b9150611590836113ca565b92508282039050818111156115a8576115a761154e565b5b92915050565b7f4e487b71000000000000000000000000000000000000000000000000000000005f52603260045260245ffd5b7f4e487b71000000000000000000000000000000000000000000000000000000005f52602260045260245ffd5b5f600282049050600182168061161f57607f821691505b602082108103611632576116316115db565b5b50919050565b5f8154905061164681611608565b9050919050565b5f819050815f5260205f209050919050565b5f6020601f8301049050919050565b5f82821b905092915050565b5f600883026116a97fffffffffffffffffffffffffffffffffffffffffffffffffffffffffffffffff8261166e565b6116b3868361166e565b95508019841693508086168417925050509392505050565b5f819050919050565b5f6116ee6116e96116e4846113ca565b6116cb565b6113ca565b9050919050565b5f819050919050565b611707836116d4565b61171b611713826116f5565b84845461167a565b825550505050565b5f90565b61172f611723565b61173a8184846116fe565b505050565b5b8181101561175d576117525f82611727565b600181019050611740565b5050565b601f8211156117a2576117738161164d565b61177c8461165f565b8101602085101561178b578190505b61179f6117978561165f565b83018261173f565b50505b505050565b5f82821c905092915050565b5f6117c25f19846008026117a7565b1980831691505092915050565b5f6117da83836117b3565b9150826002028217905092915050565b8181036117f85750506118cd565b61180182611638565b67ffffffffffffffff81111561181a57611819610f09565b5b6118248254611608565b61182f828285611761565b5f601f83116001811461185c575f841561184a578287015490505b61185485826117cf565b8655506118c6565b601f19841661186a8761164d565b96506118758661164d565b5f5b8281101561189c57848901548255600182019150600185019450602081019050611877565b868310156118b957848901546118b5601f8916826117b3565b8355505b6001600288020188555050505b5050505050505b565b7f4e487b71000000000000000000000000000000000000000000000000000000005f52603160045260245ffd5b7f596f75277265206e6f7420616c6c6f77656400000000000000000000000000005f82015250565b5f6119306012836110e0565b915061193b826118fc565b602082019050919050565b5f6020820190508181035f83015261195d81611924565b9050919050565b7f5a65726f2041646472657373206e6f7420616c6c6f77656400000000000000005f82015250565b5f6119986018836110e0565b91506119a382611964565b602082019050919050565b5f6020820190508181035f8301526119c58161198c565b9050919050565b6119d5826110d6565b67ffffffffffffffff8111156119ee576119ed610f09565b5b6119f88254611608565b611a03828285611761565b5f60209050601f831160018114611a34575f8415611a22578287015190505b611a2c85826117cf565b865550611a93565b601f198416611a428661164d565b5f5b82811015611a6957848901518255600182019150602085019450602081019050611a44565b86831015611a865784890151611a82601f8916826117b3565b8355505b6001600288020188555050505b505050505050565b611aa481611428565b82525050565b5f608082019050611abd5f830187611a9b565b8181036020830152611acf81866110fe565b90508181036040830152611ae381856110fe565b9050611af2606083018461119a565b9594505050505056fea2646970667358221220a5f1c24579f2aaa14e65f94b83714ca7d2e2d02de1539f2d054e7fabca146c0264736f6c634300081a0033",
					"opcodes": "PUSH1 0x80 PUSH1 0x40 MSTORE CALLVALUE DUP1 ISZERO PUSH1 0xE JUMPI PUSH0 DUP1 REVERT JUMPDEST POP CALLER PUSH0 DUP1 PUSH2 0x100 EXP DUP2 SLOAD DUP2 PUSH20 0xFFFFFFFFFFFFFFFFFFFFFFFFFFFFFFFFFFFFFFFF MUL NOT AND SWAP1 DUP4 PUSH20 0xFFFFFFFFFFFFFFFFFFFFFFFFFFFFFFFFFFFFFFFF AND MUL OR SWAP1 SSTORE POP PUSH2 0x1B31 DUP1 PUSH2 0x5B PUSH0 CODECOPY PUSH0 RETURN INVALID PUSH1 0x80 PUSH1 0x40 MSTORE CALLVALUE DUP1 ISZERO PUSH2 0xF JUMPI PUSH0 DUP1 REVERT JUMPDEST POP PUSH1 0x4 CALLDATASIZE LT PUSH2 0x86 JUMPI PUSH0 CALLDATALOAD PUSH1 0xE0 SHR DUP1 PUSH4 0x982ABB89 GT PUSH2 0x59 JUMPI DUP1 PUSH4 0x982ABB89 EQ PUSH2 0x126 JUMPI DUP1 PUSH4 0xB12080FA EQ PUSH2 0x144 JUMPI DUP1 PUSH4 0xBC8BC2B4 EQ PUSH2 0x174 JUMPI DUP1 PUSH4 0xE9505164 EQ PUSH2 0x1A6 JUMPI PUSH2 0x86 JUMP JUMPDEST DUP1 PUSH4 0x16B0FAC8 EQ PUSH2 0x8A JUMPI DUP1 PUSH4 0x3380B99F EQ PUSH2 0xA6 JUMPI DUP1 PUSH4 0x3C734648 EQ PUSH2 0xD6 JUMPI DUP1 PUSH4 0x8DA5CB5B EQ PUSH2 0x108 JUMPI JUMPDEST PUSH0 DUP1 REVERT JUMPDEST PUSH2 0xA4 PUSH1 0x4 DUP1 CALLDATASIZE SUB DUP2 ADD SWAP1 PUSH2 0x9F SWAP2 SWAP1 PUSH2 0xEC6 JUMP JUMPDEST PUSH2 0x1D6 JUMP JUMPDEST STOP JUMPDEST PUSH2 0xC0 PUSH1 0x4 DUP1 CALLDATASIZE SUB DUP2 ADD SWAP1 PUSH2 0xBB SWAP2 SWAP1 PUSH2 0x102D JUMP JUMPDEST PUSH2 0x362 JUMP JUMPDEST PUSH1 0x40 MLOAD PUSH2 0xCD SWAP2 SWAP1 PUSH2 0x10BD JUMP JUMPDEST PUSH1 0x40 MLOAD DUP1 SWAP2 SUB SWAP1 RETURN JUMPDEST PUSH2 0xF0 PUSH1 0x4 DUP1 CALLDATASIZE SUB DUP2 ADD SWAP1 PUSH2 0xEB SWAP2 SWAP1 PUSH2 0xEC6 JUMP JUMPDEST PUSH2 0x574 JUMP JUMPDEST PUSH1 0x40 MLOAD PUSH2 0xFF SWAP4 SWAP3 SWAP2 SWAP1 PUSH2 0x11A9 JUMP JUMPDEST PUSH1 0x40 MLOAD DUP1 SWAP2 SUB SWAP1 RETURN JUMPDEST PUSH2 0x110 PUSH2 0x724 JUMP JUMPDEST PUSH1 0x40 MLOAD PUSH2 0x11D SWAP2 SWAP1 PUSH2 0x122B JUMP JUMPDEST PUSH1 0x40 MLOAD DUP1 SWAP2 SUB SWAP1 RETURN JUMPDEST PUSH2 0x12E PUSH2 0x747 JUMP JUMPDEST PUSH1 0x40 MLOAD PUSH2 0x13B SWAP2 SWAP1 PUSH2 0x13AA JUMP JUMPDEST PUSH1 0x40 MLOAD DUP1 SWAP2 SUB SWAP1 RETURN JUMPDEST PUSH2 0x15E PUSH1 0x4 DUP1 CALLDATASIZE SUB DUP2 ADD SWAP1 PUSH2 0x159 SWAP2 SWAP1 PUSH2 0xEC6 JUMP JUMPDEST PUSH2 0x8FC JUMP JUMPDEST PUSH1 0x40 MLOAD PUSH2 0x16B SWAP2 SWAP1 PUSH2 0x10BD JUMP JUMPDEST PUSH1 0x40 MLOAD DUP1 SWAP2 SUB SWAP1 RETURN JUMPDEST PUSH2 0x18E PUSH1 0x4 DUP1 CALLDATASIZE SUB DUP2 ADD SWAP1 PUSH2 0x189 SWAP2 SWAP1 PUSH2 0x13FD JUMP JUMPDEST PUSH2 0xAA1 JUMP JUMPDEST PUSH1 0x40 MLOAD PUSH2 0x19D SWAP4 SWAP3 SWAP2 SWAP1 PUSH2 0x11A9 JUMP JUMPDEST PUSH1 0x40 MLOAD DUP1 SWAP2 SUB SWAP1 RETURN JUMPDEST PUSH2 0x1C0 PUSH1 0x4 DUP1 CALLDATASIZE SUB DUP2 ADD SWAP1 PUSH2 0x1BB SWAP2 SWAP1 PUSH2 0x145E JUMP JUMPDEST PUSH2 0xBEE JUMP JUMPDEST PUSH1 0x40 MLOAD PUSH2 0x1CD SWAP2 SWAP1 PUSH2 0x10BD JUMP JUMPDEST PUSH1 0x40 MLOAD DUP1 SWAP2 SUB SWAP1 RETURN JUMPDEST PUSH1 0x1 DUP1 SLOAD SWAP1 POP DUP2 PUSH2 0xFFFF AND LT PUSH2 0x221 JUMPI PUSH1 0x40 MLOAD PUSH32 0x8C379A000000000000000000000000000000000000000000000000000000000 DUP2 MSTORE PUSH1 0x4 ADD PUSH2 0x218 SWAP1 PUSH2 0x1530 JUMP JUMPDEST PUSH1 0x40 MLOAD DUP1 SWAP2 SUB SWAP1 REVERT JUMPDEST PUSH1 0x1 DUP1 DUP1 DUP1 SLOAD SWAP1 POP PUSH2 0x233 SWAP2 SWAP1 PUSH2 0x157B JUMP JUMPDEST DUP2 SLOAD DUP2 LT PUSH2 0x244 JUMPI PUSH2 0x243 PUSH2 0x15AE JUMP JUMPDEST JUMPDEST SWAP1 PUSH0 MSTORE PUSH1 0x20 PUSH0 KECCAK256 SWAP1 PUSH1 0x3 MUL ADD PUSH1 0x1 DUP3 PUSH2 0xFFFF AND DUP2 SLOAD DUP2 LT PUSH2 0x268 JUMPI PUSH2 0x267 PUSH2 0x15AE JUMP JUMPDEST JUMPDEST SWAP1 PUSH0 MSTORE PUSH1 0x20 PUSH0 KECCAK256 SWAP1 PUSH1 0x3 MUL ADD PUSH0 DUP3 ADD DUP2 PUSH0 ADD SWAP1 DUP2 PUSH2 0x286 SWAP2 SWAP1 PUSH2 0x17EA JUMP JUMPDEST POP PUSH1 0x1 DUP3 ADD DUP2 PUSH1 0x1 ADD SWAP1 DUP2 PUSH2 0x29B SWAP2 SWAP1 PUSH2 0x17EA JUMP JUMPDEST POP PUSH1 0x2 DUP3 ADD PUSH0 SWAP1 SLOAD SWAP1 PUSH2 0x100 EXP SWAP1 DIV PUSH1 0xFF AND DUP2 PUSH1 0x2 ADD PUSH0 PUSH2 0x100 EXP DUP2 SLOAD DUP2 PUSH1 0xFF MUL NOT AND SWAP1 DUP4 PUSH1 0x3 DUP2 GT ISZERO PUSH2 0x2D2 JUMPI PUSH2 0x2D1 PUSH2 0x1136 JUMP JUMPDEST JUMPDEST MUL OR SWAP1 SSTORE POP SWAP1 POP POP PUSH1 0x1 DUP1 SLOAD DUP1 PUSH2 0x2EC JUMPI PUSH2 0x2EB PUSH2 0x18CF JUMP JUMPDEST JUMPDEST PUSH1 0x1 SWAP1 SUB DUP2 DUP2 SWAP1 PUSH0 MSTORE PUSH1 0x20 PUSH0 KECCAK256 SWAP1 PUSH1 0x3 MUL ADD PUSH0 DUP1 DUP3 ADD PUSH0 PUSH2 0x30D SWAP2 SWAP1 PUSH2 0xDF4 JUMP JUMPDEST PUSH1 0x1 DUP3 ADD PUSH0 PUSH2 0x31C SWAP2 SWAP1 PUSH2 0xDF4 JUMP JUMPDEST PUSH1 0x2 DUP3 ADD PUSH0 PUSH2 0x100 EXP DUP2 SLOAD SWAP1 PUSH1 0xFF MUL NOT AND SWAP1 SSTORE POP POP SWAP1 SSTORE PUSH32 0x9218EFB8B01B35364F271F424251D4AC0EE6008FC366226E9C2338BD15EBF616 PUSH1 0x40 MLOAD PUSH1 0x40 MLOAD DUP1 SWAP2 SUB SWAP1 LOG1 POP JUMP JUMPDEST PUSH0 DUP1 PUSH0 SWAP1 SLOAD SWAP1 PUSH2 0x100 EXP SWAP1 DIV PUSH20 0xFFFFFFFFFFFFFFFFFFFFFFFFFFFFFFFFFFFFFFFF AND PUSH20 0xFFFFFFFFFFFFFFFFFFFFFFFFFFFFFFFFFFFFFFFF AND CALLER PUSH20 0xFFFFFFFFFFFFFFFFFFFFFFFFFFFFFFFFFFFFFFFF AND EQ PUSH2 0x3F1 JUMPI PUSH1 0x40 MLOAD PUSH32 0x8C379A000000000000000000000000000000000000000000000000000000000 DUP2 MSTORE PUSH1 0x4 ADD PUSH2 0x3E8 SWAP1 PUSH2 0x1946 JUMP JUMPDEST PUSH1 0x40 MLOAD DUP1 SWAP2 SUB SWAP1 REVERT JUMPDEST PUSH0 PUSH20 0xFFFFFFFFFFFFFFFFFFFFFFFFFFFFFFFFFFFFFFFF AND CALLER PUSH20 0xFFFFFFFFFFFFFFFFFFFFFFFFFFFFFFFFFFFFFFFF AND SUB PUSH2 0x45F JUMPI PUSH1 0x40 MLOAD PUSH32 0x8C379A000000000000000000000000000000000000000000000000000000000 DUP2 MSTORE PUSH1 0x4 ADD PUSH2 0x456 SWAP1 PUSH2 0x19AE JUMP JUMPDEST PUSH1 0x40 MLOAD DUP1 SWAP2 SUB SWAP1 REVERT JUMPDEST PUSH2 0x467 PUSH2 0xE31 JUMP JUMPDEST DUP4 DUP2 PUSH0 ADD DUP2 SWAP1 MSTORE POP DUP3 DUP2 PUSH1 0x20 ADD DUP2 SWAP1 MSTORE POP PUSH1 0x1 DUP2 PUSH1 0x40 ADD SWAP1 PUSH1 0x3 DUP2 GT ISZERO PUSH2 0x491 JUMPI PUSH2 0x490 PUSH2 0x1136 JUMP JUMPDEST JUMPDEST SWAP1 DUP2 PUSH1 0x3 DUP2 GT ISZERO PUSH2 0x4A5 JUMPI PUSH2 0x4A4 PUSH2 0x1136 JUMP JUMPDEST JUMPDEST DUP2 MSTORE POP POP PUSH1 0x1 DUP2 SWAP1 DUP1 PUSH1 0x1 DUP2 SLOAD ADD DUP1 DUP3 SSTORE DUP1 SWAP2 POP POP PUSH1 0x1 SWAP1 SUB SWAP1 PUSH0 MSTORE PUSH1 0x20 PUSH0 KECCAK256 SWAP1 PUSH1 0x3 MUL ADD PUSH0 SWAP1 SWAP2 SWAP1 SWAP2 SWAP1 SWAP2 POP PUSH0 DUP3 ADD MLOAD DUP2 PUSH0 ADD SWAP1 DUP2 PUSH2 0x4E5 SWAP2 SWAP1 PUSH2 0x19CC JUMP JUMPDEST POP PUSH1 0x20 DUP3 ADD MLOAD DUP2 PUSH1 0x1 ADD SWAP1 DUP2 PUSH2 0x4FB SWAP2 SWAP1 PUSH2 0x19CC JUMP JUMPDEST POP PUSH1 0x40 DUP3 ADD MLOAD DUP2 PUSH1 0x2 ADD PUSH0 PUSH2 0x100 EXP DUP2 SLOAD DUP2 PUSH1 0xFF MUL NOT AND SWAP1 DUP4 PUSH1 0x3 DUP2 GT ISZERO PUSH2 0x526 JUMPI PUSH2 0x525 PUSH2 0x1136 JUMP JUMPDEST JUMPDEST MUL OR SWAP1 SSTORE POP POP POP PUSH32 0xA6E50C1CB85FDF7F9E8757E7DCA99802492CE176E820E4D31C97225A83CABD6B DUP5 DUP5 PUSH1 0x1 PUSH1 0x40 MLOAD PUSH2 0x561 SWAP4 SWAP3 SWAP2 SWAP1 PUSH2 0x11A9 JUMP JUMPDEST PUSH1 0x40 MLOAD DUP1 SWAP2 SUB SWAP1 LOG1 PUSH1 0x1 SWAP2 POP POP SWAP3 SWAP2 POP POP JUMP JUMPDEST PUSH1 0x60 DUP1 PUSH0 PUSH1 0x1 DUP1 SLOAD SWAP1 POP DUP5 PUSH2 0xFFFF AND LT PUSH2 0x5C3 JUMPI PUSH1 0x40 MLOAD PUSH32 0x8C379A000000000000000000000000000000000000000000000000000000000 DUP2 MSTORE PUSH1 0x4 ADD PUSH2 0x5BA SWAP1 PUSH2 0x1530 JUMP JUMPDEST PUSH1 0x40 MLOAD DUP1 SWAP2 SUB SWAP1 REVERT JUMPDEST PUSH0 PUSH1 0x1 DUP6 PUSH2 0xFFFF AND DUP2 SLOAD DUP2 LT PUSH2 0x5DC JUMPI PUSH2 0x5DB PUSH2 0x15AE JUMP JUMPDEST JUMPDEST SWAP1 PUSH0 MSTORE PUSH1 0x20 PUSH0 KECCAK256 SWAP1 PUSH1 0x3 MUL ADD SWAP1 POP DUP1 PUSH0 ADD DUP2 PUSH1 0x1 ADD DUP3 PUSH1 0x2 ADD PUSH0 SWAP1 SLOAD SWAP1 PUSH2 0x100 EXP SWAP1 DIV PUSH1 0xFF AND DUP3 DUP1 SLOAD PUSH2 0x60E SWAP1 PUSH2 0x1608 JUMP JUMPDEST DUP1 PUSH1 0x1F ADD PUSH1 0x20 DUP1 SWAP2 DIV MUL PUSH1 0x20 ADD PUSH1 0x40 MLOAD SWAP1 DUP2 ADD PUSH1 0x40 MSTORE DUP1 SWAP3 SWAP2 SWAP1 DUP2 DUP2 MSTORE PUSH1 0x20 ADD DUP3 DUP1 SLOAD PUSH2 0x63A SWAP1 PUSH2 0x1608 JUMP JUMPDEST DUP1 ISZERO PUSH2 0x685 JUMPI DUP1 PUSH1 0x1F LT PUSH2 0x65C JUMPI PUSH2 0x100 DUP1 DUP4 SLOAD DIV MUL DUP4 MSTORE SWAP2 PUSH1 0x20 ADD SWAP2 PUSH2 0x685 JUMP JUMPDEST DUP3 ADD SWAP2 SWAP1 PUSH0 MSTORE PUSH1 0x20 PUSH0 KECCAK256 SWAP1 JUMPDEST DUP2 SLOAD DUP2 MSTORE SWAP1 PUSH1 0x1 ADD SWAP1 PUSH1 0x20 ADD DUP1 DUP4 GT PUSH2 0x668 JUMPI DUP3 SWAP1 SUB PUSH1 0x1F AND DUP3 ADD SWAP2 JUMPDEST POP POP POP POP POP SWAP3 POP DUP2 DUP1 SLOAD PUSH2 0x698 SWAP1 PUSH2 0x1608 JUMP JUMPDEST DUP1 PUSH1 0x1F ADD PUSH1 0x20 DUP1 SWAP2 DIV MUL PUSH1 0x20 ADD PUSH1 0x40 MLOAD SWAP1 DUP2 ADD PUSH1 0x40 MSTORE DUP1 SWAP3 SWAP2 SWAP1 DUP2 DUP2 MSTORE PUSH1 0x20 ADD DUP3 DUP1 SLOAD PUSH2 0x6C4 SWAP1 PUSH2 0x1608 JUMP JUMPDEST DUP1 ISZERO PUSH2 0x70F JUMPI DUP1 PUSH1 0x1F LT PUSH2 0x6E6 JUMPI PUSH2 0x100 DUP1 DUP4 SLOAD DIV MUL DUP4 MSTORE SWAP2 PUSH1 0x20 ADD SWAP2 PUSH2 0x70F JUMP JUMPDEST DUP3 ADD SWAP2 SWAP1 PUSH0 MSTORE PUSH1 0x20 PUSH0 KECCAK256 SWAP1 JUMPDEST DUP2 SLOAD DUP2 MSTORE SWAP1 PUSH1 0x1 ADD SWAP1 PUSH1 0x20 ADD DUP1 DUP4 GT PUSH2 0x6F2 JUMPI DUP3 SWAP1 SUB PUSH1 0x1F AND DUP3 ADD SWAP2 JUMPDEST POP POP POP POP POP SWAP2 POP SWAP4 POP SWAP4 POP SWAP4 POP POP SWAP2 SWAP4 SWAP1 SWAP3 POP JUMP JUMPDEST PUSH0 DUP1 SLOAD SWAP1 PUSH2 0x100 EXP SWAP1 DIV PUSH20 0xFFFFFFFFFFFFFFFFFFFFFFFFFFFFFFFFFFFFFFFF AND DUP2 JUMP JUMPDEST PUSH1 0x60 PUSH1 0x1 DUP1 SLOAD DUP1 PUSH1 0x20 MUL PUSH1 0x20 ADD PUSH1 0x40 MLOAD SWAP1 DUP2 ADD PUSH1 0x40 MSTORE DUP1 SWAP3 SWAP2 SWAP1 DUP2 DUP2 MSTORE PUSH1 0x20 ADD PUSH0 SWAP1 JUMPDEST DUP3 DUP3 LT ISZERO PUSH2 0x8F3 JUMPI DUP4 DUP3 SWAP1 PUSH0 MSTORE PUSH1 0x20 PUSH0 KECCAK256 SWAP1 PUSH1 0x3 MUL ADD PUSH1 0x40 MLOAD DUP1 PUSH1 0x60 ADD PUSH1 0x40 MSTORE SWAP1 DUP2 PUSH0 DUP3 ADD DUP1 SLOAD PUSH2 0x79A SWAP1 PUSH2 0x1608 JUMP JUMPDEST DUP1 PUSH1 0x1F ADD PUSH1 0x20 DUP1 SWAP2 DIV MUL PUSH1 0x20 ADD PUSH1 0x40 MLOAD SWAP1 DUP2 ADD PUSH1 0x40 MSTORE DUP1 SWAP3 SWAP2 SWAP1 DUP2 DUP2 MSTORE PUSH1 0x20 ADD DUP3 DUP1 SLOAD PUSH2 0x7C6 SWAP1 PUSH2 0x1608 JUMP JUMPDEST DUP1 ISZERO PUSH2 0x811 JUMPI DUP1 PUSH1 0x1F LT PUSH2 0x7E8 JUMPI PUSH2 0x100 DUP1 DUP4 SLOAD DIV MUL DUP4 MSTORE SWAP2 PUSH1 0x20 ADD SWAP2 PUSH2 0x811 JUMP JUMPDEST DUP3 ADD SWAP2 SWAP1 PUSH0 MSTORE PUSH1 0x20 PUSH0 KECCAK256 SWAP1 JUMPDEST DUP2 SLOAD DUP2 MSTORE SWAP1 PUSH1 0x1 ADD SWAP1 PUSH1 0x20 ADD DUP1 DUP4 GT PUSH2 0x7F4 JUMPI DUP3 SWAP1 SUB PUSH1 0x1F AND DUP3 ADD SWAP2 JUMPDEST POP POP POP POP POP DUP2 MSTORE PUSH1 0x20 ADD PUSH1 0x1 DUP3 ADD DUP1 SLOAD PUSH2 0x82A SWAP1 PUSH2 0x1608 JUMP JUMPDEST DUP1 PUSH1 0x1F ADD PUSH1 0x20 DUP1 SWAP2 DIV MUL PUSH1 0x20 ADD PUSH1 0x40 MLOAD SWAP1 DUP2 ADD PUSH1 0x40 MSTORE DUP1 SWAP3 SWAP2 SWAP1 DUP2 DUP2 MSTORE PUSH1 0x20 ADD DUP3 DUP1 SLOAD PUSH2 0x856 SWAP1 PUSH2 0x1608 JUMP JUMPDEST DUP1 ISZERO PUSH2 0x8A1 JUMPI DUP1 PUSH1 0x1F LT PUSH2 0x878 JUMPI PUSH2 0x100 DUP1 DUP4 SLOAD DIV MUL DUP4 MSTORE SWAP2 PUSH1 0x20 ADD SWAP2 PUSH2 0x8A1 JUMP JUMPDEST DUP3 ADD SWAP2 SWAP1 PUSH0 MSTORE PUSH1 0x20 PUSH0 KECCAK256 SWAP1 JUMPDEST DUP2 SLOAD DUP2 MSTORE SWAP1 PUSH1 0x1 ADD SWAP1 PUSH1 0x20 ADD DUP1 DUP4 GT PUSH2 0x884 JUMPI DUP3 SWAP1 SUB PUSH1 0x1F AND DUP3 ADD SWAP2 JUMPDEST POP POP POP POP POP DUP2 MSTORE PUSH1 0x20 ADD PUSH1 0x2 DUP3 ADD PUSH0 SWAP1 SLOAD SWAP1 PUSH2 0x100 EXP SWAP1 DIV PUSH1 0xFF AND PUSH1 0x3 DUP2 GT ISZERO PUSH2 0x8CE JUMPI PUSH2 0x8CD PUSH2 0x1136 JUMP JUMPDEST JUMPDEST PUSH1 0x3 DUP2 GT ISZERO PUSH2 0x8E0 JUMPI PUSH2 0x8DF PUSH2 0x1136 JUMP JUMPDEST JUMPDEST DUP2 MSTORE POP POP DUP2 MSTORE PUSH1 0x20 ADD SWAP1 PUSH1 0x1 ADD SWAP1 PUSH2 0x76A JUMP JUMPDEST POP POP POP POP SWAP1 POP SWAP1 JUMP JUMPDEST PUSH0 DUP1 PUSH0 SWAP1 SLOAD SWAP1 PUSH2 0x100 EXP SWAP1 DIV PUSH20 0xFFFFFFFFFFFFFFFFFFFFFFFFFFFFFFFFFFFFFFFF AND PUSH20 0xFFFFFFFFFFFFFFFFFFFFFFFFFFFFFFFFFFFFFFFF AND CALLER PUSH20 0xFFFFFFFFFFFFFFFFFFFFFFFFFFFFFFFFFFFFFFFF AND EQ PUSH2 0x98B JUMPI PUSH1 0x40 MLOAD PUSH32 0x8C379A000000000000000000000000000000000000000000000000000000000 DUP2 MSTORE PUSH1 0x4 ADD PUSH2 0x982 SWAP1 PUSH2 0x1946 JUMP JUMPDEST PUSH1 0x40 MLOAD DUP1 SWAP2 SUB SWAP1 REVERT JUMPDEST PUSH0 PUSH20 0xFFFFFFFFFFFFFFFFFFFFFFFFFFFFFFFFFFFFFFFF AND CALLER PUSH20 0xFFFFFFFFFFFFFFFFFFFFFFFFFFFFFFFFFFFFFFFF AND SUB PUSH2 0x9F9 JUMPI PUSH1 0x40 MLOAD PUSH32 0x8C379A000000000000000000000000000000000000000000000000000000000 DUP2 MSTORE PUSH1 0x4 ADD PUSH2 0x9F0 SWAP1 PUSH2 0x19AE JUMP JUMPDEST PUSH1 0x40 MLOAD DUP1 SWAP2 SUB SWAP1 REVERT JUMPDEST PUSH1 0x1 DUP1 SLOAD SWAP1 POP DUP3 PUSH2 0xFFFF AND LT PUSH2 0xA44 JUMPI PUSH1 0x40 MLOAD PUSH32 0x8C379A000000000000000000000000000000000000000000000000000000000 DUP2 MSTORE PUSH1 0x4 ADD PUSH2 0xA3B SWAP1 PUSH2 0x1530 JUMP JUMPDEST PUSH1 0x40 MLOAD DUP1 SWAP2 SUB SWAP1 REVERT JUMPDEST PUSH0 PUSH1 0x1 DUP4 PUSH2 0xFFFF AND DUP2 SLOAD DUP2 LT PUSH2 0xA5D JUMPI PUSH2 0xA5C PUSH2 0x15AE JUMP JUMPDEST JUMPDEST SWAP1 PUSH0 MSTORE PUSH1 0x20 PUSH0 KECCAK256 SWAP1 PUSH1 0x3 MUL ADD SWAP1 POP PUSH1 0x3 DUP2 PUSH1 0x2 ADD PUSH0 PUSH2 0x100 EXP DUP2 SLOAD DUP2 PUSH1 0xFF MUL NOT AND SWAP1 DUP4 PUSH1 0x3 DUP2 GT ISZERO PUSH2 0xA92 JUMPI PUSH2 0xA91 PUSH2 0x1136 JUMP JUMPDEST JUMPDEST MUL OR SWAP1 SSTORE POP PUSH1 0x1 SWAP2 POP POP SWAP2 SWAP1 POP JUMP JUMPDEST PUSH1 0x1 DUP2 DUP2 SLOAD DUP2 LT PUSH2 0xAB0 JUMPI PUSH0 DUP1 REVERT JUMPDEST SWAP1 PUSH0 MSTORE PUSH1 0x20 PUSH0 KECCAK256 SWAP1 PUSH1 0x3 MUL ADD PUSH0 SWAP2 POP SWAP1 POP DUP1 PUSH0 ADD DUP1 SLOAD PUSH2 0xACF SWAP1 PUSH2 0x1608 JUMP JUMPDEST DUP1 PUSH1 0x1F ADD PUSH1 0x20 DUP1 SWAP2 DIV MUL PUSH1 0x20 ADD PUSH1 0x40 MLOAD SWAP1 DUP2 ADD PUSH1 0x40 MSTORE DUP1 SWAP3 SWAP2 SWAP1 DUP2 DUP2 MSTORE PUSH1 0x20 ADD DUP3 DUP1 SLOAD PUSH2 0xAFB SWAP1 PUSH2 0x1608 JUMP JUMPDEST DUP1 ISZERO PUSH2 0xB46 JUMPI DUP1 PUSH1 0x1F LT PUSH2 0xB1D JUMPI PUSH2 0x100 DUP1 DUP4 SLOAD DIV MUL DUP4 MSTORE SWAP2 PUSH1 0x20 ADD SWAP2 PUSH2 0xB46 JUMP JUMPDEST DUP3 ADD SWAP2 SWAP1 PUSH0 MSTORE PUSH1 0x20 PUSH0 KECCAK256 SWAP1 JUMPDEST DUP2 SLOAD DUP2 MSTORE SWAP1 PUSH1 0x1 ADD SWAP1 PUSH1 0x20 ADD DUP1 DUP4 GT PUSH2 0xB29 JUMPI DUP3 SWAP1 SUB PUSH1 0x1F AND DUP3 ADD SWAP2 JUMPDEST POP POP POP POP POP SWAP1 DUP1 PUSH1 0x1 ADD DUP1 SLOAD PUSH2 0xB5B SWAP1 PUSH2 0x1608 JUMP JUMPDEST DUP1 PUSH1 0x1F ADD PUSH1 0x20 DUP1 SWAP2 DIV MUL PUSH1 0x20 ADD PUSH1 0x40 MLOAD SWAP1 DUP2 ADD PUSH1 0x40 MSTORE DUP1 SWAP3 SWAP2 SWAP1 DUP2 DUP2 MSTORE PUSH1 0x20 ADD DUP3 DUP1 SLOAD PUSH2 0xB87 SWAP1 PUSH2 0x1608 JUMP JUMPDEST DUP1 ISZERO PUSH2 0xBD2 JUMPI DUP1 PUSH1 0x1F LT PUSH2 0xBA9 JUMPI PUSH2 0x100 DUP1 DUP4 SLOAD DIV MUL DUP4 MSTORE SWAP2 PUSH1 0x20 ADD SWAP2 PUSH2 0xBD2 JUMP JUMPDEST DUP3 ADD SWAP2 SWAP1 PUSH0 MSTORE PUSH1 0x20 PUSH0 KECCAK256 SWAP1 JUMPDEST DUP2 SLOAD DUP2 MSTORE SWAP1 PUSH1 0x1 ADD SWAP1 PUSH1 0x20 ADD DUP1 DUP4 GT PUSH2 0xBB5 JUMPI DUP3 SWAP1 SUB PUSH1 0x1F AND DUP3 ADD SWAP2 JUMPDEST POP POP POP POP POP SWAP1 DUP1 PUSH1 0x2 ADD PUSH0 SWAP1 SLOAD SWAP1 PUSH2 0x100 EXP SWAP1 DIV PUSH1 0xFF AND SWAP1 POP DUP4 JUMP JUMPDEST PUSH0 DUP1 PUSH0 SWAP1 SLOAD SWAP1 PUSH2 0x100 EXP SWAP1 DIV PUSH20 0xFFFFFFFFFFFFFFFFFFFFFFFFFFFFFFFFFFFFFFFF AND PUSH20 0xFFFFFFFFFFFFFFFFFFFFFFFFFFFFFFFFFFFFFFFF AND CALLER PUSH20 0xFFFFFFFFFFFFFFFFFFFFFFFFFFFFFFFFFFFFFFFF AND EQ PUSH2 0xC7D JUMPI PUSH1 0x40 MLOAD PUSH32 0x8C379A000000000000000000000000000000000000000000000000000000000 DUP2 MSTORE PUSH1 0x4 ADD PUSH2 0xC74 SWAP1 PUSH2 0x1946 JUMP JUMPDEST PUSH1 0x40 MLOAD DUP1 SWAP2 SUB SWAP1 REVERT JUMPDEST PUSH0 PUSH20 0xFFFFFFFFFFFFFFFFFFFFFFFFFFFFFFFFFFFFFFFF AND CALLER PUSH20 0xFFFFFFFFFFFFFFFFFFFFFFFFFFFFFFFFFFFFFFFF AND SUB PUSH2 0xCEB JUMPI PUSH1 0x40 MLOAD PUSH32 0x8C379A000000000000000000000000000000000000000000000000000000000 DUP2 MSTORE PUSH1 0x4 ADD PUSH2 0xCE2 SWAP1 PUSH2 0x19AE JUMP JUMPDEST PUSH1 0x40 MLOAD DUP1 SWAP2 SUB SWAP1 REVERT JUMPDEST PUSH1 0x1 DUP1 SLOAD SWAP1 POP DUP5 PUSH1 0xFF AND LT PUSH2 0xD35 JUMPI PUSH1 0x40 MLOAD PUSH32 0x8C379A000000000000000000000000000000000000000000000000000000000 DUP2 MSTORE PUSH1 0x4 ADD PUSH2 0xD2C SWAP1 PUSH2 0x1530 JUMP JUMPDEST PUSH1 0x40 MLOAD DUP1 SWAP2 SUB SWAP1 REVERT JUMPDEST PUSH0 PUSH1 0x1 DUP6 PUSH1 0xFF AND DUP2 SLOAD DUP2 LT PUSH2 0xD4D JUMPI PUSH2 0xD4C PUSH2 0x15AE JUMP JUMPDEST JUMPDEST SWAP1 PUSH0 MSTORE PUSH1 0x20 PUSH0 KECCAK256 SWAP1 PUSH1 0x3 MUL ADD SWAP1 POP DUP4 DUP2 PUSH0 ADD SWAP1 DUP2 PUSH2 0xD6B SWAP2 SWAP1 PUSH2 0x19CC JUMP JUMPDEST POP DUP3 DUP2 PUSH1 0x1 ADD SWAP1 DUP2 PUSH2 0xD7D SWAP2 SWAP1 PUSH2 0x19CC JUMP JUMPDEST POP PUSH1 0x2 DUP2 PUSH1 0x2 ADD PUSH0 PUSH2 0x100 EXP DUP2 SLOAD DUP2 PUSH1 0xFF MUL NOT AND SWAP1 DUP4 PUSH1 0x3 DUP2 GT ISZERO PUSH2 0xDA5 JUMPI PUSH2 0xDA4 PUSH2 0x1136 JUMP JUMPDEST JUMPDEST MUL OR SWAP1 SSTORE POP PUSH32 0xEAF396FCAD0364018752E6C4E5ADAD3E2DC3C6FDCFAF795E55DF5BF5D7F7B790 DUP6 DUP6 DUP6 PUSH1 0x2 PUSH1 0x40 MLOAD PUSH2 0xDE0 SWAP5 SWAP4 SWAP3 SWAP2 SWAP1 PUSH2 0x1AAA JUMP JUMPDEST PUSH1 0x40 MLOAD DUP1 SWAP2 SUB SWAP1 LOG1 PUSH1 0x1 SWAP2 POP POP SWAP4 SWAP3 POP POP POP JUMP JUMPDEST POP DUP1 SLOAD PUSH2 0xE00 SWAP1 PUSH2 0x1608 JUMP JUMPDEST PUSH0 DUP3 SSTORE DUP1 PUSH1 0x1F LT PUSH2 0xE11 JUMPI POP PUSH2 0xE2E JUMP JUMPDEST PUSH1 0x1F ADD PUSH1 0x20 SWAP1 DIV SWAP1 PUSH0 MSTORE PUSH1 0x20 PUSH0 KECCAK256 SWAP1 DUP2 ADD SWAP1 PUSH2 0xE2D SWAP2 SWAP1 PUSH2 0xE63 JUMP JUMPDEST JUMPDEST POP JUMP JUMPDEST PUSH1 0x40 MLOAD DUP1 PUSH1 0x60 ADD PUSH1 0x40 MSTORE DUP1 PUSH1 0x60 DUP2 MSTORE PUSH1 0x20 ADD PUSH1 0x60 DUP2 MSTORE PUSH1 0x20 ADD PUSH0 PUSH1 0x3 DUP2 GT ISZERO PUSH2 0xE5D JUMPI PUSH2 0xE5C PUSH2 0x1136 JUMP JUMPDEST JUMPDEST DUP2 MSTORE POP SWAP1 JUMP JUMPDEST JUMPDEST DUP1 DUP3 GT ISZERO PUSH2 0xE7A JUMPI PUSH0 DUP2 PUSH0 SWAP1 SSTORE POP PUSH1 0x1 ADD PUSH2 0xE64 JUMP JUMPDEST POP SWAP1 JUMP JUMPDEST PUSH0 PUSH1 0x40 MLOAD SWAP1 POP SWAP1 JUMP JUMPDEST PUSH0 DUP1 REVERT JUMPDEST PUSH0 DUP1 REVERT JUMPDEST PUSH0 PUSH2 0xFFFF DUP3 AND SWAP1 POP SWAP2 SWAP1 POP JUMP JUMPDEST PUSH2 0xEA5 DUP2 PUSH2 0xE8F JUMP JUMPDEST DUP2 EQ PUSH2 0xEAF JUMPI PUSH0 DUP1 REVERT JUMPDEST POP JUMP JUMPDEST PUSH0 DUP2 CALLDATALOAD SWAP1 POP PUSH2 0xEC0 DUP2 PUSH2 0xE9C JUMP JUMPDEST SWAP3 SWAP2 POP POP JUMP JUMPDEST PUSH0 PUSH1 0x20 DUP3 DUP5 SUB SLT ISZERO PUSH2 0xEDB JUMPI PUSH2 0xEDA PUSH2 0xE87 JUMP JUMPDEST JUMPDEST PUSH0 PUSH2 0xEE8 DUP5 DUP3 DUP6 ADD PUSH2 0xEB2 JUMP JUMPDEST SWAP2 POP POP SWAP3 SWAP2 POP POP JUMP JUMPDEST PUSH0 DUP1 REVERT JUMPDEST PUSH0 DUP1 REVERT JUMPDEST PUSH0 PUSH1 0x1F NOT PUSH1 0x1F DUP4 ADD AND SWAP1 POP SWAP2 SWAP1 POP JUMP JUMPDEST PUSH32 0x4E487B7100000000000000000000000000000000000000000000000000000000 PUSH0 MSTORE PUSH1 0x41 PUSH1 0x4 MSTORE PUSH1 0x24 PUSH0 REVERT JUMPDEST PUSH2 0xF3F DUP3 PUSH2 0xEF9 JUMP JUMPDEST DUP2 ADD DUP2 DUP2 LT PUSH8 0xFFFFFFFFFFFFFFFF DUP3 GT OR ISZERO PUSH2 0xF5E JUMPI PUSH2 0xF5D PUSH2 0xF09 JUMP JUMPDEST JUMPDEST DUP1 PUSH1 0x40 MSTORE POP POP POP JUMP JUMPDEST PUSH0 PUSH2 0xF70 PUSH2 0xE7E JUMP JUMPDEST SWAP1 POP PUSH2 0xF7C DUP3 DUP3 PUSH2 0xF36 JUMP JUMPDEST SWAP2 SWAP1 POP JUMP JUMPDEST PUSH0 PUSH8 0xFFFFFFFFFFFFFFFF DUP3 GT ISZERO PUSH2 0xF9B JUMPI PUSH2 0xF9A PUSH2 0xF09 JUMP JUMPDEST JUMPDEST PUSH2 0xFA4 DUP3 PUSH2 0xEF9 JUMP JUMPDEST SWAP1 POP PUSH1 0x20 DUP2 ADD SWAP1 POP SWAP2 SWAP1 POP JUMP JUMPDEST DUP3 DUP2 DUP4 CALLDATACOPY PUSH0 DUP4 DUP4 ADD MSTORE POP POP POP JUMP JUMPDEST PUSH0 PUSH2 0xFD1 PUSH2 0xFCC DUP5 PUSH2 0xF81 JUMP JUMPDEST PUSH2 0xF67 JUMP JUMPDEST SWAP1 POP DUP3 DUP2 MSTORE PUSH1 0x20 DUP2 ADD DUP5 DUP5 DUP5 ADD GT ISZERO PUSH2 0xFED JUMPI PUSH2 0xFEC PUSH2 0xEF5 JUMP JUMPDEST JUMPDEST PUSH2 0xFF8 DUP5 DUP3 DUP6 PUSH2 0xFB1 JUMP JUMPDEST POP SWAP4 SWAP3 POP POP POP JUMP JUMPDEST PUSH0 DUP3 PUSH1 0x1F DUP4 ADD SLT PUSH2 0x1014 JUMPI PUSH2 0x1013 PUSH2 0xEF1 JUMP JUMPDEST JUMPDEST DUP2 CALLDATALOAD PUSH2 0x1024 DUP5 DUP3 PUSH1 0x20 DUP7 ADD PUSH2 0xFBF JUMP JUMPDEST SWAP2 POP POP SWAP3 SWAP2 POP POP JUMP JUMPDEST PUSH0 DUP1 PUSH1 0x40 DUP4 DUP6 SUB SLT ISZERO PUSH2 0x1043 JUMPI PUSH2 0x1042 PUSH2 0xE87 JUMP JUMPDEST JUMPDEST PUSH0 DUP4 ADD CALLDATALOAD PUSH8 0xFFFFFFFFFFFFFFFF DUP2 GT ISZERO PUSH2 0x1060 JUMPI PUSH2 0x105F PUSH2 0xE8B JUMP JUMPDEST JUMPDEST PUSH2 0x106C DUP6 DUP3 DUP7 ADD PUSH2 0x1000 JUMP JUMPDEST SWAP3 POP POP PUSH1 0x20 DUP4 ADD CALLDATALOAD PUSH8 0xFFFFFFFFFFFFFFFF DUP2 GT ISZERO PUSH2 0x108D JUMPI PUSH2 0x108C PUSH2 0xE8B JUMP JUMPDEST JUMPDEST PUSH2 0x1099 DUP6 DUP3 DUP7 ADD PUSH2 0x1000 JUMP JUMPDEST SWAP2 POP POP SWAP3 POP SWAP3 SWAP1 POP JUMP JUMPDEST PUSH0 DUP2 ISZERO ISZERO SWAP1 POP SWAP2 SWAP1 POP JUMP JUMPDEST PUSH2 0x10B7 DUP2 PUSH2 0x10A3 JUMP JUMPDEST DUP3 MSTORE POP POP JUMP JUMPDEST PUSH0 PUSH1 0x20 DUP3 ADD SWAP1 POP PUSH2 0x10D0 PUSH0 DUP4 ADD DUP5 PUSH2 0x10AE JUMP JUMPDEST SWAP3 SWAP2 POP POP JUMP JUMPDEST PUSH0 DUP2 MLOAD SWAP1 POP SWAP2 SWAP1 POP JUMP JUMPDEST PUSH0 DUP3 DUP3 MSTORE PUSH1 0x20 DUP3 ADD SWAP1 POP SWAP3 SWAP2 POP POP JUMP JUMPDEST DUP3 DUP2 DUP4 MCOPY PUSH0 DUP4 DUP4 ADD MSTORE POP POP POP JUMP JUMPDEST PUSH0 PUSH2 0x1108 DUP3 PUSH2 0x10D6 JUMP JUMPDEST PUSH2 0x1112 DUP2 DUP6 PUSH2 0x10E0 JUMP JUMPDEST SWAP4 POP PUSH2 0x1122 DUP2 DUP6 PUSH1 0x20 DUP7 ADD PUSH2 0x10F0 JUMP JUMPDEST PUSH2 0x112B DUP2 PUSH2 0xEF9 JUMP JUMPDEST DUP5 ADD SWAP2 POP POP SWAP3 SWAP2 POP POP JUMP JUMPDEST PUSH32 0x4E487B7100000000000000000000000000000000000000000000000000000000 PUSH0 MSTORE PUSH1 0x21 PUSH1 0x4 MSTORE PUSH1 0x24 PUSH0 REVERT JUMPDEST PUSH1 0x4 DUP2 LT PUSH2 0x1174 JUMPI PUSH2 0x1173 PUSH2 0x1136 JUMP JUMPDEST JUMPDEST POP JUMP JUMPDEST PUSH0 DUP2 SWAP1 POP PUSH2 0x1184 DUP3 PUSH2 0x1163 JUMP JUMPDEST SWAP2 SWAP1 POP JUMP JUMPDEST PUSH0 PUSH2 0x1193 DUP3 PUSH2 0x1177 JUMP JUMPDEST SWAP1 POP SWAP2 SWAP1 POP JUMP JUMPDEST PUSH2 0x11A3 DUP2 PUSH2 0x1189 JUMP JUMPDEST DUP3 MSTORE POP POP JUMP JUMPDEST PUSH0 PUSH1 0x60 DUP3 ADD SWAP1 POP DUP2 DUP2 SUB PUSH0 DUP4 ADD MSTORE PUSH2 0x11C1 DUP2 DUP7 PUSH2 0x10FE JUMP JUMPDEST SWAP1 POP DUP2 DUP2 SUB PUSH1 0x20 DUP4 ADD MSTORE PUSH2 0x11D5 DUP2 DUP6 PUSH2 0x10FE JUMP JUMPDEST SWAP1 POP PUSH2 0x11E4 PUSH1 0x40 DUP4 ADD DUP5 PUSH2 0x119A JUMP JUMPDEST SWAP5 SWAP4 POP POP POP POP JUMP JUMPDEST PUSH0 PUSH20 0xFFFFFFFFFFFFFFFFFFFFFFFFFFFFFFFFFFFFFFFF DUP3 AND SWAP1 POP SWAP2 SWAP1 POP JUMP JUMPDEST PUSH0 PUSH2 0x1215 DUP3 PUSH2 0x11EC JUMP JUMPDEST SWAP1 POP SWAP2 SWAP1 POP JUMP JUMPDEST PUSH2 0x1225 DUP2 PUSH2 0x120B JUMP JUMPDEST DUP3 MSTORE POP POP JUMP JUMPDEST PUSH0 PUSH1 0x20 DUP3 ADD SWAP1 POP PUSH2 0x123E PUSH0 DUP4 ADD DUP5 PUSH2 0x121C JUMP JUMPDEST SWAP3 SWAP2 POP POP JUMP JUMPDEST PUSH0 DUP2 MLOAD SWAP1 POP SWAP2 SWAP1 POP JUMP JUMPDEST PUSH0 DUP3 DUP3 MSTORE PUSH1 0x20 DUP3 ADD SWAP1 POP SWAP3 SWAP2 POP POP JUMP JUMPDEST PUSH0 DUP2 SWAP1 POP PUSH1 0x20 DUP3 ADD SWAP1 POP SWAP2 SWAP1 POP JUMP JUMPDEST PUSH0 DUP3 DUP3 MSTORE PUSH1 0x20 DUP3 ADD SWAP1 POP SWAP3 SWAP2 POP POP JUMP JUMPDEST PUSH0 PUSH2 0x1287 DUP3 PUSH2 0x10D6 JUMP JUMPDEST PUSH2 0x1291 DUP2 DUP6 PUSH2 0x126D JUMP JUMPDEST SWAP4 POP PUSH2 0x12A1 DUP2 DUP6 PUSH1 0x20 DUP7 ADD PUSH2 0x10F0 JUMP JUMPDEST PUSH2 0x12AA DUP2 PUSH2 0xEF9 JUMP JUMPDEST DUP5 ADD SWAP2 POP POP SWAP3 SWAP2 POP POP JUMP JUMPDEST PUSH2 0x12BE DUP2 PUSH2 0x1189 JUMP JUMPDEST DUP3 MSTORE POP POP JUMP JUMPDEST PUSH0 PUSH1 0x60 DUP4 ADD PUSH0 DUP4 ADD MLOAD DUP5 DUP3 SUB PUSH0 DUP7 ADD MSTORE PUSH2 0x12DE DUP3 DUP3 PUSH2 0x127D JUMP JUMPDEST SWAP2 POP POP PUSH1 0x20 DUP4 ADD MLOAD DUP5 DUP3 SUB PUSH1 0x20 DUP7 ADD MSTORE PUSH2 0x12F8 DUP3 DUP3 PUSH2 0x127D JUMP JUMPDEST SWAP2 POP POP PUSH1 0x40 DUP4 ADD MLOAD PUSH2 0x130D PUSH1 0x40 DUP7 ADD DUP3 PUSH2 0x12B5 JUMP JUMPDEST POP DUP1 SWAP2 POP POP SWAP3 SWAP2 POP POP JUMP JUMPDEST PUSH0 PUSH2 0x1323 DUP4 DUP4 PUSH2 0x12C4 JUMP JUMPDEST SWAP1 POP SWAP3 SWAP2 POP POP JUMP JUMPDEST PUSH0 PUSH1 0x20 DUP3 ADD SWAP1 POP SWAP2 SWAP1 POP JUMP JUMPDEST PUSH0 PUSH2 0x1341 DUP3 PUSH2 0x1244 JUMP JUMPDEST PUSH2 0x134B DUP2 DUP6 PUSH2 0x124E JUMP JUMPDEST SWAP4 POP DUP4 PUSH1 0x20 DUP3 MUL DUP6 ADD PUSH2 0x135D DUP6 PUSH2 0x125E JUMP JUMPDEST DUP1 PUSH0 JUMPDEST DUP6 DUP2 LT ISZERO PUSH2 0x1398 JUMPI DUP5 DUP5 SUB DUP10 MSTORE DUP2 MLOAD PUSH2 0x1379 DUP6 DUP3 PUSH2 0x1318 JUMP JUMPDEST SWAP5 POP PUSH2 0x1384 DUP4 PUSH2 0x132B JUMP JUMPDEST SWAP3 POP PUSH1 0x20 DUP11 ADD SWAP10 POP POP PUSH1 0x1 DUP2 ADD SWAP1 POP PUSH2 0x1360 JUMP JUMPDEST POP DUP3 SWAP8 POP DUP8 SWAP6 POP POP POP POP POP POP SWAP3 SWAP2 POP POP JUMP JUMPDEST PUSH0 PUSH1 0x20 DUP3 ADD SWAP1 POP DUP2 DUP2 SUB PUSH0 DUP4 ADD MSTORE PUSH2 0x13C2 DUP2 DUP5 PUSH2 0x1337 JUMP JUMPDEST SWAP1 POP SWAP3 SWAP2 POP POP JUMP JUMPDEST PUSH0 DUP2 SWAP1 POP SWAP2 SWAP1 POP JUMP JUMPDEST PUSH2 0x13DC DUP2 PUSH2 0x13CA JUMP JUMPDEST DUP2 EQ PUSH2 0x13E6 JUMPI PUSH0 DUP1 REVERT JUMPDEST POP JUMP JUMPDEST PUSH0 DUP2 CALLDATALOAD SWAP1 POP PUSH2 0x13F7 DUP2 PUSH2 0x13D3 JUMP JUMPDEST SWAP3 SWAP2 POP POP JUMP JUMPDEST PUSH0 PUSH1 0x20 DUP3 DUP5 SUB SLT ISZERO PUSH2 0x1412 JUMPI PUSH2 0x1411 PUSH2 0xE87 JUMP JUMPDEST JUMPDEST PUSH0 PUSH2 0x141F DUP5 DUP3 DUP6 ADD PUSH2 0x13E9 JUMP JUMPDEST SWAP2 POP POP SWAP3 SWAP2 POP POP JUMP JUMPDEST PUSH0 PUSH1 0xFF DUP3 AND SWAP1 POP SWAP2 SWAP1 POP JUMP JUMPDEST PUSH2 0x143D DUP2 PUSH2 0x1428 JUMP JUMPDEST DUP2 EQ PUSH2 0x1447 JUMPI PUSH0 DUP1 REVERT JUMPDEST POP JUMP JUMPDEST PUSH0 DUP2 CALLDATALOAD SWAP1 POP PUSH2 0x1458 DUP2 PUSH2 0x1434 JUMP JUMPDEST SWAP3 SWAP2 POP POP JUMP JUMPDEST PUSH0 DUP1 PUSH0 PUSH1 0x60 DUP5 DUP7 SUB SLT ISZERO PUSH2 0x1475 JUMPI PUSH2 0x1474 PUSH2 0xE87 JUMP JUMPDEST JUMPDEST PUSH0 PUSH2 0x1482 DUP7 DUP3 DUP8 ADD PUSH2 0x144A JUMP JUMPDEST SWAP4 POP POP PUSH1 0x20 DUP5 ADD CALLDATALOAD PUSH8 0xFFFFFFFFFFFFFFFF DUP2 GT ISZERO PUSH2 0x14A3 JUMPI PUSH2 0x14A2 PUSH2 0xE8B JUMP JUMPDEST JUMPDEST PUSH2 0x14AF DUP7 DUP3 DUP8 ADD PUSH2 0x1000 JUMP JUMPDEST SWAP3 POP POP PUSH1 0x40 DUP5 ADD CALLDATALOAD PUSH8 0xFFFFFFFFFFFFFFFF DUP2 GT ISZERO PUSH2 0x14D0 JUMPI PUSH2 0x14CF PUSH2 0xE8B JUMP JUMPDEST JUMPDEST PUSH2 0x14DC DUP7 DUP3 DUP8 ADD PUSH2 0x1000 JUMP JUMPDEST SWAP2 POP POP SWAP3 POP SWAP3 POP SWAP3 JUMP JUMPDEST PUSH32 0x496E646578206973204F75745F6F665F626F756E640000000000000000000000 PUSH0 DUP3 ADD MSTORE POP JUMP JUMPDEST PUSH0 PUSH2 0x151A PUSH1 0x15 DUP4 PUSH2 0x10E0 JUMP JUMPDEST SWAP2 POP PUSH2 0x1525 DUP3 PUSH2 0x14E6 JUMP JUMPDEST PUSH1 0x20 DUP3 ADD SWAP1 POP SWAP2 SWAP1 POP JUMP JUMPDEST PUSH0 PUSH1 0x20 DUP3 ADD SWAP1 POP DUP2 DUP2 SUB PUSH0 DUP4 ADD MSTORE PUSH2 0x1547 DUP2 PUSH2 0x150E JUMP JUMPDEST SWAP1 POP SWAP2 SWAP1 POP JUMP JUMPDEST PUSH32 0x4E487B7100000000000000000000000000000000000000000000000000000000 PUSH0 MSTORE PUSH1 0x11 PUSH1 0x4 MSTORE PUSH1 0x24 PUSH0 REVERT JUMPDEST PUSH0 PUSH2 0x1585 DUP3 PUSH2 0x13CA JUMP JUMPDEST SWAP2 POP PUSH2 0x1590 DUP4 PUSH2 0x13CA JUMP JUMPDEST SWAP3 POP DUP3 DUP3 SUB SWAP1 POP DUP2 DUP2 GT ISZERO PUSH2 0x15A8 JUMPI PUSH2 0x15A7 PUSH2 0x154E JUMP JUMPDEST JUMPDEST SWAP3 SWAP2 POP POP JUMP JUMPDEST PUSH32 0x4E487B7100000000000000000000000000000000000000000000000000000000 PUSH0 MSTORE PUSH1 0x32 PUSH1 0x4 MSTORE PUSH1 0x24 PUSH0 REVERT JUMPDEST PUSH32 0x4E487B7100000000000000000000000000000000000000000000000000000000 PUSH0 MSTORE PUSH1 0x22 PUSH1 0x4 MSTORE PUSH1 0x24 PUSH0 REVERT JUMPDEST PUSH0 PUSH1 0x2 DUP3 DIV SWAP1 POP PUSH1 0x1 DUP3 AND DUP1 PUSH2 0x161F JUMPI PUSH1 0x7F DUP3 AND SWAP2 POP JUMPDEST PUSH1 0x20 DUP3 LT DUP2 SUB PUSH2 0x1632 JUMPI PUSH2 0x1631 PUSH2 0x15DB JUMP JUMPDEST JUMPDEST POP SWAP2 SWAP1 POP JUMP JUMPDEST PUSH0 DUP2 SLOAD SWAP1 POP PUSH2 0x1646 DUP2 PUSH2 0x1608 JUMP JUMPDEST SWAP1 POP SWAP2 SWAP1 POP JUMP JUMPDEST PUSH0 DUP2 SWAP1 POP DUP2 PUSH0 MSTORE PUSH1 0x20 PUSH0 KECCAK256 SWAP1 POP SWAP2 SWAP1 POP JUMP JUMPDEST PUSH0 PUSH1 0x20 PUSH1 0x1F DUP4 ADD DIV SWAP1 POP SWAP2 SWAP1 POP JUMP JUMPDEST PUSH0 DUP3 DUP3 SHL SWAP1 POP SWAP3 SWAP2 POP POP JUMP JUMPDEST PUSH0 PUSH1 0x8 DUP4 MUL PUSH2 0x16A9 PUSH32 0xFFFFFFFFFFFFFFFFFFFFFFFFFFFFFFFFFFFFFFFFFFFFFFFFFFFFFFFFFFFFFFFF DUP3 PUSH2 0x166E JUMP JUMPDEST PUSH2 0x16B3 DUP7 DUP4 PUSH2 0x166E JUMP JUMPDEST SWAP6 POP DUP1 NOT DUP5 AND SWAP4 POP DUP1 DUP7 AND DUP5 OR SWAP3 POP POP POP SWAP4 SWAP3 POP POP POP JUMP JUMPDEST PUSH0 DUP2 SWAP1 POP SWAP2 SWAP1 POP JUMP JUMPDEST PUSH0 PUSH2 0x16EE PUSH2 0x16E9 PUSH2 0x16E4 DUP5 PUSH2 0x13CA JUMP JUMPDEST PUSH2 0x16CB JUMP JUMPDEST PUSH2 0x13CA JUMP JUMPDEST SWAP1 POP SWAP2 SWAP1 POP JUMP JUMPDEST PUSH0 DUP2 SWAP1 POP SWAP2 SWAP1 POP JUMP JUMPDEST PUSH2 0x1707 DUP4 PUSH2 0x16D4 JUMP JUMPDEST PUSH2 0x171B PUSH2 0x1713 DUP3 PUSH2 0x16F5 JUMP JUMPDEST DUP5 DUP5 SLOAD PUSH2 0x167A JUMP JUMPDEST DUP3 SSTORE POP POP POP POP JUMP JUMPDEST PUSH0 SWAP1 JUMP JUMPDEST PUSH2 0x172F PUSH2 0x1723 JUMP JUMPDEST PUSH2 0x173A DUP2 DUP5 DUP5 PUSH2 0x16FE JUMP JUMPDEST POP POP POP JUMP JUMPDEST JUMPDEST DUP2 DUP2 LT ISZERO PUSH2 0x175D JUMPI PUSH2 0x1752 PUSH0 DUP3 PUSH2 0x1727 JUMP JUMPDEST PUSH1 0x1 DUP2 ADD SWAP1 POP PUSH2 0x1740 JUMP JUMPDEST POP POP JUMP JUMPDEST PUSH1 0x1F DUP3 GT ISZERO PUSH2 0x17A2 JUMPI PUSH2 0x1773 DUP2 PUSH2 0x164D JUMP JUMPDEST PUSH2 0x177C DUP5 PUSH2 0x165F JUMP JUMPDEST DUP2 ADD PUSH1 0x20 DUP6 LT ISZERO PUSH2 0x178B JUMPI DUP2 SWAP1 POP JUMPDEST PUSH2 0x179F PUSH2 0x1797 DUP6 PUSH2 0x165F JUMP JUMPDEST DUP4 ADD DUP3 PUSH2 0x173F JUMP JUMPDEST POP POP JUMPDEST POP POP POP JUMP JUMPDEST PUSH0 DUP3 DUP3 SHR SWAP1 POP SWAP3 SWAP2 POP POP JUMP JUMPDEST PUSH0 PUSH2 0x17C2 PUSH0 NOT DUP5 PUSH1 0x8 MUL PUSH2 0x17A7 JUMP JUMPDEST NOT DUP1 DUP4 AND SWAP2 POP POP SWAP3 SWAP2 POP POP JUMP JUMPDEST PUSH0 PUSH2 0x17DA DUP4 DUP4 PUSH2 0x17B3 JUMP JUMPDEST SWAP2 POP DUP3 PUSH1 0x2 MUL DUP3 OR SWAP1 POP SWAP3 SWAP2 POP POP JUMP JUMPDEST DUP2 DUP2 SUB PUSH2 0x17F8 JUMPI POP POP PUSH2 0x18CD JUMP JUMPDEST PUSH2 0x1801 DUP3 PUSH2 0x1638 JUMP JUMPDEST PUSH8 0xFFFFFFFFFFFFFFFF DUP2 GT ISZERO PUSH2 0x181A JUMPI PUSH2 0x1819 PUSH2 0xF09 JUMP JUMPDEST JUMPDEST PUSH2 0x1824 DUP3 SLOAD PUSH2 0x1608 JUMP JUMPDEST PUSH2 0x182F DUP3 DUP3 DUP6 PUSH2 0x1761 JUMP JUMPDEST PUSH0 PUSH1 0x1F DUP4 GT PUSH1 0x1 DUP2 EQ PUSH2 0x185C JUMPI PUSH0 DUP5 ISZERO PUSH2 0x184A JUMPI DUP3 DUP8 ADD SLOAD SWAP1 POP JUMPDEST PUSH2 0x1854 DUP6 DUP3 PUSH2 0x17CF JUMP JUMPDEST DUP7 SSTORE POP PUSH2 0x18C6 JUMP JUMPDEST PUSH1 0x1F NOT DUP5 AND PUSH2 0x186A DUP8 PUSH2 0x164D JUMP JUMPDEST SWAP7 POP PUSH2 0x1875 DUP7 PUSH2 0x164D JUMP JUMPDEST PUSH0 JUMPDEST DUP3 DUP2 LT ISZERO PUSH2 0x189C JUMPI DUP5 DUP10 ADD SLOAD DUP3 SSTORE PUSH1 0x1 DUP3 ADD SWAP2 POP PUSH1 0x1 DUP6 ADD SWAP5 POP PUSH1 0x20 DUP2 ADD SWAP1 POP PUSH2 0x1877 JUMP JUMPDEST DUP7 DUP4 LT ISZERO PUSH2 0x18B9 JUMPI DUP5 DUP10 ADD SLOAD PUSH2 0x18B5 PUSH1 0x1F DUP10 AND DUP3 PUSH2 0x17B3 JUMP JUMPDEST DUP4 SSTORE POP JUMPDEST PUSH1 0x1 PUSH1 0x2 DUP9 MUL ADD DUP9 SSTORE POP POP POP JUMPDEST POP POP POP POP POP POP JUMPDEST JUMP JUMPDEST PUSH32 0x4E487B7100000000000000000000000000000000000000000000000000000000 PUSH0 MSTORE PUSH1 0x31 PUSH1 0x4 MSTORE PUSH1 0x24 PUSH0 REVERT JUMPDEST PUSH32 0x596F75277265206E6F7420616C6C6F7765640000000000000000000000000000 PUSH0 DUP3 ADD MSTORE POP JUMP JUMPDEST PUSH0 PUSH2 0x1930 PUSH1 0x12 DUP4 PUSH2 0x10E0 JUMP JUMPDEST SWAP2 POP PUSH2 0x193B DUP3 PUSH2 0x18FC JUMP JUMPDEST PUSH1 0x20 DUP3 ADD SWAP1 POP SWAP2 SWAP1 POP JUMP JUMPDEST PUSH0 PUSH1 0x20 DUP3 ADD SWAP1 POP DUP2 DUP2 SUB PUSH0 DUP4 ADD MSTORE PUSH2 0x195D DUP2 PUSH2 0x1924 JUMP JUMPDEST SWAP1 POP SWAP2 SWAP1 POP JUMP JUMPDEST PUSH32 0x5A65726F2041646472657373206E6F7420616C6C6F7765640000000000000000 PUSH0 DUP3 ADD MSTORE POP JUMP JUMPDEST PUSH0 PUSH2 0x1998 PUSH1 0x18 DUP4 PUSH2 0x10E0 JUMP JUMPDEST SWAP2 POP PUSH2 0x19A3 DUP3 PUSH2 0x1964 JUMP JUMPDEST PUSH1 0x20 DUP3 ADD SWAP1 POP SWAP2 SWAP1 POP JUMP JUMPDEST PUSH0 PUSH1 0x20 DUP3 ADD SWAP1 POP DUP2 DUP2 SUB PUSH0 DUP4 ADD MSTORE PUSH2 0x19C5 DUP2 PUSH2 0x198C JUMP JUMPDEST SWAP1 POP SWAP2 SWAP1 POP JUMP JUMPDEST PUSH2 0x19D5 DUP3 PUSH2 0x10D6 JUMP JUMPDEST PUSH8 0xFFFFFFFFFFFFFFFF DUP2 GT ISZERO PUSH2 0x19EE JUMPI PUSH2 0x19ED PUSH2 0xF09 JUMP JUMPDEST JUMPDEST PUSH2 0x19F8 DUP3 SLOAD PUSH2 0x1608 JUMP JUMPDEST PUSH2 0x1A03 DUP3 DUP3 DUP6 PUSH2 0x1761 JUMP JUMPDEST PUSH0 PUSH1 0x20 SWAP1 POP PUSH1 0x1F DUP4 GT PUSH1 0x1 DUP2 EQ PUSH2 0x1A34 JUMPI PUSH0 DUP5 ISZERO PUSH2 0x1A22 JUMPI DUP3 DUP8 ADD MLOAD SWAP1 POP JUMPDEST PUSH2 0x1A2C DUP6 DUP3 PUSH2 0x17CF JUMP JUMPDEST DUP7 SSTORE POP PUSH2 0x1A93 JUMP JUMPDEST PUSH1 0x1F NOT DUP5 AND PUSH2 0x1A42 DUP7 PUSH2 0x164D JUMP JUMPDEST PUSH0 JUMPDEST DUP3 DUP2 LT ISZERO PUSH2 0x1A69 JUMPI DUP5 DUP10 ADD MLOAD DUP3 SSTORE PUSH1 0x1 DUP3 ADD SWAP2 POP PUSH1 0x20 DUP6 ADD SWAP5 POP PUSH1 0x20 DUP2 ADD SWAP1 POP PUSH2 0x1A44 JUMP JUMPDEST DUP7 DUP4 LT ISZERO PUSH2 0x1A86 JUMPI DUP5 DUP10 ADD MLOAD PUSH2 0x1A82 PUSH1 0x1F DUP10 AND DUP3 PUSH2 0x17B3 JUMP JUMPDEST DUP4 SSTORE POP JUMPDEST PUSH1 0x1 PUSH1 0x2 DUP9 MUL ADD DUP9 SSTORE POP POP POP JUMPDEST POP POP POP POP POP POP JUMP JUMPDEST PUSH2 0x1AA4 DUP2 PUSH2 0x1428 JUMP JUMPDEST DUP3 MSTORE POP POP JUMP JUMPDEST PUSH0 PUSH1 0x80 DUP3 ADD SWAP1 POP PUSH2 0x1ABD PUSH0 DUP4 ADD DUP8 PUSH2 0x1A9B JUMP JUMPDEST DUP2 DUP2 SUB PUSH1 0x20 DUP4 ADD MSTORE PUSH2 0x1ACF DUP2 DUP7 PUSH2 0x10FE JUMP JUMPDEST SWAP1 POP DUP2 DUP2 SUB PUSH1 0x40 DUP4 ADD MSTORE PUSH2 0x1AE3 DUP2 DUP6 PUSH2 0x10FE JUMP JUMPDEST SWAP1 POP PUSH2 0x1AF2 PUSH1 0x60 DUP4 ADD DUP5 PUSH2 0x119A JUMP JUMPDEST SWAP6 SWAP5 POP POP POP POP POP JUMP INVALID LOG2 PUSH5 0x6970667358 0x22 SLT KECCAK256 0xA5 CALL 0xC2 GASLIMIT PUSH26 0xF2AAA14E65F94B83714CA7D2E2D02DE1539F2D054E7FABCA146C MUL PUSH5 0x736F6C6343 STOP ADDMOD BYTE STOP CALLER "
				},
				"gasEstimates": {
					"creation": {
						"codeDepositCost": "1392200",
						"executionCost": "25714",
						"totalCost": "1417914"
					},
					"external": {
						"createTodo(string,string)": "infinite",
						"deleteTodo(uint16)": "infinite",
						"getAllTodo()": "infinite",
						"getTodo(uint16)": "infinite",
						"owner()": "2572",
						"todoComplete(uint16)": "31465",
						"todos(uint256)": "infinite",
						"updateTodo(uint8,string,string)": "infinite"
					}
				},
				"methodIdentifiers": {
					"createTodo(string,string)": "3380b99f",
					"deleteTodo(uint16)": "16b0fac8",
					"getAllTodo()": "982abb89",
					"getTodo(uint16)": "3c734648",
					"owner()": "8da5cb5b",
					"todoComplete(uint16)": "b12080fa",
					"todos(uint256)": "bc8bc2b4",
					"updateTodo(uint8,string,string)": "e9505164"
				}
			},
			"storageLayout": {
				"storage": [
					{
						"astId": 3,
						"contract": "contracts/Todo.sol:TodoList",
						"label": "owner",
						"offset": 0,
						"slot": "0",
						"type": "t_address"
					},
					{
						"astId": 20,
						"contract": "contracts/Todo.sol:TodoList",
						"label": "todos",
						"offset": 0,
						"slot": "1",
						"type": "t_array(t_struct(Todo)16_storage)dyn_storage"
					}
				],
				"types": {
					"t_address": {
						"encoding": "inplace",
						"label": "address",
						"numberOfBytes": "20"
					},
					"t_array(t_struct(Todo)16_storage)dyn_storage": {
						"base": "t_struct(Todo)16_storage",
						"encoding": "dynamic_array",
						"label": "struct TodoList.Todo[]",
						"numberOfBytes": "32"
					},
					"t_enum(Status)8": {
						"encoding": "inplace",
						"label": "enum TodoList.Status",
						"numberOfBytes": "1"
					},
					"t_string_storage": {
						"encoding": "bytes",
						"label": "string",
						"numberOfBytes": "32"
					},
					"t_struct(Todo)16_storage": {
						"encoding": "inplace",
						"label": "struct TodoList.Todo",
						"members": [
							{
								"astId": 10,
								"contract": "contracts/Todo.sol:TodoList",
								"label": "title",
								"offset": 0,
								"slot": "0",
								"type": "t_string_storage"
							},
							{
								"astId": 12,
								"contract": "contracts/Todo.sol:TodoList",
								"label": "description",
								"offset": 0,
								"slot": "1",
								"type": "t_string_storage"
							},
							{
								"astId": 15,
								"contract": "contracts/Todo.sol:TodoList",
								"label": "status",
								"offset": 0,
								"slot": "2",
								"type": "t_enum(Status)8"
							}
						],
						"numberOfBytes": "96"
					}
				}
			},
			"userdoc": {
				"kind": "user",
				"methods": {},
				"version": 1
			}
		}
	}
}