{
	"contracts/Chicken.sol": {
		"VictoriaIslandStore": {
			"abi": [
				{
					"inputs": [],
					"name": "burgerPrice",
					"outputs": [
						{
							"internalType": "uint256",
							"name": "",
							"type": "uint256"
						}
					],
					"stateMutability": "view",
					"type": "function"
				},
				{
					"inputs": [],
					"name": "getIkoroduPrices",
					"outputs": [
						{
							"internalType": "uint256",
							"name": "",
							"type": "uint256"
						},
						{
							"internalType": "uint256",
							"name": "",
							"type": "uint256"
						},
						{
							"internalType": "uint256",
							"name": "",
							"type": "uint256"
						},
						{
							"internalType": "uint256",
							"name": "",
							"type": "uint256"
						}
					],
					"stateMutability": "view",
					"type": "function"
				},
				{
					"inputs": [],
					"name": "getMainlandPrices",
					"outputs": [
						{
							"internalType": "uint256",
							"name": "",
							"type": "uint256"
						},
						{
							"internalType": "uint256",
							"name": "",
							"type": "uint256"
						},
						{
							"internalType": "uint256",
							"name": "",
							"type": "uint256"
						},
						{
							"internalType": "uint256",
							"name": "",
							"type": "uint256"
						}
					],
					"stateMutability": "view",
					"type": "function"
				},
				{
					"inputs": [],
					"name": "getPrices",
					"outputs": [
						{
							"internalType": "uint256",
							"name": "",
							"type": "uint256"
						},
						{
							"internalType": "uint256",
							"name": "",
							"type": "uint256"
						},
						{
							"internalType": "uint256",
							"name": "",
							"type": "uint256"
						},
						{
							"internalType": "uint256",
							"name": "",
							"type": "uint256"
						}
					],
					"stateMutability": "view",
					"type": "function"
				},
				{
					"inputs": [],
					"name": "plateOfRicePrice",
					"outputs": [
						{
							"internalType": "uint256",
							"name": "",
							"type": "uint256"
						}
					],
					"stateMutability": "view",
					"type": "function"
				},
				{
					"inputs": [],
					"name": "sharwamaPrice",
					"outputs": [
						{
							"internalType": "uint256",
							"name": "",
							"type": "uint256"
						}
					],
					"stateMutability": "view",
					"type": "function"
				},
				{
					"inputs": [],
					"name": "tableWaterPrice",
					"outputs": [
						{
							"internalType": "uint256",
							"name": "",
							"type": "uint256"
						}
					],
					"stateMutability": "view",
					"type": "function"
				}
			],
			"devdoc": {
				"kind": "dev",
				"methods": {},
				"version": 1
			},
			"evm": {
				"assembly": "    /* \"contracts/Chicken.sol\":1258:1877  contract VictoriaIslandStore is BaseStore, IkoroduStore, MainlandStore {... */\n  mstore(0x40, 0x80)\n    /* \"contracts/Chicken.sol\":118:121  100 */\n  0x64\n    /* \"contracts/Chicken.sol\":87:121  uint public plateOfRicePrice = 100 */\n  0x00\n  sstore\n    /* \"contracts/Chicken.sol\":158:160  50 */\n  0x32\n    /* \"contracts/Chicken.sol\":128:160  uint public tableWaterPrice = 50 */\n  0x01\n  sstore\n    /* \"contracts/Chicken.sol\":193:196  200 */\n  0xc8\n    /* \"contracts/Chicken.sol\":167:196  uint public burgerPrice = 200 */\n  0x02\n  sstore\n    /* \"contracts/Chicken.sol\":231:234  300 */\n  0x012c\n    /* \"contracts/Chicken.sol\":203:234  uint public sharwamaPrice = 300 */\n  0x03\n  sstore\n    /* \"contracts/Chicken.sol\":1258:1877  contract VictoriaIslandStore is BaseStore, IkoroduStore, MainlandStore {... */\n  callvalue\n  dup1\n  iszero\n  tag_1\n  jumpi\n  revert(0x00, 0x00)\ntag_1:\n  pop\n  dataSize(sub_0)\n  dup1\n  dataOffset(sub_0)\n  0x00\n  codecopy\n  0x00\n  return\nstop\n\nsub_0: assembly {\n        /* \"contracts/Chicken.sol\":1258:1877  contract VictoriaIslandStore is BaseStore, IkoroduStore, MainlandStore {... */\n      mstore(0x40, 0x80)\n      callvalue\n      dup1\n      iszero\n      tag_1\n      jumpi\n      revert(0x00, 0x00)\n    tag_1:\n      pop\n      jumpi(tag_2, lt(calldatasize, 0x04))\n      shr(0xe0, calldataload(0x00))\n      dup1\n      0xbd9a548b\n      gt\n      tag_10\n      jumpi\n      dup1\n      0xbd9a548b\n      eq\n      tag_6\n      jumpi\n      dup1\n      0xdef0506d\n      eq\n      tag_7\n      jumpi\n      dup1\n      0xe01bce84\n      eq\n      tag_8\n      jumpi\n      dup1\n      0xf9da8b9a\n      eq\n      tag_9\n      jumpi\n      jump(tag_2)\n    tag_10:\n      dup1\n      0x0e879d26\n      eq\n      tag_3\n      jumpi\n      dup1\n      0x3323f429\n      eq\n      tag_4\n      jumpi\n      dup1\n      0xa6c5e57c\n      eq\n      tag_5\n      jumpi\n    tag_2:\n      revert(0x00, 0x00)\n        /* \"contracts/Chicken.sol\":1126:1251  function getIkoroduPrices() public view virtual  returns (uint, uint, uint, uint) {... */\n    tag_3:\n      tag_11\n      tag_12\n      jump\t// in\n    tag_11:\n      mload(0x40)\n      tag_13\n      swap5\n      swap4\n      swap3\n      swap2\n      swap1\n      tag_14\n      jump\t// in\n    tag_13:\n      mload(0x40)\n      dup1\n      swap2\n      sub\n      swap1\n      return\n        /* \"contracts/Chicken.sol\":203:234  uint public sharwamaPrice = 300 */\n    tag_4:\n      tag_15\n      tag_16\n      jump\t// in\n    tag_15:\n      mload(0x40)\n      tag_17\n      swap2\n      swap1\n      tag_18\n      jump\t// in\n    tag_17:\n      mload(0x40)\n      dup1\n      swap2\n      sub\n      swap1\n      return\n        /* \"contracts/Chicken.sol\":1748:1874  function getMainlandPrices() public view virtual  returns (uint, uint, uint, uint) {... */\n    tag_5:\n      tag_19\n      tag_20\n      jump\t// in\n    tag_19:\n      mload(0x40)\n      tag_21\n      swap5\n      swap4\n      swap3\n      swap2\n      swap1\n      tag_14\n      jump\t// in\n    tag_21:\n      mload(0x40)\n      dup1\n      swap2\n      sub\n      swap1\n      return\n        /* \"contracts/Chicken.sol\":1338:1740  function getPrices() public view override (BaseStore, IkoroduStore, MainlandStore) returns (uint, uint, uint, uint) {... */\n    tag_6:\n      tag_22\n      tag_23\n      jump\t// in\n    tag_22:\n      mload(0x40)\n      tag_24\n      swap5\n      swap4\n      swap3\n      swap2\n      swap1\n      tag_14\n      jump\t// in\n    tag_24:\n      mload(0x40)\n      dup1\n      swap2\n      sub\n      swap1\n      return\n        /* \"contracts/Chicken.sol\":128:160  uint public tableWaterPrice = 50 */\n    tag_7:\n      tag_25\n      tag_26\n      jump\t// in\n    tag_25:\n      mload(0x40)\n      tag_27\n      swap2\n      swap1\n      tag_18\n      jump\t// in\n    tag_27:\n      mload(0x40)\n      dup1\n      swap2\n      sub\n      swap1\n      return\n        /* \"contracts/Chicken.sol\":167:196  uint public burgerPrice = 200 */\n    tag_8:\n      tag_28\n      tag_29\n      jump\t// in\n    tag_28:\n      mload(0x40)\n      tag_30\n      swap2\n      swap1\n      tag_18\n      jump\t// in\n    tag_30:\n      mload(0x40)\n      dup1\n      swap2\n      sub\n      swap1\n      return\n        /* \"contracts/Chicken.sol\":87:121  uint public plateOfRicePrice = 100 */\n    tag_9:\n      tag_31\n      tag_32\n      jump\t// in\n    tag_31:\n      mload(0x40)\n      tag_33\n      swap2\n      swap1\n      tag_18\n      jump\t// in\n    tag_33:\n      mload(0x40)\n      dup1\n      swap2\n      sub\n      swap1\n      return\n        /* \"contracts/Chicken.sol\":1126:1251  function getIkoroduPrices() public view virtual  returns (uint, uint, uint, uint) {... */\n    tag_12:\n        /* \"contracts/Chicken.sol\":1184:1188  uint */\n      0x00\n        /* \"contracts/Chicken.sol\":1190:1194  uint */\n      0x00\n        /* \"contracts/Chicken.sol\":1196:1200  uint */\n      0x00\n        /* \"contracts/Chicken.sol\":1202:1206  uint */\n      0x00\n        /* \"contracts/Chicken.sol\":1226:1243  super.getPrices() */\n      tag_35\n        /* \"contracts/Chicken.sol\":1226:1241  super.getPrices */\n      tag_36\n        /* \"contracts/Chicken.sol\":1226:1243  super.getPrices() */\n      jump\t// in\n    tag_35:\n        /* \"contracts/Chicken.sol\":1219:1243  return super.getPrices() */\n      swap4\n      pop\n      swap4\n      pop\n      swap4\n      pop\n      swap4\n      pop\n        /* \"contracts/Chicken.sol\":1126:1251  function getIkoroduPrices() public view virtual  returns (uint, uint, uint, uint) {... */\n      swap1\n      swap2\n      swap3\n      swap4\n      jump\t// out\n        /* \"contracts/Chicken.sol\":203:234  uint public sharwamaPrice = 300 */\n    tag_16:\n      sload(0x03)\n      dup2\n      jump\t// out\n        /* \"contracts/Chicken.sol\":1748:1874  function getMainlandPrices() public view virtual  returns (uint, uint, uint, uint) {... */\n    tag_20:\n        /* \"contracts/Chicken.sol\":1807:1811  uint */\n      0x00\n        /* \"contracts/Chicken.sol\":1813:1817  uint */\n      0x00\n        /* \"contracts/Chicken.sol\":1819:1823  uint */\n      0x00\n        /* \"contracts/Chicken.sol\":1825:1829  uint */\n      0x00\n        /* \"contracts/Chicken.sol\":1849:1866  super.getPrices() */\n      tag_38\n        /* \"contracts/Chicken.sol\":1849:1864  super.getPrices */\n      tag_39\n        /* \"contracts/Chicken.sol\":1849:1866  super.getPrices() */\n      jump\t// in\n    tag_38:\n        /* \"contracts/Chicken.sol\":1842:1866  return super.getPrices() */\n      swap4\n      pop\n      swap4\n      pop\n      swap4\n      pop\n      swap4\n      pop\n        /* \"contracts/Chicken.sol\":1748:1874  function getMainlandPrices() public view virtual  returns (uint, uint, uint, uint) {... */\n      swap1\n      swap2\n      swap3\n      swap4\n      jump\t// out\n        /* \"contracts/Chicken.sol\":1338:1740  function getPrices() public view override (BaseStore, IkoroduStore, MainlandStore) returns (uint, uint, uint, uint) {... */\n    tag_23:\n        /* \"contracts/Chicken.sol\":1430:1434  uint */\n      0x00\n        /* \"contracts/Chicken.sol\":1436:1440  uint */\n      0x00\n        /* \"contracts/Chicken.sol\":1442:1446  uint */\n      0x00\n        /* \"contracts/Chicken.sol\":1448:1452  uint */\n      0x00\n        /* \"contracts/Chicken.sol\":1468:1482  uint ricePrice */\n      0x00\n        /* \"contracts/Chicken.sol\":1484:1499  uint waterPrice */\n      0x00\n        /* \"contracts/Chicken.sol\":1501:1517  uint burgerPrice */\n      0x00\n        /* \"contracts/Chicken.sol\":1519:1537  uint sharwamaPrice */\n      0x00\n        /* \"contracts/Chicken.sol\":1541:1566  MainlandStore.getPrices() */\n      tag_41\n        /* \"contracts/Chicken.sol\":1541:1564  MainlandStore.getPrices */\n      tag_39\n        /* \"contracts/Chicken.sol\":1541:1566  MainlandStore.getPrices() */\n      jump\t// in\n    tag_41:\n        /* \"contracts/Chicken.sol\":1467:1566  (uint ricePrice, uint waterPrice, uint burgerPrice, uint sharwamaPrice) = MainlandStore.getPrices() */\n      swap4\n      pop\n      swap4\n      pop\n      swap4\n      pop\n      swap4\n      pop\n        /* \"contracts/Chicken.sol\":1622:1624  25 */\n      0x19\n        /* \"contracts/Chicken.sol\":1609:1624  ricePrice *= 25 */\n      dup5\n      tag_42\n      swap2\n      swap1\n      tag_43\n      jump\t// in\n    tag_42:\n      swap4\n      pop\n      dup4\n        /* \"contracts/Chicken.sol\":1653:1655  25 */\n      0x19\n        /* \"contracts/Chicken.sol\":1639:1655  waterPrice *= 25 */\n      dup5\n      tag_44\n      swap2\n      swap1\n      tag_43\n      jump\t// in\n    tag_44:\n      swap4\n      pop\n      dup4\n        /* \"contracts/Chicken.sol\":1685:1687  25 */\n      0x19\n        /* \"contracts/Chicken.sol\":1670:1687  burgerPrice *= 25 */\n      dup5\n      tag_45\n      swap2\n      swap1\n      tag_43\n      jump\t// in\n    tag_45:\n      swap4\n      pop\n      dup4\n        /* \"contracts/Chicken.sol\":1719:1721  25 */\n      0x19\n        /* \"contracts/Chicken.sol\":1702:1721  sharwamaPrice *= 25 */\n      dup5\n      tag_46\n      swap2\n      swap1\n      tag_43\n      jump\t// in\n    tag_46:\n      swap4\n      pop\n      dup4\n        /* \"contracts/Chicken.sol\":1587:1732  return (... */\n      swap8\n      pop\n      swap8\n      pop\n      swap8\n      pop\n      swap8\n      pop\n      pop\n      pop\n      pop\n      pop\n        /* \"contracts/Chicken.sol\":1338:1740  function getPrices() public view override (BaseStore, IkoroduStore, MainlandStore) returns (uint, uint, uint, uint) {... */\n      swap1\n      swap2\n      swap3\n      swap4\n      jump\t// out\n        /* \"contracts/Chicken.sol\":128:160  uint public tableWaterPrice = 50 */\n    tag_26:\n      sload(0x01)\n      dup2\n      jump\t// out\n        /* \"contracts/Chicken.sol\":167:196  uint public burgerPrice = 200 */\n    tag_29:\n      sload(0x02)\n      dup2\n      jump\t// out\n        /* \"contracts/Chicken.sol\":87:121  uint public plateOfRicePrice = 100 */\n    tag_32:\n      sload(0x00)\n      dup2\n      jump\t// out\n        /* \"contracts/Chicken.sol\":521:776  function getPrices() public view virtual override returns (uint, uint, uint, uint) {... */\n    tag_36:\n        /* \"contracts/Chicken.sol\":580:584  uint */\n      0x00\n        /* \"contracts/Chicken.sol\":586:590  uint */\n      0x00\n        /* \"contracts/Chicken.sol\":592:596  uint */\n      0x00\n        /* \"contracts/Chicken.sol\":598:602  uint */\n      0x00\n        /* \"contracts/Chicken.sol\":656:658  10 */\n      0x0a\n        /* \"contracts/Chicken.sol\":637:653  plateOfRicePrice */\n      sload(0x00)\n        /* \"contracts/Chicken.sol\":637:658  plateOfRicePrice * 10 */\n      tag_48\n      swap2\n      swap1\n      tag_43\n      jump\t// in\n    tag_48:\n        /* \"contracts/Chicken.sol\":691:693  10 */\n      0x0a\n        /* \"contracts/Chicken.sol\":673:688  tableWaterPrice */\n      sload(0x01)\n        /* \"contracts/Chicken.sol\":673:693  tableWaterPrice * 10 */\n      tag_49\n      swap2\n      swap1\n      tag_43\n      jump\t// in\n    tag_49:\n        /* \"contracts/Chicken.sol\":722:724  10 */\n      0x0a\n        /* \"contracts/Chicken.sol\":708:719  burgerPrice */\n      sload(0x02)\n        /* \"contracts/Chicken.sol\":708:724  burgerPrice * 10 */\n      tag_50\n      swap2\n      swap1\n      tag_43\n      jump\t// in\n    tag_50:\n        /* \"contracts/Chicken.sol\":755:757  10 */\n      0x0a\n        /* \"contracts/Chicken.sol\":739:752  sharwamaPrice */\n      sload(0x03)\n        /* \"contracts/Chicken.sol\":739:757  sharwamaPrice * 10 */\n      tag_51\n      swap2\n      swap1\n      tag_43\n      jump\t// in\n    tag_51:\n        /* \"contracts/Chicken.sol\":615:768  return (... */\n      swap4\n      pop\n      swap4\n      pop\n      swap4\n      pop\n      swap4\n      pop\n        /* \"contracts/Chicken.sol\":521:776  function getPrices() public view virtual override returns (uint, uint, uint, uint) {... */\n      swap1\n      swap2\n      swap3\n      swap4\n      jump\t// out\n        /* \"contracts/Chicken.sol\":840:1120  function getPrices() public view virtual override(BaseStore, IkoroduStore) returns (uint, uint, uint, uint) {... */\n    tag_39:\n        /* \"contracts/Chicken.sol\":924:928  uint */\n      0x00\n        /* \"contracts/Chicken.sol\":930:934  uint */\n      0x00\n        /* \"contracts/Chicken.sol\":936:940  uint */\n      0x00\n        /* \"contracts/Chicken.sol\":942:946  uint */\n      0x00\n        /* \"contracts/Chicken.sol\":1000:1002  15 */\n      0x0f\n        /* \"contracts/Chicken.sol\":981:997  plateOfRicePrice */\n      sload(0x00)\n        /* \"contracts/Chicken.sol\":981:1002  plateOfRicePrice * 15 */\n      tag_53\n      swap2\n      swap1\n      tag_43\n      jump\t// in\n    tag_53:\n        /* \"contracts/Chicken.sol\":1035:1037  15 */\n      0x0f\n        /* \"contracts/Chicken.sol\":1017:1032  tableWaterPrice */\n      sload(0x01)\n        /* \"contracts/Chicken.sol\":1017:1037  tableWaterPrice * 15 */\n      tag_54\n      swap2\n      swap1\n      tag_43\n      jump\t// in\n    tag_54:\n        /* \"contracts/Chicken.sol\":1066:1068  15 */\n      0x0f\n        /* \"contracts/Chicken.sol\":1052:1063  burgerPrice */\n      sload(0x02)\n        /* \"contracts/Chicken.sol\":1052:1068  burgerPrice * 15 */\n      tag_55\n      swap2\n      swap1\n      tag_43\n      jump\t// in\n    tag_55:\n        /* \"contracts/Chicken.sol\":1099:1101  15 */\n      0x0f\n        /* \"contracts/Chicken.sol\":1083:1096  sharwamaPrice */\n      sload(0x03)\n        /* \"contracts/Chicken.sol\":1083:1101  sharwamaPrice * 15 */\n      tag_56\n      swap2\n      swap1\n      tag_43\n      jump\t// in\n    tag_56:\n        /* \"contracts/Chicken.sol\":959:1112  return (... */\n      swap4\n      pop\n      swap4\n      pop\n      swap4\n      pop\n      swap4\n      pop\n        /* \"contracts/Chicken.sol\":840:1120  function getPrices() public view virtual override(BaseStore, IkoroduStore) returns (uint, uint, uint, uint) {... */\n      swap1\n      swap2\n      swap3\n      swap4\n      jump\t// out\n        /* \"#utility.yul\":7:84   */\n    tag_57:\n        /* \"#utility.yul\":44:51   */\n      0x00\n        /* \"#utility.yul\":73:78   */\n      dup2\n        /* \"#utility.yul\":62:78   */\n      swap1\n      pop\n        /* \"#utility.yul\":7:84   */\n      swap2\n      swap1\n      pop\n      jump\t// out\n        /* \"#utility.yul\":90:208   */\n    tag_58:\n        /* \"#utility.yul\":177:201   */\n      tag_63\n        /* \"#utility.yul\":195:200   */\n      dup2\n        /* \"#utility.yul\":177:201   */\n      tag_57\n      jump\t// in\n    tag_63:\n        /* \"#utility.yul\":172:175   */\n      dup3\n        /* \"#utility.yul\":165:202   */\n      mstore\n        /* \"#utility.yul\":90:208   */\n      pop\n      pop\n      jump\t// out\n        /* \"#utility.yul\":214:767   */\n    tag_14:\n        /* \"#utility.yul\":391:395   */\n      0x00\n        /* \"#utility.yul\":429:432   */\n      0x80\n        /* \"#utility.yul\":418:427   */\n      dup3\n        /* \"#utility.yul\":414:433   */\n      add\n        /* \"#utility.yul\":406:433   */\n      swap1\n      pop\n        /* \"#utility.yul\":443:514   */\n      tag_65\n        /* \"#utility.yul\":511:512   */\n      0x00\n        /* \"#utility.yul\":500:509   */\n      dup4\n        /* \"#utility.yul\":496:513   */\n      add\n        /* \"#utility.yul\":487:493   */\n      dup8\n        /* \"#utility.yul\":443:514   */\n      tag_58\n      jump\t// in\n    tag_65:\n        /* \"#utility.yul\":524:596   */\n      tag_66\n        /* \"#utility.yul\":592:594   */\n      0x20\n        /* \"#utility.yul\":581:590   */\n      dup4\n        /* \"#utility.yul\":577:595   */\n      add\n        /* \"#utility.yul\":568:574   */\n      dup7\n        /* \"#utility.yul\":524:596   */\n      tag_58\n      jump\t// in\n    tag_66:\n        /* \"#utility.yul\":606:678   */\n      tag_67\n        /* \"#utility.yul\":674:676   */\n      0x40\n        /* \"#utility.yul\":663:672   */\n      dup4\n        /* \"#utility.yul\":659:677   */\n      add\n        /* \"#utility.yul\":650:656   */\n      dup6\n        /* \"#utility.yul\":606:678   */\n      tag_58\n      jump\t// in\n    tag_67:\n        /* \"#utility.yul\":688:760   */\n      tag_68\n        /* \"#utility.yul\":756:758   */\n      0x60\n        /* \"#utility.yul\":745:754   */\n      dup4\n        /* \"#utility.yul\":741:759   */\n      add\n        /* \"#utility.yul\":732:738   */\n      dup5\n        /* \"#utility.yul\":688:760   */\n      tag_58\n      jump\t// in\n    tag_68:\n        /* \"#utility.yul\":214:767   */\n      swap6\n      swap5\n      pop\n      pop\n      pop\n      pop\n      pop\n      jump\t// out\n        /* \"#utility.yul\":773:995   */\n    tag_18:\n        /* \"#utility.yul\":866:870   */\n      0x00\n        /* \"#utility.yul\":904:906   */\n      0x20\n        /* \"#utility.yul\":893:902   */\n      dup3\n        /* \"#utility.yul\":889:907   */\n      add\n        /* \"#utility.yul\":881:907   */\n      swap1\n      pop\n        /* \"#utility.yul\":917:988   */\n      tag_70\n        /* \"#utility.yul\":985:986   */\n      0x00\n        /* \"#utility.yul\":974:983   */\n      dup4\n        /* \"#utility.yul\":970:987   */\n      add\n        /* \"#utility.yul\":961:967   */\n      dup5\n        /* \"#utility.yul\":917:988   */\n      tag_58\n      jump\t// in\n    tag_70:\n        /* \"#utility.yul\":773:995   */\n      swap3\n      swap2\n      pop\n      pop\n      jump\t// out\n        /* \"#utility.yul\":1001:1181   */\n    tag_59:\n        /* \"#utility.yul\":1049:1126   */\n      0x4e487b7100000000000000000000000000000000000000000000000000000000\n        /* \"#utility.yul\":1046:1047   */\n      0x00\n        /* \"#utility.yul\":1039:1127   */\n      mstore\n        /* \"#utility.yul\":1146:1150   */\n      0x11\n        /* \"#utility.yul\":1143:1144   */\n      0x04\n        /* \"#utility.yul\":1136:1151   */\n      mstore\n        /* \"#utility.yul\":1170:1174   */\n      0x24\n        /* \"#utility.yul\":1167:1168   */\n      0x00\n        /* \"#utility.yul\":1160:1175   */\n      revert\n        /* \"#utility.yul\":1187:1597   */\n    tag_43:\n        /* \"#utility.yul\":1227:1234   */\n      0x00\n        /* \"#utility.yul\":1250:1270   */\n      tag_73\n        /* \"#utility.yul\":1268:1269   */\n      dup3\n        /* \"#utility.yul\":1250:1270   */\n      tag_57\n      jump\t// in\n    tag_73:\n        /* \"#utility.yul\":1245:1270   */\n      swap2\n      pop\n        /* \"#utility.yul\":1284:1304   */\n      tag_74\n        /* \"#utility.yul\":1302:1303   */\n      dup4\n        /* \"#utility.yul\":1284:1304   */\n      tag_57\n      jump\t// in\n    tag_74:\n        /* \"#utility.yul\":1279:1304   */\n      swap3\n      pop\n        /* \"#utility.yul\":1339:1340   */\n      dup3\n        /* \"#utility.yul\":1336:1337   */\n      dup3\n        /* \"#utility.yul\":1332:1341   */\n      mul\n        /* \"#utility.yul\":1361:1391   */\n      tag_75\n        /* \"#utility.yul\":1379:1390   */\n      dup2\n        /* \"#utility.yul\":1361:1391   */\n      tag_57\n      jump\t// in\n    tag_75:\n        /* \"#utility.yul\":1350:1391   */\n      swap2\n      pop\n        /* \"#utility.yul\":1540:1541   */\n      dup3\n        /* \"#utility.yul\":1531:1538   */\n      dup3\n        /* \"#utility.yul\":1527:1542   */\n      div\n        /* \"#utility.yul\":1524:1525   */\n      dup5\n        /* \"#utility.yul\":1521:1543   */\n      eq\n        /* \"#utility.yul\":1501:1502   */\n      dup4\n        /* \"#utility.yul\":1494:1503   */\n      iszero\n        /* \"#utility.yul\":1474:1557   */\n      or\n        /* \"#utility.yul\":1451:1590   */\n      tag_76\n      jumpi\n        /* \"#utility.yul\":1570:1588   */\n      tag_77\n      tag_59\n      jump\t// in\n    tag_77:\n        /* \"#utility.yul\":1451:1590   */\n    tag_76:\n        /* \"#utility.yul\":1235:1597   */\n      pop\n        /* \"#utility.yul\":1187:1597   */\n      swap3\n      swap2\n      pop\n      pop\n      jump\t// out\n\n    auxdata: 0xa264697066735822122030797a89b7322b0bc4446e179f4e6c8c8a106b563300678725b7d83656cb747664736f6c634300081b0033\n}\n",
				"bytecode": {
					"linkReferences": {},
					"object": "608060405260645f55603260015560c860025561012c6003553480156022575f5ffd5b506103c1806100305f395ff3fe608060405234801561000f575f5ffd5b506004361061007b575f3560e01c8063bd9a548b11610059578063bd9a548b146100df578063def0506d14610100578063e01bce841461011e578063f9da8b9a1461013c5761007b565b80630e879d261461007f5780633323f429146100a0578063a6c5e57c146100be575b5f5ffd5b61008761015a565b60405161009794939291906102c1565b60405180910390f35b6100a8610174565b6040516100b59190610304565b60405180910390f35b6100c661017a565b6040516100d694939291906102c1565b60405180910390f35b6100e7610194565b6040516100f794939291906102c1565b60405180910390f35b6101086101fe565b6040516101159190610304565b60405180910390f35b610126610204565b6040516101339190610304565b60405180910390f35b61014461020a565b6040516101519190610304565b60405180910390f35b5f5f5f5f61016661020f565b935093509350935090919293565b60035481565b5f5f5f5f61018661025c565b935093509350935090919293565b5f5f5f5f5f5f5f5f6101a461025c565b93509350935093506019846101b9919061034a565b9350836019846101c9919061034a565b9350836019846101d9919061034a565b9350836019846101e9919061034a565b93508397509750975097505050505090919293565b60015481565b60025481565b5f5481565b5f5f5f5f600a5f54610221919061034a565b600a600154610230919061034a565b600a60025461023f919061034a565b600a60035461024e919061034a565b935093509350935090919293565b5f5f5f5f600f5f5461026e919061034a565b600f60015461027d919061034a565b600f60025461028c919061034a565b600f60035461029b919061034a565b935093509350935090919293565b5f819050919050565b6102bb816102a9565b82525050565b5f6080820190506102d45f8301876102b2565b6102e160208301866102b2565b6102ee60408301856102b2565b6102fb60608301846102b2565b95945050505050565b5f6020820190506103175f8301846102b2565b92915050565b7f4e487b71000000000000000000000000000000000000000000000000000000005f52601160045260245ffd5b5f610354826102a9565b915061035f836102a9565b925082820261036d816102a9565b915082820484148315176103845761038361031d565b5b509291505056fea264697066735822122030797a89b7322b0bc4446e179f4e6c8c8a106b563300678725b7d83656cb747664736f6c634300081b0033",
					"opcodes": "PUSH1 0x80 PUSH1 0x40 MSTORE PUSH1 0x64 PUSH0 SSTORE PUSH1 0x32 PUSH1 0x1 SSTORE PUSH1 0xC8 PUSH1 0x2 SSTORE PUSH2 0x12C PUSH1 0x3 SSTORE CALLVALUE DUP1 ISZERO PUSH1 0x22 JUMPI PUSH0 PUSH0 REVERT JUMPDEST POP PUSH2 0x3C1 DUP1 PUSH2 0x30 PUSH0 CODECOPY PUSH0 RETURN INVALID PUSH1 0x80 PUSH1 0x40 MSTORE CALLVALUE DUP1 ISZERO PUSH2 0xF JUMPI PUSH0 PUSH0 REVERT JUMPDEST POP PUSH1 0x4 CALLDATASIZE LT PUSH2 0x7B JUMPI PUSH0 CALLDATALOAD PUSH1 0xE0 SHR DUP1 PUSH4 0xBD9A548B GT PUSH2 0x59 JUMPI DUP1 PUSH4 0xBD9A548B EQ PUSH2 0xDF JUMPI DUP1 PUSH4 0xDEF0506D EQ PUSH2 0x100 JUMPI DUP1 PUSH4 0xE01BCE84 EQ PUSH2 0x11E JUMPI DUP1 PUSH4 0xF9DA8B9A EQ PUSH2 0x13C JUMPI PUSH2 0x7B JUMP JUMPDEST DUP1 PUSH4 0xE879D26 EQ PUSH2 0x7F JUMPI DUP1 PUSH4 0x3323F429 EQ PUSH2 0xA0 JUMPI DUP1 PUSH4 0xA6C5E57C EQ PUSH2 0xBE JUMPI JUMPDEST PUSH0 PUSH0 REVERT JUMPDEST PUSH2 0x87 PUSH2 0x15A JUMP JUMPDEST PUSH1 0x40 MLOAD PUSH2 0x97 SWAP5 SWAP4 SWAP3 SWAP2 SWAP1 PUSH2 0x2C1 JUMP JUMPDEST PUSH1 0x40 MLOAD DUP1 SWAP2 SUB SWAP1 RETURN JUMPDEST PUSH2 0xA8 PUSH2 0x174 JUMP JUMPDEST PUSH1 0x40 MLOAD PUSH2 0xB5 SWAP2 SWAP1 PUSH2 0x304 JUMP JUMPDEST PUSH1 0x40 MLOAD DUP1 SWAP2 SUB SWAP1 RETURN JUMPDEST PUSH2 0xC6 PUSH2 0x17A JUMP JUMPDEST PUSH1 0x40 MLOAD PUSH2 0xD6 SWAP5 SWAP4 SWAP3 SWAP2 SWAP1 PUSH2 0x2C1 JUMP JUMPDEST PUSH1 0x40 MLOAD DUP1 SWAP2 SUB SWAP1 RETURN JUMPDEST PUSH2 0xE7 PUSH2 0x194 JUMP JUMPDEST PUSH1 0x40 MLOAD PUSH2 0xF7 SWAP5 SWAP4 SWAP3 SWAP2 SWAP1 PUSH2 0x2C1 JUMP JUMPDEST PUSH1 0x40 MLOAD DUP1 SWAP2 SUB SWAP1 RETURN JUMPDEST PUSH2 0x108 PUSH2 0x1FE JUMP JUMPDEST PUSH1 0x40 MLOAD PUSH2 0x115 SWAP2 SWAP1 PUSH2 0x304 JUMP JUMPDEST PUSH1 0x40 MLOAD DUP1 SWAP2 SUB SWAP1 RETURN JUMPDEST PUSH2 0x126 PUSH2 0x204 JUMP JUMPDEST PUSH1 0x40 MLOAD PUSH2 0x133 SWAP2 SWAP1 PUSH2 0x304 JUMP JUMPDEST PUSH1 0x40 MLOAD DUP1 SWAP2 SUB SWAP1 RETURN JUMPDEST PUSH2 0x144 PUSH2 0x20A JUMP JUMPDEST PUSH1 0x40 MLOAD PUSH2 0x151 SWAP2 SWAP1 PUSH2 0x304 JUMP JUMPDEST PUSH1 0x40 MLOAD DUP1 SWAP2 SUB SWAP1 RETURN JUMPDEST PUSH0 PUSH0 PUSH0 PUSH0 PUSH2 0x166 PUSH2 0x20F JUMP JUMPDEST SWAP4 POP SWAP4 POP SWAP4 POP SWAP4 POP SWAP1 SWAP2 SWAP3 SWAP4 JUMP JUMPDEST PUSH1 0x3 SLOAD DUP2 JUMP JUMPDEST PUSH0 PUSH0 PUSH0 PUSH0 PUSH2 0x186 PUSH2 0x25C JUMP JUMPDEST SWAP4 POP SWAP4 POP SWAP4 POP SWAP4 POP SWAP1 SWAP2 SWAP3 SWAP4 JUMP JUMPDEST PUSH0 PUSH0 PUSH0 PUSH0 PUSH0 PUSH0 PUSH0 PUSH0 PUSH2 0x1A4 PUSH2 0x25C JUMP JUMPDEST SWAP4 POP SWAP4 POP SWAP4 POP SWAP4 POP PUSH1 0x19 DUP5 PUSH2 0x1B9 SWAP2 SWAP1 PUSH2 0x34A JUMP JUMPDEST SWAP4 POP DUP4 PUSH1 0x19 DUP5 PUSH2 0x1C9 SWAP2 SWAP1 PUSH2 0x34A JUMP JUMPDEST SWAP4 POP DUP4 PUSH1 0x19 DUP5 PUSH2 0x1D9 SWAP2 SWAP1 PUSH2 0x34A JUMP JUMPDEST SWAP4 POP DUP4 PUSH1 0x19 DUP5 PUSH2 0x1E9 SWAP2 SWAP1 PUSH2 0x34A JUMP JUMPDEST SWAP4 POP DUP4 SWAP8 POP SWAP8 POP SWAP8 POP SWAP8 POP POP POP POP POP SWAP1 SWAP2 SWAP3 SWAP4 JUMP JUMPDEST PUSH1 0x1 SLOAD DUP2 JUMP JUMPDEST PUSH1 0x2 SLOAD DUP2 JUMP JUMPDEST PUSH0 SLOAD DUP2 JUMP JUMPDEST PUSH0 PUSH0 PUSH0 PUSH0 PUSH1 0xA PUSH0 SLOAD PUSH2 0x221 SWAP2 SWAP1 PUSH2 0x34A JUMP JUMPDEST PUSH1 0xA PUSH1 0x1 SLOAD PUSH2 0x230 SWAP2 SWAP1 PUSH2 0x34A JUMP JUMPDEST PUSH1 0xA PUSH1 0x2 SLOAD PUSH2 0x23F SWAP2 SWAP1 PUSH2 0x34A JUMP JUMPDEST PUSH1 0xA PUSH1 0x3 SLOAD PUSH2 0x24E SWAP2 SWAP1 PUSH2 0x34A JUMP JUMPDEST SWAP4 POP SWAP4 POP SWAP4 POP SWAP4 POP SWAP1 SWAP2 SWAP3 SWAP4 JUMP JUMPDEST PUSH0 PUSH0 PUSH0 PUSH0 PUSH1 0xF PUSH0 SLOAD PUSH2 0x26E SWAP2 SWAP1 PUSH2 0x34A JUMP JUMPDEST PUSH1 0xF PUSH1 0x1 SLOAD PUSH2 0x27D SWAP2 SWAP1 PUSH2 0x34A JUMP JUMPDEST PUSH1 0xF PUSH1 0x2 SLOAD PUSH2 0x28C SWAP2 SWAP1 PUSH2 0x34A JUMP JUMPDEST PUSH1 0xF PUSH1 0x3 SLOAD PUSH2 0x29B SWAP2 SWAP1 PUSH2 0x34A JUMP JUMPDEST SWAP4 POP SWAP4 POP SWAP4 POP SWAP4 POP SWAP1 SWAP2 SWAP3 SWAP4 JUMP JUMPDEST PUSH0 DUP2 SWAP1 POP SWAP2 SWAP1 POP JUMP JUMPDEST PUSH2 0x2BB DUP2 PUSH2 0x2A9 JUMP JUMPDEST DUP3 MSTORE POP POP JUMP JUMPDEST PUSH0 PUSH1 0x80 DUP3 ADD SWAP1 POP PUSH2 0x2D4 PUSH0 DUP4 ADD DUP8 PUSH2 0x2B2 JUMP JUMPDEST PUSH2 0x2E1 PUSH1 0x20 DUP4 ADD DUP7 PUSH2 0x2B2 JUMP JUMPDEST PUSH2 0x2EE PUSH1 0x40 DUP4 ADD DUP6 PUSH2 0x2B2 JUMP JUMPDEST PUSH2 0x2FB PUSH1 0x60 DUP4 ADD DUP5 PUSH2 0x2B2 JUMP JUMPDEST SWAP6 SWAP5 POP POP POP POP POP JUMP JUMPDEST PUSH0 PUSH1 0x20 DUP3 ADD SWAP1 POP PUSH2 0x317 PUSH0 DUP4 ADD DUP5 PUSH2 0x2B2 JUMP JUMPDEST SWAP3 SWAP2 POP POP JUMP JUMPDEST PUSH32 0x4E487B7100000000000000000000000000000000000000000000000000000000 PUSH0 MSTORE PUSH1 0x11 PUSH1 0x4 MSTORE PUSH1 0x24 PUSH0 REVERT JUMPDEST PUSH0 PUSH2 0x354 DUP3 PUSH2 0x2A9 JUMP JUMPDEST SWAP2 POP PUSH2 0x35F DUP4 PUSH2 0x2A9 JUMP JUMPDEST SWAP3 POP DUP3 DUP3 MUL PUSH2 0x36D DUP2 PUSH2 0x2A9 JUMP JUMPDEST SWAP2 POP DUP3 DUP3 DIV DUP5 EQ DUP4 ISZERO OR PUSH2 0x384 JUMPI PUSH2 0x383 PUSH2 0x31D JUMP JUMPDEST JUMPDEST POP SWAP3 SWAP2 POP POP JUMP INVALID LOG2 PUSH5 0x6970667358 0x22 SLT KECCAK256 ADDRESS PUSH26 0x7A89B7322B0BC4446E179F4E6C8C8A106B563300678725B7D836 JUMP 0xCB PUSH21 0x7664736F6C634300081B0033000000000000000000 "
				},
				"gasEstimates": {
					"creation": {
						"codeDepositCost": "192200",
						"executionCost": "88659",
						"totalCost": "280859"
					},
					"external": {
						"burgerPrice()": "2469",
						"getIkoroduPrices()": "infinite",
						"getMainlandPrices()": "infinite",
						"getPrices()": "infinite",
						"plateOfRicePrice()": "2490",
						"sharwamaPrice()": "2448",
						"tableWaterPrice()": "2447"
					}
				},
				"methodIdentifiers": {
					"burgerPrice()": "e01bce84",
					"getIkoroduPrices()": "0e879d26",
					"getMainlandPrices()": "a6c5e57c",
					"getPrices()": "bd9a548b",
					"plateOfRicePrice()": "f9da8b9a",
					"sharwamaPrice()": "3323f429",
					"tableWaterPrice()": "def0506d"
				}
			},
			"storageLayout": {
				"storage": [
					{
						"astId": 4,
						"contract": "contracts/Chicken.sol:VictoriaIslandStore",
						"label": "plateOfRicePrice",
						"offset": 0,
						"slot": "0",
						"type": "t_uint256"
					},
					{
						"astId": 7,
						"contract": "contracts/Chicken.sol:VictoriaIslandStore",
						"label": "tableWaterPrice",
						"offset": 0,
						"slot": "1",
						"type": "t_uint256"
					},
					{
						"astId": 10,
						"contract": "contracts/Chicken.sol:VictoriaIslandStore",
						"label": "burgerPrice",
						"offset": 0,
						"slot": "2",
						"type": "t_uint256"
					},
					{
						"astId": 13,
						"contract": "contracts/Chicken.sol:VictoriaIslandStore",
						"label": "sharwamaPrice",
						"offset": 0,
						"slot": "3",
						"type": "t_uint256"
					}
				],
				"types": {
					"t_uint256": {
						"encoding": "inplace",
						"label": "uint256",
						"numberOfBytes": "32"
					}
				}
			},
			"userdoc": {
				"kind": "user",
				"methods": {},
				"version": 1
			}
		}
	}
}