{
	"contracts/Chicken.sol": {
		"IkoroduStore": {
			"abi": [
				{
					"inputs": [],
					"name": "burgerPrice",
					"outputs": [
						{
							"internalType": "uint256",
							"name": "",
							"type": "uint256"
						}
					],
					"stateMutability": "view",
					"type": "function"
				},
				{
					"inputs": [],
					"name": "getPrices",
					"outputs": [
						{
							"internalType": "uint256",
							"name": "",
							"type": "uint256"
						},
						{
							"internalType": "uint256",
							"name": "",
							"type": "uint256"
						},
						{
							"internalType": "uint256",
							"name": "",
							"type": "uint256"
						},
						{
							"internalType": "uint256",
							"name": "",
							"type": "uint256"
						}
					],
					"stateMutability": "view",
					"type": "function"
				},
				{
					"inputs": [],
					"name": "plateOfRicePrice",
					"outputs": [
						{
							"internalType": "uint256",
							"name": "",
							"type": "uint256"
						}
					],
					"stateMutability": "view",
					"type": "function"
				},
				{
					"inputs": [],
					"name": "sharwamaPrice",
					"outputs": [
						{
							"internalType": "uint256",
							"name": "",
							"type": "uint256"
						}
					],
					"stateMutability": "view",
					"type": "function"
				},
				{
					"inputs": [],
					"name": "tableWaterPrice",
					"outputs": [
						{
							"internalType": "uint256",
							"name": "",
							"type": "uint256"
						}
					],
					"stateMutability": "view",
					"type": "function"
				}
			],
			"devdoc": {
				"kind": "dev",
				"methods": {},
				"version": 1
			},
			"evm": {
				"assembly": "    /* \"contracts/Chicken.sol\":479:779  contract IkoroduStore is BaseStore {... */\n  mstore(0x40, 0x80)\n    /* \"contracts/Chicken.sol\":118:121  100 */\n  0x64\n    /* \"contracts/Chicken.sol\":87:121  uint public plateOfRicePrice = 100 */\n  0x00\n  sstore\n    /* \"contracts/Chicken.sol\":158:160  50 */\n  0x32\n    /* \"contracts/Chicken.sol\":128:160  uint public tableWaterPrice = 50 */\n  0x01\n  sstore\n    /* \"contracts/Chicken.sol\":193:196  200 */\n  0xc8\n    /* \"contracts/Chicken.sol\":167:196  uint public burgerPrice = 200 */\n  0x02\n  sstore\n    /* \"contracts/Chicken.sol\":231:234  300 */\n  0x012c\n    /* \"contracts/Chicken.sol\":203:234  uint public sharwamaPrice = 300 */\n  0x03\n  sstore\n    /* \"contracts/Chicken.sol\":479:779  contract IkoroduStore is BaseStore {... */\n  callvalue\n  dup1\n  iszero\n  tag_1\n  jumpi\n  revert(0x00, 0x00)\ntag_1:\n  pop\n  dataSize(sub_0)\n  dup1\n  dataOffset(sub_0)\n  0x00\n  codecopy\n  0x00\n  return\nstop\n\nsub_0: assembly {\n        /* \"contracts/Chicken.sol\":479:779  contract IkoroduStore is BaseStore {... */\n      mstore(0x40, 0x80)\n      callvalue\n      dup1\n      iszero\n      tag_1\n      jumpi\n      revert(0x00, 0x00)\n    tag_1:\n      pop\n      jumpi(tag_2, lt(calldatasize, 0x04))\n      shr(0xe0, calldataload(0x00))\n      dup1\n      0x3323f429\n      eq\n      tag_3\n      jumpi\n      dup1\n      0xbd9a548b\n      eq\n      tag_4\n      jumpi\n      dup1\n      0xdef0506d\n      eq\n      tag_5\n      jumpi\n      dup1\n      0xe01bce84\n      eq\n      tag_6\n      jumpi\n      dup1\n      0xf9da8b9a\n      eq\n      tag_7\n      jumpi\n    tag_2:\n      revert(0x00, 0x00)\n        /* \"contracts/Chicken.sol\":203:234  uint public sharwamaPrice = 300 */\n    tag_3:\n      tag_8\n      tag_9\n      jump\t// in\n    tag_8:\n      mload(0x40)\n      tag_10\n      swap2\n      swap1\n      tag_11\n      jump\t// in\n    tag_10:\n      mload(0x40)\n      dup1\n      swap2\n      sub\n      swap1\n      return\n        /* \"contracts/Chicken.sol\":521:776  function getPrices() public view virtual override returns (uint, uint, uint, uint) {... */\n    tag_4:\n      tag_12\n      tag_13\n      jump\t// in\n    tag_12:\n      mload(0x40)\n      tag_14\n      swap5\n      swap4\n      swap3\n      swap2\n      swap1\n      tag_15\n      jump\t// in\n    tag_14:\n      mload(0x40)\n      dup1\n      swap2\n      sub\n      swap1\n      return\n        /* \"contracts/Chicken.sol\":128:160  uint public tableWaterPrice = 50 */\n    tag_5:\n      tag_16\n      tag_17\n      jump\t// in\n    tag_16:\n      mload(0x40)\n      tag_18\n      swap2\n      swap1\n      tag_11\n      jump\t// in\n    tag_18:\n      mload(0x40)\n      dup1\n      swap2\n      sub\n      swap1\n      return\n        /* \"contracts/Chicken.sol\":167:196  uint public burgerPrice = 200 */\n    tag_6:\n      tag_19\n      tag_20\n      jump\t// in\n    tag_19:\n      mload(0x40)\n      tag_21\n      swap2\n      swap1\n      tag_11\n      jump\t// in\n    tag_21:\n      mload(0x40)\n      dup1\n      swap2\n      sub\n      swap1\n      return\n        /* \"contracts/Chicken.sol\":87:121  uint public plateOfRicePrice = 100 */\n    tag_7:\n      tag_22\n      tag_23\n      jump\t// in\n    tag_22:\n      mload(0x40)\n      tag_24\n      swap2\n      swap1\n      tag_11\n      jump\t// in\n    tag_24:\n      mload(0x40)\n      dup1\n      swap2\n      sub\n      swap1\n      return\n        /* \"contracts/Chicken.sol\":203:234  uint public sharwamaPrice = 300 */\n    tag_9:\n      sload(0x03)\n      dup2\n      jump\t// out\n        /* \"contracts/Chicken.sol\":521:776  function getPrices() public view virtual override returns (uint, uint, uint, uint) {... */\n    tag_13:\n        /* \"contracts/Chicken.sol\":580:584  uint */\n      0x00\n        /* \"contracts/Chicken.sol\":586:590  uint */\n      0x00\n        /* \"contracts/Chicken.sol\":592:596  uint */\n      0x00\n        /* \"contracts/Chicken.sol\":598:602  uint */\n      0x00\n        /* \"contracts/Chicken.sol\":656:658  10 */\n      0x0a\n        /* \"contracts/Chicken.sol\":637:653  plateOfRicePrice */\n      sload(0x00)\n        /* \"contracts/Chicken.sol\":637:658  plateOfRicePrice * 10 */\n      tag_26\n      swap2\n      swap1\n      tag_27\n      jump\t// in\n    tag_26:\n        /* \"contracts/Chicken.sol\":691:693  10 */\n      0x0a\n        /* \"contracts/Chicken.sol\":673:688  tableWaterPrice */\n      sload(0x01)\n        /* \"contracts/Chicken.sol\":673:693  tableWaterPrice * 10 */\n      tag_28\n      swap2\n      swap1\n      tag_27\n      jump\t// in\n    tag_28:\n        /* \"contracts/Chicken.sol\":722:724  10 */\n      0x0a\n        /* \"contracts/Chicken.sol\":708:719  burgerPrice */\n      sload(0x02)\n        /* \"contracts/Chicken.sol\":708:724  burgerPrice * 10 */\n      tag_29\n      swap2\n      swap1\n      tag_27\n      jump\t// in\n    tag_29:\n        /* \"contracts/Chicken.sol\":755:757  10 */\n      0x0a\n        /* \"contracts/Chicken.sol\":739:752  sharwamaPrice */\n      sload(0x03)\n        /* \"contracts/Chicken.sol\":739:757  sharwamaPrice * 10 */\n      tag_30\n      swap2\n      swap1\n      tag_27\n      jump\t// in\n    tag_30:\n        /* \"contracts/Chicken.sol\":615:768  return (... */\n      swap4\n      pop\n      swap4\n      pop\n      swap4\n      pop\n      swap4\n      pop\n        /* \"contracts/Chicken.sol\":521:776  function getPrices() public view virtual override returns (uint, uint, uint, uint) {... */\n      swap1\n      swap2\n      swap3\n      swap4\n      jump\t// out\n        /* \"contracts/Chicken.sol\":128:160  uint public tableWaterPrice = 50 */\n    tag_17:\n      sload(0x01)\n      dup2\n      jump\t// out\n        /* \"contracts/Chicken.sol\":167:196  uint public burgerPrice = 200 */\n    tag_20:\n      sload(0x02)\n      dup2\n      jump\t// out\n        /* \"contracts/Chicken.sol\":87:121  uint public plateOfRicePrice = 100 */\n    tag_23:\n      sload(0x00)\n      dup2\n      jump\t// out\n        /* \"#utility.yul\":7:84   */\n    tag_31:\n        /* \"#utility.yul\":44:51   */\n      0x00\n        /* \"#utility.yul\":73:78   */\n      dup2\n        /* \"#utility.yul\":62:78   */\n      swap1\n      pop\n        /* \"#utility.yul\":7:84   */\n      swap2\n      swap1\n      pop\n      jump\t// out\n        /* \"#utility.yul\":90:208   */\n    tag_32:\n        /* \"#utility.yul\":177:201   */\n      tag_37\n        /* \"#utility.yul\":195:200   */\n      dup2\n        /* \"#utility.yul\":177:201   */\n      tag_31\n      jump\t// in\n    tag_37:\n        /* \"#utility.yul\":172:175   */\n      dup3\n        /* \"#utility.yul\":165:202   */\n      mstore\n        /* \"#utility.yul\":90:208   */\n      pop\n      pop\n      jump\t// out\n        /* \"#utility.yul\":214:436   */\n    tag_11:\n        /* \"#utility.yul\":307:311   */\n      0x00\n        /* \"#utility.yul\":345:347   */\n      0x20\n        /* \"#utility.yul\":334:343   */\n      dup3\n        /* \"#utility.yul\":330:348   */\n      add\n        /* \"#utility.yul\":322:348   */\n      swap1\n      pop\n        /* \"#utility.yul\":358:429   */\n      tag_39\n        /* \"#utility.yul\":426:427   */\n      0x00\n        /* \"#utility.yul\":415:424   */\n      dup4\n        /* \"#utility.yul\":411:428   */\n      add\n        /* \"#utility.yul\":402:408   */\n      dup5\n        /* \"#utility.yul\":358:429   */\n      tag_32\n      jump\t// in\n    tag_39:\n        /* \"#utility.yul\":214:436   */\n      swap3\n      swap2\n      pop\n      pop\n      jump\t// out\n        /* \"#utility.yul\":442:995   */\n    tag_15:\n        /* \"#utility.yul\":619:623   */\n      0x00\n        /* \"#utility.yul\":657:660   */\n      0x80\n        /* \"#utility.yul\":646:655   */\n      dup3\n        /* \"#utility.yul\":642:661   */\n      add\n        /* \"#utility.yul\":634:661   */\n      swap1\n      pop\n        /* \"#utility.yul\":671:742   */\n      tag_41\n        /* \"#utility.yul\":739:740   */\n      0x00\n        /* \"#utility.yul\":728:737   */\n      dup4\n        /* \"#utility.yul\":724:741   */\n      add\n        /* \"#utility.yul\":715:721   */\n      dup8\n        /* \"#utility.yul\":671:742   */\n      tag_32\n      jump\t// in\n    tag_41:\n        /* \"#utility.yul\":752:824   */\n      tag_42\n        /* \"#utility.yul\":820:822   */\n      0x20\n        /* \"#utility.yul\":809:818   */\n      dup4\n        /* \"#utility.yul\":805:823   */\n      add\n        /* \"#utility.yul\":796:802   */\n      dup7\n        /* \"#utility.yul\":752:824   */\n      tag_32\n      jump\t// in\n    tag_42:\n        /* \"#utility.yul\":834:906   */\n      tag_43\n        /* \"#utility.yul\":902:904   */\n      0x40\n        /* \"#utility.yul\":891:900   */\n      dup4\n        /* \"#utility.yul\":887:905   */\n      add\n        /* \"#utility.yul\":878:884   */\n      dup6\n        /* \"#utility.yul\":834:906   */\n      tag_32\n      jump\t// in\n    tag_43:\n        /* \"#utility.yul\":916:988   */\n      tag_44\n        /* \"#utility.yul\":984:986   */\n      0x60\n        /* \"#utility.yul\":973:982   */\n      dup4\n        /* \"#utility.yul\":969:987   */\n      add\n        /* \"#utility.yul\":960:966   */\n      dup5\n        /* \"#utility.yul\":916:988   */\n      tag_32\n      jump\t// in\n    tag_44:\n        /* \"#utility.yul\":442:995   */\n      swap6\n      swap5\n      pop\n      pop\n      pop\n      pop\n      pop\n      jump\t// out\n        /* \"#utility.yul\":1001:1181   */\n    tag_33:\n        /* \"#utility.yul\":1049:1126   */\n      0x4e487b7100000000000000000000000000000000000000000000000000000000\n        /* \"#utility.yul\":1046:1047   */\n      0x00\n        /* \"#utility.yul\":1039:1127   */\n      mstore\n        /* \"#utility.yul\":1146:1150   */\n      0x11\n        /* \"#utility.yul\":1143:1144   */\n      0x04\n        /* \"#utility.yul\":1136:1151   */\n      mstore\n        /* \"#utility.yul\":1170:1174   */\n      0x24\n        /* \"#utility.yul\":1167:1168   */\n      0x00\n        /* \"#utility.yul\":1160:1175   */\n      revert\n        /* \"#utility.yul\":1187:1597   */\n    tag_27:\n        /* \"#utility.yul\":1227:1234   */\n      0x00\n        /* \"#utility.yul\":1250:1270   */\n      tag_47\n        /* \"#utility.yul\":1268:1269   */\n      dup3\n        /* \"#utility.yul\":1250:1270   */\n      tag_31\n      jump\t// in\n    tag_47:\n        /* \"#utility.yul\":1245:1270   */\n      swap2\n      pop\n        /* \"#utility.yul\":1284:1304   */\n      tag_48\n        /* \"#utility.yul\":1302:1303   */\n      dup4\n        /* \"#utility.yul\":1284:1304   */\n      tag_31\n      jump\t// in\n    tag_48:\n        /* \"#utility.yul\":1279:1304   */\n      swap3\n      pop\n        /* \"#utility.yul\":1339:1340   */\n      dup3\n        /* \"#utility.yul\":1336:1337   */\n      dup3\n        /* \"#utility.yul\":1332:1341   */\n      mul\n        /* \"#utility.yul\":1361:1391   */\n      tag_49\n        /* \"#utility.yul\":1379:1390   */\n      dup2\n        /* \"#utility.yul\":1361:1391   */\n      tag_31\n      jump\t// in\n    tag_49:\n        /* \"#utility.yul\":1350:1391   */\n      swap2\n      pop\n        /* \"#utility.yul\":1540:1541   */\n      dup3\n        /* \"#utility.yul\":1531:1538   */\n      dup3\n        /* \"#utility.yul\":1527:1542   */\n      div\n        /* \"#utility.yul\":1524:1525   */\n      dup5\n        /* \"#utility.yul\":1521:1543   */\n      eq\n        /* \"#utility.yul\":1501:1502   */\n      dup4\n        /* \"#utility.yul\":1494:1503   */\n      iszero\n        /* \"#utility.yul\":1474:1557   */\n      or\n        /* \"#utility.yul\":1451:1590   */\n      tag_50\n      jumpi\n        /* \"#utility.yul\":1570:1588   */\n      tag_51\n      tag_33\n      jump\t// in\n    tag_51:\n        /* \"#utility.yul\":1451:1590   */\n    tag_50:\n        /* \"#utility.yul\":1235:1597   */\n      pop\n        /* \"#utility.yul\":1187:1597   */\n      swap3\n      swap2\n      pop\n      pop\n      jump\t// out\n\n    auxdata: 0xa2646970667358221220cdd6655f1a54bfd5a5c5febc5467d893348b5442292ba04d69b97fa6fd0899d464736f6c634300081b0033\n}\n",
				"bytecode": {
					"linkReferences": {},
					"object": "608060405260645f55603260015560c860025561012c6003553480156022575f5ffd5b5061026e806100305f395ff3fe608060405234801561000f575f5ffd5b5060043610610055575f3560e01c80633323f42914610059578063bd9a548b14610077578063def0506d14610098578063e01bce84146100b6578063f9da8b9a146100d4575b5f5ffd5b6100616100f2565b60405161006e919061016e565b60405180910390f35b61007f6100f8565b60405161008f9493929190610187565b60405180910390f35b6100a0610145565b6040516100ad919061016e565b60405180910390f35b6100be61014b565b6040516100cb919061016e565b60405180910390f35b6100dc610151565b6040516100e9919061016e565b60405180910390f35b60035481565b5f5f5f5f600a5f5461010a91906101f7565b600a60015461011991906101f7565b600a60025461012891906101f7565b600a60035461013791906101f7565b935093509350935090919293565b60015481565b60025481565b5f5481565b5f819050919050565b61016881610156565b82525050565b5f6020820190506101815f83018461015f565b92915050565b5f60808201905061019a5f83018761015f565b6101a7602083018661015f565b6101b4604083018561015f565b6101c1606083018461015f565b95945050505050565b7f4e487b71000000000000000000000000000000000000000000000000000000005f52601160045260245ffd5b5f61020182610156565b915061020c83610156565b925082820261021a81610156565b91508282048414831517610231576102306101ca565b5b509291505056fea2646970667358221220cdd6655f1a54bfd5a5c5febc5467d893348b5442292ba04d69b97fa6fd0899d464736f6c634300081b0033",
					"opcodes": "PUSH1 0x80 PUSH1 0x40 MSTORE PUSH1 0x64 PUSH0 SSTORE PUSH1 0x32 PUSH1 0x1 SSTORE PUSH1 0xC8 PUSH1 0x2 SSTORE PUSH2 0x12C PUSH1 0x3 SSTORE CALLVALUE DUP1 ISZERO PUSH1 0x22 JUMPI PUSH0 PUSH0 REVERT JUMPDEST POP PUSH2 0x26E DUP1 PUSH2 0x30 PUSH0 CODECOPY PUSH0 RETURN INVALID PUSH1 0x80 PUSH1 0x40 MSTORE CALLVALUE DUP1 ISZERO PUSH2 0xF JUMPI PUSH0 PUSH0 REVERT JUMPDEST POP PUSH1 0x4 CALLDATASIZE LT PUSH2 0x55 JUMPI PUSH0 CALLDATALOAD PUSH1 0xE0 SHR DUP1 PUSH4 0x3323F429 EQ PUSH2 0x59 JUMPI DUP1 PUSH4 0xBD9A548B EQ PUSH2 0x77 JUMPI DUP1 PUSH4 0xDEF0506D EQ PUSH2 0x98 JUMPI DUP1 PUSH4 0xE01BCE84 EQ PUSH2 0xB6 JUMPI DUP1 PUSH4 0xF9DA8B9A EQ PUSH2 0xD4 JUMPI JUMPDEST PUSH0 PUSH0 REVERT JUMPDEST PUSH2 0x61 PUSH2 0xF2 JUMP JUMPDEST PUSH1 0x40 MLOAD PUSH2 0x6E SWAP2 SWAP1 PUSH2 0x16E JUMP JUMPDEST PUSH1 0x40 MLOAD DUP1 SWAP2 SUB SWAP1 RETURN JUMPDEST PUSH2 0x7F PUSH2 0xF8 JUMP JUMPDEST PUSH1 0x40 MLOAD PUSH2 0x8F SWAP5 SWAP4 SWAP3 SWAP2 SWAP1 PUSH2 0x187 JUMP JUMPDEST PUSH1 0x40 MLOAD DUP1 SWAP2 SUB SWAP1 RETURN JUMPDEST PUSH2 0xA0 PUSH2 0x145 JUMP JUMPDEST PUSH1 0x40 MLOAD PUSH2 0xAD SWAP2 SWAP1 PUSH2 0x16E JUMP JUMPDEST PUSH1 0x40 MLOAD DUP1 SWAP2 SUB SWAP1 RETURN JUMPDEST PUSH2 0xBE PUSH2 0x14B JUMP JUMPDEST PUSH1 0x40 MLOAD PUSH2 0xCB SWAP2 SWAP1 PUSH2 0x16E JUMP JUMPDEST PUSH1 0x40 MLOAD DUP1 SWAP2 SUB SWAP1 RETURN JUMPDEST PUSH2 0xDC PUSH2 0x151 JUMP JUMPDEST PUSH1 0x40 MLOAD PUSH2 0xE9 SWAP2 SWAP1 PUSH2 0x16E JUMP JUMPDEST PUSH1 0x40 MLOAD DUP1 SWAP2 SUB SWAP1 RETURN JUMPDEST PUSH1 0x3 SLOAD DUP2 JUMP JUMPDEST PUSH0 PUSH0 PUSH0 PUSH0 PUSH1 0xA PUSH0 SLOAD PUSH2 0x10A SWAP2 SWAP1 PUSH2 0x1F7 JUMP JUMPDEST PUSH1 0xA PUSH1 0x1 SLOAD PUSH2 0x119 SWAP2 SWAP1 PUSH2 0x1F7 JUMP JUMPDEST PUSH1 0xA PUSH1 0x2 SLOAD PUSH2 0x128 SWAP2 SWAP1 PUSH2 0x1F7 JUMP JUMPDEST PUSH1 0xA PUSH1 0x3 SLOAD PUSH2 0x137 SWAP2 SWAP1 PUSH2 0x1F7 JUMP JUMPDEST SWAP4 POP SWAP4 POP SWAP4 POP SWAP4 POP SWAP1 SWAP2 SWAP3 SWAP4 JUMP JUMPDEST PUSH1 0x1 SLOAD DUP2 JUMP JUMPDEST PUSH1 0x2 SLOAD DUP2 JUMP JUMPDEST PUSH0 SLOAD DUP2 JUMP JUMPDEST PUSH0 DUP2 SWAP1 POP SWAP2 SWAP1 POP JUMP JUMPDEST PUSH2 0x168 DUP2 PUSH2 0x156 JUMP JUMPDEST DUP3 MSTORE POP POP JUMP JUMPDEST PUSH0 PUSH1 0x20 DUP3 ADD SWAP1 POP PUSH2 0x181 PUSH0 DUP4 ADD DUP5 PUSH2 0x15F JUMP JUMPDEST SWAP3 SWAP2 POP POP JUMP JUMPDEST PUSH0 PUSH1 0x80 DUP3 ADD SWAP1 POP PUSH2 0x19A PUSH0 DUP4 ADD DUP8 PUSH2 0x15F JUMP JUMPDEST PUSH2 0x1A7 PUSH1 0x20 DUP4 ADD DUP7 PUSH2 0x15F JUMP JUMPDEST PUSH2 0x1B4 PUSH1 0x40 DUP4 ADD DUP6 PUSH2 0x15F JUMP JUMPDEST PUSH2 0x1C1 PUSH1 0x60 DUP4 ADD DUP5 PUSH2 0x15F JUMP JUMPDEST SWAP6 SWAP5 POP POP POP POP POP JUMP JUMPDEST PUSH32 0x4E487B7100000000000000000000000000000000000000000000000000000000 PUSH0 MSTORE PUSH1 0x11 PUSH1 0x4 MSTORE PUSH1 0x24 PUSH0 REVERT JUMPDEST PUSH0 PUSH2 0x201 DUP3 PUSH2 0x156 JUMP JUMPDEST SWAP2 POP PUSH2 0x20C DUP4 PUSH2 0x156 JUMP JUMPDEST SWAP3 POP DUP3 DUP3 MUL PUSH2 0x21A DUP2 PUSH2 0x156 JUMP JUMPDEST SWAP2 POP DUP3 DUP3 DIV DUP5 EQ DUP4 ISZERO OR PUSH2 0x231 JUMPI PUSH2 0x230 PUSH2 0x1CA JUMP JUMPDEST JUMPDEST POP SWAP3 SWAP2 POP POP JUMP INVALID LOG2 PUSH5 0x6970667358 0x22 SLT KECCAK256 0xCD 0xD6 PUSH6 0x5F1A54BFD5A5 0xC5 INVALID 0xBC SLOAD PUSH8 0xD893348B5442292B LOG0 0x4D PUSH10 0xB97FA6FD0899D464736F PUSH13 0x634300081B0033000000000000 "
				},
				"gasEstimates": {
					"creation": {
						"codeDepositCost": "124400",
						"executionCost": "88592",
						"totalCost": "212992"
					},
					"external": {
						"burgerPrice()": "2469",
						"getPrices()": "infinite",
						"plateOfRicePrice()": "2490",
						"sharwamaPrice()": "2403",
						"tableWaterPrice()": "2447"
					}
				},
				"methodIdentifiers": {
					"burgerPrice()": "e01bce84",
					"getPrices()": "bd9a548b",
					"plateOfRicePrice()": "f9da8b9a",
					"sharwamaPrice()": "3323f429",
					"tableWaterPrice()": "def0506d"
				}
			},
			"storageLayout": {
				"storage": [
					{
						"astId": 4,
						"contract": "contracts/Chicken.sol:IkoroduStore",
						"label": "plateOfRicePrice",
						"offset": 0,
						"slot": "0",
						"type": "t_uint256"
					},
					{
						"astId": 7,
						"contract": "contracts/Chicken.sol:IkoroduStore",
						"label": "tableWaterPrice",
						"offset": 0,
						"slot": "1",
						"type": "t_uint256"
					},
					{
						"astId": 10,
						"contract": "contracts/Chicken.sol:IkoroduStore",
						"label": "burgerPrice",
						"offset": 0,
						"slot": "2",
						"type": "t_uint256"
					},
					{
						"astId": 13,
						"contract": "contracts/Chicken.sol:IkoroduStore",
						"label": "sharwamaPrice",
						"offset": 0,
						"slot": "3",
						"type": "t_uint256"
					}
				],
				"types": {
					"t_uint256": {
						"encoding": "inplace",
						"label": "uint256",
						"numberOfBytes": "32"
					}
				}
			},
			"userdoc": {
				"kind": "user",
				"methods": {},
				"version": 1
			}
		}
	}
}