{
	"contracts/Chicken.sol": {
		"BaseStore": {
			"abi": [
				{
					"inputs": [],
					"name": "burgerPrice",
					"outputs": [
						{
							"internalType": "uint256",
							"name": "",
							"type": "uint256"
						}
					],
					"stateMutability": "view",
					"type": "function"
				},
				{
					"inputs": [],
					"name": "getPrices",
					"outputs": [
						{
							"internalType": "uint256",
							"name": "",
							"type": "uint256"
						},
						{
							"internalType": "uint256",
							"name": "",
							"type": "uint256"
						},
						{
							"internalType": "uint256",
							"name": "",
							"type": "uint256"
						},
						{
							"internalType": "uint256",
							"name": "",
							"type": "uint256"
						}
					],
					"stateMutability": "view",
					"type": "function"
				},
				{
					"inputs": [],
					"name": "plateOfRicePrice",
					"outputs": [
						{
							"internalType": "uint256",
							"name": "",
							"type": "uint256"
						}
					],
					"stateMutability": "view",
					"type": "function"
				},
				{
					"inputs": [],
					"name": "sharwamaPrice",
					"outputs": [
						{
							"internalType": "uint256",
							"name": "",
							"type": "uint256"
						}
					],
					"stateMutability": "view",
					"type": "function"
				},
				{
					"inputs": [],
					"name": "tableWaterPrice",
					"outputs": [
						{
							"internalType": "uint256",
							"name": "",
							"type": "uint256"
						}
					],
					"stateMutability": "view",
					"type": "function"
				}
			],
			"devdoc": {
				"kind": "dev",
				"methods": {},
				"version": 1
			},
			"evm": {
				"assembly": "    /* \"contracts/Chicken.sol\":61:475  contract BaseStore {... */\n  mstore(0x40, 0x80)\n    /* \"contracts/Chicken.sol\":118:121  100 */\n  0x64\n    /* \"contracts/Chicken.sol\":87:121  uint public plateOfRicePrice = 100 */\n  0x00\n  sstore\n    /* \"contracts/Chicken.sol\":158:160  50 */\n  0x32\n    /* \"contracts/Chicken.sol\":128:160  uint public tableWaterPrice = 50 */\n  0x01\n  sstore\n    /* \"contracts/Chicken.sol\":193:196  200 */\n  0xc8\n    /* \"contracts/Chicken.sol\":167:196  uint public burgerPrice = 200 */\n  0x02\n  sstore\n    /* \"contracts/Chicken.sol\":231:234  300 */\n  0x012c\n    /* \"contracts/Chicken.sol\":203:234  uint public sharwamaPrice = 300 */\n  0x03\n  sstore\n    /* \"contracts/Chicken.sol\":61:475  contract BaseStore {... */\n  callvalue\n  dup1\n  iszero\n  tag_1\n  jumpi\n  revert(0x00, 0x00)\ntag_1:\n  pop\n  dataSize(sub_0)\n  dup1\n  dataOffset(sub_0)\n  0x00\n  codecopy\n  0x00\n  return\nstop\n\nsub_0: assembly {\n        /* \"contracts/Chicken.sol\":61:475  contract BaseStore {... */\n      mstore(0x40, 0x80)\n      callvalue\n      dup1\n      iszero\n      tag_1\n      jumpi\n      revert(0x00, 0x00)\n    tag_1:\n      pop\n      jumpi(tag_2, lt(calldatasize, 0x04))\n      shr(0xe0, calldataload(0x00))\n      dup1\n      0x3323f429\n      eq\n      tag_3\n      jumpi\n      dup1\n      0xbd9a548b\n      eq\n      tag_4\n      jumpi\n      dup1\n      0xdef0506d\n      eq\n      tag_5\n      jumpi\n      dup1\n      0xe01bce84\n      eq\n      tag_6\n      jumpi\n      dup1\n      0xf9da8b9a\n      eq\n      tag_7\n      jumpi\n    tag_2:\n      revert(0x00, 0x00)\n        /* \"contracts/Chicken.sol\":203:234  uint public sharwamaPrice = 300 */\n    tag_3:\n      tag_8\n      tag_9\n      jump\t// in\n    tag_8:\n      mload(0x40)\n      tag_10\n      swap2\n      swap1\n      tag_11\n      jump\t// in\n    tag_10:\n      mload(0x40)\n      dup1\n      swap2\n      sub\n      swap1\n      return\n        /* \"contracts/Chicken.sol\":243:472  function getPrices() public view virtual returns (uint, uint, uint, uint) {... */\n    tag_4:\n      tag_12\n      tag_13\n      jump\t// in\n    tag_12:\n      mload(0x40)\n      tag_14\n      swap5\n      swap4\n      swap3\n      swap2\n      swap1\n      tag_15\n      jump\t// in\n    tag_14:\n      mload(0x40)\n      dup1\n      swap2\n      sub\n      swap1\n      return\n        /* \"contracts/Chicken.sol\":128:160  uint public tableWaterPrice = 50 */\n    tag_5:\n      tag_16\n      tag_17\n      jump\t// in\n    tag_16:\n      mload(0x40)\n      tag_18\n      swap2\n      swap1\n      tag_11\n      jump\t// in\n    tag_18:\n      mload(0x40)\n      dup1\n      swap2\n      sub\n      swap1\n      return\n        /* \"contracts/Chicken.sol\":167:196  uint public burgerPrice = 200 */\n    tag_6:\n      tag_19\n      tag_20\n      jump\t// in\n    tag_19:\n      mload(0x40)\n      tag_21\n      swap2\n      swap1\n      tag_11\n      jump\t// in\n    tag_21:\n      mload(0x40)\n      dup1\n      swap2\n      sub\n      swap1\n      return\n        /* \"contracts/Chicken.sol\":87:121  uint public plateOfRicePrice = 100 */\n    tag_7:\n      tag_22\n      tag_23\n      jump\t// in\n    tag_22:\n      mload(0x40)\n      tag_24\n      swap2\n      swap1\n      tag_11\n      jump\t// in\n    tag_24:\n      mload(0x40)\n      dup1\n      swap2\n      sub\n      swap1\n      return\n        /* \"contracts/Chicken.sol\":203:234  uint public sharwamaPrice = 300 */\n    tag_9:\n      sload(0x03)\n      dup2\n      jump\t// out\n        /* \"contracts/Chicken.sol\":243:472  function getPrices() public view virtual returns (uint, uint, uint, uint) {... */\n    tag_13:\n        /* \"contracts/Chicken.sol\":293:297  uint */\n      0x00\n        /* \"contracts/Chicken.sol\":299:303  uint */\n      0x00\n        /* \"contracts/Chicken.sol\":305:309  uint */\n      0x00\n        /* \"contracts/Chicken.sol\":311:315  uint */\n      0x00\n        /* \"contracts/Chicken.sol\":350:366  plateOfRicePrice */\n      sload(0x00)\n        /* \"contracts/Chicken.sol\":382:397  tableWaterPrice */\n      sload(0x01)\n        /* \"contracts/Chicken.sol\":413:424  burgerPrice */\n      sload(0x02)\n        /* \"contracts/Chicken.sol\":440:453  sharwamaPrice */\n      sload(0x03)\n        /* \"contracts/Chicken.sol\":328:464  return (... */\n      swap4\n      pop\n      swap4\n      pop\n      swap4\n      pop\n      swap4\n      pop\n        /* \"contracts/Chicken.sol\":243:472  function getPrices() public view virtual returns (uint, uint, uint, uint) {... */\n      swap1\n      swap2\n      swap3\n      swap4\n      jump\t// out\n        /* \"contracts/Chicken.sol\":128:160  uint public tableWaterPrice = 50 */\n    tag_17:\n      sload(0x01)\n      dup2\n      jump\t// out\n        /* \"contracts/Chicken.sol\":167:196  uint public burgerPrice = 200 */\n    tag_20:\n      sload(0x02)\n      dup2\n      jump\t// out\n        /* \"contracts/Chicken.sol\":87:121  uint public plateOfRicePrice = 100 */\n    tag_23:\n      sload(0x00)\n      dup2\n      jump\t// out\n        /* \"#utility.yul\":7:84   */\n    tag_26:\n        /* \"#utility.yul\":44:51   */\n      0x00\n        /* \"#utility.yul\":73:78   */\n      dup2\n        /* \"#utility.yul\":62:78   */\n      swap1\n      pop\n        /* \"#utility.yul\":7:84   */\n      swap2\n      swap1\n      pop\n      jump\t// out\n        /* \"#utility.yul\":90:208   */\n    tag_27:\n        /* \"#utility.yul\":177:201   */\n      tag_31\n        /* \"#utility.yul\":195:200   */\n      dup2\n        /* \"#utility.yul\":177:201   */\n      tag_26\n      jump\t// in\n    tag_31:\n        /* \"#utility.yul\":172:175   */\n      dup3\n        /* \"#utility.yul\":165:202   */\n      mstore\n        /* \"#utility.yul\":90:208   */\n      pop\n      pop\n      jump\t// out\n        /* \"#utility.yul\":214:436   */\n    tag_11:\n        /* \"#utility.yul\":307:311   */\n      0x00\n        /* \"#utility.yul\":345:347   */\n      0x20\n        /* \"#utility.yul\":334:343   */\n      dup3\n        /* \"#utility.yul\":330:348   */\n      add\n        /* \"#utility.yul\":322:348   */\n      swap1\n      pop\n        /* \"#utility.yul\":358:429   */\n      tag_33\n        /* \"#utility.yul\":426:427   */\n      0x00\n        /* \"#utility.yul\":415:424   */\n      dup4\n        /* \"#utility.yul\":411:428   */\n      add\n        /* \"#utility.yul\":402:408   */\n      dup5\n        /* \"#utility.yul\":358:429   */\n      tag_27\n      jump\t// in\n    tag_33:\n        /* \"#utility.yul\":214:436   */\n      swap3\n      swap2\n      pop\n      pop\n      jump\t// out\n        /* \"#utility.yul\":442:995   */\n    tag_15:\n        /* \"#utility.yul\":619:623   */\n      0x00\n        /* \"#utility.yul\":657:660   */\n      0x80\n        /* \"#utility.yul\":646:655   */\n      dup3\n        /* \"#utility.yul\":642:661   */\n      add\n        /* \"#utility.yul\":634:661   */\n      swap1\n      pop\n        /* \"#utility.yul\":671:742   */\n      tag_35\n        /* \"#utility.yul\":739:740   */\n      0x00\n        /* \"#utility.yul\":728:737   */\n      dup4\n        /* \"#utility.yul\":724:741   */\n      add\n        /* \"#utility.yul\":715:721   */\n      dup8\n        /* \"#utility.yul\":671:742   */\n      tag_27\n      jump\t// in\n    tag_35:\n        /* \"#utility.yul\":752:824   */\n      tag_36\n        /* \"#utility.yul\":820:822   */\n      0x20\n        /* \"#utility.yul\":809:818   */\n      dup4\n        /* \"#utility.yul\":805:823   */\n      add\n        /* \"#utility.yul\":796:802   */\n      dup7\n        /* \"#utility.yul\":752:824   */\n      tag_27\n      jump\t// in\n    tag_36:\n        /* \"#utility.yul\":834:906   */\n      tag_37\n        /* \"#utility.yul\":902:904   */\n      0x40\n        /* \"#utility.yul\":891:900   */\n      dup4\n        /* \"#utility.yul\":887:905   */\n      add\n        /* \"#utility.yul\":878:884   */\n      dup6\n        /* \"#utility.yul\":834:906   */\n      tag_27\n      jump\t// in\n    tag_37:\n        /* \"#utility.yul\":916:988   */\n      tag_38\n        /* \"#utility.yul\":984:986   */\n      0x60\n        /* \"#utility.yul\":973:982   */\n      dup4\n        /* \"#utility.yul\":969:987   */\n      add\n        /* \"#utility.yul\":960:966   */\n      dup5\n        /* \"#utility.yul\":916:988   */\n      tag_27\n      jump\t// in\n    tag_38:\n        /* \"#utility.yul\":442:995   */\n      swap6\n      swap5\n      pop\n      pop\n      pop\n      pop\n      pop\n      jump\t// out\n\n    auxdata: 0xa2646970667358221220a661fe872533cbea35b6d73ee35e5385fca1c453d6955119c7513839d27cefb264736f6c634300081b0033\n}\n",
				"bytecode": {
					"linkReferences": {},
					"object": "608060405260645f55603260015560c860025561012c6003553480156022575f5ffd5b506101d0806100305f395ff3fe608060405234801561000f575f5ffd5b5060043610610055575f3560e01c80633323f42914610059578063bd9a548b14610077578063def0506d14610098578063e01bce84146100b6578063f9da8b9a146100d4575b5f5ffd5b6100616100f2565b60405161006e919061013e565b60405180910390f35b61007f6100f8565b60405161008f9493929190610157565b60405180910390f35b6100a0610115565b6040516100ad919061013e565b60405180910390f35b6100be61011b565b6040516100cb919061013e565b60405180910390f35b6100dc610121565b6040516100e9919061013e565b60405180910390f35b60035481565b5f5f5f5f5f54600154600254600354935093509350935090919293565b60015481565b60025481565b5f5481565b5f819050919050565b61013881610126565b82525050565b5f6020820190506101515f83018461012f565b92915050565b5f60808201905061016a5f83018761012f565b610177602083018661012f565b610184604083018561012f565b610191606083018461012f565b9594505050505056fea2646970667358221220a661fe872533cbea35b6d73ee35e5385fca1c453d6955119c7513839d27cefb264736f6c634300081b0033",
					"opcodes": "PUSH1 0x80 PUSH1 0x40 MSTORE PUSH1 0x64 PUSH0 SSTORE PUSH1 0x32 PUSH1 0x1 SSTORE PUSH1 0xC8 PUSH1 0x2 SSTORE PUSH2 0x12C PUSH1 0x3 SSTORE CALLVALUE DUP1 ISZERO PUSH1 0x22 JUMPI PUSH0 PUSH0 REVERT JUMPDEST POP PUSH2 0x1D0 DUP1 PUSH2 0x30 PUSH0 CODECOPY PUSH0 RETURN INVALID PUSH1 0x80 PUSH1 0x40 MSTORE CALLVALUE DUP1 ISZERO PUSH2 0xF JUMPI PUSH0 PUSH0 REVERT JUMPDEST POP PUSH1 0x4 CALLDATASIZE LT PUSH2 0x55 JUMPI PUSH0 CALLDATALOAD PUSH1 0xE0 SHR DUP1 PUSH4 0x3323F429 EQ PUSH2 0x59 JUMPI DUP1 PUSH4 0xBD9A548B EQ PUSH2 0x77 JUMPI DUP1 PUSH4 0xDEF0506D EQ PUSH2 0x98 JUMPI DUP1 PUSH4 0xE01BCE84 EQ PUSH2 0xB6 JUMPI DUP1 PUSH4 0xF9DA8B9A EQ PUSH2 0xD4 JUMPI JUMPDEST PUSH0 PUSH0 REVERT JUMPDEST PUSH2 0x61 PUSH2 0xF2 JUMP JUMPDEST PUSH1 0x40 MLOAD PUSH2 0x6E SWAP2 SWAP1 PUSH2 0x13E JUMP JUMPDEST PUSH1 0x40 MLOAD DUP1 SWAP2 SUB SWAP1 RETURN JUMPDEST PUSH2 0x7F PUSH2 0xF8 JUMP JUMPDEST PUSH1 0x40 MLOAD PUSH2 0x8F SWAP5 SWAP4 SWAP3 SWAP2 SWAP1 PUSH2 0x157 JUMP JUMPDEST PUSH1 0x40 MLOAD DUP1 SWAP2 SUB SWAP1 RETURN JUMPDEST PUSH2 0xA0 PUSH2 0x115 JUMP JUMPDEST PUSH1 0x40 MLOAD PUSH2 0xAD SWAP2 SWAP1 PUSH2 0x13E JUMP JUMPDEST PUSH1 0x40 MLOAD DUP1 SWAP2 SUB SWAP1 RETURN JUMPDEST PUSH2 0xBE PUSH2 0x11B JUMP JUMPDEST PUSH1 0x40 MLOAD PUSH2 0xCB SWAP2 SWAP1 PUSH2 0x13E JUMP JUMPDEST PUSH1 0x40 MLOAD DUP1 SWAP2 SUB SWAP1 RETURN JUMPDEST PUSH2 0xDC PUSH2 0x121 JUMP JUMPDEST PUSH1 0x40 MLOAD PUSH2 0xE9 SWAP2 SWAP1 PUSH2 0x13E JUMP JUMPDEST PUSH1 0x40 MLOAD DUP1 SWAP2 SUB SWAP1 RETURN JUMPDEST PUSH1 0x3 SLOAD DUP2 JUMP JUMPDEST PUSH0 PUSH0 PUSH0 PUSH0 PUSH0 SLOAD PUSH1 0x1 SLOAD PUSH1 0x2 SLOAD PUSH1 0x3 SLOAD SWAP4 POP SWAP4 POP SWAP4 POP SWAP4 POP SWAP1 SWAP2 SWAP3 SWAP4 JUMP JUMPDEST PUSH1 0x1 SLOAD DUP2 JUMP JUMPDEST PUSH1 0x2 SLOAD DUP2 JUMP JUMPDEST PUSH0 SLOAD DUP2 JUMP JUMPDEST PUSH0 DUP2 SWAP1 POP SWAP2 SWAP1 POP JUMP JUMPDEST PUSH2 0x138 DUP2 PUSH2 0x126 JUMP JUMPDEST DUP3 MSTORE POP POP JUMP JUMPDEST PUSH0 PUSH1 0x20 DUP3 ADD SWAP1 POP PUSH2 0x151 PUSH0 DUP4 ADD DUP5 PUSH2 0x12F JUMP JUMPDEST SWAP3 SWAP2 POP POP JUMP JUMPDEST PUSH0 PUSH1 0x80 DUP3 ADD SWAP1 POP PUSH2 0x16A PUSH0 DUP4 ADD DUP8 PUSH2 0x12F JUMP JUMPDEST PUSH2 0x177 PUSH1 0x20 DUP4 ADD DUP7 PUSH2 0x12F JUMP JUMPDEST PUSH2 0x184 PUSH1 0x40 DUP4 ADD DUP6 PUSH2 0x12F JUMP JUMPDEST PUSH2 0x191 PUSH1 0x60 DUP4 ADD DUP5 PUSH2 0x12F JUMP JUMPDEST SWAP6 SWAP5 POP POP POP POP POP JUMP INVALID LOG2 PUSH5 0x6970667358 0x22 SLT KECCAK256 0xA6 PUSH2 0xFE87 0x25 CALLER 0xCB 0xEA CALLDATALOAD 0xB6 0xD7 RETURNDATACOPY 0xE3 MCOPY MSTORE8 DUP6 0xFC LOG1 0xC4 MSTORE8 0xD6 SWAP6 MLOAD NOT 0xC7 MLOAD CODESIZE CODECOPY 0xD2 PUSH29 0xEFB264736F6C634300081B003300000000000000000000000000000000 "
				},
				"gasEstimates": {
					"creation": {
						"codeDepositCost": "92800",
						"executionCost": "88562",
						"totalCost": "181362"
					},
					"external": {
						"burgerPrice()": "2469",
						"getPrices()": "infinite",
						"plateOfRicePrice()": "2490",
						"sharwamaPrice()": "2403",
						"tableWaterPrice()": "2447"
					}
				},
				"methodIdentifiers": {
					"burgerPrice()": "e01bce84",
					"getPrices()": "bd9a548b",
					"plateOfRicePrice()": "f9da8b9a",
					"sharwamaPrice()": "3323f429",
					"tableWaterPrice()": "def0506d"
				}
			},
			"storageLayout": {
				"storage": [
					{
						"astId": 4,
						"contract": "contracts/Chicken.sol:BaseStore",
						"label": "plateOfRicePrice",
						"offset": 0,
						"slot": "0",
						"type": "t_uint256"
					},
					{
						"astId": 7,
						"contract": "contracts/Chicken.sol:BaseStore",
						"label": "tableWaterPrice",
						"offset": 0,
						"slot": "1",
						"type": "t_uint256"
					},
					{
						"astId": 10,
						"contract": "contracts/Chicken.sol:BaseStore",
						"label": "burgerPrice",
						"offset": 0,
						"slot": "2",
						"type": "t_uint256"
					},
					{
						"astId": 13,
						"contract": "contracts/Chicken.sol:BaseStore",
						"label": "sharwamaPrice",
						"offset": 0,
						"slot": "3",
						"type": "t_uint256"
					}
				],
				"types": {
					"t_uint256": {
						"encoding": "inplace",
						"label": "uint256",
						"numberOfBytes": "32"
					}
				}
			},
			"userdoc": {
				"kind": "user",
				"methods": {},
				"version": 1
			}
		}
	}
}