{
	"contracts/Chicken.sol": {
		"MainlandStore": {
			"abi": [
				{
					"inputs": [],
					"name": "burgerPrice",
					"outputs": [
						{
							"internalType": "uint256",
							"name": "",
							"type": "uint256"
						}
					],
					"stateMutability": "view",
					"type": "function"
				},
				{
					"inputs": [],
					"name": "getIkoroduPrices",
					"outputs": [
						{
							"internalType": "uint256",
							"name": "",
							"type": "uint256"
						},
						{
							"internalType": "uint256",
							"name": "",
							"type": "uint256"
						},
						{
							"internalType": "uint256",
							"name": "",
							"type": "uint256"
						},
						{
							"internalType": "uint256",
							"name": "",
							"type": "uint256"
						}
					],
					"stateMutability": "view",
					"type": "function"
				},
				{
					"inputs": [],
					"name": "getPrices",
					"outputs": [
						{
							"internalType": "uint256",
							"name": "",
							"type": "uint256"
						},
						{
							"internalType": "uint256",
							"name": "",
							"type": "uint256"
						},
						{
							"internalType": "uint256",
							"name": "",
							"type": "uint256"
						},
						{
							"internalType": "uint256",
							"name": "",
							"type": "uint256"
						}
					],
					"stateMutability": "view",
					"type": "function"
				},
				{
					"inputs": [],
					"name": "plateOfRicePrice",
					"outputs": [
						{
							"internalType": "uint256",
							"name": "",
							"type": "uint256"
						}
					],
					"stateMutability": "view",
					"type": "function"
				},
				{
					"inputs": [],
					"name": "sharwamaPrice",
					"outputs": [
						{
							"internalType": "uint256",
							"name": "",
							"type": "uint256"
						}
					],
					"stateMutability": "view",
					"type": "function"
				},
				{
					"inputs": [],
					"name": "tableWaterPrice",
					"outputs": [
						{
							"internalType": "uint256",
							"name": "",
							"type": "uint256"
						}
					],
					"stateMutability": "view",
					"type": "function"
				}
			],
			"devdoc": {
				"kind": "dev",
				"methods": {},
				"version": 1
			},
			"evm": {
				"assembly": "    /* \"contracts/Chicken.sol\":783:1254  contract MainlandStore is BaseStore, IkoroduStore {... */\n  mstore(0x40, 0x80)\n    /* \"contracts/Chicken.sol\":118:121  100 */\n  0x64\n    /* \"contracts/Chicken.sol\":87:121  uint public plateOfRicePrice = 100 */\n  0x00\n  sstore\n    /* \"contracts/Chicken.sol\":158:160  50 */\n  0x32\n    /* \"contracts/Chicken.sol\":128:160  uint public tableWaterPrice = 50 */\n  0x01\n  sstore\n    /* \"contracts/Chicken.sol\":193:196  200 */\n  0xc8\n    /* \"contracts/Chicken.sol\":167:196  uint public burgerPrice = 200 */\n  0x02\n  sstore\n    /* \"contracts/Chicken.sol\":231:234  300 */\n  0x012c\n    /* \"contracts/Chicken.sol\":203:234  uint public sharwamaPrice = 300 */\n  0x03\n  sstore\n    /* \"contracts/Chicken.sol\":783:1254  contract MainlandStore is BaseStore, IkoroduStore {... */\n  callvalue\n  dup1\n  iszero\n  tag_1\n  jumpi\n  revert(0x00, 0x00)\ntag_1:\n  pop\n  dataSize(sub_0)\n  dup1\n  dataOffset(sub_0)\n  0x00\n  codecopy\n  0x00\n  return\nstop\n\nsub_0: assembly {\n        /* \"contracts/Chicken.sol\":783:1254  contract MainlandStore is BaseStore, IkoroduStore {... */\n      mstore(0x40, 0x80)\n      callvalue\n      dup1\n      iszero\n      tag_1\n      jumpi\n      revert(0x00, 0x00)\n    tag_1:\n      pop\n      jumpi(tag_2, lt(calldatasize, 0x04))\n      shr(0xe0, calldataload(0x00))\n      dup1\n      0x0e879d26\n      eq\n      tag_3\n      jumpi\n      dup1\n      0x3323f429\n      eq\n      tag_4\n      jumpi\n      dup1\n      0xbd9a548b\n      eq\n      tag_5\n      jumpi\n      dup1\n      0xdef0506d\n      eq\n      tag_6\n      jumpi\n      dup1\n      0xe01bce84\n      eq\n      tag_7\n      jumpi\n      dup1\n      0xf9da8b9a\n      eq\n      tag_8\n      jumpi\n    tag_2:\n      revert(0x00, 0x00)\n        /* \"contracts/Chicken.sol\":1126:1251  function getIkoroduPrices() public view virtual  returns (uint, uint, uint, uint) {... */\n    tag_3:\n      tag_9\n      tag_10\n      jump\t// in\n    tag_9:\n      mload(0x40)\n      tag_11\n      swap5\n      swap4\n      swap3\n      swap2\n      swap1\n      tag_12\n      jump\t// in\n    tag_11:\n      mload(0x40)\n      dup1\n      swap2\n      sub\n      swap1\n      return\n        /* \"contracts/Chicken.sol\":203:234  uint public sharwamaPrice = 300 */\n    tag_4:\n      tag_13\n      tag_14\n      jump\t// in\n    tag_13:\n      mload(0x40)\n      tag_15\n      swap2\n      swap1\n      tag_16\n      jump\t// in\n    tag_15:\n      mload(0x40)\n      dup1\n      swap2\n      sub\n      swap1\n      return\n        /* \"contracts/Chicken.sol\":840:1120  function getPrices() public view virtual override(BaseStore, IkoroduStore) returns (uint, uint, uint, uint) {... */\n    tag_5:\n      tag_17\n      tag_18\n      jump\t// in\n    tag_17:\n      mload(0x40)\n      tag_19\n      swap5\n      swap4\n      swap3\n      swap2\n      swap1\n      tag_12\n      jump\t// in\n    tag_19:\n      mload(0x40)\n      dup1\n      swap2\n      sub\n      swap1\n      return\n        /* \"contracts/Chicken.sol\":128:160  uint public tableWaterPrice = 50 */\n    tag_6:\n      tag_20\n      tag_21\n      jump\t// in\n    tag_20:\n      mload(0x40)\n      tag_22\n      swap2\n      swap1\n      tag_16\n      jump\t// in\n    tag_22:\n      mload(0x40)\n      dup1\n      swap2\n      sub\n      swap1\n      return\n        /* \"contracts/Chicken.sol\":167:196  uint public burgerPrice = 200 */\n    tag_7:\n      tag_23\n      tag_24\n      jump\t// in\n    tag_23:\n      mload(0x40)\n      tag_25\n      swap2\n      swap1\n      tag_16\n      jump\t// in\n    tag_25:\n      mload(0x40)\n      dup1\n      swap2\n      sub\n      swap1\n      return\n        /* \"contracts/Chicken.sol\":87:121  uint public plateOfRicePrice = 100 */\n    tag_8:\n      tag_26\n      tag_27\n      jump\t// in\n    tag_26:\n      mload(0x40)\n      tag_28\n      swap2\n      swap1\n      tag_16\n      jump\t// in\n    tag_28:\n      mload(0x40)\n      dup1\n      swap2\n      sub\n      swap1\n      return\n        /* \"contracts/Chicken.sol\":1126:1251  function getIkoroduPrices() public view virtual  returns (uint, uint, uint, uint) {... */\n    tag_10:\n        /* \"contracts/Chicken.sol\":1184:1188  uint */\n      0x00\n        /* \"contracts/Chicken.sol\":1190:1194  uint */\n      0x00\n        /* \"contracts/Chicken.sol\":1196:1200  uint */\n      0x00\n        /* \"contracts/Chicken.sol\":1202:1206  uint */\n      0x00\n        /* \"contracts/Chicken.sol\":1226:1243  super.getPrices() */\n      tag_30\n        /* \"contracts/Chicken.sol\":1226:1241  super.getPrices */\n      tag_31\n        /* \"contracts/Chicken.sol\":1226:1243  super.getPrices() */\n      jump\t// in\n    tag_30:\n        /* \"contracts/Chicken.sol\":1219:1243  return super.getPrices() */\n      swap4\n      pop\n      swap4\n      pop\n      swap4\n      pop\n      swap4\n      pop\n        /* \"contracts/Chicken.sol\":1126:1251  function getIkoroduPrices() public view virtual  returns (uint, uint, uint, uint) {... */\n      swap1\n      swap2\n      swap3\n      swap4\n      jump\t// out\n        /* \"contracts/Chicken.sol\":203:234  uint public sharwamaPrice = 300 */\n    tag_14:\n      sload(0x03)\n      dup2\n      jump\t// out\n        /* \"contracts/Chicken.sol\":840:1120  function getPrices() public view virtual override(BaseStore, IkoroduStore) returns (uint, uint, uint, uint) {... */\n    tag_18:\n        /* \"contracts/Chicken.sol\":924:928  uint */\n      0x00\n        /* \"contracts/Chicken.sol\":930:934  uint */\n      0x00\n        /* \"contracts/Chicken.sol\":936:940  uint */\n      0x00\n        /* \"contracts/Chicken.sol\":942:946  uint */\n      0x00\n        /* \"contracts/Chicken.sol\":1000:1002  15 */\n      0x0f\n        /* \"contracts/Chicken.sol\":981:997  plateOfRicePrice */\n      sload(0x00)\n        /* \"contracts/Chicken.sol\":981:1002  plateOfRicePrice * 15 */\n      tag_33\n      swap2\n      swap1\n      tag_34\n      jump\t// in\n    tag_33:\n        /* \"contracts/Chicken.sol\":1035:1037  15 */\n      0x0f\n        /* \"contracts/Chicken.sol\":1017:1032  tableWaterPrice */\n      sload(0x01)\n        /* \"contracts/Chicken.sol\":1017:1037  tableWaterPrice * 15 */\n      tag_35\n      swap2\n      swap1\n      tag_34\n      jump\t// in\n    tag_35:\n        /* \"contracts/Chicken.sol\":1066:1068  15 */\n      0x0f\n        /* \"contracts/Chicken.sol\":1052:1063  burgerPrice */\n      sload(0x02)\n        /* \"contracts/Chicken.sol\":1052:1068  burgerPrice * 15 */\n      tag_36\n      swap2\n      swap1\n      tag_34\n      jump\t// in\n    tag_36:\n        /* \"contracts/Chicken.sol\":1099:1101  15 */\n      0x0f\n        /* \"contracts/Chicken.sol\":1083:1096  sharwamaPrice */\n      sload(0x03)\n        /* \"contracts/Chicken.sol\":1083:1101  sharwamaPrice * 15 */\n      tag_37\n      swap2\n      swap1\n      tag_34\n      jump\t// in\n    tag_37:\n        /* \"contracts/Chicken.sol\":959:1112  return (... */\n      swap4\n      pop\n      swap4\n      pop\n      swap4\n      pop\n      swap4\n      pop\n        /* \"contracts/Chicken.sol\":840:1120  function getPrices() public view virtual override(BaseStore, IkoroduStore) returns (uint, uint, uint, uint) {... */\n      swap1\n      swap2\n      swap3\n      swap4\n      jump\t// out\n        /* \"contracts/Chicken.sol\":128:160  uint public tableWaterPrice = 50 */\n    tag_21:\n      sload(0x01)\n      dup2\n      jump\t// out\n        /* \"contracts/Chicken.sol\":167:196  uint public burgerPrice = 200 */\n    tag_24:\n      sload(0x02)\n      dup2\n      jump\t// out\n        /* \"contracts/Chicken.sol\":87:121  uint public plateOfRicePrice = 100 */\n    tag_27:\n      sload(0x00)\n      dup2\n      jump\t// out\n        /* \"contracts/Chicken.sol\":521:776  function getPrices() public view virtual override returns (uint, uint, uint, uint) {... */\n    tag_31:\n        /* \"contracts/Chicken.sol\":580:584  uint */\n      0x00\n        /* \"contracts/Chicken.sol\":586:590  uint */\n      0x00\n        /* \"contracts/Chicken.sol\":592:596  uint */\n      0x00\n        /* \"contracts/Chicken.sol\":598:602  uint */\n      0x00\n        /* \"contracts/Chicken.sol\":656:658  10 */\n      0x0a\n        /* \"contracts/Chicken.sol\":637:653  plateOfRicePrice */\n      sload(0x00)\n        /* \"contracts/Chicken.sol\":637:658  plateOfRicePrice * 10 */\n      tag_39\n      swap2\n      swap1\n      tag_34\n      jump\t// in\n    tag_39:\n        /* \"contracts/Chicken.sol\":691:693  10 */\n      0x0a\n        /* \"contracts/Chicken.sol\":673:688  tableWaterPrice */\n      sload(0x01)\n        /* \"contracts/Chicken.sol\":673:693  tableWaterPrice * 10 */\n      tag_40\n      swap2\n      swap1\n      tag_34\n      jump\t// in\n    tag_40:\n        /* \"contracts/Chicken.sol\":722:724  10 */\n      0x0a\n        /* \"contracts/Chicken.sol\":708:719  burgerPrice */\n      sload(0x02)\n        /* \"contracts/Chicken.sol\":708:724  burgerPrice * 10 */\n      tag_41\n      swap2\n      swap1\n      tag_34\n      jump\t// in\n    tag_41:\n        /* \"contracts/Chicken.sol\":755:757  10 */\n      0x0a\n        /* \"contracts/Chicken.sol\":739:752  sharwamaPrice */\n      sload(0x03)\n        /* \"contracts/Chicken.sol\":739:757  sharwamaPrice * 10 */\n      tag_42\n      swap2\n      swap1\n      tag_34\n      jump\t// in\n    tag_42:\n        /* \"contracts/Chicken.sol\":615:768  return (... */\n      swap4\n      pop\n      swap4\n      pop\n      swap4\n      pop\n      swap4\n      pop\n        /* \"contracts/Chicken.sol\":521:776  function getPrices() public view virtual override returns (uint, uint, uint, uint) {... */\n      swap1\n      swap2\n      swap3\n      swap4\n      jump\t// out\n        /* \"#utility.yul\":7:84   */\n    tag_43:\n        /* \"#utility.yul\":44:51   */\n      0x00\n        /* \"#utility.yul\":73:78   */\n      dup2\n        /* \"#utility.yul\":62:78   */\n      swap1\n      pop\n        /* \"#utility.yul\":7:84   */\n      swap2\n      swap1\n      pop\n      jump\t// out\n        /* \"#utility.yul\":90:208   */\n    tag_44:\n        /* \"#utility.yul\":177:201   */\n      tag_49\n        /* \"#utility.yul\":195:200   */\n      dup2\n        /* \"#utility.yul\":177:201   */\n      tag_43\n      jump\t// in\n    tag_49:\n        /* \"#utility.yul\":172:175   */\n      dup3\n        /* \"#utility.yul\":165:202   */\n      mstore\n        /* \"#utility.yul\":90:208   */\n      pop\n      pop\n      jump\t// out\n        /* \"#utility.yul\":214:767   */\n    tag_12:\n        /* \"#utility.yul\":391:395   */\n      0x00\n        /* \"#utility.yul\":429:432   */\n      0x80\n        /* \"#utility.yul\":418:427   */\n      dup3\n        /* \"#utility.yul\":414:433   */\n      add\n        /* \"#utility.yul\":406:433   */\n      swap1\n      pop\n        /* \"#utility.yul\":443:514   */\n      tag_51\n        /* \"#utility.yul\":511:512   */\n      0x00\n        /* \"#utility.yul\":500:509   */\n      dup4\n        /* \"#utility.yul\":496:513   */\n      add\n        /* \"#utility.yul\":487:493   */\n      dup8\n        /* \"#utility.yul\":443:514   */\n      tag_44\n      jump\t// in\n    tag_51:\n        /* \"#utility.yul\":524:596   */\n      tag_52\n        /* \"#utility.yul\":592:594   */\n      0x20\n        /* \"#utility.yul\":581:590   */\n      dup4\n        /* \"#utility.yul\":577:595   */\n      add\n        /* \"#utility.yul\":568:574   */\n      dup7\n        /* \"#utility.yul\":524:596   */\n      tag_44\n      jump\t// in\n    tag_52:\n        /* \"#utility.yul\":606:678   */\n      tag_53\n        /* \"#utility.yul\":674:676   */\n      0x40\n        /* \"#utility.yul\":663:672   */\n      dup4\n        /* \"#utility.yul\":659:677   */\n      add\n        /* \"#utility.yul\":650:656   */\n      dup6\n        /* \"#utility.yul\":606:678   */\n      tag_44\n      jump\t// in\n    tag_53:\n        /* \"#utility.yul\":688:760   */\n      tag_54\n        /* \"#utility.yul\":756:758   */\n      0x60\n        /* \"#utility.yul\":745:754   */\n      dup4\n        /* \"#utility.yul\":741:759   */\n      add\n        /* \"#utility.yul\":732:738   */\n      dup5\n        /* \"#utility.yul\":688:760   */\n      tag_44\n      jump\t// in\n    tag_54:\n        /* \"#utility.yul\":214:767   */\n      swap6\n      swap5\n      pop\n      pop\n      pop\n      pop\n      pop\n      jump\t// out\n        /* \"#utility.yul\":773:995   */\n    tag_16:\n        /* \"#utility.yul\":866:870   */\n      0x00\n        /* \"#utility.yul\":904:906   */\n      0x20\n        /* \"#utility.yul\":893:902   */\n      dup3\n        /* \"#utility.yul\":889:907   */\n      add\n        /* \"#utility.yul\":881:907   */\n      swap1\n      pop\n        /* \"#utility.yul\":917:988   */\n      tag_56\n        /* \"#utility.yul\":985:986   */\n      0x00\n        /* \"#utility.yul\":974:983   */\n      dup4\n        /* \"#utility.yul\":970:987   */\n      add\n        /* \"#utility.yul\":961:967   */\n      dup5\n        /* \"#utility.yul\":917:988   */\n      tag_44\n      jump\t// in\n    tag_56:\n        /* \"#utility.yul\":773:995   */\n      swap3\n      swap2\n      pop\n      pop\n      jump\t// out\n        /* \"#utility.yul\":1001:1181   */\n    tag_45:\n        /* \"#utility.yul\":1049:1126   */\n      0x4e487b7100000000000000000000000000000000000000000000000000000000\n        /* \"#utility.yul\":1046:1047   */\n      0x00\n        /* \"#utility.yul\":1039:1127   */\n      mstore\n        /* \"#utility.yul\":1146:1150   */\n      0x11\n        /* \"#utility.yul\":1143:1144   */\n      0x04\n        /* \"#utility.yul\":1136:1151   */\n      mstore\n        /* \"#utility.yul\":1170:1174   */\n      0x24\n        /* \"#utility.yul\":1167:1168   */\n      0x00\n        /* \"#utility.yul\":1160:1175   */\n      revert\n        /* \"#utility.yul\":1187:1597   */\n    tag_34:\n        /* \"#utility.yul\":1227:1234   */\n      0x00\n        /* \"#utility.yul\":1250:1270   */\n      tag_59\n        /* \"#utility.yul\":1268:1269   */\n      dup3\n        /* \"#utility.yul\":1250:1270   */\n      tag_43\n      jump\t// in\n    tag_59:\n        /* \"#utility.yul\":1245:1270   */\n      swap2\n      pop\n        /* \"#utility.yul\":1284:1304   */\n      tag_60\n        /* \"#utility.yul\":1302:1303   */\n      dup4\n        /* \"#utility.yul\":1284:1304   */\n      tag_43\n      jump\t// in\n    tag_60:\n        /* \"#utility.yul\":1279:1304   */\n      swap3\n      pop\n        /* \"#utility.yul\":1339:1340   */\n      dup3\n        /* \"#utility.yul\":1336:1337   */\n      dup3\n        /* \"#utility.yul\":1332:1341   */\n      mul\n        /* \"#utility.yul\":1361:1391   */\n      tag_61\n        /* \"#utility.yul\":1379:1390   */\n      dup2\n        /* \"#utility.yul\":1361:1391   */\n      tag_43\n      jump\t// in\n    tag_61:\n        /* \"#utility.yul\":1350:1391   */\n      swap2\n      pop\n        /* \"#utility.yul\":1540:1541   */\n      dup3\n        /* \"#utility.yul\":1531:1538   */\n      dup3\n        /* \"#utility.yul\":1527:1542   */\n      div\n        /* \"#utility.yul\":1524:1525   */\n      dup5\n        /* \"#utility.yul\":1521:1543   */\n      eq\n        /* \"#utility.yul\":1501:1502   */\n      dup4\n        /* \"#utility.yul\":1494:1503   */\n      iszero\n        /* \"#utility.yul\":1474:1557   */\n      or\n        /* \"#utility.yul\":1451:1590   */\n      tag_62\n      jumpi\n        /* \"#utility.yul\":1570:1588   */\n      tag_63\n      tag_45\n      jump\t// in\n    tag_63:\n        /* \"#utility.yul\":1451:1590   */\n    tag_62:\n        /* \"#utility.yul\":1235:1597   */\n      pop\n        /* \"#utility.yul\":1187:1597   */\n      swap3\n      swap2\n      pop\n      pop\n      jump\t// out\n\n    auxdata: 0xa264697066735822122025a5b571df1e0a34dd6bacb2c040587b47e7b724d9cca87de6384b186b13019664736f6c634300081b0033\n}\n",
				"bytecode": {
					"linkReferences": {},
					"object": "608060405260645f55603260015560c860025561012c6003553480156022575f5ffd5b50610301806100305f395ff3fe608060405234801561000f575f5ffd5b5060043610610060575f3560e01c80630e879d26146100645780633323f42914610085578063bd9a548b146100a3578063def0506d146100c4578063e01bce84146100e2578063f9da8b9a14610100575b5f5ffd5b61006c61011e565b60405161007c9493929190610201565b60405180910390f35b61008d610138565b60405161009a9190610244565b60405180910390f35b6100ab61013e565b6040516100bb9493929190610201565b60405180910390f35b6100cc61018b565b6040516100d99190610244565b60405180910390f35b6100ea610191565b6040516100f79190610244565b60405180910390f35b610108610197565b6040516101159190610244565b60405180910390f35b5f5f5f5f61012a61019c565b935093509350935090919293565b60035481565b5f5f5f5f600f5f54610150919061028a565b600f60015461015f919061028a565b600f60025461016e919061028a565b600f60035461017d919061028a565b935093509350935090919293565b60015481565b60025481565b5f5481565b5f5f5f5f600a5f546101ae919061028a565b600a6001546101bd919061028a565b600a6002546101cc919061028a565b600a6003546101db919061028a565b935093509350935090919293565b5f819050919050565b6101fb816101e9565b82525050565b5f6080820190506102145f8301876101f2565b61022160208301866101f2565b61022e60408301856101f2565b61023b60608301846101f2565b95945050505050565b5f6020820190506102575f8301846101f2565b92915050565b7f4e487b71000000000000000000000000000000000000000000000000000000005f52601160045260245ffd5b5f610294826101e9565b915061029f836101e9565b92508282026102ad816101e9565b915082820484148315176102c4576102c361025d565b5b509291505056fea264697066735822122025a5b571df1e0a34dd6bacb2c040587b47e7b724d9cca87de6384b186b13019664736f6c634300081b0033",
					"opcodes": "PUSH1 0x80 PUSH1 0x40 MSTORE PUSH1 0x64 PUSH0 SSTORE PUSH1 0x32 PUSH1 0x1 SSTORE PUSH1 0xC8 PUSH1 0x2 SSTORE PUSH2 0x12C PUSH1 0x3 SSTORE CALLVALUE DUP1 ISZERO PUSH1 0x22 JUMPI PUSH0 PUSH0 REVERT JUMPDEST POP PUSH2 0x301 DUP1 PUSH2 0x30 PUSH0 CODECOPY PUSH0 RETURN INVALID PUSH1 0x80 PUSH1 0x40 MSTORE CALLVALUE DUP1 ISZERO PUSH2 0xF JUMPI PUSH0 PUSH0 REVERT JUMPDEST POP PUSH1 0x4 CALLDATASIZE LT PUSH2 0x60 JUMPI PUSH0 CALLDATALOAD PUSH1 0xE0 SHR DUP1 PUSH4 0xE879D26 EQ PUSH2 0x64 JUMPI DUP1 PUSH4 0x3323F429 EQ PUSH2 0x85 JUMPI DUP1 PUSH4 0xBD9A548B EQ PUSH2 0xA3 JUMPI DUP1 PUSH4 0xDEF0506D EQ PUSH2 0xC4 JUMPI DUP1 PUSH4 0xE01BCE84 EQ PUSH2 0xE2 JUMPI DUP1 PUSH4 0xF9DA8B9A EQ PUSH2 0x100 JUMPI JUMPDEST PUSH0 PUSH0 REVERT JUMPDEST PUSH2 0x6C PUSH2 0x11E JUMP JUMPDEST PUSH1 0x40 MLOAD PUSH2 0x7C SWAP5 SWAP4 SWAP3 SWAP2 SWAP1 PUSH2 0x201 JUMP JUMPDEST PUSH1 0x40 MLOAD DUP1 SWAP2 SUB SWAP1 RETURN JUMPDEST PUSH2 0x8D PUSH2 0x138 JUMP JUMPDEST PUSH1 0x40 MLOAD PUSH2 0x9A SWAP2 SWAP1 PUSH2 0x244 JUMP JUMPDEST PUSH1 0x40 MLOAD DUP1 SWAP2 SUB SWAP1 RETURN JUMPDEST PUSH2 0xAB PUSH2 0x13E JUMP JUMPDEST PUSH1 0x40 MLOAD PUSH2 0xBB SWAP5 SWAP4 SWAP3 SWAP2 SWAP1 PUSH2 0x201 JUMP JUMPDEST PUSH1 0x40 MLOAD DUP1 SWAP2 SUB SWAP1 RETURN JUMPDEST PUSH2 0xCC PUSH2 0x18B JUMP JUMPDEST PUSH1 0x40 MLOAD PUSH2 0xD9 SWAP2 SWAP1 PUSH2 0x244 JUMP JUMPDEST PUSH1 0x40 MLOAD DUP1 SWAP2 SUB SWAP1 RETURN JUMPDEST PUSH2 0xEA PUSH2 0x191 JUMP JUMPDEST PUSH1 0x40 MLOAD PUSH2 0xF7 SWAP2 SWAP1 PUSH2 0x244 JUMP JUMPDEST PUSH1 0x40 MLOAD DUP1 SWAP2 SUB SWAP1 RETURN JUMPDEST PUSH2 0x108 PUSH2 0x197 JUMP JUMPDEST PUSH1 0x40 MLOAD PUSH2 0x115 SWAP2 SWAP1 PUSH2 0x244 JUMP JUMPDEST PUSH1 0x40 MLOAD DUP1 SWAP2 SUB SWAP1 RETURN JUMPDEST PUSH0 PUSH0 PUSH0 PUSH0 PUSH2 0x12A PUSH2 0x19C JUMP JUMPDEST SWAP4 POP SWAP4 POP SWAP4 POP SWAP4 POP SWAP1 SWAP2 SWAP3 SWAP4 JUMP JUMPDEST PUSH1 0x3 SLOAD DUP2 JUMP JUMPDEST PUSH0 PUSH0 PUSH0 PUSH0 PUSH1 0xF PUSH0 SLOAD PUSH2 0x150 SWAP2 SWAP1 PUSH2 0x28A JUMP JUMPDEST PUSH1 0xF PUSH1 0x1 SLOAD PUSH2 0x15F SWAP2 SWAP1 PUSH2 0x28A JUMP JUMPDEST PUSH1 0xF PUSH1 0x2 SLOAD PUSH2 0x16E SWAP2 SWAP1 PUSH2 0x28A JUMP JUMPDEST PUSH1 0xF PUSH1 0x3 SLOAD PUSH2 0x17D SWAP2 SWAP1 PUSH2 0x28A JUMP JUMPDEST SWAP4 POP SWAP4 POP SWAP4 POP SWAP4 POP SWAP1 SWAP2 SWAP3 SWAP4 JUMP JUMPDEST PUSH1 0x1 SLOAD DUP2 JUMP JUMPDEST PUSH1 0x2 SLOAD DUP2 JUMP JUMPDEST PUSH0 SLOAD DUP2 JUMP JUMPDEST PUSH0 PUSH0 PUSH0 PUSH0 PUSH1 0xA PUSH0 SLOAD PUSH2 0x1AE SWAP2 SWAP1 PUSH2 0x28A JUMP JUMPDEST PUSH1 0xA PUSH1 0x1 SLOAD PUSH2 0x1BD SWAP2 SWAP1 PUSH2 0x28A JUMP JUMPDEST PUSH1 0xA PUSH1 0x2 SLOAD PUSH2 0x1CC SWAP2 SWAP1 PUSH2 0x28A JUMP JUMPDEST PUSH1 0xA PUSH1 0x3 SLOAD PUSH2 0x1DB SWAP2 SWAP1 PUSH2 0x28A JUMP JUMPDEST SWAP4 POP SWAP4 POP SWAP4 POP SWAP4 POP SWAP1 SWAP2 SWAP3 SWAP4 JUMP JUMPDEST PUSH0 DUP2 SWAP1 POP SWAP2 SWAP1 POP JUMP JUMPDEST PUSH2 0x1FB DUP2 PUSH2 0x1E9 JUMP JUMPDEST DUP3 MSTORE POP POP JUMP JUMPDEST PUSH0 PUSH1 0x80 DUP3 ADD SWAP1 POP PUSH2 0x214 PUSH0 DUP4 ADD DUP8 PUSH2 0x1F2 JUMP JUMPDEST PUSH2 0x221 PUSH1 0x20 DUP4 ADD DUP7 PUSH2 0x1F2 JUMP JUMPDEST PUSH2 0x22E PUSH1 0x40 DUP4 ADD DUP6 PUSH2 0x1F2 JUMP JUMPDEST PUSH2 0x23B PUSH1 0x60 DUP4 ADD DUP5 PUSH2 0x1F2 JUMP JUMPDEST SWAP6 SWAP5 POP POP POP POP POP JUMP JUMPDEST PUSH0 PUSH1 0x20 DUP3 ADD SWAP1 POP PUSH2 0x257 PUSH0 DUP4 ADD DUP5 PUSH2 0x1F2 JUMP JUMPDEST SWAP3 SWAP2 POP POP JUMP JUMPDEST PUSH32 0x4E487B7100000000000000000000000000000000000000000000000000000000 PUSH0 MSTORE PUSH1 0x11 PUSH1 0x4 MSTORE PUSH1 0x24 PUSH0 REVERT JUMPDEST PUSH0 PUSH2 0x294 DUP3 PUSH2 0x1E9 JUMP JUMPDEST SWAP2 POP PUSH2 0x29F DUP4 PUSH2 0x1E9 JUMP JUMPDEST SWAP3 POP DUP3 DUP3 MUL PUSH2 0x2AD DUP2 PUSH2 0x1E9 JUMP JUMPDEST SWAP2 POP DUP3 DUP3 DIV DUP5 EQ DUP4 ISZERO OR PUSH2 0x2C4 JUMPI PUSH2 0x2C3 PUSH2 0x25D JUMP JUMPDEST JUMPDEST POP SWAP3 SWAP2 POP POP JUMP INVALID LOG2 PUSH5 0x6970667358 0x22 SLT KECCAK256 0x25 0xA5 0xB5 PUSH18 0xDF1E0A34DD6BACB2C040587B47E7B724D9CC 0xA8 PUSH30 0xE6384B186B13019664736F6C634300081B00330000000000000000000000 "
				},
				"gasEstimates": {
					"creation": {
						"codeDepositCost": "153800",
						"executionCost": "88623",
						"totalCost": "242423"
					},
					"external": {
						"burgerPrice()": "2491",
						"getIkoroduPrices()": "infinite",
						"getPrices()": "infinite",
						"plateOfRicePrice()": "2512",
						"sharwamaPrice()": "2425",
						"tableWaterPrice()": "2469"
					}
				},
				"methodIdentifiers": {
					"burgerPrice()": "e01bce84",
					"getIkoroduPrices()": "0e879d26",
					"getPrices()": "bd9a548b",
					"plateOfRicePrice()": "f9da8b9a",
					"sharwamaPrice()": "3323f429",
					"tableWaterPrice()": "def0506d"
				}
			},
			"storageLayout": {
				"storage": [
					{
						"astId": 4,
						"contract": "contracts/Chicken.sol:MainlandStore",
						"label": "plateOfRicePrice",
						"offset": 0,
						"slot": "0",
						"type": "t_uint256"
					},
					{
						"astId": 7,
						"contract": "contracts/Chicken.sol:MainlandStore",
						"label": "tableWaterPrice",
						"offset": 0,
						"slot": "1",
						"type": "t_uint256"
					},
					{
						"astId": 10,
						"contract": "contracts/Chicken.sol:MainlandStore",
						"label": "burgerPrice",
						"offset": 0,
						"slot": "2",
						"type": "t_uint256"
					},
					{
						"astId": 13,
						"contract": "contracts/Chicken.sol:MainlandStore",
						"label": "sharwamaPrice",
						"offset": 0,
						"slot": "3",
						"type": "t_uint256"
					}
				],
				"types": {
					"t_uint256": {
						"encoding": "inplace",
						"label": "uint256",
						"numberOfBytes": "32"
					}
				}
			},
			"userdoc": {
				"kind": "user",
				"methods": {},
				"version": 1
			}
		}
	}
}