{
	"data": {
		"bytecode": {
			"linkReferences": {},
			"object": "60806040525f5f553480156011575f5ffd5b506113f38061001f5f395ff3fe608060405234801561000f575f5ffd5b506004361061007b575f3560e01c806348892753116100595780634889275314610105578063aa7e568314610138578063c7303c6114610154578063fc6c776f146101705761007b565b80630b1e7f831461007f57806317906c2e146100b357806340731c24146100d1575b5f5ffd5b61009960048036038101906100949190610aa8565b6101a3565b6040516100aa959493929190610b91565b60405180910390f35b6100bb61027a565b6040516100c89190610be9565b60405180910390f35b6100eb60048036038101906100e69190610aa8565b61027f565b6040516100fc959493929190610b91565b60405180910390f35b61011f600480360381019061011a9190610c02565b610421565b60405161012f9493929190610c40565b60405180910390f35b610152600480360381019061014d9190610db6565b610622565b005b61016e60048036038101906101699190610e10565b61080e565b005b61018a60048036038101906101859190610c02565b610988565b60405161019a9493929190610c40565b60405180910390f35b6001602052805f5260405f205f91509050805f015490806001015f9054906101000a900473ffffffffffffffffffffffffffffffffffffffff16908060020180546101ed90610e84565b80601f016020809104026020016040519081016040528092919081815260200182805461021990610e84565b80156102645780601f1061023b57610100808354040283529160200191610264565b820191905f5260205f20905b81548152906001019060200180831161024757829003601f168201915b5050505050908060030154908060040154905085565b5f5481565b5f5f60605f5f5f8611801561029557505f548611155b6102d4576040517f08c379a00000000000000000000000000000000000000000000000000000000081526004016102cb90610efe565b60405180910390fd5b5f60015f8881526020019081526020015f206040518060a00160405290815f8201548152602001600182015f9054906101000a900473ffffffffffffffffffffffffffffffffffffffff1673ffffffffffffffffffffffffffffffffffffffff1673ffffffffffffffffffffffffffffffffffffffff16815260200160028201805461035f90610e84565b80601f016020809104026020016040519081016040528092919081815260200182805461038b90610e84565b80156103d65780601f106103ad576101008083540402835291602001916103d6565b820191905f5260205f20905b8154815290600101906020018083116103b957829003601f168201915b50505050508152602001600382015481526020016004820154815250509050805f01518160200151826040015183606001518460800151955095509550955095505091939590929450565b5f5f60605f5f8611801561043657505f548611155b610475576040517f08c379a000000000000000000000000000000000000000000000000000000000815260040161046c90610efe565b60405180910390fd5b5f85118015610498575060015f8781526020019081526020015f20600301548511155b6104d7576040517f08c379a00000000000000000000000000000000000000000000000000000000081526004016104ce90610f66565b60405180910390fd5b5f60025f8881526020019081526020015f205f8781526020019081526020015f206040518060800160405290815f8201548152602001600182015f9054906101000a900473ffffffffffffffffffffffffffffffffffffffff1673ffffffffffffffffffffffffffffffffffffffff1673ffffffffffffffffffffffffffffffffffffffff16815260200160028201805461057190610e84565b80601f016020809104026020016040519081016040528092919081815260200182805461059d90610e84565b80156105e85780601f106105bf576101008083540402835291602001916105e8565b820191905f5260205f20905b8154815290600101906020018083116105cb57829003601f168201915b505050505081526020016003820154815250509050805f015181602001518260400151836060015194509450945094505092959194509250565b5f815111610665576040517f08c379a000000000000000000000000000000000000000000000000000000000815260040161065c90610fce565b60405180910390fd5b5f8211801561067557505f548211155b6106b4576040517f08c379a00000000000000000000000000000000000000000000000000000000081526004016106ab90610efe565b60405180910390fd5b5f60015f8481526020019081526020015f209050806003015f8154809291906106dc90611019565b91905055506040518060800160405280826003015481526020013373ffffffffffffffffffffffffffffffffffffffff1681526020018381526020014281525060025f8581526020019081526020015f205f836003015481526020019081526020015f205f820151815f01556020820151816001015f6101000a81548173ffffffffffffffffffffffffffffffffffffffff021916908373ffffffffffffffffffffffffffffffffffffffff16021790555060408201518160020190816107a39190611200565b50606082015181600301559050503373ffffffffffffffffffffffffffffffffffffffff167f92eb5433849a5a2a1922dadaf613eff78bb7de4173779f8d4683b877aac7260f848360030154854260405161080194939291906112cf565b60405180910390a2505050565b5f815111610851576040517f08c379a000000000000000000000000000000000000000000000000000000000815260040161084890611363565b60405180910390fd5b5f5f81548092919061086290611019565b91905055506040518060a001604052805f5481526020013373ffffffffffffffffffffffffffffffffffffffff1681526020018281526020015f81526020014281525060015f5f5481526020019081526020015f205f820151815f01556020820151816001015f6101000a81548173ffffffffffffffffffffffffffffffffffffffff021916908373ffffffffffffffffffffffffffffffffffffffff160217905550604082015181600201908161091a9190611200565b5060608201518160030155608082015181600401559050503373ffffffffffffffffffffffffffffffffffffffff167f285db98a4632176385795ddf0d2b67cef1a21f47eb2f5d06f786ab6b5147e2005f54834260405161097d93929190611381565b60405180910390a250565b6002602052815f5260405f20602052805f5260405f205f9150915050805f015490806001015f9054906101000a900473ffffffffffffffffffffffffffffffffffffffff16908060020180546109dd90610e84565b80601f0160208091040260200160405190810160405280929190818152602001828054610a0990610e84565b8015610a545780601f10610a2b57610100808354040283529160200191610a54565b820191905f5260205f20905b815481529060010190602001808311610a3757829003601f168201915b5050505050908060030154905084565b5f604051905090565b5f5ffd5b5f5ffd5b5f819050919050565b610a8781610a75565b8114610a91575f5ffd5b50565b5f81359050610aa281610a7e565b92915050565b5f60208284031215610abd57610abc610a6d565b5b5f610aca84828501610a94565b91505092915050565b610adc81610a75565b82525050565b5f73ffffffffffffffffffffffffffffffffffffffff82169050919050565b5f610b0b82610ae2565b9050919050565b610b1b81610b01565b82525050565b5f81519050919050565b5f82825260208201905092915050565b8281835e5f83830152505050565b5f601f19601f8301169050919050565b5f610b6382610b21565b610b6d8185610b2b565b9350610b7d818560208601610b3b565b610b8681610b49565b840191505092915050565b5f60a082019050610ba45f830188610ad3565b610bb16020830187610b12565b8181036040830152610bc38186610b59565b9050610bd26060830185610ad3565b610bdf6080830184610ad3565b9695505050505050565b5f602082019050610bfc5f830184610ad3565b92915050565b5f5f60408385031215610c1857610c17610a6d565b5b5f610c2585828601610a94565b9250506020610c3685828601610a94565b9150509250929050565b5f608082019050610c535f830187610ad3565b610c606020830186610b12565b8181036040830152610c728185610b59565b9050610c816060830184610ad3565b95945050505050565b5f5ffd5b5f5ffd5b7f4e487b71000000000000000000000000000000000000000000000000000000005f52604160045260245ffd5b610cc882610b49565b810181811067ffffffffffffffff82111715610ce757610ce6610c92565b5b80604052505050565b5f610cf9610a64565b9050610d058282610cbf565b919050565b5f67ffffffffffffffff821115610d2457610d23610c92565b5b610d2d82610b49565b9050602081019050919050565b828183375f83830152505050565b5f610d5a610d5584610d0a565b610cf0565b905082815260208101848484011115610d7657610d75610c8e565b5b610d81848285610d3a565b509392505050565b5f82601f830112610d9d57610d9c610c8a565b5b8135610dad848260208601610d48565b91505092915050565b5f5f60408385031215610dcc57610dcb610a6d565b5b5f610dd985828601610a94565b925050602083013567ffffffffffffffff811115610dfa57610df9610a71565b5b610e0685828601610d89565b9150509250929050565b5f60208284031215610e2557610e24610a6d565b5b5f82013567ffffffffffffffff811115610e4257610e41610a71565b5b610e4e84828501610d89565b91505092915050565b7f4e487b71000000000000000000000000000000000000000000000000000000005f52602260045260245ffd5b5f6002820490506001821680610e9b57607f821691505b602082108103610eae57610ead610e57565b5b50919050565b7f506f737420646f6573206e6f74206578697374000000000000000000000000005f82015250565b5f610ee8601383610b2b565b9150610ef382610eb4565b602082019050919050565b5f6020820190508181035f830152610f1581610edc565b9050919050565b7f436f6d6d656e7420646f6573206e6f74206578697374000000000000000000005f82015250565b5f610f50601683610b2b565b9150610f5b82610f1c565b602082019050919050565b5f6020820190508181035f830152610f7d81610f44565b9050919050565b7f436f6d6d656e742063616e6e6f7420626520656d7074790000000000000000005f82015250565b5f610fb8601783610b2b565b9150610fc382610f84565b602082019050919050565b5f6020820190508181035f830152610fe581610fac565b9050919050565b7f4e487b71000000000000000000000000000000000000000000000000000000005f52601160045260245ffd5b5f61102382610a75565b91507fffffffffffffffffffffffffffffffffffffffffffffffffffffffffffffffff820361105557611054610fec565b5b600182019050919050565b5f819050815f5260205f209050919050565b5f6020601f8301049050919050565b5f82821b905092915050565b5f600883026110bc7fffffffffffffffffffffffffffffffffffffffffffffffffffffffffffffffff82611081565b6110c68683611081565b95508019841693508086168417925050509392505050565b5f819050919050565b5f6111016110fc6110f784610a75565b6110de565b610a75565b9050919050565b5f819050919050565b61111a836110e7565b61112e61112682611108565b84845461108d565b825550505050565b5f5f905090565b611145611136565b611150818484611111565b505050565b5b81811015611173576111685f8261113d565b600181019050611156565b5050565b601f8211156111b85761118981611060565b61119284611072565b810160208510156111a1578190505b6111b56111ad85611072565b830182611155565b50505b505050565b5f82821c905092915050565b5f6111d85f19846008026111bd565b1980831691505092915050565b5f6111f083836111c9565b9150826002028217905092915050565b61120982610b21565b67ffffffffffffffff81111561122257611221610c92565b5b61122c8254610e84565b611237828285611177565b5f60209050601f831160018114611268575f8415611256578287015190505b61126085826111e5565b8655506112c7565b601f19841661127686611060565b5f5b8281101561129d57848901518255600182019150602085019450602081019050611278565b868310156112ba57848901516112b6601f8916826111c9565b8355505b6001600288020188555050505b505050505050565b5f6080820190506112e25f830187610ad3565b6112ef6020830186610ad3565b81810360408301526113018185610b59565b90506113106060830184610ad3565b95945050505050565b7f436f6e74656e742063616e6e6f7420626520656d7074790000000000000000005f82015250565b5f61134d601783610b2b565b915061135882611319565b602082019050919050565b5f6020820190508181035f83015261137a81611341565b9050919050565b5f6060820190506113945f830186610ad3565b81810360208301526113a68185610b59565b90506113b56040830184610ad3565b94935050505056fea2646970667358221220a2dbc3091458cfcb3f22f960888098cb103bc0ed800e4ef24bd861f2bd185db764736f6c634300081b0033",
			"opcodes": "PUSH1 0x80 PUSH1 0x40 MSTORE PUSH0 PUSH0 SSTORE CALLVALUE DUP1 ISZERO PUSH1 0x11 JUMPI PUSH0 PUSH0 REVERT JUMPDEST POP PUSH2 0x13F3 DUP1 PUSH2 0x1F PUSH0 CODECOPY PUSH0 RETURN INVALID PUSH1 0x80 PUSH1 0x40 MSTORE CALLVALUE DUP1 ISZERO PUSH2 0xF JUMPI PUSH0 PUSH0 REVERT JUMPDEST POP PUSH1 0x4 CALLDATASIZE LT PUSH2 0x7B JUMPI PUSH0 CALLDATALOAD PUSH1 0xE0 SHR DUP1 PUSH4 0x48892753 GT PUSH2 0x59 JUMPI DUP1 PUSH4 0x48892753 EQ PUSH2 0x105 JUMPI DUP1 PUSH4 0xAA7E5683 EQ PUSH2 0x138 JUMPI DUP1 PUSH4 0xC7303C61 EQ PUSH2 0x154 JUMPI DUP1 PUSH4 0xFC6C776F EQ PUSH2 0x170 JUMPI PUSH2 0x7B JUMP JUMPDEST DUP1 PUSH4 0xB1E7F83 EQ PUSH2 0x7F JUMPI DUP1 PUSH4 0x17906C2E EQ PUSH2 0xB3 JUMPI DUP1 PUSH4 0x40731C24 EQ PUSH2 0xD1 JUMPI JUMPDEST PUSH0 PUSH0 REVERT JUMPDEST PUSH2 0x99 PUSH1 0x4 DUP1 CALLDATASIZE SUB DUP2 ADD SWAP1 PUSH2 0x94 SWAP2 SWAP1 PUSH2 0xAA8 JUMP JUMPDEST PUSH2 0x1A3 JUMP JUMPDEST PUSH1 0x40 MLOAD PUSH2 0xAA SWAP6 SWAP5 SWAP4 SWAP3 SWAP2 SWAP1 PUSH2 0xB91 JUMP JUMPDEST PUSH1 0x40 MLOAD DUP1 SWAP2 SUB SWAP1 RETURN JUMPDEST PUSH2 0xBB PUSH2 0x27A JUMP JUMPDEST PUSH1 0x40 MLOAD PUSH2 0xC8 SWAP2 SWAP1 PUSH2 0xBE9 JUMP JUMPDEST PUSH1 0x40 MLOAD DUP1 SWAP2 SUB SWAP1 RETURN JUMPDEST PUSH2 0xEB PUSH1 0x4 DUP1 CALLDATASIZE SUB DUP2 ADD SWAP1 PUSH2 0xE6 SWAP2 SWAP1 PUSH2 0xAA8 JUMP JUMPDEST PUSH2 0x27F JUMP JUMPDEST PUSH1 0x40 MLOAD PUSH2 0xFC SWAP6 SWAP5 SWAP4 SWAP3 SWAP2 SWAP1 PUSH2 0xB91 JUMP JUMPDEST PUSH1 0x40 MLOAD DUP1 SWAP2 SUB SWAP1 RETURN JUMPDEST PUSH2 0x11F PUSH1 0x4 DUP1 CALLDATASIZE SUB DUP2 ADD SWAP1 PUSH2 0x11A SWAP2 SWAP1 PUSH2 0xC02 JUMP JUMPDEST PUSH2 0x421 JUMP JUMPDEST PUSH1 0x40 MLOAD PUSH2 0x12F SWAP5 SWAP4 SWAP3 SWAP2 SWAP1 PUSH2 0xC40 JUMP JUMPDEST PUSH1 0x40 MLOAD DUP1 SWAP2 SUB SWAP1 RETURN JUMPDEST PUSH2 0x152 PUSH1 0x4 DUP1 CALLDATASIZE SUB DUP2 ADD SWAP1 PUSH2 0x14D SWAP2 SWAP1 PUSH2 0xDB6 JUMP JUMPDEST PUSH2 0x622 JUMP JUMPDEST STOP JUMPDEST PUSH2 0x16E PUSH1 0x4 DUP1 CALLDATASIZE SUB DUP2 ADD SWAP1 PUSH2 0x169 SWAP2 SWAP1 PUSH2 0xE10 JUMP JUMPDEST PUSH2 0x80E JUMP JUMPDEST STOP JUMPDEST PUSH2 0x18A PUSH1 0x4 DUP1 CALLDATASIZE SUB DUP2 ADD SWAP1 PUSH2 0x185 SWAP2 SWAP1 PUSH2 0xC02 JUMP JUMPDEST PUSH2 0x988 JUMP JUMPDEST PUSH1 0x40 MLOAD PUSH2 0x19A SWAP5 SWAP4 SWAP3 SWAP2 SWAP1 PUSH2 0xC40 JUMP JUMPDEST PUSH1 0x40 MLOAD DUP1 SWAP2 SUB SWAP1 RETURN JUMPDEST PUSH1 0x1 PUSH1 0x20 MSTORE DUP1 PUSH0 MSTORE PUSH1 0x40 PUSH0 KECCAK256 PUSH0 SWAP2 POP SWAP1 POP DUP1 PUSH0 ADD SLOAD SWAP1 DUP1 PUSH1 0x1 ADD PUSH0 SWAP1 SLOAD SWAP1 PUSH2 0x100 EXP SWAP1 DIV PUSH20 0xFFFFFFFFFFFFFFFFFFFFFFFFFFFFFFFFFFFFFFFF AND SWAP1 DUP1 PUSH1 0x2 ADD DUP1 SLOAD PUSH2 0x1ED SWAP1 PUSH2 0xE84 JUMP JUMPDEST DUP1 PUSH1 0x1F ADD PUSH1 0x20 DUP1 SWAP2 DIV MUL PUSH1 0x20 ADD PUSH1 0x40 MLOAD SWAP1 DUP2 ADD PUSH1 0x40 MSTORE DUP1 SWAP3 SWAP2 SWAP1 DUP2 DUP2 MSTORE PUSH1 0x20 ADD DUP3 DUP1 SLOAD PUSH2 0x219 SWAP1 PUSH2 0xE84 JUMP JUMPDEST DUP1 ISZERO PUSH2 0x264 JUMPI DUP1 PUSH1 0x1F LT PUSH2 0x23B JUMPI PUSH2 0x100 DUP1 DUP4 SLOAD DIV MUL DUP4 MSTORE SWAP2 PUSH1 0x20 ADD SWAP2 PUSH2 0x264 JUMP JUMPDEST DUP3 ADD SWAP2 SWAP1 PUSH0 MSTORE PUSH1 0x20 PUSH0 KECCAK256 SWAP1 JUMPDEST DUP2 SLOAD DUP2 MSTORE SWAP1 PUSH1 0x1 ADD SWAP1 PUSH1 0x20 ADD DUP1 DUP4 GT PUSH2 0x247 JUMPI DUP3 SWAP1 SUB PUSH1 0x1F AND DUP3 ADD SWAP2 JUMPDEST POP POP POP POP POP SWAP1 DUP1 PUSH1 0x3 ADD SLOAD SWAP1 DUP1 PUSH1 0x4 ADD SLOAD SWAP1 POP DUP6 JUMP JUMPDEST PUSH0 SLOAD DUP2 JUMP JUMPDEST PUSH0 PUSH0 PUSH1 0x60 PUSH0 PUSH0 PUSH0 DUP7 GT DUP1 ISZERO PUSH2 0x295 JUMPI POP PUSH0 SLOAD DUP7 GT ISZERO JUMPDEST PUSH2 0x2D4 JUMPI PUSH1 0x40 MLOAD PUSH32 0x8C379A000000000000000000000000000000000000000000000000000000000 DUP2 MSTORE PUSH1 0x4 ADD PUSH2 0x2CB SWAP1 PUSH2 0xEFE JUMP JUMPDEST PUSH1 0x40 MLOAD DUP1 SWAP2 SUB SWAP1 REVERT JUMPDEST PUSH0 PUSH1 0x1 PUSH0 DUP9 DUP2 MSTORE PUSH1 0x20 ADD SWAP1 DUP2 MSTORE PUSH1 0x20 ADD PUSH0 KECCAK256 PUSH1 0x40 MLOAD DUP1 PUSH1 0xA0 ADD PUSH1 0x40 MSTORE SWAP1 DUP2 PUSH0 DUP3 ADD SLOAD DUP2 MSTORE PUSH1 0x20 ADD PUSH1 0x1 DUP3 ADD PUSH0 SWAP1 SLOAD SWAP1 PUSH2 0x100 EXP SWAP1 DIV PUSH20 0xFFFFFFFFFFFFFFFFFFFFFFFFFFFFFFFFFFFFFFFF AND PUSH20 0xFFFFFFFFFFFFFFFFFFFFFFFFFFFFFFFFFFFFFFFF AND PUSH20 0xFFFFFFFFFFFFFFFFFFFFFFFFFFFFFFFFFFFFFFFF AND DUP2 MSTORE PUSH1 0x20 ADD PUSH1 0x2 DUP3 ADD DUP1 SLOAD PUSH2 0x35F SWAP1 PUSH2 0xE84 JUMP JUMPDEST DUP1 PUSH1 0x1F ADD PUSH1 0x20 DUP1 SWAP2 DIV MUL PUSH1 0x20 ADD PUSH1 0x40 MLOAD SWAP1 DUP2 ADD PUSH1 0x40 MSTORE DUP1 SWAP3 SWAP2 SWAP1 DUP2 DUP2 MSTORE PUSH1 0x20 ADD DUP3 DUP1 SLOAD PUSH2 0x38B SWAP1 PUSH2 0xE84 JUMP JUMPDEST DUP1 ISZERO PUSH2 0x3D6 JUMPI DUP1 PUSH1 0x1F LT PUSH2 0x3AD JUMPI PUSH2 0x100 DUP1 DUP4 SLOAD DIV MUL DUP4 MSTORE SWAP2 PUSH1 0x20 ADD SWAP2 PUSH2 0x3D6 JUMP JUMPDEST DUP3 ADD SWAP2 SWAP1 PUSH0 MSTORE PUSH1 0x20 PUSH0 KECCAK256 SWAP1 JUMPDEST DUP2 SLOAD DUP2 MSTORE SWAP1 PUSH1 0x1 ADD SWAP1 PUSH1 0x20 ADD DUP1 DUP4 GT PUSH2 0x3B9 JUMPI DUP3 SWAP1 SUB PUSH1 0x1F AND DUP3 ADD SWAP2 JUMPDEST POP POP POP POP POP DUP2 MSTORE PUSH1 0x20 ADD PUSH1 0x3 DUP3 ADD SLOAD DUP2 MSTORE PUSH1 0x20 ADD PUSH1 0x4 DUP3 ADD SLOAD DUP2 MSTORE POP POP SWAP1 POP DUP1 PUSH0 ADD MLOAD DUP2 PUSH1 0x20 ADD MLOAD DUP3 PUSH1 0x40 ADD MLOAD DUP4 PUSH1 0x60 ADD MLOAD DUP5 PUSH1 0x80 ADD MLOAD SWAP6 POP SWAP6 POP SWAP6 POP SWAP6 POP SWAP6 POP POP SWAP2 SWAP4 SWAP6 SWAP1 SWAP3 SWAP5 POP JUMP JUMPDEST PUSH0 PUSH0 PUSH1 0x60 PUSH0 PUSH0 DUP7 GT DUP1 ISZERO PUSH2 0x436 JUMPI POP PUSH0 SLOAD DUP7 GT ISZERO JUMPDEST PUSH2 0x475 JUMPI PUSH1 0x40 MLOAD PUSH32 0x8C379A000000000000000000000000000000000000000000000000000000000 DUP2 MSTORE PUSH1 0x4 ADD PUSH2 0x46C SWAP1 PUSH2 0xEFE JUMP JUMPDEST PUSH1 0x40 MLOAD DUP1 SWAP2 SUB SWAP1 REVERT JUMPDEST PUSH0 DUP6 GT DUP1 ISZERO PUSH2 0x498 JUMPI POP PUSH1 0x1 PUSH0 DUP8 DUP2 MSTORE PUSH1 0x20 ADD SWAP1 DUP2 MSTORE PUSH1 0x20 ADD PUSH0 KECCAK256 PUSH1 0x3 ADD SLOAD DUP6 GT ISZERO JUMPDEST PUSH2 0x4D7 JUMPI PUSH1 0x40 MLOAD PUSH32 0x8C379A000000000000000000000000000000000000000000000000000000000 DUP2 MSTORE PUSH1 0x4 ADD PUSH2 0x4CE SWAP1 PUSH2 0xF66 JUMP JUMPDEST PUSH1 0x40 MLOAD DUP1 SWAP2 SUB SWAP1 REVERT JUMPDEST PUSH0 PUSH1 0x2 PUSH0 DUP9 DUP2 MSTORE PUSH1 0x20 ADD SWAP1 DUP2 MSTORE PUSH1 0x20 ADD PUSH0 KECCAK256 PUSH0 DUP8 DUP2 MSTORE PUSH1 0x20 ADD SWAP1 DUP2 MSTORE PUSH1 0x20 ADD PUSH0 KECCAK256 PUSH1 0x40 MLOAD DUP1 PUSH1 0x80 ADD PUSH1 0x40 MSTORE SWAP1 DUP2 PUSH0 DUP3 ADD SLOAD DUP2 MSTORE PUSH1 0x20 ADD PUSH1 0x1 DUP3 ADD PUSH0 SWAP1 SLOAD SWAP1 PUSH2 0x100 EXP SWAP1 DIV PUSH20 0xFFFFFFFFFFFFFFFFFFFFFFFFFFFFFFFFFFFFFFFF AND PUSH20 0xFFFFFFFFFFFFFFFFFFFFFFFFFFFFFFFFFFFFFFFF AND PUSH20 0xFFFFFFFFFFFFFFFFFFFFFFFFFFFFFFFFFFFFFFFF AND DUP2 MSTORE PUSH1 0x20 ADD PUSH1 0x2 DUP3 ADD DUP1 SLOAD PUSH2 0x571 SWAP1 PUSH2 0xE84 JUMP JUMPDEST DUP1 PUSH1 0x1F ADD PUSH1 0x20 DUP1 SWAP2 DIV MUL PUSH1 0x20 ADD PUSH1 0x40 MLOAD SWAP1 DUP2 ADD PUSH1 0x40 MSTORE DUP1 SWAP3 SWAP2 SWAP1 DUP2 DUP2 MSTORE PUSH1 0x20 ADD DUP3 DUP1 SLOAD PUSH2 0x59D SWAP1 PUSH2 0xE84 JUMP JUMPDEST DUP1 ISZERO PUSH2 0x5E8 JUMPI DUP1 PUSH1 0x1F LT PUSH2 0x5BF JUMPI PUSH2 0x100 DUP1 DUP4 SLOAD DIV MUL DUP4 MSTORE SWAP2 PUSH1 0x20 ADD SWAP2 PUSH2 0x5E8 JUMP JUMPDEST DUP3 ADD SWAP2 SWAP1 PUSH0 MSTORE PUSH1 0x20 PUSH0 KECCAK256 SWAP1 JUMPDEST DUP2 SLOAD DUP2 MSTORE SWAP1 PUSH1 0x1 ADD SWAP1 PUSH1 0x20 ADD DUP1 DUP4 GT PUSH2 0x5CB JUMPI DUP3 SWAP1 SUB PUSH1 0x1F AND DUP3 ADD SWAP2 JUMPDEST POP POP POP POP POP DUP2 MSTORE PUSH1 0x20 ADD PUSH1 0x3 DUP3 ADD SLOAD DUP2 MSTORE POP POP SWAP1 POP DUP1 PUSH0 ADD MLOAD DUP2 PUSH1 0x20 ADD MLOAD DUP3 PUSH1 0x40 ADD MLOAD DUP4 PUSH1 0x60 ADD MLOAD SWAP5 POP SWAP5 POP SWAP5 POP SWAP5 POP POP SWAP3 SWAP6 SWAP2 SWAP5 POP SWAP3 POP JUMP JUMPDEST PUSH0 DUP2 MLOAD GT PUSH2 0x665 JUMPI PUSH1 0x40 MLOAD PUSH32 0x8C379A000000000000000000000000000000000000000000000000000000000 DUP2 MSTORE PUSH1 0x4 ADD PUSH2 0x65C SWAP1 PUSH2 0xFCE JUMP JUMPDEST PUSH1 0x40 MLOAD DUP1 SWAP2 SUB SWAP1 REVERT JUMPDEST PUSH0 DUP3 GT DUP1 ISZERO PUSH2 0x675 JUMPI POP PUSH0 SLOAD DUP3 GT ISZERO JUMPDEST PUSH2 0x6B4 JUMPI PUSH1 0x40 MLOAD PUSH32 0x8C379A000000000000000000000000000000000000000000000000000000000 DUP2 MSTORE PUSH1 0x4 ADD PUSH2 0x6AB SWAP1 PUSH2 0xEFE JUMP JUMPDEST PUSH1 0x40 MLOAD DUP1 SWAP2 SUB SWAP1 REVERT JUMPDEST PUSH0 PUSH1 0x1 PUSH0 DUP5 DUP2 MSTORE PUSH1 0x20 ADD SWAP1 DUP2 MSTORE PUSH1 0x20 ADD PUSH0 KECCAK256 SWAP1 POP DUP1 PUSH1 0x3 ADD PUSH0 DUP2 SLOAD DUP1 SWAP3 SWAP2 SWAP1 PUSH2 0x6DC SWAP1 PUSH2 0x1019 JUMP JUMPDEST SWAP2 SWAP1 POP SSTORE POP PUSH1 0x40 MLOAD DUP1 PUSH1 0x80 ADD PUSH1 0x40 MSTORE DUP1 DUP3 PUSH1 0x3 ADD SLOAD DUP2 MSTORE PUSH1 0x20 ADD CALLER PUSH20 0xFFFFFFFFFFFFFFFFFFFFFFFFFFFFFFFFFFFFFFFF AND DUP2 MSTORE PUSH1 0x20 ADD DUP4 DUP2 MSTORE PUSH1 0x20 ADD TIMESTAMP DUP2 MSTORE POP PUSH1 0x2 PUSH0 DUP6 DUP2 MSTORE PUSH1 0x20 ADD SWAP1 DUP2 MSTORE PUSH1 0x20 ADD PUSH0 KECCAK256 PUSH0 DUP4 PUSH1 0x3 ADD SLOAD DUP2 MSTORE PUSH1 0x20 ADD SWAP1 DUP2 MSTORE PUSH1 0x20 ADD PUSH0 KECCAK256 PUSH0 DUP3 ADD MLOAD DUP2 PUSH0 ADD SSTORE PUSH1 0x20 DUP3 ADD MLOAD DUP2 PUSH1 0x1 ADD PUSH0 PUSH2 0x100 EXP DUP2 SLOAD DUP2 PUSH20 0xFFFFFFFFFFFFFFFFFFFFFFFFFFFFFFFFFFFFFFFF MUL NOT AND SWAP1 DUP4 PUSH20 0xFFFFFFFFFFFFFFFFFFFFFFFFFFFFFFFFFFFFFFFF AND MUL OR SWAP1 SSTORE POP PUSH1 0x40 DUP3 ADD MLOAD DUP2 PUSH1 0x2 ADD SWAP1 DUP2 PUSH2 0x7A3 SWAP2 SWAP1 PUSH2 0x1200 JUMP JUMPDEST POP PUSH1 0x60 DUP3 ADD MLOAD DUP2 PUSH1 0x3 ADD SSTORE SWAP1 POP POP CALLER PUSH20 0xFFFFFFFFFFFFFFFFFFFFFFFFFFFFFFFFFFFFFFFF AND PUSH32 0x92EB5433849A5A2A1922DADAF613EFF78BB7DE4173779F8D4683B877AAC7260F DUP5 DUP4 PUSH1 0x3 ADD SLOAD DUP6 TIMESTAMP PUSH1 0x40 MLOAD PUSH2 0x801 SWAP5 SWAP4 SWAP3 SWAP2 SWAP1 PUSH2 0x12CF JUMP JUMPDEST PUSH1 0x40 MLOAD DUP1 SWAP2 SUB SWAP1 LOG2 POP POP POP JUMP JUMPDEST PUSH0 DUP2 MLOAD GT PUSH2 0x851 JUMPI PUSH1 0x40 MLOAD PUSH32 0x8C379A000000000000000000000000000000000000000000000000000000000 DUP2 MSTORE PUSH1 0x4 ADD PUSH2 0x848 SWAP1 PUSH2 0x1363 JUMP JUMPDEST PUSH1 0x40 MLOAD DUP1 SWAP2 SUB SWAP1 REVERT JUMPDEST PUSH0 PUSH0 DUP2 SLOAD DUP1 SWAP3 SWAP2 SWAP1 PUSH2 0x862 SWAP1 PUSH2 0x1019 JUMP JUMPDEST SWAP2 SWAP1 POP SSTORE POP PUSH1 0x40 MLOAD DUP1 PUSH1 0xA0 ADD PUSH1 0x40 MSTORE DUP1 PUSH0 SLOAD DUP2 MSTORE PUSH1 0x20 ADD CALLER PUSH20 0xFFFFFFFFFFFFFFFFFFFFFFFFFFFFFFFFFFFFFFFF AND DUP2 MSTORE PUSH1 0x20 ADD DUP3 DUP2 MSTORE PUSH1 0x20 ADD PUSH0 DUP2 MSTORE PUSH1 0x20 ADD TIMESTAMP DUP2 MSTORE POP PUSH1 0x1 PUSH0 PUSH0 SLOAD DUP2 MSTORE PUSH1 0x20 ADD SWAP1 DUP2 MSTORE PUSH1 0x20 ADD PUSH0 KECCAK256 PUSH0 DUP3 ADD MLOAD DUP2 PUSH0 ADD SSTORE PUSH1 0x20 DUP3 ADD MLOAD DUP2 PUSH1 0x1 ADD PUSH0 PUSH2 0x100 EXP DUP2 SLOAD DUP2 PUSH20 0xFFFFFFFFFFFFFFFFFFFFFFFFFFFFFFFFFFFFFFFF MUL NOT AND SWAP1 DUP4 PUSH20 0xFFFFFFFFFFFFFFFFFFFFFFFFFFFFFFFFFFFFFFFF AND MUL OR SWAP1 SSTORE POP PUSH1 0x40 DUP3 ADD MLOAD DUP2 PUSH1 0x2 ADD SWAP1 DUP2 PUSH2 0x91A SWAP2 SWAP1 PUSH2 0x1200 JUMP JUMPDEST POP PUSH1 0x60 DUP3 ADD MLOAD DUP2 PUSH1 0x3 ADD SSTORE PUSH1 0x80 DUP3 ADD MLOAD DUP2 PUSH1 0x4 ADD SSTORE SWAP1 POP POP CALLER PUSH20 0xFFFFFFFFFFFFFFFFFFFFFFFFFFFFFFFFFFFFFFFF AND PUSH32 0x285DB98A4632176385795DDF0D2B67CEF1A21F47EB2F5D06F786AB6B5147E200 PUSH0 SLOAD DUP4 TIMESTAMP PUSH1 0x40 MLOAD PUSH2 0x97D SWAP4 SWAP3 SWAP2 SWAP1 PUSH2 0x1381 JUMP JUMPDEST PUSH1 0x40 MLOAD DUP1 SWAP2 SUB SWAP1 LOG2 POP JUMP JUMPDEST PUSH1 0x2 PUSH1 0x20 MSTORE DUP2 PUSH0 MSTORE PUSH1 0x40 PUSH0 KECCAK256 PUSH1 0x20 MSTORE DUP1 PUSH0 MSTORE PUSH1 0x40 PUSH0 KECCAK256 PUSH0 SWAP2 POP SWAP2 POP POP DUP1 PUSH0 ADD SLOAD SWAP1 DUP1 PUSH1 0x1 ADD PUSH0 SWAP1 SLOAD SWAP1 PUSH2 0x100 EXP SWAP1 DIV PUSH20 0xFFFFFFFFFFFFFFFFFFFFFFFFFFFFFFFFFFFFFFFF AND SWAP1 DUP1 PUSH1 0x2 ADD DUP1 SLOAD PUSH2 0x9DD SWAP1 PUSH2 0xE84 JUMP JUMPDEST DUP1 PUSH1 0x1F ADD PUSH1 0x20 DUP1 SWAP2 DIV MUL PUSH1 0x20 ADD PUSH1 0x40 MLOAD SWAP1 DUP2 ADD PUSH1 0x40 MSTORE DUP1 SWAP3 SWAP2 SWAP1 DUP2 DUP2 MSTORE PUSH1 0x20 ADD DUP3 DUP1 SLOAD PUSH2 0xA09 SWAP1 PUSH2 0xE84 JUMP JUMPDEST DUP1 ISZERO PUSH2 0xA54 JUMPI DUP1 PUSH1 0x1F LT PUSH2 0xA2B JUMPI PUSH2 0x100 DUP1 DUP4 SLOAD DIV MUL DUP4 MSTORE SWAP2 PUSH1 0x20 ADD SWAP2 PUSH2 0xA54 JUMP JUMPDEST DUP3 ADD SWAP2 SWAP1 PUSH0 MSTORE PUSH1 0x20 PUSH0 KECCAK256 SWAP1 JUMPDEST DUP2 SLOAD DUP2 MSTORE SWAP1 PUSH1 0x1 ADD SWAP1 PUSH1 0x20 ADD DUP1 DUP4 GT PUSH2 0xA37 JUMPI DUP3 SWAP1 SUB PUSH1 0x1F AND DUP3 ADD SWAP2 JUMPDEST POP POP POP POP POP SWAP1 DUP1 PUSH1 0x3 ADD SLOAD SWAP1 POP DUP5 JUMP JUMPDEST PUSH0 PUSH1 0x40 MLOAD SWAP1 POP SWAP1 JUMP JUMPDEST PUSH0 PUSH0 REVERT JUMPDEST PUSH0 PUSH0 REVERT JUMPDEST PUSH0 DUP2 SWAP1 POP SWAP2 SWAP1 POP JUMP JUMPDEST PUSH2 0xA87 DUP2 PUSH2 0xA75 JUMP JUMPDEST DUP2 EQ PUSH2 0xA91 JUMPI PUSH0 PUSH0 REVERT JUMPDEST POP JUMP JUMPDEST PUSH0 DUP2 CALLDATALOAD SWAP1 POP PUSH2 0xAA2 DUP2 PUSH2 0xA7E JUMP JUMPDEST SWAP3 SWAP2 POP POP JUMP JUMPDEST PUSH0 PUSH1 0x20 DUP3 DUP5 SUB SLT ISZERO PUSH2 0xABD JUMPI PUSH2 0xABC PUSH2 0xA6D JUMP JUMPDEST JUMPDEST PUSH0 PUSH2 0xACA DUP5 DUP3 DUP6 ADD PUSH2 0xA94 JUMP JUMPDEST SWAP2 POP POP SWAP3 SWAP2 POP POP JUMP JUMPDEST PUSH2 0xADC DUP2 PUSH2 0xA75 JUMP JUMPDEST DUP3 MSTORE POP POP JUMP JUMPDEST PUSH0 PUSH20 0xFFFFFFFFFFFFFFFFFFFFFFFFFFFFFFFFFFFFFFFF DUP3 AND SWAP1 POP SWAP2 SWAP1 POP JUMP JUMPDEST PUSH0 PUSH2 0xB0B DUP3 PUSH2 0xAE2 JUMP JUMPDEST SWAP1 POP SWAP2 SWAP1 POP JUMP JUMPDEST PUSH2 0xB1B DUP2 PUSH2 0xB01 JUMP JUMPDEST DUP3 MSTORE POP POP JUMP JUMPDEST PUSH0 DUP2 MLOAD SWAP1 POP SWAP2 SWAP1 POP JUMP JUMPDEST PUSH0 DUP3 DUP3 MSTORE PUSH1 0x20 DUP3 ADD SWAP1 POP SWAP3 SWAP2 POP POP JUMP JUMPDEST DUP3 DUP2 DUP4 MCOPY PUSH0 DUP4 DUP4 ADD MSTORE POP POP POP JUMP JUMPDEST PUSH0 PUSH1 0x1F NOT PUSH1 0x1F DUP4 ADD AND SWAP1 POP SWAP2 SWAP1 POP JUMP JUMPDEST PUSH0 PUSH2 0xB63 DUP3 PUSH2 0xB21 JUMP JUMPDEST PUSH2 0xB6D DUP2 DUP6 PUSH2 0xB2B JUMP JUMPDEST SWAP4 POP PUSH2 0xB7D DUP2 DUP6 PUSH1 0x20 DUP7 ADD PUSH2 0xB3B JUMP JUMPDEST PUSH2 0xB86 DUP2 PUSH2 0xB49 JUMP JUMPDEST DUP5 ADD SWAP2 POP POP SWAP3 SWAP2 POP POP JUMP JUMPDEST PUSH0 PUSH1 0xA0 DUP3 ADD SWAP1 POP PUSH2 0xBA4 PUSH0 DUP4 ADD DUP9 PUSH2 0xAD3 JUMP JUMPDEST PUSH2 0xBB1 PUSH1 0x20 DUP4 ADD DUP8 PUSH2 0xB12 JUMP JUMPDEST DUP2 DUP2 SUB PUSH1 0x40 DUP4 ADD MSTORE PUSH2 0xBC3 DUP2 DUP7 PUSH2 0xB59 JUMP JUMPDEST SWAP1 POP PUSH2 0xBD2 PUSH1 0x60 DUP4 ADD DUP6 PUSH2 0xAD3 JUMP JUMPDEST PUSH2 0xBDF PUSH1 0x80 DUP4 ADD DUP5 PUSH2 0xAD3 JUMP JUMPDEST SWAP7 SWAP6 POP POP POP POP POP POP JUMP JUMPDEST PUSH0 PUSH1 0x20 DUP3 ADD SWAP1 POP PUSH2 0xBFC PUSH0 DUP4 ADD DUP5 PUSH2 0xAD3 JUMP JUMPDEST SWAP3 SWAP2 POP POP JUMP JUMPDEST PUSH0 PUSH0 PUSH1 0x40 DUP4 DUP6 SUB SLT ISZERO PUSH2 0xC18 JUMPI PUSH2 0xC17 PUSH2 0xA6D JUMP JUMPDEST JUMPDEST PUSH0 PUSH2 0xC25 DUP6 DUP3 DUP7 ADD PUSH2 0xA94 JUMP JUMPDEST SWAP3 POP POP PUSH1 0x20 PUSH2 0xC36 DUP6 DUP3 DUP7 ADD PUSH2 0xA94 JUMP JUMPDEST SWAP2 POP POP SWAP3 POP SWAP3 SWAP1 POP JUMP JUMPDEST PUSH0 PUSH1 0x80 DUP3 ADD SWAP1 POP PUSH2 0xC53 PUSH0 DUP4 ADD DUP8 PUSH2 0xAD3 JUMP JUMPDEST PUSH2 0xC60 PUSH1 0x20 DUP4 ADD DUP7 PUSH2 0xB12 JUMP JUMPDEST DUP2 DUP2 SUB PUSH1 0x40 DUP4 ADD MSTORE PUSH2 0xC72 DUP2 DUP6 PUSH2 0xB59 JUMP JUMPDEST SWAP1 POP PUSH2 0xC81 PUSH1 0x60 DUP4 ADD DUP5 PUSH2 0xAD3 JUMP JUMPDEST SWAP6 SWAP5 POP POP POP POP POP JUMP JUMPDEST PUSH0 PUSH0 REVERT JUMPDEST PUSH0 PUSH0 REVERT JUMPDEST PUSH32 0x4E487B7100000000000000000000000000000000000000000000000000000000 PUSH0 MSTORE PUSH1 0x41 PUSH1 0x4 MSTORE PUSH1 0x24 PUSH0 REVERT JUMPDEST PUSH2 0xCC8 DUP3 PUSH2 0xB49 JUMP JUMPDEST DUP2 ADD DUP2 DUP2 LT PUSH8 0xFFFFFFFFFFFFFFFF DUP3 GT OR ISZERO PUSH2 0xCE7 JUMPI PUSH2 0xCE6 PUSH2 0xC92 JUMP JUMPDEST JUMPDEST DUP1 PUSH1 0x40 MSTORE POP POP POP JUMP JUMPDEST PUSH0 PUSH2 0xCF9 PUSH2 0xA64 JUMP JUMPDEST SWAP1 POP PUSH2 0xD05 DUP3 DUP3 PUSH2 0xCBF JUMP JUMPDEST SWAP2 SWAP1 POP JUMP JUMPDEST PUSH0 PUSH8 0xFFFFFFFFFFFFFFFF DUP3 GT ISZERO PUSH2 0xD24 JUMPI PUSH2 0xD23 PUSH2 0xC92 JUMP JUMPDEST JUMPDEST PUSH2 0xD2D DUP3 PUSH2 0xB49 JUMP JUMPDEST SWAP1 POP PUSH1 0x20 DUP2 ADD SWAP1 POP SWAP2 SWAP1 POP JUMP JUMPDEST DUP3 DUP2 DUP4 CALLDATACOPY PUSH0 DUP4 DUP4 ADD MSTORE POP POP POP JUMP JUMPDEST PUSH0 PUSH2 0xD5A PUSH2 0xD55 DUP5 PUSH2 0xD0A JUMP JUMPDEST PUSH2 0xCF0 JUMP JUMPDEST SWAP1 POP DUP3 DUP2 MSTORE PUSH1 0x20 DUP2 ADD DUP5 DUP5 DUP5 ADD GT ISZERO PUSH2 0xD76 JUMPI PUSH2 0xD75 PUSH2 0xC8E JUMP JUMPDEST JUMPDEST PUSH2 0xD81 DUP5 DUP3 DUP6 PUSH2 0xD3A JUMP JUMPDEST POP SWAP4 SWAP3 POP POP POP JUMP JUMPDEST PUSH0 DUP3 PUSH1 0x1F DUP4 ADD SLT PUSH2 0xD9D JUMPI PUSH2 0xD9C PUSH2 0xC8A JUMP JUMPDEST JUMPDEST DUP2 CALLDATALOAD PUSH2 0xDAD DUP5 DUP3 PUSH1 0x20 DUP7 ADD PUSH2 0xD48 JUMP JUMPDEST SWAP2 POP POP SWAP3 SWAP2 POP POP JUMP JUMPDEST PUSH0 PUSH0 PUSH1 0x40 DUP4 DUP6 SUB SLT ISZERO PUSH2 0xDCC JUMPI PUSH2 0xDCB PUSH2 0xA6D JUMP JUMPDEST JUMPDEST PUSH0 PUSH2 0xDD9 DUP6 DUP3 DUP7 ADD PUSH2 0xA94 JUMP JUMPDEST SWAP3 POP POP PUSH1 0x20 DUP4 ADD CALLDATALOAD PUSH8 0xFFFFFFFFFFFFFFFF DUP2 GT ISZERO PUSH2 0xDFA JUMPI PUSH2 0xDF9 PUSH2 0xA71 JUMP JUMPDEST JUMPDEST PUSH2 0xE06 DUP6 DUP3 DUP7 ADD PUSH2 0xD89 JUMP JUMPDEST SWAP2 POP POP SWAP3 POP SWAP3 SWAP1 POP JUMP JUMPDEST PUSH0 PUSH1 0x20 DUP3 DUP5 SUB SLT ISZERO PUSH2 0xE25 JUMPI PUSH2 0xE24 PUSH2 0xA6D JUMP JUMPDEST JUMPDEST PUSH0 DUP3 ADD CALLDATALOAD PUSH8 0xFFFFFFFFFFFFFFFF DUP2 GT ISZERO PUSH2 0xE42 JUMPI PUSH2 0xE41 PUSH2 0xA71 JUMP JUMPDEST JUMPDEST PUSH2 0xE4E DUP5 DUP3 DUP6 ADD PUSH2 0xD89 JUMP JUMPDEST SWAP2 POP POP SWAP3 SWAP2 POP POP JUMP JUMPDEST PUSH32 0x4E487B7100000000000000000000000000000000000000000000000000000000 PUSH0 MSTORE PUSH1 0x22 PUSH1 0x4 MSTORE PUSH1 0x24 PUSH0 REVERT JUMPDEST PUSH0 PUSH1 0x2 DUP3 DIV SWAP1 POP PUSH1 0x1 DUP3 AND DUP1 PUSH2 0xE9B JUMPI PUSH1 0x7F DUP3 AND SWAP2 POP JUMPDEST PUSH1 0x20 DUP3 LT DUP2 SUB PUSH2 0xEAE JUMPI PUSH2 0xEAD PUSH2 0xE57 JUMP JUMPDEST JUMPDEST POP SWAP2 SWAP1 POP JUMP JUMPDEST PUSH32 0x506F737420646F6573206E6F7420657869737400000000000000000000000000 PUSH0 DUP3 ADD MSTORE POP JUMP JUMPDEST PUSH0 PUSH2 0xEE8 PUSH1 0x13 DUP4 PUSH2 0xB2B JUMP JUMPDEST SWAP2 POP PUSH2 0xEF3 DUP3 PUSH2 0xEB4 JUMP JUMPDEST PUSH1 0x20 DUP3 ADD SWAP1 POP SWAP2 SWAP1 POP JUMP JUMPDEST PUSH0 PUSH1 0x20 DUP3 ADD SWAP1 POP DUP2 DUP2 SUB PUSH0 DUP4 ADD MSTORE PUSH2 0xF15 DUP2 PUSH2 0xEDC JUMP JUMPDEST SWAP1 POP SWAP2 SWAP1 POP JUMP JUMPDEST PUSH32 0x436F6D6D656E7420646F6573206E6F7420657869737400000000000000000000 PUSH0 DUP3 ADD MSTORE POP JUMP JUMPDEST PUSH0 PUSH2 0xF50 PUSH1 0x16 DUP4 PUSH2 0xB2B JUMP JUMPDEST SWAP2 POP PUSH2 0xF5B DUP3 PUSH2 0xF1C JUMP JUMPDEST PUSH1 0x20 DUP3 ADD SWAP1 POP SWAP2 SWAP1 POP JUMP JUMPDEST PUSH0 PUSH1 0x20 DUP3 ADD SWAP1 POP DUP2 DUP2 SUB PUSH0 DUP4 ADD MSTORE PUSH2 0xF7D DUP2 PUSH2 0xF44 JUMP JUMPDEST SWAP1 POP SWAP2 SWAP1 POP JUMP JUMPDEST PUSH32 0x436F6D6D656E742063616E6E6F7420626520656D707479000000000000000000 PUSH0 DUP3 ADD MSTORE POP JUMP JUMPDEST PUSH0 PUSH2 0xFB8 PUSH1 0x17 DUP4 PUSH2 0xB2B JUMP JUMPDEST SWAP2 POP PUSH2 0xFC3 DUP3 PUSH2 0xF84 JUMP JUMPDEST PUSH1 0x20 DUP3 ADD SWAP1 POP SWAP2 SWAP1 POP JUMP JUMPDEST PUSH0 PUSH1 0x20 DUP3 ADD SWAP1 POP DUP2 DUP2 SUB PUSH0 DUP4 ADD MSTORE PUSH2 0xFE5 DUP2 PUSH2 0xFAC JUMP JUMPDEST SWAP1 POP SWAP2 SWAP1 POP JUMP JUMPDEST PUSH32 0x4E487B7100000000000000000000000000000000000000000000000000000000 PUSH0 MSTORE PUSH1 0x11 PUSH1 0x4 MSTORE PUSH1 0x24 PUSH0 REVERT JUMPDEST PUSH0 PUSH2 0x1023 DUP3 PUSH2 0xA75 JUMP JUMPDEST SWAP2 POP PUSH32 0xFFFFFFFFFFFFFFFFFFFFFFFFFFFFFFFFFFFFFFFFFFFFFFFFFFFFFFFFFFFFFFFF DUP3 SUB PUSH2 0x1055 JUMPI PUSH2 0x1054 PUSH2 0xFEC JUMP JUMPDEST JUMPDEST PUSH1 0x1 DUP3 ADD SWAP1 POP SWAP2 SWAP1 POP JUMP JUMPDEST PUSH0 DUP2 SWAP1 POP DUP2 PUSH0 MSTORE PUSH1 0x20 PUSH0 KECCAK256 SWAP1 POP SWAP2 SWAP1 POP JUMP JUMPDEST PUSH0 PUSH1 0x20 PUSH1 0x1F DUP4 ADD DIV SWAP1 POP SWAP2 SWAP1 POP JUMP JUMPDEST PUSH0 DUP3 DUP3 SHL SWAP1 POP SWAP3 SWAP2 POP POP JUMP JUMPDEST PUSH0 PUSH1 0x8 DUP4 MUL PUSH2 0x10BC PUSH32 0xFFFFFFFFFFFFFFFFFFFFFFFFFFFFFFFFFFFFFFFFFFFFFFFFFFFFFFFFFFFFFFFF DUP3 PUSH2 0x1081 JUMP JUMPDEST PUSH2 0x10C6 DUP7 DUP4 PUSH2 0x1081 JUMP JUMPDEST SWAP6 POP DUP1 NOT DUP5 AND SWAP4 POP DUP1 DUP7 AND DUP5 OR SWAP3 POP POP POP SWAP4 SWAP3 POP POP POP JUMP JUMPDEST PUSH0 DUP2 SWAP1 POP SWAP2 SWAP1 POP JUMP JUMPDEST PUSH0 PUSH2 0x1101 PUSH2 0x10FC PUSH2 0x10F7 DUP5 PUSH2 0xA75 JUMP JUMPDEST PUSH2 0x10DE JUMP JUMPDEST PUSH2 0xA75 JUMP JUMPDEST SWAP1 POP SWAP2 SWAP1 POP JUMP JUMPDEST PUSH0 DUP2 SWAP1 POP SWAP2 SWAP1 POP JUMP JUMPDEST PUSH2 0x111A DUP4 PUSH2 0x10E7 JUMP JUMPDEST PUSH2 0x112E PUSH2 0x1126 DUP3 PUSH2 0x1108 JUMP JUMPDEST DUP5 DUP5 SLOAD PUSH2 0x108D JUMP JUMPDEST DUP3 SSTORE POP POP POP POP JUMP JUMPDEST PUSH0 PUSH0 SWAP1 POP SWAP1 JUMP JUMPDEST PUSH2 0x1145 PUSH2 0x1136 JUMP JUMPDEST PUSH2 0x1150 DUP2 DUP5 DUP5 PUSH2 0x1111 JUMP JUMPDEST POP POP POP JUMP JUMPDEST JUMPDEST DUP2 DUP2 LT ISZERO PUSH2 0x1173 JUMPI PUSH2 0x1168 PUSH0 DUP3 PUSH2 0x113D JUMP JUMPDEST PUSH1 0x1 DUP2 ADD SWAP1 POP PUSH2 0x1156 JUMP JUMPDEST POP POP JUMP JUMPDEST PUSH1 0x1F DUP3 GT ISZERO PUSH2 0x11B8 JUMPI PUSH2 0x1189 DUP2 PUSH2 0x1060 JUMP JUMPDEST PUSH2 0x1192 DUP5 PUSH2 0x1072 JUMP JUMPDEST DUP2 ADD PUSH1 0x20 DUP6 LT ISZERO PUSH2 0x11A1 JUMPI DUP2 SWAP1 POP JUMPDEST PUSH2 0x11B5 PUSH2 0x11AD DUP6 PUSH2 0x1072 JUMP JUMPDEST DUP4 ADD DUP3 PUSH2 0x1155 JUMP JUMPDEST POP POP JUMPDEST POP POP POP JUMP JUMPDEST PUSH0 DUP3 DUP3 SHR SWAP1 POP SWAP3 SWAP2 POP POP JUMP JUMPDEST PUSH0 PUSH2 0x11D8 PUSH0 NOT DUP5 PUSH1 0x8 MUL PUSH2 0x11BD JUMP JUMPDEST NOT DUP1 DUP4 AND SWAP2 POP POP SWAP3 SWAP2 POP POP JUMP JUMPDEST PUSH0 PUSH2 0x11F0 DUP4 DUP4 PUSH2 0x11C9 JUMP JUMPDEST SWAP2 POP DUP3 PUSH1 0x2 MUL DUP3 OR SWAP1 POP SWAP3 SWAP2 POP POP JUMP JUMPDEST PUSH2 0x1209 DUP3 PUSH2 0xB21 JUMP JUMPDEST PUSH8 0xFFFFFFFFFFFFFFFF DUP2 GT ISZERO PUSH2 0x1222 JUMPI PUSH2 0x1221 PUSH2 0xC92 JUMP JUMPDEST JUMPDEST PUSH2 0x122C DUP3 SLOAD PUSH2 0xE84 JUMP JUMPDEST PUSH2 0x1237 DUP3 DUP3 DUP6 PUSH2 0x1177 JUMP JUMPDEST PUSH0 PUSH1 0x20 SWAP1 POP PUSH1 0x1F DUP4 GT PUSH1 0x1 DUP2 EQ PUSH2 0x1268 JUMPI PUSH0 DUP5 ISZERO PUSH2 0x1256 JUMPI DUP3 DUP8 ADD MLOAD SWAP1 POP JUMPDEST PUSH2 0x1260 DUP6 DUP3 PUSH2 0x11E5 JUMP JUMPDEST DUP7 SSTORE POP PUSH2 0x12C7 JUMP JUMPDEST PUSH1 0x1F NOT DUP5 AND PUSH2 0x1276 DUP7 PUSH2 0x1060 JUMP JUMPDEST PUSH0 JUMPDEST DUP3 DUP2 LT ISZERO PUSH2 0x129D JUMPI DUP5 DUP10 ADD MLOAD DUP3 SSTORE PUSH1 0x1 DUP3 ADD SWAP2 POP PUSH1 0x20 DUP6 ADD SWAP5 POP PUSH1 0x20 DUP2 ADD SWAP1 POP PUSH2 0x1278 JUMP JUMPDEST DUP7 DUP4 LT ISZERO PUSH2 0x12BA JUMPI DUP5 DUP10 ADD MLOAD PUSH2 0x12B6 PUSH1 0x1F DUP10 AND DUP3 PUSH2 0x11C9 JUMP JUMPDEST DUP4 SSTORE POP JUMPDEST PUSH1 0x1 PUSH1 0x2 DUP9 MUL ADD DUP9 SSTORE POP POP POP JUMPDEST POP POP POP POP POP POP JUMP JUMPDEST PUSH0 PUSH1 0x80 DUP3 ADD SWAP1 POP PUSH2 0x12E2 PUSH0 DUP4 ADD DUP8 PUSH2 0xAD3 JUMP JUMPDEST PUSH2 0x12EF PUSH1 0x20 DUP4 ADD DUP7 PUSH2 0xAD3 JUMP JUMPDEST DUP2 DUP2 SUB PUSH1 0x40 DUP4 ADD MSTORE PUSH2 0x1301 DUP2 DUP6 PUSH2 0xB59 JUMP JUMPDEST SWAP1 POP PUSH2 0x1310 PUSH1 0x60 DUP4 ADD DUP5 PUSH2 0xAD3 JUMP JUMPDEST SWAP6 SWAP5 POP POP POP POP POP JUMP JUMPDEST PUSH32 0x436F6E74656E742063616E6E6F7420626520656D707479000000000000000000 PUSH0 DUP3 ADD MSTORE POP JUMP JUMPDEST PUSH0 PUSH2 0x134D PUSH1 0x17 DUP4 PUSH2 0xB2B JUMP JUMPDEST SWAP2 POP PUSH2 0x1358 DUP3 PUSH2 0x1319 JUMP JUMPDEST PUSH1 0x20 DUP3 ADD SWAP1 POP SWAP2 SWAP1 POP JUMP JUMPDEST PUSH0 PUSH1 0x20 DUP3 ADD SWAP1 POP DUP2 DUP2 SUB PUSH0 DUP4 ADD MSTORE PUSH2 0x137A DUP2 PUSH2 0x1341 JUMP JUMPDEST SWAP1 POP SWAP2 SWAP1 POP JUMP JUMPDEST PUSH0 PUSH1 0x60 DUP3 ADD SWAP1 POP PUSH2 0x1394 PUSH0 DUP4 ADD DUP7 PUSH2 0xAD3 JUMP JUMPDEST DUP2 DUP2 SUB PUSH1 0x20 DUP4 ADD MSTORE PUSH2 0x13A6 DUP2 DUP6 PUSH2 0xB59 JUMP JUMPDEST SWAP1 POP PUSH2 0x13B5 PUSH1 0x40 DUP4 ADD DUP5 PUSH2 0xAD3 JUMP JUMPDEST SWAP5 SWAP4 POP POP POP POP JUMP INVALID LOG2 PUSH5 0x6970667358 0x22 SLT KECCAK256 LOG2 0xDB 0xC3 MULMOD EQ PC 0xCF 0xCB EXTCODEHASH 0x22 0xF9 PUSH1 0x88 DUP1 SWAP9 0xCB LT EXTCODESIZE 0xC0 0xED DUP1 0xE 0x4E CALLCODE 0x4B 0xD8 PUSH2 0xF2BD XOR TSTORE 0xB7 PUSH5 0x736F6C6343 STOP ADDMOD SHL STOP CALLER "
		},
		"gasEstimates": {
			"creation": {
				"codeDepositCost": "1021400",
				"executionCost": "6063",
				"totalCost": "1027463"
			},
			"external": {
				"addComment(uint256,string)": "infinite",
				"comments(uint256,uint256)": "infinite",
				"createPost(string)": "infinite",
				"getComment(uint256,uint256)": "infinite",
				"getPost(uint256)": "infinite",
				"postCount()": "2447",
				"posts(uint256)": "infinite"
			}
		},
		"methodIdentifiers": {
			"addComment(uint256,string)": "aa7e5683",
			"comments(uint256,uint256)": "fc6c776f",
			"createPost(string)": "c7303c61",
			"getComment(uint256,uint256)": "48892753",
			"getPost(uint256)": "40731c24",
			"postCount()": "17906c2e",
			"posts(uint256)": "0b1e7f83"
		}
	},
	"abi": [
		{
			"anonymous": false,
			"inputs": [
				{
					"indexed": false,
					"internalType": "uint256",
					"name": "postId",
					"type": "uint256"
				},
				{
					"indexed": false,
					"internalType": "uint256",
					"name": "commentId",
					"type": "uint256"
				},
				{
					"indexed": true,
					"internalType": "address",
					"name": "commenter",
					"type": "address"
				},
				{
					"indexed": false,
					"internalType": "string",
					"name": "content",
					"type": "string"
				},
				{
					"indexed": false,
					"internalType": "uint256",
					"name": "timestamp",
					"type": "uint256"
				}
			],
			"name": "CommentAdded",
			"type": "event"
		},
		{
			"anonymous": false,
			"inputs": [
				{
					"indexed": false,
					"internalType": "uint256",
					"name": "postId",
					"type": "uint256"
				},
				{
					"indexed": true,
					"internalType": "address",
					"name": "author",
					"type": "address"
				},
				{
					"indexed": false,
					"internalType": "string",
					"name": "content",
					"type": "string"
				},
				{
					"indexed": false,
					"internalType": "uint256",
					"name": "timestamp",
					"type": "uint256"
				}
			],
			"name": "PostCreated",
			"type": "event"
		},
		{
			"inputs": [
				{
					"internalType": "uint256",
					"name": "_postId",
					"type": "uint256"
				},
				{
					"internalType": "string",
					"name": "_content",
					"type": "string"
				}
			],
			"name": "addComment",
			"outputs": [],
			"stateMutability": "nonpayable",
			"type": "function"
		},
		{
			"inputs": [
				{
					"internalType": "uint256",
					"name": "",
					"type": "uint256"
				},
				{
					"internalType": "uint256",
					"name": "",
					"type": "uint256"
				}
			],
			"name": "comments",
			"outputs": [
				{
					"internalType": "uint256",
					"name": "id",
					"type": "uint256"
				},
				{
					"internalType": "address",
					"name": "commenter",
					"type": "address"
				},
				{
					"internalType": "string",
					"name": "content",
					"type": "string"
				},
				{
					"internalType": "uint256",
					"name": "timestamp",
					"type": "uint256"
				}
			],
			"stateMutability": "view",
			"type": "function"
		},
		{
			"inputs": [
				{
					"internalType": "string",
					"name": "_content",
					"type": "string"
				}
			],
			"name": "createPost",
			"outputs": [],
			"stateMutability": "nonpayable",
			"type": "function"
		},
		{
			"inputs": [
				{
					"internalType": "uint256",
					"name": "_postId",
					"type": "uint256"
				},
				{
					"internalType": "uint256",
					"name": "_commentId",
					"type": "uint256"
				}
			],
			"name": "getComment",
			"outputs": [
				{
					"internalType": "uint256",
					"name": "",
					"type": "uint256"
				},
				{
					"internalType": "address",
					"name": "",
					"type": "address"
				},
				{
					"internalType": "string",
					"name": "",
					"type": "string"
				},
				{
					"internalType": "uint256",
					"name": "",
					"type": "uint256"
				}
			],
			"stateMutability": "view",
			"type": "function"
		},
		{
			"inputs": [
				{
					"internalType": "uint256",
					"name": "_postId",
					"type": "uint256"
				}
			],
			"name": "getPost",
			"outputs": [
				{
					"internalType": "uint256",
					"name": "",
					"type": "uint256"
				},
				{
					"internalType": "address",
					"name": "",
					"type": "address"
				},
				{
					"internalType": "string",
					"name": "",
					"type": "string"
				},
				{
					"internalType": "uint256",
					"name": "",
					"type": "uint256"
				},
				{
					"internalType": "uint256",
					"name": "",
					"type": "uint256"
				}
			],
			"stateMutability": "view",
			"type": "function"
		},
		{
			"inputs": [],
			"name": "postCount",
			"outputs": [
				{
					"internalType": "uint256",
					"name": "",
					"type": "uint256"
				}
			],
			"stateMutability": "view",
			"type": "function"
		},
		{
			"inputs": [
				{
					"internalType": "uint256",
					"name": "",
					"type": "uint256"
				}
			],
			"name": "posts",
			"outputs": [
				{
					"internalType": "uint256",
					"name": "id",
					"type": "uint256"
				},
				{
					"internalType": "address",
					"name": "author",
					"type": "address"
				},
				{
					"internalType": "string",
					"name": "content",
					"type": "string"
				},
				{
					"internalType": "uint256",
					"name": "commentCount",
					"type": "uint256"
				},
				{
					"internalType": "uint256",
					"name": "timestamp",
					"type": "uint256"
				}
			],
			"stateMutability": "view",
			"type": "function"
		}
	]
}