{
	"data": {
		"bytecode": {
			"linkReferences": {},
			"object": "608060405260645f55603260015560c860025561012c6003553480156022575f80fd5b50610301806100305f395ff3fe608060405234801561000f575f80fd5b5060043610610060575f3560e01c80630e879d26146100645780633323f42914610085578063bd9a548b146100a3578063def0506d146100c4578063e01bce84146100e2578063f9da8b9a14610100575b5f80fd5b61006c61011e565b60405161007c9493929190610201565b60405180910390f35b61008d610138565b60405161009a9190610244565b60405180910390f35b6100ab61013e565b6040516100bb9493929190610201565b60405180910390f35b6100cc61018b565b6040516100d99190610244565b60405180910390f35b6100ea610191565b6040516100f79190610244565b60405180910390f35b610108610197565b6040516101159190610244565b60405180910390f35b5f805f8061012a61019c565b935093509350935090919293565b60035481565b5f805f80600f5f54610150919061028a565b600f60015461015f919061028a565b600f60025461016e919061028a565b600f60035461017d919061028a565b935093509350935090919293565b60015481565b60025481565b5f5481565b5f805f80600a5f546101ae919061028a565b600a6001546101bd919061028a565b600a6002546101cc919061028a565b600a6003546101db919061028a565b935093509350935090919293565b5f819050919050565b6101fb816101e9565b82525050565b5f6080820190506102145f8301876101f2565b61022160208301866101f2565b61022e60408301856101f2565b61023b60608301846101f2565b95945050505050565b5f6020820190506102575f8301846101f2565b92915050565b7f4e487b71000000000000000000000000000000000000000000000000000000005f52601160045260245ffd5b5f610294826101e9565b915061029f836101e9565b92508282026102ad816101e9565b915082820484148315176102c4576102c361025d565b5b509291505056fea26469706673582212206631297c8643852acc05196b2c3caaaf6e553e32f5650492788801cca210428664736f6c634300081a0033",
			"opcodes": "PUSH1 0x80 PUSH1 0x40 MSTORE PUSH1 0x64 PUSH0 SSTORE PUSH1 0x32 PUSH1 0x1 SSTORE PUSH1 0xC8 PUSH1 0x2 SSTORE PUSH2 0x12C PUSH1 0x3 SSTORE CALLVALUE DUP1 ISZERO PUSH1 0x22 JUMPI PUSH0 DUP1 REVERT JUMPDEST POP PUSH2 0x301 DUP1 PUSH2 0x30 PUSH0 CODECOPY PUSH0 RETURN INVALID PUSH1 0x80 PUSH1 0x40 MSTORE CALLVALUE DUP1 ISZERO PUSH2 0xF JUMPI PUSH0 DUP1 REVERT JUMPDEST POP PUSH1 0x4 CALLDATASIZE LT PUSH2 0x60 JUMPI PUSH0 CALLDATALOAD PUSH1 0xE0 SHR DUP1 PUSH4 0xE879D26 EQ PUSH2 0x64 JUMPI DUP1 PUSH4 0x3323F429 EQ PUSH2 0x85 JUMPI DUP1 PUSH4 0xBD9A548B EQ PUSH2 0xA3 JUMPI DUP1 PUSH4 0xDEF0506D EQ PUSH2 0xC4 JUMPI DUP1 PUSH4 0xE01BCE84 EQ PUSH2 0xE2 JUMPI DUP1 PUSH4 0xF9DA8B9A EQ PUSH2 0x100 JUMPI JUMPDEST PUSH0 DUP1 REVERT JUMPDEST PUSH2 0x6C PUSH2 0x11E JUMP JUMPDEST PUSH1 0x40 MLOAD PUSH2 0x7C SWAP5 SWAP4 SWAP3 SWAP2 SWAP1 PUSH2 0x201 JUMP JUMPDEST PUSH1 0x40 MLOAD DUP1 SWAP2 SUB SWAP1 RETURN JUMPDEST PUSH2 0x8D PUSH2 0x138 JUMP JUMPDEST PUSH1 0x40 MLOAD PUSH2 0x9A SWAP2 SWAP1 PUSH2 0x244 JUMP JUMPDEST PUSH1 0x40 MLOAD DUP1 SWAP2 SUB SWAP1 RETURN JUMPDEST PUSH2 0xAB PUSH2 0x13E JUMP JUMPDEST PUSH1 0x40 MLOAD PUSH2 0xBB SWAP5 SWAP4 SWAP3 SWAP2 SWAP1 PUSH2 0x201 JUMP JUMPDEST PUSH1 0x40 MLOAD DUP1 SWAP2 SUB SWAP1 RETURN JUMPDEST PUSH2 0xCC PUSH2 0x18B JUMP JUMPDEST PUSH1 0x40 MLOAD PUSH2 0xD9 SWAP2 SWAP1 PUSH2 0x244 JUMP JUMPDEST PUSH1 0x40 MLOAD DUP1 SWAP2 SUB SWAP1 RETURN JUMPDEST PUSH2 0xEA PUSH2 0x191 JUMP JUMPDEST PUSH1 0x40 MLOAD PUSH2 0xF7 SWAP2 SWAP1 PUSH2 0x244 JUMP JUMPDEST PUSH1 0x40 MLOAD DUP1 SWAP2 SUB SWAP1 RETURN JUMPDEST PUSH2 0x108 PUSH2 0x197 JUMP JUMPDEST PUSH1 0x40 MLOAD PUSH2 0x115 SWAP2 SWAP1 PUSH2 0x244 JUMP JUMPDEST PUSH1 0x40 MLOAD DUP1 SWAP2 SUB SWAP1 RETURN JUMPDEST PUSH0 DUP1 PUSH0 DUP1 PUSH2 0x12A PUSH2 0x19C JUMP JUMPDEST SWAP4 POP SWAP4 POP SWAP4 POP SWAP4 POP SWAP1 SWAP2 SWAP3 SWAP4 JUMP JUMPDEST PUSH1 0x3 SLOAD DUP2 JUMP JUMPDEST PUSH0 DUP1 PUSH0 DUP1 PUSH1 0xF PUSH0 SLOAD PUSH2 0x150 SWAP2 SWAP1 PUSH2 0x28A JUMP JUMPDEST PUSH1 0xF PUSH1 0x1 SLOAD PUSH2 0x15F SWAP2 SWAP1 PUSH2 0x28A JUMP JUMPDEST PUSH1 0xF PUSH1 0x2 SLOAD PUSH2 0x16E SWAP2 SWAP1 PUSH2 0x28A JUMP JUMPDEST PUSH1 0xF PUSH1 0x3 SLOAD PUSH2 0x17D SWAP2 SWAP1 PUSH2 0x28A JUMP JUMPDEST SWAP4 POP SWAP4 POP SWAP4 POP SWAP4 POP SWAP1 SWAP2 SWAP3 SWAP4 JUMP JUMPDEST PUSH1 0x1 SLOAD DUP2 JUMP JUMPDEST PUSH1 0x2 SLOAD DUP2 JUMP JUMPDEST PUSH0 SLOAD DUP2 JUMP JUMPDEST PUSH0 DUP1 PUSH0 DUP1 PUSH1 0xA PUSH0 SLOAD PUSH2 0x1AE SWAP2 SWAP1 PUSH2 0x28A JUMP JUMPDEST PUSH1 0xA PUSH1 0x1 SLOAD PUSH2 0x1BD SWAP2 SWAP1 PUSH2 0x28A JUMP JUMPDEST PUSH1 0xA PUSH1 0x2 SLOAD PUSH2 0x1CC SWAP2 SWAP1 PUSH2 0x28A JUMP JUMPDEST PUSH1 0xA PUSH1 0x3 SLOAD PUSH2 0x1DB SWAP2 SWAP1 PUSH2 0x28A JUMP JUMPDEST SWAP4 POP SWAP4 POP SWAP4 POP SWAP4 POP SWAP1 SWAP2 SWAP3 SWAP4 JUMP JUMPDEST PUSH0 DUP2 SWAP1 POP SWAP2 SWAP1 POP JUMP JUMPDEST PUSH2 0x1FB DUP2 PUSH2 0x1E9 JUMP JUMPDEST DUP3 MSTORE POP POP JUMP JUMPDEST PUSH0 PUSH1 0x80 DUP3 ADD SWAP1 POP PUSH2 0x214 PUSH0 DUP4 ADD DUP8 PUSH2 0x1F2 JUMP JUMPDEST PUSH2 0x221 PUSH1 0x20 DUP4 ADD DUP7 PUSH2 0x1F2 JUMP JUMPDEST PUSH2 0x22E PUSH1 0x40 DUP4 ADD DUP6 PUSH2 0x1F2 JUMP JUMPDEST PUSH2 0x23B PUSH1 0x60 DUP4 ADD DUP5 PUSH2 0x1F2 JUMP JUMPDEST SWAP6 SWAP5 POP POP POP POP POP JUMP JUMPDEST PUSH0 PUSH1 0x20 DUP3 ADD SWAP1 POP PUSH2 0x257 PUSH0 DUP4 ADD DUP5 PUSH2 0x1F2 JUMP JUMPDEST SWAP3 SWAP2 POP POP JUMP JUMPDEST PUSH32 0x4E487B7100000000000000000000000000000000000000000000000000000000 PUSH0 MSTORE PUSH1 0x11 PUSH1 0x4 MSTORE PUSH1 0x24 PUSH0 REVERT JUMPDEST PUSH0 PUSH2 0x294 DUP3 PUSH2 0x1E9 JUMP JUMPDEST SWAP2 POP PUSH2 0x29F DUP4 PUSH2 0x1E9 JUMP JUMPDEST SWAP3 POP DUP3 DUP3 MUL PUSH2 0x2AD DUP2 PUSH2 0x1E9 JUMP JUMPDEST SWAP2 POP DUP3 DUP3 DIV DUP5 EQ DUP4 ISZERO OR PUSH2 0x2C4 JUMPI PUSH2 0x2C3 PUSH2 0x25D JUMP JUMPDEST JUMPDEST POP SWAP3 SWAP2 POP POP JUMP INVALID LOG2 PUSH5 0x6970667358 0x22 SLT KECCAK256 PUSH7 0x31297C8643852A 0xCC SDIV NOT PUSH12 0x2C3CAAAF6E553E32F5650492 PUSH25 0x8801CCA210428664736F6C634300081A003300000000000000 "
		},
		"gasEstimates": {
			"creation": {
				"codeDepositCost": "153800",
				"executionCost": "88623",
				"totalCost": "242423"
			},
			"external": {
				"burgerPrice()": "2491",
				"getIkoroduPrices()": "infinite",
				"getPrices()": "infinite",
				"plateOfRicePrice()": "2512",
				"sharwamaPrice()": "2425",
				"tableWaterPrice()": "2469"
			}
		},
		"methodIdentifiers": {
			"burgerPrice()": "e01bce84",
			"getIkoroduPrices()": "0e879d26",
			"getPrices()": "bd9a548b",
			"plateOfRicePrice()": "f9da8b9a",
			"sharwamaPrice()": "3323f429",
			"tableWaterPrice()": "def0506d"
		}
	},
	"abi": [
		{
			"inputs": [],
			"name": "burgerPrice",
			"outputs": [
				{
					"internalType": "uint256",
					"name": "",
					"type": "uint256"
				}
			],
			"stateMutability": "view",
			"type": "function"
		},
		{
			"inputs": [],
			"name": "getIkoroduPrices",
			"outputs": [
				{
					"internalType": "uint256",
					"name": "",
					"type": "uint256"
				},
				{
					"internalType": "uint256",
					"name": "",
					"type": "uint256"
				},
				{
					"internalType": "uint256",
					"name": "",
					"type": "uint256"
				},
				{
					"internalType": "uint256",
					"name": "",
					"type": "uint256"
				}
			],
			"stateMutability": "view",
			"type": "function"
		},
		{
			"inputs": [],
			"name": "getPrices",
			"outputs": [
				{
					"internalType": "uint256",
					"name": "",
					"type": "uint256"
				},
				{
					"internalType": "uint256",
					"name": "",
					"type": "uint256"
				},
				{
					"internalType": "uint256",
					"name": "",
					"type": "uint256"
				},
				{
					"internalType": "uint256",
					"name": "",
					"type": "uint256"
				}
			],
			"stateMutability": "view",
			"type": "function"
		},
		{
			"inputs": [],
			"name": "plateOfRicePrice",
			"outputs": [
				{
					"internalType": "uint256",
					"name": "",
					"type": "uint256"
				}
			],
			"stateMutability": "view",
			"type": "function"
		},
		{
			"inputs": [],
			"name": "sharwamaPrice",
			"outputs": [
				{
					"internalType": "uint256",
					"name": "",
					"type": "uint256"
				}
			],
			"stateMutability": "view",
			"type": "function"
		},
		{
			"inputs": [],
			"name": "tableWaterPrice",
			"outputs": [
				{
					"internalType": "uint256",
					"name": "",
					"type": "uint256"
				}
			],
			"stateMutability": "view",
			"type": "function"
		}
	]
}