{
	"data": {
		"bytecode": {
			"linkReferences": {},
			"object": "60c0604052683635c9adc5dea0000060809081525069152d02c7e14af680000060a090815250348015610030575f5ffd5b50604051610a94380380610a9483398181016040528101906100529190610176565b815f5f6101000a81548173ffffffffffffffffffffffffffffffffffffffff021916908373ffffffffffffffffffffffffffffffffffffffff1602179055508060015f6101000a81548173ffffffffffffffffffffffffffffffffffffffff021916908373ffffffffffffffffffffffffffffffffffffffff1602179055503360025f6101000a81548173ffffffffffffffffffffffffffffffffffffffff021916908373ffffffffffffffffffffffffffffffffffffffff16021790555050506101b4565b5f5ffd5b5f73ffffffffffffffffffffffffffffffffffffffff82169050919050565b5f6101458261011c565b9050919050565b6101558161013b565b811461015f575f5ffd5b50565b5f815190506101708161014c565b92915050565b5f5f6040838503121561018c5761018b610118565b5b5f61019985828601610162565b92505060206101aa85828601610162565b9150509250929050565b60805160a0516108bf6101d55f395f6101c501525f61019a01526108bf5ff3fe608060405234801561000f575f5ffd5b506004361061003f575f3560e01c806374b28101146100435780637b0472f0146100615780639be2f4ed1461007d575b5f5ffd5b61004b61009b565b60405161005891906104dc565b60405180910390f35b61007b6004803603810190610076919061052c565b6100bf565b005b61008561043d565b60405161009291906104dc565b60405180910390f35b5f5f9054906101000a900473ffffffffffffffffffffffffffffffffffffffff1681565b600360149054906101000a900460ff161561010f576040517f08c379a0000000000000000000000000000000000000000000000000000000008152600401610106906105c4565b60405180910390fd5b6001600360146101000a81548160ff0219169083151502179055505f73ffffffffffffffffffffffffffffffffffffffff163373ffffffffffffffffffffffffffffffffffffffff1603610198576040517f08c379a000000000000000000000000000000000000000000000000000000000815260040161018f9061062c565b60405180910390fd5b7f000000000000000000000000000000000000000000000000000000000000000082101580156101e857507f00000000000000000000000000000000000000000000000000000000000000008211155b610227576040517f08c379a000000000000000000000000000000000000000000000000000000000815260040161021e90610694565b60405180910390fd5b5f8111610269576040517f08c379a0000000000000000000000000000000000000000000000000000000008152600401610260906106fc565b60405180910390fd5b815f5f9054906101000a900473ffffffffffffffffffffffffffffffffffffffff1673ffffffffffffffffffffffffffffffffffffffff166370a08231336040518263ffffffff1660e01b81526004016102c3919061073a565b602060405180830381865afa1580156102de573d5f5f3e3d5ffd5b505050506040513d601f19601f820116820180604052508101906103029190610767565b1015610343576040517f08c379a000000000000000000000000000000000000000000000000000000000815260040161033a906107dc565b60405180910390fd5b815f5f9054906101000a900473ffffffffffffffffffffffffffffffffffffffff1673ffffffffffffffffffffffffffffffffffffffff1663dd62ed3e33306040518363ffffffff1660e01b815260040161039f9291906107fa565b602060405180830381865afa1580156103ba573d5f5f3e3d5ffd5b505050506040513d601f19601f820116820180604052508101906103de9190610767565b101561041f576040517f08c379a00000000000000000000000000000000000000000000000000000000081526004016104169061086b565b60405180910390fd5b5f600360146101000a81548160ff0219169083151502179055505050565b60015f9054906101000a900473ffffffffffffffffffffffffffffffffffffffff1681565b5f73ffffffffffffffffffffffffffffffffffffffff82169050919050565b5f819050919050565b5f6104a461049f61049a84610462565b610481565b610462565b9050919050565b5f6104b58261048a565b9050919050565b5f6104c6826104ab565b9050919050565b6104d6816104bc565b82525050565b5f6020820190506104ef5f8301846104cd565b92915050565b5f5ffd5b5f819050919050565b61050b816104f9565b8114610515575f5ffd5b50565b5f8135905061052681610502565b92915050565b5f5f60408385031215610542576105416104f5565b5b5f61054f85828601610518565b925050602061056085828601610518565b9150509250929050565b5f82825260208201905092915050565b7f4e6f7420616c6c6f77656420746f2072655f656e7465720000000000000000005f82015250565b5f6105ae60178361056a565b91506105b98261057a565b602082019050919050565b5f6020820190508181035f8301526105db816105a2565b9050919050565b7f5a65726f2061646472657373206e6f7420616c6c6f77656400000000000000005f82015250565b5f61061660188361056a565b9150610621826105e2565b602082019050919050565b5f6020820190508181035f8301526106438161060a565b9050919050565b7f416d6f756e74206973206f7574206f662072616e6765000000000000000000005f82015250565b5f61067e60168361056a565b91506106898261064a565b602082019050919050565b5f6020820190508181035f8301526106ab81610672565b9050919050565b7f4475726174696f6e20697320746f6f2073686f727400000000000000000000005f82015250565b5f6106e660158361056a565b91506106f1826106b2565b602082019050919050565b5f6020820190508181035f830152610713816106da565b9050919050565b5f61072482610462565b9050919050565b6107348161071a565b82525050565b5f60208201905061074d5f83018461072b565b92915050565b5f8151905061076181610502565b92915050565b5f6020828403121561077c5761077b6104f5565b5b5f61078984828501610753565b91505092915050565b7f596f7520646f6e2774206861766520656e6f75676800000000000000000000005f82015250565b5f6107c660158361056a565b91506107d182610792565b602082019050919050565b5f6020820190508181035f8301526107f3816107ba565b9050919050565b5f60408201905061080d5f83018561072b565b61081a602083018461072b565b9392505050565b7f416d6f756e7420616c6c6f776564206973206e6f7420656e6f756768000000005f82015250565b5f610855601c8361056a565b915061086082610821565b602082019050919050565b5f6020820190508181035f83015261088281610849565b905091905056fea2646970667358221220d5a1c6bf5d3d0e350ac01649fec88f8054c2c54e28bd3b112243b9e3249beca964736f6c634300081b0033",
			"opcodes": "PUSH1 0xC0 PUSH1 0x40 MSTORE PUSH9 0x3635C9ADC5DEA00000 PUSH1 0x80 SWAP1 DUP2 MSTORE POP PUSH10 0x152D02C7E14AF6800000 PUSH1 0xA0 SWAP1 DUP2 MSTORE POP CALLVALUE DUP1 ISZERO PUSH2 0x30 JUMPI PUSH0 PUSH0 REVERT JUMPDEST POP PUSH1 0x40 MLOAD PUSH2 0xA94 CODESIZE SUB DUP1 PUSH2 0xA94 DUP4 CODECOPY DUP2 DUP2 ADD PUSH1 0x40 MSTORE DUP2 ADD SWAP1 PUSH2 0x52 SWAP2 SWAP1 PUSH2 0x176 JUMP JUMPDEST DUP2 PUSH0 PUSH0 PUSH2 0x100 EXP DUP2 SLOAD DUP2 PUSH20 0xFFFFFFFFFFFFFFFFFFFFFFFFFFFFFFFFFFFFFFFF MUL NOT AND SWAP1 DUP4 PUSH20 0xFFFFFFFFFFFFFFFFFFFFFFFFFFFFFFFFFFFFFFFF AND MUL OR SWAP1 SSTORE POP DUP1 PUSH1 0x1 PUSH0 PUSH2 0x100 EXP DUP2 SLOAD DUP2 PUSH20 0xFFFFFFFFFFFFFFFFFFFFFFFFFFFFFFFFFFFFFFFF MUL NOT AND SWAP1 DUP4 PUSH20 0xFFFFFFFFFFFFFFFFFFFFFFFFFFFFFFFFFFFFFFFF AND MUL OR SWAP1 SSTORE POP CALLER PUSH1 0x2 PUSH0 PUSH2 0x100 EXP DUP2 SLOAD DUP2 PUSH20 0xFFFFFFFFFFFFFFFFFFFFFFFFFFFFFFFFFFFFFFFF MUL NOT AND SWAP1 DUP4 PUSH20 0xFFFFFFFFFFFFFFFFFFFFFFFFFFFFFFFFFFFFFFFF AND MUL OR SWAP1 SSTORE POP POP POP PUSH2 0x1B4 JUMP JUMPDEST PUSH0 PUSH0 REVERT JUMPDEST PUSH0 PUSH20 0xFFFFFFFFFFFFFFFFFFFFFFFFFFFFFFFFFFFFFFFF DUP3 AND SWAP1 POP SWAP2 SWAP1 POP JUMP JUMPDEST PUSH0 PUSH2 0x145 DUP3 PUSH2 0x11C JUMP JUMPDEST SWAP1 POP SWAP2 SWAP1 POP JUMP JUMPDEST PUSH2 0x155 DUP2 PUSH2 0x13B JUMP JUMPDEST DUP2 EQ PUSH2 0x15F JUMPI PUSH0 PUSH0 REVERT JUMPDEST POP JUMP JUMPDEST PUSH0 DUP2 MLOAD SWAP1 POP PUSH2 0x170 DUP2 PUSH2 0x14C JUMP JUMPDEST SWAP3 SWAP2 POP POP JUMP JUMPDEST PUSH0 PUSH0 PUSH1 0x40 DUP4 DUP6 SUB SLT ISZERO PUSH2 0x18C JUMPI PUSH2 0x18B PUSH2 0x118 JUMP JUMPDEST JUMPDEST PUSH0 PUSH2 0x199 DUP6 DUP3 DUP7 ADD PUSH2 0x162 JUMP JUMPDEST SWAP3 POP POP PUSH1 0x20 PUSH2 0x1AA DUP6 DUP3 DUP7 ADD PUSH2 0x162 JUMP JUMPDEST SWAP2 POP POP SWAP3 POP SWAP3 SWAP1 POP JUMP JUMPDEST PUSH1 0x80 MLOAD PUSH1 0xA0 MLOAD PUSH2 0x8BF PUSH2 0x1D5 PUSH0 CODECOPY PUSH0 PUSH2 0x1C5 ADD MSTORE PUSH0 PUSH2 0x19A ADD MSTORE PUSH2 0x8BF PUSH0 RETURN INVALID PUSH1 0x80 PUSH1 0x40 MSTORE CALLVALUE DUP1 ISZERO PUSH2 0xF JUMPI PUSH0 PUSH0 REVERT JUMPDEST POP PUSH1 0x4 CALLDATASIZE LT PUSH2 0x3F JUMPI PUSH0 CALLDATALOAD PUSH1 0xE0 SHR DUP1 PUSH4 0x74B28101 EQ PUSH2 0x43 JUMPI DUP1 PUSH4 0x7B0472F0 EQ PUSH2 0x61 JUMPI DUP1 PUSH4 0x9BE2F4ED EQ PUSH2 0x7D JUMPI JUMPDEST PUSH0 PUSH0 REVERT JUMPDEST PUSH2 0x4B PUSH2 0x9B JUMP JUMPDEST PUSH1 0x40 MLOAD PUSH2 0x58 SWAP2 SWAP1 PUSH2 0x4DC JUMP JUMPDEST PUSH1 0x40 MLOAD DUP1 SWAP2 SUB SWAP1 RETURN JUMPDEST PUSH2 0x7B PUSH1 0x4 DUP1 CALLDATASIZE SUB DUP2 ADD SWAP1 PUSH2 0x76 SWAP2 SWAP1 PUSH2 0x52C JUMP JUMPDEST PUSH2 0xBF JUMP JUMPDEST STOP JUMPDEST PUSH2 0x85 PUSH2 0x43D JUMP JUMPDEST PUSH1 0x40 MLOAD PUSH2 0x92 SWAP2 SWAP1 PUSH2 0x4DC JUMP JUMPDEST PUSH1 0x40 MLOAD DUP1 SWAP2 SUB SWAP1 RETURN JUMPDEST PUSH0 PUSH0 SWAP1 SLOAD SWAP1 PUSH2 0x100 EXP SWAP1 DIV PUSH20 0xFFFFFFFFFFFFFFFFFFFFFFFFFFFFFFFFFFFFFFFF AND DUP2 JUMP JUMPDEST PUSH1 0x3 PUSH1 0x14 SWAP1 SLOAD SWAP1 PUSH2 0x100 EXP SWAP1 DIV PUSH1 0xFF AND ISZERO PUSH2 0x10F JUMPI PUSH1 0x40 MLOAD PUSH32 0x8C379A000000000000000000000000000000000000000000000000000000000 DUP2 MSTORE PUSH1 0x4 ADD PUSH2 0x106 SWAP1 PUSH2 0x5C4 JUMP JUMPDEST PUSH1 0x40 MLOAD DUP1 SWAP2 SUB SWAP1 REVERT JUMPDEST PUSH1 0x1 PUSH1 0x3 PUSH1 0x14 PUSH2 0x100 EXP DUP2 SLOAD DUP2 PUSH1 0xFF MUL NOT AND SWAP1 DUP4 ISZERO ISZERO MUL OR SWAP1 SSTORE POP PUSH0 PUSH20 0xFFFFFFFFFFFFFFFFFFFFFFFFFFFFFFFFFFFFFFFF AND CALLER PUSH20 0xFFFFFFFFFFFFFFFFFFFFFFFFFFFFFFFFFFFFFFFF AND SUB PUSH2 0x198 JUMPI PUSH1 0x40 MLOAD PUSH32 0x8C379A000000000000000000000000000000000000000000000000000000000 DUP2 MSTORE PUSH1 0x4 ADD PUSH2 0x18F SWAP1 PUSH2 0x62C JUMP JUMPDEST PUSH1 0x40 MLOAD DUP1 SWAP2 SUB SWAP1 REVERT JUMPDEST PUSH32 0x0 DUP3 LT ISZERO DUP1 ISZERO PUSH2 0x1E8 JUMPI POP PUSH32 0x0 DUP3 GT ISZERO JUMPDEST PUSH2 0x227 JUMPI PUSH1 0x40 MLOAD PUSH32 0x8C379A000000000000000000000000000000000000000000000000000000000 DUP2 MSTORE PUSH1 0x4 ADD PUSH2 0x21E SWAP1 PUSH2 0x694 JUMP JUMPDEST PUSH1 0x40 MLOAD DUP1 SWAP2 SUB SWAP1 REVERT JUMPDEST PUSH0 DUP2 GT PUSH2 0x269 JUMPI PUSH1 0x40 MLOAD PUSH32 0x8C379A000000000000000000000000000000000000000000000000000000000 DUP2 MSTORE PUSH1 0x4 ADD PUSH2 0x260 SWAP1 PUSH2 0x6FC JUMP JUMPDEST PUSH1 0x40 MLOAD DUP1 SWAP2 SUB SWAP1 REVERT JUMPDEST DUP2 PUSH0 PUSH0 SWAP1 SLOAD SWAP1 PUSH2 0x100 EXP SWAP1 DIV PUSH20 0xFFFFFFFFFFFFFFFFFFFFFFFFFFFFFFFFFFFFFFFF AND PUSH20 0xFFFFFFFFFFFFFFFFFFFFFFFFFFFFFFFFFFFFFFFF AND PUSH4 0x70A08231 CALLER PUSH1 0x40 MLOAD DUP3 PUSH4 0xFFFFFFFF AND PUSH1 0xE0 SHL DUP2 MSTORE PUSH1 0x4 ADD PUSH2 0x2C3 SWAP2 SWAP1 PUSH2 0x73A JUMP JUMPDEST PUSH1 0x20 PUSH1 0x40 MLOAD DUP1 DUP4 SUB DUP2 DUP7 GAS STATICCALL ISZERO DUP1 ISZERO PUSH2 0x2DE JUMPI RETURNDATASIZE PUSH0 PUSH0 RETURNDATACOPY RETURNDATASIZE PUSH0 REVERT JUMPDEST POP POP POP POP PUSH1 0x40 MLOAD RETURNDATASIZE PUSH1 0x1F NOT PUSH1 0x1F DUP3 ADD AND DUP3 ADD DUP1 PUSH1 0x40 MSTORE POP DUP2 ADD SWAP1 PUSH2 0x302 SWAP2 SWAP1 PUSH2 0x767 JUMP JUMPDEST LT ISZERO PUSH2 0x343 JUMPI PUSH1 0x40 MLOAD PUSH32 0x8C379A000000000000000000000000000000000000000000000000000000000 DUP2 MSTORE PUSH1 0x4 ADD PUSH2 0x33A SWAP1 PUSH2 0x7DC JUMP JUMPDEST PUSH1 0x40 MLOAD DUP1 SWAP2 SUB SWAP1 REVERT JUMPDEST DUP2 PUSH0 PUSH0 SWAP1 SLOAD SWAP1 PUSH2 0x100 EXP SWAP1 DIV PUSH20 0xFFFFFFFFFFFFFFFFFFFFFFFFFFFFFFFFFFFFFFFF AND PUSH20 0xFFFFFFFFFFFFFFFFFFFFFFFFFFFFFFFFFFFFFFFF AND PUSH4 0xDD62ED3E CALLER ADDRESS PUSH1 0x40 MLOAD DUP4 PUSH4 0xFFFFFFFF AND PUSH1 0xE0 SHL DUP2 MSTORE PUSH1 0x4 ADD PUSH2 0x39F SWAP3 SWAP2 SWAP1 PUSH2 0x7FA JUMP JUMPDEST PUSH1 0x20 PUSH1 0x40 MLOAD DUP1 DUP4 SUB DUP2 DUP7 GAS STATICCALL ISZERO DUP1 ISZERO PUSH2 0x3BA JUMPI RETURNDATASIZE PUSH0 PUSH0 RETURNDATACOPY RETURNDATASIZE PUSH0 REVERT JUMPDEST POP POP POP POP PUSH1 0x40 MLOAD RETURNDATASIZE PUSH1 0x1F NOT PUSH1 0x1F DUP3 ADD AND DUP3 ADD DUP1 PUSH1 0x40 MSTORE POP DUP2 ADD SWAP1 PUSH2 0x3DE SWAP2 SWAP1 PUSH2 0x767 JUMP JUMPDEST LT ISZERO PUSH2 0x41F JUMPI PUSH1 0x40 MLOAD PUSH32 0x8C379A000000000000000000000000000000000000000000000000000000000 DUP2 MSTORE PUSH1 0x4 ADD PUSH2 0x416 SWAP1 PUSH2 0x86B JUMP JUMPDEST PUSH1 0x40 MLOAD DUP1 SWAP2 SUB SWAP1 REVERT JUMPDEST PUSH0 PUSH1 0x3 PUSH1 0x14 PUSH2 0x100 EXP DUP2 SLOAD DUP2 PUSH1 0xFF MUL NOT AND SWAP1 DUP4 ISZERO ISZERO MUL OR SWAP1 SSTORE POP POP POP JUMP JUMPDEST PUSH1 0x1 PUSH0 SWAP1 SLOAD SWAP1 PUSH2 0x100 EXP SWAP1 DIV PUSH20 0xFFFFFFFFFFFFFFFFFFFFFFFFFFFFFFFFFFFFFFFF AND DUP2 JUMP JUMPDEST PUSH0 PUSH20 0xFFFFFFFFFFFFFFFFFFFFFFFFFFFFFFFFFFFFFFFF DUP3 AND SWAP1 POP SWAP2 SWAP1 POP JUMP JUMPDEST PUSH0 DUP2 SWAP1 POP SWAP2 SWAP1 POP JUMP JUMPDEST PUSH0 PUSH2 0x4A4 PUSH2 0x49F PUSH2 0x49A DUP5 PUSH2 0x462 JUMP JUMPDEST PUSH2 0x481 JUMP JUMPDEST PUSH2 0x462 JUMP JUMPDEST SWAP1 POP SWAP2 SWAP1 POP JUMP JUMPDEST PUSH0 PUSH2 0x4B5 DUP3 PUSH2 0x48A JUMP JUMPDEST SWAP1 POP SWAP2 SWAP1 POP JUMP JUMPDEST PUSH0 PUSH2 0x4C6 DUP3 PUSH2 0x4AB JUMP JUMPDEST SWAP1 POP SWAP2 SWAP1 POP JUMP JUMPDEST PUSH2 0x4D6 DUP2 PUSH2 0x4BC JUMP JUMPDEST DUP3 MSTORE POP POP JUMP JUMPDEST PUSH0 PUSH1 0x20 DUP3 ADD SWAP1 POP PUSH2 0x4EF PUSH0 DUP4 ADD DUP5 PUSH2 0x4CD JUMP JUMPDEST SWAP3 SWAP2 POP POP JUMP JUMPDEST PUSH0 PUSH0 REVERT JUMPDEST PUSH0 DUP2 SWAP1 POP SWAP2 SWAP1 POP JUMP JUMPDEST PUSH2 0x50B DUP2 PUSH2 0x4F9 JUMP JUMPDEST DUP2 EQ PUSH2 0x515 JUMPI PUSH0 PUSH0 REVERT JUMPDEST POP JUMP JUMPDEST PUSH0 DUP2 CALLDATALOAD SWAP1 POP PUSH2 0x526 DUP2 PUSH2 0x502 JUMP JUMPDEST SWAP3 SWAP2 POP POP JUMP JUMPDEST PUSH0 PUSH0 PUSH1 0x40 DUP4 DUP6 SUB SLT ISZERO PUSH2 0x542 JUMPI PUSH2 0x541 PUSH2 0x4F5 JUMP JUMPDEST JUMPDEST PUSH0 PUSH2 0x54F DUP6 DUP3 DUP7 ADD PUSH2 0x518 JUMP JUMPDEST SWAP3 POP POP PUSH1 0x20 PUSH2 0x560 DUP6 DUP3 DUP7 ADD PUSH2 0x518 JUMP JUMPDEST SWAP2 POP POP SWAP3 POP SWAP3 SWAP1 POP JUMP JUMPDEST PUSH0 DUP3 DUP3 MSTORE PUSH1 0x20 DUP3 ADD SWAP1 POP SWAP3 SWAP2 POP POP JUMP JUMPDEST PUSH32 0x4E6F7420616C6C6F77656420746F2072655F656E746572000000000000000000 PUSH0 DUP3 ADD MSTORE POP JUMP JUMPDEST PUSH0 PUSH2 0x5AE PUSH1 0x17 DUP4 PUSH2 0x56A JUMP JUMPDEST SWAP2 POP PUSH2 0x5B9 DUP3 PUSH2 0x57A JUMP JUMPDEST PUSH1 0x20 DUP3 ADD SWAP1 POP SWAP2 SWAP1 POP JUMP JUMPDEST PUSH0 PUSH1 0x20 DUP3 ADD SWAP1 POP DUP2 DUP2 SUB PUSH0 DUP4 ADD MSTORE PUSH2 0x5DB DUP2 PUSH2 0x5A2 JUMP JUMPDEST SWAP1 POP SWAP2 SWAP1 POP JUMP JUMPDEST PUSH32 0x5A65726F2061646472657373206E6F7420616C6C6F7765640000000000000000 PUSH0 DUP3 ADD MSTORE POP JUMP JUMPDEST PUSH0 PUSH2 0x616 PUSH1 0x18 DUP4 PUSH2 0x56A JUMP JUMPDEST SWAP2 POP PUSH2 0x621 DUP3 PUSH2 0x5E2 JUMP JUMPDEST PUSH1 0x20 DUP3 ADD SWAP1 POP SWAP2 SWAP1 POP JUMP JUMPDEST PUSH0 PUSH1 0x20 DUP3 ADD SWAP1 POP DUP2 DUP2 SUB PUSH0 DUP4 ADD MSTORE PUSH2 0x643 DUP2 PUSH2 0x60A JUMP JUMPDEST SWAP1 POP SWAP2 SWAP1 POP JUMP JUMPDEST PUSH32 0x416D6F756E74206973206F7574206F662072616E676500000000000000000000 PUSH0 DUP3 ADD MSTORE POP JUMP JUMPDEST PUSH0 PUSH2 0x67E PUSH1 0x16 DUP4 PUSH2 0x56A JUMP JUMPDEST SWAP2 POP PUSH2 0x689 DUP3 PUSH2 0x64A JUMP JUMPDEST PUSH1 0x20 DUP3 ADD SWAP1 POP SWAP2 SWAP1 POP JUMP JUMPDEST PUSH0 PUSH1 0x20 DUP3 ADD SWAP1 POP DUP2 DUP2 SUB PUSH0 DUP4 ADD MSTORE PUSH2 0x6AB DUP2 PUSH2 0x672 JUMP JUMPDEST SWAP1 POP SWAP2 SWAP1 POP JUMP JUMPDEST PUSH32 0x4475726174696F6E20697320746F6F2073686F72740000000000000000000000 PUSH0 DUP3 ADD MSTORE POP JUMP JUMPDEST PUSH0 PUSH2 0x6E6 PUSH1 0x15 DUP4 PUSH2 0x56A JUMP JUMPDEST SWAP2 POP PUSH2 0x6F1 DUP3 PUSH2 0x6B2 JUMP JUMPDEST PUSH1 0x20 DUP3 ADD SWAP1 POP SWAP2 SWAP1 POP JUMP JUMPDEST PUSH0 PUSH1 0x20 DUP3 ADD SWAP1 POP DUP2 DUP2 SUB PUSH0 DUP4 ADD MSTORE PUSH2 0x713 DUP2 PUSH2 0x6DA JUMP JUMPDEST SWAP1 POP SWAP2 SWAP1 POP JUMP JUMPDEST PUSH0 PUSH2 0x724 DUP3 PUSH2 0x462 JUMP JUMPDEST SWAP1 POP SWAP2 SWAP1 POP JUMP JUMPDEST PUSH2 0x734 DUP2 PUSH2 0x71A JUMP JUMPDEST DUP3 MSTORE POP POP JUMP JUMPDEST PUSH0 PUSH1 0x20 DUP3 ADD SWAP1 POP PUSH2 0x74D PUSH0 DUP4 ADD DUP5 PUSH2 0x72B JUMP JUMPDEST SWAP3 SWAP2 POP POP JUMP JUMPDEST PUSH0 DUP2 MLOAD SWAP1 POP PUSH2 0x761 DUP2 PUSH2 0x502 JUMP JUMPDEST SWAP3 SWAP2 POP POP JUMP JUMPDEST PUSH0 PUSH1 0x20 DUP3 DUP5 SUB SLT ISZERO PUSH2 0x77C JUMPI PUSH2 0x77B PUSH2 0x4F5 JUMP JUMPDEST JUMPDEST PUSH0 PUSH2 0x789 DUP5 DUP3 DUP6 ADD PUSH2 0x753 JUMP JUMPDEST SWAP2 POP POP SWAP3 SWAP2 POP POP JUMP JUMPDEST PUSH32 0x596F7520646F6E2774206861766520656E6F7567680000000000000000000000 PUSH0 DUP3 ADD MSTORE POP JUMP JUMPDEST PUSH0 PUSH2 0x7C6 PUSH1 0x15 DUP4 PUSH2 0x56A JUMP JUMPDEST SWAP2 POP PUSH2 0x7D1 DUP3 PUSH2 0x792 JUMP JUMPDEST PUSH1 0x20 DUP3 ADD SWAP1 POP SWAP2 SWAP1 POP JUMP JUMPDEST PUSH0 PUSH1 0x20 DUP3 ADD SWAP1 POP DUP2 DUP2 SUB PUSH0 DUP4 ADD MSTORE PUSH2 0x7F3 DUP2 PUSH2 0x7BA JUMP JUMPDEST SWAP1 POP SWAP2 SWAP1 POP JUMP JUMPDEST PUSH0 PUSH1 0x40 DUP3 ADD SWAP1 POP PUSH2 0x80D PUSH0 DUP4 ADD DUP6 PUSH2 0x72B JUMP JUMPDEST PUSH2 0x81A PUSH1 0x20 DUP4 ADD DUP5 PUSH2 0x72B JUMP JUMPDEST SWAP4 SWAP3 POP POP POP JUMP JUMPDEST PUSH32 0x416D6F756E7420616C6C6F776564206973206E6F7420656E6F75676800000000 PUSH0 DUP3 ADD MSTORE POP JUMP JUMPDEST PUSH0 PUSH2 0x855 PUSH1 0x1C DUP4 PUSH2 0x56A JUMP JUMPDEST SWAP2 POP PUSH2 0x860 DUP3 PUSH2 0x821 JUMP JUMPDEST PUSH1 0x20 DUP3 ADD SWAP1 POP SWAP2 SWAP1 POP JUMP JUMPDEST PUSH0 PUSH1 0x20 DUP3 ADD SWAP1 POP DUP2 DUP2 SUB PUSH0 DUP4 ADD MSTORE PUSH2 0x882 DUP2 PUSH2 0x849 JUMP JUMPDEST SWAP1 POP SWAP2 SWAP1 POP JUMP INVALID LOG2 PUSH5 0x6970667358 0x22 SLT KECCAK256 0xD5 LOG1 0xC6 0xBF TSTORE RETURNDATASIZE 0xE CALLDATALOAD EXP 0xC0 AND BLOBHASH INVALID 0xC8 DUP16 DUP1 SLOAD 0xC2 0xC5 0x4E 0x28 0xBD EXTCODESIZE GT 0x22 NUMBER 0xB9 0xE3 0x24 SWAP12 0xEC 0xA9 PUSH5 0x736F6C6343 STOP ADDMOD SHL STOP CALLER "
		},
		"gasEstimates": {
			"creation": {
				"codeDepositCost": "447800",
				"executionCost": "infinite",
				"totalCost": "infinite"
			},
			"external": {
				"MPXContract()": "infinite",
				"XFIContract()": "infinite",
				"stake(uint256,uint256)": "infinite"
			}
		},
		"methodIdentifiers": {
			"MPXContract()": "9be2f4ed",
			"XFIContract()": "74b28101",
			"stake(uint256,uint256)": "7b0472f0"
		}
	},
	"abi": [
		{
			"inputs": [
				{
					"internalType": "address",
					"name": "_xfiAddress",
					"type": "address"
				},
				{
					"internalType": "address",
					"name": "_mpxAddress",
					"type": "address"
				}
			],
			"stateMutability": "nonpayable",
			"type": "constructor"
		},
		{
			"anonymous": false,
			"inputs": [
				{
					"indexed": true,
					"internalType": "address",
					"name": "staker",
					"type": "address"
				},
				{
					"indexed": false,
					"internalType": "uint256",
					"name": "amount",
					"type": "uint256"
				},
				{
					"indexed": true,
					"internalType": "uint256",
					"name": "startTime",
					"type": "uint256"
				}
			],
			"name": "DepositSuccessful",
			"type": "event"
		},
		{
			"anonymous": false,
			"inputs": [
				{
					"indexed": true,
					"internalType": "address",
					"name": "previousOwner",
					"type": "address"
				},
				{
					"indexed": true,
					"internalType": "address",
					"name": "newOwner",
					"type": "address"
				}
			],
			"name": "OwnershipTransfered",
			"type": "event"
		},
		{
			"anonymous": false,
			"inputs": [
				{
					"indexed": true,
					"internalType": "address",
					"name": "staker",
					"type": "address"
				},
				{
					"indexed": false,
					"internalType": "uint256",
					"name": "amount",
					"type": "uint256"
				},
				{
					"indexed": true,
					"internalType": "uint256",
					"name": "duration",
					"type": "uint256"
				}
			],
			"name": "WithdrawalSuccessful",
			"type": "event"
		},
		{
			"inputs": [],
			"name": "MPXContract",
			"outputs": [
				{
					"internalType": "contract IERC20",
					"name": "",
					"type": "address"
				}
			],
			"stateMutability": "view",
			"type": "function"
		},
		{
			"inputs": [],
			"name": "XFIContract",
			"outputs": [
				{
					"internalType": "contract IERC20",
					"name": "",
					"type": "address"
				}
			],
			"stateMutability": "view",
			"type": "function"
		},
		{
			"inputs": [
				{
					"internalType": "uint256",
					"name": "_amount",
					"type": "uint256"
				},
				{
					"internalType": "uint256",
					"name": "_duration",
					"type": "uint256"
				}
			],
			"name": "stake",
			"outputs": [],
			"stateMutability": "nonpayable",
			"type": "function"
		}
	]
}