{
	"data": {
		"bytecode": {
			"linkReferences": {},
			"object": "60c0604052348015600e575f5ffd5b5060805160a05161018661002a5f395f50505f50506101865ff3fe608060405234801561000f575f5ffd5b5060043610610034575f3560e01c806374b28101146100385780639be2f4ed14610056575b5f5ffd5b610040610074565b60405161004d9190610137565b60405180910390f35b61005e610098565b60405161006b9190610137565b60405180910390f35b5f5f9054906101000a900473ffffffffffffffffffffffffffffffffffffffff1681565b60015f9054906101000a900473ffffffffffffffffffffffffffffffffffffffff1681565b5f73ffffffffffffffffffffffffffffffffffffffff82169050919050565b5f819050919050565b5f6100ff6100fa6100f5846100bd565b6100dc565b6100bd565b9050919050565b5f610110826100e5565b9050919050565b5f61012182610106565b9050919050565b61013181610117565b82525050565b5f60208201905061014a5f830184610128565b9291505056fea2646970667358221220a1332b19a53ce4739049f23a9d3723c75949700a0d9e36f490a5fd5d51c5693364736f6c634300081b0033",
			"opcodes": "PUSH1 0xC0 PUSH1 0x40 MSTORE CALLVALUE DUP1 ISZERO PUSH1 0xE JUMPI PUSH0 PUSH0 REVERT JUMPDEST POP PUSH1 0x80 MLOAD PUSH1 0xA0 MLOAD PUSH2 0x186 PUSH2 0x2A PUSH0 CODECOPY PUSH0 POP POP PUSH0 POP POP PUSH2 0x186 PUSH0 RETURN INVALID PUSH1 0x80 PUSH1 0x40 MSTORE CALLVALUE DUP1 ISZERO PUSH2 0xF JUMPI PUSH0 PUSH0 REVERT JUMPDEST POP PUSH1 0x4 CALLDATASIZE LT PUSH2 0x34 JUMPI PUSH0 CALLDATALOAD PUSH1 0xE0 SHR DUP1 PUSH4 0x74B28101 EQ PUSH2 0x38 JUMPI DUP1 PUSH4 0x9BE2F4ED EQ PUSH2 0x56 JUMPI JUMPDEST PUSH0 PUSH0 REVERT JUMPDEST PUSH2 0x40 PUSH2 0x74 JUMP JUMPDEST PUSH1 0x40 MLOAD PUSH2 0x4D SWAP2 SWAP1 PUSH2 0x137 JUMP JUMPDEST PUSH1 0x40 MLOAD DUP1 SWAP2 SUB SWAP1 RETURN JUMPDEST PUSH2 0x5E PUSH2 0x98 JUMP JUMPDEST PUSH1 0x40 MLOAD PUSH2 0x6B SWAP2 SWAP1 PUSH2 0x137 JUMP JUMPDEST PUSH1 0x40 MLOAD DUP1 SWAP2 SUB SWAP1 RETURN JUMPDEST PUSH0 PUSH0 SWAP1 SLOAD SWAP1 PUSH2 0x100 EXP SWAP1 DIV PUSH20 0xFFFFFFFFFFFFFFFFFFFFFFFFFFFFFFFFFFFFFFFF AND DUP2 JUMP JUMPDEST PUSH1 0x1 PUSH0 SWAP1 SLOAD SWAP1 PUSH2 0x100 EXP SWAP1 DIV PUSH20 0xFFFFFFFFFFFFFFFFFFFFFFFFFFFFFFFFFFFFFFFF AND DUP2 JUMP JUMPDEST PUSH0 PUSH20 0xFFFFFFFFFFFFFFFFFFFFFFFFFFFFFFFFFFFFFFFF DUP3 AND SWAP1 POP SWAP2 SWAP1 POP JUMP JUMPDEST PUSH0 DUP2 SWAP1 POP SWAP2 SWAP1 POP JUMP JUMPDEST PUSH0 PUSH2 0xFF PUSH2 0xFA PUSH2 0xF5 DUP5 PUSH2 0xBD JUMP JUMPDEST PUSH2 0xDC JUMP JUMPDEST PUSH2 0xBD JUMP JUMPDEST SWAP1 POP SWAP2 SWAP1 POP JUMP JUMPDEST PUSH0 PUSH2 0x110 DUP3 PUSH2 0xE5 JUMP JUMPDEST SWAP1 POP SWAP2 SWAP1 POP JUMP JUMPDEST PUSH0 PUSH2 0x121 DUP3 PUSH2 0x106 JUMP JUMPDEST SWAP1 POP SWAP2 SWAP1 POP JUMP JUMPDEST PUSH2 0x131 DUP2 PUSH2 0x117 JUMP JUMPDEST DUP3 MSTORE POP POP JUMP JUMPDEST PUSH0 PUSH1 0x20 DUP3 ADD SWAP1 POP PUSH2 0x14A PUSH0 DUP4 ADD DUP5 PUSH2 0x128 JUMP JUMPDEST SWAP3 SWAP2 POP POP JUMP INVALID LOG2 PUSH5 0x6970667358 0x22 SLT KECCAK256 LOG1 CALLER 0x2B NOT 0xA5 EXTCODECOPY 0xE4 PUSH20 0x9049F23A9D3723C75949700A0D9E36F490A5FD5D MLOAD 0xC5 PUSH10 0x3364736F6C634300081B STOP CALLER "
		},
		"gasEstimates": {
			"creation": {
				"codeDepositCost": "78000",
				"executionCost": "infinite",
				"totalCost": "infinite"
			},
			"external": {
				"MPXContract()": "infinite",
				"XFIContract()": "infinite"
			}
		},
		"methodIdentifiers": {
			"MPXContract()": "9be2f4ed",
			"XFIContract()": "74b28101"
		}
	},
	"abi": [
		{
			"inputs": [],
			"name": "MPXContract",
			"outputs": [
				{
					"internalType": "contract IERC20",
					"name": "",
					"type": "address"
				}
			],
			"stateMutability": "view",
			"type": "function"
		},
		{
			"inputs": [],
			"name": "XFIContract",
			"outputs": [
				{
					"internalType": "contract IERC20",
					"name": "",
					"type": "address"
				}
			],
			"stateMutability": "view",
			"type": "function"
		}
	]
}