{
	"data": {
		"bytecode": {
			"linkReferences": {},
			"object": "608060405260645f55603260015560c860025561012c6003553480156022575f5ffd5b506103c1806100305f395ff3fe608060405234801561000f575f5ffd5b506004361061007b575f3560e01c8063bd9a548b11610059578063bd9a548b146100df578063def0506d14610100578063e01bce841461011e578063f9da8b9a1461013c5761007b565b80630e879d261461007f5780633323f429146100a0578063a6c5e57c146100be575b5f5ffd5b61008761015a565b60405161009794939291906102c1565b60405180910390f35b6100a8610174565b6040516100b59190610304565b60405180910390f35b6100c661017a565b6040516100d694939291906102c1565b60405180910390f35b6100e7610194565b6040516100f794939291906102c1565b60405180910390f35b6101086101fe565b6040516101159190610304565b60405180910390f35b610126610204565b6040516101339190610304565b60405180910390f35b61014461020a565b6040516101519190610304565b60405180910390f35b5f5f5f5f61016661020f565b935093509350935090919293565b60035481565b5f5f5f5f61018661025c565b935093509350935090919293565b5f5f5f5f5f5f5f5f6101a461025c565b93509350935093506019846101b9919061034a565b9350836019846101c9919061034a565b9350836019846101d9919061034a565b9350836019846101e9919061034a565b93508397509750975097505050505090919293565b60015481565b60025481565b5f5481565b5f5f5f5f600a5f54610221919061034a565b600a600154610230919061034a565b600a60025461023f919061034a565b600a60035461024e919061034a565b935093509350935090919293565b5f5f5f5f600f5f5461026e919061034a565b600f60015461027d919061034a565b600f60025461028c919061034a565b600f60035461029b919061034a565b935093509350935090919293565b5f819050919050565b6102bb816102a9565b82525050565b5f6080820190506102d45f8301876102b2565b6102e160208301866102b2565b6102ee60408301856102b2565b6102fb60608301846102b2565b95945050505050565b5f6020820190506103175f8301846102b2565b92915050565b7f4e487b71000000000000000000000000000000000000000000000000000000005f52601160045260245ffd5b5f610354826102a9565b915061035f836102a9565b925082820261036d816102a9565b915082820484148315176103845761038361031d565b5b509291505056fea264697066735822122030797a89b7322b0bc4446e179f4e6c8c8a106b563300678725b7d83656cb747664736f6c634300081b0033",
			"opcodes": "PUSH1 0x80 PUSH1 0x40 MSTORE PUSH1 0x64 PUSH0 SSTORE PUSH1 0x32 PUSH1 0x1 SSTORE PUSH1 0xC8 PUSH1 0x2 SSTORE PUSH2 0x12C PUSH1 0x3 SSTORE CALLVALUE DUP1 ISZERO PUSH1 0x22 JUMPI PUSH0 PUSH0 REVERT JUMPDEST POP PUSH2 0x3C1 DUP1 PUSH2 0x30 PUSH0 CODECOPY PUSH0 RETURN INVALID PUSH1 0x80 PUSH1 0x40 MSTORE CALLVALUE DUP1 ISZERO PUSH2 0xF JUMPI PUSH0 PUSH0 REVERT JUMPDEST POP PUSH1 0x4 CALLDATASIZE LT PUSH2 0x7B JUMPI PUSH0 CALLDATALOAD PUSH1 0xE0 SHR DUP1 PUSH4 0xBD9A548B GT PUSH2 0x59 JUMPI DUP1 PUSH4 0xBD9A548B EQ PUSH2 0xDF JUMPI DUP1 PUSH4 0xDEF0506D EQ PUSH2 0x100 JUMPI DUP1 PUSH4 0xE01BCE84 EQ PUSH2 0x11E JUMPI DUP1 PUSH4 0xF9DA8B9A EQ PUSH2 0x13C JUMPI PUSH2 0x7B JUMP JUMPDEST DUP1 PUSH4 0xE879D26 EQ PUSH2 0x7F JUMPI DUP1 PUSH4 0x3323F429 EQ PUSH2 0xA0 JUMPI DUP1 PUSH4 0xA6C5E57C EQ PUSH2 0xBE JUMPI JUMPDEST PUSH0 PUSH0 REVERT JUMPDEST PUSH2 0x87 PUSH2 0x15A JUMP JUMPDEST PUSH1 0x40 MLOAD PUSH2 0x97 SWAP5 SWAP4 SWAP3 SWAP2 SWAP1 PUSH2 0x2C1 JUMP JUMPDEST PUSH1 0x40 MLOAD DUP1 SWAP2 SUB SWAP1 RETURN JUMPDEST PUSH2 0xA8 PUSH2 0x174 JUMP JUMPDEST PUSH1 0x40 MLOAD PUSH2 0xB5 SWAP2 SWAP1 PUSH2 0x304 JUMP JUMPDEST PUSH1 0x40 MLOAD DUP1 SWAP2 SUB SWAP1 RETURN JUMPDEST PUSH2 0xC6 PUSH2 0x17A JUMP JUMPDEST PUSH1 0x40 MLOAD PUSH2 0xD6 SWAP5 SWAP4 SWAP3 SWAP2 SWAP1 PUSH2 0x2C1 JUMP JUMPDEST PUSH1 0x40 MLOAD DUP1 SWAP2 SUB SWAP1 RETURN JUMPDEST PUSH2 0xE7 PUSH2 0x194 JUMP JUMPDEST PUSH1 0x40 MLOAD PUSH2 0xF7 SWAP5 SWAP4 SWAP3 SWAP2 SWAP1 PUSH2 0x2C1 JUMP JUMPDEST PUSH1 0x40 MLOAD DUP1 SWAP2 SUB SWAP1 RETURN JUMPDEST PUSH2 0x108 PUSH2 0x1FE JUMP JUMPDEST PUSH1 0x40 MLOAD PUSH2 0x115 SWAP2 SWAP1 PUSH2 0x304 JUMP JUMPDEST PUSH1 0x40 MLOAD DUP1 SWAP2 SUB SWAP1 RETURN JUMPDEST PUSH2 0x126 PUSH2 0x204 JUMP JUMPDEST PUSH1 0x40 MLOAD PUSH2 0x133 SWAP2 SWAP1 PUSH2 0x304 JUMP JUMPDEST PUSH1 0x40 MLOAD DUP1 SWAP2 SUB SWAP1 RETURN JUMPDEST PUSH2 0x144 PUSH2 0x20A JUMP JUMPDEST PUSH1 0x40 MLOAD PUSH2 0x151 SWAP2 SWAP1 PUSH2 0x304 JUMP JUMPDEST PUSH1 0x40 MLOAD DUP1 SWAP2 SUB SWAP1 RETURN JUMPDEST PUSH0 PUSH0 PUSH0 PUSH0 PUSH2 0x166 PUSH2 0x20F JUMP JUMPDEST SWAP4 POP SWAP4 POP SWAP4 POP SWAP4 POP SWAP1 SWAP2 SWAP3 SWAP4 JUMP JUMPDEST PUSH1 0x3 SLOAD DUP2 JUMP JUMPDEST PUSH0 PUSH0 PUSH0 PUSH0 PUSH2 0x186 PUSH2 0x25C JUMP JUMPDEST SWAP4 POP SWAP4 POP SWAP4 POP SWAP4 POP SWAP1 SWAP2 SWAP3 SWAP4 JUMP JUMPDEST PUSH0 PUSH0 PUSH0 PUSH0 PUSH0 PUSH0 PUSH0 PUSH0 PUSH2 0x1A4 PUSH2 0x25C JUMP JUMPDEST SWAP4 POP SWAP4 POP SWAP4 POP SWAP4 POP PUSH1 0x19 DUP5 PUSH2 0x1B9 SWAP2 SWAP1 PUSH2 0x34A JUMP JUMPDEST SWAP4 POP DUP4 PUSH1 0x19 DUP5 PUSH2 0x1C9 SWAP2 SWAP1 PUSH2 0x34A JUMP JUMPDEST SWAP4 POP DUP4 PUSH1 0x19 DUP5 PUSH2 0x1D9 SWAP2 SWAP1 PUSH2 0x34A JUMP JUMPDEST SWAP4 POP DUP4 PUSH1 0x19 DUP5 PUSH2 0x1E9 SWAP2 SWAP1 PUSH2 0x34A JUMP JUMPDEST SWAP4 POP DUP4 SWAP8 POP SWAP8 POP SWAP8 POP SWAP8 POP POP POP POP POP SWAP1 SWAP2 SWAP3 SWAP4 JUMP JUMPDEST PUSH1 0x1 SLOAD DUP2 JUMP JUMPDEST PUSH1 0x2 SLOAD DUP2 JUMP JUMPDEST PUSH0 SLOAD DUP2 JUMP JUMPDEST PUSH0 PUSH0 PUSH0 PUSH0 PUSH1 0xA PUSH0 SLOAD PUSH2 0x221 SWAP2 SWAP1 PUSH2 0x34A JUMP JUMPDEST PUSH1 0xA PUSH1 0x1 SLOAD PUSH2 0x230 SWAP2 SWAP1 PUSH2 0x34A JUMP JUMPDEST PUSH1 0xA PUSH1 0x2 SLOAD PUSH2 0x23F SWAP2 SWAP1 PUSH2 0x34A JUMP JUMPDEST PUSH1 0xA PUSH1 0x3 SLOAD PUSH2 0x24E SWAP2 SWAP1 PUSH2 0x34A JUMP JUMPDEST SWAP4 POP SWAP4 POP SWAP4 POP SWAP4 POP SWAP1 SWAP2 SWAP3 SWAP4 JUMP JUMPDEST PUSH0 PUSH0 PUSH0 PUSH0 PUSH1 0xF PUSH0 SLOAD PUSH2 0x26E SWAP2 SWAP1 PUSH2 0x34A JUMP JUMPDEST PUSH1 0xF PUSH1 0x1 SLOAD PUSH2 0x27D SWAP2 SWAP1 PUSH2 0x34A JUMP JUMPDEST PUSH1 0xF PUSH1 0x2 SLOAD PUSH2 0x28C SWAP2 SWAP1 PUSH2 0x34A JUMP JUMPDEST PUSH1 0xF PUSH1 0x3 SLOAD PUSH2 0x29B SWAP2 SWAP1 PUSH2 0x34A JUMP JUMPDEST SWAP4 POP SWAP4 POP SWAP4 POP SWAP4 POP SWAP1 SWAP2 SWAP3 SWAP4 JUMP JUMPDEST PUSH0 DUP2 SWAP1 POP SWAP2 SWAP1 POP JUMP JUMPDEST PUSH2 0x2BB DUP2 PUSH2 0x2A9 JUMP JUMPDEST DUP3 MSTORE POP POP JUMP JUMPDEST PUSH0 PUSH1 0x80 DUP3 ADD SWAP1 POP PUSH2 0x2D4 PUSH0 DUP4 ADD DUP8 PUSH2 0x2B2 JUMP JUMPDEST PUSH2 0x2E1 PUSH1 0x20 DUP4 ADD DUP7 PUSH2 0x2B2 JUMP JUMPDEST PUSH2 0x2EE PUSH1 0x40 DUP4 ADD DUP6 PUSH2 0x2B2 JUMP JUMPDEST PUSH2 0x2FB PUSH1 0x60 DUP4 ADD DUP5 PUSH2 0x2B2 JUMP JUMPDEST SWAP6 SWAP5 POP POP POP POP POP JUMP JUMPDEST PUSH0 PUSH1 0x20 DUP3 ADD SWAP1 POP PUSH2 0x317 PUSH0 DUP4 ADD DUP5 PUSH2 0x2B2 JUMP JUMPDEST SWAP3 SWAP2 POP POP JUMP JUMPDEST PUSH32 0x4E487B7100000000000000000000000000000000000000000000000000000000 PUSH0 MSTORE PUSH1 0x11 PUSH1 0x4 MSTORE PUSH1 0x24 PUSH0 REVERT JUMPDEST PUSH0 PUSH2 0x354 DUP3 PUSH2 0x2A9 JUMP JUMPDEST SWAP2 POP PUSH2 0x35F DUP4 PUSH2 0x2A9 JUMP JUMPDEST SWAP3 POP DUP3 DUP3 MUL PUSH2 0x36D DUP2 PUSH2 0x2A9 JUMP JUMPDEST SWAP2 POP DUP3 DUP3 DIV DUP5 EQ DUP4 ISZERO OR PUSH2 0x384 JUMPI PUSH2 0x383 PUSH2 0x31D JUMP JUMPDEST JUMPDEST POP SWAP3 SWAP2 POP POP JUMP INVALID LOG2 PUSH5 0x6970667358 0x22 SLT KECCAK256 ADDRESS PUSH26 0x7A89B7322B0BC4446E179F4E6C8C8A106B563300678725B7D836 JUMP 0xCB PUSH21 0x7664736F6C634300081B0033000000000000000000 "
		},
		"gasEstimates": {
			"creation": {
				"codeDepositCost": "192200",
				"executionCost": "88659",
				"totalCost": "280859"
			},
			"external": {
				"burgerPrice()": "2469",
				"getIkoroduPrices()": "infinite",
				"getMainlandPrices()": "infinite",
				"getPrices()": "infinite",
				"plateOfRicePrice()": "2490",
				"sharwamaPrice()": "2448",
				"tableWaterPrice()": "2447"
			}
		},
		"methodIdentifiers": {
			"burgerPrice()": "e01bce84",
			"getIkoroduPrices()": "0e879d26",
			"getMainlandPrices()": "a6c5e57c",
			"getPrices()": "bd9a548b",
			"plateOfRicePrice()": "f9da8b9a",
			"sharwamaPrice()": "3323f429",
			"tableWaterPrice()": "def0506d"
		}
	},
	"abi": [
		{
			"inputs": [],
			"name": "burgerPrice",
			"outputs": [
				{
					"internalType": "uint256",
					"name": "",
					"type": "uint256"
				}
			],
			"stateMutability": "view",
			"type": "function"
		},
		{
			"inputs": [],
			"name": "getIkoroduPrices",
			"outputs": [
				{
					"internalType": "uint256",
					"name": "",
					"type": "uint256"
				},
				{
					"internalType": "uint256",
					"name": "",
					"type": "uint256"
				},
				{
					"internalType": "uint256",
					"name": "",
					"type": "uint256"
				},
				{
					"internalType": "uint256",
					"name": "",
					"type": "uint256"
				}
			],
			"stateMutability": "view",
			"type": "function"
		},
		{
			"inputs": [],
			"name": "getMainlandPrices",
			"outputs": [
				{
					"internalType": "uint256",
					"name": "",
					"type": "uint256"
				},
				{
					"internalType": "uint256",
					"name": "",
					"type": "uint256"
				},
				{
					"internalType": "uint256",
					"name": "",
					"type": "uint256"
				},
				{
					"internalType": "uint256",
					"name": "",
					"type": "uint256"
				}
			],
			"stateMutability": "view",
			"type": "function"
		},
		{
			"inputs": [],
			"name": "getPrices",
			"outputs": [
				{
					"internalType": "uint256",
					"name": "",
					"type": "uint256"
				},
				{
					"internalType": "uint256",
					"name": "",
					"type": "uint256"
				},
				{
					"internalType": "uint256",
					"name": "",
					"type": "uint256"
				},
				{
					"internalType": "uint256",
					"name": "",
					"type": "uint256"
				}
			],
			"stateMutability": "view",
			"type": "function"
		},
		{
			"inputs": [],
			"name": "plateOfRicePrice",
			"outputs": [
				{
					"internalType": "uint256",
					"name": "",
					"type": "uint256"
				}
			],
			"stateMutability": "view",
			"type": "function"
		},
		{
			"inputs": [],
			"name": "sharwamaPrice",
			"outputs": [
				{
					"internalType": "uint256",
					"name": "",
					"type": "uint256"
				}
			],
			"stateMutability": "view",
			"type": "function"
		},
		{
			"inputs": [],
			"name": "tableWaterPrice",
			"outputs": [
				{
					"internalType": "uint256",
					"name": "",
					"type": "uint256"
				}
			],
			"stateMutability": "view",
			"type": "function"
		}
	]
}